{
	"contracts/Usdc.sol": {
		"USDC": {
			"abi": [
				{
					"inputs": [],
					"stateMutability": "nonpayable",
					"type": "constructor"
				},
				{
					"anonymous": false,
					"inputs": [
						{
							"indexed": true,
							"internalType": "address",
							"name": "owner",
							"type": "address"
						},
						{
							"indexed": true,
							"internalType": "address",
							"name": "spender",
							"type": "address"
						},
						{
							"indexed": false,
							"internalType": "uint256",
							"name": "value",
							"type": "uint256"
						}
					],
					"name": "Approval",
					"type": "event"
				},
				{
					"anonymous": false,
					"inputs": [
						{
							"indexed": true,
							"internalType": "address",
							"name": "previousOwner",
							"type": "address"
						},
						{
							"indexed": true,
							"internalType": "address",
							"name": "newOwner",
							"type": "address"
						}
					],
					"name": "OwnershipTransferred",
					"type": "event"
				},
				{
					"anonymous": false,
					"inputs": [
						{
							"indexed": true,
							"internalType": "address",
							"name": "from",
							"type": "address"
						},
						{
							"indexed": true,
							"internalType": "address",
							"name": "to",
							"type": "address"
						},
						{
							"indexed": false,
							"internalType": "uint256",
							"name": "value",
							"type": "uint256"
						}
					],
					"name": "Transfer",
					"type": "event"
				},
				{
					"inputs": [
						{
							"internalType": "address",
							"name": "tokenOwner",
							"type": "address"
						},
						{
							"internalType": "address",
							"name": "spender",
							"type": "address"
						}
					],
					"name": "allowance",
					"outputs": [
						{
							"internalType": "uint256",
							"name": "remaining",
							"type": "uint256"
						}
					],
					"stateMutability": "view",
					"type": "function"
				},
				{
					"inputs": [
						{
							"internalType": "address",
							"name": "_spender",
							"type": "address"
						},
						{
							"internalType": "uint256",
							"name": "_amount",
							"type": "uint256"
						}
					],
					"name": "approve",
					"outputs": [
						{
							"internalType": "bool",
							"name": "",
							"type": "bool"
						}
					],
					"stateMutability": "nonpayable",
					"type": "function"
				},
				{
					"inputs": [
						{
							"internalType": "address",
							"name": "tokenOwner",
							"type": "address"
						}
					],
					"name": "balanceOf",
					"outputs": [
						{
							"internalType": "uint256",
							"name": "balance",
							"type": "uint256"
						}
					],
					"stateMutability": "view",
					"type": "function"
				},
				{
					"inputs": [],
					"name": "decimals",
					"outputs": [
						{
							"internalType": "uint8",
							"name": "",
							"type": "uint8"
						}
					],
					"stateMutability": "view",
					"type": "function"
				},
				{
					"inputs": [
						{
							"internalType": "address",
							"name": "_spender",
							"type": "address"
						},
						{
							"internalType": "uint256",
							"name": "_amount",
							"type": "uint256"
						}
					],
					"name": "decreaseAllowance",
					"outputs": [
						{
							"internalType": "bool",
							"name": "",
							"type": "bool"
						}
					],
					"stateMutability": "nonpayable",
					"type": "function"
				},
				{
					"inputs": [],
					"name": "getOwner",
					"outputs": [
						{
							"internalType": "address",
							"name": "",
							"type": "address"
						}
					],
					"stateMutability": "view",
					"type": "function"
				},
				{
					"inputs": [
						{
							"internalType": "address",
							"name": "_spender",
							"type": "address"
						},
						{
							"internalType": "uint256",
							"name": "_amount",
							"type": "uint256"
						}
					],
					"name": "increaseAllowance",
					"outputs": [
						{
							"internalType": "bool",
							"name": "",
							"type": "bool"
						}
					],
					"stateMutability": "nonpayable",
					"type": "function"
				},
				{
					"inputs": [],
					"name": "name",
					"outputs": [
						{
							"internalType": "string",
							"name": "",
							"type": "string"
						}
					],
					"stateMutability": "view",
					"type": "function"
				},
				{
					"inputs": [],
					"name": "owner",
					"outputs": [
						{
							"internalType": "address",
							"name": "",
							"type": "address"
						}
					],
					"stateMutability": "view",
					"type": "function"
				},
				{
					"inputs": [],
					"name": "renounceOwnership",
					"outputs": [],
					"stateMutability": "nonpayable",
					"type": "function"
				},
				{
					"inputs": [],
					"name": "symbol",
					"outputs": [
						{
							"internalType": "string",
							"name": "",
							"type": "string"
						}
					],
					"stateMutability": "view",
					"type": "function"
				},
				{
					"inputs": [],
					"name": "totalSupply",
					"outputs": [
						{
							"internalType": "uint256",
							"name": "",
							"type": "uint256"
						}
					],
					"stateMutability": "view",
					"type": "function"
				},
				{
					"inputs": [
						{
							"internalType": "address",
							"name": "_to",
							"type": "address"
						},
						{
							"internalType": "uint256",
							"name": "_amount",
							"type": "uint256"
						}
					],
					"name": "transfer",
					"outputs": [
						{
							"internalType": "bool",
							"name": "success",
							"type": "bool"
						}
					],
					"stateMutability": "nonpayable",
					"type": "function"
				},
				{
					"inputs": [
						{
							"internalType": "address",
							"name": "_from",
							"type": "address"
						},
						{
							"internalType": "address",
							"name": "_to",
							"type": "address"
						},
						{
							"internalType": "uint256",
							"name": "_amount",
							"type": "uint256"
						}
					],
					"name": "transferFrom",
					"outputs": [
						{
							"internalType": "bool",
							"name": "success",
							"type": "bool"
						}
					],
					"stateMutability": "nonpayable",
					"type": "function"
				},
				{
					"inputs": [
						{
							"internalType": "address",
							"name": "newOwner",
							"type": "address"
						}
					],
					"name": "transferOwnership",
					"outputs": [],
					"stateMutability": "nonpayable",
					"type": "function"
				}
			],
			"devdoc": {
				"kind": "dev",
				"methods": {
					"owner()": {
						"details": "Returns the address of the current owner."
					},
					"renounceOwnership()": {
						"details": "Leaves the contract without owner. It will not be possible to call `onlyOwner` functions anymore. Can only be called by the current owner. NOTE: Renouncing ownership will leave the contract without an owner, thereby removing any functionality that is only available to the owner."
					},
					"totalSupply()": {
						"details": "Returns the amount of tokens in existence."
					},
					"transferOwnership(address)": {
						"details": "Transfers ownership of the contract to a new account (`newOwner`). Can only be called by the current owner."
					}
				},
				"version": 1
			},
			"evm": {
				"assembly": "    /* \"contracts/Usdc.sol\":174:4031  contract USDC is IERC20 , Ownable  {\r... */\n  mstore(0x40, 0x80)\n    /* \"contracts/Usdc.sol\":321:353  string private _tokenName=\"TEST\" */\n  mload(0x40)\n  dup1\n  0x40\n  add\n  0x40\n  mstore\n  dup1\n  0x04\n  dup2\n  mstore\n  0x20\n  add\n  0x5445535400000000000000000000000000000000000000000000000000000000\n  dup2\n  mstore\n  pop\n  0x03\n  swap1\n  dup1\n  mload\n  swap1\n  0x20\n  add\n  swap1\n  tag_1\n  swap3\n  swap2\n  swap1\n  tag_2\n  jump\t// in\ntag_1:\n  pop\n    /* \"contracts/Usdc.sol\":358:390  string private _tokenSymbol=\"TT\" */\n  mload(0x40)\n  dup1\n  0x40\n  add\n  0x40\n  mstore\n  dup1\n  0x02\n  dup2\n  mstore\n  0x20\n  add\n  0x5454000000000000000000000000000000000000000000000000000000000000\n  dup2\n  mstore\n  pop\n  0x04\n  swap1\n  dup1\n  mload\n  swap1\n  0x20\n  add\n  swap1\n  tag_3\n  swap3\n  swap2\n  swap1\n  tag_2\n  jump\t// in\ntag_3:\n  pop\n    /* \"contracts/Usdc.sol\":419:421  18 */\n  0x12\n    /* \"contracts/Usdc.sol\":395:421  uint8 private _decimals=18 */\n  0x05\n  exp(0x0100, 0x00)\n  dup2\n  sload\n  dup2\n  0xff\n  mul\n  not\n  and\n  swap1\n  dup4\n  0xff\n  and\n  mul\n  or\n  swap1\n  sstore\n  pop\n    /* \"contracts/Usdc.sol\":455:478  10000000000000000000000 */\n  0x021e19e0c9bab2400000\n    /* \"contracts/Usdc.sol\":426:478  uint256 private _totalSupply=10000000000000000000000 */\n  0x06\n  sstore\n    /* \"contracts/Usdc.sol\":485:545  constructor(){\r... */\n  callvalue\n  dup1\n  iszero\n  tag_4\n  jumpi\n  0x00\n  dup1\n  revert\ntag_4:\n  pop\n    /* \"@openzeppelin/contracts/access/Ownable.sol\":921:953  _transferOwnership(_msgSender()) */\n  tag_8\n    /* \"@openzeppelin/contracts/access/Ownable.sol\":940:952  _msgSender() */\n  tag_9\n    /* \"@openzeppelin/contracts/access/Ownable.sol\":940:950  _msgSender */\n  shl(0x20, tag_10)\n    /* \"@openzeppelin/contracts/access/Ownable.sol\":940:952  _msgSender() */\n  0x20\n  shr\n  jump\t// in\ntag_9:\n    /* \"@openzeppelin/contracts/access/Ownable.sol\":921:939  _transferOwnership */\n  shl(0x20, tag_11)\n    /* \"@openzeppelin/contracts/access/Ownable.sol\":921:953  _transferOwnership(_msgSender()) */\n  0x20\n  shr\n  jump\t// in\ntag_8:\n    /* \"contracts/Usdc.sol\":527:539  _totalSupply */\n  sload(0x06)\n    /* \"contracts/Usdc.sol\":507:516  _balances */\n  0x01\n    /* \"contracts/Usdc.sol\":507:525  _balances[owner()] */\n  0x00\n    /* \"contracts/Usdc.sol\":517:524  owner() */\n  tag_13\n    /* \"contracts/Usdc.sol\":517:522  owner */\n  shl(0x20, tag_14)\n    /* \"contracts/Usdc.sol\":517:524  owner() */\n  0x20\n  shr\n  jump\t// in\ntag_13:\n    /* \"contracts/Usdc.sol\":507:525  _balances[owner()] */\n  0xffffffffffffffffffffffffffffffffffffffff\n  and\n  0xffffffffffffffffffffffffffffffffffffffff\n  and\n  dup2\n  mstore\n  0x20\n  add\n  swap1\n  dup2\n  mstore\n  0x20\n  add\n  0x00\n  keccak256\n    /* \"contracts/Usdc.sol\":507:539  _balances[owner()]= _totalSupply */\n  dup2\n  swap1\n  sstore\n  pop\n    /* \"contracts/Usdc.sol\":174:4031  contract USDC is IERC20 , Ownable  {\r... */\n  jump(tag_15)\n    /* \"@openzeppelin/contracts/utils/Context.sol\":640:736  function _msgSender() internal view virtual returns (address) {... */\ntag_10:\n    /* \"@openzeppelin/contracts/utils/Context.sol\":693:700  address */\n  0x00\n    /* \"@openzeppelin/contracts/utils/Context.sol\":719:729  msg.sender */\n  caller\n    /* \"@openzeppelin/contracts/utils/Context.sol\":712:729  return msg.sender */\n  swap1\n  pop\n    /* \"@openzeppelin/contracts/utils/Context.sol\":640:736  function _msgSender() internal view virtual returns (address) {... */\n  swap1\n  jump\t// out\n    /* \"@openzeppelin/contracts/access/Ownable.sol\":2270:2457  function _transferOwnership(address newOwner) internal virtual {... */\ntag_11:\n    /* \"@openzeppelin/contracts/access/Ownable.sol\":2343:2359  address oldOwner */\n  0x00\n    /* \"@openzeppelin/contracts/access/Ownable.sol\":2362:2368  _owner */\n  dup1\n  0x00\n  swap1\n  sload\n  swap1\n  0x0100\n  exp\n  swap1\n  div\n  0xffffffffffffffffffffffffffffffffffffffff\n  and\n    /* \"@openzeppelin/contracts/access/Ownable.sol\":2343:2368  address oldOwner = _owner */\n  swap1\n  pop\n    /* \"@openzeppelin/contracts/access/Ownable.sol\":2387:2395  newOwner */\n  dup2\n    /* \"@openzeppelin/contracts/access/Ownable.sol\":2378:2384  _owner */\n  0x00\n  dup1\n    /* \"@openzeppelin/contracts/access/Ownable.sol\":2378:2395  _owner = newOwner */\n  0x0100\n  exp\n  dup2\n  sload\n  dup2\n  0xffffffffffffffffffffffffffffffffffffffff\n  mul\n  not\n  and\n  swap1\n  dup4\n  0xffffffffffffffffffffffffffffffffffffffff\n  and\n  mul\n  or\n  swap1\n  sstore\n  pop\n    /* \"@openzeppelin/contracts/access/Ownable.sol\":2441:2449  newOwner */\n  dup2\n    /* \"@openzeppelin/contracts/access/Ownable.sol\":2410:2450  OwnershipTransferred(oldOwner, newOwner) */\n  0xffffffffffffffffffffffffffffffffffffffff\n  and\n    /* \"@openzeppelin/contracts/access/Ownable.sol\":2431:2439  oldOwner */\n  dup2\n    /* \"@openzeppelin/contracts/access/Ownable.sol\":2410:2450  OwnershipTransferred(oldOwner, newOwner) */\n  0xffffffffffffffffffffffffffffffffffffffff\n  and\n  0x8be0079c531659141344cd1fd0a4f28419497f9722a3daafe3b4186f6b6457e0\n  mload(0x40)\n  mload(0x40)\n  dup1\n  swap2\n  sub\n  swap1\n  log3\n    /* \"@openzeppelin/contracts/access/Ownable.sol\":2333:2457  {... */\n  pop\n    /* \"@openzeppelin/contracts/access/Ownable.sol\":2270:2457  function _transferOwnership(address newOwner) internal virtual {... */\n  pop\n  jump\t// out\n    /* \"@openzeppelin/contracts/access/Ownable.sol\":1036:1121  function owner() public view virtual returns (address) {... */\ntag_14:\n    /* \"@openzeppelin/contracts/access/Ownable.sol\":1082:1089  address */\n  0x00\n    /* \"@openzeppelin/contracts/access/Ownable.sol\":1108:1114  _owner */\n  dup1\n  0x00\n  swap1\n  sload\n  swap1\n  0x0100\n  exp\n  swap1\n  div\n  0xffffffffffffffffffffffffffffffffffffffff\n  and\n    /* \"@openzeppelin/contracts/access/Ownable.sol\":1101:1114  return _owner */\n  swap1\n  pop\n    /* \"@openzeppelin/contracts/access/Ownable.sol\":1036:1121  function owner() public view virtual returns (address) {... */\n  swap1\n  jump\t// out\n    /* \"contracts/Usdc.sol\":174:4031  contract USDC is IERC20 , Ownable  {\r... */\ntag_2:\n  dup3\n  dup1\n  sload\n  tag_19\n  swap1\n  tag_20\n  jump\t// in\ntag_19:\n  swap1\n  0x00\n  mstore\n  keccak256(0x00, 0x20)\n  swap1\n  0x1f\n  add\n  0x20\n  swap1\n  div\n  dup2\n  add\n  swap3\n  dup3\n  tag_22\n  jumpi\n  0x00\n  dup6\n  sstore\n  jump(tag_21)\ntag_22:\n  dup3\n  0x1f\n  lt\n  tag_23\n  jumpi\n  dup1\n  mload\n  not(0xff)\n  and\n  dup4\n  dup1\n  add\n  or\n  dup6\n  sstore\n  jump(tag_21)\ntag_23:\n  dup3\n  dup1\n  add\n  0x01\n  add\n  dup6\n  sstore\n  dup3\n  iszero\n  tag_21\n  jumpi\n  swap2\n  dup3\n  add\ntag_24:\n  dup3\n  dup2\n  gt\n  iszero\n  tag_25\n  jumpi\n  dup3\n  mload\n  dup3\n  sstore\n  swap2\n  0x20\n  add\n  swap2\n  swap1\n  0x01\n  add\n  swap1\n  jump(tag_24)\ntag_25:\ntag_21:\n  pop\n  swap1\n  pop\n  tag_26\n  swap2\n  swap1\n  tag_27\n  jump\t// in\ntag_26:\n  pop\n  swap1\n  jump\t// out\ntag_27:\ntag_28:\n  dup1\n  dup3\n  gt\n  iszero\n  tag_29\n  jumpi\n  0x00\n  dup2\n  0x00\n  swap1\n  sstore\n  pop\n  0x01\n  add\n  jump(tag_28)\ntag_29:\n  pop\n  swap1\n  jump\t// out\n    /* \"#utility.yul\":7:327   */\ntag_20:\n    /* \"#utility.yul\":51:57   */\n  0x00\n    /* \"#utility.yul\":88:89   */\n  0x02\n    /* \"#utility.yul\":82:86   */\n  dup3\n    /* \"#utility.yul\":78:90   */\n  div\n    /* \"#utility.yul\":68:90   */\n  swap1\n  pop\n    /* \"#utility.yul\":135:136   */\n  0x01\n    /* \"#utility.yul\":129:133   */\n  dup3\n    /* \"#utility.yul\":125:137   */\n  and\n    /* \"#utility.yul\":156:174   */\n  dup1\n    /* \"#utility.yul\":146:227   */\n  tag_32\n  jumpi\n    /* \"#utility.yul\":212:216   */\n  0x7f\n    /* \"#utility.yul\":204:210   */\n  dup3\n    /* \"#utility.yul\":200:217   */\n  and\n    /* \"#utility.yul\":190:217   */\n  swap2\n  pop\n    /* \"#utility.yul\":146:227   */\ntag_32:\n    /* \"#utility.yul\":274:276   */\n  0x20\n    /* \"#utility.yul\":266:272   */\n  dup3\n    /* \"#utility.yul\":263:277   */\n  lt\n    /* \"#utility.yul\":243:261   */\n  dup2\n    /* \"#utility.yul\":240:278   */\n  eq\n    /* \"#utility.yul\":237:321   */\n  iszero\n  tag_33\n  jumpi\n    /* \"#utility.yul\":293:311   */\n  tag_34\n  tag_35\n  jump\t// in\ntag_34:\n    /* \"#utility.yul\":237:321   */\ntag_33:\n    /* \"#utility.yul\":58:327   */\n  pop\n    /* \"#utility.yul\":7:327   */\n  swap2\n  swap1\n  pop\n  jump\t// out\n    /* \"#utility.yul\":333:513   */\ntag_35:\n    /* \"#utility.yul\":381:458   */\n  0x4e487b7100000000000000000000000000000000000000000000000000000000\n    /* \"#utility.yul\":378:379   */\n  0x00\n    /* \"#utility.yul\":371:459   */\n  mstore\n    /* \"#utility.yul\":478:482   */\n  0x22\n    /* \"#utility.yul\":475:476   */\n  0x04\n    /* \"#utility.yul\":468:483   */\n  mstore\n    /* \"#utility.yul\":502:506   */\n  0x24\n    /* \"#utility.yul\":499:500   */\n  0x00\n    /* \"#utility.yul\":492:507   */\n  revert\n    /* \"contracts/Usdc.sol\":174:4031  contract USDC is IERC20 , Ownable  {\r... */\ntag_15:\n  dataSize(sub_0)\n  dup1\n  dataOffset(sub_0)\n  0x00\n  codecopy\n  0x00\n  return\nstop\n\nsub_0: assembly {\n        /* \"contracts/Usdc.sol\":174:4031  contract USDC is IERC20 , Ownable  {\r... */\n      mstore(0x40, 0x80)\n      callvalue\n      dup1\n      iszero\n      tag_1\n      jumpi\n      0x00\n      dup1\n      revert\n    tag_1:\n      pop\n      jumpi(tag_2, lt(calldatasize, 0x04))\n      shr(0xe0, calldataload(0x00))\n      dup1\n      0x715018a6\n      gt\n      tag_18\n      jumpi\n      dup1\n      0xa457c2d7\n      gt\n      tag_19\n      jumpi\n      dup1\n      0xa457c2d7\n      eq\n      tag_14\n      jumpi\n      dup1\n      0xa9059cbb\n      eq\n      tag_15\n      jumpi\n      dup1\n      0xdd62ed3e\n      eq\n      tag_16\n      jumpi\n      dup1\n      0xf2fde38b\n      eq\n      tag_17\n      jumpi\n      jump(tag_2)\n    tag_19:\n      dup1\n      0x715018a6\n      eq\n      tag_10\n      jumpi\n      dup1\n      0x893d20e8\n      eq\n      tag_11\n      jumpi\n      dup1\n      0x8da5cb5b\n      eq\n      tag_12\n      jumpi\n      dup1\n      0x95d89b41\n      eq\n      tag_13\n      jumpi\n      jump(tag_2)\n    tag_18:\n      dup1\n      0x23b872dd\n      gt\n      tag_20\n      jumpi\n      dup1\n      0x23b872dd\n      eq\n      tag_6\n      jumpi\n      dup1\n      0x313ce567\n      eq\n      tag_7\n      jumpi\n      dup1\n      0x39509351\n      eq\n      tag_8\n      jumpi\n      dup1\n      0x70a08231\n      eq\n      tag_9\n      jumpi\n      jump(tag_2)\n    tag_20:\n      dup1\n      0x06fdde03\n      eq\n      tag_3\n      jumpi\n      dup1\n      0x095ea7b3\n      eq\n      tag_4\n      jumpi\n      dup1\n      0x18160ddd\n      eq\n      tag_5\n      jumpi\n    tag_2:\n      0x00\n      dup1\n      revert\n        /* \"contracts/Usdc.sol\":745:834  function name() public view virtual returns (string memory){\r... */\n    tag_3:\n      tag_21\n      tag_22\n      jump\t// in\n    tag_21:\n      mload(0x40)\n      tag_23\n      swap2\n      swap1\n      tag_24\n      jump\t// in\n    tag_23:\n      mload(0x40)\n      dup1\n      swap2\n      sub\n      swap1\n      return\n        /* \"contracts/Usdc.sol\":1714:1929  function approve(address _spender, uint256 _amount)\r... */\n    tag_4:\n      tag_25\n      0x04\n      dup1\n      calldatasize\n      sub\n      dup2\n      add\n      swap1\n      tag_26\n      swap2\n      swap1\n      tag_27\n      jump\t// in\n    tag_26:\n      tag_28\n      jump\t// in\n    tag_25:\n      mload(0x40)\n      tag_29\n      swap2\n      swap1\n      tag_30\n      jump\t// in\n    tag_29:\n      mload(0x40)\n      dup1\n      swap2\n      sub\n      swap1\n      return\n        /* \"contracts/Usdc.sol\":553:654  function totalSupply() public view virtual override returns (uint256){\r... */\n    tag_5:\n      tag_31\n      tag_32\n      jump\t// in\n    tag_31:\n      mload(0x40)\n      tag_33\n      swap2\n      swap1\n      tag_34\n      jump\t// in\n    tag_33:\n      mload(0x40)\n      dup1\n      swap2\n      sub\n      swap1\n      return\n        /* \"contracts/Usdc.sol\":1935:2329  function transferFrom(\r... */\n    tag_6:\n      tag_35\n      0x04\n      dup1\n      calldatasize\n      sub\n      dup2\n      add\n      swap1\n      tag_36\n      swap2\n      swap1\n      tag_37\n      jump\t// in\n    tag_36:\n      tag_38\n      jump\t// in\n    tag_35:\n      mload(0x40)\n      tag_39\n      swap2\n      swap1\n      tag_30\n      jump\t// in\n    tag_39:\n      mload(0x40)\n      dup1\n      swap2\n      sub\n      swap1\n      return\n        /* \"contracts/Usdc.sol\":840:924  function decimals() public view virtual returns (uint8){\r... */\n    tag_7:\n      tag_40\n      tag_41\n      jump\t// in\n    tag_40:\n      mload(0x40)\n      tag_42\n      swap2\n      swap1\n      tag_43\n      jump\t// in\n    tag_42:\n      mload(0x40)\n      dup1\n      swap2\n      sub\n      swap1\n      return\n        /* \"contracts/Usdc.sol\":2335:2541  function increaseAllowance(address _spender,uint256 _amount) public virtual returns(bool){\r... */\n    tag_8:\n      tag_44\n      0x04\n      dup1\n      calldatasize\n      sub\n      dup2\n      add\n      swap1\n      tag_45\n      swap2\n      swap1\n      tag_27\n      jump\t// in\n    tag_45:\n      tag_46\n      jump\t// in\n    tag_44:\n      mload(0x40)\n      tag_47\n      swap2\n      swap1\n      tag_30\n      jump\t// in\n    tag_47:\n      mload(0x40)\n      dup1\n      swap2\n      sub\n      swap1\n      return\n        /* \"contracts/Usdc.sol\":1029:1206  function balanceOf(address tokenOwner)\r... */\n    tag_9:\n      tag_48\n      0x04\n      dup1\n      calldatasize\n      sub\n      dup2\n      add\n      swap1\n      tag_49\n      swap2\n      swap1\n      tag_50\n      jump\t// in\n    tag_49:\n      tag_51\n      jump\t// in\n    tag_48:\n      mload(0x40)\n      tag_52\n      swap2\n      swap1\n      tag_34\n      jump\t// in\n    tag_52:\n      mload(0x40)\n      dup1\n      swap2\n      sub\n      swap1\n      return\n        /* \"@openzeppelin/contracts/access/Ownable.sol\":1668:1769  function renounceOwnership() public virtual onlyOwner {... */\n    tag_10:\n      tag_53\n      tag_54\n      jump\t// in\n    tag_53:\n      stop\n        /* \"contracts/Usdc.sol\":662:739  function getOwner() public view returns(address){\r... */\n    tag_11:\n      tag_55\n      tag_56\n      jump\t// in\n    tag_55:\n      mload(0x40)\n      tag_57\n      swap2\n      swap1\n      tag_58\n      jump\t// in\n    tag_57:\n      mload(0x40)\n      dup1\n      swap2\n      sub\n      swap1\n      return\n        /* \"@openzeppelin/contracts/access/Ownable.sol\":1036:1121  function owner() public view virtual returns (address) {... */\n    tag_12:\n      tag_59\n      tag_60\n      jump\t// in\n    tag_59:\n      mload(0x40)\n      tag_61\n      swap2\n      swap1\n      tag_58\n      jump\t// in\n    tag_61:\n      mload(0x40)\n      dup1\n      swap2\n      sub\n      swap1\n      return\n        /* \"contracts/Usdc.sol\":930:1023  function symbol() public view virtual returns (string memory){\r... */\n    tag_13:\n      tag_62\n      tag_63\n      jump\t// in\n    tag_62:\n      mload(0x40)\n      tag_64\n      swap2\n      swap1\n      tag_24\n      jump\t// in\n    tag_64:\n      mload(0x40)\n      dup1\n      swap2\n      sub\n      swap1\n      return\n        /* \"contracts/Usdc.sol\":2547:2861  function decreaseAllowance(address _spender,uint256 _amount) public virtual returns(bool){\r... */\n    tag_14:\n      tag_65\n      0x04\n      dup1\n      calldatasize\n      sub\n      dup2\n      add\n      swap1\n      tag_66\n      swap2\n      swap1\n      tag_27\n      jump\t// in\n    tag_66:\n      tag_67\n      jump\t// in\n    tag_65:\n      mload(0x40)\n      tag_68\n      swap2\n      swap1\n      tag_30\n      jump\t// in\n    tag_68:\n      mload(0x40)\n      dup1\n      swap2\n      sub\n      swap1\n      return\n        /* \"contracts/Usdc.sol\":1427:1708  function transfer(address _to, uint256 _amount)\r... */\n    tag_15:\n      tag_69\n      0x04\n      dup1\n      calldatasize\n      sub\n      dup2\n      add\n      swap1\n      tag_70\n      swap2\n      swap1\n      tag_27\n      jump\t// in\n    tag_70:\n      tag_71\n      jump\t// in\n    tag_69:\n      mload(0x40)\n      tag_72\n      swap2\n      swap1\n      tag_30\n      jump\t// in\n    tag_72:\n      mload(0x40)\n      dup1\n      swap2\n      sub\n      swap1\n      return\n        /* \"contracts/Usdc.sol\":1214:1421  function allowance(address tokenOwner, address spender)\r... */\n    tag_16:\n      tag_73\n      0x04\n      dup1\n      calldatasize\n      sub\n      dup2\n      add\n      swap1\n      tag_74\n      swap2\n      swap1\n      tag_75\n      jump\t// in\n    tag_74:\n      tag_76\n      jump\t// in\n    tag_73:\n      mload(0x40)\n      tag_77\n      swap2\n      swap1\n      tag_34\n      jump\t// in\n    tag_77:\n      mload(0x40)\n      dup1\n      swap2\n      sub\n      swap1\n      return\n        /* \"@openzeppelin/contracts/access/Ownable.sol\":1918:2116  function transferOwnership(address newOwner) public virtual onlyOwner {... */\n    tag_17:\n      tag_78\n      0x04\n      dup1\n      calldatasize\n      sub\n      dup2\n      add\n      swap1\n      tag_79\n      swap2\n      swap1\n      tag_50\n      jump\t// in\n    tag_79:\n      tag_80\n      jump\t// in\n    tag_78:\n      stop\n        /* \"contracts/Usdc.sol\":745:834  function name() public view virtual returns (string memory){\r... */\n    tag_22:\n        /* \"contracts/Usdc.sol\":790:803  string memory */\n      0x60\n        /* \"contracts/Usdc.sol\":818:828  _tokenName */\n      0x03\n        /* \"contracts/Usdc.sol\":811:828  return _tokenName */\n      dup1\n      sload\n      tag_82\n      swap1\n      tag_83\n      jump\t// in\n    tag_82:\n      dup1\n      0x1f\n      add\n      0x20\n      dup1\n      swap2\n      div\n      mul\n      0x20\n      add\n      mload(0x40)\n      swap1\n      dup2\n      add\n      0x40\n      mstore\n      dup1\n      swap3\n      swap2\n      swap1\n      dup2\n      dup2\n      mstore\n      0x20\n      add\n      dup3\n      dup1\n      sload\n      tag_84\n      swap1\n      tag_83\n      jump\t// in\n    tag_84:\n      dup1\n      iszero\n      tag_85\n      jumpi\n      dup1\n      0x1f\n      lt\n      tag_86\n      jumpi\n      0x0100\n      dup1\n      dup4\n      sload\n      div\n      mul\n      dup4\n      mstore\n      swap2\n      0x20\n      add\n      swap2\n      jump(tag_85)\n    tag_86:\n      dup3\n      add\n      swap2\n      swap1\n      0x00\n      mstore\n      keccak256(0x00, 0x20)\n      swap1\n    tag_87:\n      dup2\n      sload\n      dup2\n      mstore\n      swap1\n      0x01\n      add\n      swap1\n      0x20\n      add\n      dup1\n      dup4\n      gt\n      tag_87\n      jumpi\n      dup3\n      swap1\n      sub\n      0x1f\n      and\n      dup3\n      add\n      swap2\n    tag_85:\n      pop\n      pop\n      pop\n      pop\n      pop\n      swap1\n      pop\n        /* \"contracts/Usdc.sol\":745:834  function name() public view virtual returns (string memory){\r... */\n      swap1\n      jump\t// out\n        /* \"contracts/Usdc.sol\":1714:1929  function approve(address _spender, uint256 _amount)\r... */\n    tag_28:\n        /* \"contracts/Usdc.sol\":1827:1831  bool */\n      0x00\n        /* \"contracts/Usdc.sol\":1843:1897  _approve(msg.sender, _spender, _amount* 10**_decimals) */\n      tag_89\n        /* \"contracts/Usdc.sol\":1852:1862  msg.sender */\n      caller\n        /* \"contracts/Usdc.sol\":1864:1872  _spender */\n      dup5\n        /* \"contracts/Usdc.sol\":1887:1896  _decimals */\n      0x05\n      0x00\n      swap1\n      sload\n      swap1\n      0x0100\n      exp\n      swap1\n      div\n      0xff\n      and\n        /* \"contracts/Usdc.sol\":1883:1885  10 */\n      0x0a\n        /* \"contracts/Usdc.sol\":1883:1896  10**_decimals */\n      tag_90\n      swap2\n      swap1\n      tag_91\n      jump\t// in\n    tag_90:\n        /* \"contracts/Usdc.sol\":1874:1881  _amount */\n      dup6\n        /* \"contracts/Usdc.sol\":1874:1896  _amount* 10**_decimals */\n      tag_92\n      swap2\n      swap1\n      tag_93\n      jump\t// in\n    tag_92:\n        /* \"contracts/Usdc.sol\":1843:1851  _approve */\n      tag_94\n        /* \"contracts/Usdc.sol\":1843:1897  _approve(msg.sender, _spender, _amount* 10**_decimals) */\n      jump\t// in\n    tag_89:\n        /* \"contracts/Usdc.sol\":1915:1919  true */\n      0x01\n        /* \"contracts/Usdc.sol\":1908:1919  return true */\n      swap1\n      pop\n        /* \"contracts/Usdc.sol\":1714:1929  function approve(address _spender, uint256 _amount)\r... */\n      swap3\n      swap2\n      pop\n      pop\n      jump\t// out\n        /* \"contracts/Usdc.sol\":553:654  function totalSupply() public view virtual override returns (uint256){\r... */\n    tag_32:\n        /* \"contracts/Usdc.sol\":614:621  uint256 */\n      0x00\n        /* \"contracts/Usdc.sol\":636:648  _totalSupply */\n      sload(0x06)\n        /* \"contracts/Usdc.sol\":629:648  return _totalSupply */\n      swap1\n      pop\n        /* \"contracts/Usdc.sol\":553:654  function totalSupply() public view virtual override returns (uint256){\r... */\n      swap1\n      jump\t// out\n        /* \"contracts/Usdc.sol\":1935:2329  function transferFrom(\r... */\n    tag_38:\n        /* \"contracts/Usdc.sol\":2061:2073  bool success */\n      0x00\n        /* \"contracts/Usdc.sol\":2125:2134  _decimals */\n      0x05\n      0x00\n      swap1\n      sload\n      swap1\n      0x0100\n      exp\n      swap1\n      div\n      0xff\n      and\n        /* \"contracts/Usdc.sol\":2121:2123  10 */\n      0x0a\n        /* \"contracts/Usdc.sol\":2121:2134  10**_decimals */\n      tag_97\n      swap2\n      swap1\n      tag_91\n      jump\t// in\n    tag_97:\n        /* \"contracts/Usdc.sol\":2113:2120  _amount */\n      dup3\n        /* \"contracts/Usdc.sol\":2113:2134  _amount*10**_decimals */\n      tag_98\n      swap2\n      swap1\n      tag_93\n      jump\t// in\n    tag_98:\n        /* \"contracts/Usdc.sol\":2095:2104  _balances */\n      0x01\n        /* \"contracts/Usdc.sol\":2095:2111  _balances[_from] */\n      0x00\n        /* \"contracts/Usdc.sol\":2105:2110  _from */\n      dup7\n        /* \"contracts/Usdc.sol\":2095:2111  _balances[_from] */\n      0xffffffffffffffffffffffffffffffffffffffff\n      and\n      0xffffffffffffffffffffffffffffffffffffffff\n      and\n      dup2\n      mstore\n      0x20\n      add\n      swap1\n      dup2\n      mstore\n      0x20\n      add\n      0x00\n      keccak256\n      sload\n        /* \"contracts/Usdc.sol\":2095:2134  _balances[_from]>=_amount*10**_decimals */\n      lt\n      iszero\n        /* \"contracts/Usdc.sol\":2087:2160  require(_balances[_from]>=_amount*10**_decimals,\"Amount exceeds balance\") */\n      tag_99\n      jumpi\n      mload(0x40)\n      0x08c379a000000000000000000000000000000000000000000000000000000000\n      dup2\n      mstore\n      0x04\n      add\n      tag_100\n      swap1\n      tag_101\n      jump\t// in\n    tag_100:\n      mload(0x40)\n      dup1\n      swap2\n      sub\n      swap1\n      revert\n    tag_99:\n        /* \"contracts/Usdc.sol\":2210:2253  _spendAllowance(_from, msg.sender, _amount) */\n      tag_102\n        /* \"contracts/Usdc.sol\":2226:2231  _from */\n      dup5\n        /* \"contracts/Usdc.sol\":2233:2243  msg.sender */\n      caller\n        /* \"contracts/Usdc.sol\":2245:2252  _amount */\n      dup5\n        /* \"contracts/Usdc.sol\":2210:2225  _spendAllowance */\n      tag_103\n        /* \"contracts/Usdc.sol\":2210:2253  _spendAllowance(_from, msg.sender, _amount) */\n      jump\t// in\n    tag_102:\n        /* \"contracts/Usdc.sol\":2260:2305  _transfer(_from, _to, _amount *10**_decimals) */\n      tag_104\n        /* \"contracts/Usdc.sol\":2270:2275  _from */\n      dup5\n        /* \"contracts/Usdc.sol\":2277:2280  _to */\n      dup5\n        /* \"contracts/Usdc.sol\":2295:2304  _decimals */\n      0x05\n      0x00\n      swap1\n      sload\n      swap1\n      0x0100\n      exp\n      swap1\n      div\n      0xff\n      and\n        /* \"contracts/Usdc.sol\":2291:2293  10 */\n      0x0a\n        /* \"contracts/Usdc.sol\":2291:2304  10**_decimals */\n      tag_105\n      swap2\n      swap1\n      tag_91\n      jump\t// in\n    tag_105:\n        /* \"contracts/Usdc.sol\":2282:2289  _amount */\n      dup6\n        /* \"contracts/Usdc.sol\":2282:2304  _amount *10**_decimals */\n      tag_106\n      swap2\n      swap1\n      tag_93\n      jump\t// in\n    tag_106:\n        /* \"contracts/Usdc.sol\":2260:2269  _transfer */\n      tag_107\n        /* \"contracts/Usdc.sol\":2260:2305  _transfer(_from, _to, _amount *10**_decimals) */\n      jump\t// in\n    tag_104:\n        /* \"contracts/Usdc.sol\":2319:2323  true */\n      0x01\n        /* \"contracts/Usdc.sol\":2312:2323  return true */\n      swap1\n      pop\n        /* \"contracts/Usdc.sol\":1935:2329  function transferFrom(\r... */\n      swap4\n      swap3\n      pop\n      pop\n      pop\n      jump\t// out\n        /* \"contracts/Usdc.sol\":840:924  function decimals() public view virtual returns (uint8){\r... */\n    tag_41:\n        /* \"contracts/Usdc.sol\":889:894  uint8 */\n      0x00\n        /* \"contracts/Usdc.sol\":909:918  _decimals */\n      0x05\n      0x00\n      swap1\n      sload\n      swap1\n      0x0100\n      exp\n      swap1\n      div\n      0xff\n      and\n        /* \"contracts/Usdc.sol\":902:918  return _decimals */\n      swap1\n      pop\n        /* \"contracts/Usdc.sol\":840:924  function decimals() public view virtual returns (uint8){\r... */\n      swap1\n      jump\t// out\n        /* \"contracts/Usdc.sol\":2335:2541  function increaseAllowance(address _spender,uint256 _amount) public virtual returns(bool){\r... */\n    tag_46:\n        /* \"contracts/Usdc.sol\":2419:2423  bool */\n      0x00\n        /* \"contracts/Usdc.sol\":2431:2517  _approve(msg.sender, _spender, allowance(msg.sender,_spender)+_amount * 10**_decimals) */\n      tag_110\n        /* \"contracts/Usdc.sol\":2440:2450  msg.sender */\n      caller\n        /* \"contracts/Usdc.sol\":2452:2460  _spender */\n      dup5\n        /* \"contracts/Usdc.sol\":2507:2516  _decimals */\n      0x05\n      0x00\n      swap1\n      sload\n      swap1\n      0x0100\n      exp\n      swap1\n      div\n      0xff\n      and\n        /* \"contracts/Usdc.sol\":2503:2505  10 */\n      0x0a\n        /* \"contracts/Usdc.sol\":2503:2516  10**_decimals */\n      tag_111\n      swap2\n      swap1\n      tag_91\n      jump\t// in\n    tag_111:\n        /* \"contracts/Usdc.sol\":2493:2500  _amount */\n      dup6\n        /* \"contracts/Usdc.sol\":2493:2516  _amount * 10**_decimals */\n      tag_112\n      swap2\n      swap1\n      tag_93\n      jump\t// in\n    tag_112:\n        /* \"contracts/Usdc.sol\":2462:2492  allowance(msg.sender,_spender) */\n      tag_113\n        /* \"contracts/Usdc.sol\":2472:2482  msg.sender */\n      caller\n        /* \"contracts/Usdc.sol\":2483:2491  _spender */\n      dup9\n        /* \"contracts/Usdc.sol\":2462:2471  allowance */\n      tag_76\n        /* \"contracts/Usdc.sol\":2462:2492  allowance(msg.sender,_spender) */\n      jump\t// in\n    tag_113:\n        /* \"contracts/Usdc.sol\":2462:2516  allowance(msg.sender,_spender)+_amount * 10**_decimals */\n      tag_114\n      swap2\n      swap1\n      tag_115\n      jump\t// in\n    tag_114:\n        /* \"contracts/Usdc.sol\":2431:2439  _approve */\n      tag_94\n        /* \"contracts/Usdc.sol\":2431:2517  _approve(msg.sender, _spender, allowance(msg.sender,_spender)+_amount * 10**_decimals) */\n      jump\t// in\n    tag_110:\n        /* \"contracts/Usdc.sol\":2531:2535  true */\n      0x01\n        /* \"contracts/Usdc.sol\":2524:2535  return true */\n      swap1\n      pop\n        /* \"contracts/Usdc.sol\":2335:2541  function increaseAllowance(address _spender,uint256 _amount) public virtual returns(bool){\r... */\n      swap3\n      swap2\n      pop\n      pop\n      jump\t// out\n        /* \"contracts/Usdc.sol\":1029:1206  function balanceOf(address tokenOwner)\r... */\n    tag_51:\n        /* \"contracts/Usdc.sol\":1141:1156  uint256 balance */\n      0x00\n        /* \"contracts/Usdc.sol\":1175:1184  _balances */\n      0x01\n        /* \"contracts/Usdc.sol\":1175:1196  _balances[tokenOwner] */\n      0x00\n        /* \"contracts/Usdc.sol\":1185:1195  tokenOwner */\n      dup4\n        /* \"contracts/Usdc.sol\":1175:1196  _balances[tokenOwner] */\n      0xffffffffffffffffffffffffffffffffffffffff\n      and\n      0xffffffffffffffffffffffffffffffffffffffff\n      and\n      dup2\n      mstore\n      0x20\n      add\n      swap1\n      dup2\n      mstore\n      0x20\n      add\n      0x00\n      keccak256\n      sload\n        /* \"contracts/Usdc.sol\":1168:1196  return _balances[tokenOwner] */\n      swap1\n      pop\n        /* \"contracts/Usdc.sol\":1029:1206  function balanceOf(address tokenOwner)\r... */\n      swap2\n      swap1\n      pop\n      jump\t// out\n        /* \"@openzeppelin/contracts/access/Ownable.sol\":1668:1769  function renounceOwnership() public virtual onlyOwner {... */\n    tag_54:\n        /* \"@openzeppelin/contracts/access/Ownable.sol\":1259:1271  _msgSender() */\n      tag_118\n        /* \"@openzeppelin/contracts/access/Ownable.sol\":1259:1269  _msgSender */\n      tag_119\n        /* \"@openzeppelin/contracts/access/Ownable.sol\":1259:1271  _msgSender() */\n      jump\t// in\n    tag_118:\n        /* \"@openzeppelin/contracts/access/Ownable.sol\":1248:1271  owner() == _msgSender() */\n      0xffffffffffffffffffffffffffffffffffffffff\n      and\n        /* \"@openzeppelin/contracts/access/Ownable.sol\":1248:1255  owner() */\n      tag_120\n        /* \"@openzeppelin/contracts/access/Ownable.sol\":1248:1253  owner */\n      tag_60\n        /* \"@openzeppelin/contracts/access/Ownable.sol\":1248:1255  owner() */\n      jump\t// in\n    tag_120:\n        /* \"@openzeppelin/contracts/access/Ownable.sol\":1248:1271  owner() == _msgSender() */\n      0xffffffffffffffffffffffffffffffffffffffff\n      and\n      eq\n        /* \"@openzeppelin/contracts/access/Ownable.sol\":1240:1308  require(owner() == _msgSender(), \"Ownable: caller is not the owner\") */\n      tag_121\n      jumpi\n      mload(0x40)\n      0x08c379a000000000000000000000000000000000000000000000000000000000\n      dup2\n      mstore\n      0x04\n      add\n      tag_122\n      swap1\n      tag_123\n      jump\t// in\n    tag_122:\n      mload(0x40)\n      dup1\n      swap2\n      sub\n      swap1\n      revert\n    tag_121:\n        /* \"@openzeppelin/contracts/access/Ownable.sol\":1732:1762  _transferOwnership(address(0)) */\n      tag_125\n        /* \"@openzeppelin/contracts/access/Ownable.sol\":1759:1760  0 */\n      0x00\n        /* \"@openzeppelin/contracts/access/Ownable.sol\":1732:1750  _transferOwnership */\n      tag_126\n        /* \"@openzeppelin/contracts/access/Ownable.sol\":1732:1762  _transferOwnership(address(0)) */\n      jump\t// in\n    tag_125:\n        /* \"@openzeppelin/contracts/access/Ownable.sol\":1668:1769  function renounceOwnership() public virtual onlyOwner {... */\n      jump\t// out\n        /* \"contracts/Usdc.sol\":662:739  function getOwner() public view returns(address){\r... */\n    tag_56:\n        /* \"contracts/Usdc.sol\":702:709  address */\n      0x00\n        /* \"contracts/Usdc.sol\":726:733  owner() */\n      tag_128\n        /* \"contracts/Usdc.sol\":726:731  owner */\n      tag_60\n        /* \"contracts/Usdc.sol\":726:733  owner() */\n      jump\t// in\n    tag_128:\n        /* \"contracts/Usdc.sol\":719:733  return owner() */\n      swap1\n      pop\n        /* \"contracts/Usdc.sol\":662:739  function getOwner() public view returns(address){\r... */\n      swap1\n      jump\t// out\n        /* \"@openzeppelin/contracts/access/Ownable.sol\":1036:1121  function owner() public view virtual returns (address) {... */\n    tag_60:\n        /* \"@openzeppelin/contracts/access/Ownable.sol\":1082:1089  address */\n      0x00\n        /* \"@openzeppelin/contracts/access/Ownable.sol\":1108:1114  _owner */\n      dup1\n      0x00\n      swap1\n      sload\n      swap1\n      0x0100\n      exp\n      swap1\n      div\n      0xffffffffffffffffffffffffffffffffffffffff\n      and\n        /* \"@openzeppelin/contracts/access/Ownable.sol\":1101:1114  return _owner */\n      swap1\n      pop\n        /* \"@openzeppelin/contracts/access/Ownable.sol\":1036:1121  function owner() public view virtual returns (address) {... */\n      swap1\n      jump\t// out\n        /* \"contracts/Usdc.sol\":930:1023  function symbol() public view virtual returns (string memory){\r... */\n    tag_63:\n        /* \"contracts/Usdc.sol\":977:990  string memory */\n      0x60\n        /* \"contracts/Usdc.sol\":1005:1017  _tokenSymbol */\n      0x04\n        /* \"contracts/Usdc.sol\":998:1017  return _tokenSymbol */\n      dup1\n      sload\n      tag_131\n      swap1\n      tag_83\n      jump\t// in\n    tag_131:\n      dup1\n      0x1f\n      add\n      0x20\n      dup1\n      swap2\n      div\n      mul\n      0x20\n      add\n      mload(0x40)\n      swap1\n      dup2\n      add\n      0x40\n      mstore\n      dup1\n      swap3\n      swap2\n      swap1\n      dup2\n      dup2\n      mstore\n      0x20\n      add\n      dup3\n      dup1\n      sload\n      tag_132\n      swap1\n      tag_83\n      jump\t// in\n    tag_132:\n      dup1\n      iszero\n      tag_133\n      jumpi\n      dup1\n      0x1f\n      lt\n      tag_134\n      jumpi\n      0x0100\n      dup1\n      dup4\n      sload\n      div\n      mul\n      dup4\n      mstore\n      swap2\n      0x20\n      add\n      swap2\n      jump(tag_133)\n    tag_134:\n      dup3\n      add\n      swap2\n      swap1\n      0x00\n      mstore\n      keccak256(0x00, 0x20)\n      swap1\n    tag_135:\n      dup2\n      sload\n      dup2\n      mstore\n      swap1\n      0x01\n      add\n      swap1\n      0x20\n      add\n      dup1\n      dup4\n      gt\n      tag_135\n      jumpi\n      dup3\n      swap1\n      sub\n      0x1f\n      and\n      dup3\n      add\n      swap2\n    tag_133:\n      pop\n      pop\n      pop\n      pop\n      pop\n      swap1\n      pop\n        /* \"contracts/Usdc.sol\":930:1023  function symbol() public view virtual returns (string memory){\r... */\n      swap1\n      jump\t// out\n        /* \"contracts/Usdc.sol\":2547:2861  function decreaseAllowance(address _spender,uint256 _amount) public virtual returns(bool){\r... */\n    tag_67:\n        /* \"contracts/Usdc.sol\":2631:2635  bool */\n      0x00\n        /* \"contracts/Usdc.sol\":2697:2706  _decimals */\n      0x05\n      0x00\n      swap1\n      sload\n      swap1\n      0x0100\n      exp\n      swap1\n      div\n      0xff\n      and\n        /* \"contracts/Usdc.sol\":2693:2695  10 */\n      0x0a\n        /* \"contracts/Usdc.sol\":2693:2706  10**_decimals */\n      tag_137\n      swap2\n      swap1\n      tag_91\n      jump\t// in\n    tag_137:\n        /* \"contracts/Usdc.sol\":2684:2691  _amount */\n      dup3\n        /* \"contracts/Usdc.sol\":2684:2706  _amount* 10**_decimals */\n      tag_138\n      swap2\n      swap1\n      tag_93\n      jump\t// in\n    tag_138:\n        /* \"contracts/Usdc.sol\":2651:2682  allowance(msg.sender, _spender) */\n      tag_139\n        /* \"contracts/Usdc.sol\":2661:2671  msg.sender */\n      caller\n        /* \"contracts/Usdc.sol\":2673:2681  _spender */\n      dup6\n        /* \"contracts/Usdc.sol\":2651:2660  allowance */\n      tag_76\n        /* \"contracts/Usdc.sol\":2651:2682  allowance(msg.sender, _spender) */\n      jump\t// in\n    tag_139:\n        /* \"contracts/Usdc.sol\":2651:2706  allowance(msg.sender, _spender)>=_amount* 10**_decimals */\n      lt\n      iszero\n        /* \"contracts/Usdc.sol\":2643:2744  require(allowance(msg.sender, _spender)>=_amount* 10**_decimals,\"Allowance cannot be less than zero\") */\n      tag_140\n      jumpi\n      mload(0x40)\n      0x08c379a000000000000000000000000000000000000000000000000000000000\n      dup2\n      mstore\n      0x04\n      add\n      tag_141\n      swap1\n      tag_142\n      jump\t// in\n    tag_141:\n      mload(0x40)\n      dup1\n      swap2\n      sub\n      swap1\n      revert\n    tag_140:\n        /* \"contracts/Usdc.sol\":2751:2837  _approve(msg.sender, _spender, allowance(msg.sender,_spender)-_amount * 10**_decimals) */\n      tag_143\n        /* \"contracts/Usdc.sol\":2760:2770  msg.sender */\n      caller\n        /* \"contracts/Usdc.sol\":2772:2780  _spender */\n      dup5\n        /* \"contracts/Usdc.sol\":2827:2836  _decimals */\n      0x05\n      0x00\n      swap1\n      sload\n      swap1\n      0x0100\n      exp\n      swap1\n      div\n      0xff\n      and\n        /* \"contracts/Usdc.sol\":2823:2825  10 */\n      0x0a\n        /* \"contracts/Usdc.sol\":2823:2836  10**_decimals */\n      tag_144\n      swap2\n      swap1\n      tag_91\n      jump\t// in\n    tag_144:\n        /* \"contracts/Usdc.sol\":2813:2820  _amount */\n      dup6\n        /* \"contracts/Usdc.sol\":2813:2836  _amount * 10**_decimals */\n      tag_145\n      swap2\n      swap1\n      tag_93\n      jump\t// in\n    tag_145:\n        /* \"contracts/Usdc.sol\":2782:2812  allowance(msg.sender,_spender) */\n      tag_146\n        /* \"contracts/Usdc.sol\":2792:2802  msg.sender */\n      caller\n        /* \"contracts/Usdc.sol\":2803:2811  _spender */\n      dup9\n        /* \"contracts/Usdc.sol\":2782:2791  allowance */\n      tag_76\n        /* \"contracts/Usdc.sol\":2782:2812  allowance(msg.sender,_spender) */\n      jump\t// in\n    tag_146:\n        /* \"contracts/Usdc.sol\":2782:2836  allowance(msg.sender,_spender)-_amount * 10**_decimals */\n      tag_147\n      swap2\n      swap1\n      tag_148\n      jump\t// in\n    tag_147:\n        /* \"contracts/Usdc.sol\":2751:2759  _approve */\n      tag_94\n        /* \"contracts/Usdc.sol\":2751:2837  _approve(msg.sender, _spender, allowance(msg.sender,_spender)-_amount * 10**_decimals) */\n      jump\t// in\n    tag_143:\n        /* \"contracts/Usdc.sol\":2851:2855  true */\n      0x01\n        /* \"contracts/Usdc.sol\":2844:2855  return true */\n      swap1\n      pop\n        /* \"contracts/Usdc.sol\":2547:2861  function decreaseAllowance(address _spender,uint256 _amount) public virtual returns(bool){\r... */\n      swap3\n      swap2\n      pop\n      pop\n      jump\t// out\n        /* \"contracts/Usdc.sol\":1427:1708  function transfer(address _to, uint256 _amount)\r... */\n    tag_71:\n        /* \"contracts/Usdc.sol\":1536:1548  bool success */\n      0x00\n        /* \"contracts/Usdc.sol\":1597:1604  _amount */\n      dup2\n        /* \"contracts/Usdc.sol\":1574:1583  _balances */\n      0x01\n        /* \"contracts/Usdc.sol\":1574:1595  _balances[msg.sender] */\n      0x00\n        /* \"contracts/Usdc.sol\":1584:1594  msg.sender */\n      caller\n        /* \"contracts/Usdc.sol\":1574:1595  _balances[msg.sender] */\n      0xffffffffffffffffffffffffffffffffffffffff\n      and\n      0xffffffffffffffffffffffffffffffffffffffff\n      and\n      dup2\n      mstore\n      0x20\n      add\n      swap1\n      dup2\n      mstore\n      0x20\n      add\n      0x00\n      keccak256\n      sload\n        /* \"contracts/Usdc.sol\":1574:1604  _balances[msg.sender]>=_amount */\n      lt\n      iszero\n        /* \"contracts/Usdc.sol\":1566:1630  require(_balances[msg.sender]>=_amount,\"Amount exceeds balance\") */\n      tag_150\n      jumpi\n      mload(0x40)\n      0x08c379a000000000000000000000000000000000000000000000000000000000\n      dup2\n      mstore\n      0x04\n      add\n      tag_151\n      swap1\n      tag_101\n      jump\t// in\n    tag_151:\n      mload(0x40)\n      dup1\n      swap2\n      sub\n      swap1\n      revert\n    tag_150:\n        /* \"contracts/Usdc.sol\":1641:1676  _transfer(msg.sender, _to, _amount) */\n      tag_152\n        /* \"contracts/Usdc.sol\":1651:1661  msg.sender */\n      caller\n        /* \"contracts/Usdc.sol\":1663:1666  _to */\n      dup5\n        /* \"contracts/Usdc.sol\":1668:1675  _amount */\n      dup5\n        /* \"contracts/Usdc.sol\":1641:1650  _transfer */\n      tag_107\n        /* \"contracts/Usdc.sol\":1641:1676  _transfer(msg.sender, _to, _amount) */\n      jump\t// in\n    tag_152:\n        /* \"contracts/Usdc.sol\":1694:1698  true */\n      0x01\n        /* \"contracts/Usdc.sol\":1687:1698  return true */\n      swap1\n      pop\n        /* \"contracts/Usdc.sol\":1427:1708  function transfer(address _to, uint256 _amount)\r... */\n      swap3\n      swap2\n      pop\n      pop\n      jump\t// out\n        /* \"contracts/Usdc.sol\":1214:1421  function allowance(address tokenOwner, address spender)\r... */\n    tag_76:\n        /* \"contracts/Usdc.sol\":1343:1360  uint256 remaining */\n      0x00\n        /* \"contracts/Usdc.sol\":1379:1390  _allowances */\n      0x02\n        /* \"contracts/Usdc.sol\":1379:1402  _allowances[tokenOwner] */\n      0x00\n        /* \"contracts/Usdc.sol\":1391:1401  tokenOwner */\n      dup5\n        /* \"contracts/Usdc.sol\":1379:1402  _allowances[tokenOwner] */\n      0xffffffffffffffffffffffffffffffffffffffff\n      and\n      0xffffffffffffffffffffffffffffffffffffffff\n      and\n      dup2\n      mstore\n      0x20\n      add\n      swap1\n      dup2\n      mstore\n      0x20\n      add\n      0x00\n      keccak256\n        /* \"contracts/Usdc.sol\":1379:1411  _allowances[tokenOwner][spender] */\n      0x00\n        /* \"contracts/Usdc.sol\":1403:1410  spender */\n      dup4\n        /* \"contracts/Usdc.sol\":1379:1411  _allowances[tokenOwner][spender] */\n      0xffffffffffffffffffffffffffffffffffffffff\n      and\n      0xffffffffffffffffffffffffffffffffffffffff\n      and\n      dup2\n      mstore\n      0x20\n      add\n      swap1\n      dup2\n      mstore\n      0x20\n      add\n      0x00\n      keccak256\n      sload\n        /* \"contracts/Usdc.sol\":1372:1411  return _allowances[tokenOwner][spender] */\n      swap1\n      pop\n        /* \"contracts/Usdc.sol\":1214:1421  function allowance(address tokenOwner, address spender)\r... */\n      swap3\n      swap2\n      pop\n      pop\n      jump\t// out\n        /* \"@openzeppelin/contracts/access/Ownable.sol\":1918:2116  function transferOwnership(address newOwner) public virtual onlyOwner {... */\n    tag_80:\n        /* \"@openzeppelin/contracts/access/Ownable.sol\":1259:1271  _msgSender() */\n      tag_155\n        /* \"@openzeppelin/contracts/access/Ownable.sol\":1259:1269  _msgSender */\n      tag_119\n        /* \"@openzeppelin/contracts/access/Ownable.sol\":1259:1271  _msgSender() */\n      jump\t// in\n    tag_155:\n        /* \"@openzeppelin/contracts/access/Ownable.sol\":1248:1271  owner() == _msgSender() */\n      0xffffffffffffffffffffffffffffffffffffffff\n      and\n        /* \"@openzeppelin/contracts/access/Ownable.sol\":1248:1255  owner() */\n      tag_156\n        /* \"@openzeppelin/contracts/access/Ownable.sol\":1248:1253  owner */\n      tag_60\n        /* \"@openzeppelin/contracts/access/Ownable.sol\":1248:1255  owner() */\n      jump\t// in\n    tag_156:\n        /* \"@openzeppelin/contracts/access/Ownable.sol\":1248:1271  owner() == _msgSender() */\n      0xffffffffffffffffffffffffffffffffffffffff\n      and\n      eq\n        /* \"@openzeppelin/contracts/access/Ownable.sol\":1240:1308  require(owner() == _msgSender(), \"Ownable: caller is not the owner\") */\n      tag_157\n      jumpi\n      mload(0x40)\n      0x08c379a000000000000000000000000000000000000000000000000000000000\n      dup2\n      mstore\n      0x04\n      add\n      tag_158\n      swap1\n      tag_123\n      jump\t// in\n    tag_158:\n      mload(0x40)\n      dup1\n      swap2\n      sub\n      swap1\n      revert\n    tag_157:\n        /* \"@openzeppelin/contracts/access/Ownable.sol\":2026:2027  0 */\n      0x00\n        /* \"@openzeppelin/contracts/access/Ownable.sol\":2006:2028  newOwner != address(0) */\n      0xffffffffffffffffffffffffffffffffffffffff\n      and\n        /* \"@openzeppelin/contracts/access/Ownable.sol\":2006:2014  newOwner */\n      dup2\n        /* \"@openzeppelin/contracts/access/Ownable.sol\":2006:2028  newOwner != address(0) */\n      0xffffffffffffffffffffffffffffffffffffffff\n      and\n      eq\n      iszero\n        /* \"@openzeppelin/contracts/access/Ownable.sol\":1998:2071  require(newOwner != address(0), \"Ownable: new owner is the zero address\") */\n      tag_160\n      jumpi\n      mload(0x40)\n      0x08c379a000000000000000000000000000000000000000000000000000000000\n      dup2\n      mstore\n      0x04\n      add\n      tag_161\n      swap1\n      tag_162\n      jump\t// in\n    tag_161:\n      mload(0x40)\n      dup1\n      swap2\n      sub\n      swap1\n      revert\n    tag_160:\n        /* \"@openzeppelin/contracts/access/Ownable.sol\":2081:2109  _transferOwnership(newOwner) */\n      tag_163\n        /* \"@openzeppelin/contracts/access/Ownable.sol\":2100:2108  newOwner */\n      dup2\n        /* \"@openzeppelin/contracts/access/Ownable.sol\":2081:2099  _transferOwnership */\n      tag_126\n        /* \"@openzeppelin/contracts/access/Ownable.sol\":2081:2109  _transferOwnership(newOwner) */\n      jump\t// in\n    tag_163:\n        /* \"@openzeppelin/contracts/access/Ownable.sol\":1918:2116  function transferOwnership(address newOwner) public virtual onlyOwner {... */\n      pop\n      jump\t// out\n        /* \"contracts/Usdc.sol\":3200:3583  function _approve(address _owner,address _spender,uint256 _amount) internal virtual{\r... */\n    tag_94:\n        /* \"contracts/Usdc.sol\":3316:3317  0 */\n      0x00\n        /* \"contracts/Usdc.sol\":3298:3318  _owner != address(0) */\n      0xffffffffffffffffffffffffffffffffffffffff\n      and\n        /* \"contracts/Usdc.sol\":3298:3304  _owner */\n      dup4\n        /* \"contracts/Usdc.sol\":3298:3318  _owner != address(0) */\n      0xffffffffffffffffffffffffffffffffffffffff\n      and\n      eq\n      iszero\n        /* \"contracts/Usdc.sol\":3290:3351  require(_owner != address(0),\"cannot approve from address 0\") */\n      tag_165\n      jumpi\n      mload(0x40)\n      0x08c379a000000000000000000000000000000000000000000000000000000000\n      dup2\n      mstore\n      0x04\n      add\n      tag_166\n      swap1\n      tag_167\n      jump\t// in\n    tag_166:\n      mload(0x40)\n      dup1\n      swap2\n      sub\n      swap1\n      revert\n    tag_165:\n        /* \"contracts/Usdc.sol\":3386:3387  0 */\n      0x00\n        /* \"contracts/Usdc.sol\":3366:3388  _spender != address(0) */\n      0xffffffffffffffffffffffffffffffffffffffff\n      and\n        /* \"contracts/Usdc.sol\":3366:3374  _spender */\n      dup3\n        /* \"contracts/Usdc.sol\":3366:3388  _spender != address(0) */\n      0xffffffffffffffffffffffffffffffffffffffff\n      and\n      eq\n      iszero\n        /* \"contracts/Usdc.sol\":3358:3419  require(_spender != address(0),\"cannot approve to address 0\") */\n      tag_168\n      jumpi\n      mload(0x40)\n      0x08c379a000000000000000000000000000000000000000000000000000000000\n      dup2\n      mstore\n      0x04\n      add\n      tag_169\n      swap1\n      tag_170\n      jump\t// in\n    tag_169:\n      mload(0x40)\n      dup1\n      swap2\n      sub\n      swap1\n      revert\n    tag_168:\n        /* \"contracts/Usdc.sol\":3453:3460  _amount */\n      dup1\n        /* \"contracts/Usdc.sol\":3434:3443  _balances */\n      0x01\n        /* \"contracts/Usdc.sol\":3434:3451  _balances[_owner] */\n      0x00\n        /* \"contracts/Usdc.sol\":3444:3450  _owner */\n      dup6\n        /* \"contracts/Usdc.sol\":3434:3451  _balances[_owner] */\n      0xffffffffffffffffffffffffffffffffffffffff\n      and\n      0xffffffffffffffffffffffffffffffffffffffff\n      and\n      dup2\n      mstore\n      0x20\n      add\n      swap1\n      dup2\n      mstore\n      0x20\n      add\n      0x00\n      keccak256\n      sload\n        /* \"contracts/Usdc.sol\":3434:3460  _balances[_owner]>=_amount */\n      lt\n      iszero\n        /* \"contracts/Usdc.sol\":3426:3480  require(_balances[_owner]>=_amount,\"not enough token\") */\n      tag_171\n      jumpi\n      mload(0x40)\n      0x08c379a000000000000000000000000000000000000000000000000000000000\n      dup2\n      mstore\n      0x04\n      add\n      tag_172\n      swap1\n      tag_173\n      jump\t// in\n    tag_172:\n      mload(0x40)\n      dup1\n      swap2\n      sub\n      swap1\n      revert\n    tag_171:\n        /* \"contracts/Usdc.sol\":3521:3528  _amount */\n      dup1\n        /* \"contracts/Usdc.sol\":3489:3500  _allowances */\n      0x02\n        /* \"contracts/Usdc.sol\":3489:3508  _allowances[_owner] */\n      0x00\n        /* \"contracts/Usdc.sol\":3501:3507  _owner */\n      dup6\n        /* \"contracts/Usdc.sol\":3489:3508  _allowances[_owner] */\n      0xffffffffffffffffffffffffffffffffffffffff\n      and\n      0xffffffffffffffffffffffffffffffffffffffff\n      and\n      dup2\n      mstore\n      0x20\n      add\n      swap1\n      dup2\n      mstore\n      0x20\n      add\n      0x00\n      keccak256\n        /* \"contracts/Usdc.sol\":3489:3518  _allowances[_owner][_spender] */\n      0x00\n        /* \"contracts/Usdc.sol\":3509:3517  _spender */\n      dup5\n        /* \"contracts/Usdc.sol\":3489:3518  _allowances[_owner][_spender] */\n      0xffffffffffffffffffffffffffffffffffffffff\n      and\n      0xffffffffffffffffffffffffffffffffffffffff\n      and\n      dup2\n      mstore\n      0x20\n      add\n      swap1\n      dup2\n      mstore\n      0x20\n      add\n      0x00\n      keccak256\n        /* \"contracts/Usdc.sol\":3489:3528  _allowances[_owner][_spender] = _amount */\n      dup2\n      swap1\n      sstore\n      pop\n        /* \"contracts/Usdc.sol\":3559:3567  _spender */\n      dup2\n        /* \"contracts/Usdc.sol\":3542:3577  Approval(_owner, _spender, _amount) */\n      0xffffffffffffffffffffffffffffffffffffffff\n      and\n        /* \"contracts/Usdc.sol\":3551:3557  _owner */\n      dup4\n        /* \"contracts/Usdc.sol\":3542:3577  Approval(_owner, _spender, _amount) */\n      0xffffffffffffffffffffffffffffffffffffffff\n      and\n      0x8c5be1e5ebec7d5bd14f71427d1e84f3dd0314c0f7b2291e5b200ac8c7c3b925\n        /* \"contracts/Usdc.sol\":3569:3576  _amount */\n      dup4\n        /* \"contracts/Usdc.sol\":3542:3577  Approval(_owner, _spender, _amount) */\n      mload(0x40)\n      tag_174\n      swap2\n      swap1\n      tag_34\n      jump\t// in\n    tag_174:\n      mload(0x40)\n      dup1\n      swap2\n      sub\n      swap1\n      log3\n        /* \"contracts/Usdc.sol\":3200:3583  function _approve(address _owner,address _spender,uint256 _amount) internal virtual{\r... */\n      pop\n      pop\n      pop\n      jump\t// out\n        /* \"contracts/Usdc.sol\":3589:4024  function _spendAllowance(address _owner,address _spender,uint256 _amount) internal virtual{\r... */\n    tag_103:\n        /* \"contracts/Usdc.sol\":3712:3713  0 */\n      0x00\n        /* \"contracts/Usdc.sol\":3694:3714  _owner != address(0) */\n      0xffffffffffffffffffffffffffffffffffffffff\n      and\n        /* \"contracts/Usdc.sol\":3694:3700  _owner */\n      dup4\n        /* \"contracts/Usdc.sol\":3694:3714  _owner != address(0) */\n      0xffffffffffffffffffffffffffffffffffffffff\n      and\n      eq\n      iszero\n        /* \"contracts/Usdc.sol\":3686:3755  require(_owner != address(0),\"cannot spend allownace from address 0\") */\n      tag_176\n      jumpi\n      mload(0x40)\n      0x08c379a000000000000000000000000000000000000000000000000000000000\n      dup2\n      mstore\n      0x04\n      add\n      tag_177\n      swap1\n      tag_178\n      jump\t// in\n    tag_177:\n      mload(0x40)\n      dup1\n      swap2\n      sub\n      swap1\n      revert\n    tag_176:\n        /* \"contracts/Usdc.sol\":3790:3791  0 */\n      0x00\n        /* \"contracts/Usdc.sol\":3770:3792  _spender != address(0) */\n      0xffffffffffffffffffffffffffffffffffffffff\n      and\n        /* \"contracts/Usdc.sol\":3770:3778  _spender */\n      dup3\n        /* \"contracts/Usdc.sol\":3770:3792  _spender != address(0) */\n      0xffffffffffffffffffffffffffffffffffffffff\n      and\n      eq\n      iszero\n        /* \"contracts/Usdc.sol\":3762:3831  require(_spender != address(0),\"cannot spend allownace to address 0\") */\n      tag_179\n      jumpi\n      mload(0x40)\n      0x08c379a000000000000000000000000000000000000000000000000000000000\n      dup2\n      mstore\n      0x04\n      add\n      tag_180\n      swap1\n      tag_181\n      jump\t// in\n    tag_180:\n      mload(0x40)\n      dup1\n      swap2\n      sub\n      swap1\n      revert\n    tag_179:\n        /* \"contracts/Usdc.sol\":3887:3896  _decimals */\n      0x05\n      0x00\n      swap1\n      sload\n      swap1\n      0x0100\n      exp\n      swap1\n      div\n      0xff\n      and\n        /* \"contracts/Usdc.sol\":3883:3885  10 */\n      0x0a\n        /* \"contracts/Usdc.sol\":3883:3896  10**_decimals */\n      tag_182\n      swap2\n      swap1\n      tag_91\n      jump\t// in\n    tag_182:\n        /* \"contracts/Usdc.sol\":3874:3881  _amount */\n      dup2\n        /* \"contracts/Usdc.sol\":3874:3896  _amount* 10**_decimals */\n      tag_183\n      swap2\n      swap1\n      tag_93\n      jump\t// in\n    tag_183:\n        /* \"contracts/Usdc.sol\":3846:3872  allowance(_owner,_spender) */\n      tag_184\n        /* \"contracts/Usdc.sol\":3856:3862  _owner */\n      dup5\n        /* \"contracts/Usdc.sol\":3863:3871  _spender */\n      dup5\n        /* \"contracts/Usdc.sol\":3846:3855  allowance */\n      tag_76\n        /* \"contracts/Usdc.sol\":3846:3872  allowance(_owner,_spender) */\n      jump\t// in\n    tag_184:\n        /* \"contracts/Usdc.sol\":3846:3896  allowance(_owner,_spender)>=_amount* 10**_decimals */\n      lt\n      iszero\n        /* \"contracts/Usdc.sol\":3838:3924  require(allowance(_owner,_spender)>=_amount* 10**_decimals,\"not enough token allowed\") */\n      tag_185\n      jumpi\n      mload(0x40)\n      0x08c379a000000000000000000000000000000000000000000000000000000000\n      dup2\n      mstore\n      0x04\n      add\n      tag_186\n      swap1\n      tag_187\n      jump\t// in\n    tag_186:\n      mload(0x40)\n      dup1\n      swap2\n      sub\n      swap1\n      revert\n    tag_185:\n        /* \"contracts/Usdc.sol\":3996:4005  _decimals */\n      0x05\n      0x00\n      swap1\n      sload\n      swap1\n      0x0100\n      exp\n      swap1\n      div\n      0xff\n      and\n        /* \"contracts/Usdc.sol\":3992:4005  10**_decimals */\n      0xff\n      and\n        /* \"contracts/Usdc.sol\":3992:3994  10 */\n      0x0a\n        /* \"contracts/Usdc.sol\":3992:4005  10**_decimals */\n      exp\n        /* \"contracts/Usdc.sol\":3983:3990  _amount */\n      dup2\n        /* \"contracts/Usdc.sol\":3983:4005  _amount* 10**_decimals */\n      mul\n        /* \"contracts/Usdc.sol\":3950:3961  _allowances */\n      0x02\n        /* \"contracts/Usdc.sol\":3950:3969  _allowances[_owner] */\n      0x00\n        /* \"contracts/Usdc.sol\":3962:3968  _owner */\n      dup6\n        /* \"contracts/Usdc.sol\":3950:3969  _allowances[_owner] */\n      0xffffffffffffffffffffffffffffffffffffffff\n      and\n      0xffffffffffffffffffffffffffffffffffffffff\n      and\n      dup2\n      mstore\n      0x20\n      add\n      swap1\n      dup2\n      mstore\n      0x20\n      add\n      0x00\n      keccak256\n        /* \"contracts/Usdc.sol\":3950:3979  _allowances[_owner][_spender] */\n      0x00\n        /* \"contracts/Usdc.sol\":3970:3978  _spender */\n      dup5\n        /* \"contracts/Usdc.sol\":3950:3979  _allowances[_owner][_spender] */\n      0xffffffffffffffffffffffffffffffffffffffff\n      and\n      0xffffffffffffffffffffffffffffffffffffffff\n      and\n      dup2\n      mstore\n      0x20\n      add\n      swap1\n      dup2\n      mstore\n      0x20\n      add\n      0x00\n      keccak256\n      0x00\n        /* \"contracts/Usdc.sol\":3950:4005  _allowances[_owner][_spender] -= _amount* 10**_decimals */\n      dup3\n      dup3\n      sload\n      sub\n      swap3\n      pop\n      pop\n      dup2\n      swap1\n      sstore\n      pop\n        /* \"contracts/Usdc.sol\":3589:4024  function _spendAllowance(address _owner,address _spender,uint256 _amount) internal virtual{\r... */\n      pop\n      pop\n      pop\n      jump\t// out\n        /* \"contracts/Usdc.sol\":2867:3196  function _transfer(address _from,address _to,uint256 _amount) internal virtual{\r... */\n    tag_107:\n        /* \"contracts/Usdc.sol\":2977:2978  0 */\n      0x00\n        /* \"contracts/Usdc.sol\":2960:2979  _from != address(0) */\n      0xffffffffffffffffffffffffffffffffffffffff\n      and\n        /* \"contracts/Usdc.sol\":2960:2965  _from */\n      dup4\n        /* \"contracts/Usdc.sol\":2960:2979  _from != address(0) */\n      0xffffffffffffffffffffffffffffffffffffffff\n      and\n      eq\n      iszero\n        /* \"contracts/Usdc.sol\":2952:3013  require(_from != address(0),\"transfer from the zero address\") */\n      tag_189\n      jumpi\n      mload(0x40)\n      0x08c379a000000000000000000000000000000000000000000000000000000000\n      dup2\n      mstore\n      0x04\n      add\n      tag_190\n      swap1\n      tag_191\n      jump\t// in\n    tag_190:\n      mload(0x40)\n      dup1\n      swap2\n      sub\n      swap1\n      revert\n    tag_189:\n        /* \"contracts/Usdc.sol\":3043:3044  0 */\n      0x00\n        /* \"contracts/Usdc.sol\":3028:3045  _to != address(0) */\n      0xffffffffffffffffffffffffffffffffffffffff\n      and\n        /* \"contracts/Usdc.sol\":3028:3031  _to */\n      dup3\n        /* \"contracts/Usdc.sol\":3028:3045  _to != address(0) */\n      0xffffffffffffffffffffffffffffffffffffffff\n      and\n      eq\n      iszero\n        /* \"contracts/Usdc.sol\":3020:3077  require(_to != address(0),\"transfer to the zero address\") */\n      tag_192\n      jumpi\n      mload(0x40)\n      0x08c379a000000000000000000000000000000000000000000000000000000000\n      dup2\n      mstore\n      0x04\n      add\n      tag_193\n      swap1\n      tag_194\n      jump\t// in\n    tag_193:\n      mload(0x40)\n      dup1\n      swap2\n      sub\n      swap1\n      revert\n    tag_192:\n        /* \"contracts/Usdc.sol\":3106:3113  _amount */\n      dup1\n        /* \"contracts/Usdc.sol\":3086:3095  _balances */\n      0x01\n        /* \"contracts/Usdc.sol\":3086:3102  _balances[_from] */\n      0x00\n        /* \"contracts/Usdc.sol\":3096:3101  _from */\n      dup6\n        /* \"contracts/Usdc.sol\":3086:3102  _balances[_from] */\n      0xffffffffffffffffffffffffffffffffffffffff\n      and\n      0xffffffffffffffffffffffffffffffffffffffff\n      and\n      dup2\n      mstore\n      0x20\n      add\n      swap1\n      dup2\n      mstore\n      0x20\n      add\n      0x00\n      keccak256\n      0x00\n        /* \"contracts/Usdc.sol\":3086:3113  _balances[_from] -= _amount */\n      dup3\n      dup3\n      sload\n      tag_195\n      swap2\n      swap1\n      tag_148\n      jump\t// in\n    tag_195:\n      swap3\n      pop\n      pop\n      dup2\n      swap1\n      sstore\n      pop\n        /* \"contracts/Usdc.sol\":3138:3145  _amount */\n      dup1\n        /* \"contracts/Usdc.sol\":3120:3129  _balances */\n      0x01\n        /* \"contracts/Usdc.sol\":3120:3134  _balances[_to] */\n      0x00\n        /* \"contracts/Usdc.sol\":3130:3133  _to */\n      dup5\n        /* \"contracts/Usdc.sol\":3120:3134  _balances[_to] */\n      0xffffffffffffffffffffffffffffffffffffffff\n      and\n      0xffffffffffffffffffffffffffffffffffffffff\n      and\n      dup2\n      mstore\n      0x20\n      add\n      swap1\n      dup2\n      mstore\n      0x20\n      add\n      0x00\n      keccak256\n      0x00\n        /* \"contracts/Usdc.sol\":3120:3145  _balances[_to] += _amount */\n      dup3\n      dup3\n      sload\n      tag_196\n      swap2\n      swap1\n      tag_115\n      jump\t// in\n    tag_196:\n      swap3\n      pop\n      pop\n      dup2\n      swap1\n      sstore\n      pop\n        /* \"contracts/Usdc.sol\":3175:3178  _to */\n      dup2\n        /* \"contracts/Usdc.sol\":3159:3188  Transfer(_from, _to, _amount) */\n      0xffffffffffffffffffffffffffffffffffffffff\n      and\n        /* \"contracts/Usdc.sol\":3168:3173  _from */\n      dup4\n        /* \"contracts/Usdc.sol\":3159:3188  Transfer(_from, _to, _amount) */\n      0xffffffffffffffffffffffffffffffffffffffff\n      and\n      0xddf252ad1be2c89b69c2b068fc378daa952ba7f163c4a11628f55a4df523b3ef\n        /* \"contracts/Usdc.sol\":3180:3187  _amount */\n      dup4\n        /* \"contracts/Usdc.sol\":3159:3188  Transfer(_from, _to, _amount) */\n      mload(0x40)\n      tag_197\n      swap2\n      swap1\n      tag_34\n      jump\t// in\n    tag_197:\n      mload(0x40)\n      dup1\n      swap2\n      sub\n      swap1\n      log3\n        /* \"contracts/Usdc.sol\":2867:3196  function _transfer(address _from,address _to,uint256 _amount) internal virtual{\r... */\n      pop\n      pop\n      pop\n      jump\t// out\n        /* \"@openzeppelin/contracts/utils/Context.sol\":640:736  function _msgSender() internal view virtual returns (address) {... */\n    tag_119:\n        /* \"@openzeppelin/contracts/utils/Context.sol\":693:700  address */\n      0x00\n        /* \"@openzeppelin/contracts/utils/Context.sol\":719:729  msg.sender */\n      caller\n        /* \"@openzeppelin/contracts/utils/Context.sol\":712:729  return msg.sender */\n      swap1\n      pop\n        /* \"@openzeppelin/contracts/utils/Context.sol\":640:736  function _msgSender() internal view virtual returns (address) {... */\n      swap1\n      jump\t// out\n        /* \"@openzeppelin/contracts/access/Ownable.sol\":2270:2457  function _transferOwnership(address newOwner) internal virtual {... */\n    tag_126:\n        /* \"@openzeppelin/contracts/access/Ownable.sol\":2343:2359  address oldOwner */\n      0x00\n        /* \"@openzeppelin/contracts/access/Ownable.sol\":2362:2368  _owner */\n      dup1\n      0x00\n      swap1\n      sload\n      swap1\n      0x0100\n      exp\n      swap1\n      div\n      0xffffffffffffffffffffffffffffffffffffffff\n      and\n        /* \"@openzeppelin/contracts/access/Ownable.sol\":2343:2368  address oldOwner = _owner */\n      swap1\n      pop\n        /* \"@openzeppelin/contracts/access/Ownable.sol\":2387:2395  newOwner */\n      dup2\n        /* \"@openzeppelin/contracts/access/Ownable.sol\":2378:2384  _owner */\n      0x00\n      dup1\n        /* \"@openzeppelin/contracts/access/Ownable.sol\":2378:2395  _owner = newOwner */\n      0x0100\n      exp\n      dup2\n      sload\n      dup2\n      0xffffffffffffffffffffffffffffffffffffffff\n      mul\n      not\n      and\n      swap1\n      dup4\n      0xffffffffffffffffffffffffffffffffffffffff\n      and\n      mul\n      or\n      swap1\n      sstore\n      pop\n        /* \"@openzeppelin/contracts/access/Ownable.sol\":2441:2449  newOwner */\n      dup2\n        /* \"@openzeppelin/contracts/access/Ownable.sol\":2410:2450  OwnershipTransferred(oldOwner, newOwner) */\n      0xffffffffffffffffffffffffffffffffffffffff\n      and\n        /* \"@openzeppelin/contracts/access/Ownable.sol\":2431:2439  oldOwner */\n      dup2\n        /* \"@openzeppelin/contracts/access/Ownable.sol\":2410:2450  OwnershipTransferred(oldOwner, newOwner) */\n      0xffffffffffffffffffffffffffffffffffffffff\n      and\n      0x8be0079c531659141344cd1fd0a4f28419497f9722a3daafe3b4186f6b6457e0\n      mload(0x40)\n      mload(0x40)\n      dup1\n      swap2\n      sub\n      swap1\n      log3\n        /* \"@openzeppelin/contracts/access/Ownable.sol\":2333:2457  {... */\n      pop\n        /* \"@openzeppelin/contracts/access/Ownable.sol\":2270:2457  function _transferOwnership(address newOwner) internal virtual {... */\n      pop\n      jump\t// out\n        /* \"#utility.yul\":7:146   */\n    tag_201:\n        /* \"#utility.yul\":53:58   */\n      0x00\n        /* \"#utility.yul\":91:97   */\n      dup2\n        /* \"#utility.yul\":78:98   */\n      calldataload\n        /* \"#utility.yul\":69:98   */\n      swap1\n      pop\n        /* \"#utility.yul\":107:140   */\n      tag_203\n        /* \"#utility.yul\":134:139   */\n      dup2\n        /* \"#utility.yul\":107:140   */\n      tag_204\n      jump\t// in\n    tag_203:\n        /* \"#utility.yul\":7:146   */\n      swap3\n      swap2\n      pop\n      pop\n      jump\t// out\n        /* \"#utility.yul\":152:291   */\n    tag_205:\n        /* \"#utility.yul\":198:203   */\n      0x00\n        /* \"#utility.yul\":236:242   */\n      dup2\n        /* \"#utility.yul\":223:243   */\n      calldataload\n        /* \"#utility.yul\":214:243   */\n      swap1\n      pop\n        /* \"#utility.yul\":252:285   */\n      tag_207\n        /* \"#utility.yul\":279:284   */\n      dup2\n        /* \"#utility.yul\":252:285   */\n      tag_208\n      jump\t// in\n    tag_207:\n        /* \"#utility.yul\":152:291   */\n      swap3\n      swap2\n      pop\n      pop\n      jump\t// out\n        /* \"#utility.yul\":297:626   */\n    tag_50:\n        /* \"#utility.yul\":356:362   */\n      0x00\n        /* \"#utility.yul\":405:407   */\n      0x20\n        /* \"#utility.yul\":393:402   */\n      dup3\n        /* \"#utility.yul\":384:391   */\n      dup5\n        /* \"#utility.yul\":380:403   */\n      sub\n        /* \"#utility.yul\":376:408   */\n      slt\n        /* \"#utility.yul\":373:492   */\n      iszero\n      tag_210\n      jumpi\n        /* \"#utility.yul\":411:490   */\n      tag_211\n      tag_212\n      jump\t// in\n    tag_211:\n        /* \"#utility.yul\":373:492   */\n    tag_210:\n        /* \"#utility.yul\":531:532   */\n      0x00\n        /* \"#utility.yul\":556:609   */\n      tag_213\n        /* \"#utility.yul\":601:608   */\n      dup5\n        /* \"#utility.yul\":592:598   */\n      dup3\n        /* \"#utility.yul\":581:590   */\n      dup6\n        /* \"#utility.yul\":577:599   */\n      add\n        /* \"#utility.yul\":556:609   */\n      tag_201\n      jump\t// in\n    tag_213:\n        /* \"#utility.yul\":546:609   */\n      swap2\n      pop\n        /* \"#utility.yul\":502:619   */\n      pop\n        /* \"#utility.yul\":297:626   */\n      swap3\n      swap2\n      pop\n      pop\n      jump\t// out\n        /* \"#utility.yul\":632:1106   */\n    tag_75:\n        /* \"#utility.yul\":700:706   */\n      0x00\n        /* \"#utility.yul\":708:714   */\n      dup1\n        /* \"#utility.yul\":757:759   */\n      0x40\n        /* \"#utility.yul\":745:754   */\n      dup4\n        /* \"#utility.yul\":736:743   */\n      dup6\n        /* \"#utility.yul\":732:755   */\n      sub\n        /* \"#utility.yul\":728:760   */\n      slt\n        /* \"#utility.yul\":725:844   */\n      iszero\n      tag_215\n      jumpi\n        /* \"#utility.yul\":763:842   */\n      tag_216\n      tag_212\n      jump\t// in\n    tag_216:\n        /* \"#utility.yul\":725:844   */\n    tag_215:\n        /* \"#utility.yul\":883:884   */\n      0x00\n        /* \"#utility.yul\":908:961   */\n      tag_217\n        /* \"#utility.yul\":953:960   */\n      dup6\n        /* \"#utility.yul\":944:950   */\n      dup3\n        /* \"#utility.yul\":933:942   */\n      dup7\n        /* \"#utility.yul\":929:951   */\n      add\n        /* \"#utility.yul\":908:961   */\n      tag_201\n      jump\t// in\n    tag_217:\n        /* \"#utility.yul\":898:961   */\n      swap3\n      pop\n        /* \"#utility.yul\":854:971   */\n      pop\n        /* \"#utility.yul\":1010:1012   */\n      0x20\n        /* \"#utility.yul\":1036:1089   */\n      tag_218\n        /* \"#utility.yul\":1081:1088   */\n      dup6\n        /* \"#utility.yul\":1072:1078   */\n      dup3\n        /* \"#utility.yul\":1061:1070   */\n      dup7\n        /* \"#utility.yul\":1057:1079   */\n      add\n        /* \"#utility.yul\":1036:1089   */\n      tag_201\n      jump\t// in\n    tag_218:\n        /* \"#utility.yul\":1026:1089   */\n      swap2\n      pop\n        /* \"#utility.yul\":981:1099   */\n      pop\n        /* \"#utility.yul\":632:1106   */\n      swap3\n      pop\n      swap3\n      swap1\n      pop\n      jump\t// out\n        /* \"#utility.yul\":1112:1731   */\n    tag_37:\n        /* \"#utility.yul\":1189:1195   */\n      0x00\n        /* \"#utility.yul\":1197:1203   */\n      dup1\n        /* \"#utility.yul\":1205:1211   */\n      0x00\n        /* \"#utility.yul\":1254:1256   */\n      0x60\n        /* \"#utility.yul\":1242:1251   */\n      dup5\n        /* \"#utility.yul\":1233:1240   */\n      dup7\n        /* \"#utility.yul\":1229:1252   */\n      sub\n        /* \"#utility.yul\":1225:1257   */\n      slt\n        /* \"#utility.yul\":1222:1341   */\n      iszero\n      tag_220\n      jumpi\n        /* \"#utility.yul\":1260:1339   */\n      tag_221\n      tag_212\n      jump\t// in\n    tag_221:\n        /* \"#utility.yul\":1222:1341   */\n    tag_220:\n        /* \"#utility.yul\":1380:1381   */\n      0x00\n        /* \"#utility.yul\":1405:1458   */\n      tag_222\n        /* \"#utility.yul\":1450:1457   */\n      dup7\n        /* \"#utility.yul\":1441:1447   */\n      dup3\n        /* \"#utility.yul\":1430:1439   */\n      dup8\n        /* \"#utility.yul\":1426:1448   */\n      add\n        /* \"#utility.yul\":1405:1458   */\n      tag_201\n      jump\t// in\n    tag_222:\n        /* \"#utility.yul\":1395:1458   */\n      swap4\n      pop\n        /* \"#utility.yul\":1351:1468   */\n      pop\n        /* \"#utility.yul\":1507:1509   */\n      0x20\n        /* \"#utility.yul\":1533:1586   */\n      tag_223\n        /* \"#utility.yul\":1578:1585   */\n      dup7\n        /* \"#utility.yul\":1569:1575   */\n      dup3\n        /* \"#utility.yul\":1558:1567   */\n      dup8\n        /* \"#utility.yul\":1554:1576   */\n      add\n        /* \"#utility.yul\":1533:1586   */\n      tag_201\n      jump\t// in\n    tag_223:\n        /* \"#utility.yul\":1523:1586   */\n      swap3\n      pop\n        /* \"#utility.yul\":1478:1596   */\n      pop\n        /* \"#utility.yul\":1635:1637   */\n      0x40\n        /* \"#utility.yul\":1661:1714   */\n      tag_224\n        /* \"#utility.yul\":1706:1713   */\n      dup7\n        /* \"#utility.yul\":1697:1703   */\n      dup3\n        /* \"#utility.yul\":1686:1695   */\n      dup8\n        /* \"#utility.yul\":1682:1704   */\n      add\n        /* \"#utility.yul\":1661:1714   */\n      tag_205\n      jump\t// in\n    tag_224:\n        /* \"#utility.yul\":1651:1714   */\n      swap2\n      pop\n        /* \"#utility.yul\":1606:1724   */\n      pop\n        /* \"#utility.yul\":1112:1731   */\n      swap3\n      pop\n      swap3\n      pop\n      swap3\n      jump\t// out\n        /* \"#utility.yul\":1737:2211   */\n    tag_27:\n        /* \"#utility.yul\":1805:1811   */\n      0x00\n        /* \"#utility.yul\":1813:1819   */\n      dup1\n        /* \"#utility.yul\":1862:1864   */\n      0x40\n        /* \"#utility.yul\":1850:1859   */\n      dup4\n        /* \"#utility.yul\":1841:1848   */\n      dup6\n        /* \"#utility.yul\":1837:1860   */\n      sub\n        /* \"#utility.yul\":1833:1865   */\n      slt\n        /* \"#utility.yul\":1830:1949   */\n      iszero\n      tag_226\n      jumpi\n        /* \"#utility.yul\":1868:1947   */\n      tag_227\n      tag_212\n      jump\t// in\n    tag_227:\n        /* \"#utility.yul\":1830:1949   */\n    tag_226:\n        /* \"#utility.yul\":1988:1989   */\n      0x00\n        /* \"#utility.yul\":2013:2066   */\n      tag_228\n        /* \"#utility.yul\":2058:2065   */\n      dup6\n        /* \"#utility.yul\":2049:2055   */\n      dup3\n        /* \"#utility.yul\":2038:2047   */\n      dup7\n        /* \"#utility.yul\":2034:2056   */\n      add\n        /* \"#utility.yul\":2013:2066   */\n      tag_201\n      jump\t// in\n    tag_228:\n        /* \"#utility.yul\":2003:2066   */\n      swap3\n      pop\n        /* \"#utility.yul\":1959:2076   */\n      pop\n        /* \"#utility.yul\":2115:2117   */\n      0x20\n        /* \"#utility.yul\":2141:2194   */\n      tag_229\n        /* \"#utility.yul\":2186:2193   */\n      dup6\n        /* \"#utility.yul\":2177:2183   */\n      dup3\n        /* \"#utility.yul\":2166:2175   */\n      dup7\n        /* \"#utility.yul\":2162:2184   */\n      add\n        /* \"#utility.yul\":2141:2194   */\n      tag_205\n      jump\t// in\n    tag_229:\n        /* \"#utility.yul\":2131:2194   */\n      swap2\n      pop\n        /* \"#utility.yul\":2086:2204   */\n      pop\n        /* \"#utility.yul\":1737:2211   */\n      swap3\n      pop\n      swap3\n      swap1\n      pop\n      jump\t// out\n        /* \"#utility.yul\":2217:2335   */\n    tag_230:\n        /* \"#utility.yul\":2304:2328   */\n      tag_232\n        /* \"#utility.yul\":2322:2327   */\n      dup2\n        /* \"#utility.yul\":2304:2328   */\n      tag_233\n      jump\t// in\n    tag_232:\n        /* \"#utility.yul\":2299:2302   */\n      dup3\n        /* \"#utility.yul\":2292:2329   */\n      mstore\n        /* \"#utility.yul\":2217:2335   */\n      pop\n      pop\n      jump\t// out\n        /* \"#utility.yul\":2341:2450   */\n    tag_234:\n        /* \"#utility.yul\":2422:2443   */\n      tag_236\n        /* \"#utility.yul\":2437:2442   */\n      dup2\n        /* \"#utility.yul\":2422:2443   */\n      tag_237\n      jump\t// in\n    tag_236:\n        /* \"#utility.yul\":2417:2420   */\n      dup3\n        /* \"#utility.yul\":2410:2444   */\n      mstore\n        /* \"#utility.yul\":2341:2450   */\n      pop\n      pop\n      jump\t// out\n        /* \"#utility.yul\":2456:2820   */\n    tag_238:\n        /* \"#utility.yul\":2544:2547   */\n      0x00\n        /* \"#utility.yul\":2572:2611   */\n      tag_240\n        /* \"#utility.yul\":2605:2610   */\n      dup3\n        /* \"#utility.yul\":2572:2611   */\n      tag_241\n      jump\t// in\n    tag_240:\n        /* \"#utility.yul\":2627:2698   */\n      tag_242\n        /* \"#utility.yul\":2691:2697   */\n      dup2\n        /* \"#utility.yul\":2686:2689   */\n      dup6\n        /* \"#utility.yul\":2627:2698   */\n      tag_243\n      jump\t// in\n    tag_242:\n        /* \"#utility.yul\":2620:2698   */\n      swap4\n      pop\n        /* \"#utility.yul\":2707:2759   */\n      tag_244\n        /* \"#utility.yul\":2752:2758   */\n      dup2\n        /* \"#utility.yul\":2747:2750   */\n      dup6\n        /* \"#utility.yul\":2740:2744   */\n      0x20\n        /* \"#utility.yul\":2733:2738   */\n      dup7\n        /* \"#utility.yul\":2729:2745   */\n      add\n        /* \"#utility.yul\":2707:2759   */\n      tag_245\n      jump\t// in\n    tag_244:\n        /* \"#utility.yul\":2784:2813   */\n      tag_246\n        /* \"#utility.yul\":2806:2812   */\n      dup2\n        /* \"#utility.yul\":2784:2813   */\n      tag_247\n      jump\t// in\n    tag_246:\n        /* \"#utility.yul\":2779:2782   */\n      dup5\n        /* \"#utility.yul\":2775:2814   */\n      add\n        /* \"#utility.yul\":2768:2814   */\n      swap2\n      pop\n        /* \"#utility.yul\":2548:2820   */\n      pop\n        /* \"#utility.yul\":2456:2820   */\n      swap3\n      swap2\n      pop\n      pop\n      jump\t// out\n        /* \"#utility.yul\":2826:3192   */\n    tag_248:\n        /* \"#utility.yul\":2968:2971   */\n      0x00\n        /* \"#utility.yul\":2989:3056   */\n      tag_250\n        /* \"#utility.yul\":3053:3055   */\n      0x16\n        /* \"#utility.yul\":3048:3051   */\n      dup4\n        /* \"#utility.yul\":2989:3056   */\n      tag_243\n      jump\t// in\n    tag_250:\n        /* \"#utility.yul\":2982:3056   */\n      swap2\n      pop\n        /* \"#utility.yul\":3065:3158   */\n      tag_251\n        /* \"#utility.yul\":3154:3157   */\n      dup3\n        /* \"#utility.yul\":3065:3158   */\n      tag_252\n      jump\t// in\n    tag_251:\n        /* \"#utility.yul\":3183:3185   */\n      0x20\n        /* \"#utility.yul\":3178:3181   */\n      dup3\n        /* \"#utility.yul\":3174:3186   */\n      add\n        /* \"#utility.yul\":3167:3186   */\n      swap1\n      pop\n        /* \"#utility.yul\":2826:3192   */\n      swap2\n      swap1\n      pop\n      jump\t// out\n        /* \"#utility.yul\":3198:3564   */\n    tag_253:\n        /* \"#utility.yul\":3340:3343   */\n      0x00\n        /* \"#utility.yul\":3361:3428   */\n      tag_255\n        /* \"#utility.yul\":3425:3427   */\n      0x23\n        /* \"#utility.yul\":3420:3423   */\n      dup4\n        /* \"#utility.yul\":3361:3428   */\n      tag_243\n      jump\t// in\n    tag_255:\n        /* \"#utility.yul\":3354:3428   */\n      swap2\n      pop\n        /* \"#utility.yul\":3437:3530   */\n      tag_256\n        /* \"#utility.yul\":3526:3529   */\n      dup3\n        /* \"#utility.yul\":3437:3530   */\n      tag_257\n      jump\t// in\n    tag_256:\n        /* \"#utility.yul\":3555:3557   */\n      0x40\n        /* \"#utility.yul\":3550:3553   */\n      dup3\n        /* \"#utility.yul\":3546:3558   */\n      add\n        /* \"#utility.yul\":3539:3558   */\n      swap1\n      pop\n        /* \"#utility.yul\":3198:3564   */\n      swap2\n      swap1\n      pop\n      jump\t// out\n        /* \"#utility.yul\":3570:3936   */\n    tag_258:\n        /* \"#utility.yul\":3712:3715   */\n      0x00\n        /* \"#utility.yul\":3733:3800   */\n      tag_260\n        /* \"#utility.yul\":3797:3799   */\n      0x26\n        /* \"#utility.yul\":3792:3795   */\n      dup4\n        /* \"#utility.yul\":3733:3800   */\n      tag_243\n      jump\t// in\n    tag_260:\n        /* \"#utility.yul\":3726:3800   */\n      swap2\n      pop\n        /* \"#utility.yul\":3809:3902   */\n      tag_261\n        /* \"#utility.yul\":3898:3901   */\n      dup3\n        /* \"#utility.yul\":3809:3902   */\n      tag_262\n      jump\t// in\n    tag_261:\n        /* \"#utility.yul\":3927:3929   */\n      0x40\n        /* \"#utility.yul\":3922:3925   */\n      dup3\n        /* \"#utility.yul\":3918:3930   */\n      add\n        /* \"#utility.yul\":3911:3930   */\n      swap1\n      pop\n        /* \"#utility.yul\":3570:3936   */\n      swap2\n      swap1\n      pop\n      jump\t// out\n        /* \"#utility.yul\":3942:4308   */\n    tag_263:\n        /* \"#utility.yul\":4084:4087   */\n      0x00\n        /* \"#utility.yul\":4105:4172   */\n      tag_265\n        /* \"#utility.yul\":4169:4171   */\n      0x1e\n        /* \"#utility.yul\":4164:4167   */\n      dup4\n        /* \"#utility.yul\":4105:4172   */\n      tag_243\n      jump\t// in\n    tag_265:\n        /* \"#utility.yul\":4098:4172   */\n      swap2\n      pop\n        /* \"#utility.yul\":4181:4274   */\n      tag_266\n        /* \"#utility.yul\":4270:4273   */\n      dup3\n        /* \"#utility.yul\":4181:4274   */\n      tag_267\n      jump\t// in\n    tag_266:\n        /* \"#utility.yul\":4299:4301   */\n      0x20\n        /* \"#utility.yul\":4294:4297   */\n      dup3\n        /* \"#utility.yul\":4290:4302   */\n      add\n        /* \"#utility.yul\":4283:4302   */\n      swap1\n      pop\n        /* \"#utility.yul\":3942:4308   */\n      swap2\n      swap1\n      pop\n      jump\t// out\n        /* \"#utility.yul\":4314:4680   */\n    tag_268:\n        /* \"#utility.yul\":4456:4459   */\n      0x00\n        /* \"#utility.yul\":4477:4544   */\n      tag_270\n        /* \"#utility.yul\":4541:4543   */\n      0x1c\n        /* \"#utility.yul\":4536:4539   */\n      dup4\n        /* \"#utility.yul\":4477:4544   */\n      tag_243\n      jump\t// in\n    tag_270:\n        /* \"#utility.yul\":4470:4544   */\n      swap2\n      pop\n        /* \"#utility.yul\":4553:4646   */\n      tag_271\n        /* \"#utility.yul\":4642:4645   */\n      dup3\n        /* \"#utility.yul\":4553:4646   */\n      tag_272\n      jump\t// in\n    tag_271:\n        /* \"#utility.yul\":4671:4673   */\n      0x20\n        /* \"#utility.yul\":4666:4669   */\n      dup3\n        /* \"#utility.yul\":4662:4674   */\n      add\n        /* \"#utility.yul\":4655:4674   */\n      swap1\n      pop\n        /* \"#utility.yul\":4314:4680   */\n      swap2\n      swap1\n      pop\n      jump\t// out\n        /* \"#utility.yul\":4686:5052   */\n    tag_273:\n        /* \"#utility.yul\":4828:4831   */\n      0x00\n        /* \"#utility.yul\":4849:4916   */\n      tag_275\n        /* \"#utility.yul\":4913:4915   */\n      0x1b\n        /* \"#utility.yul\":4908:4911   */\n      dup4\n        /* \"#utility.yul\":4849:4916   */\n      tag_243\n      jump\t// in\n    tag_275:\n        /* \"#utility.yul\":4842:4916   */\n      swap2\n      pop\n        /* \"#utility.yul\":4925:5018   */\n      tag_276\n        /* \"#utility.yul\":5014:5017   */\n      dup3\n        /* \"#utility.yul\":4925:5018   */\n      tag_277\n      jump\t// in\n    tag_276:\n        /* \"#utility.yul\":5043:5045   */\n      0x20\n        /* \"#utility.yul\":5038:5041   */\n      dup3\n        /* \"#utility.yul\":5034:5046   */\n      add\n        /* \"#utility.yul\":5027:5046   */\n      swap1\n      pop\n        /* \"#utility.yul\":4686:5052   */\n      swap2\n      swap1\n      pop\n      jump\t// out\n        /* \"#utility.yul\":5058:5424   */\n    tag_278:\n        /* \"#utility.yul\":5200:5203   */\n      0x00\n        /* \"#utility.yul\":5221:5288   */\n      tag_280\n        /* \"#utility.yul\":5285:5287   */\n      0x10\n        /* \"#utility.yul\":5280:5283   */\n      dup4\n        /* \"#utility.yul\":5221:5288   */\n      tag_243\n      jump\t// in\n    tag_280:\n        /* \"#utility.yul\":5214:5288   */\n      swap2\n      pop\n        /* \"#utility.yul\":5297:5390   */\n      tag_281\n        /* \"#utility.yul\":5386:5389   */\n      dup3\n        /* \"#utility.yul\":5297:5390   */\n      tag_282\n      jump\t// in\n    tag_281:\n        /* \"#utility.yul\":5415:5417   */\n      0x20\n        /* \"#utility.yul\":5410:5413   */\n      dup3\n        /* \"#utility.yul\":5406:5418   */\n      add\n        /* \"#utility.yul\":5399:5418   */\n      swap1\n      pop\n        /* \"#utility.yul\":5058:5424   */\n      swap2\n      swap1\n      pop\n      jump\t// out\n        /* \"#utility.yul\":5430:5796   */\n    tag_283:\n        /* \"#utility.yul\":5572:5575   */\n      0x00\n        /* \"#utility.yul\":5593:5660   */\n      tag_285\n        /* \"#utility.yul\":5657:5659   */\n      0x18\n        /* \"#utility.yul\":5652:5655   */\n      dup4\n        /* \"#utility.yul\":5593:5660   */\n      tag_243\n      jump\t// in\n    tag_285:\n        /* \"#utility.yul\":5586:5660   */\n      swap2\n      pop\n        /* \"#utility.yul\":5669:5762   */\n      tag_286\n        /* \"#utility.yul\":5758:5761   */\n      dup3\n        /* \"#utility.yul\":5669:5762   */\n      tag_287\n      jump\t// in\n    tag_286:\n        /* \"#utility.yul\":5787:5789   */\n      0x20\n        /* \"#utility.yul\":5782:5785   */\n      dup3\n        /* \"#utility.yul\":5778:5790   */\n      add\n        /* \"#utility.yul\":5771:5790   */\n      swap1\n      pop\n        /* \"#utility.yul\":5430:5796   */\n      swap2\n      swap1\n      pop\n      jump\t// out\n        /* \"#utility.yul\":5802:6168   */\n    tag_288:\n        /* \"#utility.yul\":5944:5947   */\n      0x00\n        /* \"#utility.yul\":5965:6032   */\n      tag_290\n        /* \"#utility.yul\":6029:6031   */\n      0x25\n        /* \"#utility.yul\":6024:6027   */\n      dup4\n        /* \"#utility.yul\":5965:6032   */\n      tag_243\n      jump\t// in\n    tag_290:\n        /* \"#utility.yul\":5958:6032   */\n      swap2\n      pop\n        /* \"#utility.yul\":6041:6134   */\n      tag_291\n        /* \"#utility.yul\":6130:6133   */\n      dup3\n        /* \"#utility.yul\":6041:6134   */\n      tag_292\n      jump\t// in\n    tag_291:\n        /* \"#utility.yul\":6159:6161   */\n      0x40\n        /* \"#utility.yul\":6154:6157   */\n      dup3\n        /* \"#utility.yul\":6150:6162   */\n      add\n        /* \"#utility.yul\":6143:6162   */\n      swap1\n      pop\n        /* \"#utility.yul\":5802:6168   */\n      swap2\n      swap1\n      pop\n      jump\t// out\n        /* \"#utility.yul\":6174:6540   */\n    tag_293:\n        /* \"#utility.yul\":6316:6319   */\n      0x00\n        /* \"#utility.yul\":6337:6404   */\n      tag_295\n        /* \"#utility.yul\":6401:6403   */\n      0x20\n        /* \"#utility.yul\":6396:6399   */\n      dup4\n        /* \"#utility.yul\":6337:6404   */\n      tag_243\n      jump\t// in\n    tag_295:\n        /* \"#utility.yul\":6330:6404   */\n      swap2\n      pop\n        /* \"#utility.yul\":6413:6506   */\n      tag_296\n        /* \"#utility.yul\":6502:6505   */\n      dup3\n        /* \"#utility.yul\":6413:6506   */\n      tag_297\n      jump\t// in\n    tag_296:\n        /* \"#utility.yul\":6531:6533   */\n      0x20\n        /* \"#utility.yul\":6526:6529   */\n      dup3\n        /* \"#utility.yul\":6522:6534   */\n      add\n        /* \"#utility.yul\":6515:6534   */\n      swap1\n      pop\n        /* \"#utility.yul\":6174:6540   */\n      swap2\n      swap1\n      pop\n      jump\t// out\n        /* \"#utility.yul\":6546:6912   */\n    tag_298:\n        /* \"#utility.yul\":6688:6691   */\n      0x00\n        /* \"#utility.yul\":6709:6776   */\n      tag_300\n        /* \"#utility.yul\":6773:6775   */\n      0x22\n        /* \"#utility.yul\":6768:6771   */\n      dup4\n        /* \"#utility.yul\":6709:6776   */\n      tag_243\n      jump\t// in\n    tag_300:\n        /* \"#utility.yul\":6702:6776   */\n      swap2\n      pop\n        /* \"#utility.yul\":6785:6878   */\n      tag_301\n        /* \"#utility.yul\":6874:6877   */\n      dup3\n        /* \"#utility.yul\":6785:6878   */\n      tag_302\n      jump\t// in\n    tag_301:\n        /* \"#utility.yul\":6903:6905   */\n      0x40\n        /* \"#utility.yul\":6898:6901   */\n      dup3\n        /* \"#utility.yul\":6894:6906   */\n      add\n        /* \"#utility.yul\":6887:6906   */\n      swap1\n      pop\n        /* \"#utility.yul\":6546:6912   */\n      swap2\n      swap1\n      pop\n      jump\t// out\n        /* \"#utility.yul\":6918:7284   */\n    tag_303:\n        /* \"#utility.yul\":7060:7063   */\n      0x00\n        /* \"#utility.yul\":7081:7148   */\n      tag_305\n        /* \"#utility.yul\":7145:7147   */\n      0x1d\n        /* \"#utility.yul\":7140:7143   */\n      dup4\n        /* \"#utility.yul\":7081:7148   */\n      tag_243\n      jump\t// in\n    tag_305:\n        /* \"#utility.yul\":7074:7148   */\n      swap2\n      pop\n        /* \"#utility.yul\":7157:7250   */\n      tag_306\n        /* \"#utility.yul\":7246:7249   */\n      dup3\n        /* \"#utility.yul\":7157:7250   */\n      tag_307\n      jump\t// in\n    tag_306:\n        /* \"#utility.yul\":7275:7277   */\n      0x20\n        /* \"#utility.yul\":7270:7273   */\n      dup3\n        /* \"#utility.yul\":7266:7278   */\n      add\n        /* \"#utility.yul\":7259:7278   */\n      swap1\n      pop\n        /* \"#utility.yul\":6918:7284   */\n      swap2\n      swap1\n      pop\n      jump\t// out\n        /* \"#utility.yul\":7290:7408   */\n    tag_308:\n        /* \"#utility.yul\":7377:7401   */\n      tag_310\n        /* \"#utility.yul\":7395:7400   */\n      dup2\n        /* \"#utility.yul\":7377:7401   */\n      tag_311\n      jump\t// in\n    tag_310:\n        /* \"#utility.yul\":7372:7375   */\n      dup3\n        /* \"#utility.yul\":7365:7402   */\n      mstore\n        /* \"#utility.yul\":7290:7408   */\n      pop\n      pop\n      jump\t// out\n        /* \"#utility.yul\":7414:7526   */\n    tag_312:\n        /* \"#utility.yul\":7497:7519   */\n      tag_314\n        /* \"#utility.yul\":7513:7518   */\n      dup2\n        /* \"#utility.yul\":7497:7519   */\n      tag_315\n      jump\t// in\n    tag_314:\n        /* \"#utility.yul\":7492:7495   */\n      dup3\n        /* \"#utility.yul\":7485:7520   */\n      mstore\n        /* \"#utility.yul\":7414:7526   */\n      pop\n      pop\n      jump\t// out\n        /* \"#utility.yul\":7532:7754   */\n    tag_58:\n        /* \"#utility.yul\":7625:7629   */\n      0x00\n        /* \"#utility.yul\":7663:7665   */\n      0x20\n        /* \"#utility.yul\":7652:7661   */\n      dup3\n        /* \"#utility.yul\":7648:7666   */\n      add\n        /* \"#utility.yul\":7640:7666   */\n      swap1\n      pop\n        /* \"#utility.yul\":7676:7747   */\n      tag_317\n        /* \"#utility.yul\":7744:7745   */\n      0x00\n        /* \"#utility.yul\":7733:7742   */\n      dup4\n        /* \"#utility.yul\":7729:7746   */\n      add\n        /* \"#utility.yul\":7720:7726   */\n      dup5\n        /* \"#utility.yul\":7676:7747   */\n      tag_230\n      jump\t// in\n    tag_317:\n        /* \"#utility.yul\":7532:7754   */\n      swap3\n      swap2\n      pop\n      pop\n      jump\t// out\n        /* \"#utility.yul\":7760:7970   */\n    tag_30:\n        /* \"#utility.yul\":7847:7851   */\n      0x00\n        /* \"#utility.yul\":7885:7887   */\n      0x20\n        /* \"#utility.yul\":7874:7883   */\n      dup3\n        /* \"#utility.yul\":7870:7888   */\n      add\n        /* \"#utility.yul\":7862:7888   */\n      swap1\n      pop\n        /* \"#utility.yul\":7898:7963   */\n      tag_319\n        /* \"#utility.yul\":7960:7961   */\n      0x00\n        /* \"#utility.yul\":7949:7958   */\n      dup4\n        /* \"#utility.yul\":7945:7962   */\n      add\n        /* \"#utility.yul\":7936:7942   */\n      dup5\n        /* \"#utility.yul\":7898:7963   */\n      tag_234\n      jump\t// in\n    tag_319:\n        /* \"#utility.yul\":7760:7970   */\n      swap3\n      swap2\n      pop\n      pop\n      jump\t// out\n        /* \"#utility.yul\":7976:8289   */\n    tag_24:\n        /* \"#utility.yul\":8089:8093   */\n      0x00\n        /* \"#utility.yul\":8127:8129   */\n      0x20\n        /* \"#utility.yul\":8116:8125   */\n      dup3\n        /* \"#utility.yul\":8112:8130   */\n      add\n        /* \"#utility.yul\":8104:8130   */\n      swap1\n      pop\n        /* \"#utility.yul\":8176:8185   */\n      dup2\n        /* \"#utility.yul\":8170:8174   */\n      dup2\n        /* \"#utility.yul\":8166:8186   */\n      sub\n        /* \"#utility.yul\":8162:8163   */\n      0x00\n        /* \"#utility.yul\":8151:8160   */\n      dup4\n        /* \"#utility.yul\":8147:8164   */\n      add\n        /* \"#utility.yul\":8140:8187   */\n      mstore\n        /* \"#utility.yul\":8204:8282   */\n      tag_321\n        /* \"#utility.yul\":8277:8281   */\n      dup2\n        /* \"#utility.yul\":8268:8274   */\n      dup5\n        /* \"#utility.yul\":8204:8282   */\n      tag_238\n      jump\t// in\n    tag_321:\n        /* \"#utility.yul\":8196:8282   */\n      swap1\n      pop\n        /* \"#utility.yul\":7976:8289   */\n      swap3\n      swap2\n      pop\n      pop\n      jump\t// out\n        /* \"#utility.yul\":8295:8714   */\n    tag_101:\n        /* \"#utility.yul\":8461:8465   */\n      0x00\n        /* \"#utility.yul\":8499:8501   */\n      0x20\n        /* \"#utility.yul\":8488:8497   */\n      dup3\n        /* \"#utility.yul\":8484:8502   */\n      add\n        /* \"#utility.yul\":8476:8502   */\n      swap1\n      pop\n        /* \"#utility.yul\":8548:8557   */\n      dup2\n        /* \"#utility.yul\":8542:8546   */\n      dup2\n        /* \"#utility.yul\":8538:8558   */\n      sub\n        /* \"#utility.yul\":8534:8535   */\n      0x00\n        /* \"#utility.yul\":8523:8532   */\n      dup4\n        /* \"#utility.yul\":8519:8536   */\n      add\n        /* \"#utility.yul\":8512:8559   */\n      mstore\n        /* \"#utility.yul\":8576:8707   */\n      tag_323\n        /* \"#utility.yul\":8702:8706   */\n      dup2\n        /* \"#utility.yul\":8576:8707   */\n      tag_248\n      jump\t// in\n    tag_323:\n        /* \"#utility.yul\":8568:8707   */\n      swap1\n      pop\n        /* \"#utility.yul\":8295:8714   */\n      swap2\n      swap1\n      pop\n      jump\t// out\n        /* \"#utility.yul\":8720:9139   */\n    tag_181:\n        /* \"#utility.yul\":8886:8890   */\n      0x00\n        /* \"#utility.yul\":8924:8926   */\n      0x20\n        /* \"#utility.yul\":8913:8922   */\n      dup3\n        /* \"#utility.yul\":8909:8927   */\n      add\n        /* \"#utility.yul\":8901:8927   */\n      swap1\n      pop\n        /* \"#utility.yul\":8973:8982   */\n      dup2\n        /* \"#utility.yul\":8967:8971   */\n      dup2\n        /* \"#utility.yul\":8963:8983   */\n      sub\n        /* \"#utility.yul\":8959:8960   */\n      0x00\n        /* \"#utility.yul\":8948:8957   */\n      dup4\n        /* \"#utility.yul\":8944:8961   */\n      add\n        /* \"#utility.yul\":8937:8984   */\n      mstore\n        /* \"#utility.yul\":9001:9132   */\n      tag_325\n        /* \"#utility.yul\":9127:9131   */\n      dup2\n        /* \"#utility.yul\":9001:9132   */\n      tag_253\n      jump\t// in\n    tag_325:\n        /* \"#utility.yul\":8993:9132   */\n      swap1\n      pop\n        /* \"#utility.yul\":8720:9139   */\n      swap2\n      swap1\n      pop\n      jump\t// out\n        /* \"#utility.yul\":9145:9564   */\n    tag_162:\n        /* \"#utility.yul\":9311:9315   */\n      0x00\n        /* \"#utility.yul\":9349:9351   */\n      0x20\n        /* \"#utility.yul\":9338:9347   */\n      dup3\n        /* \"#utility.yul\":9334:9352   */\n      add\n        /* \"#utility.yul\":9326:9352   */\n      swap1\n      pop\n        /* \"#utility.yul\":9398:9407   */\n      dup2\n        /* \"#utility.yul\":9392:9396   */\n      dup2\n        /* \"#utility.yul\":9388:9408   */\n      sub\n        /* \"#utility.yul\":9384:9385   */\n      0x00\n        /* \"#utility.yul\":9373:9382   */\n      dup4\n        /* \"#utility.yul\":9369:9386   */\n      add\n        /* \"#utility.yul\":9362:9409   */\n      mstore\n        /* \"#utility.yul\":9426:9557   */\n      tag_327\n        /* \"#utility.yul\":9552:9556   */\n      dup2\n        /* \"#utility.yul\":9426:9557   */\n      tag_258\n      jump\t// in\n    tag_327:\n        /* \"#utility.yul\":9418:9557   */\n      swap1\n      pop\n        /* \"#utility.yul\":9145:9564   */\n      swap2\n      swap1\n      pop\n      jump\t// out\n        /* \"#utility.yul\":9570:9989   */\n    tag_191:\n        /* \"#utility.yul\":9736:9740   */\n      0x00\n        /* \"#utility.yul\":9774:9776   */\n      0x20\n        /* \"#utility.yul\":9763:9772   */\n      dup3\n        /* \"#utility.yul\":9759:9777   */\n      add\n        /* \"#utility.yul\":9751:9777   */\n      swap1\n      pop\n        /* \"#utility.yul\":9823:9832   */\n      dup2\n        /* \"#utility.yul\":9817:9821   */\n      dup2\n        /* \"#utility.yul\":9813:9833   */\n      sub\n        /* \"#utility.yul\":9809:9810   */\n      0x00\n        /* \"#utility.yul\":9798:9807   */\n      dup4\n        /* \"#utility.yul\":9794:9811   */\n      add\n        /* \"#utility.yul\":9787:9834   */\n      mstore\n        /* \"#utility.yul\":9851:9982   */\n      tag_329\n        /* \"#utility.yul\":9977:9981   */\n      dup2\n        /* \"#utility.yul\":9851:9982   */\n      tag_263\n      jump\t// in\n    tag_329:\n        /* \"#utility.yul\":9843:9982   */\n      swap1\n      pop\n        /* \"#utility.yul\":9570:9989   */\n      swap2\n      swap1\n      pop\n      jump\t// out\n        /* \"#utility.yul\":9995:10414   */\n    tag_194:\n        /* \"#utility.yul\":10161:10165   */\n      0x00\n        /* \"#utility.yul\":10199:10201   */\n      0x20\n        /* \"#utility.yul\":10188:10197   */\n      dup3\n        /* \"#utility.yul\":10184:10202   */\n      add\n        /* \"#utility.yul\":10176:10202   */\n      swap1\n      pop\n        /* \"#utility.yul\":10248:10257   */\n      dup2\n        /* \"#utility.yul\":10242:10246   */\n      dup2\n        /* \"#utility.yul\":10238:10258   */\n      sub\n        /* \"#utility.yul\":10234:10235   */\n      0x00\n        /* \"#utility.yul\":10223:10232   */\n      dup4\n        /* \"#utility.yul\":10219:10236   */\n      add\n        /* \"#utility.yul\":10212:10259   */\n      mstore\n        /* \"#utility.yul\":10276:10407   */\n      tag_331\n        /* \"#utility.yul\":10402:10406   */\n      dup2\n        /* \"#utility.yul\":10276:10407   */\n      tag_268\n      jump\t// in\n    tag_331:\n        /* \"#utility.yul\":10268:10407   */\n      swap1\n      pop\n        /* \"#utility.yul\":9995:10414   */\n      swap2\n      swap1\n      pop\n      jump\t// out\n        /* \"#utility.yul\":10420:10839   */\n    tag_170:\n        /* \"#utility.yul\":10586:10590   */\n      0x00\n        /* \"#utility.yul\":10624:10626   */\n      0x20\n        /* \"#utility.yul\":10613:10622   */\n      dup3\n        /* \"#utility.yul\":10609:10627   */\n      add\n        /* \"#utility.yul\":10601:10627   */\n      swap1\n      pop\n        /* \"#utility.yul\":10673:10682   */\n      dup2\n        /* \"#utility.yul\":10667:10671   */\n      dup2\n        /* \"#utility.yul\":10663:10683   */\n      sub\n        /* \"#utility.yul\":10659:10660   */\n      0x00\n        /* \"#utility.yul\":10648:10657   */\n      dup4\n        /* \"#utility.yul\":10644:10661   */\n      add\n        /* \"#utility.yul\":10637:10684   */\n      mstore\n        /* \"#utility.yul\":10701:10832   */\n      tag_333\n        /* \"#utility.yul\":10827:10831   */\n      dup2\n        /* \"#utility.yul\":10701:10832   */\n      tag_273\n      jump\t// in\n    tag_333:\n        /* \"#utility.yul\":10693:10832   */\n      swap1\n      pop\n        /* \"#utility.yul\":10420:10839   */\n      swap2\n      swap1\n      pop\n      jump\t// out\n        /* \"#utility.yul\":10845:11264   */\n    tag_173:\n        /* \"#utility.yul\":11011:11015   */\n      0x00\n        /* \"#utility.yul\":11049:11051   */\n      0x20\n        /* \"#utility.yul\":11038:11047   */\n      dup3\n        /* \"#utility.yul\":11034:11052   */\n      add\n        /* \"#utility.yul\":11026:11052   */\n      swap1\n      pop\n        /* \"#utility.yul\":11098:11107   */\n      dup2\n        /* \"#utility.yul\":11092:11096   */\n      dup2\n        /* \"#utility.yul\":11088:11108   */\n      sub\n        /* \"#utility.yul\":11084:11085   */\n      0x00\n        /* \"#utility.yul\":11073:11082   */\n      dup4\n        /* \"#utility.yul\":11069:11086   */\n      add\n        /* \"#utility.yul\":11062:11109   */\n      mstore\n        /* \"#utility.yul\":11126:11257   */\n      tag_335\n        /* \"#utility.yul\":11252:11256   */\n      dup2\n        /* \"#utility.yul\":11126:11257   */\n      tag_278\n      jump\t// in\n    tag_335:\n        /* \"#utility.yul\":11118:11257   */\n      swap1\n      pop\n        /* \"#utility.yul\":10845:11264   */\n      swap2\n      swap1\n      pop\n      jump\t// out\n        /* \"#utility.yul\":11270:11689   */\n    tag_187:\n        /* \"#utility.yul\":11436:11440   */\n      0x00\n        /* \"#utility.yul\":11474:11476   */\n      0x20\n        /* \"#utility.yul\":11463:11472   */\n      dup3\n        /* \"#utility.yul\":11459:11477   */\n      add\n        /* \"#utility.yul\":11451:11477   */\n      swap1\n      pop\n        /* \"#utility.yul\":11523:11532   */\n      dup2\n        /* \"#utility.yul\":11517:11521   */\n      dup2\n        /* \"#utility.yul\":11513:11533   */\n      sub\n        /* \"#utility.yul\":11509:11510   */\n      0x00\n        /* \"#utility.yul\":11498:11507   */\n      dup4\n        /* \"#utility.yul\":11494:11511   */\n      add\n        /* \"#utility.yul\":11487:11534   */\n      mstore\n        /* \"#utility.yul\":11551:11682   */\n      tag_337\n        /* \"#utility.yul\":11677:11681   */\n      dup2\n        /* \"#utility.yul\":11551:11682   */\n      tag_283\n      jump\t// in\n    tag_337:\n        /* \"#utility.yul\":11543:11682   */\n      swap1\n      pop\n        /* \"#utility.yul\":11270:11689   */\n      swap2\n      swap1\n      pop\n      jump\t// out\n        /* \"#utility.yul\":11695:12114   */\n    tag_178:\n        /* \"#utility.yul\":11861:11865   */\n      0x00\n        /* \"#utility.yul\":11899:11901   */\n      0x20\n        /* \"#utility.yul\":11888:11897   */\n      dup3\n        /* \"#utility.yul\":11884:11902   */\n      add\n        /* \"#utility.yul\":11876:11902   */\n      swap1\n      pop\n        /* \"#utility.yul\":11948:11957   */\n      dup2\n        /* \"#utility.yul\":11942:11946   */\n      dup2\n        /* \"#utility.yul\":11938:11958   */\n      sub\n        /* \"#utility.yul\":11934:11935   */\n      0x00\n        /* \"#utility.yul\":11923:11932   */\n      dup4\n        /* \"#utility.yul\":11919:11936   */\n      add\n        /* \"#utility.yul\":11912:11959   */\n      mstore\n        /* \"#utility.yul\":11976:12107   */\n      tag_339\n        /* \"#utility.yul\":12102:12106   */\n      dup2\n        /* \"#utility.yul\":11976:12107   */\n      tag_288\n      jump\t// in\n    tag_339:\n        /* \"#utility.yul\":11968:12107   */\n      swap1\n      pop\n        /* \"#utility.yul\":11695:12114   */\n      swap2\n      swap1\n      pop\n      jump\t// out\n        /* \"#utility.yul\":12120:12539   */\n    tag_123:\n        /* \"#utility.yul\":12286:12290   */\n      0x00\n        /* \"#utility.yul\":12324:12326   */\n      0x20\n        /* \"#utility.yul\":12313:12322   */\n      dup3\n        /* \"#utility.yul\":12309:12327   */\n      add\n        /* \"#utility.yul\":12301:12327   */\n      swap1\n      pop\n        /* \"#utility.yul\":12373:12382   */\n      dup2\n        /* \"#utility.yul\":12367:12371   */\n      dup2\n        /* \"#utility.yul\":12363:12383   */\n      sub\n        /* \"#utility.yul\":12359:12360   */\n      0x00\n        /* \"#utility.yul\":12348:12357   */\n      dup4\n        /* \"#utility.yul\":12344:12361   */\n      add\n        /* \"#utility.yul\":12337:12384   */\n      mstore\n        /* \"#utility.yul\":12401:12532   */\n      tag_341\n        /* \"#utility.yul\":12527:12531   */\n      dup2\n        /* \"#utility.yul\":12401:12532   */\n      tag_293\n      jump\t// in\n    tag_341:\n        /* \"#utility.yul\":12393:12532   */\n      swap1\n      pop\n        /* \"#utility.yul\":12120:12539   */\n      swap2\n      swap1\n      pop\n      jump\t// out\n        /* \"#utility.yul\":12545:12964   */\n    tag_142:\n        /* \"#utility.yul\":12711:12715   */\n      0x00\n        /* \"#utility.yul\":12749:12751   */\n      0x20\n        /* \"#utility.yul\":12738:12747   */\n      dup3\n        /* \"#utility.yul\":12734:12752   */\n      add\n        /* \"#utility.yul\":12726:12752   */\n      swap1\n      pop\n        /* \"#utility.yul\":12798:12807   */\n      dup2\n        /* \"#utility.yul\":12792:12796   */\n      dup2\n        /* \"#utility.yul\":12788:12808   */\n      sub\n        /* \"#utility.yul\":12784:12785   */\n      0x00\n        /* \"#utility.yul\":12773:12782   */\n      dup4\n        /* \"#utility.yul\":12769:12786   */\n      add\n        /* \"#utility.yul\":12762:12809   */\n      mstore\n        /* \"#utility.yul\":12826:12957   */\n      tag_343\n        /* \"#utility.yul\":12952:12956   */\n      dup2\n        /* \"#utility.yul\":12826:12957   */\n      tag_298\n      jump\t// in\n    tag_343:\n        /* \"#utility.yul\":12818:12957   */\n      swap1\n      pop\n        /* \"#utility.yul\":12545:12964   */\n      swap2\n      swap1\n      pop\n      jump\t// out\n        /* \"#utility.yul\":12970:13389   */\n    tag_167:\n        /* \"#utility.yul\":13136:13140   */\n      0x00\n        /* \"#utility.yul\":13174:13176   */\n      0x20\n        /* \"#utility.yul\":13163:13172   */\n      dup3\n        /* \"#utility.yul\":13159:13177   */\n      add\n        /* \"#utility.yul\":13151:13177   */\n      swap1\n      pop\n        /* \"#utility.yul\":13223:13232   */\n      dup2\n        /* \"#utility.yul\":13217:13221   */\n      dup2\n        /* \"#utility.yul\":13213:13233   */\n      sub\n        /* \"#utility.yul\":13209:13210   */\n      0x00\n        /* \"#utility.yul\":13198:13207   */\n      dup4\n        /* \"#utility.yul\":13194:13211   */\n      add\n        /* \"#utility.yul\":13187:13234   */\n      mstore\n        /* \"#utility.yul\":13251:13382   */\n      tag_345\n        /* \"#utility.yul\":13377:13381   */\n      dup2\n        /* \"#utility.yul\":13251:13382   */\n      tag_303\n      jump\t// in\n    tag_345:\n        /* \"#utility.yul\":13243:13382   */\n      swap1\n      pop\n        /* \"#utility.yul\":12970:13389   */\n      swap2\n      swap1\n      pop\n      jump\t// out\n        /* \"#utility.yul\":13395:13617   */\n    tag_34:\n        /* \"#utility.yul\":13488:13492   */\n      0x00\n        /* \"#utility.yul\":13526:13528   */\n      0x20\n        /* \"#utility.yul\":13515:13524   */\n      dup3\n        /* \"#utility.yul\":13511:13529   */\n      add\n        /* \"#utility.yul\":13503:13529   */\n      swap1\n      pop\n        /* \"#utility.yul\":13539:13610   */\n      tag_347\n        /* \"#utility.yul\":13607:13608   */\n      0x00\n        /* \"#utility.yul\":13596:13605   */\n      dup4\n        /* \"#utility.yul\":13592:13609   */\n      add\n        /* \"#utility.yul\":13583:13589   */\n      dup5\n        /* \"#utility.yul\":13539:13610   */\n      tag_308\n      jump\t// in\n    tag_347:\n        /* \"#utility.yul\":13395:13617   */\n      swap3\n      swap2\n      pop\n      pop\n      jump\t// out\n        /* \"#utility.yul\":13623:13837   */\n    tag_43:\n        /* \"#utility.yul\":13712:13716   */\n      0x00\n        /* \"#utility.yul\":13750:13752   */\n      0x20\n        /* \"#utility.yul\":13739:13748   */\n      dup3\n        /* \"#utility.yul\":13735:13753   */\n      add\n        /* \"#utility.yul\":13727:13753   */\n      swap1\n      pop\n        /* \"#utility.yul\":13763:13830   */\n      tag_349\n        /* \"#utility.yul\":13827:13828   */\n      0x00\n        /* \"#utility.yul\":13816:13825   */\n      dup4\n        /* \"#utility.yul\":13812:13829   */\n      add\n        /* \"#utility.yul\":13803:13809   */\n      dup5\n        /* \"#utility.yul\":13763:13830   */\n      tag_312\n      jump\t// in\n    tag_349:\n        /* \"#utility.yul\":13623:13837   */\n      swap3\n      swap2\n      pop\n      pop\n      jump\t// out\n        /* \"#utility.yul\":13924:14023   */\n    tag_241:\n        /* \"#utility.yul\":13976:13982   */\n      0x00\n        /* \"#utility.yul\":14010:14015   */\n      dup2\n        /* \"#utility.yul\":14004:14016   */\n      mload\n        /* \"#utility.yul\":13994:14016   */\n      swap1\n      pop\n        /* \"#utility.yul\":13924:14023   */\n      swap2\n      swap1\n      pop\n      jump\t// out\n        /* \"#utility.yul\":14029:14198   */\n    tag_243:\n        /* \"#utility.yul\":14113:14124   */\n      0x00\n        /* \"#utility.yul\":14147:14153   */\n      dup3\n        /* \"#utility.yul\":14142:14145   */\n      dup3\n        /* \"#utility.yul\":14135:14154   */\n      mstore\n        /* \"#utility.yul\":14187:14191   */\n      0x20\n        /* \"#utility.yul\":14182:14185   */\n      dup3\n        /* \"#utility.yul\":14178:14192   */\n      add\n        /* \"#utility.yul\":14163:14192   */\n      swap1\n      pop\n        /* \"#utility.yul\":14029:14198   */\n      swap3\n      swap2\n      pop\n      pop\n      jump\t// out\n        /* \"#utility.yul\":14204:14509   */\n    tag_115:\n        /* \"#utility.yul\":14244:14247   */\n      0x00\n        /* \"#utility.yul\":14263:14283   */\n      tag_355\n        /* \"#utility.yul\":14281:14282   */\n      dup3\n        /* \"#utility.yul\":14263:14283   */\n      tag_311\n      jump\t// in\n    tag_355:\n        /* \"#utility.yul\":14258:14283   */\n      swap2\n      pop\n        /* \"#utility.yul\":14297:14317   */\n      tag_356\n        /* \"#utility.yul\":14315:14316   */\n      dup4\n        /* \"#utility.yul\":14297:14317   */\n      tag_311\n      jump\t// in\n    tag_356:\n        /* \"#utility.yul\":14292:14317   */\n      swap3\n      pop\n        /* \"#utility.yul\":14451:14452   */\n      dup3\n        /* \"#utility.yul\":14383:14449   */\n      0xffffffffffffffffffffffffffffffffffffffffffffffffffffffffffffffff\n        /* \"#utility.yul\":14379:14453   */\n      sub\n        /* \"#utility.yul\":14376:14377   */\n      dup3\n        /* \"#utility.yul\":14373:14454   */\n      gt\n        /* \"#utility.yul\":14370:14477   */\n      iszero\n      tag_357\n      jumpi\n        /* \"#utility.yul\":14457:14475   */\n      tag_358\n      tag_359\n      jump\t// in\n    tag_358:\n        /* \"#utility.yul\":14370:14477   */\n    tag_357:\n        /* \"#utility.yul\":14501:14502   */\n      dup3\n        /* \"#utility.yul\":14498:14499   */\n      dup3\n        /* \"#utility.yul\":14494:14503   */\n      add\n        /* \"#utility.yul\":14487:14503   */\n      swap1\n      pop\n        /* \"#utility.yul\":14204:14509   */\n      swap3\n      swap2\n      pop\n      pop\n      jump\t// out\n        /* \"#utility.yul\":14515:15363   */\n    tag_360:\n        /* \"#utility.yul\":14576:14581   */\n      0x00\n        /* \"#utility.yul\":14583:14587   */\n      dup1\n        /* \"#utility.yul\":14607:14613   */\n      dup3\n        /* \"#utility.yul\":14598:14613   */\n      swap2\n      pop\n        /* \"#utility.yul\":14631:14636   */\n      dup4\n        /* \"#utility.yul\":14622:14636   */\n      swap1\n      pop\n        /* \"#utility.yul\":14645:15357   */\n    tag_362:\n        /* \"#utility.yul\":14666:14667   */\n      0x01\n        /* \"#utility.yul\":14656:14664   */\n      dup6\n        /* \"#utility.yul\":14653:14668   */\n      gt\n        /* \"#utility.yul\":14645:15357   */\n      iszero\n      tag_364\n      jumpi\n        /* \"#utility.yul\":14761:14765   */\n      dup1\n        /* \"#utility.yul\":14756:14759   */\n      dup7\n        /* \"#utility.yul\":14752:14766   */\n      div\n        /* \"#utility.yul\":14746:14750   */\n      dup2\n        /* \"#utility.yul\":14743:14767   */\n      gt\n        /* \"#utility.yul\":14740:14790   */\n      iszero\n      tag_365\n      jumpi\n        /* \"#utility.yul\":14770:14788   */\n      tag_366\n      tag_359\n      jump\t// in\n    tag_366:\n        /* \"#utility.yul\":14740:14790   */\n    tag_365:\n        /* \"#utility.yul\":14820:14821   */\n      0x01\n        /* \"#utility.yul\":14810:14818   */\n      dup6\n        /* \"#utility.yul\":14806:14822   */\n      and\n        /* \"#utility.yul\":14803:15254   */\n      iszero\n      tag_367\n      jumpi\n        /* \"#utility.yul\":15235:15239   */\n      dup1\n        /* \"#utility.yul\":15228:15233   */\n      dup3\n        /* \"#utility.yul\":15224:15240   */\n      mul\n        /* \"#utility.yul\":15215:15240   */\n      swap2\n      pop\n        /* \"#utility.yul\":14803:15254   */\n    tag_367:\n        /* \"#utility.yul\":15285:15289   */\n      dup1\n        /* \"#utility.yul\":15279:15283   */\n      dup2\n        /* \"#utility.yul\":15275:15290   */\n      mul\n        /* \"#utility.yul\":15267:15290   */\n      swap1\n      pop\n        /* \"#utility.yul\":15315:15347   */\n      tag_368\n        /* \"#utility.yul\":15338:15346   */\n      dup6\n        /* \"#utility.yul\":15315:15347   */\n      tag_369\n      jump\t// in\n    tag_368:\n        /* \"#utility.yul\":15303:15347   */\n      swap5\n      pop\n        /* \"#utility.yul\":14645:15357   */\n      jump(tag_362)\n    tag_364:\n        /* \"#utility.yul\":14515:15363   */\n      swap5\n      pop\n      swap5\n      swap3\n      pop\n      pop\n      pop\n      jump\t// out\n        /* \"#utility.yul\":15369:15650   */\n    tag_91:\n        /* \"#utility.yul\":15427:15432   */\n      0x00\n        /* \"#utility.yul\":15451:15474   */\n      tag_371\n        /* \"#utility.yul\":15469:15473   */\n      dup3\n        /* \"#utility.yul\":15451:15474   */\n      tag_311\n      jump\t// in\n    tag_371:\n        /* \"#utility.yul\":15443:15474   */\n      swap2\n      pop\n        /* \"#utility.yul\":15495:15520   */\n      tag_372\n        /* \"#utility.yul\":15511:15519   */\n      dup4\n        /* \"#utility.yul\":15495:15520   */\n      tag_315\n      jump\t// in\n    tag_372:\n        /* \"#utility.yul\":15483:15520   */\n      swap3\n      pop\n        /* \"#utility.yul\":15539:15643   */\n      tag_373\n        /* \"#utility.yul\":15576:15642   */\n      0xffffffffffffffffffffffffffffffffffffffffffffffffffffffffffffffff\n        /* \"#utility.yul\":15566:15574   */\n      dup5\n        /* \"#utility.yul\":15560:15564   */\n      dup5\n        /* \"#utility.yul\":15539:15643   */\n      tag_374\n      jump\t// in\n    tag_373:\n        /* \"#utility.yul\":15530:15643   */\n      swap1\n      pop\n        /* \"#utility.yul\":15369:15650   */\n      swap3\n      swap2\n      pop\n      pop\n      jump\t// out\n        /* \"#utility.yul\":15656:16729   */\n    tag_374:\n        /* \"#utility.yul\":15710:15715   */\n      0x00\n        /* \"#utility.yul\":15901:15909   */\n      dup3\n        /* \"#utility.yul\":15891:15931   */\n      tag_376\n      jumpi\n        /* \"#utility.yul\":15922:15923   */\n      0x01\n        /* \"#utility.yul\":15913:15923   */\n      swap1\n      pop\n        /* \"#utility.yul\":15924:15929   */\n      jump(tag_375)\n        /* \"#utility.yul\":15891:15931   */\n    tag_376:\n        /* \"#utility.yul\":15950:15954   */\n      dup2\n        /* \"#utility.yul\":15940:15976   */\n      tag_377\n      jumpi\n        /* \"#utility.yul\":15967:15968   */\n      0x00\n        /* \"#utility.yul\":15958:15968   */\n      swap1\n      pop\n        /* \"#utility.yul\":15969:15974   */\n      jump(tag_375)\n        /* \"#utility.yul\":15940:15976   */\n    tag_377:\n        /* \"#utility.yul\":16036:16040   */\n      dup2\n        /* \"#utility.yul\":16084:16085   */\n      0x01\n        /* \"#utility.yul\":16079:16106   */\n      dup2\n      eq\n      tag_379\n      jumpi\n        /* \"#utility.yul\":16120:16121   */\n      0x02\n        /* \"#utility.yul\":16115:16306   */\n      dup2\n      eq\n      tag_380\n      jumpi\n        /* \"#utility.yul\":16029:16306   */\n      jump(tag_378)\n        /* \"#utility.yul\":16079:16106   */\n    tag_379:\n        /* \"#utility.yul\":16097:16098   */\n      0x01\n        /* \"#utility.yul\":16088:16098   */\n      swap2\n      pop\n        /* \"#utility.yul\":16099:16104   */\n      pop\n      jump(tag_375)\n        /* \"#utility.yul\":16115:16306   */\n    tag_380:\n        /* \"#utility.yul\":16160:16163   */\n      0xff\n        /* \"#utility.yul\":16150:16158   */\n      dup5\n        /* \"#utility.yul\":16147:16164   */\n      gt\n        /* \"#utility.yul\":16144:16187   */\n      iszero\n      tag_381\n      jumpi\n        /* \"#utility.yul\":16167:16185   */\n      tag_382\n      tag_359\n      jump\t// in\n    tag_382:\n        /* \"#utility.yul\":16144:16187   */\n    tag_381:\n        /* \"#utility.yul\":16216:16224   */\n      dup4\n        /* \"#utility.yul\":16213:16214   */\n      0x02\n        /* \"#utility.yul\":16209:16225   */\n      exp\n        /* \"#utility.yul\":16200:16225   */\n      swap2\n      pop\n        /* \"#utility.yul\":16251:16254   */\n      dup5\n        /* \"#utility.yul\":16244:16249   */\n      dup3\n        /* \"#utility.yul\":16241:16255   */\n      gt\n        /* \"#utility.yul\":16238:16278   */\n      iszero\n      tag_383\n      jumpi\n        /* \"#utility.yul\":16258:16276   */\n      tag_384\n      tag_359\n      jump\t// in\n    tag_384:\n        /* \"#utility.yul\":16238:16278   */\n    tag_383:\n        /* \"#utility.yul\":16291:16296   */\n      pop\n      jump(tag_375)\n        /* \"#utility.yul\":16029:16306   */\n    tag_378:\n      pop\n        /* \"#utility.yul\":16415:16417   */\n      0x20\n        /* \"#utility.yul\":16405:16413   */\n      dup4\n        /* \"#utility.yul\":16402:16418   */\n      lt\n        /* \"#utility.yul\":16396:16399   */\n      0x0133\n        /* \"#utility.yul\":16390:16394   */\n      dup4\n        /* \"#utility.yul\":16387:16400   */\n      lt\n        /* \"#utility.yul\":16383:16419   */\n      and\n        /* \"#utility.yul\":16365:16367   */\n      0x4e\n        /* \"#utility.yul\":16355:16363   */\n      dup5\n        /* \"#utility.yul\":16352:16368   */\n      lt\n        /* \"#utility.yul\":16347:16349   */\n      0x0b\n        /* \"#utility.yul\":16341:16345   */\n      dup5\n        /* \"#utility.yul\":16338:16350   */\n      lt\n        /* \"#utility.yul\":16334:16369   */\n      and\n        /* \"#utility.yul\":16318:16429   */\n      or\n        /* \"#utility.yul\":16315:16561   */\n      iszero\n      tag_385\n      jumpi\n        /* \"#utility.yul\":16471:16479   */\n      dup3\n        /* \"#utility.yul\":16465:16469   */\n      dup3\n        /* \"#utility.yul\":16461:16480   */\n      exp\n        /* \"#utility.yul\":16452:16480   */\n      swap1\n      pop\n        /* \"#utility.yul\":16506:16509   */\n      dup4\n        /* \"#utility.yul\":16499:16504   */\n      dup2\n        /* \"#utility.yul\":16496:16510   */\n      gt\n        /* \"#utility.yul\":16493:16533   */\n      iszero\n      tag_386\n      jumpi\n        /* \"#utility.yul\":16513:16531   */\n      tag_387\n      tag_359\n      jump\t// in\n    tag_387:\n        /* \"#utility.yul\":16493:16533   */\n    tag_386:\n        /* \"#utility.yul\":16546:16551   */\n      jump(tag_375)\n        /* \"#utility.yul\":16315:16561   */\n    tag_385:\n        /* \"#utility.yul\":16586:16628   */\n      tag_388\n        /* \"#utility.yul\":16624:16627   */\n      dup5\n        /* \"#utility.yul\":16614:16622   */\n      dup5\n        /* \"#utility.yul\":16608:16612   */\n      dup5\n        /* \"#utility.yul\":16605:16606   */\n      0x01\n        /* \"#utility.yul\":16586:16628   */\n      tag_360\n      jump\t// in\n    tag_388:\n        /* \"#utility.yul\":16571:16628   */\n      swap3\n      pop\n      swap1\n      pop\n        /* \"#utility.yul\":16660:16664   */\n      dup2\n        /* \"#utility.yul\":16655:16658   */\n      dup5\n        /* \"#utility.yul\":16651:16665   */\n      div\n        /* \"#utility.yul\":16644:16649   */\n      dup2\n        /* \"#utility.yul\":16641:16666   */\n      gt\n        /* \"#utility.yul\":16638:16689   */\n      iszero\n      tag_389\n      jumpi\n        /* \"#utility.yul\":16669:16687   */\n      tag_390\n      tag_359\n      jump\t// in\n    tag_390:\n        /* \"#utility.yul\":16638:16689   */\n    tag_389:\n        /* \"#utility.yul\":16718:16722   */\n      dup2\n        /* \"#utility.yul\":16711:16716   */\n      dup2\n        /* \"#utility.yul\":16707:16723   */\n      mul\n        /* \"#utility.yul\":16698:16723   */\n      swap1\n      pop\n        /* \"#utility.yul\":15656:16729   */\n    tag_375:\n      swap4\n      swap3\n      pop\n      pop\n      pop\n      jump\t// out\n        /* \"#utility.yul\":16735:17083   */\n    tag_93:\n        /* \"#utility.yul\":16775:16782   */\n      0x00\n        /* \"#utility.yul\":16798:16818   */\n      tag_392\n        /* \"#utility.yul\":16816:16817   */\n      dup3\n        /* \"#utility.yul\":16798:16818   */\n      tag_311\n      jump\t// in\n    tag_392:\n        /* \"#utility.yul\":16793:16818   */\n      swap2\n      pop\n        /* \"#utility.yul\":16832:16852   */\n      tag_393\n        /* \"#utility.yul\":16850:16851   */\n      dup4\n        /* \"#utility.yul\":16832:16852   */\n      tag_311\n      jump\t// in\n    tag_393:\n        /* \"#utility.yul\":16827:16852   */\n      swap3\n      pop\n        /* \"#utility.yul\":17020:17021   */\n      dup2\n        /* \"#utility.yul\":16952:17018   */\n      0xffffffffffffffffffffffffffffffffffffffffffffffffffffffffffffffff\n        /* \"#utility.yul\":16948:17022   */\n      div\n        /* \"#utility.yul\":16945:16946   */\n      dup4\n        /* \"#utility.yul\":16942:17023   */\n      gt\n        /* \"#utility.yul\":16937:16938   */\n      dup3\n        /* \"#utility.yul\":16930:16939   */\n      iszero\n        /* \"#utility.yul\":16923:16940   */\n      iszero\n        /* \"#utility.yul\":16919:17024   */\n      and\n        /* \"#utility.yul\":16916:17047   */\n      iszero\n      tag_394\n      jumpi\n        /* \"#utility.yul\":17027:17045   */\n      tag_395\n      tag_359\n      jump\t// in\n    tag_395:\n        /* \"#utility.yul\":16916:17047   */\n    tag_394:\n        /* \"#utility.yul\":17075:17076   */\n      dup3\n        /* \"#utility.yul\":17072:17073   */\n      dup3\n        /* \"#utility.yul\":17068:17077   */\n      mul\n        /* \"#utility.yul\":17057:17077   */\n      swap1\n      pop\n        /* \"#utility.yul\":16735:17083   */\n      swap3\n      swap2\n      pop\n      pop\n      jump\t// out\n        /* \"#utility.yul\":17089:17280   */\n    tag_148:\n        /* \"#utility.yul\":17129:17133   */\n      0x00\n        /* \"#utility.yul\":17149:17169   */\n      tag_397\n        /* \"#utility.yul\":17167:17168   */\n      dup3\n        /* \"#utility.yul\":17149:17169   */\n      tag_311\n      jump\t// in\n    tag_397:\n        /* \"#utility.yul\":17144:17169   */\n      swap2\n      pop\n        /* \"#utility.yul\":17183:17203   */\n      tag_398\n        /* \"#utility.yul\":17201:17202   */\n      dup4\n        /* \"#utility.yul\":17183:17203   */\n      tag_311\n      jump\t// in\n    tag_398:\n        /* \"#utility.yul\":17178:17203   */\n      swap3\n      pop\n        /* \"#utility.yul\":17222:17223   */\n      dup3\n        /* \"#utility.yul\":17219:17220   */\n      dup3\n        /* \"#utility.yul\":17216:17224   */\n      lt\n        /* \"#utility.yul\":17213:17247   */\n      iszero\n      tag_399\n      jumpi\n        /* \"#utility.yul\":17227:17245   */\n      tag_400\n      tag_359\n      jump\t// in\n    tag_400:\n        /* \"#utility.yul\":17213:17247   */\n    tag_399:\n        /* \"#utility.yul\":17272:17273   */\n      dup3\n        /* \"#utility.yul\":17269:17270   */\n      dup3\n        /* \"#utility.yul\":17265:17274   */\n      sub\n        /* \"#utility.yul\":17257:17274   */\n      swap1\n      pop\n        /* \"#utility.yul\":17089:17280   */\n      swap3\n      swap2\n      pop\n      pop\n      jump\t// out\n        /* \"#utility.yul\":17286:17382   */\n    tag_233:\n        /* \"#utility.yul\":17323:17330   */\n      0x00\n        /* \"#utility.yul\":17352:17376   */\n      tag_402\n        /* \"#utility.yul\":17370:17375   */\n      dup3\n        /* \"#utility.yul\":17352:17376   */\n      tag_403\n      jump\t// in\n    tag_402:\n        /* \"#utility.yul\":17341:17376   */\n      swap1\n      pop\n        /* \"#utility.yul\":17286:17382   */\n      swap2\n      swap1\n      pop\n      jump\t// out\n        /* \"#utility.yul\":17388:17478   */\n    tag_237:\n        /* \"#utility.yul\":17422:17429   */\n      0x00\n        /* \"#utility.yul\":17465:17470   */\n      dup2\n        /* \"#utility.yul\":17458:17471   */\n      iszero\n        /* \"#utility.yul\":17451:17472   */\n      iszero\n        /* \"#utility.yul\":17440:17472   */\n      swap1\n      pop\n        /* \"#utility.yul\":17388:17478   */\n      swap2\n      swap1\n      pop\n      jump\t// out\n        /* \"#utility.yul\":17484:17610   */\n    tag_403:\n        /* \"#utility.yul\":17521:17528   */\n      0x00\n        /* \"#utility.yul\":17561:17603   */\n      0xffffffffffffffffffffffffffffffffffffffff\n        /* \"#utility.yul\":17554:17559   */\n      dup3\n        /* \"#utility.yul\":17550:17604   */\n      and\n        /* \"#utility.yul\":17539:17604   */\n      swap1\n      pop\n        /* \"#utility.yul\":17484:17610   */\n      swap2\n      swap1\n      pop\n      jump\t// out\n        /* \"#utility.yul\":17616:17693   */\n    tag_311:\n        /* \"#utility.yul\":17653:17660   */\n      0x00\n        /* \"#utility.yul\":17682:17687   */\n      dup2\n        /* \"#utility.yul\":17671:17687   */\n      swap1\n      pop\n        /* \"#utility.yul\":17616:17693   */\n      swap2\n      swap1\n      pop\n      jump\t// out\n        /* \"#utility.yul\":17699:17785   */\n    tag_315:\n        /* \"#utility.yul\":17734:17741   */\n      0x00\n        /* \"#utility.yul\":17774:17778   */\n      0xff\n        /* \"#utility.yul\":17767:17772   */\n      dup3\n        /* \"#utility.yul\":17763:17779   */\n      and\n        /* \"#utility.yul\":17752:17779   */\n      swap1\n      pop\n        /* \"#utility.yul\":17699:17785   */\n      swap2\n      swap1\n      pop\n      jump\t// out\n        /* \"#utility.yul\":17791:18098   */\n    tag_245:\n        /* \"#utility.yul\":17859:17860   */\n      0x00\n        /* \"#utility.yul\":17869:17982   */\n    tag_409:\n        /* \"#utility.yul\":17883:17889   */\n      dup4\n        /* \"#utility.yul\":17880:17881   */\n      dup2\n        /* \"#utility.yul\":17877:17890   */\n      lt\n        /* \"#utility.yul\":17869:17982   */\n      iszero\n      tag_411\n      jumpi\n        /* \"#utility.yul\":17968:17969   */\n      dup1\n        /* \"#utility.yul\":17963:17966   */\n      dup3\n        /* \"#utility.yul\":17959:17970   */\n      add\n        /* \"#utility.yul\":17953:17971   */\n      mload\n        /* \"#utility.yul\":17949:17950   */\n      dup2\n        /* \"#utility.yul\":17944:17947   */\n      dup5\n        /* \"#utility.yul\":17940:17951   */\n      add\n        /* \"#utility.yul\":17933:17972   */\n      mstore\n        /* \"#utility.yul\":17905:17907   */\n      0x20\n        /* \"#utility.yul\":17902:17903   */\n      dup2\n        /* \"#utility.yul\":17898:17908   */\n      add\n        /* \"#utility.yul\":17893:17908   */\n      swap1\n      pop\n        /* \"#utility.yul\":17869:17982   */\n      jump(tag_409)\n    tag_411:\n        /* \"#utility.yul\":18000:18006   */\n      dup4\n        /* \"#utility.yul\":17997:17998   */\n      dup2\n        /* \"#utility.yul\":17994:18007   */\n      gt\n        /* \"#utility.yul\":17991:18092   */\n      iszero\n      tag_412\n      jumpi\n        /* \"#utility.yul\":18080:18081   */\n      0x00\n        /* \"#utility.yul\":18071:18077   */\n      dup5\n        /* \"#utility.yul\":18066:18069   */\n      dup5\n        /* \"#utility.yul\":18062:18078   */\n      add\n        /* \"#utility.yul\":18055:18082   */\n      mstore\n        /* \"#utility.yul\":17991:18092   */\n    tag_412:\n        /* \"#utility.yul\":17840:18098   */\n      pop\n        /* \"#utility.yul\":17791:18098   */\n      pop\n      pop\n      pop\n      jump\t// out\n        /* \"#utility.yul\":18104:18424   */\n    tag_83:\n        /* \"#utility.yul\":18148:18154   */\n      0x00\n        /* \"#utility.yul\":18185:18186   */\n      0x02\n        /* \"#utility.yul\":18179:18183   */\n      dup3\n        /* \"#utility.yul\":18175:18187   */\n      div\n        /* \"#utility.yul\":18165:18187   */\n      swap1\n      pop\n        /* \"#utility.yul\":18232:18233   */\n      0x01\n        /* \"#utility.yul\":18226:18230   */\n      dup3\n        /* \"#utility.yul\":18222:18234   */\n      and\n        /* \"#utility.yul\":18253:18271   */\n      dup1\n        /* \"#utility.yul\":18243:18324   */\n      tag_414\n      jumpi\n        /* \"#utility.yul\":18309:18313   */\n      0x7f\n        /* \"#utility.yul\":18301:18307   */\n      dup3\n        /* \"#utility.yul\":18297:18314   */\n      and\n        /* \"#utility.yul\":18287:18314   */\n      swap2\n      pop\n        /* \"#utility.yul\":18243:18324   */\n    tag_414:\n        /* \"#utility.yul\":18371:18373   */\n      0x20\n        /* \"#utility.yul\":18363:18369   */\n      dup3\n        /* \"#utility.yul\":18360:18374   */\n      lt\n        /* \"#utility.yul\":18340:18358   */\n      dup2\n        /* \"#utility.yul\":18337:18375   */\n      eq\n        /* \"#utility.yul\":18334:18418   */\n      iszero\n      tag_415\n      jumpi\n        /* \"#utility.yul\":18390:18408   */\n      tag_416\n      tag_417\n      jump\t// in\n    tag_416:\n        /* \"#utility.yul\":18334:18418   */\n    tag_415:\n        /* \"#utility.yul\":18155:18424   */\n      pop\n        /* \"#utility.yul\":18104:18424   */\n      swap2\n      swap1\n      pop\n      jump\t// out\n        /* \"#utility.yul\":18430:18610   */\n    tag_359:\n        /* \"#utility.yul\":18478:18555   */\n      0x4e487b7100000000000000000000000000000000000000000000000000000000\n        /* \"#utility.yul\":18475:18476   */\n      0x00\n        /* \"#utility.yul\":18468:18556   */\n      mstore\n        /* \"#utility.yul\":18575:18579   */\n      0x11\n        /* \"#utility.yul\":18572:18573   */\n      0x04\n        /* \"#utility.yul\":18565:18580   */\n      mstore\n        /* \"#utility.yul\":18599:18603   */\n      0x24\n        /* \"#utility.yul\":18596:18597   */\n      0x00\n        /* \"#utility.yul\":18589:18604   */\n      revert\n        /* \"#utility.yul\":18616:18796   */\n    tag_417:\n        /* \"#utility.yul\":18664:18741   */\n      0x4e487b7100000000000000000000000000000000000000000000000000000000\n        /* \"#utility.yul\":18661:18662   */\n      0x00\n        /* \"#utility.yul\":18654:18742   */\n      mstore\n        /* \"#utility.yul\":18761:18765   */\n      0x22\n        /* \"#utility.yul\":18758:18759   */\n      0x04\n        /* \"#utility.yul\":18751:18766   */\n      mstore\n        /* \"#utility.yul\":18785:18789   */\n      0x24\n        /* \"#utility.yul\":18782:18783   */\n      0x00\n        /* \"#utility.yul\":18775:18790   */\n      revert\n        /* \"#utility.yul\":18925:19042   */\n    tag_212:\n        /* \"#utility.yul\":19034:19035   */\n      0x00\n        /* \"#utility.yul\":19031:19032   */\n      dup1\n        /* \"#utility.yul\":19024:19036   */\n      revert\n        /* \"#utility.yul\":19048:19150   */\n    tag_247:\n        /* \"#utility.yul\":19089:19095   */\n      0x00\n        /* \"#utility.yul\":19140:19142   */\n      0x1f\n        /* \"#utility.yul\":19136:19143   */\n      not\n        /* \"#utility.yul\":19131:19133   */\n      0x1f\n        /* \"#utility.yul\":19124:19129   */\n      dup4\n        /* \"#utility.yul\":19120:19134   */\n      add\n        /* \"#utility.yul\":19116:19144   */\n      and\n        /* \"#utility.yul\":19106:19144   */\n      swap1\n      pop\n        /* \"#utility.yul\":19048:19150   */\n      swap2\n      swap1\n      pop\n      jump\t// out\n        /* \"#utility.yul\":19156:19258   */\n    tag_369:\n        /* \"#utility.yul\":19198:19206   */\n      0x00\n        /* \"#utility.yul\":19245:19250   */\n      dup2\n        /* \"#utility.yul\":19242:19243   */\n      0x01\n        /* \"#utility.yul\":19238:19251   */\n      shr\n        /* \"#utility.yul\":19217:19251   */\n      swap1\n      pop\n        /* \"#utility.yul\":19156:19258   */\n      swap2\n      swap1\n      pop\n      jump\t// out\n        /* \"#utility.yul\":19264:19436   */\n    tag_252:\n        /* \"#utility.yul\":19404:19428   */\n      0x416d6f756e7420657863656564732062616c616e636500000000000000000000\n        /* \"#utility.yul\":19400:19401   */\n      0x00\n        /* \"#utility.yul\":19392:19398   */\n      dup3\n        /* \"#utility.yul\":19388:19402   */\n      add\n        /* \"#utility.yul\":19381:19429   */\n      mstore\n        /* \"#utility.yul\":19264:19436   */\n      pop\n      jump\t// out\n        /* \"#utility.yul\":19442:19664   */\n    tag_257:\n        /* \"#utility.yul\":19582:19616   */\n      0x63616e6e6f74207370656e6420616c6c6f776e61636520746f20616464726573\n        /* \"#utility.yul\":19578:19579   */\n      0x00\n        /* \"#utility.yul\":19570:19576   */\n      dup3\n        /* \"#utility.yul\":19566:19580   */\n      add\n        /* \"#utility.yul\":19559:19617   */\n      mstore\n        /* \"#utility.yul\":19651:19656   */\n      0x7320300000000000000000000000000000000000000000000000000000000000\n        /* \"#utility.yul\":19646:19648   */\n      0x20\n        /* \"#utility.yul\":19638:19644   */\n      dup3\n        /* \"#utility.yul\":19634:19649   */\n      add\n        /* \"#utility.yul\":19627:19657   */\n      mstore\n        /* \"#utility.yul\":19442:19664   */\n      pop\n      jump\t// out\n        /* \"#utility.yul\":19670:19895   */\n    tag_262:\n        /* \"#utility.yul\":19810:19844   */\n      0x4f776e61626c653a206e6577206f776e657220697320746865207a65726f2061\n        /* \"#utility.yul\":19806:19807   */\n      0x00\n        /* \"#utility.yul\":19798:19804   */\n      dup3\n        /* \"#utility.yul\":19794:19808   */\n      add\n        /* \"#utility.yul\":19787:19845   */\n      mstore\n        /* \"#utility.yul\":19879:19887   */\n      0x6464726573730000000000000000000000000000000000000000000000000000\n        /* \"#utility.yul\":19874:19876   */\n      0x20\n        /* \"#utility.yul\":19866:19872   */\n      dup3\n        /* \"#utility.yul\":19862:19877   */\n      add\n        /* \"#utility.yul\":19855:19888   */\n      mstore\n        /* \"#utility.yul\":19670:19895   */\n      pop\n      jump\t// out\n        /* \"#utility.yul\":19901:20081   */\n    tag_267:\n        /* \"#utility.yul\":20041:20073   */\n      0x7472616e736665722066726f6d20746865207a65726f20616464726573730000\n        /* \"#utility.yul\":20037:20038   */\n      0x00\n        /* \"#utility.yul\":20029:20035   */\n      dup3\n        /* \"#utility.yul\":20025:20039   */\n      add\n        /* \"#utility.yul\":20018:20074   */\n      mstore\n        /* \"#utility.yul\":19901:20081   */\n      pop\n      jump\t// out\n        /* \"#utility.yul\":20087:20265   */\n    tag_272:\n        /* \"#utility.yul\":20227:20257   */\n      0x7472616e7366657220746f20746865207a65726f206164647265737300000000\n        /* \"#utility.yul\":20223:20224   */\n      0x00\n        /* \"#utility.yul\":20215:20221   */\n      dup3\n        /* \"#utility.yul\":20211:20225   */\n      add\n        /* \"#utility.yul\":20204:20258   */\n      mstore\n        /* \"#utility.yul\":20087:20265   */\n      pop\n      jump\t// out\n        /* \"#utility.yul\":20271:20448   */\n    tag_277:\n        /* \"#utility.yul\":20411:20440   */\n      0x63616e6e6f7420617070726f766520746f206164647265737320300000000000\n        /* \"#utility.yul\":20407:20408   */\n      0x00\n        /* \"#utility.yul\":20399:20405   */\n      dup3\n        /* \"#utility.yul\":20395:20409   */\n      add\n        /* \"#utility.yul\":20388:20441   */\n      mstore\n        /* \"#utility.yul\":20271:20448   */\n      pop\n      jump\t// out\n        /* \"#utility.yul\":20454:20620   */\n    tag_282:\n        /* \"#utility.yul\":20594:20612   */\n      0x6e6f7420656e6f75676820746f6b656e00000000000000000000000000000000\n        /* \"#utility.yul\":20590:20591   */\n      0x00\n        /* \"#utility.yul\":20582:20588   */\n      dup3\n        /* \"#utility.yul\":20578:20592   */\n      add\n        /* \"#utility.yul\":20571:20613   */\n      mstore\n        /* \"#utility.yul\":20454:20620   */\n      pop\n      jump\t// out\n        /* \"#utility.yul\":20626:20800   */\n    tag_287:\n        /* \"#utility.yul\":20766:20792   */\n      0x6e6f7420656e6f75676820746f6b656e20616c6c6f7765640000000000000000\n        /* \"#utility.yul\":20762:20763   */\n      0x00\n        /* \"#utility.yul\":20754:20760   */\n      dup3\n        /* \"#utility.yul\":20750:20764   */\n      add\n        /* \"#utility.yul\":20743:20793   */\n      mstore\n        /* \"#utility.yul\":20626:20800   */\n      pop\n      jump\t// out\n        /* \"#utility.yul\":20806:21030   */\n    tag_292:\n        /* \"#utility.yul\":20946:20980   */\n      0x63616e6e6f74207370656e6420616c6c6f776e6163652066726f6d2061646472\n        /* \"#utility.yul\":20942:20943   */\n      0x00\n        /* \"#utility.yul\":20934:20940   */\n      dup3\n        /* \"#utility.yul\":20930:20944   */\n      add\n        /* \"#utility.yul\":20923:20981   */\n      mstore\n        /* \"#utility.yul\":21015:21022   */\n      0x6573732030000000000000000000000000000000000000000000000000000000\n        /* \"#utility.yul\":21010:21012   */\n      0x20\n        /* \"#utility.yul\":21002:21008   */\n      dup3\n        /* \"#utility.yul\":20998:21013   */\n      add\n        /* \"#utility.yul\":20991:21023   */\n      mstore\n        /* \"#utility.yul\":20806:21030   */\n      pop\n      jump\t// out\n        /* \"#utility.yul\":21036:21218   */\n    tag_297:\n        /* \"#utility.yul\":21176:21210   */\n      0x4f776e61626c653a2063616c6c6572206973206e6f7420746865206f776e6572\n        /* \"#utility.yul\":21172:21173   */\n      0x00\n        /* \"#utility.yul\":21164:21170   */\n      dup3\n        /* \"#utility.yul\":21160:21174   */\n      add\n        /* \"#utility.yul\":21153:21211   */\n      mstore\n        /* \"#utility.yul\":21036:21218   */\n      pop\n      jump\t// out\n        /* \"#utility.yul\":21224:21445   */\n    tag_302:\n        /* \"#utility.yul\":21364:21398   */\n      0x416c6c6f77616e63652063616e6e6f74206265206c657373207468616e207a65\n        /* \"#utility.yul\":21360:21361   */\n      0x00\n        /* \"#utility.yul\":21352:21358   */\n      dup3\n        /* \"#utility.yul\":21348:21362   */\n      add\n        /* \"#utility.yul\":21341:21399   */\n      mstore\n        /* \"#utility.yul\":21433:21437   */\n      0x726f000000000000000000000000000000000000000000000000000000000000\n        /* \"#utility.yul\":21428:21430   */\n      0x20\n        /* \"#utility.yul\":21420:21426   */\n      dup3\n        /* \"#utility.yul\":21416:21431   */\n      add\n        /* \"#utility.yul\":21409:21438   */\n      mstore\n        /* \"#utility.yul\":21224:21445   */\n      pop\n      jump\t// out\n        /* \"#utility.yul\":21451:21630   */\n    tag_307:\n        /* \"#utility.yul\":21591:21622   */\n      0x63616e6e6f7420617070726f76652066726f6d20616464726573732030000000\n        /* \"#utility.yul\":21587:21588   */\n      0x00\n        /* \"#utility.yul\":21579:21585   */\n      dup3\n        /* \"#utility.yul\":21575:21589   */\n      add\n        /* \"#utility.yul\":21568:21623   */\n      mstore\n        /* \"#utility.yul\":21451:21630   */\n      pop\n      jump\t// out\n        /* \"#utility.yul\":21636:21758   */\n    tag_204:\n        /* \"#utility.yul\":21709:21733   */\n      tag_438\n        /* \"#utility.yul\":21727:21732   */\n      dup2\n        /* \"#utility.yul\":21709:21733   */\n      tag_233\n      jump\t// in\n    tag_438:\n        /* \"#utility.yul\":21702:21707   */\n      dup2\n        /* \"#utility.yul\":21699:21734   */\n      eq\n        /* \"#utility.yul\":21689:21752   */\n      tag_439\n      jumpi\n        /* \"#utility.yul\":21748:21749   */\n      0x00\n        /* \"#utility.yul\":21745:21746   */\n      dup1\n        /* \"#utility.yul\":21738:21750   */\n      revert\n        /* \"#utility.yul\":21689:21752   */\n    tag_439:\n        /* \"#utility.yul\":21636:21758   */\n      pop\n      jump\t// out\n        /* \"#utility.yul\":21764:21886   */\n    tag_208:\n        /* \"#utility.yul\":21837:21861   */\n      tag_441\n        /* \"#utility.yul\":21855:21860   */\n      dup2\n        /* \"#utility.yul\":21837:21861   */\n      tag_311\n      jump\t// in\n    tag_441:\n        /* \"#utility.yul\":21830:21835   */\n      dup2\n        /* \"#utility.yul\":21827:21862   */\n      eq\n        /* \"#utility.yul\":21817:21880   */\n      tag_442\n      jumpi\n        /* \"#utility.yul\":21876:21877   */\n      0x00\n        /* \"#utility.yul\":21873:21874   */\n      dup1\n        /* \"#utility.yul\":21866:21878   */\n      revert\n        /* \"#utility.yul\":21817:21880   */\n    tag_442:\n        /* \"#utility.yul\":21764:21886   */\n      pop\n      jump\t// out\n\n    auxdata: 0xa26469706673582212207e2ff22f4c0111d5b3cf064d52d5d871e53f960e9ad09d93bc4d8f2686dedf7b64736f6c63430008070033\n}\n",
				"bytecode": {
					"linkReferences": {},
					"object": "60806040526040518060400160405280600481526020017f5445535400000000000000000000000000000000000000000000000000000000815250600390805190602001906200005192919062000248565b506040518060400160405280600281526020017f5454000000000000000000000000000000000000000000000000000000000000815250600490805190602001906200009f92919062000248565b506012600560006101000a81548160ff021916908360ff16021790555069021e19e0c9bab2400000600655348015620000d757600080fd5b50620000f8620000ec6200015360201b60201c565b6200015b60201b60201c565b600654600160006200010f6200021f60201b60201c565b73ffffffffffffffffffffffffffffffffffffffff1673ffffffffffffffffffffffffffffffffffffffff168152602001908152602001600020819055506200035d565b600033905090565b60008060009054906101000a900473ffffffffffffffffffffffffffffffffffffffff169050816000806101000a81548173ffffffffffffffffffffffffffffffffffffffff021916908373ffffffffffffffffffffffffffffffffffffffff1602179055508173ffffffffffffffffffffffffffffffffffffffff168173ffffffffffffffffffffffffffffffffffffffff167f8be0079c531659141344cd1fd0a4f28419497f9722a3daafe3b4186f6b6457e060405160405180910390a35050565b60008060009054906101000a900473ffffffffffffffffffffffffffffffffffffffff16905090565b8280546200025690620002f8565b90600052602060002090601f0160209004810192826200027a5760008555620002c6565b82601f106200029557805160ff1916838001178555620002c6565b82800160010185558215620002c6579182015b82811115620002c5578251825591602001919060010190620002a8565b5b509050620002d59190620002d9565b5090565b5b80821115620002f4576000816000905550600101620002da565b5090565b600060028204905060018216806200031157607f821691505b602082108114156200032857620003276200032e565b5b50919050565b7f4e487b7100000000000000000000000000000000000000000000000000000000600052602260045260246000fd5b611cb8806200036d6000396000f3fe608060405234801561001057600080fd5b50600436106100f55760003560e01c8063715018a611610097578063a457c2d711610066578063a457c2d714610278578063a9059cbb146102a8578063dd62ed3e146102d8578063f2fde38b14610308576100f5565b8063715018a614610214578063893d20e81461021e5780638da5cb5b1461023c57806395d89b411461025a576100f5565b806323b872dd116100d357806323b872dd14610166578063313ce5671461019657806339509351146101b457806370a08231146101e4576100f5565b806306fdde03146100fa578063095ea7b31461011857806318160ddd14610148575b600080fd5b610102610324565b60405161010f919061144c565b60405180910390f35b610132600480360381019061012d91906111bd565b6103b6565b60405161013f9190611431565b60405180910390f35b6101506103f3565b60405161015d91906115ee565b60405180910390f35b610180600480360381019061017b919061116a565b6103fd565b60405161018d9190611431565b60405180910390f35b61019e6104ee565b6040516101ab9190611609565b60405180910390f35b6101ce60048036038101906101c991906111bd565b610505565b6040516101db9190611431565b60405180910390f35b6101fe60048036038101906101f991906110fd565b610556565b60405161020b91906115ee565b60405180910390f35b61021c61059f565b005b610226610627565b6040516102339190611416565b60405180910390f35b610244610636565b6040516102519190611416565b60405180910390f35b61026261065f565b60405161026f919061144c565b60405180910390f35b610292600480360381019061028d91906111bd565b6106f1565b60405161029f9190611431565b60405180910390f35b6102c260048036038101906102bd91906111bd565b6107b4565b6040516102cf9190611431565b60405180910390f35b6102f260048036038101906102ed919061112a565b61084d565b6040516102ff91906115ee565b60405180910390f35b610322600480360381019061031d91906110fd565b6108d4565b005b6060600380546103339061191d565b80601f016020809104026020016040519081016040528092919081815260200182805461035f9061191d565b80156103ac5780601f10610381576101008083540402835291602001916103ac565b820191906000526020600020905b81548152906001019060200180831161038f57829003601f168201915b5050505050905090565b60006103e93384600560009054906101000a900460ff16600a6103d991906116e9565b856103e49190611807565b6109cc565b6001905092915050565b6000600654905090565b6000600560009054906101000a900460ff16600a61041b91906116e9565b826104269190611807565b600160008673ffffffffffffffffffffffffffffffffffffffff1673ffffffffffffffffffffffffffffffffffffffff1681526020019081526020016000205410156104a7576040517f08c379a000000000000000000000000000000000000000000000000000000000815260040161049e9061146e565b60405180910390fd5b6104b2843384610c19565b6104e38484600560009054906101000a900460ff16600a6104d391906116e9565b856104de9190611807565b610e11565b600190509392505050565b6000600560009054906101000a900460ff16905090565b600061054c3384600560009054906101000a900460ff16600a61052891906116e9565b856105339190611807565b61053d338861084d565b6105479190611640565b6109cc565b6001905092915050565b6000600160008373ffffffffffffffffffffffffffffffffffffffff1673ffffffffffffffffffffffffffffffffffffffff168152602001908152602001600020549050919050565b6105a7611007565b73ffffffffffffffffffffffffffffffffffffffff166105c5610636565b73ffffffffffffffffffffffffffffffffffffffff161461061b576040517f08c379a00000000000000000000000000000000000000000000000000000000081526004016106129061158e565b60405180910390fd5b610625600061100f565b565b6000610631610636565b905090565b60008060009054906101000a900473ffffffffffffffffffffffffffffffffffffffff16905090565b60606004805461066e9061191d565b80601f016020809104026020016040519081016040528092919081815260200182805461069a9061191d565b80156106e75780601f106106bc576101008083540402835291602001916106e7565b820191906000526020600020905b8154815290600101906020018083116106ca57829003601f168201915b5050505050905090565b6000600560009054906101000a900460ff16600a61070f91906116e9565b8261071a9190611807565b610724338561084d565b1015610765576040517f08c379a000000000000000000000000000000000000000000000000000000000815260040161075c906115ae565b60405180910390fd5b6107aa3384600560009054906101000a900460ff16600a61078691906116e9565b856107919190611807565b61079b338861084d565b6107a59190611861565b6109cc565b6001905092915050565b600081600160003373ffffffffffffffffffffffffffffffffffffffff1673ffffffffffffffffffffffffffffffffffffffff168152602001908152602001600020541015610838576040517f08c379a000000000000000000000000000000000000000000000000000000000815260040161082f9061146e565b60405180910390fd5b610843338484610e11565b6001905092915050565b6000600260008473ffffffffffffffffffffffffffffffffffffffff1673ffffffffffffffffffffffffffffffffffffffff16815260200190815260200160002060008373ffffffffffffffffffffffffffffffffffffffff1673ffffffffffffffffffffffffffffffffffffffff16815260200190815260200160002054905092915050565b6108dc611007565b73ffffffffffffffffffffffffffffffffffffffff166108fa610636565b73ffffffffffffffffffffffffffffffffffffffff1614610950576040517f08c379a00000000000000000000000000000000000000000000000000000000081526004016109479061158e565b60405180910390fd5b600073ffffffffffffffffffffffffffffffffffffffff168173ffffffffffffffffffffffffffffffffffffffff1614156109c0576040517f08c379a00000000000000000000000000000000000000000000000000000000081526004016109b7906114ae565b60405180910390fd5b6109c98161100f565b50565b600073ffffffffffffffffffffffffffffffffffffffff168373ffffffffffffffffffffffffffffffffffffffff161415610a3c576040517f08c379a0000000000000000000000000000000000000000000000000000000008152600401610a33906115ce565b60405180910390fd5b600073ffffffffffffffffffffffffffffffffffffffff168273ffffffffffffffffffffffffffffffffffffffff161415610aac576040517f08c379a0000000000000000000000000000000000000000000000000000000008152600401610aa39061150e565b60405180910390fd5b80600160008573ffffffffffffffffffffffffffffffffffffffff1673ffffffffffffffffffffffffffffffffffffffff168152602001908152602001600020541015610b2e576040517f08c379a0000000000000000000000000000000000000000000000000000000008152600401610b259061152e565b60405180910390fd5b80600260008573ffffffffffffffffffffffffffffffffffffffff1673ffffffffffffffffffffffffffffffffffffffff16815260200190815260200160002060008473ffffffffffffffffffffffffffffffffffffffff1673ffffffffffffffffffffffffffffffffffffffff168152602001908152602001600020819055508173ffffffffffffffffffffffffffffffffffffffff168373ffffffffffffffffffffffffffffffffffffffff167f8c5be1e5ebec7d5bd14f71427d1e84f3dd0314c0f7b2291e5b200ac8c7c3b92583604051610c0c91906115ee565b60405180910390a3505050565b600073ffffffffffffffffffffffffffffffffffffffff168373ffffffffffffffffffffffffffffffffffffffff161415610c89576040517f08c379a0000000000000000000000000000000000000000000000000000000008152600401610c809061156e565b60405180910390fd5b600073ffffffffffffffffffffffffffffffffffffffff168273ffffffffffffffffffffffffffffffffffffffff161415610cf9576040517f08c379a0000000000000000000000000000000000000000000000000000000008152600401610cf09061148e565b60405180910390fd5b600560009054906101000a900460ff16600a610d1591906116e9565b81610d209190611807565b610d2a848461084d565b1015610d6b576040517f08c379a0000000000000000000000000000000000000000000000000000000008152600401610d629061154e565b60405180910390fd5b600560009054906101000a900460ff1660ff16600a0a8102600260008573ffffffffffffffffffffffffffffffffffffffff1673ffffffffffffffffffffffffffffffffffffffff16815260200190815260200160002060008473ffffffffffffffffffffffffffffffffffffffff1673ffffffffffffffffffffffffffffffffffffffff16815260200190815260200160002060008282540392505081905550505050565b600073ffffffffffffffffffffffffffffffffffffffff168373ffffffffffffffffffffffffffffffffffffffff161415610e81576040517f08c379a0000000000000000000000000000000000000000000000000000000008152600401610e78906114ce565b60405180910390fd5b600073ffffffffffffffffffffffffffffffffffffffff168273ffffffffffffffffffffffffffffffffffffffff161415610ef1576040517f08c379a0000000000000000000000000000000000000000000000000000000008152600401610ee8906114ee565b60405180910390fd5b80600160008573ffffffffffffffffffffffffffffffffffffffff1673ffffffffffffffffffffffffffffffffffffffff1681526020019081526020016000206000828254610f409190611861565b9250508190555080600160008473ffffffffffffffffffffffffffffffffffffffff1673ffffffffffffffffffffffffffffffffffffffff1681526020019081526020016000206000828254610f969190611640565b925050819055508173ffffffffffffffffffffffffffffffffffffffff168373ffffffffffffffffffffffffffffffffffffffff167fddf252ad1be2c89b69c2b068fc378daa952ba7f163c4a11628f55a4df523b3ef83604051610ffa91906115ee565b60405180910390a3505050565b600033905090565b60008060009054906101000a900473ffffffffffffffffffffffffffffffffffffffff169050816000806101000a81548173ffffffffffffffffffffffffffffffffffffffff021916908373ffffffffffffffffffffffffffffffffffffffff1602179055508173ffffffffffffffffffffffffffffffffffffffff168173ffffffffffffffffffffffffffffffffffffffff167f8be0079c531659141344cd1fd0a4f28419497f9722a3daafe3b4186f6b6457e060405160405180910390a35050565b6000813590506110e281611c54565b92915050565b6000813590506110f781611c6b565b92915050565b600060208284031215611113576111126119ad565b5b6000611121848285016110d3565b91505092915050565b60008060408385031215611141576111406119ad565b5b600061114f858286016110d3565b9250506020611160858286016110d3565b9150509250929050565b600080600060608486031215611183576111826119ad565b5b6000611191868287016110d3565b93505060206111a2868287016110d3565b92505060406111b3868287016110e8565b9150509250925092565b600080604083850312156111d4576111d36119ad565b5b60006111e2858286016110d3565b92505060206111f3858286016110e8565b9150509250929050565b61120681611895565b82525050565b611215816118a7565b82525050565b600061122682611624565b611230818561162f565b93506112408185602086016118ea565b611249816119b2565b840191505092915050565b600061126160168361162f565b915061126c826119d0565b602082019050919050565b600061128460238361162f565b915061128f826119f9565b604082019050919050565b60006112a760268361162f565b91506112b282611a48565b604082019050919050565b60006112ca601e8361162f565b91506112d582611a97565b602082019050919050565b60006112ed601c8361162f565b91506112f882611ac0565b602082019050919050565b6000611310601b8361162f565b915061131b82611ae9565b602082019050919050565b600061133360108361162f565b915061133e82611b12565b602082019050919050565b600061135660188361162f565b915061136182611b3b565b602082019050919050565b600061137960258361162f565b915061138482611b64565b604082019050919050565b600061139c60208361162f565b91506113a782611bb3565b602082019050919050565b60006113bf60228361162f565b91506113ca82611bdc565b604082019050919050565b60006113e2601d8361162f565b91506113ed82611c2b565b602082019050919050565b611401816118d3565b82525050565b611410816118dd565b82525050565b600060208201905061142b60008301846111fd565b92915050565b6000602082019050611446600083018461120c565b92915050565b60006020820190508181036000830152611466818461121b565b905092915050565b6000602082019050818103600083015261148781611254565b9050919050565b600060208201905081810360008301526114a781611277565b9050919050565b600060208201905081810360008301526114c78161129a565b9050919050565b600060208201905081810360008301526114e7816112bd565b9050919050565b60006020820190508181036000830152611507816112e0565b9050919050565b6000602082019050818103600083015261152781611303565b9050919050565b6000602082019050818103600083015261154781611326565b9050919050565b6000602082019050818103600083015261156781611349565b9050919050565b600060208201905081810360008301526115878161136c565b9050919050565b600060208201905081810360008301526115a78161138f565b9050919050565b600060208201905081810360008301526115c7816113b2565b9050919050565b600060208201905081810360008301526115e7816113d5565b9050919050565b600060208201905061160360008301846113f8565b92915050565b600060208201905061161e6000830184611407565b92915050565b600081519050919050565b600082825260208201905092915050565b600061164b826118d3565b9150611656836118d3565b9250827fffffffffffffffffffffffffffffffffffffffffffffffffffffffffffffffff0382111561168b5761168a61194f565b5b828201905092915050565b6000808291508390505b60018511156116e0578086048111156116bc576116bb61194f565b5b60018516156116cb5780820291505b80810290506116d9856119c3565b94506116a0565b94509492505050565b60006116f4826118d3565b91506116ff836118dd565b925061172c7fffffffffffffffffffffffffffffffffffffffffffffffffffffffffffffffff8484611734565b905092915050565b6000826117445760019050611800565b816117525760009050611800565b81600181146117685760028114611772576117a1565b6001915050611800565b60ff8411156117845761178361194f565b5b8360020a91508482111561179b5761179a61194f565b5b50611800565b5060208310610133831016604e8410600b84101617156117d65782820a9050838111156117d1576117d061194f565b5b611800565b6117e38484846001611696565b925090508184048111156117fa576117f961194f565b5b81810290505b9392505050565b6000611812826118d3565b915061181d836118d3565b9250817fffffffffffffffffffffffffffffffffffffffffffffffffffffffffffffffff04831182151516156118565761185561194f565b5b828202905092915050565b600061186c826118d3565b9150611877836118d3565b92508282101561188a5761188961194f565b5b828203905092915050565b60006118a0826118b3565b9050919050565b60008115159050919050565b600073ffffffffffffffffffffffffffffffffffffffff82169050919050565b6000819050919050565b600060ff82169050919050565b60005b838110156119085780820151818401526020810190506118ed565b83811115611917576000848401525b50505050565b6000600282049050600182168061193557607f821691505b602082108114156119495761194861197e565b5b50919050565b7f4e487b7100000000000000000000000000000000000000000000000000000000600052601160045260246000fd5b7f4e487b7100000000000000000000000000000000000000000000000000000000600052602260045260246000fd5b600080fd5b6000601f19601f8301169050919050565b60008160011c9050919050565b7f416d6f756e7420657863656564732062616c616e636500000000000000000000600082015250565b7f63616e6e6f74207370656e6420616c6c6f776e61636520746f2061646472657360008201527f7320300000000000000000000000000000000000000000000000000000000000602082015250565b7f4f776e61626c653a206e6577206f776e657220697320746865207a65726f206160008201527f6464726573730000000000000000000000000000000000000000000000000000602082015250565b7f7472616e736665722066726f6d20746865207a65726f20616464726573730000600082015250565b7f7472616e7366657220746f20746865207a65726f206164647265737300000000600082015250565b7f63616e6e6f7420617070726f766520746f206164647265737320300000000000600082015250565b7f6e6f7420656e6f75676820746f6b656e00000000000000000000000000000000600082015250565b7f6e6f7420656e6f75676820746f6b656e20616c6c6f7765640000000000000000600082015250565b7f63616e6e6f74207370656e6420616c6c6f776e6163652066726f6d206164647260008201527f6573732030000000000000000000000000000000000000000000000000000000602082015250565b7f4f776e61626c653a2063616c6c6572206973206e6f7420746865206f776e6572600082015250565b7f416c6c6f77616e63652063616e6e6f74206265206c657373207468616e207a6560008201527f726f000000000000000000000000000000000000000000000000000000000000602082015250565b7f63616e6e6f7420617070726f76652066726f6d20616464726573732030000000600082015250565b611c5d81611895565b8114611c6857600080fd5b50565b611c74816118d3565b8114611c7f57600080fd5b5056fea26469706673582212207e2ff22f4c0111d5b3cf064d52d5d871e53f960e9ad09d93bc4d8f2686dedf7b64736f6c63430008070033",
					"opcodes": "PUSH1 0x80 PUSH1 0x40 MSTORE PUSH1 0x40 MLOAD DUP1 PUSH1 0x40 ADD PUSH1 0x40 MSTORE DUP1 PUSH1 0x4 DUP2 MSTORE PUSH1 0x20 ADD PUSH32 0x5445535400000000000000000000000000000000000000000000000000000000 DUP2 MSTORE POP PUSH1 0x3 SWAP1 DUP1 MLOAD SWAP1 PUSH1 0x20 ADD SWAP1 PUSH3 0x51 SWAP3 SWAP2 SWAP1 PUSH3 0x248 JUMP JUMPDEST POP PUSH1 0x40 MLOAD DUP1 PUSH1 0x40 ADD PUSH1 0x40 MSTORE DUP1 PUSH1 0x2 DUP2 MSTORE PUSH1 0x20 ADD PUSH32 0x5454000000000000000000000000000000000000000000000000000000000000 DUP2 MSTORE POP PUSH1 0x4 SWAP1 DUP1 MLOAD SWAP1 PUSH1 0x20 ADD SWAP1 PUSH3 0x9F SWAP3 SWAP2 SWAP1 PUSH3 0x248 JUMP JUMPDEST POP PUSH1 0x12 PUSH1 0x5 PUSH1 0x0 PUSH2 0x100 EXP DUP2 SLOAD DUP2 PUSH1 0xFF MUL NOT AND SWAP1 DUP4 PUSH1 0xFF AND MUL OR SWAP1 SSTORE POP PUSH10 0x21E19E0C9BAB2400000 PUSH1 0x6 SSTORE CALLVALUE DUP1 ISZERO PUSH3 0xD7 JUMPI PUSH1 0x0 DUP1 REVERT JUMPDEST POP PUSH3 0xF8 PUSH3 0xEC PUSH3 0x153 PUSH1 0x20 SHL PUSH1 0x20 SHR JUMP JUMPDEST PUSH3 0x15B PUSH1 0x20 SHL PUSH1 0x20 SHR JUMP JUMPDEST PUSH1 0x6 SLOAD PUSH1 0x1 PUSH1 0x0 PUSH3 0x10F PUSH3 0x21F PUSH1 0x20 SHL PUSH1 0x20 SHR JUMP JUMPDEST PUSH20 0xFFFFFFFFFFFFFFFFFFFFFFFFFFFFFFFFFFFFFFFF AND PUSH20 0xFFFFFFFFFFFFFFFFFFFFFFFFFFFFFFFFFFFFFFFF AND DUP2 MSTORE PUSH1 0x20 ADD SWAP1 DUP2 MSTORE PUSH1 0x20 ADD PUSH1 0x0 KECCAK256 DUP2 SWAP1 SSTORE POP PUSH3 0x35D JUMP JUMPDEST PUSH1 0x0 CALLER SWAP1 POP SWAP1 JUMP JUMPDEST PUSH1 0x0 DUP1 PUSH1 0x0 SWAP1 SLOAD SWAP1 PUSH2 0x100 EXP SWAP1 DIV PUSH20 0xFFFFFFFFFFFFFFFFFFFFFFFFFFFFFFFFFFFFFFFF AND SWAP1 POP DUP2 PUSH1 0x0 DUP1 PUSH2 0x100 EXP DUP2 SLOAD DUP2 PUSH20 0xFFFFFFFFFFFFFFFFFFFFFFFFFFFFFFFFFFFFFFFF MUL NOT AND SWAP1 DUP4 PUSH20 0xFFFFFFFFFFFFFFFFFFFFFFFFFFFFFFFFFFFFFFFF AND MUL OR SWAP1 SSTORE POP DUP2 PUSH20 0xFFFFFFFFFFFFFFFFFFFFFFFFFFFFFFFFFFFFFFFF AND DUP2 PUSH20 0xFFFFFFFFFFFFFFFFFFFFFFFFFFFFFFFFFFFFFFFF AND PUSH32 0x8BE0079C531659141344CD1FD0A4F28419497F9722A3DAAFE3B4186F6B6457E0 PUSH1 0x40 MLOAD PUSH1 0x40 MLOAD DUP1 SWAP2 SUB SWAP1 LOG3 POP POP JUMP JUMPDEST PUSH1 0x0 DUP1 PUSH1 0x0 SWAP1 SLOAD SWAP1 PUSH2 0x100 EXP SWAP1 DIV PUSH20 0xFFFFFFFFFFFFFFFFFFFFFFFFFFFFFFFFFFFFFFFF AND SWAP1 POP SWAP1 JUMP JUMPDEST DUP3 DUP1 SLOAD PUSH3 0x256 SWAP1 PUSH3 0x2F8 JUMP JUMPDEST SWAP1 PUSH1 0x0 MSTORE PUSH1 0x20 PUSH1 0x0 KECCAK256 SWAP1 PUSH1 0x1F ADD PUSH1 0x20 SWAP1 DIV DUP2 ADD SWAP3 DUP3 PUSH3 0x27A JUMPI PUSH1 0x0 DUP6 SSTORE PUSH3 0x2C6 JUMP JUMPDEST DUP3 PUSH1 0x1F LT PUSH3 0x295 JUMPI DUP1 MLOAD PUSH1 0xFF NOT AND DUP4 DUP1 ADD OR DUP6 SSTORE PUSH3 0x2C6 JUMP JUMPDEST DUP3 DUP1 ADD PUSH1 0x1 ADD DUP6 SSTORE DUP3 ISZERO PUSH3 0x2C6 JUMPI SWAP2 DUP3 ADD JUMPDEST DUP3 DUP2 GT ISZERO PUSH3 0x2C5 JUMPI DUP3 MLOAD DUP3 SSTORE SWAP2 PUSH1 0x20 ADD SWAP2 SWAP1 PUSH1 0x1 ADD SWAP1 PUSH3 0x2A8 JUMP JUMPDEST JUMPDEST POP SWAP1 POP PUSH3 0x2D5 SWAP2 SWAP1 PUSH3 0x2D9 JUMP JUMPDEST POP SWAP1 JUMP JUMPDEST JUMPDEST DUP1 DUP3 GT ISZERO PUSH3 0x2F4 JUMPI PUSH1 0x0 DUP2 PUSH1 0x0 SWAP1 SSTORE POP PUSH1 0x1 ADD PUSH3 0x2DA JUMP JUMPDEST POP SWAP1 JUMP JUMPDEST PUSH1 0x0 PUSH1 0x2 DUP3 DIV SWAP1 POP PUSH1 0x1 DUP3 AND DUP1 PUSH3 0x311 JUMPI PUSH1 0x7F DUP3 AND SWAP2 POP JUMPDEST PUSH1 0x20 DUP3 LT DUP2 EQ ISZERO PUSH3 0x328 JUMPI PUSH3 0x327 PUSH3 0x32E JUMP JUMPDEST JUMPDEST POP SWAP2 SWAP1 POP JUMP JUMPDEST PUSH32 0x4E487B7100000000000000000000000000000000000000000000000000000000 PUSH1 0x0 MSTORE PUSH1 0x22 PUSH1 0x4 MSTORE PUSH1 0x24 PUSH1 0x0 REVERT JUMPDEST PUSH2 0x1CB8 DUP1 PUSH3 0x36D PUSH1 0x0 CODECOPY PUSH1 0x0 RETURN INVALID PUSH1 0x80 PUSH1 0x40 MSTORE CALLVALUE DUP1 ISZERO PUSH2 0x10 JUMPI PUSH1 0x0 DUP1 REVERT JUMPDEST POP PUSH1 0x4 CALLDATASIZE LT PUSH2 0xF5 JUMPI PUSH1 0x0 CALLDATALOAD PUSH1 0xE0 SHR DUP1 PUSH4 0x715018A6 GT PUSH2 0x97 JUMPI DUP1 PUSH4 0xA457C2D7 GT PUSH2 0x66 JUMPI DUP1 PUSH4 0xA457C2D7 EQ PUSH2 0x278 JUMPI DUP1 PUSH4 0xA9059CBB EQ PUSH2 0x2A8 JUMPI DUP1 PUSH4 0xDD62ED3E EQ PUSH2 0x2D8 JUMPI DUP1 PUSH4 0xF2FDE38B EQ PUSH2 0x308 JUMPI PUSH2 0xF5 JUMP JUMPDEST DUP1 PUSH4 0x715018A6 EQ PUSH2 0x214 JUMPI DUP1 PUSH4 0x893D20E8 EQ PUSH2 0x21E JUMPI DUP1 PUSH4 0x8DA5CB5B EQ PUSH2 0x23C JUMPI DUP1 PUSH4 0x95D89B41 EQ PUSH2 0x25A JUMPI PUSH2 0xF5 JUMP JUMPDEST DUP1 PUSH4 0x23B872DD GT PUSH2 0xD3 JUMPI DUP1 PUSH4 0x23B872DD EQ PUSH2 0x166 JUMPI DUP1 PUSH4 0x313CE567 EQ PUSH2 0x196 JUMPI DUP1 PUSH4 0x39509351 EQ PUSH2 0x1B4 JUMPI DUP1 PUSH4 0x70A08231 EQ PUSH2 0x1E4 JUMPI PUSH2 0xF5 JUMP JUMPDEST DUP1 PUSH4 0x6FDDE03 EQ PUSH2 0xFA JUMPI DUP1 PUSH4 0x95EA7B3 EQ PUSH2 0x118 JUMPI DUP1 PUSH4 0x18160DDD EQ PUSH2 0x148 JUMPI JUMPDEST PUSH1 0x0 DUP1 REVERT JUMPDEST PUSH2 0x102 PUSH2 0x324 JUMP JUMPDEST PUSH1 0x40 MLOAD PUSH2 0x10F SWAP2 SWAP1 PUSH2 0x144C JUMP JUMPDEST PUSH1 0x40 MLOAD DUP1 SWAP2 SUB SWAP1 RETURN JUMPDEST PUSH2 0x132 PUSH1 0x4 DUP1 CALLDATASIZE SUB DUP2 ADD SWAP1 PUSH2 0x12D SWAP2 SWAP1 PUSH2 0x11BD JUMP JUMPDEST PUSH2 0x3B6 JUMP JUMPDEST PUSH1 0x40 MLOAD PUSH2 0x13F SWAP2 SWAP1 PUSH2 0x1431 JUMP JUMPDEST PUSH1 0x40 MLOAD DUP1 SWAP2 SUB SWAP1 RETURN JUMPDEST PUSH2 0x150 PUSH2 0x3F3 JUMP JUMPDEST PUSH1 0x40 MLOAD PUSH2 0x15D SWAP2 SWAP1 PUSH2 0x15EE JUMP JUMPDEST PUSH1 0x40 MLOAD DUP1 SWAP2 SUB SWAP1 RETURN JUMPDEST PUSH2 0x180 PUSH1 0x4 DUP1 CALLDATASIZE SUB DUP2 ADD SWAP1 PUSH2 0x17B SWAP2 SWAP1 PUSH2 0x116A JUMP JUMPDEST PUSH2 0x3FD JUMP JUMPDEST PUSH1 0x40 MLOAD PUSH2 0x18D SWAP2 SWAP1 PUSH2 0x1431 JUMP JUMPDEST PUSH1 0x40 MLOAD DUP1 SWAP2 SUB SWAP1 RETURN JUMPDEST PUSH2 0x19E PUSH2 0x4EE JUMP JUMPDEST PUSH1 0x40 MLOAD PUSH2 0x1AB SWAP2 SWAP1 PUSH2 0x1609 JUMP JUMPDEST PUSH1 0x40 MLOAD DUP1 SWAP2 SUB SWAP1 RETURN JUMPDEST PUSH2 0x1CE PUSH1 0x4 DUP1 CALLDATASIZE SUB DUP2 ADD SWAP1 PUSH2 0x1C9 SWAP2 SWAP1 PUSH2 0x11BD JUMP JUMPDEST PUSH2 0x505 JUMP JUMPDEST PUSH1 0x40 MLOAD PUSH2 0x1DB SWAP2 SWAP1 PUSH2 0x1431 JUMP JUMPDEST PUSH1 0x40 MLOAD DUP1 SWAP2 SUB SWAP1 RETURN JUMPDEST PUSH2 0x1FE PUSH1 0x4 DUP1 CALLDATASIZE SUB DUP2 ADD SWAP1 PUSH2 0x1F9 SWAP2 SWAP1 PUSH2 0x10FD JUMP JUMPDEST PUSH2 0x556 JUMP JUMPDEST PUSH1 0x40 MLOAD PUSH2 0x20B SWAP2 SWAP1 PUSH2 0x15EE JUMP JUMPDEST PUSH1 0x40 MLOAD DUP1 SWAP2 SUB SWAP1 RETURN JUMPDEST PUSH2 0x21C PUSH2 0x59F JUMP JUMPDEST STOP JUMPDEST PUSH2 0x226 PUSH2 0x627 JUMP JUMPDEST PUSH1 0x40 MLOAD PUSH2 0x233 SWAP2 SWAP1 PUSH2 0x1416 JUMP JUMPDEST PUSH1 0x40 MLOAD DUP1 SWAP2 SUB SWAP1 RETURN JUMPDEST PUSH2 0x244 PUSH2 0x636 JUMP JUMPDEST PUSH1 0x40 MLOAD PUSH2 0x251 SWAP2 SWAP1 PUSH2 0x1416 JUMP JUMPDEST PUSH1 0x40 MLOAD DUP1 SWAP2 SUB SWAP1 RETURN JUMPDEST PUSH2 0x262 PUSH2 0x65F JUMP JUMPDEST PUSH1 0x40 MLOAD PUSH2 0x26F SWAP2 SWAP1 PUSH2 0x144C JUMP JUMPDEST PUSH1 0x40 MLOAD DUP1 SWAP2 SUB SWAP1 RETURN JUMPDEST PUSH2 0x292 PUSH1 0x4 DUP1 CALLDATASIZE SUB DUP2 ADD SWAP1 PUSH2 0x28D SWAP2 SWAP1 PUSH2 0x11BD JUMP JUMPDEST PUSH2 0x6F1 JUMP JUMPDEST PUSH1 0x40 MLOAD PUSH2 0x29F SWAP2 SWAP1 PUSH2 0x1431 JUMP JUMPDEST PUSH1 0x40 MLOAD DUP1 SWAP2 SUB SWAP1 RETURN JUMPDEST PUSH2 0x2C2 PUSH1 0x4 DUP1 CALLDATASIZE SUB DUP2 ADD SWAP1 PUSH2 0x2BD SWAP2 SWAP1 PUSH2 0x11BD JUMP JUMPDEST PUSH2 0x7B4 JUMP JUMPDEST PUSH1 0x40 MLOAD PUSH2 0x2CF SWAP2 SWAP1 PUSH2 0x1431 JUMP JUMPDEST PUSH1 0x40 MLOAD DUP1 SWAP2 SUB SWAP1 RETURN JUMPDEST PUSH2 0x2F2 PUSH1 0x4 DUP1 CALLDATASIZE SUB DUP2 ADD SWAP1 PUSH2 0x2ED SWAP2 SWAP1 PUSH2 0x112A JUMP JUMPDEST PUSH2 0x84D JUMP JUMPDEST PUSH1 0x40 MLOAD PUSH2 0x2FF SWAP2 SWAP1 PUSH2 0x15EE JUMP JUMPDEST PUSH1 0x40 MLOAD DUP1 SWAP2 SUB SWAP1 RETURN JUMPDEST PUSH2 0x322 PUSH1 0x4 DUP1 CALLDATASIZE SUB DUP2 ADD SWAP1 PUSH2 0x31D SWAP2 SWAP1 PUSH2 0x10FD JUMP JUMPDEST PUSH2 0x8D4 JUMP JUMPDEST STOP JUMPDEST PUSH1 0x60 PUSH1 0x3 DUP1 SLOAD PUSH2 0x333 SWAP1 PUSH2 0x191D JUMP JUMPDEST DUP1 PUSH1 0x1F ADD PUSH1 0x20 DUP1 SWAP2 DIV MUL PUSH1 0x20 ADD PUSH1 0x40 MLOAD SWAP1 DUP2 ADD PUSH1 0x40 MSTORE DUP1 SWAP3 SWAP2 SWAP1 DUP2 DUP2 MSTORE PUSH1 0x20 ADD DUP3 DUP1 SLOAD PUSH2 0x35F SWAP1 PUSH2 0x191D JUMP JUMPDEST DUP1 ISZERO PUSH2 0x3AC JUMPI DUP1 PUSH1 0x1F LT PUSH2 0x381 JUMPI PUSH2 0x100 DUP1 DUP4 SLOAD DIV MUL DUP4 MSTORE SWAP2 PUSH1 0x20 ADD SWAP2 PUSH2 0x3AC JUMP JUMPDEST DUP3 ADD SWAP2 SWAP1 PUSH1 0x0 MSTORE PUSH1 0x20 PUSH1 0x0 KECCAK256 SWAP1 JUMPDEST DUP2 SLOAD DUP2 MSTORE SWAP1 PUSH1 0x1 ADD SWAP1 PUSH1 0x20 ADD DUP1 DUP4 GT PUSH2 0x38F JUMPI DUP3 SWAP1 SUB PUSH1 0x1F AND DUP3 ADD SWAP2 JUMPDEST POP POP POP POP POP SWAP1 POP SWAP1 JUMP JUMPDEST PUSH1 0x0 PUSH2 0x3E9 CALLER DUP5 PUSH1 0x5 PUSH1 0x0 SWAP1 SLOAD SWAP1 PUSH2 0x100 EXP SWAP1 DIV PUSH1 0xFF AND PUSH1 0xA PUSH2 0x3D9 SWAP2 SWAP1 PUSH2 0x16E9 JUMP JUMPDEST DUP6 PUSH2 0x3E4 SWAP2 SWAP1 PUSH2 0x1807 JUMP JUMPDEST PUSH2 0x9CC JUMP JUMPDEST PUSH1 0x1 SWAP1 POP SWAP3 SWAP2 POP POP JUMP JUMPDEST PUSH1 0x0 PUSH1 0x6 SLOAD SWAP1 POP SWAP1 JUMP JUMPDEST PUSH1 0x0 PUSH1 0x5 PUSH1 0x0 SWAP1 SLOAD SWAP1 PUSH2 0x100 EXP SWAP1 DIV PUSH1 0xFF AND PUSH1 0xA PUSH2 0x41B SWAP2 SWAP1 PUSH2 0x16E9 JUMP JUMPDEST DUP3 PUSH2 0x426 SWAP2 SWAP1 PUSH2 0x1807 JUMP JUMPDEST PUSH1 0x1 PUSH1 0x0 DUP7 PUSH20 0xFFFFFFFFFFFFFFFFFFFFFFFFFFFFFFFFFFFFFFFF AND PUSH20 0xFFFFFFFFFFFFFFFFFFFFFFFFFFFFFFFFFFFFFFFF AND DUP2 MSTORE PUSH1 0x20 ADD SWAP1 DUP2 MSTORE PUSH1 0x20 ADD PUSH1 0x0 KECCAK256 SLOAD LT ISZERO PUSH2 0x4A7 JUMPI PUSH1 0x40 MLOAD PUSH32 0x8C379A000000000000000000000000000000000000000000000000000000000 DUP2 MSTORE PUSH1 0x4 ADD PUSH2 0x49E SWAP1 PUSH2 0x146E JUMP JUMPDEST PUSH1 0x40 MLOAD DUP1 SWAP2 SUB SWAP1 REVERT JUMPDEST PUSH2 0x4B2 DUP5 CALLER DUP5 PUSH2 0xC19 JUMP JUMPDEST PUSH2 0x4E3 DUP5 DUP5 PUSH1 0x5 PUSH1 0x0 SWAP1 SLOAD SWAP1 PUSH2 0x100 EXP SWAP1 DIV PUSH1 0xFF AND PUSH1 0xA PUSH2 0x4D3 SWAP2 SWAP1 PUSH2 0x16E9 JUMP JUMPDEST DUP6 PUSH2 0x4DE SWAP2 SWAP1 PUSH2 0x1807 JUMP JUMPDEST PUSH2 0xE11 JUMP JUMPDEST PUSH1 0x1 SWAP1 POP SWAP4 SWAP3 POP POP POP JUMP JUMPDEST PUSH1 0x0 PUSH1 0x5 PUSH1 0x0 SWAP1 SLOAD SWAP1 PUSH2 0x100 EXP SWAP1 DIV PUSH1 0xFF AND SWAP1 POP SWAP1 JUMP JUMPDEST PUSH1 0x0 PUSH2 0x54C CALLER DUP5 PUSH1 0x5 PUSH1 0x0 SWAP1 SLOAD SWAP1 PUSH2 0x100 EXP SWAP1 DIV PUSH1 0xFF AND PUSH1 0xA PUSH2 0x528 SWAP2 SWAP1 PUSH2 0x16E9 JUMP JUMPDEST DUP6 PUSH2 0x533 SWAP2 SWAP1 PUSH2 0x1807 JUMP JUMPDEST PUSH2 0x53D CALLER DUP9 PUSH2 0x84D JUMP JUMPDEST PUSH2 0x547 SWAP2 SWAP1 PUSH2 0x1640 JUMP JUMPDEST PUSH2 0x9CC JUMP JUMPDEST PUSH1 0x1 SWAP1 POP SWAP3 SWAP2 POP POP JUMP JUMPDEST PUSH1 0x0 PUSH1 0x1 PUSH1 0x0 DUP4 PUSH20 0xFFFFFFFFFFFFFFFFFFFFFFFFFFFFFFFFFFFFFFFF AND PUSH20 0xFFFFFFFFFFFFFFFFFFFFFFFFFFFFFFFFFFFFFFFF AND DUP2 MSTORE PUSH1 0x20 ADD SWAP1 DUP2 MSTORE PUSH1 0x20 ADD PUSH1 0x0 KECCAK256 SLOAD SWAP1 POP SWAP2 SWAP1 POP JUMP JUMPDEST PUSH2 0x5A7 PUSH2 0x1007 JUMP JUMPDEST PUSH20 0xFFFFFFFFFFFFFFFFFFFFFFFFFFFFFFFFFFFFFFFF AND PUSH2 0x5C5 PUSH2 0x636 JUMP JUMPDEST PUSH20 0xFFFFFFFFFFFFFFFFFFFFFFFFFFFFFFFFFFFFFFFF AND EQ PUSH2 0x61B JUMPI PUSH1 0x40 MLOAD PUSH32 0x8C379A000000000000000000000000000000000000000000000000000000000 DUP2 MSTORE PUSH1 0x4 ADD PUSH2 0x612 SWAP1 PUSH2 0x158E JUMP JUMPDEST PUSH1 0x40 MLOAD DUP1 SWAP2 SUB SWAP1 REVERT JUMPDEST PUSH2 0x625 PUSH1 0x0 PUSH2 0x100F JUMP JUMPDEST JUMP JUMPDEST PUSH1 0x0 PUSH2 0x631 PUSH2 0x636 JUMP JUMPDEST SWAP1 POP SWAP1 JUMP JUMPDEST PUSH1 0x0 DUP1 PUSH1 0x0 SWAP1 SLOAD SWAP1 PUSH2 0x100 EXP SWAP1 DIV PUSH20 0xFFFFFFFFFFFFFFFFFFFFFFFFFFFFFFFFFFFFFFFF AND SWAP1 POP SWAP1 JUMP JUMPDEST PUSH1 0x60 PUSH1 0x4 DUP1 SLOAD PUSH2 0x66E SWAP1 PUSH2 0x191D JUMP JUMPDEST DUP1 PUSH1 0x1F ADD PUSH1 0x20 DUP1 SWAP2 DIV MUL PUSH1 0x20 ADD PUSH1 0x40 MLOAD SWAP1 DUP2 ADD PUSH1 0x40 MSTORE DUP1 SWAP3 SWAP2 SWAP1 DUP2 DUP2 MSTORE PUSH1 0x20 ADD DUP3 DUP1 SLOAD PUSH2 0x69A SWAP1 PUSH2 0x191D JUMP JUMPDEST DUP1 ISZERO PUSH2 0x6E7 JUMPI DUP1 PUSH1 0x1F LT PUSH2 0x6BC JUMPI PUSH2 0x100 DUP1 DUP4 SLOAD DIV MUL DUP4 MSTORE SWAP2 PUSH1 0x20 ADD SWAP2 PUSH2 0x6E7 JUMP JUMPDEST DUP3 ADD SWAP2 SWAP1 PUSH1 0x0 MSTORE PUSH1 0x20 PUSH1 0x0 KECCAK256 SWAP1 JUMPDEST DUP2 SLOAD DUP2 MSTORE SWAP1 PUSH1 0x1 ADD SWAP1 PUSH1 0x20 ADD DUP1 DUP4 GT PUSH2 0x6CA JUMPI DUP3 SWAP1 SUB PUSH1 0x1F AND DUP3 ADD SWAP2 JUMPDEST POP POP POP POP POP SWAP1 POP SWAP1 JUMP JUMPDEST PUSH1 0x0 PUSH1 0x5 PUSH1 0x0 SWAP1 SLOAD SWAP1 PUSH2 0x100 EXP SWAP1 DIV PUSH1 0xFF AND PUSH1 0xA PUSH2 0x70F SWAP2 SWAP1 PUSH2 0x16E9 JUMP JUMPDEST DUP3 PUSH2 0x71A SWAP2 SWAP1 PUSH2 0x1807 JUMP JUMPDEST PUSH2 0x724 CALLER DUP6 PUSH2 0x84D JUMP JUMPDEST LT ISZERO PUSH2 0x765 JUMPI PUSH1 0x40 MLOAD PUSH32 0x8C379A000000000000000000000000000000000000000000000000000000000 DUP2 MSTORE PUSH1 0x4 ADD PUSH2 0x75C SWAP1 PUSH2 0x15AE JUMP JUMPDEST PUSH1 0x40 MLOAD DUP1 SWAP2 SUB SWAP1 REVERT JUMPDEST PUSH2 0x7AA CALLER DUP5 PUSH1 0x5 PUSH1 0x0 SWAP1 SLOAD SWAP1 PUSH2 0x100 EXP SWAP1 DIV PUSH1 0xFF AND PUSH1 0xA PUSH2 0x786 SWAP2 SWAP1 PUSH2 0x16E9 JUMP JUMPDEST DUP6 PUSH2 0x791 SWAP2 SWAP1 PUSH2 0x1807 JUMP JUMPDEST PUSH2 0x79B CALLER DUP9 PUSH2 0x84D JUMP JUMPDEST PUSH2 0x7A5 SWAP2 SWAP1 PUSH2 0x1861 JUMP JUMPDEST PUSH2 0x9CC JUMP JUMPDEST PUSH1 0x1 SWAP1 POP SWAP3 SWAP2 POP POP JUMP JUMPDEST PUSH1 0x0 DUP2 PUSH1 0x1 PUSH1 0x0 CALLER PUSH20 0xFFFFFFFFFFFFFFFFFFFFFFFFFFFFFFFFFFFFFFFF AND PUSH20 0xFFFFFFFFFFFFFFFFFFFFFFFFFFFFFFFFFFFFFFFF AND DUP2 MSTORE PUSH1 0x20 ADD SWAP1 DUP2 MSTORE PUSH1 0x20 ADD PUSH1 0x0 KECCAK256 SLOAD LT ISZERO PUSH2 0x838 JUMPI PUSH1 0x40 MLOAD PUSH32 0x8C379A000000000000000000000000000000000000000000000000000000000 DUP2 MSTORE PUSH1 0x4 ADD PUSH2 0x82F SWAP1 PUSH2 0x146E JUMP JUMPDEST PUSH1 0x40 MLOAD DUP1 SWAP2 SUB SWAP1 REVERT JUMPDEST PUSH2 0x843 CALLER DUP5 DUP5 PUSH2 0xE11 JUMP JUMPDEST PUSH1 0x1 SWAP1 POP SWAP3 SWAP2 POP POP JUMP JUMPDEST PUSH1 0x0 PUSH1 0x2 PUSH1 0x0 DUP5 PUSH20 0xFFFFFFFFFFFFFFFFFFFFFFFFFFFFFFFFFFFFFFFF AND PUSH20 0xFFFFFFFFFFFFFFFFFFFFFFFFFFFFFFFFFFFFFFFF AND DUP2 MSTORE PUSH1 0x20 ADD SWAP1 DUP2 MSTORE PUSH1 0x20 ADD PUSH1 0x0 KECCAK256 PUSH1 0x0 DUP4 PUSH20 0xFFFFFFFFFFFFFFFFFFFFFFFFFFFFFFFFFFFFFFFF AND PUSH20 0xFFFFFFFFFFFFFFFFFFFFFFFFFFFFFFFFFFFFFFFF AND DUP2 MSTORE PUSH1 0x20 ADD SWAP1 DUP2 MSTORE PUSH1 0x20 ADD PUSH1 0x0 KECCAK256 SLOAD SWAP1 POP SWAP3 SWAP2 POP POP JUMP JUMPDEST PUSH2 0x8DC PUSH2 0x1007 JUMP JUMPDEST PUSH20 0xFFFFFFFFFFFFFFFFFFFFFFFFFFFFFFFFFFFFFFFF AND PUSH2 0x8FA PUSH2 0x636 JUMP JUMPDEST PUSH20 0xFFFFFFFFFFFFFFFFFFFFFFFFFFFFFFFFFFFFFFFF AND EQ PUSH2 0x950 JUMPI PUSH1 0x40 MLOAD PUSH32 0x8C379A000000000000000000000000000000000000000000000000000000000 DUP2 MSTORE PUSH1 0x4 ADD PUSH2 0x947 SWAP1 PUSH2 0x158E JUMP JUMPDEST PUSH1 0x40 MLOAD DUP1 SWAP2 SUB SWAP1 REVERT JUMPDEST PUSH1 0x0 PUSH20 0xFFFFFFFFFFFFFFFFFFFFFFFFFFFFFFFFFFFFFFFF AND DUP2 PUSH20 0xFFFFFFFFFFFFFFFFFFFFFFFFFFFFFFFFFFFFFFFF AND EQ ISZERO PUSH2 0x9C0 JUMPI PUSH1 0x40 MLOAD PUSH32 0x8C379A000000000000000000000000000000000000000000000000000000000 DUP2 MSTORE PUSH1 0x4 ADD PUSH2 0x9B7 SWAP1 PUSH2 0x14AE JUMP JUMPDEST PUSH1 0x40 MLOAD DUP1 SWAP2 SUB SWAP1 REVERT JUMPDEST PUSH2 0x9C9 DUP2 PUSH2 0x100F JUMP JUMPDEST POP JUMP JUMPDEST PUSH1 0x0 PUSH20 0xFFFFFFFFFFFFFFFFFFFFFFFFFFFFFFFFFFFFFFFF AND DUP4 PUSH20 0xFFFFFFFFFFFFFFFFFFFFFFFFFFFFFFFFFFFFFFFF AND EQ ISZERO PUSH2 0xA3C JUMPI PUSH1 0x40 MLOAD PUSH32 0x8C379A000000000000000000000000000000000000000000000000000000000 DUP2 MSTORE PUSH1 0x4 ADD PUSH2 0xA33 SWAP1 PUSH2 0x15CE JUMP JUMPDEST PUSH1 0x40 MLOAD DUP1 SWAP2 SUB SWAP1 REVERT JUMPDEST PUSH1 0x0 PUSH20 0xFFFFFFFFFFFFFFFFFFFFFFFFFFFFFFFFFFFFFFFF AND DUP3 PUSH20 0xFFFFFFFFFFFFFFFFFFFFFFFFFFFFFFFFFFFFFFFF AND EQ ISZERO PUSH2 0xAAC JUMPI PUSH1 0x40 MLOAD PUSH32 0x8C379A000000000000000000000000000000000000000000000000000000000 DUP2 MSTORE PUSH1 0x4 ADD PUSH2 0xAA3 SWAP1 PUSH2 0x150E JUMP JUMPDEST PUSH1 0x40 MLOAD DUP1 SWAP2 SUB SWAP1 REVERT JUMPDEST DUP1 PUSH1 0x1 PUSH1 0x0 DUP6 PUSH20 0xFFFFFFFFFFFFFFFFFFFFFFFFFFFFFFFFFFFFFFFF AND PUSH20 0xFFFFFFFFFFFFFFFFFFFFFFFFFFFFFFFFFFFFFFFF AND DUP2 MSTORE PUSH1 0x20 ADD SWAP1 DUP2 MSTORE PUSH1 0x20 ADD PUSH1 0x0 KECCAK256 SLOAD LT ISZERO PUSH2 0xB2E JUMPI PUSH1 0x40 MLOAD PUSH32 0x8C379A000000000000000000000000000000000000000000000000000000000 DUP2 MSTORE PUSH1 0x4 ADD PUSH2 0xB25 SWAP1 PUSH2 0x152E JUMP JUMPDEST PUSH1 0x40 MLOAD DUP1 SWAP2 SUB SWAP1 REVERT JUMPDEST DUP1 PUSH1 0x2 PUSH1 0x0 DUP6 PUSH20 0xFFFFFFFFFFFFFFFFFFFFFFFFFFFFFFFFFFFFFFFF AND PUSH20 0xFFFFFFFFFFFFFFFFFFFFFFFFFFFFFFFFFFFFFFFF AND DUP2 MSTORE PUSH1 0x20 ADD SWAP1 DUP2 MSTORE PUSH1 0x20 ADD PUSH1 0x0 KECCAK256 PUSH1 0x0 DUP5 PUSH20 0xFFFFFFFFFFFFFFFFFFFFFFFFFFFFFFFFFFFFFFFF AND PUSH20 0xFFFFFFFFFFFFFFFFFFFFFFFFFFFFFFFFFFFFFFFF AND DUP2 MSTORE PUSH1 0x20 ADD SWAP1 DUP2 MSTORE PUSH1 0x20 ADD PUSH1 0x0 KECCAK256 DUP2 SWAP1 SSTORE POP DUP2 PUSH20 0xFFFFFFFFFFFFFFFFFFFFFFFFFFFFFFFFFFFFFFFF AND DUP4 PUSH20 0xFFFFFFFFFFFFFFFFFFFFFFFFFFFFFFFFFFFFFFFF AND PUSH32 0x8C5BE1E5EBEC7D5BD14F71427D1E84F3DD0314C0F7B2291E5B200AC8C7C3B925 DUP4 PUSH1 0x40 MLOAD PUSH2 0xC0C SWAP2 SWAP1 PUSH2 0x15EE JUMP JUMPDEST PUSH1 0x40 MLOAD DUP1 SWAP2 SUB SWAP1 LOG3 POP POP POP JUMP JUMPDEST PUSH1 0x0 PUSH20 0xFFFFFFFFFFFFFFFFFFFFFFFFFFFFFFFFFFFFFFFF AND DUP4 PUSH20 0xFFFFFFFFFFFFFFFFFFFFFFFFFFFFFFFFFFFFFFFF AND EQ ISZERO PUSH2 0xC89 JUMPI PUSH1 0x40 MLOAD PUSH32 0x8C379A000000000000000000000000000000000000000000000000000000000 DUP2 MSTORE PUSH1 0x4 ADD PUSH2 0xC80 SWAP1 PUSH2 0x156E JUMP JUMPDEST PUSH1 0x40 MLOAD DUP1 SWAP2 SUB SWAP1 REVERT JUMPDEST PUSH1 0x0 PUSH20 0xFFFFFFFFFFFFFFFFFFFFFFFFFFFFFFFFFFFFFFFF AND DUP3 PUSH20 0xFFFFFFFFFFFFFFFFFFFFFFFFFFFFFFFFFFFFFFFF AND EQ ISZERO PUSH2 0xCF9 JUMPI PUSH1 0x40 MLOAD PUSH32 0x8C379A000000000000000000000000000000000000000000000000000000000 DUP2 MSTORE PUSH1 0x4 ADD PUSH2 0xCF0 SWAP1 PUSH2 0x148E JUMP JUMPDEST PUSH1 0x40 MLOAD DUP1 SWAP2 SUB SWAP1 REVERT JUMPDEST PUSH1 0x5 PUSH1 0x0 SWAP1 SLOAD SWAP1 PUSH2 0x100 EXP SWAP1 DIV PUSH1 0xFF AND PUSH1 0xA PUSH2 0xD15 SWAP2 SWAP1 PUSH2 0x16E9 JUMP JUMPDEST DUP2 PUSH2 0xD20 SWAP2 SWAP1 PUSH2 0x1807 JUMP JUMPDEST PUSH2 0xD2A DUP5 DUP5 PUSH2 0x84D JUMP JUMPDEST LT ISZERO PUSH2 0xD6B JUMPI PUSH1 0x40 MLOAD PUSH32 0x8C379A000000000000000000000000000000000000000000000000000000000 DUP2 MSTORE PUSH1 0x4 ADD PUSH2 0xD62 SWAP1 PUSH2 0x154E JUMP JUMPDEST PUSH1 0x40 MLOAD DUP1 SWAP2 SUB SWAP1 REVERT JUMPDEST PUSH1 0x5 PUSH1 0x0 SWAP1 SLOAD SWAP1 PUSH2 0x100 EXP SWAP1 DIV PUSH1 0xFF AND PUSH1 0xFF AND PUSH1 0xA EXP DUP2 MUL PUSH1 0x2 PUSH1 0x0 DUP6 PUSH20 0xFFFFFFFFFFFFFFFFFFFFFFFFFFFFFFFFFFFFFFFF AND PUSH20 0xFFFFFFFFFFFFFFFFFFFFFFFFFFFFFFFFFFFFFFFF AND DUP2 MSTORE PUSH1 0x20 ADD SWAP1 DUP2 MSTORE PUSH1 0x20 ADD PUSH1 0x0 KECCAK256 PUSH1 0x0 DUP5 PUSH20 0xFFFFFFFFFFFFFFFFFFFFFFFFFFFFFFFFFFFFFFFF AND PUSH20 0xFFFFFFFFFFFFFFFFFFFFFFFFFFFFFFFFFFFFFFFF AND DUP2 MSTORE PUSH1 0x20 ADD SWAP1 DUP2 MSTORE PUSH1 0x20 ADD PUSH1 0x0 KECCAK256 PUSH1 0x0 DUP3 DUP3 SLOAD SUB SWAP3 POP POP DUP2 SWAP1 SSTORE POP POP POP POP JUMP JUMPDEST PUSH1 0x0 PUSH20 0xFFFFFFFFFFFFFFFFFFFFFFFFFFFFFFFFFFFFFFFF AND DUP4 PUSH20 0xFFFFFFFFFFFFFFFFFFFFFFFFFFFFFFFFFFFFFFFF AND EQ ISZERO PUSH2 0xE81 JUMPI PUSH1 0x40 MLOAD PUSH32 0x8C379A000000000000000000000000000000000000000000000000000000000 DUP2 MSTORE PUSH1 0x4 ADD PUSH2 0xE78 SWAP1 PUSH2 0x14CE JUMP JUMPDEST PUSH1 0x40 MLOAD DUP1 SWAP2 SUB SWAP1 REVERT JUMPDEST PUSH1 0x0 PUSH20 0xFFFFFFFFFFFFFFFFFFFFFFFFFFFFFFFFFFFFFFFF AND DUP3 PUSH20 0xFFFFFFFFFFFFFFFFFFFFFFFFFFFFFFFFFFFFFFFF AND EQ ISZERO PUSH2 0xEF1 JUMPI PUSH1 0x40 MLOAD PUSH32 0x8C379A000000000000000000000000000000000000000000000000000000000 DUP2 MSTORE PUSH1 0x4 ADD PUSH2 0xEE8 SWAP1 PUSH2 0x14EE JUMP JUMPDEST PUSH1 0x40 MLOAD DUP1 SWAP2 SUB SWAP1 REVERT JUMPDEST DUP1 PUSH1 0x1 PUSH1 0x0 DUP6 PUSH20 0xFFFFFFFFFFFFFFFFFFFFFFFFFFFFFFFFFFFFFFFF AND PUSH20 0xFFFFFFFFFFFFFFFFFFFFFFFFFFFFFFFFFFFFFFFF AND DUP2 MSTORE PUSH1 0x20 ADD SWAP1 DUP2 MSTORE PUSH1 0x20 ADD PUSH1 0x0 KECCAK256 PUSH1 0x0 DUP3 DUP3 SLOAD PUSH2 0xF40 SWAP2 SWAP1 PUSH2 0x1861 JUMP JUMPDEST SWAP3 POP POP DUP2 SWAP1 SSTORE POP DUP1 PUSH1 0x1 PUSH1 0x0 DUP5 PUSH20 0xFFFFFFFFFFFFFFFFFFFFFFFFFFFFFFFFFFFFFFFF AND PUSH20 0xFFFFFFFFFFFFFFFFFFFFFFFFFFFFFFFFFFFFFFFF AND DUP2 MSTORE PUSH1 0x20 ADD SWAP1 DUP2 MSTORE PUSH1 0x20 ADD PUSH1 0x0 KECCAK256 PUSH1 0x0 DUP3 DUP3 SLOAD PUSH2 0xF96 SWAP2 SWAP1 PUSH2 0x1640 JUMP JUMPDEST SWAP3 POP POP DUP2 SWAP1 SSTORE POP DUP2 PUSH20 0xFFFFFFFFFFFFFFFFFFFFFFFFFFFFFFFFFFFFFFFF AND DUP4 PUSH20 0xFFFFFFFFFFFFFFFFFFFFFFFFFFFFFFFFFFFFFFFF AND PUSH32 0xDDF252AD1BE2C89B69C2B068FC378DAA952BA7F163C4A11628F55A4DF523B3EF DUP4 PUSH1 0x40 MLOAD PUSH2 0xFFA SWAP2 SWAP1 PUSH2 0x15EE JUMP JUMPDEST PUSH1 0x40 MLOAD DUP1 SWAP2 SUB SWAP1 LOG3 POP POP POP JUMP JUMPDEST PUSH1 0x0 CALLER SWAP1 POP SWAP1 JUMP JUMPDEST PUSH1 0x0 DUP1 PUSH1 0x0 SWAP1 SLOAD SWAP1 PUSH2 0x100 EXP SWAP1 DIV PUSH20 0xFFFFFFFFFFFFFFFFFFFFFFFFFFFFFFFFFFFFFFFF AND SWAP1 POP DUP2 PUSH1 0x0 DUP1 PUSH2 0x100 EXP DUP2 SLOAD DUP2 PUSH20 0xFFFFFFFFFFFFFFFFFFFFFFFFFFFFFFFFFFFFFFFF MUL NOT AND SWAP1 DUP4 PUSH20 0xFFFFFFFFFFFFFFFFFFFFFFFFFFFFFFFFFFFFFFFF AND MUL OR SWAP1 SSTORE POP DUP2 PUSH20 0xFFFFFFFFFFFFFFFFFFFFFFFFFFFFFFFFFFFFFFFF AND DUP2 PUSH20 0xFFFFFFFFFFFFFFFFFFFFFFFFFFFFFFFFFFFFFFFF AND PUSH32 0x8BE0079C531659141344CD1FD0A4F28419497F9722A3DAAFE3B4186F6B6457E0 PUSH1 0x40 MLOAD PUSH1 0x40 MLOAD DUP1 SWAP2 SUB SWAP1 LOG3 POP POP JUMP JUMPDEST PUSH1 0x0 DUP2 CALLDATALOAD SWAP1 POP PUSH2 0x10E2 DUP2 PUSH2 0x1C54 JUMP JUMPDEST SWAP3 SWAP2 POP POP JUMP JUMPDEST PUSH1 0x0 DUP2 CALLDATALOAD SWAP1 POP PUSH2 0x10F7 DUP2 PUSH2 0x1C6B JUMP JUMPDEST SWAP3 SWAP2 POP POP JUMP JUMPDEST PUSH1 0x0 PUSH1 0x20 DUP3 DUP5 SUB SLT ISZERO PUSH2 0x1113 JUMPI PUSH2 0x1112 PUSH2 0x19AD JUMP JUMPDEST JUMPDEST PUSH1 0x0 PUSH2 0x1121 DUP5 DUP3 DUP6 ADD PUSH2 0x10D3 JUMP JUMPDEST SWAP2 POP POP SWAP3 SWAP2 POP POP JUMP JUMPDEST PUSH1 0x0 DUP1 PUSH1 0x40 DUP4 DUP6 SUB SLT ISZERO PUSH2 0x1141 JUMPI PUSH2 0x1140 PUSH2 0x19AD JUMP JUMPDEST JUMPDEST PUSH1 0x0 PUSH2 0x114F DUP6 DUP3 DUP7 ADD PUSH2 0x10D3 JUMP JUMPDEST SWAP3 POP POP PUSH1 0x20 PUSH2 0x1160 DUP6 DUP3 DUP7 ADD PUSH2 0x10D3 JUMP JUMPDEST SWAP2 POP POP SWAP3 POP SWAP3 SWAP1 POP JUMP JUMPDEST PUSH1 0x0 DUP1 PUSH1 0x0 PUSH1 0x60 DUP5 DUP7 SUB SLT ISZERO PUSH2 0x1183 JUMPI PUSH2 0x1182 PUSH2 0x19AD JUMP JUMPDEST JUMPDEST PUSH1 0x0 PUSH2 0x1191 DUP7 DUP3 DUP8 ADD PUSH2 0x10D3 JUMP JUMPDEST SWAP4 POP POP PUSH1 0x20 PUSH2 0x11A2 DUP7 DUP3 DUP8 ADD PUSH2 0x10D3 JUMP JUMPDEST SWAP3 POP POP PUSH1 0x40 PUSH2 0x11B3 DUP7 DUP3 DUP8 ADD PUSH2 0x10E8 JUMP JUMPDEST SWAP2 POP POP SWAP3 POP SWAP3 POP SWAP3 JUMP JUMPDEST PUSH1 0x0 DUP1 PUSH1 0x40 DUP4 DUP6 SUB SLT ISZERO PUSH2 0x11D4 JUMPI PUSH2 0x11D3 PUSH2 0x19AD JUMP JUMPDEST JUMPDEST PUSH1 0x0 PUSH2 0x11E2 DUP6 DUP3 DUP7 ADD PUSH2 0x10D3 JUMP JUMPDEST SWAP3 POP POP PUSH1 0x20 PUSH2 0x11F3 DUP6 DUP3 DUP7 ADD PUSH2 0x10E8 JUMP JUMPDEST SWAP2 POP POP SWAP3 POP SWAP3 SWAP1 POP JUMP JUMPDEST PUSH2 0x1206 DUP2 PUSH2 0x1895 JUMP JUMPDEST DUP3 MSTORE POP POP JUMP JUMPDEST PUSH2 0x1215 DUP2 PUSH2 0x18A7 JUMP JUMPDEST DUP3 MSTORE POP POP JUMP JUMPDEST PUSH1 0x0 PUSH2 0x1226 DUP3 PUSH2 0x1624 JUMP JUMPDEST PUSH2 0x1230 DUP2 DUP6 PUSH2 0x162F JUMP JUMPDEST SWAP4 POP PUSH2 0x1240 DUP2 DUP6 PUSH1 0x20 DUP7 ADD PUSH2 0x18EA JUMP JUMPDEST PUSH2 0x1249 DUP2 PUSH2 0x19B2 JUMP JUMPDEST DUP5 ADD SWAP2 POP POP SWAP3 SWAP2 POP POP JUMP JUMPDEST PUSH1 0x0 PUSH2 0x1261 PUSH1 0x16 DUP4 PUSH2 0x162F JUMP JUMPDEST SWAP2 POP PUSH2 0x126C DUP3 PUSH2 0x19D0 JUMP JUMPDEST PUSH1 0x20 DUP3 ADD SWAP1 POP SWAP2 SWAP1 POP JUMP JUMPDEST PUSH1 0x0 PUSH2 0x1284 PUSH1 0x23 DUP4 PUSH2 0x162F JUMP JUMPDEST SWAP2 POP PUSH2 0x128F DUP3 PUSH2 0x19F9 JUMP JUMPDEST PUSH1 0x40 DUP3 ADD SWAP1 POP SWAP2 SWAP1 POP JUMP JUMPDEST PUSH1 0x0 PUSH2 0x12A7 PUSH1 0x26 DUP4 PUSH2 0x162F JUMP JUMPDEST SWAP2 POP PUSH2 0x12B2 DUP3 PUSH2 0x1A48 JUMP JUMPDEST PUSH1 0x40 DUP3 ADD SWAP1 POP SWAP2 SWAP1 POP JUMP JUMPDEST PUSH1 0x0 PUSH2 0x12CA PUSH1 0x1E DUP4 PUSH2 0x162F JUMP JUMPDEST SWAP2 POP PUSH2 0x12D5 DUP3 PUSH2 0x1A97 JUMP JUMPDEST PUSH1 0x20 DUP3 ADD SWAP1 POP SWAP2 SWAP1 POP JUMP JUMPDEST PUSH1 0x0 PUSH2 0x12ED PUSH1 0x1C DUP4 PUSH2 0x162F JUMP JUMPDEST SWAP2 POP PUSH2 0x12F8 DUP3 PUSH2 0x1AC0 JUMP JUMPDEST PUSH1 0x20 DUP3 ADD SWAP1 POP SWAP2 SWAP1 POP JUMP JUMPDEST PUSH1 0x0 PUSH2 0x1310 PUSH1 0x1B DUP4 PUSH2 0x162F JUMP JUMPDEST SWAP2 POP PUSH2 0x131B DUP3 PUSH2 0x1AE9 JUMP JUMPDEST PUSH1 0x20 DUP3 ADD SWAP1 POP SWAP2 SWAP1 POP JUMP JUMPDEST PUSH1 0x0 PUSH2 0x1333 PUSH1 0x10 DUP4 PUSH2 0x162F JUMP JUMPDEST SWAP2 POP PUSH2 0x133E DUP3 PUSH2 0x1B12 JUMP JUMPDEST PUSH1 0x20 DUP3 ADD SWAP1 POP SWAP2 SWAP1 POP JUMP JUMPDEST PUSH1 0x0 PUSH2 0x1356 PUSH1 0x18 DUP4 PUSH2 0x162F JUMP JUMPDEST SWAP2 POP PUSH2 0x1361 DUP3 PUSH2 0x1B3B JUMP JUMPDEST PUSH1 0x20 DUP3 ADD SWAP1 POP SWAP2 SWAP1 POP JUMP JUMPDEST PUSH1 0x0 PUSH2 0x1379 PUSH1 0x25 DUP4 PUSH2 0x162F JUMP JUMPDEST SWAP2 POP PUSH2 0x1384 DUP3 PUSH2 0x1B64 JUMP JUMPDEST PUSH1 0x40 DUP3 ADD SWAP1 POP SWAP2 SWAP1 POP JUMP JUMPDEST PUSH1 0x0 PUSH2 0x139C PUSH1 0x20 DUP4 PUSH2 0x162F JUMP JUMPDEST SWAP2 POP PUSH2 0x13A7 DUP3 PUSH2 0x1BB3 JUMP JUMPDEST PUSH1 0x20 DUP3 ADD SWAP1 POP SWAP2 SWAP1 POP JUMP JUMPDEST PUSH1 0x0 PUSH2 0x13BF PUSH1 0x22 DUP4 PUSH2 0x162F JUMP JUMPDEST SWAP2 POP PUSH2 0x13CA DUP3 PUSH2 0x1BDC JUMP JUMPDEST PUSH1 0x40 DUP3 ADD SWAP1 POP SWAP2 SWAP1 POP JUMP JUMPDEST PUSH1 0x0 PUSH2 0x13E2 PUSH1 0x1D DUP4 PUSH2 0x162F JUMP JUMPDEST SWAP2 POP PUSH2 0x13ED DUP3 PUSH2 0x1C2B JUMP JUMPDEST PUSH1 0x20 DUP3 ADD SWAP1 POP SWAP2 SWAP1 POP JUMP JUMPDEST PUSH2 0x1401 DUP2 PUSH2 0x18D3 JUMP JUMPDEST DUP3 MSTORE POP POP JUMP JUMPDEST PUSH2 0x1410 DUP2 PUSH2 0x18DD JUMP JUMPDEST DUP3 MSTORE POP POP JUMP JUMPDEST PUSH1 0x0 PUSH1 0x20 DUP3 ADD SWAP1 POP PUSH2 0x142B PUSH1 0x0 DUP4 ADD DUP5 PUSH2 0x11FD JUMP JUMPDEST SWAP3 SWAP2 POP POP JUMP JUMPDEST PUSH1 0x0 PUSH1 0x20 DUP3 ADD SWAP1 POP PUSH2 0x1446 PUSH1 0x0 DUP4 ADD DUP5 PUSH2 0x120C JUMP JUMPDEST SWAP3 SWAP2 POP POP JUMP JUMPDEST PUSH1 0x0 PUSH1 0x20 DUP3 ADD SWAP1 POP DUP2 DUP2 SUB PUSH1 0x0 DUP4 ADD MSTORE PUSH2 0x1466 DUP2 DUP5 PUSH2 0x121B JUMP JUMPDEST SWAP1 POP SWAP3 SWAP2 POP POP JUMP JUMPDEST PUSH1 0x0 PUSH1 0x20 DUP3 ADD SWAP1 POP DUP2 DUP2 SUB PUSH1 0x0 DUP4 ADD MSTORE PUSH2 0x1487 DUP2 PUSH2 0x1254 JUMP JUMPDEST SWAP1 POP SWAP2 SWAP1 POP JUMP JUMPDEST PUSH1 0x0 PUSH1 0x20 DUP3 ADD SWAP1 POP DUP2 DUP2 SUB PUSH1 0x0 DUP4 ADD MSTORE PUSH2 0x14A7 DUP2 PUSH2 0x1277 JUMP JUMPDEST SWAP1 POP SWAP2 SWAP1 POP JUMP JUMPDEST PUSH1 0x0 PUSH1 0x20 DUP3 ADD SWAP1 POP DUP2 DUP2 SUB PUSH1 0x0 DUP4 ADD MSTORE PUSH2 0x14C7 DUP2 PUSH2 0x129A JUMP JUMPDEST SWAP1 POP SWAP2 SWAP1 POP JUMP JUMPDEST PUSH1 0x0 PUSH1 0x20 DUP3 ADD SWAP1 POP DUP2 DUP2 SUB PUSH1 0x0 DUP4 ADD MSTORE PUSH2 0x14E7 DUP2 PUSH2 0x12BD JUMP JUMPDEST SWAP1 POP SWAP2 SWAP1 POP JUMP JUMPDEST PUSH1 0x0 PUSH1 0x20 DUP3 ADD SWAP1 POP DUP2 DUP2 SUB PUSH1 0x0 DUP4 ADD MSTORE PUSH2 0x1507 DUP2 PUSH2 0x12E0 JUMP JUMPDEST SWAP1 POP SWAP2 SWAP1 POP JUMP JUMPDEST PUSH1 0x0 PUSH1 0x20 DUP3 ADD SWAP1 POP DUP2 DUP2 SUB PUSH1 0x0 DUP4 ADD MSTORE PUSH2 0x1527 DUP2 PUSH2 0x1303 JUMP JUMPDEST SWAP1 POP SWAP2 SWAP1 POP JUMP JUMPDEST PUSH1 0x0 PUSH1 0x20 DUP3 ADD SWAP1 POP DUP2 DUP2 SUB PUSH1 0x0 DUP4 ADD MSTORE PUSH2 0x1547 DUP2 PUSH2 0x1326 JUMP JUMPDEST SWAP1 POP SWAP2 SWAP1 POP JUMP JUMPDEST PUSH1 0x0 PUSH1 0x20 DUP3 ADD SWAP1 POP DUP2 DUP2 SUB PUSH1 0x0 DUP4 ADD MSTORE PUSH2 0x1567 DUP2 PUSH2 0x1349 JUMP JUMPDEST SWAP1 POP SWAP2 SWAP1 POP JUMP JUMPDEST PUSH1 0x0 PUSH1 0x20 DUP3 ADD SWAP1 POP DUP2 DUP2 SUB PUSH1 0x0 DUP4 ADD MSTORE PUSH2 0x1587 DUP2 PUSH2 0x136C JUMP JUMPDEST SWAP1 POP SWAP2 SWAP1 POP JUMP JUMPDEST PUSH1 0x0 PUSH1 0x20 DUP3 ADD SWAP1 POP DUP2 DUP2 SUB PUSH1 0x0 DUP4 ADD MSTORE PUSH2 0x15A7 DUP2 PUSH2 0x138F JUMP JUMPDEST SWAP1 POP SWAP2 SWAP1 POP JUMP JUMPDEST PUSH1 0x0 PUSH1 0x20 DUP3 ADD SWAP1 POP DUP2 DUP2 SUB PUSH1 0x0 DUP4 ADD MSTORE PUSH2 0x15C7 DUP2 PUSH2 0x13B2 JUMP JUMPDEST SWAP1 POP SWAP2 SWAP1 POP JUMP JUMPDEST PUSH1 0x0 PUSH1 0x20 DUP3 ADD SWAP1 POP DUP2 DUP2 SUB PUSH1 0x0 DUP4 ADD MSTORE PUSH2 0x15E7 DUP2 PUSH2 0x13D5 JUMP JUMPDEST SWAP1 POP SWAP2 SWAP1 POP JUMP JUMPDEST PUSH1 0x0 PUSH1 0x20 DUP3 ADD SWAP1 POP PUSH2 0x1603 PUSH1 0x0 DUP4 ADD DUP5 PUSH2 0x13F8 JUMP JUMPDEST SWAP3 SWAP2 POP POP JUMP JUMPDEST PUSH1 0x0 PUSH1 0x20 DUP3 ADD SWAP1 POP PUSH2 0x161E PUSH1 0x0 DUP4 ADD DUP5 PUSH2 0x1407 JUMP JUMPDEST SWAP3 SWAP2 POP POP JUMP JUMPDEST PUSH1 0x0 DUP2 MLOAD SWAP1 POP SWAP2 SWAP1 POP JUMP JUMPDEST PUSH1 0x0 DUP3 DUP3 MSTORE PUSH1 0x20 DUP3 ADD SWAP1 POP SWAP3 SWAP2 POP POP JUMP JUMPDEST PUSH1 0x0 PUSH2 0x164B DUP3 PUSH2 0x18D3 JUMP JUMPDEST SWAP2 POP PUSH2 0x1656 DUP4 PUSH2 0x18D3 JUMP JUMPDEST SWAP3 POP DUP3 PUSH32 0xFFFFFFFFFFFFFFFFFFFFFFFFFFFFFFFFFFFFFFFFFFFFFFFFFFFFFFFFFFFFFFFF SUB DUP3 GT ISZERO PUSH2 0x168B JUMPI PUSH2 0x168A PUSH2 0x194F JUMP JUMPDEST JUMPDEST DUP3 DUP3 ADD SWAP1 POP SWAP3 SWAP2 POP POP JUMP JUMPDEST PUSH1 0x0 DUP1 DUP3 SWAP2 POP DUP4 SWAP1 POP JUMPDEST PUSH1 0x1 DUP6 GT ISZERO PUSH2 0x16E0 JUMPI DUP1 DUP7 DIV DUP2 GT ISZERO PUSH2 0x16BC JUMPI PUSH2 0x16BB PUSH2 0x194F JUMP JUMPDEST JUMPDEST PUSH1 0x1 DUP6 AND ISZERO PUSH2 0x16CB JUMPI DUP1 DUP3 MUL SWAP2 POP JUMPDEST DUP1 DUP2 MUL SWAP1 POP PUSH2 0x16D9 DUP6 PUSH2 0x19C3 JUMP JUMPDEST SWAP5 POP PUSH2 0x16A0 JUMP JUMPDEST SWAP5 POP SWAP5 SWAP3 POP POP POP JUMP JUMPDEST PUSH1 0x0 PUSH2 0x16F4 DUP3 PUSH2 0x18D3 JUMP JUMPDEST SWAP2 POP PUSH2 0x16FF DUP4 PUSH2 0x18DD JUMP JUMPDEST SWAP3 POP PUSH2 0x172C PUSH32 0xFFFFFFFFFFFFFFFFFFFFFFFFFFFFFFFFFFFFFFFFFFFFFFFFFFFFFFFFFFFFFFFF DUP5 DUP5 PUSH2 0x1734 JUMP JUMPDEST SWAP1 POP SWAP3 SWAP2 POP POP JUMP JUMPDEST PUSH1 0x0 DUP3 PUSH2 0x1744 JUMPI PUSH1 0x1 SWAP1 POP PUSH2 0x1800 JUMP JUMPDEST DUP2 PUSH2 0x1752 JUMPI PUSH1 0x0 SWAP1 POP PUSH2 0x1800 JUMP JUMPDEST DUP2 PUSH1 0x1 DUP2 EQ PUSH2 0x1768 JUMPI PUSH1 0x2 DUP2 EQ PUSH2 0x1772 JUMPI PUSH2 0x17A1 JUMP JUMPDEST PUSH1 0x1 SWAP2 POP POP PUSH2 0x1800 JUMP JUMPDEST PUSH1 0xFF DUP5 GT ISZERO PUSH2 0x1784 JUMPI PUSH2 0x1783 PUSH2 0x194F JUMP JUMPDEST JUMPDEST DUP4 PUSH1 0x2 EXP SWAP2 POP DUP5 DUP3 GT ISZERO PUSH2 0x179B JUMPI PUSH2 0x179A PUSH2 0x194F JUMP JUMPDEST JUMPDEST POP PUSH2 0x1800 JUMP JUMPDEST POP PUSH1 0x20 DUP4 LT PUSH2 0x133 DUP4 LT AND PUSH1 0x4E DUP5 LT PUSH1 0xB DUP5 LT AND OR ISZERO PUSH2 0x17D6 JUMPI DUP3 DUP3 EXP SWAP1 POP DUP4 DUP2 GT ISZERO PUSH2 0x17D1 JUMPI PUSH2 0x17D0 PUSH2 0x194F JUMP JUMPDEST JUMPDEST PUSH2 0x1800 JUMP JUMPDEST PUSH2 0x17E3 DUP5 DUP5 DUP5 PUSH1 0x1 PUSH2 0x1696 JUMP JUMPDEST SWAP3 POP SWAP1 POP DUP2 DUP5 DIV DUP2 GT ISZERO PUSH2 0x17FA JUMPI PUSH2 0x17F9 PUSH2 0x194F JUMP JUMPDEST JUMPDEST DUP2 DUP2 MUL SWAP1 POP JUMPDEST SWAP4 SWAP3 POP POP POP JUMP JUMPDEST PUSH1 0x0 PUSH2 0x1812 DUP3 PUSH2 0x18D3 JUMP JUMPDEST SWAP2 POP PUSH2 0x181D DUP4 PUSH2 0x18D3 JUMP JUMPDEST SWAP3 POP DUP2 PUSH32 0xFFFFFFFFFFFFFFFFFFFFFFFFFFFFFFFFFFFFFFFFFFFFFFFFFFFFFFFFFFFFFFFF DIV DUP4 GT DUP3 ISZERO ISZERO AND ISZERO PUSH2 0x1856 JUMPI PUSH2 0x1855 PUSH2 0x194F JUMP JUMPDEST JUMPDEST DUP3 DUP3 MUL SWAP1 POP SWAP3 SWAP2 POP POP JUMP JUMPDEST PUSH1 0x0 PUSH2 0x186C DUP3 PUSH2 0x18D3 JUMP JUMPDEST SWAP2 POP PUSH2 0x1877 DUP4 PUSH2 0x18D3 JUMP JUMPDEST SWAP3 POP DUP3 DUP3 LT ISZERO PUSH2 0x188A JUMPI PUSH2 0x1889 PUSH2 0x194F JUMP JUMPDEST JUMPDEST DUP3 DUP3 SUB SWAP1 POP SWAP3 SWAP2 POP POP JUMP JUMPDEST PUSH1 0x0 PUSH2 0x18A0 DUP3 PUSH2 0x18B3 JUMP JUMPDEST SWAP1 POP SWAP2 SWAP1 POP JUMP JUMPDEST PUSH1 0x0 DUP2 ISZERO ISZERO SWAP1 POP SWAP2 SWAP1 POP JUMP JUMPDEST PUSH1 0x0 PUSH20 0xFFFFFFFFFFFFFFFFFFFFFFFFFFFFFFFFFFFFFFFF DUP3 AND SWAP1 POP SWAP2 SWAP1 POP JUMP JUMPDEST PUSH1 0x0 DUP2 SWAP1 POP SWAP2 SWAP1 POP JUMP JUMPDEST PUSH1 0x0 PUSH1 0xFF DUP3 AND SWAP1 POP SWAP2 SWAP1 POP JUMP JUMPDEST PUSH1 0x0 JUMPDEST DUP4 DUP2 LT ISZERO PUSH2 0x1908 JUMPI DUP1 DUP3 ADD MLOAD DUP2 DUP5 ADD MSTORE PUSH1 0x20 DUP2 ADD SWAP1 POP PUSH2 0x18ED JUMP JUMPDEST DUP4 DUP2 GT ISZERO PUSH2 0x1917 JUMPI PUSH1 0x0 DUP5 DUP5 ADD MSTORE JUMPDEST POP POP POP POP JUMP JUMPDEST PUSH1 0x0 PUSH1 0x2 DUP3 DIV SWAP1 POP PUSH1 0x1 DUP3 AND DUP1 PUSH2 0x1935 JUMPI PUSH1 0x7F DUP3 AND SWAP2 POP JUMPDEST PUSH1 0x20 DUP3 LT DUP2 EQ ISZERO PUSH2 0x1949 JUMPI PUSH2 0x1948 PUSH2 0x197E JUMP JUMPDEST JUMPDEST POP SWAP2 SWAP1 POP JUMP JUMPDEST PUSH32 0x4E487B7100000000000000000000000000000000000000000000000000000000 PUSH1 0x0 MSTORE PUSH1 0x11 PUSH1 0x4 MSTORE PUSH1 0x24 PUSH1 0x0 REVERT JUMPDEST PUSH32 0x4E487B7100000000000000000000000000000000000000000000000000000000 PUSH1 0x0 MSTORE PUSH1 0x22 PUSH1 0x4 MSTORE PUSH1 0x24 PUSH1 0x0 REVERT JUMPDEST PUSH1 0x0 DUP1 REVERT JUMPDEST PUSH1 0x0 PUSH1 0x1F NOT PUSH1 0x1F DUP4 ADD AND SWAP1 POP SWAP2 SWAP1 POP JUMP JUMPDEST PUSH1 0x0 DUP2 PUSH1 0x1 SHR SWAP1 POP SWAP2 SWAP1 POP JUMP JUMPDEST PUSH32 0x416D6F756E7420657863656564732062616C616E636500000000000000000000 PUSH1 0x0 DUP3 ADD MSTORE POP JUMP JUMPDEST PUSH32 0x63616E6E6F74207370656E6420616C6C6F776E61636520746F20616464726573 PUSH1 0x0 DUP3 ADD MSTORE PUSH32 0x7320300000000000000000000000000000000000000000000000000000000000 PUSH1 0x20 DUP3 ADD MSTORE POP JUMP JUMPDEST PUSH32 0x4F776E61626C653A206E6577206F776E657220697320746865207A65726F2061 PUSH1 0x0 DUP3 ADD MSTORE PUSH32 0x6464726573730000000000000000000000000000000000000000000000000000 PUSH1 0x20 DUP3 ADD MSTORE POP JUMP JUMPDEST PUSH32 0x7472616E736665722066726F6D20746865207A65726F20616464726573730000 PUSH1 0x0 DUP3 ADD MSTORE POP JUMP JUMPDEST PUSH32 0x7472616E7366657220746F20746865207A65726F206164647265737300000000 PUSH1 0x0 DUP3 ADD MSTORE POP JUMP JUMPDEST PUSH32 0x63616E6E6F7420617070726F766520746F206164647265737320300000000000 PUSH1 0x0 DUP3 ADD MSTORE POP JUMP JUMPDEST PUSH32 0x6E6F7420656E6F75676820746F6B656E00000000000000000000000000000000 PUSH1 0x0 DUP3 ADD MSTORE POP JUMP JUMPDEST PUSH32 0x6E6F7420656E6F75676820746F6B656E20616C6C6F7765640000000000000000 PUSH1 0x0 DUP3 ADD MSTORE POP JUMP JUMPDEST PUSH32 0x63616E6E6F74207370656E6420616C6C6F776E6163652066726F6D2061646472 PUSH1 0x0 DUP3 ADD MSTORE PUSH32 0x6573732030000000000000000000000000000000000000000000000000000000 PUSH1 0x20 DUP3 ADD MSTORE POP JUMP JUMPDEST PUSH32 0x4F776E61626C653A2063616C6C6572206973206E6F7420746865206F776E6572 PUSH1 0x0 DUP3 ADD MSTORE POP JUMP JUMPDEST PUSH32 0x416C6C6F77616E63652063616E6E6F74206265206C657373207468616E207A65 PUSH1 0x0 DUP3 ADD MSTORE PUSH32 0x726F000000000000000000000000000000000000000000000000000000000000 PUSH1 0x20 DUP3 ADD MSTORE POP JUMP JUMPDEST PUSH32 0x63616E6E6F7420617070726F76652066726F6D20616464726573732030000000 PUSH1 0x0 DUP3 ADD MSTORE POP JUMP JUMPDEST PUSH2 0x1C5D DUP2 PUSH2 0x1895 JUMP JUMPDEST DUP2 EQ PUSH2 0x1C68 JUMPI PUSH1 0x0 DUP1 REVERT JUMPDEST POP JUMP JUMPDEST PUSH2 0x1C74 DUP2 PUSH2 0x18D3 JUMP JUMPDEST DUP2 EQ PUSH2 0x1C7F JUMPI PUSH1 0x0 DUP1 REVERT JUMPDEST POP JUMP INVALID LOG2 PUSH5 0x6970667358 0x22 SLT KECCAK256 PUSH31 0x2FF22F4C0111D5B3CF064D52D5D871E53F960E9AD09D93BC4D8F2686DEDF7B PUSH5 0x736F6C6343 STOP ADDMOD SMOD STOP CALLER "
				},
				"gasEstimates": {
					"creation": {
						"codeDepositCost": "1470400",
						"executionCost": "infinite",
						"totalCost": "infinite"
					},
					"external": {
						"allowance(address,address)": "infinite",
						"approve(address,uint256)": "infinite",
						"balanceOf(address)": "2930",
						"decimals()": "2524",
						"decreaseAllowance(address,uint256)": "infinite",
						"getOwner()": "2602",
						"increaseAllowance(address,uint256)": "infinite",
						"name()": "infinite",
						"owner()": "2589",
						"renounceOwnership()": "30397",
						"symbol()": "infinite",
						"totalSupply()": "2505",
						"transfer(address,uint256)": "infinite",
						"transferFrom(address,address,uint256)": "infinite",
						"transferOwnership(address)": "30811"
					},
					"internal": {
						"_approve(address,address,uint256)": "infinite",
						"_spendAllowance(address,address,uint256)": "infinite",
						"_transfer(address,address,uint256)": "infinite"
					}
				},
				"methodIdentifiers": {
					"allowance(address,address)": "dd62ed3e",
					"approve(address,uint256)": "095ea7b3",
					"balanceOf(address)": "70a08231",
					"decimals()": "313ce567",
					"decreaseAllowance(address,uint256)": "a457c2d7",
					"getOwner()": "893d20e8",
					"increaseAllowance(address,uint256)": "39509351",
					"name()": "06fdde03",
					"owner()": "8da5cb5b",
					"renounceOwnership()": "715018a6",
					"symbol()": "95d89b41",
					"totalSupply()": "18160ddd",
					"transfer(address,uint256)": "a9059cbb",
					"transferFrom(address,address,uint256)": "23b872dd",
					"transferOwnership(address)": "f2fde38b"
				}
			},
			"storageLayout": {
				"storage": [
					{
						"astId": 7,
						"contract": "contracts/Usdc.sol:USDC",
						"label": "_owner",
						"offset": 0,
						"slot": "0",
						"type": "t_address"
					},
					{
						"astId": 216,
						"contract": "contracts/Usdc.sol:USDC",
						"label": "_balances",
						"offset": 0,
						"slot": "1",
						"type": "t_mapping(t_address,t_uint256)"
					},
					{
						"astId": 222,
						"contract": "contracts/Usdc.sol:USDC",
						"label": "_allowances",
						"offset": 0,
						"slot": "2",
						"type": "t_mapping(t_address,t_mapping(t_address,t_uint256))"
					},
					{
						"astId": 225,
						"contract": "contracts/Usdc.sol:USDC",
						"label": "_tokenName",
						"offset": 0,
						"slot": "3",
						"type": "t_string_storage"
					},
					{
						"astId": 228,
						"contract": "contracts/Usdc.sol:USDC",
						"label": "_tokenSymbol",
						"offset": 0,
						"slot": "4",
						"type": "t_string_storage"
					},
					{
						"astId": 231,
						"contract": "contracts/Usdc.sol:USDC",
						"label": "_decimals",
						"offset": 0,
						"slot": "5",
						"type": "t_uint8"
					},
					{
						"astId": 234,
						"contract": "contracts/Usdc.sol:USDC",
						"label": "_totalSupply",
						"offset": 0,
						"slot": "6",
						"type": "t_uint256"
					}
				],
				"types": {
					"t_address": {
						"encoding": "inplace",
						"label": "address",
						"numberOfBytes": "20"
					},
					"t_mapping(t_address,t_mapping(t_address,t_uint256))": {
						"encoding": "mapping",
						"key": "t_address",
						"label": "mapping(address => mapping(address => uint256))",
						"numberOfBytes": "32",
						"value": "t_mapping(t_address,t_uint256)"
					},
					"t_mapping(t_address,t_uint256)": {
						"encoding": "mapping",
						"key": "t_address",
						"label": "mapping(address => uint256)",
						"numberOfBytes": "32",
						"value": "t_uint256"
					},
					"t_string_storage": {
						"encoding": "bytes",
						"label": "string",
						"numberOfBytes": "32"
					},
					"t_uint256": {
						"encoding": "inplace",
						"label": "uint256",
						"numberOfBytes": "32"
					},
					"t_uint8": {
						"encoding": "inplace",
						"label": "uint8",
						"numberOfBytes": "1"
					}
				}
			},
			"userdoc": {
				"kind": "user",
				"methods": {},
				"version": 1
			}
		}
	}
}