{
	"contracts/TokenSale.sol": {
		"TokenSale": {
			"abi": [
				{
					"inputs": [
						{
							"internalType": "address",
							"name": "_owner",
							"type": "address"
						},
						{
							"internalType": "address payable",
							"name": "tokenAddress_",
							"type": "address"
						},
						{
							"internalType": "uint256",
							"name": "saleStart_",
							"type": "uint256"
						},
						{
							"internalType": "uint256",
							"name": "saleEnd_",
							"type": "uint256"
						},
						{
							"internalType": "address",
							"name": "usdcAddress_",
							"type": "address"
						}
					],
					"stateMutability": "nonpayable",
					"type": "constructor"
				},
				{
					"anonymous": false,
					"inputs": [
						{
							"indexed": true,
							"internalType": "address",
							"name": "previousOwner",
							"type": "address"
						},
						{
							"indexed": true,
							"internalType": "address",
							"name": "newOwner",
							"type": "address"
						}
					],
					"name": "OwnershipTransferred",
					"type": "event"
				},
				{
					"inputs": [
						{
							"internalType": "address payable",
							"name": "_returnAddress",
							"type": "address"
						}
					],
					"name": "Return",
					"outputs": [
						{
							"internalType": "bool",
							"name": "",
							"type": "bool"
						}
					],
					"stateMutability": "payable",
					"type": "function"
				},
				{
					"inputs": [],
					"name": "_usdcInstance",
					"outputs": [
						{
							"internalType": "address",
							"name": "",
							"type": "address"
						}
					],
					"stateMutability": "view",
					"type": "function"
				},
				{
					"inputs": [
						{
							"internalType": "address",
							"name": "add",
							"type": "address"
						}
					],
					"name": "bala",
					"outputs": [
						{
							"internalType": "uint256",
							"name": "",
							"type": "uint256"
						}
					],
					"stateMutability": "view",
					"type": "function"
				},
				{
					"inputs": [],
					"name": "getOwner",
					"outputs": [
						{
							"internalType": "address",
							"name": "",
							"type": "address"
						}
					],
					"stateMutability": "view",
					"type": "function"
				},
				{
					"inputs": [
						{
							"internalType": "address",
							"name": "_address",
							"type": "address"
						}
					],
					"name": "getRecord",
					"outputs": [
						{
							"internalType": "uint256",
							"name": "",
							"type": "uint256"
						}
					],
					"stateMutability": "view",
					"type": "function"
				},
				{
					"inputs": [],
					"name": "owner",
					"outputs": [
						{
							"internalType": "address",
							"name": "",
							"type": "address"
						}
					],
					"stateMutability": "view",
					"type": "function"
				},
				{
					"inputs": [
						{
							"internalType": "uint256",
							"name": "_amount",
							"type": "uint256"
						},
						{
							"internalType": "address",
							"name": "beneficiary",
							"type": "address"
						}
					],
					"name": "purchase",
					"outputs": [],
					"stateMutability": "nonpayable",
					"type": "function"
				},
				{
					"inputs": [],
					"name": "purchases",
					"outputs": [
						{
							"internalType": "address",
							"name": "",
							"type": "address"
						}
					],
					"stateMutability": "view",
					"type": "function"
				},
				{
					"inputs": [],
					"name": "renounceOwnership",
					"outputs": [],
					"stateMutability": "nonpayable",
					"type": "function"
				},
				{
					"inputs": [],
					"name": "saleEnd",
					"outputs": [
						{
							"internalType": "uint256",
							"name": "",
							"type": "uint256"
						}
					],
					"stateMutability": "view",
					"type": "function"
				},
				{
					"inputs": [],
					"name": "saleStart",
					"outputs": [
						{
							"internalType": "uint256",
							"name": "",
							"type": "uint256"
						}
					],
					"stateMutability": "view",
					"type": "function"
				},
				{
					"inputs": [],
					"name": "tokenAddress",
					"outputs": [
						{
							"internalType": "address",
							"name": "",
							"type": "address"
						}
					],
					"stateMutability": "view",
					"type": "function"
				},
				{
					"inputs": [
						{
							"internalType": "address",
							"name": "newOwner",
							"type": "address"
						}
					],
					"name": "transferOwnership",
					"outputs": [],
					"stateMutability": "nonpayable",
					"type": "function"
				},
				{
					"inputs": [
						{
							"internalType": "uint256",
							"name": "updatedSaleEndTime",
							"type": "uint256"
						}
					],
					"name": "updateSaleEndTime",
					"outputs": [],
					"stateMutability": "nonpayable",
					"type": "function"
				},
				{
					"inputs": [
						{
							"internalType": "uint256",
							"name": "updatedSaleStartTime",
							"type": "uint256"
						}
					],
					"name": "updateSaleStartTime",
					"outputs": [],
					"stateMutability": "nonpayable",
					"type": "function"
				},
				{
					"inputs": [
						{
							"internalType": "address",
							"name": "_to",
							"type": "address"
						}
					],
					"name": "withdraw",
					"outputs": [],
					"stateMutability": "payable",
					"type": "function"
				}
			],
			"devdoc": {
				"kind": "dev",
				"methods": {
					"owner()": {
						"details": "Returns the address of the current owner."
					},
					"renounceOwnership()": {
						"details": "Leaves the contract without owner. It will not be possible to call `onlyOwner` functions anymore. Can only be called by the current owner. NOTE: Renouncing ownership will leave the contract without an owner, thereby removing any functionality that is only available to the owner."
					},
					"transferOwnership(address)": {
						"details": "Transfers ownership of the contract to a new account (`newOwner`). Can only be called by the current owner."
					}
				},
				"version": 1
			},
			"evm": {
				"assembly": "    /* \"contracts/TokenSale.sol\":241:3872  contract TokenSale is Ownable{\r... */\n  mstore(0x40, 0x80)\n    /* \"contracts/TokenSale.sol\":592:872  constructor(address _owner,address payable tokenAddress_,uint256 saleStart_,uint256 saleEnd_,address usdcAddress_){\r... */\n  callvalue\n  dup1\n  iszero\n  tag_1\n  jumpi\n  0x00\n  dup1\n  revert\ntag_1:\n  pop\n  mload(0x40)\n  sub(codesize, bytecodeSize)\n  dup1\n  bytecodeSize\n  dup4\n  codecopy\n  dup2\n  dup2\n  add\n  0x40\n  mstore\n  dup2\n  add\n  swap1\n  tag_2\n  swap2\n  swap1\n  tag_3\n  jump\t// in\ntag_2:\n    /* \"@openzeppelin/contracts/access/Ownable.sol\":921:953  _transferOwnership(_msgSender()) */\n  tag_7\n    /* \"@openzeppelin/contracts/access/Ownable.sol\":940:952  _msgSender() */\n  tag_8\n    /* \"@openzeppelin/contracts/access/Ownable.sol\":940:950  _msgSender */\n  shl(0x20, tag_9)\n    /* \"@openzeppelin/contracts/access/Ownable.sol\":940:952  _msgSender() */\n  0x20\n  shr\n  jump\t// in\ntag_8:\n    /* \"@openzeppelin/contracts/access/Ownable.sol\":921:939  _transferOwnership */\n  shl(0x20, tag_10)\n    /* \"@openzeppelin/contracts/access/Ownable.sol\":921:953  _transferOwnership(_msgSender()) */\n  0x20\n  shr\n  jump\t// in\ntag_7:\n    /* \"contracts/TokenSale.sol\":713:739  _transferOwnership(_owner) */\n  tag_12\n    /* \"contracts/TokenSale.sol\":732:738  _owner */\n  dup6\n    /* \"contracts/TokenSale.sol\":713:731  _transferOwnership */\n  shl(0x20, tag_10)\n    /* \"contracts/TokenSale.sol\":713:739  _transferOwnership(_owner) */\n  0x20\n  shr\n  jump\t// in\ntag_12:\n    /* \"contracts/TokenSale.sol\":762:774  usdcAddress_ */\n  dup1\n    /* \"contracts/TokenSale.sol\":746:759  _usdcInstance */\n  0x04\n  0x00\n    /* \"contracts/TokenSale.sol\":746:774  _usdcInstance = usdcAddress_ */\n  0x0100\n  exp\n  dup2\n  sload\n  dup2\n  0xffffffffffffffffffffffffffffffffffffffff\n  mul\n  not\n  and\n  swap1\n  dup4\n  0xffffffffffffffffffffffffffffffffffffffff\n  and\n  mul\n  or\n  swap1\n  sstore\n  pop\n    /* \"contracts/TokenSale.sol\":797:810  tokenAddress_ */\n  dup4\n    /* \"contracts/TokenSale.sol\":781:794  _tokenAddress */\n  0x01\n  0x00\n    /* \"contracts/TokenSale.sol\":781:810  _tokenAddress = tokenAddress_ */\n  0x0100\n  exp\n  dup2\n  sload\n  dup2\n  0xffffffffffffffffffffffffffffffffffffffff\n  mul\n  not\n  and\n  swap1\n  dup4\n  0xffffffffffffffffffffffffffffffffffffffff\n  and\n  mul\n  or\n  swap1\n  sstore\n  pop\n    /* \"contracts/TokenSale.sol\":830:840  saleStart_ */\n  dup3\n    /* \"contracts/TokenSale.sol\":817:827  _saleStart */\n  0x02\n    /* \"contracts/TokenSale.sol\":817:840  _saleStart = saleStart_ */\n  dup2\n  swap1\n  sstore\n  pop\n    /* \"contracts/TokenSale.sol\":858:866  saleEnd_ */\n  dup2\n    /* \"contracts/TokenSale.sol\":847:855  _saleEnd */\n  0x03\n    /* \"contracts/TokenSale.sol\":847:866  _saleEnd = saleEnd_ */\n  dup2\n  swap1\n  sstore\n  pop\n    /* \"contracts/TokenSale.sol\":592:872  constructor(address _owner,address payable tokenAddress_,uint256 saleStart_,uint256 saleEnd_,address usdcAddress_){\r... */\n  pop\n  pop\n  pop\n  pop\n  pop\n    /* \"contracts/TokenSale.sol\":241:3872  contract TokenSale is Ownable{\r... */\n  jump(tag_13)\n    /* \"@openzeppelin/contracts/utils/Context.sol\":640:736  function _msgSender() internal view virtual returns (address) {... */\ntag_9:\n    /* \"@openzeppelin/contracts/utils/Context.sol\":693:700  address */\n  0x00\n    /* \"@openzeppelin/contracts/utils/Context.sol\":719:729  msg.sender */\n  caller\n    /* \"@openzeppelin/contracts/utils/Context.sol\":712:729  return msg.sender */\n  swap1\n  pop\n    /* \"@openzeppelin/contracts/utils/Context.sol\":640:736  function _msgSender() internal view virtual returns (address) {... */\n  swap1\n  jump\t// out\n    /* \"@openzeppelin/contracts/access/Ownable.sol\":2270:2457  function _transferOwnership(address newOwner) internal virtual {... */\ntag_10:\n    /* \"@openzeppelin/contracts/access/Ownable.sol\":2343:2359  address oldOwner */\n  0x00\n    /* \"@openzeppelin/contracts/access/Ownable.sol\":2362:2368  _owner */\n  dup1\n  0x00\n  swap1\n  sload\n  swap1\n  0x0100\n  exp\n  swap1\n  div\n  0xffffffffffffffffffffffffffffffffffffffff\n  and\n    /* \"@openzeppelin/contracts/access/Ownable.sol\":2343:2368  address oldOwner = _owner */\n  swap1\n  pop\n    /* \"@openzeppelin/contracts/access/Ownable.sol\":2387:2395  newOwner */\n  dup2\n    /* \"@openzeppelin/contracts/access/Ownable.sol\":2378:2384  _owner */\n  0x00\n  dup1\n    /* \"@openzeppelin/contracts/access/Ownable.sol\":2378:2395  _owner = newOwner */\n  0x0100\n  exp\n  dup2\n  sload\n  dup2\n  0xffffffffffffffffffffffffffffffffffffffff\n  mul\n  not\n  and\n  swap1\n  dup4\n  0xffffffffffffffffffffffffffffffffffffffff\n  and\n  mul\n  or\n  swap1\n  sstore\n  pop\n    /* \"@openzeppelin/contracts/access/Ownable.sol\":2441:2449  newOwner */\n  dup2\n    /* \"@openzeppelin/contracts/access/Ownable.sol\":2410:2450  OwnershipTransferred(oldOwner, newOwner) */\n  0xffffffffffffffffffffffffffffffffffffffff\n  and\n    /* \"@openzeppelin/contracts/access/Ownable.sol\":2431:2439  oldOwner */\n  dup2\n    /* \"@openzeppelin/contracts/access/Ownable.sol\":2410:2450  OwnershipTransferred(oldOwner, newOwner) */\n  0xffffffffffffffffffffffffffffffffffffffff\n  and\n  0x8be0079c531659141344cd1fd0a4f28419497f9722a3daafe3b4186f6b6457e0\n  mload(0x40)\n  mload(0x40)\n  dup1\n  swap2\n  sub\n  swap1\n  log3\n    /* \"@openzeppelin/contracts/access/Ownable.sol\":2333:2457  {... */\n  pop\n    /* \"@openzeppelin/contracts/access/Ownable.sol\":2270:2457  function _transferOwnership(address newOwner) internal virtual {... */\n  pop\n  jump\t// out\n    /* \"#utility.yul\":7:150   */\ntag_17:\n    /* \"#utility.yul\":64:69   */\n  0x00\n    /* \"#utility.yul\":95:101   */\n  dup2\n    /* \"#utility.yul\":89:102   */\n  mload\n    /* \"#utility.yul\":80:102   */\n  swap1\n  pop\n    /* \"#utility.yul\":111:144   */\n  tag_19\n    /* \"#utility.yul\":138:143   */\n  dup2\n    /* \"#utility.yul\":111:144   */\n  tag_20\n  jump\t// in\ntag_19:\n    /* \"#utility.yul\":7:150   */\n  swap3\n  swap2\n  pop\n  pop\n  jump\t// out\n    /* \"#utility.yul\":156:315   */\ntag_21:\n    /* \"#utility.yul\":221:226   */\n  0x00\n    /* \"#utility.yul\":252:258   */\n  dup2\n    /* \"#utility.yul\":246:259   */\n  mload\n    /* \"#utility.yul\":237:259   */\n  swap1\n  pop\n    /* \"#utility.yul\":268:309   */\n  tag_23\n    /* \"#utility.yul\":303:308   */\n  dup2\n    /* \"#utility.yul\":268:309   */\n  tag_24\n  jump\t// in\ntag_23:\n    /* \"#utility.yul\":156:315   */\n  swap3\n  swap2\n  pop\n  pop\n  jump\t// out\n    /* \"#utility.yul\":321:464   */\ntag_25:\n    /* \"#utility.yul\":378:383   */\n  0x00\n    /* \"#utility.yul\":409:415   */\n  dup2\n    /* \"#utility.yul\":403:416   */\n  mload\n    /* \"#utility.yul\":394:416   */\n  swap1\n  pop\n    /* \"#utility.yul\":425:458   */\n  tag_27\n    /* \"#utility.yul\":452:457   */\n  dup2\n    /* \"#utility.yul\":425:458   */\n  tag_28\n  jump\t// in\ntag_27:\n    /* \"#utility.yul\":321:464   */\n  swap3\n  swap2\n  pop\n  pop\n  jump\t// out\n    /* \"#utility.yul\":470:1463   */\ntag_3:\n    /* \"#utility.yul\":584:590   */\n  0x00\n    /* \"#utility.yul\":592:598   */\n  dup1\n    /* \"#utility.yul\":600:606   */\n  0x00\n    /* \"#utility.yul\":608:614   */\n  dup1\n    /* \"#utility.yul\":616:622   */\n  0x00\n    /* \"#utility.yul\":665:668   */\n  0xa0\n    /* \"#utility.yul\":653:662   */\n  dup7\n    /* \"#utility.yul\":644:651   */\n  dup9\n    /* \"#utility.yul\":640:663   */\n  sub\n    /* \"#utility.yul\":636:669   */\n  slt\n    /* \"#utility.yul\":633:753   */\n  iszero\n  tag_30\n  jumpi\n    /* \"#utility.yul\":672:751   */\n  tag_31\n  tag_32\n  jump\t// in\ntag_31:\n    /* \"#utility.yul\":633:753   */\ntag_30:\n    /* \"#utility.yul\":792:793   */\n  0x00\n    /* \"#utility.yul\":817:881   */\n  tag_33\n    /* \"#utility.yul\":873:880   */\n  dup9\n    /* \"#utility.yul\":864:870   */\n  dup3\n    /* \"#utility.yul\":853:862   */\n  dup10\n    /* \"#utility.yul\":849:871   */\n  add\n    /* \"#utility.yul\":817:881   */\n  tag_17\n  jump\t// in\ntag_33:\n    /* \"#utility.yul\":807:881   */\n  swap6\n  pop\n    /* \"#utility.yul\":763:891   */\n  pop\n    /* \"#utility.yul\":930:932   */\n  0x20\n    /* \"#utility.yul\":956:1028   */\n  tag_34\n    /* \"#utility.yul\":1020:1027   */\n  dup9\n    /* \"#utility.yul\":1011:1017   */\n  dup3\n    /* \"#utility.yul\":1000:1009   */\n  dup10\n    /* \"#utility.yul\":996:1018   */\n  add\n    /* \"#utility.yul\":956:1028   */\n  tag_21\n  jump\t// in\ntag_34:\n    /* \"#utility.yul\":946:1028   */\n  swap5\n  pop\n    /* \"#utility.yul\":901:1038   */\n  pop\n    /* \"#utility.yul\":1077:1079   */\n  0x40\n    /* \"#utility.yul\":1103:1167   */\n  tag_35\n    /* \"#utility.yul\":1159:1166   */\n  dup9\n    /* \"#utility.yul\":1150:1156   */\n  dup3\n    /* \"#utility.yul\":1139:1148   */\n  dup10\n    /* \"#utility.yul\":1135:1157   */\n  add\n    /* \"#utility.yul\":1103:1167   */\n  tag_25\n  jump\t// in\ntag_35:\n    /* \"#utility.yul\":1093:1167   */\n  swap4\n  pop\n    /* \"#utility.yul\":1048:1177   */\n  pop\n    /* \"#utility.yul\":1216:1218   */\n  0x60\n    /* \"#utility.yul\":1242:1306   */\n  tag_36\n    /* \"#utility.yul\":1298:1305   */\n  dup9\n    /* \"#utility.yul\":1289:1295   */\n  dup3\n    /* \"#utility.yul\":1278:1287   */\n  dup10\n    /* \"#utility.yul\":1274:1296   */\n  add\n    /* \"#utility.yul\":1242:1306   */\n  tag_25\n  jump\t// in\ntag_36:\n    /* \"#utility.yul\":1232:1306   */\n  swap3\n  pop\n    /* \"#utility.yul\":1187:1316   */\n  pop\n    /* \"#utility.yul\":1355:1358   */\n  0x80\n    /* \"#utility.yul\":1382:1446   */\n  tag_37\n    /* \"#utility.yul\":1438:1445   */\n  dup9\n    /* \"#utility.yul\":1429:1435   */\n  dup3\n    /* \"#utility.yul\":1418:1427   */\n  dup10\n    /* \"#utility.yul\":1414:1436   */\n  add\n    /* \"#utility.yul\":1382:1446   */\n  tag_17\n  jump\t// in\ntag_37:\n    /* \"#utility.yul\":1372:1446   */\n  swap2\n  pop\n    /* \"#utility.yul\":1326:1456   */\n  pop\n    /* \"#utility.yul\":470:1463   */\n  swap3\n  swap6\n  pop\n  swap3\n  swap6\n  swap1\n  swap4\n  pop\n  jump\t// out\n    /* \"#utility.yul\":1550:1646   */\ntag_40:\n    /* \"#utility.yul\":1587:1594   */\n  0x00\n    /* \"#utility.yul\":1616:1640   */\n  tag_42\n    /* \"#utility.yul\":1634:1639   */\n  dup3\n    /* \"#utility.yul\":1616:1640   */\n  tag_43\n  jump\t// in\ntag_42:\n    /* \"#utility.yul\":1605:1640   */\n  swap1\n  pop\n    /* \"#utility.yul\":1550:1646   */\n  swap2\n  swap1\n  pop\n  jump\t// out\n    /* \"#utility.yul\":1652:1756   */\ntag_44:\n    /* \"#utility.yul\":1697:1704   */\n  0x00\n    /* \"#utility.yul\":1726:1750   */\n  tag_46\n    /* \"#utility.yul\":1744:1749   */\n  dup3\n    /* \"#utility.yul\":1726:1750   */\n  tag_43\n  jump\t// in\ntag_46:\n    /* \"#utility.yul\":1715:1750   */\n  swap1\n  pop\n    /* \"#utility.yul\":1652:1756   */\n  swap2\n  swap1\n  pop\n  jump\t// out\n    /* \"#utility.yul\":1762:1888   */\ntag_43:\n    /* \"#utility.yul\":1799:1806   */\n  0x00\n    /* \"#utility.yul\":1839:1881   */\n  0xffffffffffffffffffffffffffffffffffffffff\n    /* \"#utility.yul\":1832:1837   */\n  dup3\n    /* \"#utility.yul\":1828:1882   */\n  and\n    /* \"#utility.yul\":1817:1882   */\n  swap1\n  pop\n    /* \"#utility.yul\":1762:1888   */\n  swap2\n  swap1\n  pop\n  jump\t// out\n    /* \"#utility.yul\":1894:1971   */\ntag_48:\n    /* \"#utility.yul\":1931:1938   */\n  0x00\n    /* \"#utility.yul\":1960:1965   */\n  dup2\n    /* \"#utility.yul\":1949:1965   */\n  swap1\n  pop\n    /* \"#utility.yul\":1894:1971   */\n  swap2\n  swap1\n  pop\n  jump\t// out\n    /* \"#utility.yul\":2100:2217   */\ntag_32:\n    /* \"#utility.yul\":2209:2210   */\n  0x00\n    /* \"#utility.yul\":2206:2207   */\n  dup1\n    /* \"#utility.yul\":2199:2211   */\n  revert\n    /* \"#utility.yul\":2223:2345   */\ntag_20:\n    /* \"#utility.yul\":2296:2320   */\n  tag_54\n    /* \"#utility.yul\":2314:2319   */\n  dup2\n    /* \"#utility.yul\":2296:2320   */\n  tag_40\n  jump\t// in\ntag_54:\n    /* \"#utility.yul\":2289:2294   */\n  dup2\n    /* \"#utility.yul\":2286:2321   */\n  eq\n    /* \"#utility.yul\":2276:2339   */\n  tag_55\n  jumpi\n    /* \"#utility.yul\":2335:2336   */\n  0x00\n    /* \"#utility.yul\":2332:2333   */\n  dup1\n    /* \"#utility.yul\":2325:2337   */\n  revert\n    /* \"#utility.yul\":2276:2339   */\ntag_55:\n    /* \"#utility.yul\":2223:2345   */\n  pop\n  jump\t// out\n    /* \"#utility.yul\":2351:2489   */\ntag_24:\n    /* \"#utility.yul\":2432:2464   */\n  tag_57\n    /* \"#utility.yul\":2458:2463   */\n  dup2\n    /* \"#utility.yul\":2432:2464   */\n  tag_44\n  jump\t// in\ntag_57:\n    /* \"#utility.yul\":2425:2430   */\n  dup2\n    /* \"#utility.yul\":2422:2465   */\n  eq\n    /* \"#utility.yul\":2412:2483   */\n  tag_58\n  jumpi\n    /* \"#utility.yul\":2479:2480   */\n  0x00\n    /* \"#utility.yul\":2476:2477   */\n  dup1\n    /* \"#utility.yul\":2469:2481   */\n  revert\n    /* \"#utility.yul\":2412:2483   */\ntag_58:\n    /* \"#utility.yul\":2351:2489   */\n  pop\n  jump\t// out\n    /* \"#utility.yul\":2495:2617   */\ntag_28:\n    /* \"#utility.yul\":2568:2592   */\n  tag_60\n    /* \"#utility.yul\":2586:2591   */\n  dup2\n    /* \"#utility.yul\":2568:2592   */\n  tag_48\n  jump\t// in\ntag_60:\n    /* \"#utility.yul\":2561:2566   */\n  dup2\n    /* \"#utility.yul\":2558:2593   */\n  eq\n    /* \"#utility.yul\":2548:2611   */\n  tag_61\n  jumpi\n    /* \"#utility.yul\":2607:2608   */\n  0x00\n    /* \"#utility.yul\":2604:2605   */\n  dup1\n    /* \"#utility.yul\":2597:2609   */\n  revert\n    /* \"#utility.yul\":2548:2611   */\ntag_61:\n    /* \"#utility.yul\":2495:2617   */\n  pop\n  jump\t// out\n    /* \"contracts/TokenSale.sol\":241:3872  contract TokenSale is Ownable{\r... */\ntag_13:\n  dataSize(sub_0)\n  dup1\n  dataOffset(sub_0)\n  0x00\n  codecopy\n  0x00\n  return\nstop\n\nsub_0: assembly {\n        /* \"contracts/TokenSale.sol\":241:3872  contract TokenSale is Ownable{\r... */\n      mstore(0x40, 0x80)\n      jumpi(tag_1, lt(calldatasize, 0x04))\n      shr(0xe0, calldataload(0x00))\n      dup1\n      0x8da5cb5b\n      gt\n      tag_18\n      jumpi\n      dup1\n      0xc10b9358\n      gt\n      tag_19\n      jumpi\n      dup1\n      0xc10b9358\n      eq\n      tag_14\n      jumpi\n      dup1\n      0xde2d583a\n      eq\n      tag_15\n      jumpi\n      dup1\n      0xee3def0e\n      eq\n      tag_16\n      jumpi\n      dup1\n      0xf2fde38b\n      eq\n      tag_17\n      jumpi\n      jump(tag_1)\n    tag_19:\n      dup1\n      0x8da5cb5b\n      eq\n      tag_10\n      jumpi\n      dup1\n      0x9d76ea58\n      eq\n      tag_11\n      jumpi\n      dup1\n      0xab0bcc41\n      eq\n      tag_12\n      jumpi\n      dup1\n      0xae77c237\n      eq\n      tag_13\n      jumpi\n      jump(tag_1)\n    tag_18:\n      dup1\n      0x617fba04\n      gt\n      tag_20\n      jumpi\n      dup1\n      0x617fba04\n      eq\n      tag_6\n      jumpi\n      dup1\n      0x6f9c6149\n      eq\n      tag_7\n      jumpi\n      dup1\n      0x715018a6\n      eq\n      tag_8\n      jumpi\n      dup1\n      0x893d20e8\n      eq\n      tag_9\n      jumpi\n      jump(tag_1)\n    tag_20:\n      dup1\n      0x24076451\n      eq\n      tag_2\n      jumpi\n      dup1\n      0x295e4edf\n      eq\n      tag_3\n      jumpi\n      dup1\n      0x51cff8d9\n      eq\n      tag_4\n      jumpi\n      dup1\n      0x61778592\n      eq\n      tag_5\n      jumpi\n    tag_1:\n      0x00\n      dup1\n      revert\n        /* \"contracts/TokenSale.sol\":1149:1269  function bala(address add) public view virtual returns (uint256){\r... */\n    tag_2:\n      callvalue\n      dup1\n      iszero\n      tag_21\n      jumpi\n      0x00\n      dup1\n      revert\n    tag_21:\n      pop\n      tag_22\n      0x04\n      dup1\n      calldatasize\n      sub\n      dup2\n      add\n      swap1\n      tag_23\n      swap2\n      swap1\n      tag_24\n      jump\t// in\n    tag_23:\n      tag_25\n      jump\t// in\n    tag_22:\n      mload(0x40)\n      tag_26\n      swap2\n      swap1\n      tag_27\n      jump\t// in\n    tag_26:\n      mload(0x40)\n      dup1\n      swap2\n      sub\n      swap1\n      return\n        /* \"contracts/TokenSale.sol\":3625:3748  function updateSaleStartTime(uint256 updatedSaleStartTime) public onlyOwner{\r... */\n    tag_3:\n      callvalue\n      dup1\n      iszero\n      tag_28\n      jumpi\n      0x00\n      dup1\n      revert\n    tag_28:\n      pop\n      tag_29\n      0x04\n      dup1\n      calldatasize\n      sub\n      dup2\n      add\n      swap1\n      tag_30\n      swap2\n      swap1\n      tag_31\n      jump\t// in\n    tag_30:\n      tag_32\n      jump\t// in\n    tag_29:\n      stop\n        /* \"contracts/TokenSale.sol\":2727:3050  function withdraw(address _to) public virtual payable onlyOwner{\r... */\n    tag_4:\n      tag_33\n      0x04\n      dup1\n      calldatasize\n      sub\n      dup2\n      add\n      swap1\n      tag_34\n      swap2\n      swap1\n      tag_24\n      jump\t// in\n    tag_34:\n      tag_35\n      jump\t// in\n    tag_33:\n      stop\n        /* \"contracts/TokenSale.sol\":400:428  address public _usdcInstance */\n    tag_5:\n      callvalue\n      dup1\n      iszero\n      tag_36\n      jumpi\n      0x00\n      dup1\n      revert\n    tag_36:\n      pop\n      tag_37\n      tag_38\n      jump\t// in\n    tag_37:\n      mload(0x40)\n      tag_39\n      swap2\n      swap1\n      tag_40\n      jump\t// in\n    tag_39:\n      mload(0x40)\n      dup1\n      swap2\n      sub\n      swap1\n      return\n        /* \"contracts/TokenSale.sol\":1368:1485  function getRecord(address _address) public virtual view returns(uint256){\r... */\n    tag_6:\n      callvalue\n      dup1\n      iszero\n      tag_41\n      jumpi\n      0x00\n      dup1\n      revert\n    tag_41:\n      pop\n      tag_42\n      0x04\n      dup1\n      calldatasize\n      sub\n      dup2\n      add\n      swap1\n      tag_43\n      swap2\n      swap1\n      tag_24\n      jump\t// in\n    tag_43:\n      tag_44\n      jump\t// in\n    tag_42:\n      mload(0x40)\n      tag_45\n      swap2\n      swap1\n      tag_27\n      jump\t// in\n    tag_45:\n      mload(0x40)\n      dup1\n      swap2\n      sub\n      swap1\n      return\n        /* \"contracts/TokenSale.sol\":3752:3867  function updateSaleEndTime(uint256 updatedSaleEndTime) public onlyOwner{\r... */\n    tag_7:\n      callvalue\n      dup1\n      iszero\n      tag_46\n      jumpi\n      0x00\n      dup1\n      revert\n    tag_46:\n      pop\n      tag_47\n      0x04\n      dup1\n      calldatasize\n      sub\n      dup2\n      add\n      swap1\n      tag_48\n      swap2\n      swap1\n      tag_31\n      jump\t// in\n    tag_48:\n      tag_49\n      jump\t// in\n    tag_47:\n      stop\n        /* \"@openzeppelin/contracts/access/Ownable.sol\":1668:1769  function renounceOwnership() public virtual onlyOwner {... */\n    tag_8:\n      callvalue\n      dup1\n      iszero\n      tag_50\n      jumpi\n      0x00\n      dup1\n      revert\n    tag_50:\n      pop\n      tag_51\n      tag_52\n      jump\t// in\n    tag_51:\n      stop\n        /* \"contracts/TokenSale.sol\":1068:1145  function getOwner() public view returns(address){\r... */\n    tag_9:\n      callvalue\n      dup1\n      iszero\n      tag_53\n      jumpi\n      0x00\n      dup1\n      revert\n    tag_53:\n      pop\n      tag_54\n      tag_55\n      jump\t// in\n    tag_54:\n      mload(0x40)\n      tag_56\n      swap2\n      swap1\n      tag_40\n      jump\t// in\n    tag_56:\n      mload(0x40)\n      dup1\n      swap2\n      sub\n      swap1\n      return\n        /* \"@openzeppelin/contracts/access/Ownable.sol\":1036:1121  function owner() public view virtual returns (address) {... */\n    tag_10:\n      callvalue\n      dup1\n      iszero\n      tag_57\n      jumpi\n      0x00\n      dup1\n      revert\n    tag_57:\n      pop\n      tag_58\n      tag_59\n      jump\t// in\n    tag_58:\n      mload(0x40)\n      tag_60\n      swap2\n      swap1\n      tag_40\n      jump\t// in\n    tag_60:\n      mload(0x40)\n      dup1\n      swap2\n      sub\n      swap1\n      return\n        /* \"contracts/TokenSale.sol\":977:1062  function tokenAddress() public view returns(address){\r... */\n    tag_11:\n      callvalue\n      dup1\n      iszero\n      tag_61\n      jumpi\n      0x00\n      dup1\n      revert\n    tag_61:\n      pop\n      tag_62\n      tag_63\n      jump\t// in\n    tag_62:\n      mload(0x40)\n      tag_64\n      swap2\n      swap1\n      tag_40\n      jump\t// in\n    tag_64:\n      mload(0x40)\n      dup1\n      swap2\n      sub\n      swap1\n      return\n        /* \"contracts/TokenSale.sol\":880:971  function saleStart() public view virtual returns (uint256) {\r... */\n    tag_12:\n      callvalue\n      dup1\n      iszero\n      tag_65\n      jumpi\n      0x00\n      dup1\n      revert\n    tag_65:\n      pop\n      tag_66\n      tag_67\n      jump\t// in\n    tag_66:\n      mload(0x40)\n      tag_68\n      swap2\n      swap1\n      tag_27\n      jump\t// in\n    tag_68:\n      mload(0x40)\n      dup1\n      swap2\n      sub\n      swap1\n      return\n        /* \"contracts/TokenSale.sol\":1491:2502  function purchase(uint256 _amount,address beneficiary) public{\r... */\n    tag_13:\n      callvalue\n      dup1\n      iszero\n      tag_69\n      jumpi\n      0x00\n      dup1\n      revert\n    tag_69:\n      pop\n      tag_70\n      0x04\n      dup1\n      calldatasize\n      sub\n      dup2\n      add\n      swap1\n      tag_71\n      swap2\n      swap1\n      tag_72\n      jump\t// in\n    tag_71:\n      tag_73\n      jump\t// in\n    tag_70:\n      stop\n        /* \"contracts/TokenSale.sol\":1275:1362  function saleEnd() public view virtual returns (uint256) {\r... */\n    tag_14:\n      callvalue\n      dup1\n      iszero\n      tag_74\n      jumpi\n      0x00\n      dup1\n      revert\n    tag_74:\n      pop\n      tag_75\n      tag_76\n      jump\t// in\n    tag_75:\n      mload(0x40)\n      tag_77\n      swap2\n      swap1\n      tag_27\n      jump\t// in\n    tag_77:\n      mload(0x40)\n      dup1\n      swap2\n      sub\n      swap1\n      return\n        /* \"contracts/TokenSale.sol\":3281:3619  function Return(address payable _returnAddress) public payable onlyOwner returns(bool){\r... */\n    tag_15:\n      tag_78\n      0x04\n      dup1\n      calldatasize\n      sub\n      dup2\n      add\n      swap1\n      tag_79\n      swap2\n      swap1\n      tag_80\n      jump\t// in\n    tag_79:\n      tag_81\n      jump\t// in\n    tag_78:\n      mload(0x40)\n      tag_82\n      swap2\n      swap1\n      tag_83\n      jump\t// in\n    tag_82:\n      mload(0x40)\n      dup1\n      swap2\n      sub\n      swap1\n      return\n        /* \"contracts/TokenSale.sol\":2508:2721  function purchases() public view returns(address) {\r... */\n    tag_16:\n      callvalue\n      dup1\n      iszero\n      tag_84\n      jumpi\n      0x00\n      dup1\n      revert\n    tag_84:\n      pop\n      tag_85\n      tag_86\n      jump\t// in\n    tag_85:\n      mload(0x40)\n      tag_87\n      swap2\n      swap1\n      tag_40\n      jump\t// in\n    tag_87:\n      mload(0x40)\n      dup1\n      swap2\n      sub\n      swap1\n      return\n        /* \"@openzeppelin/contracts/access/Ownable.sol\":1918:2116  function transferOwnership(address newOwner) public virtual onlyOwner {... */\n    tag_17:\n      callvalue\n      dup1\n      iszero\n      tag_88\n      jumpi\n      0x00\n      dup1\n      revert\n    tag_88:\n      pop\n      tag_89\n      0x04\n      dup1\n      calldatasize\n      sub\n      dup2\n      add\n      swap1\n      tag_90\n      swap2\n      swap1\n      tag_24\n      jump\t// in\n    tag_90:\n      tag_91\n      jump\t// in\n    tag_89:\n      stop\n        /* \"contracts/TokenSale.sol\":1149:1269  function bala(address add) public view virtual returns (uint256){\r... */\n    tag_25:\n        /* \"contracts/TokenSale.sol\":1205:1212  uint256 */\n      0x00\n        /* \"contracts/TokenSale.sol\":1234:1247  _usdcInstance */\n      0x04\n      0x00\n      swap1\n      sload\n      swap1\n      0x0100\n      exp\n      swap1\n      div\n      0xffffffffffffffffffffffffffffffffffffffff\n      and\n        /* \"contracts/TokenSale.sol\":1227:1258  IERC20(_usdcInstance).balanceOf */\n      0xffffffffffffffffffffffffffffffffffffffff\n      and\n      0x70a08231\n        /* \"contracts/TokenSale.sol\":1259:1262  add */\n      dup4\n        /* \"contracts/TokenSale.sol\":1227:1263  IERC20(_usdcInstance).balanceOf(add) */\n      mload(0x40)\n      dup3\n      0xffffffff\n      and\n      0xe0\n      shl\n      dup2\n      mstore\n      0x04\n      add\n      tag_93\n      swap2\n      swap1\n      tag_40\n      jump\t// in\n    tag_93:\n      0x20\n      mload(0x40)\n      dup1\n      dup4\n      sub\n      dup2\n      dup7\n      dup1\n      extcodesize\n      iszero\n      dup1\n      iszero\n      tag_94\n      jumpi\n      0x00\n      dup1\n      revert\n    tag_94:\n      pop\n      gas\n      staticcall\n      iszero\n      dup1\n      iszero\n      tag_96\n      jumpi\n      returndatasize\n      0x00\n      dup1\n      returndatacopy\n      revert(0x00, returndatasize)\n    tag_96:\n      pop\n      pop\n      pop\n      pop\n      mload(0x40)\n      returndatasize\n      not(0x1f)\n      0x1f\n      dup3\n      add\n      and\n      dup3\n      add\n      dup1\n      0x40\n      mstore\n      pop\n      dup2\n      add\n      swap1\n      tag_97\n      swap2\n      swap1\n      tag_98\n      jump\t// in\n    tag_97:\n        /* \"contracts/TokenSale.sol\":1220:1263  return IERC20(_usdcInstance).balanceOf(add) */\n      swap1\n      pop\n        /* \"contracts/TokenSale.sol\":1149:1269  function bala(address add) public view virtual returns (uint256){\r... */\n      swap2\n      swap1\n      pop\n      jump\t// out\n        /* \"contracts/TokenSale.sol\":3625:3748  function updateSaleStartTime(uint256 updatedSaleStartTime) public onlyOwner{\r... */\n    tag_32:\n        /* \"@openzeppelin/contracts/access/Ownable.sol\":1259:1271  _msgSender() */\n      tag_100\n        /* \"@openzeppelin/contracts/access/Ownable.sol\":1259:1269  _msgSender */\n      tag_101\n        /* \"@openzeppelin/contracts/access/Ownable.sol\":1259:1271  _msgSender() */\n      jump\t// in\n    tag_100:\n        /* \"@openzeppelin/contracts/access/Ownable.sol\":1248:1271  owner() == _msgSender() */\n      0xffffffffffffffffffffffffffffffffffffffff\n      and\n        /* \"@openzeppelin/contracts/access/Ownable.sol\":1248:1255  owner() */\n      tag_102\n        /* \"@openzeppelin/contracts/access/Ownable.sol\":1248:1253  owner */\n      tag_59\n        /* \"@openzeppelin/contracts/access/Ownable.sol\":1248:1255  owner() */\n      jump\t// in\n    tag_102:\n        /* \"@openzeppelin/contracts/access/Ownable.sol\":1248:1271  owner() == _msgSender() */\n      0xffffffffffffffffffffffffffffffffffffffff\n      and\n      eq\n        /* \"@openzeppelin/contracts/access/Ownable.sol\":1240:1308  require(owner() == _msgSender(), \"Ownable: caller is not the owner\") */\n      tag_103\n      jumpi\n      mload(0x40)\n      0x08c379a000000000000000000000000000000000000000000000000000000000\n      dup2\n      mstore\n      0x04\n      add\n      tag_104\n      swap1\n      tag_105\n      jump\t// in\n    tag_104:\n      mload(0x40)\n      dup1\n      swap2\n      sub\n      swap1\n      revert\n    tag_103:\n        /* \"contracts/TokenSale.sol\":3722:3742  updatedSaleStartTime */\n      dup1\n        /* \"contracts/TokenSale.sol\":3709:3719  _saleStart */\n      0x02\n        /* \"contracts/TokenSale.sol\":3709:3742  _saleStart = updatedSaleStartTime */\n      dup2\n      swap1\n      sstore\n      pop\n        /* \"contracts/TokenSale.sol\":3625:3748  function updateSaleStartTime(uint256 updatedSaleStartTime) public onlyOwner{\r... */\n      pop\n      jump\t// out\n        /* \"contracts/TokenSale.sol\":2727:3050  function withdraw(address _to) public virtual payable onlyOwner{\r... */\n    tag_35:\n        /* \"@openzeppelin/contracts/access/Ownable.sol\":1259:1271  _msgSender() */\n      tag_108\n        /* \"@openzeppelin/contracts/access/Ownable.sol\":1259:1269  _msgSender */\n      tag_101\n        /* \"@openzeppelin/contracts/access/Ownable.sol\":1259:1271  _msgSender() */\n      jump\t// in\n    tag_108:\n        /* \"@openzeppelin/contracts/access/Ownable.sol\":1248:1271  owner() == _msgSender() */\n      0xffffffffffffffffffffffffffffffffffffffff\n      and\n        /* \"@openzeppelin/contracts/access/Ownable.sol\":1248:1255  owner() */\n      tag_109\n        /* \"@openzeppelin/contracts/access/Ownable.sol\":1248:1253  owner */\n      tag_59\n        /* \"@openzeppelin/contracts/access/Ownable.sol\":1248:1255  owner() */\n      jump\t// in\n    tag_109:\n        /* \"@openzeppelin/contracts/access/Ownable.sol\":1248:1271  owner() == _msgSender() */\n      0xffffffffffffffffffffffffffffffffffffffff\n      and\n      eq\n        /* \"@openzeppelin/contracts/access/Ownable.sol\":1240:1308  require(owner() == _msgSender(), \"Ownable: caller is not the owner\") */\n      tag_110\n      jumpi\n      mload(0x40)\n      0x08c379a000000000000000000000000000000000000000000000000000000000\n      dup2\n      mstore\n      0x04\n      add\n      tag_111\n      swap1\n      tag_105\n      jump\t// in\n    tag_111:\n      mload(0x40)\n      dup1\n      swap2\n      sub\n      swap1\n      revert\n    tag_110:\n        /* \"contracts/TokenSale.sol\":2823:2831  _saleEnd */\n      sload(0x03)\n        /* \"contracts/TokenSale.sol\":2807:2822  block.timestamp */\n      timestamp\n        /* \"contracts/TokenSale.sol\":2807:2831  block.timestamp>_saleEnd */\n      gt\n        /* \"contracts/TokenSale.sol\":2799:2852  require(block.timestamp>_saleEnd,\"Sale hasn't ended\") */\n      tag_113\n      jumpi\n      mload(0x40)\n      0x08c379a000000000000000000000000000000000000000000000000000000000\n      dup2\n      mstore\n      0x04\n      add\n      tag_114\n      swap1\n      tag_115\n      jump\t// in\n    tag_114:\n      mload(0x40)\n      dup1\n      swap2\n      sub\n      swap1\n      revert\n    tag_113:\n        /* \"contracts/TokenSale.sol\":2861:2948  IERC20(_usdcInstance).safeTransfer(_to, IERC20(_usdcInstance).balanceOf(_tokenAddress)) */\n      tag_116\n        /* \"contracts/TokenSale.sol\":2896:2899  _to */\n      dup2\n        /* \"contracts/TokenSale.sol\":2908:2921  _usdcInstance */\n      0x04\n      0x00\n      swap1\n      sload\n      swap1\n      0x0100\n      exp\n      swap1\n      div\n      0xffffffffffffffffffffffffffffffffffffffff\n      and\n        /* \"contracts/TokenSale.sol\":2901:2932  IERC20(_usdcInstance).balanceOf */\n      0xffffffffffffffffffffffffffffffffffffffff\n      and\n      0x70a08231\n        /* \"contracts/TokenSale.sol\":2933:2946  _tokenAddress */\n      0x01\n      0x00\n      swap1\n      sload\n      swap1\n      0x0100\n      exp\n      swap1\n      div\n      0xffffffffffffffffffffffffffffffffffffffff\n      and\n        /* \"contracts/TokenSale.sol\":2901:2947  IERC20(_usdcInstance).balanceOf(_tokenAddress) */\n      mload(0x40)\n      dup3\n      0xffffffff\n      and\n      0xe0\n      shl\n      dup2\n      mstore\n      0x04\n      add\n      tag_117\n      swap2\n      swap1\n      tag_40\n      jump\t// in\n    tag_117:\n      0x20\n      mload(0x40)\n      dup1\n      dup4\n      sub\n      dup2\n      dup7\n      dup1\n      extcodesize\n      iszero\n      dup1\n      iszero\n      tag_118\n      jumpi\n      0x00\n      dup1\n      revert\n    tag_118:\n      pop\n      gas\n      staticcall\n      iszero\n      dup1\n      iszero\n      tag_120\n      jumpi\n      returndatasize\n      0x00\n      dup1\n      returndatacopy\n      revert(0x00, returndatasize)\n    tag_120:\n      pop\n      pop\n      pop\n      pop\n      mload(0x40)\n      returndatasize\n      not(0x1f)\n      0x1f\n      dup3\n      add\n      and\n      dup3\n      add\n      dup1\n      0x40\n      mstore\n      pop\n      dup2\n      add\n      swap1\n      tag_121\n      swap2\n      swap1\n      tag_98\n      jump\t// in\n    tag_121:\n        /* \"contracts/TokenSale.sol\":2868:2881  _usdcInstance */\n      0x04\n      0x00\n      swap1\n      sload\n      swap1\n      0x0100\n      exp\n      swap1\n      div\n      0xffffffffffffffffffffffffffffffffffffffff\n      and\n        /* \"contracts/TokenSale.sol\":2861:2895  IERC20(_usdcInstance).safeTransfer */\n      0xffffffffffffffffffffffffffffffffffffffff\n      and\n      tag_122\n      swap1\n        /* \"contracts/TokenSale.sol\":2861:2948  IERC20(_usdcInstance).safeTransfer(_to, IERC20(_usdcInstance).balanceOf(_tokenAddress)) */\n      swap3\n      swap2\n      swap1\n      0xffffffff\n      and\n      jump\t// in\n    tag_116:\n        /* \"contracts/TokenSale.sol\":2957:3044  IERC20(_usdcInstance).safeTransfer(_to, IERC20(_usdcInstance).balanceOf(_tokenAddress)) */\n      tag_123\n        /* \"contracts/TokenSale.sol\":2992:2995  _to */\n      dup2\n        /* \"contracts/TokenSale.sol\":3004:3017  _usdcInstance */\n      0x04\n      0x00\n      swap1\n      sload\n      swap1\n      0x0100\n      exp\n      swap1\n      div\n      0xffffffffffffffffffffffffffffffffffffffff\n      and\n        /* \"contracts/TokenSale.sol\":2997:3028  IERC20(_usdcInstance).balanceOf */\n      0xffffffffffffffffffffffffffffffffffffffff\n      and\n      0x70a08231\n        /* \"contracts/TokenSale.sol\":3029:3042  _tokenAddress */\n      0x01\n      0x00\n      swap1\n      sload\n      swap1\n      0x0100\n      exp\n      swap1\n      div\n      0xffffffffffffffffffffffffffffffffffffffff\n      and\n        /* \"contracts/TokenSale.sol\":2997:3043  IERC20(_usdcInstance).balanceOf(_tokenAddress) */\n      mload(0x40)\n      dup3\n      0xffffffff\n      and\n      0xe0\n      shl\n      dup2\n      mstore\n      0x04\n      add\n      tag_124\n      swap2\n      swap1\n      tag_40\n      jump\t// in\n    tag_124:\n      0x20\n      mload(0x40)\n      dup1\n      dup4\n      sub\n      dup2\n      dup7\n      dup1\n      extcodesize\n      iszero\n      dup1\n      iszero\n      tag_125\n      jumpi\n      0x00\n      dup1\n      revert\n    tag_125:\n      pop\n      gas\n      staticcall\n      iszero\n      dup1\n      iszero\n      tag_127\n      jumpi\n      returndatasize\n      0x00\n      dup1\n      returndatacopy\n      revert(0x00, returndatasize)\n    tag_127:\n      pop\n      pop\n      pop\n      pop\n      mload(0x40)\n      returndatasize\n      not(0x1f)\n      0x1f\n      dup3\n      add\n      and\n      dup3\n      add\n      dup1\n      0x40\n      mstore\n      pop\n      dup2\n      add\n      swap1\n      tag_128\n      swap2\n      swap1\n      tag_98\n      jump\t// in\n    tag_128:\n        /* \"contracts/TokenSale.sol\":2964:2977  _usdcInstance */\n      0x04\n      0x00\n      swap1\n      sload\n      swap1\n      0x0100\n      exp\n      swap1\n      div\n      0xffffffffffffffffffffffffffffffffffffffff\n      and\n        /* \"contracts/TokenSale.sol\":2957:2991  IERC20(_usdcInstance).safeTransfer */\n      0xffffffffffffffffffffffffffffffffffffffff\n      and\n      tag_122\n      swap1\n        /* \"contracts/TokenSale.sol\":2957:3044  IERC20(_usdcInstance).safeTransfer(_to, IERC20(_usdcInstance).balanceOf(_tokenAddress)) */\n      swap3\n      swap2\n      swap1\n      0xffffffff\n      and\n      jump\t// in\n    tag_123:\n        /* \"contracts/TokenSale.sol\":2727:3050  function withdraw(address _to) public virtual payable onlyOwner{\r... */\n      pop\n      jump\t// out\n        /* \"contracts/TokenSale.sol\":400:428  address public _usdcInstance */\n    tag_38:\n      0x04\n      0x00\n      swap1\n      sload\n      swap1\n      0x0100\n      exp\n      swap1\n      div\n      0xffffffffffffffffffffffffffffffffffffffff\n      and\n      dup2\n      jump\t// out\n        /* \"contracts/TokenSale.sol\":1368:1485  function getRecord(address _address) public virtual view returns(uint256){\r... */\n    tag_44:\n        /* \"contracts/TokenSale.sol\":1433:1440  uint256 */\n      0x00\n        /* \"contracts/TokenSale.sol\":1455:1461  record */\n      0x05\n        /* \"contracts/TokenSale.sol\":1455:1471  record[_address] */\n      0x00\n        /* \"contracts/TokenSale.sol\":1462:1470  _address */\n      dup4\n        /* \"contracts/TokenSale.sol\":1455:1471  record[_address] */\n      0xffffffffffffffffffffffffffffffffffffffff\n      and\n      0xffffffffffffffffffffffffffffffffffffffff\n      and\n      dup2\n      mstore\n      0x20\n      add\n      swap1\n      dup2\n      mstore\n      0x20\n      add\n      0x00\n      keccak256\n        /* \"contracts/TokenSale.sol\":1455:1479  record[_address]._amount */\n      0x00\n      add\n      sload\n        /* \"contracts/TokenSale.sol\":1448:1479  return record[_address]._amount */\n      swap1\n      pop\n        /* \"contracts/TokenSale.sol\":1368:1485  function getRecord(address _address) public virtual view returns(uint256){\r... */\n      swap2\n      swap1\n      pop\n      jump\t// out\n        /* \"contracts/TokenSale.sol\":3752:3867  function updateSaleEndTime(uint256 updatedSaleEndTime) public onlyOwner{\r... */\n    tag_49:\n        /* \"@openzeppelin/contracts/access/Ownable.sol\":1259:1271  _msgSender() */\n      tag_131\n        /* \"@openzeppelin/contracts/access/Ownable.sol\":1259:1269  _msgSender */\n      tag_101\n        /* \"@openzeppelin/contracts/access/Ownable.sol\":1259:1271  _msgSender() */\n      jump\t// in\n    tag_131:\n        /* \"@openzeppelin/contracts/access/Ownable.sol\":1248:1271  owner() == _msgSender() */\n      0xffffffffffffffffffffffffffffffffffffffff\n      and\n        /* \"@openzeppelin/contracts/access/Ownable.sol\":1248:1255  owner() */\n      tag_132\n        /* \"@openzeppelin/contracts/access/Ownable.sol\":1248:1253  owner */\n      tag_59\n        /* \"@openzeppelin/contracts/access/Ownable.sol\":1248:1255  owner() */\n      jump\t// in\n    tag_132:\n        /* \"@openzeppelin/contracts/access/Ownable.sol\":1248:1271  owner() == _msgSender() */\n      0xffffffffffffffffffffffffffffffffffffffff\n      and\n      eq\n        /* \"@openzeppelin/contracts/access/Ownable.sol\":1240:1308  require(owner() == _msgSender(), \"Ownable: caller is not the owner\") */\n      tag_133\n      jumpi\n      mload(0x40)\n      0x08c379a000000000000000000000000000000000000000000000000000000000\n      dup2\n      mstore\n      0x04\n      add\n      tag_134\n      swap1\n      tag_105\n      jump\t// in\n    tag_134:\n      mload(0x40)\n      dup1\n      swap2\n      sub\n      swap1\n      revert\n    tag_133:\n        /* \"contracts/TokenSale.sol\":3843:3861  updatedSaleEndTime */\n      dup1\n        /* \"contracts/TokenSale.sol\":3832:3840  _saleEnd */\n      0x03\n        /* \"contracts/TokenSale.sol\":3832:3861  _saleEnd = updatedSaleEndTime */\n      dup2\n      swap1\n      sstore\n      pop\n        /* \"contracts/TokenSale.sol\":3752:3867  function updateSaleEndTime(uint256 updatedSaleEndTime) public onlyOwner{\r... */\n      pop\n      jump\t// out\n        /* \"@openzeppelin/contracts/access/Ownable.sol\":1668:1769  function renounceOwnership() public virtual onlyOwner {... */\n    tag_52:\n        /* \"@openzeppelin/contracts/access/Ownable.sol\":1259:1271  _msgSender() */\n      tag_137\n        /* \"@openzeppelin/contracts/access/Ownable.sol\":1259:1269  _msgSender */\n      tag_101\n        /* \"@openzeppelin/contracts/access/Ownable.sol\":1259:1271  _msgSender() */\n      jump\t// in\n    tag_137:\n        /* \"@openzeppelin/contracts/access/Ownable.sol\":1248:1271  owner() == _msgSender() */\n      0xffffffffffffffffffffffffffffffffffffffff\n      and\n        /* \"@openzeppelin/contracts/access/Ownable.sol\":1248:1255  owner() */\n      tag_138\n        /* \"@openzeppelin/contracts/access/Ownable.sol\":1248:1253  owner */\n      tag_59\n        /* \"@openzeppelin/contracts/access/Ownable.sol\":1248:1255  owner() */\n      jump\t// in\n    tag_138:\n        /* \"@openzeppelin/contracts/access/Ownable.sol\":1248:1271  owner() == _msgSender() */\n      0xffffffffffffffffffffffffffffffffffffffff\n      and\n      eq\n        /* \"@openzeppelin/contracts/access/Ownable.sol\":1240:1308  require(owner() == _msgSender(), \"Ownable: caller is not the owner\") */\n      tag_139\n      jumpi\n      mload(0x40)\n      0x08c379a000000000000000000000000000000000000000000000000000000000\n      dup2\n      mstore\n      0x04\n      add\n      tag_140\n      swap1\n      tag_105\n      jump\t// in\n    tag_140:\n      mload(0x40)\n      dup1\n      swap2\n      sub\n      swap1\n      revert\n    tag_139:\n        /* \"@openzeppelin/contracts/access/Ownable.sol\":1732:1762  _transferOwnership(address(0)) */\n      tag_142\n        /* \"@openzeppelin/contracts/access/Ownable.sol\":1759:1760  0 */\n      0x00\n        /* \"@openzeppelin/contracts/access/Ownable.sol\":1732:1750  _transferOwnership */\n      tag_143\n        /* \"@openzeppelin/contracts/access/Ownable.sol\":1732:1762  _transferOwnership(address(0)) */\n      jump\t// in\n    tag_142:\n        /* \"@openzeppelin/contracts/access/Ownable.sol\":1668:1769  function renounceOwnership() public virtual onlyOwner {... */\n      jump\t// out\n        /* \"contracts/TokenSale.sol\":1068:1145  function getOwner() public view returns(address){\r... */\n    tag_55:\n        /* \"contracts/TokenSale.sol\":1108:1115  address */\n      0x00\n        /* \"contracts/TokenSale.sol\":1132:1139  owner() */\n      tag_145\n        /* \"contracts/TokenSale.sol\":1132:1137  owner */\n      tag_59\n        /* \"contracts/TokenSale.sol\":1132:1139  owner() */\n      jump\t// in\n    tag_145:\n        /* \"contracts/TokenSale.sol\":1125:1139  return owner() */\n      swap1\n      pop\n        /* \"contracts/TokenSale.sol\":1068:1145  function getOwner() public view returns(address){\r... */\n      swap1\n      jump\t// out\n        /* \"@openzeppelin/contracts/access/Ownable.sol\":1036:1121  function owner() public view virtual returns (address) {... */\n    tag_59:\n        /* \"@openzeppelin/contracts/access/Ownable.sol\":1082:1089  address */\n      0x00\n        /* \"@openzeppelin/contracts/access/Ownable.sol\":1108:1114  _owner */\n      dup1\n      0x00\n      swap1\n      sload\n      swap1\n      0x0100\n      exp\n      swap1\n      div\n      0xffffffffffffffffffffffffffffffffffffffff\n      and\n        /* \"@openzeppelin/contracts/access/Ownable.sol\":1101:1114  return _owner */\n      swap1\n      pop\n        /* \"@openzeppelin/contracts/access/Ownable.sol\":1036:1121  function owner() public view virtual returns (address) {... */\n      swap1\n      jump\t// out\n        /* \"contracts/TokenSale.sol\":977:1062  function tokenAddress() public view returns(address){\r... */\n    tag_63:\n        /* \"contracts/TokenSale.sol\":1021:1028  address */\n      0x00\n        /* \"contracts/TokenSale.sol\":1043:1056  _tokenAddress */\n      0x01\n      0x00\n      swap1\n      sload\n      swap1\n      0x0100\n      exp\n      swap1\n      div\n      0xffffffffffffffffffffffffffffffffffffffff\n      and\n        /* \"contracts/TokenSale.sol\":1036:1056  return _tokenAddress */\n      swap1\n      pop\n        /* \"contracts/TokenSale.sol\":977:1062  function tokenAddress() public view returns(address){\r... */\n      swap1\n      jump\t// out\n        /* \"contracts/TokenSale.sol\":880:971  function saleStart() public view virtual returns (uint256) {\r... */\n    tag_67:\n        /* \"contracts/TokenSale.sol\":930:937  uint256 */\n      0x00\n        /* \"contracts/TokenSale.sol\":955:965  _saleStart */\n      sload(0x02)\n        /* \"contracts/TokenSale.sol\":948:965  return _saleStart */\n      swap1\n      pop\n        /* \"contracts/TokenSale.sol\":880:971  function saleStart() public view virtual returns (uint256) {\r... */\n      swap1\n      jump\t// out\n        /* \"contracts/TokenSale.sol\":1491:2502  function purchase(uint256 _amount,address beneficiary) public{\r... */\n    tag_73:\n        /* \"contracts/TokenSale.sol\":1586:1596  _saleStart */\n      sload(0x02)\n        /* \"contracts/TokenSale.sol\":1569:1584  block.timestamp */\n      timestamp\n        /* \"contracts/TokenSale.sol\":1569:1596  block.timestamp>=_saleStart */\n      lt\n      iszero\n        /* \"contracts/TokenSale.sol\":1561:1623  require(block.timestamp>=_saleStart,\"Sale hasn't started yet\") */\n      tag_150\n      jumpi\n      mload(0x40)\n      0x08c379a000000000000000000000000000000000000000000000000000000000\n      dup2\n      mstore\n      0x04\n      add\n      tag_151\n      swap1\n      tag_152\n      jump\t// in\n    tag_151:\n      mload(0x40)\n      dup1\n      swap2\n      sub\n      swap1\n      revert\n    tag_150:\n        /* \"contracts/TokenSale.sol\":1657:1665  _saleEnd */\n      sload(0x03)\n        /* \"contracts/TokenSale.sol\":1640:1655  block.timestamp */\n      timestamp\n        /* \"contracts/TokenSale.sol\":1640:1665  block.timestamp<=_saleEnd */\n      gt\n      iszero\n        /* \"contracts/TokenSale.sol\":1632:1683  require(block.timestamp<=_saleEnd,\"Sale has ended\") */\n      tag_153\n      jumpi\n      mload(0x40)\n      0x08c379a000000000000000000000000000000000000000000000000000000000\n      dup2\n      mstore\n      0x04\n      add\n      tag_154\n      swap1\n      tag_155\n      jump\t// in\n    tag_154:\n      mload(0x40)\n      dup1\n      swap2\n      sub\n      swap1\n      revert\n    tag_153:\n        /* \"contracts/TokenSale.sol\":1746:1819  IERC20(_usdcInstance).safeTransferFrom(msg.sender,_tokenAddress, _amount) */\n      tag_156\n        /* \"contracts/TokenSale.sol\":1785:1795  msg.sender */\n      caller\n        /* \"contracts/TokenSale.sol\":1796:1809  _tokenAddress */\n      0x01\n      0x00\n      swap1\n      sload\n      swap1\n      0x0100\n      exp\n      swap1\n      div\n      0xffffffffffffffffffffffffffffffffffffffff\n      and\n        /* \"contracts/TokenSale.sol\":1811:1818  _amount */\n      dup5\n        /* \"contracts/TokenSale.sol\":1753:1766  _usdcInstance */\n      0x04\n      0x00\n      swap1\n      sload\n      swap1\n      0x0100\n      exp\n      swap1\n      div\n      0xffffffffffffffffffffffffffffffffffffffff\n      and\n        /* \"contracts/TokenSale.sol\":1746:1784  IERC20(_usdcInstance).safeTransferFrom */\n      0xffffffffffffffffffffffffffffffffffffffff\n      and\n      tag_157\n      swap1\n        /* \"contracts/TokenSale.sol\":1746:1819  IERC20(_usdcInstance).safeTransferFrom(msg.sender,_tokenAddress, _amount) */\n      swap4\n      swap3\n      swap2\n      swap1\n      0xffffffff\n      and\n      jump\t// in\n    tag_156:\n        /* \"contracts/TokenSale.sol\":1491:2502  function purchase(uint256 _amount,address beneficiary) public{\r... */\n      pop\n      pop\n      jump\t// out\n        /* \"contracts/TokenSale.sol\":1275:1362  function saleEnd() public view virtual returns (uint256) {\r... */\n    tag_76:\n        /* \"contracts/TokenSale.sol\":1323:1330  uint256 */\n      0x00\n        /* \"contracts/TokenSale.sol\":1348:1356  _saleEnd */\n      sload(0x03)\n        /* \"contracts/TokenSale.sol\":1341:1356  return _saleEnd */\n      swap1\n      pop\n        /* \"contracts/TokenSale.sol\":1275:1362  function saleEnd() public view virtual returns (uint256) {\r... */\n      swap1\n      jump\t// out\n        /* \"contracts/TokenSale.sol\":3281:3619  function Return(address payable _returnAddress) public payable onlyOwner returns(bool){\r... */\n    tag_81:\n        /* \"contracts/TokenSale.sol\":3362:3366  bool */\n      0x00\n        /* \"@openzeppelin/contracts/access/Ownable.sol\":1259:1271  _msgSender() */\n      tag_160\n        /* \"@openzeppelin/contracts/access/Ownable.sol\":1259:1269  _msgSender */\n      tag_101\n        /* \"@openzeppelin/contracts/access/Ownable.sol\":1259:1271  _msgSender() */\n      jump\t// in\n    tag_160:\n        /* \"@openzeppelin/contracts/access/Ownable.sol\":1248:1271  owner() == _msgSender() */\n      0xffffffffffffffffffffffffffffffffffffffff\n      and\n        /* \"@openzeppelin/contracts/access/Ownable.sol\":1248:1255  owner() */\n      tag_161\n        /* \"@openzeppelin/contracts/access/Ownable.sol\":1248:1253  owner */\n      tag_59\n        /* \"@openzeppelin/contracts/access/Ownable.sol\":1248:1255  owner() */\n      jump\t// in\n    tag_161:\n        /* \"@openzeppelin/contracts/access/Ownable.sol\":1248:1271  owner() == _msgSender() */\n      0xffffffffffffffffffffffffffffffffffffffff\n      and\n      eq\n        /* \"@openzeppelin/contracts/access/Ownable.sol\":1240:1308  require(owner() == _msgSender(), \"Ownable: caller is not the owner\") */\n      tag_162\n      jumpi\n      mload(0x40)\n      0x08c379a000000000000000000000000000000000000000000000000000000000\n      dup2\n      mstore\n      0x04\n      add\n      tag_163\n      swap1\n      tag_105\n      jump\t// in\n    tag_163:\n      mload(0x40)\n      dup1\n      swap2\n      sub\n      swap1\n      revert\n    tag_162:\n        /* \"contracts/TokenSale.sol\":3374:3391  uint256 returnAmt */\n      0x00\n        /* \"contracts/TokenSale.sol\":3394:3400  record */\n      0x05\n        /* \"contracts/TokenSale.sol\":3394:3416  record[_returnAddress] */\n      0x00\n        /* \"contracts/TokenSale.sol\":3401:3415  _returnAddress */\n      dup5\n        /* \"contracts/TokenSale.sol\":3394:3416  record[_returnAddress] */\n      0xffffffffffffffffffffffffffffffffffffffff\n      and\n      0xffffffffffffffffffffffffffffffffffffffff\n      and\n      dup2\n      mstore\n      0x20\n      add\n      swap1\n      dup2\n      mstore\n      0x20\n      add\n      0x00\n      keccak256\n        /* \"contracts/TokenSale.sol\":3394:3424  record[_returnAddress]._amount */\n      0x00\n      add\n      sload\n        /* \"contracts/TokenSale.sol\":3374:3424  uint256 returnAmt = record[_returnAddress]._amount */\n      swap1\n      pop\n        /* \"contracts/TokenSale.sol\":3462:3471  returnAmt */\n      dup1\n        /* \"contracts/TokenSale.sol\":3439:3460  address(this).balance */\n      selfbalance\n        /* \"contracts/TokenSale.sol\":3439:3471  address(this).balance>=returnAmt */\n      lt\n      iszero\n        /* \"contracts/TokenSale.sol\":3431:3501  require(address(this).balance>=returnAmt,\"Not enough token to return\") */\n      tag_165\n      jumpi\n      mload(0x40)\n      0x08c379a000000000000000000000000000000000000000000000000000000000\n      dup2\n      mstore\n      0x04\n      add\n      tag_166\n      swap1\n      tag_167\n      jump\t// in\n    tag_166:\n      mload(0x40)\n      dup1\n      swap2\n      sub\n      swap1\n      revert\n    tag_165:\n        /* \"contracts/TokenSale.sol\":3561:3575  _returnAddress */\n      dup3\n        /* \"contracts/TokenSale.sol\":3561:3584  _returnAddress.transfer */\n      0xffffffffffffffffffffffffffffffffffffffff\n      and\n        /* \"contracts/TokenSale.sol\":3561:3595  _returnAddress.transfer(returnAmt) */\n      0x08fc\n        /* \"contracts/TokenSale.sol\":3585:3594  returnAmt */\n      dup3\n        /* \"contracts/TokenSale.sol\":3561:3595  _returnAddress.transfer(returnAmt) */\n      swap1\n      dup2\n      iszero\n      mul\n      swap1\n      mload(0x40)\n      0x00\n      mload(0x40)\n      dup1\n      dup4\n      sub\n      dup2\n      dup6\n      dup9\n      dup9\n      call\n      swap4\n      pop\n      pop\n      pop\n      pop\n      iszero\n      dup1\n      iszero\n      tag_169\n      jumpi\n      returndatasize\n      0x00\n      dup1\n      returndatacopy\n      revert(0x00, returndatasize)\n    tag_169:\n      pop\n        /* \"contracts/TokenSale.sol\":3609:3613  true */\n      0x01\n        /* \"contracts/TokenSale.sol\":3602:3613  return true */\n      swap2\n      pop\n      pop\n        /* \"contracts/TokenSale.sol\":3281:3619  function Return(address payable _returnAddress) public payable onlyOwner returns(bool){\r... */\n      swap2\n      swap1\n      pop\n      jump\t// out\n        /* \"contracts/TokenSale.sol\":2508:2721  function purchases() public view returns(address) {\r... */\n    tag_86:\n        /* \"contracts/TokenSale.sol\":2549:2556  address */\n      0x00\n        /* \"contracts/TokenSale.sol\":2592:2602  _saleStart */\n      sload(0x02)\n        /* \"contracts/TokenSale.sol\":2575:2590  block.timestamp */\n      timestamp\n        /* \"contracts/TokenSale.sol\":2575:2602  block.timestamp>=_saleStart */\n      lt\n      iszero\n        /* \"contracts/TokenSale.sol\":2567:2629  require(block.timestamp>=_saleStart,\"Sale hasn't started yet\") */\n      tag_171\n      jumpi\n      mload(0x40)\n      0x08c379a000000000000000000000000000000000000000000000000000000000\n      dup2\n      mstore\n      0x04\n      add\n      tag_172\n      swap1\n      tag_152\n      jump\t// in\n    tag_172:\n      mload(0x40)\n      dup1\n      swap2\n      sub\n      swap1\n      revert\n    tag_171:\n        /* \"contracts/TokenSale.sol\":2663:2671  _saleEnd */\n      sload(0x03)\n        /* \"contracts/TokenSale.sol\":2646:2661  block.timestamp */\n      timestamp\n        /* \"contracts/TokenSale.sol\":2646:2671  block.timestamp<=_saleEnd */\n      gt\n      iszero\n        /* \"contracts/TokenSale.sol\":2638:2689  require(block.timestamp<=_saleEnd,\"Sale has ended\") */\n      tag_173\n      jumpi\n      mload(0x40)\n      0x08c379a000000000000000000000000000000000000000000000000000000000\n      dup2\n      mstore\n      0x04\n      add\n      tag_174\n      swap1\n      tag_155\n      jump\t// in\n    tag_174:\n      mload(0x40)\n      dup1\n      swap2\n      sub\n      swap1\n      revert\n    tag_173:\n        /* \"contracts/TokenSale.sol\":2705:2715  msg.sender */\n      caller\n        /* \"contracts/TokenSale.sol\":2698:2715  return msg.sender */\n      swap1\n      pop\n        /* \"contracts/TokenSale.sol\":2508:2721  function purchases() public view returns(address) {\r... */\n      swap1\n      jump\t// out\n        /* \"@openzeppelin/contracts/access/Ownable.sol\":1918:2116  function transferOwnership(address newOwner) public virtual onlyOwner {... */\n    tag_91:\n        /* \"@openzeppelin/contracts/access/Ownable.sol\":1259:1271  _msgSender() */\n      tag_176\n        /* \"@openzeppelin/contracts/access/Ownable.sol\":1259:1269  _msgSender */\n      tag_101\n        /* \"@openzeppelin/contracts/access/Ownable.sol\":1259:1271  _msgSender() */\n      jump\t// in\n    tag_176:\n        /* \"@openzeppelin/contracts/access/Ownable.sol\":1248:1271  owner() == _msgSender() */\n      0xffffffffffffffffffffffffffffffffffffffff\n      and\n        /* \"@openzeppelin/contracts/access/Ownable.sol\":1248:1255  owner() */\n      tag_177\n        /* \"@openzeppelin/contracts/access/Ownable.sol\":1248:1253  owner */\n      tag_59\n        /* \"@openzeppelin/contracts/access/Ownable.sol\":1248:1255  owner() */\n      jump\t// in\n    tag_177:\n        /* \"@openzeppelin/contracts/access/Ownable.sol\":1248:1271  owner() == _msgSender() */\n      0xffffffffffffffffffffffffffffffffffffffff\n      and\n      eq\n        /* \"@openzeppelin/contracts/access/Ownable.sol\":1240:1308  require(owner() == _msgSender(), \"Ownable: caller is not the owner\") */\n      tag_178\n      jumpi\n      mload(0x40)\n      0x08c379a000000000000000000000000000000000000000000000000000000000\n      dup2\n      mstore\n      0x04\n      add\n      tag_179\n      swap1\n      tag_105\n      jump\t// in\n    tag_179:\n      mload(0x40)\n      dup1\n      swap2\n      sub\n      swap1\n      revert\n    tag_178:\n        /* \"@openzeppelin/contracts/access/Ownable.sol\":2026:2027  0 */\n      0x00\n        /* \"@openzeppelin/contracts/access/Ownable.sol\":2006:2028  newOwner != address(0) */\n      0xffffffffffffffffffffffffffffffffffffffff\n      and\n        /* \"@openzeppelin/contracts/access/Ownable.sol\":2006:2014  newOwner */\n      dup2\n        /* \"@openzeppelin/contracts/access/Ownable.sol\":2006:2028  newOwner != address(0) */\n      0xffffffffffffffffffffffffffffffffffffffff\n      and\n      eq\n      iszero\n        /* \"@openzeppelin/contracts/access/Ownable.sol\":1998:2071  require(newOwner != address(0), \"Ownable: new owner is the zero address\") */\n      tag_181\n      jumpi\n      mload(0x40)\n      0x08c379a000000000000000000000000000000000000000000000000000000000\n      dup2\n      mstore\n      0x04\n      add\n      tag_182\n      swap1\n      tag_183\n      jump\t// in\n    tag_182:\n      mload(0x40)\n      dup1\n      swap2\n      sub\n      swap1\n      revert\n    tag_181:\n        /* \"@openzeppelin/contracts/access/Ownable.sol\":2081:2109  _transferOwnership(newOwner) */\n      tag_184\n        /* \"@openzeppelin/contracts/access/Ownable.sol\":2100:2108  newOwner */\n      dup2\n        /* \"@openzeppelin/contracts/access/Ownable.sol\":2081:2099  _transferOwnership */\n      tag_143\n        /* \"@openzeppelin/contracts/access/Ownable.sol\":2081:2109  _transferOwnership(newOwner) */\n      jump\t// in\n    tag_184:\n        /* \"@openzeppelin/contracts/access/Ownable.sol\":1918:2116  function transferOwnership(address newOwner) public virtual onlyOwner {... */\n      pop\n      jump\t// out\n        /* \"@openzeppelin/contracts/utils/Context.sol\":640:736  function _msgSender() internal view virtual returns (address) {... */\n    tag_101:\n        /* \"@openzeppelin/contracts/utils/Context.sol\":693:700  address */\n      0x00\n        /* \"@openzeppelin/contracts/utils/Context.sol\":719:729  msg.sender */\n      caller\n        /* \"@openzeppelin/contracts/utils/Context.sol\":712:729  return msg.sender */\n      swap1\n      pop\n        /* \"@openzeppelin/contracts/utils/Context.sol\":640:736  function _msgSender() internal view virtual returns (address) {... */\n      swap1\n      jump\t// out\n        /* \"@openzeppelin/contracts/token/ERC20/utils/SafeERC20.sol\":701:906  function safeTransfer(... */\n    tag_122:\n        /* \"@openzeppelin/contracts/token/ERC20/utils/SafeERC20.sol\":813:899  _callOptionalReturn(token, abi.encodeWithSelector(token.transfer.selector, to, value)) */\n      tag_187\n        /* \"@openzeppelin/contracts/token/ERC20/utils/SafeERC20.sol\":833:838  token */\n      dup4\n        /* \"@openzeppelin/contracts/token/ERC20/utils/SafeERC20.sol\":863:886  token.transfer.selector */\n      shl(0xe0, 0xa9059cbb)\n        /* \"@openzeppelin/contracts/token/ERC20/utils/SafeERC20.sol\":888:890  to */\n      dup5\n        /* \"@openzeppelin/contracts/token/ERC20/utils/SafeERC20.sol\":892:897  value */\n      dup5\n        /* \"@openzeppelin/contracts/token/ERC20/utils/SafeERC20.sol\":840:898  abi.encodeWithSelector(token.transfer.selector, to, value) */\n      add(0x24, mload(0x40))\n      tag_188\n      swap3\n      swap2\n      swap1\n      tag_189\n      jump\t// in\n    tag_188:\n      mload(0x40)\n      0x20\n      dup2\n      dup4\n      sub\n      sub\n      dup2\n      mstore\n      swap1\n      0x40\n      mstore\n      swap1\n      not(0xffffffffffffffffffffffffffffffffffffffffffffffffffffffff)\n      and\n      0x20\n      dup3\n      add\n      dup1\n      mload\n      0xffffffffffffffffffffffffffffffffffffffffffffffffffffffff\n      dup4\n      dup2\n      dup4\n      and\n      or\n      dup4\n      mstore\n      pop\n      pop\n      pop\n      pop\n        /* \"@openzeppelin/contracts/token/ERC20/utils/SafeERC20.sol\":813:832  _callOptionalReturn */\n      tag_190\n        /* \"@openzeppelin/contracts/token/ERC20/utils/SafeERC20.sol\":813:899  _callOptionalReturn(token, abi.encodeWithSelector(token.transfer.selector, to, value)) */\n      jump\t// in\n    tag_187:\n        /* \"@openzeppelin/contracts/token/ERC20/utils/SafeERC20.sol\":701:906  function safeTransfer(... */\n      pop\n      pop\n      pop\n      jump\t// out\n        /* \"@openzeppelin/contracts/access/Ownable.sol\":2270:2457  function _transferOwnership(address newOwner) internal virtual {... */\n    tag_143:\n        /* \"@openzeppelin/contracts/access/Ownable.sol\":2343:2359  address oldOwner */\n      0x00\n        /* \"@openzeppelin/contracts/access/Ownable.sol\":2362:2368  _owner */\n      dup1\n      0x00\n      swap1\n      sload\n      swap1\n      0x0100\n      exp\n      swap1\n      div\n      0xffffffffffffffffffffffffffffffffffffffff\n      and\n        /* \"@openzeppelin/contracts/access/Ownable.sol\":2343:2368  address oldOwner = _owner */\n      swap1\n      pop\n        /* \"@openzeppelin/contracts/access/Ownable.sol\":2387:2395  newOwner */\n      dup2\n        /* \"@openzeppelin/contracts/access/Ownable.sol\":2378:2384  _owner */\n      0x00\n      dup1\n        /* \"@openzeppelin/contracts/access/Ownable.sol\":2378:2395  _owner = newOwner */\n      0x0100\n      exp\n      dup2\n      sload\n      dup2\n      0xffffffffffffffffffffffffffffffffffffffff\n      mul\n      not\n      and\n      swap1\n      dup4\n      0xffffffffffffffffffffffffffffffffffffffff\n      and\n      mul\n      or\n      swap1\n      sstore\n      pop\n        /* \"@openzeppelin/contracts/access/Ownable.sol\":2441:2449  newOwner */\n      dup2\n        /* \"@openzeppelin/contracts/access/Ownable.sol\":2410:2450  OwnershipTransferred(oldOwner, newOwner) */\n      0xffffffffffffffffffffffffffffffffffffffff\n      and\n        /* \"@openzeppelin/contracts/access/Ownable.sol\":2431:2439  oldOwner */\n      dup2\n        /* \"@openzeppelin/contracts/access/Ownable.sol\":2410:2450  OwnershipTransferred(oldOwner, newOwner) */\n      0xffffffffffffffffffffffffffffffffffffffff\n      and\n      0x8be0079c531659141344cd1fd0a4f28419497f9722a3daafe3b4186f6b6457e0\n      mload(0x40)\n      mload(0x40)\n      dup1\n      swap2\n      sub\n      swap1\n      log3\n        /* \"@openzeppelin/contracts/access/Ownable.sol\":2333:2457  {... */\n      pop\n        /* \"@openzeppelin/contracts/access/Ownable.sol\":2270:2457  function _transferOwnership(address newOwner) internal virtual {... */\n      pop\n      jump\t// out\n        /* \"@openzeppelin/contracts/token/ERC20/utils/SafeERC20.sol\":912:1153  function safeTransferFrom(... */\n    tag_157:\n        /* \"@openzeppelin/contracts/token/ERC20/utils/SafeERC20.sol\":1050:1146  _callOptionalReturn(token, abi.encodeWithSelector(token.transferFrom.selector, from, to, value)) */\n      tag_193\n        /* \"@openzeppelin/contracts/token/ERC20/utils/SafeERC20.sol\":1070:1075  token */\n      dup5\n        /* \"@openzeppelin/contracts/token/ERC20/utils/SafeERC20.sol\":1100:1127  token.transferFrom.selector */\n      shl(0xe0, 0x23b872dd)\n        /* \"@openzeppelin/contracts/token/ERC20/utils/SafeERC20.sol\":1129:1133  from */\n      dup6\n        /* \"@openzeppelin/contracts/token/ERC20/utils/SafeERC20.sol\":1135:1137  to */\n      dup6\n        /* \"@openzeppelin/contracts/token/ERC20/utils/SafeERC20.sol\":1139:1144  value */\n      dup6\n        /* \"@openzeppelin/contracts/token/ERC20/utils/SafeERC20.sol\":1077:1145  abi.encodeWithSelector(token.transferFrom.selector, from, to, value) */\n      add(0x24, mload(0x40))\n      tag_194\n      swap4\n      swap3\n      swap2\n      swap1\n      tag_195\n      jump\t// in\n    tag_194:\n      mload(0x40)\n      0x20\n      dup2\n      dup4\n      sub\n      sub\n      dup2\n      mstore\n      swap1\n      0x40\n      mstore\n      swap1\n      not(0xffffffffffffffffffffffffffffffffffffffffffffffffffffffff)\n      and\n      0x20\n      dup3\n      add\n      dup1\n      mload\n      0xffffffffffffffffffffffffffffffffffffffffffffffffffffffff\n      dup4\n      dup2\n      dup4\n      and\n      or\n      dup4\n      mstore\n      pop\n      pop\n      pop\n      pop\n        /* \"@openzeppelin/contracts/token/ERC20/utils/SafeERC20.sol\":1050:1069  _callOptionalReturn */\n      tag_190\n        /* \"@openzeppelin/contracts/token/ERC20/utils/SafeERC20.sol\":1050:1146  _callOptionalReturn(token, abi.encodeWithSelector(token.transferFrom.selector, from, to, value)) */\n      jump\t// in\n    tag_193:\n        /* \"@openzeppelin/contracts/token/ERC20/utils/SafeERC20.sol\":912:1153  function safeTransferFrom(... */\n      pop\n      pop\n      pop\n      pop\n      jump\t// out\n        /* \"@openzeppelin/contracts/token/ERC20/utils/SafeERC20.sol\":3207:3913  function _callOptionalReturn(IERC20 token, bytes memory data) private {... */\n    tag_190:\n        /* \"@openzeppelin/contracts/token/ERC20/utils/SafeERC20.sol\":3626:3649  bytes memory returndata */\n      0x00\n        /* \"@openzeppelin/contracts/token/ERC20/utils/SafeERC20.sol\":3652:3721  address(token).functionCall(data, \"SafeERC20: low-level call failed\") */\n      tag_197\n        /* \"@openzeppelin/contracts/token/ERC20/utils/SafeERC20.sol\":3680:3684  data */\n      dup3\n        /* \"@openzeppelin/contracts/token/ERC20/utils/SafeERC20.sol\":3652:3721  address(token).functionCall(data, \"SafeERC20: low-level call failed\") */\n      mload(0x40)\n      dup1\n      0x40\n      add\n      0x40\n      mstore\n      dup1\n      0x20\n      dup2\n      mstore\n      0x20\n      add\n      0x5361666545524332303a206c6f772d6c6576656c2063616c6c206661696c6564\n      dup2\n      mstore\n      pop\n        /* \"@openzeppelin/contracts/token/ERC20/utils/SafeERC20.sol\":3660:3665  token */\n      dup6\n        /* \"@openzeppelin/contracts/token/ERC20/utils/SafeERC20.sol\":3652:3679  address(token).functionCall */\n      0xffffffffffffffffffffffffffffffffffffffff\n      and\n      tag_198\n      swap1\n        /* \"@openzeppelin/contracts/token/ERC20/utils/SafeERC20.sol\":3652:3721  address(token).functionCall(data, \"SafeERC20: low-level call failed\") */\n      swap3\n      swap2\n      swap1\n      0xffffffff\n      and\n      jump\t// in\n    tag_197:\n        /* \"@openzeppelin/contracts/token/ERC20/utils/SafeERC20.sol\":3626:3721  bytes memory returndata = address(token).functionCall(data, \"SafeERC20: low-level call failed\") */\n      swap1\n      pop\n        /* \"@openzeppelin/contracts/token/ERC20/utils/SafeERC20.sol\":3755:3756  0 */\n      0x00\n        /* \"@openzeppelin/contracts/token/ERC20/utils/SafeERC20.sol\":3735:3745  returndata */\n      dup2\n        /* \"@openzeppelin/contracts/token/ERC20/utils/SafeERC20.sol\":3735:3752  returndata.length */\n      mload\n        /* \"@openzeppelin/contracts/token/ERC20/utils/SafeERC20.sol\":3735:3756  returndata.length > 0 */\n      gt\n        /* \"@openzeppelin/contracts/token/ERC20/utils/SafeERC20.sol\":3731:3907  if (returndata.length > 0) {... */\n      iszero\n      tag_199\n      jumpi\n        /* \"@openzeppelin/contracts/token/ERC20/utils/SafeERC20.sol\":3830:3840  returndata */\n      dup1\n        /* \"@openzeppelin/contracts/token/ERC20/utils/SafeERC20.sol\":3819:3849  abi.decode(returndata, (bool)) */\n      dup1\n      0x20\n      add\n      swap1\n      mload\n      dup2\n      add\n      swap1\n      tag_200\n      swap2\n      swap1\n      tag_201\n      jump\t// in\n    tag_200:\n        /* \"@openzeppelin/contracts/token/ERC20/utils/SafeERC20.sol\":3811:3896  require(abi.decode(returndata, (bool)), \"SafeERC20: ERC20 operation did not succeed\") */\n      tag_202\n      jumpi\n      mload(0x40)\n      0x08c379a000000000000000000000000000000000000000000000000000000000\n      dup2\n      mstore\n      0x04\n      add\n      tag_203\n      swap1\n      tag_204\n      jump\t// in\n    tag_203:\n      mload(0x40)\n      dup1\n      swap2\n      sub\n      swap1\n      revert\n    tag_202:\n        /* \"@openzeppelin/contracts/token/ERC20/utils/SafeERC20.sol\":3731:3907  if (returndata.length > 0) {... */\n    tag_199:\n        /* \"@openzeppelin/contracts/token/ERC20/utils/SafeERC20.sol\":3277:3913  {... */\n      pop\n        /* \"@openzeppelin/contracts/token/ERC20/utils/SafeERC20.sol\":3207:3913  function _callOptionalReturn(IERC20 token, bytes memory data) private {... */\n      pop\n      pop\n      jump\t// out\n        /* \"@openzeppelin/contracts/utils/Address.sol\":3861:4084  function functionCall(... */\n    tag_198:\n        /* \"@openzeppelin/contracts/utils/Address.sol\":3994:4006  bytes memory */\n      0x60\n        /* \"@openzeppelin/contracts/utils/Address.sol\":4025:4077  functionCallWithValue(target, data, 0, errorMessage) */\n      tag_206\n        /* \"@openzeppelin/contracts/utils/Address.sol\":4047:4053  target */\n      dup5\n        /* \"@openzeppelin/contracts/utils/Address.sol\":4055:4059  data */\n      dup5\n        /* \"@openzeppelin/contracts/utils/Address.sol\":4061:4062  0 */\n      0x00\n        /* \"@openzeppelin/contracts/utils/Address.sol\":4064:4076  errorMessage */\n      dup6\n        /* \"@openzeppelin/contracts/utils/Address.sol\":4025:4046  functionCallWithValue */\n      tag_207\n        /* \"@openzeppelin/contracts/utils/Address.sol\":4025:4077  functionCallWithValue(target, data, 0, errorMessage) */\n      jump\t// in\n    tag_206:\n        /* \"@openzeppelin/contracts/utils/Address.sol\":4018:4077  return functionCallWithValue(target, data, 0, errorMessage) */\n      swap1\n      pop\n        /* \"@openzeppelin/contracts/utils/Address.sol\":3861:4084  function functionCall(... */\n      swap4\n      swap3\n      pop\n      pop\n      pop\n      jump\t// out\n        /* \"@openzeppelin/contracts/utils/Address.sol\":4948:5447  function functionCallWithValue(... */\n    tag_207:\n        /* \"@openzeppelin/contracts/utils/Address.sol\":5113:5125  bytes memory */\n      0x60\n        /* \"@openzeppelin/contracts/utils/Address.sol\":5170:5175  value */\n      dup3\n        /* \"@openzeppelin/contracts/utils/Address.sol\":5145:5166  address(this).balance */\n      selfbalance\n        /* \"@openzeppelin/contracts/utils/Address.sol\":5145:5175  address(this).balance >= value */\n      lt\n      iszero\n        /* \"@openzeppelin/contracts/utils/Address.sol\":5137:5218  require(address(this).balance >= value, \"Address: insufficient balance for call\") */\n      tag_209\n      jumpi\n      mload(0x40)\n      0x08c379a000000000000000000000000000000000000000000000000000000000\n      dup2\n      mstore\n      0x04\n      add\n      tag_210\n      swap1\n      tag_211\n      jump\t// in\n    tag_210:\n      mload(0x40)\n      dup1\n      swap2\n      sub\n      swap1\n      revert\n    tag_209:\n        /* \"@openzeppelin/contracts/utils/Address.sol\":5236:5254  isContract(target) */\n      tag_212\n        /* \"@openzeppelin/contracts/utils/Address.sol\":5247:5253  target */\n      dup6\n        /* \"@openzeppelin/contracts/utils/Address.sol\":5236:5246  isContract */\n      tag_213\n        /* \"@openzeppelin/contracts/utils/Address.sol\":5236:5254  isContract(target) */\n      jump\t// in\n    tag_212:\n        /* \"@openzeppelin/contracts/utils/Address.sol\":5228:5288  require(isContract(target), \"Address: call to non-contract\") */\n      tag_214\n      jumpi\n      mload(0x40)\n      0x08c379a000000000000000000000000000000000000000000000000000000000\n      dup2\n      mstore\n      0x04\n      add\n      tag_215\n      swap1\n      tag_216\n      jump\t// in\n    tag_215:\n      mload(0x40)\n      dup1\n      swap2\n      sub\n      swap1\n      revert\n    tag_214:\n        /* \"@openzeppelin/contracts/utils/Address.sol\":5300:5312  bool success */\n      0x00\n        /* \"@openzeppelin/contracts/utils/Address.sol\":5314:5337  bytes memory returndata */\n      dup1\n        /* \"@openzeppelin/contracts/utils/Address.sol\":5341:5347  target */\n      dup7\n        /* \"@openzeppelin/contracts/utils/Address.sol\":5341:5352  target.call */\n      0xffffffffffffffffffffffffffffffffffffffff\n      and\n        /* \"@openzeppelin/contracts/utils/Address.sol\":5360:5365  value */\n      dup6\n        /* \"@openzeppelin/contracts/utils/Address.sol\":5367:5371  data */\n      dup8\n        /* \"@openzeppelin/contracts/utils/Address.sol\":5341:5372  target.call{value: value}(data) */\n      mload(0x40)\n      tag_217\n      swap2\n      swap1\n      tag_218\n      jump\t// in\n    tag_217:\n      0x00\n      mload(0x40)\n      dup1\n      dup4\n      sub\n      dup2\n      dup6\n      dup8\n      gas\n      call\n      swap3\n      pop\n      pop\n      pop\n      returndatasize\n      dup1\n      0x00\n      dup2\n      eq\n      tag_221\n      jumpi\n      mload(0x40)\n      swap2\n      pop\n      and(add(returndatasize, 0x3f), not(0x1f))\n      dup3\n      add\n      0x40\n      mstore\n      returndatasize\n      dup3\n      mstore\n      returndatasize\n      0x00\n      0x20\n      dup5\n      add\n      returndatacopy\n      jump(tag_220)\n    tag_221:\n      0x60\n      swap2\n      pop\n    tag_220:\n      pop\n        /* \"@openzeppelin/contracts/utils/Address.sol\":5299:5372  (bool success, bytes memory returndata) = target.call{value: value}(data) */\n      swap2\n      pop\n      swap2\n      pop\n        /* \"@openzeppelin/contracts/utils/Address.sol\":5389:5440  verifyCallResult(success, returndata, errorMessage) */\n      tag_222\n        /* \"@openzeppelin/contracts/utils/Address.sol\":5406:5413  success */\n      dup3\n        /* \"@openzeppelin/contracts/utils/Address.sol\":5415:5425  returndata */\n      dup3\n        /* \"@openzeppelin/contracts/utils/Address.sol\":5427:5439  errorMessage */\n      dup7\n        /* \"@openzeppelin/contracts/utils/Address.sol\":5389:5405  verifyCallResult */\n      tag_223\n        /* \"@openzeppelin/contracts/utils/Address.sol\":5389:5440  verifyCallResult(success, returndata, errorMessage) */\n      jump\t// in\n    tag_222:\n        /* \"@openzeppelin/contracts/utils/Address.sol\":5382:5440  return verifyCallResult(success, returndata, errorMessage) */\n      swap3\n      pop\n      pop\n      pop\n        /* \"@openzeppelin/contracts/utils/Address.sol\":4948:5447  function functionCallWithValue(... */\n      swap5\n      swap4\n      pop\n      pop\n      pop\n      pop\n      jump\t// out\n        /* \"@openzeppelin/contracts/utils/Address.sol\":1175:1495  function isContract(address account) internal view returns (bool) {... */\n    tag_213:\n        /* \"@openzeppelin/contracts/utils/Address.sol\":1235:1239  bool */\n      0x00\n        /* \"@openzeppelin/contracts/utils/Address.sol\":1487:1488  0 */\n      dup1\n        /* \"@openzeppelin/contracts/utils/Address.sol\":1465:1472  account */\n      dup3\n        /* \"@openzeppelin/contracts/utils/Address.sol\":1465:1484  account.code.length */\n      0xffffffffffffffffffffffffffffffffffffffff\n      and\n      extcodesize\n        /* \"@openzeppelin/contracts/utils/Address.sol\":1465:1488  account.code.length > 0 */\n      gt\n        /* \"@openzeppelin/contracts/utils/Address.sol\":1458:1488  return account.code.length > 0 */\n      swap1\n      pop\n        /* \"@openzeppelin/contracts/utils/Address.sol\":1175:1495  function isContract(address account) internal view returns (bool) {... */\n      swap2\n      swap1\n      pop\n      jump\t// out\n        /* \"@openzeppelin/contracts/utils/Address.sol\":7561:8253  function verifyCallResult(... */\n    tag_223:\n        /* \"@openzeppelin/contracts/utils/Address.sol\":7707:7719  bytes memory */\n      0x60\n        /* \"@openzeppelin/contracts/utils/Address.sol\":7735:7742  success */\n      dup4\n        /* \"@openzeppelin/contracts/utils/Address.sol\":7731:8247  if (success) {... */\n      iszero\n      tag_226\n      jumpi\n        /* \"@openzeppelin/contracts/utils/Address.sol\":7765:7775  returndata */\n      dup3\n        /* \"@openzeppelin/contracts/utils/Address.sol\":7758:7775  return returndata */\n      swap1\n      pop\n      jump(tag_225)\n        /* \"@openzeppelin/contracts/utils/Address.sol\":7731:8247  if (success) {... */\n    tag_226:\n        /* \"@openzeppelin/contracts/utils/Address.sol\":7896:7897  0 */\n      0x00\n        /* \"@openzeppelin/contracts/utils/Address.sol\":7876:7886  returndata */\n      dup4\n        /* \"@openzeppelin/contracts/utils/Address.sol\":7876:7893  returndata.length */\n      mload\n        /* \"@openzeppelin/contracts/utils/Address.sol\":7876:7897  returndata.length > 0 */\n      gt\n        /* \"@openzeppelin/contracts/utils/Address.sol\":7872:8237  if (returndata.length > 0) {... */\n      iszero\n      tag_228\n      jumpi\n        /* \"@openzeppelin/contracts/utils/Address.sol\":8070:8080  returndata */\n      dup3\n        /* \"@openzeppelin/contracts/utils/Address.sol\":8064:8081  mload(returndata) */\n      mload\n        /* \"@openzeppelin/contracts/utils/Address.sol\":8130:8145  returndata_size */\n      dup1\n        /* \"@openzeppelin/contracts/utils/Address.sol\":8117:8127  returndata */\n      dup5\n        /* \"@openzeppelin/contracts/utils/Address.sol\":8113:8115  32 */\n      0x20\n        /* \"@openzeppelin/contracts/utils/Address.sol\":8109:8128  add(32, returndata) */\n      add\n        /* \"@openzeppelin/contracts/utils/Address.sol\":8102:8146  revert(add(32, returndata), returndata_size) */\n      revert\n        /* \"@openzeppelin/contracts/utils/Address.sol\":7872:8237  if (returndata.length > 0) {... */\n    tag_228:\n        /* \"@openzeppelin/contracts/utils/Address.sol\":8209:8221  errorMessage */\n      dup2\n        /* \"@openzeppelin/contracts/utils/Address.sol\":8202:8222  revert(errorMessage) */\n      mload(0x40)\n      0x08c379a000000000000000000000000000000000000000000000000000000000\n      dup2\n      mstore\n      0x04\n      add\n      tag_230\n      swap2\n      swap1\n      tag_231\n      jump\t// in\n    tag_230:\n      mload(0x40)\n      dup1\n      swap2\n      sub\n      swap1\n      revert\n        /* \"@openzeppelin/contracts/utils/Address.sol\":7561:8253  function verifyCallResult(... */\n    tag_225:\n      swap4\n      swap3\n      pop\n      pop\n      pop\n      jump\t// out\n        /* \"#utility.yul\":7:146   */\n    tag_233:\n        /* \"#utility.yul\":53:58   */\n      0x00\n        /* \"#utility.yul\":91:97   */\n      dup2\n        /* \"#utility.yul\":78:98   */\n      calldataload\n        /* \"#utility.yul\":69:98   */\n      swap1\n      pop\n        /* \"#utility.yul\":107:140   */\n      tag_235\n        /* \"#utility.yul\":134:139   */\n      dup2\n        /* \"#utility.yul\":107:140   */\n      tag_236\n      jump\t// in\n    tag_235:\n        /* \"#utility.yul\":7:146   */\n      swap3\n      swap2\n      pop\n      pop\n      jump\t// out\n        /* \"#utility.yul\":152:307   */\n    tag_237:\n        /* \"#utility.yul\":206:211   */\n      0x00\n        /* \"#utility.yul\":244:250   */\n      dup2\n        /* \"#utility.yul\":231:251   */\n      calldataload\n        /* \"#utility.yul\":222:251   */\n      swap1\n      pop\n        /* \"#utility.yul\":260:301   */\n      tag_239\n        /* \"#utility.yul\":295:300   */\n      dup2\n        /* \"#utility.yul\":260:301   */\n      tag_240\n      jump\t// in\n    tag_239:\n        /* \"#utility.yul\":152:307   */\n      swap3\n      swap2\n      pop\n      pop\n      jump\t// out\n        /* \"#utility.yul\":313:450   */\n    tag_241:\n        /* \"#utility.yul\":367:372   */\n      0x00\n        /* \"#utility.yul\":398:404   */\n      dup2\n        /* \"#utility.yul\":392:405   */\n      mload\n        /* \"#utility.yul\":383:405   */\n      swap1\n      pop\n        /* \"#utility.yul\":414:444   */\n      tag_243\n        /* \"#utility.yul\":438:443   */\n      dup2\n        /* \"#utility.yul\":414:444   */\n      tag_244\n      jump\t// in\n    tag_243:\n        /* \"#utility.yul\":313:450   */\n      swap3\n      swap2\n      pop\n      pop\n      jump\t// out\n        /* \"#utility.yul\":456:595   */\n    tag_245:\n        /* \"#utility.yul\":502:507   */\n      0x00\n        /* \"#utility.yul\":540:546   */\n      dup2\n        /* \"#utility.yul\":527:547   */\n      calldataload\n        /* \"#utility.yul\":518:547   */\n      swap1\n      pop\n        /* \"#utility.yul\":556:589   */\n      tag_247\n        /* \"#utility.yul\":583:588   */\n      dup2\n        /* \"#utility.yul\":556:589   */\n      tag_248\n      jump\t// in\n    tag_247:\n        /* \"#utility.yul\":456:595   */\n      swap3\n      swap2\n      pop\n      pop\n      jump\t// out\n        /* \"#utility.yul\":601:744   */\n    tag_249:\n        /* \"#utility.yul\":658:663   */\n      0x00\n        /* \"#utility.yul\":689:695   */\n      dup2\n        /* \"#utility.yul\":683:696   */\n      mload\n        /* \"#utility.yul\":674:696   */\n      swap1\n      pop\n        /* \"#utility.yul\":705:738   */\n      tag_251\n        /* \"#utility.yul\":732:737   */\n      dup2\n        /* \"#utility.yul\":705:738   */\n      tag_248\n      jump\t// in\n    tag_251:\n        /* \"#utility.yul\":601:744   */\n      swap3\n      swap2\n      pop\n      pop\n      jump\t// out\n        /* \"#utility.yul\":750:1079   */\n    tag_24:\n        /* \"#utility.yul\":809:815   */\n      0x00\n        /* \"#utility.yul\":858:860   */\n      0x20\n        /* \"#utility.yul\":846:855   */\n      dup3\n        /* \"#utility.yul\":837:844   */\n      dup5\n        /* \"#utility.yul\":833:856   */\n      sub\n        /* \"#utility.yul\":829:861   */\n      slt\n        /* \"#utility.yul\":826:945   */\n      iszero\n      tag_253\n      jumpi\n        /* \"#utility.yul\":864:943   */\n      tag_254\n      tag_255\n      jump\t// in\n    tag_254:\n        /* \"#utility.yul\":826:945   */\n    tag_253:\n        /* \"#utility.yul\":984:985   */\n      0x00\n        /* \"#utility.yul\":1009:1062   */\n      tag_256\n        /* \"#utility.yul\":1054:1061   */\n      dup5\n        /* \"#utility.yul\":1045:1051   */\n      dup3\n        /* \"#utility.yul\":1034:1043   */\n      dup6\n        /* \"#utility.yul\":1030:1052   */\n      add\n        /* \"#utility.yul\":1009:1062   */\n      tag_233\n      jump\t// in\n    tag_256:\n        /* \"#utility.yul\":999:1062   */\n      swap2\n      pop\n        /* \"#utility.yul\":955:1072   */\n      pop\n        /* \"#utility.yul\":750:1079   */\n      swap3\n      swap2\n      pop\n      pop\n      jump\t// out\n        /* \"#utility.yul\":1085:1430   */\n    tag_80:\n        /* \"#utility.yul\":1152:1158   */\n      0x00\n        /* \"#utility.yul\":1201:1203   */\n      0x20\n        /* \"#utility.yul\":1189:1198   */\n      dup3\n        /* \"#utility.yul\":1180:1187   */\n      dup5\n        /* \"#utility.yul\":1176:1199   */\n      sub\n        /* \"#utility.yul\":1172:1204   */\n      slt\n        /* \"#utility.yul\":1169:1288   */\n      iszero\n      tag_258\n      jumpi\n        /* \"#utility.yul\":1207:1286   */\n      tag_259\n      tag_255\n      jump\t// in\n    tag_259:\n        /* \"#utility.yul\":1169:1288   */\n    tag_258:\n        /* \"#utility.yul\":1327:1328   */\n      0x00\n        /* \"#utility.yul\":1352:1413   */\n      tag_260\n        /* \"#utility.yul\":1405:1412   */\n      dup5\n        /* \"#utility.yul\":1396:1402   */\n      dup3\n        /* \"#utility.yul\":1385:1394   */\n      dup6\n        /* \"#utility.yul\":1381:1403   */\n      add\n        /* \"#utility.yul\":1352:1413   */\n      tag_237\n      jump\t// in\n    tag_260:\n        /* \"#utility.yul\":1342:1413   */\n      swap2\n      pop\n        /* \"#utility.yul\":1298:1423   */\n      pop\n        /* \"#utility.yul\":1085:1430   */\n      swap3\n      swap2\n      pop\n      pop\n      jump\t// out\n        /* \"#utility.yul\":1436:1781   */\n    tag_201:\n        /* \"#utility.yul\":1503:1509   */\n      0x00\n        /* \"#utility.yul\":1552:1554   */\n      0x20\n        /* \"#utility.yul\":1540:1549   */\n      dup3\n        /* \"#utility.yul\":1531:1538   */\n      dup5\n        /* \"#utility.yul\":1527:1550   */\n      sub\n        /* \"#utility.yul\":1523:1555   */\n      slt\n        /* \"#utility.yul\":1520:1639   */\n      iszero\n      tag_262\n      jumpi\n        /* \"#utility.yul\":1558:1637   */\n      tag_263\n      tag_255\n      jump\t// in\n    tag_263:\n        /* \"#utility.yul\":1520:1639   */\n    tag_262:\n        /* \"#utility.yul\":1678:1679   */\n      0x00\n        /* \"#utility.yul\":1703:1764   */\n      tag_264\n        /* \"#utility.yul\":1756:1763   */\n      dup5\n        /* \"#utility.yul\":1747:1753   */\n      dup3\n        /* \"#utility.yul\":1736:1745   */\n      dup6\n        /* \"#utility.yul\":1732:1754   */\n      add\n        /* \"#utility.yul\":1703:1764   */\n      tag_241\n      jump\t// in\n    tag_264:\n        /* \"#utility.yul\":1693:1764   */\n      swap2\n      pop\n        /* \"#utility.yul\":1649:1774   */\n      pop\n        /* \"#utility.yul\":1436:1781   */\n      swap3\n      swap2\n      pop\n      pop\n      jump\t// out\n        /* \"#utility.yul\":1787:2116   */\n    tag_31:\n        /* \"#utility.yul\":1846:1852   */\n      0x00\n        /* \"#utility.yul\":1895:1897   */\n      0x20\n        /* \"#utility.yul\":1883:1892   */\n      dup3\n        /* \"#utility.yul\":1874:1881   */\n      dup5\n        /* \"#utility.yul\":1870:1893   */\n      sub\n        /* \"#utility.yul\":1866:1898   */\n      slt\n        /* \"#utility.yul\":1863:1982   */\n      iszero\n      tag_266\n      jumpi\n        /* \"#utility.yul\":1901:1980   */\n      tag_267\n      tag_255\n      jump\t// in\n    tag_267:\n        /* \"#utility.yul\":1863:1982   */\n    tag_266:\n        /* \"#utility.yul\":2021:2022   */\n      0x00\n        /* \"#utility.yul\":2046:2099   */\n      tag_268\n        /* \"#utility.yul\":2091:2098   */\n      dup5\n        /* \"#utility.yul\":2082:2088   */\n      dup3\n        /* \"#utility.yul\":2071:2080   */\n      dup6\n        /* \"#utility.yul\":2067:2089   */\n      add\n        /* \"#utility.yul\":2046:2099   */\n      tag_245\n      jump\t// in\n    tag_268:\n        /* \"#utility.yul\":2036:2099   */\n      swap2\n      pop\n        /* \"#utility.yul\":1992:2109   */\n      pop\n        /* \"#utility.yul\":1787:2116   */\n      swap3\n      swap2\n      pop\n      pop\n      jump\t// out\n        /* \"#utility.yul\":2122:2473   */\n    tag_98:\n        /* \"#utility.yul\":2192:2198   */\n      0x00\n        /* \"#utility.yul\":2241:2243   */\n      0x20\n        /* \"#utility.yul\":2229:2238   */\n      dup3\n        /* \"#utility.yul\":2220:2227   */\n      dup5\n        /* \"#utility.yul\":2216:2239   */\n      sub\n        /* \"#utility.yul\":2212:2244   */\n      slt\n        /* \"#utility.yul\":2209:2328   */\n      iszero\n      tag_270\n      jumpi\n        /* \"#utility.yul\":2247:2326   */\n      tag_271\n      tag_255\n      jump\t// in\n    tag_271:\n        /* \"#utility.yul\":2209:2328   */\n    tag_270:\n        /* \"#utility.yul\":2367:2368   */\n      0x00\n        /* \"#utility.yul\":2392:2456   */\n      tag_272\n        /* \"#utility.yul\":2448:2455   */\n      dup5\n        /* \"#utility.yul\":2439:2445   */\n      dup3\n        /* \"#utility.yul\":2428:2437   */\n      dup6\n        /* \"#utility.yul\":2424:2446   */\n      add\n        /* \"#utility.yul\":2392:2456   */\n      tag_249\n      jump\t// in\n    tag_272:\n        /* \"#utility.yul\":2382:2456   */\n      swap2\n      pop\n        /* \"#utility.yul\":2338:2466   */\n      pop\n        /* \"#utility.yul\":2122:2473   */\n      swap3\n      swap2\n      pop\n      pop\n      jump\t// out\n        /* \"#utility.yul\":2479:2953   */\n    tag_72:\n        /* \"#utility.yul\":2547:2553   */\n      0x00\n        /* \"#utility.yul\":2555:2561   */\n      dup1\n        /* \"#utility.yul\":2604:2606   */\n      0x40\n        /* \"#utility.yul\":2592:2601   */\n      dup4\n        /* \"#utility.yul\":2583:2590   */\n      dup6\n        /* \"#utility.yul\":2579:2602   */\n      sub\n        /* \"#utility.yul\":2575:2607   */\n      slt\n        /* \"#utility.yul\":2572:2691   */\n      iszero\n      tag_274\n      jumpi\n        /* \"#utility.yul\":2610:2689   */\n      tag_275\n      tag_255\n      jump\t// in\n    tag_275:\n        /* \"#utility.yul\":2572:2691   */\n    tag_274:\n        /* \"#utility.yul\":2730:2731   */\n      0x00\n        /* \"#utility.yul\":2755:2808   */\n      tag_276\n        /* \"#utility.yul\":2800:2807   */\n      dup6\n        /* \"#utility.yul\":2791:2797   */\n      dup3\n        /* \"#utility.yul\":2780:2789   */\n      dup7\n        /* \"#utility.yul\":2776:2798   */\n      add\n        /* \"#utility.yul\":2755:2808   */\n      tag_245\n      jump\t// in\n    tag_276:\n        /* \"#utility.yul\":2745:2808   */\n      swap3\n      pop\n        /* \"#utility.yul\":2701:2818   */\n      pop\n        /* \"#utility.yul\":2857:2859   */\n      0x20\n        /* \"#utility.yul\":2883:2936   */\n      tag_277\n        /* \"#utility.yul\":2928:2935   */\n      dup6\n        /* \"#utility.yul\":2919:2925   */\n      dup3\n        /* \"#utility.yul\":2908:2917   */\n      dup7\n        /* \"#utility.yul\":2904:2926   */\n      add\n        /* \"#utility.yul\":2883:2936   */\n      tag_233\n      jump\t// in\n    tag_277:\n        /* \"#utility.yul\":2873:2936   */\n      swap2\n      pop\n        /* \"#utility.yul\":2828:2946   */\n      pop\n        /* \"#utility.yul\":2479:2953   */\n      swap3\n      pop\n      swap3\n      swap1\n      pop\n      jump\t// out\n        /* \"#utility.yul\":2959:3077   */\n    tag_278:\n        /* \"#utility.yul\":3046:3070   */\n      tag_280\n        /* \"#utility.yul\":3064:3069   */\n      dup2\n        /* \"#utility.yul\":3046:3070   */\n      tag_281\n      jump\t// in\n    tag_280:\n        /* \"#utility.yul\":3041:3044   */\n      dup3\n        /* \"#utility.yul\":3034:3071   */\n      mstore\n        /* \"#utility.yul\":2959:3077   */\n      pop\n      pop\n      jump\t// out\n        /* \"#utility.yul\":3083:3192   */\n    tag_282:\n        /* \"#utility.yul\":3164:3185   */\n      tag_284\n        /* \"#utility.yul\":3179:3184   */\n      dup2\n        /* \"#utility.yul\":3164:3185   */\n      tag_285\n      jump\t// in\n    tag_284:\n        /* \"#utility.yul\":3159:3162   */\n      dup3\n        /* \"#utility.yul\":3152:3186   */\n      mstore\n        /* \"#utility.yul\":3083:3192   */\n      pop\n      pop\n      jump\t// out\n        /* \"#utility.yul\":3198:3571   */\n    tag_286:\n        /* \"#utility.yul\":3302:3305   */\n      0x00\n        /* \"#utility.yul\":3330:3368   */\n      tag_288\n        /* \"#utility.yul\":3362:3367   */\n      dup3\n        /* \"#utility.yul\":3330:3368   */\n      tag_289\n      jump\t// in\n    tag_288:\n        /* \"#utility.yul\":3384:3472   */\n      tag_290\n        /* \"#utility.yul\":3465:3471   */\n      dup2\n        /* \"#utility.yul\":3460:3463   */\n      dup6\n        /* \"#utility.yul\":3384:3472   */\n      tag_291\n      jump\t// in\n    tag_290:\n        /* \"#utility.yul\":3377:3472   */\n      swap4\n      pop\n        /* \"#utility.yul\":3481:3533   */\n      tag_292\n        /* \"#utility.yul\":3526:3532   */\n      dup2\n        /* \"#utility.yul\":3521:3524   */\n      dup6\n        /* \"#utility.yul\":3514:3518   */\n      0x20\n        /* \"#utility.yul\":3507:3512   */\n      dup7\n        /* \"#utility.yul\":3503:3519   */\n      add\n        /* \"#utility.yul\":3481:3533   */\n      tag_293\n      jump\t// in\n    tag_292:\n        /* \"#utility.yul\":3558:3564   */\n      dup1\n        /* \"#utility.yul\":3553:3556   */\n      dup5\n        /* \"#utility.yul\":3549:3565   */\n      add\n        /* \"#utility.yul\":3542:3565   */\n      swap2\n      pop\n        /* \"#utility.yul\":3306:3571   */\n      pop\n        /* \"#utility.yul\":3198:3571   */\n      swap3\n      swap2\n      pop\n      pop\n      jump\t// out\n        /* \"#utility.yul\":3577:3941   */\n    tag_294:\n        /* \"#utility.yul\":3665:3668   */\n      0x00\n        /* \"#utility.yul\":3693:3732   */\n      tag_296\n        /* \"#utility.yul\":3726:3731   */\n      dup3\n        /* \"#utility.yul\":3693:3732   */\n      tag_297\n      jump\t// in\n    tag_296:\n        /* \"#utility.yul\":3748:3819   */\n      tag_298\n        /* \"#utility.yul\":3812:3818   */\n      dup2\n        /* \"#utility.yul\":3807:3810   */\n      dup6\n        /* \"#utility.yul\":3748:3819   */\n      tag_299\n      jump\t// in\n    tag_298:\n        /* \"#utility.yul\":3741:3819   */\n      swap4\n      pop\n        /* \"#utility.yul\":3828:3880   */\n      tag_300\n        /* \"#utility.yul\":3873:3879   */\n      dup2\n        /* \"#utility.yul\":3868:3871   */\n      dup6\n        /* \"#utility.yul\":3861:3865   */\n      0x20\n        /* \"#utility.yul\":3854:3859   */\n      dup7\n        /* \"#utility.yul\":3850:3866   */\n      add\n        /* \"#utility.yul\":3828:3880   */\n      tag_293\n      jump\t// in\n    tag_300:\n        /* \"#utility.yul\":3905:3934   */\n      tag_301\n        /* \"#utility.yul\":3927:3933   */\n      dup2\n        /* \"#utility.yul\":3905:3934   */\n      tag_302\n      jump\t// in\n    tag_301:\n        /* \"#utility.yul\":3900:3903   */\n      dup5\n        /* \"#utility.yul\":3896:3935   */\n      add\n        /* \"#utility.yul\":3889:3935   */\n      swap2\n      pop\n        /* \"#utility.yul\":3669:3941   */\n      pop\n        /* \"#utility.yul\":3577:3941   */\n      swap3\n      swap2\n      pop\n      pop\n      jump\t// out\n        /* \"#utility.yul\":3947:4313   */\n    tag_303:\n        /* \"#utility.yul\":4089:4092   */\n      0x00\n        /* \"#utility.yul\":4110:4177   */\n      tag_305\n        /* \"#utility.yul\":4174:4176   */\n      0x26\n        /* \"#utility.yul\":4169:4172   */\n      dup4\n        /* \"#utility.yul\":4110:4177   */\n      tag_299\n      jump\t// in\n    tag_305:\n        /* \"#utility.yul\":4103:4177   */\n      swap2\n      pop\n        /* \"#utility.yul\":4186:4279   */\n      tag_306\n        /* \"#utility.yul\":4275:4278   */\n      dup3\n        /* \"#utility.yul\":4186:4279   */\n      tag_307\n      jump\t// in\n    tag_306:\n        /* \"#utility.yul\":4304:4306   */\n      0x40\n        /* \"#utility.yul\":4299:4302   */\n      dup3\n        /* \"#utility.yul\":4295:4307   */\n      add\n        /* \"#utility.yul\":4288:4307   */\n      swap1\n      pop\n        /* \"#utility.yul\":3947:4313   */\n      swap2\n      swap1\n      pop\n      jump\t// out\n        /* \"#utility.yul\":4319:4685   */\n    tag_308:\n        /* \"#utility.yul\":4461:4464   */\n      0x00\n        /* \"#utility.yul\":4482:4549   */\n      tag_310\n        /* \"#utility.yul\":4546:4548   */\n      0x0e\n        /* \"#utility.yul\":4541:4544   */\n      dup4\n        /* \"#utility.yul\":4482:4549   */\n      tag_299\n      jump\t// in\n    tag_310:\n        /* \"#utility.yul\":4475:4549   */\n      swap2\n      pop\n        /* \"#utility.yul\":4558:4651   */\n      tag_311\n        /* \"#utility.yul\":4647:4650   */\n      dup3\n        /* \"#utility.yul\":4558:4651   */\n      tag_312\n      jump\t// in\n    tag_311:\n        /* \"#utility.yul\":4676:4678   */\n      0x20\n        /* \"#utility.yul\":4671:4674   */\n      dup3\n        /* \"#utility.yul\":4667:4679   */\n      add\n        /* \"#utility.yul\":4660:4679   */\n      swap1\n      pop\n        /* \"#utility.yul\":4319:4685   */\n      swap2\n      swap1\n      pop\n      jump\t// out\n        /* \"#utility.yul\":4691:5057   */\n    tag_313:\n        /* \"#utility.yul\":4833:4836   */\n      0x00\n        /* \"#utility.yul\":4854:4921   */\n      tag_315\n        /* \"#utility.yul\":4918:4920   */\n      0x26\n        /* \"#utility.yul\":4913:4916   */\n      dup4\n        /* \"#utility.yul\":4854:4921   */\n      tag_299\n      jump\t// in\n    tag_315:\n        /* \"#utility.yul\":4847:4921   */\n      swap2\n      pop\n        /* \"#utility.yul\":4930:5023   */\n      tag_316\n        /* \"#utility.yul\":5019:5022   */\n      dup3\n        /* \"#utility.yul\":4930:5023   */\n      tag_317\n      jump\t// in\n    tag_316:\n        /* \"#utility.yul\":5048:5050   */\n      0x40\n        /* \"#utility.yul\":5043:5046   */\n      dup3\n        /* \"#utility.yul\":5039:5051   */\n      add\n        /* \"#utility.yul\":5032:5051   */\n      swap1\n      pop\n        /* \"#utility.yul\":4691:5057   */\n      swap2\n      swap1\n      pop\n      jump\t// out\n        /* \"#utility.yul\":5063:5429   */\n    tag_318:\n        /* \"#utility.yul\":5205:5208   */\n      0x00\n        /* \"#utility.yul\":5226:5293   */\n      tag_320\n        /* \"#utility.yul\":5290:5292   */\n      0x20\n        /* \"#utility.yul\":5285:5288   */\n      dup4\n        /* \"#utility.yul\":5226:5293   */\n      tag_299\n      jump\t// in\n    tag_320:\n        /* \"#utility.yul\":5219:5293   */\n      swap2\n      pop\n        /* \"#utility.yul\":5302:5395   */\n      tag_321\n        /* \"#utility.yul\":5391:5394   */\n      dup3\n        /* \"#utility.yul\":5302:5395   */\n      tag_322\n      jump\t// in\n    tag_321:\n        /* \"#utility.yul\":5420:5422   */\n      0x20\n        /* \"#utility.yul\":5415:5418   */\n      dup3\n        /* \"#utility.yul\":5411:5423   */\n      add\n        /* \"#utility.yul\":5404:5423   */\n      swap1\n      pop\n        /* \"#utility.yul\":5063:5429   */\n      swap2\n      swap1\n      pop\n      jump\t// out\n        /* \"#utility.yul\":5435:5801   */\n    tag_323:\n        /* \"#utility.yul\":5577:5580   */\n      0x00\n        /* \"#utility.yul\":5598:5665   */\n      tag_325\n        /* \"#utility.yul\":5662:5664   */\n      0x17\n        /* \"#utility.yul\":5657:5660   */\n      dup4\n        /* \"#utility.yul\":5598:5665   */\n      tag_299\n      jump\t// in\n    tag_325:\n        /* \"#utility.yul\":5591:5665   */\n      swap2\n      pop\n        /* \"#utility.yul\":5674:5767   */\n      tag_326\n        /* \"#utility.yul\":5763:5766   */\n      dup3\n        /* \"#utility.yul\":5674:5767   */\n      tag_327\n      jump\t// in\n    tag_326:\n        /* \"#utility.yul\":5792:5794   */\n      0x20\n        /* \"#utility.yul\":5787:5790   */\n      dup3\n        /* \"#utility.yul\":5783:5795   */\n      add\n        /* \"#utility.yul\":5776:5795   */\n      swap1\n      pop\n        /* \"#utility.yul\":5435:5801   */\n      swap2\n      swap1\n      pop\n      jump\t// out\n        /* \"#utility.yul\":5807:6173   */\n    tag_328:\n        /* \"#utility.yul\":5949:5952   */\n      0x00\n        /* \"#utility.yul\":5970:6037   */\n      tag_330\n        /* \"#utility.yul\":6034:6036   */\n      0x11\n        /* \"#utility.yul\":6029:6032   */\n      dup4\n        /* \"#utility.yul\":5970:6037   */\n      tag_299\n      jump\t// in\n    tag_330:\n        /* \"#utility.yul\":5963:6037   */\n      swap2\n      pop\n        /* \"#utility.yul\":6046:6139   */\n      tag_331\n        /* \"#utility.yul\":6135:6138   */\n      dup3\n        /* \"#utility.yul\":6046:6139   */\n      tag_332\n      jump\t// in\n    tag_331:\n        /* \"#utility.yul\":6164:6166   */\n      0x20\n        /* \"#utility.yul\":6159:6162   */\n      dup3\n        /* \"#utility.yul\":6155:6167   */\n      add\n        /* \"#utility.yul\":6148:6167   */\n      swap1\n      pop\n        /* \"#utility.yul\":5807:6173   */\n      swap2\n      swap1\n      pop\n      jump\t// out\n        /* \"#utility.yul\":6179:6545   */\n    tag_333:\n        /* \"#utility.yul\":6321:6324   */\n      0x00\n        /* \"#utility.yul\":6342:6409   */\n      tag_335\n        /* \"#utility.yul\":6406:6408   */\n      0x1d\n        /* \"#utility.yul\":6401:6404   */\n      dup4\n        /* \"#utility.yul\":6342:6409   */\n      tag_299\n      jump\t// in\n    tag_335:\n        /* \"#utility.yul\":6335:6409   */\n      swap2\n      pop\n        /* \"#utility.yul\":6418:6511   */\n      tag_336\n        /* \"#utility.yul\":6507:6510   */\n      dup3\n        /* \"#utility.yul\":6418:6511   */\n      tag_337\n      jump\t// in\n    tag_336:\n        /* \"#utility.yul\":6536:6538   */\n      0x20\n        /* \"#utility.yul\":6531:6534   */\n      dup3\n        /* \"#utility.yul\":6527:6539   */\n      add\n        /* \"#utility.yul\":6520:6539   */\n      swap1\n      pop\n        /* \"#utility.yul\":6179:6545   */\n      swap2\n      swap1\n      pop\n      jump\t// out\n        /* \"#utility.yul\":6551:6917   */\n    tag_338:\n        /* \"#utility.yul\":6693:6696   */\n      0x00\n        /* \"#utility.yul\":6714:6781   */\n      tag_340\n        /* \"#utility.yul\":6778:6780   */\n      0x1a\n        /* \"#utility.yul\":6773:6776   */\n      dup4\n        /* \"#utility.yul\":6714:6781   */\n      tag_299\n      jump\t// in\n    tag_340:\n        /* \"#utility.yul\":6707:6781   */\n      swap2\n      pop\n        /* \"#utility.yul\":6790:6883   */\n      tag_341\n        /* \"#utility.yul\":6879:6882   */\n      dup3\n        /* \"#utility.yul\":6790:6883   */\n      tag_342\n      jump\t// in\n    tag_341:\n        /* \"#utility.yul\":6908:6910   */\n      0x20\n        /* \"#utility.yul\":6903:6906   */\n      dup3\n        /* \"#utility.yul\":6899:6911   */\n      add\n        /* \"#utility.yul\":6892:6911   */\n      swap1\n      pop\n        /* \"#utility.yul\":6551:6917   */\n      swap2\n      swap1\n      pop\n      jump\t// out\n        /* \"#utility.yul\":6923:7289   */\n    tag_343:\n        /* \"#utility.yul\":7065:7068   */\n      0x00\n        /* \"#utility.yul\":7086:7153   */\n      tag_345\n        /* \"#utility.yul\":7150:7152   */\n      0x2a\n        /* \"#utility.yul\":7145:7148   */\n      dup4\n        /* \"#utility.yul\":7086:7153   */\n      tag_299\n      jump\t// in\n    tag_345:\n        /* \"#utility.yul\":7079:7153   */\n      swap2\n      pop\n        /* \"#utility.yul\":7162:7255   */\n      tag_346\n        /* \"#utility.yul\":7251:7254   */\n      dup3\n        /* \"#utility.yul\":7162:7255   */\n      tag_347\n      jump\t// in\n    tag_346:\n        /* \"#utility.yul\":7280:7282   */\n      0x40\n        /* \"#utility.yul\":7275:7278   */\n      dup3\n        /* \"#utility.yul\":7271:7283   */\n      add\n        /* \"#utility.yul\":7264:7283   */\n      swap1\n      pop\n        /* \"#utility.yul\":6923:7289   */\n      swap2\n      swap1\n      pop\n      jump\t// out\n        /* \"#utility.yul\":7295:7413   */\n    tag_348:\n        /* \"#utility.yul\":7382:7406   */\n      tag_350\n        /* \"#utility.yul\":7400:7405   */\n      dup2\n        /* \"#utility.yul\":7382:7406   */\n      tag_351\n      jump\t// in\n    tag_350:\n        /* \"#utility.yul\":7377:7380   */\n      dup3\n        /* \"#utility.yul\":7370:7407   */\n      mstore\n        /* \"#utility.yul\":7295:7413   */\n      pop\n      pop\n      jump\t// out\n        /* \"#utility.yul\":7419:7690   */\n    tag_218:\n        /* \"#utility.yul\":7549:7552   */\n      0x00\n        /* \"#utility.yul\":7571:7664   */\n      tag_353\n        /* \"#utility.yul\":7660:7663   */\n      dup3\n        /* \"#utility.yul\":7651:7657   */\n      dup5\n        /* \"#utility.yul\":7571:7664   */\n      tag_286\n      jump\t// in\n    tag_353:\n        /* \"#utility.yul\":7564:7664   */\n      swap2\n      pop\n        /* \"#utility.yul\":7681:7684   */\n      dup2\n        /* \"#utility.yul\":7674:7684   */\n      swap1\n      pop\n        /* \"#utility.yul\":7419:7690   */\n      swap3\n      swap2\n      pop\n      pop\n      jump\t// out\n        /* \"#utility.yul\":7696:7918   */\n    tag_40:\n        /* \"#utility.yul\":7789:7793   */\n      0x00\n        /* \"#utility.yul\":7827:7829   */\n      0x20\n        /* \"#utility.yul\":7816:7825   */\n      dup3\n        /* \"#utility.yul\":7812:7830   */\n      add\n        /* \"#utility.yul\":7804:7830   */\n      swap1\n      pop\n        /* \"#utility.yul\":7840:7911   */\n      tag_355\n        /* \"#utility.yul\":7908:7909   */\n      0x00\n        /* \"#utility.yul\":7897:7906   */\n      dup4\n        /* \"#utility.yul\":7893:7910   */\n      add\n        /* \"#utility.yul\":7884:7890   */\n      dup5\n        /* \"#utility.yul\":7840:7911   */\n      tag_278\n      jump\t// in\n    tag_355:\n        /* \"#utility.yul\":7696:7918   */\n      swap3\n      swap2\n      pop\n      pop\n      jump\t// out\n        /* \"#utility.yul\":7924:8366   */\n    tag_195:\n        /* \"#utility.yul\":8073:8077   */\n      0x00\n        /* \"#utility.yul\":8111:8113   */\n      0x60\n        /* \"#utility.yul\":8100:8109   */\n      dup3\n        /* \"#utility.yul\":8096:8114   */\n      add\n        /* \"#utility.yul\":8088:8114   */\n      swap1\n      pop\n        /* \"#utility.yul\":8124:8195   */\n      tag_357\n        /* \"#utility.yul\":8192:8193   */\n      0x00\n        /* \"#utility.yul\":8181:8190   */\n      dup4\n        /* \"#utility.yul\":8177:8194   */\n      add\n        /* \"#utility.yul\":8168:8174   */\n      dup7\n        /* \"#utility.yul\":8124:8195   */\n      tag_278\n      jump\t// in\n    tag_357:\n        /* \"#utility.yul\":8205:8277   */\n      tag_358\n        /* \"#utility.yul\":8273:8275   */\n      0x20\n        /* \"#utility.yul\":8262:8271   */\n      dup4\n        /* \"#utility.yul\":8258:8276   */\n      add\n        /* \"#utility.yul\":8249:8255   */\n      dup6\n        /* \"#utility.yul\":8205:8277   */\n      tag_278\n      jump\t// in\n    tag_358:\n        /* \"#utility.yul\":8287:8359   */\n      tag_359\n        /* \"#utility.yul\":8355:8357   */\n      0x40\n        /* \"#utility.yul\":8344:8353   */\n      dup4\n        /* \"#utility.yul\":8340:8358   */\n      add\n        /* \"#utility.yul\":8331:8337   */\n      dup5\n        /* \"#utility.yul\":8287:8359   */\n      tag_348\n      jump\t// in\n    tag_359:\n        /* \"#utility.yul\":7924:8366   */\n      swap5\n      swap4\n      pop\n      pop\n      pop\n      pop\n      jump\t// out\n        /* \"#utility.yul\":8372:8704   */\n    tag_189:\n        /* \"#utility.yul\":8493:8497   */\n      0x00\n        /* \"#utility.yul\":8531:8533   */\n      0x40\n        /* \"#utility.yul\":8520:8529   */\n      dup3\n        /* \"#utility.yul\":8516:8534   */\n      add\n        /* \"#utility.yul\":8508:8534   */\n      swap1\n      pop\n        /* \"#utility.yul\":8544:8615   */\n      tag_361\n        /* \"#utility.yul\":8612:8613   */\n      0x00\n        /* \"#utility.yul\":8601:8610   */\n      dup4\n        /* \"#utility.yul\":8597:8614   */\n      add\n        /* \"#utility.yul\":8588:8594   */\n      dup6\n        /* \"#utility.yul\":8544:8615   */\n      tag_278\n      jump\t// in\n    tag_361:\n        /* \"#utility.yul\":8625:8697   */\n      tag_362\n        /* \"#utility.yul\":8693:8695   */\n      0x20\n        /* \"#utility.yul\":8682:8691   */\n      dup4\n        /* \"#utility.yul\":8678:8696   */\n      add\n        /* \"#utility.yul\":8669:8675   */\n      dup5\n        /* \"#utility.yul\":8625:8697   */\n      tag_348\n      jump\t// in\n    tag_362:\n        /* \"#utility.yul\":8372:8704   */\n      swap4\n      swap3\n      pop\n      pop\n      pop\n      jump\t// out\n        /* \"#utility.yul\":8710:8920   */\n    tag_83:\n        /* \"#utility.yul\":8797:8801   */\n      0x00\n        /* \"#utility.yul\":8835:8837   */\n      0x20\n        /* \"#utility.yul\":8824:8833   */\n      dup3\n        /* \"#utility.yul\":8820:8838   */\n      add\n        /* \"#utility.yul\":8812:8838   */\n      swap1\n      pop\n        /* \"#utility.yul\":8848:8913   */\n      tag_364\n        /* \"#utility.yul\":8910:8911   */\n      0x00\n        /* \"#utility.yul\":8899:8908   */\n      dup4\n        /* \"#utility.yul\":8895:8912   */\n      add\n        /* \"#utility.yul\":8886:8892   */\n      dup5\n        /* \"#utility.yul\":8848:8913   */\n      tag_282\n      jump\t// in\n    tag_364:\n        /* \"#utility.yul\":8710:8920   */\n      swap3\n      swap2\n      pop\n      pop\n      jump\t// out\n        /* \"#utility.yul\":8926:9239   */\n    tag_231:\n        /* \"#utility.yul\":9039:9043   */\n      0x00\n        /* \"#utility.yul\":9077:9079   */\n      0x20\n        /* \"#utility.yul\":9066:9075   */\n      dup3\n        /* \"#utility.yul\":9062:9080   */\n      add\n        /* \"#utility.yul\":9054:9080   */\n      swap1\n      pop\n        /* \"#utility.yul\":9126:9135   */\n      dup2\n        /* \"#utility.yul\":9120:9124   */\n      dup2\n        /* \"#utility.yul\":9116:9136   */\n      sub\n        /* \"#utility.yul\":9112:9113   */\n      0x00\n        /* \"#utility.yul\":9101:9110   */\n      dup4\n        /* \"#utility.yul\":9097:9114   */\n      add\n        /* \"#utility.yul\":9090:9137   */\n      mstore\n        /* \"#utility.yul\":9154:9232   */\n      tag_366\n        /* \"#utility.yul\":9227:9231   */\n      dup2\n        /* \"#utility.yul\":9218:9224   */\n      dup5\n        /* \"#utility.yul\":9154:9232   */\n      tag_294\n      jump\t// in\n    tag_366:\n        /* \"#utility.yul\":9146:9232   */\n      swap1\n      pop\n        /* \"#utility.yul\":8926:9239   */\n      swap3\n      swap2\n      pop\n      pop\n      jump\t// out\n        /* \"#utility.yul\":9245:9664   */\n    tag_183:\n        /* \"#utility.yul\":9411:9415   */\n      0x00\n        /* \"#utility.yul\":9449:9451   */\n      0x20\n        /* \"#utility.yul\":9438:9447   */\n      dup3\n        /* \"#utility.yul\":9434:9452   */\n      add\n        /* \"#utility.yul\":9426:9452   */\n      swap1\n      pop\n        /* \"#utility.yul\":9498:9507   */\n      dup2\n        /* \"#utility.yul\":9492:9496   */\n      dup2\n        /* \"#utility.yul\":9488:9508   */\n      sub\n        /* \"#utility.yul\":9484:9485   */\n      0x00\n        /* \"#utility.yul\":9473:9482   */\n      dup4\n        /* \"#utility.yul\":9469:9486   */\n      add\n        /* \"#utility.yul\":9462:9509   */\n      mstore\n        /* \"#utility.yul\":9526:9657   */\n      tag_368\n        /* \"#utility.yul\":9652:9656   */\n      dup2\n        /* \"#utility.yul\":9526:9657   */\n      tag_303\n      jump\t// in\n    tag_368:\n        /* \"#utility.yul\":9518:9657   */\n      swap1\n      pop\n        /* \"#utility.yul\":9245:9664   */\n      swap2\n      swap1\n      pop\n      jump\t// out\n        /* \"#utility.yul\":9670:10089   */\n    tag_155:\n        /* \"#utility.yul\":9836:9840   */\n      0x00\n        /* \"#utility.yul\":9874:9876   */\n      0x20\n        /* \"#utility.yul\":9863:9872   */\n      dup3\n        /* \"#utility.yul\":9859:9877   */\n      add\n        /* \"#utility.yul\":9851:9877   */\n      swap1\n      pop\n        /* \"#utility.yul\":9923:9932   */\n      dup2\n        /* \"#utility.yul\":9917:9921   */\n      dup2\n        /* \"#utility.yul\":9913:9933   */\n      sub\n        /* \"#utility.yul\":9909:9910   */\n      0x00\n        /* \"#utility.yul\":9898:9907   */\n      dup4\n        /* \"#utility.yul\":9894:9911   */\n      add\n        /* \"#utility.yul\":9887:9934   */\n      mstore\n        /* \"#utility.yul\":9951:10082   */\n      tag_370\n        /* \"#utility.yul\":10077:10081   */\n      dup2\n        /* \"#utility.yul\":9951:10082   */\n      tag_308\n      jump\t// in\n    tag_370:\n        /* \"#utility.yul\":9943:10082   */\n      swap1\n      pop\n        /* \"#utility.yul\":9670:10089   */\n      swap2\n      swap1\n      pop\n      jump\t// out\n        /* \"#utility.yul\":10095:10514   */\n    tag_211:\n        /* \"#utility.yul\":10261:10265   */\n      0x00\n        /* \"#utility.yul\":10299:10301   */\n      0x20\n        /* \"#utility.yul\":10288:10297   */\n      dup3\n        /* \"#utility.yul\":10284:10302   */\n      add\n        /* \"#utility.yul\":10276:10302   */\n      swap1\n      pop\n        /* \"#utility.yul\":10348:10357   */\n      dup2\n        /* \"#utility.yul\":10342:10346   */\n      dup2\n        /* \"#utility.yul\":10338:10358   */\n      sub\n        /* \"#utility.yul\":10334:10335   */\n      0x00\n        /* \"#utility.yul\":10323:10332   */\n      dup4\n        /* \"#utility.yul\":10319:10336   */\n      add\n        /* \"#utility.yul\":10312:10359   */\n      mstore\n        /* \"#utility.yul\":10376:10507   */\n      tag_372\n        /* \"#utility.yul\":10502:10506   */\n      dup2\n        /* \"#utility.yul\":10376:10507   */\n      tag_313\n      jump\t// in\n    tag_372:\n        /* \"#utility.yul\":10368:10507   */\n      swap1\n      pop\n        /* \"#utility.yul\":10095:10514   */\n      swap2\n      swap1\n      pop\n      jump\t// out\n        /* \"#utility.yul\":10520:10939   */\n    tag_105:\n        /* \"#utility.yul\":10686:10690   */\n      0x00\n        /* \"#utility.yul\":10724:10726   */\n      0x20\n        /* \"#utility.yul\":10713:10722   */\n      dup3\n        /* \"#utility.yul\":10709:10727   */\n      add\n        /* \"#utility.yul\":10701:10727   */\n      swap1\n      pop\n        /* \"#utility.yul\":10773:10782   */\n      dup2\n        /* \"#utility.yul\":10767:10771   */\n      dup2\n        /* \"#utility.yul\":10763:10783   */\n      sub\n        /* \"#utility.yul\":10759:10760   */\n      0x00\n        /* \"#utility.yul\":10748:10757   */\n      dup4\n        /* \"#utility.yul\":10744:10761   */\n      add\n        /* \"#utility.yul\":10737:10784   */\n      mstore\n        /* \"#utility.yul\":10801:10932   */\n      tag_374\n        /* \"#utility.yul\":10927:10931   */\n      dup2\n        /* \"#utility.yul\":10801:10932   */\n      tag_318\n      jump\t// in\n    tag_374:\n        /* \"#utility.yul\":10793:10932   */\n      swap1\n      pop\n        /* \"#utility.yul\":10520:10939   */\n      swap2\n      swap1\n      pop\n      jump\t// out\n        /* \"#utility.yul\":10945:11364   */\n    tag_152:\n        /* \"#utility.yul\":11111:11115   */\n      0x00\n        /* \"#utility.yul\":11149:11151   */\n      0x20\n        /* \"#utility.yul\":11138:11147   */\n      dup3\n        /* \"#utility.yul\":11134:11152   */\n      add\n        /* \"#utility.yul\":11126:11152   */\n      swap1\n      pop\n        /* \"#utility.yul\":11198:11207   */\n      dup2\n        /* \"#utility.yul\":11192:11196   */\n      dup2\n        /* \"#utility.yul\":11188:11208   */\n      sub\n        /* \"#utility.yul\":11184:11185   */\n      0x00\n        /* \"#utility.yul\":11173:11182   */\n      dup4\n        /* \"#utility.yul\":11169:11186   */\n      add\n        /* \"#utility.yul\":11162:11209   */\n      mstore\n        /* \"#utility.yul\":11226:11357   */\n      tag_376\n        /* \"#utility.yul\":11352:11356   */\n      dup2\n        /* \"#utility.yul\":11226:11357   */\n      tag_323\n      jump\t// in\n    tag_376:\n        /* \"#utility.yul\":11218:11357   */\n      swap1\n      pop\n        /* \"#utility.yul\":10945:11364   */\n      swap2\n      swap1\n      pop\n      jump\t// out\n        /* \"#utility.yul\":11370:11789   */\n    tag_115:\n        /* \"#utility.yul\":11536:11540   */\n      0x00\n        /* \"#utility.yul\":11574:11576   */\n      0x20\n        /* \"#utility.yul\":11563:11572   */\n      dup3\n        /* \"#utility.yul\":11559:11577   */\n      add\n        /* \"#utility.yul\":11551:11577   */\n      swap1\n      pop\n        /* \"#utility.yul\":11623:11632   */\n      dup2\n        /* \"#utility.yul\":11617:11621   */\n      dup2\n        /* \"#utility.yul\":11613:11633   */\n      sub\n        /* \"#utility.yul\":11609:11610   */\n      0x00\n        /* \"#utility.yul\":11598:11607   */\n      dup4\n        /* \"#utility.yul\":11594:11611   */\n      add\n        /* \"#utility.yul\":11587:11634   */\n      mstore\n        /* \"#utility.yul\":11651:11782   */\n      tag_378\n        /* \"#utility.yul\":11777:11781   */\n      dup2\n        /* \"#utility.yul\":11651:11782   */\n      tag_328\n      jump\t// in\n    tag_378:\n        /* \"#utility.yul\":11643:11782   */\n      swap1\n      pop\n        /* \"#utility.yul\":11370:11789   */\n      swap2\n      swap1\n      pop\n      jump\t// out\n        /* \"#utility.yul\":11795:12214   */\n    tag_216:\n        /* \"#utility.yul\":11961:11965   */\n      0x00\n        /* \"#utility.yul\":11999:12001   */\n      0x20\n        /* \"#utility.yul\":11988:11997   */\n      dup3\n        /* \"#utility.yul\":11984:12002   */\n      add\n        /* \"#utility.yul\":11976:12002   */\n      swap1\n      pop\n        /* \"#utility.yul\":12048:12057   */\n      dup2\n        /* \"#utility.yul\":12042:12046   */\n      dup2\n        /* \"#utility.yul\":12038:12058   */\n      sub\n        /* \"#utility.yul\":12034:12035   */\n      0x00\n        /* \"#utility.yul\":12023:12032   */\n      dup4\n        /* \"#utility.yul\":12019:12036   */\n      add\n        /* \"#utility.yul\":12012:12059   */\n      mstore\n        /* \"#utility.yul\":12076:12207   */\n      tag_380\n        /* \"#utility.yul\":12202:12206   */\n      dup2\n        /* \"#utility.yul\":12076:12207   */\n      tag_333\n      jump\t// in\n    tag_380:\n        /* \"#utility.yul\":12068:12207   */\n      swap1\n      pop\n        /* \"#utility.yul\":11795:12214   */\n      swap2\n      swap1\n      pop\n      jump\t// out\n        /* \"#utility.yul\":12220:12639   */\n    tag_167:\n        /* \"#utility.yul\":12386:12390   */\n      0x00\n        /* \"#utility.yul\":12424:12426   */\n      0x20\n        /* \"#utility.yul\":12413:12422   */\n      dup3\n        /* \"#utility.yul\":12409:12427   */\n      add\n        /* \"#utility.yul\":12401:12427   */\n      swap1\n      pop\n        /* \"#utility.yul\":12473:12482   */\n      dup2\n        /* \"#utility.yul\":12467:12471   */\n      dup2\n        /* \"#utility.yul\":12463:12483   */\n      sub\n        /* \"#utility.yul\":12459:12460   */\n      0x00\n        /* \"#utility.yul\":12448:12457   */\n      dup4\n        /* \"#utility.yul\":12444:12461   */\n      add\n        /* \"#utility.yul\":12437:12484   */\n      mstore\n        /* \"#utility.yul\":12501:12632   */\n      tag_382\n        /* \"#utility.yul\":12627:12631   */\n      dup2\n        /* \"#utility.yul\":12501:12632   */\n      tag_338\n      jump\t// in\n    tag_382:\n        /* \"#utility.yul\":12493:12632   */\n      swap1\n      pop\n        /* \"#utility.yul\":12220:12639   */\n      swap2\n      swap1\n      pop\n      jump\t// out\n        /* \"#utility.yul\":12645:13064   */\n    tag_204:\n        /* \"#utility.yul\":12811:12815   */\n      0x00\n        /* \"#utility.yul\":12849:12851   */\n      0x20\n        /* \"#utility.yul\":12838:12847   */\n      dup3\n        /* \"#utility.yul\":12834:12852   */\n      add\n        /* \"#utility.yul\":12826:12852   */\n      swap1\n      pop\n        /* \"#utility.yul\":12898:12907   */\n      dup2\n        /* \"#utility.yul\":12892:12896   */\n      dup2\n        /* \"#utility.yul\":12888:12908   */\n      sub\n        /* \"#utility.yul\":12884:12885   */\n      0x00\n        /* \"#utility.yul\":12873:12882   */\n      dup4\n        /* \"#utility.yul\":12869:12886   */\n      add\n        /* \"#utility.yul\":12862:12909   */\n      mstore\n        /* \"#utility.yul\":12926:13057   */\n      tag_384\n        /* \"#utility.yul\":13052:13056   */\n      dup2\n        /* \"#utility.yul\":12926:13057   */\n      tag_343\n      jump\t// in\n    tag_384:\n        /* \"#utility.yul\":12918:13057   */\n      swap1\n      pop\n        /* \"#utility.yul\":12645:13064   */\n      swap2\n      swap1\n      pop\n      jump\t// out\n        /* \"#utility.yul\":13070:13292   */\n    tag_27:\n        /* \"#utility.yul\":13163:13167   */\n      0x00\n        /* \"#utility.yul\":13201:13203   */\n      0x20\n        /* \"#utility.yul\":13190:13199   */\n      dup3\n        /* \"#utility.yul\":13186:13204   */\n      add\n        /* \"#utility.yul\":13178:13204   */\n      swap1\n      pop\n        /* \"#utility.yul\":13214:13285   */\n      tag_386\n        /* \"#utility.yul\":13282:13283   */\n      0x00\n        /* \"#utility.yul\":13271:13280   */\n      dup4\n        /* \"#utility.yul\":13267:13284   */\n      add\n        /* \"#utility.yul\":13258:13264   */\n      dup5\n        /* \"#utility.yul\":13214:13285   */\n      tag_348\n      jump\t// in\n    tag_386:\n        /* \"#utility.yul\":13070:13292   */\n      swap3\n      swap2\n      pop\n      pop\n      jump\t// out\n        /* \"#utility.yul\":13379:13477   */\n    tag_289:\n        /* \"#utility.yul\":13430:13436   */\n      0x00\n        /* \"#utility.yul\":13464:13469   */\n      dup2\n        /* \"#utility.yul\":13458:13470   */\n      mload\n        /* \"#utility.yul\":13448:13470   */\n      swap1\n      pop\n        /* \"#utility.yul\":13379:13477   */\n      swap2\n      swap1\n      pop\n      jump\t// out\n        /* \"#utility.yul\":13483:13582   */\n    tag_297:\n        /* \"#utility.yul\":13535:13541   */\n      0x00\n        /* \"#utility.yul\":13569:13574   */\n      dup2\n        /* \"#utility.yul\":13563:13575   */\n      mload\n        /* \"#utility.yul\":13553:13575   */\n      swap1\n      pop\n        /* \"#utility.yul\":13483:13582   */\n      swap2\n      swap1\n      pop\n      jump\t// out\n        /* \"#utility.yul\":13588:13735   */\n    tag_291:\n        /* \"#utility.yul\":13689:13700   */\n      0x00\n        /* \"#utility.yul\":13726:13729   */\n      dup2\n        /* \"#utility.yul\":13711:13729   */\n      swap1\n      pop\n        /* \"#utility.yul\":13588:13735   */\n      swap3\n      swap2\n      pop\n      pop\n      jump\t// out\n        /* \"#utility.yul\":13741:13910   */\n    tag_299:\n        /* \"#utility.yul\":13825:13836   */\n      0x00\n        /* \"#utility.yul\":13859:13865   */\n      dup3\n        /* \"#utility.yul\":13854:13857   */\n      dup3\n        /* \"#utility.yul\":13847:13866   */\n      mstore\n        /* \"#utility.yul\":13899:13903   */\n      0x20\n        /* \"#utility.yul\":13894:13897   */\n      dup3\n        /* \"#utility.yul\":13890:13904   */\n      add\n        /* \"#utility.yul\":13875:13904   */\n      swap1\n      pop\n        /* \"#utility.yul\":13741:13910   */\n      swap3\n      swap2\n      pop\n      pop\n      jump\t// out\n        /* \"#utility.yul\":13916:14012   */\n    tag_281:\n        /* \"#utility.yul\":13953:13960   */\n      0x00\n        /* \"#utility.yul\":13982:14006   */\n      tag_394\n        /* \"#utility.yul\":14000:14005   */\n      dup3\n        /* \"#utility.yul\":13982:14006   */\n      tag_395\n      jump\t// in\n    tag_394:\n        /* \"#utility.yul\":13971:14006   */\n      swap1\n      pop\n        /* \"#utility.yul\":13916:14012   */\n      swap2\n      swap1\n      pop\n      jump\t// out\n        /* \"#utility.yul\":14018:14122   */\n    tag_396:\n        /* \"#utility.yul\":14063:14070   */\n      0x00\n        /* \"#utility.yul\":14092:14116   */\n      tag_398\n        /* \"#utility.yul\":14110:14115   */\n      dup3\n        /* \"#utility.yul\":14092:14116   */\n      tag_395\n      jump\t// in\n    tag_398:\n        /* \"#utility.yul\":14081:14116   */\n      swap1\n      pop\n        /* \"#utility.yul\":14018:14122   */\n      swap2\n      swap1\n      pop\n      jump\t// out\n        /* \"#utility.yul\":14128:14218   */\n    tag_285:\n        /* \"#utility.yul\":14162:14169   */\n      0x00\n        /* \"#utility.yul\":14205:14210   */\n      dup2\n        /* \"#utility.yul\":14198:14211   */\n      iszero\n        /* \"#utility.yul\":14191:14212   */\n      iszero\n        /* \"#utility.yul\":14180:14212   */\n      swap1\n      pop\n        /* \"#utility.yul\":14128:14218   */\n      swap2\n      swap1\n      pop\n      jump\t// out\n        /* \"#utility.yul\":14224:14350   */\n    tag_395:\n        /* \"#utility.yul\":14261:14268   */\n      0x00\n        /* \"#utility.yul\":14301:14343   */\n      0xffffffffffffffffffffffffffffffffffffffff\n        /* \"#utility.yul\":14294:14299   */\n      dup3\n        /* \"#utility.yul\":14290:14344   */\n      and\n        /* \"#utility.yul\":14279:14344   */\n      swap1\n      pop\n        /* \"#utility.yul\":14224:14350   */\n      swap2\n      swap1\n      pop\n      jump\t// out\n        /* \"#utility.yul\":14356:14433   */\n    tag_351:\n        /* \"#utility.yul\":14393:14400   */\n      0x00\n        /* \"#utility.yul\":14422:14427   */\n      dup2\n        /* \"#utility.yul\":14411:14427   */\n      swap1\n      pop\n        /* \"#utility.yul\":14356:14433   */\n      swap2\n      swap1\n      pop\n      jump\t// out\n        /* \"#utility.yul\":14439:14746   */\n    tag_293:\n        /* \"#utility.yul\":14507:14508   */\n      0x00\n        /* \"#utility.yul\":14517:14630   */\n    tag_403:\n        /* \"#utility.yul\":14531:14537   */\n      dup4\n        /* \"#utility.yul\":14528:14529   */\n      dup2\n        /* \"#utility.yul\":14525:14538   */\n      lt\n        /* \"#utility.yul\":14517:14630   */\n      iszero\n      tag_405\n      jumpi\n        /* \"#utility.yul\":14616:14617   */\n      dup1\n        /* \"#utility.yul\":14611:14614   */\n      dup3\n        /* \"#utility.yul\":14607:14618   */\n      add\n        /* \"#utility.yul\":14601:14619   */\n      mload\n        /* \"#utility.yul\":14597:14598   */\n      dup2\n        /* \"#utility.yul\":14592:14595   */\n      dup5\n        /* \"#utility.yul\":14588:14599   */\n      add\n        /* \"#utility.yul\":14581:14620   */\n      mstore\n        /* \"#utility.yul\":14553:14555   */\n      0x20\n        /* \"#utility.yul\":14550:14551   */\n      dup2\n        /* \"#utility.yul\":14546:14556   */\n      add\n        /* \"#utility.yul\":14541:14556   */\n      swap1\n      pop\n        /* \"#utility.yul\":14517:14630   */\n      jump(tag_403)\n    tag_405:\n        /* \"#utility.yul\":14648:14654   */\n      dup4\n        /* \"#utility.yul\":14645:14646   */\n      dup2\n        /* \"#utility.yul\":14642:14655   */\n      gt\n        /* \"#utility.yul\":14639:14740   */\n      iszero\n      tag_406\n      jumpi\n        /* \"#utility.yul\":14728:14729   */\n      0x00\n        /* \"#utility.yul\":14719:14725   */\n      dup5\n        /* \"#utility.yul\":14714:14717   */\n      dup5\n        /* \"#utility.yul\":14710:14726   */\n      add\n        /* \"#utility.yul\":14703:14730   */\n      mstore\n        /* \"#utility.yul\":14639:14740   */\n    tag_406:\n        /* \"#utility.yul\":14488:14746   */\n      pop\n        /* \"#utility.yul\":14439:14746   */\n      pop\n      pop\n      pop\n      jump\t// out\n        /* \"#utility.yul\":14875:14992   */\n    tag_255:\n        /* \"#utility.yul\":14984:14985   */\n      0x00\n        /* \"#utility.yul\":14981:14982   */\n      dup1\n        /* \"#utility.yul\":14974:14986   */\n      revert\n        /* \"#utility.yul\":14998:15100   */\n    tag_302:\n        /* \"#utility.yul\":15039:15045   */\n      0x00\n        /* \"#utility.yul\":15090:15092   */\n      0x1f\n        /* \"#utility.yul\":15086:15093   */\n      not\n        /* \"#utility.yul\":15081:15083   */\n      0x1f\n        /* \"#utility.yul\":15074:15079   */\n      dup4\n        /* \"#utility.yul\":15070:15084   */\n      add\n        /* \"#utility.yul\":15066:15094   */\n      and\n        /* \"#utility.yul\":15056:15094   */\n      swap1\n      pop\n        /* \"#utility.yul\":14998:15100   */\n      swap2\n      swap1\n      pop\n      jump\t// out\n        /* \"#utility.yul\":15106:15331   */\n    tag_307:\n        /* \"#utility.yul\":15246:15280   */\n      0x4f776e61626c653a206e6577206f776e657220697320746865207a65726f2061\n        /* \"#utility.yul\":15242:15243   */\n      0x00\n        /* \"#utility.yul\":15234:15240   */\n      dup3\n        /* \"#utility.yul\":15230:15244   */\n      add\n        /* \"#utility.yul\":15223:15281   */\n      mstore\n        /* \"#utility.yul\":15315:15323   */\n      0x6464726573730000000000000000000000000000000000000000000000000000\n        /* \"#utility.yul\":15310:15312   */\n      0x20\n        /* \"#utility.yul\":15302:15308   */\n      dup3\n        /* \"#utility.yul\":15298:15313   */\n      add\n        /* \"#utility.yul\":15291:15324   */\n      mstore\n        /* \"#utility.yul\":15106:15331   */\n      pop\n      jump\t// out\n        /* \"#utility.yul\":15337:15501   */\n    tag_312:\n        /* \"#utility.yul\":15477:15493   */\n      0x53616c652068617320656e646564000000000000000000000000000000000000\n        /* \"#utility.yul\":15473:15474   */\n      0x00\n        /* \"#utility.yul\":15465:15471   */\n      dup3\n        /* \"#utility.yul\":15461:15475   */\n      add\n        /* \"#utility.yul\":15454:15494   */\n      mstore\n        /* \"#utility.yul\":15337:15501   */\n      pop\n      jump\t// out\n        /* \"#utility.yul\":15507:15732   */\n    tag_317:\n        /* \"#utility.yul\":15647:15681   */\n      0x416464726573733a20696e73756666696369656e742062616c616e636520666f\n        /* \"#utility.yul\":15643:15644   */\n      0x00\n        /* \"#utility.yul\":15635:15641   */\n      dup3\n        /* \"#utility.yul\":15631:15645   */\n      add\n        /* \"#utility.yul\":15624:15682   */\n      mstore\n        /* \"#utility.yul\":15716:15724   */\n      0x722063616c6c0000000000000000000000000000000000000000000000000000\n        /* \"#utility.yul\":15711:15713   */\n      0x20\n        /* \"#utility.yul\":15703:15709   */\n      dup3\n        /* \"#utility.yul\":15699:15714   */\n      add\n        /* \"#utility.yul\":15692:15725   */\n      mstore\n        /* \"#utility.yul\":15507:15732   */\n      pop\n      jump\t// out\n        /* \"#utility.yul\":15738:15920   */\n    tag_322:\n        /* \"#utility.yul\":15878:15912   */\n      0x4f776e61626c653a2063616c6c6572206973206e6f7420746865206f776e6572\n        /* \"#utility.yul\":15874:15875   */\n      0x00\n        /* \"#utility.yul\":15866:15872   */\n      dup3\n        /* \"#utility.yul\":15862:15876   */\n      add\n        /* \"#utility.yul\":15855:15913   */\n      mstore\n        /* \"#utility.yul\":15738:15920   */\n      pop\n      jump\t// out\n        /* \"#utility.yul\":15926:16099   */\n    tag_327:\n        /* \"#utility.yul\":16066:16091   */\n      0x53616c65206861736e2774207374617274656420796574000000000000000000\n        /* \"#utility.yul\":16062:16063   */\n      0x00\n        /* \"#utility.yul\":16054:16060   */\n      dup3\n        /* \"#utility.yul\":16050:16064   */\n      add\n        /* \"#utility.yul\":16043:16092   */\n      mstore\n        /* \"#utility.yul\":15926:16099   */\n      pop\n      jump\t// out\n        /* \"#utility.yul\":16105:16272   */\n    tag_332:\n        /* \"#utility.yul\":16245:16264   */\n      0x53616c65206861736e277420656e646564000000000000000000000000000000\n        /* \"#utility.yul\":16241:16242   */\n      0x00\n        /* \"#utility.yul\":16233:16239   */\n      dup3\n        /* \"#utility.yul\":16229:16243   */\n      add\n        /* \"#utility.yul\":16222:16265   */\n      mstore\n        /* \"#utility.yul\":16105:16272   */\n      pop\n      jump\t// out\n        /* \"#utility.yul\":16278:16457   */\n    tag_337:\n        /* \"#utility.yul\":16418:16449   */\n      0x416464726573733a2063616c6c20746f206e6f6e2d636f6e7472616374000000\n        /* \"#utility.yul\":16414:16415   */\n      0x00\n        /* \"#utility.yul\":16406:16412   */\n      dup3\n        /* \"#utility.yul\":16402:16416   */\n      add\n        /* \"#utility.yul\":16395:16450   */\n      mstore\n        /* \"#utility.yul\":16278:16457   */\n      pop\n      jump\t// out\n        /* \"#utility.yul\":16463:16639   */\n    tag_342:\n        /* \"#utility.yul\":16603:16631   */\n      0x4e6f7420656e6f75676820746f6b656e20746f2072657475726e000000000000\n        /* \"#utility.yul\":16599:16600   */\n      0x00\n        /* \"#utility.yul\":16591:16597   */\n      dup3\n        /* \"#utility.yul\":16587:16601   */\n      add\n        /* \"#utility.yul\":16580:16632   */\n      mstore\n        /* \"#utility.yul\":16463:16639   */\n      pop\n      jump\t// out\n        /* \"#utility.yul\":16645:16874   */\n    tag_347:\n        /* \"#utility.yul\":16785:16819   */\n      0x5361666545524332303a204552433230206f7065726174696f6e20646964206e\n        /* \"#utility.yul\":16781:16782   */\n      0x00\n        /* \"#utility.yul\":16773:16779   */\n      dup3\n        /* \"#utility.yul\":16769:16783   */\n      add\n        /* \"#utility.yul\":16762:16820   */\n      mstore\n        /* \"#utility.yul\":16854:16866   */\n      0x6f74207375636365656400000000000000000000000000000000000000000000\n        /* \"#utility.yul\":16849:16851   */\n      0x20\n        /* \"#utility.yul\":16841:16847   */\n      dup3\n        /* \"#utility.yul\":16837:16852   */\n      add\n        /* \"#utility.yul\":16830:16867   */\n      mstore\n        /* \"#utility.yul\":16645:16874   */\n      pop\n      jump\t// out\n        /* \"#utility.yul\":16880:17002   */\n    tag_236:\n        /* \"#utility.yul\":16953:16977   */\n      tag_421\n        /* \"#utility.yul\":16971:16976   */\n      dup2\n        /* \"#utility.yul\":16953:16977   */\n      tag_281\n      jump\t// in\n    tag_421:\n        /* \"#utility.yul\":16946:16951   */\n      dup2\n        /* \"#utility.yul\":16943:16978   */\n      eq\n        /* \"#utility.yul\":16933:16996   */\n      tag_422\n      jumpi\n        /* \"#utility.yul\":16992:16993   */\n      0x00\n        /* \"#utility.yul\":16989:16990   */\n      dup1\n        /* \"#utility.yul\":16982:16994   */\n      revert\n        /* \"#utility.yul\":16933:16996   */\n    tag_422:\n        /* \"#utility.yul\":16880:17002   */\n      pop\n      jump\t// out\n        /* \"#utility.yul\":17008:17146   */\n    tag_240:\n        /* \"#utility.yul\":17089:17121   */\n      tag_424\n        /* \"#utility.yul\":17115:17120   */\n      dup2\n        /* \"#utility.yul\":17089:17121   */\n      tag_396\n      jump\t// in\n    tag_424:\n        /* \"#utility.yul\":17082:17087   */\n      dup2\n        /* \"#utility.yul\":17079:17122   */\n      eq\n        /* \"#utility.yul\":17069:17140   */\n      tag_425\n      jumpi\n        /* \"#utility.yul\":17136:17137   */\n      0x00\n        /* \"#utility.yul\":17133:17134   */\n      dup1\n        /* \"#utility.yul\":17126:17138   */\n      revert\n        /* \"#utility.yul\":17069:17140   */\n    tag_425:\n        /* \"#utility.yul\":17008:17146   */\n      pop\n      jump\t// out\n        /* \"#utility.yul\":17152:17268   */\n    tag_244:\n        /* \"#utility.yul\":17222:17243   */\n      tag_427\n        /* \"#utility.yul\":17237:17242   */\n      dup2\n        /* \"#utility.yul\":17222:17243   */\n      tag_285\n      jump\t// in\n    tag_427:\n        /* \"#utility.yul\":17215:17220   */\n      dup2\n        /* \"#utility.yul\":17212:17244   */\n      eq\n        /* \"#utility.yul\":17202:17262   */\n      tag_428\n      jumpi\n        /* \"#utility.yul\":17258:17259   */\n      0x00\n        /* \"#utility.yul\":17255:17256   */\n      dup1\n        /* \"#utility.yul\":17248:17260   */\n      revert\n        /* \"#utility.yul\":17202:17262   */\n    tag_428:\n        /* \"#utility.yul\":17152:17268   */\n      pop\n      jump\t// out\n        /* \"#utility.yul\":17274:17396   */\n    tag_248:\n        /* \"#utility.yul\":17347:17371   */\n      tag_430\n        /* \"#utility.yul\":17365:17370   */\n      dup2\n        /* \"#utility.yul\":17347:17371   */\n      tag_351\n      jump\t// in\n    tag_430:\n        /* \"#utility.yul\":17340:17345   */\n      dup2\n        /* \"#utility.yul\":17337:17372   */\n      eq\n        /* \"#utility.yul\":17327:17390   */\n      tag_431\n      jumpi\n        /* \"#utility.yul\":17386:17387   */\n      0x00\n        /* \"#utility.yul\":17383:17384   */\n      dup1\n        /* \"#utility.yul\":17376:17388   */\n      revert\n        /* \"#utility.yul\":17327:17390   */\n    tag_431:\n        /* \"#utility.yul\":17274:17396   */\n      pop\n      jump\t// out\n\n    auxdata: 0xa2646970667358221220bfdaf2d2caefcf57b700f955888b5f5ce95b9a2acfb952ead9ca60a345b3a09564736f6c63430008070033\n}\n",
				"bytecode": {
					"linkReferences": {},
					"object": "60806040523480156200001157600080fd5b5060405162001e0638038062001e06833981810160405281019062000037919062000214565b620000576200004b6200010360201b60201c565b6200010b60201b60201c565b62000068856200010b60201b60201c565b80600460006101000a81548173ffffffffffffffffffffffffffffffffffffffff021916908373ffffffffffffffffffffffffffffffffffffffff16021790555083600160006101000a81548173ffffffffffffffffffffffffffffffffffffffff021916908373ffffffffffffffffffffffffffffffffffffffff1602179055508260028190555081600381905550505050505062000341565b600033905090565b60008060009054906101000a900473ffffffffffffffffffffffffffffffffffffffff169050816000806101000a81548173ffffffffffffffffffffffffffffffffffffffff021916908373ffffffffffffffffffffffffffffffffffffffff1602179055508173ffffffffffffffffffffffffffffffffffffffff168173ffffffffffffffffffffffffffffffffffffffff167f8be0079c531659141344cd1fd0a4f28419497f9722a3daafe3b4186f6b6457e060405160405180910390a35050565b600081519050620001e081620002f3565b92915050565b600081519050620001f7816200030d565b92915050565b6000815190506200020e8162000327565b92915050565b600080600080600060a08688031215620002335762000232620002ee565b5b60006200024388828901620001cf565b95505060206200025688828901620001e6565b94505060406200026988828901620001fd565b93505060606200027c88828901620001fd565b92505060806200028f88828901620001cf565b9150509295509295909350565b6000620002a982620002c4565b9050919050565b6000620002bd82620002c4565b9050919050565b600073ffffffffffffffffffffffffffffffffffffffff82169050919050565b6000819050919050565b600080fd5b620002fe816200029c565b81146200030a57600080fd5b50565b6200031881620002b0565b81146200032457600080fd5b50565b6200033281620002e4565b81146200033e57600080fd5b50565b611ab580620003516000396000f3fe6080604052600436106100f35760003560e01c80638da5cb5b1161008a578063c10b935811610059578063c10b9358146102f7578063de2d583a14610322578063ee3def0e14610352578063f2fde38b1461037d576100f3565b80638da5cb5b1461024d5780639d76ea5814610278578063ab0bcc41146102a3578063ae77c237146102ce576100f3565b8063617fba04116100c6578063617fba04146101a55780636f9c6149146101e2578063715018a61461020b578063893d20e814610222576100f3565b806324076451146100f8578063295e4edf1461013557806351cff8d91461015e578063617785921461017a575b600080fd5b34801561010457600080fd5b5061011f600480360381019061011a919061126e565b6103a6565b60405161012c9190611750565b60405180910390f35b34801561014157600080fd5b5061015c600480360381019061015791906112f5565b61045a565b005b6101786004803603810190610173919061126e565b6104e0565b005b34801561018657600080fd5b5061018f6107d5565b60405161019c9190611578565b60405180910390f35b3480156101b157600080fd5b506101cc60048036038101906101c7919061126e565b6107fb565b6040516101d99190611750565b60405180910390f35b3480156101ee57600080fd5b50610209600480360381019061020491906112f5565b610847565b005b34801561021757600080fd5b506102206108cd565b005b34801561022e57600080fd5b50610237610955565b6040516102449190611578565b60405180910390f35b34801561025957600080fd5b50610262610964565b60405161026f9190611578565b60405180910390f35b34801561028457600080fd5b5061028d61098d565b60405161029a9190611578565b60405180910390f35b3480156102af57600080fd5b506102b86109b7565b6040516102c59190611750565b60405180910390f35b3480156102da57600080fd5b506102f560048036038101906102f0919061134f565b6109c1565b005b34801561030357600080fd5b5061030c610ac0565b6040516103199190611750565b60405180910390f35b61033c6004803603810190610337919061129b565b610aca565b60405161034991906115f3565b60405180910390f35b34801561035e57600080fd5b50610367610c23565b6040516103749190611578565b60405180910390f35b34801561038957600080fd5b506103a4600480360381019061039f919061126e565b610cb5565b005b6000600460009054906101000a900473ffffffffffffffffffffffffffffffffffffffff1673ffffffffffffffffffffffffffffffffffffffff166370a08231836040518263ffffffff1660e01b81526004016104039190611578565b60206040518083038186803b15801561041b57600080fd5b505afa15801561042f573d6000803e3d6000fd5b505050506040513d601f19601f820116820180604052508101906104539190611322565b9050919050565b610462610dad565b73ffffffffffffffffffffffffffffffffffffffff16610480610964565b73ffffffffffffffffffffffffffffffffffffffff16146104d6576040517f08c379a00000000000000000000000000000000000000000000000000000000081526004016104cd90611690565b60405180910390fd5b8060028190555050565b6104e8610dad565b73ffffffffffffffffffffffffffffffffffffffff16610506610964565b73ffffffffffffffffffffffffffffffffffffffff161461055c576040517f08c379a000000000000000000000000000000000000000000000000000000000815260040161055390611690565b60405180910390fd5b60035442116105a0576040517f08c379a0000000000000000000000000000000000000000000000000000000008152600401610597906116d0565b60405180910390fd5b6106b981600460009054906101000a900473ffffffffffffffffffffffffffffffffffffffff1673ffffffffffffffffffffffffffffffffffffffff166370a08231600160009054906101000a900473ffffffffffffffffffffffffffffffffffffffff166040518263ffffffff1660e01b81526004016106219190611578565b60206040518083038186803b15801561063957600080fd5b505afa15801561064d573d6000803e3d6000fd5b505050506040513d601f19601f820116820180604052508101906106719190611322565b600460009054906101000a900473ffffffffffffffffffffffffffffffffffffffff1673ffffffffffffffffffffffffffffffffffffffff16610db59092919063ffffffff16565b6107d281600460009054906101000a900473ffffffffffffffffffffffffffffffffffffffff1673ffffffffffffffffffffffffffffffffffffffff166370a08231600160009054906101000a900473ffffffffffffffffffffffffffffffffffffffff166040518263ffffffff1660e01b815260040161073a9190611578565b60206040518083038186803b15801561075257600080fd5b505afa158015610766573d6000803e3d6000fd5b505050506040513d601f19601f8201168201806040525081019061078a9190611322565b600460009054906101000a900473ffffffffffffffffffffffffffffffffffffffff1673ffffffffffffffffffffffffffffffffffffffff16610db59092919063ffffffff16565b50565b600460009054906101000a900473ffffffffffffffffffffffffffffffffffffffff1681565b6000600560008373ffffffffffffffffffffffffffffffffffffffff1673ffffffffffffffffffffffffffffffffffffffff168152602001908152602001600020600001549050919050565b61084f610dad565b73ffffffffffffffffffffffffffffffffffffffff1661086d610964565b73ffffffffffffffffffffffffffffffffffffffff16146108c3576040517f08c379a00000000000000000000000000000000000000000000000000000000081526004016108ba90611690565b60405180910390fd5b8060038190555050565b6108d5610dad565b73ffffffffffffffffffffffffffffffffffffffff166108f3610964565b73ffffffffffffffffffffffffffffffffffffffff1614610949576040517f08c379a000000000000000000000000000000000000000000000000000000000815260040161094090611690565b60405180910390fd5b6109536000610e3b565b565b600061095f610964565b905090565b60008060009054906101000a900473ffffffffffffffffffffffffffffffffffffffff16905090565b6000600160009054906101000a900473ffffffffffffffffffffffffffffffffffffffff16905090565b6000600254905090565b600254421015610a06576040517f08c379a00000000000000000000000000000000000000000000000000000000081526004016109fd906116b0565b60405180910390fd5b600354421115610a4b576040517f08c379a0000000000000000000000000000000000000000000000000000000008152600401610a4290611650565b60405180910390fd5b610abc33600160009054906101000a900473ffffffffffffffffffffffffffffffffffffffff1684600460009054906101000a900473ffffffffffffffffffffffffffffffffffffffff1673ffffffffffffffffffffffffffffffffffffffff16610eff909392919063ffffffff16565b5050565b6000600354905090565b6000610ad4610dad565b73ffffffffffffffffffffffffffffffffffffffff16610af2610964565b73ffffffffffffffffffffffffffffffffffffffff1614610b48576040517f08c379a0000000000000000000000000000000000000000000000000000000008152600401610b3f90611690565b60405180910390fd5b6000600560008473ffffffffffffffffffffffffffffffffffffffff1673ffffffffffffffffffffffffffffffffffffffff16815260200190815260200160002060000154905080471015610bd2576040517f08c379a0000000000000000000000000000000000000000000000000000000008152600401610bc990611710565b60405180910390fd5b8273ffffffffffffffffffffffffffffffffffffffff166108fc829081150290604051600060405180830381858888f19350505050158015610c18573d6000803e3d6000fd5b506001915050919050565b6000600254421015610c6a576040517f08c379a0000000000000000000000000000000000000000000000000000000008152600401610c61906116b0565b60405180910390fd5b600354421115610caf576040517f08c379a0000000000000000000000000000000000000000000000000000000008152600401610ca690611650565b60405180910390fd5b33905090565b610cbd610dad565b73ffffffffffffffffffffffffffffffffffffffff16610cdb610964565b73ffffffffffffffffffffffffffffffffffffffff1614610d31576040517f08c379a0000000000000000000000000000000000000000000000000000000008152600401610d2890611690565b60405180910390fd5b600073ffffffffffffffffffffffffffffffffffffffff168173ffffffffffffffffffffffffffffffffffffffff161415610da1576040517f08c379a0000000000000000000000000000000000000000000000000000000008152600401610d9890611630565b60405180910390fd5b610daa81610e3b565b50565b600033905090565b610e368363a9059cbb60e01b8484604051602401610dd49291906115ca565b604051602081830303815290604052907bffffffffffffffffffffffffffffffffffffffffffffffffffffffff19166020820180517bffffffffffffffffffffffffffffffffffffffffffffffffffffffff8381831617835250505050610f88565b505050565b60008060009054906101000a900473ffffffffffffffffffffffffffffffffffffffff169050816000806101000a81548173ffffffffffffffffffffffffffffffffffffffff021916908373ffffffffffffffffffffffffffffffffffffffff1602179055508173ffffffffffffffffffffffffffffffffffffffff168173ffffffffffffffffffffffffffffffffffffffff167f8be0079c531659141344cd1fd0a4f28419497f9722a3daafe3b4186f6b6457e060405160405180910390a35050565b610f82846323b872dd60e01b858585604051602401610f2093929190611593565b604051602081830303815290604052907bffffffffffffffffffffffffffffffffffffffffffffffffffffffff19166020820180517bffffffffffffffffffffffffffffffffffffffffffffffffffffffff8381831617835250505050610f88565b50505050565b6000610fea826040518060400160405280602081526020017f5361666545524332303a206c6f772d6c6576656c2063616c6c206661696c65648152508573ffffffffffffffffffffffffffffffffffffffff1661104f9092919063ffffffff16565b905060008151111561104a578080602001905181019061100a91906112c8565b611049576040517f08c379a000000000000000000000000000000000000000000000000000000000815260040161104090611730565b60405180910390fd5b5b505050565b606061105e8484600085611067565b90509392505050565b6060824710156110ac576040517f08c379a00000000000000000000000000000000000000000000000000000000081526004016110a390611670565b60405180910390fd5b6110b58561117b565b6110f4576040517f08c379a00000000000000000000000000000000000000000000000000000000081526004016110eb906116f0565b60405180910390fd5b6000808673ffffffffffffffffffffffffffffffffffffffff16858760405161111d9190611561565b60006040518083038185875af1925050503d806000811461115a576040519150601f19603f3d011682016040523d82523d6000602084013e61115f565b606091505b509150915061116f82828661119e565b92505050949350505050565b6000808273ffffffffffffffffffffffffffffffffffffffff163b119050919050565b606083156111ae578290506111fe565b6000835111156111c15782518084602001fd5b816040517f08c379a00000000000000000000000000000000000000000000000000000000081526004016111f5919061160e565b60405180910390fd5b9392505050565b60008135905061121481611a23565b92915050565b60008135905061122981611a3a565b92915050565b60008151905061123e81611a51565b92915050565b60008135905061125381611a68565b92915050565b60008151905061126881611a68565b92915050565b6000602082840312156112845761128361182a565b5b600061129284828501611205565b91505092915050565b6000602082840312156112b1576112b061182a565b5b60006112bf8482850161121a565b91505092915050565b6000602082840312156112de576112dd61182a565b5b60006112ec8482850161122f565b91505092915050565b60006020828403121561130b5761130a61182a565b5b600061131984828501611244565b91505092915050565b6000602082840312156113385761133761182a565b5b600061134684828501611259565b91505092915050565b600080604083850312156113665761136561182a565b5b600061137485828601611244565b925050602061138585828601611205565b9150509250929050565b6113988161179d565b82525050565b6113a7816117c1565b82525050565b60006113b88261176b565b6113c28185611781565b93506113d28185602086016117f7565b80840191505092915050565b60006113e982611776565b6113f3818561178c565b93506114038185602086016117f7565b61140c8161182f565b840191505092915050565b600061142460268361178c565b915061142f82611840565b604082019050919050565b6000611447600e8361178c565b91506114528261188f565b602082019050919050565b600061146a60268361178c565b9150611475826118b8565b604082019050919050565b600061148d60208361178c565b915061149882611907565b602082019050919050565b60006114b060178361178c565b91506114bb82611930565b602082019050919050565b60006114d360118361178c565b91506114de82611959565b602082019050919050565b60006114f6601d8361178c565b915061150182611982565b602082019050919050565b6000611519601a8361178c565b9150611524826119ab565b602082019050919050565b600061153c602a8361178c565b9150611547826119d4565b604082019050919050565b61155b816117ed565b82525050565b600061156d82846113ad565b915081905092915050565b600060208201905061158d600083018461138f565b92915050565b60006060820190506115a8600083018661138f565b6115b5602083018561138f565b6115c26040830184611552565b949350505050565b60006040820190506115df600083018561138f565b6115ec6020830184611552565b9392505050565b6000602082019050611608600083018461139e565b92915050565b6000602082019050818103600083015261162881846113de565b905092915050565b6000602082019050818103600083015261164981611417565b9050919050565b600060208201905081810360008301526116698161143a565b9050919050565b600060208201905081810360008301526116898161145d565b9050919050565b600060208201905081810360008301526116a981611480565b9050919050565b600060208201905081810360008301526116c9816114a3565b9050919050565b600060208201905081810360008301526116e9816114c6565b9050919050565b60006020820190508181036000830152611709816114e9565b9050919050565b600060208201905081810360008301526117298161150c565b9050919050565b600060208201905081810360008301526117498161152f565b9050919050565b60006020820190506117656000830184611552565b92915050565b600081519050919050565b600081519050919050565b600081905092915050565b600082825260208201905092915050565b60006117a8826117cd565b9050919050565b60006117ba826117cd565b9050919050565b60008115159050919050565b600073ffffffffffffffffffffffffffffffffffffffff82169050919050565b6000819050919050565b60005b838110156118155780820151818401526020810190506117fa565b83811115611824576000848401525b50505050565b600080fd5b6000601f19601f8301169050919050565b7f4f776e61626c653a206e6577206f776e657220697320746865207a65726f206160008201527f6464726573730000000000000000000000000000000000000000000000000000602082015250565b7f53616c652068617320656e646564000000000000000000000000000000000000600082015250565b7f416464726573733a20696e73756666696369656e742062616c616e636520666f60008201527f722063616c6c0000000000000000000000000000000000000000000000000000602082015250565b7f4f776e61626c653a2063616c6c6572206973206e6f7420746865206f776e6572600082015250565b7f53616c65206861736e2774207374617274656420796574000000000000000000600082015250565b7f53616c65206861736e277420656e646564000000000000000000000000000000600082015250565b7f416464726573733a2063616c6c20746f206e6f6e2d636f6e7472616374000000600082015250565b7f4e6f7420656e6f75676820746f6b656e20746f2072657475726e000000000000600082015250565b7f5361666545524332303a204552433230206f7065726174696f6e20646964206e60008201527f6f74207375636365656400000000000000000000000000000000000000000000602082015250565b611a2c8161179d565b8114611a3757600080fd5b50565b611a43816117af565b8114611a4e57600080fd5b50565b611a5a816117c1565b8114611a6557600080fd5b50565b611a71816117ed565b8114611a7c57600080fd5b5056fea2646970667358221220bfdaf2d2caefcf57b700f955888b5f5ce95b9a2acfb952ead9ca60a345b3a09564736f6c63430008070033",
					"opcodes": "PUSH1 0x80 PUSH1 0x40 MSTORE CALLVALUE DUP1 ISZERO PUSH3 0x11 JUMPI PUSH1 0x0 DUP1 REVERT JUMPDEST POP PUSH1 0x40 MLOAD PUSH3 0x1E06 CODESIZE SUB DUP1 PUSH3 0x1E06 DUP4 CODECOPY DUP2 DUP2 ADD PUSH1 0x40 MSTORE DUP2 ADD SWAP1 PUSH3 0x37 SWAP2 SWAP1 PUSH3 0x214 JUMP JUMPDEST PUSH3 0x57 PUSH3 0x4B PUSH3 0x103 PUSH1 0x20 SHL PUSH1 0x20 SHR JUMP JUMPDEST PUSH3 0x10B PUSH1 0x20 SHL PUSH1 0x20 SHR JUMP JUMPDEST PUSH3 0x68 DUP6 PUSH3 0x10B PUSH1 0x20 SHL PUSH1 0x20 SHR JUMP JUMPDEST DUP1 PUSH1 0x4 PUSH1 0x0 PUSH2 0x100 EXP DUP2 SLOAD DUP2 PUSH20 0xFFFFFFFFFFFFFFFFFFFFFFFFFFFFFFFFFFFFFFFF MUL NOT AND SWAP1 DUP4 PUSH20 0xFFFFFFFFFFFFFFFFFFFFFFFFFFFFFFFFFFFFFFFF AND MUL OR SWAP1 SSTORE POP DUP4 PUSH1 0x1 PUSH1 0x0 PUSH2 0x100 EXP DUP2 SLOAD DUP2 PUSH20 0xFFFFFFFFFFFFFFFFFFFFFFFFFFFFFFFFFFFFFFFF MUL NOT AND SWAP1 DUP4 PUSH20 0xFFFFFFFFFFFFFFFFFFFFFFFFFFFFFFFFFFFFFFFF AND MUL OR SWAP1 SSTORE POP DUP3 PUSH1 0x2 DUP2 SWAP1 SSTORE POP DUP2 PUSH1 0x3 DUP2 SWAP1 SSTORE POP POP POP POP POP POP PUSH3 0x341 JUMP JUMPDEST PUSH1 0x0 CALLER SWAP1 POP SWAP1 JUMP JUMPDEST PUSH1 0x0 DUP1 PUSH1 0x0 SWAP1 SLOAD SWAP1 PUSH2 0x100 EXP SWAP1 DIV PUSH20 0xFFFFFFFFFFFFFFFFFFFFFFFFFFFFFFFFFFFFFFFF AND SWAP1 POP DUP2 PUSH1 0x0 DUP1 PUSH2 0x100 EXP DUP2 SLOAD DUP2 PUSH20 0xFFFFFFFFFFFFFFFFFFFFFFFFFFFFFFFFFFFFFFFF MUL NOT AND SWAP1 DUP4 PUSH20 0xFFFFFFFFFFFFFFFFFFFFFFFFFFFFFFFFFFFFFFFF AND MUL OR SWAP1 SSTORE POP DUP2 PUSH20 0xFFFFFFFFFFFFFFFFFFFFFFFFFFFFFFFFFFFFFFFF AND DUP2 PUSH20 0xFFFFFFFFFFFFFFFFFFFFFFFFFFFFFFFFFFFFFFFF AND PUSH32 0x8BE0079C531659141344CD1FD0A4F28419497F9722A3DAAFE3B4186F6B6457E0 PUSH1 0x40 MLOAD PUSH1 0x40 MLOAD DUP1 SWAP2 SUB SWAP1 LOG3 POP POP JUMP JUMPDEST PUSH1 0x0 DUP2 MLOAD SWAP1 POP PUSH3 0x1E0 DUP2 PUSH3 0x2F3 JUMP JUMPDEST SWAP3 SWAP2 POP POP JUMP JUMPDEST PUSH1 0x0 DUP2 MLOAD SWAP1 POP PUSH3 0x1F7 DUP2 PUSH3 0x30D JUMP JUMPDEST SWAP3 SWAP2 POP POP JUMP JUMPDEST PUSH1 0x0 DUP2 MLOAD SWAP1 POP PUSH3 0x20E DUP2 PUSH3 0x327 JUMP JUMPDEST SWAP3 SWAP2 POP POP JUMP JUMPDEST PUSH1 0x0 DUP1 PUSH1 0x0 DUP1 PUSH1 0x0 PUSH1 0xA0 DUP7 DUP9 SUB SLT ISZERO PUSH3 0x233 JUMPI PUSH3 0x232 PUSH3 0x2EE JUMP JUMPDEST JUMPDEST PUSH1 0x0 PUSH3 0x243 DUP9 DUP3 DUP10 ADD PUSH3 0x1CF JUMP JUMPDEST SWAP6 POP POP PUSH1 0x20 PUSH3 0x256 DUP9 DUP3 DUP10 ADD PUSH3 0x1E6 JUMP JUMPDEST SWAP5 POP POP PUSH1 0x40 PUSH3 0x269 DUP9 DUP3 DUP10 ADD PUSH3 0x1FD JUMP JUMPDEST SWAP4 POP POP PUSH1 0x60 PUSH3 0x27C DUP9 DUP3 DUP10 ADD PUSH3 0x1FD JUMP JUMPDEST SWAP3 POP POP PUSH1 0x80 PUSH3 0x28F DUP9 DUP3 DUP10 ADD PUSH3 0x1CF JUMP JUMPDEST SWAP2 POP POP SWAP3 SWAP6 POP SWAP3 SWAP6 SWAP1 SWAP4 POP JUMP JUMPDEST PUSH1 0x0 PUSH3 0x2A9 DUP3 PUSH3 0x2C4 JUMP JUMPDEST SWAP1 POP SWAP2 SWAP1 POP JUMP JUMPDEST PUSH1 0x0 PUSH3 0x2BD DUP3 PUSH3 0x2C4 JUMP JUMPDEST SWAP1 POP SWAP2 SWAP1 POP JUMP JUMPDEST PUSH1 0x0 PUSH20 0xFFFFFFFFFFFFFFFFFFFFFFFFFFFFFFFFFFFFFFFF DUP3 AND SWAP1 POP SWAP2 SWAP1 POP JUMP JUMPDEST PUSH1 0x0 DUP2 SWAP1 POP SWAP2 SWAP1 POP JUMP JUMPDEST PUSH1 0x0 DUP1 REVERT JUMPDEST PUSH3 0x2FE DUP2 PUSH3 0x29C JUMP JUMPDEST DUP2 EQ PUSH3 0x30A JUMPI PUSH1 0x0 DUP1 REVERT JUMPDEST POP JUMP JUMPDEST PUSH3 0x318 DUP2 PUSH3 0x2B0 JUMP JUMPDEST DUP2 EQ PUSH3 0x324 JUMPI PUSH1 0x0 DUP1 REVERT JUMPDEST POP JUMP JUMPDEST PUSH3 0x332 DUP2 PUSH3 0x2E4 JUMP JUMPDEST DUP2 EQ PUSH3 0x33E JUMPI PUSH1 0x0 DUP1 REVERT JUMPDEST POP JUMP JUMPDEST PUSH2 0x1AB5 DUP1 PUSH3 0x351 PUSH1 0x0 CODECOPY PUSH1 0x0 RETURN INVALID PUSH1 0x80 PUSH1 0x40 MSTORE PUSH1 0x4 CALLDATASIZE LT PUSH2 0xF3 JUMPI PUSH1 0x0 CALLDATALOAD PUSH1 0xE0 SHR DUP1 PUSH4 0x8DA5CB5B GT PUSH2 0x8A JUMPI DUP1 PUSH4 0xC10B9358 GT PUSH2 0x59 JUMPI DUP1 PUSH4 0xC10B9358 EQ PUSH2 0x2F7 JUMPI DUP1 PUSH4 0xDE2D583A EQ PUSH2 0x322 JUMPI DUP1 PUSH4 0xEE3DEF0E EQ PUSH2 0x352 JUMPI DUP1 PUSH4 0xF2FDE38B EQ PUSH2 0x37D JUMPI PUSH2 0xF3 JUMP JUMPDEST DUP1 PUSH4 0x8DA5CB5B EQ PUSH2 0x24D JUMPI DUP1 PUSH4 0x9D76EA58 EQ PUSH2 0x278 JUMPI DUP1 PUSH4 0xAB0BCC41 EQ PUSH2 0x2A3 JUMPI DUP1 PUSH4 0xAE77C237 EQ PUSH2 0x2CE JUMPI PUSH2 0xF3 JUMP JUMPDEST DUP1 PUSH4 0x617FBA04 GT PUSH2 0xC6 JUMPI DUP1 PUSH4 0x617FBA04 EQ PUSH2 0x1A5 JUMPI DUP1 PUSH4 0x6F9C6149 EQ PUSH2 0x1E2 JUMPI DUP1 PUSH4 0x715018A6 EQ PUSH2 0x20B JUMPI DUP1 PUSH4 0x893D20E8 EQ PUSH2 0x222 JUMPI PUSH2 0xF3 JUMP JUMPDEST DUP1 PUSH4 0x24076451 EQ PUSH2 0xF8 JUMPI DUP1 PUSH4 0x295E4EDF EQ PUSH2 0x135 JUMPI DUP1 PUSH4 0x51CFF8D9 EQ PUSH2 0x15E JUMPI DUP1 PUSH4 0x61778592 EQ PUSH2 0x17A JUMPI JUMPDEST PUSH1 0x0 DUP1 REVERT JUMPDEST CALLVALUE DUP1 ISZERO PUSH2 0x104 JUMPI PUSH1 0x0 DUP1 REVERT JUMPDEST POP PUSH2 0x11F PUSH1 0x4 DUP1 CALLDATASIZE SUB DUP2 ADD SWAP1 PUSH2 0x11A SWAP2 SWAP1 PUSH2 0x126E JUMP JUMPDEST PUSH2 0x3A6 JUMP JUMPDEST PUSH1 0x40 MLOAD PUSH2 0x12C SWAP2 SWAP1 PUSH2 0x1750 JUMP JUMPDEST PUSH1 0x40 MLOAD DUP1 SWAP2 SUB SWAP1 RETURN JUMPDEST CALLVALUE DUP1 ISZERO PUSH2 0x141 JUMPI PUSH1 0x0 DUP1 REVERT JUMPDEST POP PUSH2 0x15C PUSH1 0x4 DUP1 CALLDATASIZE SUB DUP2 ADD SWAP1 PUSH2 0x157 SWAP2 SWAP1 PUSH2 0x12F5 JUMP JUMPDEST PUSH2 0x45A JUMP JUMPDEST STOP JUMPDEST PUSH2 0x178 PUSH1 0x4 DUP1 CALLDATASIZE SUB DUP2 ADD SWAP1 PUSH2 0x173 SWAP2 SWAP1 PUSH2 0x126E JUMP JUMPDEST PUSH2 0x4E0 JUMP JUMPDEST STOP JUMPDEST CALLVALUE DUP1 ISZERO PUSH2 0x186 JUMPI PUSH1 0x0 DUP1 REVERT JUMPDEST POP PUSH2 0x18F PUSH2 0x7D5 JUMP JUMPDEST PUSH1 0x40 MLOAD PUSH2 0x19C SWAP2 SWAP1 PUSH2 0x1578 JUMP JUMPDEST PUSH1 0x40 MLOAD DUP1 SWAP2 SUB SWAP1 RETURN JUMPDEST CALLVALUE DUP1 ISZERO PUSH2 0x1B1 JUMPI PUSH1 0x0 DUP1 REVERT JUMPDEST POP PUSH2 0x1CC PUSH1 0x4 DUP1 CALLDATASIZE SUB DUP2 ADD SWAP1 PUSH2 0x1C7 SWAP2 SWAP1 PUSH2 0x126E JUMP JUMPDEST PUSH2 0x7FB JUMP JUMPDEST PUSH1 0x40 MLOAD PUSH2 0x1D9 SWAP2 SWAP1 PUSH2 0x1750 JUMP JUMPDEST PUSH1 0x40 MLOAD DUP1 SWAP2 SUB SWAP1 RETURN JUMPDEST CALLVALUE DUP1 ISZERO PUSH2 0x1EE JUMPI PUSH1 0x0 DUP1 REVERT JUMPDEST POP PUSH2 0x209 PUSH1 0x4 DUP1 CALLDATASIZE SUB DUP2 ADD SWAP1 PUSH2 0x204 SWAP2 SWAP1 PUSH2 0x12F5 JUMP JUMPDEST PUSH2 0x847 JUMP JUMPDEST STOP JUMPDEST CALLVALUE DUP1 ISZERO PUSH2 0x217 JUMPI PUSH1 0x0 DUP1 REVERT JUMPDEST POP PUSH2 0x220 PUSH2 0x8CD JUMP JUMPDEST STOP JUMPDEST CALLVALUE DUP1 ISZERO PUSH2 0x22E JUMPI PUSH1 0x0 DUP1 REVERT JUMPDEST POP PUSH2 0x237 PUSH2 0x955 JUMP JUMPDEST PUSH1 0x40 MLOAD PUSH2 0x244 SWAP2 SWAP1 PUSH2 0x1578 JUMP JUMPDEST PUSH1 0x40 MLOAD DUP1 SWAP2 SUB SWAP1 RETURN JUMPDEST CALLVALUE DUP1 ISZERO PUSH2 0x259 JUMPI PUSH1 0x0 DUP1 REVERT JUMPDEST POP PUSH2 0x262 PUSH2 0x964 JUMP JUMPDEST PUSH1 0x40 MLOAD PUSH2 0x26F SWAP2 SWAP1 PUSH2 0x1578 JUMP JUMPDEST PUSH1 0x40 MLOAD DUP1 SWAP2 SUB SWAP1 RETURN JUMPDEST CALLVALUE DUP1 ISZERO PUSH2 0x284 JUMPI PUSH1 0x0 DUP1 REVERT JUMPDEST POP PUSH2 0x28D PUSH2 0x98D JUMP JUMPDEST PUSH1 0x40 MLOAD PUSH2 0x29A SWAP2 SWAP1 PUSH2 0x1578 JUMP JUMPDEST PUSH1 0x40 MLOAD DUP1 SWAP2 SUB SWAP1 RETURN JUMPDEST CALLVALUE DUP1 ISZERO PUSH2 0x2AF JUMPI PUSH1 0x0 DUP1 REVERT JUMPDEST POP PUSH2 0x2B8 PUSH2 0x9B7 JUMP JUMPDEST PUSH1 0x40 MLOAD PUSH2 0x2C5 SWAP2 SWAP1 PUSH2 0x1750 JUMP JUMPDEST PUSH1 0x40 MLOAD DUP1 SWAP2 SUB SWAP1 RETURN JUMPDEST CALLVALUE DUP1 ISZERO PUSH2 0x2DA JUMPI PUSH1 0x0 DUP1 REVERT JUMPDEST POP PUSH2 0x2F5 PUSH1 0x4 DUP1 CALLDATASIZE SUB DUP2 ADD SWAP1 PUSH2 0x2F0 SWAP2 SWAP1 PUSH2 0x134F JUMP JUMPDEST PUSH2 0x9C1 JUMP JUMPDEST STOP JUMPDEST CALLVALUE DUP1 ISZERO PUSH2 0x303 JUMPI PUSH1 0x0 DUP1 REVERT JUMPDEST POP PUSH2 0x30C PUSH2 0xAC0 JUMP JUMPDEST PUSH1 0x40 MLOAD PUSH2 0x319 SWAP2 SWAP1 PUSH2 0x1750 JUMP JUMPDEST PUSH1 0x40 MLOAD DUP1 SWAP2 SUB SWAP1 RETURN JUMPDEST PUSH2 0x33C PUSH1 0x4 DUP1 CALLDATASIZE SUB DUP2 ADD SWAP1 PUSH2 0x337 SWAP2 SWAP1 PUSH2 0x129B JUMP JUMPDEST PUSH2 0xACA JUMP JUMPDEST PUSH1 0x40 MLOAD PUSH2 0x349 SWAP2 SWAP1 PUSH2 0x15F3 JUMP JUMPDEST PUSH1 0x40 MLOAD DUP1 SWAP2 SUB SWAP1 RETURN JUMPDEST CALLVALUE DUP1 ISZERO PUSH2 0x35E JUMPI PUSH1 0x0 DUP1 REVERT JUMPDEST POP PUSH2 0x367 PUSH2 0xC23 JUMP JUMPDEST PUSH1 0x40 MLOAD PUSH2 0x374 SWAP2 SWAP1 PUSH2 0x1578 JUMP JUMPDEST PUSH1 0x40 MLOAD DUP1 SWAP2 SUB SWAP1 RETURN JUMPDEST CALLVALUE DUP1 ISZERO PUSH2 0x389 JUMPI PUSH1 0x0 DUP1 REVERT JUMPDEST POP PUSH2 0x3A4 PUSH1 0x4 DUP1 CALLDATASIZE SUB DUP2 ADD SWAP1 PUSH2 0x39F SWAP2 SWAP1 PUSH2 0x126E JUMP JUMPDEST PUSH2 0xCB5 JUMP JUMPDEST STOP JUMPDEST PUSH1 0x0 PUSH1 0x4 PUSH1 0x0 SWAP1 SLOAD SWAP1 PUSH2 0x100 EXP SWAP1 DIV PUSH20 0xFFFFFFFFFFFFFFFFFFFFFFFFFFFFFFFFFFFFFFFF AND PUSH20 0xFFFFFFFFFFFFFFFFFFFFFFFFFFFFFFFFFFFFFFFF AND PUSH4 0x70A08231 DUP4 PUSH1 0x40 MLOAD DUP3 PUSH4 0xFFFFFFFF AND PUSH1 0xE0 SHL DUP2 MSTORE PUSH1 0x4 ADD PUSH2 0x403 SWAP2 SWAP1 PUSH2 0x1578 JUMP JUMPDEST PUSH1 0x20 PUSH1 0x40 MLOAD DUP1 DUP4 SUB DUP2 DUP7 DUP1 EXTCODESIZE ISZERO DUP1 ISZERO PUSH2 0x41B JUMPI PUSH1 0x0 DUP1 REVERT JUMPDEST POP GAS STATICCALL ISZERO DUP1 ISZERO PUSH2 0x42F JUMPI RETURNDATASIZE PUSH1 0x0 DUP1 RETURNDATACOPY RETURNDATASIZE PUSH1 0x0 REVERT JUMPDEST POP POP POP POP PUSH1 0x40 MLOAD RETURNDATASIZE PUSH1 0x1F NOT PUSH1 0x1F DUP3 ADD AND DUP3 ADD DUP1 PUSH1 0x40 MSTORE POP DUP2 ADD SWAP1 PUSH2 0x453 SWAP2 SWAP1 PUSH2 0x1322 JUMP JUMPDEST SWAP1 POP SWAP2 SWAP1 POP JUMP JUMPDEST PUSH2 0x462 PUSH2 0xDAD JUMP JUMPDEST PUSH20 0xFFFFFFFFFFFFFFFFFFFFFFFFFFFFFFFFFFFFFFFF AND PUSH2 0x480 PUSH2 0x964 JUMP JUMPDEST PUSH20 0xFFFFFFFFFFFFFFFFFFFFFFFFFFFFFFFFFFFFFFFF AND EQ PUSH2 0x4D6 JUMPI PUSH1 0x40 MLOAD PUSH32 0x8C379A000000000000000000000000000000000000000000000000000000000 DUP2 MSTORE PUSH1 0x4 ADD PUSH2 0x4CD SWAP1 PUSH2 0x1690 JUMP JUMPDEST PUSH1 0x40 MLOAD DUP1 SWAP2 SUB SWAP1 REVERT JUMPDEST DUP1 PUSH1 0x2 DUP2 SWAP1 SSTORE POP POP JUMP JUMPDEST PUSH2 0x4E8 PUSH2 0xDAD JUMP JUMPDEST PUSH20 0xFFFFFFFFFFFFFFFFFFFFFFFFFFFFFFFFFFFFFFFF AND PUSH2 0x506 PUSH2 0x964 JUMP JUMPDEST PUSH20 0xFFFFFFFFFFFFFFFFFFFFFFFFFFFFFFFFFFFFFFFF AND EQ PUSH2 0x55C JUMPI PUSH1 0x40 MLOAD PUSH32 0x8C379A000000000000000000000000000000000000000000000000000000000 DUP2 MSTORE PUSH1 0x4 ADD PUSH2 0x553 SWAP1 PUSH2 0x1690 JUMP JUMPDEST PUSH1 0x40 MLOAD DUP1 SWAP2 SUB SWAP1 REVERT JUMPDEST PUSH1 0x3 SLOAD TIMESTAMP GT PUSH2 0x5A0 JUMPI PUSH1 0x40 MLOAD PUSH32 0x8C379A000000000000000000000000000000000000000000000000000000000 DUP2 MSTORE PUSH1 0x4 ADD PUSH2 0x597 SWAP1 PUSH2 0x16D0 JUMP JUMPDEST PUSH1 0x40 MLOAD DUP1 SWAP2 SUB SWAP1 REVERT JUMPDEST PUSH2 0x6B9 DUP2 PUSH1 0x4 PUSH1 0x0 SWAP1 SLOAD SWAP1 PUSH2 0x100 EXP SWAP1 DIV PUSH20 0xFFFFFFFFFFFFFFFFFFFFFFFFFFFFFFFFFFFFFFFF AND PUSH20 0xFFFFFFFFFFFFFFFFFFFFFFFFFFFFFFFFFFFFFFFF AND PUSH4 0x70A08231 PUSH1 0x1 PUSH1 0x0 SWAP1 SLOAD SWAP1 PUSH2 0x100 EXP SWAP1 DIV PUSH20 0xFFFFFFFFFFFFFFFFFFFFFFFFFFFFFFFFFFFFFFFF AND PUSH1 0x40 MLOAD DUP3 PUSH4 0xFFFFFFFF AND PUSH1 0xE0 SHL DUP2 MSTORE PUSH1 0x4 ADD PUSH2 0x621 SWAP2 SWAP1 PUSH2 0x1578 JUMP JUMPDEST PUSH1 0x20 PUSH1 0x40 MLOAD DUP1 DUP4 SUB DUP2 DUP7 DUP1 EXTCODESIZE ISZERO DUP1 ISZERO PUSH2 0x639 JUMPI PUSH1 0x0 DUP1 REVERT JUMPDEST POP GAS STATICCALL ISZERO DUP1 ISZERO PUSH2 0x64D JUMPI RETURNDATASIZE PUSH1 0x0 DUP1 RETURNDATACOPY RETURNDATASIZE PUSH1 0x0 REVERT JUMPDEST POP POP POP POP PUSH1 0x40 MLOAD RETURNDATASIZE PUSH1 0x1F NOT PUSH1 0x1F DUP3 ADD AND DUP3 ADD DUP1 PUSH1 0x40 MSTORE POP DUP2 ADD SWAP1 PUSH2 0x671 SWAP2 SWAP1 PUSH2 0x1322 JUMP JUMPDEST PUSH1 0x4 PUSH1 0x0 SWAP1 SLOAD SWAP1 PUSH2 0x100 EXP SWAP1 DIV PUSH20 0xFFFFFFFFFFFFFFFFFFFFFFFFFFFFFFFFFFFFFFFF AND PUSH20 0xFFFFFFFFFFFFFFFFFFFFFFFFFFFFFFFFFFFFFFFF AND PUSH2 0xDB5 SWAP1 SWAP3 SWAP2 SWAP1 PUSH4 0xFFFFFFFF AND JUMP JUMPDEST PUSH2 0x7D2 DUP2 PUSH1 0x4 PUSH1 0x0 SWAP1 SLOAD SWAP1 PUSH2 0x100 EXP SWAP1 DIV PUSH20 0xFFFFFFFFFFFFFFFFFFFFFFFFFFFFFFFFFFFFFFFF AND PUSH20 0xFFFFFFFFFFFFFFFFFFFFFFFFFFFFFFFFFFFFFFFF AND PUSH4 0x70A08231 PUSH1 0x1 PUSH1 0x0 SWAP1 SLOAD SWAP1 PUSH2 0x100 EXP SWAP1 DIV PUSH20 0xFFFFFFFFFFFFFFFFFFFFFFFFFFFFFFFFFFFFFFFF AND PUSH1 0x40 MLOAD DUP3 PUSH4 0xFFFFFFFF AND PUSH1 0xE0 SHL DUP2 MSTORE PUSH1 0x4 ADD PUSH2 0x73A SWAP2 SWAP1 PUSH2 0x1578 JUMP JUMPDEST PUSH1 0x20 PUSH1 0x40 MLOAD DUP1 DUP4 SUB DUP2 DUP7 DUP1 EXTCODESIZE ISZERO DUP1 ISZERO PUSH2 0x752 JUMPI PUSH1 0x0 DUP1 REVERT JUMPDEST POP GAS STATICCALL ISZERO DUP1 ISZERO PUSH2 0x766 JUMPI RETURNDATASIZE PUSH1 0x0 DUP1 RETURNDATACOPY RETURNDATASIZE PUSH1 0x0 REVERT JUMPDEST POP POP POP POP PUSH1 0x40 MLOAD RETURNDATASIZE PUSH1 0x1F NOT PUSH1 0x1F DUP3 ADD AND DUP3 ADD DUP1 PUSH1 0x40 MSTORE POP DUP2 ADD SWAP1 PUSH2 0x78A SWAP2 SWAP1 PUSH2 0x1322 JUMP JUMPDEST PUSH1 0x4 PUSH1 0x0 SWAP1 SLOAD SWAP1 PUSH2 0x100 EXP SWAP1 DIV PUSH20 0xFFFFFFFFFFFFFFFFFFFFFFFFFFFFFFFFFFFFFFFF AND PUSH20 0xFFFFFFFFFFFFFFFFFFFFFFFFFFFFFFFFFFFFFFFF AND PUSH2 0xDB5 SWAP1 SWAP3 SWAP2 SWAP1 PUSH4 0xFFFFFFFF AND JUMP JUMPDEST POP JUMP JUMPDEST PUSH1 0x4 PUSH1 0x0 SWAP1 SLOAD SWAP1 PUSH2 0x100 EXP SWAP1 DIV PUSH20 0xFFFFFFFFFFFFFFFFFFFFFFFFFFFFFFFFFFFFFFFF AND DUP2 JUMP JUMPDEST PUSH1 0x0 PUSH1 0x5 PUSH1 0x0 DUP4 PUSH20 0xFFFFFFFFFFFFFFFFFFFFFFFFFFFFFFFFFFFFFFFF AND PUSH20 0xFFFFFFFFFFFFFFFFFFFFFFFFFFFFFFFFFFFFFFFF AND DUP2 MSTORE PUSH1 0x20 ADD SWAP1 DUP2 MSTORE PUSH1 0x20 ADD PUSH1 0x0 KECCAK256 PUSH1 0x0 ADD SLOAD SWAP1 POP SWAP2 SWAP1 POP JUMP JUMPDEST PUSH2 0x84F PUSH2 0xDAD JUMP JUMPDEST PUSH20 0xFFFFFFFFFFFFFFFFFFFFFFFFFFFFFFFFFFFFFFFF AND PUSH2 0x86D PUSH2 0x964 JUMP JUMPDEST PUSH20 0xFFFFFFFFFFFFFFFFFFFFFFFFFFFFFFFFFFFFFFFF AND EQ PUSH2 0x8C3 JUMPI PUSH1 0x40 MLOAD PUSH32 0x8C379A000000000000000000000000000000000000000000000000000000000 DUP2 MSTORE PUSH1 0x4 ADD PUSH2 0x8BA SWAP1 PUSH2 0x1690 JUMP JUMPDEST PUSH1 0x40 MLOAD DUP1 SWAP2 SUB SWAP1 REVERT JUMPDEST DUP1 PUSH1 0x3 DUP2 SWAP1 SSTORE POP POP JUMP JUMPDEST PUSH2 0x8D5 PUSH2 0xDAD JUMP JUMPDEST PUSH20 0xFFFFFFFFFFFFFFFFFFFFFFFFFFFFFFFFFFFFFFFF AND PUSH2 0x8F3 PUSH2 0x964 JUMP JUMPDEST PUSH20 0xFFFFFFFFFFFFFFFFFFFFFFFFFFFFFFFFFFFFFFFF AND EQ PUSH2 0x949 JUMPI PUSH1 0x40 MLOAD PUSH32 0x8C379A000000000000000000000000000000000000000000000000000000000 DUP2 MSTORE PUSH1 0x4 ADD PUSH2 0x940 SWAP1 PUSH2 0x1690 JUMP JUMPDEST PUSH1 0x40 MLOAD DUP1 SWAP2 SUB SWAP1 REVERT JUMPDEST PUSH2 0x953 PUSH1 0x0 PUSH2 0xE3B JUMP JUMPDEST JUMP JUMPDEST PUSH1 0x0 PUSH2 0x95F PUSH2 0x964 JUMP JUMPDEST SWAP1 POP SWAP1 JUMP JUMPDEST PUSH1 0x0 DUP1 PUSH1 0x0 SWAP1 SLOAD SWAP1 PUSH2 0x100 EXP SWAP1 DIV PUSH20 0xFFFFFFFFFFFFFFFFFFFFFFFFFFFFFFFFFFFFFFFF AND SWAP1 POP SWAP1 JUMP JUMPDEST PUSH1 0x0 PUSH1 0x1 PUSH1 0x0 SWAP1 SLOAD SWAP1 PUSH2 0x100 EXP SWAP1 DIV PUSH20 0xFFFFFFFFFFFFFFFFFFFFFFFFFFFFFFFFFFFFFFFF AND SWAP1 POP SWAP1 JUMP JUMPDEST PUSH1 0x0 PUSH1 0x2 SLOAD SWAP1 POP SWAP1 JUMP JUMPDEST PUSH1 0x2 SLOAD TIMESTAMP LT ISZERO PUSH2 0xA06 JUMPI PUSH1 0x40 MLOAD PUSH32 0x8C379A000000000000000000000000000000000000000000000000000000000 DUP2 MSTORE PUSH1 0x4 ADD PUSH2 0x9FD SWAP1 PUSH2 0x16B0 JUMP JUMPDEST PUSH1 0x40 MLOAD DUP1 SWAP2 SUB SWAP1 REVERT JUMPDEST PUSH1 0x3 SLOAD TIMESTAMP GT ISZERO PUSH2 0xA4B JUMPI PUSH1 0x40 MLOAD PUSH32 0x8C379A000000000000000000000000000000000000000000000000000000000 DUP2 MSTORE PUSH1 0x4 ADD PUSH2 0xA42 SWAP1 PUSH2 0x1650 JUMP JUMPDEST PUSH1 0x40 MLOAD DUP1 SWAP2 SUB SWAP1 REVERT JUMPDEST PUSH2 0xABC CALLER PUSH1 0x1 PUSH1 0x0 SWAP1 SLOAD SWAP1 PUSH2 0x100 EXP SWAP1 DIV PUSH20 0xFFFFFFFFFFFFFFFFFFFFFFFFFFFFFFFFFFFFFFFF AND DUP5 PUSH1 0x4 PUSH1 0x0 SWAP1 SLOAD SWAP1 PUSH2 0x100 EXP SWAP1 DIV PUSH20 0xFFFFFFFFFFFFFFFFFFFFFFFFFFFFFFFFFFFFFFFF AND PUSH20 0xFFFFFFFFFFFFFFFFFFFFFFFFFFFFFFFFFFFFFFFF AND PUSH2 0xEFF SWAP1 SWAP4 SWAP3 SWAP2 SWAP1 PUSH4 0xFFFFFFFF AND JUMP JUMPDEST POP POP JUMP JUMPDEST PUSH1 0x0 PUSH1 0x3 SLOAD SWAP1 POP SWAP1 JUMP JUMPDEST PUSH1 0x0 PUSH2 0xAD4 PUSH2 0xDAD JUMP JUMPDEST PUSH20 0xFFFFFFFFFFFFFFFFFFFFFFFFFFFFFFFFFFFFFFFF AND PUSH2 0xAF2 PUSH2 0x964 JUMP JUMPDEST PUSH20 0xFFFFFFFFFFFFFFFFFFFFFFFFFFFFFFFFFFFFFFFF AND EQ PUSH2 0xB48 JUMPI PUSH1 0x40 MLOAD PUSH32 0x8C379A000000000000000000000000000000000000000000000000000000000 DUP2 MSTORE PUSH1 0x4 ADD PUSH2 0xB3F SWAP1 PUSH2 0x1690 JUMP JUMPDEST PUSH1 0x40 MLOAD DUP1 SWAP2 SUB SWAP1 REVERT JUMPDEST PUSH1 0x0 PUSH1 0x5 PUSH1 0x0 DUP5 PUSH20 0xFFFFFFFFFFFFFFFFFFFFFFFFFFFFFFFFFFFFFFFF AND PUSH20 0xFFFFFFFFFFFFFFFFFFFFFFFFFFFFFFFFFFFFFFFF AND DUP2 MSTORE PUSH1 0x20 ADD SWAP1 DUP2 MSTORE PUSH1 0x20 ADD PUSH1 0x0 KECCAK256 PUSH1 0x0 ADD SLOAD SWAP1 POP DUP1 SELFBALANCE LT ISZERO PUSH2 0xBD2 JUMPI PUSH1 0x40 MLOAD PUSH32 0x8C379A000000000000000000000000000000000000000000000000000000000 DUP2 MSTORE PUSH1 0x4 ADD PUSH2 0xBC9 SWAP1 PUSH2 0x1710 JUMP JUMPDEST PUSH1 0x40 MLOAD DUP1 SWAP2 SUB SWAP1 REVERT JUMPDEST DUP3 PUSH20 0xFFFFFFFFFFFFFFFFFFFFFFFFFFFFFFFFFFFFFFFF AND PUSH2 0x8FC DUP3 SWAP1 DUP2 ISZERO MUL SWAP1 PUSH1 0x40 MLOAD PUSH1 0x0 PUSH1 0x40 MLOAD DUP1 DUP4 SUB DUP2 DUP6 DUP9 DUP9 CALL SWAP4 POP POP POP POP ISZERO DUP1 ISZERO PUSH2 0xC18 JUMPI RETURNDATASIZE PUSH1 0x0 DUP1 RETURNDATACOPY RETURNDATASIZE PUSH1 0x0 REVERT JUMPDEST POP PUSH1 0x1 SWAP2 POP POP SWAP2 SWAP1 POP JUMP JUMPDEST PUSH1 0x0 PUSH1 0x2 SLOAD TIMESTAMP LT ISZERO PUSH2 0xC6A JUMPI PUSH1 0x40 MLOAD PUSH32 0x8C379A000000000000000000000000000000000000000000000000000000000 DUP2 MSTORE PUSH1 0x4 ADD PUSH2 0xC61 SWAP1 PUSH2 0x16B0 JUMP JUMPDEST PUSH1 0x40 MLOAD DUP1 SWAP2 SUB SWAP1 REVERT JUMPDEST PUSH1 0x3 SLOAD TIMESTAMP GT ISZERO PUSH2 0xCAF JUMPI PUSH1 0x40 MLOAD PUSH32 0x8C379A000000000000000000000000000000000000000000000000000000000 DUP2 MSTORE PUSH1 0x4 ADD PUSH2 0xCA6 SWAP1 PUSH2 0x1650 JUMP JUMPDEST PUSH1 0x40 MLOAD DUP1 SWAP2 SUB SWAP1 REVERT JUMPDEST CALLER SWAP1 POP SWAP1 JUMP JUMPDEST PUSH2 0xCBD PUSH2 0xDAD JUMP JUMPDEST PUSH20 0xFFFFFFFFFFFFFFFFFFFFFFFFFFFFFFFFFFFFFFFF AND PUSH2 0xCDB PUSH2 0x964 JUMP JUMPDEST PUSH20 0xFFFFFFFFFFFFFFFFFFFFFFFFFFFFFFFFFFFFFFFF AND EQ PUSH2 0xD31 JUMPI PUSH1 0x40 MLOAD PUSH32 0x8C379A000000000000000000000000000000000000000000000000000000000 DUP2 MSTORE PUSH1 0x4 ADD PUSH2 0xD28 SWAP1 PUSH2 0x1690 JUMP JUMPDEST PUSH1 0x40 MLOAD DUP1 SWAP2 SUB SWAP1 REVERT JUMPDEST PUSH1 0x0 PUSH20 0xFFFFFFFFFFFFFFFFFFFFFFFFFFFFFFFFFFFFFFFF AND DUP2 PUSH20 0xFFFFFFFFFFFFFFFFFFFFFFFFFFFFFFFFFFFFFFFF AND EQ ISZERO PUSH2 0xDA1 JUMPI PUSH1 0x40 MLOAD PUSH32 0x8C379A000000000000000000000000000000000000000000000000000000000 DUP2 MSTORE PUSH1 0x4 ADD PUSH2 0xD98 SWAP1 PUSH2 0x1630 JUMP JUMPDEST PUSH1 0x40 MLOAD DUP1 SWAP2 SUB SWAP1 REVERT JUMPDEST PUSH2 0xDAA DUP2 PUSH2 0xE3B JUMP JUMPDEST POP JUMP JUMPDEST PUSH1 0x0 CALLER SWAP1 POP SWAP1 JUMP JUMPDEST PUSH2 0xE36 DUP4 PUSH4 0xA9059CBB PUSH1 0xE0 SHL DUP5 DUP5 PUSH1 0x40 MLOAD PUSH1 0x24 ADD PUSH2 0xDD4 SWAP3 SWAP2 SWAP1 PUSH2 0x15CA JUMP JUMPDEST PUSH1 0x40 MLOAD PUSH1 0x20 DUP2 DUP4 SUB SUB DUP2 MSTORE SWAP1 PUSH1 0x40 MSTORE SWAP1 PUSH28 0xFFFFFFFFFFFFFFFFFFFFFFFFFFFFFFFFFFFFFFFFFFFFFFFFFFFFFFFF NOT AND PUSH1 0x20 DUP3 ADD DUP1 MLOAD PUSH28 0xFFFFFFFFFFFFFFFFFFFFFFFFFFFFFFFFFFFFFFFFFFFFFFFFFFFFFFFF DUP4 DUP2 DUP4 AND OR DUP4 MSTORE POP POP POP POP PUSH2 0xF88 JUMP JUMPDEST POP POP POP JUMP JUMPDEST PUSH1 0x0 DUP1 PUSH1 0x0 SWAP1 SLOAD SWAP1 PUSH2 0x100 EXP SWAP1 DIV PUSH20 0xFFFFFFFFFFFFFFFFFFFFFFFFFFFFFFFFFFFFFFFF AND SWAP1 POP DUP2 PUSH1 0x0 DUP1 PUSH2 0x100 EXP DUP2 SLOAD DUP2 PUSH20 0xFFFFFFFFFFFFFFFFFFFFFFFFFFFFFFFFFFFFFFFF MUL NOT AND SWAP1 DUP4 PUSH20 0xFFFFFFFFFFFFFFFFFFFFFFFFFFFFFFFFFFFFFFFF AND MUL OR SWAP1 SSTORE POP DUP2 PUSH20 0xFFFFFFFFFFFFFFFFFFFFFFFFFFFFFFFFFFFFFFFF AND DUP2 PUSH20 0xFFFFFFFFFFFFFFFFFFFFFFFFFFFFFFFFFFFFFFFF AND PUSH32 0x8BE0079C531659141344CD1FD0A4F28419497F9722A3DAAFE3B4186F6B6457E0 PUSH1 0x40 MLOAD PUSH1 0x40 MLOAD DUP1 SWAP2 SUB SWAP1 LOG3 POP POP JUMP JUMPDEST PUSH2 0xF82 DUP5 PUSH4 0x23B872DD PUSH1 0xE0 SHL DUP6 DUP6 DUP6 PUSH1 0x40 MLOAD PUSH1 0x24 ADD PUSH2 0xF20 SWAP4 SWAP3 SWAP2 SWAP1 PUSH2 0x1593 JUMP JUMPDEST PUSH1 0x40 MLOAD PUSH1 0x20 DUP2 DUP4 SUB SUB DUP2 MSTORE SWAP1 PUSH1 0x40 MSTORE SWAP1 PUSH28 0xFFFFFFFFFFFFFFFFFFFFFFFFFFFFFFFFFFFFFFFFFFFFFFFFFFFFFFFF NOT AND PUSH1 0x20 DUP3 ADD DUP1 MLOAD PUSH28 0xFFFFFFFFFFFFFFFFFFFFFFFFFFFFFFFFFFFFFFFFFFFFFFFFFFFFFFFF DUP4 DUP2 DUP4 AND OR DUP4 MSTORE POP POP POP POP PUSH2 0xF88 JUMP JUMPDEST POP POP POP POP JUMP JUMPDEST PUSH1 0x0 PUSH2 0xFEA DUP3 PUSH1 0x40 MLOAD DUP1 PUSH1 0x40 ADD PUSH1 0x40 MSTORE DUP1 PUSH1 0x20 DUP2 MSTORE PUSH1 0x20 ADD PUSH32 0x5361666545524332303A206C6F772D6C6576656C2063616C6C206661696C6564 DUP2 MSTORE POP DUP6 PUSH20 0xFFFFFFFFFFFFFFFFFFFFFFFFFFFFFFFFFFFFFFFF AND PUSH2 0x104F SWAP1 SWAP3 SWAP2 SWAP1 PUSH4 0xFFFFFFFF AND JUMP JUMPDEST SWAP1 POP PUSH1 0x0 DUP2 MLOAD GT ISZERO PUSH2 0x104A JUMPI DUP1 DUP1 PUSH1 0x20 ADD SWAP1 MLOAD DUP2 ADD SWAP1 PUSH2 0x100A SWAP2 SWAP1 PUSH2 0x12C8 JUMP JUMPDEST PUSH2 0x1049 JUMPI PUSH1 0x40 MLOAD PUSH32 0x8C379A000000000000000000000000000000000000000000000000000000000 DUP2 MSTORE PUSH1 0x4 ADD PUSH2 0x1040 SWAP1 PUSH2 0x1730 JUMP JUMPDEST PUSH1 0x40 MLOAD DUP1 SWAP2 SUB SWAP1 REVERT JUMPDEST JUMPDEST POP POP POP JUMP JUMPDEST PUSH1 0x60 PUSH2 0x105E DUP5 DUP5 PUSH1 0x0 DUP6 PUSH2 0x1067 JUMP JUMPDEST SWAP1 POP SWAP4 SWAP3 POP POP POP JUMP JUMPDEST PUSH1 0x60 DUP3 SELFBALANCE LT ISZERO PUSH2 0x10AC JUMPI PUSH1 0x40 MLOAD PUSH32 0x8C379A000000000000000000000000000000000000000000000000000000000 DUP2 MSTORE PUSH1 0x4 ADD PUSH2 0x10A3 SWAP1 PUSH2 0x1670 JUMP JUMPDEST PUSH1 0x40 MLOAD DUP1 SWAP2 SUB SWAP1 REVERT JUMPDEST PUSH2 0x10B5 DUP6 PUSH2 0x117B JUMP JUMPDEST PUSH2 0x10F4 JUMPI PUSH1 0x40 MLOAD PUSH32 0x8C379A000000000000000000000000000000000000000000000000000000000 DUP2 MSTORE PUSH1 0x4 ADD PUSH2 0x10EB SWAP1 PUSH2 0x16F0 JUMP JUMPDEST PUSH1 0x40 MLOAD DUP1 SWAP2 SUB SWAP1 REVERT JUMPDEST PUSH1 0x0 DUP1 DUP7 PUSH20 0xFFFFFFFFFFFFFFFFFFFFFFFFFFFFFFFFFFFFFFFF AND DUP6 DUP8 PUSH1 0x40 MLOAD PUSH2 0x111D SWAP2 SWAP1 PUSH2 0x1561 JUMP JUMPDEST PUSH1 0x0 PUSH1 0x40 MLOAD DUP1 DUP4 SUB DUP2 DUP6 DUP8 GAS CALL SWAP3 POP POP POP RETURNDATASIZE DUP1 PUSH1 0x0 DUP2 EQ PUSH2 0x115A JUMPI PUSH1 0x40 MLOAD SWAP2 POP PUSH1 0x1F NOT PUSH1 0x3F RETURNDATASIZE ADD AND DUP3 ADD PUSH1 0x40 MSTORE RETURNDATASIZE DUP3 MSTORE RETURNDATASIZE PUSH1 0x0 PUSH1 0x20 DUP5 ADD RETURNDATACOPY PUSH2 0x115F JUMP JUMPDEST PUSH1 0x60 SWAP2 POP JUMPDEST POP SWAP2 POP SWAP2 POP PUSH2 0x116F DUP3 DUP3 DUP7 PUSH2 0x119E JUMP JUMPDEST SWAP3 POP POP POP SWAP5 SWAP4 POP POP POP POP JUMP JUMPDEST PUSH1 0x0 DUP1 DUP3 PUSH20 0xFFFFFFFFFFFFFFFFFFFFFFFFFFFFFFFFFFFFFFFF AND EXTCODESIZE GT SWAP1 POP SWAP2 SWAP1 POP JUMP JUMPDEST PUSH1 0x60 DUP4 ISZERO PUSH2 0x11AE JUMPI DUP3 SWAP1 POP PUSH2 0x11FE JUMP JUMPDEST PUSH1 0x0 DUP4 MLOAD GT ISZERO PUSH2 0x11C1 JUMPI DUP3 MLOAD DUP1 DUP5 PUSH1 0x20 ADD REVERT JUMPDEST DUP2 PUSH1 0x40 MLOAD PUSH32 0x8C379A000000000000000000000000000000000000000000000000000000000 DUP2 MSTORE PUSH1 0x4 ADD PUSH2 0x11F5 SWAP2 SWAP1 PUSH2 0x160E JUMP JUMPDEST PUSH1 0x40 MLOAD DUP1 SWAP2 SUB SWAP1 REVERT JUMPDEST SWAP4 SWAP3 POP POP POP JUMP JUMPDEST PUSH1 0x0 DUP2 CALLDATALOAD SWAP1 POP PUSH2 0x1214 DUP2 PUSH2 0x1A23 JUMP JUMPDEST SWAP3 SWAP2 POP POP JUMP JUMPDEST PUSH1 0x0 DUP2 CALLDATALOAD SWAP1 POP PUSH2 0x1229 DUP2 PUSH2 0x1A3A JUMP JUMPDEST SWAP3 SWAP2 POP POP JUMP JUMPDEST PUSH1 0x0 DUP2 MLOAD SWAP1 POP PUSH2 0x123E DUP2 PUSH2 0x1A51 JUMP JUMPDEST SWAP3 SWAP2 POP POP JUMP JUMPDEST PUSH1 0x0 DUP2 CALLDATALOAD SWAP1 POP PUSH2 0x1253 DUP2 PUSH2 0x1A68 JUMP JUMPDEST SWAP3 SWAP2 POP POP JUMP JUMPDEST PUSH1 0x0 DUP2 MLOAD SWAP1 POP PUSH2 0x1268 DUP2 PUSH2 0x1A68 JUMP JUMPDEST SWAP3 SWAP2 POP POP JUMP JUMPDEST PUSH1 0x0 PUSH1 0x20 DUP3 DUP5 SUB SLT ISZERO PUSH2 0x1284 JUMPI PUSH2 0x1283 PUSH2 0x182A JUMP JUMPDEST JUMPDEST PUSH1 0x0 PUSH2 0x1292 DUP5 DUP3 DUP6 ADD PUSH2 0x1205 JUMP JUMPDEST SWAP2 POP POP SWAP3 SWAP2 POP POP JUMP JUMPDEST PUSH1 0x0 PUSH1 0x20 DUP3 DUP5 SUB SLT ISZERO PUSH2 0x12B1 JUMPI PUSH2 0x12B0 PUSH2 0x182A JUMP JUMPDEST JUMPDEST PUSH1 0x0 PUSH2 0x12BF DUP5 DUP3 DUP6 ADD PUSH2 0x121A JUMP JUMPDEST SWAP2 POP POP SWAP3 SWAP2 POP POP JUMP JUMPDEST PUSH1 0x0 PUSH1 0x20 DUP3 DUP5 SUB SLT ISZERO PUSH2 0x12DE JUMPI PUSH2 0x12DD PUSH2 0x182A JUMP JUMPDEST JUMPDEST PUSH1 0x0 PUSH2 0x12EC DUP5 DUP3 DUP6 ADD PUSH2 0x122F JUMP JUMPDEST SWAP2 POP POP SWAP3 SWAP2 POP POP JUMP JUMPDEST PUSH1 0x0 PUSH1 0x20 DUP3 DUP5 SUB SLT ISZERO PUSH2 0x130B JUMPI PUSH2 0x130A PUSH2 0x182A JUMP JUMPDEST JUMPDEST PUSH1 0x0 PUSH2 0x1319 DUP5 DUP3 DUP6 ADD PUSH2 0x1244 JUMP JUMPDEST SWAP2 POP POP SWAP3 SWAP2 POP POP JUMP JUMPDEST PUSH1 0x0 PUSH1 0x20 DUP3 DUP5 SUB SLT ISZERO PUSH2 0x1338 JUMPI PUSH2 0x1337 PUSH2 0x182A JUMP JUMPDEST JUMPDEST PUSH1 0x0 PUSH2 0x1346 DUP5 DUP3 DUP6 ADD PUSH2 0x1259 JUMP JUMPDEST SWAP2 POP POP SWAP3 SWAP2 POP POP JUMP JUMPDEST PUSH1 0x0 DUP1 PUSH1 0x40 DUP4 DUP6 SUB SLT ISZERO PUSH2 0x1366 JUMPI PUSH2 0x1365 PUSH2 0x182A JUMP JUMPDEST JUMPDEST PUSH1 0x0 PUSH2 0x1374 DUP6 DUP3 DUP7 ADD PUSH2 0x1244 JUMP JUMPDEST SWAP3 POP POP PUSH1 0x20 PUSH2 0x1385 DUP6 DUP3 DUP7 ADD PUSH2 0x1205 JUMP JUMPDEST SWAP2 POP POP SWAP3 POP SWAP3 SWAP1 POP JUMP JUMPDEST PUSH2 0x1398 DUP2 PUSH2 0x179D JUMP JUMPDEST DUP3 MSTORE POP POP JUMP JUMPDEST PUSH2 0x13A7 DUP2 PUSH2 0x17C1 JUMP JUMPDEST DUP3 MSTORE POP POP JUMP JUMPDEST PUSH1 0x0 PUSH2 0x13B8 DUP3 PUSH2 0x176B JUMP JUMPDEST PUSH2 0x13C2 DUP2 DUP6 PUSH2 0x1781 JUMP JUMPDEST SWAP4 POP PUSH2 0x13D2 DUP2 DUP6 PUSH1 0x20 DUP7 ADD PUSH2 0x17F7 JUMP JUMPDEST DUP1 DUP5 ADD SWAP2 POP POP SWAP3 SWAP2 POP POP JUMP JUMPDEST PUSH1 0x0 PUSH2 0x13E9 DUP3 PUSH2 0x1776 JUMP JUMPDEST PUSH2 0x13F3 DUP2 DUP6 PUSH2 0x178C JUMP JUMPDEST SWAP4 POP PUSH2 0x1403 DUP2 DUP6 PUSH1 0x20 DUP7 ADD PUSH2 0x17F7 JUMP JUMPDEST PUSH2 0x140C DUP2 PUSH2 0x182F JUMP JUMPDEST DUP5 ADD SWAP2 POP POP SWAP3 SWAP2 POP POP JUMP JUMPDEST PUSH1 0x0 PUSH2 0x1424 PUSH1 0x26 DUP4 PUSH2 0x178C JUMP JUMPDEST SWAP2 POP PUSH2 0x142F DUP3 PUSH2 0x1840 JUMP JUMPDEST PUSH1 0x40 DUP3 ADD SWAP1 POP SWAP2 SWAP1 POP JUMP JUMPDEST PUSH1 0x0 PUSH2 0x1447 PUSH1 0xE DUP4 PUSH2 0x178C JUMP JUMPDEST SWAP2 POP PUSH2 0x1452 DUP3 PUSH2 0x188F JUMP JUMPDEST PUSH1 0x20 DUP3 ADD SWAP1 POP SWAP2 SWAP1 POP JUMP JUMPDEST PUSH1 0x0 PUSH2 0x146A PUSH1 0x26 DUP4 PUSH2 0x178C JUMP JUMPDEST SWAP2 POP PUSH2 0x1475 DUP3 PUSH2 0x18B8 JUMP JUMPDEST PUSH1 0x40 DUP3 ADD SWAP1 POP SWAP2 SWAP1 POP JUMP JUMPDEST PUSH1 0x0 PUSH2 0x148D PUSH1 0x20 DUP4 PUSH2 0x178C JUMP JUMPDEST SWAP2 POP PUSH2 0x1498 DUP3 PUSH2 0x1907 JUMP JUMPDEST PUSH1 0x20 DUP3 ADD SWAP1 POP SWAP2 SWAP1 POP JUMP JUMPDEST PUSH1 0x0 PUSH2 0x14B0 PUSH1 0x17 DUP4 PUSH2 0x178C JUMP JUMPDEST SWAP2 POP PUSH2 0x14BB DUP3 PUSH2 0x1930 JUMP JUMPDEST PUSH1 0x20 DUP3 ADD SWAP1 POP SWAP2 SWAP1 POP JUMP JUMPDEST PUSH1 0x0 PUSH2 0x14D3 PUSH1 0x11 DUP4 PUSH2 0x178C JUMP JUMPDEST SWAP2 POP PUSH2 0x14DE DUP3 PUSH2 0x1959 JUMP JUMPDEST PUSH1 0x20 DUP3 ADD SWAP1 POP SWAP2 SWAP1 POP JUMP JUMPDEST PUSH1 0x0 PUSH2 0x14F6 PUSH1 0x1D DUP4 PUSH2 0x178C JUMP JUMPDEST SWAP2 POP PUSH2 0x1501 DUP3 PUSH2 0x1982 JUMP JUMPDEST PUSH1 0x20 DUP3 ADD SWAP1 POP SWAP2 SWAP1 POP JUMP JUMPDEST PUSH1 0x0 PUSH2 0x1519 PUSH1 0x1A DUP4 PUSH2 0x178C JUMP JUMPDEST SWAP2 POP PUSH2 0x1524 DUP3 PUSH2 0x19AB JUMP JUMPDEST PUSH1 0x20 DUP3 ADD SWAP1 POP SWAP2 SWAP1 POP JUMP JUMPDEST PUSH1 0x0 PUSH2 0x153C PUSH1 0x2A DUP4 PUSH2 0x178C JUMP JUMPDEST SWAP2 POP PUSH2 0x1547 DUP3 PUSH2 0x19D4 JUMP JUMPDEST PUSH1 0x40 DUP3 ADD SWAP1 POP SWAP2 SWAP1 POP JUMP JUMPDEST PUSH2 0x155B DUP2 PUSH2 0x17ED JUMP JUMPDEST DUP3 MSTORE POP POP JUMP JUMPDEST PUSH1 0x0 PUSH2 0x156D DUP3 DUP5 PUSH2 0x13AD JUMP JUMPDEST SWAP2 POP DUP2 SWAP1 POP SWAP3 SWAP2 POP POP JUMP JUMPDEST PUSH1 0x0 PUSH1 0x20 DUP3 ADD SWAP1 POP PUSH2 0x158D PUSH1 0x0 DUP4 ADD DUP5 PUSH2 0x138F JUMP JUMPDEST SWAP3 SWAP2 POP POP JUMP JUMPDEST PUSH1 0x0 PUSH1 0x60 DUP3 ADD SWAP1 POP PUSH2 0x15A8 PUSH1 0x0 DUP4 ADD DUP7 PUSH2 0x138F JUMP JUMPDEST PUSH2 0x15B5 PUSH1 0x20 DUP4 ADD DUP6 PUSH2 0x138F JUMP JUMPDEST PUSH2 0x15C2 PUSH1 0x40 DUP4 ADD DUP5 PUSH2 0x1552 JUMP JUMPDEST SWAP5 SWAP4 POP POP POP POP JUMP JUMPDEST PUSH1 0x0 PUSH1 0x40 DUP3 ADD SWAP1 POP PUSH2 0x15DF PUSH1 0x0 DUP4 ADD DUP6 PUSH2 0x138F JUMP JUMPDEST PUSH2 0x15EC PUSH1 0x20 DUP4 ADD DUP5 PUSH2 0x1552 JUMP JUMPDEST SWAP4 SWAP3 POP POP POP JUMP JUMPDEST PUSH1 0x0 PUSH1 0x20 DUP3 ADD SWAP1 POP PUSH2 0x1608 PUSH1 0x0 DUP4 ADD DUP5 PUSH2 0x139E JUMP JUMPDEST SWAP3 SWAP2 POP POP JUMP JUMPDEST PUSH1 0x0 PUSH1 0x20 DUP3 ADD SWAP1 POP DUP2 DUP2 SUB PUSH1 0x0 DUP4 ADD MSTORE PUSH2 0x1628 DUP2 DUP5 PUSH2 0x13DE JUMP JUMPDEST SWAP1 POP SWAP3 SWAP2 POP POP JUMP JUMPDEST PUSH1 0x0 PUSH1 0x20 DUP3 ADD SWAP1 POP DUP2 DUP2 SUB PUSH1 0x0 DUP4 ADD MSTORE PUSH2 0x1649 DUP2 PUSH2 0x1417 JUMP JUMPDEST SWAP1 POP SWAP2 SWAP1 POP JUMP JUMPDEST PUSH1 0x0 PUSH1 0x20 DUP3 ADD SWAP1 POP DUP2 DUP2 SUB PUSH1 0x0 DUP4 ADD MSTORE PUSH2 0x1669 DUP2 PUSH2 0x143A JUMP JUMPDEST SWAP1 POP SWAP2 SWAP1 POP JUMP JUMPDEST PUSH1 0x0 PUSH1 0x20 DUP3 ADD SWAP1 POP DUP2 DUP2 SUB PUSH1 0x0 DUP4 ADD MSTORE PUSH2 0x1689 DUP2 PUSH2 0x145D JUMP JUMPDEST SWAP1 POP SWAP2 SWAP1 POP JUMP JUMPDEST PUSH1 0x0 PUSH1 0x20 DUP3 ADD SWAP1 POP DUP2 DUP2 SUB PUSH1 0x0 DUP4 ADD MSTORE PUSH2 0x16A9 DUP2 PUSH2 0x1480 JUMP JUMPDEST SWAP1 POP SWAP2 SWAP1 POP JUMP JUMPDEST PUSH1 0x0 PUSH1 0x20 DUP3 ADD SWAP1 POP DUP2 DUP2 SUB PUSH1 0x0 DUP4 ADD MSTORE PUSH2 0x16C9 DUP2 PUSH2 0x14A3 JUMP JUMPDEST SWAP1 POP SWAP2 SWAP1 POP JUMP JUMPDEST PUSH1 0x0 PUSH1 0x20 DUP3 ADD SWAP1 POP DUP2 DUP2 SUB PUSH1 0x0 DUP4 ADD MSTORE PUSH2 0x16E9 DUP2 PUSH2 0x14C6 JUMP JUMPDEST SWAP1 POP SWAP2 SWAP1 POP JUMP JUMPDEST PUSH1 0x0 PUSH1 0x20 DUP3 ADD SWAP1 POP DUP2 DUP2 SUB PUSH1 0x0 DUP4 ADD MSTORE PUSH2 0x1709 DUP2 PUSH2 0x14E9 JUMP JUMPDEST SWAP1 POP SWAP2 SWAP1 POP JUMP JUMPDEST PUSH1 0x0 PUSH1 0x20 DUP3 ADD SWAP1 POP DUP2 DUP2 SUB PUSH1 0x0 DUP4 ADD MSTORE PUSH2 0x1729 DUP2 PUSH2 0x150C JUMP JUMPDEST SWAP1 POP SWAP2 SWAP1 POP JUMP JUMPDEST PUSH1 0x0 PUSH1 0x20 DUP3 ADD SWAP1 POP DUP2 DUP2 SUB PUSH1 0x0 DUP4 ADD MSTORE PUSH2 0x1749 DUP2 PUSH2 0x152F JUMP JUMPDEST SWAP1 POP SWAP2 SWAP1 POP JUMP JUMPDEST PUSH1 0x0 PUSH1 0x20 DUP3 ADD SWAP1 POP PUSH2 0x1765 PUSH1 0x0 DUP4 ADD DUP5 PUSH2 0x1552 JUMP JUMPDEST SWAP3 SWAP2 POP POP JUMP JUMPDEST PUSH1 0x0 DUP2 MLOAD SWAP1 POP SWAP2 SWAP1 POP JUMP JUMPDEST PUSH1 0x0 DUP2 MLOAD SWAP1 POP SWAP2 SWAP1 POP JUMP JUMPDEST PUSH1 0x0 DUP2 SWAP1 POP SWAP3 SWAP2 POP POP JUMP JUMPDEST PUSH1 0x0 DUP3 DUP3 MSTORE PUSH1 0x20 DUP3 ADD SWAP1 POP SWAP3 SWAP2 POP POP JUMP JUMPDEST PUSH1 0x0 PUSH2 0x17A8 DUP3 PUSH2 0x17CD JUMP JUMPDEST SWAP1 POP SWAP2 SWAP1 POP JUMP JUMPDEST PUSH1 0x0 PUSH2 0x17BA DUP3 PUSH2 0x17CD JUMP JUMPDEST SWAP1 POP SWAP2 SWAP1 POP JUMP JUMPDEST PUSH1 0x0 DUP2 ISZERO ISZERO SWAP1 POP SWAP2 SWAP1 POP JUMP JUMPDEST PUSH1 0x0 PUSH20 0xFFFFFFFFFFFFFFFFFFFFFFFFFFFFFFFFFFFFFFFF DUP3 AND SWAP1 POP SWAP2 SWAP1 POP JUMP JUMPDEST PUSH1 0x0 DUP2 SWAP1 POP SWAP2 SWAP1 POP JUMP JUMPDEST PUSH1 0x0 JUMPDEST DUP4 DUP2 LT ISZERO PUSH2 0x1815 JUMPI DUP1 DUP3 ADD MLOAD DUP2 DUP5 ADD MSTORE PUSH1 0x20 DUP2 ADD SWAP1 POP PUSH2 0x17FA JUMP JUMPDEST DUP4 DUP2 GT ISZERO PUSH2 0x1824 JUMPI PUSH1 0x0 DUP5 DUP5 ADD MSTORE JUMPDEST POP POP POP POP JUMP JUMPDEST PUSH1 0x0 DUP1 REVERT JUMPDEST PUSH1 0x0 PUSH1 0x1F NOT PUSH1 0x1F DUP4 ADD AND SWAP1 POP SWAP2 SWAP1 POP JUMP JUMPDEST PUSH32 0x4F776E61626C653A206E6577206F776E657220697320746865207A65726F2061 PUSH1 0x0 DUP3 ADD MSTORE PUSH32 0x6464726573730000000000000000000000000000000000000000000000000000 PUSH1 0x20 DUP3 ADD MSTORE POP JUMP JUMPDEST PUSH32 0x53616C652068617320656E646564000000000000000000000000000000000000 PUSH1 0x0 DUP3 ADD MSTORE POP JUMP JUMPDEST PUSH32 0x416464726573733A20696E73756666696369656E742062616C616E636520666F PUSH1 0x0 DUP3 ADD MSTORE PUSH32 0x722063616C6C0000000000000000000000000000000000000000000000000000 PUSH1 0x20 DUP3 ADD MSTORE POP JUMP JUMPDEST PUSH32 0x4F776E61626C653A2063616C6C6572206973206E6F7420746865206F776E6572 PUSH1 0x0 DUP3 ADD MSTORE POP JUMP JUMPDEST PUSH32 0x53616C65206861736E2774207374617274656420796574000000000000000000 PUSH1 0x0 DUP3 ADD MSTORE POP JUMP JUMPDEST PUSH32 0x53616C65206861736E277420656E646564000000000000000000000000000000 PUSH1 0x0 DUP3 ADD MSTORE POP JUMP JUMPDEST PUSH32 0x416464726573733A2063616C6C20746F206E6F6E2D636F6E7472616374000000 PUSH1 0x0 DUP3 ADD MSTORE POP JUMP JUMPDEST PUSH32 0x4E6F7420656E6F75676820746F6B656E20746F2072657475726E000000000000 PUSH1 0x0 DUP3 ADD MSTORE POP JUMP JUMPDEST PUSH32 0x5361666545524332303A204552433230206F7065726174696F6E20646964206E PUSH1 0x0 DUP3 ADD MSTORE PUSH32 0x6F74207375636365656400000000000000000000000000000000000000000000 PUSH1 0x20 DUP3 ADD MSTORE POP JUMP JUMPDEST PUSH2 0x1A2C DUP2 PUSH2 0x179D JUMP JUMPDEST DUP2 EQ PUSH2 0x1A37 JUMPI PUSH1 0x0 DUP1 REVERT JUMPDEST POP JUMP JUMPDEST PUSH2 0x1A43 DUP2 PUSH2 0x17AF JUMP JUMPDEST DUP2 EQ PUSH2 0x1A4E JUMPI PUSH1 0x0 DUP1 REVERT JUMPDEST POP JUMP JUMPDEST PUSH2 0x1A5A DUP2 PUSH2 0x17C1 JUMP JUMPDEST DUP2 EQ PUSH2 0x1A65 JUMPI PUSH1 0x0 DUP1 REVERT JUMPDEST POP JUMP JUMPDEST PUSH2 0x1A71 DUP2 PUSH2 0x17ED JUMP JUMPDEST DUP2 EQ PUSH2 0x1A7C JUMPI PUSH1 0x0 DUP1 REVERT JUMPDEST POP JUMP INVALID LOG2 PUSH5 0x6970667358 0x22 SLT KECCAK256 0xBF 0xDA CALLCODE 0xD2 0xCA 0xEF 0xCF JUMPI 0xB7 STOP 0xF9 SSTORE DUP9 DUP12 0x5F 0x5C 0xE9 JUMPDEST SWAP11 0x2A 0xCF 0xB9 MSTORE 0xEA 0xD9 0xCA PUSH1 0xA3 GASLIMIT 0xB3 LOG0 SWAP6 PUSH5 0x736F6C6343 STOP ADDMOD SMOD STOP CALLER "
				},
				"gasEstimates": {
					"creation": {
						"codeDepositCost": "1367400",
						"executionCost": "infinite",
						"totalCost": "infinite"
					},
					"external": {
						"Return(address)": "infinite",
						"_usdcInstance()": "2604",
						"bala(address)": "infinite",
						"getOwner()": "2646",
						"getRecord(address)": "2870",
						"owner()": "2545",
						"purchase(uint256,address)": "infinite",
						"purchases()": "4752",
						"renounceOwnership()": "30441",
						"saleEnd()": "2459",
						"saleStart()": "2504",
						"tokenAddress()": "2567",
						"transferOwnership(address)": "30811",
						"updateSaleEndTime(uint256)": "24805",
						"updateSaleStartTime(uint256)": "24806",
						"withdraw(address)": "infinite"
					}
				},
				"methodIdentifiers": {
					"Return(address)": "de2d583a",
					"_usdcInstance()": "61778592",
					"bala(address)": "24076451",
					"getOwner()": "893d20e8",
					"getRecord(address)": "617fba04",
					"owner()": "8da5cb5b",
					"purchase(uint256,address)": "ae77c237",
					"purchases()": "ee3def0e",
					"renounceOwnership()": "715018a6",
					"saleEnd()": "c10b9358",
					"saleStart()": "ab0bcc41",
					"tokenAddress()": "9d76ea58",
					"transferOwnership(address)": "f2fde38b",
					"updateSaleEndTime(uint256)": "6f9c6149",
					"updateSaleStartTime(uint256)": "295e4edf",
					"withdraw(address)": "51cff8d9"
				}
			},
			"storageLayout": {
				"storage": [
					{
						"astId": 7,
						"contract": "contracts/TokenSale.sol:TokenSale",
						"label": "_owner",
						"offset": 0,
						"slot": "0",
						"type": "t_address"
					},
					{
						"astId": 736,
						"contract": "contracts/TokenSale.sol:TokenSale",
						"label": "_tokenAddress",
						"offset": 0,
						"slot": "1",
						"type": "t_address"
					},
					{
						"astId": 738,
						"contract": "contracts/TokenSale.sol:TokenSale",
						"label": "_saleStart",
						"offset": 0,
						"slot": "2",
						"type": "t_uint256"
					},
					{
						"astId": 740,
						"contract": "contracts/TokenSale.sol:TokenSale",
						"label": "_saleEnd",
						"offset": 0,
						"slot": "3",
						"type": "t_uint256"
					},
					{
						"astId": 742,
						"contract": "contracts/TokenSale.sol:TokenSale",
						"label": "_usdcInstance",
						"offset": 0,
						"slot": "4",
						"type": "t_address"
					},
					{
						"astId": 754,
						"contract": "contracts/TokenSale.sol:TokenSale",
						"label": "record",
						"offset": 0,
						"slot": "5",
						"type": "t_mapping(t_address,t_struct(TokenRecord)749_storage)"
					}
				],
				"types": {
					"t_address": {
						"encoding": "inplace",
						"label": "address",
						"numberOfBytes": "20"
					},
					"t_mapping(t_address,t_struct(TokenRecord)749_storage)": {
						"encoding": "mapping",
						"key": "t_address",
						"label": "mapping(address => struct TokenSale.TokenRecord)",
						"numberOfBytes": "32",
						"value": "t_struct(TokenRecord)749_storage"
					},
					"t_string_storage": {
						"encoding": "bytes",
						"label": "string",
						"numberOfBytes": "32"
					},
					"t_struct(TokenRecord)749_storage": {
						"encoding": "inplace",
						"label": "struct TokenSale.TokenRecord",
						"members": [
							{
								"astId": 744,
								"contract": "contracts/TokenSale.sol:TokenSale",
								"label": "_amount",
								"offset": 0,
								"slot": "0",
								"type": "t_uint256"
							},
							{
								"astId": 746,
								"contract": "contracts/TokenSale.sol:TokenSale",
								"label": "_buyerAddress",
								"offset": 0,
								"slot": "1",
								"type": "t_address"
							},
							{
								"astId": 748,
								"contract": "contracts/TokenSale.sol:TokenSale",
								"label": "_tokenSymbol",
								"offset": 0,
								"slot": "2",
								"type": "t_string_storage"
							}
						],
						"numberOfBytes": "96"
					},
					"t_uint256": {
						"encoding": "inplace",
						"label": "uint256",
						"numberOfBytes": "32"
					}
				}
			},
			"userdoc": {
				"kind": "user",
				"methods": {},
				"version": 1
			}
		}
	}
}