{
	"contracts/TokenSale.sol": {
		"TokenSale": {
			"abi": [
				{
					"inputs": [
						{
							"internalType": "address",
							"name": "_owner",
							"type": "address"
						},
						{
							"internalType": "address",
							"name": "tokenAddress_",
							"type": "address"
						},
						{
							"internalType": "uint256",
							"name": "saleStart_",
							"type": "uint256"
						},
						{
							"internalType": "uint256",
							"name": "saleEnd_",
							"type": "uint256"
						},
						{
							"internalType": "address",
							"name": "usdcAddress_",
							"type": "address"
						}
					],
					"stateMutability": "nonpayable",
					"type": "constructor"
				},
				{
					"anonymous": false,
					"inputs": [
						{
							"indexed": true,
							"internalType": "address",
							"name": "previousOwner",
							"type": "address"
						},
						{
							"indexed": true,
							"internalType": "address",
							"name": "newOwner",
							"type": "address"
						}
					],
					"name": "OwnershipTransferred",
					"type": "event"
				},
				{
					"inputs": [
						{
							"internalType": "address",
							"name": "_returnAddress",
							"type": "address"
						}
					],
					"name": "Return",
					"outputs": [
						{
							"internalType": "bool",
							"name": "",
							"type": "bool"
						}
					],
					"stateMutability": "payable",
					"type": "function"
				},
				{
					"inputs": [],
					"name": "_usdcInstance",
					"outputs": [
						{
							"internalType": "address",
							"name": "",
							"type": "address"
						}
					],
					"stateMutability": "view",
					"type": "function"
				},
				{
					"inputs": [
						{
							"internalType": "address",
							"name": "add",
							"type": "address"
						}
					],
					"name": "bala",
					"outputs": [
						{
							"internalType": "uint256",
							"name": "",
							"type": "uint256"
						}
					],
					"stateMutability": "view",
					"type": "function"
				},
				{
					"inputs": [],
					"name": "getOwner",
					"outputs": [
						{
							"internalType": "address",
							"name": "",
							"type": "address"
						}
					],
					"stateMutability": "view",
					"type": "function"
				},
				{
					"inputs": [
						{
							"internalType": "address",
							"name": "_address",
							"type": "address"
						}
					],
					"name": "getRecord",
					"outputs": [
						{
							"internalType": "uint256",
							"name": "",
							"type": "uint256"
						}
					],
					"stateMutability": "view",
					"type": "function"
				},
				{
					"inputs": [],
					"name": "owner",
					"outputs": [
						{
							"internalType": "address",
							"name": "",
							"type": "address"
						}
					],
					"stateMutability": "view",
					"type": "function"
				},
				{
					"inputs": [
						{
							"internalType": "uint256",
							"name": "_amount",
							"type": "uint256"
						}
					],
					"name": "purchase",
					"outputs": [],
					"stateMutability": "nonpayable",
					"type": "function"
				},
				{
					"inputs": [],
					"name": "renounceOwnership",
					"outputs": [],
					"stateMutability": "nonpayable",
					"type": "function"
				},
				{
					"inputs": [],
					"name": "saleEnd",
					"outputs": [
						{
							"internalType": "uint256",
							"name": "",
							"type": "uint256"
						}
					],
					"stateMutability": "view",
					"type": "function"
				},
				{
					"inputs": [],
					"name": "saleStart",
					"outputs": [
						{
							"internalType": "uint256",
							"name": "",
							"type": "uint256"
						}
					],
					"stateMutability": "view",
					"type": "function"
				},
				{
					"inputs": [],
					"name": "tokenAddress",
					"outputs": [
						{
							"internalType": "address",
							"name": "",
							"type": "address"
						}
					],
					"stateMutability": "view",
					"type": "function"
				},
				{
					"inputs": [
						{
							"internalType": "address",
							"name": "newOwner",
							"type": "address"
						}
					],
					"name": "transferOwnership",
					"outputs": [],
					"stateMutability": "nonpayable",
					"type": "function"
				},
				{
					"inputs": [
						{
							"internalType": "uint256",
							"name": "updatedSaleEndTime",
							"type": "uint256"
						}
					],
					"name": "updateSaleEndTime",
					"outputs": [],
					"stateMutability": "nonpayable",
					"type": "function"
				},
				{
					"inputs": [
						{
							"internalType": "uint256",
							"name": "updatedSaleStartTime",
							"type": "uint256"
						}
					],
					"name": "updateSaleStartTime",
					"outputs": [],
					"stateMutability": "nonpayable",
					"type": "function"
				},
				{
					"inputs": [
						{
							"internalType": "address",
							"name": "_to",
							"type": "address"
						}
					],
					"name": "withdraw",
					"outputs": [],
					"stateMutability": "nonpayable",
					"type": "function"
				}
			],
			"devdoc": {
				"kind": "dev",
				"methods": {
					"owner()": {
						"details": "Returns the address of the current owner."
					},
					"renounceOwnership()": {
						"details": "Leaves the contract without owner. It will not be possible to call `onlyOwner` functions anymore. Can only be called by the current owner. NOTE: Renouncing ownership will leave the contract without an owner, thereby removing any functionality that is only available to the owner."
					},
					"transferOwnership(address)": {
						"details": "Transfers ownership of the contract to a new account (`newOwner`). Can only be called by the current owner."
					}
				},
				"version": 1
			},
			"evm": {
				"assembly": "    /* \"contracts/TokenSale.sol\":241:2757  contract TokenSale is Ownable{\r... */\n  mstore(0x40, 0x80)\n    /* \"contracts/TokenSale.sol\":478:750  constructor(address _owner,address tokenAddress_,uint256 saleStart_,uint256 saleEnd_,address usdcAddress_){\r... */\n  callvalue\n  dup1\n  iszero\n  tag_1\n  jumpi\n  0x00\n  dup1\n  revert\ntag_1:\n  pop\n  mload(0x40)\n  sub(codesize, bytecodeSize)\n  dup1\n  bytecodeSize\n  dup4\n  codecopy\n  dup2\n  dup2\n  add\n  0x40\n  mstore\n  dup2\n  add\n  swap1\n  tag_2\n  swap2\n  swap1\n  tag_3\n  jump\t// in\ntag_2:\n    /* \"@openzeppelin/contracts/access/Ownable.sol\":921:953  _transferOwnership(_msgSender()) */\n  tag_7\n    /* \"@openzeppelin/contracts/access/Ownable.sol\":940:952  _msgSender() */\n  tag_8\n    /* \"@openzeppelin/contracts/access/Ownable.sol\":940:950  _msgSender */\n  shl(0x20, tag_9)\n    /* \"@openzeppelin/contracts/access/Ownable.sol\":940:952  _msgSender() */\n  0x20\n  shr\n  jump\t// in\ntag_8:\n    /* \"@openzeppelin/contracts/access/Ownable.sol\":921:939  _transferOwnership */\n  shl(0x20, tag_10)\n    /* \"@openzeppelin/contracts/access/Ownable.sol\":921:953  _transferOwnership(_msgSender()) */\n  0x20\n  shr\n  jump\t// in\ntag_7:\n    /* \"contracts/TokenSale.sol\":591:617  _transferOwnership(_owner) */\n  tag_12\n    /* \"contracts/TokenSale.sol\":610:616  _owner */\n  dup6\n    /* \"contracts/TokenSale.sol\":591:609  _transferOwnership */\n  shl(0x20, tag_10)\n    /* \"contracts/TokenSale.sol\":591:617  _transferOwnership(_owner) */\n  0x20\n  shr\n  jump\t// in\ntag_12:\n    /* \"contracts/TokenSale.sol\":640:652  usdcAddress_ */\n  dup1\n    /* \"contracts/TokenSale.sol\":624:637  _usdcInstance */\n  0x04\n  0x00\n    /* \"contracts/TokenSale.sol\":624:652  _usdcInstance = usdcAddress_ */\n  0x0100\n  exp\n  dup2\n  sload\n  dup2\n  0xffffffffffffffffffffffffffffffffffffffff\n  mul\n  not\n  and\n  swap1\n  dup4\n  0xffffffffffffffffffffffffffffffffffffffff\n  and\n  mul\n  or\n  swap1\n  sstore\n  pop\n    /* \"contracts/TokenSale.sol\":675:688  tokenAddress_ */\n  dup4\n    /* \"contracts/TokenSale.sol\":659:672  _tokenAddress */\n  0x01\n  0x00\n    /* \"contracts/TokenSale.sol\":659:688  _tokenAddress = tokenAddress_ */\n  0x0100\n  exp\n  dup2\n  sload\n  dup2\n  0xffffffffffffffffffffffffffffffffffffffff\n  mul\n  not\n  and\n  swap1\n  dup4\n  0xffffffffffffffffffffffffffffffffffffffff\n  and\n  mul\n  or\n  swap1\n  sstore\n  pop\n    /* \"contracts/TokenSale.sol\":708:718  saleStart_ */\n  dup3\n    /* \"contracts/TokenSale.sol\":695:705  _saleStart */\n  0x02\n    /* \"contracts/TokenSale.sol\":695:718  _saleStart = saleStart_ */\n  dup2\n  swap1\n  sstore\n  pop\n    /* \"contracts/TokenSale.sol\":736:744  saleEnd_ */\n  dup2\n    /* \"contracts/TokenSale.sol\":725:733  _saleEnd */\n  0x03\n    /* \"contracts/TokenSale.sol\":725:744  _saleEnd = saleEnd_ */\n  dup2\n  swap1\n  sstore\n  pop\n    /* \"contracts/TokenSale.sol\":478:750  constructor(address _owner,address tokenAddress_,uint256 saleStart_,uint256 saleEnd_,address usdcAddress_){\r... */\n  pop\n  pop\n  pop\n  pop\n  pop\n    /* \"contracts/TokenSale.sol\":241:2757  contract TokenSale is Ownable{\r... */\n  jump(tag_13)\n    /* \"@openzeppelin/contracts/utils/Context.sol\":640:736  function _msgSender() internal view virtual returns (address) {... */\ntag_9:\n    /* \"@openzeppelin/contracts/utils/Context.sol\":693:700  address */\n  0x00\n    /* \"@openzeppelin/contracts/utils/Context.sol\":719:729  msg.sender */\n  caller\n    /* \"@openzeppelin/contracts/utils/Context.sol\":712:729  return msg.sender */\n  swap1\n  pop\n    /* \"@openzeppelin/contracts/utils/Context.sol\":640:736  function _msgSender() internal view virtual returns (address) {... */\n  swap1\n  jump\t// out\n    /* \"@openzeppelin/contracts/access/Ownable.sol\":2270:2457  function _transferOwnership(address newOwner) internal virtual {... */\ntag_10:\n    /* \"@openzeppelin/contracts/access/Ownable.sol\":2343:2359  address oldOwner */\n  0x00\n    /* \"@openzeppelin/contracts/access/Ownable.sol\":2362:2368  _owner */\n  dup1\n  0x00\n  swap1\n  sload\n  swap1\n  0x0100\n  exp\n  swap1\n  div\n  0xffffffffffffffffffffffffffffffffffffffff\n  and\n    /* \"@openzeppelin/contracts/access/Ownable.sol\":2343:2368  address oldOwner = _owner */\n  swap1\n  pop\n    /* \"@openzeppelin/contracts/access/Ownable.sol\":2387:2395  newOwner */\n  dup2\n    /* \"@openzeppelin/contracts/access/Ownable.sol\":2378:2384  _owner */\n  0x00\n  dup1\n    /* \"@openzeppelin/contracts/access/Ownable.sol\":2378:2395  _owner = newOwner */\n  0x0100\n  exp\n  dup2\n  sload\n  dup2\n  0xffffffffffffffffffffffffffffffffffffffff\n  mul\n  not\n  and\n  swap1\n  dup4\n  0xffffffffffffffffffffffffffffffffffffffff\n  and\n  mul\n  or\n  swap1\n  sstore\n  pop\n    /* \"@openzeppelin/contracts/access/Ownable.sol\":2441:2449  newOwner */\n  dup2\n    /* \"@openzeppelin/contracts/access/Ownable.sol\":2410:2450  OwnershipTransferred(oldOwner, newOwner) */\n  0xffffffffffffffffffffffffffffffffffffffff\n  and\n    /* \"@openzeppelin/contracts/access/Ownable.sol\":2431:2439  oldOwner */\n  dup2\n    /* \"@openzeppelin/contracts/access/Ownable.sol\":2410:2450  OwnershipTransferred(oldOwner, newOwner) */\n  0xffffffffffffffffffffffffffffffffffffffff\n  and\n  0x8be0079c531659141344cd1fd0a4f28419497f9722a3daafe3b4186f6b6457e0\n  mload(0x40)\n  mload(0x40)\n  dup1\n  swap2\n  sub\n  swap1\n  log3\n    /* \"@openzeppelin/contracts/access/Ownable.sol\":2333:2457  {... */\n  pop\n    /* \"@openzeppelin/contracts/access/Ownable.sol\":2270:2457  function _transferOwnership(address newOwner) internal virtual {... */\n  pop\n  jump\t// out\n    /* \"#utility.yul\":7:150   */\ntag_17:\n    /* \"#utility.yul\":64:69   */\n  0x00\n    /* \"#utility.yul\":95:101   */\n  dup2\n    /* \"#utility.yul\":89:102   */\n  mload\n    /* \"#utility.yul\":80:102   */\n  swap1\n  pop\n    /* \"#utility.yul\":111:144   */\n  tag_19\n    /* \"#utility.yul\":138:143   */\n  dup2\n    /* \"#utility.yul\":111:144   */\n  tag_20\n  jump\t// in\ntag_19:\n    /* \"#utility.yul\":7:150   */\n  swap3\n  swap2\n  pop\n  pop\n  jump\t// out\n    /* \"#utility.yul\":156:299   */\ntag_21:\n    /* \"#utility.yul\":213:218   */\n  0x00\n    /* \"#utility.yul\":244:250   */\n  dup2\n    /* \"#utility.yul\":238:251   */\n  mload\n    /* \"#utility.yul\":229:251   */\n  swap1\n  pop\n    /* \"#utility.yul\":260:293   */\n  tag_23\n    /* \"#utility.yul\":287:292   */\n  dup2\n    /* \"#utility.yul\":260:293   */\n  tag_24\n  jump\t// in\ntag_23:\n    /* \"#utility.yul\":156:299   */\n  swap3\n  swap2\n  pop\n  pop\n  jump\t// out\n    /* \"#utility.yul\":305:1282   */\ntag_3:\n    /* \"#utility.yul\":411:417   */\n  0x00\n    /* \"#utility.yul\":419:425   */\n  dup1\n    /* \"#utility.yul\":427:433   */\n  0x00\n    /* \"#utility.yul\":435:441   */\n  dup1\n    /* \"#utility.yul\":443:449   */\n  0x00\n    /* \"#utility.yul\":492:495   */\n  0xa0\n    /* \"#utility.yul\":480:489   */\n  dup7\n    /* \"#utility.yul\":471:478   */\n  dup9\n    /* \"#utility.yul\":467:490   */\n  sub\n    /* \"#utility.yul\":463:496   */\n  slt\n    /* \"#utility.yul\":460:580   */\n  iszero\n  tag_26\n  jumpi\n    /* \"#utility.yul\":499:578   */\n  tag_27\n  tag_28\n  jump\t// in\ntag_27:\n    /* \"#utility.yul\":460:580   */\ntag_26:\n    /* \"#utility.yul\":619:620   */\n  0x00\n    /* \"#utility.yul\":644:708   */\n  tag_29\n    /* \"#utility.yul\":700:707   */\n  dup9\n    /* \"#utility.yul\":691:697   */\n  dup3\n    /* \"#utility.yul\":680:689   */\n  dup10\n    /* \"#utility.yul\":676:698   */\n  add\n    /* \"#utility.yul\":644:708   */\n  tag_17\n  jump\t// in\ntag_29:\n    /* \"#utility.yul\":634:708   */\n  swap6\n  pop\n    /* \"#utility.yul\":590:718   */\n  pop\n    /* \"#utility.yul\":757:759   */\n  0x20\n    /* \"#utility.yul\":783:847   */\n  tag_30\n    /* \"#utility.yul\":839:846   */\n  dup9\n    /* \"#utility.yul\":830:836   */\n  dup3\n    /* \"#utility.yul\":819:828   */\n  dup10\n    /* \"#utility.yul\":815:837   */\n  add\n    /* \"#utility.yul\":783:847   */\n  tag_17\n  jump\t// in\ntag_30:\n    /* \"#utility.yul\":773:847   */\n  swap5\n  pop\n    /* \"#utility.yul\":728:857   */\n  pop\n    /* \"#utility.yul\":896:898   */\n  0x40\n    /* \"#utility.yul\":922:986   */\n  tag_31\n    /* \"#utility.yul\":978:985   */\n  dup9\n    /* \"#utility.yul\":969:975   */\n  dup3\n    /* \"#utility.yul\":958:967   */\n  dup10\n    /* \"#utility.yul\":954:976   */\n  add\n    /* \"#utility.yul\":922:986   */\n  tag_21\n  jump\t// in\ntag_31:\n    /* \"#utility.yul\":912:986   */\n  swap4\n  pop\n    /* \"#utility.yul\":867:996   */\n  pop\n    /* \"#utility.yul\":1035:1037   */\n  0x60\n    /* \"#utility.yul\":1061:1125   */\n  tag_32\n    /* \"#utility.yul\":1117:1124   */\n  dup9\n    /* \"#utility.yul\":1108:1114   */\n  dup3\n    /* \"#utility.yul\":1097:1106   */\n  dup10\n    /* \"#utility.yul\":1093:1115   */\n  add\n    /* \"#utility.yul\":1061:1125   */\n  tag_21\n  jump\t// in\ntag_32:\n    /* \"#utility.yul\":1051:1125   */\n  swap3\n  pop\n    /* \"#utility.yul\":1006:1135   */\n  pop\n    /* \"#utility.yul\":1174:1177   */\n  0x80\n    /* \"#utility.yul\":1201:1265   */\n  tag_33\n    /* \"#utility.yul\":1257:1264   */\n  dup9\n    /* \"#utility.yul\":1248:1254   */\n  dup3\n    /* \"#utility.yul\":1237:1246   */\n  dup10\n    /* \"#utility.yul\":1233:1255   */\n  add\n    /* \"#utility.yul\":1201:1265   */\n  tag_17\n  jump\t// in\ntag_33:\n    /* \"#utility.yul\":1191:1265   */\n  swap2\n  pop\n    /* \"#utility.yul\":1145:1275   */\n  pop\n    /* \"#utility.yul\":305:1282   */\n  swap3\n  swap6\n  pop\n  swap3\n  swap6\n  swap1\n  swap4\n  pop\n  jump\t// out\n    /* \"#utility.yul\":1369:1465   */\ntag_36:\n    /* \"#utility.yul\":1406:1413   */\n  0x00\n    /* \"#utility.yul\":1435:1459   */\n  tag_38\n    /* \"#utility.yul\":1453:1458   */\n  dup3\n    /* \"#utility.yul\":1435:1459   */\n  tag_39\n  jump\t// in\ntag_38:\n    /* \"#utility.yul\":1424:1459   */\n  swap1\n  pop\n    /* \"#utility.yul\":1369:1465   */\n  swap2\n  swap1\n  pop\n  jump\t// out\n    /* \"#utility.yul\":1471:1597   */\ntag_39:\n    /* \"#utility.yul\":1508:1515   */\n  0x00\n    /* \"#utility.yul\":1548:1590   */\n  0xffffffffffffffffffffffffffffffffffffffff\n    /* \"#utility.yul\":1541:1546   */\n  dup3\n    /* \"#utility.yul\":1537:1591   */\n  and\n    /* \"#utility.yul\":1526:1591   */\n  swap1\n  pop\n    /* \"#utility.yul\":1471:1597   */\n  swap2\n  swap1\n  pop\n  jump\t// out\n    /* \"#utility.yul\":1603:1680   */\ntag_41:\n    /* \"#utility.yul\":1640:1647   */\n  0x00\n    /* \"#utility.yul\":1669:1674   */\n  dup2\n    /* \"#utility.yul\":1658:1674   */\n  swap1\n  pop\n    /* \"#utility.yul\":1603:1680   */\n  swap2\n  swap1\n  pop\n  jump\t// out\n    /* \"#utility.yul\":1809:1926   */\ntag_28:\n    /* \"#utility.yul\":1918:1919   */\n  0x00\n    /* \"#utility.yul\":1915:1916   */\n  dup1\n    /* \"#utility.yul\":1908:1920   */\n  revert\n    /* \"#utility.yul\":1932:2054   */\ntag_20:\n    /* \"#utility.yul\":2005:2029   */\n  tag_47\n    /* \"#utility.yul\":2023:2028   */\n  dup2\n    /* \"#utility.yul\":2005:2029   */\n  tag_36\n  jump\t// in\ntag_47:\n    /* \"#utility.yul\":1998:2003   */\n  dup2\n    /* \"#utility.yul\":1995:2030   */\n  eq\n    /* \"#utility.yul\":1985:2048   */\n  tag_48\n  jumpi\n    /* \"#utility.yul\":2044:2045   */\n  0x00\n    /* \"#utility.yul\":2041:2042   */\n  dup1\n    /* \"#utility.yul\":2034:2046   */\n  revert\n    /* \"#utility.yul\":1985:2048   */\ntag_48:\n    /* \"#utility.yul\":1932:2054   */\n  pop\n  jump\t// out\n    /* \"#utility.yul\":2060:2182   */\ntag_24:\n    /* \"#utility.yul\":2133:2157   */\n  tag_50\n    /* \"#utility.yul\":2151:2156   */\n  dup2\n    /* \"#utility.yul\":2133:2157   */\n  tag_41\n  jump\t// in\ntag_50:\n    /* \"#utility.yul\":2126:2131   */\n  dup2\n    /* \"#utility.yul\":2123:2158   */\n  eq\n    /* \"#utility.yul\":2113:2176   */\n  tag_51\n  jumpi\n    /* \"#utility.yul\":2172:2173   */\n  0x00\n    /* \"#utility.yul\":2169:2170   */\n  dup1\n    /* \"#utility.yul\":2162:2174   */\n  revert\n    /* \"#utility.yul\":2113:2176   */\ntag_51:\n    /* \"#utility.yul\":2060:2182   */\n  pop\n  jump\t// out\n    /* \"contracts/TokenSale.sol\":241:2757  contract TokenSale is Ownable{\r... */\ntag_13:\n  dataSize(sub_0)\n  dup1\n  dataOffset(sub_0)\n  0x00\n  codecopy\n  0x00\n  return\nstop\n\nsub_0: assembly {\n        /* \"contracts/TokenSale.sol\":241:2757  contract TokenSale is Ownable{\r... */\n      mstore(0x40, 0x80)\n      jumpi(tag_1, lt(calldatasize, 0x04))\n      shr(0xe0, calldataload(0x00))\n      dup1\n      0x893d20e8\n      gt\n      tag_17\n      jumpi\n      dup1\n      0xc10b9358\n      gt\n      tag_18\n      jumpi\n      dup1\n      0xc10b9358\n      eq\n      tag_13\n      jumpi\n      dup1\n      0xde2d583a\n      eq\n      tag_14\n      jumpi\n      dup1\n      0xefef39a1\n      eq\n      tag_15\n      jumpi\n      dup1\n      0xf2fde38b\n      eq\n      tag_16\n      jumpi\n      jump(tag_1)\n    tag_18:\n      dup1\n      0x893d20e8\n      eq\n      tag_9\n      jumpi\n      dup1\n      0x8da5cb5b\n      eq\n      tag_10\n      jumpi\n      dup1\n      0x9d76ea58\n      eq\n      tag_11\n      jumpi\n      dup1\n      0xab0bcc41\n      eq\n      tag_12\n      jumpi\n      jump(tag_1)\n    tag_17:\n      dup1\n      0x61778592\n      gt\n      tag_19\n      jumpi\n      dup1\n      0x61778592\n      eq\n      tag_5\n      jumpi\n      dup1\n      0x617fba04\n      eq\n      tag_6\n      jumpi\n      dup1\n      0x6f9c6149\n      eq\n      tag_7\n      jumpi\n      dup1\n      0x715018a6\n      eq\n      tag_8\n      jumpi\n      jump(tag_1)\n    tag_19:\n      dup1\n      0x24076451\n      eq\n      tag_2\n      jumpi\n      dup1\n      0x295e4edf\n      eq\n      tag_3\n      jumpi\n      dup1\n      0x51cff8d9\n      eq\n      tag_4\n      jumpi\n    tag_1:\n      0x00\n      dup1\n      revert\n        /* \"contracts/TokenSale.sol\":1027:1147  function bala(address add) public view virtual returns (uint256){\r... */\n    tag_2:\n      callvalue\n      dup1\n      iszero\n      tag_20\n      jumpi\n      0x00\n      dup1\n      revert\n    tag_20:\n      pop\n      tag_21\n      0x04\n      dup1\n      calldatasize\n      sub\n      dup2\n      add\n      swap1\n      tag_22\n      swap2\n      swap1\n      tag_23\n      jump\t// in\n    tag_22:\n      tag_24\n      jump\t// in\n    tag_21:\n      mload(0x40)\n      tag_25\n      swap2\n      swap1\n      tag_26\n      jump\t// in\n    tag_25:\n      mload(0x40)\n      dup1\n      swap2\n      sub\n      swap1\n      return\n        /* \"contracts/TokenSale.sol\":2510:2633  function updateSaleStartTime(uint256 updatedSaleStartTime) public onlyOwner{\r... */\n    tag_3:\n      callvalue\n      dup1\n      iszero\n      tag_27\n      jumpi\n      0x00\n      dup1\n      revert\n    tag_27:\n      pop\n      tag_28\n      0x04\n      dup1\n      calldatasize\n      sub\n      dup2\n      add\n      swap1\n      tag_29\n      swap2\n      swap1\n      tag_30\n      jump\t// in\n    tag_29:\n      tag_31\n      jump\t// in\n    tag_28:\n      stop\n        /* \"contracts/TokenSale.sol\":1674:1893  function withdraw(address _to) public virtual onlyOwner{\r... */\n    tag_4:\n      callvalue\n      dup1\n      iszero\n      tag_32\n      jumpi\n      0x00\n      dup1\n      revert\n    tag_32:\n      pop\n      tag_33\n      0x04\n      dup1\n      calldatasize\n      sub\n      dup2\n      add\n      swap1\n      tag_34\n      swap2\n      swap1\n      tag_23\n      jump\t// in\n    tag_34:\n      tag_35\n      jump\t// in\n    tag_33:\n      stop\n        /* \"contracts/TokenSale.sol\":400:428  address public _usdcInstance */\n    tag_5:\n      callvalue\n      dup1\n      iszero\n      tag_36\n      jumpi\n      0x00\n      dup1\n      revert\n    tag_36:\n      pop\n      tag_37\n      tag_38\n      jump\t// in\n    tag_37:\n      mload(0x40)\n      tag_39\n      swap2\n      swap1\n      tag_40\n      jump\t// in\n    tag_39:\n      mload(0x40)\n      dup1\n      swap2\n      sub\n      swap1\n      return\n        /* \"contracts/TokenSale.sol\":1246:1355  function getRecord(address _address) public virtual view returns(uint256){\r... */\n    tag_6:\n      callvalue\n      dup1\n      iszero\n      tag_41\n      jumpi\n      0x00\n      dup1\n      revert\n    tag_41:\n      pop\n      tag_42\n      0x04\n      dup1\n      calldatasize\n      sub\n      dup2\n      add\n      swap1\n      tag_43\n      swap2\n      swap1\n      tag_23\n      jump\t// in\n    tag_43:\n      tag_44\n      jump\t// in\n    tag_42:\n      mload(0x40)\n      tag_45\n      swap2\n      swap1\n      tag_26\n      jump\t// in\n    tag_45:\n      mload(0x40)\n      dup1\n      swap2\n      sub\n      swap1\n      return\n        /* \"contracts/TokenSale.sol\":2637:2752  function updateSaleEndTime(uint256 updatedSaleEndTime) public onlyOwner{\r... */\n    tag_7:\n      callvalue\n      dup1\n      iszero\n      tag_46\n      jumpi\n      0x00\n      dup1\n      revert\n    tag_46:\n      pop\n      tag_47\n      0x04\n      dup1\n      calldatasize\n      sub\n      dup2\n      add\n      swap1\n      tag_48\n      swap2\n      swap1\n      tag_30\n      jump\t// in\n    tag_48:\n      tag_49\n      jump\t// in\n    tag_47:\n      stop\n        /* \"@openzeppelin/contracts/access/Ownable.sol\":1668:1769  function renounceOwnership() public virtual onlyOwner {... */\n    tag_8:\n      callvalue\n      dup1\n      iszero\n      tag_50\n      jumpi\n      0x00\n      dup1\n      revert\n    tag_50:\n      pop\n      tag_51\n      tag_52\n      jump\t// in\n    tag_51:\n      stop\n        /* \"contracts/TokenSale.sol\":946:1023  function getOwner() public view returns(address){\r... */\n    tag_9:\n      callvalue\n      dup1\n      iszero\n      tag_53\n      jumpi\n      0x00\n      dup1\n      revert\n    tag_53:\n      pop\n      tag_54\n      tag_55\n      jump\t// in\n    tag_54:\n      mload(0x40)\n      tag_56\n      swap2\n      swap1\n      tag_40\n      jump\t// in\n    tag_56:\n      mload(0x40)\n      dup1\n      swap2\n      sub\n      swap1\n      return\n        /* \"@openzeppelin/contracts/access/Ownable.sol\":1036:1121  function owner() public view virtual returns (address) {... */\n    tag_10:\n      callvalue\n      dup1\n      iszero\n      tag_57\n      jumpi\n      0x00\n      dup1\n      revert\n    tag_57:\n      pop\n      tag_58\n      tag_59\n      jump\t// in\n    tag_58:\n      mload(0x40)\n      tag_60\n      swap2\n      swap1\n      tag_40\n      jump\t// in\n    tag_60:\n      mload(0x40)\n      dup1\n      swap2\n      sub\n      swap1\n      return\n        /* \"contracts/TokenSale.sol\":855:940  function tokenAddress() public view returns(address){\r... */\n    tag_11:\n      callvalue\n      dup1\n      iszero\n      tag_61\n      jumpi\n      0x00\n      dup1\n      revert\n    tag_61:\n      pop\n      tag_62\n      tag_63\n      jump\t// in\n    tag_62:\n      mload(0x40)\n      tag_64\n      swap2\n      swap1\n      tag_40\n      jump\t// in\n    tag_64:\n      mload(0x40)\n      dup1\n      swap2\n      sub\n      swap1\n      return\n        /* \"contracts/TokenSale.sol\":758:849  function saleStart() public view virtual returns (uint256) {\r... */\n    tag_12:\n      callvalue\n      dup1\n      iszero\n      tag_65\n      jumpi\n      0x00\n      dup1\n      revert\n    tag_65:\n      pop\n      tag_66\n      tag_67\n      jump\t// in\n    tag_66:\n      mload(0x40)\n      tag_68\n      swap2\n      swap1\n      tag_26\n      jump\t// in\n    tag_68:\n      mload(0x40)\n      dup1\n      swap2\n      sub\n      swap1\n      return\n        /* \"contracts/TokenSale.sol\":1153:1240  function saleEnd() public view virtual returns (uint256) {\r... */\n    tag_13:\n      callvalue\n      dup1\n      iszero\n      tag_69\n      jumpi\n      0x00\n      dup1\n      revert\n    tag_69:\n      pop\n      tag_70\n      tag_71\n      jump\t// in\n    tag_70:\n      mload(0x40)\n      tag_72\n      swap2\n      swap1\n      tag_26\n      jump\t// in\n    tag_72:\n      mload(0x40)\n      dup1\n      swap2\n      sub\n      swap1\n      return\n        /* \"contracts/TokenSale.sol\":2124:2504  function Return(address _returnAddress) public payable onlyOwner returns(bool){\r... */\n    tag_14:\n      tag_73\n      0x04\n      dup1\n      calldatasize\n      sub\n      dup2\n      add\n      swap1\n      tag_74\n      swap2\n      swap1\n      tag_23\n      jump\t// in\n    tag_74:\n      tag_75\n      jump\t// in\n    tag_73:\n      mload(0x40)\n      tag_76\n      swap2\n      swap1\n      tag_77\n      jump\t// in\n    tag_76:\n      mload(0x40)\n      dup1\n      swap2\n      sub\n      swap1\n      return\n        /* \"contracts/TokenSale.sol\":1361:1666  function purchase(uint256 _amount) public{\r... */\n    tag_15:\n      callvalue\n      dup1\n      iszero\n      tag_78\n      jumpi\n      0x00\n      dup1\n      revert\n    tag_78:\n      pop\n      tag_79\n      0x04\n      dup1\n      calldatasize\n      sub\n      dup2\n      add\n      swap1\n      tag_80\n      swap2\n      swap1\n      tag_30\n      jump\t// in\n    tag_80:\n      tag_81\n      jump\t// in\n    tag_79:\n      stop\n        /* \"@openzeppelin/contracts/access/Ownable.sol\":1918:2116  function transferOwnership(address newOwner) public virtual onlyOwner {... */\n    tag_16:\n      callvalue\n      dup1\n      iszero\n      tag_82\n      jumpi\n      0x00\n      dup1\n      revert\n    tag_82:\n      pop\n      tag_83\n      0x04\n      dup1\n      calldatasize\n      sub\n      dup2\n      add\n      swap1\n      tag_84\n      swap2\n      swap1\n      tag_23\n      jump\t// in\n    tag_84:\n      tag_85\n      jump\t// in\n    tag_83:\n      stop\n        /* \"contracts/TokenSale.sol\":1027:1147  function bala(address add) public view virtual returns (uint256){\r... */\n    tag_24:\n        /* \"contracts/TokenSale.sol\":1083:1090  uint256 */\n      0x00\n        /* \"contracts/TokenSale.sol\":1112:1125  _usdcInstance */\n      0x04\n      0x00\n      swap1\n      sload\n      swap1\n      0x0100\n      exp\n      swap1\n      div\n      0xffffffffffffffffffffffffffffffffffffffff\n      and\n        /* \"contracts/TokenSale.sol\":1105:1136  IERC20(_usdcInstance).balanceOf */\n      0xffffffffffffffffffffffffffffffffffffffff\n      and\n      0x70a08231\n        /* \"contracts/TokenSale.sol\":1137:1140  add */\n      dup4\n        /* \"contracts/TokenSale.sol\":1105:1141  IERC20(_usdcInstance).balanceOf(add) */\n      mload(0x40)\n      dup3\n      0xffffffff\n      and\n      0xe0\n      shl\n      dup2\n      mstore\n      0x04\n      add\n      tag_87\n      swap2\n      swap1\n      tag_40\n      jump\t// in\n    tag_87:\n      0x20\n      mload(0x40)\n      dup1\n      dup4\n      sub\n      dup2\n      dup7\n      dup1\n      extcodesize\n      iszero\n      dup1\n      iszero\n      tag_88\n      jumpi\n      0x00\n      dup1\n      revert\n    tag_88:\n      pop\n      gas\n      staticcall\n      iszero\n      dup1\n      iszero\n      tag_90\n      jumpi\n      returndatasize\n      0x00\n      dup1\n      returndatacopy\n      revert(0x00, returndatasize)\n    tag_90:\n      pop\n      pop\n      pop\n      pop\n      mload(0x40)\n      returndatasize\n      not(0x1f)\n      0x1f\n      dup3\n      add\n      and\n      dup3\n      add\n      dup1\n      0x40\n      mstore\n      pop\n      dup2\n      add\n      swap1\n      tag_91\n      swap2\n      swap1\n      tag_92\n      jump\t// in\n    tag_91:\n        /* \"contracts/TokenSale.sol\":1098:1141  return IERC20(_usdcInstance).balanceOf(add) */\n      swap1\n      pop\n        /* \"contracts/TokenSale.sol\":1027:1147  function bala(address add) public view virtual returns (uint256){\r... */\n      swap2\n      swap1\n      pop\n      jump\t// out\n        /* \"contracts/TokenSale.sol\":2510:2633  function updateSaleStartTime(uint256 updatedSaleStartTime) public onlyOwner{\r... */\n    tag_31:\n        /* \"@openzeppelin/contracts/access/Ownable.sol\":1259:1271  _msgSender() */\n      tag_94\n        /* \"@openzeppelin/contracts/access/Ownable.sol\":1259:1269  _msgSender */\n      tag_95\n        /* \"@openzeppelin/contracts/access/Ownable.sol\":1259:1271  _msgSender() */\n      jump\t// in\n    tag_94:\n        /* \"@openzeppelin/contracts/access/Ownable.sol\":1248:1271  owner() == _msgSender() */\n      0xffffffffffffffffffffffffffffffffffffffff\n      and\n        /* \"@openzeppelin/contracts/access/Ownable.sol\":1248:1255  owner() */\n      tag_96\n        /* \"@openzeppelin/contracts/access/Ownable.sol\":1248:1253  owner */\n      tag_59\n        /* \"@openzeppelin/contracts/access/Ownable.sol\":1248:1255  owner() */\n      jump\t// in\n    tag_96:\n        /* \"@openzeppelin/contracts/access/Ownable.sol\":1248:1271  owner() == _msgSender() */\n      0xffffffffffffffffffffffffffffffffffffffff\n      and\n      eq\n        /* \"@openzeppelin/contracts/access/Ownable.sol\":1240:1308  require(owner() == _msgSender(), \"Ownable: caller is not the owner\") */\n      tag_97\n      jumpi\n      mload(0x40)\n      0x08c379a000000000000000000000000000000000000000000000000000000000\n      dup2\n      mstore\n      0x04\n      add\n      tag_98\n      swap1\n      tag_99\n      jump\t// in\n    tag_98:\n      mload(0x40)\n      dup1\n      swap2\n      sub\n      swap1\n      revert\n    tag_97:\n        /* \"contracts/TokenSale.sol\":2607:2627  updatedSaleStartTime */\n      dup1\n        /* \"contracts/TokenSale.sol\":2594:2604  _saleStart */\n      0x02\n        /* \"contracts/TokenSale.sol\":2594:2627  _saleStart = updatedSaleStartTime */\n      dup2\n      swap1\n      sstore\n      pop\n        /* \"contracts/TokenSale.sol\":2510:2633  function updateSaleStartTime(uint256 updatedSaleStartTime) public onlyOwner{\r... */\n      pop\n      jump\t// out\n        /* \"contracts/TokenSale.sol\":1674:1893  function withdraw(address _to) public virtual onlyOwner{\r... */\n    tag_35:\n        /* \"@openzeppelin/contracts/access/Ownable.sol\":1259:1271  _msgSender() */\n      tag_102\n        /* \"@openzeppelin/contracts/access/Ownable.sol\":1259:1269  _msgSender */\n      tag_95\n        /* \"@openzeppelin/contracts/access/Ownable.sol\":1259:1271  _msgSender() */\n      jump\t// in\n    tag_102:\n        /* \"@openzeppelin/contracts/access/Ownable.sol\":1248:1271  owner() == _msgSender() */\n      0xffffffffffffffffffffffffffffffffffffffff\n      and\n        /* \"@openzeppelin/contracts/access/Ownable.sol\":1248:1255  owner() */\n      tag_103\n        /* \"@openzeppelin/contracts/access/Ownable.sol\":1248:1253  owner */\n      tag_59\n        /* \"@openzeppelin/contracts/access/Ownable.sol\":1248:1255  owner() */\n      jump\t// in\n    tag_103:\n        /* \"@openzeppelin/contracts/access/Ownable.sol\":1248:1271  owner() == _msgSender() */\n      0xffffffffffffffffffffffffffffffffffffffff\n      and\n      eq\n        /* \"@openzeppelin/contracts/access/Ownable.sol\":1240:1308  require(owner() == _msgSender(), \"Ownable: caller is not the owner\") */\n      tag_104\n      jumpi\n      mload(0x40)\n      0x08c379a000000000000000000000000000000000000000000000000000000000\n      dup2\n      mstore\n      0x04\n      add\n      tag_105\n      swap1\n      tag_99\n      jump\t// in\n    tag_105:\n      mload(0x40)\n      dup1\n      swap2\n      sub\n      swap1\n      revert\n    tag_104:\n        /* \"contracts/TokenSale.sol\":1762:1770  _saleEnd */\n      sload(0x03)\n        /* \"contracts/TokenSale.sol\":1746:1761  block.timestamp */\n      timestamp\n        /* \"contracts/TokenSale.sol\":1746:1770  block.timestamp>_saleEnd */\n      gt\n        /* \"contracts/TokenSale.sol\":1738:1791  require(block.timestamp>_saleEnd,\"Sale hasn't ended\") */\n      tag_107\n      jumpi\n      mload(0x40)\n      0x08c379a000000000000000000000000000000000000000000000000000000000\n      dup2\n      mstore\n      0x04\n      add\n      tag_108\n      swap1\n      tag_109\n      jump\t// in\n    tag_108:\n      mload(0x40)\n      dup1\n      swap2\n      sub\n      swap1\n      revert\n    tag_107:\n        /* \"contracts/TokenSale.sol\":1800:1887  IERC20(_usdcInstance).safeTransfer(_to, IERC20(_usdcInstance).balanceOf(_tokenAddress)) */\n      tag_110\n        /* \"contracts/TokenSale.sol\":1835:1838  _to */\n      dup2\n        /* \"contracts/TokenSale.sol\":1847:1860  _usdcInstance */\n      0x04\n      0x00\n      swap1\n      sload\n      swap1\n      0x0100\n      exp\n      swap1\n      div\n      0xffffffffffffffffffffffffffffffffffffffff\n      and\n        /* \"contracts/TokenSale.sol\":1840:1871  IERC20(_usdcInstance).balanceOf */\n      0xffffffffffffffffffffffffffffffffffffffff\n      and\n      0x70a08231\n        /* \"contracts/TokenSale.sol\":1872:1885  _tokenAddress */\n      0x01\n      0x00\n      swap1\n      sload\n      swap1\n      0x0100\n      exp\n      swap1\n      div\n      0xffffffffffffffffffffffffffffffffffffffff\n      and\n        /* \"contracts/TokenSale.sol\":1840:1886  IERC20(_usdcInstance).balanceOf(_tokenAddress) */\n      mload(0x40)\n      dup3\n      0xffffffff\n      and\n      0xe0\n      shl\n      dup2\n      mstore\n      0x04\n      add\n      tag_111\n      swap2\n      swap1\n      tag_40\n      jump\t// in\n    tag_111:\n      0x20\n      mload(0x40)\n      dup1\n      dup4\n      sub\n      dup2\n      dup7\n      dup1\n      extcodesize\n      iszero\n      dup1\n      iszero\n      tag_112\n      jumpi\n      0x00\n      dup1\n      revert\n    tag_112:\n      pop\n      gas\n      staticcall\n      iszero\n      dup1\n      iszero\n      tag_114\n      jumpi\n      returndatasize\n      0x00\n      dup1\n      returndatacopy\n      revert(0x00, returndatasize)\n    tag_114:\n      pop\n      pop\n      pop\n      pop\n      mload(0x40)\n      returndatasize\n      not(0x1f)\n      0x1f\n      dup3\n      add\n      and\n      dup3\n      add\n      dup1\n      0x40\n      mstore\n      pop\n      dup2\n      add\n      swap1\n      tag_115\n      swap2\n      swap1\n      tag_92\n      jump\t// in\n    tag_115:\n        /* \"contracts/TokenSale.sol\":1807:1820  _usdcInstance */\n      0x04\n      0x00\n      swap1\n      sload\n      swap1\n      0x0100\n      exp\n      swap1\n      div\n      0xffffffffffffffffffffffffffffffffffffffff\n      and\n        /* \"contracts/TokenSale.sol\":1800:1834  IERC20(_usdcInstance).safeTransfer */\n      0xffffffffffffffffffffffffffffffffffffffff\n      and\n      tag_116\n      swap1\n        /* \"contracts/TokenSale.sol\":1800:1887  IERC20(_usdcInstance).safeTransfer(_to, IERC20(_usdcInstance).balanceOf(_tokenAddress)) */\n      swap3\n      swap2\n      swap1\n      0xffffffff\n      and\n      jump\t// in\n    tag_110:\n        /* \"contracts/TokenSale.sol\":1674:1893  function withdraw(address _to) public virtual onlyOwner{\r... */\n      pop\n      jump\t// out\n        /* \"contracts/TokenSale.sol\":400:428  address public _usdcInstance */\n    tag_38:\n      0x04\n      0x00\n      swap1\n      sload\n      swap1\n      0x0100\n      exp\n      swap1\n      div\n      0xffffffffffffffffffffffffffffffffffffffff\n      and\n      dup2\n      jump\t// out\n        /* \"contracts/TokenSale.sol\":1246:1355  function getRecord(address _address) public virtual view returns(uint256){\r... */\n    tag_44:\n        /* \"contracts/TokenSale.sol\":1311:1318  uint256 */\n      0x00\n        /* \"contracts/TokenSale.sol\":1333:1339  record */\n      0x05\n        /* \"contracts/TokenSale.sol\":1333:1349  record[_address] */\n      0x00\n        /* \"contracts/TokenSale.sol\":1340:1348  _address */\n      dup4\n        /* \"contracts/TokenSale.sol\":1333:1349  record[_address] */\n      0xffffffffffffffffffffffffffffffffffffffff\n      and\n      0xffffffffffffffffffffffffffffffffffffffff\n      and\n      dup2\n      mstore\n      0x20\n      add\n      swap1\n      dup2\n      mstore\n      0x20\n      add\n      0x00\n      keccak256\n      sload\n        /* \"contracts/TokenSale.sol\":1326:1349  return record[_address] */\n      swap1\n      pop\n        /* \"contracts/TokenSale.sol\":1246:1355  function getRecord(address _address) public virtual view returns(uint256){\r... */\n      swap2\n      swap1\n      pop\n      jump\t// out\n        /* \"contracts/TokenSale.sol\":2637:2752  function updateSaleEndTime(uint256 updatedSaleEndTime) public onlyOwner{\r... */\n    tag_49:\n        /* \"@openzeppelin/contracts/access/Ownable.sol\":1259:1271  _msgSender() */\n      tag_119\n        /* \"@openzeppelin/contracts/access/Ownable.sol\":1259:1269  _msgSender */\n      tag_95\n        /* \"@openzeppelin/contracts/access/Ownable.sol\":1259:1271  _msgSender() */\n      jump\t// in\n    tag_119:\n        /* \"@openzeppelin/contracts/access/Ownable.sol\":1248:1271  owner() == _msgSender() */\n      0xffffffffffffffffffffffffffffffffffffffff\n      and\n        /* \"@openzeppelin/contracts/access/Ownable.sol\":1248:1255  owner() */\n      tag_120\n        /* \"@openzeppelin/contracts/access/Ownable.sol\":1248:1253  owner */\n      tag_59\n        /* \"@openzeppelin/contracts/access/Ownable.sol\":1248:1255  owner() */\n      jump\t// in\n    tag_120:\n        /* \"@openzeppelin/contracts/access/Ownable.sol\":1248:1271  owner() == _msgSender() */\n      0xffffffffffffffffffffffffffffffffffffffff\n      and\n      eq\n        /* \"@openzeppelin/contracts/access/Ownable.sol\":1240:1308  require(owner() == _msgSender(), \"Ownable: caller is not the owner\") */\n      tag_121\n      jumpi\n      mload(0x40)\n      0x08c379a000000000000000000000000000000000000000000000000000000000\n      dup2\n      mstore\n      0x04\n      add\n      tag_122\n      swap1\n      tag_99\n      jump\t// in\n    tag_122:\n      mload(0x40)\n      dup1\n      swap2\n      sub\n      swap1\n      revert\n    tag_121:\n        /* \"contracts/TokenSale.sol\":2728:2746  updatedSaleEndTime */\n      dup1\n        /* \"contracts/TokenSale.sol\":2717:2725  _saleEnd */\n      0x03\n        /* \"contracts/TokenSale.sol\":2717:2746  _saleEnd = updatedSaleEndTime */\n      dup2\n      swap1\n      sstore\n      pop\n        /* \"contracts/TokenSale.sol\":2637:2752  function updateSaleEndTime(uint256 updatedSaleEndTime) public onlyOwner{\r... */\n      pop\n      jump\t// out\n        /* \"@openzeppelin/contracts/access/Ownable.sol\":1668:1769  function renounceOwnership() public virtual onlyOwner {... */\n    tag_52:\n        /* \"@openzeppelin/contracts/access/Ownable.sol\":1259:1271  _msgSender() */\n      tag_125\n        /* \"@openzeppelin/contracts/access/Ownable.sol\":1259:1269  _msgSender */\n      tag_95\n        /* \"@openzeppelin/contracts/access/Ownable.sol\":1259:1271  _msgSender() */\n      jump\t// in\n    tag_125:\n        /* \"@openzeppelin/contracts/access/Ownable.sol\":1248:1271  owner() == _msgSender() */\n      0xffffffffffffffffffffffffffffffffffffffff\n      and\n        /* \"@openzeppelin/contracts/access/Ownable.sol\":1248:1255  owner() */\n      tag_126\n        /* \"@openzeppelin/contracts/access/Ownable.sol\":1248:1253  owner */\n      tag_59\n        /* \"@openzeppelin/contracts/access/Ownable.sol\":1248:1255  owner() */\n      jump\t// in\n    tag_126:\n        /* \"@openzeppelin/contracts/access/Ownable.sol\":1248:1271  owner() == _msgSender() */\n      0xffffffffffffffffffffffffffffffffffffffff\n      and\n      eq\n        /* \"@openzeppelin/contracts/access/Ownable.sol\":1240:1308  require(owner() == _msgSender(), \"Ownable: caller is not the owner\") */\n      tag_127\n      jumpi\n      mload(0x40)\n      0x08c379a000000000000000000000000000000000000000000000000000000000\n      dup2\n      mstore\n      0x04\n      add\n      tag_128\n      swap1\n      tag_99\n      jump\t// in\n    tag_128:\n      mload(0x40)\n      dup1\n      swap2\n      sub\n      swap1\n      revert\n    tag_127:\n        /* \"@openzeppelin/contracts/access/Ownable.sol\":1732:1762  _transferOwnership(address(0)) */\n      tag_130\n        /* \"@openzeppelin/contracts/access/Ownable.sol\":1759:1760  0 */\n      0x00\n        /* \"@openzeppelin/contracts/access/Ownable.sol\":1732:1750  _transferOwnership */\n      tag_131\n        /* \"@openzeppelin/contracts/access/Ownable.sol\":1732:1762  _transferOwnership(address(0)) */\n      jump\t// in\n    tag_130:\n        /* \"@openzeppelin/contracts/access/Ownable.sol\":1668:1769  function renounceOwnership() public virtual onlyOwner {... */\n      jump\t// out\n        /* \"contracts/TokenSale.sol\":946:1023  function getOwner() public view returns(address){\r... */\n    tag_55:\n        /* \"contracts/TokenSale.sol\":986:993  address */\n      0x00\n        /* \"contracts/TokenSale.sol\":1010:1017  owner() */\n      tag_133\n        /* \"contracts/TokenSale.sol\":1010:1015  owner */\n      tag_59\n        /* \"contracts/TokenSale.sol\":1010:1017  owner() */\n      jump\t// in\n    tag_133:\n        /* \"contracts/TokenSale.sol\":1003:1017  return owner() */\n      swap1\n      pop\n        /* \"contracts/TokenSale.sol\":946:1023  function getOwner() public view returns(address){\r... */\n      swap1\n      jump\t// out\n        /* \"@openzeppelin/contracts/access/Ownable.sol\":1036:1121  function owner() public view virtual returns (address) {... */\n    tag_59:\n        /* \"@openzeppelin/contracts/access/Ownable.sol\":1082:1089  address */\n      0x00\n        /* \"@openzeppelin/contracts/access/Ownable.sol\":1108:1114  _owner */\n      dup1\n      0x00\n      swap1\n      sload\n      swap1\n      0x0100\n      exp\n      swap1\n      div\n      0xffffffffffffffffffffffffffffffffffffffff\n      and\n        /* \"@openzeppelin/contracts/access/Ownable.sol\":1101:1114  return _owner */\n      swap1\n      pop\n        /* \"@openzeppelin/contracts/access/Ownable.sol\":1036:1121  function owner() public view virtual returns (address) {... */\n      swap1\n      jump\t// out\n        /* \"contracts/TokenSale.sol\":855:940  function tokenAddress() public view returns(address){\r... */\n    tag_63:\n        /* \"contracts/TokenSale.sol\":899:906  address */\n      0x00\n        /* \"contracts/TokenSale.sol\":921:934  _tokenAddress */\n      0x01\n      0x00\n      swap1\n      sload\n      swap1\n      0x0100\n      exp\n      swap1\n      div\n      0xffffffffffffffffffffffffffffffffffffffff\n      and\n        /* \"contracts/TokenSale.sol\":914:934  return _tokenAddress */\n      swap1\n      pop\n        /* \"contracts/TokenSale.sol\":855:940  function tokenAddress() public view returns(address){\r... */\n      swap1\n      jump\t// out\n        /* \"contracts/TokenSale.sol\":758:849  function saleStart() public view virtual returns (uint256) {\r... */\n    tag_67:\n        /* \"contracts/TokenSale.sol\":808:815  uint256 */\n      0x00\n        /* \"contracts/TokenSale.sol\":833:843  _saleStart */\n      sload(0x02)\n        /* \"contracts/TokenSale.sol\":826:843  return _saleStart */\n      swap1\n      pop\n        /* \"contracts/TokenSale.sol\":758:849  function saleStart() public view virtual returns (uint256) {\r... */\n      swap1\n      jump\t// out\n        /* \"contracts/TokenSale.sol\":1153:1240  function saleEnd() public view virtual returns (uint256) {\r... */\n    tag_71:\n        /* \"contracts/TokenSale.sol\":1201:1208  uint256 */\n      0x00\n        /* \"contracts/TokenSale.sol\":1226:1234  _saleEnd */\n      sload(0x03)\n        /* \"contracts/TokenSale.sol\":1219:1234  return _saleEnd */\n      swap1\n      pop\n        /* \"contracts/TokenSale.sol\":1153:1240  function saleEnd() public view virtual returns (uint256) {\r... */\n      swap1\n      jump\t// out\n        /* \"contracts/TokenSale.sol\":2124:2504  function Return(address _returnAddress) public payable onlyOwner returns(bool){\r... */\n    tag_75:\n        /* \"contracts/TokenSale.sol\":2197:2201  bool */\n      0x00\n        /* \"@openzeppelin/contracts/access/Ownable.sol\":1259:1271  _msgSender() */\n      tag_139\n        /* \"@openzeppelin/contracts/access/Ownable.sol\":1259:1269  _msgSender */\n      tag_95\n        /* \"@openzeppelin/contracts/access/Ownable.sol\":1259:1271  _msgSender() */\n      jump\t// in\n    tag_139:\n        /* \"@openzeppelin/contracts/access/Ownable.sol\":1248:1271  owner() == _msgSender() */\n      0xffffffffffffffffffffffffffffffffffffffff\n      and\n        /* \"@openzeppelin/contracts/access/Ownable.sol\":1248:1255  owner() */\n      tag_140\n        /* \"@openzeppelin/contracts/access/Ownable.sol\":1248:1253  owner */\n      tag_59\n        /* \"@openzeppelin/contracts/access/Ownable.sol\":1248:1255  owner() */\n      jump\t// in\n    tag_140:\n        /* \"@openzeppelin/contracts/access/Ownable.sol\":1248:1271  owner() == _msgSender() */\n      0xffffffffffffffffffffffffffffffffffffffff\n      and\n      eq\n        /* \"@openzeppelin/contracts/access/Ownable.sol\":1240:1308  require(owner() == _msgSender(), \"Ownable: caller is not the owner\") */\n      tag_141\n      jumpi\n      mload(0x40)\n      0x08c379a000000000000000000000000000000000000000000000000000000000\n      dup2\n      mstore\n      0x04\n      add\n      tag_142\n      swap1\n      tag_99\n      jump\t// in\n    tag_142:\n      mload(0x40)\n      dup1\n      swap2\n      sub\n      swap1\n      revert\n    tag_141:\n        /* \"contracts/TokenSale.sol\":2209:2226  uint256 returnAmt */\n      0x00\n        /* \"contracts/TokenSale.sol\":2229:2235  record */\n      0x05\n        /* \"contracts/TokenSale.sol\":2229:2251  record[_returnAddress] */\n      0x00\n        /* \"contracts/TokenSale.sol\":2236:2250  _returnAddress */\n      dup5\n        /* \"contracts/TokenSale.sol\":2229:2251  record[_returnAddress] */\n      0xffffffffffffffffffffffffffffffffffffffff\n      and\n      0xffffffffffffffffffffffffffffffffffffffff\n      and\n      dup2\n      mstore\n      0x20\n      add\n      swap1\n      dup2\n      mstore\n      0x20\n      add\n      0x00\n      keccak256\n      sload\n        /* \"contracts/TokenSale.sol\":2209:2251  uint256 returnAmt = record[_returnAddress] */\n      swap1\n      pop\n        /* \"contracts/TokenSale.sol\":2324:2330  10**18 */\n      0x0de0b6b3a7640000\n        /* \"contracts/TokenSale.sol\":2314:2323  returnAmt */\n      dup2\n        /* \"contracts/TokenSale.sol\":2314:2330  returnAmt*10**18 */\n      tag_144\n      swap2\n      swap1\n      tag_145\n      jump\t// in\n    tag_144:\n        /* \"contracts/TokenSale.sol\":2273:2286  _usdcInstance */\n      0x04\n      0x00\n      swap1\n      sload\n      swap1\n      0x0100\n      exp\n      swap1\n      div\n      0xffffffffffffffffffffffffffffffffffffffff\n      and\n        /* \"contracts/TokenSale.sol\":2266:2297  IERC20(_usdcInstance).balanceOf */\n      0xffffffffffffffffffffffffffffffffffffffff\n      and\n      0x70a08231\n        /* \"contracts/TokenSale.sol\":2298:2311  _tokenAddress */\n      0x01\n      0x00\n      swap1\n      sload\n      swap1\n      0x0100\n      exp\n      swap1\n      div\n      0xffffffffffffffffffffffffffffffffffffffff\n      and\n        /* \"contracts/TokenSale.sol\":2266:2312  IERC20(_usdcInstance).balanceOf(_tokenAddress) */\n      mload(0x40)\n      dup3\n      0xffffffff\n      and\n      0xe0\n      shl\n      dup2\n      mstore\n      0x04\n      add\n      tag_146\n      swap2\n      swap1\n      tag_40\n      jump\t// in\n    tag_146:\n      0x20\n      mload(0x40)\n      dup1\n      dup4\n      sub\n      dup2\n      dup7\n      dup1\n      extcodesize\n      iszero\n      dup1\n      iszero\n      tag_147\n      jumpi\n      0x00\n      dup1\n      revert\n    tag_147:\n      pop\n      gas\n      staticcall\n      iszero\n      dup1\n      iszero\n      tag_149\n      jumpi\n      returndatasize\n      0x00\n      dup1\n      returndatacopy\n      revert(0x00, returndatasize)\n    tag_149:\n      pop\n      pop\n      pop\n      pop\n      mload(0x40)\n      returndatasize\n      not(0x1f)\n      0x1f\n      dup3\n      add\n      and\n      dup3\n      add\n      dup1\n      0x40\n      mstore\n      pop\n      dup2\n      add\n      swap1\n      tag_150\n      swap2\n      swap1\n      tag_92\n      jump\t// in\n    tag_150:\n        /* \"contracts/TokenSale.sol\":2266:2330  IERC20(_usdcInstance).balanceOf(_tokenAddress)>=returnAmt*10**18 */\n      lt\n      iszero\n        /* \"contracts/TokenSale.sol\":2258:2360  require(IERC20(_usdcInstance).balanceOf(_tokenAddress)>=returnAmt*10**18,\"Not enough token to return\") */\n      tag_151\n      jumpi\n      mload(0x40)\n      0x08c379a000000000000000000000000000000000000000000000000000000000\n      dup2\n      mstore\n      0x04\n      add\n      tag_152\n      swap1\n      tag_153\n      jump\t// in\n    tag_152:\n      mload(0x40)\n      dup1\n      swap2\n      sub\n      swap1\n      revert\n    tag_151:\n        /* \"contracts/TokenSale.sol\":2420:2480  IERC20(_usdcInstance).safeTransfer(_returnAddress,returnAmt) */\n      tag_154\n        /* \"contracts/TokenSale.sol\":2455:2469  _returnAddress */\n      dup4\n        /* \"contracts/TokenSale.sol\":2470:2479  returnAmt */\n      dup3\n        /* \"contracts/TokenSale.sol\":2427:2440  _usdcInstance */\n      0x04\n      0x00\n      swap1\n      sload\n      swap1\n      0x0100\n      exp\n      swap1\n      div\n      0xffffffffffffffffffffffffffffffffffffffff\n      and\n        /* \"contracts/TokenSale.sol\":2420:2454  IERC20(_usdcInstance).safeTransfer */\n      0xffffffffffffffffffffffffffffffffffffffff\n      and\n      tag_116\n      swap1\n        /* \"contracts/TokenSale.sol\":2420:2480  IERC20(_usdcInstance).safeTransfer(_returnAddress,returnAmt) */\n      swap3\n      swap2\n      swap1\n      0xffffffff\n      and\n      jump\t// in\n    tag_154:\n        /* \"contracts/TokenSale.sol\":2494:2498  true */\n      0x01\n        /* \"contracts/TokenSale.sol\":2487:2498  return true */\n      swap2\n      pop\n      pop\n        /* \"contracts/TokenSale.sol\":2124:2504  function Return(address _returnAddress) public payable onlyOwner returns(bool){\r... */\n      swap2\n      swap1\n      pop\n      jump\t// out\n        /* \"contracts/TokenSale.sol\":1361:1666  function purchase(uint256 _amount) public{\r... */\n    tag_81:\n        /* \"contracts/TokenSale.sol\":1436:1446  _saleStart */\n      sload(0x02)\n        /* \"contracts/TokenSale.sol\":1419:1434  block.timestamp */\n      timestamp\n        /* \"contracts/TokenSale.sol\":1419:1446  block.timestamp>=_saleStart */\n      lt\n      iszero\n        /* \"contracts/TokenSale.sol\":1411:1473  require(block.timestamp>=_saleStart,\"Sale hasn't started yet\") */\n      tag_156\n      jumpi\n      mload(0x40)\n      0x08c379a000000000000000000000000000000000000000000000000000000000\n      dup2\n      mstore\n      0x04\n      add\n      tag_157\n      swap1\n      tag_158\n      jump\t// in\n    tag_157:\n      mload(0x40)\n      dup1\n      swap2\n      sub\n      swap1\n      revert\n    tag_156:\n        /* \"contracts/TokenSale.sol\":1507:1515  _saleEnd */\n      sload(0x03)\n        /* \"contracts/TokenSale.sol\":1490:1505  block.timestamp */\n      timestamp\n        /* \"contracts/TokenSale.sol\":1490:1515  block.timestamp<=_saleEnd */\n      gt\n      iszero\n        /* \"contracts/TokenSale.sol\":1482:1533  require(block.timestamp<=_saleEnd,\"Sale has ended\") */\n      tag_159\n      jumpi\n      mload(0x40)\n      0x08c379a000000000000000000000000000000000000000000000000000000000\n      dup2\n      mstore\n      0x04\n      add\n      tag_160\n      swap1\n      tag_161\n      jump\t// in\n    tag_160:\n      mload(0x40)\n      dup1\n      swap2\n      sub\n      swap1\n      revert\n    tag_159:\n        /* \"contracts/TokenSale.sol\":1542:1615  IERC20(_usdcInstance).safeTransferFrom(msg.sender,_tokenAddress, _amount) */\n      tag_162\n        /* \"contracts/TokenSale.sol\":1581:1591  msg.sender */\n      caller\n        /* \"contracts/TokenSale.sol\":1592:1605  _tokenAddress */\n      0x01\n      0x00\n      swap1\n      sload\n      swap1\n      0x0100\n      exp\n      swap1\n      div\n      0xffffffffffffffffffffffffffffffffffffffff\n      and\n        /* \"contracts/TokenSale.sol\":1607:1614  _amount */\n      dup4\n        /* \"contracts/TokenSale.sol\":1549:1562  _usdcInstance */\n      0x04\n      0x00\n      swap1\n      sload\n      swap1\n      0x0100\n      exp\n      swap1\n      div\n      0xffffffffffffffffffffffffffffffffffffffff\n      and\n        /* \"contracts/TokenSale.sol\":1542:1580  IERC20(_usdcInstance).safeTransferFrom */\n      0xffffffffffffffffffffffffffffffffffffffff\n      and\n      tag_163\n      swap1\n        /* \"contracts/TokenSale.sol\":1542:1615  IERC20(_usdcInstance).safeTransferFrom(msg.sender,_tokenAddress, _amount) */\n      swap4\n      swap3\n      swap2\n      swap1\n      0xffffffff\n      and\n      jump\t// in\n    tag_162:\n        /* \"contracts/TokenSale.sol\":1654:1660  10**18 */\n      0x0de0b6b3a7640000\n        /* \"contracts/TokenSale.sol\":1646:1653  _amount */\n      dup2\n        /* \"contracts/TokenSale.sol\":1646:1660  _amount*10**18 */\n      tag_164\n      swap2\n      swap1\n      tag_145\n      jump\t// in\n    tag_164:\n        /* \"contracts/TokenSale.sol\":1624:1630  record */\n      0x05\n        /* \"contracts/TokenSale.sol\":1624:1642  record[msg.sender] */\n      0x00\n        /* \"contracts/TokenSale.sol\":1631:1641  msg.sender */\n      caller\n        /* \"contracts/TokenSale.sol\":1624:1642  record[msg.sender] */\n      0xffffffffffffffffffffffffffffffffffffffff\n      and\n      0xffffffffffffffffffffffffffffffffffffffff\n      and\n      dup2\n      mstore\n      0x20\n      add\n      swap1\n      dup2\n      mstore\n      0x20\n      add\n      0x00\n      keccak256\n      0x00\n        /* \"contracts/TokenSale.sol\":1624:1660  record[msg.sender] += _amount*10**18 */\n      dup3\n      dup3\n      sload\n      tag_165\n      swap2\n      swap1\n      tag_166\n      jump\t// in\n    tag_165:\n      swap3\n      pop\n      pop\n      dup2\n      swap1\n      sstore\n      pop\n        /* \"contracts/TokenSale.sol\":1361:1666  function purchase(uint256 _amount) public{\r... */\n      pop\n      jump\t// out\n        /* \"@openzeppelin/contracts/access/Ownable.sol\":1918:2116  function transferOwnership(address newOwner) public virtual onlyOwner {... */\n    tag_85:\n        /* \"@openzeppelin/contracts/access/Ownable.sol\":1259:1271  _msgSender() */\n      tag_168\n        /* \"@openzeppelin/contracts/access/Ownable.sol\":1259:1269  _msgSender */\n      tag_95\n        /* \"@openzeppelin/contracts/access/Ownable.sol\":1259:1271  _msgSender() */\n      jump\t// in\n    tag_168:\n        /* \"@openzeppelin/contracts/access/Ownable.sol\":1248:1271  owner() == _msgSender() */\n      0xffffffffffffffffffffffffffffffffffffffff\n      and\n        /* \"@openzeppelin/contracts/access/Ownable.sol\":1248:1255  owner() */\n      tag_169\n        /* \"@openzeppelin/contracts/access/Ownable.sol\":1248:1253  owner */\n      tag_59\n        /* \"@openzeppelin/contracts/access/Ownable.sol\":1248:1255  owner() */\n      jump\t// in\n    tag_169:\n        /* \"@openzeppelin/contracts/access/Ownable.sol\":1248:1271  owner() == _msgSender() */\n      0xffffffffffffffffffffffffffffffffffffffff\n      and\n      eq\n        /* \"@openzeppelin/contracts/access/Ownable.sol\":1240:1308  require(owner() == _msgSender(), \"Ownable: caller is not the owner\") */\n      tag_170\n      jumpi\n      mload(0x40)\n      0x08c379a000000000000000000000000000000000000000000000000000000000\n      dup2\n      mstore\n      0x04\n      add\n      tag_171\n      swap1\n      tag_99\n      jump\t// in\n    tag_171:\n      mload(0x40)\n      dup1\n      swap2\n      sub\n      swap1\n      revert\n    tag_170:\n        /* \"@openzeppelin/contracts/access/Ownable.sol\":2026:2027  0 */\n      0x00\n        /* \"@openzeppelin/contracts/access/Ownable.sol\":2006:2028  newOwner != address(0) */\n      0xffffffffffffffffffffffffffffffffffffffff\n      and\n        /* \"@openzeppelin/contracts/access/Ownable.sol\":2006:2014  newOwner */\n      dup2\n        /* \"@openzeppelin/contracts/access/Ownable.sol\":2006:2028  newOwner != address(0) */\n      0xffffffffffffffffffffffffffffffffffffffff\n      and\n      eq\n      iszero\n        /* \"@openzeppelin/contracts/access/Ownable.sol\":1998:2071  require(newOwner != address(0), \"Ownable: new owner is the zero address\") */\n      tag_173\n      jumpi\n      mload(0x40)\n      0x08c379a000000000000000000000000000000000000000000000000000000000\n      dup2\n      mstore\n      0x04\n      add\n      tag_174\n      swap1\n      tag_175\n      jump\t// in\n    tag_174:\n      mload(0x40)\n      dup1\n      swap2\n      sub\n      swap1\n      revert\n    tag_173:\n        /* \"@openzeppelin/contracts/access/Ownable.sol\":2081:2109  _transferOwnership(newOwner) */\n      tag_176\n        /* \"@openzeppelin/contracts/access/Ownable.sol\":2100:2108  newOwner */\n      dup2\n        /* \"@openzeppelin/contracts/access/Ownable.sol\":2081:2099  _transferOwnership */\n      tag_131\n        /* \"@openzeppelin/contracts/access/Ownable.sol\":2081:2109  _transferOwnership(newOwner) */\n      jump\t// in\n    tag_176:\n        /* \"@openzeppelin/contracts/access/Ownable.sol\":1918:2116  function transferOwnership(address newOwner) public virtual onlyOwner {... */\n      pop\n      jump\t// out\n        /* \"@openzeppelin/contracts/utils/Context.sol\":640:736  function _msgSender() internal view virtual returns (address) {... */\n    tag_95:\n        /* \"@openzeppelin/contracts/utils/Context.sol\":693:700  address */\n      0x00\n        /* \"@openzeppelin/contracts/utils/Context.sol\":719:729  msg.sender */\n      caller\n        /* \"@openzeppelin/contracts/utils/Context.sol\":712:729  return msg.sender */\n      swap1\n      pop\n        /* \"@openzeppelin/contracts/utils/Context.sol\":640:736  function _msgSender() internal view virtual returns (address) {... */\n      swap1\n      jump\t// out\n        /* \"@openzeppelin/contracts/token/ERC20/utils/SafeERC20.sol\":701:906  function safeTransfer(... */\n    tag_116:\n        /* \"@openzeppelin/contracts/token/ERC20/utils/SafeERC20.sol\":813:899  _callOptionalReturn(token, abi.encodeWithSelector(token.transfer.selector, to, value)) */\n      tag_179\n        /* \"@openzeppelin/contracts/token/ERC20/utils/SafeERC20.sol\":833:838  token */\n      dup4\n        /* \"@openzeppelin/contracts/token/ERC20/utils/SafeERC20.sol\":863:886  token.transfer.selector */\n      shl(0xe0, 0xa9059cbb)\n        /* \"@openzeppelin/contracts/token/ERC20/utils/SafeERC20.sol\":888:890  to */\n      dup5\n        /* \"@openzeppelin/contracts/token/ERC20/utils/SafeERC20.sol\":892:897  value */\n      dup5\n        /* \"@openzeppelin/contracts/token/ERC20/utils/SafeERC20.sol\":840:898  abi.encodeWithSelector(token.transfer.selector, to, value) */\n      add(0x24, mload(0x40))\n      tag_180\n      swap3\n      swap2\n      swap1\n      tag_181\n      jump\t// in\n    tag_180:\n      mload(0x40)\n      0x20\n      dup2\n      dup4\n      sub\n      sub\n      dup2\n      mstore\n      swap1\n      0x40\n      mstore\n      swap1\n      not(0xffffffffffffffffffffffffffffffffffffffffffffffffffffffff)\n      and\n      0x20\n      dup3\n      add\n      dup1\n      mload\n      0xffffffffffffffffffffffffffffffffffffffffffffffffffffffff\n      dup4\n      dup2\n      dup4\n      and\n      or\n      dup4\n      mstore\n      pop\n      pop\n      pop\n      pop\n        /* \"@openzeppelin/contracts/token/ERC20/utils/SafeERC20.sol\":813:832  _callOptionalReturn */\n      tag_182\n        /* \"@openzeppelin/contracts/token/ERC20/utils/SafeERC20.sol\":813:899  _callOptionalReturn(token, abi.encodeWithSelector(token.transfer.selector, to, value)) */\n      jump\t// in\n    tag_179:\n        /* \"@openzeppelin/contracts/token/ERC20/utils/SafeERC20.sol\":701:906  function safeTransfer(... */\n      pop\n      pop\n      pop\n      jump\t// out\n        /* \"@openzeppelin/contracts/access/Ownable.sol\":2270:2457  function _transferOwnership(address newOwner) internal virtual {... */\n    tag_131:\n        /* \"@openzeppelin/contracts/access/Ownable.sol\":2343:2359  address oldOwner */\n      0x00\n        /* \"@openzeppelin/contracts/access/Ownable.sol\":2362:2368  _owner */\n      dup1\n      0x00\n      swap1\n      sload\n      swap1\n      0x0100\n      exp\n      swap1\n      div\n      0xffffffffffffffffffffffffffffffffffffffff\n      and\n        /* \"@openzeppelin/contracts/access/Ownable.sol\":2343:2368  address oldOwner = _owner */\n      swap1\n      pop\n        /* \"@openzeppelin/contracts/access/Ownable.sol\":2387:2395  newOwner */\n      dup2\n        /* \"@openzeppelin/contracts/access/Ownable.sol\":2378:2384  _owner */\n      0x00\n      dup1\n        /* \"@openzeppelin/contracts/access/Ownable.sol\":2378:2395  _owner = newOwner */\n      0x0100\n      exp\n      dup2\n      sload\n      dup2\n      0xffffffffffffffffffffffffffffffffffffffff\n      mul\n      not\n      and\n      swap1\n      dup4\n      0xffffffffffffffffffffffffffffffffffffffff\n      and\n      mul\n      or\n      swap1\n      sstore\n      pop\n        /* \"@openzeppelin/contracts/access/Ownable.sol\":2441:2449  newOwner */\n      dup2\n        /* \"@openzeppelin/contracts/access/Ownable.sol\":2410:2450  OwnershipTransferred(oldOwner, newOwner) */\n      0xffffffffffffffffffffffffffffffffffffffff\n      and\n        /* \"@openzeppelin/contracts/access/Ownable.sol\":2431:2439  oldOwner */\n      dup2\n        /* \"@openzeppelin/contracts/access/Ownable.sol\":2410:2450  OwnershipTransferred(oldOwner, newOwner) */\n      0xffffffffffffffffffffffffffffffffffffffff\n      and\n      0x8be0079c531659141344cd1fd0a4f28419497f9722a3daafe3b4186f6b6457e0\n      mload(0x40)\n      mload(0x40)\n      dup1\n      swap2\n      sub\n      swap1\n      log3\n        /* \"@openzeppelin/contracts/access/Ownable.sol\":2333:2457  {... */\n      pop\n        /* \"@openzeppelin/contracts/access/Ownable.sol\":2270:2457  function _transferOwnership(address newOwner) internal virtual {... */\n      pop\n      jump\t// out\n        /* \"@openzeppelin/contracts/token/ERC20/utils/SafeERC20.sol\":912:1153  function safeTransferFrom(... */\n    tag_163:\n        /* \"@openzeppelin/contracts/token/ERC20/utils/SafeERC20.sol\":1050:1146  _callOptionalReturn(token, abi.encodeWithSelector(token.transferFrom.selector, from, to, value)) */\n      tag_185\n        /* \"@openzeppelin/contracts/token/ERC20/utils/SafeERC20.sol\":1070:1075  token */\n      dup5\n        /* \"@openzeppelin/contracts/token/ERC20/utils/SafeERC20.sol\":1100:1127  token.transferFrom.selector */\n      shl(0xe0, 0x23b872dd)\n        /* \"@openzeppelin/contracts/token/ERC20/utils/SafeERC20.sol\":1129:1133  from */\n      dup6\n        /* \"@openzeppelin/contracts/token/ERC20/utils/SafeERC20.sol\":1135:1137  to */\n      dup6\n        /* \"@openzeppelin/contracts/token/ERC20/utils/SafeERC20.sol\":1139:1144  value */\n      dup6\n        /* \"@openzeppelin/contracts/token/ERC20/utils/SafeERC20.sol\":1077:1145  abi.encodeWithSelector(token.transferFrom.selector, from, to, value) */\n      add(0x24, mload(0x40))\n      tag_186\n      swap4\n      swap3\n      swap2\n      swap1\n      tag_187\n      jump\t// in\n    tag_186:\n      mload(0x40)\n      0x20\n      dup2\n      dup4\n      sub\n      sub\n      dup2\n      mstore\n      swap1\n      0x40\n      mstore\n      swap1\n      not(0xffffffffffffffffffffffffffffffffffffffffffffffffffffffff)\n      and\n      0x20\n      dup3\n      add\n      dup1\n      mload\n      0xffffffffffffffffffffffffffffffffffffffffffffffffffffffff\n      dup4\n      dup2\n      dup4\n      and\n      or\n      dup4\n      mstore\n      pop\n      pop\n      pop\n      pop\n        /* \"@openzeppelin/contracts/token/ERC20/utils/SafeERC20.sol\":1050:1069  _callOptionalReturn */\n      tag_182\n        /* \"@openzeppelin/contracts/token/ERC20/utils/SafeERC20.sol\":1050:1146  _callOptionalReturn(token, abi.encodeWithSelector(token.transferFrom.selector, from, to, value)) */\n      jump\t// in\n    tag_185:\n        /* \"@openzeppelin/contracts/token/ERC20/utils/SafeERC20.sol\":912:1153  function safeTransferFrom(... */\n      pop\n      pop\n      pop\n      pop\n      jump\t// out\n        /* \"@openzeppelin/contracts/token/ERC20/utils/SafeERC20.sol\":3207:3913  function _callOptionalReturn(IERC20 token, bytes memory data) private {... */\n    tag_182:\n        /* \"@openzeppelin/contracts/token/ERC20/utils/SafeERC20.sol\":3626:3649  bytes memory returndata */\n      0x00\n        /* \"@openzeppelin/contracts/token/ERC20/utils/SafeERC20.sol\":3652:3721  address(token).functionCall(data, \"SafeERC20: low-level call failed\") */\n      tag_189\n        /* \"@openzeppelin/contracts/token/ERC20/utils/SafeERC20.sol\":3680:3684  data */\n      dup3\n        /* \"@openzeppelin/contracts/token/ERC20/utils/SafeERC20.sol\":3652:3721  address(token).functionCall(data, \"SafeERC20: low-level call failed\") */\n      mload(0x40)\n      dup1\n      0x40\n      add\n      0x40\n      mstore\n      dup1\n      0x20\n      dup2\n      mstore\n      0x20\n      add\n      0x5361666545524332303a206c6f772d6c6576656c2063616c6c206661696c6564\n      dup2\n      mstore\n      pop\n        /* \"@openzeppelin/contracts/token/ERC20/utils/SafeERC20.sol\":3660:3665  token */\n      dup6\n        /* \"@openzeppelin/contracts/token/ERC20/utils/SafeERC20.sol\":3652:3679  address(token).functionCall */\n      0xffffffffffffffffffffffffffffffffffffffff\n      and\n      tag_190\n      swap1\n        /* \"@openzeppelin/contracts/token/ERC20/utils/SafeERC20.sol\":3652:3721  address(token).functionCall(data, \"SafeERC20: low-level call failed\") */\n      swap3\n      swap2\n      swap1\n      0xffffffff\n      and\n      jump\t// in\n    tag_189:\n        /* \"@openzeppelin/contracts/token/ERC20/utils/SafeERC20.sol\":3626:3721  bytes memory returndata = address(token).functionCall(data, \"SafeERC20: low-level call failed\") */\n      swap1\n      pop\n        /* \"@openzeppelin/contracts/token/ERC20/utils/SafeERC20.sol\":3755:3756  0 */\n      0x00\n        /* \"@openzeppelin/contracts/token/ERC20/utils/SafeERC20.sol\":3735:3745  returndata */\n      dup2\n        /* \"@openzeppelin/contracts/token/ERC20/utils/SafeERC20.sol\":3735:3752  returndata.length */\n      mload\n        /* \"@openzeppelin/contracts/token/ERC20/utils/SafeERC20.sol\":3735:3756  returndata.length > 0 */\n      gt\n        /* \"@openzeppelin/contracts/token/ERC20/utils/SafeERC20.sol\":3731:3907  if (returndata.length > 0) {... */\n      iszero\n      tag_191\n      jumpi\n        /* \"@openzeppelin/contracts/token/ERC20/utils/SafeERC20.sol\":3830:3840  returndata */\n      dup1\n        /* \"@openzeppelin/contracts/token/ERC20/utils/SafeERC20.sol\":3819:3849  abi.decode(returndata, (bool)) */\n      dup1\n      0x20\n      add\n      swap1\n      mload\n      dup2\n      add\n      swap1\n      tag_192\n      swap2\n      swap1\n      tag_193\n      jump\t// in\n    tag_192:\n        /* \"@openzeppelin/contracts/token/ERC20/utils/SafeERC20.sol\":3811:3896  require(abi.decode(returndata, (bool)), \"SafeERC20: ERC20 operation did not succeed\") */\n      tag_194\n      jumpi\n      mload(0x40)\n      0x08c379a000000000000000000000000000000000000000000000000000000000\n      dup2\n      mstore\n      0x04\n      add\n      tag_195\n      swap1\n      tag_196\n      jump\t// in\n    tag_195:\n      mload(0x40)\n      dup1\n      swap2\n      sub\n      swap1\n      revert\n    tag_194:\n        /* \"@openzeppelin/contracts/token/ERC20/utils/SafeERC20.sol\":3731:3907  if (returndata.length > 0) {... */\n    tag_191:\n        /* \"@openzeppelin/contracts/token/ERC20/utils/SafeERC20.sol\":3277:3913  {... */\n      pop\n        /* \"@openzeppelin/contracts/token/ERC20/utils/SafeERC20.sol\":3207:3913  function _callOptionalReturn(IERC20 token, bytes memory data) private {... */\n      pop\n      pop\n      jump\t// out\n        /* \"@openzeppelin/contracts/utils/Address.sol\":3861:4084  function functionCall(... */\n    tag_190:\n        /* \"@openzeppelin/contracts/utils/Address.sol\":3994:4006  bytes memory */\n      0x60\n        /* \"@openzeppelin/contracts/utils/Address.sol\":4025:4077  functionCallWithValue(target, data, 0, errorMessage) */\n      tag_198\n        /* \"@openzeppelin/contracts/utils/Address.sol\":4047:4053  target */\n      dup5\n        /* \"@openzeppelin/contracts/utils/Address.sol\":4055:4059  data */\n      dup5\n        /* \"@openzeppelin/contracts/utils/Address.sol\":4061:4062  0 */\n      0x00\n        /* \"@openzeppelin/contracts/utils/Address.sol\":4064:4076  errorMessage */\n      dup6\n        /* \"@openzeppelin/contracts/utils/Address.sol\":4025:4046  functionCallWithValue */\n      tag_199\n        /* \"@openzeppelin/contracts/utils/Address.sol\":4025:4077  functionCallWithValue(target, data, 0, errorMessage) */\n      jump\t// in\n    tag_198:\n        /* \"@openzeppelin/contracts/utils/Address.sol\":4018:4077  return functionCallWithValue(target, data, 0, errorMessage) */\n      swap1\n      pop\n        /* \"@openzeppelin/contracts/utils/Address.sol\":3861:4084  function functionCall(... */\n      swap4\n      swap3\n      pop\n      pop\n      pop\n      jump\t// out\n        /* \"@openzeppelin/contracts/utils/Address.sol\":4948:5447  function functionCallWithValue(... */\n    tag_199:\n        /* \"@openzeppelin/contracts/utils/Address.sol\":5113:5125  bytes memory */\n      0x60\n        /* \"@openzeppelin/contracts/utils/Address.sol\":5170:5175  value */\n      dup3\n        /* \"@openzeppelin/contracts/utils/Address.sol\":5145:5166  address(this).balance */\n      selfbalance\n        /* \"@openzeppelin/contracts/utils/Address.sol\":5145:5175  address(this).balance >= value */\n      lt\n      iszero\n        /* \"@openzeppelin/contracts/utils/Address.sol\":5137:5218  require(address(this).balance >= value, \"Address: insufficient balance for call\") */\n      tag_201\n      jumpi\n      mload(0x40)\n      0x08c379a000000000000000000000000000000000000000000000000000000000\n      dup2\n      mstore\n      0x04\n      add\n      tag_202\n      swap1\n      tag_203\n      jump\t// in\n    tag_202:\n      mload(0x40)\n      dup1\n      swap2\n      sub\n      swap1\n      revert\n    tag_201:\n        /* \"@openzeppelin/contracts/utils/Address.sol\":5236:5254  isContract(target) */\n      tag_204\n        /* \"@openzeppelin/contracts/utils/Address.sol\":5247:5253  target */\n      dup6\n        /* \"@openzeppelin/contracts/utils/Address.sol\":5236:5246  isContract */\n      tag_205\n        /* \"@openzeppelin/contracts/utils/Address.sol\":5236:5254  isContract(target) */\n      jump\t// in\n    tag_204:\n        /* \"@openzeppelin/contracts/utils/Address.sol\":5228:5288  require(isContract(target), \"Address: call to non-contract\") */\n      tag_206\n      jumpi\n      mload(0x40)\n      0x08c379a000000000000000000000000000000000000000000000000000000000\n      dup2\n      mstore\n      0x04\n      add\n      tag_207\n      swap1\n      tag_208\n      jump\t// in\n    tag_207:\n      mload(0x40)\n      dup1\n      swap2\n      sub\n      swap1\n      revert\n    tag_206:\n        /* \"@openzeppelin/contracts/utils/Address.sol\":5300:5312  bool success */\n      0x00\n        /* \"@openzeppelin/contracts/utils/Address.sol\":5314:5337  bytes memory returndata */\n      dup1\n        /* \"@openzeppelin/contracts/utils/Address.sol\":5341:5347  target */\n      dup7\n        /* \"@openzeppelin/contracts/utils/Address.sol\":5341:5352  target.call */\n      0xffffffffffffffffffffffffffffffffffffffff\n      and\n        /* \"@openzeppelin/contracts/utils/Address.sol\":5360:5365  value */\n      dup6\n        /* \"@openzeppelin/contracts/utils/Address.sol\":5367:5371  data */\n      dup8\n        /* \"@openzeppelin/contracts/utils/Address.sol\":5341:5372  target.call{value: value}(data) */\n      mload(0x40)\n      tag_209\n      swap2\n      swap1\n      tag_210\n      jump\t// in\n    tag_209:\n      0x00\n      mload(0x40)\n      dup1\n      dup4\n      sub\n      dup2\n      dup6\n      dup8\n      gas\n      call\n      swap3\n      pop\n      pop\n      pop\n      returndatasize\n      dup1\n      0x00\n      dup2\n      eq\n      tag_213\n      jumpi\n      mload(0x40)\n      swap2\n      pop\n      and(add(returndatasize, 0x3f), not(0x1f))\n      dup3\n      add\n      0x40\n      mstore\n      returndatasize\n      dup3\n      mstore\n      returndatasize\n      0x00\n      0x20\n      dup5\n      add\n      returndatacopy\n      jump(tag_212)\n    tag_213:\n      0x60\n      swap2\n      pop\n    tag_212:\n      pop\n        /* \"@openzeppelin/contracts/utils/Address.sol\":5299:5372  (bool success, bytes memory returndata) = target.call{value: value}(data) */\n      swap2\n      pop\n      swap2\n      pop\n        /* \"@openzeppelin/contracts/utils/Address.sol\":5389:5440  verifyCallResult(success, returndata, errorMessage) */\n      tag_214\n        /* \"@openzeppelin/contracts/utils/Address.sol\":5406:5413  success */\n      dup3\n        /* \"@openzeppelin/contracts/utils/Address.sol\":5415:5425  returndata */\n      dup3\n        /* \"@openzeppelin/contracts/utils/Address.sol\":5427:5439  errorMessage */\n      dup7\n        /* \"@openzeppelin/contracts/utils/Address.sol\":5389:5405  verifyCallResult */\n      tag_215\n        /* \"@openzeppelin/contracts/utils/Address.sol\":5389:5440  verifyCallResult(success, returndata, errorMessage) */\n      jump\t// in\n    tag_214:\n        /* \"@openzeppelin/contracts/utils/Address.sol\":5382:5440  return verifyCallResult(success, returndata, errorMessage) */\n      swap3\n      pop\n      pop\n      pop\n        /* \"@openzeppelin/contracts/utils/Address.sol\":4948:5447  function functionCallWithValue(... */\n      swap5\n      swap4\n      pop\n      pop\n      pop\n      pop\n      jump\t// out\n        /* \"@openzeppelin/contracts/utils/Address.sol\":1175:1495  function isContract(address account) internal view returns (bool) {... */\n    tag_205:\n        /* \"@openzeppelin/contracts/utils/Address.sol\":1235:1239  bool */\n      0x00\n        /* \"@openzeppelin/contracts/utils/Address.sol\":1487:1488  0 */\n      dup1\n        /* \"@openzeppelin/contracts/utils/Address.sol\":1465:1472  account */\n      dup3\n        /* \"@openzeppelin/contracts/utils/Address.sol\":1465:1484  account.code.length */\n      0xffffffffffffffffffffffffffffffffffffffff\n      and\n      extcodesize\n        /* \"@openzeppelin/contracts/utils/Address.sol\":1465:1488  account.code.length > 0 */\n      gt\n        /* \"@openzeppelin/contracts/utils/Address.sol\":1458:1488  return account.code.length > 0 */\n      swap1\n      pop\n        /* \"@openzeppelin/contracts/utils/Address.sol\":1175:1495  function isContract(address account) internal view returns (bool) {... */\n      swap2\n      swap1\n      pop\n      jump\t// out\n        /* \"@openzeppelin/contracts/utils/Address.sol\":7561:8253  function verifyCallResult(... */\n    tag_215:\n        /* \"@openzeppelin/contracts/utils/Address.sol\":7707:7719  bytes memory */\n      0x60\n        /* \"@openzeppelin/contracts/utils/Address.sol\":7735:7742  success */\n      dup4\n        /* \"@openzeppelin/contracts/utils/Address.sol\":7731:8247  if (success) {... */\n      iszero\n      tag_218\n      jumpi\n        /* \"@openzeppelin/contracts/utils/Address.sol\":7765:7775  returndata */\n      dup3\n        /* \"@openzeppelin/contracts/utils/Address.sol\":7758:7775  return returndata */\n      swap1\n      pop\n      jump(tag_217)\n        /* \"@openzeppelin/contracts/utils/Address.sol\":7731:8247  if (success) {... */\n    tag_218:\n        /* \"@openzeppelin/contracts/utils/Address.sol\":7896:7897  0 */\n      0x00\n        /* \"@openzeppelin/contracts/utils/Address.sol\":7876:7886  returndata */\n      dup4\n        /* \"@openzeppelin/contracts/utils/Address.sol\":7876:7893  returndata.length */\n      mload\n        /* \"@openzeppelin/contracts/utils/Address.sol\":7876:7897  returndata.length > 0 */\n      gt\n        /* \"@openzeppelin/contracts/utils/Address.sol\":7872:8237  if (returndata.length > 0) {... */\n      iszero\n      tag_220\n      jumpi\n        /* \"@openzeppelin/contracts/utils/Address.sol\":8070:8080  returndata */\n      dup3\n        /* \"@openzeppelin/contracts/utils/Address.sol\":8064:8081  mload(returndata) */\n      mload\n        /* \"@openzeppelin/contracts/utils/Address.sol\":8130:8145  returndata_size */\n      dup1\n        /* \"@openzeppelin/contracts/utils/Address.sol\":8117:8127  returndata */\n      dup5\n        /* \"@openzeppelin/contracts/utils/Address.sol\":8113:8115  32 */\n      0x20\n        /* \"@openzeppelin/contracts/utils/Address.sol\":8109:8128  add(32, returndata) */\n      add\n        /* \"@openzeppelin/contracts/utils/Address.sol\":8102:8146  revert(add(32, returndata), returndata_size) */\n      revert\n        /* \"@openzeppelin/contracts/utils/Address.sol\":7872:8237  if (returndata.length > 0) {... */\n    tag_220:\n        /* \"@openzeppelin/contracts/utils/Address.sol\":8209:8221  errorMessage */\n      dup2\n        /* \"@openzeppelin/contracts/utils/Address.sol\":8202:8222  revert(errorMessage) */\n      mload(0x40)\n      0x08c379a000000000000000000000000000000000000000000000000000000000\n      dup2\n      mstore\n      0x04\n      add\n      tag_222\n      swap2\n      swap1\n      tag_223\n      jump\t// in\n    tag_222:\n      mload(0x40)\n      dup1\n      swap2\n      sub\n      swap1\n      revert\n        /* \"@openzeppelin/contracts/utils/Address.sol\":7561:8253  function verifyCallResult(... */\n    tag_217:\n      swap4\n      swap3\n      pop\n      pop\n      pop\n      jump\t// out\n        /* \"#utility.yul\":7:146   */\n    tag_225:\n        /* \"#utility.yul\":53:58   */\n      0x00\n        /* \"#utility.yul\":91:97   */\n      dup2\n        /* \"#utility.yul\":78:98   */\n      calldataload\n        /* \"#utility.yul\":69:98   */\n      swap1\n      pop\n        /* \"#utility.yul\":107:140   */\n      tag_227\n        /* \"#utility.yul\":134:139   */\n      dup2\n        /* \"#utility.yul\":107:140   */\n      tag_228\n      jump\t// in\n    tag_227:\n        /* \"#utility.yul\":7:146   */\n      swap3\n      swap2\n      pop\n      pop\n      jump\t// out\n        /* \"#utility.yul\":152:289   */\n    tag_229:\n        /* \"#utility.yul\":206:211   */\n      0x00\n        /* \"#utility.yul\":237:243   */\n      dup2\n        /* \"#utility.yul\":231:244   */\n      mload\n        /* \"#utility.yul\":222:244   */\n      swap1\n      pop\n        /* \"#utility.yul\":253:283   */\n      tag_231\n        /* \"#utility.yul\":277:282   */\n      dup2\n        /* \"#utility.yul\":253:283   */\n      tag_232\n      jump\t// in\n    tag_231:\n        /* \"#utility.yul\":152:289   */\n      swap3\n      swap2\n      pop\n      pop\n      jump\t// out\n        /* \"#utility.yul\":295:434   */\n    tag_233:\n        /* \"#utility.yul\":341:346   */\n      0x00\n        /* \"#utility.yul\":379:385   */\n      dup2\n        /* \"#utility.yul\":366:386   */\n      calldataload\n        /* \"#utility.yul\":357:386   */\n      swap1\n      pop\n        /* \"#utility.yul\":395:428   */\n      tag_235\n        /* \"#utility.yul\":422:427   */\n      dup2\n        /* \"#utility.yul\":395:428   */\n      tag_236\n      jump\t// in\n    tag_235:\n        /* \"#utility.yul\":295:434   */\n      swap3\n      swap2\n      pop\n      pop\n      jump\t// out\n        /* \"#utility.yul\":440:583   */\n    tag_237:\n        /* \"#utility.yul\":497:502   */\n      0x00\n        /* \"#utility.yul\":528:534   */\n      dup2\n        /* \"#utility.yul\":522:535   */\n      mload\n        /* \"#utility.yul\":513:535   */\n      swap1\n      pop\n        /* \"#utility.yul\":544:577   */\n      tag_239\n        /* \"#utility.yul\":571:576   */\n      dup2\n        /* \"#utility.yul\":544:577   */\n      tag_236\n      jump\t// in\n    tag_239:\n        /* \"#utility.yul\":440:583   */\n      swap3\n      swap2\n      pop\n      pop\n      jump\t// out\n        /* \"#utility.yul\":589:918   */\n    tag_23:\n        /* \"#utility.yul\":648:654   */\n      0x00\n        /* \"#utility.yul\":697:699   */\n      0x20\n        /* \"#utility.yul\":685:694   */\n      dup3\n        /* \"#utility.yul\":676:683   */\n      dup5\n        /* \"#utility.yul\":672:695   */\n      sub\n        /* \"#utility.yul\":668:700   */\n      slt\n        /* \"#utility.yul\":665:784   */\n      iszero\n      tag_241\n      jumpi\n        /* \"#utility.yul\":703:782   */\n      tag_242\n      tag_243\n      jump\t// in\n    tag_242:\n        /* \"#utility.yul\":665:784   */\n    tag_241:\n        /* \"#utility.yul\":823:824   */\n      0x00\n        /* \"#utility.yul\":848:901   */\n      tag_244\n        /* \"#utility.yul\":893:900   */\n      dup5\n        /* \"#utility.yul\":884:890   */\n      dup3\n        /* \"#utility.yul\":873:882   */\n      dup6\n        /* \"#utility.yul\":869:891   */\n      add\n        /* \"#utility.yul\":848:901   */\n      tag_225\n      jump\t// in\n    tag_244:\n        /* \"#utility.yul\":838:901   */\n      swap2\n      pop\n        /* \"#utility.yul\":794:911   */\n      pop\n        /* \"#utility.yul\":589:918   */\n      swap3\n      swap2\n      pop\n      pop\n      jump\t// out\n        /* \"#utility.yul\":924:1269   */\n    tag_193:\n        /* \"#utility.yul\":991:997   */\n      0x00\n        /* \"#utility.yul\":1040:1042   */\n      0x20\n        /* \"#utility.yul\":1028:1037   */\n      dup3\n        /* \"#utility.yul\":1019:1026   */\n      dup5\n        /* \"#utility.yul\":1015:1038   */\n      sub\n        /* \"#utility.yul\":1011:1043   */\n      slt\n        /* \"#utility.yul\":1008:1127   */\n      iszero\n      tag_246\n      jumpi\n        /* \"#utility.yul\":1046:1125   */\n      tag_247\n      tag_243\n      jump\t// in\n    tag_247:\n        /* \"#utility.yul\":1008:1127   */\n    tag_246:\n        /* \"#utility.yul\":1166:1167   */\n      0x00\n        /* \"#utility.yul\":1191:1252   */\n      tag_248\n        /* \"#utility.yul\":1244:1251   */\n      dup5\n        /* \"#utility.yul\":1235:1241   */\n      dup3\n        /* \"#utility.yul\":1224:1233   */\n      dup6\n        /* \"#utility.yul\":1220:1242   */\n      add\n        /* \"#utility.yul\":1191:1252   */\n      tag_229\n      jump\t// in\n    tag_248:\n        /* \"#utility.yul\":1181:1252   */\n      swap2\n      pop\n        /* \"#utility.yul\":1137:1262   */\n      pop\n        /* \"#utility.yul\":924:1269   */\n      swap3\n      swap2\n      pop\n      pop\n      jump\t// out\n        /* \"#utility.yul\":1275:1604   */\n    tag_30:\n        /* \"#utility.yul\":1334:1340   */\n      0x00\n        /* \"#utility.yul\":1383:1385   */\n      0x20\n        /* \"#utility.yul\":1371:1380   */\n      dup3\n        /* \"#utility.yul\":1362:1369   */\n      dup5\n        /* \"#utility.yul\":1358:1381   */\n      sub\n        /* \"#utility.yul\":1354:1386   */\n      slt\n        /* \"#utility.yul\":1351:1470   */\n      iszero\n      tag_250\n      jumpi\n        /* \"#utility.yul\":1389:1468   */\n      tag_251\n      tag_243\n      jump\t// in\n    tag_251:\n        /* \"#utility.yul\":1351:1470   */\n    tag_250:\n        /* \"#utility.yul\":1509:1510   */\n      0x00\n        /* \"#utility.yul\":1534:1587   */\n      tag_252\n        /* \"#utility.yul\":1579:1586   */\n      dup5\n        /* \"#utility.yul\":1570:1576   */\n      dup3\n        /* \"#utility.yul\":1559:1568   */\n      dup6\n        /* \"#utility.yul\":1555:1577   */\n      add\n        /* \"#utility.yul\":1534:1587   */\n      tag_233\n      jump\t// in\n    tag_252:\n        /* \"#utility.yul\":1524:1587   */\n      swap2\n      pop\n        /* \"#utility.yul\":1480:1597   */\n      pop\n        /* \"#utility.yul\":1275:1604   */\n      swap3\n      swap2\n      pop\n      pop\n      jump\t// out\n        /* \"#utility.yul\":1610:1961   */\n    tag_92:\n        /* \"#utility.yul\":1680:1686   */\n      0x00\n        /* \"#utility.yul\":1729:1731   */\n      0x20\n        /* \"#utility.yul\":1717:1726   */\n      dup3\n        /* \"#utility.yul\":1708:1715   */\n      dup5\n        /* \"#utility.yul\":1704:1727   */\n      sub\n        /* \"#utility.yul\":1700:1732   */\n      slt\n        /* \"#utility.yul\":1697:1816   */\n      iszero\n      tag_254\n      jumpi\n        /* \"#utility.yul\":1735:1814   */\n      tag_255\n      tag_243\n      jump\t// in\n    tag_255:\n        /* \"#utility.yul\":1697:1816   */\n    tag_254:\n        /* \"#utility.yul\":1855:1856   */\n      0x00\n        /* \"#utility.yul\":1880:1944   */\n      tag_256\n        /* \"#utility.yul\":1936:1943   */\n      dup5\n        /* \"#utility.yul\":1927:1933   */\n      dup3\n        /* \"#utility.yul\":1916:1925   */\n      dup6\n        /* \"#utility.yul\":1912:1934   */\n      add\n        /* \"#utility.yul\":1880:1944   */\n      tag_237\n      jump\t// in\n    tag_256:\n        /* \"#utility.yul\":1870:1944   */\n      swap2\n      pop\n        /* \"#utility.yul\":1826:1954   */\n      pop\n        /* \"#utility.yul\":1610:1961   */\n      swap3\n      swap2\n      pop\n      pop\n      jump\t// out\n        /* \"#utility.yul\":1967:2085   */\n    tag_257:\n        /* \"#utility.yul\":2054:2078   */\n      tag_259\n        /* \"#utility.yul\":2072:2077   */\n      dup2\n        /* \"#utility.yul\":2054:2078   */\n      tag_260\n      jump\t// in\n    tag_259:\n        /* \"#utility.yul\":2049:2052   */\n      dup3\n        /* \"#utility.yul\":2042:2079   */\n      mstore\n        /* \"#utility.yul\":1967:2085   */\n      pop\n      pop\n      jump\t// out\n        /* \"#utility.yul\":2091:2200   */\n    tag_261:\n        /* \"#utility.yul\":2172:2193   */\n      tag_263\n        /* \"#utility.yul\":2187:2192   */\n      dup2\n        /* \"#utility.yul\":2172:2193   */\n      tag_264\n      jump\t// in\n    tag_263:\n        /* \"#utility.yul\":2167:2170   */\n      dup3\n        /* \"#utility.yul\":2160:2194   */\n      mstore\n        /* \"#utility.yul\":2091:2200   */\n      pop\n      pop\n      jump\t// out\n        /* \"#utility.yul\":2206:2579   */\n    tag_265:\n        /* \"#utility.yul\":2310:2313   */\n      0x00\n        /* \"#utility.yul\":2338:2376   */\n      tag_267\n        /* \"#utility.yul\":2370:2375   */\n      dup3\n        /* \"#utility.yul\":2338:2376   */\n      tag_268\n      jump\t// in\n    tag_267:\n        /* \"#utility.yul\":2392:2480   */\n      tag_269\n        /* \"#utility.yul\":2473:2479   */\n      dup2\n        /* \"#utility.yul\":2468:2471   */\n      dup6\n        /* \"#utility.yul\":2392:2480   */\n      tag_270\n      jump\t// in\n    tag_269:\n        /* \"#utility.yul\":2385:2480   */\n      swap4\n      pop\n        /* \"#utility.yul\":2489:2541   */\n      tag_271\n        /* \"#utility.yul\":2534:2540   */\n      dup2\n        /* \"#utility.yul\":2529:2532   */\n      dup6\n        /* \"#utility.yul\":2522:2526   */\n      0x20\n        /* \"#utility.yul\":2515:2520   */\n      dup7\n        /* \"#utility.yul\":2511:2527   */\n      add\n        /* \"#utility.yul\":2489:2541   */\n      tag_272\n      jump\t// in\n    tag_271:\n        /* \"#utility.yul\":2566:2572   */\n      dup1\n        /* \"#utility.yul\":2561:2564   */\n      dup5\n        /* \"#utility.yul\":2557:2573   */\n      add\n        /* \"#utility.yul\":2550:2573   */\n      swap2\n      pop\n        /* \"#utility.yul\":2314:2579   */\n      pop\n        /* \"#utility.yul\":2206:2579   */\n      swap3\n      swap2\n      pop\n      pop\n      jump\t// out\n        /* \"#utility.yul\":2585:2949   */\n    tag_273:\n        /* \"#utility.yul\":2673:2676   */\n      0x00\n        /* \"#utility.yul\":2701:2740   */\n      tag_275\n        /* \"#utility.yul\":2734:2739   */\n      dup3\n        /* \"#utility.yul\":2701:2740   */\n      tag_276\n      jump\t// in\n    tag_275:\n        /* \"#utility.yul\":2756:2827   */\n      tag_277\n        /* \"#utility.yul\":2820:2826   */\n      dup2\n        /* \"#utility.yul\":2815:2818   */\n      dup6\n        /* \"#utility.yul\":2756:2827   */\n      tag_278\n      jump\t// in\n    tag_277:\n        /* \"#utility.yul\":2749:2827   */\n      swap4\n      pop\n        /* \"#utility.yul\":2836:2888   */\n      tag_279\n        /* \"#utility.yul\":2881:2887   */\n      dup2\n        /* \"#utility.yul\":2876:2879   */\n      dup6\n        /* \"#utility.yul\":2869:2873   */\n      0x20\n        /* \"#utility.yul\":2862:2867   */\n      dup7\n        /* \"#utility.yul\":2858:2874   */\n      add\n        /* \"#utility.yul\":2836:2888   */\n      tag_272\n      jump\t// in\n    tag_279:\n        /* \"#utility.yul\":2913:2942   */\n      tag_280\n        /* \"#utility.yul\":2935:2941   */\n      dup2\n        /* \"#utility.yul\":2913:2942   */\n      tag_281\n      jump\t// in\n    tag_280:\n        /* \"#utility.yul\":2908:2911   */\n      dup5\n        /* \"#utility.yul\":2904:2943   */\n      add\n        /* \"#utility.yul\":2897:2943   */\n      swap2\n      pop\n        /* \"#utility.yul\":2677:2949   */\n      pop\n        /* \"#utility.yul\":2585:2949   */\n      swap3\n      swap2\n      pop\n      pop\n      jump\t// out\n        /* \"#utility.yul\":2955:3321   */\n    tag_282:\n        /* \"#utility.yul\":3097:3100   */\n      0x00\n        /* \"#utility.yul\":3118:3185   */\n      tag_284\n        /* \"#utility.yul\":3182:3184   */\n      0x26\n        /* \"#utility.yul\":3177:3180   */\n      dup4\n        /* \"#utility.yul\":3118:3185   */\n      tag_278\n      jump\t// in\n    tag_284:\n        /* \"#utility.yul\":3111:3185   */\n      swap2\n      pop\n        /* \"#utility.yul\":3194:3287   */\n      tag_285\n        /* \"#utility.yul\":3283:3286   */\n      dup3\n        /* \"#utility.yul\":3194:3287   */\n      tag_286\n      jump\t// in\n    tag_285:\n        /* \"#utility.yul\":3312:3314   */\n      0x40\n        /* \"#utility.yul\":3307:3310   */\n      dup3\n        /* \"#utility.yul\":3303:3315   */\n      add\n        /* \"#utility.yul\":3296:3315   */\n      swap1\n      pop\n        /* \"#utility.yul\":2955:3321   */\n      swap2\n      swap1\n      pop\n      jump\t// out\n        /* \"#utility.yul\":3327:3693   */\n    tag_287:\n        /* \"#utility.yul\":3469:3472   */\n      0x00\n        /* \"#utility.yul\":3490:3557   */\n      tag_289\n        /* \"#utility.yul\":3554:3556   */\n      0x0e\n        /* \"#utility.yul\":3549:3552   */\n      dup4\n        /* \"#utility.yul\":3490:3557   */\n      tag_278\n      jump\t// in\n    tag_289:\n        /* \"#utility.yul\":3483:3557   */\n      swap2\n      pop\n        /* \"#utility.yul\":3566:3659   */\n      tag_290\n        /* \"#utility.yul\":3655:3658   */\n      dup3\n        /* \"#utility.yul\":3566:3659   */\n      tag_291\n      jump\t// in\n    tag_290:\n        /* \"#utility.yul\":3684:3686   */\n      0x20\n        /* \"#utility.yul\":3679:3682   */\n      dup3\n        /* \"#utility.yul\":3675:3687   */\n      add\n        /* \"#utility.yul\":3668:3687   */\n      swap1\n      pop\n        /* \"#utility.yul\":3327:3693   */\n      swap2\n      swap1\n      pop\n      jump\t// out\n        /* \"#utility.yul\":3699:4065   */\n    tag_292:\n        /* \"#utility.yul\":3841:3844   */\n      0x00\n        /* \"#utility.yul\":3862:3929   */\n      tag_294\n        /* \"#utility.yul\":3926:3928   */\n      0x26\n        /* \"#utility.yul\":3921:3924   */\n      dup4\n        /* \"#utility.yul\":3862:3929   */\n      tag_278\n      jump\t// in\n    tag_294:\n        /* \"#utility.yul\":3855:3929   */\n      swap2\n      pop\n        /* \"#utility.yul\":3938:4031   */\n      tag_295\n        /* \"#utility.yul\":4027:4030   */\n      dup3\n        /* \"#utility.yul\":3938:4031   */\n      tag_296\n      jump\t// in\n    tag_295:\n        /* \"#utility.yul\":4056:4058   */\n      0x40\n        /* \"#utility.yul\":4051:4054   */\n      dup3\n        /* \"#utility.yul\":4047:4059   */\n      add\n        /* \"#utility.yul\":4040:4059   */\n      swap1\n      pop\n        /* \"#utility.yul\":3699:4065   */\n      swap2\n      swap1\n      pop\n      jump\t// out\n        /* \"#utility.yul\":4071:4437   */\n    tag_297:\n        /* \"#utility.yul\":4213:4216   */\n      0x00\n        /* \"#utility.yul\":4234:4301   */\n      tag_299\n        /* \"#utility.yul\":4298:4300   */\n      0x20\n        /* \"#utility.yul\":4293:4296   */\n      dup4\n        /* \"#utility.yul\":4234:4301   */\n      tag_278\n      jump\t// in\n    tag_299:\n        /* \"#utility.yul\":4227:4301   */\n      swap2\n      pop\n        /* \"#utility.yul\":4310:4403   */\n      tag_300\n        /* \"#utility.yul\":4399:4402   */\n      dup3\n        /* \"#utility.yul\":4310:4403   */\n      tag_301\n      jump\t// in\n    tag_300:\n        /* \"#utility.yul\":4428:4430   */\n      0x20\n        /* \"#utility.yul\":4423:4426   */\n      dup3\n        /* \"#utility.yul\":4419:4431   */\n      add\n        /* \"#utility.yul\":4412:4431   */\n      swap1\n      pop\n        /* \"#utility.yul\":4071:4437   */\n      swap2\n      swap1\n      pop\n      jump\t// out\n        /* \"#utility.yul\":4443:4809   */\n    tag_302:\n        /* \"#utility.yul\":4585:4588   */\n      0x00\n        /* \"#utility.yul\":4606:4673   */\n      tag_304\n        /* \"#utility.yul\":4670:4672   */\n      0x17\n        /* \"#utility.yul\":4665:4668   */\n      dup4\n        /* \"#utility.yul\":4606:4673   */\n      tag_278\n      jump\t// in\n    tag_304:\n        /* \"#utility.yul\":4599:4673   */\n      swap2\n      pop\n        /* \"#utility.yul\":4682:4775   */\n      tag_305\n        /* \"#utility.yul\":4771:4774   */\n      dup3\n        /* \"#utility.yul\":4682:4775   */\n      tag_306\n      jump\t// in\n    tag_305:\n        /* \"#utility.yul\":4800:4802   */\n      0x20\n        /* \"#utility.yul\":4795:4798   */\n      dup3\n        /* \"#utility.yul\":4791:4803   */\n      add\n        /* \"#utility.yul\":4784:4803   */\n      swap1\n      pop\n        /* \"#utility.yul\":4443:4809   */\n      swap2\n      swap1\n      pop\n      jump\t// out\n        /* \"#utility.yul\":4815:5181   */\n    tag_307:\n        /* \"#utility.yul\":4957:4960   */\n      0x00\n        /* \"#utility.yul\":4978:5045   */\n      tag_309\n        /* \"#utility.yul\":5042:5044   */\n      0x11\n        /* \"#utility.yul\":5037:5040   */\n      dup4\n        /* \"#utility.yul\":4978:5045   */\n      tag_278\n      jump\t// in\n    tag_309:\n        /* \"#utility.yul\":4971:5045   */\n      swap2\n      pop\n        /* \"#utility.yul\":5054:5147   */\n      tag_310\n        /* \"#utility.yul\":5143:5146   */\n      dup3\n        /* \"#utility.yul\":5054:5147   */\n      tag_311\n      jump\t// in\n    tag_310:\n        /* \"#utility.yul\":5172:5174   */\n      0x20\n        /* \"#utility.yul\":5167:5170   */\n      dup3\n        /* \"#utility.yul\":5163:5175   */\n      add\n        /* \"#utility.yul\":5156:5175   */\n      swap1\n      pop\n        /* \"#utility.yul\":4815:5181   */\n      swap2\n      swap1\n      pop\n      jump\t// out\n        /* \"#utility.yul\":5187:5553   */\n    tag_312:\n        /* \"#utility.yul\":5329:5332   */\n      0x00\n        /* \"#utility.yul\":5350:5417   */\n      tag_314\n        /* \"#utility.yul\":5414:5416   */\n      0x1d\n        /* \"#utility.yul\":5409:5412   */\n      dup4\n        /* \"#utility.yul\":5350:5417   */\n      tag_278\n      jump\t// in\n    tag_314:\n        /* \"#utility.yul\":5343:5417   */\n      swap2\n      pop\n        /* \"#utility.yul\":5426:5519   */\n      tag_315\n        /* \"#utility.yul\":5515:5518   */\n      dup3\n        /* \"#utility.yul\":5426:5519   */\n      tag_316\n      jump\t// in\n    tag_315:\n        /* \"#utility.yul\":5544:5546   */\n      0x20\n        /* \"#utility.yul\":5539:5542   */\n      dup3\n        /* \"#utility.yul\":5535:5547   */\n      add\n        /* \"#utility.yul\":5528:5547   */\n      swap1\n      pop\n        /* \"#utility.yul\":5187:5553   */\n      swap2\n      swap1\n      pop\n      jump\t// out\n        /* \"#utility.yul\":5559:5925   */\n    tag_317:\n        /* \"#utility.yul\":5701:5704   */\n      0x00\n        /* \"#utility.yul\":5722:5789   */\n      tag_319\n        /* \"#utility.yul\":5786:5788   */\n      0x1a\n        /* \"#utility.yul\":5781:5784   */\n      dup4\n        /* \"#utility.yul\":5722:5789   */\n      tag_278\n      jump\t// in\n    tag_319:\n        /* \"#utility.yul\":5715:5789   */\n      swap2\n      pop\n        /* \"#utility.yul\":5798:5891   */\n      tag_320\n        /* \"#utility.yul\":5887:5890   */\n      dup3\n        /* \"#utility.yul\":5798:5891   */\n      tag_321\n      jump\t// in\n    tag_320:\n        /* \"#utility.yul\":5916:5918   */\n      0x20\n        /* \"#utility.yul\":5911:5914   */\n      dup3\n        /* \"#utility.yul\":5907:5919   */\n      add\n        /* \"#utility.yul\":5900:5919   */\n      swap1\n      pop\n        /* \"#utility.yul\":5559:5925   */\n      swap2\n      swap1\n      pop\n      jump\t// out\n        /* \"#utility.yul\":5931:6297   */\n    tag_322:\n        /* \"#utility.yul\":6073:6076   */\n      0x00\n        /* \"#utility.yul\":6094:6161   */\n      tag_324\n        /* \"#utility.yul\":6158:6160   */\n      0x2a\n        /* \"#utility.yul\":6153:6156   */\n      dup4\n        /* \"#utility.yul\":6094:6161   */\n      tag_278\n      jump\t// in\n    tag_324:\n        /* \"#utility.yul\":6087:6161   */\n      swap2\n      pop\n        /* \"#utility.yul\":6170:6263   */\n      tag_325\n        /* \"#utility.yul\":6259:6262   */\n      dup3\n        /* \"#utility.yul\":6170:6263   */\n      tag_326\n      jump\t// in\n    tag_325:\n        /* \"#utility.yul\":6288:6290   */\n      0x40\n        /* \"#utility.yul\":6283:6286   */\n      dup3\n        /* \"#utility.yul\":6279:6291   */\n      add\n        /* \"#utility.yul\":6272:6291   */\n      swap1\n      pop\n        /* \"#utility.yul\":5931:6297   */\n      swap2\n      swap1\n      pop\n      jump\t// out\n        /* \"#utility.yul\":6303:6421   */\n    tag_327:\n        /* \"#utility.yul\":6390:6414   */\n      tag_329\n        /* \"#utility.yul\":6408:6413   */\n      dup2\n        /* \"#utility.yul\":6390:6414   */\n      tag_330\n      jump\t// in\n    tag_329:\n        /* \"#utility.yul\":6385:6388   */\n      dup3\n        /* \"#utility.yul\":6378:6415   */\n      mstore\n        /* \"#utility.yul\":6303:6421   */\n      pop\n      pop\n      jump\t// out\n        /* \"#utility.yul\":6427:6698   */\n    tag_210:\n        /* \"#utility.yul\":6557:6560   */\n      0x00\n        /* \"#utility.yul\":6579:6672   */\n      tag_332\n        /* \"#utility.yul\":6668:6671   */\n      dup3\n        /* \"#utility.yul\":6659:6665   */\n      dup5\n        /* \"#utility.yul\":6579:6672   */\n      tag_265\n      jump\t// in\n    tag_332:\n        /* \"#utility.yul\":6572:6672   */\n      swap2\n      pop\n        /* \"#utility.yul\":6689:6692   */\n      dup2\n        /* \"#utility.yul\":6682:6692   */\n      swap1\n      pop\n        /* \"#utility.yul\":6427:6698   */\n      swap3\n      swap2\n      pop\n      pop\n      jump\t// out\n        /* \"#utility.yul\":6704:6926   */\n    tag_40:\n        /* \"#utility.yul\":6797:6801   */\n      0x00\n        /* \"#utility.yul\":6835:6837   */\n      0x20\n        /* \"#utility.yul\":6824:6833   */\n      dup3\n        /* \"#utility.yul\":6820:6838   */\n      add\n        /* \"#utility.yul\":6812:6838   */\n      swap1\n      pop\n        /* \"#utility.yul\":6848:6919   */\n      tag_334\n        /* \"#utility.yul\":6916:6917   */\n      0x00\n        /* \"#utility.yul\":6905:6914   */\n      dup4\n        /* \"#utility.yul\":6901:6918   */\n      add\n        /* \"#utility.yul\":6892:6898   */\n      dup5\n        /* \"#utility.yul\":6848:6919   */\n      tag_257\n      jump\t// in\n    tag_334:\n        /* \"#utility.yul\":6704:6926   */\n      swap3\n      swap2\n      pop\n      pop\n      jump\t// out\n        /* \"#utility.yul\":6932:7374   */\n    tag_187:\n        /* \"#utility.yul\":7081:7085   */\n      0x00\n        /* \"#utility.yul\":7119:7121   */\n      0x60\n        /* \"#utility.yul\":7108:7117   */\n      dup3\n        /* \"#utility.yul\":7104:7122   */\n      add\n        /* \"#utility.yul\":7096:7122   */\n      swap1\n      pop\n        /* \"#utility.yul\":7132:7203   */\n      tag_336\n        /* \"#utility.yul\":7200:7201   */\n      0x00\n        /* \"#utility.yul\":7189:7198   */\n      dup4\n        /* \"#utility.yul\":7185:7202   */\n      add\n        /* \"#utility.yul\":7176:7182   */\n      dup7\n        /* \"#utility.yul\":7132:7203   */\n      tag_257\n      jump\t// in\n    tag_336:\n        /* \"#utility.yul\":7213:7285   */\n      tag_337\n        /* \"#utility.yul\":7281:7283   */\n      0x20\n        /* \"#utility.yul\":7270:7279   */\n      dup4\n        /* \"#utility.yul\":7266:7284   */\n      add\n        /* \"#utility.yul\":7257:7263   */\n      dup6\n        /* \"#utility.yul\":7213:7285   */\n      tag_257\n      jump\t// in\n    tag_337:\n        /* \"#utility.yul\":7295:7367   */\n      tag_338\n        /* \"#utility.yul\":7363:7365   */\n      0x40\n        /* \"#utility.yul\":7352:7361   */\n      dup4\n        /* \"#utility.yul\":7348:7366   */\n      add\n        /* \"#utility.yul\":7339:7345   */\n      dup5\n        /* \"#utility.yul\":7295:7367   */\n      tag_327\n      jump\t// in\n    tag_338:\n        /* \"#utility.yul\":6932:7374   */\n      swap5\n      swap4\n      pop\n      pop\n      pop\n      pop\n      jump\t// out\n        /* \"#utility.yul\":7380:7712   */\n    tag_181:\n        /* \"#utility.yul\":7501:7505   */\n      0x00\n        /* \"#utility.yul\":7539:7541   */\n      0x40\n        /* \"#utility.yul\":7528:7537   */\n      dup3\n        /* \"#utility.yul\":7524:7542   */\n      add\n        /* \"#utility.yul\":7516:7542   */\n      swap1\n      pop\n        /* \"#utility.yul\":7552:7623   */\n      tag_340\n        /* \"#utility.yul\":7620:7621   */\n      0x00\n        /* \"#utility.yul\":7609:7618   */\n      dup4\n        /* \"#utility.yul\":7605:7622   */\n      add\n        /* \"#utility.yul\":7596:7602   */\n      dup6\n        /* \"#utility.yul\":7552:7623   */\n      tag_257\n      jump\t// in\n    tag_340:\n        /* \"#utility.yul\":7633:7705   */\n      tag_341\n        /* \"#utility.yul\":7701:7703   */\n      0x20\n        /* \"#utility.yul\":7690:7699   */\n      dup4\n        /* \"#utility.yul\":7686:7704   */\n      add\n        /* \"#utility.yul\":7677:7683   */\n      dup5\n        /* \"#utility.yul\":7633:7705   */\n      tag_327\n      jump\t// in\n    tag_341:\n        /* \"#utility.yul\":7380:7712   */\n      swap4\n      swap3\n      pop\n      pop\n      pop\n      jump\t// out\n        /* \"#utility.yul\":7718:7928   */\n    tag_77:\n        /* \"#utility.yul\":7805:7809   */\n      0x00\n        /* \"#utility.yul\":7843:7845   */\n      0x20\n        /* \"#utility.yul\":7832:7841   */\n      dup3\n        /* \"#utility.yul\":7828:7846   */\n      add\n        /* \"#utility.yul\":7820:7846   */\n      swap1\n      pop\n        /* \"#utility.yul\":7856:7921   */\n      tag_343\n        /* \"#utility.yul\":7918:7919   */\n      0x00\n        /* \"#utility.yul\":7907:7916   */\n      dup4\n        /* \"#utility.yul\":7903:7920   */\n      add\n        /* \"#utility.yul\":7894:7900   */\n      dup5\n        /* \"#utility.yul\":7856:7921   */\n      tag_261\n      jump\t// in\n    tag_343:\n        /* \"#utility.yul\":7718:7928   */\n      swap3\n      swap2\n      pop\n      pop\n      jump\t// out\n        /* \"#utility.yul\":7934:8247   */\n    tag_223:\n        /* \"#utility.yul\":8047:8051   */\n      0x00\n        /* \"#utility.yul\":8085:8087   */\n      0x20\n        /* \"#utility.yul\":8074:8083   */\n      dup3\n        /* \"#utility.yul\":8070:8088   */\n      add\n        /* \"#utility.yul\":8062:8088   */\n      swap1\n      pop\n        /* \"#utility.yul\":8134:8143   */\n      dup2\n        /* \"#utility.yul\":8128:8132   */\n      dup2\n        /* \"#utility.yul\":8124:8144   */\n      sub\n        /* \"#utility.yul\":8120:8121   */\n      0x00\n        /* \"#utility.yul\":8109:8118   */\n      dup4\n        /* \"#utility.yul\":8105:8122   */\n      add\n        /* \"#utility.yul\":8098:8145   */\n      mstore\n        /* \"#utility.yul\":8162:8240   */\n      tag_345\n        /* \"#utility.yul\":8235:8239   */\n      dup2\n        /* \"#utility.yul\":8226:8232   */\n      dup5\n        /* \"#utility.yul\":8162:8240   */\n      tag_273\n      jump\t// in\n    tag_345:\n        /* \"#utility.yul\":8154:8240   */\n      swap1\n      pop\n        /* \"#utility.yul\":7934:8247   */\n      swap3\n      swap2\n      pop\n      pop\n      jump\t// out\n        /* \"#utility.yul\":8253:8672   */\n    tag_175:\n        /* \"#utility.yul\":8419:8423   */\n      0x00\n        /* \"#utility.yul\":8457:8459   */\n      0x20\n        /* \"#utility.yul\":8446:8455   */\n      dup3\n        /* \"#utility.yul\":8442:8460   */\n      add\n        /* \"#utility.yul\":8434:8460   */\n      swap1\n      pop\n        /* \"#utility.yul\":8506:8515   */\n      dup2\n        /* \"#utility.yul\":8500:8504   */\n      dup2\n        /* \"#utility.yul\":8496:8516   */\n      sub\n        /* \"#utility.yul\":8492:8493   */\n      0x00\n        /* \"#utility.yul\":8481:8490   */\n      dup4\n        /* \"#utility.yul\":8477:8494   */\n      add\n        /* \"#utility.yul\":8470:8517   */\n      mstore\n        /* \"#utility.yul\":8534:8665   */\n      tag_347\n        /* \"#utility.yul\":8660:8664   */\n      dup2\n        /* \"#utility.yul\":8534:8665   */\n      tag_282\n      jump\t// in\n    tag_347:\n        /* \"#utility.yul\":8526:8665   */\n      swap1\n      pop\n        /* \"#utility.yul\":8253:8672   */\n      swap2\n      swap1\n      pop\n      jump\t// out\n        /* \"#utility.yul\":8678:9097   */\n    tag_161:\n        /* \"#utility.yul\":8844:8848   */\n      0x00\n        /* \"#utility.yul\":8882:8884   */\n      0x20\n        /* \"#utility.yul\":8871:8880   */\n      dup3\n        /* \"#utility.yul\":8867:8885   */\n      add\n        /* \"#utility.yul\":8859:8885   */\n      swap1\n      pop\n        /* \"#utility.yul\":8931:8940   */\n      dup2\n        /* \"#utility.yul\":8925:8929   */\n      dup2\n        /* \"#utility.yul\":8921:8941   */\n      sub\n        /* \"#utility.yul\":8917:8918   */\n      0x00\n        /* \"#utility.yul\":8906:8915   */\n      dup4\n        /* \"#utility.yul\":8902:8919   */\n      add\n        /* \"#utility.yul\":8895:8942   */\n      mstore\n        /* \"#utility.yul\":8959:9090   */\n      tag_349\n        /* \"#utility.yul\":9085:9089   */\n      dup2\n        /* \"#utility.yul\":8959:9090   */\n      tag_287\n      jump\t// in\n    tag_349:\n        /* \"#utility.yul\":8951:9090   */\n      swap1\n      pop\n        /* \"#utility.yul\":8678:9097   */\n      swap2\n      swap1\n      pop\n      jump\t// out\n        /* \"#utility.yul\":9103:9522   */\n    tag_203:\n        /* \"#utility.yul\":9269:9273   */\n      0x00\n        /* \"#utility.yul\":9307:9309   */\n      0x20\n        /* \"#utility.yul\":9296:9305   */\n      dup3\n        /* \"#utility.yul\":9292:9310   */\n      add\n        /* \"#utility.yul\":9284:9310   */\n      swap1\n      pop\n        /* \"#utility.yul\":9356:9365   */\n      dup2\n        /* \"#utility.yul\":9350:9354   */\n      dup2\n        /* \"#utility.yul\":9346:9366   */\n      sub\n        /* \"#utility.yul\":9342:9343   */\n      0x00\n        /* \"#utility.yul\":9331:9340   */\n      dup4\n        /* \"#utility.yul\":9327:9344   */\n      add\n        /* \"#utility.yul\":9320:9367   */\n      mstore\n        /* \"#utility.yul\":9384:9515   */\n      tag_351\n        /* \"#utility.yul\":9510:9514   */\n      dup2\n        /* \"#utility.yul\":9384:9515   */\n      tag_292\n      jump\t// in\n    tag_351:\n        /* \"#utility.yul\":9376:9515   */\n      swap1\n      pop\n        /* \"#utility.yul\":9103:9522   */\n      swap2\n      swap1\n      pop\n      jump\t// out\n        /* \"#utility.yul\":9528:9947   */\n    tag_99:\n        /* \"#utility.yul\":9694:9698   */\n      0x00\n        /* \"#utility.yul\":9732:9734   */\n      0x20\n        /* \"#utility.yul\":9721:9730   */\n      dup3\n        /* \"#utility.yul\":9717:9735   */\n      add\n        /* \"#utility.yul\":9709:9735   */\n      swap1\n      pop\n        /* \"#utility.yul\":9781:9790   */\n      dup2\n        /* \"#utility.yul\":9775:9779   */\n      dup2\n        /* \"#utility.yul\":9771:9791   */\n      sub\n        /* \"#utility.yul\":9767:9768   */\n      0x00\n        /* \"#utility.yul\":9756:9765   */\n      dup4\n        /* \"#utility.yul\":9752:9769   */\n      add\n        /* \"#utility.yul\":9745:9792   */\n      mstore\n        /* \"#utility.yul\":9809:9940   */\n      tag_353\n        /* \"#utility.yul\":9935:9939   */\n      dup2\n        /* \"#utility.yul\":9809:9940   */\n      tag_297\n      jump\t// in\n    tag_353:\n        /* \"#utility.yul\":9801:9940   */\n      swap1\n      pop\n        /* \"#utility.yul\":9528:9947   */\n      swap2\n      swap1\n      pop\n      jump\t// out\n        /* \"#utility.yul\":9953:10372   */\n    tag_158:\n        /* \"#utility.yul\":10119:10123   */\n      0x00\n        /* \"#utility.yul\":10157:10159   */\n      0x20\n        /* \"#utility.yul\":10146:10155   */\n      dup3\n        /* \"#utility.yul\":10142:10160   */\n      add\n        /* \"#utility.yul\":10134:10160   */\n      swap1\n      pop\n        /* \"#utility.yul\":10206:10215   */\n      dup2\n        /* \"#utility.yul\":10200:10204   */\n      dup2\n        /* \"#utility.yul\":10196:10216   */\n      sub\n        /* \"#utility.yul\":10192:10193   */\n      0x00\n        /* \"#utility.yul\":10181:10190   */\n      dup4\n        /* \"#utility.yul\":10177:10194   */\n      add\n        /* \"#utility.yul\":10170:10217   */\n      mstore\n        /* \"#utility.yul\":10234:10365   */\n      tag_355\n        /* \"#utility.yul\":10360:10364   */\n      dup2\n        /* \"#utility.yul\":10234:10365   */\n      tag_302\n      jump\t// in\n    tag_355:\n        /* \"#utility.yul\":10226:10365   */\n      swap1\n      pop\n        /* \"#utility.yul\":9953:10372   */\n      swap2\n      swap1\n      pop\n      jump\t// out\n        /* \"#utility.yul\":10378:10797   */\n    tag_109:\n        /* \"#utility.yul\":10544:10548   */\n      0x00\n        /* \"#utility.yul\":10582:10584   */\n      0x20\n        /* \"#utility.yul\":10571:10580   */\n      dup3\n        /* \"#utility.yul\":10567:10585   */\n      add\n        /* \"#utility.yul\":10559:10585   */\n      swap1\n      pop\n        /* \"#utility.yul\":10631:10640   */\n      dup2\n        /* \"#utility.yul\":10625:10629   */\n      dup2\n        /* \"#utility.yul\":10621:10641   */\n      sub\n        /* \"#utility.yul\":10617:10618   */\n      0x00\n        /* \"#utility.yul\":10606:10615   */\n      dup4\n        /* \"#utility.yul\":10602:10619   */\n      add\n        /* \"#utility.yul\":10595:10642   */\n      mstore\n        /* \"#utility.yul\":10659:10790   */\n      tag_357\n        /* \"#utility.yul\":10785:10789   */\n      dup2\n        /* \"#utility.yul\":10659:10790   */\n      tag_307\n      jump\t// in\n    tag_357:\n        /* \"#utility.yul\":10651:10790   */\n      swap1\n      pop\n        /* \"#utility.yul\":10378:10797   */\n      swap2\n      swap1\n      pop\n      jump\t// out\n        /* \"#utility.yul\":10803:11222   */\n    tag_208:\n        /* \"#utility.yul\":10969:10973   */\n      0x00\n        /* \"#utility.yul\":11007:11009   */\n      0x20\n        /* \"#utility.yul\":10996:11005   */\n      dup3\n        /* \"#utility.yul\":10992:11010   */\n      add\n        /* \"#utility.yul\":10984:11010   */\n      swap1\n      pop\n        /* \"#utility.yul\":11056:11065   */\n      dup2\n        /* \"#utility.yul\":11050:11054   */\n      dup2\n        /* \"#utility.yul\":11046:11066   */\n      sub\n        /* \"#utility.yul\":11042:11043   */\n      0x00\n        /* \"#utility.yul\":11031:11040   */\n      dup4\n        /* \"#utility.yul\":11027:11044   */\n      add\n        /* \"#utility.yul\":11020:11067   */\n      mstore\n        /* \"#utility.yul\":11084:11215   */\n      tag_359\n        /* \"#utility.yul\":11210:11214   */\n      dup2\n        /* \"#utility.yul\":11084:11215   */\n      tag_312\n      jump\t// in\n    tag_359:\n        /* \"#utility.yul\":11076:11215   */\n      swap1\n      pop\n        /* \"#utility.yul\":10803:11222   */\n      swap2\n      swap1\n      pop\n      jump\t// out\n        /* \"#utility.yul\":11228:11647   */\n    tag_153:\n        /* \"#utility.yul\":11394:11398   */\n      0x00\n        /* \"#utility.yul\":11432:11434   */\n      0x20\n        /* \"#utility.yul\":11421:11430   */\n      dup3\n        /* \"#utility.yul\":11417:11435   */\n      add\n        /* \"#utility.yul\":11409:11435   */\n      swap1\n      pop\n        /* \"#utility.yul\":11481:11490   */\n      dup2\n        /* \"#utility.yul\":11475:11479   */\n      dup2\n        /* \"#utility.yul\":11471:11491   */\n      sub\n        /* \"#utility.yul\":11467:11468   */\n      0x00\n        /* \"#utility.yul\":11456:11465   */\n      dup4\n        /* \"#utility.yul\":11452:11469   */\n      add\n        /* \"#utility.yul\":11445:11492   */\n      mstore\n        /* \"#utility.yul\":11509:11640   */\n      tag_361\n        /* \"#utility.yul\":11635:11639   */\n      dup2\n        /* \"#utility.yul\":11509:11640   */\n      tag_317\n      jump\t// in\n    tag_361:\n        /* \"#utility.yul\":11501:11640   */\n      swap1\n      pop\n        /* \"#utility.yul\":11228:11647   */\n      swap2\n      swap1\n      pop\n      jump\t// out\n        /* \"#utility.yul\":11653:12072   */\n    tag_196:\n        /* \"#utility.yul\":11819:11823   */\n      0x00\n        /* \"#utility.yul\":11857:11859   */\n      0x20\n        /* \"#utility.yul\":11846:11855   */\n      dup3\n        /* \"#utility.yul\":11842:11860   */\n      add\n        /* \"#utility.yul\":11834:11860   */\n      swap1\n      pop\n        /* \"#utility.yul\":11906:11915   */\n      dup2\n        /* \"#utility.yul\":11900:11904   */\n      dup2\n        /* \"#utility.yul\":11896:11916   */\n      sub\n        /* \"#utility.yul\":11892:11893   */\n      0x00\n        /* \"#utility.yul\":11881:11890   */\n      dup4\n        /* \"#utility.yul\":11877:11894   */\n      add\n        /* \"#utility.yul\":11870:11917   */\n      mstore\n        /* \"#utility.yul\":11934:12065   */\n      tag_363\n        /* \"#utility.yul\":12060:12064   */\n      dup2\n        /* \"#utility.yul\":11934:12065   */\n      tag_322\n      jump\t// in\n    tag_363:\n        /* \"#utility.yul\":11926:12065   */\n      swap1\n      pop\n        /* \"#utility.yul\":11653:12072   */\n      swap2\n      swap1\n      pop\n      jump\t// out\n        /* \"#utility.yul\":12078:12300   */\n    tag_26:\n        /* \"#utility.yul\":12171:12175   */\n      0x00\n        /* \"#utility.yul\":12209:12211   */\n      0x20\n        /* \"#utility.yul\":12198:12207   */\n      dup3\n        /* \"#utility.yul\":12194:12212   */\n      add\n        /* \"#utility.yul\":12186:12212   */\n      swap1\n      pop\n        /* \"#utility.yul\":12222:12293   */\n      tag_365\n        /* \"#utility.yul\":12290:12291   */\n      0x00\n        /* \"#utility.yul\":12279:12288   */\n      dup4\n        /* \"#utility.yul\":12275:12292   */\n      add\n        /* \"#utility.yul\":12266:12272   */\n      dup5\n        /* \"#utility.yul\":12222:12293   */\n      tag_327\n      jump\t// in\n    tag_365:\n        /* \"#utility.yul\":12078:12300   */\n      swap3\n      swap2\n      pop\n      pop\n      jump\t// out\n        /* \"#utility.yul\":12387:12485   */\n    tag_268:\n        /* \"#utility.yul\":12438:12444   */\n      0x00\n        /* \"#utility.yul\":12472:12477   */\n      dup2\n        /* \"#utility.yul\":12466:12478   */\n      mload\n        /* \"#utility.yul\":12456:12478   */\n      swap1\n      pop\n        /* \"#utility.yul\":12387:12485   */\n      swap2\n      swap1\n      pop\n      jump\t// out\n        /* \"#utility.yul\":12491:12590   */\n    tag_276:\n        /* \"#utility.yul\":12543:12549   */\n      0x00\n        /* \"#utility.yul\":12577:12582   */\n      dup2\n        /* \"#utility.yul\":12571:12583   */\n      mload\n        /* \"#utility.yul\":12561:12583   */\n      swap1\n      pop\n        /* \"#utility.yul\":12491:12590   */\n      swap2\n      swap1\n      pop\n      jump\t// out\n        /* \"#utility.yul\":12596:12743   */\n    tag_270:\n        /* \"#utility.yul\":12697:12708   */\n      0x00\n        /* \"#utility.yul\":12734:12737   */\n      dup2\n        /* \"#utility.yul\":12719:12737   */\n      swap1\n      pop\n        /* \"#utility.yul\":12596:12743   */\n      swap3\n      swap2\n      pop\n      pop\n      jump\t// out\n        /* \"#utility.yul\":12749:12918   */\n    tag_278:\n        /* \"#utility.yul\":12833:12844   */\n      0x00\n        /* \"#utility.yul\":12867:12873   */\n      dup3\n        /* \"#utility.yul\":12862:12865   */\n      dup3\n        /* \"#utility.yul\":12855:12874   */\n      mstore\n        /* \"#utility.yul\":12907:12911   */\n      0x20\n        /* \"#utility.yul\":12902:12905   */\n      dup3\n        /* \"#utility.yul\":12898:12912   */\n      add\n        /* \"#utility.yul\":12883:12912   */\n      swap1\n      pop\n        /* \"#utility.yul\":12749:12918   */\n      swap3\n      swap2\n      pop\n      pop\n      jump\t// out\n        /* \"#utility.yul\":12924:13229   */\n    tag_166:\n        /* \"#utility.yul\":12964:12967   */\n      0x00\n        /* \"#utility.yul\":12983:13003   */\n      tag_373\n        /* \"#utility.yul\":13001:13002   */\n      dup3\n        /* \"#utility.yul\":12983:13003   */\n      tag_330\n      jump\t// in\n    tag_373:\n        /* \"#utility.yul\":12978:13003   */\n      swap2\n      pop\n        /* \"#utility.yul\":13017:13037   */\n      tag_374\n        /* \"#utility.yul\":13035:13036   */\n      dup4\n        /* \"#utility.yul\":13017:13037   */\n      tag_330\n      jump\t// in\n    tag_374:\n        /* \"#utility.yul\":13012:13037   */\n      swap3\n      pop\n        /* \"#utility.yul\":13171:13172   */\n      dup3\n        /* \"#utility.yul\":13103:13169   */\n      0xffffffffffffffffffffffffffffffffffffffffffffffffffffffffffffffff\n        /* \"#utility.yul\":13099:13173   */\n      sub\n        /* \"#utility.yul\":13096:13097   */\n      dup3\n        /* \"#utility.yul\":13093:13174   */\n      gt\n        /* \"#utility.yul\":13090:13197   */\n      iszero\n      tag_375\n      jumpi\n        /* \"#utility.yul\":13177:13195   */\n      tag_376\n      tag_377\n      jump\t// in\n    tag_376:\n        /* \"#utility.yul\":13090:13197   */\n    tag_375:\n        /* \"#utility.yul\":13221:13222   */\n      dup3\n        /* \"#utility.yul\":13218:13219   */\n      dup3\n        /* \"#utility.yul\":13214:13223   */\n      add\n        /* \"#utility.yul\":13207:13223   */\n      swap1\n      pop\n        /* \"#utility.yul\":12924:13229   */\n      swap3\n      swap2\n      pop\n      pop\n      jump\t// out\n        /* \"#utility.yul\":13235:13583   */\n    tag_145:\n        /* \"#utility.yul\":13275:13282   */\n      0x00\n        /* \"#utility.yul\":13298:13318   */\n      tag_379\n        /* \"#utility.yul\":13316:13317   */\n      dup3\n        /* \"#utility.yul\":13298:13318   */\n      tag_330\n      jump\t// in\n    tag_379:\n        /* \"#utility.yul\":13293:13318   */\n      swap2\n      pop\n        /* \"#utility.yul\":13332:13352   */\n      tag_380\n        /* \"#utility.yul\":13350:13351   */\n      dup4\n        /* \"#utility.yul\":13332:13352   */\n      tag_330\n      jump\t// in\n    tag_380:\n        /* \"#utility.yul\":13327:13352   */\n      swap3\n      pop\n        /* \"#utility.yul\":13520:13521   */\n      dup2\n        /* \"#utility.yul\":13452:13518   */\n      0xffffffffffffffffffffffffffffffffffffffffffffffffffffffffffffffff\n        /* \"#utility.yul\":13448:13522   */\n      div\n        /* \"#utility.yul\":13445:13446   */\n      dup4\n        /* \"#utility.yul\":13442:13523   */\n      gt\n        /* \"#utility.yul\":13437:13438   */\n      dup3\n        /* \"#utility.yul\":13430:13439   */\n      iszero\n        /* \"#utility.yul\":13423:13440   */\n      iszero\n        /* \"#utility.yul\":13419:13524   */\n      and\n        /* \"#utility.yul\":13416:13547   */\n      iszero\n      tag_381\n      jumpi\n        /* \"#utility.yul\":13527:13545   */\n      tag_382\n      tag_377\n      jump\t// in\n    tag_382:\n        /* \"#utility.yul\":13416:13547   */\n    tag_381:\n        /* \"#utility.yul\":13575:13576   */\n      dup3\n        /* \"#utility.yul\":13572:13573   */\n      dup3\n        /* \"#utility.yul\":13568:13577   */\n      mul\n        /* \"#utility.yul\":13557:13577   */\n      swap1\n      pop\n        /* \"#utility.yul\":13235:13583   */\n      swap3\n      swap2\n      pop\n      pop\n      jump\t// out\n        /* \"#utility.yul\":13589:13685   */\n    tag_260:\n        /* \"#utility.yul\":13626:13633   */\n      0x00\n        /* \"#utility.yul\":13655:13679   */\n      tag_384\n        /* \"#utility.yul\":13673:13678   */\n      dup3\n        /* \"#utility.yul\":13655:13679   */\n      tag_385\n      jump\t// in\n    tag_384:\n        /* \"#utility.yul\":13644:13679   */\n      swap1\n      pop\n        /* \"#utility.yul\":13589:13685   */\n      swap2\n      swap1\n      pop\n      jump\t// out\n        /* \"#utility.yul\":13691:13781   */\n    tag_264:\n        /* \"#utility.yul\":13725:13732   */\n      0x00\n        /* \"#utility.yul\":13768:13773   */\n      dup2\n        /* \"#utility.yul\":13761:13774   */\n      iszero\n        /* \"#utility.yul\":13754:13775   */\n      iszero\n        /* \"#utility.yul\":13743:13775   */\n      swap1\n      pop\n        /* \"#utility.yul\":13691:13781   */\n      swap2\n      swap1\n      pop\n      jump\t// out\n        /* \"#utility.yul\":13787:13913   */\n    tag_385:\n        /* \"#utility.yul\":13824:13831   */\n      0x00\n        /* \"#utility.yul\":13864:13906   */\n      0xffffffffffffffffffffffffffffffffffffffff\n        /* \"#utility.yul\":13857:13862   */\n      dup3\n        /* \"#utility.yul\":13853:13907   */\n      and\n        /* \"#utility.yul\":13842:13907   */\n      swap1\n      pop\n        /* \"#utility.yul\":13787:13913   */\n      swap2\n      swap1\n      pop\n      jump\t// out\n        /* \"#utility.yul\":13919:13996   */\n    tag_330:\n        /* \"#utility.yul\":13956:13963   */\n      0x00\n        /* \"#utility.yul\":13985:13990   */\n      dup2\n        /* \"#utility.yul\":13974:13990   */\n      swap1\n      pop\n        /* \"#utility.yul\":13919:13996   */\n      swap2\n      swap1\n      pop\n      jump\t// out\n        /* \"#utility.yul\":14002:14309   */\n    tag_272:\n        /* \"#utility.yul\":14070:14071   */\n      0x00\n        /* \"#utility.yul\":14080:14193   */\n    tag_390:\n        /* \"#utility.yul\":14094:14100   */\n      dup4\n        /* \"#utility.yul\":14091:14092   */\n      dup2\n        /* \"#utility.yul\":14088:14101   */\n      lt\n        /* \"#utility.yul\":14080:14193   */\n      iszero\n      tag_392\n      jumpi\n        /* \"#utility.yul\":14179:14180   */\n      dup1\n        /* \"#utility.yul\":14174:14177   */\n      dup3\n        /* \"#utility.yul\":14170:14181   */\n      add\n        /* \"#utility.yul\":14164:14182   */\n      mload\n        /* \"#utility.yul\":14160:14161   */\n      dup2\n        /* \"#utility.yul\":14155:14158   */\n      dup5\n        /* \"#utility.yul\":14151:14162   */\n      add\n        /* \"#utility.yul\":14144:14183   */\n      mstore\n        /* \"#utility.yul\":14116:14118   */\n      0x20\n        /* \"#utility.yul\":14113:14114   */\n      dup2\n        /* \"#utility.yul\":14109:14119   */\n      add\n        /* \"#utility.yul\":14104:14119   */\n      swap1\n      pop\n        /* \"#utility.yul\":14080:14193   */\n      jump(tag_390)\n    tag_392:\n        /* \"#utility.yul\":14211:14217   */\n      dup4\n        /* \"#utility.yul\":14208:14209   */\n      dup2\n        /* \"#utility.yul\":14205:14218   */\n      gt\n        /* \"#utility.yul\":14202:14303   */\n      iszero\n      tag_393\n      jumpi\n        /* \"#utility.yul\":14291:14292   */\n      0x00\n        /* \"#utility.yul\":14282:14288   */\n      dup5\n        /* \"#utility.yul\":14277:14280   */\n      dup5\n        /* \"#utility.yul\":14273:14289   */\n      add\n        /* \"#utility.yul\":14266:14293   */\n      mstore\n        /* \"#utility.yul\":14202:14303   */\n    tag_393:\n        /* \"#utility.yul\":14051:14309   */\n      pop\n        /* \"#utility.yul\":14002:14309   */\n      pop\n      pop\n      pop\n      jump\t// out\n        /* \"#utility.yul\":14315:14495   */\n    tag_377:\n        /* \"#utility.yul\":14363:14440   */\n      0x4e487b7100000000000000000000000000000000000000000000000000000000\n        /* \"#utility.yul\":14360:14361   */\n      0x00\n        /* \"#utility.yul\":14353:14441   */\n      mstore\n        /* \"#utility.yul\":14460:14464   */\n      0x11\n        /* \"#utility.yul\":14457:14458   */\n      0x04\n        /* \"#utility.yul\":14450:14465   */\n      mstore\n        /* \"#utility.yul\":14484:14488   */\n      0x24\n        /* \"#utility.yul\":14481:14482   */\n      0x00\n        /* \"#utility.yul\":14474:14489   */\n      revert\n        /* \"#utility.yul\":14624:14741   */\n    tag_243:\n        /* \"#utility.yul\":14733:14734   */\n      0x00\n        /* \"#utility.yul\":14730:14731   */\n      dup1\n        /* \"#utility.yul\":14723:14735   */\n      revert\n        /* \"#utility.yul\":14747:14849   */\n    tag_281:\n        /* \"#utility.yul\":14788:14794   */\n      0x00\n        /* \"#utility.yul\":14839:14841   */\n      0x1f\n        /* \"#utility.yul\":14835:14842   */\n      not\n        /* \"#utility.yul\":14830:14832   */\n      0x1f\n        /* \"#utility.yul\":14823:14828   */\n      dup4\n        /* \"#utility.yul\":14819:14833   */\n      add\n        /* \"#utility.yul\":14815:14843   */\n      and\n        /* \"#utility.yul\":14805:14843   */\n      swap1\n      pop\n        /* \"#utility.yul\":14747:14849   */\n      swap2\n      swap1\n      pop\n      jump\t// out\n        /* \"#utility.yul\":14855:15080   */\n    tag_286:\n        /* \"#utility.yul\":14995:15029   */\n      0x4f776e61626c653a206e6577206f776e657220697320746865207a65726f2061\n        /* \"#utility.yul\":14991:14992   */\n      0x00\n        /* \"#utility.yul\":14983:14989   */\n      dup3\n        /* \"#utility.yul\":14979:14993   */\n      add\n        /* \"#utility.yul\":14972:15030   */\n      mstore\n        /* \"#utility.yul\":15064:15072   */\n      0x6464726573730000000000000000000000000000000000000000000000000000\n        /* \"#utility.yul\":15059:15061   */\n      0x20\n        /* \"#utility.yul\":15051:15057   */\n      dup3\n        /* \"#utility.yul\":15047:15062   */\n      add\n        /* \"#utility.yul\":15040:15073   */\n      mstore\n        /* \"#utility.yul\":14855:15080   */\n      pop\n      jump\t// out\n        /* \"#utility.yul\":15086:15250   */\n    tag_291:\n        /* \"#utility.yul\":15226:15242   */\n      0x53616c652068617320656e646564000000000000000000000000000000000000\n        /* \"#utility.yul\":15222:15223   */\n      0x00\n        /* \"#utility.yul\":15214:15220   */\n      dup3\n        /* \"#utility.yul\":15210:15224   */\n      add\n        /* \"#utility.yul\":15203:15243   */\n      mstore\n        /* \"#utility.yul\":15086:15250   */\n      pop\n      jump\t// out\n        /* \"#utility.yul\":15256:15481   */\n    tag_296:\n        /* \"#utility.yul\":15396:15430   */\n      0x416464726573733a20696e73756666696369656e742062616c616e636520666f\n        /* \"#utility.yul\":15392:15393   */\n      0x00\n        /* \"#utility.yul\":15384:15390   */\n      dup3\n        /* \"#utility.yul\":15380:15394   */\n      add\n        /* \"#utility.yul\":15373:15431   */\n      mstore\n        /* \"#utility.yul\":15465:15473   */\n      0x722063616c6c0000000000000000000000000000000000000000000000000000\n        /* \"#utility.yul\":15460:15462   */\n      0x20\n        /* \"#utility.yul\":15452:15458   */\n      dup3\n        /* \"#utility.yul\":15448:15463   */\n      add\n        /* \"#utility.yul\":15441:15474   */\n      mstore\n        /* \"#utility.yul\":15256:15481   */\n      pop\n      jump\t// out\n        /* \"#utility.yul\":15487:15669   */\n    tag_301:\n        /* \"#utility.yul\":15627:15661   */\n      0x4f776e61626c653a2063616c6c6572206973206e6f7420746865206f776e6572\n        /* \"#utility.yul\":15623:15624   */\n      0x00\n        /* \"#utility.yul\":15615:15621   */\n      dup3\n        /* \"#utility.yul\":15611:15625   */\n      add\n        /* \"#utility.yul\":15604:15662   */\n      mstore\n        /* \"#utility.yul\":15487:15669   */\n      pop\n      jump\t// out\n        /* \"#utility.yul\":15675:15848   */\n    tag_306:\n        /* \"#utility.yul\":15815:15840   */\n      0x53616c65206861736e2774207374617274656420796574000000000000000000\n        /* \"#utility.yul\":15811:15812   */\n      0x00\n        /* \"#utility.yul\":15803:15809   */\n      dup3\n        /* \"#utility.yul\":15799:15813   */\n      add\n        /* \"#utility.yul\":15792:15841   */\n      mstore\n        /* \"#utility.yul\":15675:15848   */\n      pop\n      jump\t// out\n        /* \"#utility.yul\":15854:16021   */\n    tag_311:\n        /* \"#utility.yul\":15994:16013   */\n      0x53616c65206861736e277420656e646564000000000000000000000000000000\n        /* \"#utility.yul\":15990:15991   */\n      0x00\n        /* \"#utility.yul\":15982:15988   */\n      dup3\n        /* \"#utility.yul\":15978:15992   */\n      add\n        /* \"#utility.yul\":15971:16014   */\n      mstore\n        /* \"#utility.yul\":15854:16021   */\n      pop\n      jump\t// out\n        /* \"#utility.yul\":16027:16206   */\n    tag_316:\n        /* \"#utility.yul\":16167:16198   */\n      0x416464726573733a2063616c6c20746f206e6f6e2d636f6e7472616374000000\n        /* \"#utility.yul\":16163:16164   */\n      0x00\n        /* \"#utility.yul\":16155:16161   */\n      dup3\n        /* \"#utility.yul\":16151:16165   */\n      add\n        /* \"#utility.yul\":16144:16199   */\n      mstore\n        /* \"#utility.yul\":16027:16206   */\n      pop\n      jump\t// out\n        /* \"#utility.yul\":16212:16388   */\n    tag_321:\n        /* \"#utility.yul\":16352:16380   */\n      0x4e6f7420656e6f75676820746f6b656e20746f2072657475726e000000000000\n        /* \"#utility.yul\":16348:16349   */\n      0x00\n        /* \"#utility.yul\":16340:16346   */\n      dup3\n        /* \"#utility.yul\":16336:16350   */\n      add\n        /* \"#utility.yul\":16329:16381   */\n      mstore\n        /* \"#utility.yul\":16212:16388   */\n      pop\n      jump\t// out\n        /* \"#utility.yul\":16394:16623   */\n    tag_326:\n        /* \"#utility.yul\":16534:16568   */\n      0x5361666545524332303a204552433230206f7065726174696f6e20646964206e\n        /* \"#utility.yul\":16530:16531   */\n      0x00\n        /* \"#utility.yul\":16522:16528   */\n      dup3\n        /* \"#utility.yul\":16518:16532   */\n      add\n        /* \"#utility.yul\":16511:16569   */\n      mstore\n        /* \"#utility.yul\":16603:16615   */\n      0x6f74207375636365656400000000000000000000000000000000000000000000\n        /* \"#utility.yul\":16598:16600   */\n      0x20\n        /* \"#utility.yul\":16590:16596   */\n      dup3\n        /* \"#utility.yul\":16586:16601   */\n      add\n        /* \"#utility.yul\":16579:16616   */\n      mstore\n        /* \"#utility.yul\":16394:16623   */\n      pop\n      jump\t// out\n        /* \"#utility.yul\":16629:16751   */\n    tag_228:\n        /* \"#utility.yul\":16702:16726   */\n      tag_409\n        /* \"#utility.yul\":16720:16725   */\n      dup2\n        /* \"#utility.yul\":16702:16726   */\n      tag_260\n      jump\t// in\n    tag_409:\n        /* \"#utility.yul\":16695:16700   */\n      dup2\n        /* \"#utility.yul\":16692:16727   */\n      eq\n        /* \"#utility.yul\":16682:16745   */\n      tag_410\n      jumpi\n        /* \"#utility.yul\":16741:16742   */\n      0x00\n        /* \"#utility.yul\":16738:16739   */\n      dup1\n        /* \"#utility.yul\":16731:16743   */\n      revert\n        /* \"#utility.yul\":16682:16745   */\n    tag_410:\n        /* \"#utility.yul\":16629:16751   */\n      pop\n      jump\t// out\n        /* \"#utility.yul\":16757:16873   */\n    tag_232:\n        /* \"#utility.yul\":16827:16848   */\n      tag_412\n        /* \"#utility.yul\":16842:16847   */\n      dup2\n        /* \"#utility.yul\":16827:16848   */\n      tag_264\n      jump\t// in\n    tag_412:\n        /* \"#utility.yul\":16820:16825   */\n      dup2\n        /* \"#utility.yul\":16817:16849   */\n      eq\n        /* \"#utility.yul\":16807:16867   */\n      tag_413\n      jumpi\n        /* \"#utility.yul\":16863:16864   */\n      0x00\n        /* \"#utility.yul\":16860:16861   */\n      dup1\n        /* \"#utility.yul\":16853:16865   */\n      revert\n        /* \"#utility.yul\":16807:16867   */\n    tag_413:\n        /* \"#utility.yul\":16757:16873   */\n      pop\n      jump\t// out\n        /* \"#utility.yul\":16879:17001   */\n    tag_236:\n        /* \"#utility.yul\":16952:16976   */\n      tag_415\n        /* \"#utility.yul\":16970:16975   */\n      dup2\n        /* \"#utility.yul\":16952:16976   */\n      tag_330\n      jump\t// in\n    tag_415:\n        /* \"#utility.yul\":16945:16950   */\n      dup2\n        /* \"#utility.yul\":16942:16977   */\n      eq\n        /* \"#utility.yul\":16932:16995   */\n      tag_416\n      jumpi\n        /* \"#utility.yul\":16991:16992   */\n      0x00\n        /* \"#utility.yul\":16988:16989   */\n      dup1\n        /* \"#utility.yul\":16981:16993   */\n      revert\n        /* \"#utility.yul\":16932:16995   */\n    tag_416:\n        /* \"#utility.yul\":16879:17001   */\n      pop\n      jump\t// out\n\n    auxdata: 0xa2646970667358221220bd8d70a0b92e4f6a710a04c8c1ddb6a05da5677f167009c1e2fbfa83c89fa3ed64736f6c63430008070033\n}\n",
				"bytecode": {
					"linkReferences": {},
					"object": "60806040523480156200001157600080fd5b5060405162001d6838038062001d688339818101604052810190620000379190620001fd565b620000576200004b6200010360201b60201c565b6200010b60201b60201c565b62000068856200010b60201b60201c565b80600460006101000a81548173ffffffffffffffffffffffffffffffffffffffff021916908373ffffffffffffffffffffffffffffffffffffffff16021790555083600160006101000a81548173ffffffffffffffffffffffffffffffffffffffff021916908373ffffffffffffffffffffffffffffffffffffffff16021790555082600281905550816003819055505050505050620002fc565b600033905090565b60008060009054906101000a900473ffffffffffffffffffffffffffffffffffffffff169050816000806101000a81548173ffffffffffffffffffffffffffffffffffffffff021916908373ffffffffffffffffffffffffffffffffffffffff1602179055508173ffffffffffffffffffffffffffffffffffffffff168173ffffffffffffffffffffffffffffffffffffffff167f8be0079c531659141344cd1fd0a4f28419497f9722a3daafe3b4186f6b6457e060405160405180910390a35050565b600081519050620001e081620002c8565b92915050565b600081519050620001f781620002e2565b92915050565b600080600080600060a086880312156200021c576200021b620002c3565b5b60006200022c88828901620001cf565b95505060206200023f88828901620001cf565b94505060406200025288828901620001e6565b93505060606200026588828901620001e6565b92505060806200027888828901620001cf565b9150509295509295909350565b6000620002928262000299565b9050919050565b600073ffffffffffffffffffffffffffffffffffffffff82169050919050565b6000819050919050565b600080fd5b620002d38162000285565b8114620002df57600080fd5b50565b620002ed81620002b9565b8114620002f957600080fd5b50565b611a5c806200030c6000396000f3fe6080604052600436106100e85760003560e01c8063893d20e81161008a578063c10b935811610059578063c10b9358146102d0578063de2d583a146102fb578063efef39a11461032b578063f2fde38b14610354576100e8565b8063893d20e8146102245780638da5cb5b1461024f5780639d76ea581461027a578063ab0bcc41146102a5576100e8565b806361778592116100c6578063617785921461017c578063617fba04146101a75780636f9c6149146101e4578063715018a61461020d576100e8565b806324076451146100ed578063295e4edf1461012a57806351cff8d914610153575b600080fd5b3480156100f957600080fd5b50610114600480360381019061010f91906111cc565b61037d565b6040516101219190611641565b60405180910390f35b34801561013657600080fd5b50610151600480360381019061014c9190611226565b610431565b005b34801561015f57600080fd5b5061017a600480360381019061017591906111cc565b6104b7565b005b34801561018857600080fd5b50610191610693565b60405161019e9190611469565b60405180910390f35b3480156101b357600080fd5b506101ce60048036038101906101c991906111cc565b6106b9565b6040516101db9190611641565b60405180910390f35b3480156101f057600080fd5b5061020b60048036038101906102069190611226565b610702565b005b34801561021957600080fd5b50610222610788565b005b34801561023057600080fd5b50610239610810565b6040516102469190611469565b60405180910390f35b34801561025b57600080fd5b5061026461081f565b6040516102719190611469565b60405180910390f35b34801561028657600080fd5b5061028f610848565b60405161029c9190611469565b60405180910390f35b3480156102b157600080fd5b506102ba610872565b6040516102c79190611641565b60405180910390f35b3480156102dc57600080fd5b506102e561087c565b6040516102f29190611641565b60405180910390f35b610315600480360381019061031091906111cc565b610886565b60405161032291906114e4565b60405180910390f35b34801561033757600080fd5b50610352600480360381019061034d9190611226565b610ac1565b005b34801561036057600080fd5b5061037b600480360381019061037691906111cc565b610c28565b005b6000600460009054906101000a900473ffffffffffffffffffffffffffffffffffffffff1673ffffffffffffffffffffffffffffffffffffffff166370a08231836040518263ffffffff1660e01b81526004016103da9190611469565b60206040518083038186803b1580156103f257600080fd5b505afa158015610406573d6000803e3d6000fd5b505050506040513d601f19601f8201168201806040525081019061042a9190611253565b9050919050565b610439610d20565b73ffffffffffffffffffffffffffffffffffffffff1661045761081f565b73ffffffffffffffffffffffffffffffffffffffff16146104ad576040517f08c379a00000000000000000000000000000000000000000000000000000000081526004016104a490611581565b60405180910390fd5b8060028190555050565b6104bf610d20565b73ffffffffffffffffffffffffffffffffffffffff166104dd61081f565b73ffffffffffffffffffffffffffffffffffffffff1614610533576040517f08c379a000000000000000000000000000000000000000000000000000000000815260040161052a90611581565b60405180910390fd5b6003544211610577576040517f08c379a000000000000000000000000000000000000000000000000000000000815260040161056e906115c1565b60405180910390fd5b61069081600460009054906101000a900473ffffffffffffffffffffffffffffffffffffffff1673ffffffffffffffffffffffffffffffffffffffff166370a08231600160009054906101000a900473ffffffffffffffffffffffffffffffffffffffff166040518263ffffffff1660e01b81526004016105f89190611469565b60206040518083038186803b15801561061057600080fd5b505afa158015610624573d6000803e3d6000fd5b505050506040513d601f19601f820116820180604052508101906106489190611253565b600460009054906101000a900473ffffffffffffffffffffffffffffffffffffffff1673ffffffffffffffffffffffffffffffffffffffff16610d289092919063ffffffff16565b50565b600460009054906101000a900473ffffffffffffffffffffffffffffffffffffffff1681565b6000600560008373ffffffffffffffffffffffffffffffffffffffff1673ffffffffffffffffffffffffffffffffffffffff168152602001908152602001600020549050919050565b61070a610d20565b73ffffffffffffffffffffffffffffffffffffffff1661072861081f565b73ffffffffffffffffffffffffffffffffffffffff161461077e576040517f08c379a000000000000000000000000000000000000000000000000000000000815260040161077590611581565b60405180910390fd5b8060038190555050565b610790610d20565b73ffffffffffffffffffffffffffffffffffffffff166107ae61081f565b73ffffffffffffffffffffffffffffffffffffffff1614610804576040517f08c379a00000000000000000000000000000000000000000000000000000000081526004016107fb90611581565b60405180910390fd5b61080e6000610dae565b565b600061081a61081f565b905090565b60008060009054906101000a900473ffffffffffffffffffffffffffffffffffffffff16905090565b6000600160009054906101000a900473ffffffffffffffffffffffffffffffffffffffff16905090565b6000600254905090565b6000600354905090565b6000610890610d20565b73ffffffffffffffffffffffffffffffffffffffff166108ae61081f565b73ffffffffffffffffffffffffffffffffffffffff1614610904576040517f08c379a00000000000000000000000000000000000000000000000000000000081526004016108fb90611581565b60405180910390fd5b6000600560008473ffffffffffffffffffffffffffffffffffffffff1673ffffffffffffffffffffffffffffffffffffffff168152602001908152602001600020549050670de0b6b3a76400008161095c91906116e4565b600460009054906101000a900473ffffffffffffffffffffffffffffffffffffffff1673ffffffffffffffffffffffffffffffffffffffff166370a08231600160009054906101000a900473ffffffffffffffffffffffffffffffffffffffff166040518263ffffffff1660e01b81526004016109d99190611469565b60206040518083038186803b1580156109f157600080fd5b505afa158015610a05573d6000803e3d6000fd5b505050506040513d601f19601f82011682018060405250810190610a299190611253565b1015610a6a576040517f08c379a0000000000000000000000000000000000000000000000000000000008152600401610a6190611601565b60405180910390fd5b610ab78382600460009054906101000a900473ffffffffffffffffffffffffffffffffffffffff1673ffffffffffffffffffffffffffffffffffffffff16610d289092919063ffffffff16565b6001915050919050565b600254421015610b06576040517f08c379a0000000000000000000000000000000000000000000000000000000008152600401610afd906115a1565b60405180910390fd5b600354421115610b4b576040517f08c379a0000000000000000000000000000000000000000000000000000000008152600401610b4290611541565b60405180910390fd5b610bbc33600160009054906101000a900473ffffffffffffffffffffffffffffffffffffffff1683600460009054906101000a900473ffffffffffffffffffffffffffffffffffffffff1673ffffffffffffffffffffffffffffffffffffffff16610e72909392919063ffffffff16565b670de0b6b3a764000081610bd091906116e4565b600560003373ffffffffffffffffffffffffffffffffffffffff1673ffffffffffffffffffffffffffffffffffffffff1681526020019081526020016000206000828254610c1e919061168e565b9250508190555050565b610c30610d20565b73ffffffffffffffffffffffffffffffffffffffff16610c4e61081f565b73ffffffffffffffffffffffffffffffffffffffff1614610ca4576040517f08c379a0000000000000000000000000000000000000000000000000000000008152600401610c9b90611581565b60405180910390fd5b600073ffffffffffffffffffffffffffffffffffffffff168173ffffffffffffffffffffffffffffffffffffffff161415610d14576040517f08c379a0000000000000000000000000000000000000000000000000000000008152600401610d0b90611521565b60405180910390fd5b610d1d81610dae565b50565b600033905090565b610da98363a9059cbb60e01b8484604051602401610d479291906114bb565b604051602081830303815290604052907bffffffffffffffffffffffffffffffffffffffffffffffffffffffff19166020820180517bffffffffffffffffffffffffffffffffffffffffffffffffffffffff8381831617835250505050610efb565b505050565b60008060009054906101000a900473ffffffffffffffffffffffffffffffffffffffff169050816000806101000a81548173ffffffffffffffffffffffffffffffffffffffff021916908373ffffffffffffffffffffffffffffffffffffffff1602179055508173ffffffffffffffffffffffffffffffffffffffff168173ffffffffffffffffffffffffffffffffffffffff167f8be0079c531659141344cd1fd0a4f28419497f9722a3daafe3b4186f6b6457e060405160405180910390a35050565b610ef5846323b872dd60e01b858585604051602401610e9393929190611484565b604051602081830303815290604052907bffffffffffffffffffffffffffffffffffffffffffffffffffffffff19166020820180517bffffffffffffffffffffffffffffffffffffffffffffffffffffffff8381831617835250505050610efb565b50505050565b6000610f5d826040518060400160405280602081526020017f5361666545524332303a206c6f772d6c6576656c2063616c6c206661696c65648152508573ffffffffffffffffffffffffffffffffffffffff16610fc29092919063ffffffff16565b9050600081511115610fbd5780806020019051810190610f7d91906111f9565b610fbc576040517f08c379a0000000000000000000000000000000000000000000000000000000008152600401610fb390611621565b60405180910390fd5b5b505050565b6060610fd18484600085610fda565b90509392505050565b60608247101561101f576040517f08c379a000000000000000000000000000000000000000000000000000000000815260040161101690611561565b60405180910390fd5b611028856110ee565b611067576040517f08c379a000000000000000000000000000000000000000000000000000000000815260040161105e906115e1565b60405180910390fd5b6000808673ffffffffffffffffffffffffffffffffffffffff1685876040516110909190611452565b60006040518083038185875af1925050503d80600081146110cd576040519150601f19603f3d011682016040523d82523d6000602084013e6110d2565b606091505b50915091506110e2828286611111565b92505050949350505050565b6000808273ffffffffffffffffffffffffffffffffffffffff163b119050919050565b6060831561112157829050611171565b6000835111156111345782518084602001fd5b816040517f08c379a000000000000000000000000000000000000000000000000000000000815260040161116891906114ff565b60405180910390fd5b9392505050565b600081359050611187816119e1565b92915050565b60008151905061119c816119f8565b92915050565b6000813590506111b181611a0f565b92915050565b6000815190506111c681611a0f565b92915050565b6000602082840312156111e2576111e16117e8565b5b60006111f084828501611178565b91505092915050565b60006020828403121561120f5761120e6117e8565b5b600061121d8482850161118d565b91505092915050565b60006020828403121561123c5761123b6117e8565b5b600061124a848285016111a2565b91505092915050565b600060208284031215611269576112686117e8565b5b6000611277848285016111b7565b91505092915050565b6112898161173e565b82525050565b61129881611750565b82525050565b60006112a98261165c565b6112b38185611672565b93506112c3818560208601611786565b80840191505092915050565b60006112da82611667565b6112e4818561167d565b93506112f4818560208601611786565b6112fd816117ed565b840191505092915050565b600061131560268361167d565b9150611320826117fe565b604082019050919050565b6000611338600e8361167d565b91506113438261184d565b602082019050919050565b600061135b60268361167d565b915061136682611876565b604082019050919050565b600061137e60208361167d565b9150611389826118c5565b602082019050919050565b60006113a160178361167d565b91506113ac826118ee565b602082019050919050565b60006113c460118361167d565b91506113cf82611917565b602082019050919050565b60006113e7601d8361167d565b91506113f282611940565b602082019050919050565b600061140a601a8361167d565b915061141582611969565b602082019050919050565b600061142d602a8361167d565b915061143882611992565b604082019050919050565b61144c8161177c565b82525050565b600061145e828461129e565b915081905092915050565b600060208201905061147e6000830184611280565b92915050565b60006060820190506114996000830186611280565b6114a66020830185611280565b6114b36040830184611443565b949350505050565b60006040820190506114d06000830185611280565b6114dd6020830184611443565b9392505050565b60006020820190506114f9600083018461128f565b92915050565b6000602082019050818103600083015261151981846112cf565b905092915050565b6000602082019050818103600083015261153a81611308565b9050919050565b6000602082019050818103600083015261155a8161132b565b9050919050565b6000602082019050818103600083015261157a8161134e565b9050919050565b6000602082019050818103600083015261159a81611371565b9050919050565b600060208201905081810360008301526115ba81611394565b9050919050565b600060208201905081810360008301526115da816113b7565b9050919050565b600060208201905081810360008301526115fa816113da565b9050919050565b6000602082019050818103600083015261161a816113fd565b9050919050565b6000602082019050818103600083015261163a81611420565b9050919050565b60006020820190506116566000830184611443565b92915050565b600081519050919050565b600081519050919050565b600081905092915050565b600082825260208201905092915050565b60006116998261177c565b91506116a48361177c565b9250827fffffffffffffffffffffffffffffffffffffffffffffffffffffffffffffffff038211156116d9576116d86117b9565b5b828201905092915050565b60006116ef8261177c565b91506116fa8361177c565b9250817fffffffffffffffffffffffffffffffffffffffffffffffffffffffffffffffff0483118215151615611733576117326117b9565b5b828202905092915050565b60006117498261175c565b9050919050565b60008115159050919050565b600073ffffffffffffffffffffffffffffffffffffffff82169050919050565b6000819050919050565b60005b838110156117a4578082015181840152602081019050611789565b838111156117b3576000848401525b50505050565b7f4e487b7100000000000000000000000000000000000000000000000000000000600052601160045260246000fd5b600080fd5b6000601f19601f8301169050919050565b7f4f776e61626c653a206e6577206f776e657220697320746865207a65726f206160008201527f6464726573730000000000000000000000000000000000000000000000000000602082015250565b7f53616c652068617320656e646564000000000000000000000000000000000000600082015250565b7f416464726573733a20696e73756666696369656e742062616c616e636520666f60008201527f722063616c6c0000000000000000000000000000000000000000000000000000602082015250565b7f4f776e61626c653a2063616c6c6572206973206e6f7420746865206f776e6572600082015250565b7f53616c65206861736e2774207374617274656420796574000000000000000000600082015250565b7f53616c65206861736e277420656e646564000000000000000000000000000000600082015250565b7f416464726573733a2063616c6c20746f206e6f6e2d636f6e7472616374000000600082015250565b7f4e6f7420656e6f75676820746f6b656e20746f2072657475726e000000000000600082015250565b7f5361666545524332303a204552433230206f7065726174696f6e20646964206e60008201527f6f74207375636365656400000000000000000000000000000000000000000000602082015250565b6119ea8161173e565b81146119f557600080fd5b50565b611a0181611750565b8114611a0c57600080fd5b50565b611a188161177c565b8114611a2357600080fd5b5056fea2646970667358221220bd8d70a0b92e4f6a710a04c8c1ddb6a05da5677f167009c1e2fbfa83c89fa3ed64736f6c63430008070033",
					"opcodes": "PUSH1 0x80 PUSH1 0x40 MSTORE CALLVALUE DUP1 ISZERO PUSH3 0x11 JUMPI PUSH1 0x0 DUP1 REVERT JUMPDEST POP PUSH1 0x40 MLOAD PUSH3 0x1D68 CODESIZE SUB DUP1 PUSH3 0x1D68 DUP4 CODECOPY DUP2 DUP2 ADD PUSH1 0x40 MSTORE DUP2 ADD SWAP1 PUSH3 0x37 SWAP2 SWAP1 PUSH3 0x1FD JUMP JUMPDEST PUSH3 0x57 PUSH3 0x4B PUSH3 0x103 PUSH1 0x20 SHL PUSH1 0x20 SHR JUMP JUMPDEST PUSH3 0x10B PUSH1 0x20 SHL PUSH1 0x20 SHR JUMP JUMPDEST PUSH3 0x68 DUP6 PUSH3 0x10B PUSH1 0x20 SHL PUSH1 0x20 SHR JUMP JUMPDEST DUP1 PUSH1 0x4 PUSH1 0x0 PUSH2 0x100 EXP DUP2 SLOAD DUP2 PUSH20 0xFFFFFFFFFFFFFFFFFFFFFFFFFFFFFFFFFFFFFFFF MUL NOT AND SWAP1 DUP4 PUSH20 0xFFFFFFFFFFFFFFFFFFFFFFFFFFFFFFFFFFFFFFFF AND MUL OR SWAP1 SSTORE POP DUP4 PUSH1 0x1 PUSH1 0x0 PUSH2 0x100 EXP DUP2 SLOAD DUP2 PUSH20 0xFFFFFFFFFFFFFFFFFFFFFFFFFFFFFFFFFFFFFFFF MUL NOT AND SWAP1 DUP4 PUSH20 0xFFFFFFFFFFFFFFFFFFFFFFFFFFFFFFFFFFFFFFFF AND MUL OR SWAP1 SSTORE POP DUP3 PUSH1 0x2 DUP2 SWAP1 SSTORE POP DUP2 PUSH1 0x3 DUP2 SWAP1 SSTORE POP POP POP POP POP POP PUSH3 0x2FC JUMP JUMPDEST PUSH1 0x0 CALLER SWAP1 POP SWAP1 JUMP JUMPDEST PUSH1 0x0 DUP1 PUSH1 0x0 SWAP1 SLOAD SWAP1 PUSH2 0x100 EXP SWAP1 DIV PUSH20 0xFFFFFFFFFFFFFFFFFFFFFFFFFFFFFFFFFFFFFFFF AND SWAP1 POP DUP2 PUSH1 0x0 DUP1 PUSH2 0x100 EXP DUP2 SLOAD DUP2 PUSH20 0xFFFFFFFFFFFFFFFFFFFFFFFFFFFFFFFFFFFFFFFF MUL NOT AND SWAP1 DUP4 PUSH20 0xFFFFFFFFFFFFFFFFFFFFFFFFFFFFFFFFFFFFFFFF AND MUL OR SWAP1 SSTORE POP DUP2 PUSH20 0xFFFFFFFFFFFFFFFFFFFFFFFFFFFFFFFFFFFFFFFF AND DUP2 PUSH20 0xFFFFFFFFFFFFFFFFFFFFFFFFFFFFFFFFFFFFFFFF AND PUSH32 0x8BE0079C531659141344CD1FD0A4F28419497F9722A3DAAFE3B4186F6B6457E0 PUSH1 0x40 MLOAD PUSH1 0x40 MLOAD DUP1 SWAP2 SUB SWAP1 LOG3 POP POP JUMP JUMPDEST PUSH1 0x0 DUP2 MLOAD SWAP1 POP PUSH3 0x1E0 DUP2 PUSH3 0x2C8 JUMP JUMPDEST SWAP3 SWAP2 POP POP JUMP JUMPDEST PUSH1 0x0 DUP2 MLOAD SWAP1 POP PUSH3 0x1F7 DUP2 PUSH3 0x2E2 JUMP JUMPDEST SWAP3 SWAP2 POP POP JUMP JUMPDEST PUSH1 0x0 DUP1 PUSH1 0x0 DUP1 PUSH1 0x0 PUSH1 0xA0 DUP7 DUP9 SUB SLT ISZERO PUSH3 0x21C JUMPI PUSH3 0x21B PUSH3 0x2C3 JUMP JUMPDEST JUMPDEST PUSH1 0x0 PUSH3 0x22C DUP9 DUP3 DUP10 ADD PUSH3 0x1CF JUMP JUMPDEST SWAP6 POP POP PUSH1 0x20 PUSH3 0x23F DUP9 DUP3 DUP10 ADD PUSH3 0x1CF JUMP JUMPDEST SWAP5 POP POP PUSH1 0x40 PUSH3 0x252 DUP9 DUP3 DUP10 ADD PUSH3 0x1E6 JUMP JUMPDEST SWAP4 POP POP PUSH1 0x60 PUSH3 0x265 DUP9 DUP3 DUP10 ADD PUSH3 0x1E6 JUMP JUMPDEST SWAP3 POP POP PUSH1 0x80 PUSH3 0x278 DUP9 DUP3 DUP10 ADD PUSH3 0x1CF JUMP JUMPDEST SWAP2 POP POP SWAP3 SWAP6 POP SWAP3 SWAP6 SWAP1 SWAP4 POP JUMP JUMPDEST PUSH1 0x0 PUSH3 0x292 DUP3 PUSH3 0x299 JUMP JUMPDEST SWAP1 POP SWAP2 SWAP1 POP JUMP JUMPDEST PUSH1 0x0 PUSH20 0xFFFFFFFFFFFFFFFFFFFFFFFFFFFFFFFFFFFFFFFF DUP3 AND SWAP1 POP SWAP2 SWAP1 POP JUMP JUMPDEST PUSH1 0x0 DUP2 SWAP1 POP SWAP2 SWAP1 POP JUMP JUMPDEST PUSH1 0x0 DUP1 REVERT JUMPDEST PUSH3 0x2D3 DUP2 PUSH3 0x285 JUMP JUMPDEST DUP2 EQ PUSH3 0x2DF JUMPI PUSH1 0x0 DUP1 REVERT JUMPDEST POP JUMP JUMPDEST PUSH3 0x2ED DUP2 PUSH3 0x2B9 JUMP JUMPDEST DUP2 EQ PUSH3 0x2F9 JUMPI PUSH1 0x0 DUP1 REVERT JUMPDEST POP JUMP JUMPDEST PUSH2 0x1A5C DUP1 PUSH3 0x30C PUSH1 0x0 CODECOPY PUSH1 0x0 RETURN INVALID PUSH1 0x80 PUSH1 0x40 MSTORE PUSH1 0x4 CALLDATASIZE LT PUSH2 0xE8 JUMPI PUSH1 0x0 CALLDATALOAD PUSH1 0xE0 SHR DUP1 PUSH4 0x893D20E8 GT PUSH2 0x8A JUMPI DUP1 PUSH4 0xC10B9358 GT PUSH2 0x59 JUMPI DUP1 PUSH4 0xC10B9358 EQ PUSH2 0x2D0 JUMPI DUP1 PUSH4 0xDE2D583A EQ PUSH2 0x2FB JUMPI DUP1 PUSH4 0xEFEF39A1 EQ PUSH2 0x32B JUMPI DUP1 PUSH4 0xF2FDE38B EQ PUSH2 0x354 JUMPI PUSH2 0xE8 JUMP JUMPDEST DUP1 PUSH4 0x893D20E8 EQ PUSH2 0x224 JUMPI DUP1 PUSH4 0x8DA5CB5B EQ PUSH2 0x24F JUMPI DUP1 PUSH4 0x9D76EA58 EQ PUSH2 0x27A JUMPI DUP1 PUSH4 0xAB0BCC41 EQ PUSH2 0x2A5 JUMPI PUSH2 0xE8 JUMP JUMPDEST DUP1 PUSH4 0x61778592 GT PUSH2 0xC6 JUMPI DUP1 PUSH4 0x61778592 EQ PUSH2 0x17C JUMPI DUP1 PUSH4 0x617FBA04 EQ PUSH2 0x1A7 JUMPI DUP1 PUSH4 0x6F9C6149 EQ PUSH2 0x1E4 JUMPI DUP1 PUSH4 0x715018A6 EQ PUSH2 0x20D JUMPI PUSH2 0xE8 JUMP JUMPDEST DUP1 PUSH4 0x24076451 EQ PUSH2 0xED JUMPI DUP1 PUSH4 0x295E4EDF EQ PUSH2 0x12A JUMPI DUP1 PUSH4 0x51CFF8D9 EQ PUSH2 0x153 JUMPI JUMPDEST PUSH1 0x0 DUP1 REVERT JUMPDEST CALLVALUE DUP1 ISZERO PUSH2 0xF9 JUMPI PUSH1 0x0 DUP1 REVERT JUMPDEST POP PUSH2 0x114 PUSH1 0x4 DUP1 CALLDATASIZE SUB DUP2 ADD SWAP1 PUSH2 0x10F SWAP2 SWAP1 PUSH2 0x11CC JUMP JUMPDEST PUSH2 0x37D JUMP JUMPDEST PUSH1 0x40 MLOAD PUSH2 0x121 SWAP2 SWAP1 PUSH2 0x1641 JUMP JUMPDEST PUSH1 0x40 MLOAD DUP1 SWAP2 SUB SWAP1 RETURN JUMPDEST CALLVALUE DUP1 ISZERO PUSH2 0x136 JUMPI PUSH1 0x0 DUP1 REVERT JUMPDEST POP PUSH2 0x151 PUSH1 0x4 DUP1 CALLDATASIZE SUB DUP2 ADD SWAP1 PUSH2 0x14C SWAP2 SWAP1 PUSH2 0x1226 JUMP JUMPDEST PUSH2 0x431 JUMP JUMPDEST STOP JUMPDEST CALLVALUE DUP1 ISZERO PUSH2 0x15F JUMPI PUSH1 0x0 DUP1 REVERT JUMPDEST POP PUSH2 0x17A PUSH1 0x4 DUP1 CALLDATASIZE SUB DUP2 ADD SWAP1 PUSH2 0x175 SWAP2 SWAP1 PUSH2 0x11CC JUMP JUMPDEST PUSH2 0x4B7 JUMP JUMPDEST STOP JUMPDEST CALLVALUE DUP1 ISZERO PUSH2 0x188 JUMPI PUSH1 0x0 DUP1 REVERT JUMPDEST POP PUSH2 0x191 PUSH2 0x693 JUMP JUMPDEST PUSH1 0x40 MLOAD PUSH2 0x19E SWAP2 SWAP1 PUSH2 0x1469 JUMP JUMPDEST PUSH1 0x40 MLOAD DUP1 SWAP2 SUB SWAP1 RETURN JUMPDEST CALLVALUE DUP1 ISZERO PUSH2 0x1B3 JUMPI PUSH1 0x0 DUP1 REVERT JUMPDEST POP PUSH2 0x1CE PUSH1 0x4 DUP1 CALLDATASIZE SUB DUP2 ADD SWAP1 PUSH2 0x1C9 SWAP2 SWAP1 PUSH2 0x11CC JUMP JUMPDEST PUSH2 0x6B9 JUMP JUMPDEST PUSH1 0x40 MLOAD PUSH2 0x1DB SWAP2 SWAP1 PUSH2 0x1641 JUMP JUMPDEST PUSH1 0x40 MLOAD DUP1 SWAP2 SUB SWAP1 RETURN JUMPDEST CALLVALUE DUP1 ISZERO PUSH2 0x1F0 JUMPI PUSH1 0x0 DUP1 REVERT JUMPDEST POP PUSH2 0x20B PUSH1 0x4 DUP1 CALLDATASIZE SUB DUP2 ADD SWAP1 PUSH2 0x206 SWAP2 SWAP1 PUSH2 0x1226 JUMP JUMPDEST PUSH2 0x702 JUMP JUMPDEST STOP JUMPDEST CALLVALUE DUP1 ISZERO PUSH2 0x219 JUMPI PUSH1 0x0 DUP1 REVERT JUMPDEST POP PUSH2 0x222 PUSH2 0x788 JUMP JUMPDEST STOP JUMPDEST CALLVALUE DUP1 ISZERO PUSH2 0x230 JUMPI PUSH1 0x0 DUP1 REVERT JUMPDEST POP PUSH2 0x239 PUSH2 0x810 JUMP JUMPDEST PUSH1 0x40 MLOAD PUSH2 0x246 SWAP2 SWAP1 PUSH2 0x1469 JUMP JUMPDEST PUSH1 0x40 MLOAD DUP1 SWAP2 SUB SWAP1 RETURN JUMPDEST CALLVALUE DUP1 ISZERO PUSH2 0x25B JUMPI PUSH1 0x0 DUP1 REVERT JUMPDEST POP PUSH2 0x264 PUSH2 0x81F JUMP JUMPDEST PUSH1 0x40 MLOAD PUSH2 0x271 SWAP2 SWAP1 PUSH2 0x1469 JUMP JUMPDEST PUSH1 0x40 MLOAD DUP1 SWAP2 SUB SWAP1 RETURN JUMPDEST CALLVALUE DUP1 ISZERO PUSH2 0x286 JUMPI PUSH1 0x0 DUP1 REVERT JUMPDEST POP PUSH2 0x28F PUSH2 0x848 JUMP JUMPDEST PUSH1 0x40 MLOAD PUSH2 0x29C SWAP2 SWAP1 PUSH2 0x1469 JUMP JUMPDEST PUSH1 0x40 MLOAD DUP1 SWAP2 SUB SWAP1 RETURN JUMPDEST CALLVALUE DUP1 ISZERO PUSH2 0x2B1 JUMPI PUSH1 0x0 DUP1 REVERT JUMPDEST POP PUSH2 0x2BA PUSH2 0x872 JUMP JUMPDEST PUSH1 0x40 MLOAD PUSH2 0x2C7 SWAP2 SWAP1 PUSH2 0x1641 JUMP JUMPDEST PUSH1 0x40 MLOAD DUP1 SWAP2 SUB SWAP1 RETURN JUMPDEST CALLVALUE DUP1 ISZERO PUSH2 0x2DC JUMPI PUSH1 0x0 DUP1 REVERT JUMPDEST POP PUSH2 0x2E5 PUSH2 0x87C JUMP JUMPDEST PUSH1 0x40 MLOAD PUSH2 0x2F2 SWAP2 SWAP1 PUSH2 0x1641 JUMP JUMPDEST PUSH1 0x40 MLOAD DUP1 SWAP2 SUB SWAP1 RETURN JUMPDEST PUSH2 0x315 PUSH1 0x4 DUP1 CALLDATASIZE SUB DUP2 ADD SWAP1 PUSH2 0x310 SWAP2 SWAP1 PUSH2 0x11CC JUMP JUMPDEST PUSH2 0x886 JUMP JUMPDEST PUSH1 0x40 MLOAD PUSH2 0x322 SWAP2 SWAP1 PUSH2 0x14E4 JUMP JUMPDEST PUSH1 0x40 MLOAD DUP1 SWAP2 SUB SWAP1 RETURN JUMPDEST CALLVALUE DUP1 ISZERO PUSH2 0x337 JUMPI PUSH1 0x0 DUP1 REVERT JUMPDEST POP PUSH2 0x352 PUSH1 0x4 DUP1 CALLDATASIZE SUB DUP2 ADD SWAP1 PUSH2 0x34D SWAP2 SWAP1 PUSH2 0x1226 JUMP JUMPDEST PUSH2 0xAC1 JUMP JUMPDEST STOP JUMPDEST CALLVALUE DUP1 ISZERO PUSH2 0x360 JUMPI PUSH1 0x0 DUP1 REVERT JUMPDEST POP PUSH2 0x37B PUSH1 0x4 DUP1 CALLDATASIZE SUB DUP2 ADD SWAP1 PUSH2 0x376 SWAP2 SWAP1 PUSH2 0x11CC JUMP JUMPDEST PUSH2 0xC28 JUMP JUMPDEST STOP JUMPDEST PUSH1 0x0 PUSH1 0x4 PUSH1 0x0 SWAP1 SLOAD SWAP1 PUSH2 0x100 EXP SWAP1 DIV PUSH20 0xFFFFFFFFFFFFFFFFFFFFFFFFFFFFFFFFFFFFFFFF AND PUSH20 0xFFFFFFFFFFFFFFFFFFFFFFFFFFFFFFFFFFFFFFFF AND PUSH4 0x70A08231 DUP4 PUSH1 0x40 MLOAD DUP3 PUSH4 0xFFFFFFFF AND PUSH1 0xE0 SHL DUP2 MSTORE PUSH1 0x4 ADD PUSH2 0x3DA SWAP2 SWAP1 PUSH2 0x1469 JUMP JUMPDEST PUSH1 0x20 PUSH1 0x40 MLOAD DUP1 DUP4 SUB DUP2 DUP7 DUP1 EXTCODESIZE ISZERO DUP1 ISZERO PUSH2 0x3F2 JUMPI PUSH1 0x0 DUP1 REVERT JUMPDEST POP GAS STATICCALL ISZERO DUP1 ISZERO PUSH2 0x406 JUMPI RETURNDATASIZE PUSH1 0x0 DUP1 RETURNDATACOPY RETURNDATASIZE PUSH1 0x0 REVERT JUMPDEST POP POP POP POP PUSH1 0x40 MLOAD RETURNDATASIZE PUSH1 0x1F NOT PUSH1 0x1F DUP3 ADD AND DUP3 ADD DUP1 PUSH1 0x40 MSTORE POP DUP2 ADD SWAP1 PUSH2 0x42A SWAP2 SWAP1 PUSH2 0x1253 JUMP JUMPDEST SWAP1 POP SWAP2 SWAP1 POP JUMP JUMPDEST PUSH2 0x439 PUSH2 0xD20 JUMP JUMPDEST PUSH20 0xFFFFFFFFFFFFFFFFFFFFFFFFFFFFFFFFFFFFFFFF AND PUSH2 0x457 PUSH2 0x81F JUMP JUMPDEST PUSH20 0xFFFFFFFFFFFFFFFFFFFFFFFFFFFFFFFFFFFFFFFF AND EQ PUSH2 0x4AD JUMPI PUSH1 0x40 MLOAD PUSH32 0x8C379A000000000000000000000000000000000000000000000000000000000 DUP2 MSTORE PUSH1 0x4 ADD PUSH2 0x4A4 SWAP1 PUSH2 0x1581 JUMP JUMPDEST PUSH1 0x40 MLOAD DUP1 SWAP2 SUB SWAP1 REVERT JUMPDEST DUP1 PUSH1 0x2 DUP2 SWAP1 SSTORE POP POP JUMP JUMPDEST PUSH2 0x4BF PUSH2 0xD20 JUMP JUMPDEST PUSH20 0xFFFFFFFFFFFFFFFFFFFFFFFFFFFFFFFFFFFFFFFF AND PUSH2 0x4DD PUSH2 0x81F JUMP JUMPDEST PUSH20 0xFFFFFFFFFFFFFFFFFFFFFFFFFFFFFFFFFFFFFFFF AND EQ PUSH2 0x533 JUMPI PUSH1 0x40 MLOAD PUSH32 0x8C379A000000000000000000000000000000000000000000000000000000000 DUP2 MSTORE PUSH1 0x4 ADD PUSH2 0x52A SWAP1 PUSH2 0x1581 JUMP JUMPDEST PUSH1 0x40 MLOAD DUP1 SWAP2 SUB SWAP1 REVERT JUMPDEST PUSH1 0x3 SLOAD TIMESTAMP GT PUSH2 0x577 JUMPI PUSH1 0x40 MLOAD PUSH32 0x8C379A000000000000000000000000000000000000000000000000000000000 DUP2 MSTORE PUSH1 0x4 ADD PUSH2 0x56E SWAP1 PUSH2 0x15C1 JUMP JUMPDEST PUSH1 0x40 MLOAD DUP1 SWAP2 SUB SWAP1 REVERT JUMPDEST PUSH2 0x690 DUP2 PUSH1 0x4 PUSH1 0x0 SWAP1 SLOAD SWAP1 PUSH2 0x100 EXP SWAP1 DIV PUSH20 0xFFFFFFFFFFFFFFFFFFFFFFFFFFFFFFFFFFFFFFFF AND PUSH20 0xFFFFFFFFFFFFFFFFFFFFFFFFFFFFFFFFFFFFFFFF AND PUSH4 0x70A08231 PUSH1 0x1 PUSH1 0x0 SWAP1 SLOAD SWAP1 PUSH2 0x100 EXP SWAP1 DIV PUSH20 0xFFFFFFFFFFFFFFFFFFFFFFFFFFFFFFFFFFFFFFFF AND PUSH1 0x40 MLOAD DUP3 PUSH4 0xFFFFFFFF AND PUSH1 0xE0 SHL DUP2 MSTORE PUSH1 0x4 ADD PUSH2 0x5F8 SWAP2 SWAP1 PUSH2 0x1469 JUMP JUMPDEST PUSH1 0x20 PUSH1 0x40 MLOAD DUP1 DUP4 SUB DUP2 DUP7 DUP1 EXTCODESIZE ISZERO DUP1 ISZERO PUSH2 0x610 JUMPI PUSH1 0x0 DUP1 REVERT JUMPDEST POP GAS STATICCALL ISZERO DUP1 ISZERO PUSH2 0x624 JUMPI RETURNDATASIZE PUSH1 0x0 DUP1 RETURNDATACOPY RETURNDATASIZE PUSH1 0x0 REVERT JUMPDEST POP POP POP POP PUSH1 0x40 MLOAD RETURNDATASIZE PUSH1 0x1F NOT PUSH1 0x1F DUP3 ADD AND DUP3 ADD DUP1 PUSH1 0x40 MSTORE POP DUP2 ADD SWAP1 PUSH2 0x648 SWAP2 SWAP1 PUSH2 0x1253 JUMP JUMPDEST PUSH1 0x4 PUSH1 0x0 SWAP1 SLOAD SWAP1 PUSH2 0x100 EXP SWAP1 DIV PUSH20 0xFFFFFFFFFFFFFFFFFFFFFFFFFFFFFFFFFFFFFFFF AND PUSH20 0xFFFFFFFFFFFFFFFFFFFFFFFFFFFFFFFFFFFFFFFF AND PUSH2 0xD28 SWAP1 SWAP3 SWAP2 SWAP1 PUSH4 0xFFFFFFFF AND JUMP JUMPDEST POP JUMP JUMPDEST PUSH1 0x4 PUSH1 0x0 SWAP1 SLOAD SWAP1 PUSH2 0x100 EXP SWAP1 DIV PUSH20 0xFFFFFFFFFFFFFFFFFFFFFFFFFFFFFFFFFFFFFFFF AND DUP2 JUMP JUMPDEST PUSH1 0x0 PUSH1 0x5 PUSH1 0x0 DUP4 PUSH20 0xFFFFFFFFFFFFFFFFFFFFFFFFFFFFFFFFFFFFFFFF AND PUSH20 0xFFFFFFFFFFFFFFFFFFFFFFFFFFFFFFFFFFFFFFFF AND DUP2 MSTORE PUSH1 0x20 ADD SWAP1 DUP2 MSTORE PUSH1 0x20 ADD PUSH1 0x0 KECCAK256 SLOAD SWAP1 POP SWAP2 SWAP1 POP JUMP JUMPDEST PUSH2 0x70A PUSH2 0xD20 JUMP JUMPDEST PUSH20 0xFFFFFFFFFFFFFFFFFFFFFFFFFFFFFFFFFFFFFFFF AND PUSH2 0x728 PUSH2 0x81F JUMP JUMPDEST PUSH20 0xFFFFFFFFFFFFFFFFFFFFFFFFFFFFFFFFFFFFFFFF AND EQ PUSH2 0x77E JUMPI PUSH1 0x40 MLOAD PUSH32 0x8C379A000000000000000000000000000000000000000000000000000000000 DUP2 MSTORE PUSH1 0x4 ADD PUSH2 0x775 SWAP1 PUSH2 0x1581 JUMP JUMPDEST PUSH1 0x40 MLOAD DUP1 SWAP2 SUB SWAP1 REVERT JUMPDEST DUP1 PUSH1 0x3 DUP2 SWAP1 SSTORE POP POP JUMP JUMPDEST PUSH2 0x790 PUSH2 0xD20 JUMP JUMPDEST PUSH20 0xFFFFFFFFFFFFFFFFFFFFFFFFFFFFFFFFFFFFFFFF AND PUSH2 0x7AE PUSH2 0x81F JUMP JUMPDEST PUSH20 0xFFFFFFFFFFFFFFFFFFFFFFFFFFFFFFFFFFFFFFFF AND EQ PUSH2 0x804 JUMPI PUSH1 0x40 MLOAD PUSH32 0x8C379A000000000000000000000000000000000000000000000000000000000 DUP2 MSTORE PUSH1 0x4 ADD PUSH2 0x7FB SWAP1 PUSH2 0x1581 JUMP JUMPDEST PUSH1 0x40 MLOAD DUP1 SWAP2 SUB SWAP1 REVERT JUMPDEST PUSH2 0x80E PUSH1 0x0 PUSH2 0xDAE JUMP JUMPDEST JUMP JUMPDEST PUSH1 0x0 PUSH2 0x81A PUSH2 0x81F JUMP JUMPDEST SWAP1 POP SWAP1 JUMP JUMPDEST PUSH1 0x0 DUP1 PUSH1 0x0 SWAP1 SLOAD SWAP1 PUSH2 0x100 EXP SWAP1 DIV PUSH20 0xFFFFFFFFFFFFFFFFFFFFFFFFFFFFFFFFFFFFFFFF AND SWAP1 POP SWAP1 JUMP JUMPDEST PUSH1 0x0 PUSH1 0x1 PUSH1 0x0 SWAP1 SLOAD SWAP1 PUSH2 0x100 EXP SWAP1 DIV PUSH20 0xFFFFFFFFFFFFFFFFFFFFFFFFFFFFFFFFFFFFFFFF AND SWAP1 POP SWAP1 JUMP JUMPDEST PUSH1 0x0 PUSH1 0x2 SLOAD SWAP1 POP SWAP1 JUMP JUMPDEST PUSH1 0x0 PUSH1 0x3 SLOAD SWAP1 POP SWAP1 JUMP JUMPDEST PUSH1 0x0 PUSH2 0x890 PUSH2 0xD20 JUMP JUMPDEST PUSH20 0xFFFFFFFFFFFFFFFFFFFFFFFFFFFFFFFFFFFFFFFF AND PUSH2 0x8AE PUSH2 0x81F JUMP JUMPDEST PUSH20 0xFFFFFFFFFFFFFFFFFFFFFFFFFFFFFFFFFFFFFFFF AND EQ PUSH2 0x904 JUMPI PUSH1 0x40 MLOAD PUSH32 0x8C379A000000000000000000000000000000000000000000000000000000000 DUP2 MSTORE PUSH1 0x4 ADD PUSH2 0x8FB SWAP1 PUSH2 0x1581 JUMP JUMPDEST PUSH1 0x40 MLOAD DUP1 SWAP2 SUB SWAP1 REVERT JUMPDEST PUSH1 0x0 PUSH1 0x5 PUSH1 0x0 DUP5 PUSH20 0xFFFFFFFFFFFFFFFFFFFFFFFFFFFFFFFFFFFFFFFF AND PUSH20 0xFFFFFFFFFFFFFFFFFFFFFFFFFFFFFFFFFFFFFFFF AND DUP2 MSTORE PUSH1 0x20 ADD SWAP1 DUP2 MSTORE PUSH1 0x20 ADD PUSH1 0x0 KECCAK256 SLOAD SWAP1 POP PUSH8 0xDE0B6B3A7640000 DUP2 PUSH2 0x95C SWAP2 SWAP1 PUSH2 0x16E4 JUMP JUMPDEST PUSH1 0x4 PUSH1 0x0 SWAP1 SLOAD SWAP1 PUSH2 0x100 EXP SWAP1 DIV PUSH20 0xFFFFFFFFFFFFFFFFFFFFFFFFFFFFFFFFFFFFFFFF AND PUSH20 0xFFFFFFFFFFFFFFFFFFFFFFFFFFFFFFFFFFFFFFFF AND PUSH4 0x70A08231 PUSH1 0x1 PUSH1 0x0 SWAP1 SLOAD SWAP1 PUSH2 0x100 EXP SWAP1 DIV PUSH20 0xFFFFFFFFFFFFFFFFFFFFFFFFFFFFFFFFFFFFFFFF AND PUSH1 0x40 MLOAD DUP3 PUSH4 0xFFFFFFFF AND PUSH1 0xE0 SHL DUP2 MSTORE PUSH1 0x4 ADD PUSH2 0x9D9 SWAP2 SWAP1 PUSH2 0x1469 JUMP JUMPDEST PUSH1 0x20 PUSH1 0x40 MLOAD DUP1 DUP4 SUB DUP2 DUP7 DUP1 EXTCODESIZE ISZERO DUP1 ISZERO PUSH2 0x9F1 JUMPI PUSH1 0x0 DUP1 REVERT JUMPDEST POP GAS STATICCALL ISZERO DUP1 ISZERO PUSH2 0xA05 JUMPI RETURNDATASIZE PUSH1 0x0 DUP1 RETURNDATACOPY RETURNDATASIZE PUSH1 0x0 REVERT JUMPDEST POP POP POP POP PUSH1 0x40 MLOAD RETURNDATASIZE PUSH1 0x1F NOT PUSH1 0x1F DUP3 ADD AND DUP3 ADD DUP1 PUSH1 0x40 MSTORE POP DUP2 ADD SWAP1 PUSH2 0xA29 SWAP2 SWAP1 PUSH2 0x1253 JUMP JUMPDEST LT ISZERO PUSH2 0xA6A JUMPI PUSH1 0x40 MLOAD PUSH32 0x8C379A000000000000000000000000000000000000000000000000000000000 DUP2 MSTORE PUSH1 0x4 ADD PUSH2 0xA61 SWAP1 PUSH2 0x1601 JUMP JUMPDEST PUSH1 0x40 MLOAD DUP1 SWAP2 SUB SWAP1 REVERT JUMPDEST PUSH2 0xAB7 DUP4 DUP3 PUSH1 0x4 PUSH1 0x0 SWAP1 SLOAD SWAP1 PUSH2 0x100 EXP SWAP1 DIV PUSH20 0xFFFFFFFFFFFFFFFFFFFFFFFFFFFFFFFFFFFFFFFF AND PUSH20 0xFFFFFFFFFFFFFFFFFFFFFFFFFFFFFFFFFFFFFFFF AND PUSH2 0xD28 SWAP1 SWAP3 SWAP2 SWAP1 PUSH4 0xFFFFFFFF AND JUMP JUMPDEST PUSH1 0x1 SWAP2 POP POP SWAP2 SWAP1 POP JUMP JUMPDEST PUSH1 0x2 SLOAD TIMESTAMP LT ISZERO PUSH2 0xB06 JUMPI PUSH1 0x40 MLOAD PUSH32 0x8C379A000000000000000000000000000000000000000000000000000000000 DUP2 MSTORE PUSH1 0x4 ADD PUSH2 0xAFD SWAP1 PUSH2 0x15A1 JUMP JUMPDEST PUSH1 0x40 MLOAD DUP1 SWAP2 SUB SWAP1 REVERT JUMPDEST PUSH1 0x3 SLOAD TIMESTAMP GT ISZERO PUSH2 0xB4B JUMPI PUSH1 0x40 MLOAD PUSH32 0x8C379A000000000000000000000000000000000000000000000000000000000 DUP2 MSTORE PUSH1 0x4 ADD PUSH2 0xB42 SWAP1 PUSH2 0x1541 JUMP JUMPDEST PUSH1 0x40 MLOAD DUP1 SWAP2 SUB SWAP1 REVERT JUMPDEST PUSH2 0xBBC CALLER PUSH1 0x1 PUSH1 0x0 SWAP1 SLOAD SWAP1 PUSH2 0x100 EXP SWAP1 DIV PUSH20 0xFFFFFFFFFFFFFFFFFFFFFFFFFFFFFFFFFFFFFFFF AND DUP4 PUSH1 0x4 PUSH1 0x0 SWAP1 SLOAD SWAP1 PUSH2 0x100 EXP SWAP1 DIV PUSH20 0xFFFFFFFFFFFFFFFFFFFFFFFFFFFFFFFFFFFFFFFF AND PUSH20 0xFFFFFFFFFFFFFFFFFFFFFFFFFFFFFFFFFFFFFFFF AND PUSH2 0xE72 SWAP1 SWAP4 SWAP3 SWAP2 SWAP1 PUSH4 0xFFFFFFFF AND JUMP JUMPDEST PUSH8 0xDE0B6B3A7640000 DUP2 PUSH2 0xBD0 SWAP2 SWAP1 PUSH2 0x16E4 JUMP JUMPDEST PUSH1 0x5 PUSH1 0x0 CALLER PUSH20 0xFFFFFFFFFFFFFFFFFFFFFFFFFFFFFFFFFFFFFFFF AND PUSH20 0xFFFFFFFFFFFFFFFFFFFFFFFFFFFFFFFFFFFFFFFF AND DUP2 MSTORE PUSH1 0x20 ADD SWAP1 DUP2 MSTORE PUSH1 0x20 ADD PUSH1 0x0 KECCAK256 PUSH1 0x0 DUP3 DUP3 SLOAD PUSH2 0xC1E SWAP2 SWAP1 PUSH2 0x168E JUMP JUMPDEST SWAP3 POP POP DUP2 SWAP1 SSTORE POP POP JUMP JUMPDEST PUSH2 0xC30 PUSH2 0xD20 JUMP JUMPDEST PUSH20 0xFFFFFFFFFFFFFFFFFFFFFFFFFFFFFFFFFFFFFFFF AND PUSH2 0xC4E PUSH2 0x81F JUMP JUMPDEST PUSH20 0xFFFFFFFFFFFFFFFFFFFFFFFFFFFFFFFFFFFFFFFF AND EQ PUSH2 0xCA4 JUMPI PUSH1 0x40 MLOAD PUSH32 0x8C379A000000000000000000000000000000000000000000000000000000000 DUP2 MSTORE PUSH1 0x4 ADD PUSH2 0xC9B SWAP1 PUSH2 0x1581 JUMP JUMPDEST PUSH1 0x40 MLOAD DUP1 SWAP2 SUB SWAP1 REVERT JUMPDEST PUSH1 0x0 PUSH20 0xFFFFFFFFFFFFFFFFFFFFFFFFFFFFFFFFFFFFFFFF AND DUP2 PUSH20 0xFFFFFFFFFFFFFFFFFFFFFFFFFFFFFFFFFFFFFFFF AND EQ ISZERO PUSH2 0xD14 JUMPI PUSH1 0x40 MLOAD PUSH32 0x8C379A000000000000000000000000000000000000000000000000000000000 DUP2 MSTORE PUSH1 0x4 ADD PUSH2 0xD0B SWAP1 PUSH2 0x1521 JUMP JUMPDEST PUSH1 0x40 MLOAD DUP1 SWAP2 SUB SWAP1 REVERT JUMPDEST PUSH2 0xD1D DUP2 PUSH2 0xDAE JUMP JUMPDEST POP JUMP JUMPDEST PUSH1 0x0 CALLER SWAP1 POP SWAP1 JUMP JUMPDEST PUSH2 0xDA9 DUP4 PUSH4 0xA9059CBB PUSH1 0xE0 SHL DUP5 DUP5 PUSH1 0x40 MLOAD PUSH1 0x24 ADD PUSH2 0xD47 SWAP3 SWAP2 SWAP1 PUSH2 0x14BB JUMP JUMPDEST PUSH1 0x40 MLOAD PUSH1 0x20 DUP2 DUP4 SUB SUB DUP2 MSTORE SWAP1 PUSH1 0x40 MSTORE SWAP1 PUSH28 0xFFFFFFFFFFFFFFFFFFFFFFFFFFFFFFFFFFFFFFFFFFFFFFFFFFFFFFFF NOT AND PUSH1 0x20 DUP3 ADD DUP1 MLOAD PUSH28 0xFFFFFFFFFFFFFFFFFFFFFFFFFFFFFFFFFFFFFFFFFFFFFFFFFFFFFFFF DUP4 DUP2 DUP4 AND OR DUP4 MSTORE POP POP POP POP PUSH2 0xEFB JUMP JUMPDEST POP POP POP JUMP JUMPDEST PUSH1 0x0 DUP1 PUSH1 0x0 SWAP1 SLOAD SWAP1 PUSH2 0x100 EXP SWAP1 DIV PUSH20 0xFFFFFFFFFFFFFFFFFFFFFFFFFFFFFFFFFFFFFFFF AND SWAP1 POP DUP2 PUSH1 0x0 DUP1 PUSH2 0x100 EXP DUP2 SLOAD DUP2 PUSH20 0xFFFFFFFFFFFFFFFFFFFFFFFFFFFFFFFFFFFFFFFF MUL NOT AND SWAP1 DUP4 PUSH20 0xFFFFFFFFFFFFFFFFFFFFFFFFFFFFFFFFFFFFFFFF AND MUL OR SWAP1 SSTORE POP DUP2 PUSH20 0xFFFFFFFFFFFFFFFFFFFFFFFFFFFFFFFFFFFFFFFF AND DUP2 PUSH20 0xFFFFFFFFFFFFFFFFFFFFFFFFFFFFFFFFFFFFFFFF AND PUSH32 0x8BE0079C531659141344CD1FD0A4F28419497F9722A3DAAFE3B4186F6B6457E0 PUSH1 0x40 MLOAD PUSH1 0x40 MLOAD DUP1 SWAP2 SUB SWAP1 LOG3 POP POP JUMP JUMPDEST PUSH2 0xEF5 DUP5 PUSH4 0x23B872DD PUSH1 0xE0 SHL DUP6 DUP6 DUP6 PUSH1 0x40 MLOAD PUSH1 0x24 ADD PUSH2 0xE93 SWAP4 SWAP3 SWAP2 SWAP1 PUSH2 0x1484 JUMP JUMPDEST PUSH1 0x40 MLOAD PUSH1 0x20 DUP2 DUP4 SUB SUB DUP2 MSTORE SWAP1 PUSH1 0x40 MSTORE SWAP1 PUSH28 0xFFFFFFFFFFFFFFFFFFFFFFFFFFFFFFFFFFFFFFFFFFFFFFFFFFFFFFFF NOT AND PUSH1 0x20 DUP3 ADD DUP1 MLOAD PUSH28 0xFFFFFFFFFFFFFFFFFFFFFFFFFFFFFFFFFFFFFFFFFFFFFFFFFFFFFFFF DUP4 DUP2 DUP4 AND OR DUP4 MSTORE POP POP POP POP PUSH2 0xEFB JUMP JUMPDEST POP POP POP POP JUMP JUMPDEST PUSH1 0x0 PUSH2 0xF5D DUP3 PUSH1 0x40 MLOAD DUP1 PUSH1 0x40 ADD PUSH1 0x40 MSTORE DUP1 PUSH1 0x20 DUP2 MSTORE PUSH1 0x20 ADD PUSH32 0x5361666545524332303A206C6F772D6C6576656C2063616C6C206661696C6564 DUP2 MSTORE POP DUP6 PUSH20 0xFFFFFFFFFFFFFFFFFFFFFFFFFFFFFFFFFFFFFFFF AND PUSH2 0xFC2 SWAP1 SWAP3 SWAP2 SWAP1 PUSH4 0xFFFFFFFF AND JUMP JUMPDEST SWAP1 POP PUSH1 0x0 DUP2 MLOAD GT ISZERO PUSH2 0xFBD JUMPI DUP1 DUP1 PUSH1 0x20 ADD SWAP1 MLOAD DUP2 ADD SWAP1 PUSH2 0xF7D SWAP2 SWAP1 PUSH2 0x11F9 JUMP JUMPDEST PUSH2 0xFBC JUMPI PUSH1 0x40 MLOAD PUSH32 0x8C379A000000000000000000000000000000000000000000000000000000000 DUP2 MSTORE PUSH1 0x4 ADD PUSH2 0xFB3 SWAP1 PUSH2 0x1621 JUMP JUMPDEST PUSH1 0x40 MLOAD DUP1 SWAP2 SUB SWAP1 REVERT JUMPDEST JUMPDEST POP POP POP JUMP JUMPDEST PUSH1 0x60 PUSH2 0xFD1 DUP5 DUP5 PUSH1 0x0 DUP6 PUSH2 0xFDA JUMP JUMPDEST SWAP1 POP SWAP4 SWAP3 POP POP POP JUMP JUMPDEST PUSH1 0x60 DUP3 SELFBALANCE LT ISZERO PUSH2 0x101F JUMPI PUSH1 0x40 MLOAD PUSH32 0x8C379A000000000000000000000000000000000000000000000000000000000 DUP2 MSTORE PUSH1 0x4 ADD PUSH2 0x1016 SWAP1 PUSH2 0x1561 JUMP JUMPDEST PUSH1 0x40 MLOAD DUP1 SWAP2 SUB SWAP1 REVERT JUMPDEST PUSH2 0x1028 DUP6 PUSH2 0x10EE JUMP JUMPDEST PUSH2 0x1067 JUMPI PUSH1 0x40 MLOAD PUSH32 0x8C379A000000000000000000000000000000000000000000000000000000000 DUP2 MSTORE PUSH1 0x4 ADD PUSH2 0x105E SWAP1 PUSH2 0x15E1 JUMP JUMPDEST PUSH1 0x40 MLOAD DUP1 SWAP2 SUB SWAP1 REVERT JUMPDEST PUSH1 0x0 DUP1 DUP7 PUSH20 0xFFFFFFFFFFFFFFFFFFFFFFFFFFFFFFFFFFFFFFFF AND DUP6 DUP8 PUSH1 0x40 MLOAD PUSH2 0x1090 SWAP2 SWAP1 PUSH2 0x1452 JUMP JUMPDEST PUSH1 0x0 PUSH1 0x40 MLOAD DUP1 DUP4 SUB DUP2 DUP6 DUP8 GAS CALL SWAP3 POP POP POP RETURNDATASIZE DUP1 PUSH1 0x0 DUP2 EQ PUSH2 0x10CD JUMPI PUSH1 0x40 MLOAD SWAP2 POP PUSH1 0x1F NOT PUSH1 0x3F RETURNDATASIZE ADD AND DUP3 ADD PUSH1 0x40 MSTORE RETURNDATASIZE DUP3 MSTORE RETURNDATASIZE PUSH1 0x0 PUSH1 0x20 DUP5 ADD RETURNDATACOPY PUSH2 0x10D2 JUMP JUMPDEST PUSH1 0x60 SWAP2 POP JUMPDEST POP SWAP2 POP SWAP2 POP PUSH2 0x10E2 DUP3 DUP3 DUP7 PUSH2 0x1111 JUMP JUMPDEST SWAP3 POP POP POP SWAP5 SWAP4 POP POP POP POP JUMP JUMPDEST PUSH1 0x0 DUP1 DUP3 PUSH20 0xFFFFFFFFFFFFFFFFFFFFFFFFFFFFFFFFFFFFFFFF AND EXTCODESIZE GT SWAP1 POP SWAP2 SWAP1 POP JUMP JUMPDEST PUSH1 0x60 DUP4 ISZERO PUSH2 0x1121 JUMPI DUP3 SWAP1 POP PUSH2 0x1171 JUMP JUMPDEST PUSH1 0x0 DUP4 MLOAD GT ISZERO PUSH2 0x1134 JUMPI DUP3 MLOAD DUP1 DUP5 PUSH1 0x20 ADD REVERT JUMPDEST DUP2 PUSH1 0x40 MLOAD PUSH32 0x8C379A000000000000000000000000000000000000000000000000000000000 DUP2 MSTORE PUSH1 0x4 ADD PUSH2 0x1168 SWAP2 SWAP1 PUSH2 0x14FF JUMP JUMPDEST PUSH1 0x40 MLOAD DUP1 SWAP2 SUB SWAP1 REVERT JUMPDEST SWAP4 SWAP3 POP POP POP JUMP JUMPDEST PUSH1 0x0 DUP2 CALLDATALOAD SWAP1 POP PUSH2 0x1187 DUP2 PUSH2 0x19E1 JUMP JUMPDEST SWAP3 SWAP2 POP POP JUMP JUMPDEST PUSH1 0x0 DUP2 MLOAD SWAP1 POP PUSH2 0x119C DUP2 PUSH2 0x19F8 JUMP JUMPDEST SWAP3 SWAP2 POP POP JUMP JUMPDEST PUSH1 0x0 DUP2 CALLDATALOAD SWAP1 POP PUSH2 0x11B1 DUP2 PUSH2 0x1A0F JUMP JUMPDEST SWAP3 SWAP2 POP POP JUMP JUMPDEST PUSH1 0x0 DUP2 MLOAD SWAP1 POP PUSH2 0x11C6 DUP2 PUSH2 0x1A0F JUMP JUMPDEST SWAP3 SWAP2 POP POP JUMP JUMPDEST PUSH1 0x0 PUSH1 0x20 DUP3 DUP5 SUB SLT ISZERO PUSH2 0x11E2 JUMPI PUSH2 0x11E1 PUSH2 0x17E8 JUMP JUMPDEST JUMPDEST PUSH1 0x0 PUSH2 0x11F0 DUP5 DUP3 DUP6 ADD PUSH2 0x1178 JUMP JUMPDEST SWAP2 POP POP SWAP3 SWAP2 POP POP JUMP JUMPDEST PUSH1 0x0 PUSH1 0x20 DUP3 DUP5 SUB SLT ISZERO PUSH2 0x120F JUMPI PUSH2 0x120E PUSH2 0x17E8 JUMP JUMPDEST JUMPDEST PUSH1 0x0 PUSH2 0x121D DUP5 DUP3 DUP6 ADD PUSH2 0x118D JUMP JUMPDEST SWAP2 POP POP SWAP3 SWAP2 POP POP JUMP JUMPDEST PUSH1 0x0 PUSH1 0x20 DUP3 DUP5 SUB SLT ISZERO PUSH2 0x123C JUMPI PUSH2 0x123B PUSH2 0x17E8 JUMP JUMPDEST JUMPDEST PUSH1 0x0 PUSH2 0x124A DUP5 DUP3 DUP6 ADD PUSH2 0x11A2 JUMP JUMPDEST SWAP2 POP POP SWAP3 SWAP2 POP POP JUMP JUMPDEST PUSH1 0x0 PUSH1 0x20 DUP3 DUP5 SUB SLT ISZERO PUSH2 0x1269 JUMPI PUSH2 0x1268 PUSH2 0x17E8 JUMP JUMPDEST JUMPDEST PUSH1 0x0 PUSH2 0x1277 DUP5 DUP3 DUP6 ADD PUSH2 0x11B7 JUMP JUMPDEST SWAP2 POP POP SWAP3 SWAP2 POP POP JUMP JUMPDEST PUSH2 0x1289 DUP2 PUSH2 0x173E JUMP JUMPDEST DUP3 MSTORE POP POP JUMP JUMPDEST PUSH2 0x1298 DUP2 PUSH2 0x1750 JUMP JUMPDEST DUP3 MSTORE POP POP JUMP JUMPDEST PUSH1 0x0 PUSH2 0x12A9 DUP3 PUSH2 0x165C JUMP JUMPDEST PUSH2 0x12B3 DUP2 DUP6 PUSH2 0x1672 JUMP JUMPDEST SWAP4 POP PUSH2 0x12C3 DUP2 DUP6 PUSH1 0x20 DUP7 ADD PUSH2 0x1786 JUMP JUMPDEST DUP1 DUP5 ADD SWAP2 POP POP SWAP3 SWAP2 POP POP JUMP JUMPDEST PUSH1 0x0 PUSH2 0x12DA DUP3 PUSH2 0x1667 JUMP JUMPDEST PUSH2 0x12E4 DUP2 DUP6 PUSH2 0x167D JUMP JUMPDEST SWAP4 POP PUSH2 0x12F4 DUP2 DUP6 PUSH1 0x20 DUP7 ADD PUSH2 0x1786 JUMP JUMPDEST PUSH2 0x12FD DUP2 PUSH2 0x17ED JUMP JUMPDEST DUP5 ADD SWAP2 POP POP SWAP3 SWAP2 POP POP JUMP JUMPDEST PUSH1 0x0 PUSH2 0x1315 PUSH1 0x26 DUP4 PUSH2 0x167D JUMP JUMPDEST SWAP2 POP PUSH2 0x1320 DUP3 PUSH2 0x17FE JUMP JUMPDEST PUSH1 0x40 DUP3 ADD SWAP1 POP SWAP2 SWAP1 POP JUMP JUMPDEST PUSH1 0x0 PUSH2 0x1338 PUSH1 0xE DUP4 PUSH2 0x167D JUMP JUMPDEST SWAP2 POP PUSH2 0x1343 DUP3 PUSH2 0x184D JUMP JUMPDEST PUSH1 0x20 DUP3 ADD SWAP1 POP SWAP2 SWAP1 POP JUMP JUMPDEST PUSH1 0x0 PUSH2 0x135B PUSH1 0x26 DUP4 PUSH2 0x167D JUMP JUMPDEST SWAP2 POP PUSH2 0x1366 DUP3 PUSH2 0x1876 JUMP JUMPDEST PUSH1 0x40 DUP3 ADD SWAP1 POP SWAP2 SWAP1 POP JUMP JUMPDEST PUSH1 0x0 PUSH2 0x137E PUSH1 0x20 DUP4 PUSH2 0x167D JUMP JUMPDEST SWAP2 POP PUSH2 0x1389 DUP3 PUSH2 0x18C5 JUMP JUMPDEST PUSH1 0x20 DUP3 ADD SWAP1 POP SWAP2 SWAP1 POP JUMP JUMPDEST PUSH1 0x0 PUSH2 0x13A1 PUSH1 0x17 DUP4 PUSH2 0x167D JUMP JUMPDEST SWAP2 POP PUSH2 0x13AC DUP3 PUSH2 0x18EE JUMP JUMPDEST PUSH1 0x20 DUP3 ADD SWAP1 POP SWAP2 SWAP1 POP JUMP JUMPDEST PUSH1 0x0 PUSH2 0x13C4 PUSH1 0x11 DUP4 PUSH2 0x167D JUMP JUMPDEST SWAP2 POP PUSH2 0x13CF DUP3 PUSH2 0x1917 JUMP JUMPDEST PUSH1 0x20 DUP3 ADD SWAP1 POP SWAP2 SWAP1 POP JUMP JUMPDEST PUSH1 0x0 PUSH2 0x13E7 PUSH1 0x1D DUP4 PUSH2 0x167D JUMP JUMPDEST SWAP2 POP PUSH2 0x13F2 DUP3 PUSH2 0x1940 JUMP JUMPDEST PUSH1 0x20 DUP3 ADD SWAP1 POP SWAP2 SWAP1 POP JUMP JUMPDEST PUSH1 0x0 PUSH2 0x140A PUSH1 0x1A DUP4 PUSH2 0x167D JUMP JUMPDEST SWAP2 POP PUSH2 0x1415 DUP3 PUSH2 0x1969 JUMP JUMPDEST PUSH1 0x20 DUP3 ADD SWAP1 POP SWAP2 SWAP1 POP JUMP JUMPDEST PUSH1 0x0 PUSH2 0x142D PUSH1 0x2A DUP4 PUSH2 0x167D JUMP JUMPDEST SWAP2 POP PUSH2 0x1438 DUP3 PUSH2 0x1992 JUMP JUMPDEST PUSH1 0x40 DUP3 ADD SWAP1 POP SWAP2 SWAP1 POP JUMP JUMPDEST PUSH2 0x144C DUP2 PUSH2 0x177C JUMP JUMPDEST DUP3 MSTORE POP POP JUMP JUMPDEST PUSH1 0x0 PUSH2 0x145E DUP3 DUP5 PUSH2 0x129E JUMP JUMPDEST SWAP2 POP DUP2 SWAP1 POP SWAP3 SWAP2 POP POP JUMP JUMPDEST PUSH1 0x0 PUSH1 0x20 DUP3 ADD SWAP1 POP PUSH2 0x147E PUSH1 0x0 DUP4 ADD DUP5 PUSH2 0x1280 JUMP JUMPDEST SWAP3 SWAP2 POP POP JUMP JUMPDEST PUSH1 0x0 PUSH1 0x60 DUP3 ADD SWAP1 POP PUSH2 0x1499 PUSH1 0x0 DUP4 ADD DUP7 PUSH2 0x1280 JUMP JUMPDEST PUSH2 0x14A6 PUSH1 0x20 DUP4 ADD DUP6 PUSH2 0x1280 JUMP JUMPDEST PUSH2 0x14B3 PUSH1 0x40 DUP4 ADD DUP5 PUSH2 0x1443 JUMP JUMPDEST SWAP5 SWAP4 POP POP POP POP JUMP JUMPDEST PUSH1 0x0 PUSH1 0x40 DUP3 ADD SWAP1 POP PUSH2 0x14D0 PUSH1 0x0 DUP4 ADD DUP6 PUSH2 0x1280 JUMP JUMPDEST PUSH2 0x14DD PUSH1 0x20 DUP4 ADD DUP5 PUSH2 0x1443 JUMP JUMPDEST SWAP4 SWAP3 POP POP POP JUMP JUMPDEST PUSH1 0x0 PUSH1 0x20 DUP3 ADD SWAP1 POP PUSH2 0x14F9 PUSH1 0x0 DUP4 ADD DUP5 PUSH2 0x128F JUMP JUMPDEST SWAP3 SWAP2 POP POP JUMP JUMPDEST PUSH1 0x0 PUSH1 0x20 DUP3 ADD SWAP1 POP DUP2 DUP2 SUB PUSH1 0x0 DUP4 ADD MSTORE PUSH2 0x1519 DUP2 DUP5 PUSH2 0x12CF JUMP JUMPDEST SWAP1 POP SWAP3 SWAP2 POP POP JUMP JUMPDEST PUSH1 0x0 PUSH1 0x20 DUP3 ADD SWAP1 POP DUP2 DUP2 SUB PUSH1 0x0 DUP4 ADD MSTORE PUSH2 0x153A DUP2 PUSH2 0x1308 JUMP JUMPDEST SWAP1 POP SWAP2 SWAP1 POP JUMP JUMPDEST PUSH1 0x0 PUSH1 0x20 DUP3 ADD SWAP1 POP DUP2 DUP2 SUB PUSH1 0x0 DUP4 ADD MSTORE PUSH2 0x155A DUP2 PUSH2 0x132B JUMP JUMPDEST SWAP1 POP SWAP2 SWAP1 POP JUMP JUMPDEST PUSH1 0x0 PUSH1 0x20 DUP3 ADD SWAP1 POP DUP2 DUP2 SUB PUSH1 0x0 DUP4 ADD MSTORE PUSH2 0x157A DUP2 PUSH2 0x134E JUMP JUMPDEST SWAP1 POP SWAP2 SWAP1 POP JUMP JUMPDEST PUSH1 0x0 PUSH1 0x20 DUP3 ADD SWAP1 POP DUP2 DUP2 SUB PUSH1 0x0 DUP4 ADD MSTORE PUSH2 0x159A DUP2 PUSH2 0x1371 JUMP JUMPDEST SWAP1 POP SWAP2 SWAP1 POP JUMP JUMPDEST PUSH1 0x0 PUSH1 0x20 DUP3 ADD SWAP1 POP DUP2 DUP2 SUB PUSH1 0x0 DUP4 ADD MSTORE PUSH2 0x15BA DUP2 PUSH2 0x1394 JUMP JUMPDEST SWAP1 POP SWAP2 SWAP1 POP JUMP JUMPDEST PUSH1 0x0 PUSH1 0x20 DUP3 ADD SWAP1 POP DUP2 DUP2 SUB PUSH1 0x0 DUP4 ADD MSTORE PUSH2 0x15DA DUP2 PUSH2 0x13B7 JUMP JUMPDEST SWAP1 POP SWAP2 SWAP1 POP JUMP JUMPDEST PUSH1 0x0 PUSH1 0x20 DUP3 ADD SWAP1 POP DUP2 DUP2 SUB PUSH1 0x0 DUP4 ADD MSTORE PUSH2 0x15FA DUP2 PUSH2 0x13DA JUMP JUMPDEST SWAP1 POP SWAP2 SWAP1 POP JUMP JUMPDEST PUSH1 0x0 PUSH1 0x20 DUP3 ADD SWAP1 POP DUP2 DUP2 SUB PUSH1 0x0 DUP4 ADD MSTORE PUSH2 0x161A DUP2 PUSH2 0x13FD JUMP JUMPDEST SWAP1 POP SWAP2 SWAP1 POP JUMP JUMPDEST PUSH1 0x0 PUSH1 0x20 DUP3 ADD SWAP1 POP DUP2 DUP2 SUB PUSH1 0x0 DUP4 ADD MSTORE PUSH2 0x163A DUP2 PUSH2 0x1420 JUMP JUMPDEST SWAP1 POP SWAP2 SWAP1 POP JUMP JUMPDEST PUSH1 0x0 PUSH1 0x20 DUP3 ADD SWAP1 POP PUSH2 0x1656 PUSH1 0x0 DUP4 ADD DUP5 PUSH2 0x1443 JUMP JUMPDEST SWAP3 SWAP2 POP POP JUMP JUMPDEST PUSH1 0x0 DUP2 MLOAD SWAP1 POP SWAP2 SWAP1 POP JUMP JUMPDEST PUSH1 0x0 DUP2 MLOAD SWAP1 POP SWAP2 SWAP1 POP JUMP JUMPDEST PUSH1 0x0 DUP2 SWAP1 POP SWAP3 SWAP2 POP POP JUMP JUMPDEST PUSH1 0x0 DUP3 DUP3 MSTORE PUSH1 0x20 DUP3 ADD SWAP1 POP SWAP3 SWAP2 POP POP JUMP JUMPDEST PUSH1 0x0 PUSH2 0x1699 DUP3 PUSH2 0x177C JUMP JUMPDEST SWAP2 POP PUSH2 0x16A4 DUP4 PUSH2 0x177C JUMP JUMPDEST SWAP3 POP DUP3 PUSH32 0xFFFFFFFFFFFFFFFFFFFFFFFFFFFFFFFFFFFFFFFFFFFFFFFFFFFFFFFFFFFFFFFF SUB DUP3 GT ISZERO PUSH2 0x16D9 JUMPI PUSH2 0x16D8 PUSH2 0x17B9 JUMP JUMPDEST JUMPDEST DUP3 DUP3 ADD SWAP1 POP SWAP3 SWAP2 POP POP JUMP JUMPDEST PUSH1 0x0 PUSH2 0x16EF DUP3 PUSH2 0x177C JUMP JUMPDEST SWAP2 POP PUSH2 0x16FA DUP4 PUSH2 0x177C JUMP JUMPDEST SWAP3 POP DUP2 PUSH32 0xFFFFFFFFFFFFFFFFFFFFFFFFFFFFFFFFFFFFFFFFFFFFFFFFFFFFFFFFFFFFFFFF DIV DUP4 GT DUP3 ISZERO ISZERO AND ISZERO PUSH2 0x1733 JUMPI PUSH2 0x1732 PUSH2 0x17B9 JUMP JUMPDEST JUMPDEST DUP3 DUP3 MUL SWAP1 POP SWAP3 SWAP2 POP POP JUMP JUMPDEST PUSH1 0x0 PUSH2 0x1749 DUP3 PUSH2 0x175C JUMP JUMPDEST SWAP1 POP SWAP2 SWAP1 POP JUMP JUMPDEST PUSH1 0x0 DUP2 ISZERO ISZERO SWAP1 POP SWAP2 SWAP1 POP JUMP JUMPDEST PUSH1 0x0 PUSH20 0xFFFFFFFFFFFFFFFFFFFFFFFFFFFFFFFFFFFFFFFF DUP3 AND SWAP1 POP SWAP2 SWAP1 POP JUMP JUMPDEST PUSH1 0x0 DUP2 SWAP1 POP SWAP2 SWAP1 POP JUMP JUMPDEST PUSH1 0x0 JUMPDEST DUP4 DUP2 LT ISZERO PUSH2 0x17A4 JUMPI DUP1 DUP3 ADD MLOAD DUP2 DUP5 ADD MSTORE PUSH1 0x20 DUP2 ADD SWAP1 POP PUSH2 0x1789 JUMP JUMPDEST DUP4 DUP2 GT ISZERO PUSH2 0x17B3 JUMPI PUSH1 0x0 DUP5 DUP5 ADD MSTORE JUMPDEST POP POP POP POP JUMP JUMPDEST PUSH32 0x4E487B7100000000000000000000000000000000000000000000000000000000 PUSH1 0x0 MSTORE PUSH1 0x11 PUSH1 0x4 MSTORE PUSH1 0x24 PUSH1 0x0 REVERT JUMPDEST PUSH1 0x0 DUP1 REVERT JUMPDEST PUSH1 0x0 PUSH1 0x1F NOT PUSH1 0x1F DUP4 ADD AND SWAP1 POP SWAP2 SWAP1 POP JUMP JUMPDEST PUSH32 0x4F776E61626C653A206E6577206F776E657220697320746865207A65726F2061 PUSH1 0x0 DUP3 ADD MSTORE PUSH32 0x6464726573730000000000000000000000000000000000000000000000000000 PUSH1 0x20 DUP3 ADD MSTORE POP JUMP JUMPDEST PUSH32 0x53616C652068617320656E646564000000000000000000000000000000000000 PUSH1 0x0 DUP3 ADD MSTORE POP JUMP JUMPDEST PUSH32 0x416464726573733A20696E73756666696369656E742062616C616E636520666F PUSH1 0x0 DUP3 ADD MSTORE PUSH32 0x722063616C6C0000000000000000000000000000000000000000000000000000 PUSH1 0x20 DUP3 ADD MSTORE POP JUMP JUMPDEST PUSH32 0x4F776E61626C653A2063616C6C6572206973206E6F7420746865206F776E6572 PUSH1 0x0 DUP3 ADD MSTORE POP JUMP JUMPDEST PUSH32 0x53616C65206861736E2774207374617274656420796574000000000000000000 PUSH1 0x0 DUP3 ADD MSTORE POP JUMP JUMPDEST PUSH32 0x53616C65206861736E277420656E646564000000000000000000000000000000 PUSH1 0x0 DUP3 ADD MSTORE POP JUMP JUMPDEST PUSH32 0x416464726573733A2063616C6C20746F206E6F6E2D636F6E7472616374000000 PUSH1 0x0 DUP3 ADD MSTORE POP JUMP JUMPDEST PUSH32 0x4E6F7420656E6F75676820746F6B656E20746F2072657475726E000000000000 PUSH1 0x0 DUP3 ADD MSTORE POP JUMP JUMPDEST PUSH32 0x5361666545524332303A204552433230206F7065726174696F6E20646964206E PUSH1 0x0 DUP3 ADD MSTORE PUSH32 0x6F74207375636365656400000000000000000000000000000000000000000000 PUSH1 0x20 DUP3 ADD MSTORE POP JUMP JUMPDEST PUSH2 0x19EA DUP2 PUSH2 0x173E JUMP JUMPDEST DUP2 EQ PUSH2 0x19F5 JUMPI PUSH1 0x0 DUP1 REVERT JUMPDEST POP JUMP JUMPDEST PUSH2 0x1A01 DUP2 PUSH2 0x1750 JUMP JUMPDEST DUP2 EQ PUSH2 0x1A0C JUMPI PUSH1 0x0 DUP1 REVERT JUMPDEST POP JUMP JUMPDEST PUSH2 0x1A18 DUP2 PUSH2 0x177C JUMP JUMPDEST DUP2 EQ PUSH2 0x1A23 JUMPI PUSH1 0x0 DUP1 REVERT JUMPDEST POP JUMP INVALID LOG2 PUSH5 0x6970667358 0x22 SLT KECCAK256 0xBD DUP14 PUSH17 0xA0B92E4F6A710A04C8C1DDB6A05DA5677F AND PUSH17 0x9C1E2FBFA83C89FA3ED64736F6C634300 ADDMOD SMOD STOP CALLER "
				},
				"gasEstimates": {
					"creation": {
						"codeDepositCost": "1349600",
						"executionCost": "infinite",
						"totalCost": "infinite"
					},
					"external": {
						"Return(address)": "infinite",
						"_usdcInstance()": "2537",
						"bala(address)": "infinite",
						"getOwner()": "2580",
						"getRecord(address)": "2886",
						"owner()": "2567",
						"purchase(uint256)": "infinite",
						"renounceOwnership()": "30463",
						"saleEnd()": "2459",
						"saleStart()": "2526",
						"tokenAddress()": "2589",
						"transferOwnership(address)": "30811",
						"updateSaleEndTime(uint256)": "24827",
						"updateSaleStartTime(uint256)": "24806",
						"withdraw(address)": "infinite"
					}
				},
				"methodIdentifiers": {
					"Return(address)": "de2d583a",
					"_usdcInstance()": "61778592",
					"bala(address)": "24076451",
					"getOwner()": "893d20e8",
					"getRecord(address)": "617fba04",
					"owner()": "8da5cb5b",
					"purchase(uint256)": "efef39a1",
					"renounceOwnership()": "715018a6",
					"saleEnd()": "c10b9358",
					"saleStart()": "ab0bcc41",
					"tokenAddress()": "9d76ea58",
					"transferOwnership(address)": "f2fde38b",
					"updateSaleEndTime(uint256)": "6f9c6149",
					"updateSaleStartTime(uint256)": "295e4edf",
					"withdraw(address)": "51cff8d9"
				}
			},
			"storageLayout": {
				"storage": [
					{
						"astId": 7,
						"contract": "contracts/TokenSale.sol:TokenSale",
						"label": "_owner",
						"offset": 0,
						"slot": "0",
						"type": "t_address"
					},
					{
						"astId": 736,
						"contract": "contracts/TokenSale.sol:TokenSale",
						"label": "_tokenAddress",
						"offset": 0,
						"slot": "1",
						"type": "t_address"
					},
					{
						"astId": 738,
						"contract": "contracts/TokenSale.sol:TokenSale",
						"label": "_saleStart",
						"offset": 0,
						"slot": "2",
						"type": "t_uint256"
					},
					{
						"astId": 740,
						"contract": "contracts/TokenSale.sol:TokenSale",
						"label": "_saleEnd",
						"offset": 0,
						"slot": "3",
						"type": "t_uint256"
					},
					{
						"astId": 742,
						"contract": "contracts/TokenSale.sol:TokenSale",
						"label": "_usdcInstance",
						"offset": 0,
						"slot": "4",
						"type": "t_address"
					},
					{
						"astId": 746,
						"contract": "contracts/TokenSale.sol:TokenSale",
						"label": "record",
						"offset": 0,
						"slot": "5",
						"type": "t_mapping(t_address,t_uint256)"
					}
				],
				"types": {
					"t_address": {
						"encoding": "inplace",
						"label": "address",
						"numberOfBytes": "20"
					},
					"t_mapping(t_address,t_uint256)": {
						"encoding": "mapping",
						"key": "t_address",
						"label": "mapping(address => uint256)",
						"numberOfBytes": "32",
						"value": "t_uint256"
					},
					"t_uint256": {
						"encoding": "inplace",
						"label": "uint256",
						"numberOfBytes": "32"
					}
				}
			},
			"userdoc": {
				"kind": "user",
				"methods": {},
				"version": 1
			}
		}
	}
}