{
	"contracts/TokenSale.sol": {
		"TokenSale": {
			"abi": [
				{
					"inputs": [
						{
							"internalType": "address",
							"name": "_owner",
							"type": "address"
						},
						{
							"internalType": "address",
							"name": "tokenAddress_",
							"type": "address"
						},
						{
							"internalType": "uint256",
							"name": "saleStart_",
							"type": "uint256"
						},
						{
							"internalType": "uint256",
							"name": "saleEnd_",
							"type": "uint256"
						},
						{
							"internalType": "address",
							"name": "usdcAddress_",
							"type": "address"
						}
					],
					"stateMutability": "nonpayable",
					"type": "constructor"
				},
				{
					"anonymous": false,
					"inputs": [
						{
							"indexed": true,
							"internalType": "address",
							"name": "previousOwner",
							"type": "address"
						},
						{
							"indexed": true,
							"internalType": "address",
							"name": "newOwner",
							"type": "address"
						}
					],
					"name": "OwnershipTransferred",
					"type": "event"
				},
				{
					"inputs": [
						{
							"internalType": "uint256",
							"name": "_amount",
							"type": "uint256"
						}
					],
					"name": "Return",
					"outputs": [
						{
							"internalType": "bool",
							"name": "",
							"type": "bool"
						}
					],
					"stateMutability": "nonpayable",
					"type": "function"
				},
				{
					"inputs": [],
					"name": "_usdcInstance",
					"outputs": [
						{
							"internalType": "address",
							"name": "",
							"type": "address"
						}
					],
					"stateMutability": "view",
					"type": "function"
				},
				{
					"inputs": [
						{
							"internalType": "address",
							"name": "add",
							"type": "address"
						}
					],
					"name": "bala",
					"outputs": [
						{
							"internalType": "uint256",
							"name": "",
							"type": "uint256"
						}
					],
					"stateMutability": "view",
					"type": "function"
				},
				{
					"inputs": [],
					"name": "claim",
					"outputs": [],
					"stateMutability": "nonpayable",
					"type": "function"
				},
				{
					"inputs": [],
					"name": "getOwner",
					"outputs": [
						{
							"internalType": "address",
							"name": "",
							"type": "address"
						}
					],
					"stateMutability": "view",
					"type": "function"
				},
				{
					"inputs": [
						{
							"internalType": "address",
							"name": "_address",
							"type": "address"
						}
					],
					"name": "getRecord",
					"outputs": [
						{
							"internalType": "uint256",
							"name": "",
							"type": "uint256"
						}
					],
					"stateMutability": "view",
					"type": "function"
				},
				{
					"inputs": [],
					"name": "owner",
					"outputs": [
						{
							"internalType": "address",
							"name": "",
							"type": "address"
						}
					],
					"stateMutability": "view",
					"type": "function"
				},
				{
					"inputs": [
						{
							"internalType": "uint256",
							"name": "_amount",
							"type": "uint256"
						}
					],
					"name": "purchase",
					"outputs": [],
					"stateMutability": "nonpayable",
					"type": "function"
				},
				{
					"inputs": [],
					"name": "renounceOwnership",
					"outputs": [],
					"stateMutability": "nonpayable",
					"type": "function"
				},
				{
					"inputs": [],
					"name": "saleEnd",
					"outputs": [
						{
							"internalType": "uint256",
							"name": "",
							"type": "uint256"
						}
					],
					"stateMutability": "view",
					"type": "function"
				},
				{
					"inputs": [],
					"name": "saleStart",
					"outputs": [
						{
							"internalType": "uint256",
							"name": "",
							"type": "uint256"
						}
					],
					"stateMutability": "view",
					"type": "function"
				},
				{
					"inputs": [],
					"name": "tokenAddress",
					"outputs": [
						{
							"internalType": "address",
							"name": "",
							"type": "address"
						}
					],
					"stateMutability": "view",
					"type": "function"
				},
				{
					"inputs": [
						{
							"internalType": "address",
							"name": "newOwner",
							"type": "address"
						}
					],
					"name": "transferOwnership",
					"outputs": [],
					"stateMutability": "nonpayable",
					"type": "function"
				},
				{
					"inputs": [
						{
							"internalType": "uint256",
							"name": "updatedSaleEndTime",
							"type": "uint256"
						}
					],
					"name": "updateSaleEndTime",
					"outputs": [],
					"stateMutability": "nonpayable",
					"type": "function"
				},
				{
					"inputs": [
						{
							"internalType": "uint256",
							"name": "updatedSaleStartTime",
							"type": "uint256"
						}
					],
					"name": "updateSaleStartTime",
					"outputs": [],
					"stateMutability": "nonpayable",
					"type": "function"
				},
				{
					"inputs": [
						{
							"internalType": "address",
							"name": "_to",
							"type": "address"
						},
						{
							"internalType": "uint256",
							"name": "_amt",
							"type": "uint256"
						}
					],
					"name": "withdraw",
					"outputs": [],
					"stateMutability": "nonpayable",
					"type": "function"
				}
			],
			"devdoc": {
				"kind": "dev",
				"methods": {
					"owner()": {
						"details": "Returns the address of the current owner."
					},
					"renounceOwnership()": {
						"details": "Leaves the contract without owner. It will not be possible to call `onlyOwner` functions anymore. Can only be called by the current owner. NOTE: Renouncing ownership will leave the contract without an owner, thereby removing any functionality that is only available to the owner."
					},
					"transferOwnership(address)": {
						"details": "Transfers ownership of the contract to a new account (`newOwner`). Can only be called by the current owner."
					}
				},
				"version": 1
			},
			"evm": {
				"assembly": "    /* \"contracts/TokenSale.sol\":285:2884  contract TokenSale is Ownable{\r... */\n  mstore(0x40, 0x80)\n    /* \"contracts/TokenSale.sol\":522:794  constructor(address _owner,address tokenAddress_,uint256 saleStart_,uint256 saleEnd_,address usdcAddress_){\r... */\n  callvalue\n  dup1\n  iszero\n  tag_1\n  jumpi\n  0x00\n  dup1\n  revert\ntag_1:\n  pop\n  mload(0x40)\n  sub(codesize, bytecodeSize)\n  dup1\n  bytecodeSize\n  dup4\n  codecopy\n  dup2\n  dup2\n  add\n  0x40\n  mstore\n  dup2\n  add\n  swap1\n  tag_2\n  swap2\n  swap1\n  tag_3\n  jump\t// in\ntag_2:\n    /* \"@openzeppelin/contracts/access/Ownable.sol\":921:953  _transferOwnership(_msgSender()) */\n  tag_7\n    /* \"@openzeppelin/contracts/access/Ownable.sol\":940:952  _msgSender() */\n  tag_8\n    /* \"@openzeppelin/contracts/access/Ownable.sol\":940:950  _msgSender */\n  shl(0x20, tag_9)\n    /* \"@openzeppelin/contracts/access/Ownable.sol\":940:952  _msgSender() */\n  0x20\n  shr\n  jump\t// in\ntag_8:\n    /* \"@openzeppelin/contracts/access/Ownable.sol\":921:939  _transferOwnership */\n  shl(0x20, tag_10)\n    /* \"@openzeppelin/contracts/access/Ownable.sol\":921:953  _transferOwnership(_msgSender()) */\n  0x20\n  shr\n  jump\t// in\ntag_7:\n    /* \"contracts/TokenSale.sol\":635:661  _transferOwnership(_owner) */\n  tag_12\n    /* \"contracts/TokenSale.sol\":654:660  _owner */\n  dup6\n    /* \"contracts/TokenSale.sol\":635:653  _transferOwnership */\n  shl(0x20, tag_10)\n    /* \"contracts/TokenSale.sol\":635:661  _transferOwnership(_owner) */\n  0x20\n  shr\n  jump\t// in\ntag_12:\n    /* \"contracts/TokenSale.sol\":684:696  usdcAddress_ */\n  dup1\n    /* \"contracts/TokenSale.sol\":668:681  _usdcInstance */\n  0x04\n  0x00\n    /* \"contracts/TokenSale.sol\":668:696  _usdcInstance = usdcAddress_ */\n  0x0100\n  exp\n  dup2\n  sload\n  dup2\n  0xffffffffffffffffffffffffffffffffffffffff\n  mul\n  not\n  and\n  swap1\n  dup4\n  0xffffffffffffffffffffffffffffffffffffffff\n  and\n  mul\n  or\n  swap1\n  sstore\n  pop\n    /* \"contracts/TokenSale.sol\":719:732  tokenAddress_ */\n  dup4\n    /* \"contracts/TokenSale.sol\":703:716  _tokenAddress */\n  0x01\n  0x00\n    /* \"contracts/TokenSale.sol\":703:732  _tokenAddress = tokenAddress_ */\n  0x0100\n  exp\n  dup2\n  sload\n  dup2\n  0xffffffffffffffffffffffffffffffffffffffff\n  mul\n  not\n  and\n  swap1\n  dup4\n  0xffffffffffffffffffffffffffffffffffffffff\n  and\n  mul\n  or\n  swap1\n  sstore\n  pop\n    /* \"contracts/TokenSale.sol\":752:762  saleStart_ */\n  dup3\n    /* \"contracts/TokenSale.sol\":739:749  _saleStart */\n  0x02\n    /* \"contracts/TokenSale.sol\":739:762  _saleStart = saleStart_ */\n  dup2\n  swap1\n  sstore\n  pop\n    /* \"contracts/TokenSale.sol\":780:788  saleEnd_ */\n  dup2\n    /* \"contracts/TokenSale.sol\":769:777  _saleEnd */\n  0x03\n    /* \"contracts/TokenSale.sol\":769:788  _saleEnd = saleEnd_ */\n  dup2\n  swap1\n  sstore\n  pop\n    /* \"contracts/TokenSale.sol\":522:794  constructor(address _owner,address tokenAddress_,uint256 saleStart_,uint256 saleEnd_,address usdcAddress_){\r... */\n  pop\n  pop\n  pop\n  pop\n  pop\n    /* \"contracts/TokenSale.sol\":285:2884  contract TokenSale is Ownable{\r... */\n  jump(tag_13)\n    /* \"@openzeppelin/contracts/utils/Context.sol\":640:736  function _msgSender() internal view virtual returns (address) {... */\ntag_9:\n    /* \"@openzeppelin/contracts/utils/Context.sol\":693:700  address */\n  0x00\n    /* \"@openzeppelin/contracts/utils/Context.sol\":719:729  msg.sender */\n  caller\n    /* \"@openzeppelin/contracts/utils/Context.sol\":712:729  return msg.sender */\n  swap1\n  pop\n    /* \"@openzeppelin/contracts/utils/Context.sol\":640:736  function _msgSender() internal view virtual returns (address) {... */\n  swap1\n  jump\t// out\n    /* \"@openzeppelin/contracts/access/Ownable.sol\":2270:2457  function _transferOwnership(address newOwner) internal virtual {... */\ntag_10:\n    /* \"@openzeppelin/contracts/access/Ownable.sol\":2343:2359  address oldOwner */\n  0x00\n    /* \"@openzeppelin/contracts/access/Ownable.sol\":2362:2368  _owner */\n  dup1\n  0x00\n  swap1\n  sload\n  swap1\n  0x0100\n  exp\n  swap1\n  div\n  0xffffffffffffffffffffffffffffffffffffffff\n  and\n    /* \"@openzeppelin/contracts/access/Ownable.sol\":2343:2368  address oldOwner = _owner */\n  swap1\n  pop\n    /* \"@openzeppelin/contracts/access/Ownable.sol\":2387:2395  newOwner */\n  dup2\n    /* \"@openzeppelin/contracts/access/Ownable.sol\":2378:2384  _owner */\n  0x00\n  dup1\n    /* \"@openzeppelin/contracts/access/Ownable.sol\":2378:2395  _owner = newOwner */\n  0x0100\n  exp\n  dup2\n  sload\n  dup2\n  0xffffffffffffffffffffffffffffffffffffffff\n  mul\n  not\n  and\n  swap1\n  dup4\n  0xffffffffffffffffffffffffffffffffffffffff\n  and\n  mul\n  or\n  swap1\n  sstore\n  pop\n    /* \"@openzeppelin/contracts/access/Ownable.sol\":2441:2449  newOwner */\n  dup2\n    /* \"@openzeppelin/contracts/access/Ownable.sol\":2410:2450  OwnershipTransferred(oldOwner, newOwner) */\n  0xffffffffffffffffffffffffffffffffffffffff\n  and\n    /* \"@openzeppelin/contracts/access/Ownable.sol\":2431:2439  oldOwner */\n  dup2\n    /* \"@openzeppelin/contracts/access/Ownable.sol\":2410:2450  OwnershipTransferred(oldOwner, newOwner) */\n  0xffffffffffffffffffffffffffffffffffffffff\n  and\n  0x8be0079c531659141344cd1fd0a4f28419497f9722a3daafe3b4186f6b6457e0\n  mload(0x40)\n  mload(0x40)\n  dup1\n  swap2\n  sub\n  swap1\n  log3\n    /* \"@openzeppelin/contracts/access/Ownable.sol\":2333:2457  {... */\n  pop\n    /* \"@openzeppelin/contracts/access/Ownable.sol\":2270:2457  function _transferOwnership(address newOwner) internal virtual {... */\n  pop\n  jump\t// out\n    /* \"#utility.yul\":7:150   */\ntag_17:\n    /* \"#utility.yul\":64:69   */\n  0x00\n    /* \"#utility.yul\":95:101   */\n  dup2\n    /* \"#utility.yul\":89:102   */\n  mload\n    /* \"#utility.yul\":80:102   */\n  swap1\n  pop\n    /* \"#utility.yul\":111:144   */\n  tag_19\n    /* \"#utility.yul\":138:143   */\n  dup2\n    /* \"#utility.yul\":111:144   */\n  tag_20\n  jump\t// in\ntag_19:\n    /* \"#utility.yul\":7:150   */\n  swap3\n  swap2\n  pop\n  pop\n  jump\t// out\n    /* \"#utility.yul\":156:299   */\ntag_21:\n    /* \"#utility.yul\":213:218   */\n  0x00\n    /* \"#utility.yul\":244:250   */\n  dup2\n    /* \"#utility.yul\":238:251   */\n  mload\n    /* \"#utility.yul\":229:251   */\n  swap1\n  pop\n    /* \"#utility.yul\":260:293   */\n  tag_23\n    /* \"#utility.yul\":287:292   */\n  dup2\n    /* \"#utility.yul\":260:293   */\n  tag_24\n  jump\t// in\ntag_23:\n    /* \"#utility.yul\":156:299   */\n  swap3\n  swap2\n  pop\n  pop\n  jump\t// out\n    /* \"#utility.yul\":305:1282   */\ntag_3:\n    /* \"#utility.yul\":411:417   */\n  0x00\n    /* \"#utility.yul\":419:425   */\n  dup1\n    /* \"#utility.yul\":427:433   */\n  0x00\n    /* \"#utility.yul\":435:441   */\n  dup1\n    /* \"#utility.yul\":443:449   */\n  0x00\n    /* \"#utility.yul\":492:495   */\n  0xa0\n    /* \"#utility.yul\":480:489   */\n  dup7\n    /* \"#utility.yul\":471:478   */\n  dup9\n    /* \"#utility.yul\":467:490   */\n  sub\n    /* \"#utility.yul\":463:496   */\n  slt\n    /* \"#utility.yul\":460:580   */\n  iszero\n  tag_26\n  jumpi\n    /* \"#utility.yul\":499:578   */\n  tag_27\n  tag_28\n  jump\t// in\ntag_27:\n    /* \"#utility.yul\":460:580   */\ntag_26:\n    /* \"#utility.yul\":619:620   */\n  0x00\n    /* \"#utility.yul\":644:708   */\n  tag_29\n    /* \"#utility.yul\":700:707   */\n  dup9\n    /* \"#utility.yul\":691:697   */\n  dup3\n    /* \"#utility.yul\":680:689   */\n  dup10\n    /* \"#utility.yul\":676:698   */\n  add\n    /* \"#utility.yul\":644:708   */\n  tag_17\n  jump\t// in\ntag_29:\n    /* \"#utility.yul\":634:708   */\n  swap6\n  pop\n    /* \"#utility.yul\":590:718   */\n  pop\n    /* \"#utility.yul\":757:759   */\n  0x20\n    /* \"#utility.yul\":783:847   */\n  tag_30\n    /* \"#utility.yul\":839:846   */\n  dup9\n    /* \"#utility.yul\":830:836   */\n  dup3\n    /* \"#utility.yul\":819:828   */\n  dup10\n    /* \"#utility.yul\":815:837   */\n  add\n    /* \"#utility.yul\":783:847   */\n  tag_17\n  jump\t// in\ntag_30:\n    /* \"#utility.yul\":773:847   */\n  swap5\n  pop\n    /* \"#utility.yul\":728:857   */\n  pop\n    /* \"#utility.yul\":896:898   */\n  0x40\n    /* \"#utility.yul\":922:986   */\n  tag_31\n    /* \"#utility.yul\":978:985   */\n  dup9\n    /* \"#utility.yul\":969:975   */\n  dup3\n    /* \"#utility.yul\":958:967   */\n  dup10\n    /* \"#utility.yul\":954:976   */\n  add\n    /* \"#utility.yul\":922:986   */\n  tag_21\n  jump\t// in\ntag_31:\n    /* \"#utility.yul\":912:986   */\n  swap4\n  pop\n    /* \"#utility.yul\":867:996   */\n  pop\n    /* \"#utility.yul\":1035:1037   */\n  0x60\n    /* \"#utility.yul\":1061:1125   */\n  tag_32\n    /* \"#utility.yul\":1117:1124   */\n  dup9\n    /* \"#utility.yul\":1108:1114   */\n  dup3\n    /* \"#utility.yul\":1097:1106   */\n  dup10\n    /* \"#utility.yul\":1093:1115   */\n  add\n    /* \"#utility.yul\":1061:1125   */\n  tag_21\n  jump\t// in\ntag_32:\n    /* \"#utility.yul\":1051:1125   */\n  swap3\n  pop\n    /* \"#utility.yul\":1006:1135   */\n  pop\n    /* \"#utility.yul\":1174:1177   */\n  0x80\n    /* \"#utility.yul\":1201:1265   */\n  tag_33\n    /* \"#utility.yul\":1257:1264   */\n  dup9\n    /* \"#utility.yul\":1248:1254   */\n  dup3\n    /* \"#utility.yul\":1237:1246   */\n  dup10\n    /* \"#utility.yul\":1233:1255   */\n  add\n    /* \"#utility.yul\":1201:1265   */\n  tag_17\n  jump\t// in\ntag_33:\n    /* \"#utility.yul\":1191:1265   */\n  swap2\n  pop\n    /* \"#utility.yul\":1145:1275   */\n  pop\n    /* \"#utility.yul\":305:1282   */\n  swap3\n  swap6\n  pop\n  swap3\n  swap6\n  swap1\n  swap4\n  pop\n  jump\t// out\n    /* \"#utility.yul\":1369:1465   */\ntag_36:\n    /* \"#utility.yul\":1406:1413   */\n  0x00\n    /* \"#utility.yul\":1435:1459   */\n  tag_38\n    /* \"#utility.yul\":1453:1458   */\n  dup3\n    /* \"#utility.yul\":1435:1459   */\n  tag_39\n  jump\t// in\ntag_38:\n    /* \"#utility.yul\":1424:1459   */\n  swap1\n  pop\n    /* \"#utility.yul\":1369:1465   */\n  swap2\n  swap1\n  pop\n  jump\t// out\n    /* \"#utility.yul\":1471:1597   */\ntag_39:\n    /* \"#utility.yul\":1508:1515   */\n  0x00\n    /* \"#utility.yul\":1548:1590   */\n  0xffffffffffffffffffffffffffffffffffffffff\n    /* \"#utility.yul\":1541:1546   */\n  dup3\n    /* \"#utility.yul\":1537:1591   */\n  and\n    /* \"#utility.yul\":1526:1591   */\n  swap1\n  pop\n    /* \"#utility.yul\":1471:1597   */\n  swap2\n  swap1\n  pop\n  jump\t// out\n    /* \"#utility.yul\":1603:1680   */\ntag_41:\n    /* \"#utility.yul\":1640:1647   */\n  0x00\n    /* \"#utility.yul\":1669:1674   */\n  dup2\n    /* \"#utility.yul\":1658:1674   */\n  swap1\n  pop\n    /* \"#utility.yul\":1603:1680   */\n  swap2\n  swap1\n  pop\n  jump\t// out\n    /* \"#utility.yul\":1809:1926   */\ntag_28:\n    /* \"#utility.yul\":1918:1919   */\n  0x00\n    /* \"#utility.yul\":1915:1916   */\n  dup1\n    /* \"#utility.yul\":1908:1920   */\n  revert\n    /* \"#utility.yul\":1932:2054   */\ntag_20:\n    /* \"#utility.yul\":2005:2029   */\n  tag_47\n    /* \"#utility.yul\":2023:2028   */\n  dup2\n    /* \"#utility.yul\":2005:2029   */\n  tag_36\n  jump\t// in\ntag_47:\n    /* \"#utility.yul\":1998:2003   */\n  dup2\n    /* \"#utility.yul\":1995:2030   */\n  eq\n    /* \"#utility.yul\":1985:2048   */\n  tag_48\n  jumpi\n    /* \"#utility.yul\":2044:2045   */\n  0x00\n    /* \"#utility.yul\":2041:2042   */\n  dup1\n    /* \"#utility.yul\":2034:2046   */\n  revert\n    /* \"#utility.yul\":1985:2048   */\ntag_48:\n    /* \"#utility.yul\":1932:2054   */\n  pop\n  jump\t// out\n    /* \"#utility.yul\":2060:2182   */\ntag_24:\n    /* \"#utility.yul\":2133:2157   */\n  tag_50\n    /* \"#utility.yul\":2151:2156   */\n  dup2\n    /* \"#utility.yul\":2133:2157   */\n  tag_41\n  jump\t// in\ntag_50:\n    /* \"#utility.yul\":2126:2131   */\n  dup2\n    /* \"#utility.yul\":2123:2158   */\n  eq\n    /* \"#utility.yul\":2113:2176   */\n  tag_51\n  jumpi\n    /* \"#utility.yul\":2172:2173   */\n  0x00\n    /* \"#utility.yul\":2169:2170   */\n  dup1\n    /* \"#utility.yul\":2162:2174   */\n  revert\n    /* \"#utility.yul\":2113:2176   */\ntag_51:\n    /* \"#utility.yul\":2060:2182   */\n  pop\n  jump\t// out\n    /* \"contracts/TokenSale.sol\":285:2884  contract TokenSale is Ownable{\r... */\ntag_13:\n  dataSize(sub_0)\n  dup1\n  dataOffset(sub_0)\n  0x00\n  codecopy\n  0x00\n  return\nstop\n\nsub_0: assembly {\n        /* \"contracts/TokenSale.sol\":285:2884  contract TokenSale is Ownable{\r... */\n      mstore(0x40, 0x80)\n      callvalue\n      dup1\n      iszero\n      tag_1\n      jumpi\n      0x00\n      dup1\n      revert\n    tag_1:\n      pop\n      jumpi(tag_2, lt(calldatasize, 0x04))\n      shr(0xe0, calldataload(0x00))\n      dup1\n      0x893d20e8\n      gt\n      tag_19\n      jumpi\n      dup1\n      0xc10b9358\n      gt\n      tag_20\n      jumpi\n      dup1\n      0xc10b9358\n      eq\n      tag_15\n      jumpi\n      dup1\n      0xefef39a1\n      eq\n      tag_16\n      jumpi\n      dup1\n      0xf2fde38b\n      eq\n      tag_17\n      jumpi\n      dup1\n      0xf3fef3a3\n      eq\n      tag_18\n      jumpi\n      jump(tag_2)\n    tag_20:\n      dup1\n      0x893d20e8\n      eq\n      tag_11\n      jumpi\n      dup1\n      0x8da5cb5b\n      eq\n      tag_12\n      jumpi\n      dup1\n      0x9d76ea58\n      eq\n      tag_13\n      jumpi\n      dup1\n      0xab0bcc41\n      eq\n      tag_14\n      jumpi\n      jump(tag_2)\n    tag_19:\n      dup1\n      0x61778592\n      gt\n      tag_21\n      jumpi\n      dup1\n      0x61778592\n      eq\n      tag_7\n      jumpi\n      dup1\n      0x617fba04\n      eq\n      tag_8\n      jumpi\n      dup1\n      0x6f9c6149\n      eq\n      tag_9\n      jumpi\n      dup1\n      0x715018a6\n      eq\n      tag_10\n      jumpi\n      jump(tag_2)\n    tag_21:\n      dup1\n      0x24076451\n      eq\n      tag_3\n      jumpi\n      dup1\n      0x295e4edf\n      eq\n      tag_4\n      jumpi\n      dup1\n      0x336bea1c\n      eq\n      tag_5\n      jumpi\n      dup1\n      0x4e71d92d\n      eq\n      tag_6\n      jumpi\n    tag_2:\n      0x00\n      dup1\n      revert\n        /* \"contracts/TokenSale.sol\":1073:1193  function bala(address add) public view virtual returns (uint256){\r... */\n    tag_3:\n      tag_22\n      0x04\n      dup1\n      calldatasize\n      sub\n      dup2\n      add\n      swap1\n      tag_23\n      swap2\n      swap1\n      tag_24\n      jump\t// in\n    tag_23:\n      tag_25\n      jump\t// in\n    tag_22:\n      mload(0x40)\n      tag_26\n      swap2\n      swap1\n      tag_27\n      jump\t// in\n    tag_26:\n      mload(0x40)\n      dup1\n      swap2\n      sub\n      swap1\n      return\n        /* \"contracts/TokenSale.sol\":2637:2760  function updateSaleStartTime(uint256 updatedSaleStartTime) public onlyOwner{\r... */\n    tag_4:\n      tag_28\n      0x04\n      dup1\n      calldatasize\n      sub\n      dup2\n      add\n      swap1\n      tag_29\n      swap2\n      swap1\n      tag_30\n      jump\t// in\n    tag_29:\n      tag_31\n      jump\t// in\n    tag_28:\n      stop\n        /* \"contracts/TokenSale.sol\":2200:2631  function Return(uint256 _amount) public returns(bool){\r... */\n    tag_5:\n      tag_32\n      0x04\n      dup1\n      calldatasize\n      sub\n      dup2\n      add\n      swap1\n      tag_33\n      swap2\n      swap1\n      tag_30\n      jump\t// in\n    tag_33:\n      tag_34\n      jump\t// in\n    tag_32:\n      mload(0x40)\n      tag_35\n      swap2\n      swap1\n      tag_36\n      jump\t// in\n    tag_35:\n      mload(0x40)\n      dup1\n      swap2\n      sub\n      swap1\n      return\n        /* \"contracts/TokenSale.sol\":1982:2194  function claim() public virtual{\r... */\n    tag_6:\n      tag_37\n      tag_38\n      jump\t// in\n    tag_37:\n      stop\n        /* \"contracts/TokenSale.sol\":444:472  address public _usdcInstance */\n    tag_7:\n      tag_39\n      tag_40\n      jump\t// in\n    tag_39:\n      mload(0x40)\n      tag_41\n      swap2\n      swap1\n      tag_42\n      jump\t// in\n    tag_41:\n      mload(0x40)\n      dup1\n      swap2\n      sub\n      swap1\n      return\n        /* \"contracts/TokenSale.sol\":1292:1401  function getRecord(address _address) public virtual view returns(uint256){\r... */\n    tag_8:\n      tag_43\n      0x04\n      dup1\n      calldatasize\n      sub\n      dup2\n      add\n      swap1\n      tag_44\n      swap2\n      swap1\n      tag_24\n      jump\t// in\n    tag_44:\n      tag_45\n      jump\t// in\n    tag_43:\n      mload(0x40)\n      tag_46\n      swap2\n      swap1\n      tag_27\n      jump\t// in\n    tag_46:\n      mload(0x40)\n      dup1\n      swap2\n      sub\n      swap1\n      return\n        /* \"contracts/TokenSale.sol\":2764:2879  function updateSaleEndTime(uint256 updatedSaleEndTime) public onlyOwner{\r... */\n    tag_9:\n      tag_47\n      0x04\n      dup1\n      calldatasize\n      sub\n      dup2\n      add\n      swap1\n      tag_48\n      swap2\n      swap1\n      tag_30\n      jump\t// in\n    tag_48:\n      tag_49\n      jump\t// in\n    tag_47:\n      stop\n        /* \"@openzeppelin/contracts/access/Ownable.sol\":1668:1769  function renounceOwnership() public virtual onlyOwner {... */\n    tag_10:\n      tag_50\n      tag_51\n      jump\t// in\n    tag_50:\n      stop\n        /* \"contracts/TokenSale.sol\":990:1067  function getOwner() public view returns(address){\r... */\n    tag_11:\n      tag_52\n      tag_53\n      jump\t// in\n    tag_52:\n      mload(0x40)\n      tag_54\n      swap2\n      swap1\n      tag_42\n      jump\t// in\n    tag_54:\n      mload(0x40)\n      dup1\n      swap2\n      sub\n      swap1\n      return\n        /* \"@openzeppelin/contracts/access/Ownable.sol\":1036:1121  function owner() public view virtual returns (address) {... */\n    tag_12:\n      tag_55\n      tag_56\n      jump\t// in\n    tag_55:\n      mload(0x40)\n      tag_57\n      swap2\n      swap1\n      tag_42\n      jump\t// in\n    tag_57:\n      mload(0x40)\n      dup1\n      swap2\n      sub\n      swap1\n      return\n        /* \"contracts/TokenSale.sol\":899:984  function tokenAddress() public view returns(address){\r... */\n    tag_13:\n      tag_58\n      tag_59\n      jump\t// in\n    tag_58:\n      mload(0x40)\n      tag_60\n      swap2\n      swap1\n      tag_42\n      jump\t// in\n    tag_60:\n      mload(0x40)\n      dup1\n      swap2\n      sub\n      swap1\n      return\n        /* \"contracts/TokenSale.sol\":802:893  function saleStart() public view virtual returns (uint256) {\r... */\n    tag_14:\n      tag_61\n      tag_62\n      jump\t// in\n    tag_61:\n      mload(0x40)\n      tag_63\n      swap2\n      swap1\n      tag_27\n      jump\t// in\n    tag_63:\n      mload(0x40)\n      dup1\n      swap2\n      sub\n      swap1\n      return\n        /* \"contracts/TokenSale.sol\":1199:1286  function saleEnd() public view virtual returns (uint256) {\r... */\n    tag_15:\n      tag_64\n      tag_65\n      jump\t// in\n    tag_64:\n      mload(0x40)\n      tag_66\n      swap2\n      swap1\n      tag_27\n      jump\t// in\n    tag_66:\n      mload(0x40)\n      dup1\n      swap2\n      sub\n      swap1\n      return\n        /* \"contracts/TokenSale.sol\":1407:1712  function purchase(uint256 _amount) public{\r... */\n    tag_16:\n      tag_67\n      0x04\n      dup1\n      calldatasize\n      sub\n      dup2\n      add\n      swap1\n      tag_68\n      swap2\n      swap1\n      tag_30\n      jump\t// in\n    tag_68:\n      tag_69\n      jump\t// in\n    tag_67:\n      stop\n        /* \"@openzeppelin/contracts/access/Ownable.sol\":1918:2116  function transferOwnership(address newOwner) public virtual onlyOwner {... */\n    tag_17:\n      tag_70\n      0x04\n      dup1\n      calldatasize\n      sub\n      dup2\n      add\n      swap1\n      tag_71\n      swap2\n      swap1\n      tag_24\n      jump\t// in\n    tag_71:\n      tag_72\n      jump\t// in\n    tag_70:\n      stop\n        /* \"contracts/TokenSale.sol\":1718:1976  function withdraw(address _to,uint256 _amt) public virtual onlyOwner{\r... */\n    tag_18:\n      tag_73\n      0x04\n      dup1\n      calldatasize\n      sub\n      dup2\n      add\n      swap1\n      tag_74\n      swap2\n      swap1\n      tag_75\n      jump\t// in\n    tag_74:\n      tag_76\n      jump\t// in\n    tag_73:\n      stop\n        /* \"contracts/TokenSale.sol\":1073:1193  function bala(address add) public view virtual returns (uint256){\r... */\n    tag_25:\n        /* \"contracts/TokenSale.sol\":1129:1136  uint256 */\n      0x00\n        /* \"contracts/TokenSale.sol\":1158:1171  _usdcInstance */\n      0x04\n      0x00\n      swap1\n      sload\n      swap1\n      0x0100\n      exp\n      swap1\n      div\n      0xffffffffffffffffffffffffffffffffffffffff\n      and\n        /* \"contracts/TokenSale.sol\":1151:1182  IERC20(_usdcInstance).balanceOf */\n      0xffffffffffffffffffffffffffffffffffffffff\n      and\n      0x70a08231\n        /* \"contracts/TokenSale.sol\":1183:1186  add */\n      dup4\n        /* \"contracts/TokenSale.sol\":1151:1187  IERC20(_usdcInstance).balanceOf(add) */\n      mload(0x40)\n      dup3\n      0xffffffff\n      and\n      0xe0\n      shl\n      dup2\n      mstore\n      0x04\n      add\n      tag_78\n      swap2\n      swap1\n      tag_42\n      jump\t// in\n    tag_78:\n      0x20\n      mload(0x40)\n      dup1\n      dup4\n      sub\n      dup2\n      dup7\n      dup1\n      extcodesize\n      iszero\n      dup1\n      iszero\n      tag_79\n      jumpi\n      0x00\n      dup1\n      revert\n    tag_79:\n      pop\n      gas\n      staticcall\n      iszero\n      dup1\n      iszero\n      tag_81\n      jumpi\n      returndatasize\n      0x00\n      dup1\n      returndatacopy\n      revert(0x00, returndatasize)\n    tag_81:\n      pop\n      pop\n      pop\n      pop\n      mload(0x40)\n      returndatasize\n      not(0x1f)\n      0x1f\n      dup3\n      add\n      and\n      dup3\n      add\n      dup1\n      0x40\n      mstore\n      pop\n      dup2\n      add\n      swap1\n      tag_82\n      swap2\n      swap1\n      tag_83\n      jump\t// in\n    tag_82:\n        /* \"contracts/TokenSale.sol\":1144:1187  return IERC20(_usdcInstance).balanceOf(add) */\n      swap1\n      pop\n        /* \"contracts/TokenSale.sol\":1073:1193  function bala(address add) public view virtual returns (uint256){\r... */\n      swap2\n      swap1\n      pop\n      jump\t// out\n        /* \"contracts/TokenSale.sol\":2637:2760  function updateSaleStartTime(uint256 updatedSaleStartTime) public onlyOwner{\r... */\n    tag_31:\n        /* \"@openzeppelin/contracts/access/Ownable.sol\":1259:1271  _msgSender() */\n      tag_85\n        /* \"@openzeppelin/contracts/access/Ownable.sol\":1259:1269  _msgSender */\n      tag_86\n        /* \"@openzeppelin/contracts/access/Ownable.sol\":1259:1271  _msgSender() */\n      jump\t// in\n    tag_85:\n        /* \"@openzeppelin/contracts/access/Ownable.sol\":1248:1271  owner() == _msgSender() */\n      0xffffffffffffffffffffffffffffffffffffffff\n      and\n        /* \"@openzeppelin/contracts/access/Ownable.sol\":1248:1255  owner() */\n      tag_87\n        /* \"@openzeppelin/contracts/access/Ownable.sol\":1248:1253  owner */\n      tag_56\n        /* \"@openzeppelin/contracts/access/Ownable.sol\":1248:1255  owner() */\n      jump\t// in\n    tag_87:\n        /* \"@openzeppelin/contracts/access/Ownable.sol\":1248:1271  owner() == _msgSender() */\n      0xffffffffffffffffffffffffffffffffffffffff\n      and\n      eq\n        /* \"@openzeppelin/contracts/access/Ownable.sol\":1240:1308  require(owner() == _msgSender(), \"Ownable: caller is not the owner\") */\n      tag_88\n      jumpi\n      mload(0x40)\n      0x08c379a000000000000000000000000000000000000000000000000000000000\n      dup2\n      mstore\n      0x04\n      add\n      tag_89\n      swap1\n      tag_90\n      jump\t// in\n    tag_89:\n      mload(0x40)\n      dup1\n      swap2\n      sub\n      swap1\n      revert\n    tag_88:\n        /* \"contracts/TokenSale.sol\":2734:2754  updatedSaleStartTime */\n      dup1\n        /* \"contracts/TokenSale.sol\":2721:2731  _saleStart */\n      0x02\n        /* \"contracts/TokenSale.sol\":2721:2754  _saleStart = updatedSaleStartTime */\n      dup2\n      swap1\n      sstore\n      pop\n        /* \"contracts/TokenSale.sol\":2637:2760  function updateSaleStartTime(uint256 updatedSaleStartTime) public onlyOwner{\r... */\n      pop\n      jump\t// out\n        /* \"contracts/TokenSale.sol\":2200:2631  function Return(uint256 _amount) public returns(bool){\r... */\n    tag_34:\n        /* \"contracts/TokenSale.sol\":2248:2252  bool */\n      0x00\n        /* \"contracts/TokenSale.sol\":2324:2330  10**18 */\n      0x0de0b6b3a7640000\n        /* \"contracts/TokenSale.sol\":2316:2323  _amount */\n      dup3\n        /* \"contracts/TokenSale.sol\":2316:2330  _amount*10**18 */\n      tag_93\n      swap2\n      swap1\n      tag_94\n      jump\t// in\n    tag_93:\n        /* \"contracts/TokenSale.sol\":2275:2288  _usdcInstance */\n      0x04\n      0x00\n      swap1\n      sload\n      swap1\n      0x0100\n      exp\n      swap1\n      div\n      0xffffffffffffffffffffffffffffffffffffffff\n      and\n        /* \"contracts/TokenSale.sol\":2268:2299  IERC20(_usdcInstance).balanceOf */\n      0xffffffffffffffffffffffffffffffffffffffff\n      and\n      0x70a08231\n        /* \"contracts/TokenSale.sol\":2308:2312  this */\n      address\n        /* \"contracts/TokenSale.sol\":2268:2314  IERC20(_usdcInstance).balanceOf(address(this)) */\n      mload(0x40)\n      dup3\n      0xffffffff\n      and\n      0xe0\n      shl\n      dup2\n      mstore\n      0x04\n      add\n      tag_95\n      swap2\n      swap1\n      tag_42\n      jump\t// in\n    tag_95:\n      0x20\n      mload(0x40)\n      dup1\n      dup4\n      sub\n      dup2\n      dup7\n      dup1\n      extcodesize\n      iszero\n      dup1\n      iszero\n      tag_96\n      jumpi\n      0x00\n      dup1\n      revert\n    tag_96:\n      pop\n      gas\n      staticcall\n      iszero\n      dup1\n      iszero\n      tag_98\n      jumpi\n      returndatasize\n      0x00\n      dup1\n      returndatacopy\n      revert(0x00, returndatasize)\n    tag_98:\n      pop\n      pop\n      pop\n      pop\n      mload(0x40)\n      returndatasize\n      not(0x1f)\n      0x1f\n      dup3\n      add\n      and\n      dup3\n      add\n      dup1\n      0x40\n      mstore\n      pop\n      dup2\n      add\n      swap1\n      tag_99\n      swap2\n      swap1\n      tag_83\n      jump\t// in\n    tag_99:\n        /* \"contracts/TokenSale.sol\":2268:2330  IERC20(_usdcInstance).balanceOf(address(this))>=_amount*10**18 */\n      lt\n      iszero\n        /* \"contracts/TokenSale.sol\":2260:2360  require(IERC20(_usdcInstance).balanceOf(address(this))>=_amount*10**18,\"Not enough token to return\") */\n      tag_100\n      jumpi\n      mload(0x40)\n      0x08c379a000000000000000000000000000000000000000000000000000000000\n      dup2\n      mstore\n      0x04\n      add\n      tag_101\n      swap1\n      tag_102\n      jump\t// in\n    tag_101:\n      mload(0x40)\n      dup1\n      swap2\n      sub\n      swap1\n      revert\n    tag_100:\n        /* \"contracts/TokenSale.sol\":2403:2409  10**18 */\n      0x0de0b6b3a7640000\n        /* \"contracts/TokenSale.sol\":2395:2402  _amount */\n      dup3\n        /* \"contracts/TokenSale.sol\":2395:2409  _amount*10**18 */\n      tag_103\n      swap2\n      swap1\n      tag_94\n      jump\t// in\n    tag_103:\n        /* \"contracts/TokenSale.sol\":2375:2381  record */\n      0x05\n        /* \"contracts/TokenSale.sol\":2375:2393  record[msg.sender] */\n      0x00\n        /* \"contracts/TokenSale.sol\":2382:2392  msg.sender */\n      caller\n        /* \"contracts/TokenSale.sol\":2375:2393  record[msg.sender] */\n      0xffffffffffffffffffffffffffffffffffffffff\n      and\n      0xffffffffffffffffffffffffffffffffffffffff\n      and\n      dup2\n      mstore\n      0x20\n      add\n      swap1\n      dup2\n      mstore\n      0x20\n      add\n      0x00\n      keccak256\n      sload\n        /* \"contracts/TokenSale.sol\":2375:2409  record[msg.sender]>=_amount*10**18 */\n      lt\n      iszero\n        /* \"contracts/TokenSale.sol\":2367:2450  require(record[msg.sender]>=_amount*10**18,\"You dont have enought token to return\") */\n      tag_104\n      jumpi\n      mload(0x40)\n      0x08c379a000000000000000000000000000000000000000000000000000000000\n      dup2\n      mstore\n      0x04\n      add\n      tag_105\n      swap1\n      tag_106\n      jump\t// in\n    tag_105:\n      mload(0x40)\n      dup1\n      swap2\n      sub\n      swap1\n      revert\n    tag_104:\n        /* \"contracts/TokenSale.sol\":2510:2564  IERC20(_usdcInstance).safeTransfer(msg.sender,_amount) */\n      tag_107\n        /* \"contracts/TokenSale.sol\":2545:2555  msg.sender */\n      caller\n        /* \"contracts/TokenSale.sol\":2556:2563  _amount */\n      dup4\n        /* \"contracts/TokenSale.sol\":2517:2530  _usdcInstance */\n      0x04\n      0x00\n      swap1\n      sload\n      swap1\n      0x0100\n      exp\n      swap1\n      div\n      0xffffffffffffffffffffffffffffffffffffffff\n      and\n        /* \"contracts/TokenSale.sol\":2510:2544  IERC20(_usdcInstance).safeTransfer */\n      0xffffffffffffffffffffffffffffffffffffffff\n      and\n      tag_108\n      swap1\n        /* \"contracts/TokenSale.sol\":2510:2564  IERC20(_usdcInstance).safeTransfer(msg.sender,_amount) */\n      swap3\n      swap2\n      swap1\n      0xffffffff\n      and\n      jump\t// in\n    tag_107:\n        /* \"contracts/TokenSale.sol\":2601:2607  10**18 */\n      0x0de0b6b3a7640000\n        /* \"contracts/TokenSale.sol\":2593:2600  _amount */\n      dup3\n        /* \"contracts/TokenSale.sol\":2593:2607  _amount*10**18 */\n      tag_109\n      swap2\n      swap1\n      tag_94\n      jump\t// in\n    tag_109:\n        /* \"contracts/TokenSale.sol\":2571:2577  record */\n      0x05\n        /* \"contracts/TokenSale.sol\":2571:2589  record[msg.sender] */\n      0x00\n        /* \"contracts/TokenSale.sol\":2578:2588  msg.sender */\n      caller\n        /* \"contracts/TokenSale.sol\":2571:2589  record[msg.sender] */\n      0xffffffffffffffffffffffffffffffffffffffff\n      and\n      0xffffffffffffffffffffffffffffffffffffffff\n      and\n      dup2\n      mstore\n      0x20\n      add\n      swap1\n      dup2\n      mstore\n      0x20\n      add\n      0x00\n      keccak256\n      0x00\n        /* \"contracts/TokenSale.sol\":2571:2607  record[msg.sender] -= _amount*10**18 */\n      dup3\n      dup3\n      sload\n      tag_110\n      swap2\n      swap1\n      tag_111\n      jump\t// in\n    tag_110:\n      swap3\n      pop\n      pop\n      dup2\n      swap1\n      sstore\n      pop\n        /* \"contracts/TokenSale.sol\":2621:2625  true */\n      0x01\n        /* \"contracts/TokenSale.sol\":2614:2625  return true */\n      swap1\n      pop\n        /* \"contracts/TokenSale.sol\":2200:2631  function Return(uint256 _amount) public returns(bool){\r... */\n      swap2\n      swap1\n      pop\n      jump\t// out\n        /* \"contracts/TokenSale.sol\":1982:2194  function claim() public virtual{\r... */\n    tag_38:\n        /* \"contracts/TokenSale.sol\":2045:2053  _saleEnd */\n      sload(0x03)\n        /* \"contracts/TokenSale.sol\":2028:2043  block.timestamp */\n      timestamp\n        /* \"contracts/TokenSale.sol\":2028:2053  block.timestamp>=_saleEnd */\n      lt\n      iszero\n        /* \"contracts/TokenSale.sol\":2020:2074  require(block.timestamp>=_saleEnd,\"Sale hasn't ended\") */\n      tag_113\n      jumpi\n      mload(0x40)\n      0x08c379a000000000000000000000000000000000000000000000000000000000\n      dup2\n      mstore\n      0x04\n      add\n      tag_114\n      swap1\n      tag_115\n      jump\t// in\n    tag_114:\n      mload(0x40)\n      dup1\n      swap2\n      sub\n      swap1\n      revert\n    tag_113:\n        /* \"contracts/TokenSale.sol\":2106:2119  _tokenAddress */\n      0x01\n      0x00\n      swap1\n      sload\n      swap1\n      0x0100\n      exp\n      swap1\n      div\n      0xffffffffffffffffffffffffffffffffffffffff\n      and\n        /* \"contracts/TokenSale.sol\":2081:2125  RealEstateTokenInterface(_tokenAddress).mint */\n      0xffffffffffffffffffffffffffffffffffffffff\n      and\n      0x40c10f19\n        /* \"contracts/TokenSale.sol\":2126:2136  msg.sender */\n      caller\n        /* \"contracts/TokenSale.sol\":2137:2143  record */\n      0x05\n        /* \"contracts/TokenSale.sol\":2137:2155  record[msg.sender] */\n      0x00\n        /* \"contracts/TokenSale.sol\":2144:2154  msg.sender */\n      caller\n        /* \"contracts/TokenSale.sol\":2137:2155  record[msg.sender] */\n      0xffffffffffffffffffffffffffffffffffffffff\n      and\n      0xffffffffffffffffffffffffffffffffffffffff\n      and\n      dup2\n      mstore\n      0x20\n      add\n      swap1\n      dup2\n      mstore\n      0x20\n      add\n      0x00\n      keccak256\n      sload\n        /* \"contracts/TokenSale.sol\":2081:2156  RealEstateTokenInterface(_tokenAddress).mint(msg.sender,record[msg.sender]) */\n      mload(0x40)\n      dup4\n      0xffffffff\n      and\n      0xe0\n      shl\n      dup2\n      mstore\n      0x04\n      add\n      tag_116\n      swap3\n      swap2\n      swap1\n      tag_117\n      jump\t// in\n    tag_116:\n      0x20\n      mload(0x40)\n      dup1\n      dup4\n      sub\n      dup2\n      0x00\n      dup8\n      dup1\n      extcodesize\n      iszero\n      dup1\n      iszero\n      tag_118\n      jumpi\n      0x00\n      dup1\n      revert\n    tag_118:\n      pop\n      gas\n      call\n      iszero\n      dup1\n      iszero\n      tag_120\n      jumpi\n      returndatasize\n      0x00\n      dup1\n      returndatacopy\n      revert(0x00, returndatasize)\n    tag_120:\n      pop\n      pop\n      pop\n      pop\n      mload(0x40)\n      returndatasize\n      not(0x1f)\n      0x1f\n      dup3\n      add\n      and\n      dup3\n      add\n      dup1\n      0x40\n      mstore\n      pop\n      dup2\n      add\n      swap1\n      tag_121\n      swap2\n      swap1\n      tag_122\n      jump\t// in\n    tag_121:\n      pop\n        /* \"contracts/TokenSale.sol\":2170:2176  record */\n      0x05\n        /* \"contracts/TokenSale.sol\":2170:2188  record[msg.sender] */\n      0x00\n        /* \"contracts/TokenSale.sol\":2177:2187  msg.sender */\n      caller\n        /* \"contracts/TokenSale.sol\":2170:2188  record[msg.sender] */\n      0xffffffffffffffffffffffffffffffffffffffff\n      and\n      0xffffffffffffffffffffffffffffffffffffffff\n      and\n      dup2\n      mstore\n      0x20\n      add\n      swap1\n      dup2\n      mstore\n      0x20\n      add\n      0x00\n      keccak256\n        /* \"contracts/TokenSale.sol\":2163:2188  delete record[msg.sender] */\n      0x00\n      swap1\n      sstore\n        /* \"contracts/TokenSale.sol\":1982:2194  function claim() public virtual{\r... */\n      jump\t// out\n        /* \"contracts/TokenSale.sol\":444:472  address public _usdcInstance */\n    tag_40:\n      0x04\n      0x00\n      swap1\n      sload\n      swap1\n      0x0100\n      exp\n      swap1\n      div\n      0xffffffffffffffffffffffffffffffffffffffff\n      and\n      dup2\n      jump\t// out\n        /* \"contracts/TokenSale.sol\":1292:1401  function getRecord(address _address) public virtual view returns(uint256){\r... */\n    tag_45:\n        /* \"contracts/TokenSale.sol\":1357:1364  uint256 */\n      0x00\n        /* \"contracts/TokenSale.sol\":1379:1385  record */\n      0x05\n        /* \"contracts/TokenSale.sol\":1379:1395  record[_address] */\n      0x00\n        /* \"contracts/TokenSale.sol\":1386:1394  _address */\n      dup4\n        /* \"contracts/TokenSale.sol\":1379:1395  record[_address] */\n      0xffffffffffffffffffffffffffffffffffffffff\n      and\n      0xffffffffffffffffffffffffffffffffffffffff\n      and\n      dup2\n      mstore\n      0x20\n      add\n      swap1\n      dup2\n      mstore\n      0x20\n      add\n      0x00\n      keccak256\n      sload\n        /* \"contracts/TokenSale.sol\":1372:1395  return record[_address] */\n      swap1\n      pop\n        /* \"contracts/TokenSale.sol\":1292:1401  function getRecord(address _address) public virtual view returns(uint256){\r... */\n      swap2\n      swap1\n      pop\n      jump\t// out\n        /* \"contracts/TokenSale.sol\":2764:2879  function updateSaleEndTime(uint256 updatedSaleEndTime) public onlyOwner{\r... */\n    tag_49:\n        /* \"@openzeppelin/contracts/access/Ownable.sol\":1259:1271  _msgSender() */\n      tag_125\n        /* \"@openzeppelin/contracts/access/Ownable.sol\":1259:1269  _msgSender */\n      tag_86\n        /* \"@openzeppelin/contracts/access/Ownable.sol\":1259:1271  _msgSender() */\n      jump\t// in\n    tag_125:\n        /* \"@openzeppelin/contracts/access/Ownable.sol\":1248:1271  owner() == _msgSender() */\n      0xffffffffffffffffffffffffffffffffffffffff\n      and\n        /* \"@openzeppelin/contracts/access/Ownable.sol\":1248:1255  owner() */\n      tag_126\n        /* \"@openzeppelin/contracts/access/Ownable.sol\":1248:1253  owner */\n      tag_56\n        /* \"@openzeppelin/contracts/access/Ownable.sol\":1248:1255  owner() */\n      jump\t// in\n    tag_126:\n        /* \"@openzeppelin/contracts/access/Ownable.sol\":1248:1271  owner() == _msgSender() */\n      0xffffffffffffffffffffffffffffffffffffffff\n      and\n      eq\n        /* \"@openzeppelin/contracts/access/Ownable.sol\":1240:1308  require(owner() == _msgSender(), \"Ownable: caller is not the owner\") */\n      tag_127\n      jumpi\n      mload(0x40)\n      0x08c379a000000000000000000000000000000000000000000000000000000000\n      dup2\n      mstore\n      0x04\n      add\n      tag_128\n      swap1\n      tag_90\n      jump\t// in\n    tag_128:\n      mload(0x40)\n      dup1\n      swap2\n      sub\n      swap1\n      revert\n    tag_127:\n        /* \"contracts/TokenSale.sol\":2855:2873  updatedSaleEndTime */\n      dup1\n        /* \"contracts/TokenSale.sol\":2844:2852  _saleEnd */\n      0x03\n        /* \"contracts/TokenSale.sol\":2844:2873  _saleEnd = updatedSaleEndTime */\n      dup2\n      swap1\n      sstore\n      pop\n        /* \"contracts/TokenSale.sol\":2764:2879  function updateSaleEndTime(uint256 updatedSaleEndTime) public onlyOwner{\r... */\n      pop\n      jump\t// out\n        /* \"@openzeppelin/contracts/access/Ownable.sol\":1668:1769  function renounceOwnership() public virtual onlyOwner {... */\n    tag_51:\n        /* \"@openzeppelin/contracts/access/Ownable.sol\":1259:1271  _msgSender() */\n      tag_131\n        /* \"@openzeppelin/contracts/access/Ownable.sol\":1259:1269  _msgSender */\n      tag_86\n        /* \"@openzeppelin/contracts/access/Ownable.sol\":1259:1271  _msgSender() */\n      jump\t// in\n    tag_131:\n        /* \"@openzeppelin/contracts/access/Ownable.sol\":1248:1271  owner() == _msgSender() */\n      0xffffffffffffffffffffffffffffffffffffffff\n      and\n        /* \"@openzeppelin/contracts/access/Ownable.sol\":1248:1255  owner() */\n      tag_132\n        /* \"@openzeppelin/contracts/access/Ownable.sol\":1248:1253  owner */\n      tag_56\n        /* \"@openzeppelin/contracts/access/Ownable.sol\":1248:1255  owner() */\n      jump\t// in\n    tag_132:\n        /* \"@openzeppelin/contracts/access/Ownable.sol\":1248:1271  owner() == _msgSender() */\n      0xffffffffffffffffffffffffffffffffffffffff\n      and\n      eq\n        /* \"@openzeppelin/contracts/access/Ownable.sol\":1240:1308  require(owner() == _msgSender(), \"Ownable: caller is not the owner\") */\n      tag_133\n      jumpi\n      mload(0x40)\n      0x08c379a000000000000000000000000000000000000000000000000000000000\n      dup2\n      mstore\n      0x04\n      add\n      tag_134\n      swap1\n      tag_90\n      jump\t// in\n    tag_134:\n      mload(0x40)\n      dup1\n      swap2\n      sub\n      swap1\n      revert\n    tag_133:\n        /* \"@openzeppelin/contracts/access/Ownable.sol\":1732:1762  _transferOwnership(address(0)) */\n      tag_136\n        /* \"@openzeppelin/contracts/access/Ownable.sol\":1759:1760  0 */\n      0x00\n        /* \"@openzeppelin/contracts/access/Ownable.sol\":1732:1750  _transferOwnership */\n      tag_137\n        /* \"@openzeppelin/contracts/access/Ownable.sol\":1732:1762  _transferOwnership(address(0)) */\n      jump\t// in\n    tag_136:\n        /* \"@openzeppelin/contracts/access/Ownable.sol\":1668:1769  function renounceOwnership() public virtual onlyOwner {... */\n      jump\t// out\n        /* \"contracts/TokenSale.sol\":990:1067  function getOwner() public view returns(address){\r... */\n    tag_53:\n        /* \"contracts/TokenSale.sol\":1030:1037  address */\n      0x00\n        /* \"contracts/TokenSale.sol\":1054:1061  owner() */\n      tag_139\n        /* \"contracts/TokenSale.sol\":1054:1059  owner */\n      tag_56\n        /* \"contracts/TokenSale.sol\":1054:1061  owner() */\n      jump\t// in\n    tag_139:\n        /* \"contracts/TokenSale.sol\":1047:1061  return owner() */\n      swap1\n      pop\n        /* \"contracts/TokenSale.sol\":990:1067  function getOwner() public view returns(address){\r... */\n      swap1\n      jump\t// out\n        /* \"@openzeppelin/contracts/access/Ownable.sol\":1036:1121  function owner() public view virtual returns (address) {... */\n    tag_56:\n        /* \"@openzeppelin/contracts/access/Ownable.sol\":1082:1089  address */\n      0x00\n        /* \"@openzeppelin/contracts/access/Ownable.sol\":1108:1114  _owner */\n      dup1\n      0x00\n      swap1\n      sload\n      swap1\n      0x0100\n      exp\n      swap1\n      div\n      0xffffffffffffffffffffffffffffffffffffffff\n      and\n        /* \"@openzeppelin/contracts/access/Ownable.sol\":1101:1114  return _owner */\n      swap1\n      pop\n        /* \"@openzeppelin/contracts/access/Ownable.sol\":1036:1121  function owner() public view virtual returns (address) {... */\n      swap1\n      jump\t// out\n        /* \"contracts/TokenSale.sol\":899:984  function tokenAddress() public view returns(address){\r... */\n    tag_59:\n        /* \"contracts/TokenSale.sol\":943:950  address */\n      0x00\n        /* \"contracts/TokenSale.sol\":965:978  _tokenAddress */\n      0x01\n      0x00\n      swap1\n      sload\n      swap1\n      0x0100\n      exp\n      swap1\n      div\n      0xffffffffffffffffffffffffffffffffffffffff\n      and\n        /* \"contracts/TokenSale.sol\":958:978  return _tokenAddress */\n      swap1\n      pop\n        /* \"contracts/TokenSale.sol\":899:984  function tokenAddress() public view returns(address){\r... */\n      swap1\n      jump\t// out\n        /* \"contracts/TokenSale.sol\":802:893  function saleStart() public view virtual returns (uint256) {\r... */\n    tag_62:\n        /* \"contracts/TokenSale.sol\":852:859  uint256 */\n      0x00\n        /* \"contracts/TokenSale.sol\":877:887  _saleStart */\n      sload(0x02)\n        /* \"contracts/TokenSale.sol\":870:887  return _saleStart */\n      swap1\n      pop\n        /* \"contracts/TokenSale.sol\":802:893  function saleStart() public view virtual returns (uint256) {\r... */\n      swap1\n      jump\t// out\n        /* \"contracts/TokenSale.sol\":1199:1286  function saleEnd() public view virtual returns (uint256) {\r... */\n    tag_65:\n        /* \"contracts/TokenSale.sol\":1247:1254  uint256 */\n      0x00\n        /* \"contracts/TokenSale.sol\":1272:1280  _saleEnd */\n      sload(0x03)\n        /* \"contracts/TokenSale.sol\":1265:1280  return _saleEnd */\n      swap1\n      pop\n        /* \"contracts/TokenSale.sol\":1199:1286  function saleEnd() public view virtual returns (uint256) {\r... */\n      swap1\n      jump\t// out\n        /* \"contracts/TokenSale.sol\":1407:1712  function purchase(uint256 _amount) public{\r... */\n    tag_69:\n        /* \"contracts/TokenSale.sol\":1482:1492  _saleStart */\n      sload(0x02)\n        /* \"contracts/TokenSale.sol\":1465:1480  block.timestamp */\n      timestamp\n        /* \"contracts/TokenSale.sol\":1465:1492  block.timestamp>=_saleStart */\n      lt\n      iszero\n        /* \"contracts/TokenSale.sol\":1457:1519  require(block.timestamp>=_saleStart,\"Sale hasn't started yet\") */\n      tag_145\n      jumpi\n      mload(0x40)\n      0x08c379a000000000000000000000000000000000000000000000000000000000\n      dup2\n      mstore\n      0x04\n      add\n      tag_146\n      swap1\n      tag_147\n      jump\t// in\n    tag_146:\n      mload(0x40)\n      dup1\n      swap2\n      sub\n      swap1\n      revert\n    tag_145:\n        /* \"contracts/TokenSale.sol\":1553:1561  _saleEnd */\n      sload(0x03)\n        /* \"contracts/TokenSale.sol\":1536:1551  block.timestamp */\n      timestamp\n        /* \"contracts/TokenSale.sol\":1536:1561  block.timestamp<=_saleEnd */\n      gt\n      iszero\n        /* \"contracts/TokenSale.sol\":1528:1579  require(block.timestamp<=_saleEnd,\"Sale has ended\") */\n      tag_148\n      jumpi\n      mload(0x40)\n      0x08c379a000000000000000000000000000000000000000000000000000000000\n      dup2\n      mstore\n      0x04\n      add\n      tag_149\n      swap1\n      tag_150\n      jump\t// in\n    tag_149:\n      mload(0x40)\n      dup1\n      swap2\n      sub\n      swap1\n      revert\n    tag_148:\n        /* \"contracts/TokenSale.sol\":1588:1661  IERC20(_usdcInstance).safeTransferFrom(msg.sender,address(this), _amount) */\n      tag_151\n        /* \"contracts/TokenSale.sol\":1627:1637  msg.sender */\n      caller\n        /* \"contracts/TokenSale.sol\":1646:1650  this */\n      address\n        /* \"contracts/TokenSale.sol\":1653:1660  _amount */\n      dup4\n        /* \"contracts/TokenSale.sol\":1595:1608  _usdcInstance */\n      0x04\n      0x00\n      swap1\n      sload\n      swap1\n      0x0100\n      exp\n      swap1\n      div\n      0xffffffffffffffffffffffffffffffffffffffff\n      and\n        /* \"contracts/TokenSale.sol\":1588:1626  IERC20(_usdcInstance).safeTransferFrom */\n      0xffffffffffffffffffffffffffffffffffffffff\n      and\n      tag_152\n      swap1\n        /* \"contracts/TokenSale.sol\":1588:1661  IERC20(_usdcInstance).safeTransferFrom(msg.sender,address(this), _amount) */\n      swap4\n      swap3\n      swap2\n      swap1\n      0xffffffff\n      and\n      jump\t// in\n    tag_151:\n        /* \"contracts/TokenSale.sol\":1700:1706  10**18 */\n      0x0de0b6b3a7640000\n        /* \"contracts/TokenSale.sol\":1692:1699  _amount */\n      dup2\n        /* \"contracts/TokenSale.sol\":1692:1706  _amount*10**18 */\n      tag_153\n      swap2\n      swap1\n      tag_94\n      jump\t// in\n    tag_153:\n        /* \"contracts/TokenSale.sol\":1670:1676  record */\n      0x05\n        /* \"contracts/TokenSale.sol\":1670:1688  record[msg.sender] */\n      0x00\n        /* \"contracts/TokenSale.sol\":1677:1687  msg.sender */\n      caller\n        /* \"contracts/TokenSale.sol\":1670:1688  record[msg.sender] */\n      0xffffffffffffffffffffffffffffffffffffffff\n      and\n      0xffffffffffffffffffffffffffffffffffffffff\n      and\n      dup2\n      mstore\n      0x20\n      add\n      swap1\n      dup2\n      mstore\n      0x20\n      add\n      0x00\n      keccak256\n      0x00\n        /* \"contracts/TokenSale.sol\":1670:1706  record[msg.sender] += _amount*10**18 */\n      dup3\n      dup3\n      sload\n      tag_154\n      swap2\n      swap1\n      tag_155\n      jump\t// in\n    tag_154:\n      swap3\n      pop\n      pop\n      dup2\n      swap1\n      sstore\n      pop\n        /* \"contracts/TokenSale.sol\":1407:1712  function purchase(uint256 _amount) public{\r... */\n      pop\n      jump\t// out\n        /* \"@openzeppelin/contracts/access/Ownable.sol\":1918:2116  function transferOwnership(address newOwner) public virtual onlyOwner {... */\n    tag_72:\n        /* \"@openzeppelin/contracts/access/Ownable.sol\":1259:1271  _msgSender() */\n      tag_157\n        /* \"@openzeppelin/contracts/access/Ownable.sol\":1259:1269  _msgSender */\n      tag_86\n        /* \"@openzeppelin/contracts/access/Ownable.sol\":1259:1271  _msgSender() */\n      jump\t// in\n    tag_157:\n        /* \"@openzeppelin/contracts/access/Ownable.sol\":1248:1271  owner() == _msgSender() */\n      0xffffffffffffffffffffffffffffffffffffffff\n      and\n        /* \"@openzeppelin/contracts/access/Ownable.sol\":1248:1255  owner() */\n      tag_158\n        /* \"@openzeppelin/contracts/access/Ownable.sol\":1248:1253  owner */\n      tag_56\n        /* \"@openzeppelin/contracts/access/Ownable.sol\":1248:1255  owner() */\n      jump\t// in\n    tag_158:\n        /* \"@openzeppelin/contracts/access/Ownable.sol\":1248:1271  owner() == _msgSender() */\n      0xffffffffffffffffffffffffffffffffffffffff\n      and\n      eq\n        /* \"@openzeppelin/contracts/access/Ownable.sol\":1240:1308  require(owner() == _msgSender(), \"Ownable: caller is not the owner\") */\n      tag_159\n      jumpi\n      mload(0x40)\n      0x08c379a000000000000000000000000000000000000000000000000000000000\n      dup2\n      mstore\n      0x04\n      add\n      tag_160\n      swap1\n      tag_90\n      jump\t// in\n    tag_160:\n      mload(0x40)\n      dup1\n      swap2\n      sub\n      swap1\n      revert\n    tag_159:\n        /* \"@openzeppelin/contracts/access/Ownable.sol\":2026:2027  0 */\n      0x00\n        /* \"@openzeppelin/contracts/access/Ownable.sol\":2006:2028  newOwner != address(0) */\n      0xffffffffffffffffffffffffffffffffffffffff\n      and\n        /* \"@openzeppelin/contracts/access/Ownable.sol\":2006:2014  newOwner */\n      dup2\n        /* \"@openzeppelin/contracts/access/Ownable.sol\":2006:2028  newOwner != address(0) */\n      0xffffffffffffffffffffffffffffffffffffffff\n      and\n      eq\n      iszero\n        /* \"@openzeppelin/contracts/access/Ownable.sol\":1998:2071  require(newOwner != address(0), \"Ownable: new owner is the zero address\") */\n      tag_162\n      jumpi\n      mload(0x40)\n      0x08c379a000000000000000000000000000000000000000000000000000000000\n      dup2\n      mstore\n      0x04\n      add\n      tag_163\n      swap1\n      tag_164\n      jump\t// in\n    tag_163:\n      mload(0x40)\n      dup1\n      swap2\n      sub\n      swap1\n      revert\n    tag_162:\n        /* \"@openzeppelin/contracts/access/Ownable.sol\":2081:2109  _transferOwnership(newOwner) */\n      tag_165\n        /* \"@openzeppelin/contracts/access/Ownable.sol\":2100:2108  newOwner */\n      dup2\n        /* \"@openzeppelin/contracts/access/Ownable.sol\":2081:2099  _transferOwnership */\n      tag_137\n        /* \"@openzeppelin/contracts/access/Ownable.sol\":2081:2109  _transferOwnership(newOwner) */\n      jump\t// in\n    tag_165:\n        /* \"@openzeppelin/contracts/access/Ownable.sol\":1918:2116  function transferOwnership(address newOwner) public virtual onlyOwner {... */\n      pop\n      jump\t// out\n        /* \"contracts/TokenSale.sol\":1718:1976  function withdraw(address _to,uint256 _amt) public virtual onlyOwner{\r... */\n    tag_76:\n        /* \"@openzeppelin/contracts/access/Ownable.sol\":1259:1271  _msgSender() */\n      tag_167\n        /* \"@openzeppelin/contracts/access/Ownable.sol\":1259:1269  _msgSender */\n      tag_86\n        /* \"@openzeppelin/contracts/access/Ownable.sol\":1259:1271  _msgSender() */\n      jump\t// in\n    tag_167:\n        /* \"@openzeppelin/contracts/access/Ownable.sol\":1248:1271  owner() == _msgSender() */\n      0xffffffffffffffffffffffffffffffffffffffff\n      and\n        /* \"@openzeppelin/contracts/access/Ownable.sol\":1248:1255  owner() */\n      tag_168\n        /* \"@openzeppelin/contracts/access/Ownable.sol\":1248:1253  owner */\n      tag_56\n        /* \"@openzeppelin/contracts/access/Ownable.sol\":1248:1255  owner() */\n      jump\t// in\n    tag_168:\n        /* \"@openzeppelin/contracts/access/Ownable.sol\":1248:1271  owner() == _msgSender() */\n      0xffffffffffffffffffffffffffffffffffffffff\n      and\n      eq\n        /* \"@openzeppelin/contracts/access/Ownable.sol\":1240:1308  require(owner() == _msgSender(), \"Ownable: caller is not the owner\") */\n      tag_169\n      jumpi\n      mload(0x40)\n      0x08c379a000000000000000000000000000000000000000000000000000000000\n      dup2\n      mstore\n      0x04\n      add\n      tag_170\n      swap1\n      tag_90\n      jump\t// in\n    tag_170:\n      mload(0x40)\n      dup1\n      swap2\n      sub\n      swap1\n      revert\n    tag_169:\n        /* \"contracts/TokenSale.sol\":1819:1827  _saleEnd */\n      sload(0x03)\n        /* \"contracts/TokenSale.sol\":1803:1818  block.timestamp */\n      timestamp\n        /* \"contracts/TokenSale.sol\":1803:1827  block.timestamp>_saleEnd */\n      gt\n        /* \"contracts/TokenSale.sol\":1795:1848  require(block.timestamp>_saleEnd,\"Sale hasn't ended\") */\n      tag_172\n      jumpi\n      mload(0x40)\n      0x08c379a000000000000000000000000000000000000000000000000000000000\n      dup2\n      mstore\n      0x04\n      add\n      tag_173\n      swap1\n      tag_115\n      jump\t// in\n    tag_173:\n      mload(0x40)\n      dup1\n      swap2\n      sub\n      swap1\n      revert\n    tag_172:\n        /* \"contracts/TokenSale.sol\":1857:1868  uint256 amt */\n      0x00\n        /* \"contracts/TokenSale.sol\":1878:1891  _usdcInstance */\n      0x04\n      0x00\n      swap1\n      sload\n      swap1\n      0x0100\n      exp\n      swap1\n      div\n      0xffffffffffffffffffffffffffffffffffffffff\n      and\n        /* \"contracts/TokenSale.sol\":1871:1902  IERC20(_usdcInstance).balanceOf */\n      0xffffffffffffffffffffffffffffffffffffffff\n      and\n      0x70a08231\n        /* \"contracts/TokenSale.sol\":1911:1915  this */\n      address\n        /* \"contracts/TokenSale.sol\":1871:1917  IERC20(_usdcInstance).balanceOf(address(this)) */\n      mload(0x40)\n      dup3\n      0xffffffff\n      and\n      0xe0\n      shl\n      dup2\n      mstore\n      0x04\n      add\n      tag_174\n      swap2\n      swap1\n      tag_42\n      jump\t// in\n    tag_174:\n      0x20\n      mload(0x40)\n      dup1\n      dup4\n      sub\n      dup2\n      dup7\n      dup1\n      extcodesize\n      iszero\n      dup1\n      iszero\n      tag_175\n      jumpi\n      0x00\n      dup1\n      revert\n    tag_175:\n      pop\n      gas\n      staticcall\n      iszero\n      dup1\n      iszero\n      tag_177\n      jumpi\n      returndatasize\n      0x00\n      dup1\n      returndatacopy\n      revert(0x00, returndatasize)\n    tag_177:\n      pop\n      pop\n      pop\n      pop\n      mload(0x40)\n      returndatasize\n      not(0x1f)\n      0x1f\n      dup3\n      add\n      and\n      dup3\n      add\n      dup1\n      0x40\n      mstore\n      pop\n      dup2\n      add\n      swap1\n      tag_178\n      swap2\n      swap1\n      tag_83\n      jump\t// in\n    tag_178:\n        /* \"contracts/TokenSale.sol\":1857:1917  uint256 amt = IERC20(_usdcInstance).balanceOf(address(this)) */\n      swap1\n      pop\n        /* \"contracts/TokenSale.sol\":1926:1970  IERC20(_usdcInstance).safeTransfer(_to,_amt) */\n      tag_179\n        /* \"contracts/TokenSale.sol\":1961:1964  _to */\n      dup4\n        /* \"contracts/TokenSale.sol\":1965:1969  _amt */\n      dup4\n        /* \"contracts/TokenSale.sol\":1933:1946  _usdcInstance */\n      0x04\n      0x00\n      swap1\n      sload\n      swap1\n      0x0100\n      exp\n      swap1\n      div\n      0xffffffffffffffffffffffffffffffffffffffff\n      and\n        /* \"contracts/TokenSale.sol\":1926:1960  IERC20(_usdcInstance).safeTransfer */\n      0xffffffffffffffffffffffffffffffffffffffff\n      and\n      tag_108\n      swap1\n        /* \"contracts/TokenSale.sol\":1926:1970  IERC20(_usdcInstance).safeTransfer(_to,_amt) */\n      swap3\n      swap2\n      swap1\n      0xffffffff\n      and\n      jump\t// in\n    tag_179:\n        /* \"contracts/TokenSale.sol\":1786:1976  {\r... */\n      pop\n        /* \"contracts/TokenSale.sol\":1718:1976  function withdraw(address _to,uint256 _amt) public virtual onlyOwner{\r... */\n      pop\n      pop\n      jump\t// out\n        /* \"@openzeppelin/contracts/utils/Context.sol\":640:736  function _msgSender() internal view virtual returns (address) {... */\n    tag_86:\n        /* \"@openzeppelin/contracts/utils/Context.sol\":693:700  address */\n      0x00\n        /* \"@openzeppelin/contracts/utils/Context.sol\":719:729  msg.sender */\n      caller\n        /* \"@openzeppelin/contracts/utils/Context.sol\":712:729  return msg.sender */\n      swap1\n      pop\n        /* \"@openzeppelin/contracts/utils/Context.sol\":640:736  function _msgSender() internal view virtual returns (address) {... */\n      swap1\n      jump\t// out\n        /* \"@openzeppelin/contracts/token/ERC20/utils/SafeERC20.sol\":701:906  function safeTransfer(... */\n    tag_108:\n        /* \"@openzeppelin/contracts/token/ERC20/utils/SafeERC20.sol\":813:899  _callOptionalReturn(token, abi.encodeWithSelector(token.transfer.selector, to, value)) */\n      tag_182\n        /* \"@openzeppelin/contracts/token/ERC20/utils/SafeERC20.sol\":833:838  token */\n      dup4\n        /* \"@openzeppelin/contracts/token/ERC20/utils/SafeERC20.sol\":863:886  token.transfer.selector */\n      shl(0xe0, 0xa9059cbb)\n        /* \"@openzeppelin/contracts/token/ERC20/utils/SafeERC20.sol\":888:890  to */\n      dup5\n        /* \"@openzeppelin/contracts/token/ERC20/utils/SafeERC20.sol\":892:897  value */\n      dup5\n        /* \"@openzeppelin/contracts/token/ERC20/utils/SafeERC20.sol\":840:898  abi.encodeWithSelector(token.transfer.selector, to, value) */\n      add(0x24, mload(0x40))\n      tag_183\n      swap3\n      swap2\n      swap1\n      tag_117\n      jump\t// in\n    tag_183:\n      mload(0x40)\n      0x20\n      dup2\n      dup4\n      sub\n      sub\n      dup2\n      mstore\n      swap1\n      0x40\n      mstore\n      swap1\n      not(0xffffffffffffffffffffffffffffffffffffffffffffffffffffffff)\n      and\n      0x20\n      dup3\n      add\n      dup1\n      mload\n      0xffffffffffffffffffffffffffffffffffffffffffffffffffffffff\n      dup4\n      dup2\n      dup4\n      and\n      or\n      dup4\n      mstore\n      pop\n      pop\n      pop\n      pop\n        /* \"@openzeppelin/contracts/token/ERC20/utils/SafeERC20.sol\":813:832  _callOptionalReturn */\n      tag_184\n        /* \"@openzeppelin/contracts/token/ERC20/utils/SafeERC20.sol\":813:899  _callOptionalReturn(token, abi.encodeWithSelector(token.transfer.selector, to, value)) */\n      jump\t// in\n    tag_182:\n        /* \"@openzeppelin/contracts/token/ERC20/utils/SafeERC20.sol\":701:906  function safeTransfer(... */\n      pop\n      pop\n      pop\n      jump\t// out\n        /* \"@openzeppelin/contracts/access/Ownable.sol\":2270:2457  function _transferOwnership(address newOwner) internal virtual {... */\n    tag_137:\n        /* \"@openzeppelin/contracts/access/Ownable.sol\":2343:2359  address oldOwner */\n      0x00\n        /* \"@openzeppelin/contracts/access/Ownable.sol\":2362:2368  _owner */\n      dup1\n      0x00\n      swap1\n      sload\n      swap1\n      0x0100\n      exp\n      swap1\n      div\n      0xffffffffffffffffffffffffffffffffffffffff\n      and\n        /* \"@openzeppelin/contracts/access/Ownable.sol\":2343:2368  address oldOwner = _owner */\n      swap1\n      pop\n        /* \"@openzeppelin/contracts/access/Ownable.sol\":2387:2395  newOwner */\n      dup2\n        /* \"@openzeppelin/contracts/access/Ownable.sol\":2378:2384  _owner */\n      0x00\n      dup1\n        /* \"@openzeppelin/contracts/access/Ownable.sol\":2378:2395  _owner = newOwner */\n      0x0100\n      exp\n      dup2\n      sload\n      dup2\n      0xffffffffffffffffffffffffffffffffffffffff\n      mul\n      not\n      and\n      swap1\n      dup4\n      0xffffffffffffffffffffffffffffffffffffffff\n      and\n      mul\n      or\n      swap1\n      sstore\n      pop\n        /* \"@openzeppelin/contracts/access/Ownable.sol\":2441:2449  newOwner */\n      dup2\n        /* \"@openzeppelin/contracts/access/Ownable.sol\":2410:2450  OwnershipTransferred(oldOwner, newOwner) */\n      0xffffffffffffffffffffffffffffffffffffffff\n      and\n        /* \"@openzeppelin/contracts/access/Ownable.sol\":2431:2439  oldOwner */\n      dup2\n        /* \"@openzeppelin/contracts/access/Ownable.sol\":2410:2450  OwnershipTransferred(oldOwner, newOwner) */\n      0xffffffffffffffffffffffffffffffffffffffff\n      and\n      0x8be0079c531659141344cd1fd0a4f28419497f9722a3daafe3b4186f6b6457e0\n      mload(0x40)\n      mload(0x40)\n      dup1\n      swap2\n      sub\n      swap1\n      log3\n        /* \"@openzeppelin/contracts/access/Ownable.sol\":2333:2457  {... */\n      pop\n        /* \"@openzeppelin/contracts/access/Ownable.sol\":2270:2457  function _transferOwnership(address newOwner) internal virtual {... */\n      pop\n      jump\t// out\n        /* \"@openzeppelin/contracts/token/ERC20/utils/SafeERC20.sol\":912:1153  function safeTransferFrom(... */\n    tag_152:\n        /* \"@openzeppelin/contracts/token/ERC20/utils/SafeERC20.sol\":1050:1146  _callOptionalReturn(token, abi.encodeWithSelector(token.transferFrom.selector, from, to, value)) */\n      tag_187\n        /* \"@openzeppelin/contracts/token/ERC20/utils/SafeERC20.sol\":1070:1075  token */\n      dup5\n        /* \"@openzeppelin/contracts/token/ERC20/utils/SafeERC20.sol\":1100:1127  token.transferFrom.selector */\n      shl(0xe0, 0x23b872dd)\n        /* \"@openzeppelin/contracts/token/ERC20/utils/SafeERC20.sol\":1129:1133  from */\n      dup6\n        /* \"@openzeppelin/contracts/token/ERC20/utils/SafeERC20.sol\":1135:1137  to */\n      dup6\n        /* \"@openzeppelin/contracts/token/ERC20/utils/SafeERC20.sol\":1139:1144  value */\n      dup6\n        /* \"@openzeppelin/contracts/token/ERC20/utils/SafeERC20.sol\":1077:1145  abi.encodeWithSelector(token.transferFrom.selector, from, to, value) */\n      add(0x24, mload(0x40))\n      tag_188\n      swap4\n      swap3\n      swap2\n      swap1\n      tag_189\n      jump\t// in\n    tag_188:\n      mload(0x40)\n      0x20\n      dup2\n      dup4\n      sub\n      sub\n      dup2\n      mstore\n      swap1\n      0x40\n      mstore\n      swap1\n      not(0xffffffffffffffffffffffffffffffffffffffffffffffffffffffff)\n      and\n      0x20\n      dup3\n      add\n      dup1\n      mload\n      0xffffffffffffffffffffffffffffffffffffffffffffffffffffffff\n      dup4\n      dup2\n      dup4\n      and\n      or\n      dup4\n      mstore\n      pop\n      pop\n      pop\n      pop\n        /* \"@openzeppelin/contracts/token/ERC20/utils/SafeERC20.sol\":1050:1069  _callOptionalReturn */\n      tag_184\n        /* \"@openzeppelin/contracts/token/ERC20/utils/SafeERC20.sol\":1050:1146  _callOptionalReturn(token, abi.encodeWithSelector(token.transferFrom.selector, from, to, value)) */\n      jump\t// in\n    tag_187:\n        /* \"@openzeppelin/contracts/token/ERC20/utils/SafeERC20.sol\":912:1153  function safeTransferFrom(... */\n      pop\n      pop\n      pop\n      pop\n      jump\t// out\n        /* \"@openzeppelin/contracts/token/ERC20/utils/SafeERC20.sol\":3207:3913  function _callOptionalReturn(IERC20 token, bytes memory data) private {... */\n    tag_184:\n        /* \"@openzeppelin/contracts/token/ERC20/utils/SafeERC20.sol\":3626:3649  bytes memory returndata */\n      0x00\n        /* \"@openzeppelin/contracts/token/ERC20/utils/SafeERC20.sol\":3652:3721  address(token).functionCall(data, \"SafeERC20: low-level call failed\") */\n      tag_191\n        /* \"@openzeppelin/contracts/token/ERC20/utils/SafeERC20.sol\":3680:3684  data */\n      dup3\n        /* \"@openzeppelin/contracts/token/ERC20/utils/SafeERC20.sol\":3652:3721  address(token).functionCall(data, \"SafeERC20: low-level call failed\") */\n      mload(0x40)\n      dup1\n      0x40\n      add\n      0x40\n      mstore\n      dup1\n      0x20\n      dup2\n      mstore\n      0x20\n      add\n      0x5361666545524332303a206c6f772d6c6576656c2063616c6c206661696c6564\n      dup2\n      mstore\n      pop\n        /* \"@openzeppelin/contracts/token/ERC20/utils/SafeERC20.sol\":3660:3665  token */\n      dup6\n        /* \"@openzeppelin/contracts/token/ERC20/utils/SafeERC20.sol\":3652:3679  address(token).functionCall */\n      0xffffffffffffffffffffffffffffffffffffffff\n      and\n      tag_192\n      swap1\n        /* \"@openzeppelin/contracts/token/ERC20/utils/SafeERC20.sol\":3652:3721  address(token).functionCall(data, \"SafeERC20: low-level call failed\") */\n      swap3\n      swap2\n      swap1\n      0xffffffff\n      and\n      jump\t// in\n    tag_191:\n        /* \"@openzeppelin/contracts/token/ERC20/utils/SafeERC20.sol\":3626:3721  bytes memory returndata = address(token).functionCall(data, \"SafeERC20: low-level call failed\") */\n      swap1\n      pop\n        /* \"@openzeppelin/contracts/token/ERC20/utils/SafeERC20.sol\":3755:3756  0 */\n      0x00\n        /* \"@openzeppelin/contracts/token/ERC20/utils/SafeERC20.sol\":3735:3745  returndata */\n      dup2\n        /* \"@openzeppelin/contracts/token/ERC20/utils/SafeERC20.sol\":3735:3752  returndata.length */\n      mload\n        /* \"@openzeppelin/contracts/token/ERC20/utils/SafeERC20.sol\":3735:3756  returndata.length > 0 */\n      gt\n        /* \"@openzeppelin/contracts/token/ERC20/utils/SafeERC20.sol\":3731:3907  if (returndata.length > 0) {... */\n      iszero\n      tag_193\n      jumpi\n        /* \"@openzeppelin/contracts/token/ERC20/utils/SafeERC20.sol\":3830:3840  returndata */\n      dup1\n        /* \"@openzeppelin/contracts/token/ERC20/utils/SafeERC20.sol\":3819:3849  abi.decode(returndata, (bool)) */\n      dup1\n      0x20\n      add\n      swap1\n      mload\n      dup2\n      add\n      swap1\n      tag_194\n      swap2\n      swap1\n      tag_122\n      jump\t// in\n    tag_194:\n        /* \"@openzeppelin/contracts/token/ERC20/utils/SafeERC20.sol\":3811:3896  require(abi.decode(returndata, (bool)), \"SafeERC20: ERC20 operation did not succeed\") */\n      tag_195\n      jumpi\n      mload(0x40)\n      0x08c379a000000000000000000000000000000000000000000000000000000000\n      dup2\n      mstore\n      0x04\n      add\n      tag_196\n      swap1\n      tag_197\n      jump\t// in\n    tag_196:\n      mload(0x40)\n      dup1\n      swap2\n      sub\n      swap1\n      revert\n    tag_195:\n        /* \"@openzeppelin/contracts/token/ERC20/utils/SafeERC20.sol\":3731:3907  if (returndata.length > 0) {... */\n    tag_193:\n        /* \"@openzeppelin/contracts/token/ERC20/utils/SafeERC20.sol\":3277:3913  {... */\n      pop\n        /* \"@openzeppelin/contracts/token/ERC20/utils/SafeERC20.sol\":3207:3913  function _callOptionalReturn(IERC20 token, bytes memory data) private {... */\n      pop\n      pop\n      jump\t// out\n        /* \"@openzeppelin/contracts/utils/Address.sol\":3861:4084  function functionCall(... */\n    tag_192:\n        /* \"@openzeppelin/contracts/utils/Address.sol\":3994:4006  bytes memory */\n      0x60\n        /* \"@openzeppelin/contracts/utils/Address.sol\":4025:4077  functionCallWithValue(target, data, 0, errorMessage) */\n      tag_199\n        /* \"@openzeppelin/contracts/utils/Address.sol\":4047:4053  target */\n      dup5\n        /* \"@openzeppelin/contracts/utils/Address.sol\":4055:4059  data */\n      dup5\n        /* \"@openzeppelin/contracts/utils/Address.sol\":4061:4062  0 */\n      0x00\n        /* \"@openzeppelin/contracts/utils/Address.sol\":4064:4076  errorMessage */\n      dup6\n        /* \"@openzeppelin/contracts/utils/Address.sol\":4025:4046  functionCallWithValue */\n      tag_200\n        /* \"@openzeppelin/contracts/utils/Address.sol\":4025:4077  functionCallWithValue(target, data, 0, errorMessage) */\n      jump\t// in\n    tag_199:\n        /* \"@openzeppelin/contracts/utils/Address.sol\":4018:4077  return functionCallWithValue(target, data, 0, errorMessage) */\n      swap1\n      pop\n        /* \"@openzeppelin/contracts/utils/Address.sol\":3861:4084  function functionCall(... */\n      swap4\n      swap3\n      pop\n      pop\n      pop\n      jump\t// out\n        /* \"@openzeppelin/contracts/utils/Address.sol\":4948:5447  function functionCallWithValue(... */\n    tag_200:\n        /* \"@openzeppelin/contracts/utils/Address.sol\":5113:5125  bytes memory */\n      0x60\n        /* \"@openzeppelin/contracts/utils/Address.sol\":5170:5175  value */\n      dup3\n        /* \"@openzeppelin/contracts/utils/Address.sol\":5145:5166  address(this).balance */\n      selfbalance\n        /* \"@openzeppelin/contracts/utils/Address.sol\":5145:5175  address(this).balance >= value */\n      lt\n      iszero\n        /* \"@openzeppelin/contracts/utils/Address.sol\":5137:5218  require(address(this).balance >= value, \"Address: insufficient balance for call\") */\n      tag_202\n      jumpi\n      mload(0x40)\n      0x08c379a000000000000000000000000000000000000000000000000000000000\n      dup2\n      mstore\n      0x04\n      add\n      tag_203\n      swap1\n      tag_204\n      jump\t// in\n    tag_203:\n      mload(0x40)\n      dup1\n      swap2\n      sub\n      swap1\n      revert\n    tag_202:\n        /* \"@openzeppelin/contracts/utils/Address.sol\":5236:5254  isContract(target) */\n      tag_205\n        /* \"@openzeppelin/contracts/utils/Address.sol\":5247:5253  target */\n      dup6\n        /* \"@openzeppelin/contracts/utils/Address.sol\":5236:5246  isContract */\n      tag_206\n        /* \"@openzeppelin/contracts/utils/Address.sol\":5236:5254  isContract(target) */\n      jump\t// in\n    tag_205:\n        /* \"@openzeppelin/contracts/utils/Address.sol\":5228:5288  require(isContract(target), \"Address: call to non-contract\") */\n      tag_207\n      jumpi\n      mload(0x40)\n      0x08c379a000000000000000000000000000000000000000000000000000000000\n      dup2\n      mstore\n      0x04\n      add\n      tag_208\n      swap1\n      tag_209\n      jump\t// in\n    tag_208:\n      mload(0x40)\n      dup1\n      swap2\n      sub\n      swap1\n      revert\n    tag_207:\n        /* \"@openzeppelin/contracts/utils/Address.sol\":5300:5312  bool success */\n      0x00\n        /* \"@openzeppelin/contracts/utils/Address.sol\":5314:5337  bytes memory returndata */\n      dup1\n        /* \"@openzeppelin/contracts/utils/Address.sol\":5341:5347  target */\n      dup7\n        /* \"@openzeppelin/contracts/utils/Address.sol\":5341:5352  target.call */\n      0xffffffffffffffffffffffffffffffffffffffff\n      and\n        /* \"@openzeppelin/contracts/utils/Address.sol\":5360:5365  value */\n      dup6\n        /* \"@openzeppelin/contracts/utils/Address.sol\":5367:5371  data */\n      dup8\n        /* \"@openzeppelin/contracts/utils/Address.sol\":5341:5372  target.call{value: value}(data) */\n      mload(0x40)\n      tag_210\n      swap2\n      swap1\n      tag_211\n      jump\t// in\n    tag_210:\n      0x00\n      mload(0x40)\n      dup1\n      dup4\n      sub\n      dup2\n      dup6\n      dup8\n      gas\n      call\n      swap3\n      pop\n      pop\n      pop\n      returndatasize\n      dup1\n      0x00\n      dup2\n      eq\n      tag_214\n      jumpi\n      mload(0x40)\n      swap2\n      pop\n      and(add(returndatasize, 0x3f), not(0x1f))\n      dup3\n      add\n      0x40\n      mstore\n      returndatasize\n      dup3\n      mstore\n      returndatasize\n      0x00\n      0x20\n      dup5\n      add\n      returndatacopy\n      jump(tag_213)\n    tag_214:\n      0x60\n      swap2\n      pop\n    tag_213:\n      pop\n        /* \"@openzeppelin/contracts/utils/Address.sol\":5299:5372  (bool success, bytes memory returndata) = target.call{value: value}(data) */\n      swap2\n      pop\n      swap2\n      pop\n        /* \"@openzeppelin/contracts/utils/Address.sol\":5389:5440  verifyCallResult(success, returndata, errorMessage) */\n      tag_215\n        /* \"@openzeppelin/contracts/utils/Address.sol\":5406:5413  success */\n      dup3\n        /* \"@openzeppelin/contracts/utils/Address.sol\":5415:5425  returndata */\n      dup3\n        /* \"@openzeppelin/contracts/utils/Address.sol\":5427:5439  errorMessage */\n      dup7\n        /* \"@openzeppelin/contracts/utils/Address.sol\":5389:5405  verifyCallResult */\n      tag_216\n        /* \"@openzeppelin/contracts/utils/Address.sol\":5389:5440  verifyCallResult(success, returndata, errorMessage) */\n      jump\t// in\n    tag_215:\n        /* \"@openzeppelin/contracts/utils/Address.sol\":5382:5440  return verifyCallResult(success, returndata, errorMessage) */\n      swap3\n      pop\n      pop\n      pop\n        /* \"@openzeppelin/contracts/utils/Address.sol\":4948:5447  function functionCallWithValue(... */\n      swap5\n      swap4\n      pop\n      pop\n      pop\n      pop\n      jump\t// out\n        /* \"@openzeppelin/contracts/utils/Address.sol\":1175:1495  function isContract(address account) internal view returns (bool) {... */\n    tag_206:\n        /* \"@openzeppelin/contracts/utils/Address.sol\":1235:1239  bool */\n      0x00\n        /* \"@openzeppelin/contracts/utils/Address.sol\":1487:1488  0 */\n      dup1\n        /* \"@openzeppelin/contracts/utils/Address.sol\":1465:1472  account */\n      dup3\n        /* \"@openzeppelin/contracts/utils/Address.sol\":1465:1484  account.code.length */\n      0xffffffffffffffffffffffffffffffffffffffff\n      and\n      extcodesize\n        /* \"@openzeppelin/contracts/utils/Address.sol\":1465:1488  account.code.length > 0 */\n      gt\n        /* \"@openzeppelin/contracts/utils/Address.sol\":1458:1488  return account.code.length > 0 */\n      swap1\n      pop\n        /* \"@openzeppelin/contracts/utils/Address.sol\":1175:1495  function isContract(address account) internal view returns (bool) {... */\n      swap2\n      swap1\n      pop\n      jump\t// out\n        /* \"@openzeppelin/contracts/utils/Address.sol\":7561:8253  function verifyCallResult(... */\n    tag_216:\n        /* \"@openzeppelin/contracts/utils/Address.sol\":7707:7719  bytes memory */\n      0x60\n        /* \"@openzeppelin/contracts/utils/Address.sol\":7735:7742  success */\n      dup4\n        /* \"@openzeppelin/contracts/utils/Address.sol\":7731:8247  if (success) {... */\n      iszero\n      tag_219\n      jumpi\n        /* \"@openzeppelin/contracts/utils/Address.sol\":7765:7775  returndata */\n      dup3\n        /* \"@openzeppelin/contracts/utils/Address.sol\":7758:7775  return returndata */\n      swap1\n      pop\n      jump(tag_218)\n        /* \"@openzeppelin/contracts/utils/Address.sol\":7731:8247  if (success) {... */\n    tag_219:\n        /* \"@openzeppelin/contracts/utils/Address.sol\":7896:7897  0 */\n      0x00\n        /* \"@openzeppelin/contracts/utils/Address.sol\":7876:7886  returndata */\n      dup4\n        /* \"@openzeppelin/contracts/utils/Address.sol\":7876:7893  returndata.length */\n      mload\n        /* \"@openzeppelin/contracts/utils/Address.sol\":7876:7897  returndata.length > 0 */\n      gt\n        /* \"@openzeppelin/contracts/utils/Address.sol\":7872:8237  if (returndata.length > 0) {... */\n      iszero\n      tag_221\n      jumpi\n        /* \"@openzeppelin/contracts/utils/Address.sol\":8070:8080  returndata */\n      dup3\n        /* \"@openzeppelin/contracts/utils/Address.sol\":8064:8081  mload(returndata) */\n      mload\n        /* \"@openzeppelin/contracts/utils/Address.sol\":8130:8145  returndata_size */\n      dup1\n        /* \"@openzeppelin/contracts/utils/Address.sol\":8117:8127  returndata */\n      dup5\n        /* \"@openzeppelin/contracts/utils/Address.sol\":8113:8115  32 */\n      0x20\n        /* \"@openzeppelin/contracts/utils/Address.sol\":8109:8128  add(32, returndata) */\n      add\n        /* \"@openzeppelin/contracts/utils/Address.sol\":8102:8146  revert(add(32, returndata), returndata_size) */\n      revert\n        /* \"@openzeppelin/contracts/utils/Address.sol\":7872:8237  if (returndata.length > 0) {... */\n    tag_221:\n        /* \"@openzeppelin/contracts/utils/Address.sol\":8209:8221  errorMessage */\n      dup2\n        /* \"@openzeppelin/contracts/utils/Address.sol\":8202:8222  revert(errorMessage) */\n      mload(0x40)\n      0x08c379a000000000000000000000000000000000000000000000000000000000\n      dup2\n      mstore\n      0x04\n      add\n      tag_223\n      swap2\n      swap1\n      tag_224\n      jump\t// in\n    tag_223:\n      mload(0x40)\n      dup1\n      swap2\n      sub\n      swap1\n      revert\n        /* \"@openzeppelin/contracts/utils/Address.sol\":7561:8253  function verifyCallResult(... */\n    tag_218:\n      swap4\n      swap3\n      pop\n      pop\n      pop\n      jump\t// out\n        /* \"#utility.yul\":7:146   */\n    tag_226:\n        /* \"#utility.yul\":53:58   */\n      0x00\n        /* \"#utility.yul\":91:97   */\n      dup2\n        /* \"#utility.yul\":78:98   */\n      calldataload\n        /* \"#utility.yul\":69:98   */\n      swap1\n      pop\n        /* \"#utility.yul\":107:140   */\n      tag_228\n        /* \"#utility.yul\":134:139   */\n      dup2\n        /* \"#utility.yul\":107:140   */\n      tag_229\n      jump\t// in\n    tag_228:\n        /* \"#utility.yul\":7:146   */\n      swap3\n      swap2\n      pop\n      pop\n      jump\t// out\n        /* \"#utility.yul\":152:289   */\n    tag_230:\n        /* \"#utility.yul\":206:211   */\n      0x00\n        /* \"#utility.yul\":237:243   */\n      dup2\n        /* \"#utility.yul\":231:244   */\n      mload\n        /* \"#utility.yul\":222:244   */\n      swap1\n      pop\n        /* \"#utility.yul\":253:283   */\n      tag_232\n        /* \"#utility.yul\":277:282   */\n      dup2\n        /* \"#utility.yul\":253:283   */\n      tag_233\n      jump\t// in\n    tag_232:\n        /* \"#utility.yul\":152:289   */\n      swap3\n      swap2\n      pop\n      pop\n      jump\t// out\n        /* \"#utility.yul\":295:434   */\n    tag_234:\n        /* \"#utility.yul\":341:346   */\n      0x00\n        /* \"#utility.yul\":379:385   */\n      dup2\n        /* \"#utility.yul\":366:386   */\n      calldataload\n        /* \"#utility.yul\":357:386   */\n      swap1\n      pop\n        /* \"#utility.yul\":395:428   */\n      tag_236\n        /* \"#utility.yul\":422:427   */\n      dup2\n        /* \"#utility.yul\":395:428   */\n      tag_237\n      jump\t// in\n    tag_236:\n        /* \"#utility.yul\":295:434   */\n      swap3\n      swap2\n      pop\n      pop\n      jump\t// out\n        /* \"#utility.yul\":440:583   */\n    tag_238:\n        /* \"#utility.yul\":497:502   */\n      0x00\n        /* \"#utility.yul\":528:534   */\n      dup2\n        /* \"#utility.yul\":522:535   */\n      mload\n        /* \"#utility.yul\":513:535   */\n      swap1\n      pop\n        /* \"#utility.yul\":544:577   */\n      tag_240\n        /* \"#utility.yul\":571:576   */\n      dup2\n        /* \"#utility.yul\":544:577   */\n      tag_237\n      jump\t// in\n    tag_240:\n        /* \"#utility.yul\":440:583   */\n      swap3\n      swap2\n      pop\n      pop\n      jump\t// out\n        /* \"#utility.yul\":589:918   */\n    tag_24:\n        /* \"#utility.yul\":648:654   */\n      0x00\n        /* \"#utility.yul\":697:699   */\n      0x20\n        /* \"#utility.yul\":685:694   */\n      dup3\n        /* \"#utility.yul\":676:683   */\n      dup5\n        /* \"#utility.yul\":672:695   */\n      sub\n        /* \"#utility.yul\":668:700   */\n      slt\n        /* \"#utility.yul\":665:784   */\n      iszero\n      tag_242\n      jumpi\n        /* \"#utility.yul\":703:782   */\n      tag_243\n      tag_244\n      jump\t// in\n    tag_243:\n        /* \"#utility.yul\":665:784   */\n    tag_242:\n        /* \"#utility.yul\":823:824   */\n      0x00\n        /* \"#utility.yul\":848:901   */\n      tag_245\n        /* \"#utility.yul\":893:900   */\n      dup5\n        /* \"#utility.yul\":884:890   */\n      dup3\n        /* \"#utility.yul\":873:882   */\n      dup6\n        /* \"#utility.yul\":869:891   */\n      add\n        /* \"#utility.yul\":848:901   */\n      tag_226\n      jump\t// in\n    tag_245:\n        /* \"#utility.yul\":838:901   */\n      swap2\n      pop\n        /* \"#utility.yul\":794:911   */\n      pop\n        /* \"#utility.yul\":589:918   */\n      swap3\n      swap2\n      pop\n      pop\n      jump\t// out\n        /* \"#utility.yul\":924:1398   */\n    tag_75:\n        /* \"#utility.yul\":992:998   */\n      0x00\n        /* \"#utility.yul\":1000:1006   */\n      dup1\n        /* \"#utility.yul\":1049:1051   */\n      0x40\n        /* \"#utility.yul\":1037:1046   */\n      dup4\n        /* \"#utility.yul\":1028:1035   */\n      dup6\n        /* \"#utility.yul\":1024:1047   */\n      sub\n        /* \"#utility.yul\":1020:1052   */\n      slt\n        /* \"#utility.yul\":1017:1136   */\n      iszero\n      tag_247\n      jumpi\n        /* \"#utility.yul\":1055:1134   */\n      tag_248\n      tag_244\n      jump\t// in\n    tag_248:\n        /* \"#utility.yul\":1017:1136   */\n    tag_247:\n        /* \"#utility.yul\":1175:1176   */\n      0x00\n        /* \"#utility.yul\":1200:1253   */\n      tag_249\n        /* \"#utility.yul\":1245:1252   */\n      dup6\n        /* \"#utility.yul\":1236:1242   */\n      dup3\n        /* \"#utility.yul\":1225:1234   */\n      dup7\n        /* \"#utility.yul\":1221:1243   */\n      add\n        /* \"#utility.yul\":1200:1253   */\n      tag_226\n      jump\t// in\n    tag_249:\n        /* \"#utility.yul\":1190:1253   */\n      swap3\n      pop\n        /* \"#utility.yul\":1146:1263   */\n      pop\n        /* \"#utility.yul\":1302:1304   */\n      0x20\n        /* \"#utility.yul\":1328:1381   */\n      tag_250\n        /* \"#utility.yul\":1373:1380   */\n      dup6\n        /* \"#utility.yul\":1364:1370   */\n      dup3\n        /* \"#utility.yul\":1353:1362   */\n      dup7\n        /* \"#utility.yul\":1349:1371   */\n      add\n        /* \"#utility.yul\":1328:1381   */\n      tag_234\n      jump\t// in\n    tag_250:\n        /* \"#utility.yul\":1318:1381   */\n      swap2\n      pop\n        /* \"#utility.yul\":1273:1391   */\n      pop\n        /* \"#utility.yul\":924:1398   */\n      swap3\n      pop\n      swap3\n      swap1\n      pop\n      jump\t// out\n        /* \"#utility.yul\":1404:1749   */\n    tag_122:\n        /* \"#utility.yul\":1471:1477   */\n      0x00\n        /* \"#utility.yul\":1520:1522   */\n      0x20\n        /* \"#utility.yul\":1508:1517   */\n      dup3\n        /* \"#utility.yul\":1499:1506   */\n      dup5\n        /* \"#utility.yul\":1495:1518   */\n      sub\n        /* \"#utility.yul\":1491:1523   */\n      slt\n        /* \"#utility.yul\":1488:1607   */\n      iszero\n      tag_252\n      jumpi\n        /* \"#utility.yul\":1526:1605   */\n      tag_253\n      tag_244\n      jump\t// in\n    tag_253:\n        /* \"#utility.yul\":1488:1607   */\n    tag_252:\n        /* \"#utility.yul\":1646:1647   */\n      0x00\n        /* \"#utility.yul\":1671:1732   */\n      tag_254\n        /* \"#utility.yul\":1724:1731   */\n      dup5\n        /* \"#utility.yul\":1715:1721   */\n      dup3\n        /* \"#utility.yul\":1704:1713   */\n      dup6\n        /* \"#utility.yul\":1700:1722   */\n      add\n        /* \"#utility.yul\":1671:1732   */\n      tag_230\n      jump\t// in\n    tag_254:\n        /* \"#utility.yul\":1661:1732   */\n      swap2\n      pop\n        /* \"#utility.yul\":1617:1742   */\n      pop\n        /* \"#utility.yul\":1404:1749   */\n      swap3\n      swap2\n      pop\n      pop\n      jump\t// out\n        /* \"#utility.yul\":1755:2084   */\n    tag_30:\n        /* \"#utility.yul\":1814:1820   */\n      0x00\n        /* \"#utility.yul\":1863:1865   */\n      0x20\n        /* \"#utility.yul\":1851:1860   */\n      dup3\n        /* \"#utility.yul\":1842:1849   */\n      dup5\n        /* \"#utility.yul\":1838:1861   */\n      sub\n        /* \"#utility.yul\":1834:1866   */\n      slt\n        /* \"#utility.yul\":1831:1950   */\n      iszero\n      tag_256\n      jumpi\n        /* \"#utility.yul\":1869:1948   */\n      tag_257\n      tag_244\n      jump\t// in\n    tag_257:\n        /* \"#utility.yul\":1831:1950   */\n    tag_256:\n        /* \"#utility.yul\":1989:1990   */\n      0x00\n        /* \"#utility.yul\":2014:2067   */\n      tag_258\n        /* \"#utility.yul\":2059:2066   */\n      dup5\n        /* \"#utility.yul\":2050:2056   */\n      dup3\n        /* \"#utility.yul\":2039:2048   */\n      dup6\n        /* \"#utility.yul\":2035:2057   */\n      add\n        /* \"#utility.yul\":2014:2067   */\n      tag_234\n      jump\t// in\n    tag_258:\n        /* \"#utility.yul\":2004:2067   */\n      swap2\n      pop\n        /* \"#utility.yul\":1960:2077   */\n      pop\n        /* \"#utility.yul\":1755:2084   */\n      swap3\n      swap2\n      pop\n      pop\n      jump\t// out\n        /* \"#utility.yul\":2090:2441   */\n    tag_83:\n        /* \"#utility.yul\":2160:2166   */\n      0x00\n        /* \"#utility.yul\":2209:2211   */\n      0x20\n        /* \"#utility.yul\":2197:2206   */\n      dup3\n        /* \"#utility.yul\":2188:2195   */\n      dup5\n        /* \"#utility.yul\":2184:2207   */\n      sub\n        /* \"#utility.yul\":2180:2212   */\n      slt\n        /* \"#utility.yul\":2177:2296   */\n      iszero\n      tag_260\n      jumpi\n        /* \"#utility.yul\":2215:2294   */\n      tag_261\n      tag_244\n      jump\t// in\n    tag_261:\n        /* \"#utility.yul\":2177:2296   */\n    tag_260:\n        /* \"#utility.yul\":2335:2336   */\n      0x00\n        /* \"#utility.yul\":2360:2424   */\n      tag_262\n        /* \"#utility.yul\":2416:2423   */\n      dup5\n        /* \"#utility.yul\":2407:2413   */\n      dup3\n        /* \"#utility.yul\":2396:2405   */\n      dup6\n        /* \"#utility.yul\":2392:2414   */\n      add\n        /* \"#utility.yul\":2360:2424   */\n      tag_238\n      jump\t// in\n    tag_262:\n        /* \"#utility.yul\":2350:2424   */\n      swap2\n      pop\n        /* \"#utility.yul\":2306:2434   */\n      pop\n        /* \"#utility.yul\":2090:2441   */\n      swap3\n      swap2\n      pop\n      pop\n      jump\t// out\n        /* \"#utility.yul\":2447:2565   */\n    tag_263:\n        /* \"#utility.yul\":2534:2558   */\n      tag_265\n        /* \"#utility.yul\":2552:2557   */\n      dup2\n        /* \"#utility.yul\":2534:2558   */\n      tag_266\n      jump\t// in\n    tag_265:\n        /* \"#utility.yul\":2529:2532   */\n      dup3\n        /* \"#utility.yul\":2522:2559   */\n      mstore\n        /* \"#utility.yul\":2447:2565   */\n      pop\n      pop\n      jump\t// out\n        /* \"#utility.yul\":2571:2680   */\n    tag_267:\n        /* \"#utility.yul\":2652:2673   */\n      tag_269\n        /* \"#utility.yul\":2667:2672   */\n      dup2\n        /* \"#utility.yul\":2652:2673   */\n      tag_270\n      jump\t// in\n    tag_269:\n        /* \"#utility.yul\":2647:2650   */\n      dup3\n        /* \"#utility.yul\":2640:2674   */\n      mstore\n        /* \"#utility.yul\":2571:2680   */\n      pop\n      pop\n      jump\t// out\n        /* \"#utility.yul\":2686:3059   */\n    tag_271:\n        /* \"#utility.yul\":2790:2793   */\n      0x00\n        /* \"#utility.yul\":2818:2856   */\n      tag_273\n        /* \"#utility.yul\":2850:2855   */\n      dup3\n        /* \"#utility.yul\":2818:2856   */\n      tag_274\n      jump\t// in\n    tag_273:\n        /* \"#utility.yul\":2872:2960   */\n      tag_275\n        /* \"#utility.yul\":2953:2959   */\n      dup2\n        /* \"#utility.yul\":2948:2951   */\n      dup6\n        /* \"#utility.yul\":2872:2960   */\n      tag_276\n      jump\t// in\n    tag_275:\n        /* \"#utility.yul\":2865:2960   */\n      swap4\n      pop\n        /* \"#utility.yul\":2969:3021   */\n      tag_277\n        /* \"#utility.yul\":3014:3020   */\n      dup2\n        /* \"#utility.yul\":3009:3012   */\n      dup6\n        /* \"#utility.yul\":3002:3006   */\n      0x20\n        /* \"#utility.yul\":2995:3000   */\n      dup7\n        /* \"#utility.yul\":2991:3007   */\n      add\n        /* \"#utility.yul\":2969:3021   */\n      tag_278\n      jump\t// in\n    tag_277:\n        /* \"#utility.yul\":3046:3052   */\n      dup1\n        /* \"#utility.yul\":3041:3044   */\n      dup5\n        /* \"#utility.yul\":3037:3053   */\n      add\n        /* \"#utility.yul\":3030:3053   */\n      swap2\n      pop\n        /* \"#utility.yul\":2794:3059   */\n      pop\n        /* \"#utility.yul\":2686:3059   */\n      swap3\n      swap2\n      pop\n      pop\n      jump\t// out\n        /* \"#utility.yul\":3065:3429   */\n    tag_279:\n        /* \"#utility.yul\":3153:3156   */\n      0x00\n        /* \"#utility.yul\":3181:3220   */\n      tag_281\n        /* \"#utility.yul\":3214:3219   */\n      dup3\n        /* \"#utility.yul\":3181:3220   */\n      tag_282\n      jump\t// in\n    tag_281:\n        /* \"#utility.yul\":3236:3307   */\n      tag_283\n        /* \"#utility.yul\":3300:3306   */\n      dup2\n        /* \"#utility.yul\":3295:3298   */\n      dup6\n        /* \"#utility.yul\":3236:3307   */\n      tag_284\n      jump\t// in\n    tag_283:\n        /* \"#utility.yul\":3229:3307   */\n      swap4\n      pop\n        /* \"#utility.yul\":3316:3368   */\n      tag_285\n        /* \"#utility.yul\":3361:3367   */\n      dup2\n        /* \"#utility.yul\":3356:3359   */\n      dup6\n        /* \"#utility.yul\":3349:3353   */\n      0x20\n        /* \"#utility.yul\":3342:3347   */\n      dup7\n        /* \"#utility.yul\":3338:3354   */\n      add\n        /* \"#utility.yul\":3316:3368   */\n      tag_278\n      jump\t// in\n    tag_285:\n        /* \"#utility.yul\":3393:3422   */\n      tag_286\n        /* \"#utility.yul\":3415:3421   */\n      dup2\n        /* \"#utility.yul\":3393:3422   */\n      tag_287\n      jump\t// in\n    tag_286:\n        /* \"#utility.yul\":3388:3391   */\n      dup5\n        /* \"#utility.yul\":3384:3423   */\n      add\n        /* \"#utility.yul\":3377:3423   */\n      swap2\n      pop\n        /* \"#utility.yul\":3157:3429   */\n      pop\n        /* \"#utility.yul\":3065:3429   */\n      swap3\n      swap2\n      pop\n      pop\n      jump\t// out\n        /* \"#utility.yul\":3435:3801   */\n    tag_288:\n        /* \"#utility.yul\":3577:3580   */\n      0x00\n        /* \"#utility.yul\":3598:3665   */\n      tag_290\n        /* \"#utility.yul\":3662:3664   */\n      0x25\n        /* \"#utility.yul\":3657:3660   */\n      dup4\n        /* \"#utility.yul\":3598:3665   */\n      tag_284\n      jump\t// in\n    tag_290:\n        /* \"#utility.yul\":3591:3665   */\n      swap2\n      pop\n        /* \"#utility.yul\":3674:3767   */\n      tag_291\n        /* \"#utility.yul\":3763:3766   */\n      dup3\n        /* \"#utility.yul\":3674:3767   */\n      tag_292\n      jump\t// in\n    tag_291:\n        /* \"#utility.yul\":3792:3794   */\n      0x40\n        /* \"#utility.yul\":3787:3790   */\n      dup3\n        /* \"#utility.yul\":3783:3795   */\n      add\n        /* \"#utility.yul\":3776:3795   */\n      swap1\n      pop\n        /* \"#utility.yul\":3435:3801   */\n      swap2\n      swap1\n      pop\n      jump\t// out\n        /* \"#utility.yul\":3807:4173   */\n    tag_293:\n        /* \"#utility.yul\":3949:3952   */\n      0x00\n        /* \"#utility.yul\":3970:4037   */\n      tag_295\n        /* \"#utility.yul\":4034:4036   */\n      0x26\n        /* \"#utility.yul\":4029:4032   */\n      dup4\n        /* \"#utility.yul\":3970:4037   */\n      tag_284\n      jump\t// in\n    tag_295:\n        /* \"#utility.yul\":3963:4037   */\n      swap2\n      pop\n        /* \"#utility.yul\":4046:4139   */\n      tag_296\n        /* \"#utility.yul\":4135:4138   */\n      dup3\n        /* \"#utility.yul\":4046:4139   */\n      tag_297\n      jump\t// in\n    tag_296:\n        /* \"#utility.yul\":4164:4166   */\n      0x40\n        /* \"#utility.yul\":4159:4162   */\n      dup3\n        /* \"#utility.yul\":4155:4167   */\n      add\n        /* \"#utility.yul\":4148:4167   */\n      swap1\n      pop\n        /* \"#utility.yul\":3807:4173   */\n      swap2\n      swap1\n      pop\n      jump\t// out\n        /* \"#utility.yul\":4179:4545   */\n    tag_298:\n        /* \"#utility.yul\":4321:4324   */\n      0x00\n        /* \"#utility.yul\":4342:4409   */\n      tag_300\n        /* \"#utility.yul\":4406:4408   */\n      0x0e\n        /* \"#utility.yul\":4401:4404   */\n      dup4\n        /* \"#utility.yul\":4342:4409   */\n      tag_284\n      jump\t// in\n    tag_300:\n        /* \"#utility.yul\":4335:4409   */\n      swap2\n      pop\n        /* \"#utility.yul\":4418:4511   */\n      tag_301\n        /* \"#utility.yul\":4507:4510   */\n      dup3\n        /* \"#utility.yul\":4418:4511   */\n      tag_302\n      jump\t// in\n    tag_301:\n        /* \"#utility.yul\":4536:4538   */\n      0x20\n        /* \"#utility.yul\":4531:4534   */\n      dup3\n        /* \"#utility.yul\":4527:4539   */\n      add\n        /* \"#utility.yul\":4520:4539   */\n      swap1\n      pop\n        /* \"#utility.yul\":4179:4545   */\n      swap2\n      swap1\n      pop\n      jump\t// out\n        /* \"#utility.yul\":4551:4917   */\n    tag_303:\n        /* \"#utility.yul\":4693:4696   */\n      0x00\n        /* \"#utility.yul\":4714:4781   */\n      tag_305\n        /* \"#utility.yul\":4778:4780   */\n      0x26\n        /* \"#utility.yul\":4773:4776   */\n      dup4\n        /* \"#utility.yul\":4714:4781   */\n      tag_284\n      jump\t// in\n    tag_305:\n        /* \"#utility.yul\":4707:4781   */\n      swap2\n      pop\n        /* \"#utility.yul\":4790:4883   */\n      tag_306\n        /* \"#utility.yul\":4879:4882   */\n      dup3\n        /* \"#utility.yul\":4790:4883   */\n      tag_307\n      jump\t// in\n    tag_306:\n        /* \"#utility.yul\":4908:4910   */\n      0x40\n        /* \"#utility.yul\":4903:4906   */\n      dup3\n        /* \"#utility.yul\":4899:4911   */\n      add\n        /* \"#utility.yul\":4892:4911   */\n      swap1\n      pop\n        /* \"#utility.yul\":4551:4917   */\n      swap2\n      swap1\n      pop\n      jump\t// out\n        /* \"#utility.yul\":4923:5289   */\n    tag_308:\n        /* \"#utility.yul\":5065:5068   */\n      0x00\n        /* \"#utility.yul\":5086:5153   */\n      tag_310\n        /* \"#utility.yul\":5150:5152   */\n      0x20\n        /* \"#utility.yul\":5145:5148   */\n      dup4\n        /* \"#utility.yul\":5086:5153   */\n      tag_284\n      jump\t// in\n    tag_310:\n        /* \"#utility.yul\":5079:5153   */\n      swap2\n      pop\n        /* \"#utility.yul\":5162:5255   */\n      tag_311\n        /* \"#utility.yul\":5251:5254   */\n      dup3\n        /* \"#utility.yul\":5162:5255   */\n      tag_312\n      jump\t// in\n    tag_311:\n        /* \"#utility.yul\":5280:5282   */\n      0x20\n        /* \"#utility.yul\":5275:5278   */\n      dup3\n        /* \"#utility.yul\":5271:5283   */\n      add\n        /* \"#utility.yul\":5264:5283   */\n      swap1\n      pop\n        /* \"#utility.yul\":4923:5289   */\n      swap2\n      swap1\n      pop\n      jump\t// out\n        /* \"#utility.yul\":5295:5661   */\n    tag_313:\n        /* \"#utility.yul\":5437:5440   */\n      0x00\n        /* \"#utility.yul\":5458:5525   */\n      tag_315\n        /* \"#utility.yul\":5522:5524   */\n      0x17\n        /* \"#utility.yul\":5517:5520   */\n      dup4\n        /* \"#utility.yul\":5458:5525   */\n      tag_284\n      jump\t// in\n    tag_315:\n        /* \"#utility.yul\":5451:5525   */\n      swap2\n      pop\n        /* \"#utility.yul\":5534:5627   */\n      tag_316\n        /* \"#utility.yul\":5623:5626   */\n      dup3\n        /* \"#utility.yul\":5534:5627   */\n      tag_317\n      jump\t// in\n    tag_316:\n        /* \"#utility.yul\":5652:5654   */\n      0x20\n        /* \"#utility.yul\":5647:5650   */\n      dup3\n        /* \"#utility.yul\":5643:5655   */\n      add\n        /* \"#utility.yul\":5636:5655   */\n      swap1\n      pop\n        /* \"#utility.yul\":5295:5661   */\n      swap2\n      swap1\n      pop\n      jump\t// out\n        /* \"#utility.yul\":5667:6033   */\n    tag_318:\n        /* \"#utility.yul\":5809:5812   */\n      0x00\n        /* \"#utility.yul\":5830:5897   */\n      tag_320\n        /* \"#utility.yul\":5894:5896   */\n      0x11\n        /* \"#utility.yul\":5889:5892   */\n      dup4\n        /* \"#utility.yul\":5830:5897   */\n      tag_284\n      jump\t// in\n    tag_320:\n        /* \"#utility.yul\":5823:5897   */\n      swap2\n      pop\n        /* \"#utility.yul\":5906:5999   */\n      tag_321\n        /* \"#utility.yul\":5995:5998   */\n      dup3\n        /* \"#utility.yul\":5906:5999   */\n      tag_322\n      jump\t// in\n    tag_321:\n        /* \"#utility.yul\":6024:6026   */\n      0x20\n        /* \"#utility.yul\":6019:6022   */\n      dup3\n        /* \"#utility.yul\":6015:6027   */\n      add\n        /* \"#utility.yul\":6008:6027   */\n      swap1\n      pop\n        /* \"#utility.yul\":5667:6033   */\n      swap2\n      swap1\n      pop\n      jump\t// out\n        /* \"#utility.yul\":6039:6405   */\n    tag_323:\n        /* \"#utility.yul\":6181:6184   */\n      0x00\n        /* \"#utility.yul\":6202:6269   */\n      tag_325\n        /* \"#utility.yul\":6266:6268   */\n      0x1d\n        /* \"#utility.yul\":6261:6264   */\n      dup4\n        /* \"#utility.yul\":6202:6269   */\n      tag_284\n      jump\t// in\n    tag_325:\n        /* \"#utility.yul\":6195:6269   */\n      swap2\n      pop\n        /* \"#utility.yul\":6278:6371   */\n      tag_326\n        /* \"#utility.yul\":6367:6370   */\n      dup3\n        /* \"#utility.yul\":6278:6371   */\n      tag_327\n      jump\t// in\n    tag_326:\n        /* \"#utility.yul\":6396:6398   */\n      0x20\n        /* \"#utility.yul\":6391:6394   */\n      dup3\n        /* \"#utility.yul\":6387:6399   */\n      add\n        /* \"#utility.yul\":6380:6399   */\n      swap1\n      pop\n        /* \"#utility.yul\":6039:6405   */\n      swap2\n      swap1\n      pop\n      jump\t// out\n        /* \"#utility.yul\":6411:6777   */\n    tag_328:\n        /* \"#utility.yul\":6553:6556   */\n      0x00\n        /* \"#utility.yul\":6574:6641   */\n      tag_330\n        /* \"#utility.yul\":6638:6640   */\n      0x1a\n        /* \"#utility.yul\":6633:6636   */\n      dup4\n        /* \"#utility.yul\":6574:6641   */\n      tag_284\n      jump\t// in\n    tag_330:\n        /* \"#utility.yul\":6567:6641   */\n      swap2\n      pop\n        /* \"#utility.yul\":6650:6743   */\n      tag_331\n        /* \"#utility.yul\":6739:6742   */\n      dup3\n        /* \"#utility.yul\":6650:6743   */\n      tag_332\n      jump\t// in\n    tag_331:\n        /* \"#utility.yul\":6768:6770   */\n      0x20\n        /* \"#utility.yul\":6763:6766   */\n      dup3\n        /* \"#utility.yul\":6759:6771   */\n      add\n        /* \"#utility.yul\":6752:6771   */\n      swap1\n      pop\n        /* \"#utility.yul\":6411:6777   */\n      swap2\n      swap1\n      pop\n      jump\t// out\n        /* \"#utility.yul\":6783:7149   */\n    tag_333:\n        /* \"#utility.yul\":6925:6928   */\n      0x00\n        /* \"#utility.yul\":6946:7013   */\n      tag_335\n        /* \"#utility.yul\":7010:7012   */\n      0x2a\n        /* \"#utility.yul\":7005:7008   */\n      dup4\n        /* \"#utility.yul\":6946:7013   */\n      tag_284\n      jump\t// in\n    tag_335:\n        /* \"#utility.yul\":6939:7013   */\n      swap2\n      pop\n        /* \"#utility.yul\":7022:7115   */\n      tag_336\n        /* \"#utility.yul\":7111:7114   */\n      dup3\n        /* \"#utility.yul\":7022:7115   */\n      tag_337\n      jump\t// in\n    tag_336:\n        /* \"#utility.yul\":7140:7142   */\n      0x40\n        /* \"#utility.yul\":7135:7138   */\n      dup3\n        /* \"#utility.yul\":7131:7143   */\n      add\n        /* \"#utility.yul\":7124:7143   */\n      swap1\n      pop\n        /* \"#utility.yul\":6783:7149   */\n      swap2\n      swap1\n      pop\n      jump\t// out\n        /* \"#utility.yul\":7155:7273   */\n    tag_338:\n        /* \"#utility.yul\":7242:7266   */\n      tag_340\n        /* \"#utility.yul\":7260:7265   */\n      dup2\n        /* \"#utility.yul\":7242:7266   */\n      tag_341\n      jump\t// in\n    tag_340:\n        /* \"#utility.yul\":7237:7240   */\n      dup3\n        /* \"#utility.yul\":7230:7267   */\n      mstore\n        /* \"#utility.yul\":7155:7273   */\n      pop\n      pop\n      jump\t// out\n        /* \"#utility.yul\":7279:7550   */\n    tag_211:\n        /* \"#utility.yul\":7409:7412   */\n      0x00\n        /* \"#utility.yul\":7431:7524   */\n      tag_343\n        /* \"#utility.yul\":7520:7523   */\n      dup3\n        /* \"#utility.yul\":7511:7517   */\n      dup5\n        /* \"#utility.yul\":7431:7524   */\n      tag_271\n      jump\t// in\n    tag_343:\n        /* \"#utility.yul\":7424:7524   */\n      swap2\n      pop\n        /* \"#utility.yul\":7541:7544   */\n      dup2\n        /* \"#utility.yul\":7534:7544   */\n      swap1\n      pop\n        /* \"#utility.yul\":7279:7550   */\n      swap3\n      swap2\n      pop\n      pop\n      jump\t// out\n        /* \"#utility.yul\":7556:7778   */\n    tag_42:\n        /* \"#utility.yul\":7649:7653   */\n      0x00\n        /* \"#utility.yul\":7687:7689   */\n      0x20\n        /* \"#utility.yul\":7676:7685   */\n      dup3\n        /* \"#utility.yul\":7672:7690   */\n      add\n        /* \"#utility.yul\":7664:7690   */\n      swap1\n      pop\n        /* \"#utility.yul\":7700:7771   */\n      tag_345\n        /* \"#utility.yul\":7768:7769   */\n      0x00\n        /* \"#utility.yul\":7757:7766   */\n      dup4\n        /* \"#utility.yul\":7753:7770   */\n      add\n        /* \"#utility.yul\":7744:7750   */\n      dup5\n        /* \"#utility.yul\":7700:7771   */\n      tag_263\n      jump\t// in\n    tag_345:\n        /* \"#utility.yul\":7556:7778   */\n      swap3\n      swap2\n      pop\n      pop\n      jump\t// out\n        /* \"#utility.yul\":7784:8226   */\n    tag_189:\n        /* \"#utility.yul\":7933:7937   */\n      0x00\n        /* \"#utility.yul\":7971:7973   */\n      0x60\n        /* \"#utility.yul\":7960:7969   */\n      dup3\n        /* \"#utility.yul\":7956:7974   */\n      add\n        /* \"#utility.yul\":7948:7974   */\n      swap1\n      pop\n        /* \"#utility.yul\":7984:8055   */\n      tag_347\n        /* \"#utility.yul\":8052:8053   */\n      0x00\n        /* \"#utility.yul\":8041:8050   */\n      dup4\n        /* \"#utility.yul\":8037:8054   */\n      add\n        /* \"#utility.yul\":8028:8034   */\n      dup7\n        /* \"#utility.yul\":7984:8055   */\n      tag_263\n      jump\t// in\n    tag_347:\n        /* \"#utility.yul\":8065:8137   */\n      tag_348\n        /* \"#utility.yul\":8133:8135   */\n      0x20\n        /* \"#utility.yul\":8122:8131   */\n      dup4\n        /* \"#utility.yul\":8118:8136   */\n      add\n        /* \"#utility.yul\":8109:8115   */\n      dup6\n        /* \"#utility.yul\":8065:8137   */\n      tag_263\n      jump\t// in\n    tag_348:\n        /* \"#utility.yul\":8147:8219   */\n      tag_349\n        /* \"#utility.yul\":8215:8217   */\n      0x40\n        /* \"#utility.yul\":8204:8213   */\n      dup4\n        /* \"#utility.yul\":8200:8218   */\n      add\n        /* \"#utility.yul\":8191:8197   */\n      dup5\n        /* \"#utility.yul\":8147:8219   */\n      tag_338\n      jump\t// in\n    tag_349:\n        /* \"#utility.yul\":7784:8226   */\n      swap5\n      swap4\n      pop\n      pop\n      pop\n      pop\n      jump\t// out\n        /* \"#utility.yul\":8232:8564   */\n    tag_117:\n        /* \"#utility.yul\":8353:8357   */\n      0x00\n        /* \"#utility.yul\":8391:8393   */\n      0x40\n        /* \"#utility.yul\":8380:8389   */\n      dup3\n        /* \"#utility.yul\":8376:8394   */\n      add\n        /* \"#utility.yul\":8368:8394   */\n      swap1\n      pop\n        /* \"#utility.yul\":8404:8475   */\n      tag_351\n        /* \"#utility.yul\":8472:8473   */\n      0x00\n        /* \"#utility.yul\":8461:8470   */\n      dup4\n        /* \"#utility.yul\":8457:8474   */\n      add\n        /* \"#utility.yul\":8448:8454   */\n      dup6\n        /* \"#utility.yul\":8404:8475   */\n      tag_263\n      jump\t// in\n    tag_351:\n        /* \"#utility.yul\":8485:8557   */\n      tag_352\n        /* \"#utility.yul\":8553:8555   */\n      0x20\n        /* \"#utility.yul\":8542:8551   */\n      dup4\n        /* \"#utility.yul\":8538:8556   */\n      add\n        /* \"#utility.yul\":8529:8535   */\n      dup5\n        /* \"#utility.yul\":8485:8557   */\n      tag_338\n      jump\t// in\n    tag_352:\n        /* \"#utility.yul\":8232:8564   */\n      swap4\n      swap3\n      pop\n      pop\n      pop\n      jump\t// out\n        /* \"#utility.yul\":8570:8780   */\n    tag_36:\n        /* \"#utility.yul\":8657:8661   */\n      0x00\n        /* \"#utility.yul\":8695:8697   */\n      0x20\n        /* \"#utility.yul\":8684:8693   */\n      dup3\n        /* \"#utility.yul\":8680:8698   */\n      add\n        /* \"#utility.yul\":8672:8698   */\n      swap1\n      pop\n        /* \"#utility.yul\":8708:8773   */\n      tag_354\n        /* \"#utility.yul\":8770:8771   */\n      0x00\n        /* \"#utility.yul\":8759:8768   */\n      dup4\n        /* \"#utility.yul\":8755:8772   */\n      add\n        /* \"#utility.yul\":8746:8752   */\n      dup5\n        /* \"#utility.yul\":8708:8773   */\n      tag_267\n      jump\t// in\n    tag_354:\n        /* \"#utility.yul\":8570:8780   */\n      swap3\n      swap2\n      pop\n      pop\n      jump\t// out\n        /* \"#utility.yul\":8786:9099   */\n    tag_224:\n        /* \"#utility.yul\":8899:8903   */\n      0x00\n        /* \"#utility.yul\":8937:8939   */\n      0x20\n        /* \"#utility.yul\":8926:8935   */\n      dup3\n        /* \"#utility.yul\":8922:8940   */\n      add\n        /* \"#utility.yul\":8914:8940   */\n      swap1\n      pop\n        /* \"#utility.yul\":8986:8995   */\n      dup2\n        /* \"#utility.yul\":8980:8984   */\n      dup2\n        /* \"#utility.yul\":8976:8996   */\n      sub\n        /* \"#utility.yul\":8972:8973   */\n      0x00\n        /* \"#utility.yul\":8961:8970   */\n      dup4\n        /* \"#utility.yul\":8957:8974   */\n      add\n        /* \"#utility.yul\":8950:8997   */\n      mstore\n        /* \"#utility.yul\":9014:9092   */\n      tag_356\n        /* \"#utility.yul\":9087:9091   */\n      dup2\n        /* \"#utility.yul\":9078:9084   */\n      dup5\n        /* \"#utility.yul\":9014:9092   */\n      tag_279\n      jump\t// in\n    tag_356:\n        /* \"#utility.yul\":9006:9092   */\n      swap1\n      pop\n        /* \"#utility.yul\":8786:9099   */\n      swap3\n      swap2\n      pop\n      pop\n      jump\t// out\n        /* \"#utility.yul\":9105:9524   */\n    tag_106:\n        /* \"#utility.yul\":9271:9275   */\n      0x00\n        /* \"#utility.yul\":9309:9311   */\n      0x20\n        /* \"#utility.yul\":9298:9307   */\n      dup3\n        /* \"#utility.yul\":9294:9312   */\n      add\n        /* \"#utility.yul\":9286:9312   */\n      swap1\n      pop\n        /* \"#utility.yul\":9358:9367   */\n      dup2\n        /* \"#utility.yul\":9352:9356   */\n      dup2\n        /* \"#utility.yul\":9348:9368   */\n      sub\n        /* \"#utility.yul\":9344:9345   */\n      0x00\n        /* \"#utility.yul\":9333:9342   */\n      dup4\n        /* \"#utility.yul\":9329:9346   */\n      add\n        /* \"#utility.yul\":9322:9369   */\n      mstore\n        /* \"#utility.yul\":9386:9517   */\n      tag_358\n        /* \"#utility.yul\":9512:9516   */\n      dup2\n        /* \"#utility.yul\":9386:9517   */\n      tag_288\n      jump\t// in\n    tag_358:\n        /* \"#utility.yul\":9378:9517   */\n      swap1\n      pop\n        /* \"#utility.yul\":9105:9524   */\n      swap2\n      swap1\n      pop\n      jump\t// out\n        /* \"#utility.yul\":9530:9949   */\n    tag_164:\n        /* \"#utility.yul\":9696:9700   */\n      0x00\n        /* \"#utility.yul\":9734:9736   */\n      0x20\n        /* \"#utility.yul\":9723:9732   */\n      dup3\n        /* \"#utility.yul\":9719:9737   */\n      add\n        /* \"#utility.yul\":9711:9737   */\n      swap1\n      pop\n        /* \"#utility.yul\":9783:9792   */\n      dup2\n        /* \"#utility.yul\":9777:9781   */\n      dup2\n        /* \"#utility.yul\":9773:9793   */\n      sub\n        /* \"#utility.yul\":9769:9770   */\n      0x00\n        /* \"#utility.yul\":9758:9767   */\n      dup4\n        /* \"#utility.yul\":9754:9771   */\n      add\n        /* \"#utility.yul\":9747:9794   */\n      mstore\n        /* \"#utility.yul\":9811:9942   */\n      tag_360\n        /* \"#utility.yul\":9937:9941   */\n      dup2\n        /* \"#utility.yul\":9811:9942   */\n      tag_293\n      jump\t// in\n    tag_360:\n        /* \"#utility.yul\":9803:9942   */\n      swap1\n      pop\n        /* \"#utility.yul\":9530:9949   */\n      swap2\n      swap1\n      pop\n      jump\t// out\n        /* \"#utility.yul\":9955:10374   */\n    tag_150:\n        /* \"#utility.yul\":10121:10125   */\n      0x00\n        /* \"#utility.yul\":10159:10161   */\n      0x20\n        /* \"#utility.yul\":10148:10157   */\n      dup3\n        /* \"#utility.yul\":10144:10162   */\n      add\n        /* \"#utility.yul\":10136:10162   */\n      swap1\n      pop\n        /* \"#utility.yul\":10208:10217   */\n      dup2\n        /* \"#utility.yul\":10202:10206   */\n      dup2\n        /* \"#utility.yul\":10198:10218   */\n      sub\n        /* \"#utility.yul\":10194:10195   */\n      0x00\n        /* \"#utility.yul\":10183:10192   */\n      dup4\n        /* \"#utility.yul\":10179:10196   */\n      add\n        /* \"#utility.yul\":10172:10219   */\n      mstore\n        /* \"#utility.yul\":10236:10367   */\n      tag_362\n        /* \"#utility.yul\":10362:10366   */\n      dup2\n        /* \"#utility.yul\":10236:10367   */\n      tag_298\n      jump\t// in\n    tag_362:\n        /* \"#utility.yul\":10228:10367   */\n      swap1\n      pop\n        /* \"#utility.yul\":9955:10374   */\n      swap2\n      swap1\n      pop\n      jump\t// out\n        /* \"#utility.yul\":10380:10799   */\n    tag_204:\n        /* \"#utility.yul\":10546:10550   */\n      0x00\n        /* \"#utility.yul\":10584:10586   */\n      0x20\n        /* \"#utility.yul\":10573:10582   */\n      dup3\n        /* \"#utility.yul\":10569:10587   */\n      add\n        /* \"#utility.yul\":10561:10587   */\n      swap1\n      pop\n        /* \"#utility.yul\":10633:10642   */\n      dup2\n        /* \"#utility.yul\":10627:10631   */\n      dup2\n        /* \"#utility.yul\":10623:10643   */\n      sub\n        /* \"#utility.yul\":10619:10620   */\n      0x00\n        /* \"#utility.yul\":10608:10617   */\n      dup4\n        /* \"#utility.yul\":10604:10621   */\n      add\n        /* \"#utility.yul\":10597:10644   */\n      mstore\n        /* \"#utility.yul\":10661:10792   */\n      tag_364\n        /* \"#utility.yul\":10787:10791   */\n      dup2\n        /* \"#utility.yul\":10661:10792   */\n      tag_303\n      jump\t// in\n    tag_364:\n        /* \"#utility.yul\":10653:10792   */\n      swap1\n      pop\n        /* \"#utility.yul\":10380:10799   */\n      swap2\n      swap1\n      pop\n      jump\t// out\n        /* \"#utility.yul\":10805:11224   */\n    tag_90:\n        /* \"#utility.yul\":10971:10975   */\n      0x00\n        /* \"#utility.yul\":11009:11011   */\n      0x20\n        /* \"#utility.yul\":10998:11007   */\n      dup3\n        /* \"#utility.yul\":10994:11012   */\n      add\n        /* \"#utility.yul\":10986:11012   */\n      swap1\n      pop\n        /* \"#utility.yul\":11058:11067   */\n      dup2\n        /* \"#utility.yul\":11052:11056   */\n      dup2\n        /* \"#utility.yul\":11048:11068   */\n      sub\n        /* \"#utility.yul\":11044:11045   */\n      0x00\n        /* \"#utility.yul\":11033:11042   */\n      dup4\n        /* \"#utility.yul\":11029:11046   */\n      add\n        /* \"#utility.yul\":11022:11069   */\n      mstore\n        /* \"#utility.yul\":11086:11217   */\n      tag_366\n        /* \"#utility.yul\":11212:11216   */\n      dup2\n        /* \"#utility.yul\":11086:11217   */\n      tag_308\n      jump\t// in\n    tag_366:\n        /* \"#utility.yul\":11078:11217   */\n      swap1\n      pop\n        /* \"#utility.yul\":10805:11224   */\n      swap2\n      swap1\n      pop\n      jump\t// out\n        /* \"#utility.yul\":11230:11649   */\n    tag_147:\n        /* \"#utility.yul\":11396:11400   */\n      0x00\n        /* \"#utility.yul\":11434:11436   */\n      0x20\n        /* \"#utility.yul\":11423:11432   */\n      dup3\n        /* \"#utility.yul\":11419:11437   */\n      add\n        /* \"#utility.yul\":11411:11437   */\n      swap1\n      pop\n        /* \"#utility.yul\":11483:11492   */\n      dup2\n        /* \"#utility.yul\":11477:11481   */\n      dup2\n        /* \"#utility.yul\":11473:11493   */\n      sub\n        /* \"#utility.yul\":11469:11470   */\n      0x00\n        /* \"#utility.yul\":11458:11467   */\n      dup4\n        /* \"#utility.yul\":11454:11471   */\n      add\n        /* \"#utility.yul\":11447:11494   */\n      mstore\n        /* \"#utility.yul\":11511:11642   */\n      tag_368\n        /* \"#utility.yul\":11637:11641   */\n      dup2\n        /* \"#utility.yul\":11511:11642   */\n      tag_313\n      jump\t// in\n    tag_368:\n        /* \"#utility.yul\":11503:11642   */\n      swap1\n      pop\n        /* \"#utility.yul\":11230:11649   */\n      swap2\n      swap1\n      pop\n      jump\t// out\n        /* \"#utility.yul\":11655:12074   */\n    tag_115:\n        /* \"#utility.yul\":11821:11825   */\n      0x00\n        /* \"#utility.yul\":11859:11861   */\n      0x20\n        /* \"#utility.yul\":11848:11857   */\n      dup3\n        /* \"#utility.yul\":11844:11862   */\n      add\n        /* \"#utility.yul\":11836:11862   */\n      swap1\n      pop\n        /* \"#utility.yul\":11908:11917   */\n      dup2\n        /* \"#utility.yul\":11902:11906   */\n      dup2\n        /* \"#utility.yul\":11898:11918   */\n      sub\n        /* \"#utility.yul\":11894:11895   */\n      0x00\n        /* \"#utility.yul\":11883:11892   */\n      dup4\n        /* \"#utility.yul\":11879:11896   */\n      add\n        /* \"#utility.yul\":11872:11919   */\n      mstore\n        /* \"#utility.yul\":11936:12067   */\n      tag_370\n        /* \"#utility.yul\":12062:12066   */\n      dup2\n        /* \"#utility.yul\":11936:12067   */\n      tag_318\n      jump\t// in\n    tag_370:\n        /* \"#utility.yul\":11928:12067   */\n      swap1\n      pop\n        /* \"#utility.yul\":11655:12074   */\n      swap2\n      swap1\n      pop\n      jump\t// out\n        /* \"#utility.yul\":12080:12499   */\n    tag_209:\n        /* \"#utility.yul\":12246:12250   */\n      0x00\n        /* \"#utility.yul\":12284:12286   */\n      0x20\n        /* \"#utility.yul\":12273:12282   */\n      dup3\n        /* \"#utility.yul\":12269:12287   */\n      add\n        /* \"#utility.yul\":12261:12287   */\n      swap1\n      pop\n        /* \"#utility.yul\":12333:12342   */\n      dup2\n        /* \"#utility.yul\":12327:12331   */\n      dup2\n        /* \"#utility.yul\":12323:12343   */\n      sub\n        /* \"#utility.yul\":12319:12320   */\n      0x00\n        /* \"#utility.yul\":12308:12317   */\n      dup4\n        /* \"#utility.yul\":12304:12321   */\n      add\n        /* \"#utility.yul\":12297:12344   */\n      mstore\n        /* \"#utility.yul\":12361:12492   */\n      tag_372\n        /* \"#utility.yul\":12487:12491   */\n      dup2\n        /* \"#utility.yul\":12361:12492   */\n      tag_323\n      jump\t// in\n    tag_372:\n        /* \"#utility.yul\":12353:12492   */\n      swap1\n      pop\n        /* \"#utility.yul\":12080:12499   */\n      swap2\n      swap1\n      pop\n      jump\t// out\n        /* \"#utility.yul\":12505:12924   */\n    tag_102:\n        /* \"#utility.yul\":12671:12675   */\n      0x00\n        /* \"#utility.yul\":12709:12711   */\n      0x20\n        /* \"#utility.yul\":12698:12707   */\n      dup3\n        /* \"#utility.yul\":12694:12712   */\n      add\n        /* \"#utility.yul\":12686:12712   */\n      swap1\n      pop\n        /* \"#utility.yul\":12758:12767   */\n      dup2\n        /* \"#utility.yul\":12752:12756   */\n      dup2\n        /* \"#utility.yul\":12748:12768   */\n      sub\n        /* \"#utility.yul\":12744:12745   */\n      0x00\n        /* \"#utility.yul\":12733:12742   */\n      dup4\n        /* \"#utility.yul\":12729:12746   */\n      add\n        /* \"#utility.yul\":12722:12769   */\n      mstore\n        /* \"#utility.yul\":12786:12917   */\n      tag_374\n        /* \"#utility.yul\":12912:12916   */\n      dup2\n        /* \"#utility.yul\":12786:12917   */\n      tag_328\n      jump\t// in\n    tag_374:\n        /* \"#utility.yul\":12778:12917   */\n      swap1\n      pop\n        /* \"#utility.yul\":12505:12924   */\n      swap2\n      swap1\n      pop\n      jump\t// out\n        /* \"#utility.yul\":12930:13349   */\n    tag_197:\n        /* \"#utility.yul\":13096:13100   */\n      0x00\n        /* \"#utility.yul\":13134:13136   */\n      0x20\n        /* \"#utility.yul\":13123:13132   */\n      dup3\n        /* \"#utility.yul\":13119:13137   */\n      add\n        /* \"#utility.yul\":13111:13137   */\n      swap1\n      pop\n        /* \"#utility.yul\":13183:13192   */\n      dup2\n        /* \"#utility.yul\":13177:13181   */\n      dup2\n        /* \"#utility.yul\":13173:13193   */\n      sub\n        /* \"#utility.yul\":13169:13170   */\n      0x00\n        /* \"#utility.yul\":13158:13167   */\n      dup4\n        /* \"#utility.yul\":13154:13171   */\n      add\n        /* \"#utility.yul\":13147:13194   */\n      mstore\n        /* \"#utility.yul\":13211:13342   */\n      tag_376\n        /* \"#utility.yul\":13337:13341   */\n      dup2\n        /* \"#utility.yul\":13211:13342   */\n      tag_333\n      jump\t// in\n    tag_376:\n        /* \"#utility.yul\":13203:13342   */\n      swap1\n      pop\n        /* \"#utility.yul\":12930:13349   */\n      swap2\n      swap1\n      pop\n      jump\t// out\n        /* \"#utility.yul\":13355:13577   */\n    tag_27:\n        /* \"#utility.yul\":13448:13452   */\n      0x00\n        /* \"#utility.yul\":13486:13488   */\n      0x20\n        /* \"#utility.yul\":13475:13484   */\n      dup3\n        /* \"#utility.yul\":13471:13489   */\n      add\n        /* \"#utility.yul\":13463:13489   */\n      swap1\n      pop\n        /* \"#utility.yul\":13499:13570   */\n      tag_378\n        /* \"#utility.yul\":13567:13568   */\n      0x00\n        /* \"#utility.yul\":13556:13565   */\n      dup4\n        /* \"#utility.yul\":13552:13569   */\n      add\n        /* \"#utility.yul\":13543:13549   */\n      dup5\n        /* \"#utility.yul\":13499:13570   */\n      tag_338\n      jump\t// in\n    tag_378:\n        /* \"#utility.yul\":13355:13577   */\n      swap3\n      swap2\n      pop\n      pop\n      jump\t// out\n        /* \"#utility.yul\":13664:13762   */\n    tag_274:\n        /* \"#utility.yul\":13715:13721   */\n      0x00\n        /* \"#utility.yul\":13749:13754   */\n      dup2\n        /* \"#utility.yul\":13743:13755   */\n      mload\n        /* \"#utility.yul\":13733:13755   */\n      swap1\n      pop\n        /* \"#utility.yul\":13664:13762   */\n      swap2\n      swap1\n      pop\n      jump\t// out\n        /* \"#utility.yul\":13768:13867   */\n    tag_282:\n        /* \"#utility.yul\":13820:13826   */\n      0x00\n        /* \"#utility.yul\":13854:13859   */\n      dup2\n        /* \"#utility.yul\":13848:13860   */\n      mload\n        /* \"#utility.yul\":13838:13860   */\n      swap1\n      pop\n        /* \"#utility.yul\":13768:13867   */\n      swap2\n      swap1\n      pop\n      jump\t// out\n        /* \"#utility.yul\":13873:14020   */\n    tag_276:\n        /* \"#utility.yul\":13974:13985   */\n      0x00\n        /* \"#utility.yul\":14011:14014   */\n      dup2\n        /* \"#utility.yul\":13996:14014   */\n      swap1\n      pop\n        /* \"#utility.yul\":13873:14020   */\n      swap3\n      swap2\n      pop\n      pop\n      jump\t// out\n        /* \"#utility.yul\":14026:14195   */\n    tag_284:\n        /* \"#utility.yul\":14110:14121   */\n      0x00\n        /* \"#utility.yul\":14144:14150   */\n      dup3\n        /* \"#utility.yul\":14139:14142   */\n      dup3\n        /* \"#utility.yul\":14132:14151   */\n      mstore\n        /* \"#utility.yul\":14184:14188   */\n      0x20\n        /* \"#utility.yul\":14179:14182   */\n      dup3\n        /* \"#utility.yul\":14175:14189   */\n      add\n        /* \"#utility.yul\":14160:14189   */\n      swap1\n      pop\n        /* \"#utility.yul\":14026:14195   */\n      swap3\n      swap2\n      pop\n      pop\n      jump\t// out\n        /* \"#utility.yul\":14201:14506   */\n    tag_155:\n        /* \"#utility.yul\":14241:14244   */\n      0x00\n        /* \"#utility.yul\":14260:14280   */\n      tag_386\n        /* \"#utility.yul\":14278:14279   */\n      dup3\n        /* \"#utility.yul\":14260:14280   */\n      tag_341\n      jump\t// in\n    tag_386:\n        /* \"#utility.yul\":14255:14280   */\n      swap2\n      pop\n        /* \"#utility.yul\":14294:14314   */\n      tag_387\n        /* \"#utility.yul\":14312:14313   */\n      dup4\n        /* \"#utility.yul\":14294:14314   */\n      tag_341\n      jump\t// in\n    tag_387:\n        /* \"#utility.yul\":14289:14314   */\n      swap3\n      pop\n        /* \"#utility.yul\":14448:14449   */\n      dup3\n        /* \"#utility.yul\":14380:14446   */\n      0xffffffffffffffffffffffffffffffffffffffffffffffffffffffffffffffff\n        /* \"#utility.yul\":14376:14450   */\n      sub\n        /* \"#utility.yul\":14373:14374   */\n      dup3\n        /* \"#utility.yul\":14370:14451   */\n      gt\n        /* \"#utility.yul\":14367:14474   */\n      iszero\n      tag_388\n      jumpi\n        /* \"#utility.yul\":14454:14472   */\n      tag_389\n      tag_390\n      jump\t// in\n    tag_389:\n        /* \"#utility.yul\":14367:14474   */\n    tag_388:\n        /* \"#utility.yul\":14498:14499   */\n      dup3\n        /* \"#utility.yul\":14495:14496   */\n      dup3\n        /* \"#utility.yul\":14491:14500   */\n      add\n        /* \"#utility.yul\":14484:14500   */\n      swap1\n      pop\n        /* \"#utility.yul\":14201:14506   */\n      swap3\n      swap2\n      pop\n      pop\n      jump\t// out\n        /* \"#utility.yul\":14512:14860   */\n    tag_94:\n        /* \"#utility.yul\":14552:14559   */\n      0x00\n        /* \"#utility.yul\":14575:14595   */\n      tag_392\n        /* \"#utility.yul\":14593:14594   */\n      dup3\n        /* \"#utility.yul\":14575:14595   */\n      tag_341\n      jump\t// in\n    tag_392:\n        /* \"#utility.yul\":14570:14595   */\n      swap2\n      pop\n        /* \"#utility.yul\":14609:14629   */\n      tag_393\n        /* \"#utility.yul\":14627:14628   */\n      dup4\n        /* \"#utility.yul\":14609:14629   */\n      tag_341\n      jump\t// in\n    tag_393:\n        /* \"#utility.yul\":14604:14629   */\n      swap3\n      pop\n        /* \"#utility.yul\":14797:14798   */\n      dup2\n        /* \"#utility.yul\":14729:14795   */\n      0xffffffffffffffffffffffffffffffffffffffffffffffffffffffffffffffff\n        /* \"#utility.yul\":14725:14799   */\n      div\n        /* \"#utility.yul\":14722:14723   */\n      dup4\n        /* \"#utility.yul\":14719:14800   */\n      gt\n        /* \"#utility.yul\":14714:14715   */\n      dup3\n        /* \"#utility.yul\":14707:14716   */\n      iszero\n        /* \"#utility.yul\":14700:14717   */\n      iszero\n        /* \"#utility.yul\":14696:14801   */\n      and\n        /* \"#utility.yul\":14693:14824   */\n      iszero\n      tag_394\n      jumpi\n        /* \"#utility.yul\":14804:14822   */\n      tag_395\n      tag_390\n      jump\t// in\n    tag_395:\n        /* \"#utility.yul\":14693:14824   */\n    tag_394:\n        /* \"#utility.yul\":14852:14853   */\n      dup3\n        /* \"#utility.yul\":14849:14850   */\n      dup3\n        /* \"#utility.yul\":14845:14854   */\n      mul\n        /* \"#utility.yul\":14834:14854   */\n      swap1\n      pop\n        /* \"#utility.yul\":14512:14860   */\n      swap3\n      swap2\n      pop\n      pop\n      jump\t// out\n        /* \"#utility.yul\":14866:15057   */\n    tag_111:\n        /* \"#utility.yul\":14906:14910   */\n      0x00\n        /* \"#utility.yul\":14926:14946   */\n      tag_397\n        /* \"#utility.yul\":14944:14945   */\n      dup3\n        /* \"#utility.yul\":14926:14946   */\n      tag_341\n      jump\t// in\n    tag_397:\n        /* \"#utility.yul\":14921:14946   */\n      swap2\n      pop\n        /* \"#utility.yul\":14960:14980   */\n      tag_398\n        /* \"#utility.yul\":14978:14979   */\n      dup4\n        /* \"#utility.yul\":14960:14980   */\n      tag_341\n      jump\t// in\n    tag_398:\n        /* \"#utility.yul\":14955:14980   */\n      swap3\n      pop\n        /* \"#utility.yul\":14999:15000   */\n      dup3\n        /* \"#utility.yul\":14996:14997   */\n      dup3\n        /* \"#utility.yul\":14993:15001   */\n      lt\n        /* \"#utility.yul\":14990:15024   */\n      iszero\n      tag_399\n      jumpi\n        /* \"#utility.yul\":15004:15022   */\n      tag_400\n      tag_390\n      jump\t// in\n    tag_400:\n        /* \"#utility.yul\":14990:15024   */\n    tag_399:\n        /* \"#utility.yul\":15049:15050   */\n      dup3\n        /* \"#utility.yul\":15046:15047   */\n      dup3\n        /* \"#utility.yul\":15042:15051   */\n      sub\n        /* \"#utility.yul\":15034:15051   */\n      swap1\n      pop\n        /* \"#utility.yul\":14866:15057   */\n      swap3\n      swap2\n      pop\n      pop\n      jump\t// out\n        /* \"#utility.yul\":15063:15159   */\n    tag_266:\n        /* \"#utility.yul\":15100:15107   */\n      0x00\n        /* \"#utility.yul\":15129:15153   */\n      tag_402\n        /* \"#utility.yul\":15147:15152   */\n      dup3\n        /* \"#utility.yul\":15129:15153   */\n      tag_403\n      jump\t// in\n    tag_402:\n        /* \"#utility.yul\":15118:15153   */\n      swap1\n      pop\n        /* \"#utility.yul\":15063:15159   */\n      swap2\n      swap1\n      pop\n      jump\t// out\n        /* \"#utility.yul\":15165:15255   */\n    tag_270:\n        /* \"#utility.yul\":15199:15206   */\n      0x00\n        /* \"#utility.yul\":15242:15247   */\n      dup2\n        /* \"#utility.yul\":15235:15248   */\n      iszero\n        /* \"#utility.yul\":15228:15249   */\n      iszero\n        /* \"#utility.yul\":15217:15249   */\n      swap1\n      pop\n        /* \"#utility.yul\":15165:15255   */\n      swap2\n      swap1\n      pop\n      jump\t// out\n        /* \"#utility.yul\":15261:15387   */\n    tag_403:\n        /* \"#utility.yul\":15298:15305   */\n      0x00\n        /* \"#utility.yul\":15338:15380   */\n      0xffffffffffffffffffffffffffffffffffffffff\n        /* \"#utility.yul\":15331:15336   */\n      dup3\n        /* \"#utility.yul\":15327:15381   */\n      and\n        /* \"#utility.yul\":15316:15381   */\n      swap1\n      pop\n        /* \"#utility.yul\":15261:15387   */\n      swap2\n      swap1\n      pop\n      jump\t// out\n        /* \"#utility.yul\":15393:15470   */\n    tag_341:\n        /* \"#utility.yul\":15430:15437   */\n      0x00\n        /* \"#utility.yul\":15459:15464   */\n      dup2\n        /* \"#utility.yul\":15448:15464   */\n      swap1\n      pop\n        /* \"#utility.yul\":15393:15470   */\n      swap2\n      swap1\n      pop\n      jump\t// out\n        /* \"#utility.yul\":15476:15783   */\n    tag_278:\n        /* \"#utility.yul\":15544:15545   */\n      0x00\n        /* \"#utility.yul\":15554:15667   */\n    tag_408:\n        /* \"#utility.yul\":15568:15574   */\n      dup4\n        /* \"#utility.yul\":15565:15566   */\n      dup2\n        /* \"#utility.yul\":15562:15575   */\n      lt\n        /* \"#utility.yul\":15554:15667   */\n      iszero\n      tag_410\n      jumpi\n        /* \"#utility.yul\":15653:15654   */\n      dup1\n        /* \"#utility.yul\":15648:15651   */\n      dup3\n        /* \"#utility.yul\":15644:15655   */\n      add\n        /* \"#utility.yul\":15638:15656   */\n      mload\n        /* \"#utility.yul\":15634:15635   */\n      dup2\n        /* \"#utility.yul\":15629:15632   */\n      dup5\n        /* \"#utility.yul\":15625:15636   */\n      add\n        /* \"#utility.yul\":15618:15657   */\n      mstore\n        /* \"#utility.yul\":15590:15592   */\n      0x20\n        /* \"#utility.yul\":15587:15588   */\n      dup2\n        /* \"#utility.yul\":15583:15593   */\n      add\n        /* \"#utility.yul\":15578:15593   */\n      swap1\n      pop\n        /* \"#utility.yul\":15554:15667   */\n      jump(tag_408)\n    tag_410:\n        /* \"#utility.yul\":15685:15691   */\n      dup4\n        /* \"#utility.yul\":15682:15683   */\n      dup2\n        /* \"#utility.yul\":15679:15692   */\n      gt\n        /* \"#utility.yul\":15676:15777   */\n      iszero\n      tag_411\n      jumpi\n        /* \"#utility.yul\":15765:15766   */\n      0x00\n        /* \"#utility.yul\":15756:15762   */\n      dup5\n        /* \"#utility.yul\":15751:15754   */\n      dup5\n        /* \"#utility.yul\":15747:15763   */\n      add\n        /* \"#utility.yul\":15740:15767   */\n      mstore\n        /* \"#utility.yul\":15676:15777   */\n    tag_411:\n        /* \"#utility.yul\":15525:15783   */\n      pop\n        /* \"#utility.yul\":15476:15783   */\n      pop\n      pop\n      pop\n      jump\t// out\n        /* \"#utility.yul\":15789:15969   */\n    tag_390:\n        /* \"#utility.yul\":15837:15914   */\n      0x4e487b7100000000000000000000000000000000000000000000000000000000\n        /* \"#utility.yul\":15834:15835   */\n      0x00\n        /* \"#utility.yul\":15827:15915   */\n      mstore\n        /* \"#utility.yul\":15934:15938   */\n      0x11\n        /* \"#utility.yul\":15931:15932   */\n      0x04\n        /* \"#utility.yul\":15924:15939   */\n      mstore\n        /* \"#utility.yul\":15958:15962   */\n      0x24\n        /* \"#utility.yul\":15955:15956   */\n      0x00\n        /* \"#utility.yul\":15948:15963   */\n      revert\n        /* \"#utility.yul\":16098:16215   */\n    tag_244:\n        /* \"#utility.yul\":16207:16208   */\n      0x00\n        /* \"#utility.yul\":16204:16205   */\n      dup1\n        /* \"#utility.yul\":16197:16209   */\n      revert\n        /* \"#utility.yul\":16221:16323   */\n    tag_287:\n        /* \"#utility.yul\":16262:16268   */\n      0x00\n        /* \"#utility.yul\":16313:16315   */\n      0x1f\n        /* \"#utility.yul\":16309:16316   */\n      not\n        /* \"#utility.yul\":16304:16306   */\n      0x1f\n        /* \"#utility.yul\":16297:16302   */\n      dup4\n        /* \"#utility.yul\":16293:16307   */\n      add\n        /* \"#utility.yul\":16289:16317   */\n      and\n        /* \"#utility.yul\":16279:16317   */\n      swap1\n      pop\n        /* \"#utility.yul\":16221:16323   */\n      swap2\n      swap1\n      pop\n      jump\t// out\n        /* \"#utility.yul\":16329:16553   */\n    tag_292:\n        /* \"#utility.yul\":16469:16503   */\n      0x596f7520646f6e74206861766520656e6f7567687420746f6b656e20746f2072\n        /* \"#utility.yul\":16465:16466   */\n      0x00\n        /* \"#utility.yul\":16457:16463   */\n      dup3\n        /* \"#utility.yul\":16453:16467   */\n      add\n        /* \"#utility.yul\":16446:16504   */\n      mstore\n        /* \"#utility.yul\":16538:16545   */\n      0x657475726e000000000000000000000000000000000000000000000000000000\n        /* \"#utility.yul\":16533:16535   */\n      0x20\n        /* \"#utility.yul\":16525:16531   */\n      dup3\n        /* \"#utility.yul\":16521:16536   */\n      add\n        /* \"#utility.yul\":16514:16546   */\n      mstore\n        /* \"#utility.yul\":16329:16553   */\n      pop\n      jump\t// out\n        /* \"#utility.yul\":16559:16784   */\n    tag_297:\n        /* \"#utility.yul\":16699:16733   */\n      0x4f776e61626c653a206e6577206f776e657220697320746865207a65726f2061\n        /* \"#utility.yul\":16695:16696   */\n      0x00\n        /* \"#utility.yul\":16687:16693   */\n      dup3\n        /* \"#utility.yul\":16683:16697   */\n      add\n        /* \"#utility.yul\":16676:16734   */\n      mstore\n        /* \"#utility.yul\":16768:16776   */\n      0x6464726573730000000000000000000000000000000000000000000000000000\n        /* \"#utility.yul\":16763:16765   */\n      0x20\n        /* \"#utility.yul\":16755:16761   */\n      dup3\n        /* \"#utility.yul\":16751:16766   */\n      add\n        /* \"#utility.yul\":16744:16777   */\n      mstore\n        /* \"#utility.yul\":16559:16784   */\n      pop\n      jump\t// out\n        /* \"#utility.yul\":16790:16954   */\n    tag_302:\n        /* \"#utility.yul\":16930:16946   */\n      0x53616c652068617320656e646564000000000000000000000000000000000000\n        /* \"#utility.yul\":16926:16927   */\n      0x00\n        /* \"#utility.yul\":16918:16924   */\n      dup3\n        /* \"#utility.yul\":16914:16928   */\n      add\n        /* \"#utility.yul\":16907:16947   */\n      mstore\n        /* \"#utility.yul\":16790:16954   */\n      pop\n      jump\t// out\n        /* \"#utility.yul\":16960:17185   */\n    tag_307:\n        /* \"#utility.yul\":17100:17134   */\n      0x416464726573733a20696e73756666696369656e742062616c616e636520666f\n        /* \"#utility.yul\":17096:17097   */\n      0x00\n        /* \"#utility.yul\":17088:17094   */\n      dup3\n        /* \"#utility.yul\":17084:17098   */\n      add\n        /* \"#utility.yul\":17077:17135   */\n      mstore\n        /* \"#utility.yul\":17169:17177   */\n      0x722063616c6c0000000000000000000000000000000000000000000000000000\n        /* \"#utility.yul\":17164:17166   */\n      0x20\n        /* \"#utility.yul\":17156:17162   */\n      dup3\n        /* \"#utility.yul\":17152:17167   */\n      add\n        /* \"#utility.yul\":17145:17178   */\n      mstore\n        /* \"#utility.yul\":16960:17185   */\n      pop\n      jump\t// out\n        /* \"#utility.yul\":17191:17373   */\n    tag_312:\n        /* \"#utility.yul\":17331:17365   */\n      0x4f776e61626c653a2063616c6c6572206973206e6f7420746865206f776e6572\n        /* \"#utility.yul\":17327:17328   */\n      0x00\n        /* \"#utility.yul\":17319:17325   */\n      dup3\n        /* \"#utility.yul\":17315:17329   */\n      add\n        /* \"#utility.yul\":17308:17366   */\n      mstore\n        /* \"#utility.yul\":17191:17373   */\n      pop\n      jump\t// out\n        /* \"#utility.yul\":17379:17552   */\n    tag_317:\n        /* \"#utility.yul\":17519:17544   */\n      0x53616c65206861736e2774207374617274656420796574000000000000000000\n        /* \"#utility.yul\":17515:17516   */\n      0x00\n        /* \"#utility.yul\":17507:17513   */\n      dup3\n        /* \"#utility.yul\":17503:17517   */\n      add\n        /* \"#utility.yul\":17496:17545   */\n      mstore\n        /* \"#utility.yul\":17379:17552   */\n      pop\n      jump\t// out\n        /* \"#utility.yul\":17558:17725   */\n    tag_322:\n        /* \"#utility.yul\":17698:17717   */\n      0x53616c65206861736e277420656e646564000000000000000000000000000000\n        /* \"#utility.yul\":17694:17695   */\n      0x00\n        /* \"#utility.yul\":17686:17692   */\n      dup3\n        /* \"#utility.yul\":17682:17696   */\n      add\n        /* \"#utility.yul\":17675:17718   */\n      mstore\n        /* \"#utility.yul\":17558:17725   */\n      pop\n      jump\t// out\n        /* \"#utility.yul\":17731:17910   */\n    tag_327:\n        /* \"#utility.yul\":17871:17902   */\n      0x416464726573733a2063616c6c20746f206e6f6e2d636f6e7472616374000000\n        /* \"#utility.yul\":17867:17868   */\n      0x00\n        /* \"#utility.yul\":17859:17865   */\n      dup3\n        /* \"#utility.yul\":17855:17869   */\n      add\n        /* \"#utility.yul\":17848:17903   */\n      mstore\n        /* \"#utility.yul\":17731:17910   */\n      pop\n      jump\t// out\n        /* \"#utility.yul\":17916:18092   */\n    tag_332:\n        /* \"#utility.yul\":18056:18084   */\n      0x4e6f7420656e6f75676820746f6b656e20746f2072657475726e000000000000\n        /* \"#utility.yul\":18052:18053   */\n      0x00\n        /* \"#utility.yul\":18044:18050   */\n      dup3\n        /* \"#utility.yul\":18040:18054   */\n      add\n        /* \"#utility.yul\":18033:18085   */\n      mstore\n        /* \"#utility.yul\":17916:18092   */\n      pop\n      jump\t// out\n        /* \"#utility.yul\":18098:18327   */\n    tag_337:\n        /* \"#utility.yul\":18238:18272   */\n      0x5361666545524332303a204552433230206f7065726174696f6e20646964206e\n        /* \"#utility.yul\":18234:18235   */\n      0x00\n        /* \"#utility.yul\":18226:18232   */\n      dup3\n        /* \"#utility.yul\":18222:18236   */\n      add\n        /* \"#utility.yul\":18215:18273   */\n      mstore\n        /* \"#utility.yul\":18307:18319   */\n      0x6f74207375636365656400000000000000000000000000000000000000000000\n        /* \"#utility.yul\":18302:18304   */\n      0x20\n        /* \"#utility.yul\":18294:18300   */\n      dup3\n        /* \"#utility.yul\":18290:18305   */\n      add\n        /* \"#utility.yul\":18283:18320   */\n      mstore\n        /* \"#utility.yul\":18098:18327   */\n      pop\n      jump\t// out\n        /* \"#utility.yul\":18333:18455   */\n    tag_229:\n        /* \"#utility.yul\":18406:18430   */\n      tag_428\n        /* \"#utility.yul\":18424:18429   */\n      dup2\n        /* \"#utility.yul\":18406:18430   */\n      tag_266\n      jump\t// in\n    tag_428:\n        /* \"#utility.yul\":18399:18404   */\n      dup2\n        /* \"#utility.yul\":18396:18431   */\n      eq\n        /* \"#utility.yul\":18386:18449   */\n      tag_429\n      jumpi\n        /* \"#utility.yul\":18445:18446   */\n      0x00\n        /* \"#utility.yul\":18442:18443   */\n      dup1\n        /* \"#utility.yul\":18435:18447   */\n      revert\n        /* \"#utility.yul\":18386:18449   */\n    tag_429:\n        /* \"#utility.yul\":18333:18455   */\n      pop\n      jump\t// out\n        /* \"#utility.yul\":18461:18577   */\n    tag_233:\n        /* \"#utility.yul\":18531:18552   */\n      tag_431\n        /* \"#utility.yul\":18546:18551   */\n      dup2\n        /* \"#utility.yul\":18531:18552   */\n      tag_270\n      jump\t// in\n    tag_431:\n        /* \"#utility.yul\":18524:18529   */\n      dup2\n        /* \"#utility.yul\":18521:18553   */\n      eq\n        /* \"#utility.yul\":18511:18571   */\n      tag_432\n      jumpi\n        /* \"#utility.yul\":18567:18568   */\n      0x00\n        /* \"#utility.yul\":18564:18565   */\n      dup1\n        /* \"#utility.yul\":18557:18569   */\n      revert\n        /* \"#utility.yul\":18511:18571   */\n    tag_432:\n        /* \"#utility.yul\":18461:18577   */\n      pop\n      jump\t// out\n        /* \"#utility.yul\":18583:18705   */\n    tag_237:\n        /* \"#utility.yul\":18656:18680   */\n      tag_434\n        /* \"#utility.yul\":18674:18679   */\n      dup2\n        /* \"#utility.yul\":18656:18680   */\n      tag_341\n      jump\t// in\n    tag_434:\n        /* \"#utility.yul\":18649:18654   */\n      dup2\n        /* \"#utility.yul\":18646:18681   */\n      eq\n        /* \"#utility.yul\":18636:18699   */\n      tag_435\n      jumpi\n        /* \"#utility.yul\":18695:18696   */\n      0x00\n        /* \"#utility.yul\":18692:18693   */\n      dup1\n        /* \"#utility.yul\":18685:18697   */\n      revert\n        /* \"#utility.yul\":18636:18699   */\n    tag_435:\n        /* \"#utility.yul\":18583:18705   */\n      pop\n      jump\t// out\n\n    auxdata: 0xa2646970667358221220f23b947a2f0c81a0d795d93a758f20d4cbebbecfd3a468dee2f0d5dc4975e08b64736f6c63430008070033\n}\n",
				"bytecode": {
					"linkReferences": {},
					"object": "60806040523480156200001157600080fd5b5060405162001f3138038062001f318339818101604052810190620000379190620001fd565b620000576200004b6200010360201b60201c565b6200010b60201b60201c565b62000068856200010b60201b60201c565b80600460006101000a81548173ffffffffffffffffffffffffffffffffffffffff021916908373ffffffffffffffffffffffffffffffffffffffff16021790555083600160006101000a81548173ffffffffffffffffffffffffffffffffffffffff021916908373ffffffffffffffffffffffffffffffffffffffff16021790555082600281905550816003819055505050505050620002fc565b600033905090565b60008060009054906101000a900473ffffffffffffffffffffffffffffffffffffffff169050816000806101000a81548173ffffffffffffffffffffffffffffffffffffffff021916908373ffffffffffffffffffffffffffffffffffffffff1602179055508173ffffffffffffffffffffffffffffffffffffffff168173ffffffffffffffffffffffffffffffffffffffff167f8be0079c531659141344cd1fd0a4f28419497f9722a3daafe3b4186f6b6457e060405160405180910390a35050565b600081519050620001e081620002c8565b92915050565b600081519050620001f781620002e2565b92915050565b600080600080600060a086880312156200021c576200021b620002c3565b5b60006200022c88828901620001cf565b95505060206200023f88828901620001cf565b94505060406200025288828901620001e6565b93505060606200026588828901620001e6565b92505060806200027888828901620001cf565b9150509295509295909350565b6000620002928262000299565b9050919050565b600073ffffffffffffffffffffffffffffffffffffffff82169050919050565b6000819050919050565b600080fd5b620002d38162000285565b8114620002df57600080fd5b50565b620002ed81620002b9565b8114620002f957600080fd5b50565b611c25806200030c6000396000f3fe608060405234801561001057600080fd5b50600436106101005760003560e01c8063893d20e811610097578063c10b935811610066578063c10b935814610277578063efef39a114610295578063f2fde38b146102b1578063f3fef3a3146102cd57610100565b8063893d20e8146101ff5780638da5cb5b1461021d5780639d76ea581461023b578063ab0bcc411461025957610100565b806361778592116100d3578063617785921461018b578063617fba04146101a95780636f9c6149146101d9578063715018a6146101f557610100565b80632407645114610105578063295e4edf14610135578063336bea1c146101515780634e71d92d14610181575b600080fd5b61011f600480360381019061011a919061128f565b6102e9565b60405161012c9190611787565b60405180910390f35b61014f600480360381019061014a9190611329565b61039d565b005b61016b60048036038101906101669190611329565b610423565b604051610178919061160a565b60405180910390f35b610189610679565b005b6101936107f2565b6040516101a0919061158f565b60405180910390f35b6101c360048036038101906101be919061128f565b610818565b6040516101d09190611787565b60405180910390f35b6101f360048036038101906101ee9190611329565b610861565b005b6101fd6108e7565b005b61020761096f565b604051610214919061158f565b60405180910390f35b61022561097e565b604051610232919061158f565b60405180910390f35b6102436109a7565b604051610250919061158f565b60405180910390f35b6102616109d1565b60405161026e9190611787565b60405180910390f35b61027f6109db565b60405161028c9190611787565b60405180910390f35b6102af60048036038101906102aa9190611329565b6109e5565b005b6102cb60048036038101906102c6919061128f565b610b2a565b005b6102e760048036038101906102e291906112bc565b610c22565b005b6000600460009054906101000a900473ffffffffffffffffffffffffffffffffffffffff1673ffffffffffffffffffffffffffffffffffffffff166370a08231836040518263ffffffff1660e01b8152600401610346919061158f565b60206040518083038186803b15801561035e57600080fd5b505afa158015610372573d6000803e3d6000fd5b505050506040513d601f19601f820116820180604052508101906103969190611356565b9050919050565b6103a5610de3565b73ffffffffffffffffffffffffffffffffffffffff166103c361097e565b73ffffffffffffffffffffffffffffffffffffffff1614610419576040517f08c379a0000000000000000000000000000000000000000000000000000000008152600401610410906116c7565b60405180910390fd5b8060028190555050565b6000670de0b6b3a764000082610439919061182a565b600460009054906101000a900473ffffffffffffffffffffffffffffffffffffffff1673ffffffffffffffffffffffffffffffffffffffff166370a08231306040518263ffffffff1660e01b8152600401610494919061158f565b60206040518083038186803b1580156104ac57600080fd5b505afa1580156104c0573d6000803e3d6000fd5b505050506040513d601f19601f820116820180604052508101906104e49190611356565b1015610525576040517f08c379a000000000000000000000000000000000000000000000000000000000815260040161051c90611747565b60405180910390fd5b670de0b6b3a764000082610539919061182a565b600560003373ffffffffffffffffffffffffffffffffffffffff1673ffffffffffffffffffffffffffffffffffffffff1681526020019081526020016000205410156105ba576040517f08c379a00000000000000000000000000000000000000000000000000000000081526004016105b190611647565b60405180910390fd5b6106073383600460009054906101000a900473ffffffffffffffffffffffffffffffffffffffff1673ffffffffffffffffffffffffffffffffffffffff16610deb9092919063ffffffff16565b670de0b6b3a76400008261061b919061182a565b600560003373ffffffffffffffffffffffffffffffffffffffff1673ffffffffffffffffffffffffffffffffffffffff16815260200190815260200160002060008282546106699190611884565b9250508190555060019050919050565b6003544210156106be576040517f08c379a00000000000000000000000000000000000000000000000000000000081526004016106b590611707565b60405180910390fd5b600160009054906101000a900473ffffffffffffffffffffffffffffffffffffffff1673ffffffffffffffffffffffffffffffffffffffff166340c10f1933600560003373ffffffffffffffffffffffffffffffffffffffff1673ffffffffffffffffffffffffffffffffffffffff168152602001908152602001600020546040518363ffffffff1660e01b815260040161075a9291906115e1565b602060405180830381600087803b15801561077457600080fd5b505af1158015610788573d6000803e3d6000fd5b505050506040513d601f19601f820116820180604052508101906107ac91906112fc565b50600560003373ffffffffffffffffffffffffffffffffffffffff1673ffffffffffffffffffffffffffffffffffffffff16815260200190815260200160002060009055565b600460009054906101000a900473ffffffffffffffffffffffffffffffffffffffff1681565b6000600560008373ffffffffffffffffffffffffffffffffffffffff1673ffffffffffffffffffffffffffffffffffffffff168152602001908152602001600020549050919050565b610869610de3565b73ffffffffffffffffffffffffffffffffffffffff1661088761097e565b73ffffffffffffffffffffffffffffffffffffffff16146108dd576040517f08c379a00000000000000000000000000000000000000000000000000000000081526004016108d4906116c7565b60405180910390fd5b8060038190555050565b6108ef610de3565b73ffffffffffffffffffffffffffffffffffffffff1661090d61097e565b73ffffffffffffffffffffffffffffffffffffffff1614610963576040517f08c379a000000000000000000000000000000000000000000000000000000000815260040161095a906116c7565b60405180910390fd5b61096d6000610e71565b565b600061097961097e565b905090565b60008060009054906101000a900473ffffffffffffffffffffffffffffffffffffffff16905090565b6000600160009054906101000a900473ffffffffffffffffffffffffffffffffffffffff16905090565b6000600254905090565b6000600354905090565b600254421015610a2a576040517f08c379a0000000000000000000000000000000000000000000000000000000008152600401610a21906116e7565b60405180910390fd5b600354421115610a6f576040517f08c379a0000000000000000000000000000000000000000000000000000000008152600401610a6690611687565b60405180910390fd5b610abe333083600460009054906101000a900473ffffffffffffffffffffffffffffffffffffffff1673ffffffffffffffffffffffffffffffffffffffff16610f35909392919063ffffffff16565b670de0b6b3a764000081610ad2919061182a565b600560003373ffffffffffffffffffffffffffffffffffffffff1673ffffffffffffffffffffffffffffffffffffffff1681526020019081526020016000206000828254610b2091906117d4565b9250508190555050565b610b32610de3565b73ffffffffffffffffffffffffffffffffffffffff16610b5061097e565b73ffffffffffffffffffffffffffffffffffffffff1614610ba6576040517f08c379a0000000000000000000000000000000000000000000000000000000008152600401610b9d906116c7565b60405180910390fd5b600073ffffffffffffffffffffffffffffffffffffffff168173ffffffffffffffffffffffffffffffffffffffff161415610c16576040517f08c379a0000000000000000000000000000000000000000000000000000000008152600401610c0d90611667565b60405180910390fd5b610c1f81610e71565b50565b610c2a610de3565b73ffffffffffffffffffffffffffffffffffffffff16610c4861097e565b73ffffffffffffffffffffffffffffffffffffffff1614610c9e576040517f08c379a0000000000000000000000000000000000000000000000000000000008152600401610c95906116c7565b60405180910390fd5b6003544211610ce2576040517f08c379a0000000000000000000000000000000000000000000000000000000008152600401610cd990611707565b60405180910390fd5b6000600460009054906101000a900473ffffffffffffffffffffffffffffffffffffffff1673ffffffffffffffffffffffffffffffffffffffff166370a08231306040518263ffffffff1660e01b8152600401610d3f919061158f565b60206040518083038186803b158015610d5757600080fd5b505afa158015610d6b573d6000803e3d6000fd5b505050506040513d601f19601f82011682018060405250810190610d8f9190611356565b9050610dde8383600460009054906101000a900473ffffffffffffffffffffffffffffffffffffffff1673ffffffffffffffffffffffffffffffffffffffff16610deb9092919063ffffffff16565b505050565b600033905090565b610e6c8363a9059cbb60e01b8484604051602401610e0a9291906115e1565b604051602081830303815290604052907bffffffffffffffffffffffffffffffffffffffffffffffffffffffff19166020820180517bffffffffffffffffffffffffffffffffffffffffffffffffffffffff8381831617835250505050610fbe565b505050565b60008060009054906101000a900473ffffffffffffffffffffffffffffffffffffffff169050816000806101000a81548173ffffffffffffffffffffffffffffffffffffffff021916908373ffffffffffffffffffffffffffffffffffffffff1602179055508173ffffffffffffffffffffffffffffffffffffffff168173ffffffffffffffffffffffffffffffffffffffff167f8be0079c531659141344cd1fd0a4f28419497f9722a3daafe3b4186f6b6457e060405160405180910390a35050565b610fb8846323b872dd60e01b858585604051602401610f56939291906115aa565b604051602081830303815290604052907bffffffffffffffffffffffffffffffffffffffffffffffffffffffff19166020820180517bffffffffffffffffffffffffffffffffffffffffffffffffffffffff8381831617835250505050610fbe565b50505050565b6000611020826040518060400160405280602081526020017f5361666545524332303a206c6f772d6c6576656c2063616c6c206661696c65648152508573ffffffffffffffffffffffffffffffffffffffff166110859092919063ffffffff16565b9050600081511115611080578080602001905181019061104091906112fc565b61107f576040517f08c379a000000000000000000000000000000000000000000000000000000000815260040161107690611767565b60405180910390fd5b5b505050565b6060611094848460008561109d565b90509392505050565b6060824710156110e2576040517f08c379a00000000000000000000000000000000000000000000000000000000081526004016110d9906116a7565b60405180910390fd5b6110eb856111b1565b61112a576040517f08c379a000000000000000000000000000000000000000000000000000000000815260040161112190611727565b60405180910390fd5b6000808673ffffffffffffffffffffffffffffffffffffffff1685876040516111539190611578565b60006040518083038185875af1925050503d8060008114611190576040519150601f19603f3d011682016040523d82523d6000602084013e611195565b606091505b50915091506111a58282866111d4565b92505050949350505050565b6000808273ffffffffffffffffffffffffffffffffffffffff163b119050919050565b606083156111e457829050611234565b6000835111156111f75782518084602001fd5b816040517f08c379a000000000000000000000000000000000000000000000000000000000815260040161122b9190611625565b60405180910390fd5b9392505050565b60008135905061124a81611baa565b92915050565b60008151905061125f81611bc1565b92915050565b60008135905061127481611bd8565b92915050565b60008151905061128981611bd8565b92915050565b6000602082840312156112a5576112a4611962565b5b60006112b38482850161123b565b91505092915050565b600080604083850312156112d3576112d2611962565b5b60006112e18582860161123b565b92505060206112f285828601611265565b9150509250929050565b60006020828403121561131257611311611962565b5b600061132084828501611250565b91505092915050565b60006020828403121561133f5761133e611962565b5b600061134d84828501611265565b91505092915050565b60006020828403121561136c5761136b611962565b5b600061137a8482850161127a565b91505092915050565b61138c816118b8565b82525050565b61139b816118ca565b82525050565b60006113ac826117a2565b6113b681856117b8565b93506113c6818560208601611900565b80840191505092915050565b60006113dd826117ad565b6113e781856117c3565b93506113f7818560208601611900565b61140081611967565b840191505092915050565b60006114186025836117c3565b915061142382611978565b604082019050919050565b600061143b6026836117c3565b9150611446826119c7565b604082019050919050565b600061145e600e836117c3565b915061146982611a16565b602082019050919050565b60006114816026836117c3565b915061148c82611a3f565b604082019050919050565b60006114a46020836117c3565b91506114af82611a8e565b602082019050919050565b60006114c76017836117c3565b91506114d282611ab7565b602082019050919050565b60006114ea6011836117c3565b91506114f582611ae0565b602082019050919050565b600061150d601d836117c3565b915061151882611b09565b602082019050919050565b6000611530601a836117c3565b915061153b82611b32565b602082019050919050565b6000611553602a836117c3565b915061155e82611b5b565b604082019050919050565b611572816118f6565b82525050565b600061158482846113a1565b915081905092915050565b60006020820190506115a46000830184611383565b92915050565b60006060820190506115bf6000830186611383565b6115cc6020830185611383565b6115d96040830184611569565b949350505050565b60006040820190506115f66000830185611383565b6116036020830184611569565b9392505050565b600060208201905061161f6000830184611392565b92915050565b6000602082019050818103600083015261163f81846113d2565b905092915050565b600060208201905081810360008301526116608161140b565b9050919050565b600060208201905081810360008301526116808161142e565b9050919050565b600060208201905081810360008301526116a081611451565b9050919050565b600060208201905081810360008301526116c081611474565b9050919050565b600060208201905081810360008301526116e081611497565b9050919050565b60006020820190508181036000830152611700816114ba565b9050919050565b60006020820190508181036000830152611720816114dd565b9050919050565b6000602082019050818103600083015261174081611500565b9050919050565b6000602082019050818103600083015261176081611523565b9050919050565b6000602082019050818103600083015261178081611546565b9050919050565b600060208201905061179c6000830184611569565b92915050565b600081519050919050565b600081519050919050565b600081905092915050565b600082825260208201905092915050565b60006117df826118f6565b91506117ea836118f6565b9250827fffffffffffffffffffffffffffffffffffffffffffffffffffffffffffffffff0382111561181f5761181e611933565b5b828201905092915050565b6000611835826118f6565b9150611840836118f6565b9250817fffffffffffffffffffffffffffffffffffffffffffffffffffffffffffffffff048311821515161561187957611878611933565b5b828202905092915050565b600061188f826118f6565b915061189a836118f6565b9250828210156118ad576118ac611933565b5b828203905092915050565b60006118c3826118d6565b9050919050565b60008115159050919050565b600073ffffffffffffffffffffffffffffffffffffffff82169050919050565b6000819050919050565b60005b8381101561191e578082015181840152602081019050611903565b8381111561192d576000848401525b50505050565b7f4e487b7100000000000000000000000000000000000000000000000000000000600052601160045260246000fd5b600080fd5b6000601f19601f8301169050919050565b7f596f7520646f6e74206861766520656e6f7567687420746f6b656e20746f207260008201527f657475726e000000000000000000000000000000000000000000000000000000602082015250565b7f4f776e61626c653a206e6577206f776e657220697320746865207a65726f206160008201527f6464726573730000000000000000000000000000000000000000000000000000602082015250565b7f53616c652068617320656e646564000000000000000000000000000000000000600082015250565b7f416464726573733a20696e73756666696369656e742062616c616e636520666f60008201527f722063616c6c0000000000000000000000000000000000000000000000000000602082015250565b7f4f776e61626c653a2063616c6c6572206973206e6f7420746865206f776e6572600082015250565b7f53616c65206861736e2774207374617274656420796574000000000000000000600082015250565b7f53616c65206861736e277420656e646564000000000000000000000000000000600082015250565b7f416464726573733a2063616c6c20746f206e6f6e2d636f6e7472616374000000600082015250565b7f4e6f7420656e6f75676820746f6b656e20746f2072657475726e000000000000600082015250565b7f5361666545524332303a204552433230206f7065726174696f6e20646964206e60008201527f6f74207375636365656400000000000000000000000000000000000000000000602082015250565b611bb3816118b8565b8114611bbe57600080fd5b50565b611bca816118ca565b8114611bd557600080fd5b50565b611be1816118f6565b8114611bec57600080fd5b5056fea2646970667358221220f23b947a2f0c81a0d795d93a758f20d4cbebbecfd3a468dee2f0d5dc4975e08b64736f6c63430008070033",
					"opcodes": "PUSH1 0x80 PUSH1 0x40 MSTORE CALLVALUE DUP1 ISZERO PUSH3 0x11 JUMPI PUSH1 0x0 DUP1 REVERT JUMPDEST POP PUSH1 0x40 MLOAD PUSH3 0x1F31 CODESIZE SUB DUP1 PUSH3 0x1F31 DUP4 CODECOPY DUP2 DUP2 ADD PUSH1 0x40 MSTORE DUP2 ADD SWAP1 PUSH3 0x37 SWAP2 SWAP1 PUSH3 0x1FD JUMP JUMPDEST PUSH3 0x57 PUSH3 0x4B PUSH3 0x103 PUSH1 0x20 SHL PUSH1 0x20 SHR JUMP JUMPDEST PUSH3 0x10B PUSH1 0x20 SHL PUSH1 0x20 SHR JUMP JUMPDEST PUSH3 0x68 DUP6 PUSH3 0x10B PUSH1 0x20 SHL PUSH1 0x20 SHR JUMP JUMPDEST DUP1 PUSH1 0x4 PUSH1 0x0 PUSH2 0x100 EXP DUP2 SLOAD DUP2 PUSH20 0xFFFFFFFFFFFFFFFFFFFFFFFFFFFFFFFFFFFFFFFF MUL NOT AND SWAP1 DUP4 PUSH20 0xFFFFFFFFFFFFFFFFFFFFFFFFFFFFFFFFFFFFFFFF AND MUL OR SWAP1 SSTORE POP DUP4 PUSH1 0x1 PUSH1 0x0 PUSH2 0x100 EXP DUP2 SLOAD DUP2 PUSH20 0xFFFFFFFFFFFFFFFFFFFFFFFFFFFFFFFFFFFFFFFF MUL NOT AND SWAP1 DUP4 PUSH20 0xFFFFFFFFFFFFFFFFFFFFFFFFFFFFFFFFFFFFFFFF AND MUL OR SWAP1 SSTORE POP DUP3 PUSH1 0x2 DUP2 SWAP1 SSTORE POP DUP2 PUSH1 0x3 DUP2 SWAP1 SSTORE POP POP POP POP POP POP PUSH3 0x2FC JUMP JUMPDEST PUSH1 0x0 CALLER SWAP1 POP SWAP1 JUMP JUMPDEST PUSH1 0x0 DUP1 PUSH1 0x0 SWAP1 SLOAD SWAP1 PUSH2 0x100 EXP SWAP1 DIV PUSH20 0xFFFFFFFFFFFFFFFFFFFFFFFFFFFFFFFFFFFFFFFF AND SWAP1 POP DUP2 PUSH1 0x0 DUP1 PUSH2 0x100 EXP DUP2 SLOAD DUP2 PUSH20 0xFFFFFFFFFFFFFFFFFFFFFFFFFFFFFFFFFFFFFFFF MUL NOT AND SWAP1 DUP4 PUSH20 0xFFFFFFFFFFFFFFFFFFFFFFFFFFFFFFFFFFFFFFFF AND MUL OR SWAP1 SSTORE POP DUP2 PUSH20 0xFFFFFFFFFFFFFFFFFFFFFFFFFFFFFFFFFFFFFFFF AND DUP2 PUSH20 0xFFFFFFFFFFFFFFFFFFFFFFFFFFFFFFFFFFFFFFFF AND PUSH32 0x8BE0079C531659141344CD1FD0A4F28419497F9722A3DAAFE3B4186F6B6457E0 PUSH1 0x40 MLOAD PUSH1 0x40 MLOAD DUP1 SWAP2 SUB SWAP1 LOG3 POP POP JUMP JUMPDEST PUSH1 0x0 DUP2 MLOAD SWAP1 POP PUSH3 0x1E0 DUP2 PUSH3 0x2C8 JUMP JUMPDEST SWAP3 SWAP2 POP POP JUMP JUMPDEST PUSH1 0x0 DUP2 MLOAD SWAP1 POP PUSH3 0x1F7 DUP2 PUSH3 0x2E2 JUMP JUMPDEST SWAP3 SWAP2 POP POP JUMP JUMPDEST PUSH1 0x0 DUP1 PUSH1 0x0 DUP1 PUSH1 0x0 PUSH1 0xA0 DUP7 DUP9 SUB SLT ISZERO PUSH3 0x21C JUMPI PUSH3 0x21B PUSH3 0x2C3 JUMP JUMPDEST JUMPDEST PUSH1 0x0 PUSH3 0x22C DUP9 DUP3 DUP10 ADD PUSH3 0x1CF JUMP JUMPDEST SWAP6 POP POP PUSH1 0x20 PUSH3 0x23F DUP9 DUP3 DUP10 ADD PUSH3 0x1CF JUMP JUMPDEST SWAP5 POP POP PUSH1 0x40 PUSH3 0x252 DUP9 DUP3 DUP10 ADD PUSH3 0x1E6 JUMP JUMPDEST SWAP4 POP POP PUSH1 0x60 PUSH3 0x265 DUP9 DUP3 DUP10 ADD PUSH3 0x1E6 JUMP JUMPDEST SWAP3 POP POP PUSH1 0x80 PUSH3 0x278 DUP9 DUP3 DUP10 ADD PUSH3 0x1CF JUMP JUMPDEST SWAP2 POP POP SWAP3 SWAP6 POP SWAP3 SWAP6 SWAP1 SWAP4 POP JUMP JUMPDEST PUSH1 0x0 PUSH3 0x292 DUP3 PUSH3 0x299 JUMP JUMPDEST SWAP1 POP SWAP2 SWAP1 POP JUMP JUMPDEST PUSH1 0x0 PUSH20 0xFFFFFFFFFFFFFFFFFFFFFFFFFFFFFFFFFFFFFFFF DUP3 AND SWAP1 POP SWAP2 SWAP1 POP JUMP JUMPDEST PUSH1 0x0 DUP2 SWAP1 POP SWAP2 SWAP1 POP JUMP JUMPDEST PUSH1 0x0 DUP1 REVERT JUMPDEST PUSH3 0x2D3 DUP2 PUSH3 0x285 JUMP JUMPDEST DUP2 EQ PUSH3 0x2DF JUMPI PUSH1 0x0 DUP1 REVERT JUMPDEST POP JUMP JUMPDEST PUSH3 0x2ED DUP2 PUSH3 0x2B9 JUMP JUMPDEST DUP2 EQ PUSH3 0x2F9 JUMPI PUSH1 0x0 DUP1 REVERT JUMPDEST POP JUMP JUMPDEST PUSH2 0x1C25 DUP1 PUSH3 0x30C PUSH1 0x0 CODECOPY PUSH1 0x0 RETURN INVALID PUSH1 0x80 PUSH1 0x40 MSTORE CALLVALUE DUP1 ISZERO PUSH2 0x10 JUMPI PUSH1 0x0 DUP1 REVERT JUMPDEST POP PUSH1 0x4 CALLDATASIZE LT PUSH2 0x100 JUMPI PUSH1 0x0 CALLDATALOAD PUSH1 0xE0 SHR DUP1 PUSH4 0x893D20E8 GT PUSH2 0x97 JUMPI DUP1 PUSH4 0xC10B9358 GT PUSH2 0x66 JUMPI DUP1 PUSH4 0xC10B9358 EQ PUSH2 0x277 JUMPI DUP1 PUSH4 0xEFEF39A1 EQ PUSH2 0x295 JUMPI DUP1 PUSH4 0xF2FDE38B EQ PUSH2 0x2B1 JUMPI DUP1 PUSH4 0xF3FEF3A3 EQ PUSH2 0x2CD JUMPI PUSH2 0x100 JUMP JUMPDEST DUP1 PUSH4 0x893D20E8 EQ PUSH2 0x1FF JUMPI DUP1 PUSH4 0x8DA5CB5B EQ PUSH2 0x21D JUMPI DUP1 PUSH4 0x9D76EA58 EQ PUSH2 0x23B JUMPI DUP1 PUSH4 0xAB0BCC41 EQ PUSH2 0x259 JUMPI PUSH2 0x100 JUMP JUMPDEST DUP1 PUSH4 0x61778592 GT PUSH2 0xD3 JUMPI DUP1 PUSH4 0x61778592 EQ PUSH2 0x18B JUMPI DUP1 PUSH4 0x617FBA04 EQ PUSH2 0x1A9 JUMPI DUP1 PUSH4 0x6F9C6149 EQ PUSH2 0x1D9 JUMPI DUP1 PUSH4 0x715018A6 EQ PUSH2 0x1F5 JUMPI PUSH2 0x100 JUMP JUMPDEST DUP1 PUSH4 0x24076451 EQ PUSH2 0x105 JUMPI DUP1 PUSH4 0x295E4EDF EQ PUSH2 0x135 JUMPI DUP1 PUSH4 0x336BEA1C EQ PUSH2 0x151 JUMPI DUP1 PUSH4 0x4E71D92D EQ PUSH2 0x181 JUMPI JUMPDEST PUSH1 0x0 DUP1 REVERT JUMPDEST PUSH2 0x11F PUSH1 0x4 DUP1 CALLDATASIZE SUB DUP2 ADD SWAP1 PUSH2 0x11A SWAP2 SWAP1 PUSH2 0x128F JUMP JUMPDEST PUSH2 0x2E9 JUMP JUMPDEST PUSH1 0x40 MLOAD PUSH2 0x12C SWAP2 SWAP1 PUSH2 0x1787 JUMP JUMPDEST PUSH1 0x40 MLOAD DUP1 SWAP2 SUB SWAP1 RETURN JUMPDEST PUSH2 0x14F PUSH1 0x4 DUP1 CALLDATASIZE SUB DUP2 ADD SWAP1 PUSH2 0x14A SWAP2 SWAP1 PUSH2 0x1329 JUMP JUMPDEST PUSH2 0x39D JUMP JUMPDEST STOP JUMPDEST PUSH2 0x16B PUSH1 0x4 DUP1 CALLDATASIZE SUB DUP2 ADD SWAP1 PUSH2 0x166 SWAP2 SWAP1 PUSH2 0x1329 JUMP JUMPDEST PUSH2 0x423 JUMP JUMPDEST PUSH1 0x40 MLOAD PUSH2 0x178 SWAP2 SWAP1 PUSH2 0x160A JUMP JUMPDEST PUSH1 0x40 MLOAD DUP1 SWAP2 SUB SWAP1 RETURN JUMPDEST PUSH2 0x189 PUSH2 0x679 JUMP JUMPDEST STOP JUMPDEST PUSH2 0x193 PUSH2 0x7F2 JUMP JUMPDEST PUSH1 0x40 MLOAD PUSH2 0x1A0 SWAP2 SWAP1 PUSH2 0x158F JUMP JUMPDEST PUSH1 0x40 MLOAD DUP1 SWAP2 SUB SWAP1 RETURN JUMPDEST PUSH2 0x1C3 PUSH1 0x4 DUP1 CALLDATASIZE SUB DUP2 ADD SWAP1 PUSH2 0x1BE SWAP2 SWAP1 PUSH2 0x128F JUMP JUMPDEST PUSH2 0x818 JUMP JUMPDEST PUSH1 0x40 MLOAD PUSH2 0x1D0 SWAP2 SWAP1 PUSH2 0x1787 JUMP JUMPDEST PUSH1 0x40 MLOAD DUP1 SWAP2 SUB SWAP1 RETURN JUMPDEST PUSH2 0x1F3 PUSH1 0x4 DUP1 CALLDATASIZE SUB DUP2 ADD SWAP1 PUSH2 0x1EE SWAP2 SWAP1 PUSH2 0x1329 JUMP JUMPDEST PUSH2 0x861 JUMP JUMPDEST STOP JUMPDEST PUSH2 0x1FD PUSH2 0x8E7 JUMP JUMPDEST STOP JUMPDEST PUSH2 0x207 PUSH2 0x96F JUMP JUMPDEST PUSH1 0x40 MLOAD PUSH2 0x214 SWAP2 SWAP1 PUSH2 0x158F JUMP JUMPDEST PUSH1 0x40 MLOAD DUP1 SWAP2 SUB SWAP1 RETURN JUMPDEST PUSH2 0x225 PUSH2 0x97E JUMP JUMPDEST PUSH1 0x40 MLOAD PUSH2 0x232 SWAP2 SWAP1 PUSH2 0x158F JUMP JUMPDEST PUSH1 0x40 MLOAD DUP1 SWAP2 SUB SWAP1 RETURN JUMPDEST PUSH2 0x243 PUSH2 0x9A7 JUMP JUMPDEST PUSH1 0x40 MLOAD PUSH2 0x250 SWAP2 SWAP1 PUSH2 0x158F JUMP JUMPDEST PUSH1 0x40 MLOAD DUP1 SWAP2 SUB SWAP1 RETURN JUMPDEST PUSH2 0x261 PUSH2 0x9D1 JUMP JUMPDEST PUSH1 0x40 MLOAD PUSH2 0x26E SWAP2 SWAP1 PUSH2 0x1787 JUMP JUMPDEST PUSH1 0x40 MLOAD DUP1 SWAP2 SUB SWAP1 RETURN JUMPDEST PUSH2 0x27F PUSH2 0x9DB JUMP JUMPDEST PUSH1 0x40 MLOAD PUSH2 0x28C SWAP2 SWAP1 PUSH2 0x1787 JUMP JUMPDEST PUSH1 0x40 MLOAD DUP1 SWAP2 SUB SWAP1 RETURN JUMPDEST PUSH2 0x2AF PUSH1 0x4 DUP1 CALLDATASIZE SUB DUP2 ADD SWAP1 PUSH2 0x2AA SWAP2 SWAP1 PUSH2 0x1329 JUMP JUMPDEST PUSH2 0x9E5 JUMP JUMPDEST STOP JUMPDEST PUSH2 0x2CB PUSH1 0x4 DUP1 CALLDATASIZE SUB DUP2 ADD SWAP1 PUSH2 0x2C6 SWAP2 SWAP1 PUSH2 0x128F JUMP JUMPDEST PUSH2 0xB2A JUMP JUMPDEST STOP JUMPDEST PUSH2 0x2E7 PUSH1 0x4 DUP1 CALLDATASIZE SUB DUP2 ADD SWAP1 PUSH2 0x2E2 SWAP2 SWAP1 PUSH2 0x12BC JUMP JUMPDEST PUSH2 0xC22 JUMP JUMPDEST STOP JUMPDEST PUSH1 0x0 PUSH1 0x4 PUSH1 0x0 SWAP1 SLOAD SWAP1 PUSH2 0x100 EXP SWAP1 DIV PUSH20 0xFFFFFFFFFFFFFFFFFFFFFFFFFFFFFFFFFFFFFFFF AND PUSH20 0xFFFFFFFFFFFFFFFFFFFFFFFFFFFFFFFFFFFFFFFF AND PUSH4 0x70A08231 DUP4 PUSH1 0x40 MLOAD DUP3 PUSH4 0xFFFFFFFF AND PUSH1 0xE0 SHL DUP2 MSTORE PUSH1 0x4 ADD PUSH2 0x346 SWAP2 SWAP1 PUSH2 0x158F JUMP JUMPDEST PUSH1 0x20 PUSH1 0x40 MLOAD DUP1 DUP4 SUB DUP2 DUP7 DUP1 EXTCODESIZE ISZERO DUP1 ISZERO PUSH2 0x35E JUMPI PUSH1 0x0 DUP1 REVERT JUMPDEST POP GAS STATICCALL ISZERO DUP1 ISZERO PUSH2 0x372 JUMPI RETURNDATASIZE PUSH1 0x0 DUP1 RETURNDATACOPY RETURNDATASIZE PUSH1 0x0 REVERT JUMPDEST POP POP POP POP PUSH1 0x40 MLOAD RETURNDATASIZE PUSH1 0x1F NOT PUSH1 0x1F DUP3 ADD AND DUP3 ADD DUP1 PUSH1 0x40 MSTORE POP DUP2 ADD SWAP1 PUSH2 0x396 SWAP2 SWAP1 PUSH2 0x1356 JUMP JUMPDEST SWAP1 POP SWAP2 SWAP1 POP JUMP JUMPDEST PUSH2 0x3A5 PUSH2 0xDE3 JUMP JUMPDEST PUSH20 0xFFFFFFFFFFFFFFFFFFFFFFFFFFFFFFFFFFFFFFFF AND PUSH2 0x3C3 PUSH2 0x97E JUMP JUMPDEST PUSH20 0xFFFFFFFFFFFFFFFFFFFFFFFFFFFFFFFFFFFFFFFF AND EQ PUSH2 0x419 JUMPI PUSH1 0x40 MLOAD PUSH32 0x8C379A000000000000000000000000000000000000000000000000000000000 DUP2 MSTORE PUSH1 0x4 ADD PUSH2 0x410 SWAP1 PUSH2 0x16C7 JUMP JUMPDEST PUSH1 0x40 MLOAD DUP1 SWAP2 SUB SWAP1 REVERT JUMPDEST DUP1 PUSH1 0x2 DUP2 SWAP1 SSTORE POP POP JUMP JUMPDEST PUSH1 0x0 PUSH8 0xDE0B6B3A7640000 DUP3 PUSH2 0x439 SWAP2 SWAP1 PUSH2 0x182A JUMP JUMPDEST PUSH1 0x4 PUSH1 0x0 SWAP1 SLOAD SWAP1 PUSH2 0x100 EXP SWAP1 DIV PUSH20 0xFFFFFFFFFFFFFFFFFFFFFFFFFFFFFFFFFFFFFFFF AND PUSH20 0xFFFFFFFFFFFFFFFFFFFFFFFFFFFFFFFFFFFFFFFF AND PUSH4 0x70A08231 ADDRESS PUSH1 0x40 MLOAD DUP3 PUSH4 0xFFFFFFFF AND PUSH1 0xE0 SHL DUP2 MSTORE PUSH1 0x4 ADD PUSH2 0x494 SWAP2 SWAP1 PUSH2 0x158F JUMP JUMPDEST PUSH1 0x20 PUSH1 0x40 MLOAD DUP1 DUP4 SUB DUP2 DUP7 DUP1 EXTCODESIZE ISZERO DUP1 ISZERO PUSH2 0x4AC JUMPI PUSH1 0x0 DUP1 REVERT JUMPDEST POP GAS STATICCALL ISZERO DUP1 ISZERO PUSH2 0x4C0 JUMPI RETURNDATASIZE PUSH1 0x0 DUP1 RETURNDATACOPY RETURNDATASIZE PUSH1 0x0 REVERT JUMPDEST POP POP POP POP PUSH1 0x40 MLOAD RETURNDATASIZE PUSH1 0x1F NOT PUSH1 0x1F DUP3 ADD AND DUP3 ADD DUP1 PUSH1 0x40 MSTORE POP DUP2 ADD SWAP1 PUSH2 0x4E4 SWAP2 SWAP1 PUSH2 0x1356 JUMP JUMPDEST LT ISZERO PUSH2 0x525 JUMPI PUSH1 0x40 MLOAD PUSH32 0x8C379A000000000000000000000000000000000000000000000000000000000 DUP2 MSTORE PUSH1 0x4 ADD PUSH2 0x51C SWAP1 PUSH2 0x1747 JUMP JUMPDEST PUSH1 0x40 MLOAD DUP1 SWAP2 SUB SWAP1 REVERT JUMPDEST PUSH8 0xDE0B6B3A7640000 DUP3 PUSH2 0x539 SWAP2 SWAP1 PUSH2 0x182A JUMP JUMPDEST PUSH1 0x5 PUSH1 0x0 CALLER PUSH20 0xFFFFFFFFFFFFFFFFFFFFFFFFFFFFFFFFFFFFFFFF AND PUSH20 0xFFFFFFFFFFFFFFFFFFFFFFFFFFFFFFFFFFFFFFFF AND DUP2 MSTORE PUSH1 0x20 ADD SWAP1 DUP2 MSTORE PUSH1 0x20 ADD PUSH1 0x0 KECCAK256 SLOAD LT ISZERO PUSH2 0x5BA JUMPI PUSH1 0x40 MLOAD PUSH32 0x8C379A000000000000000000000000000000000000000000000000000000000 DUP2 MSTORE PUSH1 0x4 ADD PUSH2 0x5B1 SWAP1 PUSH2 0x1647 JUMP JUMPDEST PUSH1 0x40 MLOAD DUP1 SWAP2 SUB SWAP1 REVERT JUMPDEST PUSH2 0x607 CALLER DUP4 PUSH1 0x4 PUSH1 0x0 SWAP1 SLOAD SWAP1 PUSH2 0x100 EXP SWAP1 DIV PUSH20 0xFFFFFFFFFFFFFFFFFFFFFFFFFFFFFFFFFFFFFFFF AND PUSH20 0xFFFFFFFFFFFFFFFFFFFFFFFFFFFFFFFFFFFFFFFF AND PUSH2 0xDEB SWAP1 SWAP3 SWAP2 SWAP1 PUSH4 0xFFFFFFFF AND JUMP JUMPDEST PUSH8 0xDE0B6B3A7640000 DUP3 PUSH2 0x61B SWAP2 SWAP1 PUSH2 0x182A JUMP JUMPDEST PUSH1 0x5 PUSH1 0x0 CALLER PUSH20 0xFFFFFFFFFFFFFFFFFFFFFFFFFFFFFFFFFFFFFFFF AND PUSH20 0xFFFFFFFFFFFFFFFFFFFFFFFFFFFFFFFFFFFFFFFF AND DUP2 MSTORE PUSH1 0x20 ADD SWAP1 DUP2 MSTORE PUSH1 0x20 ADD PUSH1 0x0 KECCAK256 PUSH1 0x0 DUP3 DUP3 SLOAD PUSH2 0x669 SWAP2 SWAP1 PUSH2 0x1884 JUMP JUMPDEST SWAP3 POP POP DUP2 SWAP1 SSTORE POP PUSH1 0x1 SWAP1 POP SWAP2 SWAP1 POP JUMP JUMPDEST PUSH1 0x3 SLOAD TIMESTAMP LT ISZERO PUSH2 0x6BE JUMPI PUSH1 0x40 MLOAD PUSH32 0x8C379A000000000000000000000000000000000000000000000000000000000 DUP2 MSTORE PUSH1 0x4 ADD PUSH2 0x6B5 SWAP1 PUSH2 0x1707 JUMP JUMPDEST PUSH1 0x40 MLOAD DUP1 SWAP2 SUB SWAP1 REVERT JUMPDEST PUSH1 0x1 PUSH1 0x0 SWAP1 SLOAD SWAP1 PUSH2 0x100 EXP SWAP1 DIV PUSH20 0xFFFFFFFFFFFFFFFFFFFFFFFFFFFFFFFFFFFFFFFF AND PUSH20 0xFFFFFFFFFFFFFFFFFFFFFFFFFFFFFFFFFFFFFFFF AND PUSH4 0x40C10F19 CALLER PUSH1 0x5 PUSH1 0x0 CALLER PUSH20 0xFFFFFFFFFFFFFFFFFFFFFFFFFFFFFFFFFFFFFFFF AND PUSH20 0xFFFFFFFFFFFFFFFFFFFFFFFFFFFFFFFFFFFFFFFF AND DUP2 MSTORE PUSH1 0x20 ADD SWAP1 DUP2 MSTORE PUSH1 0x20 ADD PUSH1 0x0 KECCAK256 SLOAD PUSH1 0x40 MLOAD DUP4 PUSH4 0xFFFFFFFF AND PUSH1 0xE0 SHL DUP2 MSTORE PUSH1 0x4 ADD PUSH2 0x75A SWAP3 SWAP2 SWAP1 PUSH2 0x15E1 JUMP JUMPDEST PUSH1 0x20 PUSH1 0x40 MLOAD DUP1 DUP4 SUB DUP2 PUSH1 0x0 DUP8 DUP1 EXTCODESIZE ISZERO DUP1 ISZERO PUSH2 0x774 JUMPI PUSH1 0x0 DUP1 REVERT JUMPDEST POP GAS CALL ISZERO DUP1 ISZERO PUSH2 0x788 JUMPI RETURNDATASIZE PUSH1 0x0 DUP1 RETURNDATACOPY RETURNDATASIZE PUSH1 0x0 REVERT JUMPDEST POP POP POP POP PUSH1 0x40 MLOAD RETURNDATASIZE PUSH1 0x1F NOT PUSH1 0x1F DUP3 ADD AND DUP3 ADD DUP1 PUSH1 0x40 MSTORE POP DUP2 ADD SWAP1 PUSH2 0x7AC SWAP2 SWAP1 PUSH2 0x12FC JUMP JUMPDEST POP PUSH1 0x5 PUSH1 0x0 CALLER PUSH20 0xFFFFFFFFFFFFFFFFFFFFFFFFFFFFFFFFFFFFFFFF AND PUSH20 0xFFFFFFFFFFFFFFFFFFFFFFFFFFFFFFFFFFFFFFFF AND DUP2 MSTORE PUSH1 0x20 ADD SWAP1 DUP2 MSTORE PUSH1 0x20 ADD PUSH1 0x0 KECCAK256 PUSH1 0x0 SWAP1 SSTORE JUMP JUMPDEST PUSH1 0x4 PUSH1 0x0 SWAP1 SLOAD SWAP1 PUSH2 0x100 EXP SWAP1 DIV PUSH20 0xFFFFFFFFFFFFFFFFFFFFFFFFFFFFFFFFFFFFFFFF AND DUP2 JUMP JUMPDEST PUSH1 0x0 PUSH1 0x5 PUSH1 0x0 DUP4 PUSH20 0xFFFFFFFFFFFFFFFFFFFFFFFFFFFFFFFFFFFFFFFF AND PUSH20 0xFFFFFFFFFFFFFFFFFFFFFFFFFFFFFFFFFFFFFFFF AND DUP2 MSTORE PUSH1 0x20 ADD SWAP1 DUP2 MSTORE PUSH1 0x20 ADD PUSH1 0x0 KECCAK256 SLOAD SWAP1 POP SWAP2 SWAP1 POP JUMP JUMPDEST PUSH2 0x869 PUSH2 0xDE3 JUMP JUMPDEST PUSH20 0xFFFFFFFFFFFFFFFFFFFFFFFFFFFFFFFFFFFFFFFF AND PUSH2 0x887 PUSH2 0x97E JUMP JUMPDEST PUSH20 0xFFFFFFFFFFFFFFFFFFFFFFFFFFFFFFFFFFFFFFFF AND EQ PUSH2 0x8DD JUMPI PUSH1 0x40 MLOAD PUSH32 0x8C379A000000000000000000000000000000000000000000000000000000000 DUP2 MSTORE PUSH1 0x4 ADD PUSH2 0x8D4 SWAP1 PUSH2 0x16C7 JUMP JUMPDEST PUSH1 0x40 MLOAD DUP1 SWAP2 SUB SWAP1 REVERT JUMPDEST DUP1 PUSH1 0x3 DUP2 SWAP1 SSTORE POP POP JUMP JUMPDEST PUSH2 0x8EF PUSH2 0xDE3 JUMP JUMPDEST PUSH20 0xFFFFFFFFFFFFFFFFFFFFFFFFFFFFFFFFFFFFFFFF AND PUSH2 0x90D PUSH2 0x97E JUMP JUMPDEST PUSH20 0xFFFFFFFFFFFFFFFFFFFFFFFFFFFFFFFFFFFFFFFF AND EQ PUSH2 0x963 JUMPI PUSH1 0x40 MLOAD PUSH32 0x8C379A000000000000000000000000000000000000000000000000000000000 DUP2 MSTORE PUSH1 0x4 ADD PUSH2 0x95A SWAP1 PUSH2 0x16C7 JUMP JUMPDEST PUSH1 0x40 MLOAD DUP1 SWAP2 SUB SWAP1 REVERT JUMPDEST PUSH2 0x96D PUSH1 0x0 PUSH2 0xE71 JUMP JUMPDEST JUMP JUMPDEST PUSH1 0x0 PUSH2 0x979 PUSH2 0x97E JUMP JUMPDEST SWAP1 POP SWAP1 JUMP JUMPDEST PUSH1 0x0 DUP1 PUSH1 0x0 SWAP1 SLOAD SWAP1 PUSH2 0x100 EXP SWAP1 DIV PUSH20 0xFFFFFFFFFFFFFFFFFFFFFFFFFFFFFFFFFFFFFFFF AND SWAP1 POP SWAP1 JUMP JUMPDEST PUSH1 0x0 PUSH1 0x1 PUSH1 0x0 SWAP1 SLOAD SWAP1 PUSH2 0x100 EXP SWAP1 DIV PUSH20 0xFFFFFFFFFFFFFFFFFFFFFFFFFFFFFFFFFFFFFFFF AND SWAP1 POP SWAP1 JUMP JUMPDEST PUSH1 0x0 PUSH1 0x2 SLOAD SWAP1 POP SWAP1 JUMP JUMPDEST PUSH1 0x0 PUSH1 0x3 SLOAD SWAP1 POP SWAP1 JUMP JUMPDEST PUSH1 0x2 SLOAD TIMESTAMP LT ISZERO PUSH2 0xA2A JUMPI PUSH1 0x40 MLOAD PUSH32 0x8C379A000000000000000000000000000000000000000000000000000000000 DUP2 MSTORE PUSH1 0x4 ADD PUSH2 0xA21 SWAP1 PUSH2 0x16E7 JUMP JUMPDEST PUSH1 0x40 MLOAD DUP1 SWAP2 SUB SWAP1 REVERT JUMPDEST PUSH1 0x3 SLOAD TIMESTAMP GT ISZERO PUSH2 0xA6F JUMPI PUSH1 0x40 MLOAD PUSH32 0x8C379A000000000000000000000000000000000000000000000000000000000 DUP2 MSTORE PUSH1 0x4 ADD PUSH2 0xA66 SWAP1 PUSH2 0x1687 JUMP JUMPDEST PUSH1 0x40 MLOAD DUP1 SWAP2 SUB SWAP1 REVERT JUMPDEST PUSH2 0xABE CALLER ADDRESS DUP4 PUSH1 0x4 PUSH1 0x0 SWAP1 SLOAD SWAP1 PUSH2 0x100 EXP SWAP1 DIV PUSH20 0xFFFFFFFFFFFFFFFFFFFFFFFFFFFFFFFFFFFFFFFF AND PUSH20 0xFFFFFFFFFFFFFFFFFFFFFFFFFFFFFFFFFFFFFFFF AND PUSH2 0xF35 SWAP1 SWAP4 SWAP3 SWAP2 SWAP1 PUSH4 0xFFFFFFFF AND JUMP JUMPDEST PUSH8 0xDE0B6B3A7640000 DUP2 PUSH2 0xAD2 SWAP2 SWAP1 PUSH2 0x182A JUMP JUMPDEST PUSH1 0x5 PUSH1 0x0 CALLER PUSH20 0xFFFFFFFFFFFFFFFFFFFFFFFFFFFFFFFFFFFFFFFF AND PUSH20 0xFFFFFFFFFFFFFFFFFFFFFFFFFFFFFFFFFFFFFFFF AND DUP2 MSTORE PUSH1 0x20 ADD SWAP1 DUP2 MSTORE PUSH1 0x20 ADD PUSH1 0x0 KECCAK256 PUSH1 0x0 DUP3 DUP3 SLOAD PUSH2 0xB20 SWAP2 SWAP1 PUSH2 0x17D4 JUMP JUMPDEST SWAP3 POP POP DUP2 SWAP1 SSTORE POP POP JUMP JUMPDEST PUSH2 0xB32 PUSH2 0xDE3 JUMP JUMPDEST PUSH20 0xFFFFFFFFFFFFFFFFFFFFFFFFFFFFFFFFFFFFFFFF AND PUSH2 0xB50 PUSH2 0x97E JUMP JUMPDEST PUSH20 0xFFFFFFFFFFFFFFFFFFFFFFFFFFFFFFFFFFFFFFFF AND EQ PUSH2 0xBA6 JUMPI PUSH1 0x40 MLOAD PUSH32 0x8C379A000000000000000000000000000000000000000000000000000000000 DUP2 MSTORE PUSH1 0x4 ADD PUSH2 0xB9D SWAP1 PUSH2 0x16C7 JUMP JUMPDEST PUSH1 0x40 MLOAD DUP1 SWAP2 SUB SWAP1 REVERT JUMPDEST PUSH1 0x0 PUSH20 0xFFFFFFFFFFFFFFFFFFFFFFFFFFFFFFFFFFFFFFFF AND DUP2 PUSH20 0xFFFFFFFFFFFFFFFFFFFFFFFFFFFFFFFFFFFFFFFF AND EQ ISZERO PUSH2 0xC16 JUMPI PUSH1 0x40 MLOAD PUSH32 0x8C379A000000000000000000000000000000000000000000000000000000000 DUP2 MSTORE PUSH1 0x4 ADD PUSH2 0xC0D SWAP1 PUSH2 0x1667 JUMP JUMPDEST PUSH1 0x40 MLOAD DUP1 SWAP2 SUB SWAP1 REVERT JUMPDEST PUSH2 0xC1F DUP2 PUSH2 0xE71 JUMP JUMPDEST POP JUMP JUMPDEST PUSH2 0xC2A PUSH2 0xDE3 JUMP JUMPDEST PUSH20 0xFFFFFFFFFFFFFFFFFFFFFFFFFFFFFFFFFFFFFFFF AND PUSH2 0xC48 PUSH2 0x97E JUMP JUMPDEST PUSH20 0xFFFFFFFFFFFFFFFFFFFFFFFFFFFFFFFFFFFFFFFF AND EQ PUSH2 0xC9E JUMPI PUSH1 0x40 MLOAD PUSH32 0x8C379A000000000000000000000000000000000000000000000000000000000 DUP2 MSTORE PUSH1 0x4 ADD PUSH2 0xC95 SWAP1 PUSH2 0x16C7 JUMP JUMPDEST PUSH1 0x40 MLOAD DUP1 SWAP2 SUB SWAP1 REVERT JUMPDEST PUSH1 0x3 SLOAD TIMESTAMP GT PUSH2 0xCE2 JUMPI PUSH1 0x40 MLOAD PUSH32 0x8C379A000000000000000000000000000000000000000000000000000000000 DUP2 MSTORE PUSH1 0x4 ADD PUSH2 0xCD9 SWAP1 PUSH2 0x1707 JUMP JUMPDEST PUSH1 0x40 MLOAD DUP1 SWAP2 SUB SWAP1 REVERT JUMPDEST PUSH1 0x0 PUSH1 0x4 PUSH1 0x0 SWAP1 SLOAD SWAP1 PUSH2 0x100 EXP SWAP1 DIV PUSH20 0xFFFFFFFFFFFFFFFFFFFFFFFFFFFFFFFFFFFFFFFF AND PUSH20 0xFFFFFFFFFFFFFFFFFFFFFFFFFFFFFFFFFFFFFFFF AND PUSH4 0x70A08231 ADDRESS PUSH1 0x40 MLOAD DUP3 PUSH4 0xFFFFFFFF AND PUSH1 0xE0 SHL DUP2 MSTORE PUSH1 0x4 ADD PUSH2 0xD3F SWAP2 SWAP1 PUSH2 0x158F JUMP JUMPDEST PUSH1 0x20 PUSH1 0x40 MLOAD DUP1 DUP4 SUB DUP2 DUP7 DUP1 EXTCODESIZE ISZERO DUP1 ISZERO PUSH2 0xD57 JUMPI PUSH1 0x0 DUP1 REVERT JUMPDEST POP GAS STATICCALL ISZERO DUP1 ISZERO PUSH2 0xD6B JUMPI RETURNDATASIZE PUSH1 0x0 DUP1 RETURNDATACOPY RETURNDATASIZE PUSH1 0x0 REVERT JUMPDEST POP POP POP POP PUSH1 0x40 MLOAD RETURNDATASIZE PUSH1 0x1F NOT PUSH1 0x1F DUP3 ADD AND DUP3 ADD DUP1 PUSH1 0x40 MSTORE POP DUP2 ADD SWAP1 PUSH2 0xD8F SWAP2 SWAP1 PUSH2 0x1356 JUMP JUMPDEST SWAP1 POP PUSH2 0xDDE DUP4 DUP4 PUSH1 0x4 PUSH1 0x0 SWAP1 SLOAD SWAP1 PUSH2 0x100 EXP SWAP1 DIV PUSH20 0xFFFFFFFFFFFFFFFFFFFFFFFFFFFFFFFFFFFFFFFF AND PUSH20 0xFFFFFFFFFFFFFFFFFFFFFFFFFFFFFFFFFFFFFFFF AND PUSH2 0xDEB SWAP1 SWAP3 SWAP2 SWAP1 PUSH4 0xFFFFFFFF AND JUMP JUMPDEST POP POP POP JUMP JUMPDEST PUSH1 0x0 CALLER SWAP1 POP SWAP1 JUMP JUMPDEST PUSH2 0xE6C DUP4 PUSH4 0xA9059CBB PUSH1 0xE0 SHL DUP5 DUP5 PUSH1 0x40 MLOAD PUSH1 0x24 ADD PUSH2 0xE0A SWAP3 SWAP2 SWAP1 PUSH2 0x15E1 JUMP JUMPDEST PUSH1 0x40 MLOAD PUSH1 0x20 DUP2 DUP4 SUB SUB DUP2 MSTORE SWAP1 PUSH1 0x40 MSTORE SWAP1 PUSH28 0xFFFFFFFFFFFFFFFFFFFFFFFFFFFFFFFFFFFFFFFFFFFFFFFFFFFFFFFF NOT AND PUSH1 0x20 DUP3 ADD DUP1 MLOAD PUSH28 0xFFFFFFFFFFFFFFFFFFFFFFFFFFFFFFFFFFFFFFFFFFFFFFFFFFFFFFFF DUP4 DUP2 DUP4 AND OR DUP4 MSTORE POP POP POP POP PUSH2 0xFBE JUMP JUMPDEST POP POP POP JUMP JUMPDEST PUSH1 0x0 DUP1 PUSH1 0x0 SWAP1 SLOAD SWAP1 PUSH2 0x100 EXP SWAP1 DIV PUSH20 0xFFFFFFFFFFFFFFFFFFFFFFFFFFFFFFFFFFFFFFFF AND SWAP1 POP DUP2 PUSH1 0x0 DUP1 PUSH2 0x100 EXP DUP2 SLOAD DUP2 PUSH20 0xFFFFFFFFFFFFFFFFFFFFFFFFFFFFFFFFFFFFFFFF MUL NOT AND SWAP1 DUP4 PUSH20 0xFFFFFFFFFFFFFFFFFFFFFFFFFFFFFFFFFFFFFFFF AND MUL OR SWAP1 SSTORE POP DUP2 PUSH20 0xFFFFFFFFFFFFFFFFFFFFFFFFFFFFFFFFFFFFFFFF AND DUP2 PUSH20 0xFFFFFFFFFFFFFFFFFFFFFFFFFFFFFFFFFFFFFFFF AND PUSH32 0x8BE0079C531659141344CD1FD0A4F28419497F9722A3DAAFE3B4186F6B6457E0 PUSH1 0x40 MLOAD PUSH1 0x40 MLOAD DUP1 SWAP2 SUB SWAP1 LOG3 POP POP JUMP JUMPDEST PUSH2 0xFB8 DUP5 PUSH4 0x23B872DD PUSH1 0xE0 SHL DUP6 DUP6 DUP6 PUSH1 0x40 MLOAD PUSH1 0x24 ADD PUSH2 0xF56 SWAP4 SWAP3 SWAP2 SWAP1 PUSH2 0x15AA JUMP JUMPDEST PUSH1 0x40 MLOAD PUSH1 0x20 DUP2 DUP4 SUB SUB DUP2 MSTORE SWAP1 PUSH1 0x40 MSTORE SWAP1 PUSH28 0xFFFFFFFFFFFFFFFFFFFFFFFFFFFFFFFFFFFFFFFFFFFFFFFFFFFFFFFF NOT AND PUSH1 0x20 DUP3 ADD DUP1 MLOAD PUSH28 0xFFFFFFFFFFFFFFFFFFFFFFFFFFFFFFFFFFFFFFFFFFFFFFFFFFFFFFFF DUP4 DUP2 DUP4 AND OR DUP4 MSTORE POP POP POP POP PUSH2 0xFBE JUMP JUMPDEST POP POP POP POP JUMP JUMPDEST PUSH1 0x0 PUSH2 0x1020 DUP3 PUSH1 0x40 MLOAD DUP1 PUSH1 0x40 ADD PUSH1 0x40 MSTORE DUP1 PUSH1 0x20 DUP2 MSTORE PUSH1 0x20 ADD PUSH32 0x5361666545524332303A206C6F772D6C6576656C2063616C6C206661696C6564 DUP2 MSTORE POP DUP6 PUSH20 0xFFFFFFFFFFFFFFFFFFFFFFFFFFFFFFFFFFFFFFFF AND PUSH2 0x1085 SWAP1 SWAP3 SWAP2 SWAP1 PUSH4 0xFFFFFFFF AND JUMP JUMPDEST SWAP1 POP PUSH1 0x0 DUP2 MLOAD GT ISZERO PUSH2 0x1080 JUMPI DUP1 DUP1 PUSH1 0x20 ADD SWAP1 MLOAD DUP2 ADD SWAP1 PUSH2 0x1040 SWAP2 SWAP1 PUSH2 0x12FC JUMP JUMPDEST PUSH2 0x107F JUMPI PUSH1 0x40 MLOAD PUSH32 0x8C379A000000000000000000000000000000000000000000000000000000000 DUP2 MSTORE PUSH1 0x4 ADD PUSH2 0x1076 SWAP1 PUSH2 0x1767 JUMP JUMPDEST PUSH1 0x40 MLOAD DUP1 SWAP2 SUB SWAP1 REVERT JUMPDEST JUMPDEST POP POP POP JUMP JUMPDEST PUSH1 0x60 PUSH2 0x1094 DUP5 DUP5 PUSH1 0x0 DUP6 PUSH2 0x109D JUMP JUMPDEST SWAP1 POP SWAP4 SWAP3 POP POP POP JUMP JUMPDEST PUSH1 0x60 DUP3 SELFBALANCE LT ISZERO PUSH2 0x10E2 JUMPI PUSH1 0x40 MLOAD PUSH32 0x8C379A000000000000000000000000000000000000000000000000000000000 DUP2 MSTORE PUSH1 0x4 ADD PUSH2 0x10D9 SWAP1 PUSH2 0x16A7 JUMP JUMPDEST PUSH1 0x40 MLOAD DUP1 SWAP2 SUB SWAP1 REVERT JUMPDEST PUSH2 0x10EB DUP6 PUSH2 0x11B1 JUMP JUMPDEST PUSH2 0x112A JUMPI PUSH1 0x40 MLOAD PUSH32 0x8C379A000000000000000000000000000000000000000000000000000000000 DUP2 MSTORE PUSH1 0x4 ADD PUSH2 0x1121 SWAP1 PUSH2 0x1727 JUMP JUMPDEST PUSH1 0x40 MLOAD DUP1 SWAP2 SUB SWAP1 REVERT JUMPDEST PUSH1 0x0 DUP1 DUP7 PUSH20 0xFFFFFFFFFFFFFFFFFFFFFFFFFFFFFFFFFFFFFFFF AND DUP6 DUP8 PUSH1 0x40 MLOAD PUSH2 0x1153 SWAP2 SWAP1 PUSH2 0x1578 JUMP JUMPDEST PUSH1 0x0 PUSH1 0x40 MLOAD DUP1 DUP4 SUB DUP2 DUP6 DUP8 GAS CALL SWAP3 POP POP POP RETURNDATASIZE DUP1 PUSH1 0x0 DUP2 EQ PUSH2 0x1190 JUMPI PUSH1 0x40 MLOAD SWAP2 POP PUSH1 0x1F NOT PUSH1 0x3F RETURNDATASIZE ADD AND DUP3 ADD PUSH1 0x40 MSTORE RETURNDATASIZE DUP3 MSTORE RETURNDATASIZE PUSH1 0x0 PUSH1 0x20 DUP5 ADD RETURNDATACOPY PUSH2 0x1195 JUMP JUMPDEST PUSH1 0x60 SWAP2 POP JUMPDEST POP SWAP2 POP SWAP2 POP PUSH2 0x11A5 DUP3 DUP3 DUP7 PUSH2 0x11D4 JUMP JUMPDEST SWAP3 POP POP POP SWAP5 SWAP4 POP POP POP POP JUMP JUMPDEST PUSH1 0x0 DUP1 DUP3 PUSH20 0xFFFFFFFFFFFFFFFFFFFFFFFFFFFFFFFFFFFFFFFF AND EXTCODESIZE GT SWAP1 POP SWAP2 SWAP1 POP JUMP JUMPDEST PUSH1 0x60 DUP4 ISZERO PUSH2 0x11E4 JUMPI DUP3 SWAP1 POP PUSH2 0x1234 JUMP JUMPDEST PUSH1 0x0 DUP4 MLOAD GT ISZERO PUSH2 0x11F7 JUMPI DUP3 MLOAD DUP1 DUP5 PUSH1 0x20 ADD REVERT JUMPDEST DUP2 PUSH1 0x40 MLOAD PUSH32 0x8C379A000000000000000000000000000000000000000000000000000000000 DUP2 MSTORE PUSH1 0x4 ADD PUSH2 0x122B SWAP2 SWAP1 PUSH2 0x1625 JUMP JUMPDEST PUSH1 0x40 MLOAD DUP1 SWAP2 SUB SWAP1 REVERT JUMPDEST SWAP4 SWAP3 POP POP POP JUMP JUMPDEST PUSH1 0x0 DUP2 CALLDATALOAD SWAP1 POP PUSH2 0x124A DUP2 PUSH2 0x1BAA JUMP JUMPDEST SWAP3 SWAP2 POP POP JUMP JUMPDEST PUSH1 0x0 DUP2 MLOAD SWAP1 POP PUSH2 0x125F DUP2 PUSH2 0x1BC1 JUMP JUMPDEST SWAP3 SWAP2 POP POP JUMP JUMPDEST PUSH1 0x0 DUP2 CALLDATALOAD SWAP1 POP PUSH2 0x1274 DUP2 PUSH2 0x1BD8 JUMP JUMPDEST SWAP3 SWAP2 POP POP JUMP JUMPDEST PUSH1 0x0 DUP2 MLOAD SWAP1 POP PUSH2 0x1289 DUP2 PUSH2 0x1BD8 JUMP JUMPDEST SWAP3 SWAP2 POP POP JUMP JUMPDEST PUSH1 0x0 PUSH1 0x20 DUP3 DUP5 SUB SLT ISZERO PUSH2 0x12A5 JUMPI PUSH2 0x12A4 PUSH2 0x1962 JUMP JUMPDEST JUMPDEST PUSH1 0x0 PUSH2 0x12B3 DUP5 DUP3 DUP6 ADD PUSH2 0x123B JUMP JUMPDEST SWAP2 POP POP SWAP3 SWAP2 POP POP JUMP JUMPDEST PUSH1 0x0 DUP1 PUSH1 0x40 DUP4 DUP6 SUB SLT ISZERO PUSH2 0x12D3 JUMPI PUSH2 0x12D2 PUSH2 0x1962 JUMP JUMPDEST JUMPDEST PUSH1 0x0 PUSH2 0x12E1 DUP6 DUP3 DUP7 ADD PUSH2 0x123B JUMP JUMPDEST SWAP3 POP POP PUSH1 0x20 PUSH2 0x12F2 DUP6 DUP3 DUP7 ADD PUSH2 0x1265 JUMP JUMPDEST SWAP2 POP POP SWAP3 POP SWAP3 SWAP1 POP JUMP JUMPDEST PUSH1 0x0 PUSH1 0x20 DUP3 DUP5 SUB SLT ISZERO PUSH2 0x1312 JUMPI PUSH2 0x1311 PUSH2 0x1962 JUMP JUMPDEST JUMPDEST PUSH1 0x0 PUSH2 0x1320 DUP5 DUP3 DUP6 ADD PUSH2 0x1250 JUMP JUMPDEST SWAP2 POP POP SWAP3 SWAP2 POP POP JUMP JUMPDEST PUSH1 0x0 PUSH1 0x20 DUP3 DUP5 SUB SLT ISZERO PUSH2 0x133F JUMPI PUSH2 0x133E PUSH2 0x1962 JUMP JUMPDEST JUMPDEST PUSH1 0x0 PUSH2 0x134D DUP5 DUP3 DUP6 ADD PUSH2 0x1265 JUMP JUMPDEST SWAP2 POP POP SWAP3 SWAP2 POP POP JUMP JUMPDEST PUSH1 0x0 PUSH1 0x20 DUP3 DUP5 SUB SLT ISZERO PUSH2 0x136C JUMPI PUSH2 0x136B PUSH2 0x1962 JUMP JUMPDEST JUMPDEST PUSH1 0x0 PUSH2 0x137A DUP5 DUP3 DUP6 ADD PUSH2 0x127A JUMP JUMPDEST SWAP2 POP POP SWAP3 SWAP2 POP POP JUMP JUMPDEST PUSH2 0x138C DUP2 PUSH2 0x18B8 JUMP JUMPDEST DUP3 MSTORE POP POP JUMP JUMPDEST PUSH2 0x139B DUP2 PUSH2 0x18CA JUMP JUMPDEST DUP3 MSTORE POP POP JUMP JUMPDEST PUSH1 0x0 PUSH2 0x13AC DUP3 PUSH2 0x17A2 JUMP JUMPDEST PUSH2 0x13B6 DUP2 DUP6 PUSH2 0x17B8 JUMP JUMPDEST SWAP4 POP PUSH2 0x13C6 DUP2 DUP6 PUSH1 0x20 DUP7 ADD PUSH2 0x1900 JUMP JUMPDEST DUP1 DUP5 ADD SWAP2 POP POP SWAP3 SWAP2 POP POP JUMP JUMPDEST PUSH1 0x0 PUSH2 0x13DD DUP3 PUSH2 0x17AD JUMP JUMPDEST PUSH2 0x13E7 DUP2 DUP6 PUSH2 0x17C3 JUMP JUMPDEST SWAP4 POP PUSH2 0x13F7 DUP2 DUP6 PUSH1 0x20 DUP7 ADD PUSH2 0x1900 JUMP JUMPDEST PUSH2 0x1400 DUP2 PUSH2 0x1967 JUMP JUMPDEST DUP5 ADD SWAP2 POP POP SWAP3 SWAP2 POP POP JUMP JUMPDEST PUSH1 0x0 PUSH2 0x1418 PUSH1 0x25 DUP4 PUSH2 0x17C3 JUMP JUMPDEST SWAP2 POP PUSH2 0x1423 DUP3 PUSH2 0x1978 JUMP JUMPDEST PUSH1 0x40 DUP3 ADD SWAP1 POP SWAP2 SWAP1 POP JUMP JUMPDEST PUSH1 0x0 PUSH2 0x143B PUSH1 0x26 DUP4 PUSH2 0x17C3 JUMP JUMPDEST SWAP2 POP PUSH2 0x1446 DUP3 PUSH2 0x19C7 JUMP JUMPDEST PUSH1 0x40 DUP3 ADD SWAP1 POP SWAP2 SWAP1 POP JUMP JUMPDEST PUSH1 0x0 PUSH2 0x145E PUSH1 0xE DUP4 PUSH2 0x17C3 JUMP JUMPDEST SWAP2 POP PUSH2 0x1469 DUP3 PUSH2 0x1A16 JUMP JUMPDEST PUSH1 0x20 DUP3 ADD SWAP1 POP SWAP2 SWAP1 POP JUMP JUMPDEST PUSH1 0x0 PUSH2 0x1481 PUSH1 0x26 DUP4 PUSH2 0x17C3 JUMP JUMPDEST SWAP2 POP PUSH2 0x148C DUP3 PUSH2 0x1A3F JUMP JUMPDEST PUSH1 0x40 DUP3 ADD SWAP1 POP SWAP2 SWAP1 POP JUMP JUMPDEST PUSH1 0x0 PUSH2 0x14A4 PUSH1 0x20 DUP4 PUSH2 0x17C3 JUMP JUMPDEST SWAP2 POP PUSH2 0x14AF DUP3 PUSH2 0x1A8E JUMP JUMPDEST PUSH1 0x20 DUP3 ADD SWAP1 POP SWAP2 SWAP1 POP JUMP JUMPDEST PUSH1 0x0 PUSH2 0x14C7 PUSH1 0x17 DUP4 PUSH2 0x17C3 JUMP JUMPDEST SWAP2 POP PUSH2 0x14D2 DUP3 PUSH2 0x1AB7 JUMP JUMPDEST PUSH1 0x20 DUP3 ADD SWAP1 POP SWAP2 SWAP1 POP JUMP JUMPDEST PUSH1 0x0 PUSH2 0x14EA PUSH1 0x11 DUP4 PUSH2 0x17C3 JUMP JUMPDEST SWAP2 POP PUSH2 0x14F5 DUP3 PUSH2 0x1AE0 JUMP JUMPDEST PUSH1 0x20 DUP3 ADD SWAP1 POP SWAP2 SWAP1 POP JUMP JUMPDEST PUSH1 0x0 PUSH2 0x150D PUSH1 0x1D DUP4 PUSH2 0x17C3 JUMP JUMPDEST SWAP2 POP PUSH2 0x1518 DUP3 PUSH2 0x1B09 JUMP JUMPDEST PUSH1 0x20 DUP3 ADD SWAP1 POP SWAP2 SWAP1 POP JUMP JUMPDEST PUSH1 0x0 PUSH2 0x1530 PUSH1 0x1A DUP4 PUSH2 0x17C3 JUMP JUMPDEST SWAP2 POP PUSH2 0x153B DUP3 PUSH2 0x1B32 JUMP JUMPDEST PUSH1 0x20 DUP3 ADD SWAP1 POP SWAP2 SWAP1 POP JUMP JUMPDEST PUSH1 0x0 PUSH2 0x1553 PUSH1 0x2A DUP4 PUSH2 0x17C3 JUMP JUMPDEST SWAP2 POP PUSH2 0x155E DUP3 PUSH2 0x1B5B JUMP JUMPDEST PUSH1 0x40 DUP3 ADD SWAP1 POP SWAP2 SWAP1 POP JUMP JUMPDEST PUSH2 0x1572 DUP2 PUSH2 0x18F6 JUMP JUMPDEST DUP3 MSTORE POP POP JUMP JUMPDEST PUSH1 0x0 PUSH2 0x1584 DUP3 DUP5 PUSH2 0x13A1 JUMP JUMPDEST SWAP2 POP DUP2 SWAP1 POP SWAP3 SWAP2 POP POP JUMP JUMPDEST PUSH1 0x0 PUSH1 0x20 DUP3 ADD SWAP1 POP PUSH2 0x15A4 PUSH1 0x0 DUP4 ADD DUP5 PUSH2 0x1383 JUMP JUMPDEST SWAP3 SWAP2 POP POP JUMP JUMPDEST PUSH1 0x0 PUSH1 0x60 DUP3 ADD SWAP1 POP PUSH2 0x15BF PUSH1 0x0 DUP4 ADD DUP7 PUSH2 0x1383 JUMP JUMPDEST PUSH2 0x15CC PUSH1 0x20 DUP4 ADD DUP6 PUSH2 0x1383 JUMP JUMPDEST PUSH2 0x15D9 PUSH1 0x40 DUP4 ADD DUP5 PUSH2 0x1569 JUMP JUMPDEST SWAP5 SWAP4 POP POP POP POP JUMP JUMPDEST PUSH1 0x0 PUSH1 0x40 DUP3 ADD SWAP1 POP PUSH2 0x15F6 PUSH1 0x0 DUP4 ADD DUP6 PUSH2 0x1383 JUMP JUMPDEST PUSH2 0x1603 PUSH1 0x20 DUP4 ADD DUP5 PUSH2 0x1569 JUMP JUMPDEST SWAP4 SWAP3 POP POP POP JUMP JUMPDEST PUSH1 0x0 PUSH1 0x20 DUP3 ADD SWAP1 POP PUSH2 0x161F PUSH1 0x0 DUP4 ADD DUP5 PUSH2 0x1392 JUMP JUMPDEST SWAP3 SWAP2 POP POP JUMP JUMPDEST PUSH1 0x0 PUSH1 0x20 DUP3 ADD SWAP1 POP DUP2 DUP2 SUB PUSH1 0x0 DUP4 ADD MSTORE PUSH2 0x163F DUP2 DUP5 PUSH2 0x13D2 JUMP JUMPDEST SWAP1 POP SWAP3 SWAP2 POP POP JUMP JUMPDEST PUSH1 0x0 PUSH1 0x20 DUP3 ADD SWAP1 POP DUP2 DUP2 SUB PUSH1 0x0 DUP4 ADD MSTORE PUSH2 0x1660 DUP2 PUSH2 0x140B JUMP JUMPDEST SWAP1 POP SWAP2 SWAP1 POP JUMP JUMPDEST PUSH1 0x0 PUSH1 0x20 DUP3 ADD SWAP1 POP DUP2 DUP2 SUB PUSH1 0x0 DUP4 ADD MSTORE PUSH2 0x1680 DUP2 PUSH2 0x142E JUMP JUMPDEST SWAP1 POP SWAP2 SWAP1 POP JUMP JUMPDEST PUSH1 0x0 PUSH1 0x20 DUP3 ADD SWAP1 POP DUP2 DUP2 SUB PUSH1 0x0 DUP4 ADD MSTORE PUSH2 0x16A0 DUP2 PUSH2 0x1451 JUMP JUMPDEST SWAP1 POP SWAP2 SWAP1 POP JUMP JUMPDEST PUSH1 0x0 PUSH1 0x20 DUP3 ADD SWAP1 POP DUP2 DUP2 SUB PUSH1 0x0 DUP4 ADD MSTORE PUSH2 0x16C0 DUP2 PUSH2 0x1474 JUMP JUMPDEST SWAP1 POP SWAP2 SWAP1 POP JUMP JUMPDEST PUSH1 0x0 PUSH1 0x20 DUP3 ADD SWAP1 POP DUP2 DUP2 SUB PUSH1 0x0 DUP4 ADD MSTORE PUSH2 0x16E0 DUP2 PUSH2 0x1497 JUMP JUMPDEST SWAP1 POP SWAP2 SWAP1 POP JUMP JUMPDEST PUSH1 0x0 PUSH1 0x20 DUP3 ADD SWAP1 POP DUP2 DUP2 SUB PUSH1 0x0 DUP4 ADD MSTORE PUSH2 0x1700 DUP2 PUSH2 0x14BA JUMP JUMPDEST SWAP1 POP SWAP2 SWAP1 POP JUMP JUMPDEST PUSH1 0x0 PUSH1 0x20 DUP3 ADD SWAP1 POP DUP2 DUP2 SUB PUSH1 0x0 DUP4 ADD MSTORE PUSH2 0x1720 DUP2 PUSH2 0x14DD JUMP JUMPDEST SWAP1 POP SWAP2 SWAP1 POP JUMP JUMPDEST PUSH1 0x0 PUSH1 0x20 DUP3 ADD SWAP1 POP DUP2 DUP2 SUB PUSH1 0x0 DUP4 ADD MSTORE PUSH2 0x1740 DUP2 PUSH2 0x1500 JUMP JUMPDEST SWAP1 POP SWAP2 SWAP1 POP JUMP JUMPDEST PUSH1 0x0 PUSH1 0x20 DUP3 ADD SWAP1 POP DUP2 DUP2 SUB PUSH1 0x0 DUP4 ADD MSTORE PUSH2 0x1760 DUP2 PUSH2 0x1523 JUMP JUMPDEST SWAP1 POP SWAP2 SWAP1 POP JUMP JUMPDEST PUSH1 0x0 PUSH1 0x20 DUP3 ADD SWAP1 POP DUP2 DUP2 SUB PUSH1 0x0 DUP4 ADD MSTORE PUSH2 0x1780 DUP2 PUSH2 0x1546 JUMP JUMPDEST SWAP1 POP SWAP2 SWAP1 POP JUMP JUMPDEST PUSH1 0x0 PUSH1 0x20 DUP3 ADD SWAP1 POP PUSH2 0x179C PUSH1 0x0 DUP4 ADD DUP5 PUSH2 0x1569 JUMP JUMPDEST SWAP3 SWAP2 POP POP JUMP JUMPDEST PUSH1 0x0 DUP2 MLOAD SWAP1 POP SWAP2 SWAP1 POP JUMP JUMPDEST PUSH1 0x0 DUP2 MLOAD SWAP1 POP SWAP2 SWAP1 POP JUMP JUMPDEST PUSH1 0x0 DUP2 SWAP1 POP SWAP3 SWAP2 POP POP JUMP JUMPDEST PUSH1 0x0 DUP3 DUP3 MSTORE PUSH1 0x20 DUP3 ADD SWAP1 POP SWAP3 SWAP2 POP POP JUMP JUMPDEST PUSH1 0x0 PUSH2 0x17DF DUP3 PUSH2 0x18F6 JUMP JUMPDEST SWAP2 POP PUSH2 0x17EA DUP4 PUSH2 0x18F6 JUMP JUMPDEST SWAP3 POP DUP3 PUSH32 0xFFFFFFFFFFFFFFFFFFFFFFFFFFFFFFFFFFFFFFFFFFFFFFFFFFFFFFFFFFFFFFFF SUB DUP3 GT ISZERO PUSH2 0x181F JUMPI PUSH2 0x181E PUSH2 0x1933 JUMP JUMPDEST JUMPDEST DUP3 DUP3 ADD SWAP1 POP SWAP3 SWAP2 POP POP JUMP JUMPDEST PUSH1 0x0 PUSH2 0x1835 DUP3 PUSH2 0x18F6 JUMP JUMPDEST SWAP2 POP PUSH2 0x1840 DUP4 PUSH2 0x18F6 JUMP JUMPDEST SWAP3 POP DUP2 PUSH32 0xFFFFFFFFFFFFFFFFFFFFFFFFFFFFFFFFFFFFFFFFFFFFFFFFFFFFFFFFFFFFFFFF DIV DUP4 GT DUP3 ISZERO ISZERO AND ISZERO PUSH2 0x1879 JUMPI PUSH2 0x1878 PUSH2 0x1933 JUMP JUMPDEST JUMPDEST DUP3 DUP3 MUL SWAP1 POP SWAP3 SWAP2 POP POP JUMP JUMPDEST PUSH1 0x0 PUSH2 0x188F DUP3 PUSH2 0x18F6 JUMP JUMPDEST SWAP2 POP PUSH2 0x189A DUP4 PUSH2 0x18F6 JUMP JUMPDEST SWAP3 POP DUP3 DUP3 LT ISZERO PUSH2 0x18AD JUMPI PUSH2 0x18AC PUSH2 0x1933 JUMP JUMPDEST JUMPDEST DUP3 DUP3 SUB SWAP1 POP SWAP3 SWAP2 POP POP JUMP JUMPDEST PUSH1 0x0 PUSH2 0x18C3 DUP3 PUSH2 0x18D6 JUMP JUMPDEST SWAP1 POP SWAP2 SWAP1 POP JUMP JUMPDEST PUSH1 0x0 DUP2 ISZERO ISZERO SWAP1 POP SWAP2 SWAP1 POP JUMP JUMPDEST PUSH1 0x0 PUSH20 0xFFFFFFFFFFFFFFFFFFFFFFFFFFFFFFFFFFFFFFFF DUP3 AND SWAP1 POP SWAP2 SWAP1 POP JUMP JUMPDEST PUSH1 0x0 DUP2 SWAP1 POP SWAP2 SWAP1 POP JUMP JUMPDEST PUSH1 0x0 JUMPDEST DUP4 DUP2 LT ISZERO PUSH2 0x191E JUMPI DUP1 DUP3 ADD MLOAD DUP2 DUP5 ADD MSTORE PUSH1 0x20 DUP2 ADD SWAP1 POP PUSH2 0x1903 JUMP JUMPDEST DUP4 DUP2 GT ISZERO PUSH2 0x192D JUMPI PUSH1 0x0 DUP5 DUP5 ADD MSTORE JUMPDEST POP POP POP POP JUMP JUMPDEST PUSH32 0x4E487B7100000000000000000000000000000000000000000000000000000000 PUSH1 0x0 MSTORE PUSH1 0x11 PUSH1 0x4 MSTORE PUSH1 0x24 PUSH1 0x0 REVERT JUMPDEST PUSH1 0x0 DUP1 REVERT JUMPDEST PUSH1 0x0 PUSH1 0x1F NOT PUSH1 0x1F DUP4 ADD AND SWAP1 POP SWAP2 SWAP1 POP JUMP JUMPDEST PUSH32 0x596F7520646F6E74206861766520656E6F7567687420746F6B656E20746F2072 PUSH1 0x0 DUP3 ADD MSTORE PUSH32 0x657475726E000000000000000000000000000000000000000000000000000000 PUSH1 0x20 DUP3 ADD MSTORE POP JUMP JUMPDEST PUSH32 0x4F776E61626C653A206E6577206F776E657220697320746865207A65726F2061 PUSH1 0x0 DUP3 ADD MSTORE PUSH32 0x6464726573730000000000000000000000000000000000000000000000000000 PUSH1 0x20 DUP3 ADD MSTORE POP JUMP JUMPDEST PUSH32 0x53616C652068617320656E646564000000000000000000000000000000000000 PUSH1 0x0 DUP3 ADD MSTORE POP JUMP JUMPDEST PUSH32 0x416464726573733A20696E73756666696369656E742062616C616E636520666F PUSH1 0x0 DUP3 ADD MSTORE PUSH32 0x722063616C6C0000000000000000000000000000000000000000000000000000 PUSH1 0x20 DUP3 ADD MSTORE POP JUMP JUMPDEST PUSH32 0x4F776E61626C653A2063616C6C6572206973206E6F7420746865206F776E6572 PUSH1 0x0 DUP3 ADD MSTORE POP JUMP JUMPDEST PUSH32 0x53616C65206861736E2774207374617274656420796574000000000000000000 PUSH1 0x0 DUP3 ADD MSTORE POP JUMP JUMPDEST PUSH32 0x53616C65206861736E277420656E646564000000000000000000000000000000 PUSH1 0x0 DUP3 ADD MSTORE POP JUMP JUMPDEST PUSH32 0x416464726573733A2063616C6C20746F206E6F6E2D636F6E7472616374000000 PUSH1 0x0 DUP3 ADD MSTORE POP JUMP JUMPDEST PUSH32 0x4E6F7420656E6F75676820746F6B656E20746F2072657475726E000000000000 PUSH1 0x0 DUP3 ADD MSTORE POP JUMP JUMPDEST PUSH32 0x5361666545524332303A204552433230206F7065726174696F6E20646964206E PUSH1 0x0 DUP3 ADD MSTORE PUSH32 0x6F74207375636365656400000000000000000000000000000000000000000000 PUSH1 0x20 DUP3 ADD MSTORE POP JUMP JUMPDEST PUSH2 0x1BB3 DUP2 PUSH2 0x18B8 JUMP JUMPDEST DUP2 EQ PUSH2 0x1BBE JUMPI PUSH1 0x0 DUP1 REVERT JUMPDEST POP JUMP JUMPDEST PUSH2 0x1BCA DUP2 PUSH2 0x18CA JUMP JUMPDEST DUP2 EQ PUSH2 0x1BD5 JUMPI PUSH1 0x0 DUP1 REVERT JUMPDEST POP JUMP JUMPDEST PUSH2 0x1BE1 DUP2 PUSH2 0x18F6 JUMP JUMPDEST DUP2 EQ PUSH2 0x1BEC JUMPI PUSH1 0x0 DUP1 REVERT JUMPDEST POP JUMP INVALID LOG2 PUSH5 0x6970667358 0x22 SLT KECCAK256 CALLCODE EXTCODESIZE SWAP5 PUSH27 0x2F0C81A0D795D93A758F20D4CBEBBECFD3A468DEE2F0D5DC4975E0 DUP12 PUSH5 0x736F6C6343 STOP ADDMOD SMOD STOP CALLER "
				},
				"gasEstimates": {
					"creation": {
						"codeDepositCost": "1441000",
						"executionCost": "infinite",
						"totalCost": "infinite"
					},
					"external": {
						"Return(uint256)": "infinite",
						"_usdcInstance()": "2537",
						"bala(address)": "infinite",
						"claim()": "infinite",
						"getOwner()": "2580",
						"getRecord(address)": "2886",
						"owner()": "2567",
						"purchase(uint256)": "infinite",
						"renounceOwnership()": "30463",
						"saleEnd()": "2459",
						"saleStart()": "2526",
						"tokenAddress()": "2589",
						"transferOwnership(address)": "30789",
						"updateSaleEndTime(uint256)": "24827",
						"updateSaleStartTime(uint256)": "24806",
						"withdraw(address,uint256)": "infinite"
					}
				},
				"methodIdentifiers": {
					"Return(uint256)": "336bea1c",
					"_usdcInstance()": "61778592",
					"bala(address)": "24076451",
					"claim()": "4e71d92d",
					"getOwner()": "893d20e8",
					"getRecord(address)": "617fba04",
					"owner()": "8da5cb5b",
					"purchase(uint256)": "efef39a1",
					"renounceOwnership()": "715018a6",
					"saleEnd()": "c10b9358",
					"saleStart()": "ab0bcc41",
					"tokenAddress()": "9d76ea58",
					"transferOwnership(address)": "f2fde38b",
					"updateSaleEndTime(uint256)": "6f9c6149",
					"updateSaleStartTime(uint256)": "295e4edf",
					"withdraw(address,uint256)": "f3fef3a3"
				}
			},
			"storageLayout": {
				"storage": [
					{
						"astId": 7,
						"contract": "contracts/TokenSale.sol:TokenSale",
						"label": "_owner",
						"offset": 0,
						"slot": "0",
						"type": "t_address"
					},
					{
						"astId": 824,
						"contract": "contracts/TokenSale.sol:TokenSale",
						"label": "_tokenAddress",
						"offset": 0,
						"slot": "1",
						"type": "t_address"
					},
					{
						"astId": 826,
						"contract": "contracts/TokenSale.sol:TokenSale",
						"label": "_saleStart",
						"offset": 0,
						"slot": "2",
						"type": "t_uint256"
					},
					{
						"astId": 828,
						"contract": "contracts/TokenSale.sol:TokenSale",
						"label": "_saleEnd",
						"offset": 0,
						"slot": "3",
						"type": "t_uint256"
					},
					{
						"astId": 830,
						"contract": "contracts/TokenSale.sol:TokenSale",
						"label": "_usdcInstance",
						"offset": 0,
						"slot": "4",
						"type": "t_address"
					},
					{
						"astId": 834,
						"contract": "contracts/TokenSale.sol:TokenSale",
						"label": "record",
						"offset": 0,
						"slot": "5",
						"type": "t_mapping(t_address,t_uint256)"
					}
				],
				"types": {
					"t_address": {
						"encoding": "inplace",
						"label": "address",
						"numberOfBytes": "20"
					},
					"t_mapping(t_address,t_uint256)": {
						"encoding": "mapping",
						"key": "t_address",
						"label": "mapping(address => uint256)",
						"numberOfBytes": "32",
						"value": "t_uint256"
					},
					"t_uint256": {
						"encoding": "inplace",
						"label": "uint256",
						"numberOfBytes": "32"
					}
				}
			},
			"userdoc": {
				"kind": "user",
				"methods": {},
				"version": 1
			}
		}
	}
}