{
	"contracts/TokenSale.sol": {
		"TokenSale": {
			"abi": [
				{
					"inputs": [
						{
							"internalType": "address payable",
							"name": "tokenAddress_",
							"type": "address"
						},
						{
							"internalType": "uint256",
							"name": "saleStart_",
							"type": "uint256"
						},
						{
							"internalType": "uint256",
							"name": "saleEnd_",
							"type": "uint256"
						},
						{
							"internalType": "address",
							"name": "usdcAddress_",
							"type": "address"
						}
					],
					"stateMutability": "nonpayable",
					"type": "constructor"
				},
				{
					"anonymous": false,
					"inputs": [
						{
							"indexed": true,
							"internalType": "address",
							"name": "previousOwner",
							"type": "address"
						},
						{
							"indexed": true,
							"internalType": "address",
							"name": "newOwner",
							"type": "address"
						}
					],
					"name": "OwnershipTransferred",
					"type": "event"
				},
				{
					"inputs": [
						{
							"internalType": "address payable",
							"name": "_returnAddress",
							"type": "address"
						}
					],
					"name": "Return",
					"outputs": [
						{
							"internalType": "bool",
							"name": "",
							"type": "bool"
						}
					],
					"stateMutability": "payable",
					"type": "function"
				},
				{
					"inputs": [],
					"name": "_usdcInstance",
					"outputs": [
						{
							"internalType": "address",
							"name": "",
							"type": "address"
						}
					],
					"stateMutability": "view",
					"type": "function"
				},
				{
					"inputs": [
						{
							"internalType": "address",
							"name": "add",
							"type": "address"
						}
					],
					"name": "bala",
					"outputs": [
						{
							"internalType": "uint256",
							"name": "",
							"type": "uint256"
						}
					],
					"stateMutability": "view",
					"type": "function"
				},
				{
					"inputs": [],
					"name": "getOwner",
					"outputs": [
						{
							"internalType": "address",
							"name": "",
							"type": "address"
						}
					],
					"stateMutability": "view",
					"type": "function"
				},
				{
					"inputs": [
						{
							"internalType": "address",
							"name": "_address",
							"type": "address"
						}
					],
					"name": "getRecord",
					"outputs": [
						{
							"internalType": "uint256",
							"name": "",
							"type": "uint256"
						}
					],
					"stateMutability": "view",
					"type": "function"
				},
				{
					"inputs": [],
					"name": "owner",
					"outputs": [
						{
							"internalType": "address",
							"name": "",
							"type": "address"
						}
					],
					"stateMutability": "view",
					"type": "function"
				},
				{
					"inputs": [
						{
							"internalType": "uint256",
							"name": "_amount",
							"type": "uint256"
						}
					],
					"name": "purchase",
					"outputs": [],
					"stateMutability": "nonpayable",
					"type": "function"
				},
				{
					"inputs": [],
					"name": "purchases",
					"outputs": [
						{
							"internalType": "address",
							"name": "",
							"type": "address"
						}
					],
					"stateMutability": "view",
					"type": "function"
				},
				{
					"inputs": [],
					"name": "renounceOwnership",
					"outputs": [],
					"stateMutability": "nonpayable",
					"type": "function"
				},
				{
					"inputs": [],
					"name": "saleEnd",
					"outputs": [
						{
							"internalType": "uint256",
							"name": "",
							"type": "uint256"
						}
					],
					"stateMutability": "view",
					"type": "function"
				},
				{
					"inputs": [],
					"name": "saleStart",
					"outputs": [
						{
							"internalType": "uint256",
							"name": "",
							"type": "uint256"
						}
					],
					"stateMutability": "view",
					"type": "function"
				},
				{
					"inputs": [
						{
							"internalType": "address",
							"name": "newOwner",
							"type": "address"
						}
					],
					"name": "transferOwnership",
					"outputs": [],
					"stateMutability": "nonpayable",
					"type": "function"
				},
				{
					"inputs": [
						{
							"internalType": "uint256",
							"name": "updatedSaleEndTime",
							"type": "uint256"
						}
					],
					"name": "updateSaleEndTime",
					"outputs": [],
					"stateMutability": "nonpayable",
					"type": "function"
				},
				{
					"inputs": [
						{
							"internalType": "uint256",
							"name": "updatedSaleStartTime",
							"type": "uint256"
						}
					],
					"name": "updateSaleStartTime",
					"outputs": [],
					"stateMutability": "nonpayable",
					"type": "function"
				},
				{
					"inputs": [
						{
							"internalType": "address",
							"name": "_to",
							"type": "address"
						}
					],
					"name": "withdraw",
					"outputs": [],
					"stateMutability": "payable",
					"type": "function"
				}
			],
			"devdoc": {
				"kind": "dev",
				"methods": {
					"owner()": {
						"details": "Returns the address of the current owner."
					},
					"renounceOwnership()": {
						"details": "Leaves the contract without owner. It will not be possible to call `onlyOwner` functions anymore. Can only be called by the current owner. NOTE: Renouncing ownership will leave the contract without an owner, thereby removing any functionality that is only available to the owner."
					},
					"transferOwnership(address)": {
						"details": "Transfers ownership of the contract to a new account (`newOwner`). Can only be called by the current owner."
					}
				},
				"version": 1
			},
			"evm": {
				"assembly": "    /* \"contracts/TokenSale.sol\":241:3742  contract TokenSale is Ownable{\r... */\n  mstore(0x40, 0x80)\n    /* \"contracts/TokenSale.sol\":591:871  constructor(address payable tokenAddress_,uint256 saleStart_,uint256 saleEnd_,address usdcAddress_){\r... */\n  callvalue\n  dup1\n  iszero\n  tag_1\n  jumpi\n  0x00\n  dup1\n  revert\ntag_1:\n  pop\n  mload(0x40)\n  sub(codesize, bytecodeSize)\n  dup1\n  bytecodeSize\n  dup4\n  codecopy\n  dup2\n  dup2\n  add\n  0x40\n  mstore\n  dup2\n  add\n  swap1\n  tag_2\n  swap2\n  swap1\n  tag_3\n  jump\t// in\ntag_2:\n    /* \"@openzeppelin/contracts/access/Ownable.sol\":921:953  _transferOwnership(_msgSender()) */\n  tag_7\n    /* \"@openzeppelin/contracts/access/Ownable.sol\":940:952  _msgSender() */\n  tag_8\n    /* \"@openzeppelin/contracts/access/Ownable.sol\":940:950  _msgSender */\n  shl(0x20, tag_9)\n    /* \"@openzeppelin/contracts/access/Ownable.sol\":940:952  _msgSender() */\n  0x20\n  shr\n  jump\t// in\ntag_8:\n    /* \"@openzeppelin/contracts/access/Ownable.sol\":921:939  _transferOwnership */\n  shl(0x20, tag_10)\n    /* \"@openzeppelin/contracts/access/Ownable.sol\":921:953  _transferOwnership(_msgSender()) */\n  0x20\n  shr\n  jump\t// in\ntag_7:\n    /* \"contracts/TokenSale.sol\":697:730  _transferOwnership(tokenAddress_) */\n  tag_12\n    /* \"contracts/TokenSale.sol\":716:729  tokenAddress_ */\n  dup5\n    /* \"contracts/TokenSale.sol\":697:715  _transferOwnership */\n  shl(0x20, tag_10)\n    /* \"contracts/TokenSale.sol\":697:730  _transferOwnership(tokenAddress_) */\n  0x20\n  shr\n  jump\t// in\ntag_12:\n    /* \"contracts/TokenSale.sol\":753:765  usdcAddress_ */\n  dup1\n    /* \"contracts/TokenSale.sol\":737:750  _usdcInstance */\n  0x04\n  0x00\n    /* \"contracts/TokenSale.sol\":737:765  _usdcInstance = usdcAddress_ */\n  0x0100\n  exp\n  dup2\n  sload\n  dup2\n  0xffffffffffffffffffffffffffffffffffffffff\n  mul\n  not\n  and\n  swap1\n  dup4\n  0xffffffffffffffffffffffffffffffffffffffff\n  and\n  mul\n  or\n  swap1\n  sstore\n  pop\n    /* \"contracts/TokenSale.sol\":795:808  tokenAddress_ */\n  dup4\n    /* \"contracts/TokenSale.sol\":772:785  _tokenAddress */\n  0x01\n  0x00\n    /* \"contracts/TokenSale.sol\":772:809  _tokenAddress = IERC20(tokenAddress_) */\n  0x0100\n  exp\n  dup2\n  sload\n  dup2\n  0xffffffffffffffffffffffffffffffffffffffff\n  mul\n  not\n  and\n  swap1\n  dup4\n  0xffffffffffffffffffffffffffffffffffffffff\n  and\n  mul\n  or\n  swap1\n  sstore\n  pop\n    /* \"contracts/TokenSale.sol\":829:839  saleStart_ */\n  dup3\n    /* \"contracts/TokenSale.sol\":816:826  _saleStart */\n  0x02\n    /* \"contracts/TokenSale.sol\":816:839  _saleStart = saleStart_ */\n  dup2\n  swap1\n  sstore\n  pop\n    /* \"contracts/TokenSale.sol\":857:865  saleEnd_ */\n  dup2\n    /* \"contracts/TokenSale.sol\":846:854  _saleEnd */\n  0x03\n    /* \"contracts/TokenSale.sol\":846:865  _saleEnd = saleEnd_ */\n  dup2\n  swap1\n  sstore\n  pop\n    /* \"contracts/TokenSale.sol\":591:871  constructor(address payable tokenAddress_,uint256 saleStart_,uint256 saleEnd_,address usdcAddress_){\r... */\n  pop\n  pop\n  pop\n  pop\n    /* \"contracts/TokenSale.sol\":241:3742  contract TokenSale is Ownable{\r... */\n  jump(tag_13)\n    /* \"@openzeppelin/contracts/utils/Context.sol\":640:736  function _msgSender() internal view virtual returns (address) {... */\ntag_9:\n    /* \"@openzeppelin/contracts/utils/Context.sol\":693:700  address */\n  0x00\n    /* \"@openzeppelin/contracts/utils/Context.sol\":719:729  msg.sender */\n  caller\n    /* \"@openzeppelin/contracts/utils/Context.sol\":712:729  return msg.sender */\n  swap1\n  pop\n    /* \"@openzeppelin/contracts/utils/Context.sol\":640:736  function _msgSender() internal view virtual returns (address) {... */\n  swap1\n  jump\t// out\n    /* \"@openzeppelin/contracts/access/Ownable.sol\":2270:2457  function _transferOwnership(address newOwner) internal virtual {... */\ntag_10:\n    /* \"@openzeppelin/contracts/access/Ownable.sol\":2343:2359  address oldOwner */\n  0x00\n    /* \"@openzeppelin/contracts/access/Ownable.sol\":2362:2368  _owner */\n  dup1\n  0x00\n  swap1\n  sload\n  swap1\n  0x0100\n  exp\n  swap1\n  div\n  0xffffffffffffffffffffffffffffffffffffffff\n  and\n    /* \"@openzeppelin/contracts/access/Ownable.sol\":2343:2368  address oldOwner = _owner */\n  swap1\n  pop\n    /* \"@openzeppelin/contracts/access/Ownable.sol\":2387:2395  newOwner */\n  dup2\n    /* \"@openzeppelin/contracts/access/Ownable.sol\":2378:2384  _owner */\n  0x00\n  dup1\n    /* \"@openzeppelin/contracts/access/Ownable.sol\":2378:2395  _owner = newOwner */\n  0x0100\n  exp\n  dup2\n  sload\n  dup2\n  0xffffffffffffffffffffffffffffffffffffffff\n  mul\n  not\n  and\n  swap1\n  dup4\n  0xffffffffffffffffffffffffffffffffffffffff\n  and\n  mul\n  or\n  swap1\n  sstore\n  pop\n    /* \"@openzeppelin/contracts/access/Ownable.sol\":2441:2449  newOwner */\n  dup2\n    /* \"@openzeppelin/contracts/access/Ownable.sol\":2410:2450  OwnershipTransferred(oldOwner, newOwner) */\n  0xffffffffffffffffffffffffffffffffffffffff\n  and\n    /* \"@openzeppelin/contracts/access/Ownable.sol\":2431:2439  oldOwner */\n  dup2\n    /* \"@openzeppelin/contracts/access/Ownable.sol\":2410:2450  OwnershipTransferred(oldOwner, newOwner) */\n  0xffffffffffffffffffffffffffffffffffffffff\n  and\n  0x8be0079c531659141344cd1fd0a4f28419497f9722a3daafe3b4186f6b6457e0\n  mload(0x40)\n  mload(0x40)\n  dup1\n  swap2\n  sub\n  swap1\n  log3\n    /* \"@openzeppelin/contracts/access/Ownable.sol\":2333:2457  {... */\n  pop\n    /* \"@openzeppelin/contracts/access/Ownable.sol\":2270:2457  function _transferOwnership(address newOwner) internal virtual {... */\n  pop\n  jump\t// out\n    /* \"#utility.yul\":7:150   */\ntag_17:\n    /* \"#utility.yul\":64:69   */\n  0x00\n    /* \"#utility.yul\":95:101   */\n  dup2\n    /* \"#utility.yul\":89:102   */\n  mload\n    /* \"#utility.yul\":80:102   */\n  swap1\n  pop\n    /* \"#utility.yul\":111:144   */\n  tag_19\n    /* \"#utility.yul\":138:143   */\n  dup2\n    /* \"#utility.yul\":111:144   */\n  tag_20\n  jump\t// in\ntag_19:\n    /* \"#utility.yul\":7:150   */\n  swap3\n  swap2\n  pop\n  pop\n  jump\t// out\n    /* \"#utility.yul\":156:315   */\ntag_21:\n    /* \"#utility.yul\":221:226   */\n  0x00\n    /* \"#utility.yul\":252:258   */\n  dup2\n    /* \"#utility.yul\":246:259   */\n  mload\n    /* \"#utility.yul\":237:259   */\n  swap1\n  pop\n    /* \"#utility.yul\":268:309   */\n  tag_23\n    /* \"#utility.yul\":303:308   */\n  dup2\n    /* \"#utility.yul\":268:309   */\n  tag_24\n  jump\t// in\ntag_23:\n    /* \"#utility.yul\":156:315   */\n  swap3\n  swap2\n  pop\n  pop\n  jump\t// out\n    /* \"#utility.yul\":321:464   */\ntag_25:\n    /* \"#utility.yul\":378:383   */\n  0x00\n    /* \"#utility.yul\":409:415   */\n  dup2\n    /* \"#utility.yul\":403:416   */\n  mload\n    /* \"#utility.yul\":394:416   */\n  swap1\n  pop\n    /* \"#utility.yul\":425:458   */\n  tag_27\n    /* \"#utility.yul\":452:457   */\n  dup2\n    /* \"#utility.yul\":425:458   */\n  tag_28\n  jump\t// in\ntag_27:\n    /* \"#utility.yul\":321:464   */\n  swap3\n  swap2\n  pop\n  pop\n  jump\t// out\n    /* \"#utility.yul\":470:1306   */\ntag_3:\n    /* \"#utility.yul\":575:581   */\n  0x00\n    /* \"#utility.yul\":583:589   */\n  dup1\n    /* \"#utility.yul\":591:597   */\n  0x00\n    /* \"#utility.yul\":599:605   */\n  dup1\n    /* \"#utility.yul\":648:651   */\n  0x80\n    /* \"#utility.yul\":636:645   */\n  dup6\n    /* \"#utility.yul\":627:634   */\n  dup8\n    /* \"#utility.yul\":623:646   */\n  sub\n    /* \"#utility.yul\":619:652   */\n  slt\n    /* \"#utility.yul\":616:736   */\n  iszero\n  tag_30\n  jumpi\n    /* \"#utility.yul\":655:734   */\n  tag_31\n  tag_32\n  jump\t// in\ntag_31:\n    /* \"#utility.yul\":616:736   */\ntag_30:\n    /* \"#utility.yul\":775:776   */\n  0x00\n    /* \"#utility.yul\":800:872   */\n  tag_33\n    /* \"#utility.yul\":864:871   */\n  dup8\n    /* \"#utility.yul\":855:861   */\n  dup3\n    /* \"#utility.yul\":844:853   */\n  dup9\n    /* \"#utility.yul\":840:862   */\n  add\n    /* \"#utility.yul\":800:872   */\n  tag_21\n  jump\t// in\ntag_33:\n    /* \"#utility.yul\":790:872   */\n  swap5\n  pop\n    /* \"#utility.yul\":746:882   */\n  pop\n    /* \"#utility.yul\":921:923   */\n  0x20\n    /* \"#utility.yul\":947:1011   */\n  tag_34\n    /* \"#utility.yul\":1003:1010   */\n  dup8\n    /* \"#utility.yul\":994:1000   */\n  dup3\n    /* \"#utility.yul\":983:992   */\n  dup9\n    /* \"#utility.yul\":979:1001   */\n  add\n    /* \"#utility.yul\":947:1011   */\n  tag_25\n  jump\t// in\ntag_34:\n    /* \"#utility.yul\":937:1011   */\n  swap4\n  pop\n    /* \"#utility.yul\":892:1021   */\n  pop\n    /* \"#utility.yul\":1060:1062   */\n  0x40\n    /* \"#utility.yul\":1086:1150   */\n  tag_35\n    /* \"#utility.yul\":1142:1149   */\n  dup8\n    /* \"#utility.yul\":1133:1139   */\n  dup3\n    /* \"#utility.yul\":1122:1131   */\n  dup9\n    /* \"#utility.yul\":1118:1140   */\n  add\n    /* \"#utility.yul\":1086:1150   */\n  tag_25\n  jump\t// in\ntag_35:\n    /* \"#utility.yul\":1076:1150   */\n  swap3\n  pop\n    /* \"#utility.yul\":1031:1160   */\n  pop\n    /* \"#utility.yul\":1199:1201   */\n  0x60\n    /* \"#utility.yul\":1225:1289   */\n  tag_36\n    /* \"#utility.yul\":1281:1288   */\n  dup8\n    /* \"#utility.yul\":1272:1278   */\n  dup3\n    /* \"#utility.yul\":1261:1270   */\n  dup9\n    /* \"#utility.yul\":1257:1279   */\n  add\n    /* \"#utility.yul\":1225:1289   */\n  tag_17\n  jump\t// in\ntag_36:\n    /* \"#utility.yul\":1215:1289   */\n  swap2\n  pop\n    /* \"#utility.yul\":1170:1299   */\n  pop\n    /* \"#utility.yul\":470:1306   */\n  swap3\n  swap6\n  swap2\n  swap5\n  pop\n  swap3\n  pop\n  jump\t// out\n    /* \"#utility.yul\":1393:1489   */\ntag_39:\n    /* \"#utility.yul\":1430:1437   */\n  0x00\n    /* \"#utility.yul\":1459:1483   */\n  tag_41\n    /* \"#utility.yul\":1477:1482   */\n  dup3\n    /* \"#utility.yul\":1459:1483   */\n  tag_42\n  jump\t// in\ntag_41:\n    /* \"#utility.yul\":1448:1483   */\n  swap1\n  pop\n    /* \"#utility.yul\":1393:1489   */\n  swap2\n  swap1\n  pop\n  jump\t// out\n    /* \"#utility.yul\":1495:1599   */\ntag_43:\n    /* \"#utility.yul\":1540:1547   */\n  0x00\n    /* \"#utility.yul\":1569:1593   */\n  tag_45\n    /* \"#utility.yul\":1587:1592   */\n  dup3\n    /* \"#utility.yul\":1569:1593   */\n  tag_42\n  jump\t// in\ntag_45:\n    /* \"#utility.yul\":1558:1593   */\n  swap1\n  pop\n    /* \"#utility.yul\":1495:1599   */\n  swap2\n  swap1\n  pop\n  jump\t// out\n    /* \"#utility.yul\":1605:1731   */\ntag_42:\n    /* \"#utility.yul\":1642:1649   */\n  0x00\n    /* \"#utility.yul\":1682:1724   */\n  0xffffffffffffffffffffffffffffffffffffffff\n    /* \"#utility.yul\":1675:1680   */\n  dup3\n    /* \"#utility.yul\":1671:1725   */\n  and\n    /* \"#utility.yul\":1660:1725   */\n  swap1\n  pop\n    /* \"#utility.yul\":1605:1731   */\n  swap2\n  swap1\n  pop\n  jump\t// out\n    /* \"#utility.yul\":1737:1814   */\ntag_47:\n    /* \"#utility.yul\":1774:1781   */\n  0x00\n    /* \"#utility.yul\":1803:1808   */\n  dup2\n    /* \"#utility.yul\":1792:1808   */\n  swap1\n  pop\n    /* \"#utility.yul\":1737:1814   */\n  swap2\n  swap1\n  pop\n  jump\t// out\n    /* \"#utility.yul\":1943:2060   */\ntag_32:\n    /* \"#utility.yul\":2052:2053   */\n  0x00\n    /* \"#utility.yul\":2049:2050   */\n  dup1\n    /* \"#utility.yul\":2042:2054   */\n  revert\n    /* \"#utility.yul\":2066:2188   */\ntag_20:\n    /* \"#utility.yul\":2139:2163   */\n  tag_53\n    /* \"#utility.yul\":2157:2162   */\n  dup2\n    /* \"#utility.yul\":2139:2163   */\n  tag_39\n  jump\t// in\ntag_53:\n    /* \"#utility.yul\":2132:2137   */\n  dup2\n    /* \"#utility.yul\":2129:2164   */\n  eq\n    /* \"#utility.yul\":2119:2182   */\n  tag_54\n  jumpi\n    /* \"#utility.yul\":2178:2179   */\n  0x00\n    /* \"#utility.yul\":2175:2176   */\n  dup1\n    /* \"#utility.yul\":2168:2180   */\n  revert\n    /* \"#utility.yul\":2119:2182   */\ntag_54:\n    /* \"#utility.yul\":2066:2188   */\n  pop\n  jump\t// out\n    /* \"#utility.yul\":2194:2332   */\ntag_24:\n    /* \"#utility.yul\":2275:2307   */\n  tag_56\n    /* \"#utility.yul\":2301:2306   */\n  dup2\n    /* \"#utility.yul\":2275:2307   */\n  tag_43\n  jump\t// in\ntag_56:\n    /* \"#utility.yul\":2268:2273   */\n  dup2\n    /* \"#utility.yul\":2265:2308   */\n  eq\n    /* \"#utility.yul\":2255:2326   */\n  tag_57\n  jumpi\n    /* \"#utility.yul\":2322:2323   */\n  0x00\n    /* \"#utility.yul\":2319:2320   */\n  dup1\n    /* \"#utility.yul\":2312:2324   */\n  revert\n    /* \"#utility.yul\":2255:2326   */\ntag_57:\n    /* \"#utility.yul\":2194:2332   */\n  pop\n  jump\t// out\n    /* \"#utility.yul\":2338:2460   */\ntag_28:\n    /* \"#utility.yul\":2411:2435   */\n  tag_59\n    /* \"#utility.yul\":2429:2434   */\n  dup2\n    /* \"#utility.yul\":2411:2435   */\n  tag_47\n  jump\t// in\ntag_59:\n    /* \"#utility.yul\":2404:2409   */\n  dup2\n    /* \"#utility.yul\":2401:2436   */\n  eq\n    /* \"#utility.yul\":2391:2454   */\n  tag_60\n  jumpi\n    /* \"#utility.yul\":2450:2451   */\n  0x00\n    /* \"#utility.yul\":2447:2448   */\n  dup1\n    /* \"#utility.yul\":2440:2452   */\n  revert\n    /* \"#utility.yul\":2391:2454   */\ntag_60:\n    /* \"#utility.yul\":2338:2460   */\n  pop\n  jump\t// out\n    /* \"contracts/TokenSale.sol\":241:3742  contract TokenSale is Ownable{\r... */\ntag_13:\n  dataSize(sub_0)\n  dup1\n  dataOffset(sub_0)\n  0x00\n  codecopy\n  0x00\n  return\nstop\n\nsub_0: assembly {\n        /* \"contracts/TokenSale.sol\":241:3742  contract TokenSale is Ownable{\r... */\n      mstore(0x40, 0x80)\n      jumpi(tag_1, lt(calldatasize, 0x04))\n      shr(0xe0, calldataload(0x00))\n      dup1\n      0x893d20e8\n      gt\n      tag_17\n      jumpi\n      dup1\n      0xde2d583a\n      gt\n      tag_18\n      jumpi\n      dup1\n      0xde2d583a\n      eq\n      tag_13\n      jumpi\n      dup1\n      0xee3def0e\n      eq\n      tag_14\n      jumpi\n      dup1\n      0xefef39a1\n      eq\n      tag_15\n      jumpi\n      dup1\n      0xf2fde38b\n      eq\n      tag_16\n      jumpi\n      jump(tag_1)\n    tag_18:\n      dup1\n      0x893d20e8\n      eq\n      tag_9\n      jumpi\n      dup1\n      0x8da5cb5b\n      eq\n      tag_10\n      jumpi\n      dup1\n      0xab0bcc41\n      eq\n      tag_11\n      jumpi\n      dup1\n      0xc10b9358\n      eq\n      tag_12\n      jumpi\n      jump(tag_1)\n    tag_17:\n      dup1\n      0x61778592\n      gt\n      tag_19\n      jumpi\n      dup1\n      0x61778592\n      eq\n      tag_5\n      jumpi\n      dup1\n      0x617fba04\n      eq\n      tag_6\n      jumpi\n      dup1\n      0x6f9c6149\n      eq\n      tag_7\n      jumpi\n      dup1\n      0x715018a6\n      eq\n      tag_8\n      jumpi\n      jump(tag_1)\n    tag_19:\n      dup1\n      0x24076451\n      eq\n      tag_2\n      jumpi\n      dup1\n      0x295e4edf\n      eq\n      tag_3\n      jumpi\n      dup1\n      0x51cff8d9\n      eq\n      tag_4\n      jumpi\n    tag_1:\n      0x00\n      dup1\n      revert\n        /* \"contracts/TokenSale.sol\":1057:1177  function bala(address add) public view virtual returns (uint256){\r... */\n    tag_2:\n      callvalue\n      dup1\n      iszero\n      tag_20\n      jumpi\n      0x00\n      dup1\n      revert\n    tag_20:\n      pop\n      tag_21\n      0x04\n      dup1\n      calldatasize\n      sub\n      dup2\n      add\n      swap1\n      tag_22\n      swap2\n      swap1\n      tag_23\n      jump\t// in\n    tag_22:\n      tag_24\n      jump\t// in\n    tag_21:\n      mload(0x40)\n      tag_25\n      swap2\n      swap1\n      tag_26\n      jump\t// in\n    tag_25:\n      mload(0x40)\n      dup1\n      swap2\n      sub\n      swap1\n      return\n        /* \"contracts/TokenSale.sol\":3495:3618  function updateSaleStartTime(uint256 updatedSaleStartTime) public onlyOwner{\r... */\n    tag_3:\n      callvalue\n      dup1\n      iszero\n      tag_27\n      jumpi\n      0x00\n      dup1\n      revert\n    tag_27:\n      pop\n      tag_28\n      0x04\n      dup1\n      calldatasize\n      sub\n      dup2\n      add\n      swap1\n      tag_29\n      swap2\n      swap1\n      tag_30\n      jump\t// in\n    tag_29:\n      tag_31\n      jump\t// in\n    tag_28:\n      stop\n        /* \"contracts/TokenSale.sol\":2609:2920  function withdraw(address _to) public virtual payable onlyOwner{\r... */\n    tag_4:\n      tag_32\n      0x04\n      dup1\n      calldatasize\n      sub\n      dup2\n      add\n      swap1\n      tag_33\n      swap2\n      swap1\n      tag_23\n      jump\t// in\n    tag_33:\n      tag_34\n      jump\t// in\n    tag_32:\n      stop\n        /* \"contracts/TokenSale.sol\":399:427  address public _usdcInstance */\n    tag_5:\n      callvalue\n      dup1\n      iszero\n      tag_35\n      jumpi\n      0x00\n      dup1\n      revert\n    tag_35:\n      pop\n      tag_36\n      tag_37\n      jump\t// in\n    tag_36:\n      mload(0x40)\n      tag_38\n      swap2\n      swap1\n      tag_39\n      jump\t// in\n    tag_38:\n      mload(0x40)\n      dup1\n      swap2\n      sub\n      swap1\n      return\n        /* \"contracts/TokenSale.sol\":1276:1393  function getRecord(address _address) public virtual view returns(uint256){\r... */\n    tag_6:\n      callvalue\n      dup1\n      iszero\n      tag_40\n      jumpi\n      0x00\n      dup1\n      revert\n    tag_40:\n      pop\n      tag_41\n      0x04\n      dup1\n      calldatasize\n      sub\n      dup2\n      add\n      swap1\n      tag_42\n      swap2\n      swap1\n      tag_23\n      jump\t// in\n    tag_42:\n      tag_43\n      jump\t// in\n    tag_41:\n      mload(0x40)\n      tag_44\n      swap2\n      swap1\n      tag_26\n      jump\t// in\n    tag_44:\n      mload(0x40)\n      dup1\n      swap2\n      sub\n      swap1\n      return\n        /* \"contracts/TokenSale.sol\":3622:3737  function updateSaleEndTime(uint256 updatedSaleEndTime) public onlyOwner{\r... */\n    tag_7:\n      callvalue\n      dup1\n      iszero\n      tag_45\n      jumpi\n      0x00\n      dup1\n      revert\n    tag_45:\n      pop\n      tag_46\n      0x04\n      dup1\n      calldatasize\n      sub\n      dup2\n      add\n      swap1\n      tag_47\n      swap2\n      swap1\n      tag_30\n      jump\t// in\n    tag_47:\n      tag_48\n      jump\t// in\n    tag_46:\n      stop\n        /* \"@openzeppelin/contracts/access/Ownable.sol\":1668:1769  function renounceOwnership() public virtual onlyOwner {... */\n    tag_8:\n      callvalue\n      dup1\n      iszero\n      tag_49\n      jumpi\n      0x00\n      dup1\n      revert\n    tag_49:\n      pop\n      tag_50\n      tag_51\n      jump\t// in\n    tag_50:\n      stop\n        /* \"contracts/TokenSale.sol\":976:1053  function getOwner() public view returns(address){\r... */\n    tag_9:\n      callvalue\n      dup1\n      iszero\n      tag_52\n      jumpi\n      0x00\n      dup1\n      revert\n    tag_52:\n      pop\n      tag_53\n      tag_54\n      jump\t// in\n    tag_53:\n      mload(0x40)\n      tag_55\n      swap2\n      swap1\n      tag_39\n      jump\t// in\n    tag_55:\n      mload(0x40)\n      dup1\n      swap2\n      sub\n      swap1\n      return\n        /* \"@openzeppelin/contracts/access/Ownable.sol\":1036:1121  function owner() public view virtual returns (address) {... */\n    tag_10:\n      callvalue\n      dup1\n      iszero\n      tag_56\n      jumpi\n      0x00\n      dup1\n      revert\n    tag_56:\n      pop\n      tag_57\n      tag_58\n      jump\t// in\n    tag_57:\n      mload(0x40)\n      tag_59\n      swap2\n      swap1\n      tag_39\n      jump\t// in\n    tag_59:\n      mload(0x40)\n      dup1\n      swap2\n      sub\n      swap1\n      return\n        /* \"contracts/TokenSale.sol\":879:970  function saleStart() public view virtual returns (uint256) {\r... */\n    tag_11:\n      callvalue\n      dup1\n      iszero\n      tag_60\n      jumpi\n      0x00\n      dup1\n      revert\n    tag_60:\n      pop\n      tag_61\n      tag_62\n      jump\t// in\n    tag_61:\n      mload(0x40)\n      tag_63\n      swap2\n      swap1\n      tag_26\n      jump\t// in\n    tag_63:\n      mload(0x40)\n      dup1\n      swap2\n      sub\n      swap1\n      return\n        /* \"contracts/TokenSale.sol\":1183:1270  function saleEnd() public view virtual returns (uint256) {\r... */\n    tag_12:\n      callvalue\n      dup1\n      iszero\n      tag_64\n      jumpi\n      0x00\n      dup1\n      revert\n    tag_64:\n      pop\n      tag_65\n      tag_66\n      jump\t// in\n    tag_65:\n      mload(0x40)\n      tag_67\n      swap2\n      swap1\n      tag_26\n      jump\t// in\n    tag_67:\n      mload(0x40)\n      dup1\n      swap2\n      sub\n      swap1\n      return\n        /* \"contracts/TokenSale.sol\":3151:3489  function Return(address payable _returnAddress) public payable onlyOwner returns(bool){\r... */\n    tag_13:\n      tag_68\n      0x04\n      dup1\n      calldatasize\n      sub\n      dup2\n      add\n      swap1\n      tag_69\n      swap2\n      swap1\n      tag_70\n      jump\t// in\n    tag_69:\n      tag_71\n      jump\t// in\n    tag_68:\n      mload(0x40)\n      tag_72\n      swap2\n      swap1\n      tag_73\n      jump\t// in\n    tag_72:\n      mload(0x40)\n      dup1\n      swap2\n      sub\n      swap1\n      return\n        /* \"contracts/TokenSale.sol\":2390:2603  function purchases() public view returns(address) {\r... */\n    tag_14:\n      callvalue\n      dup1\n      iszero\n      tag_74\n      jumpi\n      0x00\n      dup1\n      revert\n    tag_74:\n      pop\n      tag_75\n      tag_76\n      jump\t// in\n    tag_75:\n      mload(0x40)\n      tag_77\n      swap2\n      swap1\n      tag_39\n      jump\t// in\n    tag_77:\n      mload(0x40)\n      dup1\n      swap2\n      sub\n      swap1\n      return\n        /* \"contracts/TokenSale.sol\":1399:2384  function purchase(uint256 _amount) public{\r... */\n    tag_15:\n      callvalue\n      dup1\n      iszero\n      tag_78\n      jumpi\n      0x00\n      dup1\n      revert\n    tag_78:\n      pop\n      tag_79\n      0x04\n      dup1\n      calldatasize\n      sub\n      dup2\n      add\n      swap1\n      tag_80\n      swap2\n      swap1\n      tag_30\n      jump\t// in\n    tag_80:\n      tag_81\n      jump\t// in\n    tag_79:\n      stop\n        /* \"@openzeppelin/contracts/access/Ownable.sol\":1918:2116  function transferOwnership(address newOwner) public virtual onlyOwner {... */\n    tag_16:\n      callvalue\n      dup1\n      iszero\n      tag_82\n      jumpi\n      0x00\n      dup1\n      revert\n    tag_82:\n      pop\n      tag_83\n      0x04\n      dup1\n      calldatasize\n      sub\n      dup2\n      add\n      swap1\n      tag_84\n      swap2\n      swap1\n      tag_23\n      jump\t// in\n    tag_84:\n      tag_85\n      jump\t// in\n    tag_83:\n      stop\n        /* \"contracts/TokenSale.sol\":1057:1177  function bala(address add) public view virtual returns (uint256){\r... */\n    tag_24:\n        /* \"contracts/TokenSale.sol\":1113:1120  uint256 */\n      0x00\n        /* \"contracts/TokenSale.sol\":1142:1155  _usdcInstance */\n      0x04\n      0x00\n      swap1\n      sload\n      swap1\n      0x0100\n      exp\n      swap1\n      div\n      0xffffffffffffffffffffffffffffffffffffffff\n      and\n        /* \"contracts/TokenSale.sol\":1135:1166  IERC20(_usdcInstance).balanceOf */\n      0xffffffffffffffffffffffffffffffffffffffff\n      and\n      0x70a08231\n        /* \"contracts/TokenSale.sol\":1167:1170  add */\n      dup4\n        /* \"contracts/TokenSale.sol\":1135:1171  IERC20(_usdcInstance).balanceOf(add) */\n      mload(0x40)\n      dup3\n      0xffffffff\n      and\n      0xe0\n      shl\n      dup2\n      mstore\n      0x04\n      add\n      tag_87\n      swap2\n      swap1\n      tag_39\n      jump\t// in\n    tag_87:\n      0x20\n      mload(0x40)\n      dup1\n      dup4\n      sub\n      dup2\n      dup7\n      dup1\n      extcodesize\n      iszero\n      dup1\n      iszero\n      tag_88\n      jumpi\n      0x00\n      dup1\n      revert\n    tag_88:\n      pop\n      gas\n      staticcall\n      iszero\n      dup1\n      iszero\n      tag_90\n      jumpi\n      returndatasize\n      0x00\n      dup1\n      returndatacopy\n      revert(0x00, returndatasize)\n    tag_90:\n      pop\n      pop\n      pop\n      pop\n      mload(0x40)\n      returndatasize\n      not(0x1f)\n      0x1f\n      dup3\n      add\n      and\n      dup3\n      add\n      dup1\n      0x40\n      mstore\n      pop\n      dup2\n      add\n      swap1\n      tag_91\n      swap2\n      swap1\n      tag_92\n      jump\t// in\n    tag_91:\n        /* \"contracts/TokenSale.sol\":1128:1171  return IERC20(_usdcInstance).balanceOf(add) */\n      swap1\n      pop\n        /* \"contracts/TokenSale.sol\":1057:1177  function bala(address add) public view virtual returns (uint256){\r... */\n      swap2\n      swap1\n      pop\n      jump\t// out\n        /* \"contracts/TokenSale.sol\":3495:3618  function updateSaleStartTime(uint256 updatedSaleStartTime) public onlyOwner{\r... */\n    tag_31:\n        /* \"@openzeppelin/contracts/access/Ownable.sol\":1259:1271  _msgSender() */\n      tag_94\n        /* \"@openzeppelin/contracts/access/Ownable.sol\":1259:1269  _msgSender */\n      tag_95\n        /* \"@openzeppelin/contracts/access/Ownable.sol\":1259:1271  _msgSender() */\n      jump\t// in\n    tag_94:\n        /* \"@openzeppelin/contracts/access/Ownable.sol\":1248:1271  owner() == _msgSender() */\n      0xffffffffffffffffffffffffffffffffffffffff\n      and\n        /* \"@openzeppelin/contracts/access/Ownable.sol\":1248:1255  owner() */\n      tag_96\n        /* \"@openzeppelin/contracts/access/Ownable.sol\":1248:1253  owner */\n      tag_58\n        /* \"@openzeppelin/contracts/access/Ownable.sol\":1248:1255  owner() */\n      jump\t// in\n    tag_96:\n        /* \"@openzeppelin/contracts/access/Ownable.sol\":1248:1271  owner() == _msgSender() */\n      0xffffffffffffffffffffffffffffffffffffffff\n      and\n      eq\n        /* \"@openzeppelin/contracts/access/Ownable.sol\":1240:1308  require(owner() == _msgSender(), \"Ownable: caller is not the owner\") */\n      tag_97\n      jumpi\n      mload(0x40)\n      0x08c379a000000000000000000000000000000000000000000000000000000000\n      dup2\n      mstore\n      0x04\n      add\n      tag_98\n      swap1\n      tag_99\n      jump\t// in\n    tag_98:\n      mload(0x40)\n      dup1\n      swap2\n      sub\n      swap1\n      revert\n    tag_97:\n        /* \"contracts/TokenSale.sol\":3592:3612  updatedSaleStartTime */\n      dup1\n        /* \"contracts/TokenSale.sol\":3579:3589  _saleStart */\n      0x02\n        /* \"contracts/TokenSale.sol\":3579:3612  _saleStart = updatedSaleStartTime */\n      dup2\n      swap1\n      sstore\n      pop\n        /* \"contracts/TokenSale.sol\":3495:3618  function updateSaleStartTime(uint256 updatedSaleStartTime) public onlyOwner{\r... */\n      pop\n      jump\t// out\n        /* \"contracts/TokenSale.sol\":2609:2920  function withdraw(address _to) public virtual payable onlyOwner{\r... */\n    tag_34:\n        /* \"@openzeppelin/contracts/access/Ownable.sol\":1259:1271  _msgSender() */\n      tag_102\n        /* \"@openzeppelin/contracts/access/Ownable.sol\":1259:1269  _msgSender */\n      tag_95\n        /* \"@openzeppelin/contracts/access/Ownable.sol\":1259:1271  _msgSender() */\n      jump\t// in\n    tag_102:\n        /* \"@openzeppelin/contracts/access/Ownable.sol\":1248:1271  owner() == _msgSender() */\n      0xffffffffffffffffffffffffffffffffffffffff\n      and\n        /* \"@openzeppelin/contracts/access/Ownable.sol\":1248:1255  owner() */\n      tag_103\n        /* \"@openzeppelin/contracts/access/Ownable.sol\":1248:1253  owner */\n      tag_58\n        /* \"@openzeppelin/contracts/access/Ownable.sol\":1248:1255  owner() */\n      jump\t// in\n    tag_103:\n        /* \"@openzeppelin/contracts/access/Ownable.sol\":1248:1271  owner() == _msgSender() */\n      0xffffffffffffffffffffffffffffffffffffffff\n      and\n      eq\n        /* \"@openzeppelin/contracts/access/Ownable.sol\":1240:1308  require(owner() == _msgSender(), \"Ownable: caller is not the owner\") */\n      tag_104\n      jumpi\n      mload(0x40)\n      0x08c379a000000000000000000000000000000000000000000000000000000000\n      dup2\n      mstore\n      0x04\n      add\n      tag_105\n      swap1\n      tag_99\n      jump\t// in\n    tag_105:\n      mload(0x40)\n      dup1\n      swap2\n      sub\n      swap1\n      revert\n    tag_104:\n        /* \"contracts/TokenSale.sol\":2705:2713  _saleEnd */\n      sload(0x03)\n        /* \"contracts/TokenSale.sol\":2689:2704  block.timestamp */\n      timestamp\n        /* \"contracts/TokenSale.sol\":2689:2713  block.timestamp>_saleEnd */\n      gt\n        /* \"contracts/TokenSale.sol\":2681:2734  require(block.timestamp>_saleEnd,\"Sale hasn't ended\") */\n      tag_107\n      jumpi\n      mload(0x40)\n      0x08c379a000000000000000000000000000000000000000000000000000000000\n      dup2\n      mstore\n      0x04\n      add\n      tag_108\n      swap1\n      tag_109\n      jump\t// in\n    tag_108:\n      mload(0x40)\n      dup1\n      swap2\n      sub\n      swap1\n      revert\n    tag_107:\n        /* \"contracts/TokenSale.sol\":2743:2824  IERC20(_usdcInstance).safeTransfer(_to, IERC20(_usdcInstance).balanceOf(owner())) */\n      tag_110\n        /* \"contracts/TokenSale.sol\":2778:2781  _to */\n      dup2\n        /* \"contracts/TokenSale.sol\":2790:2803  _usdcInstance */\n      0x04\n      0x00\n      swap1\n      sload\n      swap1\n      0x0100\n      exp\n      swap1\n      div\n      0xffffffffffffffffffffffffffffffffffffffff\n      and\n        /* \"contracts/TokenSale.sol\":2783:2814  IERC20(_usdcInstance).balanceOf */\n      0xffffffffffffffffffffffffffffffffffffffff\n      and\n      0x70a08231\n        /* \"contracts/TokenSale.sol\":2815:2822  owner() */\n      tag_111\n        /* \"contracts/TokenSale.sol\":2815:2820  owner */\n      tag_58\n        /* \"contracts/TokenSale.sol\":2815:2822  owner() */\n      jump\t// in\n    tag_111:\n        /* \"contracts/TokenSale.sol\":2783:2823  IERC20(_usdcInstance).balanceOf(owner()) */\n      mload(0x40)\n      dup3\n      0xffffffff\n      and\n      0xe0\n      shl\n      dup2\n      mstore\n      0x04\n      add\n      tag_112\n      swap2\n      swap1\n      tag_39\n      jump\t// in\n    tag_112:\n      0x20\n      mload(0x40)\n      dup1\n      dup4\n      sub\n      dup2\n      dup7\n      dup1\n      extcodesize\n      iszero\n      dup1\n      iszero\n      tag_113\n      jumpi\n      0x00\n      dup1\n      revert\n    tag_113:\n      pop\n      gas\n      staticcall\n      iszero\n      dup1\n      iszero\n      tag_115\n      jumpi\n      returndatasize\n      0x00\n      dup1\n      returndatacopy\n      revert(0x00, returndatasize)\n    tag_115:\n      pop\n      pop\n      pop\n      pop\n      mload(0x40)\n      returndatasize\n      not(0x1f)\n      0x1f\n      dup3\n      add\n      and\n      dup3\n      add\n      dup1\n      0x40\n      mstore\n      pop\n      dup2\n      add\n      swap1\n      tag_116\n      swap2\n      swap1\n      tag_92\n      jump\t// in\n    tag_116:\n        /* \"contracts/TokenSale.sol\":2750:2763  _usdcInstance */\n      0x04\n      0x00\n      swap1\n      sload\n      swap1\n      0x0100\n      exp\n      swap1\n      div\n      0xffffffffffffffffffffffffffffffffffffffff\n      and\n        /* \"contracts/TokenSale.sol\":2743:2777  IERC20(_usdcInstance).safeTransfer */\n      0xffffffffffffffffffffffffffffffffffffffff\n      and\n      tag_117\n      swap1\n        /* \"contracts/TokenSale.sol\":2743:2824  IERC20(_usdcInstance).safeTransfer(_to, IERC20(_usdcInstance).balanceOf(owner())) */\n      swap3\n      swap2\n      swap1\n      0xffffffff\n      and\n      jump\t// in\n    tag_110:\n        /* \"contracts/TokenSale.sol\":2833:2914  IERC20(_usdcInstance).safeTransfer(_to, IERC20(_usdcInstance).balanceOf(owner())) */\n      tag_118\n        /* \"contracts/TokenSale.sol\":2868:2871  _to */\n      dup2\n        /* \"contracts/TokenSale.sol\":2880:2893  _usdcInstance */\n      0x04\n      0x00\n      swap1\n      sload\n      swap1\n      0x0100\n      exp\n      swap1\n      div\n      0xffffffffffffffffffffffffffffffffffffffff\n      and\n        /* \"contracts/TokenSale.sol\":2873:2904  IERC20(_usdcInstance).balanceOf */\n      0xffffffffffffffffffffffffffffffffffffffff\n      and\n      0x70a08231\n        /* \"contracts/TokenSale.sol\":2905:2912  owner() */\n      tag_119\n        /* \"contracts/TokenSale.sol\":2905:2910  owner */\n      tag_58\n        /* \"contracts/TokenSale.sol\":2905:2912  owner() */\n      jump\t// in\n    tag_119:\n        /* \"contracts/TokenSale.sol\":2873:2913  IERC20(_usdcInstance).balanceOf(owner()) */\n      mload(0x40)\n      dup3\n      0xffffffff\n      and\n      0xe0\n      shl\n      dup2\n      mstore\n      0x04\n      add\n      tag_120\n      swap2\n      swap1\n      tag_39\n      jump\t// in\n    tag_120:\n      0x20\n      mload(0x40)\n      dup1\n      dup4\n      sub\n      dup2\n      dup7\n      dup1\n      extcodesize\n      iszero\n      dup1\n      iszero\n      tag_121\n      jumpi\n      0x00\n      dup1\n      revert\n    tag_121:\n      pop\n      gas\n      staticcall\n      iszero\n      dup1\n      iszero\n      tag_123\n      jumpi\n      returndatasize\n      0x00\n      dup1\n      returndatacopy\n      revert(0x00, returndatasize)\n    tag_123:\n      pop\n      pop\n      pop\n      pop\n      mload(0x40)\n      returndatasize\n      not(0x1f)\n      0x1f\n      dup3\n      add\n      and\n      dup3\n      add\n      dup1\n      0x40\n      mstore\n      pop\n      dup2\n      add\n      swap1\n      tag_124\n      swap2\n      swap1\n      tag_92\n      jump\t// in\n    tag_124:\n        /* \"contracts/TokenSale.sol\":2840:2853  _usdcInstance */\n      0x04\n      0x00\n      swap1\n      sload\n      swap1\n      0x0100\n      exp\n      swap1\n      div\n      0xffffffffffffffffffffffffffffffffffffffff\n      and\n        /* \"contracts/TokenSale.sol\":2833:2867  IERC20(_usdcInstance).safeTransfer */\n      0xffffffffffffffffffffffffffffffffffffffff\n      and\n      tag_117\n      swap1\n        /* \"contracts/TokenSale.sol\":2833:2914  IERC20(_usdcInstance).safeTransfer(_to, IERC20(_usdcInstance).balanceOf(owner())) */\n      swap3\n      swap2\n      swap1\n      0xffffffff\n      and\n      jump\t// in\n    tag_118:\n        /* \"contracts/TokenSale.sol\":2609:2920  function withdraw(address _to) public virtual payable onlyOwner{\r... */\n      pop\n      jump\t// out\n        /* \"contracts/TokenSale.sol\":399:427  address public _usdcInstance */\n    tag_37:\n      0x04\n      0x00\n      swap1\n      sload\n      swap1\n      0x0100\n      exp\n      swap1\n      div\n      0xffffffffffffffffffffffffffffffffffffffff\n      and\n      dup2\n      jump\t// out\n        /* \"contracts/TokenSale.sol\":1276:1393  function getRecord(address _address) public virtual view returns(uint256){\r... */\n    tag_43:\n        /* \"contracts/TokenSale.sol\":1341:1348  uint256 */\n      0x00\n        /* \"contracts/TokenSale.sol\":1363:1369  record */\n      0x05\n        /* \"contracts/TokenSale.sol\":1363:1379  record[_address] */\n      0x00\n        /* \"contracts/TokenSale.sol\":1370:1378  _address */\n      dup4\n        /* \"contracts/TokenSale.sol\":1363:1379  record[_address] */\n      0xffffffffffffffffffffffffffffffffffffffff\n      and\n      0xffffffffffffffffffffffffffffffffffffffff\n      and\n      dup2\n      mstore\n      0x20\n      add\n      swap1\n      dup2\n      mstore\n      0x20\n      add\n      0x00\n      keccak256\n        /* \"contracts/TokenSale.sol\":1363:1387  record[_address]._amount */\n      0x00\n      add\n      sload\n        /* \"contracts/TokenSale.sol\":1356:1387  return record[_address]._amount */\n      swap1\n      pop\n        /* \"contracts/TokenSale.sol\":1276:1393  function getRecord(address _address) public virtual view returns(uint256){\r... */\n      swap2\n      swap1\n      pop\n      jump\t// out\n        /* \"contracts/TokenSale.sol\":3622:3737  function updateSaleEndTime(uint256 updatedSaleEndTime) public onlyOwner{\r... */\n    tag_48:\n        /* \"@openzeppelin/contracts/access/Ownable.sol\":1259:1271  _msgSender() */\n      tag_127\n        /* \"@openzeppelin/contracts/access/Ownable.sol\":1259:1269  _msgSender */\n      tag_95\n        /* \"@openzeppelin/contracts/access/Ownable.sol\":1259:1271  _msgSender() */\n      jump\t// in\n    tag_127:\n        /* \"@openzeppelin/contracts/access/Ownable.sol\":1248:1271  owner() == _msgSender() */\n      0xffffffffffffffffffffffffffffffffffffffff\n      and\n        /* \"@openzeppelin/contracts/access/Ownable.sol\":1248:1255  owner() */\n      tag_128\n        /* \"@openzeppelin/contracts/access/Ownable.sol\":1248:1253  owner */\n      tag_58\n        /* \"@openzeppelin/contracts/access/Ownable.sol\":1248:1255  owner() */\n      jump\t// in\n    tag_128:\n        /* \"@openzeppelin/contracts/access/Ownable.sol\":1248:1271  owner() == _msgSender() */\n      0xffffffffffffffffffffffffffffffffffffffff\n      and\n      eq\n        /* \"@openzeppelin/contracts/access/Ownable.sol\":1240:1308  require(owner() == _msgSender(), \"Ownable: caller is not the owner\") */\n      tag_129\n      jumpi\n      mload(0x40)\n      0x08c379a000000000000000000000000000000000000000000000000000000000\n      dup2\n      mstore\n      0x04\n      add\n      tag_130\n      swap1\n      tag_99\n      jump\t// in\n    tag_130:\n      mload(0x40)\n      dup1\n      swap2\n      sub\n      swap1\n      revert\n    tag_129:\n        /* \"contracts/TokenSale.sol\":3713:3731  updatedSaleEndTime */\n      dup1\n        /* \"contracts/TokenSale.sol\":3702:3710  _saleEnd */\n      0x03\n        /* \"contracts/TokenSale.sol\":3702:3731  _saleEnd = updatedSaleEndTime */\n      dup2\n      swap1\n      sstore\n      pop\n        /* \"contracts/TokenSale.sol\":3622:3737  function updateSaleEndTime(uint256 updatedSaleEndTime) public onlyOwner{\r... */\n      pop\n      jump\t// out\n        /* \"@openzeppelin/contracts/access/Ownable.sol\":1668:1769  function renounceOwnership() public virtual onlyOwner {... */\n    tag_51:\n        /* \"@openzeppelin/contracts/access/Ownable.sol\":1259:1271  _msgSender() */\n      tag_133\n        /* \"@openzeppelin/contracts/access/Ownable.sol\":1259:1269  _msgSender */\n      tag_95\n        /* \"@openzeppelin/contracts/access/Ownable.sol\":1259:1271  _msgSender() */\n      jump\t// in\n    tag_133:\n        /* \"@openzeppelin/contracts/access/Ownable.sol\":1248:1271  owner() == _msgSender() */\n      0xffffffffffffffffffffffffffffffffffffffff\n      and\n        /* \"@openzeppelin/contracts/access/Ownable.sol\":1248:1255  owner() */\n      tag_134\n        /* \"@openzeppelin/contracts/access/Ownable.sol\":1248:1253  owner */\n      tag_58\n        /* \"@openzeppelin/contracts/access/Ownable.sol\":1248:1255  owner() */\n      jump\t// in\n    tag_134:\n        /* \"@openzeppelin/contracts/access/Ownable.sol\":1248:1271  owner() == _msgSender() */\n      0xffffffffffffffffffffffffffffffffffffffff\n      and\n      eq\n        /* \"@openzeppelin/contracts/access/Ownable.sol\":1240:1308  require(owner() == _msgSender(), \"Ownable: caller is not the owner\") */\n      tag_135\n      jumpi\n      mload(0x40)\n      0x08c379a000000000000000000000000000000000000000000000000000000000\n      dup2\n      mstore\n      0x04\n      add\n      tag_136\n      swap1\n      tag_99\n      jump\t// in\n    tag_136:\n      mload(0x40)\n      dup1\n      swap2\n      sub\n      swap1\n      revert\n    tag_135:\n        /* \"@openzeppelin/contracts/access/Ownable.sol\":1732:1762  _transferOwnership(address(0)) */\n      tag_138\n        /* \"@openzeppelin/contracts/access/Ownable.sol\":1759:1760  0 */\n      0x00\n        /* \"@openzeppelin/contracts/access/Ownable.sol\":1732:1750  _transferOwnership */\n      tag_139\n        /* \"@openzeppelin/contracts/access/Ownable.sol\":1732:1762  _transferOwnership(address(0)) */\n      jump\t// in\n    tag_138:\n        /* \"@openzeppelin/contracts/access/Ownable.sol\":1668:1769  function renounceOwnership() public virtual onlyOwner {... */\n      jump\t// out\n        /* \"contracts/TokenSale.sol\":976:1053  function getOwner() public view returns(address){\r... */\n    tag_54:\n        /* \"contracts/TokenSale.sol\":1016:1023  address */\n      0x00\n        /* \"contracts/TokenSale.sol\":1040:1047  owner() */\n      tag_141\n        /* \"contracts/TokenSale.sol\":1040:1045  owner */\n      tag_58\n        /* \"contracts/TokenSale.sol\":1040:1047  owner() */\n      jump\t// in\n    tag_141:\n        /* \"contracts/TokenSale.sol\":1033:1047  return owner() */\n      swap1\n      pop\n        /* \"contracts/TokenSale.sol\":976:1053  function getOwner() public view returns(address){\r... */\n      swap1\n      jump\t// out\n        /* \"@openzeppelin/contracts/access/Ownable.sol\":1036:1121  function owner() public view virtual returns (address) {... */\n    tag_58:\n        /* \"@openzeppelin/contracts/access/Ownable.sol\":1082:1089  address */\n      0x00\n        /* \"@openzeppelin/contracts/access/Ownable.sol\":1108:1114  _owner */\n      dup1\n      0x00\n      swap1\n      sload\n      swap1\n      0x0100\n      exp\n      swap1\n      div\n      0xffffffffffffffffffffffffffffffffffffffff\n      and\n        /* \"@openzeppelin/contracts/access/Ownable.sol\":1101:1114  return _owner */\n      swap1\n      pop\n        /* \"@openzeppelin/contracts/access/Ownable.sol\":1036:1121  function owner() public view virtual returns (address) {... */\n      swap1\n      jump\t// out\n        /* \"contracts/TokenSale.sol\":879:970  function saleStart() public view virtual returns (uint256) {\r... */\n    tag_62:\n        /* \"contracts/TokenSale.sol\":929:936  uint256 */\n      0x00\n        /* \"contracts/TokenSale.sol\":954:964  _saleStart */\n      sload(0x02)\n        /* \"contracts/TokenSale.sol\":947:964  return _saleStart */\n      swap1\n      pop\n        /* \"contracts/TokenSale.sol\":879:970  function saleStart() public view virtual returns (uint256) {\r... */\n      swap1\n      jump\t// out\n        /* \"contracts/TokenSale.sol\":1183:1270  function saleEnd() public view virtual returns (uint256) {\r... */\n    tag_66:\n        /* \"contracts/TokenSale.sol\":1231:1238  uint256 */\n      0x00\n        /* \"contracts/TokenSale.sol\":1256:1264  _saleEnd */\n      sload(0x03)\n        /* \"contracts/TokenSale.sol\":1249:1264  return _saleEnd */\n      swap1\n      pop\n        /* \"contracts/TokenSale.sol\":1183:1270  function saleEnd() public view virtual returns (uint256) {\r... */\n      swap1\n      jump\t// out\n        /* \"contracts/TokenSale.sol\":3151:3489  function Return(address payable _returnAddress) public payable onlyOwner returns(bool){\r... */\n    tag_71:\n        /* \"contracts/TokenSale.sol\":3232:3236  bool */\n      0x00\n        /* \"@openzeppelin/contracts/access/Ownable.sol\":1259:1271  _msgSender() */\n      tag_146\n        /* \"@openzeppelin/contracts/access/Ownable.sol\":1259:1269  _msgSender */\n      tag_95\n        /* \"@openzeppelin/contracts/access/Ownable.sol\":1259:1271  _msgSender() */\n      jump\t// in\n    tag_146:\n        /* \"@openzeppelin/contracts/access/Ownable.sol\":1248:1271  owner() == _msgSender() */\n      0xffffffffffffffffffffffffffffffffffffffff\n      and\n        /* \"@openzeppelin/contracts/access/Ownable.sol\":1248:1255  owner() */\n      tag_147\n        /* \"@openzeppelin/contracts/access/Ownable.sol\":1248:1253  owner */\n      tag_58\n        /* \"@openzeppelin/contracts/access/Ownable.sol\":1248:1255  owner() */\n      jump\t// in\n    tag_147:\n        /* \"@openzeppelin/contracts/access/Ownable.sol\":1248:1271  owner() == _msgSender() */\n      0xffffffffffffffffffffffffffffffffffffffff\n      and\n      eq\n        /* \"@openzeppelin/contracts/access/Ownable.sol\":1240:1308  require(owner() == _msgSender(), \"Ownable: caller is not the owner\") */\n      tag_148\n      jumpi\n      mload(0x40)\n      0x08c379a000000000000000000000000000000000000000000000000000000000\n      dup2\n      mstore\n      0x04\n      add\n      tag_149\n      swap1\n      tag_99\n      jump\t// in\n    tag_149:\n      mload(0x40)\n      dup1\n      swap2\n      sub\n      swap1\n      revert\n    tag_148:\n        /* \"contracts/TokenSale.sol\":3244:3261  uint256 returnAmt */\n      0x00\n        /* \"contracts/TokenSale.sol\":3264:3270  record */\n      0x05\n        /* \"contracts/TokenSale.sol\":3264:3286  record[_returnAddress] */\n      0x00\n        /* \"contracts/TokenSale.sol\":3271:3285  _returnAddress */\n      dup5\n        /* \"contracts/TokenSale.sol\":3264:3286  record[_returnAddress] */\n      0xffffffffffffffffffffffffffffffffffffffff\n      and\n      0xffffffffffffffffffffffffffffffffffffffff\n      and\n      dup2\n      mstore\n      0x20\n      add\n      swap1\n      dup2\n      mstore\n      0x20\n      add\n      0x00\n      keccak256\n        /* \"contracts/TokenSale.sol\":3264:3294  record[_returnAddress]._amount */\n      0x00\n      add\n      sload\n        /* \"contracts/TokenSale.sol\":3244:3294  uint256 returnAmt = record[_returnAddress]._amount */\n      swap1\n      pop\n        /* \"contracts/TokenSale.sol\":3332:3341  returnAmt */\n      dup1\n        /* \"contracts/TokenSale.sol\":3309:3330  address(this).balance */\n      selfbalance\n        /* \"contracts/TokenSale.sol\":3309:3341  address(this).balance>=returnAmt */\n      lt\n      iszero\n        /* \"contracts/TokenSale.sol\":3301:3371  require(address(this).balance>=returnAmt,\"Not enough token to return\") */\n      tag_151\n      jumpi\n      mload(0x40)\n      0x08c379a000000000000000000000000000000000000000000000000000000000\n      dup2\n      mstore\n      0x04\n      add\n      tag_152\n      swap1\n      tag_153\n      jump\t// in\n    tag_152:\n      mload(0x40)\n      dup1\n      swap2\n      sub\n      swap1\n      revert\n    tag_151:\n        /* \"contracts/TokenSale.sol\":3431:3445  _returnAddress */\n      dup3\n        /* \"contracts/TokenSale.sol\":3431:3454  _returnAddress.transfer */\n      0xffffffffffffffffffffffffffffffffffffffff\n      and\n        /* \"contracts/TokenSale.sol\":3431:3465  _returnAddress.transfer(returnAmt) */\n      0x08fc\n        /* \"contracts/TokenSale.sol\":3455:3464  returnAmt */\n      dup3\n        /* \"contracts/TokenSale.sol\":3431:3465  _returnAddress.transfer(returnAmt) */\n      swap1\n      dup2\n      iszero\n      mul\n      swap1\n      mload(0x40)\n      0x00\n      mload(0x40)\n      dup1\n      dup4\n      sub\n      dup2\n      dup6\n      dup9\n      dup9\n      call\n      swap4\n      pop\n      pop\n      pop\n      pop\n      iszero\n      dup1\n      iszero\n      tag_155\n      jumpi\n      returndatasize\n      0x00\n      dup1\n      returndatacopy\n      revert(0x00, returndatasize)\n    tag_155:\n      pop\n        /* \"contracts/TokenSale.sol\":3479:3483  true */\n      0x01\n        /* \"contracts/TokenSale.sol\":3472:3483  return true */\n      swap2\n      pop\n      pop\n        /* \"contracts/TokenSale.sol\":3151:3489  function Return(address payable _returnAddress) public payable onlyOwner returns(bool){\r... */\n      swap2\n      swap1\n      pop\n      jump\t// out\n        /* \"contracts/TokenSale.sol\":2390:2603  function purchases() public view returns(address) {\r... */\n    tag_76:\n        /* \"contracts/TokenSale.sol\":2431:2438  address */\n      0x00\n        /* \"contracts/TokenSale.sol\":2474:2484  _saleStart */\n      sload(0x02)\n        /* \"contracts/TokenSale.sol\":2457:2472  block.timestamp */\n      timestamp\n        /* \"contracts/TokenSale.sol\":2457:2484  block.timestamp>=_saleStart */\n      lt\n      iszero\n        /* \"contracts/TokenSale.sol\":2449:2511  require(block.timestamp>=_saleStart,\"Sale hasn't started yet\") */\n      tag_157\n      jumpi\n      mload(0x40)\n      0x08c379a000000000000000000000000000000000000000000000000000000000\n      dup2\n      mstore\n      0x04\n      add\n      tag_158\n      swap1\n      tag_159\n      jump\t// in\n    tag_158:\n      mload(0x40)\n      dup1\n      swap2\n      sub\n      swap1\n      revert\n    tag_157:\n        /* \"contracts/TokenSale.sol\":2545:2553  _saleEnd */\n      sload(0x03)\n        /* \"contracts/TokenSale.sol\":2528:2543  block.timestamp */\n      timestamp\n        /* \"contracts/TokenSale.sol\":2528:2553  block.timestamp<=_saleEnd */\n      gt\n      iszero\n        /* \"contracts/TokenSale.sol\":2520:2571  require(block.timestamp<=_saleEnd,\"Sale has ended\") */\n      tag_160\n      jumpi\n      mload(0x40)\n      0x08c379a000000000000000000000000000000000000000000000000000000000\n      dup2\n      mstore\n      0x04\n      add\n      tag_161\n      swap1\n      tag_162\n      jump\t// in\n    tag_161:\n      mload(0x40)\n      dup1\n      swap2\n      sub\n      swap1\n      revert\n    tag_160:\n        /* \"contracts/TokenSale.sol\":2587:2597  msg.sender */\n      caller\n        /* \"contracts/TokenSale.sol\":2580:2597  return msg.sender */\n      swap1\n      pop\n        /* \"contracts/TokenSale.sol\":2390:2603  function purchases() public view returns(address) {\r... */\n      swap1\n      jump\t// out\n        /* \"contracts/TokenSale.sol\":1399:2384  function purchase(uint256 _amount) public{\r... */\n    tag_81:\n        /* \"contracts/TokenSale.sol\":1474:1484  _saleStart */\n      sload(0x02)\n        /* \"contracts/TokenSale.sol\":1457:1472  block.timestamp */\n      timestamp\n        /* \"contracts/TokenSale.sol\":1457:1484  block.timestamp>=_saleStart */\n      lt\n      iszero\n        /* \"contracts/TokenSale.sol\":1449:1511  require(block.timestamp>=_saleStart,\"Sale hasn't started yet\") */\n      tag_164\n      jumpi\n      mload(0x40)\n      0x08c379a000000000000000000000000000000000000000000000000000000000\n      dup2\n      mstore\n      0x04\n      add\n      tag_165\n      swap1\n      tag_159\n      jump\t// in\n    tag_165:\n      mload(0x40)\n      dup1\n      swap2\n      sub\n      swap1\n      revert\n    tag_164:\n        /* \"contracts/TokenSale.sol\":1545:1553  _saleEnd */\n      sload(0x03)\n        /* \"contracts/TokenSale.sol\":1528:1543  block.timestamp */\n      timestamp\n        /* \"contracts/TokenSale.sol\":1528:1553  block.timestamp<=_saleEnd */\n      gt\n      iszero\n        /* \"contracts/TokenSale.sol\":1520:1571  require(block.timestamp<=_saleEnd,\"Sale has ended\") */\n      tag_166\n      jumpi\n      mload(0x40)\n      0x08c379a000000000000000000000000000000000000000000000000000000000\n      dup2\n      mstore\n      0x04\n      add\n      tag_167\n      swap1\n      tag_162\n      jump\t// in\n    tag_167:\n      mload(0x40)\n      dup1\n      swap2\n      sub\n      swap1\n      revert\n    tag_166:\n        /* \"contracts/TokenSale.sol\":1634:1701  IERC20(_usdcInstance).safeTransferFrom(msg.sender,owner(), _amount) */\n      tag_168\n        /* \"contracts/TokenSale.sol\":1673:1683  msg.sender */\n      caller\n        /* \"contracts/TokenSale.sol\":1684:1691  owner() */\n      tag_169\n        /* \"contracts/TokenSale.sol\":1684:1689  owner */\n      tag_58\n        /* \"contracts/TokenSale.sol\":1684:1691  owner() */\n      jump\t// in\n    tag_169:\n        /* \"contracts/TokenSale.sol\":1693:1700  _amount */\n      dup4\n        /* \"contracts/TokenSale.sol\":1641:1654  _usdcInstance */\n      0x04\n      0x00\n      swap1\n      sload\n      swap1\n      0x0100\n      exp\n      swap1\n      div\n      0xffffffffffffffffffffffffffffffffffffffff\n      and\n        /* \"contracts/TokenSale.sol\":1634:1672  IERC20(_usdcInstance).safeTransferFrom */\n      0xffffffffffffffffffffffffffffffffffffffff\n      and\n      tag_170\n      swap1\n        /* \"contracts/TokenSale.sol\":1634:1701  IERC20(_usdcInstance).safeTransferFrom(msg.sender,owner(), _amount) */\n      swap4\n      swap3\n      swap2\n      swap1\n      0xffffffff\n      and\n      jump\t// in\n    tag_168:\n        /* \"contracts/TokenSale.sol\":1399:2384  function purchase(uint256 _amount) public{\r... */\n      pop\n      jump\t// out\n        /* \"@openzeppelin/contracts/access/Ownable.sol\":1918:2116  function transferOwnership(address newOwner) public virtual onlyOwner {... */\n    tag_85:\n        /* \"@openzeppelin/contracts/access/Ownable.sol\":1259:1271  _msgSender() */\n      tag_172\n        /* \"@openzeppelin/contracts/access/Ownable.sol\":1259:1269  _msgSender */\n      tag_95\n        /* \"@openzeppelin/contracts/access/Ownable.sol\":1259:1271  _msgSender() */\n      jump\t// in\n    tag_172:\n        /* \"@openzeppelin/contracts/access/Ownable.sol\":1248:1271  owner() == _msgSender() */\n      0xffffffffffffffffffffffffffffffffffffffff\n      and\n        /* \"@openzeppelin/contracts/access/Ownable.sol\":1248:1255  owner() */\n      tag_173\n        /* \"@openzeppelin/contracts/access/Ownable.sol\":1248:1253  owner */\n      tag_58\n        /* \"@openzeppelin/contracts/access/Ownable.sol\":1248:1255  owner() */\n      jump\t// in\n    tag_173:\n        /* \"@openzeppelin/contracts/access/Ownable.sol\":1248:1271  owner() == _msgSender() */\n      0xffffffffffffffffffffffffffffffffffffffff\n      and\n      eq\n        /* \"@openzeppelin/contracts/access/Ownable.sol\":1240:1308  require(owner() == _msgSender(), \"Ownable: caller is not the owner\") */\n      tag_174\n      jumpi\n      mload(0x40)\n      0x08c379a000000000000000000000000000000000000000000000000000000000\n      dup2\n      mstore\n      0x04\n      add\n      tag_175\n      swap1\n      tag_99\n      jump\t// in\n    tag_175:\n      mload(0x40)\n      dup1\n      swap2\n      sub\n      swap1\n      revert\n    tag_174:\n        /* \"@openzeppelin/contracts/access/Ownable.sol\":2026:2027  0 */\n      0x00\n        /* \"@openzeppelin/contracts/access/Ownable.sol\":2006:2028  newOwner != address(0) */\n      0xffffffffffffffffffffffffffffffffffffffff\n      and\n        /* \"@openzeppelin/contracts/access/Ownable.sol\":2006:2014  newOwner */\n      dup2\n        /* \"@openzeppelin/contracts/access/Ownable.sol\":2006:2028  newOwner != address(0) */\n      0xffffffffffffffffffffffffffffffffffffffff\n      and\n      eq\n      iszero\n        /* \"@openzeppelin/contracts/access/Ownable.sol\":1998:2071  require(newOwner != address(0), \"Ownable: new owner is the zero address\") */\n      tag_177\n      jumpi\n      mload(0x40)\n      0x08c379a000000000000000000000000000000000000000000000000000000000\n      dup2\n      mstore\n      0x04\n      add\n      tag_178\n      swap1\n      tag_179\n      jump\t// in\n    tag_178:\n      mload(0x40)\n      dup1\n      swap2\n      sub\n      swap1\n      revert\n    tag_177:\n        /* \"@openzeppelin/contracts/access/Ownable.sol\":2081:2109  _transferOwnership(newOwner) */\n      tag_180\n        /* \"@openzeppelin/contracts/access/Ownable.sol\":2100:2108  newOwner */\n      dup2\n        /* \"@openzeppelin/contracts/access/Ownable.sol\":2081:2099  _transferOwnership */\n      tag_139\n        /* \"@openzeppelin/contracts/access/Ownable.sol\":2081:2109  _transferOwnership(newOwner) */\n      jump\t// in\n    tag_180:\n        /* \"@openzeppelin/contracts/access/Ownable.sol\":1918:2116  function transferOwnership(address newOwner) public virtual onlyOwner {... */\n      pop\n      jump\t// out\n        /* \"@openzeppelin/contracts/utils/Context.sol\":640:736  function _msgSender() internal view virtual returns (address) {... */\n    tag_95:\n        /* \"@openzeppelin/contracts/utils/Context.sol\":693:700  address */\n      0x00\n        /* \"@openzeppelin/contracts/utils/Context.sol\":719:729  msg.sender */\n      caller\n        /* \"@openzeppelin/contracts/utils/Context.sol\":712:729  return msg.sender */\n      swap1\n      pop\n        /* \"@openzeppelin/contracts/utils/Context.sol\":640:736  function _msgSender() internal view virtual returns (address) {... */\n      swap1\n      jump\t// out\n        /* \"@openzeppelin/contracts/token/ERC20/utils/SafeERC20.sol\":701:906  function safeTransfer(... */\n    tag_117:\n        /* \"@openzeppelin/contracts/token/ERC20/utils/SafeERC20.sol\":813:899  _callOptionalReturn(token, abi.encodeWithSelector(token.transfer.selector, to, value)) */\n      tag_183\n        /* \"@openzeppelin/contracts/token/ERC20/utils/SafeERC20.sol\":833:838  token */\n      dup4\n        /* \"@openzeppelin/contracts/token/ERC20/utils/SafeERC20.sol\":863:886  token.transfer.selector */\n      shl(0xe0, 0xa9059cbb)\n        /* \"@openzeppelin/contracts/token/ERC20/utils/SafeERC20.sol\":888:890  to */\n      dup5\n        /* \"@openzeppelin/contracts/token/ERC20/utils/SafeERC20.sol\":892:897  value */\n      dup5\n        /* \"@openzeppelin/contracts/token/ERC20/utils/SafeERC20.sol\":840:898  abi.encodeWithSelector(token.transfer.selector, to, value) */\n      add(0x24, mload(0x40))\n      tag_184\n      swap3\n      swap2\n      swap1\n      tag_185\n      jump\t// in\n    tag_184:\n      mload(0x40)\n      0x20\n      dup2\n      dup4\n      sub\n      sub\n      dup2\n      mstore\n      swap1\n      0x40\n      mstore\n      swap1\n      not(0xffffffffffffffffffffffffffffffffffffffffffffffffffffffff)\n      and\n      0x20\n      dup3\n      add\n      dup1\n      mload\n      0xffffffffffffffffffffffffffffffffffffffffffffffffffffffff\n      dup4\n      dup2\n      dup4\n      and\n      or\n      dup4\n      mstore\n      pop\n      pop\n      pop\n      pop\n        /* \"@openzeppelin/contracts/token/ERC20/utils/SafeERC20.sol\":813:832  _callOptionalReturn */\n      tag_186\n        /* \"@openzeppelin/contracts/token/ERC20/utils/SafeERC20.sol\":813:899  _callOptionalReturn(token, abi.encodeWithSelector(token.transfer.selector, to, value)) */\n      jump\t// in\n    tag_183:\n        /* \"@openzeppelin/contracts/token/ERC20/utils/SafeERC20.sol\":701:906  function safeTransfer(... */\n      pop\n      pop\n      pop\n      jump\t// out\n        /* \"@openzeppelin/contracts/access/Ownable.sol\":2270:2457  function _transferOwnership(address newOwner) internal virtual {... */\n    tag_139:\n        /* \"@openzeppelin/contracts/access/Ownable.sol\":2343:2359  address oldOwner */\n      0x00\n        /* \"@openzeppelin/contracts/access/Ownable.sol\":2362:2368  _owner */\n      dup1\n      0x00\n      swap1\n      sload\n      swap1\n      0x0100\n      exp\n      swap1\n      div\n      0xffffffffffffffffffffffffffffffffffffffff\n      and\n        /* \"@openzeppelin/contracts/access/Ownable.sol\":2343:2368  address oldOwner = _owner */\n      swap1\n      pop\n        /* \"@openzeppelin/contracts/access/Ownable.sol\":2387:2395  newOwner */\n      dup2\n        /* \"@openzeppelin/contracts/access/Ownable.sol\":2378:2384  _owner */\n      0x00\n      dup1\n        /* \"@openzeppelin/contracts/access/Ownable.sol\":2378:2395  _owner = newOwner */\n      0x0100\n      exp\n      dup2\n      sload\n      dup2\n      0xffffffffffffffffffffffffffffffffffffffff\n      mul\n      not\n      and\n      swap1\n      dup4\n      0xffffffffffffffffffffffffffffffffffffffff\n      and\n      mul\n      or\n      swap1\n      sstore\n      pop\n        /* \"@openzeppelin/contracts/access/Ownable.sol\":2441:2449  newOwner */\n      dup2\n        /* \"@openzeppelin/contracts/access/Ownable.sol\":2410:2450  OwnershipTransferred(oldOwner, newOwner) */\n      0xffffffffffffffffffffffffffffffffffffffff\n      and\n        /* \"@openzeppelin/contracts/access/Ownable.sol\":2431:2439  oldOwner */\n      dup2\n        /* \"@openzeppelin/contracts/access/Ownable.sol\":2410:2450  OwnershipTransferred(oldOwner, newOwner) */\n      0xffffffffffffffffffffffffffffffffffffffff\n      and\n      0x8be0079c531659141344cd1fd0a4f28419497f9722a3daafe3b4186f6b6457e0\n      mload(0x40)\n      mload(0x40)\n      dup1\n      swap2\n      sub\n      swap1\n      log3\n        /* \"@openzeppelin/contracts/access/Ownable.sol\":2333:2457  {... */\n      pop\n        /* \"@openzeppelin/contracts/access/Ownable.sol\":2270:2457  function _transferOwnership(address newOwner) internal virtual {... */\n      pop\n      jump\t// out\n        /* \"@openzeppelin/contracts/token/ERC20/utils/SafeERC20.sol\":912:1153  function safeTransferFrom(... */\n    tag_170:\n        /* \"@openzeppelin/contracts/token/ERC20/utils/SafeERC20.sol\":1050:1146  _callOptionalReturn(token, abi.encodeWithSelector(token.transferFrom.selector, from, to, value)) */\n      tag_189\n        /* \"@openzeppelin/contracts/token/ERC20/utils/SafeERC20.sol\":1070:1075  token */\n      dup5\n        /* \"@openzeppelin/contracts/token/ERC20/utils/SafeERC20.sol\":1100:1127  token.transferFrom.selector */\n      shl(0xe0, 0x23b872dd)\n        /* \"@openzeppelin/contracts/token/ERC20/utils/SafeERC20.sol\":1129:1133  from */\n      dup6\n        /* \"@openzeppelin/contracts/token/ERC20/utils/SafeERC20.sol\":1135:1137  to */\n      dup6\n        /* \"@openzeppelin/contracts/token/ERC20/utils/SafeERC20.sol\":1139:1144  value */\n      dup6\n        /* \"@openzeppelin/contracts/token/ERC20/utils/SafeERC20.sol\":1077:1145  abi.encodeWithSelector(token.transferFrom.selector, from, to, value) */\n      add(0x24, mload(0x40))\n      tag_190\n      swap4\n      swap3\n      swap2\n      swap1\n      tag_191\n      jump\t// in\n    tag_190:\n      mload(0x40)\n      0x20\n      dup2\n      dup4\n      sub\n      sub\n      dup2\n      mstore\n      swap1\n      0x40\n      mstore\n      swap1\n      not(0xffffffffffffffffffffffffffffffffffffffffffffffffffffffff)\n      and\n      0x20\n      dup3\n      add\n      dup1\n      mload\n      0xffffffffffffffffffffffffffffffffffffffffffffffffffffffff\n      dup4\n      dup2\n      dup4\n      and\n      or\n      dup4\n      mstore\n      pop\n      pop\n      pop\n      pop\n        /* \"@openzeppelin/contracts/token/ERC20/utils/SafeERC20.sol\":1050:1069  _callOptionalReturn */\n      tag_186\n        /* \"@openzeppelin/contracts/token/ERC20/utils/SafeERC20.sol\":1050:1146  _callOptionalReturn(token, abi.encodeWithSelector(token.transferFrom.selector, from, to, value)) */\n      jump\t// in\n    tag_189:\n        /* \"@openzeppelin/contracts/token/ERC20/utils/SafeERC20.sol\":912:1153  function safeTransferFrom(... */\n      pop\n      pop\n      pop\n      pop\n      jump\t// out\n        /* \"@openzeppelin/contracts/token/ERC20/utils/SafeERC20.sol\":3207:3913  function _callOptionalReturn(IERC20 token, bytes memory data) private {... */\n    tag_186:\n        /* \"@openzeppelin/contracts/token/ERC20/utils/SafeERC20.sol\":3626:3649  bytes memory returndata */\n      0x00\n        /* \"@openzeppelin/contracts/token/ERC20/utils/SafeERC20.sol\":3652:3721  address(token).functionCall(data, \"SafeERC20: low-level call failed\") */\n      tag_193\n        /* \"@openzeppelin/contracts/token/ERC20/utils/SafeERC20.sol\":3680:3684  data */\n      dup3\n        /* \"@openzeppelin/contracts/token/ERC20/utils/SafeERC20.sol\":3652:3721  address(token).functionCall(data, \"SafeERC20: low-level call failed\") */\n      mload(0x40)\n      dup1\n      0x40\n      add\n      0x40\n      mstore\n      dup1\n      0x20\n      dup2\n      mstore\n      0x20\n      add\n      0x5361666545524332303a206c6f772d6c6576656c2063616c6c206661696c6564\n      dup2\n      mstore\n      pop\n        /* \"@openzeppelin/contracts/token/ERC20/utils/SafeERC20.sol\":3660:3665  token */\n      dup6\n        /* \"@openzeppelin/contracts/token/ERC20/utils/SafeERC20.sol\":3652:3679  address(token).functionCall */\n      0xffffffffffffffffffffffffffffffffffffffff\n      and\n      tag_194\n      swap1\n        /* \"@openzeppelin/contracts/token/ERC20/utils/SafeERC20.sol\":3652:3721  address(token).functionCall(data, \"SafeERC20: low-level call failed\") */\n      swap3\n      swap2\n      swap1\n      0xffffffff\n      and\n      jump\t// in\n    tag_193:\n        /* \"@openzeppelin/contracts/token/ERC20/utils/SafeERC20.sol\":3626:3721  bytes memory returndata = address(token).functionCall(data, \"SafeERC20: low-level call failed\") */\n      swap1\n      pop\n        /* \"@openzeppelin/contracts/token/ERC20/utils/SafeERC20.sol\":3755:3756  0 */\n      0x00\n        /* \"@openzeppelin/contracts/token/ERC20/utils/SafeERC20.sol\":3735:3745  returndata */\n      dup2\n        /* \"@openzeppelin/contracts/token/ERC20/utils/SafeERC20.sol\":3735:3752  returndata.length */\n      mload\n        /* \"@openzeppelin/contracts/token/ERC20/utils/SafeERC20.sol\":3735:3756  returndata.length > 0 */\n      gt\n        /* \"@openzeppelin/contracts/token/ERC20/utils/SafeERC20.sol\":3731:3907  if (returndata.length > 0) {... */\n      iszero\n      tag_195\n      jumpi\n        /* \"@openzeppelin/contracts/token/ERC20/utils/SafeERC20.sol\":3830:3840  returndata */\n      dup1\n        /* \"@openzeppelin/contracts/token/ERC20/utils/SafeERC20.sol\":3819:3849  abi.decode(returndata, (bool)) */\n      dup1\n      0x20\n      add\n      swap1\n      mload\n      dup2\n      add\n      swap1\n      tag_196\n      swap2\n      swap1\n      tag_197\n      jump\t// in\n    tag_196:\n        /* \"@openzeppelin/contracts/token/ERC20/utils/SafeERC20.sol\":3811:3896  require(abi.decode(returndata, (bool)), \"SafeERC20: ERC20 operation did not succeed\") */\n      tag_198\n      jumpi\n      mload(0x40)\n      0x08c379a000000000000000000000000000000000000000000000000000000000\n      dup2\n      mstore\n      0x04\n      add\n      tag_199\n      swap1\n      tag_200\n      jump\t// in\n    tag_199:\n      mload(0x40)\n      dup1\n      swap2\n      sub\n      swap1\n      revert\n    tag_198:\n        /* \"@openzeppelin/contracts/token/ERC20/utils/SafeERC20.sol\":3731:3907  if (returndata.length > 0) {... */\n    tag_195:\n        /* \"@openzeppelin/contracts/token/ERC20/utils/SafeERC20.sol\":3277:3913  {... */\n      pop\n        /* \"@openzeppelin/contracts/token/ERC20/utils/SafeERC20.sol\":3207:3913  function _callOptionalReturn(IERC20 token, bytes memory data) private {... */\n      pop\n      pop\n      jump\t// out\n        /* \"@openzeppelin/contracts/utils/Address.sol\":3861:4084  function functionCall(... */\n    tag_194:\n        /* \"@openzeppelin/contracts/utils/Address.sol\":3994:4006  bytes memory */\n      0x60\n        /* \"@openzeppelin/contracts/utils/Address.sol\":4025:4077  functionCallWithValue(target, data, 0, errorMessage) */\n      tag_202\n        /* \"@openzeppelin/contracts/utils/Address.sol\":4047:4053  target */\n      dup5\n        /* \"@openzeppelin/contracts/utils/Address.sol\":4055:4059  data */\n      dup5\n        /* \"@openzeppelin/contracts/utils/Address.sol\":4061:4062  0 */\n      0x00\n        /* \"@openzeppelin/contracts/utils/Address.sol\":4064:4076  errorMessage */\n      dup6\n        /* \"@openzeppelin/contracts/utils/Address.sol\":4025:4046  functionCallWithValue */\n      tag_203\n        /* \"@openzeppelin/contracts/utils/Address.sol\":4025:4077  functionCallWithValue(target, data, 0, errorMessage) */\n      jump\t// in\n    tag_202:\n        /* \"@openzeppelin/contracts/utils/Address.sol\":4018:4077  return functionCallWithValue(target, data, 0, errorMessage) */\n      swap1\n      pop\n        /* \"@openzeppelin/contracts/utils/Address.sol\":3861:4084  function functionCall(... */\n      swap4\n      swap3\n      pop\n      pop\n      pop\n      jump\t// out\n        /* \"@openzeppelin/contracts/utils/Address.sol\":4948:5447  function functionCallWithValue(... */\n    tag_203:\n        /* \"@openzeppelin/contracts/utils/Address.sol\":5113:5125  bytes memory */\n      0x60\n        /* \"@openzeppelin/contracts/utils/Address.sol\":5170:5175  value */\n      dup3\n        /* \"@openzeppelin/contracts/utils/Address.sol\":5145:5166  address(this).balance */\n      selfbalance\n        /* \"@openzeppelin/contracts/utils/Address.sol\":5145:5175  address(this).balance >= value */\n      lt\n      iszero\n        /* \"@openzeppelin/contracts/utils/Address.sol\":5137:5218  require(address(this).balance >= value, \"Address: insufficient balance for call\") */\n      tag_205\n      jumpi\n      mload(0x40)\n      0x08c379a000000000000000000000000000000000000000000000000000000000\n      dup2\n      mstore\n      0x04\n      add\n      tag_206\n      swap1\n      tag_207\n      jump\t// in\n    tag_206:\n      mload(0x40)\n      dup1\n      swap2\n      sub\n      swap1\n      revert\n    tag_205:\n        /* \"@openzeppelin/contracts/utils/Address.sol\":5236:5254  isContract(target) */\n      tag_208\n        /* \"@openzeppelin/contracts/utils/Address.sol\":5247:5253  target */\n      dup6\n        /* \"@openzeppelin/contracts/utils/Address.sol\":5236:5246  isContract */\n      tag_209\n        /* \"@openzeppelin/contracts/utils/Address.sol\":5236:5254  isContract(target) */\n      jump\t// in\n    tag_208:\n        /* \"@openzeppelin/contracts/utils/Address.sol\":5228:5288  require(isContract(target), \"Address: call to non-contract\") */\n      tag_210\n      jumpi\n      mload(0x40)\n      0x08c379a000000000000000000000000000000000000000000000000000000000\n      dup2\n      mstore\n      0x04\n      add\n      tag_211\n      swap1\n      tag_212\n      jump\t// in\n    tag_211:\n      mload(0x40)\n      dup1\n      swap2\n      sub\n      swap1\n      revert\n    tag_210:\n        /* \"@openzeppelin/contracts/utils/Address.sol\":5300:5312  bool success */\n      0x00\n        /* \"@openzeppelin/contracts/utils/Address.sol\":5314:5337  bytes memory returndata */\n      dup1\n        /* \"@openzeppelin/contracts/utils/Address.sol\":5341:5347  target */\n      dup7\n        /* \"@openzeppelin/contracts/utils/Address.sol\":5341:5352  target.call */\n      0xffffffffffffffffffffffffffffffffffffffff\n      and\n        /* \"@openzeppelin/contracts/utils/Address.sol\":5360:5365  value */\n      dup6\n        /* \"@openzeppelin/contracts/utils/Address.sol\":5367:5371  data */\n      dup8\n        /* \"@openzeppelin/contracts/utils/Address.sol\":5341:5372  target.call{value: value}(data) */\n      mload(0x40)\n      tag_213\n      swap2\n      swap1\n      tag_214\n      jump\t// in\n    tag_213:\n      0x00\n      mload(0x40)\n      dup1\n      dup4\n      sub\n      dup2\n      dup6\n      dup8\n      gas\n      call\n      swap3\n      pop\n      pop\n      pop\n      returndatasize\n      dup1\n      0x00\n      dup2\n      eq\n      tag_217\n      jumpi\n      mload(0x40)\n      swap2\n      pop\n      and(add(returndatasize, 0x3f), not(0x1f))\n      dup3\n      add\n      0x40\n      mstore\n      returndatasize\n      dup3\n      mstore\n      returndatasize\n      0x00\n      0x20\n      dup5\n      add\n      returndatacopy\n      jump(tag_216)\n    tag_217:\n      0x60\n      swap2\n      pop\n    tag_216:\n      pop\n        /* \"@openzeppelin/contracts/utils/Address.sol\":5299:5372  (bool success, bytes memory returndata) = target.call{value: value}(data) */\n      swap2\n      pop\n      swap2\n      pop\n        /* \"@openzeppelin/contracts/utils/Address.sol\":5389:5440  verifyCallResult(success, returndata, errorMessage) */\n      tag_218\n        /* \"@openzeppelin/contracts/utils/Address.sol\":5406:5413  success */\n      dup3\n        /* \"@openzeppelin/contracts/utils/Address.sol\":5415:5425  returndata */\n      dup3\n        /* \"@openzeppelin/contracts/utils/Address.sol\":5427:5439  errorMessage */\n      dup7\n        /* \"@openzeppelin/contracts/utils/Address.sol\":5389:5405  verifyCallResult */\n      tag_219\n        /* \"@openzeppelin/contracts/utils/Address.sol\":5389:5440  verifyCallResult(success, returndata, errorMessage) */\n      jump\t// in\n    tag_218:\n        /* \"@openzeppelin/contracts/utils/Address.sol\":5382:5440  return verifyCallResult(success, returndata, errorMessage) */\n      swap3\n      pop\n      pop\n      pop\n        /* \"@openzeppelin/contracts/utils/Address.sol\":4948:5447  function functionCallWithValue(... */\n      swap5\n      swap4\n      pop\n      pop\n      pop\n      pop\n      jump\t// out\n        /* \"@openzeppelin/contracts/utils/Address.sol\":1175:1495  function isContract(address account) internal view returns (bool) {... */\n    tag_209:\n        /* \"@openzeppelin/contracts/utils/Address.sol\":1235:1239  bool */\n      0x00\n        /* \"@openzeppelin/contracts/utils/Address.sol\":1487:1488  0 */\n      dup1\n        /* \"@openzeppelin/contracts/utils/Address.sol\":1465:1472  account */\n      dup3\n        /* \"@openzeppelin/contracts/utils/Address.sol\":1465:1484  account.code.length */\n      0xffffffffffffffffffffffffffffffffffffffff\n      and\n      extcodesize\n        /* \"@openzeppelin/contracts/utils/Address.sol\":1465:1488  account.code.length > 0 */\n      gt\n        /* \"@openzeppelin/contracts/utils/Address.sol\":1458:1488  return account.code.length > 0 */\n      swap1\n      pop\n        /* \"@openzeppelin/contracts/utils/Address.sol\":1175:1495  function isContract(address account) internal view returns (bool) {... */\n      swap2\n      swap1\n      pop\n      jump\t// out\n        /* \"@openzeppelin/contracts/utils/Address.sol\":7561:8253  function verifyCallResult(... */\n    tag_219:\n        /* \"@openzeppelin/contracts/utils/Address.sol\":7707:7719  bytes memory */\n      0x60\n        /* \"@openzeppelin/contracts/utils/Address.sol\":7735:7742  success */\n      dup4\n        /* \"@openzeppelin/contracts/utils/Address.sol\":7731:8247  if (success) {... */\n      iszero\n      tag_222\n      jumpi\n        /* \"@openzeppelin/contracts/utils/Address.sol\":7765:7775  returndata */\n      dup3\n        /* \"@openzeppelin/contracts/utils/Address.sol\":7758:7775  return returndata */\n      swap1\n      pop\n      jump(tag_221)\n        /* \"@openzeppelin/contracts/utils/Address.sol\":7731:8247  if (success) {... */\n    tag_222:\n        /* \"@openzeppelin/contracts/utils/Address.sol\":7896:7897  0 */\n      0x00\n        /* \"@openzeppelin/contracts/utils/Address.sol\":7876:7886  returndata */\n      dup4\n        /* \"@openzeppelin/contracts/utils/Address.sol\":7876:7893  returndata.length */\n      mload\n        /* \"@openzeppelin/contracts/utils/Address.sol\":7876:7897  returndata.length > 0 */\n      gt\n        /* \"@openzeppelin/contracts/utils/Address.sol\":7872:8237  if (returndata.length > 0) {... */\n      iszero\n      tag_224\n      jumpi\n        /* \"@openzeppelin/contracts/utils/Address.sol\":8070:8080  returndata */\n      dup3\n        /* \"@openzeppelin/contracts/utils/Address.sol\":8064:8081  mload(returndata) */\n      mload\n        /* \"@openzeppelin/contracts/utils/Address.sol\":8130:8145  returndata_size */\n      dup1\n        /* \"@openzeppelin/contracts/utils/Address.sol\":8117:8127  returndata */\n      dup5\n        /* \"@openzeppelin/contracts/utils/Address.sol\":8113:8115  32 */\n      0x20\n        /* \"@openzeppelin/contracts/utils/Address.sol\":8109:8128  add(32, returndata) */\n      add\n        /* \"@openzeppelin/contracts/utils/Address.sol\":8102:8146  revert(add(32, returndata), returndata_size) */\n      revert\n        /* \"@openzeppelin/contracts/utils/Address.sol\":7872:8237  if (returndata.length > 0) {... */\n    tag_224:\n        /* \"@openzeppelin/contracts/utils/Address.sol\":8209:8221  errorMessage */\n      dup2\n        /* \"@openzeppelin/contracts/utils/Address.sol\":8202:8222  revert(errorMessage) */\n      mload(0x40)\n      0x08c379a000000000000000000000000000000000000000000000000000000000\n      dup2\n      mstore\n      0x04\n      add\n      tag_226\n      swap2\n      swap1\n      tag_227\n      jump\t// in\n    tag_226:\n      mload(0x40)\n      dup1\n      swap2\n      sub\n      swap1\n      revert\n        /* \"@openzeppelin/contracts/utils/Address.sol\":7561:8253  function verifyCallResult(... */\n    tag_221:\n      swap4\n      swap3\n      pop\n      pop\n      pop\n      jump\t// out\n        /* \"#utility.yul\":7:146   */\n    tag_229:\n        /* \"#utility.yul\":53:58   */\n      0x00\n        /* \"#utility.yul\":91:97   */\n      dup2\n        /* \"#utility.yul\":78:98   */\n      calldataload\n        /* \"#utility.yul\":69:98   */\n      swap1\n      pop\n        /* \"#utility.yul\":107:140   */\n      tag_231\n        /* \"#utility.yul\":134:139   */\n      dup2\n        /* \"#utility.yul\":107:140   */\n      tag_232\n      jump\t// in\n    tag_231:\n        /* \"#utility.yul\":7:146   */\n      swap3\n      swap2\n      pop\n      pop\n      jump\t// out\n        /* \"#utility.yul\":152:307   */\n    tag_233:\n        /* \"#utility.yul\":206:211   */\n      0x00\n        /* \"#utility.yul\":244:250   */\n      dup2\n        /* \"#utility.yul\":231:251   */\n      calldataload\n        /* \"#utility.yul\":222:251   */\n      swap1\n      pop\n        /* \"#utility.yul\":260:301   */\n      tag_235\n        /* \"#utility.yul\":295:300   */\n      dup2\n        /* \"#utility.yul\":260:301   */\n      tag_236\n      jump\t// in\n    tag_235:\n        /* \"#utility.yul\":152:307   */\n      swap3\n      swap2\n      pop\n      pop\n      jump\t// out\n        /* \"#utility.yul\":313:450   */\n    tag_237:\n        /* \"#utility.yul\":367:372   */\n      0x00\n        /* \"#utility.yul\":398:404   */\n      dup2\n        /* \"#utility.yul\":392:405   */\n      mload\n        /* \"#utility.yul\":383:405   */\n      swap1\n      pop\n        /* \"#utility.yul\":414:444   */\n      tag_239\n        /* \"#utility.yul\":438:443   */\n      dup2\n        /* \"#utility.yul\":414:444   */\n      tag_240\n      jump\t// in\n    tag_239:\n        /* \"#utility.yul\":313:450   */\n      swap3\n      swap2\n      pop\n      pop\n      jump\t// out\n        /* \"#utility.yul\":456:595   */\n    tag_241:\n        /* \"#utility.yul\":502:507   */\n      0x00\n        /* \"#utility.yul\":540:546   */\n      dup2\n        /* \"#utility.yul\":527:547   */\n      calldataload\n        /* \"#utility.yul\":518:547   */\n      swap1\n      pop\n        /* \"#utility.yul\":556:589   */\n      tag_243\n        /* \"#utility.yul\":583:588   */\n      dup2\n        /* \"#utility.yul\":556:589   */\n      tag_244\n      jump\t// in\n    tag_243:\n        /* \"#utility.yul\":456:595   */\n      swap3\n      swap2\n      pop\n      pop\n      jump\t// out\n        /* \"#utility.yul\":601:744   */\n    tag_245:\n        /* \"#utility.yul\":658:663   */\n      0x00\n        /* \"#utility.yul\":689:695   */\n      dup2\n        /* \"#utility.yul\":683:696   */\n      mload\n        /* \"#utility.yul\":674:696   */\n      swap1\n      pop\n        /* \"#utility.yul\":705:738   */\n      tag_247\n        /* \"#utility.yul\":732:737   */\n      dup2\n        /* \"#utility.yul\":705:738   */\n      tag_244\n      jump\t// in\n    tag_247:\n        /* \"#utility.yul\":601:744   */\n      swap3\n      swap2\n      pop\n      pop\n      jump\t// out\n        /* \"#utility.yul\":750:1079   */\n    tag_23:\n        /* \"#utility.yul\":809:815   */\n      0x00\n        /* \"#utility.yul\":858:860   */\n      0x20\n        /* \"#utility.yul\":846:855   */\n      dup3\n        /* \"#utility.yul\":837:844   */\n      dup5\n        /* \"#utility.yul\":833:856   */\n      sub\n        /* \"#utility.yul\":829:861   */\n      slt\n        /* \"#utility.yul\":826:945   */\n      iszero\n      tag_249\n      jumpi\n        /* \"#utility.yul\":864:943   */\n      tag_250\n      tag_251\n      jump\t// in\n    tag_250:\n        /* \"#utility.yul\":826:945   */\n    tag_249:\n        /* \"#utility.yul\":984:985   */\n      0x00\n        /* \"#utility.yul\":1009:1062   */\n      tag_252\n        /* \"#utility.yul\":1054:1061   */\n      dup5\n        /* \"#utility.yul\":1045:1051   */\n      dup3\n        /* \"#utility.yul\":1034:1043   */\n      dup6\n        /* \"#utility.yul\":1030:1052   */\n      add\n        /* \"#utility.yul\":1009:1062   */\n      tag_229\n      jump\t// in\n    tag_252:\n        /* \"#utility.yul\":999:1062   */\n      swap2\n      pop\n        /* \"#utility.yul\":955:1072   */\n      pop\n        /* \"#utility.yul\":750:1079   */\n      swap3\n      swap2\n      pop\n      pop\n      jump\t// out\n        /* \"#utility.yul\":1085:1430   */\n    tag_70:\n        /* \"#utility.yul\":1152:1158   */\n      0x00\n        /* \"#utility.yul\":1201:1203   */\n      0x20\n        /* \"#utility.yul\":1189:1198   */\n      dup3\n        /* \"#utility.yul\":1180:1187   */\n      dup5\n        /* \"#utility.yul\":1176:1199   */\n      sub\n        /* \"#utility.yul\":1172:1204   */\n      slt\n        /* \"#utility.yul\":1169:1288   */\n      iszero\n      tag_254\n      jumpi\n        /* \"#utility.yul\":1207:1286   */\n      tag_255\n      tag_251\n      jump\t// in\n    tag_255:\n        /* \"#utility.yul\":1169:1288   */\n    tag_254:\n        /* \"#utility.yul\":1327:1328   */\n      0x00\n        /* \"#utility.yul\":1352:1413   */\n      tag_256\n        /* \"#utility.yul\":1405:1412   */\n      dup5\n        /* \"#utility.yul\":1396:1402   */\n      dup3\n        /* \"#utility.yul\":1385:1394   */\n      dup6\n        /* \"#utility.yul\":1381:1403   */\n      add\n        /* \"#utility.yul\":1352:1413   */\n      tag_233\n      jump\t// in\n    tag_256:\n        /* \"#utility.yul\":1342:1413   */\n      swap2\n      pop\n        /* \"#utility.yul\":1298:1423   */\n      pop\n        /* \"#utility.yul\":1085:1430   */\n      swap3\n      swap2\n      pop\n      pop\n      jump\t// out\n        /* \"#utility.yul\":1436:1781   */\n    tag_197:\n        /* \"#utility.yul\":1503:1509   */\n      0x00\n        /* \"#utility.yul\":1552:1554   */\n      0x20\n        /* \"#utility.yul\":1540:1549   */\n      dup3\n        /* \"#utility.yul\":1531:1538   */\n      dup5\n        /* \"#utility.yul\":1527:1550   */\n      sub\n        /* \"#utility.yul\":1523:1555   */\n      slt\n        /* \"#utility.yul\":1520:1639   */\n      iszero\n      tag_258\n      jumpi\n        /* \"#utility.yul\":1558:1637   */\n      tag_259\n      tag_251\n      jump\t// in\n    tag_259:\n        /* \"#utility.yul\":1520:1639   */\n    tag_258:\n        /* \"#utility.yul\":1678:1679   */\n      0x00\n        /* \"#utility.yul\":1703:1764   */\n      tag_260\n        /* \"#utility.yul\":1756:1763   */\n      dup5\n        /* \"#utility.yul\":1747:1753   */\n      dup3\n        /* \"#utility.yul\":1736:1745   */\n      dup6\n        /* \"#utility.yul\":1732:1754   */\n      add\n        /* \"#utility.yul\":1703:1764   */\n      tag_237\n      jump\t// in\n    tag_260:\n        /* \"#utility.yul\":1693:1764   */\n      swap2\n      pop\n        /* \"#utility.yul\":1649:1774   */\n      pop\n        /* \"#utility.yul\":1436:1781   */\n      swap3\n      swap2\n      pop\n      pop\n      jump\t// out\n        /* \"#utility.yul\":1787:2116   */\n    tag_30:\n        /* \"#utility.yul\":1846:1852   */\n      0x00\n        /* \"#utility.yul\":1895:1897   */\n      0x20\n        /* \"#utility.yul\":1883:1892   */\n      dup3\n        /* \"#utility.yul\":1874:1881   */\n      dup5\n        /* \"#utility.yul\":1870:1893   */\n      sub\n        /* \"#utility.yul\":1866:1898   */\n      slt\n        /* \"#utility.yul\":1863:1982   */\n      iszero\n      tag_262\n      jumpi\n        /* \"#utility.yul\":1901:1980   */\n      tag_263\n      tag_251\n      jump\t// in\n    tag_263:\n        /* \"#utility.yul\":1863:1982   */\n    tag_262:\n        /* \"#utility.yul\":2021:2022   */\n      0x00\n        /* \"#utility.yul\":2046:2099   */\n      tag_264\n        /* \"#utility.yul\":2091:2098   */\n      dup5\n        /* \"#utility.yul\":2082:2088   */\n      dup3\n        /* \"#utility.yul\":2071:2080   */\n      dup6\n        /* \"#utility.yul\":2067:2089   */\n      add\n        /* \"#utility.yul\":2046:2099   */\n      tag_241\n      jump\t// in\n    tag_264:\n        /* \"#utility.yul\":2036:2099   */\n      swap2\n      pop\n        /* \"#utility.yul\":1992:2109   */\n      pop\n        /* \"#utility.yul\":1787:2116   */\n      swap3\n      swap2\n      pop\n      pop\n      jump\t// out\n        /* \"#utility.yul\":2122:2473   */\n    tag_92:\n        /* \"#utility.yul\":2192:2198   */\n      0x00\n        /* \"#utility.yul\":2241:2243   */\n      0x20\n        /* \"#utility.yul\":2229:2238   */\n      dup3\n        /* \"#utility.yul\":2220:2227   */\n      dup5\n        /* \"#utility.yul\":2216:2239   */\n      sub\n        /* \"#utility.yul\":2212:2244   */\n      slt\n        /* \"#utility.yul\":2209:2328   */\n      iszero\n      tag_266\n      jumpi\n        /* \"#utility.yul\":2247:2326   */\n      tag_267\n      tag_251\n      jump\t// in\n    tag_267:\n        /* \"#utility.yul\":2209:2328   */\n    tag_266:\n        /* \"#utility.yul\":2367:2368   */\n      0x00\n        /* \"#utility.yul\":2392:2456   */\n      tag_268\n        /* \"#utility.yul\":2448:2455   */\n      dup5\n        /* \"#utility.yul\":2439:2445   */\n      dup3\n        /* \"#utility.yul\":2428:2437   */\n      dup6\n        /* \"#utility.yul\":2424:2446   */\n      add\n        /* \"#utility.yul\":2392:2456   */\n      tag_245\n      jump\t// in\n    tag_268:\n        /* \"#utility.yul\":2382:2456   */\n      swap2\n      pop\n        /* \"#utility.yul\":2338:2466   */\n      pop\n        /* \"#utility.yul\":2122:2473   */\n      swap3\n      swap2\n      pop\n      pop\n      jump\t// out\n        /* \"#utility.yul\":2479:2597   */\n    tag_269:\n        /* \"#utility.yul\":2566:2590   */\n      tag_271\n        /* \"#utility.yul\":2584:2589   */\n      dup2\n        /* \"#utility.yul\":2566:2590   */\n      tag_272\n      jump\t// in\n    tag_271:\n        /* \"#utility.yul\":2561:2564   */\n      dup3\n        /* \"#utility.yul\":2554:2591   */\n      mstore\n        /* \"#utility.yul\":2479:2597   */\n      pop\n      pop\n      jump\t// out\n        /* \"#utility.yul\":2603:2712   */\n    tag_273:\n        /* \"#utility.yul\":2684:2705   */\n      tag_275\n        /* \"#utility.yul\":2699:2704   */\n      dup2\n        /* \"#utility.yul\":2684:2705   */\n      tag_276\n      jump\t// in\n    tag_275:\n        /* \"#utility.yul\":2679:2682   */\n      dup3\n        /* \"#utility.yul\":2672:2706   */\n      mstore\n        /* \"#utility.yul\":2603:2712   */\n      pop\n      pop\n      jump\t// out\n        /* \"#utility.yul\":2718:3091   */\n    tag_277:\n        /* \"#utility.yul\":2822:2825   */\n      0x00\n        /* \"#utility.yul\":2850:2888   */\n      tag_279\n        /* \"#utility.yul\":2882:2887   */\n      dup3\n        /* \"#utility.yul\":2850:2888   */\n      tag_280\n      jump\t// in\n    tag_279:\n        /* \"#utility.yul\":2904:2992   */\n      tag_281\n        /* \"#utility.yul\":2985:2991   */\n      dup2\n        /* \"#utility.yul\":2980:2983   */\n      dup6\n        /* \"#utility.yul\":2904:2992   */\n      tag_282\n      jump\t// in\n    tag_281:\n        /* \"#utility.yul\":2897:2992   */\n      swap4\n      pop\n        /* \"#utility.yul\":3001:3053   */\n      tag_283\n        /* \"#utility.yul\":3046:3052   */\n      dup2\n        /* \"#utility.yul\":3041:3044   */\n      dup6\n        /* \"#utility.yul\":3034:3038   */\n      0x20\n        /* \"#utility.yul\":3027:3032   */\n      dup7\n        /* \"#utility.yul\":3023:3039   */\n      add\n        /* \"#utility.yul\":3001:3053   */\n      tag_284\n      jump\t// in\n    tag_283:\n        /* \"#utility.yul\":3078:3084   */\n      dup1\n        /* \"#utility.yul\":3073:3076   */\n      dup5\n        /* \"#utility.yul\":3069:3085   */\n      add\n        /* \"#utility.yul\":3062:3085   */\n      swap2\n      pop\n        /* \"#utility.yul\":2826:3091   */\n      pop\n        /* \"#utility.yul\":2718:3091   */\n      swap3\n      swap2\n      pop\n      pop\n      jump\t// out\n        /* \"#utility.yul\":3097:3461   */\n    tag_285:\n        /* \"#utility.yul\":3185:3188   */\n      0x00\n        /* \"#utility.yul\":3213:3252   */\n      tag_287\n        /* \"#utility.yul\":3246:3251   */\n      dup3\n        /* \"#utility.yul\":3213:3252   */\n      tag_288\n      jump\t// in\n    tag_287:\n        /* \"#utility.yul\":3268:3339   */\n      tag_289\n        /* \"#utility.yul\":3332:3338   */\n      dup2\n        /* \"#utility.yul\":3327:3330   */\n      dup6\n        /* \"#utility.yul\":3268:3339   */\n      tag_290\n      jump\t// in\n    tag_289:\n        /* \"#utility.yul\":3261:3339   */\n      swap4\n      pop\n        /* \"#utility.yul\":3348:3400   */\n      tag_291\n        /* \"#utility.yul\":3393:3399   */\n      dup2\n        /* \"#utility.yul\":3388:3391   */\n      dup6\n        /* \"#utility.yul\":3381:3385   */\n      0x20\n        /* \"#utility.yul\":3374:3379   */\n      dup7\n        /* \"#utility.yul\":3370:3386   */\n      add\n        /* \"#utility.yul\":3348:3400   */\n      tag_284\n      jump\t// in\n    tag_291:\n        /* \"#utility.yul\":3425:3454   */\n      tag_292\n        /* \"#utility.yul\":3447:3453   */\n      dup2\n        /* \"#utility.yul\":3425:3454   */\n      tag_293\n      jump\t// in\n    tag_292:\n        /* \"#utility.yul\":3420:3423   */\n      dup5\n        /* \"#utility.yul\":3416:3455   */\n      add\n        /* \"#utility.yul\":3409:3455   */\n      swap2\n      pop\n        /* \"#utility.yul\":3189:3461   */\n      pop\n        /* \"#utility.yul\":3097:3461   */\n      swap3\n      swap2\n      pop\n      pop\n      jump\t// out\n        /* \"#utility.yul\":3467:3833   */\n    tag_294:\n        /* \"#utility.yul\":3609:3612   */\n      0x00\n        /* \"#utility.yul\":3630:3697   */\n      tag_296\n        /* \"#utility.yul\":3694:3696   */\n      0x26\n        /* \"#utility.yul\":3689:3692   */\n      dup4\n        /* \"#utility.yul\":3630:3697   */\n      tag_290\n      jump\t// in\n    tag_296:\n        /* \"#utility.yul\":3623:3697   */\n      swap2\n      pop\n        /* \"#utility.yul\":3706:3799   */\n      tag_297\n        /* \"#utility.yul\":3795:3798   */\n      dup3\n        /* \"#utility.yul\":3706:3799   */\n      tag_298\n      jump\t// in\n    tag_297:\n        /* \"#utility.yul\":3824:3826   */\n      0x40\n        /* \"#utility.yul\":3819:3822   */\n      dup3\n        /* \"#utility.yul\":3815:3827   */\n      add\n        /* \"#utility.yul\":3808:3827   */\n      swap1\n      pop\n        /* \"#utility.yul\":3467:3833   */\n      swap2\n      swap1\n      pop\n      jump\t// out\n        /* \"#utility.yul\":3839:4205   */\n    tag_299:\n        /* \"#utility.yul\":3981:3984   */\n      0x00\n        /* \"#utility.yul\":4002:4069   */\n      tag_301\n        /* \"#utility.yul\":4066:4068   */\n      0x0e\n        /* \"#utility.yul\":4061:4064   */\n      dup4\n        /* \"#utility.yul\":4002:4069   */\n      tag_290\n      jump\t// in\n    tag_301:\n        /* \"#utility.yul\":3995:4069   */\n      swap2\n      pop\n        /* \"#utility.yul\":4078:4171   */\n      tag_302\n        /* \"#utility.yul\":4167:4170   */\n      dup3\n        /* \"#utility.yul\":4078:4171   */\n      tag_303\n      jump\t// in\n    tag_302:\n        /* \"#utility.yul\":4196:4198   */\n      0x20\n        /* \"#utility.yul\":4191:4194   */\n      dup3\n        /* \"#utility.yul\":4187:4199   */\n      add\n        /* \"#utility.yul\":4180:4199   */\n      swap1\n      pop\n        /* \"#utility.yul\":3839:4205   */\n      swap2\n      swap1\n      pop\n      jump\t// out\n        /* \"#utility.yul\":4211:4577   */\n    tag_304:\n        /* \"#utility.yul\":4353:4356   */\n      0x00\n        /* \"#utility.yul\":4374:4441   */\n      tag_306\n        /* \"#utility.yul\":4438:4440   */\n      0x26\n        /* \"#utility.yul\":4433:4436   */\n      dup4\n        /* \"#utility.yul\":4374:4441   */\n      tag_290\n      jump\t// in\n    tag_306:\n        /* \"#utility.yul\":4367:4441   */\n      swap2\n      pop\n        /* \"#utility.yul\":4450:4543   */\n      tag_307\n        /* \"#utility.yul\":4539:4542   */\n      dup3\n        /* \"#utility.yul\":4450:4543   */\n      tag_308\n      jump\t// in\n    tag_307:\n        /* \"#utility.yul\":4568:4570   */\n      0x40\n        /* \"#utility.yul\":4563:4566   */\n      dup3\n        /* \"#utility.yul\":4559:4571   */\n      add\n        /* \"#utility.yul\":4552:4571   */\n      swap1\n      pop\n        /* \"#utility.yul\":4211:4577   */\n      swap2\n      swap1\n      pop\n      jump\t// out\n        /* \"#utility.yul\":4583:4949   */\n    tag_309:\n        /* \"#utility.yul\":4725:4728   */\n      0x00\n        /* \"#utility.yul\":4746:4813   */\n      tag_311\n        /* \"#utility.yul\":4810:4812   */\n      0x20\n        /* \"#utility.yul\":4805:4808   */\n      dup4\n        /* \"#utility.yul\":4746:4813   */\n      tag_290\n      jump\t// in\n    tag_311:\n        /* \"#utility.yul\":4739:4813   */\n      swap2\n      pop\n        /* \"#utility.yul\":4822:4915   */\n      tag_312\n        /* \"#utility.yul\":4911:4914   */\n      dup3\n        /* \"#utility.yul\":4822:4915   */\n      tag_313\n      jump\t// in\n    tag_312:\n        /* \"#utility.yul\":4940:4942   */\n      0x20\n        /* \"#utility.yul\":4935:4938   */\n      dup3\n        /* \"#utility.yul\":4931:4943   */\n      add\n        /* \"#utility.yul\":4924:4943   */\n      swap1\n      pop\n        /* \"#utility.yul\":4583:4949   */\n      swap2\n      swap1\n      pop\n      jump\t// out\n        /* \"#utility.yul\":4955:5321   */\n    tag_314:\n        /* \"#utility.yul\":5097:5100   */\n      0x00\n        /* \"#utility.yul\":5118:5185   */\n      tag_316\n        /* \"#utility.yul\":5182:5184   */\n      0x17\n        /* \"#utility.yul\":5177:5180   */\n      dup4\n        /* \"#utility.yul\":5118:5185   */\n      tag_290\n      jump\t// in\n    tag_316:\n        /* \"#utility.yul\":5111:5185   */\n      swap2\n      pop\n        /* \"#utility.yul\":5194:5287   */\n      tag_317\n        /* \"#utility.yul\":5283:5286   */\n      dup3\n        /* \"#utility.yul\":5194:5287   */\n      tag_318\n      jump\t// in\n    tag_317:\n        /* \"#utility.yul\":5312:5314   */\n      0x20\n        /* \"#utility.yul\":5307:5310   */\n      dup3\n        /* \"#utility.yul\":5303:5315   */\n      add\n        /* \"#utility.yul\":5296:5315   */\n      swap1\n      pop\n        /* \"#utility.yul\":4955:5321   */\n      swap2\n      swap1\n      pop\n      jump\t// out\n        /* \"#utility.yul\":5327:5693   */\n    tag_319:\n        /* \"#utility.yul\":5469:5472   */\n      0x00\n        /* \"#utility.yul\":5490:5557   */\n      tag_321\n        /* \"#utility.yul\":5554:5556   */\n      0x11\n        /* \"#utility.yul\":5549:5552   */\n      dup4\n        /* \"#utility.yul\":5490:5557   */\n      tag_290\n      jump\t// in\n    tag_321:\n        /* \"#utility.yul\":5483:5557   */\n      swap2\n      pop\n        /* \"#utility.yul\":5566:5659   */\n      tag_322\n        /* \"#utility.yul\":5655:5658   */\n      dup3\n        /* \"#utility.yul\":5566:5659   */\n      tag_323\n      jump\t// in\n    tag_322:\n        /* \"#utility.yul\":5684:5686   */\n      0x20\n        /* \"#utility.yul\":5679:5682   */\n      dup3\n        /* \"#utility.yul\":5675:5687   */\n      add\n        /* \"#utility.yul\":5668:5687   */\n      swap1\n      pop\n        /* \"#utility.yul\":5327:5693   */\n      swap2\n      swap1\n      pop\n      jump\t// out\n        /* \"#utility.yul\":5699:6065   */\n    tag_324:\n        /* \"#utility.yul\":5841:5844   */\n      0x00\n        /* \"#utility.yul\":5862:5929   */\n      tag_326\n        /* \"#utility.yul\":5926:5928   */\n      0x1d\n        /* \"#utility.yul\":5921:5924   */\n      dup4\n        /* \"#utility.yul\":5862:5929   */\n      tag_290\n      jump\t// in\n    tag_326:\n        /* \"#utility.yul\":5855:5929   */\n      swap2\n      pop\n        /* \"#utility.yul\":5938:6031   */\n      tag_327\n        /* \"#utility.yul\":6027:6030   */\n      dup3\n        /* \"#utility.yul\":5938:6031   */\n      tag_328\n      jump\t// in\n    tag_327:\n        /* \"#utility.yul\":6056:6058   */\n      0x20\n        /* \"#utility.yul\":6051:6054   */\n      dup3\n        /* \"#utility.yul\":6047:6059   */\n      add\n        /* \"#utility.yul\":6040:6059   */\n      swap1\n      pop\n        /* \"#utility.yul\":5699:6065   */\n      swap2\n      swap1\n      pop\n      jump\t// out\n        /* \"#utility.yul\":6071:6437   */\n    tag_329:\n        /* \"#utility.yul\":6213:6216   */\n      0x00\n        /* \"#utility.yul\":6234:6301   */\n      tag_331\n        /* \"#utility.yul\":6298:6300   */\n      0x1a\n        /* \"#utility.yul\":6293:6296   */\n      dup4\n        /* \"#utility.yul\":6234:6301   */\n      tag_290\n      jump\t// in\n    tag_331:\n        /* \"#utility.yul\":6227:6301   */\n      swap2\n      pop\n        /* \"#utility.yul\":6310:6403   */\n      tag_332\n        /* \"#utility.yul\":6399:6402   */\n      dup3\n        /* \"#utility.yul\":6310:6403   */\n      tag_333\n      jump\t// in\n    tag_332:\n        /* \"#utility.yul\":6428:6430   */\n      0x20\n        /* \"#utility.yul\":6423:6426   */\n      dup3\n        /* \"#utility.yul\":6419:6431   */\n      add\n        /* \"#utility.yul\":6412:6431   */\n      swap1\n      pop\n        /* \"#utility.yul\":6071:6437   */\n      swap2\n      swap1\n      pop\n      jump\t// out\n        /* \"#utility.yul\":6443:6809   */\n    tag_334:\n        /* \"#utility.yul\":6585:6588   */\n      0x00\n        /* \"#utility.yul\":6606:6673   */\n      tag_336\n        /* \"#utility.yul\":6670:6672   */\n      0x2a\n        /* \"#utility.yul\":6665:6668   */\n      dup4\n        /* \"#utility.yul\":6606:6673   */\n      tag_290\n      jump\t// in\n    tag_336:\n        /* \"#utility.yul\":6599:6673   */\n      swap2\n      pop\n        /* \"#utility.yul\":6682:6775   */\n      tag_337\n        /* \"#utility.yul\":6771:6774   */\n      dup3\n        /* \"#utility.yul\":6682:6775   */\n      tag_338\n      jump\t// in\n    tag_337:\n        /* \"#utility.yul\":6800:6802   */\n      0x40\n        /* \"#utility.yul\":6795:6798   */\n      dup3\n        /* \"#utility.yul\":6791:6803   */\n      add\n        /* \"#utility.yul\":6784:6803   */\n      swap1\n      pop\n        /* \"#utility.yul\":6443:6809   */\n      swap2\n      swap1\n      pop\n      jump\t// out\n        /* \"#utility.yul\":6815:6933   */\n    tag_339:\n        /* \"#utility.yul\":6902:6926   */\n      tag_341\n        /* \"#utility.yul\":6920:6925   */\n      dup2\n        /* \"#utility.yul\":6902:6926   */\n      tag_342\n      jump\t// in\n    tag_341:\n        /* \"#utility.yul\":6897:6900   */\n      dup3\n        /* \"#utility.yul\":6890:6927   */\n      mstore\n        /* \"#utility.yul\":6815:6933   */\n      pop\n      pop\n      jump\t// out\n        /* \"#utility.yul\":6939:7210   */\n    tag_214:\n        /* \"#utility.yul\":7069:7072   */\n      0x00\n        /* \"#utility.yul\":7091:7184   */\n      tag_344\n        /* \"#utility.yul\":7180:7183   */\n      dup3\n        /* \"#utility.yul\":7171:7177   */\n      dup5\n        /* \"#utility.yul\":7091:7184   */\n      tag_277\n      jump\t// in\n    tag_344:\n        /* \"#utility.yul\":7084:7184   */\n      swap2\n      pop\n        /* \"#utility.yul\":7201:7204   */\n      dup2\n        /* \"#utility.yul\":7194:7204   */\n      swap1\n      pop\n        /* \"#utility.yul\":6939:7210   */\n      swap3\n      swap2\n      pop\n      pop\n      jump\t// out\n        /* \"#utility.yul\":7216:7438   */\n    tag_39:\n        /* \"#utility.yul\":7309:7313   */\n      0x00\n        /* \"#utility.yul\":7347:7349   */\n      0x20\n        /* \"#utility.yul\":7336:7345   */\n      dup3\n        /* \"#utility.yul\":7332:7350   */\n      add\n        /* \"#utility.yul\":7324:7350   */\n      swap1\n      pop\n        /* \"#utility.yul\":7360:7431   */\n      tag_346\n        /* \"#utility.yul\":7428:7429   */\n      0x00\n        /* \"#utility.yul\":7417:7426   */\n      dup4\n        /* \"#utility.yul\":7413:7430   */\n      add\n        /* \"#utility.yul\":7404:7410   */\n      dup5\n        /* \"#utility.yul\":7360:7431   */\n      tag_269\n      jump\t// in\n    tag_346:\n        /* \"#utility.yul\":7216:7438   */\n      swap3\n      swap2\n      pop\n      pop\n      jump\t// out\n        /* \"#utility.yul\":7444:7886   */\n    tag_191:\n        /* \"#utility.yul\":7593:7597   */\n      0x00\n        /* \"#utility.yul\":7631:7633   */\n      0x60\n        /* \"#utility.yul\":7620:7629   */\n      dup3\n        /* \"#utility.yul\":7616:7634   */\n      add\n        /* \"#utility.yul\":7608:7634   */\n      swap1\n      pop\n        /* \"#utility.yul\":7644:7715   */\n      tag_348\n        /* \"#utility.yul\":7712:7713   */\n      0x00\n        /* \"#utility.yul\":7701:7710   */\n      dup4\n        /* \"#utility.yul\":7697:7714   */\n      add\n        /* \"#utility.yul\":7688:7694   */\n      dup7\n        /* \"#utility.yul\":7644:7715   */\n      tag_269\n      jump\t// in\n    tag_348:\n        /* \"#utility.yul\":7725:7797   */\n      tag_349\n        /* \"#utility.yul\":7793:7795   */\n      0x20\n        /* \"#utility.yul\":7782:7791   */\n      dup4\n        /* \"#utility.yul\":7778:7796   */\n      add\n        /* \"#utility.yul\":7769:7775   */\n      dup6\n        /* \"#utility.yul\":7725:7797   */\n      tag_269\n      jump\t// in\n    tag_349:\n        /* \"#utility.yul\":7807:7879   */\n      tag_350\n        /* \"#utility.yul\":7875:7877   */\n      0x40\n        /* \"#utility.yul\":7864:7873   */\n      dup4\n        /* \"#utility.yul\":7860:7878   */\n      add\n        /* \"#utility.yul\":7851:7857   */\n      dup5\n        /* \"#utility.yul\":7807:7879   */\n      tag_339\n      jump\t// in\n    tag_350:\n        /* \"#utility.yul\":7444:7886   */\n      swap5\n      swap4\n      pop\n      pop\n      pop\n      pop\n      jump\t// out\n        /* \"#utility.yul\":7892:8224   */\n    tag_185:\n        /* \"#utility.yul\":8013:8017   */\n      0x00\n        /* \"#utility.yul\":8051:8053   */\n      0x40\n        /* \"#utility.yul\":8040:8049   */\n      dup3\n        /* \"#utility.yul\":8036:8054   */\n      add\n        /* \"#utility.yul\":8028:8054   */\n      swap1\n      pop\n        /* \"#utility.yul\":8064:8135   */\n      tag_352\n        /* \"#utility.yul\":8132:8133   */\n      0x00\n        /* \"#utility.yul\":8121:8130   */\n      dup4\n        /* \"#utility.yul\":8117:8134   */\n      add\n        /* \"#utility.yul\":8108:8114   */\n      dup6\n        /* \"#utility.yul\":8064:8135   */\n      tag_269\n      jump\t// in\n    tag_352:\n        /* \"#utility.yul\":8145:8217   */\n      tag_353\n        /* \"#utility.yul\":8213:8215   */\n      0x20\n        /* \"#utility.yul\":8202:8211   */\n      dup4\n        /* \"#utility.yul\":8198:8216   */\n      add\n        /* \"#utility.yul\":8189:8195   */\n      dup5\n        /* \"#utility.yul\":8145:8217   */\n      tag_339\n      jump\t// in\n    tag_353:\n        /* \"#utility.yul\":7892:8224   */\n      swap4\n      swap3\n      pop\n      pop\n      pop\n      jump\t// out\n        /* \"#utility.yul\":8230:8440   */\n    tag_73:\n        /* \"#utility.yul\":8317:8321   */\n      0x00\n        /* \"#utility.yul\":8355:8357   */\n      0x20\n        /* \"#utility.yul\":8344:8353   */\n      dup3\n        /* \"#utility.yul\":8340:8358   */\n      add\n        /* \"#utility.yul\":8332:8358   */\n      swap1\n      pop\n        /* \"#utility.yul\":8368:8433   */\n      tag_355\n        /* \"#utility.yul\":8430:8431   */\n      0x00\n        /* \"#utility.yul\":8419:8428   */\n      dup4\n        /* \"#utility.yul\":8415:8432   */\n      add\n        /* \"#utility.yul\":8406:8412   */\n      dup5\n        /* \"#utility.yul\":8368:8433   */\n      tag_273\n      jump\t// in\n    tag_355:\n        /* \"#utility.yul\":8230:8440   */\n      swap3\n      swap2\n      pop\n      pop\n      jump\t// out\n        /* \"#utility.yul\":8446:8759   */\n    tag_227:\n        /* \"#utility.yul\":8559:8563   */\n      0x00\n        /* \"#utility.yul\":8597:8599   */\n      0x20\n        /* \"#utility.yul\":8586:8595   */\n      dup3\n        /* \"#utility.yul\":8582:8600   */\n      add\n        /* \"#utility.yul\":8574:8600   */\n      swap1\n      pop\n        /* \"#utility.yul\":8646:8655   */\n      dup2\n        /* \"#utility.yul\":8640:8644   */\n      dup2\n        /* \"#utility.yul\":8636:8656   */\n      sub\n        /* \"#utility.yul\":8632:8633   */\n      0x00\n        /* \"#utility.yul\":8621:8630   */\n      dup4\n        /* \"#utility.yul\":8617:8634   */\n      add\n        /* \"#utility.yul\":8610:8657   */\n      mstore\n        /* \"#utility.yul\":8674:8752   */\n      tag_357\n        /* \"#utility.yul\":8747:8751   */\n      dup2\n        /* \"#utility.yul\":8738:8744   */\n      dup5\n        /* \"#utility.yul\":8674:8752   */\n      tag_285\n      jump\t// in\n    tag_357:\n        /* \"#utility.yul\":8666:8752   */\n      swap1\n      pop\n        /* \"#utility.yul\":8446:8759   */\n      swap3\n      swap2\n      pop\n      pop\n      jump\t// out\n        /* \"#utility.yul\":8765:9184   */\n    tag_179:\n        /* \"#utility.yul\":8931:8935   */\n      0x00\n        /* \"#utility.yul\":8969:8971   */\n      0x20\n        /* \"#utility.yul\":8958:8967   */\n      dup3\n        /* \"#utility.yul\":8954:8972   */\n      add\n        /* \"#utility.yul\":8946:8972   */\n      swap1\n      pop\n        /* \"#utility.yul\":9018:9027   */\n      dup2\n        /* \"#utility.yul\":9012:9016   */\n      dup2\n        /* \"#utility.yul\":9008:9028   */\n      sub\n        /* \"#utility.yul\":9004:9005   */\n      0x00\n        /* \"#utility.yul\":8993:9002   */\n      dup4\n        /* \"#utility.yul\":8989:9006   */\n      add\n        /* \"#utility.yul\":8982:9029   */\n      mstore\n        /* \"#utility.yul\":9046:9177   */\n      tag_359\n        /* \"#utility.yul\":9172:9176   */\n      dup2\n        /* \"#utility.yul\":9046:9177   */\n      tag_294\n      jump\t// in\n    tag_359:\n        /* \"#utility.yul\":9038:9177   */\n      swap1\n      pop\n        /* \"#utility.yul\":8765:9184   */\n      swap2\n      swap1\n      pop\n      jump\t// out\n        /* \"#utility.yul\":9190:9609   */\n    tag_162:\n        /* \"#utility.yul\":9356:9360   */\n      0x00\n        /* \"#utility.yul\":9394:9396   */\n      0x20\n        /* \"#utility.yul\":9383:9392   */\n      dup3\n        /* \"#utility.yul\":9379:9397   */\n      add\n        /* \"#utility.yul\":9371:9397   */\n      swap1\n      pop\n        /* \"#utility.yul\":9443:9452   */\n      dup2\n        /* \"#utility.yul\":9437:9441   */\n      dup2\n        /* \"#utility.yul\":9433:9453   */\n      sub\n        /* \"#utility.yul\":9429:9430   */\n      0x00\n        /* \"#utility.yul\":9418:9427   */\n      dup4\n        /* \"#utility.yul\":9414:9431   */\n      add\n        /* \"#utility.yul\":9407:9454   */\n      mstore\n        /* \"#utility.yul\":9471:9602   */\n      tag_361\n        /* \"#utility.yul\":9597:9601   */\n      dup2\n        /* \"#utility.yul\":9471:9602   */\n      tag_299\n      jump\t// in\n    tag_361:\n        /* \"#utility.yul\":9463:9602   */\n      swap1\n      pop\n        /* \"#utility.yul\":9190:9609   */\n      swap2\n      swap1\n      pop\n      jump\t// out\n        /* \"#utility.yul\":9615:10034   */\n    tag_207:\n        /* \"#utility.yul\":9781:9785   */\n      0x00\n        /* \"#utility.yul\":9819:9821   */\n      0x20\n        /* \"#utility.yul\":9808:9817   */\n      dup3\n        /* \"#utility.yul\":9804:9822   */\n      add\n        /* \"#utility.yul\":9796:9822   */\n      swap1\n      pop\n        /* \"#utility.yul\":9868:9877   */\n      dup2\n        /* \"#utility.yul\":9862:9866   */\n      dup2\n        /* \"#utility.yul\":9858:9878   */\n      sub\n        /* \"#utility.yul\":9854:9855   */\n      0x00\n        /* \"#utility.yul\":9843:9852   */\n      dup4\n        /* \"#utility.yul\":9839:9856   */\n      add\n        /* \"#utility.yul\":9832:9879   */\n      mstore\n        /* \"#utility.yul\":9896:10027   */\n      tag_363\n        /* \"#utility.yul\":10022:10026   */\n      dup2\n        /* \"#utility.yul\":9896:10027   */\n      tag_304\n      jump\t// in\n    tag_363:\n        /* \"#utility.yul\":9888:10027   */\n      swap1\n      pop\n        /* \"#utility.yul\":9615:10034   */\n      swap2\n      swap1\n      pop\n      jump\t// out\n        /* \"#utility.yul\":10040:10459   */\n    tag_99:\n        /* \"#utility.yul\":10206:10210   */\n      0x00\n        /* \"#utility.yul\":10244:10246   */\n      0x20\n        /* \"#utility.yul\":10233:10242   */\n      dup3\n        /* \"#utility.yul\":10229:10247   */\n      add\n        /* \"#utility.yul\":10221:10247   */\n      swap1\n      pop\n        /* \"#utility.yul\":10293:10302   */\n      dup2\n        /* \"#utility.yul\":10287:10291   */\n      dup2\n        /* \"#utility.yul\":10283:10303   */\n      sub\n        /* \"#utility.yul\":10279:10280   */\n      0x00\n        /* \"#utility.yul\":10268:10277   */\n      dup4\n        /* \"#utility.yul\":10264:10281   */\n      add\n        /* \"#utility.yul\":10257:10304   */\n      mstore\n        /* \"#utility.yul\":10321:10452   */\n      tag_365\n        /* \"#utility.yul\":10447:10451   */\n      dup2\n        /* \"#utility.yul\":10321:10452   */\n      tag_309\n      jump\t// in\n    tag_365:\n        /* \"#utility.yul\":10313:10452   */\n      swap1\n      pop\n        /* \"#utility.yul\":10040:10459   */\n      swap2\n      swap1\n      pop\n      jump\t// out\n        /* \"#utility.yul\":10465:10884   */\n    tag_159:\n        /* \"#utility.yul\":10631:10635   */\n      0x00\n        /* \"#utility.yul\":10669:10671   */\n      0x20\n        /* \"#utility.yul\":10658:10667   */\n      dup3\n        /* \"#utility.yul\":10654:10672   */\n      add\n        /* \"#utility.yul\":10646:10672   */\n      swap1\n      pop\n        /* \"#utility.yul\":10718:10727   */\n      dup2\n        /* \"#utility.yul\":10712:10716   */\n      dup2\n        /* \"#utility.yul\":10708:10728   */\n      sub\n        /* \"#utility.yul\":10704:10705   */\n      0x00\n        /* \"#utility.yul\":10693:10702   */\n      dup4\n        /* \"#utility.yul\":10689:10706   */\n      add\n        /* \"#utility.yul\":10682:10729   */\n      mstore\n        /* \"#utility.yul\":10746:10877   */\n      tag_367\n        /* \"#utility.yul\":10872:10876   */\n      dup2\n        /* \"#utility.yul\":10746:10877   */\n      tag_314\n      jump\t// in\n    tag_367:\n        /* \"#utility.yul\":10738:10877   */\n      swap1\n      pop\n        /* \"#utility.yul\":10465:10884   */\n      swap2\n      swap1\n      pop\n      jump\t// out\n        /* \"#utility.yul\":10890:11309   */\n    tag_109:\n        /* \"#utility.yul\":11056:11060   */\n      0x00\n        /* \"#utility.yul\":11094:11096   */\n      0x20\n        /* \"#utility.yul\":11083:11092   */\n      dup3\n        /* \"#utility.yul\":11079:11097   */\n      add\n        /* \"#utility.yul\":11071:11097   */\n      swap1\n      pop\n        /* \"#utility.yul\":11143:11152   */\n      dup2\n        /* \"#utility.yul\":11137:11141   */\n      dup2\n        /* \"#utility.yul\":11133:11153   */\n      sub\n        /* \"#utility.yul\":11129:11130   */\n      0x00\n        /* \"#utility.yul\":11118:11127   */\n      dup4\n        /* \"#utility.yul\":11114:11131   */\n      add\n        /* \"#utility.yul\":11107:11154   */\n      mstore\n        /* \"#utility.yul\":11171:11302   */\n      tag_369\n        /* \"#utility.yul\":11297:11301   */\n      dup2\n        /* \"#utility.yul\":11171:11302   */\n      tag_319\n      jump\t// in\n    tag_369:\n        /* \"#utility.yul\":11163:11302   */\n      swap1\n      pop\n        /* \"#utility.yul\":10890:11309   */\n      swap2\n      swap1\n      pop\n      jump\t// out\n        /* \"#utility.yul\":11315:11734   */\n    tag_212:\n        /* \"#utility.yul\":11481:11485   */\n      0x00\n        /* \"#utility.yul\":11519:11521   */\n      0x20\n        /* \"#utility.yul\":11508:11517   */\n      dup3\n        /* \"#utility.yul\":11504:11522   */\n      add\n        /* \"#utility.yul\":11496:11522   */\n      swap1\n      pop\n        /* \"#utility.yul\":11568:11577   */\n      dup2\n        /* \"#utility.yul\":11562:11566   */\n      dup2\n        /* \"#utility.yul\":11558:11578   */\n      sub\n        /* \"#utility.yul\":11554:11555   */\n      0x00\n        /* \"#utility.yul\":11543:11552   */\n      dup4\n        /* \"#utility.yul\":11539:11556   */\n      add\n        /* \"#utility.yul\":11532:11579   */\n      mstore\n        /* \"#utility.yul\":11596:11727   */\n      tag_371\n        /* \"#utility.yul\":11722:11726   */\n      dup2\n        /* \"#utility.yul\":11596:11727   */\n      tag_324\n      jump\t// in\n    tag_371:\n        /* \"#utility.yul\":11588:11727   */\n      swap1\n      pop\n        /* \"#utility.yul\":11315:11734   */\n      swap2\n      swap1\n      pop\n      jump\t// out\n        /* \"#utility.yul\":11740:12159   */\n    tag_153:\n        /* \"#utility.yul\":11906:11910   */\n      0x00\n        /* \"#utility.yul\":11944:11946   */\n      0x20\n        /* \"#utility.yul\":11933:11942   */\n      dup3\n        /* \"#utility.yul\":11929:11947   */\n      add\n        /* \"#utility.yul\":11921:11947   */\n      swap1\n      pop\n        /* \"#utility.yul\":11993:12002   */\n      dup2\n        /* \"#utility.yul\":11987:11991   */\n      dup2\n        /* \"#utility.yul\":11983:12003   */\n      sub\n        /* \"#utility.yul\":11979:11980   */\n      0x00\n        /* \"#utility.yul\":11968:11977   */\n      dup4\n        /* \"#utility.yul\":11964:11981   */\n      add\n        /* \"#utility.yul\":11957:12004   */\n      mstore\n        /* \"#utility.yul\":12021:12152   */\n      tag_373\n        /* \"#utility.yul\":12147:12151   */\n      dup2\n        /* \"#utility.yul\":12021:12152   */\n      tag_329\n      jump\t// in\n    tag_373:\n        /* \"#utility.yul\":12013:12152   */\n      swap1\n      pop\n        /* \"#utility.yul\":11740:12159   */\n      swap2\n      swap1\n      pop\n      jump\t// out\n        /* \"#utility.yul\":12165:12584   */\n    tag_200:\n        /* \"#utility.yul\":12331:12335   */\n      0x00\n        /* \"#utility.yul\":12369:12371   */\n      0x20\n        /* \"#utility.yul\":12358:12367   */\n      dup3\n        /* \"#utility.yul\":12354:12372   */\n      add\n        /* \"#utility.yul\":12346:12372   */\n      swap1\n      pop\n        /* \"#utility.yul\":12418:12427   */\n      dup2\n        /* \"#utility.yul\":12412:12416   */\n      dup2\n        /* \"#utility.yul\":12408:12428   */\n      sub\n        /* \"#utility.yul\":12404:12405   */\n      0x00\n        /* \"#utility.yul\":12393:12402   */\n      dup4\n        /* \"#utility.yul\":12389:12406   */\n      add\n        /* \"#utility.yul\":12382:12429   */\n      mstore\n        /* \"#utility.yul\":12446:12577   */\n      tag_375\n        /* \"#utility.yul\":12572:12576   */\n      dup2\n        /* \"#utility.yul\":12446:12577   */\n      tag_334\n      jump\t// in\n    tag_375:\n        /* \"#utility.yul\":12438:12577   */\n      swap1\n      pop\n        /* \"#utility.yul\":12165:12584   */\n      swap2\n      swap1\n      pop\n      jump\t// out\n        /* \"#utility.yul\":12590:12812   */\n    tag_26:\n        /* \"#utility.yul\":12683:12687   */\n      0x00\n        /* \"#utility.yul\":12721:12723   */\n      0x20\n        /* \"#utility.yul\":12710:12719   */\n      dup3\n        /* \"#utility.yul\":12706:12724   */\n      add\n        /* \"#utility.yul\":12698:12724   */\n      swap1\n      pop\n        /* \"#utility.yul\":12734:12805   */\n      tag_377\n        /* \"#utility.yul\":12802:12803   */\n      0x00\n        /* \"#utility.yul\":12791:12800   */\n      dup4\n        /* \"#utility.yul\":12787:12804   */\n      add\n        /* \"#utility.yul\":12778:12784   */\n      dup5\n        /* \"#utility.yul\":12734:12805   */\n      tag_339\n      jump\t// in\n    tag_377:\n        /* \"#utility.yul\":12590:12812   */\n      swap3\n      swap2\n      pop\n      pop\n      jump\t// out\n        /* \"#utility.yul\":12899:12997   */\n    tag_280:\n        /* \"#utility.yul\":12950:12956   */\n      0x00\n        /* \"#utility.yul\":12984:12989   */\n      dup2\n        /* \"#utility.yul\":12978:12990   */\n      mload\n        /* \"#utility.yul\":12968:12990   */\n      swap1\n      pop\n        /* \"#utility.yul\":12899:12997   */\n      swap2\n      swap1\n      pop\n      jump\t// out\n        /* \"#utility.yul\":13003:13102   */\n    tag_288:\n        /* \"#utility.yul\":13055:13061   */\n      0x00\n        /* \"#utility.yul\":13089:13094   */\n      dup2\n        /* \"#utility.yul\":13083:13095   */\n      mload\n        /* \"#utility.yul\":13073:13095   */\n      swap1\n      pop\n        /* \"#utility.yul\":13003:13102   */\n      swap2\n      swap1\n      pop\n      jump\t// out\n        /* \"#utility.yul\":13108:13255   */\n    tag_282:\n        /* \"#utility.yul\":13209:13220   */\n      0x00\n        /* \"#utility.yul\":13246:13249   */\n      dup2\n        /* \"#utility.yul\":13231:13249   */\n      swap1\n      pop\n        /* \"#utility.yul\":13108:13255   */\n      swap3\n      swap2\n      pop\n      pop\n      jump\t// out\n        /* \"#utility.yul\":13261:13430   */\n    tag_290:\n        /* \"#utility.yul\":13345:13356   */\n      0x00\n        /* \"#utility.yul\":13379:13385   */\n      dup3\n        /* \"#utility.yul\":13374:13377   */\n      dup3\n        /* \"#utility.yul\":13367:13386   */\n      mstore\n        /* \"#utility.yul\":13419:13423   */\n      0x20\n        /* \"#utility.yul\":13414:13417   */\n      dup3\n        /* \"#utility.yul\":13410:13424   */\n      add\n        /* \"#utility.yul\":13395:13424   */\n      swap1\n      pop\n        /* \"#utility.yul\":13261:13430   */\n      swap3\n      swap2\n      pop\n      pop\n      jump\t// out\n        /* \"#utility.yul\":13436:13532   */\n    tag_272:\n        /* \"#utility.yul\":13473:13480   */\n      0x00\n        /* \"#utility.yul\":13502:13526   */\n      tag_385\n        /* \"#utility.yul\":13520:13525   */\n      dup3\n        /* \"#utility.yul\":13502:13526   */\n      tag_386\n      jump\t// in\n    tag_385:\n        /* \"#utility.yul\":13491:13526   */\n      swap1\n      pop\n        /* \"#utility.yul\":13436:13532   */\n      swap2\n      swap1\n      pop\n      jump\t// out\n        /* \"#utility.yul\":13538:13642   */\n    tag_387:\n        /* \"#utility.yul\":13583:13590   */\n      0x00\n        /* \"#utility.yul\":13612:13636   */\n      tag_389\n        /* \"#utility.yul\":13630:13635   */\n      dup3\n        /* \"#utility.yul\":13612:13636   */\n      tag_386\n      jump\t// in\n    tag_389:\n        /* \"#utility.yul\":13601:13636   */\n      swap1\n      pop\n        /* \"#utility.yul\":13538:13642   */\n      swap2\n      swap1\n      pop\n      jump\t// out\n        /* \"#utility.yul\":13648:13738   */\n    tag_276:\n        /* \"#utility.yul\":13682:13689   */\n      0x00\n        /* \"#utility.yul\":13725:13730   */\n      dup2\n        /* \"#utility.yul\":13718:13731   */\n      iszero\n        /* \"#utility.yul\":13711:13732   */\n      iszero\n        /* \"#utility.yul\":13700:13732   */\n      swap1\n      pop\n        /* \"#utility.yul\":13648:13738   */\n      swap2\n      swap1\n      pop\n      jump\t// out\n        /* \"#utility.yul\":13744:13870   */\n    tag_386:\n        /* \"#utility.yul\":13781:13788   */\n      0x00\n        /* \"#utility.yul\":13821:13863   */\n      0xffffffffffffffffffffffffffffffffffffffff\n        /* \"#utility.yul\":13814:13819   */\n      dup3\n        /* \"#utility.yul\":13810:13864   */\n      and\n        /* \"#utility.yul\":13799:13864   */\n      swap1\n      pop\n        /* \"#utility.yul\":13744:13870   */\n      swap2\n      swap1\n      pop\n      jump\t// out\n        /* \"#utility.yul\":13876:13953   */\n    tag_342:\n        /* \"#utility.yul\":13913:13920   */\n      0x00\n        /* \"#utility.yul\":13942:13947   */\n      dup2\n        /* \"#utility.yul\":13931:13947   */\n      swap1\n      pop\n        /* \"#utility.yul\":13876:13953   */\n      swap2\n      swap1\n      pop\n      jump\t// out\n        /* \"#utility.yul\":13959:14266   */\n    tag_284:\n        /* \"#utility.yul\":14027:14028   */\n      0x00\n        /* \"#utility.yul\":14037:14150   */\n    tag_394:\n        /* \"#utility.yul\":14051:14057   */\n      dup4\n        /* \"#utility.yul\":14048:14049   */\n      dup2\n        /* \"#utility.yul\":14045:14058   */\n      lt\n        /* \"#utility.yul\":14037:14150   */\n      iszero\n      tag_396\n      jumpi\n        /* \"#utility.yul\":14136:14137   */\n      dup1\n        /* \"#utility.yul\":14131:14134   */\n      dup3\n        /* \"#utility.yul\":14127:14138   */\n      add\n        /* \"#utility.yul\":14121:14139   */\n      mload\n        /* \"#utility.yul\":14117:14118   */\n      dup2\n        /* \"#utility.yul\":14112:14115   */\n      dup5\n        /* \"#utility.yul\":14108:14119   */\n      add\n        /* \"#utility.yul\":14101:14140   */\n      mstore\n        /* \"#utility.yul\":14073:14075   */\n      0x20\n        /* \"#utility.yul\":14070:14071   */\n      dup2\n        /* \"#utility.yul\":14066:14076   */\n      add\n        /* \"#utility.yul\":14061:14076   */\n      swap1\n      pop\n        /* \"#utility.yul\":14037:14150   */\n      jump(tag_394)\n    tag_396:\n        /* \"#utility.yul\":14168:14174   */\n      dup4\n        /* \"#utility.yul\":14165:14166   */\n      dup2\n        /* \"#utility.yul\":14162:14175   */\n      gt\n        /* \"#utility.yul\":14159:14260   */\n      iszero\n      tag_397\n      jumpi\n        /* \"#utility.yul\":14248:14249   */\n      0x00\n        /* \"#utility.yul\":14239:14245   */\n      dup5\n        /* \"#utility.yul\":14234:14237   */\n      dup5\n        /* \"#utility.yul\":14230:14246   */\n      add\n        /* \"#utility.yul\":14223:14250   */\n      mstore\n        /* \"#utility.yul\":14159:14260   */\n    tag_397:\n        /* \"#utility.yul\":14008:14266   */\n      pop\n        /* \"#utility.yul\":13959:14266   */\n      pop\n      pop\n      pop\n      jump\t// out\n        /* \"#utility.yul\":14395:14512   */\n    tag_251:\n        /* \"#utility.yul\":14504:14505   */\n      0x00\n        /* \"#utility.yul\":14501:14502   */\n      dup1\n        /* \"#utility.yul\":14494:14506   */\n      revert\n        /* \"#utility.yul\":14518:14620   */\n    tag_293:\n        /* \"#utility.yul\":14559:14565   */\n      0x00\n        /* \"#utility.yul\":14610:14612   */\n      0x1f\n        /* \"#utility.yul\":14606:14613   */\n      not\n        /* \"#utility.yul\":14601:14603   */\n      0x1f\n        /* \"#utility.yul\":14594:14599   */\n      dup4\n        /* \"#utility.yul\":14590:14604   */\n      add\n        /* \"#utility.yul\":14586:14614   */\n      and\n        /* \"#utility.yul\":14576:14614   */\n      swap1\n      pop\n        /* \"#utility.yul\":14518:14620   */\n      swap2\n      swap1\n      pop\n      jump\t// out\n        /* \"#utility.yul\":14626:14851   */\n    tag_298:\n        /* \"#utility.yul\":14766:14800   */\n      0x4f776e61626c653a206e6577206f776e657220697320746865207a65726f2061\n        /* \"#utility.yul\":14762:14763   */\n      0x00\n        /* \"#utility.yul\":14754:14760   */\n      dup3\n        /* \"#utility.yul\":14750:14764   */\n      add\n        /* \"#utility.yul\":14743:14801   */\n      mstore\n        /* \"#utility.yul\":14835:14843   */\n      0x6464726573730000000000000000000000000000000000000000000000000000\n        /* \"#utility.yul\":14830:14832   */\n      0x20\n        /* \"#utility.yul\":14822:14828   */\n      dup3\n        /* \"#utility.yul\":14818:14833   */\n      add\n        /* \"#utility.yul\":14811:14844   */\n      mstore\n        /* \"#utility.yul\":14626:14851   */\n      pop\n      jump\t// out\n        /* \"#utility.yul\":14857:15021   */\n    tag_303:\n        /* \"#utility.yul\":14997:15013   */\n      0x53616c652068617320656e646564000000000000000000000000000000000000\n        /* \"#utility.yul\":14993:14994   */\n      0x00\n        /* \"#utility.yul\":14985:14991   */\n      dup3\n        /* \"#utility.yul\":14981:14995   */\n      add\n        /* \"#utility.yul\":14974:15014   */\n      mstore\n        /* \"#utility.yul\":14857:15021   */\n      pop\n      jump\t// out\n        /* \"#utility.yul\":15027:15252   */\n    tag_308:\n        /* \"#utility.yul\":15167:15201   */\n      0x416464726573733a20696e73756666696369656e742062616c616e636520666f\n        /* \"#utility.yul\":15163:15164   */\n      0x00\n        /* \"#utility.yul\":15155:15161   */\n      dup3\n        /* \"#utility.yul\":15151:15165   */\n      add\n        /* \"#utility.yul\":15144:15202   */\n      mstore\n        /* \"#utility.yul\":15236:15244   */\n      0x722063616c6c0000000000000000000000000000000000000000000000000000\n        /* \"#utility.yul\":15231:15233   */\n      0x20\n        /* \"#utility.yul\":15223:15229   */\n      dup3\n        /* \"#utility.yul\":15219:15234   */\n      add\n        /* \"#utility.yul\":15212:15245   */\n      mstore\n        /* \"#utility.yul\":15027:15252   */\n      pop\n      jump\t// out\n        /* \"#utility.yul\":15258:15440   */\n    tag_313:\n        /* \"#utility.yul\":15398:15432   */\n      0x4f776e61626c653a2063616c6c6572206973206e6f7420746865206f776e6572\n        /* \"#utility.yul\":15394:15395   */\n      0x00\n        /* \"#utility.yul\":15386:15392   */\n      dup3\n        /* \"#utility.yul\":15382:15396   */\n      add\n        /* \"#utility.yul\":15375:15433   */\n      mstore\n        /* \"#utility.yul\":15258:15440   */\n      pop\n      jump\t// out\n        /* \"#utility.yul\":15446:15619   */\n    tag_318:\n        /* \"#utility.yul\":15586:15611   */\n      0x53616c65206861736e2774207374617274656420796574000000000000000000\n        /* \"#utility.yul\":15582:15583   */\n      0x00\n        /* \"#utility.yul\":15574:15580   */\n      dup3\n        /* \"#utility.yul\":15570:15584   */\n      add\n        /* \"#utility.yul\":15563:15612   */\n      mstore\n        /* \"#utility.yul\":15446:15619   */\n      pop\n      jump\t// out\n        /* \"#utility.yul\":15625:15792   */\n    tag_323:\n        /* \"#utility.yul\":15765:15784   */\n      0x53616c65206861736e277420656e646564000000000000000000000000000000\n        /* \"#utility.yul\":15761:15762   */\n      0x00\n        /* \"#utility.yul\":15753:15759   */\n      dup3\n        /* \"#utility.yul\":15749:15763   */\n      add\n        /* \"#utility.yul\":15742:15785   */\n      mstore\n        /* \"#utility.yul\":15625:15792   */\n      pop\n      jump\t// out\n        /* \"#utility.yul\":15798:15977   */\n    tag_328:\n        /* \"#utility.yul\":15938:15969   */\n      0x416464726573733a2063616c6c20746f206e6f6e2d636f6e7472616374000000\n        /* \"#utility.yul\":15934:15935   */\n      0x00\n        /* \"#utility.yul\":15926:15932   */\n      dup3\n        /* \"#utility.yul\":15922:15936   */\n      add\n        /* \"#utility.yul\":15915:15970   */\n      mstore\n        /* \"#utility.yul\":15798:15977   */\n      pop\n      jump\t// out\n        /* \"#utility.yul\":15983:16159   */\n    tag_333:\n        /* \"#utility.yul\":16123:16151   */\n      0x4e6f7420656e6f75676820746f6b656e20746f2072657475726e000000000000\n        /* \"#utility.yul\":16119:16120   */\n      0x00\n        /* \"#utility.yul\":16111:16117   */\n      dup3\n        /* \"#utility.yul\":16107:16121   */\n      add\n        /* \"#utility.yul\":16100:16152   */\n      mstore\n        /* \"#utility.yul\":15983:16159   */\n      pop\n      jump\t// out\n        /* \"#utility.yul\":16165:16394   */\n    tag_338:\n        /* \"#utility.yul\":16305:16339   */\n      0x5361666545524332303a204552433230206f7065726174696f6e20646964206e\n        /* \"#utility.yul\":16301:16302   */\n      0x00\n        /* \"#utility.yul\":16293:16299   */\n      dup3\n        /* \"#utility.yul\":16289:16303   */\n      add\n        /* \"#utility.yul\":16282:16340   */\n      mstore\n        /* \"#utility.yul\":16374:16386   */\n      0x6f74207375636365656400000000000000000000000000000000000000000000\n        /* \"#utility.yul\":16369:16371   */\n      0x20\n        /* \"#utility.yul\":16361:16367   */\n      dup3\n        /* \"#utility.yul\":16357:16372   */\n      add\n        /* \"#utility.yul\":16350:16387   */\n      mstore\n        /* \"#utility.yul\":16165:16394   */\n      pop\n      jump\t// out\n        /* \"#utility.yul\":16400:16522   */\n    tag_232:\n        /* \"#utility.yul\":16473:16497   */\n      tag_412\n        /* \"#utility.yul\":16491:16496   */\n      dup2\n        /* \"#utility.yul\":16473:16497   */\n      tag_272\n      jump\t// in\n    tag_412:\n        /* \"#utility.yul\":16466:16471   */\n      dup2\n        /* \"#utility.yul\":16463:16498   */\n      eq\n        /* \"#utility.yul\":16453:16516   */\n      tag_413\n      jumpi\n        /* \"#utility.yul\":16512:16513   */\n      0x00\n        /* \"#utility.yul\":16509:16510   */\n      dup1\n        /* \"#utility.yul\":16502:16514   */\n      revert\n        /* \"#utility.yul\":16453:16516   */\n    tag_413:\n        /* \"#utility.yul\":16400:16522   */\n      pop\n      jump\t// out\n        /* \"#utility.yul\":16528:16666   */\n    tag_236:\n        /* \"#utility.yul\":16609:16641   */\n      tag_415\n        /* \"#utility.yul\":16635:16640   */\n      dup2\n        /* \"#utility.yul\":16609:16641   */\n      tag_387\n      jump\t// in\n    tag_415:\n        /* \"#utility.yul\":16602:16607   */\n      dup2\n        /* \"#utility.yul\":16599:16642   */\n      eq\n        /* \"#utility.yul\":16589:16660   */\n      tag_416\n      jumpi\n        /* \"#utility.yul\":16656:16657   */\n      0x00\n        /* \"#utility.yul\":16653:16654   */\n      dup1\n        /* \"#utility.yul\":16646:16658   */\n      revert\n        /* \"#utility.yul\":16589:16660   */\n    tag_416:\n        /* \"#utility.yul\":16528:16666   */\n      pop\n      jump\t// out\n        /* \"#utility.yul\":16672:16788   */\n    tag_240:\n        /* \"#utility.yul\":16742:16763   */\n      tag_418\n        /* \"#utility.yul\":16757:16762   */\n      dup2\n        /* \"#utility.yul\":16742:16763   */\n      tag_276\n      jump\t// in\n    tag_418:\n        /* \"#utility.yul\":16735:16740   */\n      dup2\n        /* \"#utility.yul\":16732:16764   */\n      eq\n        /* \"#utility.yul\":16722:16782   */\n      tag_419\n      jumpi\n        /* \"#utility.yul\":16778:16779   */\n      0x00\n        /* \"#utility.yul\":16775:16776   */\n      dup1\n        /* \"#utility.yul\":16768:16780   */\n      revert\n        /* \"#utility.yul\":16722:16782   */\n    tag_419:\n        /* \"#utility.yul\":16672:16788   */\n      pop\n      jump\t// out\n        /* \"#utility.yul\":16794:16916   */\n    tag_244:\n        /* \"#utility.yul\":16867:16891   */\n      tag_421\n        /* \"#utility.yul\":16885:16890   */\n      dup2\n        /* \"#utility.yul\":16867:16891   */\n      tag_342\n      jump\t// in\n    tag_421:\n        /* \"#utility.yul\":16860:16865   */\n      dup2\n        /* \"#utility.yul\":16857:16892   */\n      eq\n        /* \"#utility.yul\":16847:16910   */\n      tag_422\n      jumpi\n        /* \"#utility.yul\":16906:16907   */\n      0x00\n        /* \"#utility.yul\":16903:16904   */\n      dup1\n        /* \"#utility.yul\":16896:16908   */\n      revert\n        /* \"#utility.yul\":16847:16910   */\n    tag_422:\n        /* \"#utility.yul\":16794:16916   */\n      pop\n      jump\t// out\n\n    auxdata: 0xa2646970667358221220a349af446e79f298f4951ce9f1cb71952fc8eddbc906eedf8462f4a8ecf1505e64736f6c63430008070033\n}\n",
				"bytecode": {
					"linkReferences": {},
					"object": "60806040523480156200001157600080fd5b5060405162001cfd38038062001cfd833981810160405281019062000037919062000213565b620000576200004b6200010260201b60201c565b6200010a60201b60201c565b62000068846200010a60201b60201c565b80600460006101000a81548173ffffffffffffffffffffffffffffffffffffffff021916908373ffffffffffffffffffffffffffffffffffffffff16021790555083600160006101000a81548173ffffffffffffffffffffffffffffffffffffffff021916908373ffffffffffffffffffffffffffffffffffffffff1602179055508260028190555081600381905550505050506200032a565b600033905090565b60008060009054906101000a900473ffffffffffffffffffffffffffffffffffffffff169050816000806101000a81548173ffffffffffffffffffffffffffffffffffffffff021916908373ffffffffffffffffffffffffffffffffffffffff1602179055508173ffffffffffffffffffffffffffffffffffffffff168173ffffffffffffffffffffffffffffffffffffffff167f8be0079c531659141344cd1fd0a4f28419497f9722a3daafe3b4186f6b6457e060405160405180910390a35050565b600081519050620001df81620002dc565b92915050565b600081519050620001f681620002f6565b92915050565b6000815190506200020d8162000310565b92915050565b6000806000806080858703121562000230576200022f620002d7565b5b60006200024087828801620001e5565b94505060206200025387828801620001fc565b93505060406200026687828801620001fc565b92505060606200027987828801620001ce565b91505092959194509250565b60006200029282620002ad565b9050919050565b6000620002a682620002ad565b9050919050565b600073ffffffffffffffffffffffffffffffffffffffff82169050919050565b6000819050919050565b600080fd5b620002e78162000285565b8114620002f357600080fd5b50565b620003018162000299565b81146200030d57600080fd5b50565b6200031b81620002cd565b81146200032757600080fd5b50565b6119c3806200033a6000396000f3fe6080604052600436106100e85760003560e01c8063893d20e81161008a578063de2d583a11610059578063de2d583a146102c3578063ee3def0e146102f3578063efef39a11461031e578063f2fde38b14610347576100e8565b8063893d20e8146102175780638da5cb5b14610242578063ab0bcc411461026d578063c10b935814610298576100e8565b806361778592116100c6578063617785921461016f578063617fba041461019a5780636f9c6149146101d7578063715018a614610200576100e8565b806324076451146100ed578063295e4edf1461012a57806351cff8d914610153575b600080fd5b3480156100f957600080fd5b50610114600480360381019061010f91906111bc565b610370565b604051610121919061165e565b60405180910390f35b34801561013657600080fd5b50610151600480360381019061014c9190611243565b610424565b005b61016d600480360381019061016891906111bc565b6104aa565b005b34801561017b57600080fd5b50610184610769565b6040516101919190611486565b60405180910390f35b3480156101a657600080fd5b506101c160048036038101906101bc91906111bc565b61078f565b6040516101ce919061165e565b60405180910390f35b3480156101e357600080fd5b506101fe60048036038101906101f99190611243565b6107db565b005b34801561020c57600080fd5b50610215610861565b005b34801561022357600080fd5b5061022c6108e9565b6040516102399190611486565b60405180910390f35b34801561024e57600080fd5b506102576108f8565b6040516102649190611486565b60405180910390f35b34801561027957600080fd5b50610282610921565b60405161028f919061165e565b60405180910390f35b3480156102a457600080fd5b506102ad61092b565b6040516102ba919061165e565b60405180910390f35b6102dd60048036038101906102d891906111e9565b610935565b6040516102ea9190611501565b60405180910390f35b3480156102ff57600080fd5b50610308610a8e565b6040516103159190611486565b60405180910390f35b34801561032a57600080fd5b5061034560048036038101906103409190611243565b610b20565b005b34801561035357600080fd5b5061036e600480360381019061036991906111bc565b610c03565b005b6000600460009054906101000a900473ffffffffffffffffffffffffffffffffffffffff1673ffffffffffffffffffffffffffffffffffffffff166370a08231836040518263ffffffff1660e01b81526004016103cd9190611486565b60206040518083038186803b1580156103e557600080fd5b505afa1580156103f9573d6000803e3d6000fd5b505050506040513d601f19601f8201168201806040525081019061041d9190611270565b9050919050565b61042c610cfb565b73ffffffffffffffffffffffffffffffffffffffff1661044a6108f8565b73ffffffffffffffffffffffffffffffffffffffff16146104a0576040517f08c379a00000000000000000000000000000000000000000000000000000000081526004016104979061159e565b60405180910390fd5b8060028190555050565b6104b2610cfb565b73ffffffffffffffffffffffffffffffffffffffff166104d06108f8565b73ffffffffffffffffffffffffffffffffffffffff1614610526576040517f08c379a000000000000000000000000000000000000000000000000000000000815260040161051d9061159e565b60405180910390fd5b600354421161056a576040517f08c379a0000000000000000000000000000000000000000000000000000000008152600401610561906115de565b60405180910390fd5b61066881600460009054906101000a900473ffffffffffffffffffffffffffffffffffffffff1673ffffffffffffffffffffffffffffffffffffffff166370a082316105b46108f8565b6040518263ffffffff1660e01b81526004016105d09190611486565b60206040518083038186803b1580156105e857600080fd5b505afa1580156105fc573d6000803e3d6000fd5b505050506040513d601f19601f820116820180604052508101906106209190611270565b600460009054906101000a900473ffffffffffffffffffffffffffffffffffffffff1673ffffffffffffffffffffffffffffffffffffffff16610d039092919063ffffffff16565b61076681600460009054906101000a900473ffffffffffffffffffffffffffffffffffffffff1673ffffffffffffffffffffffffffffffffffffffff166370a082316106b26108f8565b6040518263ffffffff1660e01b81526004016106ce9190611486565b60206040518083038186803b1580156106e657600080fd5b505afa1580156106fa573d6000803e3d6000fd5b505050506040513d601f19601f8201168201806040525081019061071e9190611270565b600460009054906101000a900473ffffffffffffffffffffffffffffffffffffffff1673ffffffffffffffffffffffffffffffffffffffff16610d039092919063ffffffff16565b50565b600460009054906101000a900473ffffffffffffffffffffffffffffffffffffffff1681565b6000600560008373ffffffffffffffffffffffffffffffffffffffff1673ffffffffffffffffffffffffffffffffffffffff168152602001908152602001600020600001549050919050565b6107e3610cfb565b73ffffffffffffffffffffffffffffffffffffffff166108016108f8565b73ffffffffffffffffffffffffffffffffffffffff1614610857576040517f08c379a000000000000000000000000000000000000000000000000000000000815260040161084e9061159e565b60405180910390fd5b8060038190555050565b610869610cfb565b73ffffffffffffffffffffffffffffffffffffffff166108876108f8565b73ffffffffffffffffffffffffffffffffffffffff16146108dd576040517f08c379a00000000000000000000000000000000000000000000000000000000081526004016108d49061159e565b60405180910390fd5b6108e76000610d89565b565b60006108f36108f8565b905090565b60008060009054906101000a900473ffffffffffffffffffffffffffffffffffffffff16905090565b6000600254905090565b6000600354905090565b600061093f610cfb565b73ffffffffffffffffffffffffffffffffffffffff1661095d6108f8565b73ffffffffffffffffffffffffffffffffffffffff16146109b3576040517f08c379a00000000000000000000000000000000000000000000000000000000081526004016109aa9061159e565b60405180910390fd5b6000600560008473ffffffffffffffffffffffffffffffffffffffff1673ffffffffffffffffffffffffffffffffffffffff16815260200190815260200160002060000154905080471015610a3d576040517f08c379a0000000000000000000000000000000000000000000000000000000008152600401610a349061161e565b60405180910390fd5b8273ffffffffffffffffffffffffffffffffffffffff166108fc829081150290604051600060405180830381858888f19350505050158015610a83573d6000803e3d6000fd5b506001915050919050565b6000600254421015610ad5576040517f08c379a0000000000000000000000000000000000000000000000000000000008152600401610acc906115be565b60405180910390fd5b600354421115610b1a576040517f08c379a0000000000000000000000000000000000000000000000000000000008152600401610b119061155e565b60405180910390fd5b33905090565b600254421015610b65576040517f08c379a0000000000000000000000000000000000000000000000000000000008152600401610b5c906115be565b60405180910390fd5b600354421115610baa576040517f08c379a0000000000000000000000000000000000000000000000000000000008152600401610ba19061155e565b60405180910390fd5b610c0033610bb66108f8565b83600460009054906101000a900473ffffffffffffffffffffffffffffffffffffffff1673ffffffffffffffffffffffffffffffffffffffff16610e4d909392919063ffffffff16565b50565b610c0b610cfb565b73ffffffffffffffffffffffffffffffffffffffff16610c296108f8565b73ffffffffffffffffffffffffffffffffffffffff1614610c7f576040517f08c379a0000000000000000000000000000000000000000000000000000000008152600401610c769061159e565b60405180910390fd5b600073ffffffffffffffffffffffffffffffffffffffff168173ffffffffffffffffffffffffffffffffffffffff161415610cef576040517f08c379a0000000000000000000000000000000000000000000000000000000008152600401610ce69061153e565b60405180910390fd5b610cf881610d89565b50565b600033905090565b610d848363a9059cbb60e01b8484604051602401610d229291906114d8565b604051602081830303815290604052907bffffffffffffffffffffffffffffffffffffffffffffffffffffffff19166020820180517bffffffffffffffffffffffffffffffffffffffffffffffffffffffff8381831617835250505050610ed6565b505050565b60008060009054906101000a900473ffffffffffffffffffffffffffffffffffffffff169050816000806101000a81548173ffffffffffffffffffffffffffffffffffffffff021916908373ffffffffffffffffffffffffffffffffffffffff1602179055508173ffffffffffffffffffffffffffffffffffffffff168173ffffffffffffffffffffffffffffffffffffffff167f8be0079c531659141344cd1fd0a4f28419497f9722a3daafe3b4186f6b6457e060405160405180910390a35050565b610ed0846323b872dd60e01b858585604051602401610e6e939291906114a1565b604051602081830303815290604052907bffffffffffffffffffffffffffffffffffffffffffffffffffffffff19166020820180517bffffffffffffffffffffffffffffffffffffffffffffffffffffffff8381831617835250505050610ed6565b50505050565b6000610f38826040518060400160405280602081526020017f5361666545524332303a206c6f772d6c6576656c2063616c6c206661696c65648152508573ffffffffffffffffffffffffffffffffffffffff16610f9d9092919063ffffffff16565b9050600081511115610f985780806020019051810190610f589190611216565b610f97576040517f08c379a0000000000000000000000000000000000000000000000000000000008152600401610f8e9061163e565b60405180910390fd5b5b505050565b6060610fac8484600085610fb5565b90509392505050565b606082471015610ffa576040517f08c379a0000000000000000000000000000000000000000000000000000000008152600401610ff19061157e565b60405180910390fd5b611003856110c9565b611042576040517f08c379a0000000000000000000000000000000000000000000000000000000008152600401611039906115fe565b60405180910390fd5b6000808673ffffffffffffffffffffffffffffffffffffffff16858760405161106b919061146f565b60006040518083038185875af1925050503d80600081146110a8576040519150601f19603f3d011682016040523d82523d6000602084013e6110ad565b606091505b50915091506110bd8282866110ec565b92505050949350505050565b6000808273ffffffffffffffffffffffffffffffffffffffff163b119050919050565b606083156110fc5782905061114c565b60008351111561110f5782518084602001fd5b816040517f08c379a0000000000000000000000000000000000000000000000000000000008152600401611143919061151c565b60405180910390fd5b9392505050565b60008135905061116281611931565b92915050565b60008135905061117781611948565b92915050565b60008151905061118c8161195f565b92915050565b6000813590506111a181611976565b92915050565b6000815190506111b681611976565b92915050565b6000602082840312156111d2576111d1611738565b5b60006111e084828501611153565b91505092915050565b6000602082840312156111ff576111fe611738565b5b600061120d84828501611168565b91505092915050565b60006020828403121561122c5761122b611738565b5b600061123a8482850161117d565b91505092915050565b60006020828403121561125957611258611738565b5b600061126784828501611192565b91505092915050565b60006020828403121561128657611285611738565b5b6000611294848285016111a7565b91505092915050565b6112a6816116ab565b82525050565b6112b5816116cf565b82525050565b60006112c682611679565b6112d0818561168f565b93506112e0818560208601611705565b80840191505092915050565b60006112f782611684565b611301818561169a565b9350611311818560208601611705565b61131a8161173d565b840191505092915050565b600061133260268361169a565b915061133d8261174e565b604082019050919050565b6000611355600e8361169a565b91506113608261179d565b602082019050919050565b600061137860268361169a565b9150611383826117c6565b604082019050919050565b600061139b60208361169a565b91506113a682611815565b602082019050919050565b60006113be60178361169a565b91506113c98261183e565b602082019050919050565b60006113e160118361169a565b91506113ec82611867565b602082019050919050565b6000611404601d8361169a565b915061140f82611890565b602082019050919050565b6000611427601a8361169a565b9150611432826118b9565b602082019050919050565b600061144a602a8361169a565b9150611455826118e2565b604082019050919050565b611469816116fb565b82525050565b600061147b82846112bb565b915081905092915050565b600060208201905061149b600083018461129d565b92915050565b60006060820190506114b6600083018661129d565b6114c3602083018561129d565b6114d06040830184611460565b949350505050565b60006040820190506114ed600083018561129d565b6114fa6020830184611460565b9392505050565b600060208201905061151660008301846112ac565b92915050565b6000602082019050818103600083015261153681846112ec565b905092915050565b6000602082019050818103600083015261155781611325565b9050919050565b6000602082019050818103600083015261157781611348565b9050919050565b600060208201905081810360008301526115978161136b565b9050919050565b600060208201905081810360008301526115b78161138e565b9050919050565b600060208201905081810360008301526115d7816113b1565b9050919050565b600060208201905081810360008301526115f7816113d4565b9050919050565b60006020820190508181036000830152611617816113f7565b9050919050565b600060208201905081810360008301526116378161141a565b9050919050565b600060208201905081810360008301526116578161143d565b9050919050565b60006020820190506116736000830184611460565b92915050565b600081519050919050565b600081519050919050565b600081905092915050565b600082825260208201905092915050565b60006116b6826116db565b9050919050565b60006116c8826116db565b9050919050565b60008115159050919050565b600073ffffffffffffffffffffffffffffffffffffffff82169050919050565b6000819050919050565b60005b83811015611723578082015181840152602081019050611708565b83811115611732576000848401525b50505050565b600080fd5b6000601f19601f8301169050919050565b7f4f776e61626c653a206e6577206f776e657220697320746865207a65726f206160008201527f6464726573730000000000000000000000000000000000000000000000000000602082015250565b7f53616c652068617320656e646564000000000000000000000000000000000000600082015250565b7f416464726573733a20696e73756666696369656e742062616c616e636520666f60008201527f722063616c6c0000000000000000000000000000000000000000000000000000602082015250565b7f4f776e61626c653a2063616c6c6572206973206e6f7420746865206f776e6572600082015250565b7f53616c65206861736e2774207374617274656420796574000000000000000000600082015250565b7f53616c65206861736e277420656e646564000000000000000000000000000000600082015250565b7f416464726573733a2063616c6c20746f206e6f6e2d636f6e7472616374000000600082015250565b7f4e6f7420656e6f75676820746f6b656e20746f2072657475726e000000000000600082015250565b7f5361666545524332303a204552433230206f7065726174696f6e20646964206e60008201527f6f74207375636365656400000000000000000000000000000000000000000000602082015250565b61193a816116ab565b811461194557600080fd5b50565b611951816116bd565b811461195c57600080fd5b50565b611968816116cf565b811461197357600080fd5b50565b61197f816116fb565b811461198a57600080fd5b5056fea2646970667358221220a349af446e79f298f4951ce9f1cb71952fc8eddbc906eedf8462f4a8ecf1505e64736f6c63430008070033",
					"opcodes": "PUSH1 0x80 PUSH1 0x40 MSTORE CALLVALUE DUP1 ISZERO PUSH3 0x11 JUMPI PUSH1 0x0 DUP1 REVERT JUMPDEST POP PUSH1 0x40 MLOAD PUSH3 0x1CFD CODESIZE SUB DUP1 PUSH3 0x1CFD DUP4 CODECOPY DUP2 DUP2 ADD PUSH1 0x40 MSTORE DUP2 ADD SWAP1 PUSH3 0x37 SWAP2 SWAP1 PUSH3 0x213 JUMP JUMPDEST PUSH3 0x57 PUSH3 0x4B PUSH3 0x102 PUSH1 0x20 SHL PUSH1 0x20 SHR JUMP JUMPDEST PUSH3 0x10A PUSH1 0x20 SHL PUSH1 0x20 SHR JUMP JUMPDEST PUSH3 0x68 DUP5 PUSH3 0x10A PUSH1 0x20 SHL PUSH1 0x20 SHR JUMP JUMPDEST DUP1 PUSH1 0x4 PUSH1 0x0 PUSH2 0x100 EXP DUP2 SLOAD DUP2 PUSH20 0xFFFFFFFFFFFFFFFFFFFFFFFFFFFFFFFFFFFFFFFF MUL NOT AND SWAP1 DUP4 PUSH20 0xFFFFFFFFFFFFFFFFFFFFFFFFFFFFFFFFFFFFFFFF AND MUL OR SWAP1 SSTORE POP DUP4 PUSH1 0x1 PUSH1 0x0 PUSH2 0x100 EXP DUP2 SLOAD DUP2 PUSH20 0xFFFFFFFFFFFFFFFFFFFFFFFFFFFFFFFFFFFFFFFF MUL NOT AND SWAP1 DUP4 PUSH20 0xFFFFFFFFFFFFFFFFFFFFFFFFFFFFFFFFFFFFFFFF AND MUL OR SWAP1 SSTORE POP DUP3 PUSH1 0x2 DUP2 SWAP1 SSTORE POP DUP2 PUSH1 0x3 DUP2 SWAP1 SSTORE POP POP POP POP POP PUSH3 0x32A JUMP JUMPDEST PUSH1 0x0 CALLER SWAP1 POP SWAP1 JUMP JUMPDEST PUSH1 0x0 DUP1 PUSH1 0x0 SWAP1 SLOAD SWAP1 PUSH2 0x100 EXP SWAP1 DIV PUSH20 0xFFFFFFFFFFFFFFFFFFFFFFFFFFFFFFFFFFFFFFFF AND SWAP1 POP DUP2 PUSH1 0x0 DUP1 PUSH2 0x100 EXP DUP2 SLOAD DUP2 PUSH20 0xFFFFFFFFFFFFFFFFFFFFFFFFFFFFFFFFFFFFFFFF MUL NOT AND SWAP1 DUP4 PUSH20 0xFFFFFFFFFFFFFFFFFFFFFFFFFFFFFFFFFFFFFFFF AND MUL OR SWAP1 SSTORE POP DUP2 PUSH20 0xFFFFFFFFFFFFFFFFFFFFFFFFFFFFFFFFFFFFFFFF AND DUP2 PUSH20 0xFFFFFFFFFFFFFFFFFFFFFFFFFFFFFFFFFFFFFFFF AND PUSH32 0x8BE0079C531659141344CD1FD0A4F28419497F9722A3DAAFE3B4186F6B6457E0 PUSH1 0x40 MLOAD PUSH1 0x40 MLOAD DUP1 SWAP2 SUB SWAP1 LOG3 POP POP JUMP JUMPDEST PUSH1 0x0 DUP2 MLOAD SWAP1 POP PUSH3 0x1DF DUP2 PUSH3 0x2DC JUMP JUMPDEST SWAP3 SWAP2 POP POP JUMP JUMPDEST PUSH1 0x0 DUP2 MLOAD SWAP1 POP PUSH3 0x1F6 DUP2 PUSH3 0x2F6 JUMP JUMPDEST SWAP3 SWAP2 POP POP JUMP JUMPDEST PUSH1 0x0 DUP2 MLOAD SWAP1 POP PUSH3 0x20D DUP2 PUSH3 0x310 JUMP JUMPDEST SWAP3 SWAP2 POP POP JUMP JUMPDEST PUSH1 0x0 DUP1 PUSH1 0x0 DUP1 PUSH1 0x80 DUP6 DUP8 SUB SLT ISZERO PUSH3 0x230 JUMPI PUSH3 0x22F PUSH3 0x2D7 JUMP JUMPDEST JUMPDEST PUSH1 0x0 PUSH3 0x240 DUP8 DUP3 DUP9 ADD PUSH3 0x1E5 JUMP JUMPDEST SWAP5 POP POP PUSH1 0x20 PUSH3 0x253 DUP8 DUP3 DUP9 ADD PUSH3 0x1FC JUMP JUMPDEST SWAP4 POP POP PUSH1 0x40 PUSH3 0x266 DUP8 DUP3 DUP9 ADD PUSH3 0x1FC JUMP JUMPDEST SWAP3 POP POP PUSH1 0x60 PUSH3 0x279 DUP8 DUP3 DUP9 ADD PUSH3 0x1CE JUMP JUMPDEST SWAP2 POP POP SWAP3 SWAP6 SWAP2 SWAP5 POP SWAP3 POP JUMP JUMPDEST PUSH1 0x0 PUSH3 0x292 DUP3 PUSH3 0x2AD JUMP JUMPDEST SWAP1 POP SWAP2 SWAP1 POP JUMP JUMPDEST PUSH1 0x0 PUSH3 0x2A6 DUP3 PUSH3 0x2AD JUMP JUMPDEST SWAP1 POP SWAP2 SWAP1 POP JUMP JUMPDEST PUSH1 0x0 PUSH20 0xFFFFFFFFFFFFFFFFFFFFFFFFFFFFFFFFFFFFFFFF DUP3 AND SWAP1 POP SWAP2 SWAP1 POP JUMP JUMPDEST PUSH1 0x0 DUP2 SWAP1 POP SWAP2 SWAP1 POP JUMP JUMPDEST PUSH1 0x0 DUP1 REVERT JUMPDEST PUSH3 0x2E7 DUP2 PUSH3 0x285 JUMP JUMPDEST DUP2 EQ PUSH3 0x2F3 JUMPI PUSH1 0x0 DUP1 REVERT JUMPDEST POP JUMP JUMPDEST PUSH3 0x301 DUP2 PUSH3 0x299 JUMP JUMPDEST DUP2 EQ PUSH3 0x30D JUMPI PUSH1 0x0 DUP1 REVERT JUMPDEST POP JUMP JUMPDEST PUSH3 0x31B DUP2 PUSH3 0x2CD JUMP JUMPDEST DUP2 EQ PUSH3 0x327 JUMPI PUSH1 0x0 DUP1 REVERT JUMPDEST POP JUMP JUMPDEST PUSH2 0x19C3 DUP1 PUSH3 0x33A PUSH1 0x0 CODECOPY PUSH1 0x0 RETURN INVALID PUSH1 0x80 PUSH1 0x40 MSTORE PUSH1 0x4 CALLDATASIZE LT PUSH2 0xE8 JUMPI PUSH1 0x0 CALLDATALOAD PUSH1 0xE0 SHR DUP1 PUSH4 0x893D20E8 GT PUSH2 0x8A JUMPI DUP1 PUSH4 0xDE2D583A GT PUSH2 0x59 JUMPI DUP1 PUSH4 0xDE2D583A EQ PUSH2 0x2C3 JUMPI DUP1 PUSH4 0xEE3DEF0E EQ PUSH2 0x2F3 JUMPI DUP1 PUSH4 0xEFEF39A1 EQ PUSH2 0x31E JUMPI DUP1 PUSH4 0xF2FDE38B EQ PUSH2 0x347 JUMPI PUSH2 0xE8 JUMP JUMPDEST DUP1 PUSH4 0x893D20E8 EQ PUSH2 0x217 JUMPI DUP1 PUSH4 0x8DA5CB5B EQ PUSH2 0x242 JUMPI DUP1 PUSH4 0xAB0BCC41 EQ PUSH2 0x26D JUMPI DUP1 PUSH4 0xC10B9358 EQ PUSH2 0x298 JUMPI PUSH2 0xE8 JUMP JUMPDEST DUP1 PUSH4 0x61778592 GT PUSH2 0xC6 JUMPI DUP1 PUSH4 0x61778592 EQ PUSH2 0x16F JUMPI DUP1 PUSH4 0x617FBA04 EQ PUSH2 0x19A JUMPI DUP1 PUSH4 0x6F9C6149 EQ PUSH2 0x1D7 JUMPI DUP1 PUSH4 0x715018A6 EQ PUSH2 0x200 JUMPI PUSH2 0xE8 JUMP JUMPDEST DUP1 PUSH4 0x24076451 EQ PUSH2 0xED JUMPI DUP1 PUSH4 0x295E4EDF EQ PUSH2 0x12A JUMPI DUP1 PUSH4 0x51CFF8D9 EQ PUSH2 0x153 JUMPI JUMPDEST PUSH1 0x0 DUP1 REVERT JUMPDEST CALLVALUE DUP1 ISZERO PUSH2 0xF9 JUMPI PUSH1 0x0 DUP1 REVERT JUMPDEST POP PUSH2 0x114 PUSH1 0x4 DUP1 CALLDATASIZE SUB DUP2 ADD SWAP1 PUSH2 0x10F SWAP2 SWAP1 PUSH2 0x11BC JUMP JUMPDEST PUSH2 0x370 JUMP JUMPDEST PUSH1 0x40 MLOAD PUSH2 0x121 SWAP2 SWAP1 PUSH2 0x165E JUMP JUMPDEST PUSH1 0x40 MLOAD DUP1 SWAP2 SUB SWAP1 RETURN JUMPDEST CALLVALUE DUP1 ISZERO PUSH2 0x136 JUMPI PUSH1 0x0 DUP1 REVERT JUMPDEST POP PUSH2 0x151 PUSH1 0x4 DUP1 CALLDATASIZE SUB DUP2 ADD SWAP1 PUSH2 0x14C SWAP2 SWAP1 PUSH2 0x1243 JUMP JUMPDEST PUSH2 0x424 JUMP JUMPDEST STOP JUMPDEST PUSH2 0x16D PUSH1 0x4 DUP1 CALLDATASIZE SUB DUP2 ADD SWAP1 PUSH2 0x168 SWAP2 SWAP1 PUSH2 0x11BC JUMP JUMPDEST PUSH2 0x4AA JUMP JUMPDEST STOP JUMPDEST CALLVALUE DUP1 ISZERO PUSH2 0x17B JUMPI PUSH1 0x0 DUP1 REVERT JUMPDEST POP PUSH2 0x184 PUSH2 0x769 JUMP JUMPDEST PUSH1 0x40 MLOAD PUSH2 0x191 SWAP2 SWAP1 PUSH2 0x1486 JUMP JUMPDEST PUSH1 0x40 MLOAD DUP1 SWAP2 SUB SWAP1 RETURN JUMPDEST CALLVALUE DUP1 ISZERO PUSH2 0x1A6 JUMPI PUSH1 0x0 DUP1 REVERT JUMPDEST POP PUSH2 0x1C1 PUSH1 0x4 DUP1 CALLDATASIZE SUB DUP2 ADD SWAP1 PUSH2 0x1BC SWAP2 SWAP1 PUSH2 0x11BC JUMP JUMPDEST PUSH2 0x78F JUMP JUMPDEST PUSH1 0x40 MLOAD PUSH2 0x1CE SWAP2 SWAP1 PUSH2 0x165E JUMP JUMPDEST PUSH1 0x40 MLOAD DUP1 SWAP2 SUB SWAP1 RETURN JUMPDEST CALLVALUE DUP1 ISZERO PUSH2 0x1E3 JUMPI PUSH1 0x0 DUP1 REVERT JUMPDEST POP PUSH2 0x1FE PUSH1 0x4 DUP1 CALLDATASIZE SUB DUP2 ADD SWAP1 PUSH2 0x1F9 SWAP2 SWAP1 PUSH2 0x1243 JUMP JUMPDEST PUSH2 0x7DB JUMP JUMPDEST STOP JUMPDEST CALLVALUE DUP1 ISZERO PUSH2 0x20C JUMPI PUSH1 0x0 DUP1 REVERT JUMPDEST POP PUSH2 0x215 PUSH2 0x861 JUMP JUMPDEST STOP JUMPDEST CALLVALUE DUP1 ISZERO PUSH2 0x223 JUMPI PUSH1 0x0 DUP1 REVERT JUMPDEST POP PUSH2 0x22C PUSH2 0x8E9 JUMP JUMPDEST PUSH1 0x40 MLOAD PUSH2 0x239 SWAP2 SWAP1 PUSH2 0x1486 JUMP JUMPDEST PUSH1 0x40 MLOAD DUP1 SWAP2 SUB SWAP1 RETURN JUMPDEST CALLVALUE DUP1 ISZERO PUSH2 0x24E JUMPI PUSH1 0x0 DUP1 REVERT JUMPDEST POP PUSH2 0x257 PUSH2 0x8F8 JUMP JUMPDEST PUSH1 0x40 MLOAD PUSH2 0x264 SWAP2 SWAP1 PUSH2 0x1486 JUMP JUMPDEST PUSH1 0x40 MLOAD DUP1 SWAP2 SUB SWAP1 RETURN JUMPDEST CALLVALUE DUP1 ISZERO PUSH2 0x279 JUMPI PUSH1 0x0 DUP1 REVERT JUMPDEST POP PUSH2 0x282 PUSH2 0x921 JUMP JUMPDEST PUSH1 0x40 MLOAD PUSH2 0x28F SWAP2 SWAP1 PUSH2 0x165E JUMP JUMPDEST PUSH1 0x40 MLOAD DUP1 SWAP2 SUB SWAP1 RETURN JUMPDEST CALLVALUE DUP1 ISZERO PUSH2 0x2A4 JUMPI PUSH1 0x0 DUP1 REVERT JUMPDEST POP PUSH2 0x2AD PUSH2 0x92B JUMP JUMPDEST PUSH1 0x40 MLOAD PUSH2 0x2BA SWAP2 SWAP1 PUSH2 0x165E JUMP JUMPDEST PUSH1 0x40 MLOAD DUP1 SWAP2 SUB SWAP1 RETURN JUMPDEST PUSH2 0x2DD PUSH1 0x4 DUP1 CALLDATASIZE SUB DUP2 ADD SWAP1 PUSH2 0x2D8 SWAP2 SWAP1 PUSH2 0x11E9 JUMP JUMPDEST PUSH2 0x935 JUMP JUMPDEST PUSH1 0x40 MLOAD PUSH2 0x2EA SWAP2 SWAP1 PUSH2 0x1501 JUMP JUMPDEST PUSH1 0x40 MLOAD DUP1 SWAP2 SUB SWAP1 RETURN JUMPDEST CALLVALUE DUP1 ISZERO PUSH2 0x2FF JUMPI PUSH1 0x0 DUP1 REVERT JUMPDEST POP PUSH2 0x308 PUSH2 0xA8E JUMP JUMPDEST PUSH1 0x40 MLOAD PUSH2 0x315 SWAP2 SWAP1 PUSH2 0x1486 JUMP JUMPDEST PUSH1 0x40 MLOAD DUP1 SWAP2 SUB SWAP1 RETURN JUMPDEST CALLVALUE DUP1 ISZERO PUSH2 0x32A JUMPI PUSH1 0x0 DUP1 REVERT JUMPDEST POP PUSH2 0x345 PUSH1 0x4 DUP1 CALLDATASIZE SUB DUP2 ADD SWAP1 PUSH2 0x340 SWAP2 SWAP1 PUSH2 0x1243 JUMP JUMPDEST PUSH2 0xB20 JUMP JUMPDEST STOP JUMPDEST CALLVALUE DUP1 ISZERO PUSH2 0x353 JUMPI PUSH1 0x0 DUP1 REVERT JUMPDEST POP PUSH2 0x36E PUSH1 0x4 DUP1 CALLDATASIZE SUB DUP2 ADD SWAP1 PUSH2 0x369 SWAP2 SWAP1 PUSH2 0x11BC JUMP JUMPDEST PUSH2 0xC03 JUMP JUMPDEST STOP JUMPDEST PUSH1 0x0 PUSH1 0x4 PUSH1 0x0 SWAP1 SLOAD SWAP1 PUSH2 0x100 EXP SWAP1 DIV PUSH20 0xFFFFFFFFFFFFFFFFFFFFFFFFFFFFFFFFFFFFFFFF AND PUSH20 0xFFFFFFFFFFFFFFFFFFFFFFFFFFFFFFFFFFFFFFFF AND PUSH4 0x70A08231 DUP4 PUSH1 0x40 MLOAD DUP3 PUSH4 0xFFFFFFFF AND PUSH1 0xE0 SHL DUP2 MSTORE PUSH1 0x4 ADD PUSH2 0x3CD SWAP2 SWAP1 PUSH2 0x1486 JUMP JUMPDEST PUSH1 0x20 PUSH1 0x40 MLOAD DUP1 DUP4 SUB DUP2 DUP7 DUP1 EXTCODESIZE ISZERO DUP1 ISZERO PUSH2 0x3E5 JUMPI PUSH1 0x0 DUP1 REVERT JUMPDEST POP GAS STATICCALL ISZERO DUP1 ISZERO PUSH2 0x3F9 JUMPI RETURNDATASIZE PUSH1 0x0 DUP1 RETURNDATACOPY RETURNDATASIZE PUSH1 0x0 REVERT JUMPDEST POP POP POP POP PUSH1 0x40 MLOAD RETURNDATASIZE PUSH1 0x1F NOT PUSH1 0x1F DUP3 ADD AND DUP3 ADD DUP1 PUSH1 0x40 MSTORE POP DUP2 ADD SWAP1 PUSH2 0x41D SWAP2 SWAP1 PUSH2 0x1270 JUMP JUMPDEST SWAP1 POP SWAP2 SWAP1 POP JUMP JUMPDEST PUSH2 0x42C PUSH2 0xCFB JUMP JUMPDEST PUSH20 0xFFFFFFFFFFFFFFFFFFFFFFFFFFFFFFFFFFFFFFFF AND PUSH2 0x44A PUSH2 0x8F8 JUMP JUMPDEST PUSH20 0xFFFFFFFFFFFFFFFFFFFFFFFFFFFFFFFFFFFFFFFF AND EQ PUSH2 0x4A0 JUMPI PUSH1 0x40 MLOAD PUSH32 0x8C379A000000000000000000000000000000000000000000000000000000000 DUP2 MSTORE PUSH1 0x4 ADD PUSH2 0x497 SWAP1 PUSH2 0x159E JUMP JUMPDEST PUSH1 0x40 MLOAD DUP1 SWAP2 SUB SWAP1 REVERT JUMPDEST DUP1 PUSH1 0x2 DUP2 SWAP1 SSTORE POP POP JUMP JUMPDEST PUSH2 0x4B2 PUSH2 0xCFB JUMP JUMPDEST PUSH20 0xFFFFFFFFFFFFFFFFFFFFFFFFFFFFFFFFFFFFFFFF AND PUSH2 0x4D0 PUSH2 0x8F8 JUMP JUMPDEST PUSH20 0xFFFFFFFFFFFFFFFFFFFFFFFFFFFFFFFFFFFFFFFF AND EQ PUSH2 0x526 JUMPI PUSH1 0x40 MLOAD PUSH32 0x8C379A000000000000000000000000000000000000000000000000000000000 DUP2 MSTORE PUSH1 0x4 ADD PUSH2 0x51D SWAP1 PUSH2 0x159E JUMP JUMPDEST PUSH1 0x40 MLOAD DUP1 SWAP2 SUB SWAP1 REVERT JUMPDEST PUSH1 0x3 SLOAD TIMESTAMP GT PUSH2 0x56A JUMPI PUSH1 0x40 MLOAD PUSH32 0x8C379A000000000000000000000000000000000000000000000000000000000 DUP2 MSTORE PUSH1 0x4 ADD PUSH2 0x561 SWAP1 PUSH2 0x15DE JUMP JUMPDEST PUSH1 0x40 MLOAD DUP1 SWAP2 SUB SWAP1 REVERT JUMPDEST PUSH2 0x668 DUP2 PUSH1 0x4 PUSH1 0x0 SWAP1 SLOAD SWAP1 PUSH2 0x100 EXP SWAP1 DIV PUSH20 0xFFFFFFFFFFFFFFFFFFFFFFFFFFFFFFFFFFFFFFFF AND PUSH20 0xFFFFFFFFFFFFFFFFFFFFFFFFFFFFFFFFFFFFFFFF AND PUSH4 0x70A08231 PUSH2 0x5B4 PUSH2 0x8F8 JUMP JUMPDEST PUSH1 0x40 MLOAD DUP3 PUSH4 0xFFFFFFFF AND PUSH1 0xE0 SHL DUP2 MSTORE PUSH1 0x4 ADD PUSH2 0x5D0 SWAP2 SWAP1 PUSH2 0x1486 JUMP JUMPDEST PUSH1 0x20 PUSH1 0x40 MLOAD DUP1 DUP4 SUB DUP2 DUP7 DUP1 EXTCODESIZE ISZERO DUP1 ISZERO PUSH2 0x5E8 JUMPI PUSH1 0x0 DUP1 REVERT JUMPDEST POP GAS STATICCALL ISZERO DUP1 ISZERO PUSH2 0x5FC JUMPI RETURNDATASIZE PUSH1 0x0 DUP1 RETURNDATACOPY RETURNDATASIZE PUSH1 0x0 REVERT JUMPDEST POP POP POP POP PUSH1 0x40 MLOAD RETURNDATASIZE PUSH1 0x1F NOT PUSH1 0x1F DUP3 ADD AND DUP3 ADD DUP1 PUSH1 0x40 MSTORE POP DUP2 ADD SWAP1 PUSH2 0x620 SWAP2 SWAP1 PUSH2 0x1270 JUMP JUMPDEST PUSH1 0x4 PUSH1 0x0 SWAP1 SLOAD SWAP1 PUSH2 0x100 EXP SWAP1 DIV PUSH20 0xFFFFFFFFFFFFFFFFFFFFFFFFFFFFFFFFFFFFFFFF AND PUSH20 0xFFFFFFFFFFFFFFFFFFFFFFFFFFFFFFFFFFFFFFFF AND PUSH2 0xD03 SWAP1 SWAP3 SWAP2 SWAP1 PUSH4 0xFFFFFFFF AND JUMP JUMPDEST PUSH2 0x766 DUP2 PUSH1 0x4 PUSH1 0x0 SWAP1 SLOAD SWAP1 PUSH2 0x100 EXP SWAP1 DIV PUSH20 0xFFFFFFFFFFFFFFFFFFFFFFFFFFFFFFFFFFFFFFFF AND PUSH20 0xFFFFFFFFFFFFFFFFFFFFFFFFFFFFFFFFFFFFFFFF AND PUSH4 0x70A08231 PUSH2 0x6B2 PUSH2 0x8F8 JUMP JUMPDEST PUSH1 0x40 MLOAD DUP3 PUSH4 0xFFFFFFFF AND PUSH1 0xE0 SHL DUP2 MSTORE PUSH1 0x4 ADD PUSH2 0x6CE SWAP2 SWAP1 PUSH2 0x1486 JUMP JUMPDEST PUSH1 0x20 PUSH1 0x40 MLOAD DUP1 DUP4 SUB DUP2 DUP7 DUP1 EXTCODESIZE ISZERO DUP1 ISZERO PUSH2 0x6E6 JUMPI PUSH1 0x0 DUP1 REVERT JUMPDEST POP GAS STATICCALL ISZERO DUP1 ISZERO PUSH2 0x6FA JUMPI RETURNDATASIZE PUSH1 0x0 DUP1 RETURNDATACOPY RETURNDATASIZE PUSH1 0x0 REVERT JUMPDEST POP POP POP POP PUSH1 0x40 MLOAD RETURNDATASIZE PUSH1 0x1F NOT PUSH1 0x1F DUP3 ADD AND DUP3 ADD DUP1 PUSH1 0x40 MSTORE POP DUP2 ADD SWAP1 PUSH2 0x71E SWAP2 SWAP1 PUSH2 0x1270 JUMP JUMPDEST PUSH1 0x4 PUSH1 0x0 SWAP1 SLOAD SWAP1 PUSH2 0x100 EXP SWAP1 DIV PUSH20 0xFFFFFFFFFFFFFFFFFFFFFFFFFFFFFFFFFFFFFFFF AND PUSH20 0xFFFFFFFFFFFFFFFFFFFFFFFFFFFFFFFFFFFFFFFF AND PUSH2 0xD03 SWAP1 SWAP3 SWAP2 SWAP1 PUSH4 0xFFFFFFFF AND JUMP JUMPDEST POP JUMP JUMPDEST PUSH1 0x4 PUSH1 0x0 SWAP1 SLOAD SWAP1 PUSH2 0x100 EXP SWAP1 DIV PUSH20 0xFFFFFFFFFFFFFFFFFFFFFFFFFFFFFFFFFFFFFFFF AND DUP2 JUMP JUMPDEST PUSH1 0x0 PUSH1 0x5 PUSH1 0x0 DUP4 PUSH20 0xFFFFFFFFFFFFFFFFFFFFFFFFFFFFFFFFFFFFFFFF AND PUSH20 0xFFFFFFFFFFFFFFFFFFFFFFFFFFFFFFFFFFFFFFFF AND DUP2 MSTORE PUSH1 0x20 ADD SWAP1 DUP2 MSTORE PUSH1 0x20 ADD PUSH1 0x0 KECCAK256 PUSH1 0x0 ADD SLOAD SWAP1 POP SWAP2 SWAP1 POP JUMP JUMPDEST PUSH2 0x7E3 PUSH2 0xCFB JUMP JUMPDEST PUSH20 0xFFFFFFFFFFFFFFFFFFFFFFFFFFFFFFFFFFFFFFFF AND PUSH2 0x801 PUSH2 0x8F8 JUMP JUMPDEST PUSH20 0xFFFFFFFFFFFFFFFFFFFFFFFFFFFFFFFFFFFFFFFF AND EQ PUSH2 0x857 JUMPI PUSH1 0x40 MLOAD PUSH32 0x8C379A000000000000000000000000000000000000000000000000000000000 DUP2 MSTORE PUSH1 0x4 ADD PUSH2 0x84E SWAP1 PUSH2 0x159E JUMP JUMPDEST PUSH1 0x40 MLOAD DUP1 SWAP2 SUB SWAP1 REVERT JUMPDEST DUP1 PUSH1 0x3 DUP2 SWAP1 SSTORE POP POP JUMP JUMPDEST PUSH2 0x869 PUSH2 0xCFB JUMP JUMPDEST PUSH20 0xFFFFFFFFFFFFFFFFFFFFFFFFFFFFFFFFFFFFFFFF AND PUSH2 0x887 PUSH2 0x8F8 JUMP JUMPDEST PUSH20 0xFFFFFFFFFFFFFFFFFFFFFFFFFFFFFFFFFFFFFFFF AND EQ PUSH2 0x8DD JUMPI PUSH1 0x40 MLOAD PUSH32 0x8C379A000000000000000000000000000000000000000000000000000000000 DUP2 MSTORE PUSH1 0x4 ADD PUSH2 0x8D4 SWAP1 PUSH2 0x159E JUMP JUMPDEST PUSH1 0x40 MLOAD DUP1 SWAP2 SUB SWAP1 REVERT JUMPDEST PUSH2 0x8E7 PUSH1 0x0 PUSH2 0xD89 JUMP JUMPDEST JUMP JUMPDEST PUSH1 0x0 PUSH2 0x8F3 PUSH2 0x8F8 JUMP JUMPDEST SWAP1 POP SWAP1 JUMP JUMPDEST PUSH1 0x0 DUP1 PUSH1 0x0 SWAP1 SLOAD SWAP1 PUSH2 0x100 EXP SWAP1 DIV PUSH20 0xFFFFFFFFFFFFFFFFFFFFFFFFFFFFFFFFFFFFFFFF AND SWAP1 POP SWAP1 JUMP JUMPDEST PUSH1 0x0 PUSH1 0x2 SLOAD SWAP1 POP SWAP1 JUMP JUMPDEST PUSH1 0x0 PUSH1 0x3 SLOAD SWAP1 POP SWAP1 JUMP JUMPDEST PUSH1 0x0 PUSH2 0x93F PUSH2 0xCFB JUMP JUMPDEST PUSH20 0xFFFFFFFFFFFFFFFFFFFFFFFFFFFFFFFFFFFFFFFF AND PUSH2 0x95D PUSH2 0x8F8 JUMP JUMPDEST PUSH20 0xFFFFFFFFFFFFFFFFFFFFFFFFFFFFFFFFFFFFFFFF AND EQ PUSH2 0x9B3 JUMPI PUSH1 0x40 MLOAD PUSH32 0x8C379A000000000000000000000000000000000000000000000000000000000 DUP2 MSTORE PUSH1 0x4 ADD PUSH2 0x9AA SWAP1 PUSH2 0x159E JUMP JUMPDEST PUSH1 0x40 MLOAD DUP1 SWAP2 SUB SWAP1 REVERT JUMPDEST PUSH1 0x0 PUSH1 0x5 PUSH1 0x0 DUP5 PUSH20 0xFFFFFFFFFFFFFFFFFFFFFFFFFFFFFFFFFFFFFFFF AND PUSH20 0xFFFFFFFFFFFFFFFFFFFFFFFFFFFFFFFFFFFFFFFF AND DUP2 MSTORE PUSH1 0x20 ADD SWAP1 DUP2 MSTORE PUSH1 0x20 ADD PUSH1 0x0 KECCAK256 PUSH1 0x0 ADD SLOAD SWAP1 POP DUP1 SELFBALANCE LT ISZERO PUSH2 0xA3D JUMPI PUSH1 0x40 MLOAD PUSH32 0x8C379A000000000000000000000000000000000000000000000000000000000 DUP2 MSTORE PUSH1 0x4 ADD PUSH2 0xA34 SWAP1 PUSH2 0x161E JUMP JUMPDEST PUSH1 0x40 MLOAD DUP1 SWAP2 SUB SWAP1 REVERT JUMPDEST DUP3 PUSH20 0xFFFFFFFFFFFFFFFFFFFFFFFFFFFFFFFFFFFFFFFF AND PUSH2 0x8FC DUP3 SWAP1 DUP2 ISZERO MUL SWAP1 PUSH1 0x40 MLOAD PUSH1 0x0 PUSH1 0x40 MLOAD DUP1 DUP4 SUB DUP2 DUP6 DUP9 DUP9 CALL SWAP4 POP POP POP POP ISZERO DUP1 ISZERO PUSH2 0xA83 JUMPI RETURNDATASIZE PUSH1 0x0 DUP1 RETURNDATACOPY RETURNDATASIZE PUSH1 0x0 REVERT JUMPDEST POP PUSH1 0x1 SWAP2 POP POP SWAP2 SWAP1 POP JUMP JUMPDEST PUSH1 0x0 PUSH1 0x2 SLOAD TIMESTAMP LT ISZERO PUSH2 0xAD5 JUMPI PUSH1 0x40 MLOAD PUSH32 0x8C379A000000000000000000000000000000000000000000000000000000000 DUP2 MSTORE PUSH1 0x4 ADD PUSH2 0xACC SWAP1 PUSH2 0x15BE JUMP JUMPDEST PUSH1 0x40 MLOAD DUP1 SWAP2 SUB SWAP1 REVERT JUMPDEST PUSH1 0x3 SLOAD TIMESTAMP GT ISZERO PUSH2 0xB1A JUMPI PUSH1 0x40 MLOAD PUSH32 0x8C379A000000000000000000000000000000000000000000000000000000000 DUP2 MSTORE PUSH1 0x4 ADD PUSH2 0xB11 SWAP1 PUSH2 0x155E JUMP JUMPDEST PUSH1 0x40 MLOAD DUP1 SWAP2 SUB SWAP1 REVERT JUMPDEST CALLER SWAP1 POP SWAP1 JUMP JUMPDEST PUSH1 0x2 SLOAD TIMESTAMP LT ISZERO PUSH2 0xB65 JUMPI PUSH1 0x40 MLOAD PUSH32 0x8C379A000000000000000000000000000000000000000000000000000000000 DUP2 MSTORE PUSH1 0x4 ADD PUSH2 0xB5C SWAP1 PUSH2 0x15BE JUMP JUMPDEST PUSH1 0x40 MLOAD DUP1 SWAP2 SUB SWAP1 REVERT JUMPDEST PUSH1 0x3 SLOAD TIMESTAMP GT ISZERO PUSH2 0xBAA JUMPI PUSH1 0x40 MLOAD PUSH32 0x8C379A000000000000000000000000000000000000000000000000000000000 DUP2 MSTORE PUSH1 0x4 ADD PUSH2 0xBA1 SWAP1 PUSH2 0x155E JUMP JUMPDEST PUSH1 0x40 MLOAD DUP1 SWAP2 SUB SWAP1 REVERT JUMPDEST PUSH2 0xC00 CALLER PUSH2 0xBB6 PUSH2 0x8F8 JUMP JUMPDEST DUP4 PUSH1 0x4 PUSH1 0x0 SWAP1 SLOAD SWAP1 PUSH2 0x100 EXP SWAP1 DIV PUSH20 0xFFFFFFFFFFFFFFFFFFFFFFFFFFFFFFFFFFFFFFFF AND PUSH20 0xFFFFFFFFFFFFFFFFFFFFFFFFFFFFFFFFFFFFFFFF AND PUSH2 0xE4D SWAP1 SWAP4 SWAP3 SWAP2 SWAP1 PUSH4 0xFFFFFFFF AND JUMP JUMPDEST POP JUMP JUMPDEST PUSH2 0xC0B PUSH2 0xCFB JUMP JUMPDEST PUSH20 0xFFFFFFFFFFFFFFFFFFFFFFFFFFFFFFFFFFFFFFFF AND PUSH2 0xC29 PUSH2 0x8F8 JUMP JUMPDEST PUSH20 0xFFFFFFFFFFFFFFFFFFFFFFFFFFFFFFFFFFFFFFFF AND EQ PUSH2 0xC7F JUMPI PUSH1 0x40 MLOAD PUSH32 0x8C379A000000000000000000000000000000000000000000000000000000000 DUP2 MSTORE PUSH1 0x4 ADD PUSH2 0xC76 SWAP1 PUSH2 0x159E JUMP JUMPDEST PUSH1 0x40 MLOAD DUP1 SWAP2 SUB SWAP1 REVERT JUMPDEST PUSH1 0x0 PUSH20 0xFFFFFFFFFFFFFFFFFFFFFFFFFFFFFFFFFFFFFFFF AND DUP2 PUSH20 0xFFFFFFFFFFFFFFFFFFFFFFFFFFFFFFFFFFFFFFFF AND EQ ISZERO PUSH2 0xCEF JUMPI PUSH1 0x40 MLOAD PUSH32 0x8C379A000000000000000000000000000000000000000000000000000000000 DUP2 MSTORE PUSH1 0x4 ADD PUSH2 0xCE6 SWAP1 PUSH2 0x153E JUMP JUMPDEST PUSH1 0x40 MLOAD DUP1 SWAP2 SUB SWAP1 REVERT JUMPDEST PUSH2 0xCF8 DUP2 PUSH2 0xD89 JUMP JUMPDEST POP JUMP JUMPDEST PUSH1 0x0 CALLER SWAP1 POP SWAP1 JUMP JUMPDEST PUSH2 0xD84 DUP4 PUSH4 0xA9059CBB PUSH1 0xE0 SHL DUP5 DUP5 PUSH1 0x40 MLOAD PUSH1 0x24 ADD PUSH2 0xD22 SWAP3 SWAP2 SWAP1 PUSH2 0x14D8 JUMP JUMPDEST PUSH1 0x40 MLOAD PUSH1 0x20 DUP2 DUP4 SUB SUB DUP2 MSTORE SWAP1 PUSH1 0x40 MSTORE SWAP1 PUSH28 0xFFFFFFFFFFFFFFFFFFFFFFFFFFFFFFFFFFFFFFFFFFFFFFFFFFFFFFFF NOT AND PUSH1 0x20 DUP3 ADD DUP1 MLOAD PUSH28 0xFFFFFFFFFFFFFFFFFFFFFFFFFFFFFFFFFFFFFFFFFFFFFFFFFFFFFFFF DUP4 DUP2 DUP4 AND OR DUP4 MSTORE POP POP POP POP PUSH2 0xED6 JUMP JUMPDEST POP POP POP JUMP JUMPDEST PUSH1 0x0 DUP1 PUSH1 0x0 SWAP1 SLOAD SWAP1 PUSH2 0x100 EXP SWAP1 DIV PUSH20 0xFFFFFFFFFFFFFFFFFFFFFFFFFFFFFFFFFFFFFFFF AND SWAP1 POP DUP2 PUSH1 0x0 DUP1 PUSH2 0x100 EXP DUP2 SLOAD DUP2 PUSH20 0xFFFFFFFFFFFFFFFFFFFFFFFFFFFFFFFFFFFFFFFF MUL NOT AND SWAP1 DUP4 PUSH20 0xFFFFFFFFFFFFFFFFFFFFFFFFFFFFFFFFFFFFFFFF AND MUL OR SWAP1 SSTORE POP DUP2 PUSH20 0xFFFFFFFFFFFFFFFFFFFFFFFFFFFFFFFFFFFFFFFF AND DUP2 PUSH20 0xFFFFFFFFFFFFFFFFFFFFFFFFFFFFFFFFFFFFFFFF AND PUSH32 0x8BE0079C531659141344CD1FD0A4F28419497F9722A3DAAFE3B4186F6B6457E0 PUSH1 0x40 MLOAD PUSH1 0x40 MLOAD DUP1 SWAP2 SUB SWAP1 LOG3 POP POP JUMP JUMPDEST PUSH2 0xED0 DUP5 PUSH4 0x23B872DD PUSH1 0xE0 SHL DUP6 DUP6 DUP6 PUSH1 0x40 MLOAD PUSH1 0x24 ADD PUSH2 0xE6E SWAP4 SWAP3 SWAP2 SWAP1 PUSH2 0x14A1 JUMP JUMPDEST PUSH1 0x40 MLOAD PUSH1 0x20 DUP2 DUP4 SUB SUB DUP2 MSTORE SWAP1 PUSH1 0x40 MSTORE SWAP1 PUSH28 0xFFFFFFFFFFFFFFFFFFFFFFFFFFFFFFFFFFFFFFFFFFFFFFFFFFFFFFFF NOT AND PUSH1 0x20 DUP3 ADD DUP1 MLOAD PUSH28 0xFFFFFFFFFFFFFFFFFFFFFFFFFFFFFFFFFFFFFFFFFFFFFFFFFFFFFFFF DUP4 DUP2 DUP4 AND OR DUP4 MSTORE POP POP POP POP PUSH2 0xED6 JUMP JUMPDEST POP POP POP POP JUMP JUMPDEST PUSH1 0x0 PUSH2 0xF38 DUP3 PUSH1 0x40 MLOAD DUP1 PUSH1 0x40 ADD PUSH1 0x40 MSTORE DUP1 PUSH1 0x20 DUP2 MSTORE PUSH1 0x20 ADD PUSH32 0x5361666545524332303A206C6F772D6C6576656C2063616C6C206661696C6564 DUP2 MSTORE POP DUP6 PUSH20 0xFFFFFFFFFFFFFFFFFFFFFFFFFFFFFFFFFFFFFFFF AND PUSH2 0xF9D SWAP1 SWAP3 SWAP2 SWAP1 PUSH4 0xFFFFFFFF AND JUMP JUMPDEST SWAP1 POP PUSH1 0x0 DUP2 MLOAD GT ISZERO PUSH2 0xF98 JUMPI DUP1 DUP1 PUSH1 0x20 ADD SWAP1 MLOAD DUP2 ADD SWAP1 PUSH2 0xF58 SWAP2 SWAP1 PUSH2 0x1216 JUMP JUMPDEST PUSH2 0xF97 JUMPI PUSH1 0x40 MLOAD PUSH32 0x8C379A000000000000000000000000000000000000000000000000000000000 DUP2 MSTORE PUSH1 0x4 ADD PUSH2 0xF8E SWAP1 PUSH2 0x163E JUMP JUMPDEST PUSH1 0x40 MLOAD DUP1 SWAP2 SUB SWAP1 REVERT JUMPDEST JUMPDEST POP POP POP JUMP JUMPDEST PUSH1 0x60 PUSH2 0xFAC DUP5 DUP5 PUSH1 0x0 DUP6 PUSH2 0xFB5 JUMP JUMPDEST SWAP1 POP SWAP4 SWAP3 POP POP POP JUMP JUMPDEST PUSH1 0x60 DUP3 SELFBALANCE LT ISZERO PUSH2 0xFFA JUMPI PUSH1 0x40 MLOAD PUSH32 0x8C379A000000000000000000000000000000000000000000000000000000000 DUP2 MSTORE PUSH1 0x4 ADD PUSH2 0xFF1 SWAP1 PUSH2 0x157E JUMP JUMPDEST PUSH1 0x40 MLOAD DUP1 SWAP2 SUB SWAP1 REVERT JUMPDEST PUSH2 0x1003 DUP6 PUSH2 0x10C9 JUMP JUMPDEST PUSH2 0x1042 JUMPI PUSH1 0x40 MLOAD PUSH32 0x8C379A000000000000000000000000000000000000000000000000000000000 DUP2 MSTORE PUSH1 0x4 ADD PUSH2 0x1039 SWAP1 PUSH2 0x15FE JUMP JUMPDEST PUSH1 0x40 MLOAD DUP1 SWAP2 SUB SWAP1 REVERT JUMPDEST PUSH1 0x0 DUP1 DUP7 PUSH20 0xFFFFFFFFFFFFFFFFFFFFFFFFFFFFFFFFFFFFFFFF AND DUP6 DUP8 PUSH1 0x40 MLOAD PUSH2 0x106B SWAP2 SWAP1 PUSH2 0x146F JUMP JUMPDEST PUSH1 0x0 PUSH1 0x40 MLOAD DUP1 DUP4 SUB DUP2 DUP6 DUP8 GAS CALL SWAP3 POP POP POP RETURNDATASIZE DUP1 PUSH1 0x0 DUP2 EQ PUSH2 0x10A8 JUMPI PUSH1 0x40 MLOAD SWAP2 POP PUSH1 0x1F NOT PUSH1 0x3F RETURNDATASIZE ADD AND DUP3 ADD PUSH1 0x40 MSTORE RETURNDATASIZE DUP3 MSTORE RETURNDATASIZE PUSH1 0x0 PUSH1 0x20 DUP5 ADD RETURNDATACOPY PUSH2 0x10AD JUMP JUMPDEST PUSH1 0x60 SWAP2 POP JUMPDEST POP SWAP2 POP SWAP2 POP PUSH2 0x10BD DUP3 DUP3 DUP7 PUSH2 0x10EC JUMP JUMPDEST SWAP3 POP POP POP SWAP5 SWAP4 POP POP POP POP JUMP JUMPDEST PUSH1 0x0 DUP1 DUP3 PUSH20 0xFFFFFFFFFFFFFFFFFFFFFFFFFFFFFFFFFFFFFFFF AND EXTCODESIZE GT SWAP1 POP SWAP2 SWAP1 POP JUMP JUMPDEST PUSH1 0x60 DUP4 ISZERO PUSH2 0x10FC JUMPI DUP3 SWAP1 POP PUSH2 0x114C JUMP JUMPDEST PUSH1 0x0 DUP4 MLOAD GT ISZERO PUSH2 0x110F JUMPI DUP3 MLOAD DUP1 DUP5 PUSH1 0x20 ADD REVERT JUMPDEST DUP2 PUSH1 0x40 MLOAD PUSH32 0x8C379A000000000000000000000000000000000000000000000000000000000 DUP2 MSTORE PUSH1 0x4 ADD PUSH2 0x1143 SWAP2 SWAP1 PUSH2 0x151C JUMP JUMPDEST PUSH1 0x40 MLOAD DUP1 SWAP2 SUB SWAP1 REVERT JUMPDEST SWAP4 SWAP3 POP POP POP JUMP JUMPDEST PUSH1 0x0 DUP2 CALLDATALOAD SWAP1 POP PUSH2 0x1162 DUP2 PUSH2 0x1931 JUMP JUMPDEST SWAP3 SWAP2 POP POP JUMP JUMPDEST PUSH1 0x0 DUP2 CALLDATALOAD SWAP1 POP PUSH2 0x1177 DUP2 PUSH2 0x1948 JUMP JUMPDEST SWAP3 SWAP2 POP POP JUMP JUMPDEST PUSH1 0x0 DUP2 MLOAD SWAP1 POP PUSH2 0x118C DUP2 PUSH2 0x195F JUMP JUMPDEST SWAP3 SWAP2 POP POP JUMP JUMPDEST PUSH1 0x0 DUP2 CALLDATALOAD SWAP1 POP PUSH2 0x11A1 DUP2 PUSH2 0x1976 JUMP JUMPDEST SWAP3 SWAP2 POP POP JUMP JUMPDEST PUSH1 0x0 DUP2 MLOAD SWAP1 POP PUSH2 0x11B6 DUP2 PUSH2 0x1976 JUMP JUMPDEST SWAP3 SWAP2 POP POP JUMP JUMPDEST PUSH1 0x0 PUSH1 0x20 DUP3 DUP5 SUB SLT ISZERO PUSH2 0x11D2 JUMPI PUSH2 0x11D1 PUSH2 0x1738 JUMP JUMPDEST JUMPDEST PUSH1 0x0 PUSH2 0x11E0 DUP5 DUP3 DUP6 ADD PUSH2 0x1153 JUMP JUMPDEST SWAP2 POP POP SWAP3 SWAP2 POP POP JUMP JUMPDEST PUSH1 0x0 PUSH1 0x20 DUP3 DUP5 SUB SLT ISZERO PUSH2 0x11FF JUMPI PUSH2 0x11FE PUSH2 0x1738 JUMP JUMPDEST JUMPDEST PUSH1 0x0 PUSH2 0x120D DUP5 DUP3 DUP6 ADD PUSH2 0x1168 JUMP JUMPDEST SWAP2 POP POP SWAP3 SWAP2 POP POP JUMP JUMPDEST PUSH1 0x0 PUSH1 0x20 DUP3 DUP5 SUB SLT ISZERO PUSH2 0x122C JUMPI PUSH2 0x122B PUSH2 0x1738 JUMP JUMPDEST JUMPDEST PUSH1 0x0 PUSH2 0x123A DUP5 DUP3 DUP6 ADD PUSH2 0x117D JUMP JUMPDEST SWAP2 POP POP SWAP3 SWAP2 POP POP JUMP JUMPDEST PUSH1 0x0 PUSH1 0x20 DUP3 DUP5 SUB SLT ISZERO PUSH2 0x1259 JUMPI PUSH2 0x1258 PUSH2 0x1738 JUMP JUMPDEST JUMPDEST PUSH1 0x0 PUSH2 0x1267 DUP5 DUP3 DUP6 ADD PUSH2 0x1192 JUMP JUMPDEST SWAP2 POP POP SWAP3 SWAP2 POP POP JUMP JUMPDEST PUSH1 0x0 PUSH1 0x20 DUP3 DUP5 SUB SLT ISZERO PUSH2 0x1286 JUMPI PUSH2 0x1285 PUSH2 0x1738 JUMP JUMPDEST JUMPDEST PUSH1 0x0 PUSH2 0x1294 DUP5 DUP3 DUP6 ADD PUSH2 0x11A7 JUMP JUMPDEST SWAP2 POP POP SWAP3 SWAP2 POP POP JUMP JUMPDEST PUSH2 0x12A6 DUP2 PUSH2 0x16AB JUMP JUMPDEST DUP3 MSTORE POP POP JUMP JUMPDEST PUSH2 0x12B5 DUP2 PUSH2 0x16CF JUMP JUMPDEST DUP3 MSTORE POP POP JUMP JUMPDEST PUSH1 0x0 PUSH2 0x12C6 DUP3 PUSH2 0x1679 JUMP JUMPDEST PUSH2 0x12D0 DUP2 DUP6 PUSH2 0x168F JUMP JUMPDEST SWAP4 POP PUSH2 0x12E0 DUP2 DUP6 PUSH1 0x20 DUP7 ADD PUSH2 0x1705 JUMP JUMPDEST DUP1 DUP5 ADD SWAP2 POP POP SWAP3 SWAP2 POP POP JUMP JUMPDEST PUSH1 0x0 PUSH2 0x12F7 DUP3 PUSH2 0x1684 JUMP JUMPDEST PUSH2 0x1301 DUP2 DUP6 PUSH2 0x169A JUMP JUMPDEST SWAP4 POP PUSH2 0x1311 DUP2 DUP6 PUSH1 0x20 DUP7 ADD PUSH2 0x1705 JUMP JUMPDEST PUSH2 0x131A DUP2 PUSH2 0x173D JUMP JUMPDEST DUP5 ADD SWAP2 POP POP SWAP3 SWAP2 POP POP JUMP JUMPDEST PUSH1 0x0 PUSH2 0x1332 PUSH1 0x26 DUP4 PUSH2 0x169A JUMP JUMPDEST SWAP2 POP PUSH2 0x133D DUP3 PUSH2 0x174E JUMP JUMPDEST PUSH1 0x40 DUP3 ADD SWAP1 POP SWAP2 SWAP1 POP JUMP JUMPDEST PUSH1 0x0 PUSH2 0x1355 PUSH1 0xE DUP4 PUSH2 0x169A JUMP JUMPDEST SWAP2 POP PUSH2 0x1360 DUP3 PUSH2 0x179D JUMP JUMPDEST PUSH1 0x20 DUP3 ADD SWAP1 POP SWAP2 SWAP1 POP JUMP JUMPDEST PUSH1 0x0 PUSH2 0x1378 PUSH1 0x26 DUP4 PUSH2 0x169A JUMP JUMPDEST SWAP2 POP PUSH2 0x1383 DUP3 PUSH2 0x17C6 JUMP JUMPDEST PUSH1 0x40 DUP3 ADD SWAP1 POP SWAP2 SWAP1 POP JUMP JUMPDEST PUSH1 0x0 PUSH2 0x139B PUSH1 0x20 DUP4 PUSH2 0x169A JUMP JUMPDEST SWAP2 POP PUSH2 0x13A6 DUP3 PUSH2 0x1815 JUMP JUMPDEST PUSH1 0x20 DUP3 ADD SWAP1 POP SWAP2 SWAP1 POP JUMP JUMPDEST PUSH1 0x0 PUSH2 0x13BE PUSH1 0x17 DUP4 PUSH2 0x169A JUMP JUMPDEST SWAP2 POP PUSH2 0x13C9 DUP3 PUSH2 0x183E JUMP JUMPDEST PUSH1 0x20 DUP3 ADD SWAP1 POP SWAP2 SWAP1 POP JUMP JUMPDEST PUSH1 0x0 PUSH2 0x13E1 PUSH1 0x11 DUP4 PUSH2 0x169A JUMP JUMPDEST SWAP2 POP PUSH2 0x13EC DUP3 PUSH2 0x1867 JUMP JUMPDEST PUSH1 0x20 DUP3 ADD SWAP1 POP SWAP2 SWAP1 POP JUMP JUMPDEST PUSH1 0x0 PUSH2 0x1404 PUSH1 0x1D DUP4 PUSH2 0x169A JUMP JUMPDEST SWAP2 POP PUSH2 0x140F DUP3 PUSH2 0x1890 JUMP JUMPDEST PUSH1 0x20 DUP3 ADD SWAP1 POP SWAP2 SWAP1 POP JUMP JUMPDEST PUSH1 0x0 PUSH2 0x1427 PUSH1 0x1A DUP4 PUSH2 0x169A JUMP JUMPDEST SWAP2 POP PUSH2 0x1432 DUP3 PUSH2 0x18B9 JUMP JUMPDEST PUSH1 0x20 DUP3 ADD SWAP1 POP SWAP2 SWAP1 POP JUMP JUMPDEST PUSH1 0x0 PUSH2 0x144A PUSH1 0x2A DUP4 PUSH2 0x169A JUMP JUMPDEST SWAP2 POP PUSH2 0x1455 DUP3 PUSH2 0x18E2 JUMP JUMPDEST PUSH1 0x40 DUP3 ADD SWAP1 POP SWAP2 SWAP1 POP JUMP JUMPDEST PUSH2 0x1469 DUP2 PUSH2 0x16FB JUMP JUMPDEST DUP3 MSTORE POP POP JUMP JUMPDEST PUSH1 0x0 PUSH2 0x147B DUP3 DUP5 PUSH2 0x12BB JUMP JUMPDEST SWAP2 POP DUP2 SWAP1 POP SWAP3 SWAP2 POP POP JUMP JUMPDEST PUSH1 0x0 PUSH1 0x20 DUP3 ADD SWAP1 POP PUSH2 0x149B PUSH1 0x0 DUP4 ADD DUP5 PUSH2 0x129D JUMP JUMPDEST SWAP3 SWAP2 POP POP JUMP JUMPDEST PUSH1 0x0 PUSH1 0x60 DUP3 ADD SWAP1 POP PUSH2 0x14B6 PUSH1 0x0 DUP4 ADD DUP7 PUSH2 0x129D JUMP JUMPDEST PUSH2 0x14C3 PUSH1 0x20 DUP4 ADD DUP6 PUSH2 0x129D JUMP JUMPDEST PUSH2 0x14D0 PUSH1 0x40 DUP4 ADD DUP5 PUSH2 0x1460 JUMP JUMPDEST SWAP5 SWAP4 POP POP POP POP JUMP JUMPDEST PUSH1 0x0 PUSH1 0x40 DUP3 ADD SWAP1 POP PUSH2 0x14ED PUSH1 0x0 DUP4 ADD DUP6 PUSH2 0x129D JUMP JUMPDEST PUSH2 0x14FA PUSH1 0x20 DUP4 ADD DUP5 PUSH2 0x1460 JUMP JUMPDEST SWAP4 SWAP3 POP POP POP JUMP JUMPDEST PUSH1 0x0 PUSH1 0x20 DUP3 ADD SWAP1 POP PUSH2 0x1516 PUSH1 0x0 DUP4 ADD DUP5 PUSH2 0x12AC JUMP JUMPDEST SWAP3 SWAP2 POP POP JUMP JUMPDEST PUSH1 0x0 PUSH1 0x20 DUP3 ADD SWAP1 POP DUP2 DUP2 SUB PUSH1 0x0 DUP4 ADD MSTORE PUSH2 0x1536 DUP2 DUP5 PUSH2 0x12EC JUMP JUMPDEST SWAP1 POP SWAP3 SWAP2 POP POP JUMP JUMPDEST PUSH1 0x0 PUSH1 0x20 DUP3 ADD SWAP1 POP DUP2 DUP2 SUB PUSH1 0x0 DUP4 ADD MSTORE PUSH2 0x1557 DUP2 PUSH2 0x1325 JUMP JUMPDEST SWAP1 POP SWAP2 SWAP1 POP JUMP JUMPDEST PUSH1 0x0 PUSH1 0x20 DUP3 ADD SWAP1 POP DUP2 DUP2 SUB PUSH1 0x0 DUP4 ADD MSTORE PUSH2 0x1577 DUP2 PUSH2 0x1348 JUMP JUMPDEST SWAP1 POP SWAP2 SWAP1 POP JUMP JUMPDEST PUSH1 0x0 PUSH1 0x20 DUP3 ADD SWAP1 POP DUP2 DUP2 SUB PUSH1 0x0 DUP4 ADD MSTORE PUSH2 0x1597 DUP2 PUSH2 0x136B JUMP JUMPDEST SWAP1 POP SWAP2 SWAP1 POP JUMP JUMPDEST PUSH1 0x0 PUSH1 0x20 DUP3 ADD SWAP1 POP DUP2 DUP2 SUB PUSH1 0x0 DUP4 ADD MSTORE PUSH2 0x15B7 DUP2 PUSH2 0x138E JUMP JUMPDEST SWAP1 POP SWAP2 SWAP1 POP JUMP JUMPDEST PUSH1 0x0 PUSH1 0x20 DUP3 ADD SWAP1 POP DUP2 DUP2 SUB PUSH1 0x0 DUP4 ADD MSTORE PUSH2 0x15D7 DUP2 PUSH2 0x13B1 JUMP JUMPDEST SWAP1 POP SWAP2 SWAP1 POP JUMP JUMPDEST PUSH1 0x0 PUSH1 0x20 DUP3 ADD SWAP1 POP DUP2 DUP2 SUB PUSH1 0x0 DUP4 ADD MSTORE PUSH2 0x15F7 DUP2 PUSH2 0x13D4 JUMP JUMPDEST SWAP1 POP SWAP2 SWAP1 POP JUMP JUMPDEST PUSH1 0x0 PUSH1 0x20 DUP3 ADD SWAP1 POP DUP2 DUP2 SUB PUSH1 0x0 DUP4 ADD MSTORE PUSH2 0x1617 DUP2 PUSH2 0x13F7 JUMP JUMPDEST SWAP1 POP SWAP2 SWAP1 POP JUMP JUMPDEST PUSH1 0x0 PUSH1 0x20 DUP3 ADD SWAP1 POP DUP2 DUP2 SUB PUSH1 0x0 DUP4 ADD MSTORE PUSH2 0x1637 DUP2 PUSH2 0x141A JUMP JUMPDEST SWAP1 POP SWAP2 SWAP1 POP JUMP JUMPDEST PUSH1 0x0 PUSH1 0x20 DUP3 ADD SWAP1 POP DUP2 DUP2 SUB PUSH1 0x0 DUP4 ADD MSTORE PUSH2 0x1657 DUP2 PUSH2 0x143D JUMP JUMPDEST SWAP1 POP SWAP2 SWAP1 POP JUMP JUMPDEST PUSH1 0x0 PUSH1 0x20 DUP3 ADD SWAP1 POP PUSH2 0x1673 PUSH1 0x0 DUP4 ADD DUP5 PUSH2 0x1460 JUMP JUMPDEST SWAP3 SWAP2 POP POP JUMP JUMPDEST PUSH1 0x0 DUP2 MLOAD SWAP1 POP SWAP2 SWAP1 POP JUMP JUMPDEST PUSH1 0x0 DUP2 MLOAD SWAP1 POP SWAP2 SWAP1 POP JUMP JUMPDEST PUSH1 0x0 DUP2 SWAP1 POP SWAP3 SWAP2 POP POP JUMP JUMPDEST PUSH1 0x0 DUP3 DUP3 MSTORE PUSH1 0x20 DUP3 ADD SWAP1 POP SWAP3 SWAP2 POP POP JUMP JUMPDEST PUSH1 0x0 PUSH2 0x16B6 DUP3 PUSH2 0x16DB JUMP JUMPDEST SWAP1 POP SWAP2 SWAP1 POP JUMP JUMPDEST PUSH1 0x0 PUSH2 0x16C8 DUP3 PUSH2 0x16DB JUMP JUMPDEST SWAP1 POP SWAP2 SWAP1 POP JUMP JUMPDEST PUSH1 0x0 DUP2 ISZERO ISZERO SWAP1 POP SWAP2 SWAP1 POP JUMP JUMPDEST PUSH1 0x0 PUSH20 0xFFFFFFFFFFFFFFFFFFFFFFFFFFFFFFFFFFFFFFFF DUP3 AND SWAP1 POP SWAP2 SWAP1 POP JUMP JUMPDEST PUSH1 0x0 DUP2 SWAP1 POP SWAP2 SWAP1 POP JUMP JUMPDEST PUSH1 0x0 JUMPDEST DUP4 DUP2 LT ISZERO PUSH2 0x1723 JUMPI DUP1 DUP3 ADD MLOAD DUP2 DUP5 ADD MSTORE PUSH1 0x20 DUP2 ADD SWAP1 POP PUSH2 0x1708 JUMP JUMPDEST DUP4 DUP2 GT ISZERO PUSH2 0x1732 JUMPI PUSH1 0x0 DUP5 DUP5 ADD MSTORE JUMPDEST POP POP POP POP JUMP JUMPDEST PUSH1 0x0 DUP1 REVERT JUMPDEST PUSH1 0x0 PUSH1 0x1F NOT PUSH1 0x1F DUP4 ADD AND SWAP1 POP SWAP2 SWAP1 POP JUMP JUMPDEST PUSH32 0x4F776E61626C653A206E6577206F776E657220697320746865207A65726F2061 PUSH1 0x0 DUP3 ADD MSTORE PUSH32 0x6464726573730000000000000000000000000000000000000000000000000000 PUSH1 0x20 DUP3 ADD MSTORE POP JUMP JUMPDEST PUSH32 0x53616C652068617320656E646564000000000000000000000000000000000000 PUSH1 0x0 DUP3 ADD MSTORE POP JUMP JUMPDEST PUSH32 0x416464726573733A20696E73756666696369656E742062616C616E636520666F PUSH1 0x0 DUP3 ADD MSTORE PUSH32 0x722063616C6C0000000000000000000000000000000000000000000000000000 PUSH1 0x20 DUP3 ADD MSTORE POP JUMP JUMPDEST PUSH32 0x4F776E61626C653A2063616C6C6572206973206E6F7420746865206F776E6572 PUSH1 0x0 DUP3 ADD MSTORE POP JUMP JUMPDEST PUSH32 0x53616C65206861736E2774207374617274656420796574000000000000000000 PUSH1 0x0 DUP3 ADD MSTORE POP JUMP JUMPDEST PUSH32 0x53616C65206861736E277420656E646564000000000000000000000000000000 PUSH1 0x0 DUP3 ADD MSTORE POP JUMP JUMPDEST PUSH32 0x416464726573733A2063616C6C20746F206E6F6E2D636F6E7472616374000000 PUSH1 0x0 DUP3 ADD MSTORE POP JUMP JUMPDEST PUSH32 0x4E6F7420656E6F75676820746F6B656E20746F2072657475726E000000000000 PUSH1 0x0 DUP3 ADD MSTORE POP JUMP JUMPDEST PUSH32 0x5361666545524332303A204552433230206F7065726174696F6E20646964206E PUSH1 0x0 DUP3 ADD MSTORE PUSH32 0x6F74207375636365656400000000000000000000000000000000000000000000 PUSH1 0x20 DUP3 ADD MSTORE POP JUMP JUMPDEST PUSH2 0x193A DUP2 PUSH2 0x16AB JUMP JUMPDEST DUP2 EQ PUSH2 0x1945 JUMPI PUSH1 0x0 DUP1 REVERT JUMPDEST POP JUMP JUMPDEST PUSH2 0x1951 DUP2 PUSH2 0x16BD JUMP JUMPDEST DUP2 EQ PUSH2 0x195C JUMPI PUSH1 0x0 DUP1 REVERT JUMPDEST POP JUMP JUMPDEST PUSH2 0x1968 DUP2 PUSH2 0x16CF JUMP JUMPDEST DUP2 EQ PUSH2 0x1973 JUMPI PUSH1 0x0 DUP1 REVERT JUMPDEST POP JUMP JUMPDEST PUSH2 0x197F DUP2 PUSH2 0x16FB JUMP JUMPDEST DUP2 EQ PUSH2 0x198A JUMPI PUSH1 0x0 DUP1 REVERT JUMPDEST POP JUMP INVALID LOG2 PUSH5 0x6970667358 0x22 SLT KECCAK256 LOG3 0x49 0xAF DIFFICULTY PUSH15 0x79F298F4951CE9F1CB71952FC8EDDB 0xC9 MOD 0xEE 0xDF DUP5 PUSH3 0xF4A8EC CALL POP 0x5E PUSH5 0x736F6C6343 STOP ADDMOD SMOD STOP CALLER "
				},
				"gasEstimates": {
					"creation": {
						"codeDepositCost": "1319000",
						"executionCost": "infinite",
						"totalCost": "infinite"
					},
					"external": {
						"Return(address)": "infinite",
						"_usdcInstance()": "2537",
						"bala(address)": "infinite",
						"getOwner()": "2580",
						"getRecord(address)": "2892",
						"owner()": "2567",
						"purchase(uint256)": "infinite",
						"purchases()": "4730",
						"renounceOwnership()": "30463",
						"saleEnd()": "2526",
						"saleStart()": "2504",
						"transferOwnership(address)": "30811",
						"updateSaleEndTime(uint256)": "24827",
						"updateSaleStartTime(uint256)": "24806",
						"withdraw(address)": "infinite"
					}
				},
				"methodIdentifiers": {
					"Return(address)": "de2d583a",
					"_usdcInstance()": "61778592",
					"bala(address)": "24076451",
					"getOwner()": "893d20e8",
					"getRecord(address)": "617fba04",
					"owner()": "8da5cb5b",
					"purchase(uint256)": "efef39a1",
					"purchases()": "ee3def0e",
					"renounceOwnership()": "715018a6",
					"saleEnd()": "c10b9358",
					"saleStart()": "ab0bcc41",
					"transferOwnership(address)": "f2fde38b",
					"updateSaleEndTime(uint256)": "6f9c6149",
					"updateSaleStartTime(uint256)": "295e4edf",
					"withdraw(address)": "51cff8d9"
				}
			},
			"storageLayout": {
				"storage": [
					{
						"astId": 7,
						"contract": "contracts/TokenSale.sol:TokenSale",
						"label": "_owner",
						"offset": 0,
						"slot": "0",
						"type": "t_address"
					},
					{
						"astId": 737,
						"contract": "contracts/TokenSale.sol:TokenSale",
						"label": "_tokenAddress",
						"offset": 0,
						"slot": "1",
						"type": "t_contract(IERC20)182"
					},
					{
						"astId": 739,
						"contract": "contracts/TokenSale.sol:TokenSale",
						"label": "_saleStart",
						"offset": 0,
						"slot": "2",
						"type": "t_uint256"
					},
					{
						"astId": 741,
						"contract": "contracts/TokenSale.sol:TokenSale",
						"label": "_saleEnd",
						"offset": 0,
						"slot": "3",
						"type": "t_uint256"
					},
					{
						"astId": 743,
						"contract": "contracts/TokenSale.sol:TokenSale",
						"label": "_usdcInstance",
						"offset": 0,
						"slot": "4",
						"type": "t_address"
					},
					{
						"astId": 755,
						"contract": "contracts/TokenSale.sol:TokenSale",
						"label": "record",
						"offset": 0,
						"slot": "5",
						"type": "t_mapping(t_address,t_struct(TokenRecord)750_storage)"
					}
				],
				"types": {
					"t_address": {
						"encoding": "inplace",
						"label": "address",
						"numberOfBytes": "20"
					},
					"t_contract(IERC20)182": {
						"encoding": "inplace",
						"label": "contract IERC20",
						"numberOfBytes": "20"
					},
					"t_mapping(t_address,t_struct(TokenRecord)750_storage)": {
						"encoding": "mapping",
						"key": "t_address",
						"label": "mapping(address => struct TokenSale.TokenRecord)",
						"numberOfBytes": "32",
						"value": "t_struct(TokenRecord)750_storage"
					},
					"t_string_storage": {
						"encoding": "bytes",
						"label": "string",
						"numberOfBytes": "32"
					},
					"t_struct(TokenRecord)750_storage": {
						"encoding": "inplace",
						"label": "struct TokenSale.TokenRecord",
						"members": [
							{
								"astId": 745,
								"contract": "contracts/TokenSale.sol:TokenSale",
								"label": "_amount",
								"offset": 0,
								"slot": "0",
								"type": "t_uint256"
							},
							{
								"astId": 747,
								"contract": "contracts/TokenSale.sol:TokenSale",
								"label": "_buyerAddress",
								"offset": 0,
								"slot": "1",
								"type": "t_address"
							},
							{
								"astId": 749,
								"contract": "contracts/TokenSale.sol:TokenSale",
								"label": "_tokenSymbol",
								"offset": 0,
								"slot": "2",
								"type": "t_string_storage"
							}
						],
						"numberOfBytes": "96"
					},
					"t_uint256": {
						"encoding": "inplace",
						"label": "uint256",
						"numberOfBytes": "32"
					}
				}
			},
			"userdoc": {
				"kind": "user",
				"methods": {},
				"version": 1
			}
		}
	}
}