{
	"contracts/TokenSale.sol": {
		"TokenSale": {
			"abi": [
				{
					"inputs": [
						{
							"internalType": "address",
							"name": "_owner",
							"type": "address"
						},
						{
							"internalType": "address",
							"name": "tokenAddress_",
							"type": "address"
						},
						{
							"internalType": "uint256",
							"name": "saleStart_",
							"type": "uint256"
						},
						{
							"internalType": "uint256",
							"name": "saleEnd_",
							"type": "uint256"
						},
						{
							"internalType": "address",
							"name": "usdcAddress_",
							"type": "address"
						}
					],
					"stateMutability": "nonpayable",
					"type": "constructor"
				},
				{
					"anonymous": false,
					"inputs": [
						{
							"indexed": true,
							"internalType": "address",
							"name": "previousOwner",
							"type": "address"
						},
						{
							"indexed": true,
							"internalType": "address",
							"name": "newOwner",
							"type": "address"
						}
					],
					"name": "OwnershipTransferred",
					"type": "event"
				},
				{
					"inputs": [
						{
							"internalType": "uint256",
							"name": "_amount",
							"type": "uint256"
						}
					],
					"name": "Return",
					"outputs": [
						{
							"internalType": "bool",
							"name": "",
							"type": "bool"
						}
					],
					"stateMutability": "nonpayable",
					"type": "function"
				},
				{
					"inputs": [],
					"name": "_usdcInstance",
					"outputs": [
						{
							"internalType": "address",
							"name": "",
							"type": "address"
						}
					],
					"stateMutability": "view",
					"type": "function"
				},
				{
					"inputs": [
						{
							"internalType": "address",
							"name": "add",
							"type": "address"
						}
					],
					"name": "bala",
					"outputs": [
						{
							"internalType": "uint256",
							"name": "",
							"type": "uint256"
						}
					],
					"stateMutability": "view",
					"type": "function"
				},
				{
					"inputs": [],
					"name": "claim",
					"outputs": [],
					"stateMutability": "nonpayable",
					"type": "function"
				},
				{
					"inputs": [],
					"name": "getOwner",
					"outputs": [
						{
							"internalType": "address",
							"name": "",
							"type": "address"
						}
					],
					"stateMutability": "view",
					"type": "function"
				},
				{
					"inputs": [
						{
							"internalType": "address",
							"name": "_address",
							"type": "address"
						}
					],
					"name": "getRecord",
					"outputs": [
						{
							"internalType": "uint256",
							"name": "",
							"type": "uint256"
						}
					],
					"stateMutability": "view",
					"type": "function"
				},
				{
					"inputs": [],
					"name": "owner",
					"outputs": [
						{
							"internalType": "address",
							"name": "",
							"type": "address"
						}
					],
					"stateMutability": "view",
					"type": "function"
				},
				{
					"inputs": [
						{
							"internalType": "uint256",
							"name": "_amount",
							"type": "uint256"
						}
					],
					"name": "purchase",
					"outputs": [],
					"stateMutability": "nonpayable",
					"type": "function"
				},
				{
					"inputs": [],
					"name": "renounceOwnership",
					"outputs": [],
					"stateMutability": "nonpayable",
					"type": "function"
				},
				{
					"inputs": [],
					"name": "saleEnd",
					"outputs": [
						{
							"internalType": "uint256",
							"name": "",
							"type": "uint256"
						}
					],
					"stateMutability": "view",
					"type": "function"
				},
				{
					"inputs": [],
					"name": "saleStart",
					"outputs": [
						{
							"internalType": "uint256",
							"name": "",
							"type": "uint256"
						}
					],
					"stateMutability": "view",
					"type": "function"
				},
				{
					"inputs": [],
					"name": "tokenAddress",
					"outputs": [
						{
							"internalType": "address",
							"name": "",
							"type": "address"
						}
					],
					"stateMutability": "view",
					"type": "function"
				},
				{
					"inputs": [
						{
							"internalType": "address",
							"name": "newOwner",
							"type": "address"
						}
					],
					"name": "transferOwnership",
					"outputs": [],
					"stateMutability": "nonpayable",
					"type": "function"
				},
				{
					"inputs": [
						{
							"internalType": "uint256",
							"name": "updatedSaleEndTime",
							"type": "uint256"
						}
					],
					"name": "updateSaleEndTime",
					"outputs": [],
					"stateMutability": "nonpayable",
					"type": "function"
				},
				{
					"inputs": [
						{
							"internalType": "uint256",
							"name": "updatedSaleStartTime",
							"type": "uint256"
						}
					],
					"name": "updateSaleStartTime",
					"outputs": [],
					"stateMutability": "nonpayable",
					"type": "function"
				},
				{
					"inputs": [
						{
							"internalType": "address",
							"name": "_to",
							"type": "address"
						}
					],
					"name": "withdraw",
					"outputs": [],
					"stateMutability": "nonpayable",
					"type": "function"
				}
			],
			"devdoc": {
				"kind": "dev",
				"methods": {
					"owner()": {
						"details": "Returns the address of the current owner."
					},
					"renounceOwnership()": {
						"details": "Leaves the contract without owner. It will not be possible to call `onlyOwner` functions anymore. Can only be called by the current owner. NOTE: Renouncing ownership will leave the contract without an owner, thereby removing any functionality that is only available to the owner."
					},
					"transferOwnership(address)": {
						"details": "Transfers ownership of the contract to a new account (`newOwner`). Can only be called by the current owner."
					}
				},
				"version": 1
			},
			"evm": {
				"assembly": "    /* \"contracts/TokenSale.sol\":285:2874  contract TokenSale is Ownable{\r... */\n  mstore(0x40, 0x80)\n    /* \"contracts/TokenSale.sol\":522:794  constructor(address _owner,address tokenAddress_,uint256 saleStart_,uint256 saleEnd_,address usdcAddress_){\r... */\n  callvalue\n  dup1\n  iszero\n  tag_1\n  jumpi\n  0x00\n  dup1\n  revert\ntag_1:\n  pop\n  mload(0x40)\n  sub(codesize, bytecodeSize)\n  dup1\n  bytecodeSize\n  dup4\n  codecopy\n  dup2\n  dup2\n  add\n  0x40\n  mstore\n  dup2\n  add\n  swap1\n  tag_2\n  swap2\n  swap1\n  tag_3\n  jump\t// in\ntag_2:\n    /* \"@openzeppelin/contracts/access/Ownable.sol\":921:953  _transferOwnership(_msgSender()) */\n  tag_7\n    /* \"@openzeppelin/contracts/access/Ownable.sol\":940:952  _msgSender() */\n  tag_8\n    /* \"@openzeppelin/contracts/access/Ownable.sol\":940:950  _msgSender */\n  shl(0x20, tag_9)\n    /* \"@openzeppelin/contracts/access/Ownable.sol\":940:952  _msgSender() */\n  0x20\n  shr\n  jump\t// in\ntag_8:\n    /* \"@openzeppelin/contracts/access/Ownable.sol\":921:939  _transferOwnership */\n  shl(0x20, tag_10)\n    /* \"@openzeppelin/contracts/access/Ownable.sol\":921:953  _transferOwnership(_msgSender()) */\n  0x20\n  shr\n  jump\t// in\ntag_7:\n    /* \"contracts/TokenSale.sol\":635:661  _transferOwnership(_owner) */\n  tag_12\n    /* \"contracts/TokenSale.sol\":654:660  _owner */\n  dup6\n    /* \"contracts/TokenSale.sol\":635:653  _transferOwnership */\n  shl(0x20, tag_10)\n    /* \"contracts/TokenSale.sol\":635:661  _transferOwnership(_owner) */\n  0x20\n  shr\n  jump\t// in\ntag_12:\n    /* \"contracts/TokenSale.sol\":684:696  usdcAddress_ */\n  dup1\n    /* \"contracts/TokenSale.sol\":668:681  _usdcInstance */\n  0x04\n  0x00\n    /* \"contracts/TokenSale.sol\":668:696  _usdcInstance = usdcAddress_ */\n  0x0100\n  exp\n  dup2\n  sload\n  dup2\n  0xffffffffffffffffffffffffffffffffffffffff\n  mul\n  not\n  and\n  swap1\n  dup4\n  0xffffffffffffffffffffffffffffffffffffffff\n  and\n  mul\n  or\n  swap1\n  sstore\n  pop\n    /* \"contracts/TokenSale.sol\":719:732  tokenAddress_ */\n  dup4\n    /* \"contracts/TokenSale.sol\":703:716  _tokenAddress */\n  0x01\n  0x00\n    /* \"contracts/TokenSale.sol\":703:732  _tokenAddress = tokenAddress_ */\n  0x0100\n  exp\n  dup2\n  sload\n  dup2\n  0xffffffffffffffffffffffffffffffffffffffff\n  mul\n  not\n  and\n  swap1\n  dup4\n  0xffffffffffffffffffffffffffffffffffffffff\n  and\n  mul\n  or\n  swap1\n  sstore\n  pop\n    /* \"contracts/TokenSale.sol\":752:762  saleStart_ */\n  dup3\n    /* \"contracts/TokenSale.sol\":739:749  _saleStart */\n  0x02\n    /* \"contracts/TokenSale.sol\":739:762  _saleStart = saleStart_ */\n  dup2\n  swap1\n  sstore\n  pop\n    /* \"contracts/TokenSale.sol\":780:788  saleEnd_ */\n  dup2\n    /* \"contracts/TokenSale.sol\":769:777  _saleEnd */\n  0x03\n    /* \"contracts/TokenSale.sol\":769:788  _saleEnd = saleEnd_ */\n  dup2\n  swap1\n  sstore\n  pop\n    /* \"contracts/TokenSale.sol\":522:794  constructor(address _owner,address tokenAddress_,uint256 saleStart_,uint256 saleEnd_,address usdcAddress_){\r... */\n  pop\n  pop\n  pop\n  pop\n  pop\n    /* \"contracts/TokenSale.sol\":285:2874  contract TokenSale is Ownable{\r... */\n  jump(tag_13)\n    /* \"@openzeppelin/contracts/utils/Context.sol\":640:736  function _msgSender() internal view virtual returns (address) {... */\ntag_9:\n    /* \"@openzeppelin/contracts/utils/Context.sol\":693:700  address */\n  0x00\n    /* \"@openzeppelin/contracts/utils/Context.sol\":719:729  msg.sender */\n  caller\n    /* \"@openzeppelin/contracts/utils/Context.sol\":712:729  return msg.sender */\n  swap1\n  pop\n    /* \"@openzeppelin/contracts/utils/Context.sol\":640:736  function _msgSender() internal view virtual returns (address) {... */\n  swap1\n  jump\t// out\n    /* \"@openzeppelin/contracts/access/Ownable.sol\":2270:2457  function _transferOwnership(address newOwner) internal virtual {... */\ntag_10:\n    /* \"@openzeppelin/contracts/access/Ownable.sol\":2343:2359  address oldOwner */\n  0x00\n    /* \"@openzeppelin/contracts/access/Ownable.sol\":2362:2368  _owner */\n  dup1\n  0x00\n  swap1\n  sload\n  swap1\n  0x0100\n  exp\n  swap1\n  div\n  0xffffffffffffffffffffffffffffffffffffffff\n  and\n    /* \"@openzeppelin/contracts/access/Ownable.sol\":2343:2368  address oldOwner = _owner */\n  swap1\n  pop\n    /* \"@openzeppelin/contracts/access/Ownable.sol\":2387:2395  newOwner */\n  dup2\n    /* \"@openzeppelin/contracts/access/Ownable.sol\":2378:2384  _owner */\n  0x00\n  dup1\n    /* \"@openzeppelin/contracts/access/Ownable.sol\":2378:2395  _owner = newOwner */\n  0x0100\n  exp\n  dup2\n  sload\n  dup2\n  0xffffffffffffffffffffffffffffffffffffffff\n  mul\n  not\n  and\n  swap1\n  dup4\n  0xffffffffffffffffffffffffffffffffffffffff\n  and\n  mul\n  or\n  swap1\n  sstore\n  pop\n    /* \"@openzeppelin/contracts/access/Ownable.sol\":2441:2449  newOwner */\n  dup2\n    /* \"@openzeppelin/contracts/access/Ownable.sol\":2410:2450  OwnershipTransferred(oldOwner, newOwner) */\n  0xffffffffffffffffffffffffffffffffffffffff\n  and\n    /* \"@openzeppelin/contracts/access/Ownable.sol\":2431:2439  oldOwner */\n  dup2\n    /* \"@openzeppelin/contracts/access/Ownable.sol\":2410:2450  OwnershipTransferred(oldOwner, newOwner) */\n  0xffffffffffffffffffffffffffffffffffffffff\n  and\n  0x8be0079c531659141344cd1fd0a4f28419497f9722a3daafe3b4186f6b6457e0\n  mload(0x40)\n  mload(0x40)\n  dup1\n  swap2\n  sub\n  swap1\n  log3\n    /* \"@openzeppelin/contracts/access/Ownable.sol\":2333:2457  {... */\n  pop\n    /* \"@openzeppelin/contracts/access/Ownable.sol\":2270:2457  function _transferOwnership(address newOwner) internal virtual {... */\n  pop\n  jump\t// out\n    /* \"#utility.yul\":7:150   */\ntag_17:\n    /* \"#utility.yul\":64:69   */\n  0x00\n    /* \"#utility.yul\":95:101   */\n  dup2\n    /* \"#utility.yul\":89:102   */\n  mload\n    /* \"#utility.yul\":80:102   */\n  swap1\n  pop\n    /* \"#utility.yul\":111:144   */\n  tag_19\n    /* \"#utility.yul\":138:143   */\n  dup2\n    /* \"#utility.yul\":111:144   */\n  tag_20\n  jump\t// in\ntag_19:\n    /* \"#utility.yul\":7:150   */\n  swap3\n  swap2\n  pop\n  pop\n  jump\t// out\n    /* \"#utility.yul\":156:299   */\ntag_21:\n    /* \"#utility.yul\":213:218   */\n  0x00\n    /* \"#utility.yul\":244:250   */\n  dup2\n    /* \"#utility.yul\":238:251   */\n  mload\n    /* \"#utility.yul\":229:251   */\n  swap1\n  pop\n    /* \"#utility.yul\":260:293   */\n  tag_23\n    /* \"#utility.yul\":287:292   */\n  dup2\n    /* \"#utility.yul\":260:293   */\n  tag_24\n  jump\t// in\ntag_23:\n    /* \"#utility.yul\":156:299   */\n  swap3\n  swap2\n  pop\n  pop\n  jump\t// out\n    /* \"#utility.yul\":305:1282   */\ntag_3:\n    /* \"#utility.yul\":411:417   */\n  0x00\n    /* \"#utility.yul\":419:425   */\n  dup1\n    /* \"#utility.yul\":427:433   */\n  0x00\n    /* \"#utility.yul\":435:441   */\n  dup1\n    /* \"#utility.yul\":443:449   */\n  0x00\n    /* \"#utility.yul\":492:495   */\n  0xa0\n    /* \"#utility.yul\":480:489   */\n  dup7\n    /* \"#utility.yul\":471:478   */\n  dup9\n    /* \"#utility.yul\":467:490   */\n  sub\n    /* \"#utility.yul\":463:496   */\n  slt\n    /* \"#utility.yul\":460:580   */\n  iszero\n  tag_26\n  jumpi\n    /* \"#utility.yul\":499:578   */\n  tag_27\n  tag_28\n  jump\t// in\ntag_27:\n    /* \"#utility.yul\":460:580   */\ntag_26:\n    /* \"#utility.yul\":619:620   */\n  0x00\n    /* \"#utility.yul\":644:708   */\n  tag_29\n    /* \"#utility.yul\":700:707   */\n  dup9\n    /* \"#utility.yul\":691:697   */\n  dup3\n    /* \"#utility.yul\":680:689   */\n  dup10\n    /* \"#utility.yul\":676:698   */\n  add\n    /* \"#utility.yul\":644:708   */\n  tag_17\n  jump\t// in\ntag_29:\n    /* \"#utility.yul\":634:708   */\n  swap6\n  pop\n    /* \"#utility.yul\":590:718   */\n  pop\n    /* \"#utility.yul\":757:759   */\n  0x20\n    /* \"#utility.yul\":783:847   */\n  tag_30\n    /* \"#utility.yul\":839:846   */\n  dup9\n    /* \"#utility.yul\":830:836   */\n  dup3\n    /* \"#utility.yul\":819:828   */\n  dup10\n    /* \"#utility.yul\":815:837   */\n  add\n    /* \"#utility.yul\":783:847   */\n  tag_17\n  jump\t// in\ntag_30:\n    /* \"#utility.yul\":773:847   */\n  swap5\n  pop\n    /* \"#utility.yul\":728:857   */\n  pop\n    /* \"#utility.yul\":896:898   */\n  0x40\n    /* \"#utility.yul\":922:986   */\n  tag_31\n    /* \"#utility.yul\":978:985   */\n  dup9\n    /* \"#utility.yul\":969:975   */\n  dup3\n    /* \"#utility.yul\":958:967   */\n  dup10\n    /* \"#utility.yul\":954:976   */\n  add\n    /* \"#utility.yul\":922:986   */\n  tag_21\n  jump\t// in\ntag_31:\n    /* \"#utility.yul\":912:986   */\n  swap4\n  pop\n    /* \"#utility.yul\":867:996   */\n  pop\n    /* \"#utility.yul\":1035:1037   */\n  0x60\n    /* \"#utility.yul\":1061:1125   */\n  tag_32\n    /* \"#utility.yul\":1117:1124   */\n  dup9\n    /* \"#utility.yul\":1108:1114   */\n  dup3\n    /* \"#utility.yul\":1097:1106   */\n  dup10\n    /* \"#utility.yul\":1093:1115   */\n  add\n    /* \"#utility.yul\":1061:1125   */\n  tag_21\n  jump\t// in\ntag_32:\n    /* \"#utility.yul\":1051:1125   */\n  swap3\n  pop\n    /* \"#utility.yul\":1006:1135   */\n  pop\n    /* \"#utility.yul\":1174:1177   */\n  0x80\n    /* \"#utility.yul\":1201:1265   */\n  tag_33\n    /* \"#utility.yul\":1257:1264   */\n  dup9\n    /* \"#utility.yul\":1248:1254   */\n  dup3\n    /* \"#utility.yul\":1237:1246   */\n  dup10\n    /* \"#utility.yul\":1233:1255   */\n  add\n    /* \"#utility.yul\":1201:1265   */\n  tag_17\n  jump\t// in\ntag_33:\n    /* \"#utility.yul\":1191:1265   */\n  swap2\n  pop\n    /* \"#utility.yul\":1145:1275   */\n  pop\n    /* \"#utility.yul\":305:1282   */\n  swap3\n  swap6\n  pop\n  swap3\n  swap6\n  swap1\n  swap4\n  pop\n  jump\t// out\n    /* \"#utility.yul\":1369:1465   */\ntag_36:\n    /* \"#utility.yul\":1406:1413   */\n  0x00\n    /* \"#utility.yul\":1435:1459   */\n  tag_38\n    /* \"#utility.yul\":1453:1458   */\n  dup3\n    /* \"#utility.yul\":1435:1459   */\n  tag_39\n  jump\t// in\ntag_38:\n    /* \"#utility.yul\":1424:1459   */\n  swap1\n  pop\n    /* \"#utility.yul\":1369:1465   */\n  swap2\n  swap1\n  pop\n  jump\t// out\n    /* \"#utility.yul\":1471:1597   */\ntag_39:\n    /* \"#utility.yul\":1508:1515   */\n  0x00\n    /* \"#utility.yul\":1548:1590   */\n  0xffffffffffffffffffffffffffffffffffffffff\n    /* \"#utility.yul\":1541:1546   */\n  dup3\n    /* \"#utility.yul\":1537:1591   */\n  and\n    /* \"#utility.yul\":1526:1591   */\n  swap1\n  pop\n    /* \"#utility.yul\":1471:1597   */\n  swap2\n  swap1\n  pop\n  jump\t// out\n    /* \"#utility.yul\":1603:1680   */\ntag_41:\n    /* \"#utility.yul\":1640:1647   */\n  0x00\n    /* \"#utility.yul\":1669:1674   */\n  dup2\n    /* \"#utility.yul\":1658:1674   */\n  swap1\n  pop\n    /* \"#utility.yul\":1603:1680   */\n  swap2\n  swap1\n  pop\n  jump\t// out\n    /* \"#utility.yul\":1809:1926   */\ntag_28:\n    /* \"#utility.yul\":1918:1919   */\n  0x00\n    /* \"#utility.yul\":1915:1916   */\n  dup1\n    /* \"#utility.yul\":1908:1920   */\n  revert\n    /* \"#utility.yul\":1932:2054   */\ntag_20:\n    /* \"#utility.yul\":2005:2029   */\n  tag_47\n    /* \"#utility.yul\":2023:2028   */\n  dup2\n    /* \"#utility.yul\":2005:2029   */\n  tag_36\n  jump\t// in\ntag_47:\n    /* \"#utility.yul\":1998:2003   */\n  dup2\n    /* \"#utility.yul\":1995:2030   */\n  eq\n    /* \"#utility.yul\":1985:2048   */\n  tag_48\n  jumpi\n    /* \"#utility.yul\":2044:2045   */\n  0x00\n    /* \"#utility.yul\":2041:2042   */\n  dup1\n    /* \"#utility.yul\":2034:2046   */\n  revert\n    /* \"#utility.yul\":1985:2048   */\ntag_48:\n    /* \"#utility.yul\":1932:2054   */\n  pop\n  jump\t// out\n    /* \"#utility.yul\":2060:2182   */\ntag_24:\n    /* \"#utility.yul\":2133:2157   */\n  tag_50\n    /* \"#utility.yul\":2151:2156   */\n  dup2\n    /* \"#utility.yul\":2133:2157   */\n  tag_41\n  jump\t// in\ntag_50:\n    /* \"#utility.yul\":2126:2131   */\n  dup2\n    /* \"#utility.yul\":2123:2158   */\n  eq\n    /* \"#utility.yul\":2113:2176   */\n  tag_51\n  jumpi\n    /* \"#utility.yul\":2172:2173   */\n  0x00\n    /* \"#utility.yul\":2169:2170   */\n  dup1\n    /* \"#utility.yul\":2162:2174   */\n  revert\n    /* \"#utility.yul\":2113:2176   */\ntag_51:\n    /* \"#utility.yul\":2060:2182   */\n  pop\n  jump\t// out\n    /* \"contracts/TokenSale.sol\":285:2874  contract TokenSale is Ownable{\r... */\ntag_13:\n  dataSize(sub_0)\n  dup1\n  dataOffset(sub_0)\n  0x00\n  codecopy\n  0x00\n  return\nstop\n\nsub_0: assembly {\n        /* \"contracts/TokenSale.sol\":285:2874  contract TokenSale is Ownable{\r... */\n      mstore(0x40, 0x80)\n      callvalue\n      dup1\n      iszero\n      tag_1\n      jumpi\n      0x00\n      dup1\n      revert\n    tag_1:\n      pop\n      jumpi(tag_2, lt(calldatasize, 0x04))\n      shr(0xe0, calldataload(0x00))\n      dup1\n      0x715018a6\n      gt\n      tag_19\n      jumpi\n      dup1\n      0xab0bcc41\n      gt\n      tag_20\n      jumpi\n      dup1\n      0xab0bcc41\n      eq\n      tag_15\n      jumpi\n      dup1\n      0xc10b9358\n      eq\n      tag_16\n      jumpi\n      dup1\n      0xefef39a1\n      eq\n      tag_17\n      jumpi\n      dup1\n      0xf2fde38b\n      eq\n      tag_18\n      jumpi\n      jump(tag_2)\n    tag_20:\n      dup1\n      0x715018a6\n      eq\n      tag_11\n      jumpi\n      dup1\n      0x893d20e8\n      eq\n      tag_12\n      jumpi\n      dup1\n      0x8da5cb5b\n      eq\n      tag_13\n      jumpi\n      dup1\n      0x9d76ea58\n      eq\n      tag_14\n      jumpi\n      jump(tag_2)\n    tag_19:\n      dup1\n      0x51cff8d9\n      gt\n      tag_21\n      jumpi\n      dup1\n      0x51cff8d9\n      eq\n      tag_7\n      jumpi\n      dup1\n      0x61778592\n      eq\n      tag_8\n      jumpi\n      dup1\n      0x617fba04\n      eq\n      tag_9\n      jumpi\n      dup1\n      0x6f9c6149\n      eq\n      tag_10\n      jumpi\n      jump(tag_2)\n    tag_21:\n      dup1\n      0x24076451\n      eq\n      tag_3\n      jumpi\n      dup1\n      0x295e4edf\n      eq\n      tag_4\n      jumpi\n      dup1\n      0x336bea1c\n      eq\n      tag_5\n      jumpi\n      dup1\n      0x4e71d92d\n      eq\n      tag_6\n      jumpi\n    tag_2:\n      0x00\n      dup1\n      revert\n        /* \"contracts/TokenSale.sol\":1075:1195  function bala(address add) public view virtual returns (uint256){\r... */\n    tag_3:\n      tag_22\n      0x04\n      dup1\n      calldatasize\n      sub\n      dup2\n      add\n      swap1\n      tag_23\n      swap2\n      swap1\n      tag_24\n      jump\t// in\n    tag_23:\n      tag_25\n      jump\t// in\n    tag_22:\n      mload(0x40)\n      tag_26\n      swap2\n      swap1\n      tag_27\n      jump\t// in\n    tag_26:\n      mload(0x40)\n      dup1\n      swap2\n      sub\n      swap1\n      return\n        /* \"contracts/TokenSale.sol\":2627:2750  function updateSaleStartTime(uint256 updatedSaleStartTime) public onlyOwner{\r... */\n    tag_4:\n      tag_28\n      0x04\n      dup1\n      calldatasize\n      sub\n      dup2\n      add\n      swap1\n      tag_29\n      swap2\n      swap1\n      tag_30\n      jump\t// in\n    tag_29:\n      tag_31\n      jump\t// in\n    tag_28:\n      stop\n        /* \"contracts/TokenSale.sol\":2190:2621  function Return(uint256 _amount) public returns(bool){\r... */\n    tag_5:\n      tag_32\n      0x04\n      dup1\n      calldatasize\n      sub\n      dup2\n      add\n      swap1\n      tag_33\n      swap2\n      swap1\n      tag_30\n      jump\t// in\n    tag_33:\n      tag_34\n      jump\t// in\n    tag_32:\n      mload(0x40)\n      tag_35\n      swap2\n      swap1\n      tag_36\n      jump\t// in\n    tag_35:\n      mload(0x40)\n      dup1\n      swap2\n      sub\n      swap1\n      return\n        /* \"contracts/TokenSale.sol\":1972:2184  function claim() public virtual{\r... */\n    tag_6:\n      tag_37\n      tag_38\n      jump\t// in\n    tag_37:\n      stop\n        /* \"contracts/TokenSale.sol\":1722:1966  function withdraw(address _to) public virtual onlyOwner{\r... */\n    tag_7:\n      tag_39\n      0x04\n      dup1\n      calldatasize\n      sub\n      dup2\n      add\n      swap1\n      tag_40\n      swap2\n      swap1\n      tag_24\n      jump\t// in\n    tag_40:\n      tag_41\n      jump\t// in\n    tag_39:\n      stop\n        /* \"contracts/TokenSale.sol\":444:472  address public _usdcInstance */\n    tag_8:\n      tag_42\n      tag_43\n      jump\t// in\n    tag_42:\n      mload(0x40)\n      tag_44\n      swap2\n      swap1\n      tag_45\n      jump\t// in\n    tag_44:\n      mload(0x40)\n      dup1\n      swap2\n      sub\n      swap1\n      return\n        /* \"contracts/TokenSale.sol\":1294:1403  function getRecord(address _address) public virtual view returns(uint256){\r... */\n    tag_9:\n      tag_46\n      0x04\n      dup1\n      calldatasize\n      sub\n      dup2\n      add\n      swap1\n      tag_47\n      swap2\n      swap1\n      tag_24\n      jump\t// in\n    tag_47:\n      tag_48\n      jump\t// in\n    tag_46:\n      mload(0x40)\n      tag_49\n      swap2\n      swap1\n      tag_27\n      jump\t// in\n    tag_49:\n      mload(0x40)\n      dup1\n      swap2\n      sub\n      swap1\n      return\n        /* \"contracts/TokenSale.sol\":2754:2869  function updateSaleEndTime(uint256 updatedSaleEndTime) public onlyOwner{\r... */\n    tag_10:\n      tag_50\n      0x04\n      dup1\n      calldatasize\n      sub\n      dup2\n      add\n      swap1\n      tag_51\n      swap2\n      swap1\n      tag_30\n      jump\t// in\n    tag_51:\n      tag_52\n      jump\t// in\n    tag_50:\n      stop\n        /* \"@openzeppelin/contracts/access/Ownable.sol\":1668:1769  function renounceOwnership() public virtual onlyOwner {... */\n    tag_11:\n      tag_53\n      tag_54\n      jump\t// in\n    tag_53:\n      stop\n        /* \"contracts/TokenSale.sol\":990:1067  function getOwner() public view returns(address){\r... */\n    tag_12:\n      tag_55\n      tag_56\n      jump\t// in\n    tag_55:\n      mload(0x40)\n      tag_57\n      swap2\n      swap1\n      tag_45\n      jump\t// in\n    tag_57:\n      mload(0x40)\n      dup1\n      swap2\n      sub\n      swap1\n      return\n        /* \"@openzeppelin/contracts/access/Ownable.sol\":1036:1121  function owner() public view virtual returns (address) {... */\n    tag_13:\n      tag_58\n      tag_59\n      jump\t// in\n    tag_58:\n      mload(0x40)\n      tag_60\n      swap2\n      swap1\n      tag_45\n      jump\t// in\n    tag_60:\n      mload(0x40)\n      dup1\n      swap2\n      sub\n      swap1\n      return\n        /* \"contracts/TokenSale.sol\":899:984  function tokenAddress() public view returns(address){\r... */\n    tag_14:\n      tag_61\n      tag_62\n      jump\t// in\n    tag_61:\n      mload(0x40)\n      tag_63\n      swap2\n      swap1\n      tag_45\n      jump\t// in\n    tag_63:\n      mload(0x40)\n      dup1\n      swap2\n      sub\n      swap1\n      return\n        /* \"contracts/TokenSale.sol\":802:893  function saleStart() public view virtual returns (uint256) {\r... */\n    tag_15:\n      tag_64\n      tag_65\n      jump\t// in\n    tag_64:\n      mload(0x40)\n      tag_66\n      swap2\n      swap1\n      tag_27\n      jump\t// in\n    tag_66:\n      mload(0x40)\n      dup1\n      swap2\n      sub\n      swap1\n      return\n        /* \"contracts/TokenSale.sol\":1201:1288  function saleEnd() public view virtual returns (uint256) {\r... */\n    tag_16:\n      tag_67\n      tag_68\n      jump\t// in\n    tag_67:\n      mload(0x40)\n      tag_69\n      swap2\n      swap1\n      tag_27\n      jump\t// in\n    tag_69:\n      mload(0x40)\n      dup1\n      swap2\n      sub\n      swap1\n      return\n        /* \"contracts/TokenSale.sol\":1409:1714  function purchase(uint256 _amount) public{\r... */\n    tag_17:\n      tag_70\n      0x04\n      dup1\n      calldatasize\n      sub\n      dup2\n      add\n      swap1\n      tag_71\n      swap2\n      swap1\n      tag_30\n      jump\t// in\n    tag_71:\n      tag_72\n      jump\t// in\n    tag_70:\n      stop\n        /* \"@openzeppelin/contracts/access/Ownable.sol\":1918:2116  function transferOwnership(address newOwner) public virtual onlyOwner {... */\n    tag_18:\n      tag_73\n      0x04\n      dup1\n      calldatasize\n      sub\n      dup2\n      add\n      swap1\n      tag_74\n      swap2\n      swap1\n      tag_24\n      jump\t// in\n    tag_74:\n      tag_75\n      jump\t// in\n    tag_73:\n      stop\n        /* \"contracts/TokenSale.sol\":1075:1195  function bala(address add) public view virtual returns (uint256){\r... */\n    tag_25:\n        /* \"contracts/TokenSale.sol\":1131:1138  uint256 */\n      0x00\n        /* \"contracts/TokenSale.sol\":1160:1173  _usdcInstance */\n      0x04\n      0x00\n      swap1\n      sload\n      swap1\n      0x0100\n      exp\n      swap1\n      div\n      0xffffffffffffffffffffffffffffffffffffffff\n      and\n        /* \"contracts/TokenSale.sol\":1153:1184  IERC20(_usdcInstance).balanceOf */\n      0xffffffffffffffffffffffffffffffffffffffff\n      and\n      0x70a08231\n        /* \"contracts/TokenSale.sol\":1185:1188  add */\n      dup4\n        /* \"contracts/TokenSale.sol\":1153:1189  IERC20(_usdcInstance).balanceOf(add) */\n      mload(0x40)\n      dup3\n      0xffffffff\n      and\n      0xe0\n      shl\n      dup2\n      mstore\n      0x04\n      add\n      tag_77\n      swap2\n      swap1\n      tag_45\n      jump\t// in\n    tag_77:\n      0x20\n      mload(0x40)\n      dup1\n      dup4\n      sub\n      dup2\n      dup7\n      dup1\n      extcodesize\n      iszero\n      dup1\n      iszero\n      tag_78\n      jumpi\n      0x00\n      dup1\n      revert\n    tag_78:\n      pop\n      gas\n      staticcall\n      iszero\n      dup1\n      iszero\n      tag_80\n      jumpi\n      returndatasize\n      0x00\n      dup1\n      returndatacopy\n      revert(0x00, returndatasize)\n    tag_80:\n      pop\n      pop\n      pop\n      pop\n      mload(0x40)\n      returndatasize\n      not(0x1f)\n      0x1f\n      dup3\n      add\n      and\n      dup3\n      add\n      dup1\n      0x40\n      mstore\n      pop\n      dup2\n      add\n      swap1\n      tag_81\n      swap2\n      swap1\n      tag_82\n      jump\t// in\n    tag_81:\n        /* \"contracts/TokenSale.sol\":1146:1189  return IERC20(_usdcInstance).balanceOf(add) */\n      swap1\n      pop\n        /* \"contracts/TokenSale.sol\":1075:1195  function bala(address add) public view virtual returns (uint256){\r... */\n      swap2\n      swap1\n      pop\n      jump\t// out\n        /* \"contracts/TokenSale.sol\":2627:2750  function updateSaleStartTime(uint256 updatedSaleStartTime) public onlyOwner{\r... */\n    tag_31:\n        /* \"@openzeppelin/contracts/access/Ownable.sol\":1259:1271  _msgSender() */\n      tag_84\n        /* \"@openzeppelin/contracts/access/Ownable.sol\":1259:1269  _msgSender */\n      tag_85\n        /* \"@openzeppelin/contracts/access/Ownable.sol\":1259:1271  _msgSender() */\n      jump\t// in\n    tag_84:\n        /* \"@openzeppelin/contracts/access/Ownable.sol\":1248:1271  owner() == _msgSender() */\n      0xffffffffffffffffffffffffffffffffffffffff\n      and\n        /* \"@openzeppelin/contracts/access/Ownable.sol\":1248:1255  owner() */\n      tag_86\n        /* \"@openzeppelin/contracts/access/Ownable.sol\":1248:1253  owner */\n      tag_59\n        /* \"@openzeppelin/contracts/access/Ownable.sol\":1248:1255  owner() */\n      jump\t// in\n    tag_86:\n        /* \"@openzeppelin/contracts/access/Ownable.sol\":1248:1271  owner() == _msgSender() */\n      0xffffffffffffffffffffffffffffffffffffffff\n      and\n      eq\n        /* \"@openzeppelin/contracts/access/Ownable.sol\":1240:1308  require(owner() == _msgSender(), \"Ownable: caller is not the owner\") */\n      tag_87\n      jumpi\n      mload(0x40)\n      0x08c379a000000000000000000000000000000000000000000000000000000000\n      dup2\n      mstore\n      0x04\n      add\n      tag_88\n      swap1\n      tag_89\n      jump\t// in\n    tag_88:\n      mload(0x40)\n      dup1\n      swap2\n      sub\n      swap1\n      revert\n    tag_87:\n        /* \"contracts/TokenSale.sol\":2724:2744  updatedSaleStartTime */\n      dup1\n        /* \"contracts/TokenSale.sol\":2711:2721  _saleStart */\n      0x02\n        /* \"contracts/TokenSale.sol\":2711:2744  _saleStart = updatedSaleStartTime */\n      dup2\n      swap1\n      sstore\n      pop\n        /* \"contracts/TokenSale.sol\":2627:2750  function updateSaleStartTime(uint256 updatedSaleStartTime) public onlyOwner{\r... */\n      pop\n      jump\t// out\n        /* \"contracts/TokenSale.sol\":2190:2621  function Return(uint256 _amount) public returns(bool){\r... */\n    tag_34:\n        /* \"contracts/TokenSale.sol\":2238:2242  bool */\n      0x00\n        /* \"contracts/TokenSale.sol\":2314:2320  10**18 */\n      0x0de0b6b3a7640000\n        /* \"contracts/TokenSale.sol\":2306:2313  _amount */\n      dup3\n        /* \"contracts/TokenSale.sol\":2306:2320  _amount*10**18 */\n      tag_92\n      swap2\n      swap1\n      tag_93\n      jump\t// in\n    tag_92:\n        /* \"contracts/TokenSale.sol\":2265:2278  _usdcInstance */\n      0x04\n      0x00\n      swap1\n      sload\n      swap1\n      0x0100\n      exp\n      swap1\n      div\n      0xffffffffffffffffffffffffffffffffffffffff\n      and\n        /* \"contracts/TokenSale.sol\":2258:2289  IERC20(_usdcInstance).balanceOf */\n      0xffffffffffffffffffffffffffffffffffffffff\n      and\n      0x70a08231\n        /* \"contracts/TokenSale.sol\":2298:2302  this */\n      address\n        /* \"contracts/TokenSale.sol\":2258:2304  IERC20(_usdcInstance).balanceOf(address(this)) */\n      mload(0x40)\n      dup3\n      0xffffffff\n      and\n      0xe0\n      shl\n      dup2\n      mstore\n      0x04\n      add\n      tag_94\n      swap2\n      swap1\n      tag_45\n      jump\t// in\n    tag_94:\n      0x20\n      mload(0x40)\n      dup1\n      dup4\n      sub\n      dup2\n      dup7\n      dup1\n      extcodesize\n      iszero\n      dup1\n      iszero\n      tag_95\n      jumpi\n      0x00\n      dup1\n      revert\n    tag_95:\n      pop\n      gas\n      staticcall\n      iszero\n      dup1\n      iszero\n      tag_97\n      jumpi\n      returndatasize\n      0x00\n      dup1\n      returndatacopy\n      revert(0x00, returndatasize)\n    tag_97:\n      pop\n      pop\n      pop\n      pop\n      mload(0x40)\n      returndatasize\n      not(0x1f)\n      0x1f\n      dup3\n      add\n      and\n      dup3\n      add\n      dup1\n      0x40\n      mstore\n      pop\n      dup2\n      add\n      swap1\n      tag_98\n      swap2\n      swap1\n      tag_82\n      jump\t// in\n    tag_98:\n        /* \"contracts/TokenSale.sol\":2258:2320  IERC20(_usdcInstance).balanceOf(address(this))>=_amount*10**18 */\n      lt\n      iszero\n        /* \"contracts/TokenSale.sol\":2250:2350  require(IERC20(_usdcInstance).balanceOf(address(this))>=_amount*10**18,\"Not enough token to return\") */\n      tag_99\n      jumpi\n      mload(0x40)\n      0x08c379a000000000000000000000000000000000000000000000000000000000\n      dup2\n      mstore\n      0x04\n      add\n      tag_100\n      swap1\n      tag_101\n      jump\t// in\n    tag_100:\n      mload(0x40)\n      dup1\n      swap2\n      sub\n      swap1\n      revert\n    tag_99:\n        /* \"contracts/TokenSale.sol\":2393:2399  10**18 */\n      0x0de0b6b3a7640000\n        /* \"contracts/TokenSale.sol\":2385:2392  _amount */\n      dup3\n        /* \"contracts/TokenSale.sol\":2385:2399  _amount*10**18 */\n      tag_102\n      swap2\n      swap1\n      tag_93\n      jump\t// in\n    tag_102:\n        /* \"contracts/TokenSale.sol\":2365:2371  record */\n      0x05\n        /* \"contracts/TokenSale.sol\":2365:2383  record[msg.sender] */\n      0x00\n        /* \"contracts/TokenSale.sol\":2372:2382  msg.sender */\n      caller\n        /* \"contracts/TokenSale.sol\":2365:2383  record[msg.sender] */\n      0xffffffffffffffffffffffffffffffffffffffff\n      and\n      0xffffffffffffffffffffffffffffffffffffffff\n      and\n      dup2\n      mstore\n      0x20\n      add\n      swap1\n      dup2\n      mstore\n      0x20\n      add\n      0x00\n      keccak256\n      sload\n        /* \"contracts/TokenSale.sol\":2365:2399  record[msg.sender]>=_amount*10**18 */\n      lt\n      iszero\n        /* \"contracts/TokenSale.sol\":2357:2440  require(record[msg.sender]>=_amount*10**18,\"You dont have enought token to return\") */\n      tag_103\n      jumpi\n      mload(0x40)\n      0x08c379a000000000000000000000000000000000000000000000000000000000\n      dup2\n      mstore\n      0x04\n      add\n      tag_104\n      swap1\n      tag_105\n      jump\t// in\n    tag_104:\n      mload(0x40)\n      dup1\n      swap2\n      sub\n      swap1\n      revert\n    tag_103:\n        /* \"contracts/TokenSale.sol\":2500:2554  IERC20(_usdcInstance).safeTransfer(msg.sender,_amount) */\n      tag_106\n        /* \"contracts/TokenSale.sol\":2535:2545  msg.sender */\n      caller\n        /* \"contracts/TokenSale.sol\":2546:2553  _amount */\n      dup4\n        /* \"contracts/TokenSale.sol\":2507:2520  _usdcInstance */\n      0x04\n      0x00\n      swap1\n      sload\n      swap1\n      0x0100\n      exp\n      swap1\n      div\n      0xffffffffffffffffffffffffffffffffffffffff\n      and\n        /* \"contracts/TokenSale.sol\":2500:2534  IERC20(_usdcInstance).safeTransfer */\n      0xffffffffffffffffffffffffffffffffffffffff\n      and\n      tag_107\n      swap1\n        /* \"contracts/TokenSale.sol\":2500:2554  IERC20(_usdcInstance).safeTransfer(msg.sender,_amount) */\n      swap3\n      swap2\n      swap1\n      0xffffffff\n      and\n      jump\t// in\n    tag_106:\n        /* \"contracts/TokenSale.sol\":2591:2597  10**18 */\n      0x0de0b6b3a7640000\n        /* \"contracts/TokenSale.sol\":2583:2590  _amount */\n      dup3\n        /* \"contracts/TokenSale.sol\":2583:2597  _amount*10**18 */\n      tag_108\n      swap2\n      swap1\n      tag_93\n      jump\t// in\n    tag_108:\n        /* \"contracts/TokenSale.sol\":2561:2567  record */\n      0x05\n        /* \"contracts/TokenSale.sol\":2561:2579  record[msg.sender] */\n      0x00\n        /* \"contracts/TokenSale.sol\":2568:2578  msg.sender */\n      caller\n        /* \"contracts/TokenSale.sol\":2561:2579  record[msg.sender] */\n      0xffffffffffffffffffffffffffffffffffffffff\n      and\n      0xffffffffffffffffffffffffffffffffffffffff\n      and\n      dup2\n      mstore\n      0x20\n      add\n      swap1\n      dup2\n      mstore\n      0x20\n      add\n      0x00\n      keccak256\n      0x00\n        /* \"contracts/TokenSale.sol\":2561:2597  record[msg.sender] -= _amount*10**18 */\n      dup3\n      dup3\n      sload\n      tag_109\n      swap2\n      swap1\n      tag_110\n      jump\t// in\n    tag_109:\n      swap3\n      pop\n      pop\n      dup2\n      swap1\n      sstore\n      pop\n        /* \"contracts/TokenSale.sol\":2611:2615  true */\n      0x01\n        /* \"contracts/TokenSale.sol\":2604:2615  return true */\n      swap1\n      pop\n        /* \"contracts/TokenSale.sol\":2190:2621  function Return(uint256 _amount) public returns(bool){\r... */\n      swap2\n      swap1\n      pop\n      jump\t// out\n        /* \"contracts/TokenSale.sol\":1972:2184  function claim() public virtual{\r... */\n    tag_38:\n        /* \"contracts/TokenSale.sol\":2035:2043  _saleEnd */\n      sload(0x03)\n        /* \"contracts/TokenSale.sol\":2018:2033  block.timestamp */\n      timestamp\n        /* \"contracts/TokenSale.sol\":2018:2043  block.timestamp>=_saleEnd */\n      lt\n      iszero\n        /* \"contracts/TokenSale.sol\":2010:2064  require(block.timestamp>=_saleEnd,\"Sale hasn't ended\") */\n      tag_112\n      jumpi\n      mload(0x40)\n      0x08c379a000000000000000000000000000000000000000000000000000000000\n      dup2\n      mstore\n      0x04\n      add\n      tag_113\n      swap1\n      tag_114\n      jump\t// in\n    tag_113:\n      mload(0x40)\n      dup1\n      swap2\n      sub\n      swap1\n      revert\n    tag_112:\n        /* \"contracts/TokenSale.sol\":2096:2109  _tokenAddress */\n      0x01\n      0x00\n      swap1\n      sload\n      swap1\n      0x0100\n      exp\n      swap1\n      div\n      0xffffffffffffffffffffffffffffffffffffffff\n      and\n        /* \"contracts/TokenSale.sol\":2071:2115  RealEstateTokenInterface(_tokenAddress).mint */\n      0xffffffffffffffffffffffffffffffffffffffff\n      and\n      0x40c10f19\n        /* \"contracts/TokenSale.sol\":2116:2126  msg.sender */\n      caller\n        /* \"contracts/TokenSale.sol\":2127:2133  record */\n      0x05\n        /* \"contracts/TokenSale.sol\":2127:2145  record[msg.sender] */\n      0x00\n        /* \"contracts/TokenSale.sol\":2134:2144  msg.sender */\n      caller\n        /* \"contracts/TokenSale.sol\":2127:2145  record[msg.sender] */\n      0xffffffffffffffffffffffffffffffffffffffff\n      and\n      0xffffffffffffffffffffffffffffffffffffffff\n      and\n      dup2\n      mstore\n      0x20\n      add\n      swap1\n      dup2\n      mstore\n      0x20\n      add\n      0x00\n      keccak256\n      sload\n        /* \"contracts/TokenSale.sol\":2071:2146  RealEstateTokenInterface(_tokenAddress).mint(msg.sender,record[msg.sender]) */\n      mload(0x40)\n      dup4\n      0xffffffff\n      and\n      0xe0\n      shl\n      dup2\n      mstore\n      0x04\n      add\n      tag_115\n      swap3\n      swap2\n      swap1\n      tag_116\n      jump\t// in\n    tag_115:\n      0x20\n      mload(0x40)\n      dup1\n      dup4\n      sub\n      dup2\n      0x00\n      dup8\n      dup1\n      extcodesize\n      iszero\n      dup1\n      iszero\n      tag_117\n      jumpi\n      0x00\n      dup1\n      revert\n    tag_117:\n      pop\n      gas\n      call\n      iszero\n      dup1\n      iszero\n      tag_119\n      jumpi\n      returndatasize\n      0x00\n      dup1\n      returndatacopy\n      revert(0x00, returndatasize)\n    tag_119:\n      pop\n      pop\n      pop\n      pop\n      mload(0x40)\n      returndatasize\n      not(0x1f)\n      0x1f\n      dup3\n      add\n      and\n      dup3\n      add\n      dup1\n      0x40\n      mstore\n      pop\n      dup2\n      add\n      swap1\n      tag_120\n      swap2\n      swap1\n      tag_121\n      jump\t// in\n    tag_120:\n      pop\n        /* \"contracts/TokenSale.sol\":2160:2166  record */\n      0x05\n        /* \"contracts/TokenSale.sol\":2160:2178  record[msg.sender] */\n      0x00\n        /* \"contracts/TokenSale.sol\":2167:2177  msg.sender */\n      caller\n        /* \"contracts/TokenSale.sol\":2160:2178  record[msg.sender] */\n      0xffffffffffffffffffffffffffffffffffffffff\n      and\n      0xffffffffffffffffffffffffffffffffffffffff\n      and\n      dup2\n      mstore\n      0x20\n      add\n      swap1\n      dup2\n      mstore\n      0x20\n      add\n      0x00\n      keccak256\n        /* \"contracts/TokenSale.sol\":2153:2178  delete record[msg.sender] */\n      0x00\n      swap1\n      sstore\n        /* \"contracts/TokenSale.sol\":1972:2184  function claim() public virtual{\r... */\n      jump\t// out\n        /* \"contracts/TokenSale.sol\":1722:1966  function withdraw(address _to) public virtual onlyOwner{\r... */\n    tag_41:\n        /* \"@openzeppelin/contracts/access/Ownable.sol\":1259:1271  _msgSender() */\n      tag_123\n        /* \"@openzeppelin/contracts/access/Ownable.sol\":1259:1269  _msgSender */\n      tag_85\n        /* \"@openzeppelin/contracts/access/Ownable.sol\":1259:1271  _msgSender() */\n      jump\t// in\n    tag_123:\n        /* \"@openzeppelin/contracts/access/Ownable.sol\":1248:1271  owner() == _msgSender() */\n      0xffffffffffffffffffffffffffffffffffffffff\n      and\n        /* \"@openzeppelin/contracts/access/Ownable.sol\":1248:1255  owner() */\n      tag_124\n        /* \"@openzeppelin/contracts/access/Ownable.sol\":1248:1253  owner */\n      tag_59\n        /* \"@openzeppelin/contracts/access/Ownable.sol\":1248:1255  owner() */\n      jump\t// in\n    tag_124:\n        /* \"@openzeppelin/contracts/access/Ownable.sol\":1248:1271  owner() == _msgSender() */\n      0xffffffffffffffffffffffffffffffffffffffff\n      and\n      eq\n        /* \"@openzeppelin/contracts/access/Ownable.sol\":1240:1308  require(owner() == _msgSender(), \"Ownable: caller is not the owner\") */\n      tag_125\n      jumpi\n      mload(0x40)\n      0x08c379a000000000000000000000000000000000000000000000000000000000\n      dup2\n      mstore\n      0x04\n      add\n      tag_126\n      swap1\n      tag_89\n      jump\t// in\n    tag_126:\n      mload(0x40)\n      dup1\n      swap2\n      sub\n      swap1\n      revert\n    tag_125:\n        /* \"contracts/TokenSale.sol\":1810:1818  _saleEnd */\n      sload(0x03)\n        /* \"contracts/TokenSale.sol\":1794:1809  block.timestamp */\n      timestamp\n        /* \"contracts/TokenSale.sol\":1794:1818  block.timestamp>_saleEnd */\n      gt\n        /* \"contracts/TokenSale.sol\":1786:1839  require(block.timestamp>_saleEnd,\"Sale hasn't ended\") */\n      tag_128\n      jumpi\n      mload(0x40)\n      0x08c379a000000000000000000000000000000000000000000000000000000000\n      dup2\n      mstore\n      0x04\n      add\n      tag_129\n      swap1\n      tag_114\n      jump\t// in\n    tag_129:\n      mload(0x40)\n      dup1\n      swap2\n      sub\n      swap1\n      revert\n    tag_128:\n        /* \"contracts/TokenSale.sol\":1848:1859  uint256 amt */\n      0x00\n        /* \"contracts/TokenSale.sol\":1869:1882  _usdcInstance */\n      0x04\n      0x00\n      swap1\n      sload\n      swap1\n      0x0100\n      exp\n      swap1\n      div\n      0xffffffffffffffffffffffffffffffffffffffff\n      and\n        /* \"contracts/TokenSale.sol\":1862:1893  IERC20(_usdcInstance).balanceOf */\n      0xffffffffffffffffffffffffffffffffffffffff\n      and\n      0x70a08231\n        /* \"contracts/TokenSale.sol\":1902:1906  this */\n      address\n        /* \"contracts/TokenSale.sol\":1862:1908  IERC20(_usdcInstance).balanceOf(address(this)) */\n      mload(0x40)\n      dup3\n      0xffffffff\n      and\n      0xe0\n      shl\n      dup2\n      mstore\n      0x04\n      add\n      tag_130\n      swap2\n      swap1\n      tag_45\n      jump\t// in\n    tag_130:\n      0x20\n      mload(0x40)\n      dup1\n      dup4\n      sub\n      dup2\n      dup7\n      dup1\n      extcodesize\n      iszero\n      dup1\n      iszero\n      tag_131\n      jumpi\n      0x00\n      dup1\n      revert\n    tag_131:\n      pop\n      gas\n      staticcall\n      iszero\n      dup1\n      iszero\n      tag_133\n      jumpi\n      returndatasize\n      0x00\n      dup1\n      returndatacopy\n      revert(0x00, returndatasize)\n    tag_133:\n      pop\n      pop\n      pop\n      pop\n      mload(0x40)\n      returndatasize\n      not(0x1f)\n      0x1f\n      dup3\n      add\n      and\n      dup3\n      add\n      dup1\n      0x40\n      mstore\n      pop\n      dup2\n      add\n      swap1\n      tag_134\n      swap2\n      swap1\n      tag_82\n      jump\t// in\n    tag_134:\n        /* \"contracts/TokenSale.sol\":1848:1908  uint256 amt = IERC20(_usdcInstance).balanceOf(address(this)) */\n      swap1\n      pop\n        /* \"contracts/TokenSale.sol\":1917:1960  IERC20(_usdcInstance).safeTransfer(_to,amt) */\n      tag_135\n        /* \"contracts/TokenSale.sol\":1952:1955  _to */\n      dup3\n        /* \"contracts/TokenSale.sol\":1956:1959  amt */\n      dup3\n        /* \"contracts/TokenSale.sol\":1924:1937  _usdcInstance */\n      0x04\n      0x00\n      swap1\n      sload\n      swap1\n      0x0100\n      exp\n      swap1\n      div\n      0xffffffffffffffffffffffffffffffffffffffff\n      and\n        /* \"contracts/TokenSale.sol\":1917:1951  IERC20(_usdcInstance).safeTransfer */\n      0xffffffffffffffffffffffffffffffffffffffff\n      and\n      tag_107\n      swap1\n        /* \"contracts/TokenSale.sol\":1917:1960  IERC20(_usdcInstance).safeTransfer(_to,amt) */\n      swap3\n      swap2\n      swap1\n      0xffffffff\n      and\n      jump\t// in\n    tag_135:\n        /* \"contracts/TokenSale.sol\":1777:1966  {\r... */\n      pop\n        /* \"contracts/TokenSale.sol\":1722:1966  function withdraw(address _to) public virtual onlyOwner{\r... */\n      pop\n      jump\t// out\n        /* \"contracts/TokenSale.sol\":444:472  address public _usdcInstance */\n    tag_43:\n      0x04\n      0x00\n      swap1\n      sload\n      swap1\n      0x0100\n      exp\n      swap1\n      div\n      0xffffffffffffffffffffffffffffffffffffffff\n      and\n      dup2\n      jump\t// out\n        /* \"contracts/TokenSale.sol\":1294:1403  function getRecord(address _address) public virtual view returns(uint256){\r... */\n    tag_48:\n        /* \"contracts/TokenSale.sol\":1359:1366  uint256 */\n      0x00\n        /* \"contracts/TokenSale.sol\":1381:1387  record */\n      0x05\n        /* \"contracts/TokenSale.sol\":1381:1397  record[_address] */\n      0x00\n        /* \"contracts/TokenSale.sol\":1388:1396  _address */\n      dup4\n        /* \"contracts/TokenSale.sol\":1381:1397  record[_address] */\n      0xffffffffffffffffffffffffffffffffffffffff\n      and\n      0xffffffffffffffffffffffffffffffffffffffff\n      and\n      dup2\n      mstore\n      0x20\n      add\n      swap1\n      dup2\n      mstore\n      0x20\n      add\n      0x00\n      keccak256\n      sload\n        /* \"contracts/TokenSale.sol\":1374:1397  return record[_address] */\n      swap1\n      pop\n        /* \"contracts/TokenSale.sol\":1294:1403  function getRecord(address _address) public virtual view returns(uint256){\r... */\n      swap2\n      swap1\n      pop\n      jump\t// out\n        /* \"contracts/TokenSale.sol\":2754:2869  function updateSaleEndTime(uint256 updatedSaleEndTime) public onlyOwner{\r... */\n    tag_52:\n        /* \"@openzeppelin/contracts/access/Ownable.sol\":1259:1271  _msgSender() */\n      tag_138\n        /* \"@openzeppelin/contracts/access/Ownable.sol\":1259:1269  _msgSender */\n      tag_85\n        /* \"@openzeppelin/contracts/access/Ownable.sol\":1259:1271  _msgSender() */\n      jump\t// in\n    tag_138:\n        /* \"@openzeppelin/contracts/access/Ownable.sol\":1248:1271  owner() == _msgSender() */\n      0xffffffffffffffffffffffffffffffffffffffff\n      and\n        /* \"@openzeppelin/contracts/access/Ownable.sol\":1248:1255  owner() */\n      tag_139\n        /* \"@openzeppelin/contracts/access/Ownable.sol\":1248:1253  owner */\n      tag_59\n        /* \"@openzeppelin/contracts/access/Ownable.sol\":1248:1255  owner() */\n      jump\t// in\n    tag_139:\n        /* \"@openzeppelin/contracts/access/Ownable.sol\":1248:1271  owner() == _msgSender() */\n      0xffffffffffffffffffffffffffffffffffffffff\n      and\n      eq\n        /* \"@openzeppelin/contracts/access/Ownable.sol\":1240:1308  require(owner() == _msgSender(), \"Ownable: caller is not the owner\") */\n      tag_140\n      jumpi\n      mload(0x40)\n      0x08c379a000000000000000000000000000000000000000000000000000000000\n      dup2\n      mstore\n      0x04\n      add\n      tag_141\n      swap1\n      tag_89\n      jump\t// in\n    tag_141:\n      mload(0x40)\n      dup1\n      swap2\n      sub\n      swap1\n      revert\n    tag_140:\n        /* \"contracts/TokenSale.sol\":2845:2863  updatedSaleEndTime */\n      dup1\n        /* \"contracts/TokenSale.sol\":2834:2842  _saleEnd */\n      0x03\n        /* \"contracts/TokenSale.sol\":2834:2863  _saleEnd = updatedSaleEndTime */\n      dup2\n      swap1\n      sstore\n      pop\n        /* \"contracts/TokenSale.sol\":2754:2869  function updateSaleEndTime(uint256 updatedSaleEndTime) public onlyOwner{\r... */\n      pop\n      jump\t// out\n        /* \"@openzeppelin/contracts/access/Ownable.sol\":1668:1769  function renounceOwnership() public virtual onlyOwner {... */\n    tag_54:\n        /* \"@openzeppelin/contracts/access/Ownable.sol\":1259:1271  _msgSender() */\n      tag_144\n        /* \"@openzeppelin/contracts/access/Ownable.sol\":1259:1269  _msgSender */\n      tag_85\n        /* \"@openzeppelin/contracts/access/Ownable.sol\":1259:1271  _msgSender() */\n      jump\t// in\n    tag_144:\n        /* \"@openzeppelin/contracts/access/Ownable.sol\":1248:1271  owner() == _msgSender() */\n      0xffffffffffffffffffffffffffffffffffffffff\n      and\n        /* \"@openzeppelin/contracts/access/Ownable.sol\":1248:1255  owner() */\n      tag_145\n        /* \"@openzeppelin/contracts/access/Ownable.sol\":1248:1253  owner */\n      tag_59\n        /* \"@openzeppelin/contracts/access/Ownable.sol\":1248:1255  owner() */\n      jump\t// in\n    tag_145:\n        /* \"@openzeppelin/contracts/access/Ownable.sol\":1248:1271  owner() == _msgSender() */\n      0xffffffffffffffffffffffffffffffffffffffff\n      and\n      eq\n        /* \"@openzeppelin/contracts/access/Ownable.sol\":1240:1308  require(owner() == _msgSender(), \"Ownable: caller is not the owner\") */\n      tag_146\n      jumpi\n      mload(0x40)\n      0x08c379a000000000000000000000000000000000000000000000000000000000\n      dup2\n      mstore\n      0x04\n      add\n      tag_147\n      swap1\n      tag_89\n      jump\t// in\n    tag_147:\n      mload(0x40)\n      dup1\n      swap2\n      sub\n      swap1\n      revert\n    tag_146:\n        /* \"@openzeppelin/contracts/access/Ownable.sol\":1732:1762  _transferOwnership(address(0)) */\n      tag_149\n        /* \"@openzeppelin/contracts/access/Ownable.sol\":1759:1760  0 */\n      0x00\n        /* \"@openzeppelin/contracts/access/Ownable.sol\":1732:1750  _transferOwnership */\n      tag_150\n        /* \"@openzeppelin/contracts/access/Ownable.sol\":1732:1762  _transferOwnership(address(0)) */\n      jump\t// in\n    tag_149:\n        /* \"@openzeppelin/contracts/access/Ownable.sol\":1668:1769  function renounceOwnership() public virtual onlyOwner {... */\n      jump\t// out\n        /* \"contracts/TokenSale.sol\":990:1067  function getOwner() public view returns(address){\r... */\n    tag_56:\n        /* \"contracts/TokenSale.sol\":1030:1037  address */\n      0x00\n        /* \"contracts/TokenSale.sol\":1054:1061  owner() */\n      tag_152\n        /* \"contracts/TokenSale.sol\":1054:1059  owner */\n      tag_59\n        /* \"contracts/TokenSale.sol\":1054:1061  owner() */\n      jump\t// in\n    tag_152:\n        /* \"contracts/TokenSale.sol\":1047:1061  return owner() */\n      swap1\n      pop\n        /* \"contracts/TokenSale.sol\":990:1067  function getOwner() public view returns(address){\r... */\n      swap1\n      jump\t// out\n        /* \"@openzeppelin/contracts/access/Ownable.sol\":1036:1121  function owner() public view virtual returns (address) {... */\n    tag_59:\n        /* \"@openzeppelin/contracts/access/Ownable.sol\":1082:1089  address */\n      0x00\n        /* \"@openzeppelin/contracts/access/Ownable.sol\":1108:1114  _owner */\n      dup1\n      0x00\n      swap1\n      sload\n      swap1\n      0x0100\n      exp\n      swap1\n      div\n      0xffffffffffffffffffffffffffffffffffffffff\n      and\n        /* \"@openzeppelin/contracts/access/Ownable.sol\":1101:1114  return _owner */\n      swap1\n      pop\n        /* \"@openzeppelin/contracts/access/Ownable.sol\":1036:1121  function owner() public view virtual returns (address) {... */\n      swap1\n      jump\t// out\n        /* \"contracts/TokenSale.sol\":899:984  function tokenAddress() public view returns(address){\r... */\n    tag_62:\n        /* \"contracts/TokenSale.sol\":943:950  address */\n      0x00\n        /* \"contracts/TokenSale.sol\":965:978  _tokenAddress */\n      0x01\n      0x00\n      swap1\n      sload\n      swap1\n      0x0100\n      exp\n      swap1\n      div\n      0xffffffffffffffffffffffffffffffffffffffff\n      and\n        /* \"contracts/TokenSale.sol\":958:978  return _tokenAddress */\n      swap1\n      pop\n        /* \"contracts/TokenSale.sol\":899:984  function tokenAddress() public view returns(address){\r... */\n      swap1\n      jump\t// out\n        /* \"contracts/TokenSale.sol\":802:893  function saleStart() public view virtual returns (uint256) {\r... */\n    tag_65:\n        /* \"contracts/TokenSale.sol\":852:859  uint256 */\n      0x00\n        /* \"contracts/TokenSale.sol\":877:887  _saleStart */\n      sload(0x02)\n        /* \"contracts/TokenSale.sol\":870:887  return _saleStart */\n      swap1\n      pop\n        /* \"contracts/TokenSale.sol\":802:893  function saleStart() public view virtual returns (uint256) {\r... */\n      swap1\n      jump\t// out\n        /* \"contracts/TokenSale.sol\":1201:1288  function saleEnd() public view virtual returns (uint256) {\r... */\n    tag_68:\n        /* \"contracts/TokenSale.sol\":1249:1256  uint256 */\n      0x00\n        /* \"contracts/TokenSale.sol\":1274:1282  _saleEnd */\n      sload(0x03)\n        /* \"contracts/TokenSale.sol\":1267:1282  return _saleEnd */\n      swap1\n      pop\n        /* \"contracts/TokenSale.sol\":1201:1288  function saleEnd() public view virtual returns (uint256) {\r... */\n      swap1\n      jump\t// out\n        /* \"contracts/TokenSale.sol\":1409:1714  function purchase(uint256 _amount) public{\r... */\n    tag_72:\n        /* \"contracts/TokenSale.sol\":1484:1494  _saleStart */\n      sload(0x02)\n        /* \"contracts/TokenSale.sol\":1467:1482  block.timestamp */\n      timestamp\n        /* \"contracts/TokenSale.sol\":1467:1494  block.timestamp>=_saleStart */\n      lt\n      iszero\n        /* \"contracts/TokenSale.sol\":1459:1521  require(block.timestamp>=_saleStart,\"Sale hasn't started yet\") */\n      tag_158\n      jumpi\n      mload(0x40)\n      0x08c379a000000000000000000000000000000000000000000000000000000000\n      dup2\n      mstore\n      0x04\n      add\n      tag_159\n      swap1\n      tag_160\n      jump\t// in\n    tag_159:\n      mload(0x40)\n      dup1\n      swap2\n      sub\n      swap1\n      revert\n    tag_158:\n        /* \"contracts/TokenSale.sol\":1555:1563  _saleEnd */\n      sload(0x03)\n        /* \"contracts/TokenSale.sol\":1538:1553  block.timestamp */\n      timestamp\n        /* \"contracts/TokenSale.sol\":1538:1563  block.timestamp<=_saleEnd */\n      gt\n      iszero\n        /* \"contracts/TokenSale.sol\":1530:1581  require(block.timestamp<=_saleEnd,\"Sale has ended\") */\n      tag_161\n      jumpi\n      mload(0x40)\n      0x08c379a000000000000000000000000000000000000000000000000000000000\n      dup2\n      mstore\n      0x04\n      add\n      tag_162\n      swap1\n      tag_163\n      jump\t// in\n    tag_162:\n      mload(0x40)\n      dup1\n      swap2\n      sub\n      swap1\n      revert\n    tag_161:\n        /* \"contracts/TokenSale.sol\":1590:1663  IERC20(_usdcInstance).safeTransferFrom(msg.sender,address(this), _amount) */\n      tag_164\n        /* \"contracts/TokenSale.sol\":1629:1639  msg.sender */\n      caller\n        /* \"contracts/TokenSale.sol\":1648:1652  this */\n      address\n        /* \"contracts/TokenSale.sol\":1655:1662  _amount */\n      dup4\n        /* \"contracts/TokenSale.sol\":1597:1610  _usdcInstance */\n      0x04\n      0x00\n      swap1\n      sload\n      swap1\n      0x0100\n      exp\n      swap1\n      div\n      0xffffffffffffffffffffffffffffffffffffffff\n      and\n        /* \"contracts/TokenSale.sol\":1590:1628  IERC20(_usdcInstance).safeTransferFrom */\n      0xffffffffffffffffffffffffffffffffffffffff\n      and\n      tag_165\n      swap1\n        /* \"contracts/TokenSale.sol\":1590:1663  IERC20(_usdcInstance).safeTransferFrom(msg.sender,address(this), _amount) */\n      swap4\n      swap3\n      swap2\n      swap1\n      0xffffffff\n      and\n      jump\t// in\n    tag_164:\n        /* \"contracts/TokenSale.sol\":1702:1708  10**18 */\n      0x0de0b6b3a7640000\n        /* \"contracts/TokenSale.sol\":1694:1701  _amount */\n      dup2\n        /* \"contracts/TokenSale.sol\":1694:1708  _amount*10**18 */\n      tag_166\n      swap2\n      swap1\n      tag_93\n      jump\t// in\n    tag_166:\n        /* \"contracts/TokenSale.sol\":1672:1678  record */\n      0x05\n        /* \"contracts/TokenSale.sol\":1672:1690  record[msg.sender] */\n      0x00\n        /* \"contracts/TokenSale.sol\":1679:1689  msg.sender */\n      caller\n        /* \"contracts/TokenSale.sol\":1672:1690  record[msg.sender] */\n      0xffffffffffffffffffffffffffffffffffffffff\n      and\n      0xffffffffffffffffffffffffffffffffffffffff\n      and\n      dup2\n      mstore\n      0x20\n      add\n      swap1\n      dup2\n      mstore\n      0x20\n      add\n      0x00\n      keccak256\n      0x00\n        /* \"contracts/TokenSale.sol\":1672:1708  record[msg.sender] += _amount*10**18 */\n      dup3\n      dup3\n      sload\n      tag_167\n      swap2\n      swap1\n      tag_168\n      jump\t// in\n    tag_167:\n      swap3\n      pop\n      pop\n      dup2\n      swap1\n      sstore\n      pop\n        /* \"contracts/TokenSale.sol\":1409:1714  function purchase(uint256 _amount) public{\r... */\n      pop\n      jump\t// out\n        /* \"@openzeppelin/contracts/access/Ownable.sol\":1918:2116  function transferOwnership(address newOwner) public virtual onlyOwner {... */\n    tag_75:\n        /* \"@openzeppelin/contracts/access/Ownable.sol\":1259:1271  _msgSender() */\n      tag_170\n        /* \"@openzeppelin/contracts/access/Ownable.sol\":1259:1269  _msgSender */\n      tag_85\n        /* \"@openzeppelin/contracts/access/Ownable.sol\":1259:1271  _msgSender() */\n      jump\t// in\n    tag_170:\n        /* \"@openzeppelin/contracts/access/Ownable.sol\":1248:1271  owner() == _msgSender() */\n      0xffffffffffffffffffffffffffffffffffffffff\n      and\n        /* \"@openzeppelin/contracts/access/Ownable.sol\":1248:1255  owner() */\n      tag_171\n        /* \"@openzeppelin/contracts/access/Ownable.sol\":1248:1253  owner */\n      tag_59\n        /* \"@openzeppelin/contracts/access/Ownable.sol\":1248:1255  owner() */\n      jump\t// in\n    tag_171:\n        /* \"@openzeppelin/contracts/access/Ownable.sol\":1248:1271  owner() == _msgSender() */\n      0xffffffffffffffffffffffffffffffffffffffff\n      and\n      eq\n        /* \"@openzeppelin/contracts/access/Ownable.sol\":1240:1308  require(owner() == _msgSender(), \"Ownable: caller is not the owner\") */\n      tag_172\n      jumpi\n      mload(0x40)\n      0x08c379a000000000000000000000000000000000000000000000000000000000\n      dup2\n      mstore\n      0x04\n      add\n      tag_173\n      swap1\n      tag_89\n      jump\t// in\n    tag_173:\n      mload(0x40)\n      dup1\n      swap2\n      sub\n      swap1\n      revert\n    tag_172:\n        /* \"@openzeppelin/contracts/access/Ownable.sol\":2026:2027  0 */\n      0x00\n        /* \"@openzeppelin/contracts/access/Ownable.sol\":2006:2028  newOwner != address(0) */\n      0xffffffffffffffffffffffffffffffffffffffff\n      and\n        /* \"@openzeppelin/contracts/access/Ownable.sol\":2006:2014  newOwner */\n      dup2\n        /* \"@openzeppelin/contracts/access/Ownable.sol\":2006:2028  newOwner != address(0) */\n      0xffffffffffffffffffffffffffffffffffffffff\n      and\n      eq\n      iszero\n        /* \"@openzeppelin/contracts/access/Ownable.sol\":1998:2071  require(newOwner != address(0), \"Ownable: new owner is the zero address\") */\n      tag_175\n      jumpi\n      mload(0x40)\n      0x08c379a000000000000000000000000000000000000000000000000000000000\n      dup2\n      mstore\n      0x04\n      add\n      tag_176\n      swap1\n      tag_177\n      jump\t// in\n    tag_176:\n      mload(0x40)\n      dup1\n      swap2\n      sub\n      swap1\n      revert\n    tag_175:\n        /* \"@openzeppelin/contracts/access/Ownable.sol\":2081:2109  _transferOwnership(newOwner) */\n      tag_178\n        /* \"@openzeppelin/contracts/access/Ownable.sol\":2100:2108  newOwner */\n      dup2\n        /* \"@openzeppelin/contracts/access/Ownable.sol\":2081:2099  _transferOwnership */\n      tag_150\n        /* \"@openzeppelin/contracts/access/Ownable.sol\":2081:2109  _transferOwnership(newOwner) */\n      jump\t// in\n    tag_178:\n        /* \"@openzeppelin/contracts/access/Ownable.sol\":1918:2116  function transferOwnership(address newOwner) public virtual onlyOwner {... */\n      pop\n      jump\t// out\n        /* \"@openzeppelin/contracts/utils/Context.sol\":640:736  function _msgSender() internal view virtual returns (address) {... */\n    tag_85:\n        /* \"@openzeppelin/contracts/utils/Context.sol\":693:700  address */\n      0x00\n        /* \"@openzeppelin/contracts/utils/Context.sol\":719:729  msg.sender */\n      caller\n        /* \"@openzeppelin/contracts/utils/Context.sol\":712:729  return msg.sender */\n      swap1\n      pop\n        /* \"@openzeppelin/contracts/utils/Context.sol\":640:736  function _msgSender() internal view virtual returns (address) {... */\n      swap1\n      jump\t// out\n        /* \"@openzeppelin/contracts/token/ERC20/utils/SafeERC20.sol\":701:906  function safeTransfer(... */\n    tag_107:\n        /* \"@openzeppelin/contracts/token/ERC20/utils/SafeERC20.sol\":813:899  _callOptionalReturn(token, abi.encodeWithSelector(token.transfer.selector, to, value)) */\n      tag_181\n        /* \"@openzeppelin/contracts/token/ERC20/utils/SafeERC20.sol\":833:838  token */\n      dup4\n        /* \"@openzeppelin/contracts/token/ERC20/utils/SafeERC20.sol\":863:886  token.transfer.selector */\n      shl(0xe0, 0xa9059cbb)\n        /* \"@openzeppelin/contracts/token/ERC20/utils/SafeERC20.sol\":888:890  to */\n      dup5\n        /* \"@openzeppelin/contracts/token/ERC20/utils/SafeERC20.sol\":892:897  value */\n      dup5\n        /* \"@openzeppelin/contracts/token/ERC20/utils/SafeERC20.sol\":840:898  abi.encodeWithSelector(token.transfer.selector, to, value) */\n      add(0x24, mload(0x40))\n      tag_182\n      swap3\n      swap2\n      swap1\n      tag_116\n      jump\t// in\n    tag_182:\n      mload(0x40)\n      0x20\n      dup2\n      dup4\n      sub\n      sub\n      dup2\n      mstore\n      swap1\n      0x40\n      mstore\n      swap1\n      not(0xffffffffffffffffffffffffffffffffffffffffffffffffffffffff)\n      and\n      0x20\n      dup3\n      add\n      dup1\n      mload\n      0xffffffffffffffffffffffffffffffffffffffffffffffffffffffff\n      dup4\n      dup2\n      dup4\n      and\n      or\n      dup4\n      mstore\n      pop\n      pop\n      pop\n      pop\n        /* \"@openzeppelin/contracts/token/ERC20/utils/SafeERC20.sol\":813:832  _callOptionalReturn */\n      tag_183\n        /* \"@openzeppelin/contracts/token/ERC20/utils/SafeERC20.sol\":813:899  _callOptionalReturn(token, abi.encodeWithSelector(token.transfer.selector, to, value)) */\n      jump\t// in\n    tag_181:\n        /* \"@openzeppelin/contracts/token/ERC20/utils/SafeERC20.sol\":701:906  function safeTransfer(... */\n      pop\n      pop\n      pop\n      jump\t// out\n        /* \"@openzeppelin/contracts/access/Ownable.sol\":2270:2457  function _transferOwnership(address newOwner) internal virtual {... */\n    tag_150:\n        /* \"@openzeppelin/contracts/access/Ownable.sol\":2343:2359  address oldOwner */\n      0x00\n        /* \"@openzeppelin/contracts/access/Ownable.sol\":2362:2368  _owner */\n      dup1\n      0x00\n      swap1\n      sload\n      swap1\n      0x0100\n      exp\n      swap1\n      div\n      0xffffffffffffffffffffffffffffffffffffffff\n      and\n        /* \"@openzeppelin/contracts/access/Ownable.sol\":2343:2368  address oldOwner = _owner */\n      swap1\n      pop\n        /* \"@openzeppelin/contracts/access/Ownable.sol\":2387:2395  newOwner */\n      dup2\n        /* \"@openzeppelin/contracts/access/Ownable.sol\":2378:2384  _owner */\n      0x00\n      dup1\n        /* \"@openzeppelin/contracts/access/Ownable.sol\":2378:2395  _owner = newOwner */\n      0x0100\n      exp\n      dup2\n      sload\n      dup2\n      0xffffffffffffffffffffffffffffffffffffffff\n      mul\n      not\n      and\n      swap1\n      dup4\n      0xffffffffffffffffffffffffffffffffffffffff\n      and\n      mul\n      or\n      swap1\n      sstore\n      pop\n        /* \"@openzeppelin/contracts/access/Ownable.sol\":2441:2449  newOwner */\n      dup2\n        /* \"@openzeppelin/contracts/access/Ownable.sol\":2410:2450  OwnershipTransferred(oldOwner, newOwner) */\n      0xffffffffffffffffffffffffffffffffffffffff\n      and\n        /* \"@openzeppelin/contracts/access/Ownable.sol\":2431:2439  oldOwner */\n      dup2\n        /* \"@openzeppelin/contracts/access/Ownable.sol\":2410:2450  OwnershipTransferred(oldOwner, newOwner) */\n      0xffffffffffffffffffffffffffffffffffffffff\n      and\n      0x8be0079c531659141344cd1fd0a4f28419497f9722a3daafe3b4186f6b6457e0\n      mload(0x40)\n      mload(0x40)\n      dup1\n      swap2\n      sub\n      swap1\n      log3\n        /* \"@openzeppelin/contracts/access/Ownable.sol\":2333:2457  {... */\n      pop\n        /* \"@openzeppelin/contracts/access/Ownable.sol\":2270:2457  function _transferOwnership(address newOwner) internal virtual {... */\n      pop\n      jump\t// out\n        /* \"@openzeppelin/contracts/token/ERC20/utils/SafeERC20.sol\":912:1153  function safeTransferFrom(... */\n    tag_165:\n        /* \"@openzeppelin/contracts/token/ERC20/utils/SafeERC20.sol\":1050:1146  _callOptionalReturn(token, abi.encodeWithSelector(token.transferFrom.selector, from, to, value)) */\n      tag_186\n        /* \"@openzeppelin/contracts/token/ERC20/utils/SafeERC20.sol\":1070:1075  token */\n      dup5\n        /* \"@openzeppelin/contracts/token/ERC20/utils/SafeERC20.sol\":1100:1127  token.transferFrom.selector */\n      shl(0xe0, 0x23b872dd)\n        /* \"@openzeppelin/contracts/token/ERC20/utils/SafeERC20.sol\":1129:1133  from */\n      dup6\n        /* \"@openzeppelin/contracts/token/ERC20/utils/SafeERC20.sol\":1135:1137  to */\n      dup6\n        /* \"@openzeppelin/contracts/token/ERC20/utils/SafeERC20.sol\":1139:1144  value */\n      dup6\n        /* \"@openzeppelin/contracts/token/ERC20/utils/SafeERC20.sol\":1077:1145  abi.encodeWithSelector(token.transferFrom.selector, from, to, value) */\n      add(0x24, mload(0x40))\n      tag_187\n      swap4\n      swap3\n      swap2\n      swap1\n      tag_188\n      jump\t// in\n    tag_187:\n      mload(0x40)\n      0x20\n      dup2\n      dup4\n      sub\n      sub\n      dup2\n      mstore\n      swap1\n      0x40\n      mstore\n      swap1\n      not(0xffffffffffffffffffffffffffffffffffffffffffffffffffffffff)\n      and\n      0x20\n      dup3\n      add\n      dup1\n      mload\n      0xffffffffffffffffffffffffffffffffffffffffffffffffffffffff\n      dup4\n      dup2\n      dup4\n      and\n      or\n      dup4\n      mstore\n      pop\n      pop\n      pop\n      pop\n        /* \"@openzeppelin/contracts/token/ERC20/utils/SafeERC20.sol\":1050:1069  _callOptionalReturn */\n      tag_183\n        /* \"@openzeppelin/contracts/token/ERC20/utils/SafeERC20.sol\":1050:1146  _callOptionalReturn(token, abi.encodeWithSelector(token.transferFrom.selector, from, to, value)) */\n      jump\t// in\n    tag_186:\n        /* \"@openzeppelin/contracts/token/ERC20/utils/SafeERC20.sol\":912:1153  function safeTransferFrom(... */\n      pop\n      pop\n      pop\n      pop\n      jump\t// out\n        /* \"@openzeppelin/contracts/token/ERC20/utils/SafeERC20.sol\":3207:3913  function _callOptionalReturn(IERC20 token, bytes memory data) private {... */\n    tag_183:\n        /* \"@openzeppelin/contracts/token/ERC20/utils/SafeERC20.sol\":3626:3649  bytes memory returndata */\n      0x00\n        /* \"@openzeppelin/contracts/token/ERC20/utils/SafeERC20.sol\":3652:3721  address(token).functionCall(data, \"SafeERC20: low-level call failed\") */\n      tag_190\n        /* \"@openzeppelin/contracts/token/ERC20/utils/SafeERC20.sol\":3680:3684  data */\n      dup3\n        /* \"@openzeppelin/contracts/token/ERC20/utils/SafeERC20.sol\":3652:3721  address(token).functionCall(data, \"SafeERC20: low-level call failed\") */\n      mload(0x40)\n      dup1\n      0x40\n      add\n      0x40\n      mstore\n      dup1\n      0x20\n      dup2\n      mstore\n      0x20\n      add\n      0x5361666545524332303a206c6f772d6c6576656c2063616c6c206661696c6564\n      dup2\n      mstore\n      pop\n        /* \"@openzeppelin/contracts/token/ERC20/utils/SafeERC20.sol\":3660:3665  token */\n      dup6\n        /* \"@openzeppelin/contracts/token/ERC20/utils/SafeERC20.sol\":3652:3679  address(token).functionCall */\n      0xffffffffffffffffffffffffffffffffffffffff\n      and\n      tag_191\n      swap1\n        /* \"@openzeppelin/contracts/token/ERC20/utils/SafeERC20.sol\":3652:3721  address(token).functionCall(data, \"SafeERC20: low-level call failed\") */\n      swap3\n      swap2\n      swap1\n      0xffffffff\n      and\n      jump\t// in\n    tag_190:\n        /* \"@openzeppelin/contracts/token/ERC20/utils/SafeERC20.sol\":3626:3721  bytes memory returndata = address(token).functionCall(data, \"SafeERC20: low-level call failed\") */\n      swap1\n      pop\n        /* \"@openzeppelin/contracts/token/ERC20/utils/SafeERC20.sol\":3755:3756  0 */\n      0x00\n        /* \"@openzeppelin/contracts/token/ERC20/utils/SafeERC20.sol\":3735:3745  returndata */\n      dup2\n        /* \"@openzeppelin/contracts/token/ERC20/utils/SafeERC20.sol\":3735:3752  returndata.length */\n      mload\n        /* \"@openzeppelin/contracts/token/ERC20/utils/SafeERC20.sol\":3735:3756  returndata.length > 0 */\n      gt\n        /* \"@openzeppelin/contracts/token/ERC20/utils/SafeERC20.sol\":3731:3907  if (returndata.length > 0) {... */\n      iszero\n      tag_192\n      jumpi\n        /* \"@openzeppelin/contracts/token/ERC20/utils/SafeERC20.sol\":3830:3840  returndata */\n      dup1\n        /* \"@openzeppelin/contracts/token/ERC20/utils/SafeERC20.sol\":3819:3849  abi.decode(returndata, (bool)) */\n      dup1\n      0x20\n      add\n      swap1\n      mload\n      dup2\n      add\n      swap1\n      tag_193\n      swap2\n      swap1\n      tag_121\n      jump\t// in\n    tag_193:\n        /* \"@openzeppelin/contracts/token/ERC20/utils/SafeERC20.sol\":3811:3896  require(abi.decode(returndata, (bool)), \"SafeERC20: ERC20 operation did not succeed\") */\n      tag_194\n      jumpi\n      mload(0x40)\n      0x08c379a000000000000000000000000000000000000000000000000000000000\n      dup2\n      mstore\n      0x04\n      add\n      tag_195\n      swap1\n      tag_196\n      jump\t// in\n    tag_195:\n      mload(0x40)\n      dup1\n      swap2\n      sub\n      swap1\n      revert\n    tag_194:\n        /* \"@openzeppelin/contracts/token/ERC20/utils/SafeERC20.sol\":3731:3907  if (returndata.length > 0) {... */\n    tag_192:\n        /* \"@openzeppelin/contracts/token/ERC20/utils/SafeERC20.sol\":3277:3913  {... */\n      pop\n        /* \"@openzeppelin/contracts/token/ERC20/utils/SafeERC20.sol\":3207:3913  function _callOptionalReturn(IERC20 token, bytes memory data) private {... */\n      pop\n      pop\n      jump\t// out\n        /* \"@openzeppelin/contracts/utils/Address.sol\":3861:4084  function functionCall(... */\n    tag_191:\n        /* \"@openzeppelin/contracts/utils/Address.sol\":3994:4006  bytes memory */\n      0x60\n        /* \"@openzeppelin/contracts/utils/Address.sol\":4025:4077  functionCallWithValue(target, data, 0, errorMessage) */\n      tag_198\n        /* \"@openzeppelin/contracts/utils/Address.sol\":4047:4053  target */\n      dup5\n        /* \"@openzeppelin/contracts/utils/Address.sol\":4055:4059  data */\n      dup5\n        /* \"@openzeppelin/contracts/utils/Address.sol\":4061:4062  0 */\n      0x00\n        /* \"@openzeppelin/contracts/utils/Address.sol\":4064:4076  errorMessage */\n      dup6\n        /* \"@openzeppelin/contracts/utils/Address.sol\":4025:4046  functionCallWithValue */\n      tag_199\n        /* \"@openzeppelin/contracts/utils/Address.sol\":4025:4077  functionCallWithValue(target, data, 0, errorMessage) */\n      jump\t// in\n    tag_198:\n        /* \"@openzeppelin/contracts/utils/Address.sol\":4018:4077  return functionCallWithValue(target, data, 0, errorMessage) */\n      swap1\n      pop\n        /* \"@openzeppelin/contracts/utils/Address.sol\":3861:4084  function functionCall(... */\n      swap4\n      swap3\n      pop\n      pop\n      pop\n      jump\t// out\n        /* \"@openzeppelin/contracts/utils/Address.sol\":4948:5447  function functionCallWithValue(... */\n    tag_199:\n        /* \"@openzeppelin/contracts/utils/Address.sol\":5113:5125  bytes memory */\n      0x60\n        /* \"@openzeppelin/contracts/utils/Address.sol\":5170:5175  value */\n      dup3\n        /* \"@openzeppelin/contracts/utils/Address.sol\":5145:5166  address(this).balance */\n      selfbalance\n        /* \"@openzeppelin/contracts/utils/Address.sol\":5145:5175  address(this).balance >= value */\n      lt\n      iszero\n        /* \"@openzeppelin/contracts/utils/Address.sol\":5137:5218  require(address(this).balance >= value, \"Address: insufficient balance for call\") */\n      tag_201\n      jumpi\n      mload(0x40)\n      0x08c379a000000000000000000000000000000000000000000000000000000000\n      dup2\n      mstore\n      0x04\n      add\n      tag_202\n      swap1\n      tag_203\n      jump\t// in\n    tag_202:\n      mload(0x40)\n      dup1\n      swap2\n      sub\n      swap1\n      revert\n    tag_201:\n        /* \"@openzeppelin/contracts/utils/Address.sol\":5236:5254  isContract(target) */\n      tag_204\n        /* \"@openzeppelin/contracts/utils/Address.sol\":5247:5253  target */\n      dup6\n        /* \"@openzeppelin/contracts/utils/Address.sol\":5236:5246  isContract */\n      tag_205\n        /* \"@openzeppelin/contracts/utils/Address.sol\":5236:5254  isContract(target) */\n      jump\t// in\n    tag_204:\n        /* \"@openzeppelin/contracts/utils/Address.sol\":5228:5288  require(isContract(target), \"Address: call to non-contract\") */\n      tag_206\n      jumpi\n      mload(0x40)\n      0x08c379a000000000000000000000000000000000000000000000000000000000\n      dup2\n      mstore\n      0x04\n      add\n      tag_207\n      swap1\n      tag_208\n      jump\t// in\n    tag_207:\n      mload(0x40)\n      dup1\n      swap2\n      sub\n      swap1\n      revert\n    tag_206:\n        /* \"@openzeppelin/contracts/utils/Address.sol\":5300:5312  bool success */\n      0x00\n        /* \"@openzeppelin/contracts/utils/Address.sol\":5314:5337  bytes memory returndata */\n      dup1\n        /* \"@openzeppelin/contracts/utils/Address.sol\":5341:5347  target */\n      dup7\n        /* \"@openzeppelin/contracts/utils/Address.sol\":5341:5352  target.call */\n      0xffffffffffffffffffffffffffffffffffffffff\n      and\n        /* \"@openzeppelin/contracts/utils/Address.sol\":5360:5365  value */\n      dup6\n        /* \"@openzeppelin/contracts/utils/Address.sol\":5367:5371  data */\n      dup8\n        /* \"@openzeppelin/contracts/utils/Address.sol\":5341:5372  target.call{value: value}(data) */\n      mload(0x40)\n      tag_209\n      swap2\n      swap1\n      tag_210\n      jump\t// in\n    tag_209:\n      0x00\n      mload(0x40)\n      dup1\n      dup4\n      sub\n      dup2\n      dup6\n      dup8\n      gas\n      call\n      swap3\n      pop\n      pop\n      pop\n      returndatasize\n      dup1\n      0x00\n      dup2\n      eq\n      tag_213\n      jumpi\n      mload(0x40)\n      swap2\n      pop\n      and(add(returndatasize, 0x3f), not(0x1f))\n      dup3\n      add\n      0x40\n      mstore\n      returndatasize\n      dup3\n      mstore\n      returndatasize\n      0x00\n      0x20\n      dup5\n      add\n      returndatacopy\n      jump(tag_212)\n    tag_213:\n      0x60\n      swap2\n      pop\n    tag_212:\n      pop\n        /* \"@openzeppelin/contracts/utils/Address.sol\":5299:5372  (bool success, bytes memory returndata) = target.call{value: value}(data) */\n      swap2\n      pop\n      swap2\n      pop\n        /* \"@openzeppelin/contracts/utils/Address.sol\":5389:5440  verifyCallResult(success, returndata, errorMessage) */\n      tag_214\n        /* \"@openzeppelin/contracts/utils/Address.sol\":5406:5413  success */\n      dup3\n        /* \"@openzeppelin/contracts/utils/Address.sol\":5415:5425  returndata */\n      dup3\n        /* \"@openzeppelin/contracts/utils/Address.sol\":5427:5439  errorMessage */\n      dup7\n        /* \"@openzeppelin/contracts/utils/Address.sol\":5389:5405  verifyCallResult */\n      tag_215\n        /* \"@openzeppelin/contracts/utils/Address.sol\":5389:5440  verifyCallResult(success, returndata, errorMessage) */\n      jump\t// in\n    tag_214:\n        /* \"@openzeppelin/contracts/utils/Address.sol\":5382:5440  return verifyCallResult(success, returndata, errorMessage) */\n      swap3\n      pop\n      pop\n      pop\n        /* \"@openzeppelin/contracts/utils/Address.sol\":4948:5447  function functionCallWithValue(... */\n      swap5\n      swap4\n      pop\n      pop\n      pop\n      pop\n      jump\t// out\n        /* \"@openzeppelin/contracts/utils/Address.sol\":1175:1495  function isContract(address account) internal view returns (bool) {... */\n    tag_205:\n        /* \"@openzeppelin/contracts/utils/Address.sol\":1235:1239  bool */\n      0x00\n        /* \"@openzeppelin/contracts/utils/Address.sol\":1487:1488  0 */\n      dup1\n        /* \"@openzeppelin/contracts/utils/Address.sol\":1465:1472  account */\n      dup3\n        /* \"@openzeppelin/contracts/utils/Address.sol\":1465:1484  account.code.length */\n      0xffffffffffffffffffffffffffffffffffffffff\n      and\n      extcodesize\n        /* \"@openzeppelin/contracts/utils/Address.sol\":1465:1488  account.code.length > 0 */\n      gt\n        /* \"@openzeppelin/contracts/utils/Address.sol\":1458:1488  return account.code.length > 0 */\n      swap1\n      pop\n        /* \"@openzeppelin/contracts/utils/Address.sol\":1175:1495  function isContract(address account) internal view returns (bool) {... */\n      swap2\n      swap1\n      pop\n      jump\t// out\n        /* \"@openzeppelin/contracts/utils/Address.sol\":7561:8253  function verifyCallResult(... */\n    tag_215:\n        /* \"@openzeppelin/contracts/utils/Address.sol\":7707:7719  bytes memory */\n      0x60\n        /* \"@openzeppelin/contracts/utils/Address.sol\":7735:7742  success */\n      dup4\n        /* \"@openzeppelin/contracts/utils/Address.sol\":7731:8247  if (success) {... */\n      iszero\n      tag_218\n      jumpi\n        /* \"@openzeppelin/contracts/utils/Address.sol\":7765:7775  returndata */\n      dup3\n        /* \"@openzeppelin/contracts/utils/Address.sol\":7758:7775  return returndata */\n      swap1\n      pop\n      jump(tag_217)\n        /* \"@openzeppelin/contracts/utils/Address.sol\":7731:8247  if (success) {... */\n    tag_218:\n        /* \"@openzeppelin/contracts/utils/Address.sol\":7896:7897  0 */\n      0x00\n        /* \"@openzeppelin/contracts/utils/Address.sol\":7876:7886  returndata */\n      dup4\n        /* \"@openzeppelin/contracts/utils/Address.sol\":7876:7893  returndata.length */\n      mload\n        /* \"@openzeppelin/contracts/utils/Address.sol\":7876:7897  returndata.length > 0 */\n      gt\n        /* \"@openzeppelin/contracts/utils/Address.sol\":7872:8237  if (returndata.length > 0) {... */\n      iszero\n      tag_220\n      jumpi\n        /* \"@openzeppelin/contracts/utils/Address.sol\":8070:8080  returndata */\n      dup3\n        /* \"@openzeppelin/contracts/utils/Address.sol\":8064:8081  mload(returndata) */\n      mload\n        /* \"@openzeppelin/contracts/utils/Address.sol\":8130:8145  returndata_size */\n      dup1\n        /* \"@openzeppelin/contracts/utils/Address.sol\":8117:8127  returndata */\n      dup5\n        /* \"@openzeppelin/contracts/utils/Address.sol\":8113:8115  32 */\n      0x20\n        /* \"@openzeppelin/contracts/utils/Address.sol\":8109:8128  add(32, returndata) */\n      add\n        /* \"@openzeppelin/contracts/utils/Address.sol\":8102:8146  revert(add(32, returndata), returndata_size) */\n      revert\n        /* \"@openzeppelin/contracts/utils/Address.sol\":7872:8237  if (returndata.length > 0) {... */\n    tag_220:\n        /* \"@openzeppelin/contracts/utils/Address.sol\":8209:8221  errorMessage */\n      dup2\n        /* \"@openzeppelin/contracts/utils/Address.sol\":8202:8222  revert(errorMessage) */\n      mload(0x40)\n      0x08c379a000000000000000000000000000000000000000000000000000000000\n      dup2\n      mstore\n      0x04\n      add\n      tag_222\n      swap2\n      swap1\n      tag_223\n      jump\t// in\n    tag_222:\n      mload(0x40)\n      dup1\n      swap2\n      sub\n      swap1\n      revert\n        /* \"@openzeppelin/contracts/utils/Address.sol\":7561:8253  function verifyCallResult(... */\n    tag_217:\n      swap4\n      swap3\n      pop\n      pop\n      pop\n      jump\t// out\n        /* \"#utility.yul\":7:146   */\n    tag_225:\n        /* \"#utility.yul\":53:58   */\n      0x00\n        /* \"#utility.yul\":91:97   */\n      dup2\n        /* \"#utility.yul\":78:98   */\n      calldataload\n        /* \"#utility.yul\":69:98   */\n      swap1\n      pop\n        /* \"#utility.yul\":107:140   */\n      tag_227\n        /* \"#utility.yul\":134:139   */\n      dup2\n        /* \"#utility.yul\":107:140   */\n      tag_228\n      jump\t// in\n    tag_227:\n        /* \"#utility.yul\":7:146   */\n      swap3\n      swap2\n      pop\n      pop\n      jump\t// out\n        /* \"#utility.yul\":152:289   */\n    tag_229:\n        /* \"#utility.yul\":206:211   */\n      0x00\n        /* \"#utility.yul\":237:243   */\n      dup2\n        /* \"#utility.yul\":231:244   */\n      mload\n        /* \"#utility.yul\":222:244   */\n      swap1\n      pop\n        /* \"#utility.yul\":253:283   */\n      tag_231\n        /* \"#utility.yul\":277:282   */\n      dup2\n        /* \"#utility.yul\":253:283   */\n      tag_232\n      jump\t// in\n    tag_231:\n        /* \"#utility.yul\":152:289   */\n      swap3\n      swap2\n      pop\n      pop\n      jump\t// out\n        /* \"#utility.yul\":295:434   */\n    tag_233:\n        /* \"#utility.yul\":341:346   */\n      0x00\n        /* \"#utility.yul\":379:385   */\n      dup2\n        /* \"#utility.yul\":366:386   */\n      calldataload\n        /* \"#utility.yul\":357:386   */\n      swap1\n      pop\n        /* \"#utility.yul\":395:428   */\n      tag_235\n        /* \"#utility.yul\":422:427   */\n      dup2\n        /* \"#utility.yul\":395:428   */\n      tag_236\n      jump\t// in\n    tag_235:\n        /* \"#utility.yul\":295:434   */\n      swap3\n      swap2\n      pop\n      pop\n      jump\t// out\n        /* \"#utility.yul\":440:583   */\n    tag_237:\n        /* \"#utility.yul\":497:502   */\n      0x00\n        /* \"#utility.yul\":528:534   */\n      dup2\n        /* \"#utility.yul\":522:535   */\n      mload\n        /* \"#utility.yul\":513:535   */\n      swap1\n      pop\n        /* \"#utility.yul\":544:577   */\n      tag_239\n        /* \"#utility.yul\":571:576   */\n      dup2\n        /* \"#utility.yul\":544:577   */\n      tag_236\n      jump\t// in\n    tag_239:\n        /* \"#utility.yul\":440:583   */\n      swap3\n      swap2\n      pop\n      pop\n      jump\t// out\n        /* \"#utility.yul\":589:918   */\n    tag_24:\n        /* \"#utility.yul\":648:654   */\n      0x00\n        /* \"#utility.yul\":697:699   */\n      0x20\n        /* \"#utility.yul\":685:694   */\n      dup3\n        /* \"#utility.yul\":676:683   */\n      dup5\n        /* \"#utility.yul\":672:695   */\n      sub\n        /* \"#utility.yul\":668:700   */\n      slt\n        /* \"#utility.yul\":665:784   */\n      iszero\n      tag_241\n      jumpi\n        /* \"#utility.yul\":703:782   */\n      tag_242\n      tag_243\n      jump\t// in\n    tag_242:\n        /* \"#utility.yul\":665:784   */\n    tag_241:\n        /* \"#utility.yul\":823:824   */\n      0x00\n        /* \"#utility.yul\":848:901   */\n      tag_244\n        /* \"#utility.yul\":893:900   */\n      dup5\n        /* \"#utility.yul\":884:890   */\n      dup3\n        /* \"#utility.yul\":873:882   */\n      dup6\n        /* \"#utility.yul\":869:891   */\n      add\n        /* \"#utility.yul\":848:901   */\n      tag_225\n      jump\t// in\n    tag_244:\n        /* \"#utility.yul\":838:901   */\n      swap2\n      pop\n        /* \"#utility.yul\":794:911   */\n      pop\n        /* \"#utility.yul\":589:918   */\n      swap3\n      swap2\n      pop\n      pop\n      jump\t// out\n        /* \"#utility.yul\":924:1269   */\n    tag_121:\n        /* \"#utility.yul\":991:997   */\n      0x00\n        /* \"#utility.yul\":1040:1042   */\n      0x20\n        /* \"#utility.yul\":1028:1037   */\n      dup3\n        /* \"#utility.yul\":1019:1026   */\n      dup5\n        /* \"#utility.yul\":1015:1038   */\n      sub\n        /* \"#utility.yul\":1011:1043   */\n      slt\n        /* \"#utility.yul\":1008:1127   */\n      iszero\n      tag_246\n      jumpi\n        /* \"#utility.yul\":1046:1125   */\n      tag_247\n      tag_243\n      jump\t// in\n    tag_247:\n        /* \"#utility.yul\":1008:1127   */\n    tag_246:\n        /* \"#utility.yul\":1166:1167   */\n      0x00\n        /* \"#utility.yul\":1191:1252   */\n      tag_248\n        /* \"#utility.yul\":1244:1251   */\n      dup5\n        /* \"#utility.yul\":1235:1241   */\n      dup3\n        /* \"#utility.yul\":1224:1233   */\n      dup6\n        /* \"#utility.yul\":1220:1242   */\n      add\n        /* \"#utility.yul\":1191:1252   */\n      tag_229\n      jump\t// in\n    tag_248:\n        /* \"#utility.yul\":1181:1252   */\n      swap2\n      pop\n        /* \"#utility.yul\":1137:1262   */\n      pop\n        /* \"#utility.yul\":924:1269   */\n      swap3\n      swap2\n      pop\n      pop\n      jump\t// out\n        /* \"#utility.yul\":1275:1604   */\n    tag_30:\n        /* \"#utility.yul\":1334:1340   */\n      0x00\n        /* \"#utility.yul\":1383:1385   */\n      0x20\n        /* \"#utility.yul\":1371:1380   */\n      dup3\n        /* \"#utility.yul\":1362:1369   */\n      dup5\n        /* \"#utility.yul\":1358:1381   */\n      sub\n        /* \"#utility.yul\":1354:1386   */\n      slt\n        /* \"#utility.yul\":1351:1470   */\n      iszero\n      tag_250\n      jumpi\n        /* \"#utility.yul\":1389:1468   */\n      tag_251\n      tag_243\n      jump\t// in\n    tag_251:\n        /* \"#utility.yul\":1351:1470   */\n    tag_250:\n        /* \"#utility.yul\":1509:1510   */\n      0x00\n        /* \"#utility.yul\":1534:1587   */\n      tag_252\n        /* \"#utility.yul\":1579:1586   */\n      dup5\n        /* \"#utility.yul\":1570:1576   */\n      dup3\n        /* \"#utility.yul\":1559:1568   */\n      dup6\n        /* \"#utility.yul\":1555:1577   */\n      add\n        /* \"#utility.yul\":1534:1587   */\n      tag_233\n      jump\t// in\n    tag_252:\n        /* \"#utility.yul\":1524:1587   */\n      swap2\n      pop\n        /* \"#utility.yul\":1480:1597   */\n      pop\n        /* \"#utility.yul\":1275:1604   */\n      swap3\n      swap2\n      pop\n      pop\n      jump\t// out\n        /* \"#utility.yul\":1610:1961   */\n    tag_82:\n        /* \"#utility.yul\":1680:1686   */\n      0x00\n        /* \"#utility.yul\":1729:1731   */\n      0x20\n        /* \"#utility.yul\":1717:1726   */\n      dup3\n        /* \"#utility.yul\":1708:1715   */\n      dup5\n        /* \"#utility.yul\":1704:1727   */\n      sub\n        /* \"#utility.yul\":1700:1732   */\n      slt\n        /* \"#utility.yul\":1697:1816   */\n      iszero\n      tag_254\n      jumpi\n        /* \"#utility.yul\":1735:1814   */\n      tag_255\n      tag_243\n      jump\t// in\n    tag_255:\n        /* \"#utility.yul\":1697:1816   */\n    tag_254:\n        /* \"#utility.yul\":1855:1856   */\n      0x00\n        /* \"#utility.yul\":1880:1944   */\n      tag_256\n        /* \"#utility.yul\":1936:1943   */\n      dup5\n        /* \"#utility.yul\":1927:1933   */\n      dup3\n        /* \"#utility.yul\":1916:1925   */\n      dup6\n        /* \"#utility.yul\":1912:1934   */\n      add\n        /* \"#utility.yul\":1880:1944   */\n      tag_237\n      jump\t// in\n    tag_256:\n        /* \"#utility.yul\":1870:1944   */\n      swap2\n      pop\n        /* \"#utility.yul\":1826:1954   */\n      pop\n        /* \"#utility.yul\":1610:1961   */\n      swap3\n      swap2\n      pop\n      pop\n      jump\t// out\n        /* \"#utility.yul\":1967:2085   */\n    tag_257:\n        /* \"#utility.yul\":2054:2078   */\n      tag_259\n        /* \"#utility.yul\":2072:2077   */\n      dup2\n        /* \"#utility.yul\":2054:2078   */\n      tag_260\n      jump\t// in\n    tag_259:\n        /* \"#utility.yul\":2049:2052   */\n      dup3\n        /* \"#utility.yul\":2042:2079   */\n      mstore\n        /* \"#utility.yul\":1967:2085   */\n      pop\n      pop\n      jump\t// out\n        /* \"#utility.yul\":2091:2200   */\n    tag_261:\n        /* \"#utility.yul\":2172:2193   */\n      tag_263\n        /* \"#utility.yul\":2187:2192   */\n      dup2\n        /* \"#utility.yul\":2172:2193   */\n      tag_264\n      jump\t// in\n    tag_263:\n        /* \"#utility.yul\":2167:2170   */\n      dup3\n        /* \"#utility.yul\":2160:2194   */\n      mstore\n        /* \"#utility.yul\":2091:2200   */\n      pop\n      pop\n      jump\t// out\n        /* \"#utility.yul\":2206:2579   */\n    tag_265:\n        /* \"#utility.yul\":2310:2313   */\n      0x00\n        /* \"#utility.yul\":2338:2376   */\n      tag_267\n        /* \"#utility.yul\":2370:2375   */\n      dup3\n        /* \"#utility.yul\":2338:2376   */\n      tag_268\n      jump\t// in\n    tag_267:\n        /* \"#utility.yul\":2392:2480   */\n      tag_269\n        /* \"#utility.yul\":2473:2479   */\n      dup2\n        /* \"#utility.yul\":2468:2471   */\n      dup6\n        /* \"#utility.yul\":2392:2480   */\n      tag_270\n      jump\t// in\n    tag_269:\n        /* \"#utility.yul\":2385:2480   */\n      swap4\n      pop\n        /* \"#utility.yul\":2489:2541   */\n      tag_271\n        /* \"#utility.yul\":2534:2540   */\n      dup2\n        /* \"#utility.yul\":2529:2532   */\n      dup6\n        /* \"#utility.yul\":2522:2526   */\n      0x20\n        /* \"#utility.yul\":2515:2520   */\n      dup7\n        /* \"#utility.yul\":2511:2527   */\n      add\n        /* \"#utility.yul\":2489:2541   */\n      tag_272\n      jump\t// in\n    tag_271:\n        /* \"#utility.yul\":2566:2572   */\n      dup1\n        /* \"#utility.yul\":2561:2564   */\n      dup5\n        /* \"#utility.yul\":2557:2573   */\n      add\n        /* \"#utility.yul\":2550:2573   */\n      swap2\n      pop\n        /* \"#utility.yul\":2314:2579   */\n      pop\n        /* \"#utility.yul\":2206:2579   */\n      swap3\n      swap2\n      pop\n      pop\n      jump\t// out\n        /* \"#utility.yul\":2585:2949   */\n    tag_273:\n        /* \"#utility.yul\":2673:2676   */\n      0x00\n        /* \"#utility.yul\":2701:2740   */\n      tag_275\n        /* \"#utility.yul\":2734:2739   */\n      dup3\n        /* \"#utility.yul\":2701:2740   */\n      tag_276\n      jump\t// in\n    tag_275:\n        /* \"#utility.yul\":2756:2827   */\n      tag_277\n        /* \"#utility.yul\":2820:2826   */\n      dup2\n        /* \"#utility.yul\":2815:2818   */\n      dup6\n        /* \"#utility.yul\":2756:2827   */\n      tag_278\n      jump\t// in\n    tag_277:\n        /* \"#utility.yul\":2749:2827   */\n      swap4\n      pop\n        /* \"#utility.yul\":2836:2888   */\n      tag_279\n        /* \"#utility.yul\":2881:2887   */\n      dup2\n        /* \"#utility.yul\":2876:2879   */\n      dup6\n        /* \"#utility.yul\":2869:2873   */\n      0x20\n        /* \"#utility.yul\":2862:2867   */\n      dup7\n        /* \"#utility.yul\":2858:2874   */\n      add\n        /* \"#utility.yul\":2836:2888   */\n      tag_272\n      jump\t// in\n    tag_279:\n        /* \"#utility.yul\":2913:2942   */\n      tag_280\n        /* \"#utility.yul\":2935:2941   */\n      dup2\n        /* \"#utility.yul\":2913:2942   */\n      tag_281\n      jump\t// in\n    tag_280:\n        /* \"#utility.yul\":2908:2911   */\n      dup5\n        /* \"#utility.yul\":2904:2943   */\n      add\n        /* \"#utility.yul\":2897:2943   */\n      swap2\n      pop\n        /* \"#utility.yul\":2677:2949   */\n      pop\n        /* \"#utility.yul\":2585:2949   */\n      swap3\n      swap2\n      pop\n      pop\n      jump\t// out\n        /* \"#utility.yul\":2955:3321   */\n    tag_282:\n        /* \"#utility.yul\":3097:3100   */\n      0x00\n        /* \"#utility.yul\":3118:3185   */\n      tag_284\n        /* \"#utility.yul\":3182:3184   */\n      0x25\n        /* \"#utility.yul\":3177:3180   */\n      dup4\n        /* \"#utility.yul\":3118:3185   */\n      tag_278\n      jump\t// in\n    tag_284:\n        /* \"#utility.yul\":3111:3185   */\n      swap2\n      pop\n        /* \"#utility.yul\":3194:3287   */\n      tag_285\n        /* \"#utility.yul\":3283:3286   */\n      dup3\n        /* \"#utility.yul\":3194:3287   */\n      tag_286\n      jump\t// in\n    tag_285:\n        /* \"#utility.yul\":3312:3314   */\n      0x40\n        /* \"#utility.yul\":3307:3310   */\n      dup3\n        /* \"#utility.yul\":3303:3315   */\n      add\n        /* \"#utility.yul\":3296:3315   */\n      swap1\n      pop\n        /* \"#utility.yul\":2955:3321   */\n      swap2\n      swap1\n      pop\n      jump\t// out\n        /* \"#utility.yul\":3327:3693   */\n    tag_287:\n        /* \"#utility.yul\":3469:3472   */\n      0x00\n        /* \"#utility.yul\":3490:3557   */\n      tag_289\n        /* \"#utility.yul\":3554:3556   */\n      0x26\n        /* \"#utility.yul\":3549:3552   */\n      dup4\n        /* \"#utility.yul\":3490:3557   */\n      tag_278\n      jump\t// in\n    tag_289:\n        /* \"#utility.yul\":3483:3557   */\n      swap2\n      pop\n        /* \"#utility.yul\":3566:3659   */\n      tag_290\n        /* \"#utility.yul\":3655:3658   */\n      dup3\n        /* \"#utility.yul\":3566:3659   */\n      tag_291\n      jump\t// in\n    tag_290:\n        /* \"#utility.yul\":3684:3686   */\n      0x40\n        /* \"#utility.yul\":3679:3682   */\n      dup3\n        /* \"#utility.yul\":3675:3687   */\n      add\n        /* \"#utility.yul\":3668:3687   */\n      swap1\n      pop\n        /* \"#utility.yul\":3327:3693   */\n      swap2\n      swap1\n      pop\n      jump\t// out\n        /* \"#utility.yul\":3699:4065   */\n    tag_292:\n        /* \"#utility.yul\":3841:3844   */\n      0x00\n        /* \"#utility.yul\":3862:3929   */\n      tag_294\n        /* \"#utility.yul\":3926:3928   */\n      0x0e\n        /* \"#utility.yul\":3921:3924   */\n      dup4\n        /* \"#utility.yul\":3862:3929   */\n      tag_278\n      jump\t// in\n    tag_294:\n        /* \"#utility.yul\":3855:3929   */\n      swap2\n      pop\n        /* \"#utility.yul\":3938:4031   */\n      tag_295\n        /* \"#utility.yul\":4027:4030   */\n      dup3\n        /* \"#utility.yul\":3938:4031   */\n      tag_296\n      jump\t// in\n    tag_295:\n        /* \"#utility.yul\":4056:4058   */\n      0x20\n        /* \"#utility.yul\":4051:4054   */\n      dup3\n        /* \"#utility.yul\":4047:4059   */\n      add\n        /* \"#utility.yul\":4040:4059   */\n      swap1\n      pop\n        /* \"#utility.yul\":3699:4065   */\n      swap2\n      swap1\n      pop\n      jump\t// out\n        /* \"#utility.yul\":4071:4437   */\n    tag_297:\n        /* \"#utility.yul\":4213:4216   */\n      0x00\n        /* \"#utility.yul\":4234:4301   */\n      tag_299\n        /* \"#utility.yul\":4298:4300   */\n      0x26\n        /* \"#utility.yul\":4293:4296   */\n      dup4\n        /* \"#utility.yul\":4234:4301   */\n      tag_278\n      jump\t// in\n    tag_299:\n        /* \"#utility.yul\":4227:4301   */\n      swap2\n      pop\n        /* \"#utility.yul\":4310:4403   */\n      tag_300\n        /* \"#utility.yul\":4399:4402   */\n      dup3\n        /* \"#utility.yul\":4310:4403   */\n      tag_301\n      jump\t// in\n    tag_300:\n        /* \"#utility.yul\":4428:4430   */\n      0x40\n        /* \"#utility.yul\":4423:4426   */\n      dup3\n        /* \"#utility.yul\":4419:4431   */\n      add\n        /* \"#utility.yul\":4412:4431   */\n      swap1\n      pop\n        /* \"#utility.yul\":4071:4437   */\n      swap2\n      swap1\n      pop\n      jump\t// out\n        /* \"#utility.yul\":4443:4809   */\n    tag_302:\n        /* \"#utility.yul\":4585:4588   */\n      0x00\n        /* \"#utility.yul\":4606:4673   */\n      tag_304\n        /* \"#utility.yul\":4670:4672   */\n      0x20\n        /* \"#utility.yul\":4665:4668   */\n      dup4\n        /* \"#utility.yul\":4606:4673   */\n      tag_278\n      jump\t// in\n    tag_304:\n        /* \"#utility.yul\":4599:4673   */\n      swap2\n      pop\n        /* \"#utility.yul\":4682:4775   */\n      tag_305\n        /* \"#utility.yul\":4771:4774   */\n      dup3\n        /* \"#utility.yul\":4682:4775   */\n      tag_306\n      jump\t// in\n    tag_305:\n        /* \"#utility.yul\":4800:4802   */\n      0x20\n        /* \"#utility.yul\":4795:4798   */\n      dup3\n        /* \"#utility.yul\":4791:4803   */\n      add\n        /* \"#utility.yul\":4784:4803   */\n      swap1\n      pop\n        /* \"#utility.yul\":4443:4809   */\n      swap2\n      swap1\n      pop\n      jump\t// out\n        /* \"#utility.yul\":4815:5181   */\n    tag_307:\n        /* \"#utility.yul\":4957:4960   */\n      0x00\n        /* \"#utility.yul\":4978:5045   */\n      tag_309\n        /* \"#utility.yul\":5042:5044   */\n      0x17\n        /* \"#utility.yul\":5037:5040   */\n      dup4\n        /* \"#utility.yul\":4978:5045   */\n      tag_278\n      jump\t// in\n    tag_309:\n        /* \"#utility.yul\":4971:5045   */\n      swap2\n      pop\n        /* \"#utility.yul\":5054:5147   */\n      tag_310\n        /* \"#utility.yul\":5143:5146   */\n      dup3\n        /* \"#utility.yul\":5054:5147   */\n      tag_311\n      jump\t// in\n    tag_310:\n        /* \"#utility.yul\":5172:5174   */\n      0x20\n        /* \"#utility.yul\":5167:5170   */\n      dup3\n        /* \"#utility.yul\":5163:5175   */\n      add\n        /* \"#utility.yul\":5156:5175   */\n      swap1\n      pop\n        /* \"#utility.yul\":4815:5181   */\n      swap2\n      swap1\n      pop\n      jump\t// out\n        /* \"#utility.yul\":5187:5553   */\n    tag_312:\n        /* \"#utility.yul\":5329:5332   */\n      0x00\n        /* \"#utility.yul\":5350:5417   */\n      tag_314\n        /* \"#utility.yul\":5414:5416   */\n      0x11\n        /* \"#utility.yul\":5409:5412   */\n      dup4\n        /* \"#utility.yul\":5350:5417   */\n      tag_278\n      jump\t// in\n    tag_314:\n        /* \"#utility.yul\":5343:5417   */\n      swap2\n      pop\n        /* \"#utility.yul\":5426:5519   */\n      tag_315\n        /* \"#utility.yul\":5515:5518   */\n      dup3\n        /* \"#utility.yul\":5426:5519   */\n      tag_316\n      jump\t// in\n    tag_315:\n        /* \"#utility.yul\":5544:5546   */\n      0x20\n        /* \"#utility.yul\":5539:5542   */\n      dup3\n        /* \"#utility.yul\":5535:5547   */\n      add\n        /* \"#utility.yul\":5528:5547   */\n      swap1\n      pop\n        /* \"#utility.yul\":5187:5553   */\n      swap2\n      swap1\n      pop\n      jump\t// out\n        /* \"#utility.yul\":5559:5925   */\n    tag_317:\n        /* \"#utility.yul\":5701:5704   */\n      0x00\n        /* \"#utility.yul\":5722:5789   */\n      tag_319\n        /* \"#utility.yul\":5786:5788   */\n      0x1d\n        /* \"#utility.yul\":5781:5784   */\n      dup4\n        /* \"#utility.yul\":5722:5789   */\n      tag_278\n      jump\t// in\n    tag_319:\n        /* \"#utility.yul\":5715:5789   */\n      swap2\n      pop\n        /* \"#utility.yul\":5798:5891   */\n      tag_320\n        /* \"#utility.yul\":5887:5890   */\n      dup3\n        /* \"#utility.yul\":5798:5891   */\n      tag_321\n      jump\t// in\n    tag_320:\n        /* \"#utility.yul\":5916:5918   */\n      0x20\n        /* \"#utility.yul\":5911:5914   */\n      dup3\n        /* \"#utility.yul\":5907:5919   */\n      add\n        /* \"#utility.yul\":5900:5919   */\n      swap1\n      pop\n        /* \"#utility.yul\":5559:5925   */\n      swap2\n      swap1\n      pop\n      jump\t// out\n        /* \"#utility.yul\":5931:6297   */\n    tag_322:\n        /* \"#utility.yul\":6073:6076   */\n      0x00\n        /* \"#utility.yul\":6094:6161   */\n      tag_324\n        /* \"#utility.yul\":6158:6160   */\n      0x1a\n        /* \"#utility.yul\":6153:6156   */\n      dup4\n        /* \"#utility.yul\":6094:6161   */\n      tag_278\n      jump\t// in\n    tag_324:\n        /* \"#utility.yul\":6087:6161   */\n      swap2\n      pop\n        /* \"#utility.yul\":6170:6263   */\n      tag_325\n        /* \"#utility.yul\":6259:6262   */\n      dup3\n        /* \"#utility.yul\":6170:6263   */\n      tag_326\n      jump\t// in\n    tag_325:\n        /* \"#utility.yul\":6288:6290   */\n      0x20\n        /* \"#utility.yul\":6283:6286   */\n      dup3\n        /* \"#utility.yul\":6279:6291   */\n      add\n        /* \"#utility.yul\":6272:6291   */\n      swap1\n      pop\n        /* \"#utility.yul\":5931:6297   */\n      swap2\n      swap1\n      pop\n      jump\t// out\n        /* \"#utility.yul\":6303:6669   */\n    tag_327:\n        /* \"#utility.yul\":6445:6448   */\n      0x00\n        /* \"#utility.yul\":6466:6533   */\n      tag_329\n        /* \"#utility.yul\":6530:6532   */\n      0x2a\n        /* \"#utility.yul\":6525:6528   */\n      dup4\n        /* \"#utility.yul\":6466:6533   */\n      tag_278\n      jump\t// in\n    tag_329:\n        /* \"#utility.yul\":6459:6533   */\n      swap2\n      pop\n        /* \"#utility.yul\":6542:6635   */\n      tag_330\n        /* \"#utility.yul\":6631:6634   */\n      dup3\n        /* \"#utility.yul\":6542:6635   */\n      tag_331\n      jump\t// in\n    tag_330:\n        /* \"#utility.yul\":6660:6662   */\n      0x40\n        /* \"#utility.yul\":6655:6658   */\n      dup3\n        /* \"#utility.yul\":6651:6663   */\n      add\n        /* \"#utility.yul\":6644:6663   */\n      swap1\n      pop\n        /* \"#utility.yul\":6303:6669   */\n      swap2\n      swap1\n      pop\n      jump\t// out\n        /* \"#utility.yul\":6675:6793   */\n    tag_332:\n        /* \"#utility.yul\":6762:6786   */\n      tag_334\n        /* \"#utility.yul\":6780:6785   */\n      dup2\n        /* \"#utility.yul\":6762:6786   */\n      tag_335\n      jump\t// in\n    tag_334:\n        /* \"#utility.yul\":6757:6760   */\n      dup3\n        /* \"#utility.yul\":6750:6787   */\n      mstore\n        /* \"#utility.yul\":6675:6793   */\n      pop\n      pop\n      jump\t// out\n        /* \"#utility.yul\":6799:7070   */\n    tag_210:\n        /* \"#utility.yul\":6929:6932   */\n      0x00\n        /* \"#utility.yul\":6951:7044   */\n      tag_337\n        /* \"#utility.yul\":7040:7043   */\n      dup3\n        /* \"#utility.yul\":7031:7037   */\n      dup5\n        /* \"#utility.yul\":6951:7044   */\n      tag_265\n      jump\t// in\n    tag_337:\n        /* \"#utility.yul\":6944:7044   */\n      swap2\n      pop\n        /* \"#utility.yul\":7061:7064   */\n      dup2\n        /* \"#utility.yul\":7054:7064   */\n      swap1\n      pop\n        /* \"#utility.yul\":6799:7070   */\n      swap3\n      swap2\n      pop\n      pop\n      jump\t// out\n        /* \"#utility.yul\":7076:7298   */\n    tag_45:\n        /* \"#utility.yul\":7169:7173   */\n      0x00\n        /* \"#utility.yul\":7207:7209   */\n      0x20\n        /* \"#utility.yul\":7196:7205   */\n      dup3\n        /* \"#utility.yul\":7192:7210   */\n      add\n        /* \"#utility.yul\":7184:7210   */\n      swap1\n      pop\n        /* \"#utility.yul\":7220:7291   */\n      tag_339\n        /* \"#utility.yul\":7288:7289   */\n      0x00\n        /* \"#utility.yul\":7277:7286   */\n      dup4\n        /* \"#utility.yul\":7273:7290   */\n      add\n        /* \"#utility.yul\":7264:7270   */\n      dup5\n        /* \"#utility.yul\":7220:7291   */\n      tag_257\n      jump\t// in\n    tag_339:\n        /* \"#utility.yul\":7076:7298   */\n      swap3\n      swap2\n      pop\n      pop\n      jump\t// out\n        /* \"#utility.yul\":7304:7746   */\n    tag_188:\n        /* \"#utility.yul\":7453:7457   */\n      0x00\n        /* \"#utility.yul\":7491:7493   */\n      0x60\n        /* \"#utility.yul\":7480:7489   */\n      dup3\n        /* \"#utility.yul\":7476:7494   */\n      add\n        /* \"#utility.yul\":7468:7494   */\n      swap1\n      pop\n        /* \"#utility.yul\":7504:7575   */\n      tag_341\n        /* \"#utility.yul\":7572:7573   */\n      0x00\n        /* \"#utility.yul\":7561:7570   */\n      dup4\n        /* \"#utility.yul\":7557:7574   */\n      add\n        /* \"#utility.yul\":7548:7554   */\n      dup7\n        /* \"#utility.yul\":7504:7575   */\n      tag_257\n      jump\t// in\n    tag_341:\n        /* \"#utility.yul\":7585:7657   */\n      tag_342\n        /* \"#utility.yul\":7653:7655   */\n      0x20\n        /* \"#utility.yul\":7642:7651   */\n      dup4\n        /* \"#utility.yul\":7638:7656   */\n      add\n        /* \"#utility.yul\":7629:7635   */\n      dup6\n        /* \"#utility.yul\":7585:7657   */\n      tag_257\n      jump\t// in\n    tag_342:\n        /* \"#utility.yul\":7667:7739   */\n      tag_343\n        /* \"#utility.yul\":7735:7737   */\n      0x40\n        /* \"#utility.yul\":7724:7733   */\n      dup4\n        /* \"#utility.yul\":7720:7738   */\n      add\n        /* \"#utility.yul\":7711:7717   */\n      dup5\n        /* \"#utility.yul\":7667:7739   */\n      tag_332\n      jump\t// in\n    tag_343:\n        /* \"#utility.yul\":7304:7746   */\n      swap5\n      swap4\n      pop\n      pop\n      pop\n      pop\n      jump\t// out\n        /* \"#utility.yul\":7752:8084   */\n    tag_116:\n        /* \"#utility.yul\":7873:7877   */\n      0x00\n        /* \"#utility.yul\":7911:7913   */\n      0x40\n        /* \"#utility.yul\":7900:7909   */\n      dup3\n        /* \"#utility.yul\":7896:7914   */\n      add\n        /* \"#utility.yul\":7888:7914   */\n      swap1\n      pop\n        /* \"#utility.yul\":7924:7995   */\n      tag_345\n        /* \"#utility.yul\":7992:7993   */\n      0x00\n        /* \"#utility.yul\":7981:7990   */\n      dup4\n        /* \"#utility.yul\":7977:7994   */\n      add\n        /* \"#utility.yul\":7968:7974   */\n      dup6\n        /* \"#utility.yul\":7924:7995   */\n      tag_257\n      jump\t// in\n    tag_345:\n        /* \"#utility.yul\":8005:8077   */\n      tag_346\n        /* \"#utility.yul\":8073:8075   */\n      0x20\n        /* \"#utility.yul\":8062:8071   */\n      dup4\n        /* \"#utility.yul\":8058:8076   */\n      add\n        /* \"#utility.yul\":8049:8055   */\n      dup5\n        /* \"#utility.yul\":8005:8077   */\n      tag_332\n      jump\t// in\n    tag_346:\n        /* \"#utility.yul\":7752:8084   */\n      swap4\n      swap3\n      pop\n      pop\n      pop\n      jump\t// out\n        /* \"#utility.yul\":8090:8300   */\n    tag_36:\n        /* \"#utility.yul\":8177:8181   */\n      0x00\n        /* \"#utility.yul\":8215:8217   */\n      0x20\n        /* \"#utility.yul\":8204:8213   */\n      dup3\n        /* \"#utility.yul\":8200:8218   */\n      add\n        /* \"#utility.yul\":8192:8218   */\n      swap1\n      pop\n        /* \"#utility.yul\":8228:8293   */\n      tag_348\n        /* \"#utility.yul\":8290:8291   */\n      0x00\n        /* \"#utility.yul\":8279:8288   */\n      dup4\n        /* \"#utility.yul\":8275:8292   */\n      add\n        /* \"#utility.yul\":8266:8272   */\n      dup5\n        /* \"#utility.yul\":8228:8293   */\n      tag_261\n      jump\t// in\n    tag_348:\n        /* \"#utility.yul\":8090:8300   */\n      swap3\n      swap2\n      pop\n      pop\n      jump\t// out\n        /* \"#utility.yul\":8306:8619   */\n    tag_223:\n        /* \"#utility.yul\":8419:8423   */\n      0x00\n        /* \"#utility.yul\":8457:8459   */\n      0x20\n        /* \"#utility.yul\":8446:8455   */\n      dup3\n        /* \"#utility.yul\":8442:8460   */\n      add\n        /* \"#utility.yul\":8434:8460   */\n      swap1\n      pop\n        /* \"#utility.yul\":8506:8515   */\n      dup2\n        /* \"#utility.yul\":8500:8504   */\n      dup2\n        /* \"#utility.yul\":8496:8516   */\n      sub\n        /* \"#utility.yul\":8492:8493   */\n      0x00\n        /* \"#utility.yul\":8481:8490   */\n      dup4\n        /* \"#utility.yul\":8477:8494   */\n      add\n        /* \"#utility.yul\":8470:8517   */\n      mstore\n        /* \"#utility.yul\":8534:8612   */\n      tag_350\n        /* \"#utility.yul\":8607:8611   */\n      dup2\n        /* \"#utility.yul\":8598:8604   */\n      dup5\n        /* \"#utility.yul\":8534:8612   */\n      tag_273\n      jump\t// in\n    tag_350:\n        /* \"#utility.yul\":8526:8612   */\n      swap1\n      pop\n        /* \"#utility.yul\":8306:8619   */\n      swap3\n      swap2\n      pop\n      pop\n      jump\t// out\n        /* \"#utility.yul\":8625:9044   */\n    tag_105:\n        /* \"#utility.yul\":8791:8795   */\n      0x00\n        /* \"#utility.yul\":8829:8831   */\n      0x20\n        /* \"#utility.yul\":8818:8827   */\n      dup3\n        /* \"#utility.yul\":8814:8832   */\n      add\n        /* \"#utility.yul\":8806:8832   */\n      swap1\n      pop\n        /* \"#utility.yul\":8878:8887   */\n      dup2\n        /* \"#utility.yul\":8872:8876   */\n      dup2\n        /* \"#utility.yul\":8868:8888   */\n      sub\n        /* \"#utility.yul\":8864:8865   */\n      0x00\n        /* \"#utility.yul\":8853:8862   */\n      dup4\n        /* \"#utility.yul\":8849:8866   */\n      add\n        /* \"#utility.yul\":8842:8889   */\n      mstore\n        /* \"#utility.yul\":8906:9037   */\n      tag_352\n        /* \"#utility.yul\":9032:9036   */\n      dup2\n        /* \"#utility.yul\":8906:9037   */\n      tag_282\n      jump\t// in\n    tag_352:\n        /* \"#utility.yul\":8898:9037   */\n      swap1\n      pop\n        /* \"#utility.yul\":8625:9044   */\n      swap2\n      swap1\n      pop\n      jump\t// out\n        /* \"#utility.yul\":9050:9469   */\n    tag_177:\n        /* \"#utility.yul\":9216:9220   */\n      0x00\n        /* \"#utility.yul\":9254:9256   */\n      0x20\n        /* \"#utility.yul\":9243:9252   */\n      dup3\n        /* \"#utility.yul\":9239:9257   */\n      add\n        /* \"#utility.yul\":9231:9257   */\n      swap1\n      pop\n        /* \"#utility.yul\":9303:9312   */\n      dup2\n        /* \"#utility.yul\":9297:9301   */\n      dup2\n        /* \"#utility.yul\":9293:9313   */\n      sub\n        /* \"#utility.yul\":9289:9290   */\n      0x00\n        /* \"#utility.yul\":9278:9287   */\n      dup4\n        /* \"#utility.yul\":9274:9291   */\n      add\n        /* \"#utility.yul\":9267:9314   */\n      mstore\n        /* \"#utility.yul\":9331:9462   */\n      tag_354\n        /* \"#utility.yul\":9457:9461   */\n      dup2\n        /* \"#utility.yul\":9331:9462   */\n      tag_287\n      jump\t// in\n    tag_354:\n        /* \"#utility.yul\":9323:9462   */\n      swap1\n      pop\n        /* \"#utility.yul\":9050:9469   */\n      swap2\n      swap1\n      pop\n      jump\t// out\n        /* \"#utility.yul\":9475:9894   */\n    tag_163:\n        /* \"#utility.yul\":9641:9645   */\n      0x00\n        /* \"#utility.yul\":9679:9681   */\n      0x20\n        /* \"#utility.yul\":9668:9677   */\n      dup3\n        /* \"#utility.yul\":9664:9682   */\n      add\n        /* \"#utility.yul\":9656:9682   */\n      swap1\n      pop\n        /* \"#utility.yul\":9728:9737   */\n      dup2\n        /* \"#utility.yul\":9722:9726   */\n      dup2\n        /* \"#utility.yul\":9718:9738   */\n      sub\n        /* \"#utility.yul\":9714:9715   */\n      0x00\n        /* \"#utility.yul\":9703:9712   */\n      dup4\n        /* \"#utility.yul\":9699:9716   */\n      add\n        /* \"#utility.yul\":9692:9739   */\n      mstore\n        /* \"#utility.yul\":9756:9887   */\n      tag_356\n        /* \"#utility.yul\":9882:9886   */\n      dup2\n        /* \"#utility.yul\":9756:9887   */\n      tag_292\n      jump\t// in\n    tag_356:\n        /* \"#utility.yul\":9748:9887   */\n      swap1\n      pop\n        /* \"#utility.yul\":9475:9894   */\n      swap2\n      swap1\n      pop\n      jump\t// out\n        /* \"#utility.yul\":9900:10319   */\n    tag_203:\n        /* \"#utility.yul\":10066:10070   */\n      0x00\n        /* \"#utility.yul\":10104:10106   */\n      0x20\n        /* \"#utility.yul\":10093:10102   */\n      dup3\n        /* \"#utility.yul\":10089:10107   */\n      add\n        /* \"#utility.yul\":10081:10107   */\n      swap1\n      pop\n        /* \"#utility.yul\":10153:10162   */\n      dup2\n        /* \"#utility.yul\":10147:10151   */\n      dup2\n        /* \"#utility.yul\":10143:10163   */\n      sub\n        /* \"#utility.yul\":10139:10140   */\n      0x00\n        /* \"#utility.yul\":10128:10137   */\n      dup4\n        /* \"#utility.yul\":10124:10141   */\n      add\n        /* \"#utility.yul\":10117:10164   */\n      mstore\n        /* \"#utility.yul\":10181:10312   */\n      tag_358\n        /* \"#utility.yul\":10307:10311   */\n      dup2\n        /* \"#utility.yul\":10181:10312   */\n      tag_297\n      jump\t// in\n    tag_358:\n        /* \"#utility.yul\":10173:10312   */\n      swap1\n      pop\n        /* \"#utility.yul\":9900:10319   */\n      swap2\n      swap1\n      pop\n      jump\t// out\n        /* \"#utility.yul\":10325:10744   */\n    tag_89:\n        /* \"#utility.yul\":10491:10495   */\n      0x00\n        /* \"#utility.yul\":10529:10531   */\n      0x20\n        /* \"#utility.yul\":10518:10527   */\n      dup3\n        /* \"#utility.yul\":10514:10532   */\n      add\n        /* \"#utility.yul\":10506:10532   */\n      swap1\n      pop\n        /* \"#utility.yul\":10578:10587   */\n      dup2\n        /* \"#utility.yul\":10572:10576   */\n      dup2\n        /* \"#utility.yul\":10568:10588   */\n      sub\n        /* \"#utility.yul\":10564:10565   */\n      0x00\n        /* \"#utility.yul\":10553:10562   */\n      dup4\n        /* \"#utility.yul\":10549:10566   */\n      add\n        /* \"#utility.yul\":10542:10589   */\n      mstore\n        /* \"#utility.yul\":10606:10737   */\n      tag_360\n        /* \"#utility.yul\":10732:10736   */\n      dup2\n        /* \"#utility.yul\":10606:10737   */\n      tag_302\n      jump\t// in\n    tag_360:\n        /* \"#utility.yul\":10598:10737   */\n      swap1\n      pop\n        /* \"#utility.yul\":10325:10744   */\n      swap2\n      swap1\n      pop\n      jump\t// out\n        /* \"#utility.yul\":10750:11169   */\n    tag_160:\n        /* \"#utility.yul\":10916:10920   */\n      0x00\n        /* \"#utility.yul\":10954:10956   */\n      0x20\n        /* \"#utility.yul\":10943:10952   */\n      dup3\n        /* \"#utility.yul\":10939:10957   */\n      add\n        /* \"#utility.yul\":10931:10957   */\n      swap1\n      pop\n        /* \"#utility.yul\":11003:11012   */\n      dup2\n        /* \"#utility.yul\":10997:11001   */\n      dup2\n        /* \"#utility.yul\":10993:11013   */\n      sub\n        /* \"#utility.yul\":10989:10990   */\n      0x00\n        /* \"#utility.yul\":10978:10987   */\n      dup4\n        /* \"#utility.yul\":10974:10991   */\n      add\n        /* \"#utility.yul\":10967:11014   */\n      mstore\n        /* \"#utility.yul\":11031:11162   */\n      tag_362\n        /* \"#utility.yul\":11157:11161   */\n      dup2\n        /* \"#utility.yul\":11031:11162   */\n      tag_307\n      jump\t// in\n    tag_362:\n        /* \"#utility.yul\":11023:11162   */\n      swap1\n      pop\n        /* \"#utility.yul\":10750:11169   */\n      swap2\n      swap1\n      pop\n      jump\t// out\n        /* \"#utility.yul\":11175:11594   */\n    tag_114:\n        /* \"#utility.yul\":11341:11345   */\n      0x00\n        /* \"#utility.yul\":11379:11381   */\n      0x20\n        /* \"#utility.yul\":11368:11377   */\n      dup3\n        /* \"#utility.yul\":11364:11382   */\n      add\n        /* \"#utility.yul\":11356:11382   */\n      swap1\n      pop\n        /* \"#utility.yul\":11428:11437   */\n      dup2\n        /* \"#utility.yul\":11422:11426   */\n      dup2\n        /* \"#utility.yul\":11418:11438   */\n      sub\n        /* \"#utility.yul\":11414:11415   */\n      0x00\n        /* \"#utility.yul\":11403:11412   */\n      dup4\n        /* \"#utility.yul\":11399:11416   */\n      add\n        /* \"#utility.yul\":11392:11439   */\n      mstore\n        /* \"#utility.yul\":11456:11587   */\n      tag_364\n        /* \"#utility.yul\":11582:11586   */\n      dup2\n        /* \"#utility.yul\":11456:11587   */\n      tag_312\n      jump\t// in\n    tag_364:\n        /* \"#utility.yul\":11448:11587   */\n      swap1\n      pop\n        /* \"#utility.yul\":11175:11594   */\n      swap2\n      swap1\n      pop\n      jump\t// out\n        /* \"#utility.yul\":11600:12019   */\n    tag_208:\n        /* \"#utility.yul\":11766:11770   */\n      0x00\n        /* \"#utility.yul\":11804:11806   */\n      0x20\n        /* \"#utility.yul\":11793:11802   */\n      dup3\n        /* \"#utility.yul\":11789:11807   */\n      add\n        /* \"#utility.yul\":11781:11807   */\n      swap1\n      pop\n        /* \"#utility.yul\":11853:11862   */\n      dup2\n        /* \"#utility.yul\":11847:11851   */\n      dup2\n        /* \"#utility.yul\":11843:11863   */\n      sub\n        /* \"#utility.yul\":11839:11840   */\n      0x00\n        /* \"#utility.yul\":11828:11837   */\n      dup4\n        /* \"#utility.yul\":11824:11841   */\n      add\n        /* \"#utility.yul\":11817:11864   */\n      mstore\n        /* \"#utility.yul\":11881:12012   */\n      tag_366\n        /* \"#utility.yul\":12007:12011   */\n      dup2\n        /* \"#utility.yul\":11881:12012   */\n      tag_317\n      jump\t// in\n    tag_366:\n        /* \"#utility.yul\":11873:12012   */\n      swap1\n      pop\n        /* \"#utility.yul\":11600:12019   */\n      swap2\n      swap1\n      pop\n      jump\t// out\n        /* \"#utility.yul\":12025:12444   */\n    tag_101:\n        /* \"#utility.yul\":12191:12195   */\n      0x00\n        /* \"#utility.yul\":12229:12231   */\n      0x20\n        /* \"#utility.yul\":12218:12227   */\n      dup3\n        /* \"#utility.yul\":12214:12232   */\n      add\n        /* \"#utility.yul\":12206:12232   */\n      swap1\n      pop\n        /* \"#utility.yul\":12278:12287   */\n      dup2\n        /* \"#utility.yul\":12272:12276   */\n      dup2\n        /* \"#utility.yul\":12268:12288   */\n      sub\n        /* \"#utility.yul\":12264:12265   */\n      0x00\n        /* \"#utility.yul\":12253:12262   */\n      dup4\n        /* \"#utility.yul\":12249:12266   */\n      add\n        /* \"#utility.yul\":12242:12289   */\n      mstore\n        /* \"#utility.yul\":12306:12437   */\n      tag_368\n        /* \"#utility.yul\":12432:12436   */\n      dup2\n        /* \"#utility.yul\":12306:12437   */\n      tag_322\n      jump\t// in\n    tag_368:\n        /* \"#utility.yul\":12298:12437   */\n      swap1\n      pop\n        /* \"#utility.yul\":12025:12444   */\n      swap2\n      swap1\n      pop\n      jump\t// out\n        /* \"#utility.yul\":12450:12869   */\n    tag_196:\n        /* \"#utility.yul\":12616:12620   */\n      0x00\n        /* \"#utility.yul\":12654:12656   */\n      0x20\n        /* \"#utility.yul\":12643:12652   */\n      dup3\n        /* \"#utility.yul\":12639:12657   */\n      add\n        /* \"#utility.yul\":12631:12657   */\n      swap1\n      pop\n        /* \"#utility.yul\":12703:12712   */\n      dup2\n        /* \"#utility.yul\":12697:12701   */\n      dup2\n        /* \"#utility.yul\":12693:12713   */\n      sub\n        /* \"#utility.yul\":12689:12690   */\n      0x00\n        /* \"#utility.yul\":12678:12687   */\n      dup4\n        /* \"#utility.yul\":12674:12691   */\n      add\n        /* \"#utility.yul\":12667:12714   */\n      mstore\n        /* \"#utility.yul\":12731:12862   */\n      tag_370\n        /* \"#utility.yul\":12857:12861   */\n      dup2\n        /* \"#utility.yul\":12731:12862   */\n      tag_327\n      jump\t// in\n    tag_370:\n        /* \"#utility.yul\":12723:12862   */\n      swap1\n      pop\n        /* \"#utility.yul\":12450:12869   */\n      swap2\n      swap1\n      pop\n      jump\t// out\n        /* \"#utility.yul\":12875:13097   */\n    tag_27:\n        /* \"#utility.yul\":12968:12972   */\n      0x00\n        /* \"#utility.yul\":13006:13008   */\n      0x20\n        /* \"#utility.yul\":12995:13004   */\n      dup3\n        /* \"#utility.yul\":12991:13009   */\n      add\n        /* \"#utility.yul\":12983:13009   */\n      swap1\n      pop\n        /* \"#utility.yul\":13019:13090   */\n      tag_372\n        /* \"#utility.yul\":13087:13088   */\n      0x00\n        /* \"#utility.yul\":13076:13085   */\n      dup4\n        /* \"#utility.yul\":13072:13089   */\n      add\n        /* \"#utility.yul\":13063:13069   */\n      dup5\n        /* \"#utility.yul\":13019:13090   */\n      tag_332\n      jump\t// in\n    tag_372:\n        /* \"#utility.yul\":12875:13097   */\n      swap3\n      swap2\n      pop\n      pop\n      jump\t// out\n        /* \"#utility.yul\":13184:13282   */\n    tag_268:\n        /* \"#utility.yul\":13235:13241   */\n      0x00\n        /* \"#utility.yul\":13269:13274   */\n      dup2\n        /* \"#utility.yul\":13263:13275   */\n      mload\n        /* \"#utility.yul\":13253:13275   */\n      swap1\n      pop\n        /* \"#utility.yul\":13184:13282   */\n      swap2\n      swap1\n      pop\n      jump\t// out\n        /* \"#utility.yul\":13288:13387   */\n    tag_276:\n        /* \"#utility.yul\":13340:13346   */\n      0x00\n        /* \"#utility.yul\":13374:13379   */\n      dup2\n        /* \"#utility.yul\":13368:13380   */\n      mload\n        /* \"#utility.yul\":13358:13380   */\n      swap1\n      pop\n        /* \"#utility.yul\":13288:13387   */\n      swap2\n      swap1\n      pop\n      jump\t// out\n        /* \"#utility.yul\":13393:13540   */\n    tag_270:\n        /* \"#utility.yul\":13494:13505   */\n      0x00\n        /* \"#utility.yul\":13531:13534   */\n      dup2\n        /* \"#utility.yul\":13516:13534   */\n      swap1\n      pop\n        /* \"#utility.yul\":13393:13540   */\n      swap3\n      swap2\n      pop\n      pop\n      jump\t// out\n        /* \"#utility.yul\":13546:13715   */\n    tag_278:\n        /* \"#utility.yul\":13630:13641   */\n      0x00\n        /* \"#utility.yul\":13664:13670   */\n      dup3\n        /* \"#utility.yul\":13659:13662   */\n      dup3\n        /* \"#utility.yul\":13652:13671   */\n      mstore\n        /* \"#utility.yul\":13704:13708   */\n      0x20\n        /* \"#utility.yul\":13699:13702   */\n      dup3\n        /* \"#utility.yul\":13695:13709   */\n      add\n        /* \"#utility.yul\":13680:13709   */\n      swap1\n      pop\n        /* \"#utility.yul\":13546:13715   */\n      swap3\n      swap2\n      pop\n      pop\n      jump\t// out\n        /* \"#utility.yul\":13721:14026   */\n    tag_168:\n        /* \"#utility.yul\":13761:13764   */\n      0x00\n        /* \"#utility.yul\":13780:13800   */\n      tag_380\n        /* \"#utility.yul\":13798:13799   */\n      dup3\n        /* \"#utility.yul\":13780:13800   */\n      tag_335\n      jump\t// in\n    tag_380:\n        /* \"#utility.yul\":13775:13800   */\n      swap2\n      pop\n        /* \"#utility.yul\":13814:13834   */\n      tag_381\n        /* \"#utility.yul\":13832:13833   */\n      dup4\n        /* \"#utility.yul\":13814:13834   */\n      tag_335\n      jump\t// in\n    tag_381:\n        /* \"#utility.yul\":13809:13834   */\n      swap3\n      pop\n        /* \"#utility.yul\":13968:13969   */\n      dup3\n        /* \"#utility.yul\":13900:13966   */\n      0xffffffffffffffffffffffffffffffffffffffffffffffffffffffffffffffff\n        /* \"#utility.yul\":13896:13970   */\n      sub\n        /* \"#utility.yul\":13893:13894   */\n      dup3\n        /* \"#utility.yul\":13890:13971   */\n      gt\n        /* \"#utility.yul\":13887:13994   */\n      iszero\n      tag_382\n      jumpi\n        /* \"#utility.yul\":13974:13992   */\n      tag_383\n      tag_384\n      jump\t// in\n    tag_383:\n        /* \"#utility.yul\":13887:13994   */\n    tag_382:\n        /* \"#utility.yul\":14018:14019   */\n      dup3\n        /* \"#utility.yul\":14015:14016   */\n      dup3\n        /* \"#utility.yul\":14011:14020   */\n      add\n        /* \"#utility.yul\":14004:14020   */\n      swap1\n      pop\n        /* \"#utility.yul\":13721:14026   */\n      swap3\n      swap2\n      pop\n      pop\n      jump\t// out\n        /* \"#utility.yul\":14032:14380   */\n    tag_93:\n        /* \"#utility.yul\":14072:14079   */\n      0x00\n        /* \"#utility.yul\":14095:14115   */\n      tag_386\n        /* \"#utility.yul\":14113:14114   */\n      dup3\n        /* \"#utility.yul\":14095:14115   */\n      tag_335\n      jump\t// in\n    tag_386:\n        /* \"#utility.yul\":14090:14115   */\n      swap2\n      pop\n        /* \"#utility.yul\":14129:14149   */\n      tag_387\n        /* \"#utility.yul\":14147:14148   */\n      dup4\n        /* \"#utility.yul\":14129:14149   */\n      tag_335\n      jump\t// in\n    tag_387:\n        /* \"#utility.yul\":14124:14149   */\n      swap3\n      pop\n        /* \"#utility.yul\":14317:14318   */\n      dup2\n        /* \"#utility.yul\":14249:14315   */\n      0xffffffffffffffffffffffffffffffffffffffffffffffffffffffffffffffff\n        /* \"#utility.yul\":14245:14319   */\n      div\n        /* \"#utility.yul\":14242:14243   */\n      dup4\n        /* \"#utility.yul\":14239:14320   */\n      gt\n        /* \"#utility.yul\":14234:14235   */\n      dup3\n        /* \"#utility.yul\":14227:14236   */\n      iszero\n        /* \"#utility.yul\":14220:14237   */\n      iszero\n        /* \"#utility.yul\":14216:14321   */\n      and\n        /* \"#utility.yul\":14213:14344   */\n      iszero\n      tag_388\n      jumpi\n        /* \"#utility.yul\":14324:14342   */\n      tag_389\n      tag_384\n      jump\t// in\n    tag_389:\n        /* \"#utility.yul\":14213:14344   */\n    tag_388:\n        /* \"#utility.yul\":14372:14373   */\n      dup3\n        /* \"#utility.yul\":14369:14370   */\n      dup3\n        /* \"#utility.yul\":14365:14374   */\n      mul\n        /* \"#utility.yul\":14354:14374   */\n      swap1\n      pop\n        /* \"#utility.yul\":14032:14380   */\n      swap3\n      swap2\n      pop\n      pop\n      jump\t// out\n        /* \"#utility.yul\":14386:14577   */\n    tag_110:\n        /* \"#utility.yul\":14426:14430   */\n      0x00\n        /* \"#utility.yul\":14446:14466   */\n      tag_391\n        /* \"#utility.yul\":14464:14465   */\n      dup3\n        /* \"#utility.yul\":14446:14466   */\n      tag_335\n      jump\t// in\n    tag_391:\n        /* \"#utility.yul\":14441:14466   */\n      swap2\n      pop\n        /* \"#utility.yul\":14480:14500   */\n      tag_392\n        /* \"#utility.yul\":14498:14499   */\n      dup4\n        /* \"#utility.yul\":14480:14500   */\n      tag_335\n      jump\t// in\n    tag_392:\n        /* \"#utility.yul\":14475:14500   */\n      swap3\n      pop\n        /* \"#utility.yul\":14519:14520   */\n      dup3\n        /* \"#utility.yul\":14516:14517   */\n      dup3\n        /* \"#utility.yul\":14513:14521   */\n      lt\n        /* \"#utility.yul\":14510:14544   */\n      iszero\n      tag_393\n      jumpi\n        /* \"#utility.yul\":14524:14542   */\n      tag_394\n      tag_384\n      jump\t// in\n    tag_394:\n        /* \"#utility.yul\":14510:14544   */\n    tag_393:\n        /* \"#utility.yul\":14569:14570   */\n      dup3\n        /* \"#utility.yul\":14566:14567   */\n      dup3\n        /* \"#utility.yul\":14562:14571   */\n      sub\n        /* \"#utility.yul\":14554:14571   */\n      swap1\n      pop\n        /* \"#utility.yul\":14386:14577   */\n      swap3\n      swap2\n      pop\n      pop\n      jump\t// out\n        /* \"#utility.yul\":14583:14679   */\n    tag_260:\n        /* \"#utility.yul\":14620:14627   */\n      0x00\n        /* \"#utility.yul\":14649:14673   */\n      tag_396\n        /* \"#utility.yul\":14667:14672   */\n      dup3\n        /* \"#utility.yul\":14649:14673   */\n      tag_397\n      jump\t// in\n    tag_396:\n        /* \"#utility.yul\":14638:14673   */\n      swap1\n      pop\n        /* \"#utility.yul\":14583:14679   */\n      swap2\n      swap1\n      pop\n      jump\t// out\n        /* \"#utility.yul\":14685:14775   */\n    tag_264:\n        /* \"#utility.yul\":14719:14726   */\n      0x00\n        /* \"#utility.yul\":14762:14767   */\n      dup2\n        /* \"#utility.yul\":14755:14768   */\n      iszero\n        /* \"#utility.yul\":14748:14769   */\n      iszero\n        /* \"#utility.yul\":14737:14769   */\n      swap1\n      pop\n        /* \"#utility.yul\":14685:14775   */\n      swap2\n      swap1\n      pop\n      jump\t// out\n        /* \"#utility.yul\":14781:14907   */\n    tag_397:\n        /* \"#utility.yul\":14818:14825   */\n      0x00\n        /* \"#utility.yul\":14858:14900   */\n      0xffffffffffffffffffffffffffffffffffffffff\n        /* \"#utility.yul\":14851:14856   */\n      dup3\n        /* \"#utility.yul\":14847:14901   */\n      and\n        /* \"#utility.yul\":14836:14901   */\n      swap1\n      pop\n        /* \"#utility.yul\":14781:14907   */\n      swap2\n      swap1\n      pop\n      jump\t// out\n        /* \"#utility.yul\":14913:14990   */\n    tag_335:\n        /* \"#utility.yul\":14950:14957   */\n      0x00\n        /* \"#utility.yul\":14979:14984   */\n      dup2\n        /* \"#utility.yul\":14968:14984   */\n      swap1\n      pop\n        /* \"#utility.yul\":14913:14990   */\n      swap2\n      swap1\n      pop\n      jump\t// out\n        /* \"#utility.yul\":14996:15303   */\n    tag_272:\n        /* \"#utility.yul\":15064:15065   */\n      0x00\n        /* \"#utility.yul\":15074:15187   */\n    tag_402:\n        /* \"#utility.yul\":15088:15094   */\n      dup4\n        /* \"#utility.yul\":15085:15086   */\n      dup2\n        /* \"#utility.yul\":15082:15095   */\n      lt\n        /* \"#utility.yul\":15074:15187   */\n      iszero\n      tag_404\n      jumpi\n        /* \"#utility.yul\":15173:15174   */\n      dup1\n        /* \"#utility.yul\":15168:15171   */\n      dup3\n        /* \"#utility.yul\":15164:15175   */\n      add\n        /* \"#utility.yul\":15158:15176   */\n      mload\n        /* \"#utility.yul\":15154:15155   */\n      dup2\n        /* \"#utility.yul\":15149:15152   */\n      dup5\n        /* \"#utility.yul\":15145:15156   */\n      add\n        /* \"#utility.yul\":15138:15177   */\n      mstore\n        /* \"#utility.yul\":15110:15112   */\n      0x20\n        /* \"#utility.yul\":15107:15108   */\n      dup2\n        /* \"#utility.yul\":15103:15113   */\n      add\n        /* \"#utility.yul\":15098:15113   */\n      swap1\n      pop\n        /* \"#utility.yul\":15074:15187   */\n      jump(tag_402)\n    tag_404:\n        /* \"#utility.yul\":15205:15211   */\n      dup4\n        /* \"#utility.yul\":15202:15203   */\n      dup2\n        /* \"#utility.yul\":15199:15212   */\n      gt\n        /* \"#utility.yul\":15196:15297   */\n      iszero\n      tag_405\n      jumpi\n        /* \"#utility.yul\":15285:15286   */\n      0x00\n        /* \"#utility.yul\":15276:15282   */\n      dup5\n        /* \"#utility.yul\":15271:15274   */\n      dup5\n        /* \"#utility.yul\":15267:15283   */\n      add\n        /* \"#utility.yul\":15260:15287   */\n      mstore\n        /* \"#utility.yul\":15196:15297   */\n    tag_405:\n        /* \"#utility.yul\":15045:15303   */\n      pop\n        /* \"#utility.yul\":14996:15303   */\n      pop\n      pop\n      pop\n      jump\t// out\n        /* \"#utility.yul\":15309:15489   */\n    tag_384:\n        /* \"#utility.yul\":15357:15434   */\n      0x4e487b7100000000000000000000000000000000000000000000000000000000\n        /* \"#utility.yul\":15354:15355   */\n      0x00\n        /* \"#utility.yul\":15347:15435   */\n      mstore\n        /* \"#utility.yul\":15454:15458   */\n      0x11\n        /* \"#utility.yul\":15451:15452   */\n      0x04\n        /* \"#utility.yul\":15444:15459   */\n      mstore\n        /* \"#utility.yul\":15478:15482   */\n      0x24\n        /* \"#utility.yul\":15475:15476   */\n      0x00\n        /* \"#utility.yul\":15468:15483   */\n      revert\n        /* \"#utility.yul\":15618:15735   */\n    tag_243:\n        /* \"#utility.yul\":15727:15728   */\n      0x00\n        /* \"#utility.yul\":15724:15725   */\n      dup1\n        /* \"#utility.yul\":15717:15729   */\n      revert\n        /* \"#utility.yul\":15741:15843   */\n    tag_281:\n        /* \"#utility.yul\":15782:15788   */\n      0x00\n        /* \"#utility.yul\":15833:15835   */\n      0x1f\n        /* \"#utility.yul\":15829:15836   */\n      not\n        /* \"#utility.yul\":15824:15826   */\n      0x1f\n        /* \"#utility.yul\":15817:15822   */\n      dup4\n        /* \"#utility.yul\":15813:15827   */\n      add\n        /* \"#utility.yul\":15809:15837   */\n      and\n        /* \"#utility.yul\":15799:15837   */\n      swap1\n      pop\n        /* \"#utility.yul\":15741:15843   */\n      swap2\n      swap1\n      pop\n      jump\t// out\n        /* \"#utility.yul\":15849:16073   */\n    tag_286:\n        /* \"#utility.yul\":15989:16023   */\n      0x596f7520646f6e74206861766520656e6f7567687420746f6b656e20746f2072\n        /* \"#utility.yul\":15985:15986   */\n      0x00\n        /* \"#utility.yul\":15977:15983   */\n      dup3\n        /* \"#utility.yul\":15973:15987   */\n      add\n        /* \"#utility.yul\":15966:16024   */\n      mstore\n        /* \"#utility.yul\":16058:16065   */\n      0x657475726e000000000000000000000000000000000000000000000000000000\n        /* \"#utility.yul\":16053:16055   */\n      0x20\n        /* \"#utility.yul\":16045:16051   */\n      dup3\n        /* \"#utility.yul\":16041:16056   */\n      add\n        /* \"#utility.yul\":16034:16066   */\n      mstore\n        /* \"#utility.yul\":15849:16073   */\n      pop\n      jump\t// out\n        /* \"#utility.yul\":16079:16304   */\n    tag_291:\n        /* \"#utility.yul\":16219:16253   */\n      0x4f776e61626c653a206e6577206f776e657220697320746865207a65726f2061\n        /* \"#utility.yul\":16215:16216   */\n      0x00\n        /* \"#utility.yul\":16207:16213   */\n      dup3\n        /* \"#utility.yul\":16203:16217   */\n      add\n        /* \"#utility.yul\":16196:16254   */\n      mstore\n        /* \"#utility.yul\":16288:16296   */\n      0x6464726573730000000000000000000000000000000000000000000000000000\n        /* \"#utility.yul\":16283:16285   */\n      0x20\n        /* \"#utility.yul\":16275:16281   */\n      dup3\n        /* \"#utility.yul\":16271:16286   */\n      add\n        /* \"#utility.yul\":16264:16297   */\n      mstore\n        /* \"#utility.yul\":16079:16304   */\n      pop\n      jump\t// out\n        /* \"#utility.yul\":16310:16474   */\n    tag_296:\n        /* \"#utility.yul\":16450:16466   */\n      0x53616c652068617320656e646564000000000000000000000000000000000000\n        /* \"#utility.yul\":16446:16447   */\n      0x00\n        /* \"#utility.yul\":16438:16444   */\n      dup3\n        /* \"#utility.yul\":16434:16448   */\n      add\n        /* \"#utility.yul\":16427:16467   */\n      mstore\n        /* \"#utility.yul\":16310:16474   */\n      pop\n      jump\t// out\n        /* \"#utility.yul\":16480:16705   */\n    tag_301:\n        /* \"#utility.yul\":16620:16654   */\n      0x416464726573733a20696e73756666696369656e742062616c616e636520666f\n        /* \"#utility.yul\":16616:16617   */\n      0x00\n        /* \"#utility.yul\":16608:16614   */\n      dup3\n        /* \"#utility.yul\":16604:16618   */\n      add\n        /* \"#utility.yul\":16597:16655   */\n      mstore\n        /* \"#utility.yul\":16689:16697   */\n      0x722063616c6c0000000000000000000000000000000000000000000000000000\n        /* \"#utility.yul\":16684:16686   */\n      0x20\n        /* \"#utility.yul\":16676:16682   */\n      dup3\n        /* \"#utility.yul\":16672:16687   */\n      add\n        /* \"#utility.yul\":16665:16698   */\n      mstore\n        /* \"#utility.yul\":16480:16705   */\n      pop\n      jump\t// out\n        /* \"#utility.yul\":16711:16893   */\n    tag_306:\n        /* \"#utility.yul\":16851:16885   */\n      0x4f776e61626c653a2063616c6c6572206973206e6f7420746865206f776e6572\n        /* \"#utility.yul\":16847:16848   */\n      0x00\n        /* \"#utility.yul\":16839:16845   */\n      dup3\n        /* \"#utility.yul\":16835:16849   */\n      add\n        /* \"#utility.yul\":16828:16886   */\n      mstore\n        /* \"#utility.yul\":16711:16893   */\n      pop\n      jump\t// out\n        /* \"#utility.yul\":16899:17072   */\n    tag_311:\n        /* \"#utility.yul\":17039:17064   */\n      0x53616c65206861736e2774207374617274656420796574000000000000000000\n        /* \"#utility.yul\":17035:17036   */\n      0x00\n        /* \"#utility.yul\":17027:17033   */\n      dup3\n        /* \"#utility.yul\":17023:17037   */\n      add\n        /* \"#utility.yul\":17016:17065   */\n      mstore\n        /* \"#utility.yul\":16899:17072   */\n      pop\n      jump\t// out\n        /* \"#utility.yul\":17078:17245   */\n    tag_316:\n        /* \"#utility.yul\":17218:17237   */\n      0x53616c65206861736e277420656e646564000000000000000000000000000000\n        /* \"#utility.yul\":17214:17215   */\n      0x00\n        /* \"#utility.yul\":17206:17212   */\n      dup3\n        /* \"#utility.yul\":17202:17216   */\n      add\n        /* \"#utility.yul\":17195:17238   */\n      mstore\n        /* \"#utility.yul\":17078:17245   */\n      pop\n      jump\t// out\n        /* \"#utility.yul\":17251:17430   */\n    tag_321:\n        /* \"#utility.yul\":17391:17422   */\n      0x416464726573733a2063616c6c20746f206e6f6e2d636f6e7472616374000000\n        /* \"#utility.yul\":17387:17388   */\n      0x00\n        /* \"#utility.yul\":17379:17385   */\n      dup3\n        /* \"#utility.yul\":17375:17389   */\n      add\n        /* \"#utility.yul\":17368:17423   */\n      mstore\n        /* \"#utility.yul\":17251:17430   */\n      pop\n      jump\t// out\n        /* \"#utility.yul\":17436:17612   */\n    tag_326:\n        /* \"#utility.yul\":17576:17604   */\n      0x4e6f7420656e6f75676820746f6b656e20746f2072657475726e000000000000\n        /* \"#utility.yul\":17572:17573   */\n      0x00\n        /* \"#utility.yul\":17564:17570   */\n      dup3\n        /* \"#utility.yul\":17560:17574   */\n      add\n        /* \"#utility.yul\":17553:17605   */\n      mstore\n        /* \"#utility.yul\":17436:17612   */\n      pop\n      jump\t// out\n        /* \"#utility.yul\":17618:17847   */\n    tag_331:\n        /* \"#utility.yul\":17758:17792   */\n      0x5361666545524332303a204552433230206f7065726174696f6e20646964206e\n        /* \"#utility.yul\":17754:17755   */\n      0x00\n        /* \"#utility.yul\":17746:17752   */\n      dup3\n        /* \"#utility.yul\":17742:17756   */\n      add\n        /* \"#utility.yul\":17735:17793   */\n      mstore\n        /* \"#utility.yul\":17827:17839   */\n      0x6f74207375636365656400000000000000000000000000000000000000000000\n        /* \"#utility.yul\":17822:17824   */\n      0x20\n        /* \"#utility.yul\":17814:17820   */\n      dup3\n        /* \"#utility.yul\":17810:17825   */\n      add\n        /* \"#utility.yul\":17803:17840   */\n      mstore\n        /* \"#utility.yul\":17618:17847   */\n      pop\n      jump\t// out\n        /* \"#utility.yul\":17853:17975   */\n    tag_228:\n        /* \"#utility.yul\":17926:17950   */\n      tag_422\n        /* \"#utility.yul\":17944:17949   */\n      dup2\n        /* \"#utility.yul\":17926:17950   */\n      tag_260\n      jump\t// in\n    tag_422:\n        /* \"#utility.yul\":17919:17924   */\n      dup2\n        /* \"#utility.yul\":17916:17951   */\n      eq\n        /* \"#utility.yul\":17906:17969   */\n      tag_423\n      jumpi\n        /* \"#utility.yul\":17965:17966   */\n      0x00\n        /* \"#utility.yul\":17962:17963   */\n      dup1\n        /* \"#utility.yul\":17955:17967   */\n      revert\n        /* \"#utility.yul\":17906:17969   */\n    tag_423:\n        /* \"#utility.yul\":17853:17975   */\n      pop\n      jump\t// out\n        /* \"#utility.yul\":17981:18097   */\n    tag_232:\n        /* \"#utility.yul\":18051:18072   */\n      tag_425\n        /* \"#utility.yul\":18066:18071   */\n      dup2\n        /* \"#utility.yul\":18051:18072   */\n      tag_264\n      jump\t// in\n    tag_425:\n        /* \"#utility.yul\":18044:18049   */\n      dup2\n        /* \"#utility.yul\":18041:18073   */\n      eq\n        /* \"#utility.yul\":18031:18091   */\n      tag_426\n      jumpi\n        /* \"#utility.yul\":18087:18088   */\n      0x00\n        /* \"#utility.yul\":18084:18085   */\n      dup1\n        /* \"#utility.yul\":18077:18089   */\n      revert\n        /* \"#utility.yul\":18031:18091   */\n    tag_426:\n        /* \"#utility.yul\":17981:18097   */\n      pop\n      jump\t// out\n        /* \"#utility.yul\":18103:18225   */\n    tag_236:\n        /* \"#utility.yul\":18176:18200   */\n      tag_428\n        /* \"#utility.yul\":18194:18199   */\n      dup2\n        /* \"#utility.yul\":18176:18200   */\n      tag_335\n      jump\t// in\n    tag_428:\n        /* \"#utility.yul\":18169:18174   */\n      dup2\n        /* \"#utility.yul\":18166:18201   */\n      eq\n        /* \"#utility.yul\":18156:18219   */\n      tag_429\n      jumpi\n        /* \"#utility.yul\":18215:18216   */\n      0x00\n        /* \"#utility.yul\":18212:18213   */\n      dup1\n        /* \"#utility.yul\":18205:18217   */\n      revert\n        /* \"#utility.yul\":18156:18219   */\n    tag_429:\n        /* \"#utility.yul\":18103:18225   */\n      pop\n      jump\t// out\n\n    auxdata: 0xa2646970667358221220636286ae46c302265ef27e45f83c388494ca0c62f0568780c989e1b23f8168cc64736f6c63430008070033\n}\n",
				"bytecode": {
					"linkReferences": {},
					"object": "60806040523480156200001157600080fd5b5060405162001ef038038062001ef08339818101604052810190620000379190620001fd565b620000576200004b6200010360201b60201c565b6200010b60201b60201c565b62000068856200010b60201b60201c565b80600460006101000a81548173ffffffffffffffffffffffffffffffffffffffff021916908373ffffffffffffffffffffffffffffffffffffffff16021790555083600160006101000a81548173ffffffffffffffffffffffffffffffffffffffff021916908373ffffffffffffffffffffffffffffffffffffffff16021790555082600281905550816003819055505050505050620002fc565b600033905090565b60008060009054906101000a900473ffffffffffffffffffffffffffffffffffffffff169050816000806101000a81548173ffffffffffffffffffffffffffffffffffffffff021916908373ffffffffffffffffffffffffffffffffffffffff1602179055508173ffffffffffffffffffffffffffffffffffffffff168173ffffffffffffffffffffffffffffffffffffffff167f8be0079c531659141344cd1fd0a4f28419497f9722a3daafe3b4186f6b6457e060405160405180910390a35050565b600081519050620001e081620002c8565b92915050565b600081519050620001f781620002e2565b92915050565b600080600080600060a086880312156200021c576200021b620002c3565b5b60006200022c88828901620001cf565b95505060206200023f88828901620001cf565b94505060406200025288828901620001e6565b93505060606200026588828901620001e6565b92505060806200027888828901620001cf565b9150509295509295909350565b6000620002928262000299565b9050919050565b600073ffffffffffffffffffffffffffffffffffffffff82169050919050565b6000819050919050565b600080fd5b620002d38162000285565b8114620002df57600080fd5b50565b620002ed81620002b9565b8114620002f957600080fd5b50565b611be4806200030c6000396000f3fe608060405234801561001057600080fd5b50600436106101005760003560e01c8063715018a611610097578063ab0bcc4111610066578063ab0bcc4114610275578063c10b935814610293578063efef39a1146102b1578063f2fde38b146102cd57610100565b8063715018a614610211578063893d20e81461021b5780638da5cb5b146102395780639d76ea581461025757610100565b806351cff8d9116100d357806351cff8d91461018b57806361778592146101a7578063617fba04146101c55780636f9c6149146101f557610100565b80632407645114610105578063295e4edf14610135578063336bea1c146101515780634e71d92d14610181575b600080fd5b61011f600480360381019061011a919061128e565b6102e9565b60405161012c9190611746565b60405180910390f35b61014f600480360381019061014a91906112e8565b61039d565b005b61016b600480360381019061016691906112e8565b610423565b60405161017891906115c9565b60405180910390f35b610189610679565b005b6101a560048036038101906101a0919061128e565b6107f2565b005b6101af6109b2565b6040516101bc919061154e565b60405180910390f35b6101df60048036038101906101da919061128e565b6109d8565b6040516101ec9190611746565b60405180910390f35b61020f600480360381019061020a91906112e8565b610a21565b005b610219610aa7565b005b610223610b2f565b604051610230919061154e565b60405180910390f35b610241610b3e565b60405161024e919061154e565b60405180910390f35b61025f610b67565b60405161026c919061154e565b60405180910390f35b61027d610b91565b60405161028a9190611746565b60405180910390f35b61029b610b9b565b6040516102a89190611746565b60405180910390f35b6102cb60048036038101906102c691906112e8565b610ba5565b005b6102e760048036038101906102e2919061128e565b610cea565b005b6000600460009054906101000a900473ffffffffffffffffffffffffffffffffffffffff1673ffffffffffffffffffffffffffffffffffffffff166370a08231836040518263ffffffff1660e01b8152600401610346919061154e565b60206040518083038186803b15801561035e57600080fd5b505afa158015610372573d6000803e3d6000fd5b505050506040513d601f19601f820116820180604052508101906103969190611315565b9050919050565b6103a5610de2565b73ffffffffffffffffffffffffffffffffffffffff166103c3610b3e565b73ffffffffffffffffffffffffffffffffffffffff1614610419576040517f08c379a000000000000000000000000000000000000000000000000000000000815260040161041090611686565b60405180910390fd5b8060028190555050565b6000670de0b6b3a76400008261043991906117e9565b600460009054906101000a900473ffffffffffffffffffffffffffffffffffffffff1673ffffffffffffffffffffffffffffffffffffffff166370a08231306040518263ffffffff1660e01b8152600401610494919061154e565b60206040518083038186803b1580156104ac57600080fd5b505afa1580156104c0573d6000803e3d6000fd5b505050506040513d601f19601f820116820180604052508101906104e49190611315565b1015610525576040517f08c379a000000000000000000000000000000000000000000000000000000000815260040161051c90611706565b60405180910390fd5b670de0b6b3a76400008261053991906117e9565b600560003373ffffffffffffffffffffffffffffffffffffffff1673ffffffffffffffffffffffffffffffffffffffff1681526020019081526020016000205410156105ba576040517f08c379a00000000000000000000000000000000000000000000000000000000081526004016105b190611606565b60405180910390fd5b6106073383600460009054906101000a900473ffffffffffffffffffffffffffffffffffffffff1673ffffffffffffffffffffffffffffffffffffffff16610dea9092919063ffffffff16565b670de0b6b3a76400008261061b91906117e9565b600560003373ffffffffffffffffffffffffffffffffffffffff1673ffffffffffffffffffffffffffffffffffffffff16815260200190815260200160002060008282546106699190611843565b9250508190555060019050919050565b6003544210156106be576040517f08c379a00000000000000000000000000000000000000000000000000000000081526004016106b5906116c6565b60405180910390fd5b600160009054906101000a900473ffffffffffffffffffffffffffffffffffffffff1673ffffffffffffffffffffffffffffffffffffffff166340c10f1933600560003373ffffffffffffffffffffffffffffffffffffffff1673ffffffffffffffffffffffffffffffffffffffff168152602001908152602001600020546040518363ffffffff1660e01b815260040161075a9291906115a0565b602060405180830381600087803b15801561077457600080fd5b505af1158015610788573d6000803e3d6000fd5b505050506040513d601f19601f820116820180604052508101906107ac91906112bb565b50600560003373ffffffffffffffffffffffffffffffffffffffff1673ffffffffffffffffffffffffffffffffffffffff16815260200190815260200160002060009055565b6107fa610de2565b73ffffffffffffffffffffffffffffffffffffffff16610818610b3e565b73ffffffffffffffffffffffffffffffffffffffff161461086e576040517f08c379a000000000000000000000000000000000000000000000000000000000815260040161086590611686565b60405180910390fd5b60035442116108b2576040517f08c379a00000000000000000000000000000000000000000000000000000000081526004016108a9906116c6565b60405180910390fd5b6000600460009054906101000a900473ffffffffffffffffffffffffffffffffffffffff1673ffffffffffffffffffffffffffffffffffffffff166370a08231306040518263ffffffff1660e01b815260040161090f919061154e565b60206040518083038186803b15801561092757600080fd5b505afa15801561093b573d6000803e3d6000fd5b505050506040513d601f19601f8201168201806040525081019061095f9190611315565b90506109ae8282600460009054906101000a900473ffffffffffffffffffffffffffffffffffffffff1673ffffffffffffffffffffffffffffffffffffffff16610dea9092919063ffffffff16565b5050565b600460009054906101000a900473ffffffffffffffffffffffffffffffffffffffff1681565b6000600560008373ffffffffffffffffffffffffffffffffffffffff1673ffffffffffffffffffffffffffffffffffffffff168152602001908152602001600020549050919050565b610a29610de2565b73ffffffffffffffffffffffffffffffffffffffff16610a47610b3e565b73ffffffffffffffffffffffffffffffffffffffff1614610a9d576040517f08c379a0000000000000000000000000000000000000000000000000000000008152600401610a9490611686565b60405180910390fd5b8060038190555050565b610aaf610de2565b73ffffffffffffffffffffffffffffffffffffffff16610acd610b3e565b73ffffffffffffffffffffffffffffffffffffffff1614610b23576040517f08c379a0000000000000000000000000000000000000000000000000000000008152600401610b1a90611686565b60405180910390fd5b610b2d6000610e70565b565b6000610b39610b3e565b905090565b60008060009054906101000a900473ffffffffffffffffffffffffffffffffffffffff16905090565b6000600160009054906101000a900473ffffffffffffffffffffffffffffffffffffffff16905090565b6000600254905090565b6000600354905090565b600254421015610bea576040517f08c379a0000000000000000000000000000000000000000000000000000000008152600401610be1906116a6565b60405180910390fd5b600354421115610c2f576040517f08c379a0000000000000000000000000000000000000000000000000000000008152600401610c2690611646565b60405180910390fd5b610c7e333083600460009054906101000a900473ffffffffffffffffffffffffffffffffffffffff1673ffffffffffffffffffffffffffffffffffffffff16610f34909392919063ffffffff16565b670de0b6b3a764000081610c9291906117e9565b600560003373ffffffffffffffffffffffffffffffffffffffff1673ffffffffffffffffffffffffffffffffffffffff1681526020019081526020016000206000828254610ce09190611793565b9250508190555050565b610cf2610de2565b73ffffffffffffffffffffffffffffffffffffffff16610d10610b3e565b73ffffffffffffffffffffffffffffffffffffffff1614610d66576040517f08c379a0000000000000000000000000000000000000000000000000000000008152600401610d5d90611686565b60405180910390fd5b600073ffffffffffffffffffffffffffffffffffffffff168173ffffffffffffffffffffffffffffffffffffffff161415610dd6576040517f08c379a0000000000000000000000000000000000000000000000000000000008152600401610dcd90611626565b60405180910390fd5b610ddf81610e70565b50565b600033905090565b610e6b8363a9059cbb60e01b8484604051602401610e099291906115a0565b604051602081830303815290604052907bffffffffffffffffffffffffffffffffffffffffffffffffffffffff19166020820180517bffffffffffffffffffffffffffffffffffffffffffffffffffffffff8381831617835250505050610fbd565b505050565b60008060009054906101000a900473ffffffffffffffffffffffffffffffffffffffff169050816000806101000a81548173ffffffffffffffffffffffffffffffffffffffff021916908373ffffffffffffffffffffffffffffffffffffffff1602179055508173ffffffffffffffffffffffffffffffffffffffff168173ffffffffffffffffffffffffffffffffffffffff167f8be0079c531659141344cd1fd0a4f28419497f9722a3daafe3b4186f6b6457e060405160405180910390a35050565b610fb7846323b872dd60e01b858585604051602401610f5593929190611569565b604051602081830303815290604052907bffffffffffffffffffffffffffffffffffffffffffffffffffffffff19166020820180517bffffffffffffffffffffffffffffffffffffffffffffffffffffffff8381831617835250505050610fbd565b50505050565b600061101f826040518060400160405280602081526020017f5361666545524332303a206c6f772d6c6576656c2063616c6c206661696c65648152508573ffffffffffffffffffffffffffffffffffffffff166110849092919063ffffffff16565b905060008151111561107f578080602001905181019061103f91906112bb565b61107e576040517f08c379a000000000000000000000000000000000000000000000000000000000815260040161107590611726565b60405180910390fd5b5b505050565b6060611093848460008561109c565b90509392505050565b6060824710156110e1576040517f08c379a00000000000000000000000000000000000000000000000000000000081526004016110d890611666565b60405180910390fd5b6110ea856111b0565b611129576040517f08c379a0000000000000000000000000000000000000000000000000000000008152600401611120906116e6565b60405180910390fd5b6000808673ffffffffffffffffffffffffffffffffffffffff1685876040516111529190611537565b60006040518083038185875af1925050503d806000811461118f576040519150601f19603f3d011682016040523d82523d6000602084013e611194565b606091505b50915091506111a48282866111d3565b92505050949350505050565b6000808273ffffffffffffffffffffffffffffffffffffffff163b119050919050565b606083156111e357829050611233565b6000835111156111f65782518084602001fd5b816040517f08c379a000000000000000000000000000000000000000000000000000000000815260040161122a91906115e4565b60405180910390fd5b9392505050565b60008135905061124981611b69565b92915050565b60008151905061125e81611b80565b92915050565b60008135905061127381611b97565b92915050565b60008151905061128881611b97565b92915050565b6000602082840312156112a4576112a3611921565b5b60006112b28482850161123a565b91505092915050565b6000602082840312156112d1576112d0611921565b5b60006112df8482850161124f565b91505092915050565b6000602082840312156112fe576112fd611921565b5b600061130c84828501611264565b91505092915050565b60006020828403121561132b5761132a611921565b5b600061133984828501611279565b91505092915050565b61134b81611877565b82525050565b61135a81611889565b82525050565b600061136b82611761565b6113758185611777565b93506113858185602086016118bf565b80840191505092915050565b600061139c8261176c565b6113a68185611782565b93506113b68185602086016118bf565b6113bf81611926565b840191505092915050565b60006113d7602583611782565b91506113e282611937565b604082019050919050565b60006113fa602683611782565b915061140582611986565b604082019050919050565b600061141d600e83611782565b9150611428826119d5565b602082019050919050565b6000611440602683611782565b915061144b826119fe565b604082019050919050565b6000611463602083611782565b915061146e82611a4d565b602082019050919050565b6000611486601783611782565b915061149182611a76565b602082019050919050565b60006114a9601183611782565b91506114b482611a9f565b602082019050919050565b60006114cc601d83611782565b91506114d782611ac8565b602082019050919050565b60006114ef601a83611782565b91506114fa82611af1565b602082019050919050565b6000611512602a83611782565b915061151d82611b1a565b604082019050919050565b611531816118b5565b82525050565b60006115438284611360565b915081905092915050565b60006020820190506115636000830184611342565b92915050565b600060608201905061157e6000830186611342565b61158b6020830185611342565b6115986040830184611528565b949350505050565b60006040820190506115b56000830185611342565b6115c26020830184611528565b9392505050565b60006020820190506115de6000830184611351565b92915050565b600060208201905081810360008301526115fe8184611391565b905092915050565b6000602082019050818103600083015261161f816113ca565b9050919050565b6000602082019050818103600083015261163f816113ed565b9050919050565b6000602082019050818103600083015261165f81611410565b9050919050565b6000602082019050818103600083015261167f81611433565b9050919050565b6000602082019050818103600083015261169f81611456565b9050919050565b600060208201905081810360008301526116bf81611479565b9050919050565b600060208201905081810360008301526116df8161149c565b9050919050565b600060208201905081810360008301526116ff816114bf565b9050919050565b6000602082019050818103600083015261171f816114e2565b9050919050565b6000602082019050818103600083015261173f81611505565b9050919050565b600060208201905061175b6000830184611528565b92915050565b600081519050919050565b600081519050919050565b600081905092915050565b600082825260208201905092915050565b600061179e826118b5565b91506117a9836118b5565b9250827fffffffffffffffffffffffffffffffffffffffffffffffffffffffffffffffff038211156117de576117dd6118f2565b5b828201905092915050565b60006117f4826118b5565b91506117ff836118b5565b9250817fffffffffffffffffffffffffffffffffffffffffffffffffffffffffffffffff0483118215151615611838576118376118f2565b5b828202905092915050565b600061184e826118b5565b9150611859836118b5565b92508282101561186c5761186b6118f2565b5b828203905092915050565b600061188282611895565b9050919050565b60008115159050919050565b600073ffffffffffffffffffffffffffffffffffffffff82169050919050565b6000819050919050565b60005b838110156118dd5780820151818401526020810190506118c2565b838111156118ec576000848401525b50505050565b7f4e487b7100000000000000000000000000000000000000000000000000000000600052601160045260246000fd5b600080fd5b6000601f19601f8301169050919050565b7f596f7520646f6e74206861766520656e6f7567687420746f6b656e20746f207260008201527f657475726e000000000000000000000000000000000000000000000000000000602082015250565b7f4f776e61626c653a206e6577206f776e657220697320746865207a65726f206160008201527f6464726573730000000000000000000000000000000000000000000000000000602082015250565b7f53616c652068617320656e646564000000000000000000000000000000000000600082015250565b7f416464726573733a20696e73756666696369656e742062616c616e636520666f60008201527f722063616c6c0000000000000000000000000000000000000000000000000000602082015250565b7f4f776e61626c653a2063616c6c6572206973206e6f7420746865206f776e6572600082015250565b7f53616c65206861736e2774207374617274656420796574000000000000000000600082015250565b7f53616c65206861736e277420656e646564000000000000000000000000000000600082015250565b7f416464726573733a2063616c6c20746f206e6f6e2d636f6e7472616374000000600082015250565b7f4e6f7420656e6f75676820746f6b656e20746f2072657475726e000000000000600082015250565b7f5361666545524332303a204552433230206f7065726174696f6e20646964206e60008201527f6f74207375636365656400000000000000000000000000000000000000000000602082015250565b611b7281611877565b8114611b7d57600080fd5b50565b611b8981611889565b8114611b9457600080fd5b50565b611ba0816118b5565b8114611bab57600080fd5b5056fea2646970667358221220636286ae46c302265ef27e45f83c388494ca0c62f0568780c989e1b23f8168cc64736f6c63430008070033",
					"opcodes": "PUSH1 0x80 PUSH1 0x40 MSTORE CALLVALUE DUP1 ISZERO PUSH3 0x11 JUMPI PUSH1 0x0 DUP1 REVERT JUMPDEST POP PUSH1 0x40 MLOAD PUSH3 0x1EF0 CODESIZE SUB DUP1 PUSH3 0x1EF0 DUP4 CODECOPY DUP2 DUP2 ADD PUSH1 0x40 MSTORE DUP2 ADD SWAP1 PUSH3 0x37 SWAP2 SWAP1 PUSH3 0x1FD JUMP JUMPDEST PUSH3 0x57 PUSH3 0x4B PUSH3 0x103 PUSH1 0x20 SHL PUSH1 0x20 SHR JUMP JUMPDEST PUSH3 0x10B PUSH1 0x20 SHL PUSH1 0x20 SHR JUMP JUMPDEST PUSH3 0x68 DUP6 PUSH3 0x10B PUSH1 0x20 SHL PUSH1 0x20 SHR JUMP JUMPDEST DUP1 PUSH1 0x4 PUSH1 0x0 PUSH2 0x100 EXP DUP2 SLOAD DUP2 PUSH20 0xFFFFFFFFFFFFFFFFFFFFFFFFFFFFFFFFFFFFFFFF MUL NOT AND SWAP1 DUP4 PUSH20 0xFFFFFFFFFFFFFFFFFFFFFFFFFFFFFFFFFFFFFFFF AND MUL OR SWAP1 SSTORE POP DUP4 PUSH1 0x1 PUSH1 0x0 PUSH2 0x100 EXP DUP2 SLOAD DUP2 PUSH20 0xFFFFFFFFFFFFFFFFFFFFFFFFFFFFFFFFFFFFFFFF MUL NOT AND SWAP1 DUP4 PUSH20 0xFFFFFFFFFFFFFFFFFFFFFFFFFFFFFFFFFFFFFFFF AND MUL OR SWAP1 SSTORE POP DUP3 PUSH1 0x2 DUP2 SWAP1 SSTORE POP DUP2 PUSH1 0x3 DUP2 SWAP1 SSTORE POP POP POP POP POP POP PUSH3 0x2FC JUMP JUMPDEST PUSH1 0x0 CALLER SWAP1 POP SWAP1 JUMP JUMPDEST PUSH1 0x0 DUP1 PUSH1 0x0 SWAP1 SLOAD SWAP1 PUSH2 0x100 EXP SWAP1 DIV PUSH20 0xFFFFFFFFFFFFFFFFFFFFFFFFFFFFFFFFFFFFFFFF AND SWAP1 POP DUP2 PUSH1 0x0 DUP1 PUSH2 0x100 EXP DUP2 SLOAD DUP2 PUSH20 0xFFFFFFFFFFFFFFFFFFFFFFFFFFFFFFFFFFFFFFFF MUL NOT AND SWAP1 DUP4 PUSH20 0xFFFFFFFFFFFFFFFFFFFFFFFFFFFFFFFFFFFFFFFF AND MUL OR SWAP1 SSTORE POP DUP2 PUSH20 0xFFFFFFFFFFFFFFFFFFFFFFFFFFFFFFFFFFFFFFFF AND DUP2 PUSH20 0xFFFFFFFFFFFFFFFFFFFFFFFFFFFFFFFFFFFFFFFF AND PUSH32 0x8BE0079C531659141344CD1FD0A4F28419497F9722A3DAAFE3B4186F6B6457E0 PUSH1 0x40 MLOAD PUSH1 0x40 MLOAD DUP1 SWAP2 SUB SWAP1 LOG3 POP POP JUMP JUMPDEST PUSH1 0x0 DUP2 MLOAD SWAP1 POP PUSH3 0x1E0 DUP2 PUSH3 0x2C8 JUMP JUMPDEST SWAP3 SWAP2 POP POP JUMP JUMPDEST PUSH1 0x0 DUP2 MLOAD SWAP1 POP PUSH3 0x1F7 DUP2 PUSH3 0x2E2 JUMP JUMPDEST SWAP3 SWAP2 POP POP JUMP JUMPDEST PUSH1 0x0 DUP1 PUSH1 0x0 DUP1 PUSH1 0x0 PUSH1 0xA0 DUP7 DUP9 SUB SLT ISZERO PUSH3 0x21C JUMPI PUSH3 0x21B PUSH3 0x2C3 JUMP JUMPDEST JUMPDEST PUSH1 0x0 PUSH3 0x22C DUP9 DUP3 DUP10 ADD PUSH3 0x1CF JUMP JUMPDEST SWAP6 POP POP PUSH1 0x20 PUSH3 0x23F DUP9 DUP3 DUP10 ADD PUSH3 0x1CF JUMP JUMPDEST SWAP5 POP POP PUSH1 0x40 PUSH3 0x252 DUP9 DUP3 DUP10 ADD PUSH3 0x1E6 JUMP JUMPDEST SWAP4 POP POP PUSH1 0x60 PUSH3 0x265 DUP9 DUP3 DUP10 ADD PUSH3 0x1E6 JUMP JUMPDEST SWAP3 POP POP PUSH1 0x80 PUSH3 0x278 DUP9 DUP3 DUP10 ADD PUSH3 0x1CF JUMP JUMPDEST SWAP2 POP POP SWAP3 SWAP6 POP SWAP3 SWAP6 SWAP1 SWAP4 POP JUMP JUMPDEST PUSH1 0x0 PUSH3 0x292 DUP3 PUSH3 0x299 JUMP JUMPDEST SWAP1 POP SWAP2 SWAP1 POP JUMP JUMPDEST PUSH1 0x0 PUSH20 0xFFFFFFFFFFFFFFFFFFFFFFFFFFFFFFFFFFFFFFFF DUP3 AND SWAP1 POP SWAP2 SWAP1 POP JUMP JUMPDEST PUSH1 0x0 DUP2 SWAP1 POP SWAP2 SWAP1 POP JUMP JUMPDEST PUSH1 0x0 DUP1 REVERT JUMPDEST PUSH3 0x2D3 DUP2 PUSH3 0x285 JUMP JUMPDEST DUP2 EQ PUSH3 0x2DF JUMPI PUSH1 0x0 DUP1 REVERT JUMPDEST POP JUMP JUMPDEST PUSH3 0x2ED DUP2 PUSH3 0x2B9 JUMP JUMPDEST DUP2 EQ PUSH3 0x2F9 JUMPI PUSH1 0x0 DUP1 REVERT JUMPDEST POP JUMP JUMPDEST PUSH2 0x1BE4 DUP1 PUSH3 0x30C PUSH1 0x0 CODECOPY PUSH1 0x0 RETURN INVALID PUSH1 0x80 PUSH1 0x40 MSTORE CALLVALUE DUP1 ISZERO PUSH2 0x10 JUMPI PUSH1 0x0 DUP1 REVERT JUMPDEST POP PUSH1 0x4 CALLDATASIZE LT PUSH2 0x100 JUMPI PUSH1 0x0 CALLDATALOAD PUSH1 0xE0 SHR DUP1 PUSH4 0x715018A6 GT PUSH2 0x97 JUMPI DUP1 PUSH4 0xAB0BCC41 GT PUSH2 0x66 JUMPI DUP1 PUSH4 0xAB0BCC41 EQ PUSH2 0x275 JUMPI DUP1 PUSH4 0xC10B9358 EQ PUSH2 0x293 JUMPI DUP1 PUSH4 0xEFEF39A1 EQ PUSH2 0x2B1 JUMPI DUP1 PUSH4 0xF2FDE38B EQ PUSH2 0x2CD JUMPI PUSH2 0x100 JUMP JUMPDEST DUP1 PUSH4 0x715018A6 EQ PUSH2 0x211 JUMPI DUP1 PUSH4 0x893D20E8 EQ PUSH2 0x21B JUMPI DUP1 PUSH4 0x8DA5CB5B EQ PUSH2 0x239 JUMPI DUP1 PUSH4 0x9D76EA58 EQ PUSH2 0x257 JUMPI PUSH2 0x100 JUMP JUMPDEST DUP1 PUSH4 0x51CFF8D9 GT PUSH2 0xD3 JUMPI DUP1 PUSH4 0x51CFF8D9 EQ PUSH2 0x18B JUMPI DUP1 PUSH4 0x61778592 EQ PUSH2 0x1A7 JUMPI DUP1 PUSH4 0x617FBA04 EQ PUSH2 0x1C5 JUMPI DUP1 PUSH4 0x6F9C6149 EQ PUSH2 0x1F5 JUMPI PUSH2 0x100 JUMP JUMPDEST DUP1 PUSH4 0x24076451 EQ PUSH2 0x105 JUMPI DUP1 PUSH4 0x295E4EDF EQ PUSH2 0x135 JUMPI DUP1 PUSH4 0x336BEA1C EQ PUSH2 0x151 JUMPI DUP1 PUSH4 0x4E71D92D EQ PUSH2 0x181 JUMPI JUMPDEST PUSH1 0x0 DUP1 REVERT JUMPDEST PUSH2 0x11F PUSH1 0x4 DUP1 CALLDATASIZE SUB DUP2 ADD SWAP1 PUSH2 0x11A SWAP2 SWAP1 PUSH2 0x128E JUMP JUMPDEST PUSH2 0x2E9 JUMP JUMPDEST PUSH1 0x40 MLOAD PUSH2 0x12C SWAP2 SWAP1 PUSH2 0x1746 JUMP JUMPDEST PUSH1 0x40 MLOAD DUP1 SWAP2 SUB SWAP1 RETURN JUMPDEST PUSH2 0x14F PUSH1 0x4 DUP1 CALLDATASIZE SUB DUP2 ADD SWAP1 PUSH2 0x14A SWAP2 SWAP1 PUSH2 0x12E8 JUMP JUMPDEST PUSH2 0x39D JUMP JUMPDEST STOP JUMPDEST PUSH2 0x16B PUSH1 0x4 DUP1 CALLDATASIZE SUB DUP2 ADD SWAP1 PUSH2 0x166 SWAP2 SWAP1 PUSH2 0x12E8 JUMP JUMPDEST PUSH2 0x423 JUMP JUMPDEST PUSH1 0x40 MLOAD PUSH2 0x178 SWAP2 SWAP1 PUSH2 0x15C9 JUMP JUMPDEST PUSH1 0x40 MLOAD DUP1 SWAP2 SUB SWAP1 RETURN JUMPDEST PUSH2 0x189 PUSH2 0x679 JUMP JUMPDEST STOP JUMPDEST PUSH2 0x1A5 PUSH1 0x4 DUP1 CALLDATASIZE SUB DUP2 ADD SWAP1 PUSH2 0x1A0 SWAP2 SWAP1 PUSH2 0x128E JUMP JUMPDEST PUSH2 0x7F2 JUMP JUMPDEST STOP JUMPDEST PUSH2 0x1AF PUSH2 0x9B2 JUMP JUMPDEST PUSH1 0x40 MLOAD PUSH2 0x1BC SWAP2 SWAP1 PUSH2 0x154E JUMP JUMPDEST PUSH1 0x40 MLOAD DUP1 SWAP2 SUB SWAP1 RETURN JUMPDEST PUSH2 0x1DF PUSH1 0x4 DUP1 CALLDATASIZE SUB DUP2 ADD SWAP1 PUSH2 0x1DA SWAP2 SWAP1 PUSH2 0x128E JUMP JUMPDEST PUSH2 0x9D8 JUMP JUMPDEST PUSH1 0x40 MLOAD PUSH2 0x1EC SWAP2 SWAP1 PUSH2 0x1746 JUMP JUMPDEST PUSH1 0x40 MLOAD DUP1 SWAP2 SUB SWAP1 RETURN JUMPDEST PUSH2 0x20F PUSH1 0x4 DUP1 CALLDATASIZE SUB DUP2 ADD SWAP1 PUSH2 0x20A SWAP2 SWAP1 PUSH2 0x12E8 JUMP JUMPDEST PUSH2 0xA21 JUMP JUMPDEST STOP JUMPDEST PUSH2 0x219 PUSH2 0xAA7 JUMP JUMPDEST STOP JUMPDEST PUSH2 0x223 PUSH2 0xB2F JUMP JUMPDEST PUSH1 0x40 MLOAD PUSH2 0x230 SWAP2 SWAP1 PUSH2 0x154E JUMP JUMPDEST PUSH1 0x40 MLOAD DUP1 SWAP2 SUB SWAP1 RETURN JUMPDEST PUSH2 0x241 PUSH2 0xB3E JUMP JUMPDEST PUSH1 0x40 MLOAD PUSH2 0x24E SWAP2 SWAP1 PUSH2 0x154E JUMP JUMPDEST PUSH1 0x40 MLOAD DUP1 SWAP2 SUB SWAP1 RETURN JUMPDEST PUSH2 0x25F PUSH2 0xB67 JUMP JUMPDEST PUSH1 0x40 MLOAD PUSH2 0x26C SWAP2 SWAP1 PUSH2 0x154E JUMP JUMPDEST PUSH1 0x40 MLOAD DUP1 SWAP2 SUB SWAP1 RETURN JUMPDEST PUSH2 0x27D PUSH2 0xB91 JUMP JUMPDEST PUSH1 0x40 MLOAD PUSH2 0x28A SWAP2 SWAP1 PUSH2 0x1746 JUMP JUMPDEST PUSH1 0x40 MLOAD DUP1 SWAP2 SUB SWAP1 RETURN JUMPDEST PUSH2 0x29B PUSH2 0xB9B JUMP JUMPDEST PUSH1 0x40 MLOAD PUSH2 0x2A8 SWAP2 SWAP1 PUSH2 0x1746 JUMP JUMPDEST PUSH1 0x40 MLOAD DUP1 SWAP2 SUB SWAP1 RETURN JUMPDEST PUSH2 0x2CB PUSH1 0x4 DUP1 CALLDATASIZE SUB DUP2 ADD SWAP1 PUSH2 0x2C6 SWAP2 SWAP1 PUSH2 0x12E8 JUMP JUMPDEST PUSH2 0xBA5 JUMP JUMPDEST STOP JUMPDEST PUSH2 0x2E7 PUSH1 0x4 DUP1 CALLDATASIZE SUB DUP2 ADD SWAP1 PUSH2 0x2E2 SWAP2 SWAP1 PUSH2 0x128E JUMP JUMPDEST PUSH2 0xCEA JUMP JUMPDEST STOP JUMPDEST PUSH1 0x0 PUSH1 0x4 PUSH1 0x0 SWAP1 SLOAD SWAP1 PUSH2 0x100 EXP SWAP1 DIV PUSH20 0xFFFFFFFFFFFFFFFFFFFFFFFFFFFFFFFFFFFFFFFF AND PUSH20 0xFFFFFFFFFFFFFFFFFFFFFFFFFFFFFFFFFFFFFFFF AND PUSH4 0x70A08231 DUP4 PUSH1 0x40 MLOAD DUP3 PUSH4 0xFFFFFFFF AND PUSH1 0xE0 SHL DUP2 MSTORE PUSH1 0x4 ADD PUSH2 0x346 SWAP2 SWAP1 PUSH2 0x154E JUMP JUMPDEST PUSH1 0x20 PUSH1 0x40 MLOAD DUP1 DUP4 SUB DUP2 DUP7 DUP1 EXTCODESIZE ISZERO DUP1 ISZERO PUSH2 0x35E JUMPI PUSH1 0x0 DUP1 REVERT JUMPDEST POP GAS STATICCALL ISZERO DUP1 ISZERO PUSH2 0x372 JUMPI RETURNDATASIZE PUSH1 0x0 DUP1 RETURNDATACOPY RETURNDATASIZE PUSH1 0x0 REVERT JUMPDEST POP POP POP POP PUSH1 0x40 MLOAD RETURNDATASIZE PUSH1 0x1F NOT PUSH1 0x1F DUP3 ADD AND DUP3 ADD DUP1 PUSH1 0x40 MSTORE POP DUP2 ADD SWAP1 PUSH2 0x396 SWAP2 SWAP1 PUSH2 0x1315 JUMP JUMPDEST SWAP1 POP SWAP2 SWAP1 POP JUMP JUMPDEST PUSH2 0x3A5 PUSH2 0xDE2 JUMP JUMPDEST PUSH20 0xFFFFFFFFFFFFFFFFFFFFFFFFFFFFFFFFFFFFFFFF AND PUSH2 0x3C3 PUSH2 0xB3E JUMP JUMPDEST PUSH20 0xFFFFFFFFFFFFFFFFFFFFFFFFFFFFFFFFFFFFFFFF AND EQ PUSH2 0x419 JUMPI PUSH1 0x40 MLOAD PUSH32 0x8C379A000000000000000000000000000000000000000000000000000000000 DUP2 MSTORE PUSH1 0x4 ADD PUSH2 0x410 SWAP1 PUSH2 0x1686 JUMP JUMPDEST PUSH1 0x40 MLOAD DUP1 SWAP2 SUB SWAP1 REVERT JUMPDEST DUP1 PUSH1 0x2 DUP2 SWAP1 SSTORE POP POP JUMP JUMPDEST PUSH1 0x0 PUSH8 0xDE0B6B3A7640000 DUP3 PUSH2 0x439 SWAP2 SWAP1 PUSH2 0x17E9 JUMP JUMPDEST PUSH1 0x4 PUSH1 0x0 SWAP1 SLOAD SWAP1 PUSH2 0x100 EXP SWAP1 DIV PUSH20 0xFFFFFFFFFFFFFFFFFFFFFFFFFFFFFFFFFFFFFFFF AND PUSH20 0xFFFFFFFFFFFFFFFFFFFFFFFFFFFFFFFFFFFFFFFF AND PUSH4 0x70A08231 ADDRESS PUSH1 0x40 MLOAD DUP3 PUSH4 0xFFFFFFFF AND PUSH1 0xE0 SHL DUP2 MSTORE PUSH1 0x4 ADD PUSH2 0x494 SWAP2 SWAP1 PUSH2 0x154E JUMP JUMPDEST PUSH1 0x20 PUSH1 0x40 MLOAD DUP1 DUP4 SUB DUP2 DUP7 DUP1 EXTCODESIZE ISZERO DUP1 ISZERO PUSH2 0x4AC JUMPI PUSH1 0x0 DUP1 REVERT JUMPDEST POP GAS STATICCALL ISZERO DUP1 ISZERO PUSH2 0x4C0 JUMPI RETURNDATASIZE PUSH1 0x0 DUP1 RETURNDATACOPY RETURNDATASIZE PUSH1 0x0 REVERT JUMPDEST POP POP POP POP PUSH1 0x40 MLOAD RETURNDATASIZE PUSH1 0x1F NOT PUSH1 0x1F DUP3 ADD AND DUP3 ADD DUP1 PUSH1 0x40 MSTORE POP DUP2 ADD SWAP1 PUSH2 0x4E4 SWAP2 SWAP1 PUSH2 0x1315 JUMP JUMPDEST LT ISZERO PUSH2 0x525 JUMPI PUSH1 0x40 MLOAD PUSH32 0x8C379A000000000000000000000000000000000000000000000000000000000 DUP2 MSTORE PUSH1 0x4 ADD PUSH2 0x51C SWAP1 PUSH2 0x1706 JUMP JUMPDEST PUSH1 0x40 MLOAD DUP1 SWAP2 SUB SWAP1 REVERT JUMPDEST PUSH8 0xDE0B6B3A7640000 DUP3 PUSH2 0x539 SWAP2 SWAP1 PUSH2 0x17E9 JUMP JUMPDEST PUSH1 0x5 PUSH1 0x0 CALLER PUSH20 0xFFFFFFFFFFFFFFFFFFFFFFFFFFFFFFFFFFFFFFFF AND PUSH20 0xFFFFFFFFFFFFFFFFFFFFFFFFFFFFFFFFFFFFFFFF AND DUP2 MSTORE PUSH1 0x20 ADD SWAP1 DUP2 MSTORE PUSH1 0x20 ADD PUSH1 0x0 KECCAK256 SLOAD LT ISZERO PUSH2 0x5BA JUMPI PUSH1 0x40 MLOAD PUSH32 0x8C379A000000000000000000000000000000000000000000000000000000000 DUP2 MSTORE PUSH1 0x4 ADD PUSH2 0x5B1 SWAP1 PUSH2 0x1606 JUMP JUMPDEST PUSH1 0x40 MLOAD DUP1 SWAP2 SUB SWAP1 REVERT JUMPDEST PUSH2 0x607 CALLER DUP4 PUSH1 0x4 PUSH1 0x0 SWAP1 SLOAD SWAP1 PUSH2 0x100 EXP SWAP1 DIV PUSH20 0xFFFFFFFFFFFFFFFFFFFFFFFFFFFFFFFFFFFFFFFF AND PUSH20 0xFFFFFFFFFFFFFFFFFFFFFFFFFFFFFFFFFFFFFFFF AND PUSH2 0xDEA SWAP1 SWAP3 SWAP2 SWAP1 PUSH4 0xFFFFFFFF AND JUMP JUMPDEST PUSH8 0xDE0B6B3A7640000 DUP3 PUSH2 0x61B SWAP2 SWAP1 PUSH2 0x17E9 JUMP JUMPDEST PUSH1 0x5 PUSH1 0x0 CALLER PUSH20 0xFFFFFFFFFFFFFFFFFFFFFFFFFFFFFFFFFFFFFFFF AND PUSH20 0xFFFFFFFFFFFFFFFFFFFFFFFFFFFFFFFFFFFFFFFF AND DUP2 MSTORE PUSH1 0x20 ADD SWAP1 DUP2 MSTORE PUSH1 0x20 ADD PUSH1 0x0 KECCAK256 PUSH1 0x0 DUP3 DUP3 SLOAD PUSH2 0x669 SWAP2 SWAP1 PUSH2 0x1843 JUMP JUMPDEST SWAP3 POP POP DUP2 SWAP1 SSTORE POP PUSH1 0x1 SWAP1 POP SWAP2 SWAP1 POP JUMP JUMPDEST PUSH1 0x3 SLOAD TIMESTAMP LT ISZERO PUSH2 0x6BE JUMPI PUSH1 0x40 MLOAD PUSH32 0x8C379A000000000000000000000000000000000000000000000000000000000 DUP2 MSTORE PUSH1 0x4 ADD PUSH2 0x6B5 SWAP1 PUSH2 0x16C6 JUMP JUMPDEST PUSH1 0x40 MLOAD DUP1 SWAP2 SUB SWAP1 REVERT JUMPDEST PUSH1 0x1 PUSH1 0x0 SWAP1 SLOAD SWAP1 PUSH2 0x100 EXP SWAP1 DIV PUSH20 0xFFFFFFFFFFFFFFFFFFFFFFFFFFFFFFFFFFFFFFFF AND PUSH20 0xFFFFFFFFFFFFFFFFFFFFFFFFFFFFFFFFFFFFFFFF AND PUSH4 0x40C10F19 CALLER PUSH1 0x5 PUSH1 0x0 CALLER PUSH20 0xFFFFFFFFFFFFFFFFFFFFFFFFFFFFFFFFFFFFFFFF AND PUSH20 0xFFFFFFFFFFFFFFFFFFFFFFFFFFFFFFFFFFFFFFFF AND DUP2 MSTORE PUSH1 0x20 ADD SWAP1 DUP2 MSTORE PUSH1 0x20 ADD PUSH1 0x0 KECCAK256 SLOAD PUSH1 0x40 MLOAD DUP4 PUSH4 0xFFFFFFFF AND PUSH1 0xE0 SHL DUP2 MSTORE PUSH1 0x4 ADD PUSH2 0x75A SWAP3 SWAP2 SWAP1 PUSH2 0x15A0 JUMP JUMPDEST PUSH1 0x20 PUSH1 0x40 MLOAD DUP1 DUP4 SUB DUP2 PUSH1 0x0 DUP8 DUP1 EXTCODESIZE ISZERO DUP1 ISZERO PUSH2 0x774 JUMPI PUSH1 0x0 DUP1 REVERT JUMPDEST POP GAS CALL ISZERO DUP1 ISZERO PUSH2 0x788 JUMPI RETURNDATASIZE PUSH1 0x0 DUP1 RETURNDATACOPY RETURNDATASIZE PUSH1 0x0 REVERT JUMPDEST POP POP POP POP PUSH1 0x40 MLOAD RETURNDATASIZE PUSH1 0x1F NOT PUSH1 0x1F DUP3 ADD AND DUP3 ADD DUP1 PUSH1 0x40 MSTORE POP DUP2 ADD SWAP1 PUSH2 0x7AC SWAP2 SWAP1 PUSH2 0x12BB JUMP JUMPDEST POP PUSH1 0x5 PUSH1 0x0 CALLER PUSH20 0xFFFFFFFFFFFFFFFFFFFFFFFFFFFFFFFFFFFFFFFF AND PUSH20 0xFFFFFFFFFFFFFFFFFFFFFFFFFFFFFFFFFFFFFFFF AND DUP2 MSTORE PUSH1 0x20 ADD SWAP1 DUP2 MSTORE PUSH1 0x20 ADD PUSH1 0x0 KECCAK256 PUSH1 0x0 SWAP1 SSTORE JUMP JUMPDEST PUSH2 0x7FA PUSH2 0xDE2 JUMP JUMPDEST PUSH20 0xFFFFFFFFFFFFFFFFFFFFFFFFFFFFFFFFFFFFFFFF AND PUSH2 0x818 PUSH2 0xB3E JUMP JUMPDEST PUSH20 0xFFFFFFFFFFFFFFFFFFFFFFFFFFFFFFFFFFFFFFFF AND EQ PUSH2 0x86E JUMPI PUSH1 0x40 MLOAD PUSH32 0x8C379A000000000000000000000000000000000000000000000000000000000 DUP2 MSTORE PUSH1 0x4 ADD PUSH2 0x865 SWAP1 PUSH2 0x1686 JUMP JUMPDEST PUSH1 0x40 MLOAD DUP1 SWAP2 SUB SWAP1 REVERT JUMPDEST PUSH1 0x3 SLOAD TIMESTAMP GT PUSH2 0x8B2 JUMPI PUSH1 0x40 MLOAD PUSH32 0x8C379A000000000000000000000000000000000000000000000000000000000 DUP2 MSTORE PUSH1 0x4 ADD PUSH2 0x8A9 SWAP1 PUSH2 0x16C6 JUMP JUMPDEST PUSH1 0x40 MLOAD DUP1 SWAP2 SUB SWAP1 REVERT JUMPDEST PUSH1 0x0 PUSH1 0x4 PUSH1 0x0 SWAP1 SLOAD SWAP1 PUSH2 0x100 EXP SWAP1 DIV PUSH20 0xFFFFFFFFFFFFFFFFFFFFFFFFFFFFFFFFFFFFFFFF AND PUSH20 0xFFFFFFFFFFFFFFFFFFFFFFFFFFFFFFFFFFFFFFFF AND PUSH4 0x70A08231 ADDRESS PUSH1 0x40 MLOAD DUP3 PUSH4 0xFFFFFFFF AND PUSH1 0xE0 SHL DUP2 MSTORE PUSH1 0x4 ADD PUSH2 0x90F SWAP2 SWAP1 PUSH2 0x154E JUMP JUMPDEST PUSH1 0x20 PUSH1 0x40 MLOAD DUP1 DUP4 SUB DUP2 DUP7 DUP1 EXTCODESIZE ISZERO DUP1 ISZERO PUSH2 0x927 JUMPI PUSH1 0x0 DUP1 REVERT JUMPDEST POP GAS STATICCALL ISZERO DUP1 ISZERO PUSH2 0x93B JUMPI RETURNDATASIZE PUSH1 0x0 DUP1 RETURNDATACOPY RETURNDATASIZE PUSH1 0x0 REVERT JUMPDEST POP POP POP POP PUSH1 0x40 MLOAD RETURNDATASIZE PUSH1 0x1F NOT PUSH1 0x1F DUP3 ADD AND DUP3 ADD DUP1 PUSH1 0x40 MSTORE POP DUP2 ADD SWAP1 PUSH2 0x95F SWAP2 SWAP1 PUSH2 0x1315 JUMP JUMPDEST SWAP1 POP PUSH2 0x9AE DUP3 DUP3 PUSH1 0x4 PUSH1 0x0 SWAP1 SLOAD SWAP1 PUSH2 0x100 EXP SWAP1 DIV PUSH20 0xFFFFFFFFFFFFFFFFFFFFFFFFFFFFFFFFFFFFFFFF AND PUSH20 0xFFFFFFFFFFFFFFFFFFFFFFFFFFFFFFFFFFFFFFFF AND PUSH2 0xDEA SWAP1 SWAP3 SWAP2 SWAP1 PUSH4 0xFFFFFFFF AND JUMP JUMPDEST POP POP JUMP JUMPDEST PUSH1 0x4 PUSH1 0x0 SWAP1 SLOAD SWAP1 PUSH2 0x100 EXP SWAP1 DIV PUSH20 0xFFFFFFFFFFFFFFFFFFFFFFFFFFFFFFFFFFFFFFFF AND DUP2 JUMP JUMPDEST PUSH1 0x0 PUSH1 0x5 PUSH1 0x0 DUP4 PUSH20 0xFFFFFFFFFFFFFFFFFFFFFFFFFFFFFFFFFFFFFFFF AND PUSH20 0xFFFFFFFFFFFFFFFFFFFFFFFFFFFFFFFFFFFFFFFF AND DUP2 MSTORE PUSH1 0x20 ADD SWAP1 DUP2 MSTORE PUSH1 0x20 ADD PUSH1 0x0 KECCAK256 SLOAD SWAP1 POP SWAP2 SWAP1 POP JUMP JUMPDEST PUSH2 0xA29 PUSH2 0xDE2 JUMP JUMPDEST PUSH20 0xFFFFFFFFFFFFFFFFFFFFFFFFFFFFFFFFFFFFFFFF AND PUSH2 0xA47 PUSH2 0xB3E JUMP JUMPDEST PUSH20 0xFFFFFFFFFFFFFFFFFFFFFFFFFFFFFFFFFFFFFFFF AND EQ PUSH2 0xA9D JUMPI PUSH1 0x40 MLOAD PUSH32 0x8C379A000000000000000000000000000000000000000000000000000000000 DUP2 MSTORE PUSH1 0x4 ADD PUSH2 0xA94 SWAP1 PUSH2 0x1686 JUMP JUMPDEST PUSH1 0x40 MLOAD DUP1 SWAP2 SUB SWAP1 REVERT JUMPDEST DUP1 PUSH1 0x3 DUP2 SWAP1 SSTORE POP POP JUMP JUMPDEST PUSH2 0xAAF PUSH2 0xDE2 JUMP JUMPDEST PUSH20 0xFFFFFFFFFFFFFFFFFFFFFFFFFFFFFFFFFFFFFFFF AND PUSH2 0xACD PUSH2 0xB3E JUMP JUMPDEST PUSH20 0xFFFFFFFFFFFFFFFFFFFFFFFFFFFFFFFFFFFFFFFF AND EQ PUSH2 0xB23 JUMPI PUSH1 0x40 MLOAD PUSH32 0x8C379A000000000000000000000000000000000000000000000000000000000 DUP2 MSTORE PUSH1 0x4 ADD PUSH2 0xB1A SWAP1 PUSH2 0x1686 JUMP JUMPDEST PUSH1 0x40 MLOAD DUP1 SWAP2 SUB SWAP1 REVERT JUMPDEST PUSH2 0xB2D PUSH1 0x0 PUSH2 0xE70 JUMP JUMPDEST JUMP JUMPDEST PUSH1 0x0 PUSH2 0xB39 PUSH2 0xB3E JUMP JUMPDEST SWAP1 POP SWAP1 JUMP JUMPDEST PUSH1 0x0 DUP1 PUSH1 0x0 SWAP1 SLOAD SWAP1 PUSH2 0x100 EXP SWAP1 DIV PUSH20 0xFFFFFFFFFFFFFFFFFFFFFFFFFFFFFFFFFFFFFFFF AND SWAP1 POP SWAP1 JUMP JUMPDEST PUSH1 0x0 PUSH1 0x1 PUSH1 0x0 SWAP1 SLOAD SWAP1 PUSH2 0x100 EXP SWAP1 DIV PUSH20 0xFFFFFFFFFFFFFFFFFFFFFFFFFFFFFFFFFFFFFFFF AND SWAP1 POP SWAP1 JUMP JUMPDEST PUSH1 0x0 PUSH1 0x2 SLOAD SWAP1 POP SWAP1 JUMP JUMPDEST PUSH1 0x0 PUSH1 0x3 SLOAD SWAP1 POP SWAP1 JUMP JUMPDEST PUSH1 0x2 SLOAD TIMESTAMP LT ISZERO PUSH2 0xBEA JUMPI PUSH1 0x40 MLOAD PUSH32 0x8C379A000000000000000000000000000000000000000000000000000000000 DUP2 MSTORE PUSH1 0x4 ADD PUSH2 0xBE1 SWAP1 PUSH2 0x16A6 JUMP JUMPDEST PUSH1 0x40 MLOAD DUP1 SWAP2 SUB SWAP1 REVERT JUMPDEST PUSH1 0x3 SLOAD TIMESTAMP GT ISZERO PUSH2 0xC2F JUMPI PUSH1 0x40 MLOAD PUSH32 0x8C379A000000000000000000000000000000000000000000000000000000000 DUP2 MSTORE PUSH1 0x4 ADD PUSH2 0xC26 SWAP1 PUSH2 0x1646 JUMP JUMPDEST PUSH1 0x40 MLOAD DUP1 SWAP2 SUB SWAP1 REVERT JUMPDEST PUSH2 0xC7E CALLER ADDRESS DUP4 PUSH1 0x4 PUSH1 0x0 SWAP1 SLOAD SWAP1 PUSH2 0x100 EXP SWAP1 DIV PUSH20 0xFFFFFFFFFFFFFFFFFFFFFFFFFFFFFFFFFFFFFFFF AND PUSH20 0xFFFFFFFFFFFFFFFFFFFFFFFFFFFFFFFFFFFFFFFF AND PUSH2 0xF34 SWAP1 SWAP4 SWAP3 SWAP2 SWAP1 PUSH4 0xFFFFFFFF AND JUMP JUMPDEST PUSH8 0xDE0B6B3A7640000 DUP2 PUSH2 0xC92 SWAP2 SWAP1 PUSH2 0x17E9 JUMP JUMPDEST PUSH1 0x5 PUSH1 0x0 CALLER PUSH20 0xFFFFFFFFFFFFFFFFFFFFFFFFFFFFFFFFFFFFFFFF AND PUSH20 0xFFFFFFFFFFFFFFFFFFFFFFFFFFFFFFFFFFFFFFFF AND DUP2 MSTORE PUSH1 0x20 ADD SWAP1 DUP2 MSTORE PUSH1 0x20 ADD PUSH1 0x0 KECCAK256 PUSH1 0x0 DUP3 DUP3 SLOAD PUSH2 0xCE0 SWAP2 SWAP1 PUSH2 0x1793 JUMP JUMPDEST SWAP3 POP POP DUP2 SWAP1 SSTORE POP POP JUMP JUMPDEST PUSH2 0xCF2 PUSH2 0xDE2 JUMP JUMPDEST PUSH20 0xFFFFFFFFFFFFFFFFFFFFFFFFFFFFFFFFFFFFFFFF AND PUSH2 0xD10 PUSH2 0xB3E JUMP JUMPDEST PUSH20 0xFFFFFFFFFFFFFFFFFFFFFFFFFFFFFFFFFFFFFFFF AND EQ PUSH2 0xD66 JUMPI PUSH1 0x40 MLOAD PUSH32 0x8C379A000000000000000000000000000000000000000000000000000000000 DUP2 MSTORE PUSH1 0x4 ADD PUSH2 0xD5D SWAP1 PUSH2 0x1686 JUMP JUMPDEST PUSH1 0x40 MLOAD DUP1 SWAP2 SUB SWAP1 REVERT JUMPDEST PUSH1 0x0 PUSH20 0xFFFFFFFFFFFFFFFFFFFFFFFFFFFFFFFFFFFFFFFF AND DUP2 PUSH20 0xFFFFFFFFFFFFFFFFFFFFFFFFFFFFFFFFFFFFFFFF AND EQ ISZERO PUSH2 0xDD6 JUMPI PUSH1 0x40 MLOAD PUSH32 0x8C379A000000000000000000000000000000000000000000000000000000000 DUP2 MSTORE PUSH1 0x4 ADD PUSH2 0xDCD SWAP1 PUSH2 0x1626 JUMP JUMPDEST PUSH1 0x40 MLOAD DUP1 SWAP2 SUB SWAP1 REVERT JUMPDEST PUSH2 0xDDF DUP2 PUSH2 0xE70 JUMP JUMPDEST POP JUMP JUMPDEST PUSH1 0x0 CALLER SWAP1 POP SWAP1 JUMP JUMPDEST PUSH2 0xE6B DUP4 PUSH4 0xA9059CBB PUSH1 0xE0 SHL DUP5 DUP5 PUSH1 0x40 MLOAD PUSH1 0x24 ADD PUSH2 0xE09 SWAP3 SWAP2 SWAP1 PUSH2 0x15A0 JUMP JUMPDEST PUSH1 0x40 MLOAD PUSH1 0x20 DUP2 DUP4 SUB SUB DUP2 MSTORE SWAP1 PUSH1 0x40 MSTORE SWAP1 PUSH28 0xFFFFFFFFFFFFFFFFFFFFFFFFFFFFFFFFFFFFFFFFFFFFFFFFFFFFFFFF NOT AND PUSH1 0x20 DUP3 ADD DUP1 MLOAD PUSH28 0xFFFFFFFFFFFFFFFFFFFFFFFFFFFFFFFFFFFFFFFFFFFFFFFFFFFFFFFF DUP4 DUP2 DUP4 AND OR DUP4 MSTORE POP POP POP POP PUSH2 0xFBD JUMP JUMPDEST POP POP POP JUMP JUMPDEST PUSH1 0x0 DUP1 PUSH1 0x0 SWAP1 SLOAD SWAP1 PUSH2 0x100 EXP SWAP1 DIV PUSH20 0xFFFFFFFFFFFFFFFFFFFFFFFFFFFFFFFFFFFFFFFF AND SWAP1 POP DUP2 PUSH1 0x0 DUP1 PUSH2 0x100 EXP DUP2 SLOAD DUP2 PUSH20 0xFFFFFFFFFFFFFFFFFFFFFFFFFFFFFFFFFFFFFFFF MUL NOT AND SWAP1 DUP4 PUSH20 0xFFFFFFFFFFFFFFFFFFFFFFFFFFFFFFFFFFFFFFFF AND MUL OR SWAP1 SSTORE POP DUP2 PUSH20 0xFFFFFFFFFFFFFFFFFFFFFFFFFFFFFFFFFFFFFFFF AND DUP2 PUSH20 0xFFFFFFFFFFFFFFFFFFFFFFFFFFFFFFFFFFFFFFFF AND PUSH32 0x8BE0079C531659141344CD1FD0A4F28419497F9722A3DAAFE3B4186F6B6457E0 PUSH1 0x40 MLOAD PUSH1 0x40 MLOAD DUP1 SWAP2 SUB SWAP1 LOG3 POP POP JUMP JUMPDEST PUSH2 0xFB7 DUP5 PUSH4 0x23B872DD PUSH1 0xE0 SHL DUP6 DUP6 DUP6 PUSH1 0x40 MLOAD PUSH1 0x24 ADD PUSH2 0xF55 SWAP4 SWAP3 SWAP2 SWAP1 PUSH2 0x1569 JUMP JUMPDEST PUSH1 0x40 MLOAD PUSH1 0x20 DUP2 DUP4 SUB SUB DUP2 MSTORE SWAP1 PUSH1 0x40 MSTORE SWAP1 PUSH28 0xFFFFFFFFFFFFFFFFFFFFFFFFFFFFFFFFFFFFFFFFFFFFFFFFFFFFFFFF NOT AND PUSH1 0x20 DUP3 ADD DUP1 MLOAD PUSH28 0xFFFFFFFFFFFFFFFFFFFFFFFFFFFFFFFFFFFFFFFFFFFFFFFFFFFFFFFF DUP4 DUP2 DUP4 AND OR DUP4 MSTORE POP POP POP POP PUSH2 0xFBD JUMP JUMPDEST POP POP POP POP JUMP JUMPDEST PUSH1 0x0 PUSH2 0x101F DUP3 PUSH1 0x40 MLOAD DUP1 PUSH1 0x40 ADD PUSH1 0x40 MSTORE DUP1 PUSH1 0x20 DUP2 MSTORE PUSH1 0x20 ADD PUSH32 0x5361666545524332303A206C6F772D6C6576656C2063616C6C206661696C6564 DUP2 MSTORE POP DUP6 PUSH20 0xFFFFFFFFFFFFFFFFFFFFFFFFFFFFFFFFFFFFFFFF AND PUSH2 0x1084 SWAP1 SWAP3 SWAP2 SWAP1 PUSH4 0xFFFFFFFF AND JUMP JUMPDEST SWAP1 POP PUSH1 0x0 DUP2 MLOAD GT ISZERO PUSH2 0x107F JUMPI DUP1 DUP1 PUSH1 0x20 ADD SWAP1 MLOAD DUP2 ADD SWAP1 PUSH2 0x103F SWAP2 SWAP1 PUSH2 0x12BB JUMP JUMPDEST PUSH2 0x107E JUMPI PUSH1 0x40 MLOAD PUSH32 0x8C379A000000000000000000000000000000000000000000000000000000000 DUP2 MSTORE PUSH1 0x4 ADD PUSH2 0x1075 SWAP1 PUSH2 0x1726 JUMP JUMPDEST PUSH1 0x40 MLOAD DUP1 SWAP2 SUB SWAP1 REVERT JUMPDEST JUMPDEST POP POP POP JUMP JUMPDEST PUSH1 0x60 PUSH2 0x1093 DUP5 DUP5 PUSH1 0x0 DUP6 PUSH2 0x109C JUMP JUMPDEST SWAP1 POP SWAP4 SWAP3 POP POP POP JUMP JUMPDEST PUSH1 0x60 DUP3 SELFBALANCE LT ISZERO PUSH2 0x10E1 JUMPI PUSH1 0x40 MLOAD PUSH32 0x8C379A000000000000000000000000000000000000000000000000000000000 DUP2 MSTORE PUSH1 0x4 ADD PUSH2 0x10D8 SWAP1 PUSH2 0x1666 JUMP JUMPDEST PUSH1 0x40 MLOAD DUP1 SWAP2 SUB SWAP1 REVERT JUMPDEST PUSH2 0x10EA DUP6 PUSH2 0x11B0 JUMP JUMPDEST PUSH2 0x1129 JUMPI PUSH1 0x40 MLOAD PUSH32 0x8C379A000000000000000000000000000000000000000000000000000000000 DUP2 MSTORE PUSH1 0x4 ADD PUSH2 0x1120 SWAP1 PUSH2 0x16E6 JUMP JUMPDEST PUSH1 0x40 MLOAD DUP1 SWAP2 SUB SWAP1 REVERT JUMPDEST PUSH1 0x0 DUP1 DUP7 PUSH20 0xFFFFFFFFFFFFFFFFFFFFFFFFFFFFFFFFFFFFFFFF AND DUP6 DUP8 PUSH1 0x40 MLOAD PUSH2 0x1152 SWAP2 SWAP1 PUSH2 0x1537 JUMP JUMPDEST PUSH1 0x0 PUSH1 0x40 MLOAD DUP1 DUP4 SUB DUP2 DUP6 DUP8 GAS CALL SWAP3 POP POP POP RETURNDATASIZE DUP1 PUSH1 0x0 DUP2 EQ PUSH2 0x118F JUMPI PUSH1 0x40 MLOAD SWAP2 POP PUSH1 0x1F NOT PUSH1 0x3F RETURNDATASIZE ADD AND DUP3 ADD PUSH1 0x40 MSTORE RETURNDATASIZE DUP3 MSTORE RETURNDATASIZE PUSH1 0x0 PUSH1 0x20 DUP5 ADD RETURNDATACOPY PUSH2 0x1194 JUMP JUMPDEST PUSH1 0x60 SWAP2 POP JUMPDEST POP SWAP2 POP SWAP2 POP PUSH2 0x11A4 DUP3 DUP3 DUP7 PUSH2 0x11D3 JUMP JUMPDEST SWAP3 POP POP POP SWAP5 SWAP4 POP POP POP POP JUMP JUMPDEST PUSH1 0x0 DUP1 DUP3 PUSH20 0xFFFFFFFFFFFFFFFFFFFFFFFFFFFFFFFFFFFFFFFF AND EXTCODESIZE GT SWAP1 POP SWAP2 SWAP1 POP JUMP JUMPDEST PUSH1 0x60 DUP4 ISZERO PUSH2 0x11E3 JUMPI DUP3 SWAP1 POP PUSH2 0x1233 JUMP JUMPDEST PUSH1 0x0 DUP4 MLOAD GT ISZERO PUSH2 0x11F6 JUMPI DUP3 MLOAD DUP1 DUP5 PUSH1 0x20 ADD REVERT JUMPDEST DUP2 PUSH1 0x40 MLOAD PUSH32 0x8C379A000000000000000000000000000000000000000000000000000000000 DUP2 MSTORE PUSH1 0x4 ADD PUSH2 0x122A SWAP2 SWAP1 PUSH2 0x15E4 JUMP JUMPDEST PUSH1 0x40 MLOAD DUP1 SWAP2 SUB SWAP1 REVERT JUMPDEST SWAP4 SWAP3 POP POP POP JUMP JUMPDEST PUSH1 0x0 DUP2 CALLDATALOAD SWAP1 POP PUSH2 0x1249 DUP2 PUSH2 0x1B69 JUMP JUMPDEST SWAP3 SWAP2 POP POP JUMP JUMPDEST PUSH1 0x0 DUP2 MLOAD SWAP1 POP PUSH2 0x125E DUP2 PUSH2 0x1B80 JUMP JUMPDEST SWAP3 SWAP2 POP POP JUMP JUMPDEST PUSH1 0x0 DUP2 CALLDATALOAD SWAP1 POP PUSH2 0x1273 DUP2 PUSH2 0x1B97 JUMP JUMPDEST SWAP3 SWAP2 POP POP JUMP JUMPDEST PUSH1 0x0 DUP2 MLOAD SWAP1 POP PUSH2 0x1288 DUP2 PUSH2 0x1B97 JUMP JUMPDEST SWAP3 SWAP2 POP POP JUMP JUMPDEST PUSH1 0x0 PUSH1 0x20 DUP3 DUP5 SUB SLT ISZERO PUSH2 0x12A4 JUMPI PUSH2 0x12A3 PUSH2 0x1921 JUMP JUMPDEST JUMPDEST PUSH1 0x0 PUSH2 0x12B2 DUP5 DUP3 DUP6 ADD PUSH2 0x123A JUMP JUMPDEST SWAP2 POP POP SWAP3 SWAP2 POP POP JUMP JUMPDEST PUSH1 0x0 PUSH1 0x20 DUP3 DUP5 SUB SLT ISZERO PUSH2 0x12D1 JUMPI PUSH2 0x12D0 PUSH2 0x1921 JUMP JUMPDEST JUMPDEST PUSH1 0x0 PUSH2 0x12DF DUP5 DUP3 DUP6 ADD PUSH2 0x124F JUMP JUMPDEST SWAP2 POP POP SWAP3 SWAP2 POP POP JUMP JUMPDEST PUSH1 0x0 PUSH1 0x20 DUP3 DUP5 SUB SLT ISZERO PUSH2 0x12FE JUMPI PUSH2 0x12FD PUSH2 0x1921 JUMP JUMPDEST JUMPDEST PUSH1 0x0 PUSH2 0x130C DUP5 DUP3 DUP6 ADD PUSH2 0x1264 JUMP JUMPDEST SWAP2 POP POP SWAP3 SWAP2 POP POP JUMP JUMPDEST PUSH1 0x0 PUSH1 0x20 DUP3 DUP5 SUB SLT ISZERO PUSH2 0x132B JUMPI PUSH2 0x132A PUSH2 0x1921 JUMP JUMPDEST JUMPDEST PUSH1 0x0 PUSH2 0x1339 DUP5 DUP3 DUP6 ADD PUSH2 0x1279 JUMP JUMPDEST SWAP2 POP POP SWAP3 SWAP2 POP POP JUMP JUMPDEST PUSH2 0x134B DUP2 PUSH2 0x1877 JUMP JUMPDEST DUP3 MSTORE POP POP JUMP JUMPDEST PUSH2 0x135A DUP2 PUSH2 0x1889 JUMP JUMPDEST DUP3 MSTORE POP POP JUMP JUMPDEST PUSH1 0x0 PUSH2 0x136B DUP3 PUSH2 0x1761 JUMP JUMPDEST PUSH2 0x1375 DUP2 DUP6 PUSH2 0x1777 JUMP JUMPDEST SWAP4 POP PUSH2 0x1385 DUP2 DUP6 PUSH1 0x20 DUP7 ADD PUSH2 0x18BF JUMP JUMPDEST DUP1 DUP5 ADD SWAP2 POP POP SWAP3 SWAP2 POP POP JUMP JUMPDEST PUSH1 0x0 PUSH2 0x139C DUP3 PUSH2 0x176C JUMP JUMPDEST PUSH2 0x13A6 DUP2 DUP6 PUSH2 0x1782 JUMP JUMPDEST SWAP4 POP PUSH2 0x13B6 DUP2 DUP6 PUSH1 0x20 DUP7 ADD PUSH2 0x18BF JUMP JUMPDEST PUSH2 0x13BF DUP2 PUSH2 0x1926 JUMP JUMPDEST DUP5 ADD SWAP2 POP POP SWAP3 SWAP2 POP POP JUMP JUMPDEST PUSH1 0x0 PUSH2 0x13D7 PUSH1 0x25 DUP4 PUSH2 0x1782 JUMP JUMPDEST SWAP2 POP PUSH2 0x13E2 DUP3 PUSH2 0x1937 JUMP JUMPDEST PUSH1 0x40 DUP3 ADD SWAP1 POP SWAP2 SWAP1 POP JUMP JUMPDEST PUSH1 0x0 PUSH2 0x13FA PUSH1 0x26 DUP4 PUSH2 0x1782 JUMP JUMPDEST SWAP2 POP PUSH2 0x1405 DUP3 PUSH2 0x1986 JUMP JUMPDEST PUSH1 0x40 DUP3 ADD SWAP1 POP SWAP2 SWAP1 POP JUMP JUMPDEST PUSH1 0x0 PUSH2 0x141D PUSH1 0xE DUP4 PUSH2 0x1782 JUMP JUMPDEST SWAP2 POP PUSH2 0x1428 DUP3 PUSH2 0x19D5 JUMP JUMPDEST PUSH1 0x20 DUP3 ADD SWAP1 POP SWAP2 SWAP1 POP JUMP JUMPDEST PUSH1 0x0 PUSH2 0x1440 PUSH1 0x26 DUP4 PUSH2 0x1782 JUMP JUMPDEST SWAP2 POP PUSH2 0x144B DUP3 PUSH2 0x19FE JUMP JUMPDEST PUSH1 0x40 DUP3 ADD SWAP1 POP SWAP2 SWAP1 POP JUMP JUMPDEST PUSH1 0x0 PUSH2 0x1463 PUSH1 0x20 DUP4 PUSH2 0x1782 JUMP JUMPDEST SWAP2 POP PUSH2 0x146E DUP3 PUSH2 0x1A4D JUMP JUMPDEST PUSH1 0x20 DUP3 ADD SWAP1 POP SWAP2 SWAP1 POP JUMP JUMPDEST PUSH1 0x0 PUSH2 0x1486 PUSH1 0x17 DUP4 PUSH2 0x1782 JUMP JUMPDEST SWAP2 POP PUSH2 0x1491 DUP3 PUSH2 0x1A76 JUMP JUMPDEST PUSH1 0x20 DUP3 ADD SWAP1 POP SWAP2 SWAP1 POP JUMP JUMPDEST PUSH1 0x0 PUSH2 0x14A9 PUSH1 0x11 DUP4 PUSH2 0x1782 JUMP JUMPDEST SWAP2 POP PUSH2 0x14B4 DUP3 PUSH2 0x1A9F JUMP JUMPDEST PUSH1 0x20 DUP3 ADD SWAP1 POP SWAP2 SWAP1 POP JUMP JUMPDEST PUSH1 0x0 PUSH2 0x14CC PUSH1 0x1D DUP4 PUSH2 0x1782 JUMP JUMPDEST SWAP2 POP PUSH2 0x14D7 DUP3 PUSH2 0x1AC8 JUMP JUMPDEST PUSH1 0x20 DUP3 ADD SWAP1 POP SWAP2 SWAP1 POP JUMP JUMPDEST PUSH1 0x0 PUSH2 0x14EF PUSH1 0x1A DUP4 PUSH2 0x1782 JUMP JUMPDEST SWAP2 POP PUSH2 0x14FA DUP3 PUSH2 0x1AF1 JUMP JUMPDEST PUSH1 0x20 DUP3 ADD SWAP1 POP SWAP2 SWAP1 POP JUMP JUMPDEST PUSH1 0x0 PUSH2 0x1512 PUSH1 0x2A DUP4 PUSH2 0x1782 JUMP JUMPDEST SWAP2 POP PUSH2 0x151D DUP3 PUSH2 0x1B1A JUMP JUMPDEST PUSH1 0x40 DUP3 ADD SWAP1 POP SWAP2 SWAP1 POP JUMP JUMPDEST PUSH2 0x1531 DUP2 PUSH2 0x18B5 JUMP JUMPDEST DUP3 MSTORE POP POP JUMP JUMPDEST PUSH1 0x0 PUSH2 0x1543 DUP3 DUP5 PUSH2 0x1360 JUMP JUMPDEST SWAP2 POP DUP2 SWAP1 POP SWAP3 SWAP2 POP POP JUMP JUMPDEST PUSH1 0x0 PUSH1 0x20 DUP3 ADD SWAP1 POP PUSH2 0x1563 PUSH1 0x0 DUP4 ADD DUP5 PUSH2 0x1342 JUMP JUMPDEST SWAP3 SWAP2 POP POP JUMP JUMPDEST PUSH1 0x0 PUSH1 0x60 DUP3 ADD SWAP1 POP PUSH2 0x157E PUSH1 0x0 DUP4 ADD DUP7 PUSH2 0x1342 JUMP JUMPDEST PUSH2 0x158B PUSH1 0x20 DUP4 ADD DUP6 PUSH2 0x1342 JUMP JUMPDEST PUSH2 0x1598 PUSH1 0x40 DUP4 ADD DUP5 PUSH2 0x1528 JUMP JUMPDEST SWAP5 SWAP4 POP POP POP POP JUMP JUMPDEST PUSH1 0x0 PUSH1 0x40 DUP3 ADD SWAP1 POP PUSH2 0x15B5 PUSH1 0x0 DUP4 ADD DUP6 PUSH2 0x1342 JUMP JUMPDEST PUSH2 0x15C2 PUSH1 0x20 DUP4 ADD DUP5 PUSH2 0x1528 JUMP JUMPDEST SWAP4 SWAP3 POP POP POP JUMP JUMPDEST PUSH1 0x0 PUSH1 0x20 DUP3 ADD SWAP1 POP PUSH2 0x15DE PUSH1 0x0 DUP4 ADD DUP5 PUSH2 0x1351 JUMP JUMPDEST SWAP3 SWAP2 POP POP JUMP JUMPDEST PUSH1 0x0 PUSH1 0x20 DUP3 ADD SWAP1 POP DUP2 DUP2 SUB PUSH1 0x0 DUP4 ADD MSTORE PUSH2 0x15FE DUP2 DUP5 PUSH2 0x1391 JUMP JUMPDEST SWAP1 POP SWAP3 SWAP2 POP POP JUMP JUMPDEST PUSH1 0x0 PUSH1 0x20 DUP3 ADD SWAP1 POP DUP2 DUP2 SUB PUSH1 0x0 DUP4 ADD MSTORE PUSH2 0x161F DUP2 PUSH2 0x13CA JUMP JUMPDEST SWAP1 POP SWAP2 SWAP1 POP JUMP JUMPDEST PUSH1 0x0 PUSH1 0x20 DUP3 ADD SWAP1 POP DUP2 DUP2 SUB PUSH1 0x0 DUP4 ADD MSTORE PUSH2 0x163F DUP2 PUSH2 0x13ED JUMP JUMPDEST SWAP1 POP SWAP2 SWAP1 POP JUMP JUMPDEST PUSH1 0x0 PUSH1 0x20 DUP3 ADD SWAP1 POP DUP2 DUP2 SUB PUSH1 0x0 DUP4 ADD MSTORE PUSH2 0x165F DUP2 PUSH2 0x1410 JUMP JUMPDEST SWAP1 POP SWAP2 SWAP1 POP JUMP JUMPDEST PUSH1 0x0 PUSH1 0x20 DUP3 ADD SWAP1 POP DUP2 DUP2 SUB PUSH1 0x0 DUP4 ADD MSTORE PUSH2 0x167F DUP2 PUSH2 0x1433 JUMP JUMPDEST SWAP1 POP SWAP2 SWAP1 POP JUMP JUMPDEST PUSH1 0x0 PUSH1 0x20 DUP3 ADD SWAP1 POP DUP2 DUP2 SUB PUSH1 0x0 DUP4 ADD MSTORE PUSH2 0x169F DUP2 PUSH2 0x1456 JUMP JUMPDEST SWAP1 POP SWAP2 SWAP1 POP JUMP JUMPDEST PUSH1 0x0 PUSH1 0x20 DUP3 ADD SWAP1 POP DUP2 DUP2 SUB PUSH1 0x0 DUP4 ADD MSTORE PUSH2 0x16BF DUP2 PUSH2 0x1479 JUMP JUMPDEST SWAP1 POP SWAP2 SWAP1 POP JUMP JUMPDEST PUSH1 0x0 PUSH1 0x20 DUP3 ADD SWAP1 POP DUP2 DUP2 SUB PUSH1 0x0 DUP4 ADD MSTORE PUSH2 0x16DF DUP2 PUSH2 0x149C JUMP JUMPDEST SWAP1 POP SWAP2 SWAP1 POP JUMP JUMPDEST PUSH1 0x0 PUSH1 0x20 DUP3 ADD SWAP1 POP DUP2 DUP2 SUB PUSH1 0x0 DUP4 ADD MSTORE PUSH2 0x16FF DUP2 PUSH2 0x14BF JUMP JUMPDEST SWAP1 POP SWAP2 SWAP1 POP JUMP JUMPDEST PUSH1 0x0 PUSH1 0x20 DUP3 ADD SWAP1 POP DUP2 DUP2 SUB PUSH1 0x0 DUP4 ADD MSTORE PUSH2 0x171F DUP2 PUSH2 0x14E2 JUMP JUMPDEST SWAP1 POP SWAP2 SWAP1 POP JUMP JUMPDEST PUSH1 0x0 PUSH1 0x20 DUP3 ADD SWAP1 POP DUP2 DUP2 SUB PUSH1 0x0 DUP4 ADD MSTORE PUSH2 0x173F DUP2 PUSH2 0x1505 JUMP JUMPDEST SWAP1 POP SWAP2 SWAP1 POP JUMP JUMPDEST PUSH1 0x0 PUSH1 0x20 DUP3 ADD SWAP1 POP PUSH2 0x175B PUSH1 0x0 DUP4 ADD DUP5 PUSH2 0x1528 JUMP JUMPDEST SWAP3 SWAP2 POP POP JUMP JUMPDEST PUSH1 0x0 DUP2 MLOAD SWAP1 POP SWAP2 SWAP1 POP JUMP JUMPDEST PUSH1 0x0 DUP2 MLOAD SWAP1 POP SWAP2 SWAP1 POP JUMP JUMPDEST PUSH1 0x0 DUP2 SWAP1 POP SWAP3 SWAP2 POP POP JUMP JUMPDEST PUSH1 0x0 DUP3 DUP3 MSTORE PUSH1 0x20 DUP3 ADD SWAP1 POP SWAP3 SWAP2 POP POP JUMP JUMPDEST PUSH1 0x0 PUSH2 0x179E DUP3 PUSH2 0x18B5 JUMP JUMPDEST SWAP2 POP PUSH2 0x17A9 DUP4 PUSH2 0x18B5 JUMP JUMPDEST SWAP3 POP DUP3 PUSH32 0xFFFFFFFFFFFFFFFFFFFFFFFFFFFFFFFFFFFFFFFFFFFFFFFFFFFFFFFFFFFFFFFF SUB DUP3 GT ISZERO PUSH2 0x17DE JUMPI PUSH2 0x17DD PUSH2 0x18F2 JUMP JUMPDEST JUMPDEST DUP3 DUP3 ADD SWAP1 POP SWAP3 SWAP2 POP POP JUMP JUMPDEST PUSH1 0x0 PUSH2 0x17F4 DUP3 PUSH2 0x18B5 JUMP JUMPDEST SWAP2 POP PUSH2 0x17FF DUP4 PUSH2 0x18B5 JUMP JUMPDEST SWAP3 POP DUP2 PUSH32 0xFFFFFFFFFFFFFFFFFFFFFFFFFFFFFFFFFFFFFFFFFFFFFFFFFFFFFFFFFFFFFFFF DIV DUP4 GT DUP3 ISZERO ISZERO AND ISZERO PUSH2 0x1838 JUMPI PUSH2 0x1837 PUSH2 0x18F2 JUMP JUMPDEST JUMPDEST DUP3 DUP3 MUL SWAP1 POP SWAP3 SWAP2 POP POP JUMP JUMPDEST PUSH1 0x0 PUSH2 0x184E DUP3 PUSH2 0x18B5 JUMP JUMPDEST SWAP2 POP PUSH2 0x1859 DUP4 PUSH2 0x18B5 JUMP JUMPDEST SWAP3 POP DUP3 DUP3 LT ISZERO PUSH2 0x186C JUMPI PUSH2 0x186B PUSH2 0x18F2 JUMP JUMPDEST JUMPDEST DUP3 DUP3 SUB SWAP1 POP SWAP3 SWAP2 POP POP JUMP JUMPDEST PUSH1 0x0 PUSH2 0x1882 DUP3 PUSH2 0x1895 JUMP JUMPDEST SWAP1 POP SWAP2 SWAP1 POP JUMP JUMPDEST PUSH1 0x0 DUP2 ISZERO ISZERO SWAP1 POP SWAP2 SWAP1 POP JUMP JUMPDEST PUSH1 0x0 PUSH20 0xFFFFFFFFFFFFFFFFFFFFFFFFFFFFFFFFFFFFFFFF DUP3 AND SWAP1 POP SWAP2 SWAP1 POP JUMP JUMPDEST PUSH1 0x0 DUP2 SWAP1 POP SWAP2 SWAP1 POP JUMP JUMPDEST PUSH1 0x0 JUMPDEST DUP4 DUP2 LT ISZERO PUSH2 0x18DD JUMPI DUP1 DUP3 ADD MLOAD DUP2 DUP5 ADD MSTORE PUSH1 0x20 DUP2 ADD SWAP1 POP PUSH2 0x18C2 JUMP JUMPDEST DUP4 DUP2 GT ISZERO PUSH2 0x18EC JUMPI PUSH1 0x0 DUP5 DUP5 ADD MSTORE JUMPDEST POP POP POP POP JUMP JUMPDEST PUSH32 0x4E487B7100000000000000000000000000000000000000000000000000000000 PUSH1 0x0 MSTORE PUSH1 0x11 PUSH1 0x4 MSTORE PUSH1 0x24 PUSH1 0x0 REVERT JUMPDEST PUSH1 0x0 DUP1 REVERT JUMPDEST PUSH1 0x0 PUSH1 0x1F NOT PUSH1 0x1F DUP4 ADD AND SWAP1 POP SWAP2 SWAP1 POP JUMP JUMPDEST PUSH32 0x596F7520646F6E74206861766520656E6F7567687420746F6B656E20746F2072 PUSH1 0x0 DUP3 ADD MSTORE PUSH32 0x657475726E000000000000000000000000000000000000000000000000000000 PUSH1 0x20 DUP3 ADD MSTORE POP JUMP JUMPDEST PUSH32 0x4F776E61626C653A206E6577206F776E657220697320746865207A65726F2061 PUSH1 0x0 DUP3 ADD MSTORE PUSH32 0x6464726573730000000000000000000000000000000000000000000000000000 PUSH1 0x20 DUP3 ADD MSTORE POP JUMP JUMPDEST PUSH32 0x53616C652068617320656E646564000000000000000000000000000000000000 PUSH1 0x0 DUP3 ADD MSTORE POP JUMP JUMPDEST PUSH32 0x416464726573733A20696E73756666696369656E742062616C616E636520666F PUSH1 0x0 DUP3 ADD MSTORE PUSH32 0x722063616C6C0000000000000000000000000000000000000000000000000000 PUSH1 0x20 DUP3 ADD MSTORE POP JUMP JUMPDEST PUSH32 0x4F776E61626C653A2063616C6C6572206973206E6F7420746865206F776E6572 PUSH1 0x0 DUP3 ADD MSTORE POP JUMP JUMPDEST PUSH32 0x53616C65206861736E2774207374617274656420796574000000000000000000 PUSH1 0x0 DUP3 ADD MSTORE POP JUMP JUMPDEST PUSH32 0x53616C65206861736E277420656E646564000000000000000000000000000000 PUSH1 0x0 DUP3 ADD MSTORE POP JUMP JUMPDEST PUSH32 0x416464726573733A2063616C6C20746F206E6F6E2D636F6E7472616374000000 PUSH1 0x0 DUP3 ADD MSTORE POP JUMP JUMPDEST PUSH32 0x4E6F7420656E6F75676820746F6B656E20746F2072657475726E000000000000 PUSH1 0x0 DUP3 ADD MSTORE POP JUMP JUMPDEST PUSH32 0x5361666545524332303A204552433230206F7065726174696F6E20646964206E PUSH1 0x0 DUP3 ADD MSTORE PUSH32 0x6F74207375636365656400000000000000000000000000000000000000000000 PUSH1 0x20 DUP3 ADD MSTORE POP JUMP JUMPDEST PUSH2 0x1B72 DUP2 PUSH2 0x1877 JUMP JUMPDEST DUP2 EQ PUSH2 0x1B7D JUMPI PUSH1 0x0 DUP1 REVERT JUMPDEST POP JUMP JUMPDEST PUSH2 0x1B89 DUP2 PUSH2 0x1889 JUMP JUMPDEST DUP2 EQ PUSH2 0x1B94 JUMPI PUSH1 0x0 DUP1 REVERT JUMPDEST POP JUMP JUMPDEST PUSH2 0x1BA0 DUP2 PUSH2 0x18B5 JUMP JUMPDEST DUP2 EQ PUSH2 0x1BAB JUMPI PUSH1 0x0 DUP1 REVERT JUMPDEST POP JUMP INVALID LOG2 PUSH5 0x6970667358 0x22 SLT KECCAK256 PUSH4 0x6286AE46 0xC3 MUL 0x26 0x5E CALLCODE PUSH31 0x45F83C388494CA0C62F0568780C989E1B23F8168CC64736F6C634300080700 CALLER "
				},
				"gasEstimates": {
					"creation": {
						"codeDepositCost": "1428000",
						"executionCost": "infinite",
						"totalCost": "infinite"
					},
					"external": {
						"Return(uint256)": "infinite",
						"_usdcInstance()": "2559",
						"bala(address)": "infinite",
						"claim()": "infinite",
						"getOwner()": "2602",
						"getRecord(address)": "2908",
						"owner()": "2589",
						"purchase(uint256)": "infinite",
						"renounceOwnership()": "30397",
						"saleEnd()": "2481",
						"saleStart()": "2459",
						"tokenAddress()": "2611",
						"transferOwnership(address)": "30811",
						"updateSaleEndTime(uint256)": "24849",
						"updateSaleStartTime(uint256)": "24806",
						"withdraw(address)": "infinite"
					}
				},
				"methodIdentifiers": {
					"Return(uint256)": "336bea1c",
					"_usdcInstance()": "61778592",
					"bala(address)": "24076451",
					"claim()": "4e71d92d",
					"getOwner()": "893d20e8",
					"getRecord(address)": "617fba04",
					"owner()": "8da5cb5b",
					"purchase(uint256)": "efef39a1",
					"renounceOwnership()": "715018a6",
					"saleEnd()": "c10b9358",
					"saleStart()": "ab0bcc41",
					"tokenAddress()": "9d76ea58",
					"transferOwnership(address)": "f2fde38b",
					"updateSaleEndTime(uint256)": "6f9c6149",
					"updateSaleStartTime(uint256)": "295e4edf",
					"withdraw(address)": "51cff8d9"
				}
			},
			"storageLayout": {
				"storage": [
					{
						"astId": 7,
						"contract": "contracts/TokenSale.sol:TokenSale",
						"label": "_owner",
						"offset": 0,
						"slot": "0",
						"type": "t_address"
					},
					{
						"astId": 824,
						"contract": "contracts/TokenSale.sol:TokenSale",
						"label": "_tokenAddress",
						"offset": 0,
						"slot": "1",
						"type": "t_address"
					},
					{
						"astId": 826,
						"contract": "contracts/TokenSale.sol:TokenSale",
						"label": "_saleStart",
						"offset": 0,
						"slot": "2",
						"type": "t_uint256"
					},
					{
						"astId": 828,
						"contract": "contracts/TokenSale.sol:TokenSale",
						"label": "_saleEnd",
						"offset": 0,
						"slot": "3",
						"type": "t_uint256"
					},
					{
						"astId": 830,
						"contract": "contracts/TokenSale.sol:TokenSale",
						"label": "_usdcInstance",
						"offset": 0,
						"slot": "4",
						"type": "t_address"
					},
					{
						"astId": 834,
						"contract": "contracts/TokenSale.sol:TokenSale",
						"label": "record",
						"offset": 0,
						"slot": "5",
						"type": "t_mapping(t_address,t_uint256)"
					}
				],
				"types": {
					"t_address": {
						"encoding": "inplace",
						"label": "address",
						"numberOfBytes": "20"
					},
					"t_mapping(t_address,t_uint256)": {
						"encoding": "mapping",
						"key": "t_address",
						"label": "mapping(address => uint256)",
						"numberOfBytes": "32",
						"value": "t_uint256"
					},
					"t_uint256": {
						"encoding": "inplace",
						"label": "uint256",
						"numberOfBytes": "32"
					}
				}
			},
			"userdoc": {
				"kind": "user",
				"methods": {},
				"version": 1
			}
		}
	}
}