{
	"contracts/Usdc.sol": {
		"USDC": {
			"abi": [
				{
					"inputs": [],
					"stateMutability": "nonpayable",
					"type": "constructor"
				},
				{
					"anonymous": false,
					"inputs": [
						{
							"indexed": true,
							"internalType": "address",
							"name": "owner",
							"type": "address"
						},
						{
							"indexed": true,
							"internalType": "address",
							"name": "spender",
							"type": "address"
						},
						{
							"indexed": false,
							"internalType": "uint256",
							"name": "value",
							"type": "uint256"
						}
					],
					"name": "Approval",
					"type": "event"
				},
				{
					"anonymous": false,
					"inputs": [
						{
							"indexed": true,
							"internalType": "address",
							"name": "previousOwner",
							"type": "address"
						},
						{
							"indexed": true,
							"internalType": "address",
							"name": "newOwner",
							"type": "address"
						}
					],
					"name": "OwnershipTransferred",
					"type": "event"
				},
				{
					"anonymous": false,
					"inputs": [
						{
							"indexed": true,
							"internalType": "address",
							"name": "from",
							"type": "address"
						},
						{
							"indexed": true,
							"internalType": "address",
							"name": "to",
							"type": "address"
						},
						{
							"indexed": false,
							"internalType": "uint256",
							"name": "value",
							"type": "uint256"
						}
					],
					"name": "Transfer",
					"type": "event"
				},
				{
					"inputs": [
						{
							"internalType": "address",
							"name": "tokenOwner",
							"type": "address"
						},
						{
							"internalType": "address",
							"name": "spender",
							"type": "address"
						}
					],
					"name": "allowance",
					"outputs": [
						{
							"internalType": "uint256",
							"name": "remaining",
							"type": "uint256"
						}
					],
					"stateMutability": "view",
					"type": "function"
				},
				{
					"inputs": [
						{
							"internalType": "address",
							"name": "_spender",
							"type": "address"
						},
						{
							"internalType": "uint256",
							"name": "_amount",
							"type": "uint256"
						}
					],
					"name": "approve",
					"outputs": [
						{
							"internalType": "bool",
							"name": "",
							"type": "bool"
						}
					],
					"stateMutability": "nonpayable",
					"type": "function"
				},
				{
					"inputs": [
						{
							"internalType": "address payable",
							"name": "_spender",
							"type": "address"
						},
						{
							"internalType": "uint256",
							"name": "_amount",
							"type": "uint256"
						}
					],
					"name": "approves",
					"outputs": [
						{
							"internalType": "address",
							"name": "",
							"type": "address"
						},
						{
							"internalType": "uint256",
							"name": "",
							"type": "uint256"
						},
						{
							"internalType": "address",
							"name": "",
							"type": "address"
						}
					],
					"stateMutability": "nonpayable",
					"type": "function"
				},
				{
					"inputs": [
						{
							"internalType": "address",
							"name": "tokenOwner",
							"type": "address"
						}
					],
					"name": "balanceOf",
					"outputs": [
						{
							"internalType": "uint256",
							"name": "balance",
							"type": "uint256"
						}
					],
					"stateMutability": "view",
					"type": "function"
				},
				{
					"inputs": [],
					"name": "decimals",
					"outputs": [
						{
							"internalType": "uint8",
							"name": "",
							"type": "uint8"
						}
					],
					"stateMutability": "view",
					"type": "function"
				},
				{
					"inputs": [
						{
							"internalType": "address",
							"name": "_spender",
							"type": "address"
						},
						{
							"internalType": "uint256",
							"name": "_amount",
							"type": "uint256"
						}
					],
					"name": "decreaseAllowance",
					"outputs": [
						{
							"internalType": "bool",
							"name": "",
							"type": "bool"
						}
					],
					"stateMutability": "nonpayable",
					"type": "function"
				},
				{
					"inputs": [],
					"name": "getOwner",
					"outputs": [
						{
							"internalType": "address",
							"name": "",
							"type": "address"
						}
					],
					"stateMutability": "view",
					"type": "function"
				},
				{
					"inputs": [
						{
							"internalType": "address",
							"name": "_spender",
							"type": "address"
						},
						{
							"internalType": "uint256",
							"name": "_amount",
							"type": "uint256"
						}
					],
					"name": "increaseAllowance",
					"outputs": [
						{
							"internalType": "bool",
							"name": "",
							"type": "bool"
						}
					],
					"stateMutability": "nonpayable",
					"type": "function"
				},
				{
					"inputs": [],
					"name": "name",
					"outputs": [
						{
							"internalType": "string",
							"name": "",
							"type": "string"
						}
					],
					"stateMutability": "view",
					"type": "function"
				},
				{
					"inputs": [],
					"name": "owner",
					"outputs": [
						{
							"internalType": "address",
							"name": "",
							"type": "address"
						}
					],
					"stateMutability": "view",
					"type": "function"
				},
				{
					"inputs": [],
					"name": "renounceOwnership",
					"outputs": [],
					"stateMutability": "nonpayable",
					"type": "function"
				},
				{
					"inputs": [],
					"name": "symbol",
					"outputs": [
						{
							"internalType": "string",
							"name": "",
							"type": "string"
						}
					],
					"stateMutability": "view",
					"type": "function"
				},
				{
					"inputs": [],
					"name": "totalSupply",
					"outputs": [
						{
							"internalType": "uint256",
							"name": "",
							"type": "uint256"
						}
					],
					"stateMutability": "view",
					"type": "function"
				},
				{
					"inputs": [
						{
							"internalType": "address",
							"name": "_to",
							"type": "address"
						},
						{
							"internalType": "uint256",
							"name": "_amount",
							"type": "uint256"
						}
					],
					"name": "transfer",
					"outputs": [
						{
							"internalType": "bool",
							"name": "success",
							"type": "bool"
						}
					],
					"stateMutability": "nonpayable",
					"type": "function"
				},
				{
					"inputs": [
						{
							"internalType": "address",
							"name": "_from",
							"type": "address"
						},
						{
							"internalType": "address",
							"name": "_to",
							"type": "address"
						},
						{
							"internalType": "uint256",
							"name": "_amount",
							"type": "uint256"
						}
					],
					"name": "transferFrom",
					"outputs": [
						{
							"internalType": "bool",
							"name": "success",
							"type": "bool"
						}
					],
					"stateMutability": "nonpayable",
					"type": "function"
				},
				{
					"inputs": [
						{
							"internalType": "address",
							"name": "newOwner",
							"type": "address"
						}
					],
					"name": "transferOwnership",
					"outputs": [],
					"stateMutability": "nonpayable",
					"type": "function"
				}
			],
			"devdoc": {
				"kind": "dev",
				"methods": {
					"owner()": {
						"details": "Returns the address of the current owner."
					},
					"renounceOwnership()": {
						"details": "Leaves the contract without owner. It will not be possible to call `onlyOwner` functions anymore. Can only be called by the current owner. NOTE: Renouncing ownership will leave the contract without an owner, thereby removing any functionality that is only available to the owner."
					},
					"totalSupply()": {
						"details": "Returns the amount of tokens in existence."
					},
					"transferOwnership(address)": {
						"details": "Transfers ownership of the contract to a new account (`newOwner`). Can only be called by the current owner."
					}
				},
				"version": 1
			},
			"evm": {
				"assembly": "    /* \"contracts/Usdc.sol\":174:4174  contract USDC is IERC20 , Ownable  {\r... */\n  mstore(0x40, 0x80)\n    /* \"contracts/Usdc.sol\":321:353  string private _tokenName=\"TEST\" */\n  mload(0x40)\n  dup1\n  0x40\n  add\n  0x40\n  mstore\n  dup1\n  0x04\n  dup2\n  mstore\n  0x20\n  add\n  0x5445535400000000000000000000000000000000000000000000000000000000\n  dup2\n  mstore\n  pop\n  0x03\n  swap1\n  dup1\n  mload\n  swap1\n  0x20\n  add\n  swap1\n  tag_1\n  swap3\n  swap2\n  swap1\n  tag_2\n  jump\t// in\ntag_1:\n  pop\n    /* \"contracts/Usdc.sol\":358:390  string private _tokenSymbol=\"TT\" */\n  mload(0x40)\n  dup1\n  0x40\n  add\n  0x40\n  mstore\n  dup1\n  0x02\n  dup2\n  mstore\n  0x20\n  add\n  0x5454000000000000000000000000000000000000000000000000000000000000\n  dup2\n  mstore\n  pop\n  0x04\n  swap1\n  dup1\n  mload\n  swap1\n  0x20\n  add\n  swap1\n  tag_3\n  swap3\n  swap2\n  swap1\n  tag_2\n  jump\t// in\ntag_3:\n  pop\n    /* \"contracts/Usdc.sol\":419:421  18 */\n  0x12\n    /* \"contracts/Usdc.sol\":395:421  uint8 private _decimals=18 */\n  0x05\n  exp(0x0100, 0x00)\n  dup2\n  sload\n  dup2\n  0xff\n  mul\n  not\n  and\n  swap1\n  dup4\n  0xff\n  and\n  mul\n  or\n  swap1\n  sstore\n  pop\n    /* \"contracts/Usdc.sol\":455:478  10000000000000000000000 */\n  0x021e19e0c9bab2400000\n    /* \"contracts/Usdc.sol\":426:478  uint256 private _totalSupply=10000000000000000000000 */\n  0x06\n  sstore\n    /* \"contracts/Usdc.sol\":485:545  constructor(){\r... */\n  callvalue\n  dup1\n  iszero\n  tag_4\n  jumpi\n  0x00\n  dup1\n  revert\ntag_4:\n  pop\n    /* \"@openzeppelin/contracts/access/Ownable.sol\":921:953  _transferOwnership(_msgSender()) */\n  tag_8\n    /* \"@openzeppelin/contracts/access/Ownable.sol\":940:952  _msgSender() */\n  tag_9\n    /* \"@openzeppelin/contracts/access/Ownable.sol\":940:950  _msgSender */\n  shl(0x20, tag_10)\n    /* \"@openzeppelin/contracts/access/Ownable.sol\":940:952  _msgSender() */\n  0x20\n  shr\n  jump\t// in\ntag_9:\n    /* \"@openzeppelin/contracts/access/Ownable.sol\":921:939  _transferOwnership */\n  shl(0x20, tag_11)\n    /* \"@openzeppelin/contracts/access/Ownable.sol\":921:953  _transferOwnership(_msgSender()) */\n  0x20\n  shr\n  jump\t// in\ntag_8:\n    /* \"contracts/Usdc.sol\":527:539  _totalSupply */\n  sload(0x06)\n    /* \"contracts/Usdc.sol\":507:516  _balances */\n  0x01\n    /* \"contracts/Usdc.sol\":507:525  _balances[owner()] */\n  0x00\n    /* \"contracts/Usdc.sol\":517:524  owner() */\n  tag_13\n    /* \"contracts/Usdc.sol\":517:522  owner */\n  shl(0x20, tag_14)\n    /* \"contracts/Usdc.sol\":517:524  owner() */\n  0x20\n  shr\n  jump\t// in\ntag_13:\n    /* \"contracts/Usdc.sol\":507:525  _balances[owner()] */\n  0xffffffffffffffffffffffffffffffffffffffff\n  and\n  0xffffffffffffffffffffffffffffffffffffffff\n  and\n  dup2\n  mstore\n  0x20\n  add\n  swap1\n  dup2\n  mstore\n  0x20\n  add\n  0x00\n  keccak256\n    /* \"contracts/Usdc.sol\":507:539  _balances[owner()]= _totalSupply */\n  dup2\n  swap1\n  sstore\n  pop\n    /* \"contracts/Usdc.sol\":174:4174  contract USDC is IERC20 , Ownable  {\r... */\n  jump(tag_15)\n    /* \"@openzeppelin/contracts/utils/Context.sol\":640:736  function _msgSender() internal view virtual returns (address) {... */\ntag_10:\n    /* \"@openzeppelin/contracts/utils/Context.sol\":693:700  address */\n  0x00\n    /* \"@openzeppelin/contracts/utils/Context.sol\":719:729  msg.sender */\n  caller\n    /* \"@openzeppelin/contracts/utils/Context.sol\":712:729  return msg.sender */\n  swap1\n  pop\n    /* \"@openzeppelin/contracts/utils/Context.sol\":640:736  function _msgSender() internal view virtual returns (address) {... */\n  swap1\n  jump\t// out\n    /* \"@openzeppelin/contracts/access/Ownable.sol\":2270:2457  function _transferOwnership(address newOwner) internal virtual {... */\ntag_11:\n    /* \"@openzeppelin/contracts/access/Ownable.sol\":2343:2359  address oldOwner */\n  0x00\n    /* \"@openzeppelin/contracts/access/Ownable.sol\":2362:2368  _owner */\n  dup1\n  0x00\n  swap1\n  sload\n  swap1\n  0x0100\n  exp\n  swap1\n  div\n  0xffffffffffffffffffffffffffffffffffffffff\n  and\n    /* \"@openzeppelin/contracts/access/Ownable.sol\":2343:2368  address oldOwner = _owner */\n  swap1\n  pop\n    /* \"@openzeppelin/contracts/access/Ownable.sol\":2387:2395  newOwner */\n  dup2\n    /* \"@openzeppelin/contracts/access/Ownable.sol\":2378:2384  _owner */\n  0x00\n  dup1\n    /* \"@openzeppelin/contracts/access/Ownable.sol\":2378:2395  _owner = newOwner */\n  0x0100\n  exp\n  dup2\n  sload\n  dup2\n  0xffffffffffffffffffffffffffffffffffffffff\n  mul\n  not\n  and\n  swap1\n  dup4\n  0xffffffffffffffffffffffffffffffffffffffff\n  and\n  mul\n  or\n  swap1\n  sstore\n  pop\n    /* \"@openzeppelin/contracts/access/Ownable.sol\":2441:2449  newOwner */\n  dup2\n    /* \"@openzeppelin/contracts/access/Ownable.sol\":2410:2450  OwnershipTransferred(oldOwner, newOwner) */\n  0xffffffffffffffffffffffffffffffffffffffff\n  and\n    /* \"@openzeppelin/contracts/access/Ownable.sol\":2431:2439  oldOwner */\n  dup2\n    /* \"@openzeppelin/contracts/access/Ownable.sol\":2410:2450  OwnershipTransferred(oldOwner, newOwner) */\n  0xffffffffffffffffffffffffffffffffffffffff\n  and\n  0x8be0079c531659141344cd1fd0a4f28419497f9722a3daafe3b4186f6b6457e0\n  mload(0x40)\n  mload(0x40)\n  dup1\n  swap2\n  sub\n  swap1\n  log3\n    /* \"@openzeppelin/contracts/access/Ownable.sol\":2333:2457  {... */\n  pop\n    /* \"@openzeppelin/contracts/access/Ownable.sol\":2270:2457  function _transferOwnership(address newOwner) internal virtual {... */\n  pop\n  jump\t// out\n    /* \"@openzeppelin/contracts/access/Ownable.sol\":1036:1121  function owner() public view virtual returns (address) {... */\ntag_14:\n    /* \"@openzeppelin/contracts/access/Ownable.sol\":1082:1089  address */\n  0x00\n    /* \"@openzeppelin/contracts/access/Ownable.sol\":1108:1114  _owner */\n  dup1\n  0x00\n  swap1\n  sload\n  swap1\n  0x0100\n  exp\n  swap1\n  div\n  0xffffffffffffffffffffffffffffffffffffffff\n  and\n    /* \"@openzeppelin/contracts/access/Ownable.sol\":1101:1114  return _owner */\n  swap1\n  pop\n    /* \"@openzeppelin/contracts/access/Ownable.sol\":1036:1121  function owner() public view virtual returns (address) {... */\n  swap1\n  jump\t// out\n    /* \"contracts/Usdc.sol\":174:4174  contract USDC is IERC20 , Ownable  {\r... */\ntag_2:\n  dup3\n  dup1\n  sload\n  tag_19\n  swap1\n  tag_20\n  jump\t// in\ntag_19:\n  swap1\n  0x00\n  mstore\n  keccak256(0x00, 0x20)\n  swap1\n  0x1f\n  add\n  0x20\n  swap1\n  div\n  dup2\n  add\n  swap3\n  dup3\n  tag_22\n  jumpi\n  0x00\n  dup6\n  sstore\n  jump(tag_21)\ntag_22:\n  dup3\n  0x1f\n  lt\n  tag_23\n  jumpi\n  dup1\n  mload\n  not(0xff)\n  and\n  dup4\n  dup1\n  add\n  or\n  dup6\n  sstore\n  jump(tag_21)\ntag_23:\n  dup3\n  dup1\n  add\n  0x01\n  add\n  dup6\n  sstore\n  dup3\n  iszero\n  tag_21\n  jumpi\n  swap2\n  dup3\n  add\ntag_24:\n  dup3\n  dup2\n  gt\n  iszero\n  tag_25\n  jumpi\n  dup3\n  mload\n  dup3\n  sstore\n  swap2\n  0x20\n  add\n  swap2\n  swap1\n  0x01\n  add\n  swap1\n  jump(tag_24)\ntag_25:\ntag_21:\n  pop\n  swap1\n  pop\n  tag_26\n  swap2\n  swap1\n  tag_27\n  jump\t// in\ntag_26:\n  pop\n  swap1\n  jump\t// out\ntag_27:\ntag_28:\n  dup1\n  dup3\n  gt\n  iszero\n  tag_29\n  jumpi\n  0x00\n  dup2\n  0x00\n  swap1\n  sstore\n  pop\n  0x01\n  add\n  jump(tag_28)\ntag_29:\n  pop\n  swap1\n  jump\t// out\n    /* \"#utility.yul\":7:327   */\ntag_20:\n    /* \"#utility.yul\":51:57   */\n  0x00\n    /* \"#utility.yul\":88:89   */\n  0x02\n    /* \"#utility.yul\":82:86   */\n  dup3\n    /* \"#utility.yul\":78:90   */\n  div\n    /* \"#utility.yul\":68:90   */\n  swap1\n  pop\n    /* \"#utility.yul\":135:136   */\n  0x01\n    /* \"#utility.yul\":129:133   */\n  dup3\n    /* \"#utility.yul\":125:137   */\n  and\n    /* \"#utility.yul\":156:174   */\n  dup1\n    /* \"#utility.yul\":146:227   */\n  tag_32\n  jumpi\n    /* \"#utility.yul\":212:216   */\n  0x7f\n    /* \"#utility.yul\":204:210   */\n  dup3\n    /* \"#utility.yul\":200:217   */\n  and\n    /* \"#utility.yul\":190:217   */\n  swap2\n  pop\n    /* \"#utility.yul\":146:227   */\ntag_32:\n    /* \"#utility.yul\":274:276   */\n  0x20\n    /* \"#utility.yul\":266:272   */\n  dup3\n    /* \"#utility.yul\":263:277   */\n  lt\n    /* \"#utility.yul\":243:261   */\n  dup2\n    /* \"#utility.yul\":240:278   */\n  eq\n    /* \"#utility.yul\":237:321   */\n  iszero\n  tag_33\n  jumpi\n    /* \"#utility.yul\":293:311   */\n  tag_34\n  tag_35\n  jump\t// in\ntag_34:\n    /* \"#utility.yul\":237:321   */\ntag_33:\n    /* \"#utility.yul\":58:327   */\n  pop\n    /* \"#utility.yul\":7:327   */\n  swap2\n  swap1\n  pop\n  jump\t// out\n    /* \"#utility.yul\":333:513   */\ntag_35:\n    /* \"#utility.yul\":381:458   */\n  0x4e487b7100000000000000000000000000000000000000000000000000000000\n    /* \"#utility.yul\":378:379   */\n  0x00\n    /* \"#utility.yul\":371:459   */\n  mstore\n    /* \"#utility.yul\":478:482   */\n  0x22\n    /* \"#utility.yul\":475:476   */\n  0x04\n    /* \"#utility.yul\":468:483   */\n  mstore\n    /* \"#utility.yul\":502:506   */\n  0x24\n    /* \"#utility.yul\":499:500   */\n  0x00\n    /* \"#utility.yul\":492:507   */\n  revert\n    /* \"contracts/Usdc.sol\":174:4174  contract USDC is IERC20 , Ownable  {\r... */\ntag_15:\n  dataSize(sub_0)\n  dup1\n  dataOffset(sub_0)\n  0x00\n  codecopy\n  0x00\n  return\nstop\n\nsub_0: assembly {\n        /* \"contracts/Usdc.sol\":174:4174  contract USDC is IERC20 , Ownable  {\r... */\n      mstore(0x40, 0x80)\n      callvalue\n      dup1\n      iszero\n      tag_1\n      jumpi\n      0x00\n      dup1\n      revert\n    tag_1:\n      pop\n      jumpi(tag_2, lt(calldatasize, 0x04))\n      shr(0xe0, calldataload(0x00))\n      dup1\n      0x715018a6\n      gt\n      tag_19\n      jumpi\n      dup1\n      0xa457c2d7\n      gt\n      tag_20\n      jumpi\n      dup1\n      0xa457c2d7\n      eq\n      tag_15\n      jumpi\n      dup1\n      0xa9059cbb\n      eq\n      tag_16\n      jumpi\n      dup1\n      0xdd62ed3e\n      eq\n      tag_17\n      jumpi\n      dup1\n      0xf2fde38b\n      eq\n      tag_18\n      jumpi\n      jump(tag_2)\n    tag_20:\n      dup1\n      0x715018a6\n      eq\n      tag_11\n      jumpi\n      dup1\n      0x893d20e8\n      eq\n      tag_12\n      jumpi\n      dup1\n      0x8da5cb5b\n      eq\n      tag_13\n      jumpi\n      dup1\n      0x95d89b41\n      eq\n      tag_14\n      jumpi\n      jump(tag_2)\n    tag_19:\n      dup1\n      0x23b872dd\n      gt\n      tag_21\n      jumpi\n      dup1\n      0x23b872dd\n      eq\n      tag_7\n      jumpi\n      dup1\n      0x313ce567\n      eq\n      tag_8\n      jumpi\n      dup1\n      0x39509351\n      eq\n      tag_9\n      jumpi\n      dup1\n      0x70a08231\n      eq\n      tag_10\n      jumpi\n      jump(tag_2)\n    tag_21:\n      dup1\n      0x06fdde03\n      eq\n      tag_3\n      jumpi\n      dup1\n      0x095ea7b3\n      eq\n      tag_4\n      jumpi\n      dup1\n      0x120bd501\n      eq\n      tag_5\n      jumpi\n      dup1\n      0x18160ddd\n      eq\n      tag_6\n      jumpi\n    tag_2:\n      0x00\n      dup1\n      revert\n        /* \"contracts/Usdc.sol\":745:834  function name() public view virtual returns (string memory){\r... */\n    tag_3:\n      tag_22\n      tag_23\n      jump\t// in\n    tag_22:\n      mload(0x40)\n      tag_24\n      swap2\n      swap1\n      tag_25\n      jump\t// in\n    tag_24:\n      mload(0x40)\n      dup1\n      swap2\n      sub\n      swap1\n      return\n        /* \"contracts/Usdc.sol\":1728:1943  function approve(address _spender, uint256 _amount)\r... */\n    tag_4:\n      tag_26\n      0x04\n      dup1\n      calldatasize\n      sub\n      dup2\n      add\n      swap1\n      tag_27\n      swap2\n      swap1\n      tag_28\n      jump\t// in\n    tag_27:\n      tag_29\n      jump\t// in\n    tag_26:\n      mload(0x40)\n      tag_30\n      swap2\n      swap1\n      tag_31\n      jump\t// in\n    tag_30:\n      mload(0x40)\n      dup1\n      swap2\n      sub\n      swap1\n      return\n        /* \"contracts/Usdc.sol\":1947:2103  function approves(address payable _spender,uint256 _amount) public virtual returns(address,uint256,address){\r... */\n    tag_5:\n      tag_32\n      0x04\n      dup1\n      calldatasize\n      sub\n      dup2\n      add\n      swap1\n      tag_33\n      swap2\n      swap1\n      tag_34\n      jump\t// in\n    tag_33:\n      tag_35\n      jump\t// in\n    tag_32:\n      mload(0x40)\n      tag_36\n      swap4\n      swap3\n      swap2\n      swap1\n      tag_37\n      jump\t// in\n    tag_36:\n      mload(0x40)\n      dup1\n      swap2\n      sub\n      swap1\n      return\n        /* \"contracts/Usdc.sol\":553:654  function totalSupply() public view virtual override returns (uint256){\r... */\n    tag_6:\n      tag_38\n      tag_39\n      jump\t// in\n    tag_38:\n      mload(0x40)\n      tag_40\n      swap2\n      swap1\n      tag_41\n      jump\t// in\n    tag_40:\n      mload(0x40)\n      dup1\n      swap2\n      sub\n      swap1\n      return\n        /* \"contracts/Usdc.sol\":2109:2503  function transferFrom(\r... */\n    tag_7:\n      tag_42\n      0x04\n      dup1\n      calldatasize\n      sub\n      dup2\n      add\n      swap1\n      tag_43\n      swap2\n      swap1\n      tag_44\n      jump\t// in\n    tag_43:\n      tag_45\n      jump\t// in\n    tag_42:\n      mload(0x40)\n      tag_46\n      swap2\n      swap1\n      tag_31\n      jump\t// in\n    tag_46:\n      mload(0x40)\n      dup1\n      swap2\n      sub\n      swap1\n      return\n        /* \"contracts/Usdc.sol\":840:924  function decimals() public view virtual returns (uint8){\r... */\n    tag_8:\n      tag_47\n      tag_48\n      jump\t// in\n    tag_47:\n      mload(0x40)\n      tag_49\n      swap2\n      swap1\n      tag_50\n      jump\t// in\n    tag_49:\n      mload(0x40)\n      dup1\n      swap2\n      sub\n      swap1\n      return\n        /* \"contracts/Usdc.sol\":2509:2715  function increaseAllowance(address _spender,uint256 _amount) public virtual returns(bool){\r... */\n    tag_9:\n      tag_51\n      0x04\n      dup1\n      calldatasize\n      sub\n      dup2\n      add\n      swap1\n      tag_52\n      swap2\n      swap1\n      tag_28\n      jump\t// in\n    tag_52:\n      tag_53\n      jump\t// in\n    tag_51:\n      mload(0x40)\n      tag_54\n      swap2\n      swap1\n      tag_31\n      jump\t// in\n    tag_54:\n      mload(0x40)\n      dup1\n      swap2\n      sub\n      swap1\n      return\n        /* \"contracts/Usdc.sol\":1029:1206  function balanceOf(address tokenOwner)\r... */\n    tag_10:\n      tag_55\n      0x04\n      dup1\n      calldatasize\n      sub\n      dup2\n      add\n      swap1\n      tag_56\n      swap2\n      swap1\n      tag_57\n      jump\t// in\n    tag_56:\n      tag_58\n      jump\t// in\n    tag_55:\n      mload(0x40)\n      tag_59\n      swap2\n      swap1\n      tag_41\n      jump\t// in\n    tag_59:\n      mload(0x40)\n      dup1\n      swap2\n      sub\n      swap1\n      return\n        /* \"@openzeppelin/contracts/access/Ownable.sol\":1668:1769  function renounceOwnership() public virtual onlyOwner {... */\n    tag_11:\n      tag_60\n      tag_61\n      jump\t// in\n    tag_60:\n      stop\n        /* \"contracts/Usdc.sol\":662:739  function getOwner() public view returns(address){\r... */\n    tag_12:\n      tag_62\n      tag_63\n      jump\t// in\n    tag_62:\n      mload(0x40)\n      tag_64\n      swap2\n      swap1\n      tag_65\n      jump\t// in\n    tag_64:\n      mload(0x40)\n      dup1\n      swap2\n      sub\n      swap1\n      return\n        /* \"@openzeppelin/contracts/access/Ownable.sol\":1036:1121  function owner() public view virtual returns (address) {... */\n    tag_13:\n      tag_66\n      tag_67\n      jump\t// in\n    tag_66:\n      mload(0x40)\n      tag_68\n      swap2\n      swap1\n      tag_65\n      jump\t// in\n    tag_68:\n      mload(0x40)\n      dup1\n      swap2\n      sub\n      swap1\n      return\n        /* \"contracts/Usdc.sol\":930:1023  function symbol() public view virtual returns (string memory){\r... */\n    tag_14:\n      tag_69\n      tag_70\n      jump\t// in\n    tag_69:\n      mload(0x40)\n      tag_71\n      swap2\n      swap1\n      tag_25\n      jump\t// in\n    tag_71:\n      mload(0x40)\n      dup1\n      swap2\n      sub\n      swap1\n      return\n        /* \"contracts/Usdc.sol\":2721:3035  function decreaseAllowance(address _spender,uint256 _amount) public virtual returns(bool){\r... */\n    tag_15:\n      tag_72\n      0x04\n      dup1\n      calldatasize\n      sub\n      dup2\n      add\n      swap1\n      tag_73\n      swap2\n      swap1\n      tag_28\n      jump\t// in\n    tag_73:\n      tag_74\n      jump\t// in\n    tag_72:\n      mload(0x40)\n      tag_75\n      swap2\n      swap1\n      tag_31\n      jump\t// in\n    tag_75:\n      mload(0x40)\n      dup1\n      swap2\n      sub\n      swap1\n      return\n        /* \"contracts/Usdc.sol\":1427:1722  function transfer(address _to, uint256 _amount)\r... */\n    tag_16:\n      tag_76\n      0x04\n      dup1\n      calldatasize\n      sub\n      dup2\n      add\n      swap1\n      tag_77\n      swap2\n      swap1\n      tag_28\n      jump\t// in\n    tag_77:\n      tag_78\n      jump\t// in\n    tag_76:\n      mload(0x40)\n      tag_79\n      swap2\n      swap1\n      tag_31\n      jump\t// in\n    tag_79:\n      mload(0x40)\n      dup1\n      swap2\n      sub\n      swap1\n      return\n        /* \"contracts/Usdc.sol\":1214:1421  function allowance(address tokenOwner, address spender)\r... */\n    tag_17:\n      tag_80\n      0x04\n      dup1\n      calldatasize\n      sub\n      dup2\n      add\n      swap1\n      tag_81\n      swap2\n      swap1\n      tag_82\n      jump\t// in\n    tag_81:\n      tag_83\n      jump\t// in\n    tag_80:\n      mload(0x40)\n      tag_84\n      swap2\n      swap1\n      tag_41\n      jump\t// in\n    tag_84:\n      mload(0x40)\n      dup1\n      swap2\n      sub\n      swap1\n      return\n        /* \"@openzeppelin/contracts/access/Ownable.sol\":1918:2116  function transferOwnership(address newOwner) public virtual onlyOwner {... */\n    tag_18:\n      tag_85\n      0x04\n      dup1\n      calldatasize\n      sub\n      dup2\n      add\n      swap1\n      tag_86\n      swap2\n      swap1\n      tag_57\n      jump\t// in\n    tag_86:\n      tag_87\n      jump\t// in\n    tag_85:\n      stop\n        /* \"contracts/Usdc.sol\":745:834  function name() public view virtual returns (string memory){\r... */\n    tag_23:\n        /* \"contracts/Usdc.sol\":790:803  string memory */\n      0x60\n        /* \"contracts/Usdc.sol\":818:828  _tokenName */\n      0x03\n        /* \"contracts/Usdc.sol\":811:828  return _tokenName */\n      dup1\n      sload\n      tag_89\n      swap1\n      tag_90\n      jump\t// in\n    tag_89:\n      dup1\n      0x1f\n      add\n      0x20\n      dup1\n      swap2\n      div\n      mul\n      0x20\n      add\n      mload(0x40)\n      swap1\n      dup2\n      add\n      0x40\n      mstore\n      dup1\n      swap3\n      swap2\n      swap1\n      dup2\n      dup2\n      mstore\n      0x20\n      add\n      dup3\n      dup1\n      sload\n      tag_91\n      swap1\n      tag_90\n      jump\t// in\n    tag_91:\n      dup1\n      iszero\n      tag_92\n      jumpi\n      dup1\n      0x1f\n      lt\n      tag_93\n      jumpi\n      0x0100\n      dup1\n      dup4\n      sload\n      div\n      mul\n      dup4\n      mstore\n      swap2\n      0x20\n      add\n      swap2\n      jump(tag_92)\n    tag_93:\n      dup3\n      add\n      swap2\n      swap1\n      0x00\n      mstore\n      keccak256(0x00, 0x20)\n      swap1\n    tag_94:\n      dup2\n      sload\n      dup2\n      mstore\n      swap1\n      0x01\n      add\n      swap1\n      0x20\n      add\n      dup1\n      dup4\n      gt\n      tag_94\n      jumpi\n      dup3\n      swap1\n      sub\n      0x1f\n      and\n      dup3\n      add\n      swap2\n    tag_92:\n      pop\n      pop\n      pop\n      pop\n      pop\n      swap1\n      pop\n        /* \"contracts/Usdc.sol\":745:834  function name() public view virtual returns (string memory){\r... */\n      swap1\n      jump\t// out\n        /* \"contracts/Usdc.sol\":1728:1943  function approve(address _spender, uint256 _amount)\r... */\n    tag_29:\n        /* \"contracts/Usdc.sol\":1841:1845  bool */\n      0x00\n        /* \"contracts/Usdc.sol\":1857:1911  _approve(msg.sender, _spender, _amount* 10**_decimals) */\n      tag_96\n        /* \"contracts/Usdc.sol\":1866:1876  msg.sender */\n      caller\n        /* \"contracts/Usdc.sol\":1878:1886  _spender */\n      dup5\n        /* \"contracts/Usdc.sol\":1901:1910  _decimals */\n      0x05\n      0x00\n      swap1\n      sload\n      swap1\n      0x0100\n      exp\n      swap1\n      div\n      0xff\n      and\n        /* \"contracts/Usdc.sol\":1897:1899  10 */\n      0x0a\n        /* \"contracts/Usdc.sol\":1897:1910  10**_decimals */\n      tag_97\n      swap2\n      swap1\n      tag_98\n      jump\t// in\n    tag_97:\n        /* \"contracts/Usdc.sol\":1888:1895  _amount */\n      dup6\n        /* \"contracts/Usdc.sol\":1888:1910  _amount* 10**_decimals */\n      tag_99\n      swap2\n      swap1\n      tag_100\n      jump\t// in\n    tag_99:\n        /* \"contracts/Usdc.sol\":1857:1865  _approve */\n      tag_101\n        /* \"contracts/Usdc.sol\":1857:1911  _approve(msg.sender, _spender, _amount* 10**_decimals) */\n      jump\t// in\n    tag_96:\n        /* \"contracts/Usdc.sol\":1929:1933  true */\n      0x01\n        /* \"contracts/Usdc.sol\":1922:1933  return true */\n      swap1\n      pop\n        /* \"contracts/Usdc.sol\":1728:1943  function approve(address _spender, uint256 _amount)\r... */\n      swap3\n      swap2\n      pop\n      pop\n      jump\t// out\n        /* \"contracts/Usdc.sol\":1947:2103  function approves(address payable _spender,uint256 _amount) public virtual returns(address,uint256,address){\r... */\n    tag_35:\n        /* \"contracts/Usdc.sol\":2030:2037  address */\n      0x00\n        /* \"contracts/Usdc.sol\":2038:2045  uint256 */\n      dup1\n        /* \"contracts/Usdc.sol\":2046:2053  address */\n      0x00\n        /* \"contracts/Usdc.sol\":2069:2079  msg.sender */\n      caller\n        /* \"contracts/Usdc.sol\":2080:2087  _amount */\n      dup5\n        /* \"contracts/Usdc.sol\":2088:2096  _spender */\n      dup7\n        /* \"contracts/Usdc.sol\":2061:2097  return (msg.sender,_amount,_spender) */\n      swap3\n      pop\n      swap3\n      pop\n      swap3\n      pop\n        /* \"contracts/Usdc.sol\":1947:2103  function approves(address payable _spender,uint256 _amount) public virtual returns(address,uint256,address){\r... */\n      swap3\n      pop\n      swap3\n      pop\n      swap3\n      jump\t// out\n        /* \"contracts/Usdc.sol\":553:654  function totalSupply() public view virtual override returns (uint256){\r... */\n    tag_39:\n        /* \"contracts/Usdc.sol\":614:621  uint256 */\n      0x00\n        /* \"contracts/Usdc.sol\":636:648  _totalSupply */\n      sload(0x06)\n        /* \"contracts/Usdc.sol\":629:648  return _totalSupply */\n      swap1\n      pop\n        /* \"contracts/Usdc.sol\":553:654  function totalSupply() public view virtual override returns (uint256){\r... */\n      swap1\n      jump\t// out\n        /* \"contracts/Usdc.sol\":2109:2503  function transferFrom(\r... */\n    tag_45:\n        /* \"contracts/Usdc.sol\":2235:2247  bool success */\n      0x00\n        /* \"contracts/Usdc.sol\":2299:2308  _decimals */\n      0x05\n      0x00\n      swap1\n      sload\n      swap1\n      0x0100\n      exp\n      swap1\n      div\n      0xff\n      and\n        /* \"contracts/Usdc.sol\":2295:2297  10 */\n      0x0a\n        /* \"contracts/Usdc.sol\":2295:2308  10**_decimals */\n      tag_105\n      swap2\n      swap1\n      tag_98\n      jump\t// in\n    tag_105:\n        /* \"contracts/Usdc.sol\":2287:2294  _amount */\n      dup3\n        /* \"contracts/Usdc.sol\":2287:2308  _amount*10**_decimals */\n      tag_106\n      swap2\n      swap1\n      tag_100\n      jump\t// in\n    tag_106:\n        /* \"contracts/Usdc.sol\":2269:2278  _balances */\n      0x01\n        /* \"contracts/Usdc.sol\":2269:2285  _balances[_from] */\n      0x00\n        /* \"contracts/Usdc.sol\":2279:2284  _from */\n      dup7\n        /* \"contracts/Usdc.sol\":2269:2285  _balances[_from] */\n      0xffffffffffffffffffffffffffffffffffffffff\n      and\n      0xffffffffffffffffffffffffffffffffffffffff\n      and\n      dup2\n      mstore\n      0x20\n      add\n      swap1\n      dup2\n      mstore\n      0x20\n      add\n      0x00\n      keccak256\n      sload\n        /* \"contracts/Usdc.sol\":2269:2308  _balances[_from]>=_amount*10**_decimals */\n      lt\n      iszero\n        /* \"contracts/Usdc.sol\":2261:2334  require(_balances[_from]>=_amount*10**_decimals,\"Amount exceeds balance\") */\n      tag_107\n      jumpi\n      mload(0x40)\n      0x08c379a000000000000000000000000000000000000000000000000000000000\n      dup2\n      mstore\n      0x04\n      add\n      tag_108\n      swap1\n      tag_109\n      jump\t// in\n    tag_108:\n      mload(0x40)\n      dup1\n      swap2\n      sub\n      swap1\n      revert\n    tag_107:\n        /* \"contracts/Usdc.sol\":2384:2427  _spendAllowance(_from, msg.sender, _amount) */\n      tag_110\n        /* \"contracts/Usdc.sol\":2400:2405  _from */\n      dup5\n        /* \"contracts/Usdc.sol\":2407:2417  msg.sender */\n      caller\n        /* \"contracts/Usdc.sol\":2419:2426  _amount */\n      dup5\n        /* \"contracts/Usdc.sol\":2384:2399  _spendAllowance */\n      tag_111\n        /* \"contracts/Usdc.sol\":2384:2427  _spendAllowance(_from, msg.sender, _amount) */\n      jump\t// in\n    tag_110:\n        /* \"contracts/Usdc.sol\":2434:2479  _transfer(_from, _to, _amount *10**_decimals) */\n      tag_112\n        /* \"contracts/Usdc.sol\":2444:2449  _from */\n      dup5\n        /* \"contracts/Usdc.sol\":2451:2454  _to */\n      dup5\n        /* \"contracts/Usdc.sol\":2469:2478  _decimals */\n      0x05\n      0x00\n      swap1\n      sload\n      swap1\n      0x0100\n      exp\n      swap1\n      div\n      0xff\n      and\n        /* \"contracts/Usdc.sol\":2465:2467  10 */\n      0x0a\n        /* \"contracts/Usdc.sol\":2465:2478  10**_decimals */\n      tag_113\n      swap2\n      swap1\n      tag_98\n      jump\t// in\n    tag_113:\n        /* \"contracts/Usdc.sol\":2456:2463  _amount */\n      dup6\n        /* \"contracts/Usdc.sol\":2456:2478  _amount *10**_decimals */\n      tag_114\n      swap2\n      swap1\n      tag_100\n      jump\t// in\n    tag_114:\n        /* \"contracts/Usdc.sol\":2434:2443  _transfer */\n      tag_115\n        /* \"contracts/Usdc.sol\":2434:2479  _transfer(_from, _to, _amount *10**_decimals) */\n      jump\t// in\n    tag_112:\n        /* \"contracts/Usdc.sol\":2493:2497  true */\n      0x01\n        /* \"contracts/Usdc.sol\":2486:2497  return true */\n      swap1\n      pop\n        /* \"contracts/Usdc.sol\":2109:2503  function transferFrom(\r... */\n      swap4\n      swap3\n      pop\n      pop\n      pop\n      jump\t// out\n        /* \"contracts/Usdc.sol\":840:924  function decimals() public view virtual returns (uint8){\r... */\n    tag_48:\n        /* \"contracts/Usdc.sol\":889:894  uint8 */\n      0x00\n        /* \"contracts/Usdc.sol\":909:918  _decimals */\n      0x05\n      0x00\n      swap1\n      sload\n      swap1\n      0x0100\n      exp\n      swap1\n      div\n      0xff\n      and\n        /* \"contracts/Usdc.sol\":902:918  return _decimals */\n      swap1\n      pop\n        /* \"contracts/Usdc.sol\":840:924  function decimals() public view virtual returns (uint8){\r... */\n      swap1\n      jump\t// out\n        /* \"contracts/Usdc.sol\":2509:2715  function increaseAllowance(address _spender,uint256 _amount) public virtual returns(bool){\r... */\n    tag_53:\n        /* \"contracts/Usdc.sol\":2593:2597  bool */\n      0x00\n        /* \"contracts/Usdc.sol\":2605:2691  _approve(msg.sender, _spender, allowance(msg.sender,_spender)+_amount * 10**_decimals) */\n      tag_118\n        /* \"contracts/Usdc.sol\":2614:2624  msg.sender */\n      caller\n        /* \"contracts/Usdc.sol\":2626:2634  _spender */\n      dup5\n        /* \"contracts/Usdc.sol\":2681:2690  _decimals */\n      0x05\n      0x00\n      swap1\n      sload\n      swap1\n      0x0100\n      exp\n      swap1\n      div\n      0xff\n      and\n        /* \"contracts/Usdc.sol\":2677:2679  10 */\n      0x0a\n        /* \"contracts/Usdc.sol\":2677:2690  10**_decimals */\n      tag_119\n      swap2\n      swap1\n      tag_98\n      jump\t// in\n    tag_119:\n        /* \"contracts/Usdc.sol\":2667:2674  _amount */\n      dup6\n        /* \"contracts/Usdc.sol\":2667:2690  _amount * 10**_decimals */\n      tag_120\n      swap2\n      swap1\n      tag_100\n      jump\t// in\n    tag_120:\n        /* \"contracts/Usdc.sol\":2636:2666  allowance(msg.sender,_spender) */\n      tag_121\n        /* \"contracts/Usdc.sol\":2646:2656  msg.sender */\n      caller\n        /* \"contracts/Usdc.sol\":2657:2665  _spender */\n      dup9\n        /* \"contracts/Usdc.sol\":2636:2645  allowance */\n      tag_83\n        /* \"contracts/Usdc.sol\":2636:2666  allowance(msg.sender,_spender) */\n      jump\t// in\n    tag_121:\n        /* \"contracts/Usdc.sol\":2636:2690  allowance(msg.sender,_spender)+_amount * 10**_decimals */\n      tag_122\n      swap2\n      swap1\n      tag_123\n      jump\t// in\n    tag_122:\n        /* \"contracts/Usdc.sol\":2605:2613  _approve */\n      tag_101\n        /* \"contracts/Usdc.sol\":2605:2691  _approve(msg.sender, _spender, allowance(msg.sender,_spender)+_amount * 10**_decimals) */\n      jump\t// in\n    tag_118:\n        /* \"contracts/Usdc.sol\":2705:2709  true */\n      0x01\n        /* \"contracts/Usdc.sol\":2698:2709  return true */\n      swap1\n      pop\n        /* \"contracts/Usdc.sol\":2509:2715  function increaseAllowance(address _spender,uint256 _amount) public virtual returns(bool){\r... */\n      swap3\n      swap2\n      pop\n      pop\n      jump\t// out\n        /* \"contracts/Usdc.sol\":1029:1206  function balanceOf(address tokenOwner)\r... */\n    tag_58:\n        /* \"contracts/Usdc.sol\":1141:1156  uint256 balance */\n      0x00\n        /* \"contracts/Usdc.sol\":1175:1184  _balances */\n      0x01\n        /* \"contracts/Usdc.sol\":1175:1196  _balances[tokenOwner] */\n      0x00\n        /* \"contracts/Usdc.sol\":1185:1195  tokenOwner */\n      dup4\n        /* \"contracts/Usdc.sol\":1175:1196  _balances[tokenOwner] */\n      0xffffffffffffffffffffffffffffffffffffffff\n      and\n      0xffffffffffffffffffffffffffffffffffffffff\n      and\n      dup2\n      mstore\n      0x20\n      add\n      swap1\n      dup2\n      mstore\n      0x20\n      add\n      0x00\n      keccak256\n      sload\n        /* \"contracts/Usdc.sol\":1168:1196  return _balances[tokenOwner] */\n      swap1\n      pop\n        /* \"contracts/Usdc.sol\":1029:1206  function balanceOf(address tokenOwner)\r... */\n      swap2\n      swap1\n      pop\n      jump\t// out\n        /* \"@openzeppelin/contracts/access/Ownable.sol\":1668:1769  function renounceOwnership() public virtual onlyOwner {... */\n    tag_61:\n        /* \"@openzeppelin/contracts/access/Ownable.sol\":1259:1271  _msgSender() */\n      tag_126\n        /* \"@openzeppelin/contracts/access/Ownable.sol\":1259:1269  _msgSender */\n      tag_127\n        /* \"@openzeppelin/contracts/access/Ownable.sol\":1259:1271  _msgSender() */\n      jump\t// in\n    tag_126:\n        /* \"@openzeppelin/contracts/access/Ownable.sol\":1248:1271  owner() == _msgSender() */\n      0xffffffffffffffffffffffffffffffffffffffff\n      and\n        /* \"@openzeppelin/contracts/access/Ownable.sol\":1248:1255  owner() */\n      tag_128\n        /* \"@openzeppelin/contracts/access/Ownable.sol\":1248:1253  owner */\n      tag_67\n        /* \"@openzeppelin/contracts/access/Ownable.sol\":1248:1255  owner() */\n      jump\t// in\n    tag_128:\n        /* \"@openzeppelin/contracts/access/Ownable.sol\":1248:1271  owner() == _msgSender() */\n      0xffffffffffffffffffffffffffffffffffffffff\n      and\n      eq\n        /* \"@openzeppelin/contracts/access/Ownable.sol\":1240:1308  require(owner() == _msgSender(), \"Ownable: caller is not the owner\") */\n      tag_129\n      jumpi\n      mload(0x40)\n      0x08c379a000000000000000000000000000000000000000000000000000000000\n      dup2\n      mstore\n      0x04\n      add\n      tag_130\n      swap1\n      tag_131\n      jump\t// in\n    tag_130:\n      mload(0x40)\n      dup1\n      swap2\n      sub\n      swap1\n      revert\n    tag_129:\n        /* \"@openzeppelin/contracts/access/Ownable.sol\":1732:1762  _transferOwnership(address(0)) */\n      tag_133\n        /* \"@openzeppelin/contracts/access/Ownable.sol\":1759:1760  0 */\n      0x00\n        /* \"@openzeppelin/contracts/access/Ownable.sol\":1732:1750  _transferOwnership */\n      tag_134\n        /* \"@openzeppelin/contracts/access/Ownable.sol\":1732:1762  _transferOwnership(address(0)) */\n      jump\t// in\n    tag_133:\n        /* \"@openzeppelin/contracts/access/Ownable.sol\":1668:1769  function renounceOwnership() public virtual onlyOwner {... */\n      jump\t// out\n        /* \"contracts/Usdc.sol\":662:739  function getOwner() public view returns(address){\r... */\n    tag_63:\n        /* \"contracts/Usdc.sol\":702:709  address */\n      0x00\n        /* \"contracts/Usdc.sol\":726:733  owner() */\n      tag_136\n        /* \"contracts/Usdc.sol\":726:731  owner */\n      tag_67\n        /* \"contracts/Usdc.sol\":726:733  owner() */\n      jump\t// in\n    tag_136:\n        /* \"contracts/Usdc.sol\":719:733  return owner() */\n      swap1\n      pop\n        /* \"contracts/Usdc.sol\":662:739  function getOwner() public view returns(address){\r... */\n      swap1\n      jump\t// out\n        /* \"@openzeppelin/contracts/access/Ownable.sol\":1036:1121  function owner() public view virtual returns (address) {... */\n    tag_67:\n        /* \"@openzeppelin/contracts/access/Ownable.sol\":1082:1089  address */\n      0x00\n        /* \"@openzeppelin/contracts/access/Ownable.sol\":1108:1114  _owner */\n      dup1\n      0x00\n      swap1\n      sload\n      swap1\n      0x0100\n      exp\n      swap1\n      div\n      0xffffffffffffffffffffffffffffffffffffffff\n      and\n        /* \"@openzeppelin/contracts/access/Ownable.sol\":1101:1114  return _owner */\n      swap1\n      pop\n        /* \"@openzeppelin/contracts/access/Ownable.sol\":1036:1121  function owner() public view virtual returns (address) {... */\n      swap1\n      jump\t// out\n        /* \"contracts/Usdc.sol\":930:1023  function symbol() public view virtual returns (string memory){\r... */\n    tag_70:\n        /* \"contracts/Usdc.sol\":977:990  string memory */\n      0x60\n        /* \"contracts/Usdc.sol\":1005:1017  _tokenSymbol */\n      0x04\n        /* \"contracts/Usdc.sol\":998:1017  return _tokenSymbol */\n      dup1\n      sload\n      tag_139\n      swap1\n      tag_90\n      jump\t// in\n    tag_139:\n      dup1\n      0x1f\n      add\n      0x20\n      dup1\n      swap2\n      div\n      mul\n      0x20\n      add\n      mload(0x40)\n      swap1\n      dup2\n      add\n      0x40\n      mstore\n      dup1\n      swap3\n      swap2\n      swap1\n      dup2\n      dup2\n      mstore\n      0x20\n      add\n      dup3\n      dup1\n      sload\n      tag_140\n      swap1\n      tag_90\n      jump\t// in\n    tag_140:\n      dup1\n      iszero\n      tag_141\n      jumpi\n      dup1\n      0x1f\n      lt\n      tag_142\n      jumpi\n      0x0100\n      dup1\n      dup4\n      sload\n      div\n      mul\n      dup4\n      mstore\n      swap2\n      0x20\n      add\n      swap2\n      jump(tag_141)\n    tag_142:\n      dup3\n      add\n      swap2\n      swap1\n      0x00\n      mstore\n      keccak256(0x00, 0x20)\n      swap1\n    tag_143:\n      dup2\n      sload\n      dup2\n      mstore\n      swap1\n      0x01\n      add\n      swap1\n      0x20\n      add\n      dup1\n      dup4\n      gt\n      tag_143\n      jumpi\n      dup3\n      swap1\n      sub\n      0x1f\n      and\n      dup3\n      add\n      swap2\n    tag_141:\n      pop\n      pop\n      pop\n      pop\n      pop\n      swap1\n      pop\n        /* \"contracts/Usdc.sol\":930:1023  function symbol() public view virtual returns (string memory){\r... */\n      swap1\n      jump\t// out\n        /* \"contracts/Usdc.sol\":2721:3035  function decreaseAllowance(address _spender,uint256 _amount) public virtual returns(bool){\r... */\n    tag_74:\n        /* \"contracts/Usdc.sol\":2805:2809  bool */\n      0x00\n        /* \"contracts/Usdc.sol\":2871:2880  _decimals */\n      0x05\n      0x00\n      swap1\n      sload\n      swap1\n      0x0100\n      exp\n      swap1\n      div\n      0xff\n      and\n        /* \"contracts/Usdc.sol\":2867:2869  10 */\n      0x0a\n        /* \"contracts/Usdc.sol\":2867:2880  10**_decimals */\n      tag_145\n      swap2\n      swap1\n      tag_98\n      jump\t// in\n    tag_145:\n        /* \"contracts/Usdc.sol\":2858:2865  _amount */\n      dup3\n        /* \"contracts/Usdc.sol\":2858:2880  _amount* 10**_decimals */\n      tag_146\n      swap2\n      swap1\n      tag_100\n      jump\t// in\n    tag_146:\n        /* \"contracts/Usdc.sol\":2825:2856  allowance(msg.sender, _spender) */\n      tag_147\n        /* \"contracts/Usdc.sol\":2835:2845  msg.sender */\n      caller\n        /* \"contracts/Usdc.sol\":2847:2855  _spender */\n      dup6\n        /* \"contracts/Usdc.sol\":2825:2834  allowance */\n      tag_83\n        /* \"contracts/Usdc.sol\":2825:2856  allowance(msg.sender, _spender) */\n      jump\t// in\n    tag_147:\n        /* \"contracts/Usdc.sol\":2825:2880  allowance(msg.sender, _spender)>=_amount* 10**_decimals */\n      lt\n      iszero\n        /* \"contracts/Usdc.sol\":2817:2918  require(allowance(msg.sender, _spender)>=_amount* 10**_decimals,\"Allowance cannot be less than zero\") */\n      tag_148\n      jumpi\n      mload(0x40)\n      0x08c379a000000000000000000000000000000000000000000000000000000000\n      dup2\n      mstore\n      0x04\n      add\n      tag_149\n      swap1\n      tag_150\n      jump\t// in\n    tag_149:\n      mload(0x40)\n      dup1\n      swap2\n      sub\n      swap1\n      revert\n    tag_148:\n        /* \"contracts/Usdc.sol\":2925:3011  _approve(msg.sender, _spender, allowance(msg.sender,_spender)-_amount * 10**_decimals) */\n      tag_151\n        /* \"contracts/Usdc.sol\":2934:2944  msg.sender */\n      caller\n        /* \"contracts/Usdc.sol\":2946:2954  _spender */\n      dup5\n        /* \"contracts/Usdc.sol\":3001:3010  _decimals */\n      0x05\n      0x00\n      swap1\n      sload\n      swap1\n      0x0100\n      exp\n      swap1\n      div\n      0xff\n      and\n        /* \"contracts/Usdc.sol\":2997:2999  10 */\n      0x0a\n        /* \"contracts/Usdc.sol\":2997:3010  10**_decimals */\n      tag_152\n      swap2\n      swap1\n      tag_98\n      jump\t// in\n    tag_152:\n        /* \"contracts/Usdc.sol\":2987:2994  _amount */\n      dup6\n        /* \"contracts/Usdc.sol\":2987:3010  _amount * 10**_decimals */\n      tag_153\n      swap2\n      swap1\n      tag_100\n      jump\t// in\n    tag_153:\n        /* \"contracts/Usdc.sol\":2956:2986  allowance(msg.sender,_spender) */\n      tag_154\n        /* \"contracts/Usdc.sol\":2966:2976  msg.sender */\n      caller\n        /* \"contracts/Usdc.sol\":2977:2985  _spender */\n      dup9\n        /* \"contracts/Usdc.sol\":2956:2965  allowance */\n      tag_83\n        /* \"contracts/Usdc.sol\":2956:2986  allowance(msg.sender,_spender) */\n      jump\t// in\n    tag_154:\n        /* \"contracts/Usdc.sol\":2956:3010  allowance(msg.sender,_spender)-_amount * 10**_decimals */\n      tag_155\n      swap2\n      swap1\n      tag_156\n      jump\t// in\n    tag_155:\n        /* \"contracts/Usdc.sol\":2925:2933  _approve */\n      tag_101\n        /* \"contracts/Usdc.sol\":2925:3011  _approve(msg.sender, _spender, allowance(msg.sender,_spender)-_amount * 10**_decimals) */\n      jump\t// in\n    tag_151:\n        /* \"contracts/Usdc.sol\":3025:3029  true */\n      0x01\n        /* \"contracts/Usdc.sol\":3018:3029  return true */\n      swap1\n      pop\n        /* \"contracts/Usdc.sol\":2721:3035  function decreaseAllowance(address _spender,uint256 _amount) public virtual returns(bool){\r... */\n      swap3\n      swap2\n      pop\n      pop\n      jump\t// out\n        /* \"contracts/Usdc.sol\":1427:1722  function transfer(address _to, uint256 _amount)\r... */\n    tag_78:\n        /* \"contracts/Usdc.sol\":1536:1548  bool success */\n      0x00\n        /* \"contracts/Usdc.sol\":1597:1604  _amount */\n      dup2\n        /* \"contracts/Usdc.sol\":1574:1583  _balances */\n      0x01\n        /* \"contracts/Usdc.sol\":1574:1595  _balances[msg.sender] */\n      0x00\n        /* \"contracts/Usdc.sol\":1584:1594  msg.sender */\n      caller\n        /* \"contracts/Usdc.sol\":1574:1595  _balances[msg.sender] */\n      0xffffffffffffffffffffffffffffffffffffffff\n      and\n      0xffffffffffffffffffffffffffffffffffffffff\n      and\n      dup2\n      mstore\n      0x20\n      add\n      swap1\n      dup2\n      mstore\n      0x20\n      add\n      0x00\n      keccak256\n      sload\n        /* \"contracts/Usdc.sol\":1574:1604  _balances[msg.sender]>=_amount */\n      lt\n      iszero\n        /* \"contracts/Usdc.sol\":1566:1630  require(_balances[msg.sender]>=_amount,\"Amount exceeds balance\") */\n      tag_158\n      jumpi\n      mload(0x40)\n      0x08c379a000000000000000000000000000000000000000000000000000000000\n      dup2\n      mstore\n      0x04\n      add\n      tag_159\n      swap1\n      tag_109\n      jump\t// in\n    tag_159:\n      mload(0x40)\n      dup1\n      swap2\n      sub\n      swap1\n      revert\n    tag_158:\n        /* \"contracts/Usdc.sol\":1641:1690  _transfer(msg.sender, _to, _amount*10**_decimals) */\n      tag_160\n        /* \"contracts/Usdc.sol\":1651:1661  msg.sender */\n      caller\n        /* \"contracts/Usdc.sol\":1663:1666  _to */\n      dup5\n        /* \"contracts/Usdc.sol\":1680:1689  _decimals */\n      0x05\n      0x00\n      swap1\n      sload\n      swap1\n      0x0100\n      exp\n      swap1\n      div\n      0xff\n      and\n        /* \"contracts/Usdc.sol\":1676:1678  10 */\n      0x0a\n        /* \"contracts/Usdc.sol\":1676:1689  10**_decimals */\n      tag_161\n      swap2\n      swap1\n      tag_98\n      jump\t// in\n    tag_161:\n        /* \"contracts/Usdc.sol\":1668:1675  _amount */\n      dup6\n        /* \"contracts/Usdc.sol\":1668:1689  _amount*10**_decimals */\n      tag_162\n      swap2\n      swap1\n      tag_100\n      jump\t// in\n    tag_162:\n        /* \"contracts/Usdc.sol\":1641:1650  _transfer */\n      tag_115\n        /* \"contracts/Usdc.sol\":1641:1690  _transfer(msg.sender, _to, _amount*10**_decimals) */\n      jump\t// in\n    tag_160:\n        /* \"contracts/Usdc.sol\":1708:1712  true */\n      0x01\n        /* \"contracts/Usdc.sol\":1701:1712  return true */\n      swap1\n      pop\n        /* \"contracts/Usdc.sol\":1427:1722  function transfer(address _to, uint256 _amount)\r... */\n      swap3\n      swap2\n      pop\n      pop\n      jump\t// out\n        /* \"contracts/Usdc.sol\":1214:1421  function allowance(address tokenOwner, address spender)\r... */\n    tag_83:\n        /* \"contracts/Usdc.sol\":1343:1360  uint256 remaining */\n      0x00\n        /* \"contracts/Usdc.sol\":1379:1390  _allowances */\n      0x02\n        /* \"contracts/Usdc.sol\":1379:1402  _allowances[tokenOwner] */\n      0x00\n        /* \"contracts/Usdc.sol\":1391:1401  tokenOwner */\n      dup5\n        /* \"contracts/Usdc.sol\":1379:1402  _allowances[tokenOwner] */\n      0xffffffffffffffffffffffffffffffffffffffff\n      and\n      0xffffffffffffffffffffffffffffffffffffffff\n      and\n      dup2\n      mstore\n      0x20\n      add\n      swap1\n      dup2\n      mstore\n      0x20\n      add\n      0x00\n      keccak256\n        /* \"contracts/Usdc.sol\":1379:1411  _allowances[tokenOwner][spender] */\n      0x00\n        /* \"contracts/Usdc.sol\":1403:1410  spender */\n      dup4\n        /* \"contracts/Usdc.sol\":1379:1411  _allowances[tokenOwner][spender] */\n      0xffffffffffffffffffffffffffffffffffffffff\n      and\n      0xffffffffffffffffffffffffffffffffffffffff\n      and\n      dup2\n      mstore\n      0x20\n      add\n      swap1\n      dup2\n      mstore\n      0x20\n      add\n      0x00\n      keccak256\n      sload\n        /* \"contracts/Usdc.sol\":1372:1411  return _allowances[tokenOwner][spender] */\n      swap1\n      pop\n        /* \"contracts/Usdc.sol\":1214:1421  function allowance(address tokenOwner, address spender)\r... */\n      swap3\n      swap2\n      pop\n      pop\n      jump\t// out\n        /* \"@openzeppelin/contracts/access/Ownable.sol\":1918:2116  function transferOwnership(address newOwner) public virtual onlyOwner {... */\n    tag_87:\n        /* \"@openzeppelin/contracts/access/Ownable.sol\":1259:1271  _msgSender() */\n      tag_165\n        /* \"@openzeppelin/contracts/access/Ownable.sol\":1259:1269  _msgSender */\n      tag_127\n        /* \"@openzeppelin/contracts/access/Ownable.sol\":1259:1271  _msgSender() */\n      jump\t// in\n    tag_165:\n        /* \"@openzeppelin/contracts/access/Ownable.sol\":1248:1271  owner() == _msgSender() */\n      0xffffffffffffffffffffffffffffffffffffffff\n      and\n        /* \"@openzeppelin/contracts/access/Ownable.sol\":1248:1255  owner() */\n      tag_166\n        /* \"@openzeppelin/contracts/access/Ownable.sol\":1248:1253  owner */\n      tag_67\n        /* \"@openzeppelin/contracts/access/Ownable.sol\":1248:1255  owner() */\n      jump\t// in\n    tag_166:\n        /* \"@openzeppelin/contracts/access/Ownable.sol\":1248:1271  owner() == _msgSender() */\n      0xffffffffffffffffffffffffffffffffffffffff\n      and\n      eq\n        /* \"@openzeppelin/contracts/access/Ownable.sol\":1240:1308  require(owner() == _msgSender(), \"Ownable: caller is not the owner\") */\n      tag_167\n      jumpi\n      mload(0x40)\n      0x08c379a000000000000000000000000000000000000000000000000000000000\n      dup2\n      mstore\n      0x04\n      add\n      tag_168\n      swap1\n      tag_131\n      jump\t// in\n    tag_168:\n      mload(0x40)\n      dup1\n      swap2\n      sub\n      swap1\n      revert\n    tag_167:\n        /* \"@openzeppelin/contracts/access/Ownable.sol\":2026:2027  0 */\n      0x00\n        /* \"@openzeppelin/contracts/access/Ownable.sol\":2006:2028  newOwner != address(0) */\n      0xffffffffffffffffffffffffffffffffffffffff\n      and\n        /* \"@openzeppelin/contracts/access/Ownable.sol\":2006:2014  newOwner */\n      dup2\n        /* \"@openzeppelin/contracts/access/Ownable.sol\":2006:2028  newOwner != address(0) */\n      0xffffffffffffffffffffffffffffffffffffffff\n      and\n      eq\n      iszero\n        /* \"@openzeppelin/contracts/access/Ownable.sol\":1998:2071  require(newOwner != address(0), \"Ownable: new owner is the zero address\") */\n      tag_170\n      jumpi\n      mload(0x40)\n      0x08c379a000000000000000000000000000000000000000000000000000000000\n      dup2\n      mstore\n      0x04\n      add\n      tag_171\n      swap1\n      tag_172\n      jump\t// in\n    tag_171:\n      mload(0x40)\n      dup1\n      swap2\n      sub\n      swap1\n      revert\n    tag_170:\n        /* \"@openzeppelin/contracts/access/Ownable.sol\":2081:2109  _transferOwnership(newOwner) */\n      tag_173\n        /* \"@openzeppelin/contracts/access/Ownable.sol\":2100:2108  newOwner */\n      dup2\n        /* \"@openzeppelin/contracts/access/Ownable.sol\":2081:2099  _transferOwnership */\n      tag_134\n        /* \"@openzeppelin/contracts/access/Ownable.sol\":2081:2109  _transferOwnership(newOwner) */\n      jump\t// in\n    tag_173:\n        /* \"@openzeppelin/contracts/access/Ownable.sol\":1918:2116  function transferOwnership(address newOwner) public virtual onlyOwner {... */\n      pop\n      jump\t// out\n        /* \"contracts/Usdc.sol\":3340:3723  function _approve(address _owner,address _spender,uint256 _amount) internal virtual{\r... */\n    tag_101:\n        /* \"contracts/Usdc.sol\":3456:3457  0 */\n      0x00\n        /* \"contracts/Usdc.sol\":3438:3458  _owner != address(0) */\n      0xffffffffffffffffffffffffffffffffffffffff\n      and\n        /* \"contracts/Usdc.sol\":3438:3444  _owner */\n      dup4\n        /* \"contracts/Usdc.sol\":3438:3458  _owner != address(0) */\n      0xffffffffffffffffffffffffffffffffffffffff\n      and\n      eq\n      iszero\n        /* \"contracts/Usdc.sol\":3430:3491  require(_owner != address(0),\"cannot approve from address 0\") */\n      tag_175\n      jumpi\n      mload(0x40)\n      0x08c379a000000000000000000000000000000000000000000000000000000000\n      dup2\n      mstore\n      0x04\n      add\n      tag_176\n      swap1\n      tag_177\n      jump\t// in\n    tag_176:\n      mload(0x40)\n      dup1\n      swap2\n      sub\n      swap1\n      revert\n    tag_175:\n        /* \"contracts/Usdc.sol\":3526:3527  0 */\n      0x00\n        /* \"contracts/Usdc.sol\":3506:3528  _spender != address(0) */\n      0xffffffffffffffffffffffffffffffffffffffff\n      and\n        /* \"contracts/Usdc.sol\":3506:3514  _spender */\n      dup3\n        /* \"contracts/Usdc.sol\":3506:3528  _spender != address(0) */\n      0xffffffffffffffffffffffffffffffffffffffff\n      and\n      eq\n      iszero\n        /* \"contracts/Usdc.sol\":3498:3559  require(_spender != address(0),\"cannot approve to address 0\") */\n      tag_178\n      jumpi\n      mload(0x40)\n      0x08c379a000000000000000000000000000000000000000000000000000000000\n      dup2\n      mstore\n      0x04\n      add\n      tag_179\n      swap1\n      tag_180\n      jump\t// in\n    tag_179:\n      mload(0x40)\n      dup1\n      swap2\n      sub\n      swap1\n      revert\n    tag_178:\n        /* \"contracts/Usdc.sol\":3593:3600  _amount */\n      dup1\n        /* \"contracts/Usdc.sol\":3574:3583  _balances */\n      0x01\n        /* \"contracts/Usdc.sol\":3574:3591  _balances[_owner] */\n      0x00\n        /* \"contracts/Usdc.sol\":3584:3590  _owner */\n      dup6\n        /* \"contracts/Usdc.sol\":3574:3591  _balances[_owner] */\n      0xffffffffffffffffffffffffffffffffffffffff\n      and\n      0xffffffffffffffffffffffffffffffffffffffff\n      and\n      dup2\n      mstore\n      0x20\n      add\n      swap1\n      dup2\n      mstore\n      0x20\n      add\n      0x00\n      keccak256\n      sload\n        /* \"contracts/Usdc.sol\":3574:3600  _balances[_owner]>=_amount */\n      lt\n      iszero\n        /* \"contracts/Usdc.sol\":3566:3620  require(_balances[_owner]>=_amount,\"not enough token\") */\n      tag_181\n      jumpi\n      mload(0x40)\n      0x08c379a000000000000000000000000000000000000000000000000000000000\n      dup2\n      mstore\n      0x04\n      add\n      tag_182\n      swap1\n      tag_183\n      jump\t// in\n    tag_182:\n      mload(0x40)\n      dup1\n      swap2\n      sub\n      swap1\n      revert\n    tag_181:\n        /* \"contracts/Usdc.sol\":3661:3668  _amount */\n      dup1\n        /* \"contracts/Usdc.sol\":3629:3640  _allowances */\n      0x02\n        /* \"contracts/Usdc.sol\":3629:3648  _allowances[_owner] */\n      0x00\n        /* \"contracts/Usdc.sol\":3641:3647  _owner */\n      dup6\n        /* \"contracts/Usdc.sol\":3629:3648  _allowances[_owner] */\n      0xffffffffffffffffffffffffffffffffffffffff\n      and\n      0xffffffffffffffffffffffffffffffffffffffff\n      and\n      dup2\n      mstore\n      0x20\n      add\n      swap1\n      dup2\n      mstore\n      0x20\n      add\n      0x00\n      keccak256\n        /* \"contracts/Usdc.sol\":3629:3658  _allowances[_owner][_spender] */\n      0x00\n        /* \"contracts/Usdc.sol\":3649:3657  _spender */\n      dup5\n        /* \"contracts/Usdc.sol\":3629:3658  _allowances[_owner][_spender] */\n      0xffffffffffffffffffffffffffffffffffffffff\n      and\n      0xffffffffffffffffffffffffffffffffffffffff\n      and\n      dup2\n      mstore\n      0x20\n      add\n      swap1\n      dup2\n      mstore\n      0x20\n      add\n      0x00\n      keccak256\n        /* \"contracts/Usdc.sol\":3629:3668  _allowances[_owner][_spender] = _amount */\n      dup2\n      swap1\n      sstore\n      pop\n        /* \"contracts/Usdc.sol\":3699:3707  _spender */\n      dup2\n        /* \"contracts/Usdc.sol\":3682:3717  Approval(_owner, _spender, _amount) */\n      0xffffffffffffffffffffffffffffffffffffffff\n      and\n        /* \"contracts/Usdc.sol\":3691:3697  _owner */\n      dup4\n        /* \"contracts/Usdc.sol\":3682:3717  Approval(_owner, _spender, _amount) */\n      0xffffffffffffffffffffffffffffffffffffffff\n      and\n      0x8c5be1e5ebec7d5bd14f71427d1e84f3dd0314c0f7b2291e5b200ac8c7c3b925\n        /* \"contracts/Usdc.sol\":3709:3716  _amount */\n      dup4\n        /* \"contracts/Usdc.sol\":3682:3717  Approval(_owner, _spender, _amount) */\n      mload(0x40)\n      tag_184\n      swap2\n      swap1\n      tag_41\n      jump\t// in\n    tag_184:\n      mload(0x40)\n      dup1\n      swap2\n      sub\n      swap1\n      log3\n        /* \"contracts/Usdc.sol\":3340:3723  function _approve(address _owner,address _spender,uint256 _amount) internal virtual{\r... */\n      pop\n      pop\n      pop\n      jump\t// out\n        /* \"contracts/Usdc.sol\":3729:4167  function _spendAllowance(address _owner,address _spender,uint256 _amount) internal virtual{\r... */\n    tag_111:\n        /* \"contracts/Usdc.sol\":3852:3853  0 */\n      0x00\n        /* \"contracts/Usdc.sol\":3834:3854  _owner != address(0) */\n      0xffffffffffffffffffffffffffffffffffffffff\n      and\n        /* \"contracts/Usdc.sol\":3834:3840  _owner */\n      dup4\n        /* \"contracts/Usdc.sol\":3834:3854  _owner != address(0) */\n      0xffffffffffffffffffffffffffffffffffffffff\n      and\n      eq\n      iszero\n        /* \"contracts/Usdc.sol\":3826:3895  require(_owner != address(0),\"cannot spend allownace from address 0\") */\n      tag_186\n      jumpi\n      mload(0x40)\n      0x08c379a000000000000000000000000000000000000000000000000000000000\n      dup2\n      mstore\n      0x04\n      add\n      tag_187\n      swap1\n      tag_188\n      jump\t// in\n    tag_187:\n      mload(0x40)\n      dup1\n      swap2\n      sub\n      swap1\n      revert\n    tag_186:\n        /* \"contracts/Usdc.sol\":3930:3931  0 */\n      0x00\n        /* \"contracts/Usdc.sol\":3910:3932  _spender != address(0) */\n      0xffffffffffffffffffffffffffffffffffffffff\n      and\n        /* \"contracts/Usdc.sol\":3910:3918  _spender */\n      dup3\n        /* \"contracts/Usdc.sol\":3910:3932  _spender != address(0) */\n      0xffffffffffffffffffffffffffffffffffffffff\n      and\n      eq\n      iszero\n        /* \"contracts/Usdc.sol\":3902:3971  require(_spender != address(0),\"cannot spend allownace to address 0\") */\n      tag_189\n      jumpi\n      mload(0x40)\n      0x08c379a000000000000000000000000000000000000000000000000000000000\n      dup2\n      mstore\n      0x04\n      add\n      tag_190\n      swap1\n      tag_191\n      jump\t// in\n    tag_190:\n      mload(0x40)\n      dup1\n      swap2\n      sub\n      swap1\n      revert\n    tag_189:\n        /* \"contracts/Usdc.sol\":4030:4039  _decimals */\n      0x05\n      0x00\n      swap1\n      sload\n      swap1\n      0x0100\n      exp\n      swap1\n      div\n      0xff\n      and\n        /* \"contracts/Usdc.sol\":4026:4028  10 */\n      0x0a\n        /* \"contracts/Usdc.sol\":4026:4039  10**_decimals */\n      tag_192\n      swap2\n      swap1\n      tag_98\n      jump\t// in\n    tag_192:\n        /* \"contracts/Usdc.sol\":4017:4024  _amount */\n      dup2\n        /* \"contracts/Usdc.sol\":4017:4039  _amount* 10**_decimals */\n      tag_193\n      swap2\n      swap1\n      tag_100\n      jump\t// in\n    tag_193:\n        /* \"contracts/Usdc.sol\":3986:3997  _allowances */\n      0x02\n        /* \"contracts/Usdc.sol\":3986:4005  _allowances[_owner] */\n      0x00\n        /* \"contracts/Usdc.sol\":3998:4004  _owner */\n      dup6\n        /* \"contracts/Usdc.sol\":3986:4005  _allowances[_owner] */\n      0xffffffffffffffffffffffffffffffffffffffff\n      and\n      0xffffffffffffffffffffffffffffffffffffffff\n      and\n      dup2\n      mstore\n      0x20\n      add\n      swap1\n      dup2\n      mstore\n      0x20\n      add\n      0x00\n      keccak256\n        /* \"contracts/Usdc.sol\":3986:4015  _allowances[_owner][_spender] */\n      0x00\n        /* \"contracts/Usdc.sol\":4006:4014  _spender */\n      dup5\n        /* \"contracts/Usdc.sol\":3986:4015  _allowances[_owner][_spender] */\n      0xffffffffffffffffffffffffffffffffffffffff\n      and\n      0xffffffffffffffffffffffffffffffffffffffff\n      and\n      dup2\n      mstore\n      0x20\n      add\n      swap1\n      dup2\n      mstore\n      0x20\n      add\n      0x00\n      keccak256\n      sload\n        /* \"contracts/Usdc.sol\":3986:4039  _allowances[_owner][_spender]>=_amount* 10**_decimals */\n      lt\n      iszero\n        /* \"contracts/Usdc.sol\":3978:4067  require(_allowances[_owner][_spender]>=_amount* 10**_decimals,\"not enough token allowed\") */\n      tag_194\n      jumpi\n      mload(0x40)\n      0x08c379a000000000000000000000000000000000000000000000000000000000\n      dup2\n      mstore\n      0x04\n      add\n      tag_195\n      swap1\n      tag_196\n      jump\t// in\n    tag_195:\n      mload(0x40)\n      dup1\n      swap2\n      sub\n      swap1\n      revert\n    tag_194:\n        /* \"contracts/Usdc.sol\":4139:4148  _decimals */\n      0x05\n      0x00\n      swap1\n      sload\n      swap1\n      0x0100\n      exp\n      swap1\n      div\n      0xff\n      and\n        /* \"contracts/Usdc.sol\":4135:4148  10**_decimals */\n      0xff\n      and\n        /* \"contracts/Usdc.sol\":4135:4137  10 */\n      0x0a\n        /* \"contracts/Usdc.sol\":4135:4148  10**_decimals */\n      exp\n        /* \"contracts/Usdc.sol\":4126:4133  _amount */\n      dup2\n        /* \"contracts/Usdc.sol\":4126:4148  _amount* 10**_decimals */\n      mul\n        /* \"contracts/Usdc.sol\":4093:4104  _allowances */\n      0x02\n        /* \"contracts/Usdc.sol\":4093:4112  _allowances[_owner] */\n      0x00\n        /* \"contracts/Usdc.sol\":4105:4111  _owner */\n      dup6\n        /* \"contracts/Usdc.sol\":4093:4112  _allowances[_owner] */\n      0xffffffffffffffffffffffffffffffffffffffff\n      and\n      0xffffffffffffffffffffffffffffffffffffffff\n      and\n      dup2\n      mstore\n      0x20\n      add\n      swap1\n      dup2\n      mstore\n      0x20\n      add\n      0x00\n      keccak256\n        /* \"contracts/Usdc.sol\":4093:4122  _allowances[_owner][_spender] */\n      0x00\n        /* \"contracts/Usdc.sol\":4113:4121  _spender */\n      dup5\n        /* \"contracts/Usdc.sol\":4093:4122  _allowances[_owner][_spender] */\n      0xffffffffffffffffffffffffffffffffffffffff\n      and\n      0xffffffffffffffffffffffffffffffffffffffff\n      and\n      dup2\n      mstore\n      0x20\n      add\n      swap1\n      dup2\n      mstore\n      0x20\n      add\n      0x00\n      keccak256\n      0x00\n        /* \"contracts/Usdc.sol\":4093:4148  _allowances[_owner][_spender] -= _amount* 10**_decimals */\n      dup3\n      dup3\n      sload\n      sub\n      swap3\n      pop\n      pop\n      dup2\n      swap1\n      sstore\n      pop\n        /* \"contracts/Usdc.sol\":3729:4167  function _spendAllowance(address _owner,address _spender,uint256 _amount) internal virtual{\r... */\n      pop\n      pop\n      pop\n      jump\t// out\n        /* \"contracts/Usdc.sol\":3041:3336  function _transfer(address _from,address _to,uint256 _amount) internal virtual{\r... */\n    tag_115:\n        /* \"contracts/Usdc.sol\":3151:3152  0 */\n      0x00\n        /* \"contracts/Usdc.sol\":3134:3153  _from != address(0) */\n      0xffffffffffffffffffffffffffffffffffffffff\n      and\n        /* \"contracts/Usdc.sol\":3134:3139  _from */\n      dup4\n        /* \"contracts/Usdc.sol\":3134:3153  _from != address(0) */\n      0xffffffffffffffffffffffffffffffffffffffff\n      and\n      eq\n      iszero\n        /* \"contracts/Usdc.sol\":3126:3187  require(_from != address(0),\"transfer from the zero address\") */\n      tag_198\n      jumpi\n      mload(0x40)\n      0x08c379a000000000000000000000000000000000000000000000000000000000\n      dup2\n      mstore\n      0x04\n      add\n      tag_199\n      swap1\n      tag_200\n      jump\t// in\n    tag_199:\n      mload(0x40)\n      dup1\n      swap2\n      sub\n      swap1\n      revert\n    tag_198:\n        /* \"contracts/Usdc.sol\":3217:3218  0 */\n      0x00\n        /* \"contracts/Usdc.sol\":3202:3219  _to != address(0) */\n      0xffffffffffffffffffffffffffffffffffffffff\n      and\n        /* \"contracts/Usdc.sol\":3202:3205  _to */\n      dup3\n        /* \"contracts/Usdc.sol\":3202:3219  _to != address(0) */\n      0xffffffffffffffffffffffffffffffffffffffff\n      and\n      eq\n      iszero\n        /* \"contracts/Usdc.sol\":3194:3251  require(_to != address(0),\"transfer to the zero address\") */\n      tag_201\n      jumpi\n      mload(0x40)\n      0x08c379a000000000000000000000000000000000000000000000000000000000\n      dup2\n      mstore\n      0x04\n      add\n      tag_202\n      swap1\n      tag_203\n      jump\t// in\n    tag_202:\n      mload(0x40)\n      dup1\n      swap2\n      sub\n      swap1\n      revert\n    tag_201:\n        /* \"contracts/Usdc.sol\":3278:3285  _amount */\n      dup1\n        /* \"contracts/Usdc.sol\":3260:3269  _balances */\n      0x01\n        /* \"contracts/Usdc.sol\":3260:3274  _balances[_to] */\n      0x00\n        /* \"contracts/Usdc.sol\":3270:3273  _to */\n      dup5\n        /* \"contracts/Usdc.sol\":3260:3274  _balances[_to] */\n      0xffffffffffffffffffffffffffffffffffffffff\n      and\n      0xffffffffffffffffffffffffffffffffffffffff\n      and\n      dup2\n      mstore\n      0x20\n      add\n      swap1\n      dup2\n      mstore\n      0x20\n      add\n      0x00\n      keccak256\n      0x00\n        /* \"contracts/Usdc.sol\":3260:3285  _balances[_to] += _amount */\n      dup3\n      dup3\n      sload\n      tag_204\n      swap2\n      swap1\n      tag_123\n      jump\t// in\n    tag_204:\n      swap3\n      pop\n      pop\n      dup2\n      swap1\n      sstore\n      pop\n        /* \"contracts/Usdc.sol\":3315:3318  _to */\n      dup2\n        /* \"contracts/Usdc.sol\":3299:3328  Transfer(_from, _to, _amount) */\n      0xffffffffffffffffffffffffffffffffffffffff\n      and\n        /* \"contracts/Usdc.sol\":3308:3313  _from */\n      dup4\n        /* \"contracts/Usdc.sol\":3299:3328  Transfer(_from, _to, _amount) */\n      0xffffffffffffffffffffffffffffffffffffffff\n      and\n      0xddf252ad1be2c89b69c2b068fc378daa952ba7f163c4a11628f55a4df523b3ef\n        /* \"contracts/Usdc.sol\":3320:3327  _amount */\n      dup4\n        /* \"contracts/Usdc.sol\":3299:3328  Transfer(_from, _to, _amount) */\n      mload(0x40)\n      tag_205\n      swap2\n      swap1\n      tag_41\n      jump\t// in\n    tag_205:\n      mload(0x40)\n      dup1\n      swap2\n      sub\n      swap1\n      log3\n        /* \"contracts/Usdc.sol\":3041:3336  function _transfer(address _from,address _to,uint256 _amount) internal virtual{\r... */\n      pop\n      pop\n      pop\n      jump\t// out\n        /* \"@openzeppelin/contracts/utils/Context.sol\":640:736  function _msgSender() internal view virtual returns (address) {... */\n    tag_127:\n        /* \"@openzeppelin/contracts/utils/Context.sol\":693:700  address */\n      0x00\n        /* \"@openzeppelin/contracts/utils/Context.sol\":719:729  msg.sender */\n      caller\n        /* \"@openzeppelin/contracts/utils/Context.sol\":712:729  return msg.sender */\n      swap1\n      pop\n        /* \"@openzeppelin/contracts/utils/Context.sol\":640:736  function _msgSender() internal view virtual returns (address) {... */\n      swap1\n      jump\t// out\n        /* \"@openzeppelin/contracts/access/Ownable.sol\":2270:2457  function _transferOwnership(address newOwner) internal virtual {... */\n    tag_134:\n        /* \"@openzeppelin/contracts/access/Ownable.sol\":2343:2359  address oldOwner */\n      0x00\n        /* \"@openzeppelin/contracts/access/Ownable.sol\":2362:2368  _owner */\n      dup1\n      0x00\n      swap1\n      sload\n      swap1\n      0x0100\n      exp\n      swap1\n      div\n      0xffffffffffffffffffffffffffffffffffffffff\n      and\n        /* \"@openzeppelin/contracts/access/Ownable.sol\":2343:2368  address oldOwner = _owner */\n      swap1\n      pop\n        /* \"@openzeppelin/contracts/access/Ownable.sol\":2387:2395  newOwner */\n      dup2\n        /* \"@openzeppelin/contracts/access/Ownable.sol\":2378:2384  _owner */\n      0x00\n      dup1\n        /* \"@openzeppelin/contracts/access/Ownable.sol\":2378:2395  _owner = newOwner */\n      0x0100\n      exp\n      dup2\n      sload\n      dup2\n      0xffffffffffffffffffffffffffffffffffffffff\n      mul\n      not\n      and\n      swap1\n      dup4\n      0xffffffffffffffffffffffffffffffffffffffff\n      and\n      mul\n      or\n      swap1\n      sstore\n      pop\n        /* \"@openzeppelin/contracts/access/Ownable.sol\":2441:2449  newOwner */\n      dup2\n        /* \"@openzeppelin/contracts/access/Ownable.sol\":2410:2450  OwnershipTransferred(oldOwner, newOwner) */\n      0xffffffffffffffffffffffffffffffffffffffff\n      and\n        /* \"@openzeppelin/contracts/access/Ownable.sol\":2431:2439  oldOwner */\n      dup2\n        /* \"@openzeppelin/contracts/access/Ownable.sol\":2410:2450  OwnershipTransferred(oldOwner, newOwner) */\n      0xffffffffffffffffffffffffffffffffffffffff\n      and\n      0x8be0079c531659141344cd1fd0a4f28419497f9722a3daafe3b4186f6b6457e0\n      mload(0x40)\n      mload(0x40)\n      dup1\n      swap2\n      sub\n      swap1\n      log3\n        /* \"@openzeppelin/contracts/access/Ownable.sol\":2333:2457  {... */\n      pop\n        /* \"@openzeppelin/contracts/access/Ownable.sol\":2270:2457  function _transferOwnership(address newOwner) internal virtual {... */\n      pop\n      jump\t// out\n        /* \"#utility.yul\":7:146   */\n    tag_209:\n        /* \"#utility.yul\":53:58   */\n      0x00\n        /* \"#utility.yul\":91:97   */\n      dup2\n        /* \"#utility.yul\":78:98   */\n      calldataload\n        /* \"#utility.yul\":69:98   */\n      swap1\n      pop\n        /* \"#utility.yul\":107:140   */\n      tag_211\n        /* \"#utility.yul\":134:139   */\n      dup2\n        /* \"#utility.yul\":107:140   */\n      tag_212\n      jump\t// in\n    tag_211:\n        /* \"#utility.yul\":7:146   */\n      swap3\n      swap2\n      pop\n      pop\n      jump\t// out\n        /* \"#utility.yul\":152:307   */\n    tag_213:\n        /* \"#utility.yul\":206:211   */\n      0x00\n        /* \"#utility.yul\":244:250   */\n      dup2\n        /* \"#utility.yul\":231:251   */\n      calldataload\n        /* \"#utility.yul\":222:251   */\n      swap1\n      pop\n        /* \"#utility.yul\":260:301   */\n      tag_215\n        /* \"#utility.yul\":295:300   */\n      dup2\n        /* \"#utility.yul\":260:301   */\n      tag_216\n      jump\t// in\n    tag_215:\n        /* \"#utility.yul\":152:307   */\n      swap3\n      swap2\n      pop\n      pop\n      jump\t// out\n        /* \"#utility.yul\":313:452   */\n    tag_217:\n        /* \"#utility.yul\":359:364   */\n      0x00\n        /* \"#utility.yul\":397:403   */\n      dup2\n        /* \"#utility.yul\":384:404   */\n      calldataload\n        /* \"#utility.yul\":375:404   */\n      swap1\n      pop\n        /* \"#utility.yul\":413:446   */\n      tag_219\n        /* \"#utility.yul\":440:445   */\n      dup2\n        /* \"#utility.yul\":413:446   */\n      tag_220\n      jump\t// in\n    tag_219:\n        /* \"#utility.yul\":313:452   */\n      swap3\n      swap2\n      pop\n      pop\n      jump\t// out\n        /* \"#utility.yul\":458:787   */\n    tag_57:\n        /* \"#utility.yul\":517:523   */\n      0x00\n        /* \"#utility.yul\":566:568   */\n      0x20\n        /* \"#utility.yul\":554:563   */\n      dup3\n        /* \"#utility.yul\":545:552   */\n      dup5\n        /* \"#utility.yul\":541:564   */\n      sub\n        /* \"#utility.yul\":537:569   */\n      slt\n        /* \"#utility.yul\":534:653   */\n      iszero\n      tag_222\n      jumpi\n        /* \"#utility.yul\":572:651   */\n      tag_223\n      tag_224\n      jump\t// in\n    tag_223:\n        /* \"#utility.yul\":534:653   */\n    tag_222:\n        /* \"#utility.yul\":692:693   */\n      0x00\n        /* \"#utility.yul\":717:770   */\n      tag_225\n        /* \"#utility.yul\":762:769   */\n      dup5\n        /* \"#utility.yul\":753:759   */\n      dup3\n        /* \"#utility.yul\":742:751   */\n      dup6\n        /* \"#utility.yul\":738:760   */\n      add\n        /* \"#utility.yul\":717:770   */\n      tag_209\n      jump\t// in\n    tag_225:\n        /* \"#utility.yul\":707:770   */\n      swap2\n      pop\n        /* \"#utility.yul\":663:780   */\n      pop\n        /* \"#utility.yul\":458:787   */\n      swap3\n      swap2\n      pop\n      pop\n      jump\t// out\n        /* \"#utility.yul\":793:1283   */\n    tag_34:\n        /* \"#utility.yul\":869:875   */\n      0x00\n        /* \"#utility.yul\":877:883   */\n      dup1\n        /* \"#utility.yul\":926:928   */\n      0x40\n        /* \"#utility.yul\":914:923   */\n      dup4\n        /* \"#utility.yul\":905:912   */\n      dup6\n        /* \"#utility.yul\":901:924   */\n      sub\n        /* \"#utility.yul\":897:929   */\n      slt\n        /* \"#utility.yul\":894:1013   */\n      iszero\n      tag_227\n      jumpi\n        /* \"#utility.yul\":932:1011   */\n      tag_228\n      tag_224\n      jump\t// in\n    tag_228:\n        /* \"#utility.yul\":894:1013   */\n    tag_227:\n        /* \"#utility.yul\":1052:1053   */\n      0x00\n        /* \"#utility.yul\":1077:1138   */\n      tag_229\n        /* \"#utility.yul\":1130:1137   */\n      dup6\n        /* \"#utility.yul\":1121:1127   */\n      dup3\n        /* \"#utility.yul\":1110:1119   */\n      dup7\n        /* \"#utility.yul\":1106:1128   */\n      add\n        /* \"#utility.yul\":1077:1138   */\n      tag_213\n      jump\t// in\n    tag_229:\n        /* \"#utility.yul\":1067:1138   */\n      swap3\n      pop\n        /* \"#utility.yul\":1023:1148   */\n      pop\n        /* \"#utility.yul\":1187:1189   */\n      0x20\n        /* \"#utility.yul\":1213:1266   */\n      tag_230\n        /* \"#utility.yul\":1258:1265   */\n      dup6\n        /* \"#utility.yul\":1249:1255   */\n      dup3\n        /* \"#utility.yul\":1238:1247   */\n      dup7\n        /* \"#utility.yul\":1234:1256   */\n      add\n        /* \"#utility.yul\":1213:1266   */\n      tag_217\n      jump\t// in\n    tag_230:\n        /* \"#utility.yul\":1203:1266   */\n      swap2\n      pop\n        /* \"#utility.yul\":1158:1276   */\n      pop\n        /* \"#utility.yul\":793:1283   */\n      swap3\n      pop\n      swap3\n      swap1\n      pop\n      jump\t// out\n        /* \"#utility.yul\":1289:1763   */\n    tag_82:\n        /* \"#utility.yul\":1357:1363   */\n      0x00\n        /* \"#utility.yul\":1365:1371   */\n      dup1\n        /* \"#utility.yul\":1414:1416   */\n      0x40\n        /* \"#utility.yul\":1402:1411   */\n      dup4\n        /* \"#utility.yul\":1393:1400   */\n      dup6\n        /* \"#utility.yul\":1389:1412   */\n      sub\n        /* \"#utility.yul\":1385:1417   */\n      slt\n        /* \"#utility.yul\":1382:1501   */\n      iszero\n      tag_232\n      jumpi\n        /* \"#utility.yul\":1420:1499   */\n      tag_233\n      tag_224\n      jump\t// in\n    tag_233:\n        /* \"#utility.yul\":1382:1501   */\n    tag_232:\n        /* \"#utility.yul\":1540:1541   */\n      0x00\n        /* \"#utility.yul\":1565:1618   */\n      tag_234\n        /* \"#utility.yul\":1610:1617   */\n      dup6\n        /* \"#utility.yul\":1601:1607   */\n      dup3\n        /* \"#utility.yul\":1590:1599   */\n      dup7\n        /* \"#utility.yul\":1586:1608   */\n      add\n        /* \"#utility.yul\":1565:1618   */\n      tag_209\n      jump\t// in\n    tag_234:\n        /* \"#utility.yul\":1555:1618   */\n      swap3\n      pop\n        /* \"#utility.yul\":1511:1628   */\n      pop\n        /* \"#utility.yul\":1667:1669   */\n      0x20\n        /* \"#utility.yul\":1693:1746   */\n      tag_235\n        /* \"#utility.yul\":1738:1745   */\n      dup6\n        /* \"#utility.yul\":1729:1735   */\n      dup3\n        /* \"#utility.yul\":1718:1727   */\n      dup7\n        /* \"#utility.yul\":1714:1736   */\n      add\n        /* \"#utility.yul\":1693:1746   */\n      tag_209\n      jump\t// in\n    tag_235:\n        /* \"#utility.yul\":1683:1746   */\n      swap2\n      pop\n        /* \"#utility.yul\":1638:1756   */\n      pop\n        /* \"#utility.yul\":1289:1763   */\n      swap3\n      pop\n      swap3\n      swap1\n      pop\n      jump\t// out\n        /* \"#utility.yul\":1769:2388   */\n    tag_44:\n        /* \"#utility.yul\":1846:1852   */\n      0x00\n        /* \"#utility.yul\":1854:1860   */\n      dup1\n        /* \"#utility.yul\":1862:1868   */\n      0x00\n        /* \"#utility.yul\":1911:1913   */\n      0x60\n        /* \"#utility.yul\":1899:1908   */\n      dup5\n        /* \"#utility.yul\":1890:1897   */\n      dup7\n        /* \"#utility.yul\":1886:1909   */\n      sub\n        /* \"#utility.yul\":1882:1914   */\n      slt\n        /* \"#utility.yul\":1879:1998   */\n      iszero\n      tag_237\n      jumpi\n        /* \"#utility.yul\":1917:1996   */\n      tag_238\n      tag_224\n      jump\t// in\n    tag_238:\n        /* \"#utility.yul\":1879:1998   */\n    tag_237:\n        /* \"#utility.yul\":2037:2038   */\n      0x00\n        /* \"#utility.yul\":2062:2115   */\n      tag_239\n        /* \"#utility.yul\":2107:2114   */\n      dup7\n        /* \"#utility.yul\":2098:2104   */\n      dup3\n        /* \"#utility.yul\":2087:2096   */\n      dup8\n        /* \"#utility.yul\":2083:2105   */\n      add\n        /* \"#utility.yul\":2062:2115   */\n      tag_209\n      jump\t// in\n    tag_239:\n        /* \"#utility.yul\":2052:2115   */\n      swap4\n      pop\n        /* \"#utility.yul\":2008:2125   */\n      pop\n        /* \"#utility.yul\":2164:2166   */\n      0x20\n        /* \"#utility.yul\":2190:2243   */\n      tag_240\n        /* \"#utility.yul\":2235:2242   */\n      dup7\n        /* \"#utility.yul\":2226:2232   */\n      dup3\n        /* \"#utility.yul\":2215:2224   */\n      dup8\n        /* \"#utility.yul\":2211:2233   */\n      add\n        /* \"#utility.yul\":2190:2243   */\n      tag_209\n      jump\t// in\n    tag_240:\n        /* \"#utility.yul\":2180:2243   */\n      swap3\n      pop\n        /* \"#utility.yul\":2135:2253   */\n      pop\n        /* \"#utility.yul\":2292:2294   */\n      0x40\n        /* \"#utility.yul\":2318:2371   */\n      tag_241\n        /* \"#utility.yul\":2363:2370   */\n      dup7\n        /* \"#utility.yul\":2354:2360   */\n      dup3\n        /* \"#utility.yul\":2343:2352   */\n      dup8\n        /* \"#utility.yul\":2339:2361   */\n      add\n        /* \"#utility.yul\":2318:2371   */\n      tag_217\n      jump\t// in\n    tag_241:\n        /* \"#utility.yul\":2308:2371   */\n      swap2\n      pop\n        /* \"#utility.yul\":2263:2381   */\n      pop\n        /* \"#utility.yul\":1769:2388   */\n      swap3\n      pop\n      swap3\n      pop\n      swap3\n      jump\t// out\n        /* \"#utility.yul\":2394:2868   */\n    tag_28:\n        /* \"#utility.yul\":2462:2468   */\n      0x00\n        /* \"#utility.yul\":2470:2476   */\n      dup1\n        /* \"#utility.yul\":2519:2521   */\n      0x40\n        /* \"#utility.yul\":2507:2516   */\n      dup4\n        /* \"#utility.yul\":2498:2505   */\n      dup6\n        /* \"#utility.yul\":2494:2517   */\n      sub\n        /* \"#utility.yul\":2490:2522   */\n      slt\n        /* \"#utility.yul\":2487:2606   */\n      iszero\n      tag_243\n      jumpi\n        /* \"#utility.yul\":2525:2604   */\n      tag_244\n      tag_224\n      jump\t// in\n    tag_244:\n        /* \"#utility.yul\":2487:2606   */\n    tag_243:\n        /* \"#utility.yul\":2645:2646   */\n      0x00\n        /* \"#utility.yul\":2670:2723   */\n      tag_245\n        /* \"#utility.yul\":2715:2722   */\n      dup6\n        /* \"#utility.yul\":2706:2712   */\n      dup3\n        /* \"#utility.yul\":2695:2704   */\n      dup7\n        /* \"#utility.yul\":2691:2713   */\n      add\n        /* \"#utility.yul\":2670:2723   */\n      tag_209\n      jump\t// in\n    tag_245:\n        /* \"#utility.yul\":2660:2723   */\n      swap3\n      pop\n        /* \"#utility.yul\":2616:2733   */\n      pop\n        /* \"#utility.yul\":2772:2774   */\n      0x20\n        /* \"#utility.yul\":2798:2851   */\n      tag_246\n        /* \"#utility.yul\":2843:2850   */\n      dup6\n        /* \"#utility.yul\":2834:2840   */\n      dup3\n        /* \"#utility.yul\":2823:2832   */\n      dup7\n        /* \"#utility.yul\":2819:2841   */\n      add\n        /* \"#utility.yul\":2798:2851   */\n      tag_217\n      jump\t// in\n    tag_246:\n        /* \"#utility.yul\":2788:2851   */\n      swap2\n      pop\n        /* \"#utility.yul\":2743:2861   */\n      pop\n        /* \"#utility.yul\":2394:2868   */\n      swap3\n      pop\n      swap3\n      swap1\n      pop\n      jump\t// out\n        /* \"#utility.yul\":2874:2992   */\n    tag_247:\n        /* \"#utility.yul\":2961:2985   */\n      tag_249\n        /* \"#utility.yul\":2979:2984   */\n      dup2\n        /* \"#utility.yul\":2961:2985   */\n      tag_250\n      jump\t// in\n    tag_249:\n        /* \"#utility.yul\":2956:2959   */\n      dup3\n        /* \"#utility.yul\":2949:2986   */\n      mstore\n        /* \"#utility.yul\":2874:2992   */\n      pop\n      pop\n      jump\t// out\n        /* \"#utility.yul\":2998:3107   */\n    tag_251:\n        /* \"#utility.yul\":3079:3100   */\n      tag_253\n        /* \"#utility.yul\":3094:3099   */\n      dup2\n        /* \"#utility.yul\":3079:3100   */\n      tag_254\n      jump\t// in\n    tag_253:\n        /* \"#utility.yul\":3074:3077   */\n      dup3\n        /* \"#utility.yul\":3067:3101   */\n      mstore\n        /* \"#utility.yul\":2998:3107   */\n      pop\n      pop\n      jump\t// out\n        /* \"#utility.yul\":3113:3477   */\n    tag_255:\n        /* \"#utility.yul\":3201:3204   */\n      0x00\n        /* \"#utility.yul\":3229:3268   */\n      tag_257\n        /* \"#utility.yul\":3262:3267   */\n      dup3\n        /* \"#utility.yul\":3229:3268   */\n      tag_258\n      jump\t// in\n    tag_257:\n        /* \"#utility.yul\":3284:3355   */\n      tag_259\n        /* \"#utility.yul\":3348:3354   */\n      dup2\n        /* \"#utility.yul\":3343:3346   */\n      dup6\n        /* \"#utility.yul\":3284:3355   */\n      tag_260\n      jump\t// in\n    tag_259:\n        /* \"#utility.yul\":3277:3355   */\n      swap4\n      pop\n        /* \"#utility.yul\":3364:3416   */\n      tag_261\n        /* \"#utility.yul\":3409:3415   */\n      dup2\n        /* \"#utility.yul\":3404:3407   */\n      dup6\n        /* \"#utility.yul\":3397:3401   */\n      0x20\n        /* \"#utility.yul\":3390:3395   */\n      dup7\n        /* \"#utility.yul\":3386:3402   */\n      add\n        /* \"#utility.yul\":3364:3416   */\n      tag_262\n      jump\t// in\n    tag_261:\n        /* \"#utility.yul\":3441:3470   */\n      tag_263\n        /* \"#utility.yul\":3463:3469   */\n      dup2\n        /* \"#utility.yul\":3441:3470   */\n      tag_264\n      jump\t// in\n    tag_263:\n        /* \"#utility.yul\":3436:3439   */\n      dup5\n        /* \"#utility.yul\":3432:3471   */\n      add\n        /* \"#utility.yul\":3425:3471   */\n      swap2\n      pop\n        /* \"#utility.yul\":3205:3477   */\n      pop\n        /* \"#utility.yul\":3113:3477   */\n      swap3\n      swap2\n      pop\n      pop\n      jump\t// out\n        /* \"#utility.yul\":3483:3849   */\n    tag_265:\n        /* \"#utility.yul\":3625:3628   */\n      0x00\n        /* \"#utility.yul\":3646:3713   */\n      tag_267\n        /* \"#utility.yul\":3710:3712   */\n      0x16\n        /* \"#utility.yul\":3705:3708   */\n      dup4\n        /* \"#utility.yul\":3646:3713   */\n      tag_260\n      jump\t// in\n    tag_267:\n        /* \"#utility.yul\":3639:3713   */\n      swap2\n      pop\n        /* \"#utility.yul\":3722:3815   */\n      tag_268\n        /* \"#utility.yul\":3811:3814   */\n      dup3\n        /* \"#utility.yul\":3722:3815   */\n      tag_269\n      jump\t// in\n    tag_268:\n        /* \"#utility.yul\":3840:3842   */\n      0x20\n        /* \"#utility.yul\":3835:3838   */\n      dup3\n        /* \"#utility.yul\":3831:3843   */\n      add\n        /* \"#utility.yul\":3824:3843   */\n      swap1\n      pop\n        /* \"#utility.yul\":3483:3849   */\n      swap2\n      swap1\n      pop\n      jump\t// out\n        /* \"#utility.yul\":3855:4221   */\n    tag_270:\n        /* \"#utility.yul\":3997:4000   */\n      0x00\n        /* \"#utility.yul\":4018:4085   */\n      tag_272\n        /* \"#utility.yul\":4082:4084   */\n      0x23\n        /* \"#utility.yul\":4077:4080   */\n      dup4\n        /* \"#utility.yul\":4018:4085   */\n      tag_260\n      jump\t// in\n    tag_272:\n        /* \"#utility.yul\":4011:4085   */\n      swap2\n      pop\n        /* \"#utility.yul\":4094:4187   */\n      tag_273\n        /* \"#utility.yul\":4183:4186   */\n      dup3\n        /* \"#utility.yul\":4094:4187   */\n      tag_274\n      jump\t// in\n    tag_273:\n        /* \"#utility.yul\":4212:4214   */\n      0x40\n        /* \"#utility.yul\":4207:4210   */\n      dup3\n        /* \"#utility.yul\":4203:4215   */\n      add\n        /* \"#utility.yul\":4196:4215   */\n      swap1\n      pop\n        /* \"#utility.yul\":3855:4221   */\n      swap2\n      swap1\n      pop\n      jump\t// out\n        /* \"#utility.yul\":4227:4593   */\n    tag_275:\n        /* \"#utility.yul\":4369:4372   */\n      0x00\n        /* \"#utility.yul\":4390:4457   */\n      tag_277\n        /* \"#utility.yul\":4454:4456   */\n      0x26\n        /* \"#utility.yul\":4449:4452   */\n      dup4\n        /* \"#utility.yul\":4390:4457   */\n      tag_260\n      jump\t// in\n    tag_277:\n        /* \"#utility.yul\":4383:4457   */\n      swap2\n      pop\n        /* \"#utility.yul\":4466:4559   */\n      tag_278\n        /* \"#utility.yul\":4555:4558   */\n      dup3\n        /* \"#utility.yul\":4466:4559   */\n      tag_279\n      jump\t// in\n    tag_278:\n        /* \"#utility.yul\":4584:4586   */\n      0x40\n        /* \"#utility.yul\":4579:4582   */\n      dup3\n        /* \"#utility.yul\":4575:4587   */\n      add\n        /* \"#utility.yul\":4568:4587   */\n      swap1\n      pop\n        /* \"#utility.yul\":4227:4593   */\n      swap2\n      swap1\n      pop\n      jump\t// out\n        /* \"#utility.yul\":4599:4965   */\n    tag_280:\n        /* \"#utility.yul\":4741:4744   */\n      0x00\n        /* \"#utility.yul\":4762:4829   */\n      tag_282\n        /* \"#utility.yul\":4826:4828   */\n      0x1e\n        /* \"#utility.yul\":4821:4824   */\n      dup4\n        /* \"#utility.yul\":4762:4829   */\n      tag_260\n      jump\t// in\n    tag_282:\n        /* \"#utility.yul\":4755:4829   */\n      swap2\n      pop\n        /* \"#utility.yul\":4838:4931   */\n      tag_283\n        /* \"#utility.yul\":4927:4930   */\n      dup3\n        /* \"#utility.yul\":4838:4931   */\n      tag_284\n      jump\t// in\n    tag_283:\n        /* \"#utility.yul\":4956:4958   */\n      0x20\n        /* \"#utility.yul\":4951:4954   */\n      dup3\n        /* \"#utility.yul\":4947:4959   */\n      add\n        /* \"#utility.yul\":4940:4959   */\n      swap1\n      pop\n        /* \"#utility.yul\":4599:4965   */\n      swap2\n      swap1\n      pop\n      jump\t// out\n        /* \"#utility.yul\":4971:5337   */\n    tag_285:\n        /* \"#utility.yul\":5113:5116   */\n      0x00\n        /* \"#utility.yul\":5134:5201   */\n      tag_287\n        /* \"#utility.yul\":5198:5200   */\n      0x1c\n        /* \"#utility.yul\":5193:5196   */\n      dup4\n        /* \"#utility.yul\":5134:5201   */\n      tag_260\n      jump\t// in\n    tag_287:\n        /* \"#utility.yul\":5127:5201   */\n      swap2\n      pop\n        /* \"#utility.yul\":5210:5303   */\n      tag_288\n        /* \"#utility.yul\":5299:5302   */\n      dup3\n        /* \"#utility.yul\":5210:5303   */\n      tag_289\n      jump\t// in\n    tag_288:\n        /* \"#utility.yul\":5328:5330   */\n      0x20\n        /* \"#utility.yul\":5323:5326   */\n      dup3\n        /* \"#utility.yul\":5319:5331   */\n      add\n        /* \"#utility.yul\":5312:5331   */\n      swap1\n      pop\n        /* \"#utility.yul\":4971:5337   */\n      swap2\n      swap1\n      pop\n      jump\t// out\n        /* \"#utility.yul\":5343:5709   */\n    tag_290:\n        /* \"#utility.yul\":5485:5488   */\n      0x00\n        /* \"#utility.yul\":5506:5573   */\n      tag_292\n        /* \"#utility.yul\":5570:5572   */\n      0x1b\n        /* \"#utility.yul\":5565:5568   */\n      dup4\n        /* \"#utility.yul\":5506:5573   */\n      tag_260\n      jump\t// in\n    tag_292:\n        /* \"#utility.yul\":5499:5573   */\n      swap2\n      pop\n        /* \"#utility.yul\":5582:5675   */\n      tag_293\n        /* \"#utility.yul\":5671:5674   */\n      dup3\n        /* \"#utility.yul\":5582:5675   */\n      tag_294\n      jump\t// in\n    tag_293:\n        /* \"#utility.yul\":5700:5702   */\n      0x20\n        /* \"#utility.yul\":5695:5698   */\n      dup3\n        /* \"#utility.yul\":5691:5703   */\n      add\n        /* \"#utility.yul\":5684:5703   */\n      swap1\n      pop\n        /* \"#utility.yul\":5343:5709   */\n      swap2\n      swap1\n      pop\n      jump\t// out\n        /* \"#utility.yul\":5715:6081   */\n    tag_295:\n        /* \"#utility.yul\":5857:5860   */\n      0x00\n        /* \"#utility.yul\":5878:5945   */\n      tag_297\n        /* \"#utility.yul\":5942:5944   */\n      0x10\n        /* \"#utility.yul\":5937:5940   */\n      dup4\n        /* \"#utility.yul\":5878:5945   */\n      tag_260\n      jump\t// in\n    tag_297:\n        /* \"#utility.yul\":5871:5945   */\n      swap2\n      pop\n        /* \"#utility.yul\":5954:6047   */\n      tag_298\n        /* \"#utility.yul\":6043:6046   */\n      dup3\n        /* \"#utility.yul\":5954:6047   */\n      tag_299\n      jump\t// in\n    tag_298:\n        /* \"#utility.yul\":6072:6074   */\n      0x20\n        /* \"#utility.yul\":6067:6070   */\n      dup3\n        /* \"#utility.yul\":6063:6075   */\n      add\n        /* \"#utility.yul\":6056:6075   */\n      swap1\n      pop\n        /* \"#utility.yul\":5715:6081   */\n      swap2\n      swap1\n      pop\n      jump\t// out\n        /* \"#utility.yul\":6087:6453   */\n    tag_300:\n        /* \"#utility.yul\":6229:6232   */\n      0x00\n        /* \"#utility.yul\":6250:6317   */\n      tag_302\n        /* \"#utility.yul\":6314:6316   */\n      0x18\n        /* \"#utility.yul\":6309:6312   */\n      dup4\n        /* \"#utility.yul\":6250:6317   */\n      tag_260\n      jump\t// in\n    tag_302:\n        /* \"#utility.yul\":6243:6317   */\n      swap2\n      pop\n        /* \"#utility.yul\":6326:6419   */\n      tag_303\n        /* \"#utility.yul\":6415:6418   */\n      dup3\n        /* \"#utility.yul\":6326:6419   */\n      tag_304\n      jump\t// in\n    tag_303:\n        /* \"#utility.yul\":6444:6446   */\n      0x20\n        /* \"#utility.yul\":6439:6442   */\n      dup3\n        /* \"#utility.yul\":6435:6447   */\n      add\n        /* \"#utility.yul\":6428:6447   */\n      swap1\n      pop\n        /* \"#utility.yul\":6087:6453   */\n      swap2\n      swap1\n      pop\n      jump\t// out\n        /* \"#utility.yul\":6459:6825   */\n    tag_305:\n        /* \"#utility.yul\":6601:6604   */\n      0x00\n        /* \"#utility.yul\":6622:6689   */\n      tag_307\n        /* \"#utility.yul\":6686:6688   */\n      0x25\n        /* \"#utility.yul\":6681:6684   */\n      dup4\n        /* \"#utility.yul\":6622:6689   */\n      tag_260\n      jump\t// in\n    tag_307:\n        /* \"#utility.yul\":6615:6689   */\n      swap2\n      pop\n        /* \"#utility.yul\":6698:6791   */\n      tag_308\n        /* \"#utility.yul\":6787:6790   */\n      dup3\n        /* \"#utility.yul\":6698:6791   */\n      tag_309\n      jump\t// in\n    tag_308:\n        /* \"#utility.yul\":6816:6818   */\n      0x40\n        /* \"#utility.yul\":6811:6814   */\n      dup3\n        /* \"#utility.yul\":6807:6819   */\n      add\n        /* \"#utility.yul\":6800:6819   */\n      swap1\n      pop\n        /* \"#utility.yul\":6459:6825   */\n      swap2\n      swap1\n      pop\n      jump\t// out\n        /* \"#utility.yul\":6831:7197   */\n    tag_310:\n        /* \"#utility.yul\":6973:6976   */\n      0x00\n        /* \"#utility.yul\":6994:7061   */\n      tag_312\n        /* \"#utility.yul\":7058:7060   */\n      0x20\n        /* \"#utility.yul\":7053:7056   */\n      dup4\n        /* \"#utility.yul\":6994:7061   */\n      tag_260\n      jump\t// in\n    tag_312:\n        /* \"#utility.yul\":6987:7061   */\n      swap2\n      pop\n        /* \"#utility.yul\":7070:7163   */\n      tag_313\n        /* \"#utility.yul\":7159:7162   */\n      dup3\n        /* \"#utility.yul\":7070:7163   */\n      tag_314\n      jump\t// in\n    tag_313:\n        /* \"#utility.yul\":7188:7190   */\n      0x20\n        /* \"#utility.yul\":7183:7186   */\n      dup3\n        /* \"#utility.yul\":7179:7191   */\n      add\n        /* \"#utility.yul\":7172:7191   */\n      swap1\n      pop\n        /* \"#utility.yul\":6831:7197   */\n      swap2\n      swap1\n      pop\n      jump\t// out\n        /* \"#utility.yul\":7203:7569   */\n    tag_315:\n        /* \"#utility.yul\":7345:7348   */\n      0x00\n        /* \"#utility.yul\":7366:7433   */\n      tag_317\n        /* \"#utility.yul\":7430:7432   */\n      0x22\n        /* \"#utility.yul\":7425:7428   */\n      dup4\n        /* \"#utility.yul\":7366:7433   */\n      tag_260\n      jump\t// in\n    tag_317:\n        /* \"#utility.yul\":7359:7433   */\n      swap2\n      pop\n        /* \"#utility.yul\":7442:7535   */\n      tag_318\n        /* \"#utility.yul\":7531:7534   */\n      dup3\n        /* \"#utility.yul\":7442:7535   */\n      tag_319\n      jump\t// in\n    tag_318:\n        /* \"#utility.yul\":7560:7562   */\n      0x40\n        /* \"#utility.yul\":7555:7558   */\n      dup3\n        /* \"#utility.yul\":7551:7563   */\n      add\n        /* \"#utility.yul\":7544:7563   */\n      swap1\n      pop\n        /* \"#utility.yul\":7203:7569   */\n      swap2\n      swap1\n      pop\n      jump\t// out\n        /* \"#utility.yul\":7575:7941   */\n    tag_320:\n        /* \"#utility.yul\":7717:7720   */\n      0x00\n        /* \"#utility.yul\":7738:7805   */\n      tag_322\n        /* \"#utility.yul\":7802:7804   */\n      0x1d\n        /* \"#utility.yul\":7797:7800   */\n      dup4\n        /* \"#utility.yul\":7738:7805   */\n      tag_260\n      jump\t// in\n    tag_322:\n        /* \"#utility.yul\":7731:7805   */\n      swap2\n      pop\n        /* \"#utility.yul\":7814:7907   */\n      tag_323\n        /* \"#utility.yul\":7903:7906   */\n      dup3\n        /* \"#utility.yul\":7814:7907   */\n      tag_324\n      jump\t// in\n    tag_323:\n        /* \"#utility.yul\":7932:7934   */\n      0x20\n        /* \"#utility.yul\":7927:7930   */\n      dup3\n        /* \"#utility.yul\":7923:7935   */\n      add\n        /* \"#utility.yul\":7916:7935   */\n      swap1\n      pop\n        /* \"#utility.yul\":7575:7941   */\n      swap2\n      swap1\n      pop\n      jump\t// out\n        /* \"#utility.yul\":7947:8065   */\n    tag_325:\n        /* \"#utility.yul\":8034:8058   */\n      tag_327\n        /* \"#utility.yul\":8052:8057   */\n      dup2\n        /* \"#utility.yul\":8034:8058   */\n      tag_328\n      jump\t// in\n    tag_327:\n        /* \"#utility.yul\":8029:8032   */\n      dup3\n        /* \"#utility.yul\":8022:8059   */\n      mstore\n        /* \"#utility.yul\":7947:8065   */\n      pop\n      pop\n      jump\t// out\n        /* \"#utility.yul\":8071:8183   */\n    tag_329:\n        /* \"#utility.yul\":8154:8176   */\n      tag_331\n        /* \"#utility.yul\":8170:8175   */\n      dup2\n        /* \"#utility.yul\":8154:8176   */\n      tag_332\n      jump\t// in\n    tag_331:\n        /* \"#utility.yul\":8149:8152   */\n      dup3\n        /* \"#utility.yul\":8142:8177   */\n      mstore\n        /* \"#utility.yul\":8071:8183   */\n      pop\n      pop\n      jump\t// out\n        /* \"#utility.yul\":8189:8411   */\n    tag_65:\n        /* \"#utility.yul\":8282:8286   */\n      0x00\n        /* \"#utility.yul\":8320:8322   */\n      0x20\n        /* \"#utility.yul\":8309:8318   */\n      dup3\n        /* \"#utility.yul\":8305:8323   */\n      add\n        /* \"#utility.yul\":8297:8323   */\n      swap1\n      pop\n        /* \"#utility.yul\":8333:8404   */\n      tag_334\n        /* \"#utility.yul\":8401:8402   */\n      0x00\n        /* \"#utility.yul\":8390:8399   */\n      dup4\n        /* \"#utility.yul\":8386:8403   */\n      add\n        /* \"#utility.yul\":8377:8383   */\n      dup5\n        /* \"#utility.yul\":8333:8404   */\n      tag_247\n      jump\t// in\n    tag_334:\n        /* \"#utility.yul\":8189:8411   */\n      swap3\n      swap2\n      pop\n      pop\n      jump\t// out\n        /* \"#utility.yul\":8417:8859   */\n    tag_37:\n        /* \"#utility.yul\":8566:8570   */\n      0x00\n        /* \"#utility.yul\":8604:8606   */\n      0x60\n        /* \"#utility.yul\":8593:8602   */\n      dup3\n        /* \"#utility.yul\":8589:8607   */\n      add\n        /* \"#utility.yul\":8581:8607   */\n      swap1\n      pop\n        /* \"#utility.yul\":8617:8688   */\n      tag_336\n        /* \"#utility.yul\":8685:8686   */\n      0x00\n        /* \"#utility.yul\":8674:8683   */\n      dup4\n        /* \"#utility.yul\":8670:8687   */\n      add\n        /* \"#utility.yul\":8661:8667   */\n      dup7\n        /* \"#utility.yul\":8617:8688   */\n      tag_247\n      jump\t// in\n    tag_336:\n        /* \"#utility.yul\":8698:8770   */\n      tag_337\n        /* \"#utility.yul\":8766:8768   */\n      0x20\n        /* \"#utility.yul\":8755:8764   */\n      dup4\n        /* \"#utility.yul\":8751:8769   */\n      add\n        /* \"#utility.yul\":8742:8748   */\n      dup6\n        /* \"#utility.yul\":8698:8770   */\n      tag_325\n      jump\t// in\n    tag_337:\n        /* \"#utility.yul\":8780:8852   */\n      tag_338\n        /* \"#utility.yul\":8848:8850   */\n      0x40\n        /* \"#utility.yul\":8837:8846   */\n      dup4\n        /* \"#utility.yul\":8833:8851   */\n      add\n        /* \"#utility.yul\":8824:8830   */\n      dup5\n        /* \"#utility.yul\":8780:8852   */\n      tag_247\n      jump\t// in\n    tag_338:\n        /* \"#utility.yul\":8417:8859   */\n      swap5\n      swap4\n      pop\n      pop\n      pop\n      pop\n      jump\t// out\n        /* \"#utility.yul\":8865:9075   */\n    tag_31:\n        /* \"#utility.yul\":8952:8956   */\n      0x00\n        /* \"#utility.yul\":8990:8992   */\n      0x20\n        /* \"#utility.yul\":8979:8988   */\n      dup3\n        /* \"#utility.yul\":8975:8993   */\n      add\n        /* \"#utility.yul\":8967:8993   */\n      swap1\n      pop\n        /* \"#utility.yul\":9003:9068   */\n      tag_340\n        /* \"#utility.yul\":9065:9066   */\n      0x00\n        /* \"#utility.yul\":9054:9063   */\n      dup4\n        /* \"#utility.yul\":9050:9067   */\n      add\n        /* \"#utility.yul\":9041:9047   */\n      dup5\n        /* \"#utility.yul\":9003:9068   */\n      tag_251\n      jump\t// in\n    tag_340:\n        /* \"#utility.yul\":8865:9075   */\n      swap3\n      swap2\n      pop\n      pop\n      jump\t// out\n        /* \"#utility.yul\":9081:9394   */\n    tag_25:\n        /* \"#utility.yul\":9194:9198   */\n      0x00\n        /* \"#utility.yul\":9232:9234   */\n      0x20\n        /* \"#utility.yul\":9221:9230   */\n      dup3\n        /* \"#utility.yul\":9217:9235   */\n      add\n        /* \"#utility.yul\":9209:9235   */\n      swap1\n      pop\n        /* \"#utility.yul\":9281:9290   */\n      dup2\n        /* \"#utility.yul\":9275:9279   */\n      dup2\n        /* \"#utility.yul\":9271:9291   */\n      sub\n        /* \"#utility.yul\":9267:9268   */\n      0x00\n        /* \"#utility.yul\":9256:9265   */\n      dup4\n        /* \"#utility.yul\":9252:9269   */\n      add\n        /* \"#utility.yul\":9245:9292   */\n      mstore\n        /* \"#utility.yul\":9309:9387   */\n      tag_342\n        /* \"#utility.yul\":9382:9386   */\n      dup2\n        /* \"#utility.yul\":9373:9379   */\n      dup5\n        /* \"#utility.yul\":9309:9387   */\n      tag_255\n      jump\t// in\n    tag_342:\n        /* \"#utility.yul\":9301:9387   */\n      swap1\n      pop\n        /* \"#utility.yul\":9081:9394   */\n      swap3\n      swap2\n      pop\n      pop\n      jump\t// out\n        /* \"#utility.yul\":9400:9819   */\n    tag_109:\n        /* \"#utility.yul\":9566:9570   */\n      0x00\n        /* \"#utility.yul\":9604:9606   */\n      0x20\n        /* \"#utility.yul\":9593:9602   */\n      dup3\n        /* \"#utility.yul\":9589:9607   */\n      add\n        /* \"#utility.yul\":9581:9607   */\n      swap1\n      pop\n        /* \"#utility.yul\":9653:9662   */\n      dup2\n        /* \"#utility.yul\":9647:9651   */\n      dup2\n        /* \"#utility.yul\":9643:9663   */\n      sub\n        /* \"#utility.yul\":9639:9640   */\n      0x00\n        /* \"#utility.yul\":9628:9637   */\n      dup4\n        /* \"#utility.yul\":9624:9641   */\n      add\n        /* \"#utility.yul\":9617:9664   */\n      mstore\n        /* \"#utility.yul\":9681:9812   */\n      tag_344\n        /* \"#utility.yul\":9807:9811   */\n      dup2\n        /* \"#utility.yul\":9681:9812   */\n      tag_265\n      jump\t// in\n    tag_344:\n        /* \"#utility.yul\":9673:9812   */\n      swap1\n      pop\n        /* \"#utility.yul\":9400:9819   */\n      swap2\n      swap1\n      pop\n      jump\t// out\n        /* \"#utility.yul\":9825:10244   */\n    tag_191:\n        /* \"#utility.yul\":9991:9995   */\n      0x00\n        /* \"#utility.yul\":10029:10031   */\n      0x20\n        /* \"#utility.yul\":10018:10027   */\n      dup3\n        /* \"#utility.yul\":10014:10032   */\n      add\n        /* \"#utility.yul\":10006:10032   */\n      swap1\n      pop\n        /* \"#utility.yul\":10078:10087   */\n      dup2\n        /* \"#utility.yul\":10072:10076   */\n      dup2\n        /* \"#utility.yul\":10068:10088   */\n      sub\n        /* \"#utility.yul\":10064:10065   */\n      0x00\n        /* \"#utility.yul\":10053:10062   */\n      dup4\n        /* \"#utility.yul\":10049:10066   */\n      add\n        /* \"#utility.yul\":10042:10089   */\n      mstore\n        /* \"#utility.yul\":10106:10237   */\n      tag_346\n        /* \"#utility.yul\":10232:10236   */\n      dup2\n        /* \"#utility.yul\":10106:10237   */\n      tag_270\n      jump\t// in\n    tag_346:\n        /* \"#utility.yul\":10098:10237   */\n      swap1\n      pop\n        /* \"#utility.yul\":9825:10244   */\n      swap2\n      swap1\n      pop\n      jump\t// out\n        /* \"#utility.yul\":10250:10669   */\n    tag_172:\n        /* \"#utility.yul\":10416:10420   */\n      0x00\n        /* \"#utility.yul\":10454:10456   */\n      0x20\n        /* \"#utility.yul\":10443:10452   */\n      dup3\n        /* \"#utility.yul\":10439:10457   */\n      add\n        /* \"#utility.yul\":10431:10457   */\n      swap1\n      pop\n        /* \"#utility.yul\":10503:10512   */\n      dup2\n        /* \"#utility.yul\":10497:10501   */\n      dup2\n        /* \"#utility.yul\":10493:10513   */\n      sub\n        /* \"#utility.yul\":10489:10490   */\n      0x00\n        /* \"#utility.yul\":10478:10487   */\n      dup4\n        /* \"#utility.yul\":10474:10491   */\n      add\n        /* \"#utility.yul\":10467:10514   */\n      mstore\n        /* \"#utility.yul\":10531:10662   */\n      tag_348\n        /* \"#utility.yul\":10657:10661   */\n      dup2\n        /* \"#utility.yul\":10531:10662   */\n      tag_275\n      jump\t// in\n    tag_348:\n        /* \"#utility.yul\":10523:10662   */\n      swap1\n      pop\n        /* \"#utility.yul\":10250:10669   */\n      swap2\n      swap1\n      pop\n      jump\t// out\n        /* \"#utility.yul\":10675:11094   */\n    tag_200:\n        /* \"#utility.yul\":10841:10845   */\n      0x00\n        /* \"#utility.yul\":10879:10881   */\n      0x20\n        /* \"#utility.yul\":10868:10877   */\n      dup3\n        /* \"#utility.yul\":10864:10882   */\n      add\n        /* \"#utility.yul\":10856:10882   */\n      swap1\n      pop\n        /* \"#utility.yul\":10928:10937   */\n      dup2\n        /* \"#utility.yul\":10922:10926   */\n      dup2\n        /* \"#utility.yul\":10918:10938   */\n      sub\n        /* \"#utility.yul\":10914:10915   */\n      0x00\n        /* \"#utility.yul\":10903:10912   */\n      dup4\n        /* \"#utility.yul\":10899:10916   */\n      add\n        /* \"#utility.yul\":10892:10939   */\n      mstore\n        /* \"#utility.yul\":10956:11087   */\n      tag_350\n        /* \"#utility.yul\":11082:11086   */\n      dup2\n        /* \"#utility.yul\":10956:11087   */\n      tag_280\n      jump\t// in\n    tag_350:\n        /* \"#utility.yul\":10948:11087   */\n      swap1\n      pop\n        /* \"#utility.yul\":10675:11094   */\n      swap2\n      swap1\n      pop\n      jump\t// out\n        /* \"#utility.yul\":11100:11519   */\n    tag_203:\n        /* \"#utility.yul\":11266:11270   */\n      0x00\n        /* \"#utility.yul\":11304:11306   */\n      0x20\n        /* \"#utility.yul\":11293:11302   */\n      dup3\n        /* \"#utility.yul\":11289:11307   */\n      add\n        /* \"#utility.yul\":11281:11307   */\n      swap1\n      pop\n        /* \"#utility.yul\":11353:11362   */\n      dup2\n        /* \"#utility.yul\":11347:11351   */\n      dup2\n        /* \"#utility.yul\":11343:11363   */\n      sub\n        /* \"#utility.yul\":11339:11340   */\n      0x00\n        /* \"#utility.yul\":11328:11337   */\n      dup4\n        /* \"#utility.yul\":11324:11341   */\n      add\n        /* \"#utility.yul\":11317:11364   */\n      mstore\n        /* \"#utility.yul\":11381:11512   */\n      tag_352\n        /* \"#utility.yul\":11507:11511   */\n      dup2\n        /* \"#utility.yul\":11381:11512   */\n      tag_285\n      jump\t// in\n    tag_352:\n        /* \"#utility.yul\":11373:11512   */\n      swap1\n      pop\n        /* \"#utility.yul\":11100:11519   */\n      swap2\n      swap1\n      pop\n      jump\t// out\n        /* \"#utility.yul\":11525:11944   */\n    tag_180:\n        /* \"#utility.yul\":11691:11695   */\n      0x00\n        /* \"#utility.yul\":11729:11731   */\n      0x20\n        /* \"#utility.yul\":11718:11727   */\n      dup3\n        /* \"#utility.yul\":11714:11732   */\n      add\n        /* \"#utility.yul\":11706:11732   */\n      swap1\n      pop\n        /* \"#utility.yul\":11778:11787   */\n      dup2\n        /* \"#utility.yul\":11772:11776   */\n      dup2\n        /* \"#utility.yul\":11768:11788   */\n      sub\n        /* \"#utility.yul\":11764:11765   */\n      0x00\n        /* \"#utility.yul\":11753:11762   */\n      dup4\n        /* \"#utility.yul\":11749:11766   */\n      add\n        /* \"#utility.yul\":11742:11789   */\n      mstore\n        /* \"#utility.yul\":11806:11937   */\n      tag_354\n        /* \"#utility.yul\":11932:11936   */\n      dup2\n        /* \"#utility.yul\":11806:11937   */\n      tag_290\n      jump\t// in\n    tag_354:\n        /* \"#utility.yul\":11798:11937   */\n      swap1\n      pop\n        /* \"#utility.yul\":11525:11944   */\n      swap2\n      swap1\n      pop\n      jump\t// out\n        /* \"#utility.yul\":11950:12369   */\n    tag_183:\n        /* \"#utility.yul\":12116:12120   */\n      0x00\n        /* \"#utility.yul\":12154:12156   */\n      0x20\n        /* \"#utility.yul\":12143:12152   */\n      dup3\n        /* \"#utility.yul\":12139:12157   */\n      add\n        /* \"#utility.yul\":12131:12157   */\n      swap1\n      pop\n        /* \"#utility.yul\":12203:12212   */\n      dup2\n        /* \"#utility.yul\":12197:12201   */\n      dup2\n        /* \"#utility.yul\":12193:12213   */\n      sub\n        /* \"#utility.yul\":12189:12190   */\n      0x00\n        /* \"#utility.yul\":12178:12187   */\n      dup4\n        /* \"#utility.yul\":12174:12191   */\n      add\n        /* \"#utility.yul\":12167:12214   */\n      mstore\n        /* \"#utility.yul\":12231:12362   */\n      tag_356\n        /* \"#utility.yul\":12357:12361   */\n      dup2\n        /* \"#utility.yul\":12231:12362   */\n      tag_295\n      jump\t// in\n    tag_356:\n        /* \"#utility.yul\":12223:12362   */\n      swap1\n      pop\n        /* \"#utility.yul\":11950:12369   */\n      swap2\n      swap1\n      pop\n      jump\t// out\n        /* \"#utility.yul\":12375:12794   */\n    tag_196:\n        /* \"#utility.yul\":12541:12545   */\n      0x00\n        /* \"#utility.yul\":12579:12581   */\n      0x20\n        /* \"#utility.yul\":12568:12577   */\n      dup3\n        /* \"#utility.yul\":12564:12582   */\n      add\n        /* \"#utility.yul\":12556:12582   */\n      swap1\n      pop\n        /* \"#utility.yul\":12628:12637   */\n      dup2\n        /* \"#utility.yul\":12622:12626   */\n      dup2\n        /* \"#utility.yul\":12618:12638   */\n      sub\n        /* \"#utility.yul\":12614:12615   */\n      0x00\n        /* \"#utility.yul\":12603:12612   */\n      dup4\n        /* \"#utility.yul\":12599:12616   */\n      add\n        /* \"#utility.yul\":12592:12639   */\n      mstore\n        /* \"#utility.yul\":12656:12787   */\n      tag_358\n        /* \"#utility.yul\":12782:12786   */\n      dup2\n        /* \"#utility.yul\":12656:12787   */\n      tag_300\n      jump\t// in\n    tag_358:\n        /* \"#utility.yul\":12648:12787   */\n      swap1\n      pop\n        /* \"#utility.yul\":12375:12794   */\n      swap2\n      swap1\n      pop\n      jump\t// out\n        /* \"#utility.yul\":12800:13219   */\n    tag_188:\n        /* \"#utility.yul\":12966:12970   */\n      0x00\n        /* \"#utility.yul\":13004:13006   */\n      0x20\n        /* \"#utility.yul\":12993:13002   */\n      dup3\n        /* \"#utility.yul\":12989:13007   */\n      add\n        /* \"#utility.yul\":12981:13007   */\n      swap1\n      pop\n        /* \"#utility.yul\":13053:13062   */\n      dup2\n        /* \"#utility.yul\":13047:13051   */\n      dup2\n        /* \"#utility.yul\":13043:13063   */\n      sub\n        /* \"#utility.yul\":13039:13040   */\n      0x00\n        /* \"#utility.yul\":13028:13037   */\n      dup4\n        /* \"#utility.yul\":13024:13041   */\n      add\n        /* \"#utility.yul\":13017:13064   */\n      mstore\n        /* \"#utility.yul\":13081:13212   */\n      tag_360\n        /* \"#utility.yul\":13207:13211   */\n      dup2\n        /* \"#utility.yul\":13081:13212   */\n      tag_305\n      jump\t// in\n    tag_360:\n        /* \"#utility.yul\":13073:13212   */\n      swap1\n      pop\n        /* \"#utility.yul\":12800:13219   */\n      swap2\n      swap1\n      pop\n      jump\t// out\n        /* \"#utility.yul\":13225:13644   */\n    tag_131:\n        /* \"#utility.yul\":13391:13395   */\n      0x00\n        /* \"#utility.yul\":13429:13431   */\n      0x20\n        /* \"#utility.yul\":13418:13427   */\n      dup3\n        /* \"#utility.yul\":13414:13432   */\n      add\n        /* \"#utility.yul\":13406:13432   */\n      swap1\n      pop\n        /* \"#utility.yul\":13478:13487   */\n      dup2\n        /* \"#utility.yul\":13472:13476   */\n      dup2\n        /* \"#utility.yul\":13468:13488   */\n      sub\n        /* \"#utility.yul\":13464:13465   */\n      0x00\n        /* \"#utility.yul\":13453:13462   */\n      dup4\n        /* \"#utility.yul\":13449:13466   */\n      add\n        /* \"#utility.yul\":13442:13489   */\n      mstore\n        /* \"#utility.yul\":13506:13637   */\n      tag_362\n        /* \"#utility.yul\":13632:13636   */\n      dup2\n        /* \"#utility.yul\":13506:13637   */\n      tag_310\n      jump\t// in\n    tag_362:\n        /* \"#utility.yul\":13498:13637   */\n      swap1\n      pop\n        /* \"#utility.yul\":13225:13644   */\n      swap2\n      swap1\n      pop\n      jump\t// out\n        /* \"#utility.yul\":13650:14069   */\n    tag_150:\n        /* \"#utility.yul\":13816:13820   */\n      0x00\n        /* \"#utility.yul\":13854:13856   */\n      0x20\n        /* \"#utility.yul\":13843:13852   */\n      dup3\n        /* \"#utility.yul\":13839:13857   */\n      add\n        /* \"#utility.yul\":13831:13857   */\n      swap1\n      pop\n        /* \"#utility.yul\":13903:13912   */\n      dup2\n        /* \"#utility.yul\":13897:13901   */\n      dup2\n        /* \"#utility.yul\":13893:13913   */\n      sub\n        /* \"#utility.yul\":13889:13890   */\n      0x00\n        /* \"#utility.yul\":13878:13887   */\n      dup4\n        /* \"#utility.yul\":13874:13891   */\n      add\n        /* \"#utility.yul\":13867:13914   */\n      mstore\n        /* \"#utility.yul\":13931:14062   */\n      tag_364\n        /* \"#utility.yul\":14057:14061   */\n      dup2\n        /* \"#utility.yul\":13931:14062   */\n      tag_315\n      jump\t// in\n    tag_364:\n        /* \"#utility.yul\":13923:14062   */\n      swap1\n      pop\n        /* \"#utility.yul\":13650:14069   */\n      swap2\n      swap1\n      pop\n      jump\t// out\n        /* \"#utility.yul\":14075:14494   */\n    tag_177:\n        /* \"#utility.yul\":14241:14245   */\n      0x00\n        /* \"#utility.yul\":14279:14281   */\n      0x20\n        /* \"#utility.yul\":14268:14277   */\n      dup3\n        /* \"#utility.yul\":14264:14282   */\n      add\n        /* \"#utility.yul\":14256:14282   */\n      swap1\n      pop\n        /* \"#utility.yul\":14328:14337   */\n      dup2\n        /* \"#utility.yul\":14322:14326   */\n      dup2\n        /* \"#utility.yul\":14318:14338   */\n      sub\n        /* \"#utility.yul\":14314:14315   */\n      0x00\n        /* \"#utility.yul\":14303:14312   */\n      dup4\n        /* \"#utility.yul\":14299:14316   */\n      add\n        /* \"#utility.yul\":14292:14339   */\n      mstore\n        /* \"#utility.yul\":14356:14487   */\n      tag_366\n        /* \"#utility.yul\":14482:14486   */\n      dup2\n        /* \"#utility.yul\":14356:14487   */\n      tag_320\n      jump\t// in\n    tag_366:\n        /* \"#utility.yul\":14348:14487   */\n      swap1\n      pop\n        /* \"#utility.yul\":14075:14494   */\n      swap2\n      swap1\n      pop\n      jump\t// out\n        /* \"#utility.yul\":14500:14722   */\n    tag_41:\n        /* \"#utility.yul\":14593:14597   */\n      0x00\n        /* \"#utility.yul\":14631:14633   */\n      0x20\n        /* \"#utility.yul\":14620:14629   */\n      dup3\n        /* \"#utility.yul\":14616:14634   */\n      add\n        /* \"#utility.yul\":14608:14634   */\n      swap1\n      pop\n        /* \"#utility.yul\":14644:14715   */\n      tag_368\n        /* \"#utility.yul\":14712:14713   */\n      0x00\n        /* \"#utility.yul\":14701:14710   */\n      dup4\n        /* \"#utility.yul\":14697:14714   */\n      add\n        /* \"#utility.yul\":14688:14694   */\n      dup5\n        /* \"#utility.yul\":14644:14715   */\n      tag_325\n      jump\t// in\n    tag_368:\n        /* \"#utility.yul\":14500:14722   */\n      swap3\n      swap2\n      pop\n      pop\n      jump\t// out\n        /* \"#utility.yul\":14728:14942   */\n    tag_50:\n        /* \"#utility.yul\":14817:14821   */\n      0x00\n        /* \"#utility.yul\":14855:14857   */\n      0x20\n        /* \"#utility.yul\":14844:14853   */\n      dup3\n        /* \"#utility.yul\":14840:14858   */\n      add\n        /* \"#utility.yul\":14832:14858   */\n      swap1\n      pop\n        /* \"#utility.yul\":14868:14935   */\n      tag_370\n        /* \"#utility.yul\":14932:14933   */\n      0x00\n        /* \"#utility.yul\":14921:14930   */\n      dup4\n        /* \"#utility.yul\":14917:14934   */\n      add\n        /* \"#utility.yul\":14908:14914   */\n      dup5\n        /* \"#utility.yul\":14868:14935   */\n      tag_329\n      jump\t// in\n    tag_370:\n        /* \"#utility.yul\":14728:14942   */\n      swap3\n      swap2\n      pop\n      pop\n      jump\t// out\n        /* \"#utility.yul\":15029:15128   */\n    tag_258:\n        /* \"#utility.yul\":15081:15087   */\n      0x00\n        /* \"#utility.yul\":15115:15120   */\n      dup2\n        /* \"#utility.yul\":15109:15121   */\n      mload\n        /* \"#utility.yul\":15099:15121   */\n      swap1\n      pop\n        /* \"#utility.yul\":15029:15128   */\n      swap2\n      swap1\n      pop\n      jump\t// out\n        /* \"#utility.yul\":15134:15303   */\n    tag_260:\n        /* \"#utility.yul\":15218:15229   */\n      0x00\n        /* \"#utility.yul\":15252:15258   */\n      dup3\n        /* \"#utility.yul\":15247:15250   */\n      dup3\n        /* \"#utility.yul\":15240:15259   */\n      mstore\n        /* \"#utility.yul\":15292:15296   */\n      0x20\n        /* \"#utility.yul\":15287:15290   */\n      dup3\n        /* \"#utility.yul\":15283:15297   */\n      add\n        /* \"#utility.yul\":15268:15297   */\n      swap1\n      pop\n        /* \"#utility.yul\":15134:15303   */\n      swap3\n      swap2\n      pop\n      pop\n      jump\t// out\n        /* \"#utility.yul\":15309:15614   */\n    tag_123:\n        /* \"#utility.yul\":15349:15352   */\n      0x00\n        /* \"#utility.yul\":15368:15388   */\n      tag_376\n        /* \"#utility.yul\":15386:15387   */\n      dup3\n        /* \"#utility.yul\":15368:15388   */\n      tag_328\n      jump\t// in\n    tag_376:\n        /* \"#utility.yul\":15363:15388   */\n      swap2\n      pop\n        /* \"#utility.yul\":15402:15422   */\n      tag_377\n        /* \"#utility.yul\":15420:15421   */\n      dup4\n        /* \"#utility.yul\":15402:15422   */\n      tag_328\n      jump\t// in\n    tag_377:\n        /* \"#utility.yul\":15397:15422   */\n      swap3\n      pop\n        /* \"#utility.yul\":15556:15557   */\n      dup3\n        /* \"#utility.yul\":15488:15554   */\n      0xffffffffffffffffffffffffffffffffffffffffffffffffffffffffffffffff\n        /* \"#utility.yul\":15484:15558   */\n      sub\n        /* \"#utility.yul\":15481:15482   */\n      dup3\n        /* \"#utility.yul\":15478:15559   */\n      gt\n        /* \"#utility.yul\":15475:15582   */\n      iszero\n      tag_378\n      jumpi\n        /* \"#utility.yul\":15562:15580   */\n      tag_379\n      tag_380\n      jump\t// in\n    tag_379:\n        /* \"#utility.yul\":15475:15582   */\n    tag_378:\n        /* \"#utility.yul\":15606:15607   */\n      dup3\n        /* \"#utility.yul\":15603:15604   */\n      dup3\n        /* \"#utility.yul\":15599:15608   */\n      add\n        /* \"#utility.yul\":15592:15608   */\n      swap1\n      pop\n        /* \"#utility.yul\":15309:15614   */\n      swap3\n      swap2\n      pop\n      pop\n      jump\t// out\n        /* \"#utility.yul\":15620:16468   */\n    tag_381:\n        /* \"#utility.yul\":15681:15686   */\n      0x00\n        /* \"#utility.yul\":15688:15692   */\n      dup1\n        /* \"#utility.yul\":15712:15718   */\n      dup3\n        /* \"#utility.yul\":15703:15718   */\n      swap2\n      pop\n        /* \"#utility.yul\":15736:15741   */\n      dup4\n        /* \"#utility.yul\":15727:15741   */\n      swap1\n      pop\n        /* \"#utility.yul\":15750:16462   */\n    tag_383:\n        /* \"#utility.yul\":15771:15772   */\n      0x01\n        /* \"#utility.yul\":15761:15769   */\n      dup6\n        /* \"#utility.yul\":15758:15773   */\n      gt\n        /* \"#utility.yul\":15750:16462   */\n      iszero\n      tag_385\n      jumpi\n        /* \"#utility.yul\":15866:15870   */\n      dup1\n        /* \"#utility.yul\":15861:15864   */\n      dup7\n        /* \"#utility.yul\":15857:15871   */\n      div\n        /* \"#utility.yul\":15851:15855   */\n      dup2\n        /* \"#utility.yul\":15848:15872   */\n      gt\n        /* \"#utility.yul\":15845:15895   */\n      iszero\n      tag_386\n      jumpi\n        /* \"#utility.yul\":15875:15893   */\n      tag_387\n      tag_380\n      jump\t// in\n    tag_387:\n        /* \"#utility.yul\":15845:15895   */\n    tag_386:\n        /* \"#utility.yul\":15925:15926   */\n      0x01\n        /* \"#utility.yul\":15915:15923   */\n      dup6\n        /* \"#utility.yul\":15911:15927   */\n      and\n        /* \"#utility.yul\":15908:16359   */\n      iszero\n      tag_388\n      jumpi\n        /* \"#utility.yul\":16340:16344   */\n      dup1\n        /* \"#utility.yul\":16333:16338   */\n      dup3\n        /* \"#utility.yul\":16329:16345   */\n      mul\n        /* \"#utility.yul\":16320:16345   */\n      swap2\n      pop\n        /* \"#utility.yul\":15908:16359   */\n    tag_388:\n        /* \"#utility.yul\":16390:16394   */\n      dup1\n        /* \"#utility.yul\":16384:16388   */\n      dup2\n        /* \"#utility.yul\":16380:16395   */\n      mul\n        /* \"#utility.yul\":16372:16395   */\n      swap1\n      pop\n        /* \"#utility.yul\":16420:16452   */\n      tag_389\n        /* \"#utility.yul\":16443:16451   */\n      dup6\n        /* \"#utility.yul\":16420:16452   */\n      tag_390\n      jump\t// in\n    tag_389:\n        /* \"#utility.yul\":16408:16452   */\n      swap5\n      pop\n        /* \"#utility.yul\":15750:16462   */\n      jump(tag_383)\n    tag_385:\n        /* \"#utility.yul\":15620:16468   */\n      swap5\n      pop\n      swap5\n      swap3\n      pop\n      pop\n      pop\n      jump\t// out\n        /* \"#utility.yul\":16474:16755   */\n    tag_98:\n        /* \"#utility.yul\":16532:16537   */\n      0x00\n        /* \"#utility.yul\":16556:16579   */\n      tag_392\n        /* \"#utility.yul\":16574:16578   */\n      dup3\n        /* \"#utility.yul\":16556:16579   */\n      tag_328\n      jump\t// in\n    tag_392:\n        /* \"#utility.yul\":16548:16579   */\n      swap2\n      pop\n        /* \"#utility.yul\":16600:16625   */\n      tag_393\n        /* \"#utility.yul\":16616:16624   */\n      dup4\n        /* \"#utility.yul\":16600:16625   */\n      tag_332\n      jump\t// in\n    tag_393:\n        /* \"#utility.yul\":16588:16625   */\n      swap3\n      pop\n        /* \"#utility.yul\":16644:16748   */\n      tag_394\n        /* \"#utility.yul\":16681:16747   */\n      0xffffffffffffffffffffffffffffffffffffffffffffffffffffffffffffffff\n        /* \"#utility.yul\":16671:16679   */\n      dup5\n        /* \"#utility.yul\":16665:16669   */\n      dup5\n        /* \"#utility.yul\":16644:16748   */\n      tag_395\n      jump\t// in\n    tag_394:\n        /* \"#utility.yul\":16635:16748   */\n      swap1\n      pop\n        /* \"#utility.yul\":16474:16755   */\n      swap3\n      swap2\n      pop\n      pop\n      jump\t// out\n        /* \"#utility.yul\":16761:17834   */\n    tag_395:\n        /* \"#utility.yul\":16815:16820   */\n      0x00\n        /* \"#utility.yul\":17006:17014   */\n      dup3\n        /* \"#utility.yul\":16996:17036   */\n      tag_397\n      jumpi\n        /* \"#utility.yul\":17027:17028   */\n      0x01\n        /* \"#utility.yul\":17018:17028   */\n      swap1\n      pop\n        /* \"#utility.yul\":17029:17034   */\n      jump(tag_396)\n        /* \"#utility.yul\":16996:17036   */\n    tag_397:\n        /* \"#utility.yul\":17055:17059   */\n      dup2\n        /* \"#utility.yul\":17045:17081   */\n      tag_398\n      jumpi\n        /* \"#utility.yul\":17072:17073   */\n      0x00\n        /* \"#utility.yul\":17063:17073   */\n      swap1\n      pop\n        /* \"#utility.yul\":17074:17079   */\n      jump(tag_396)\n        /* \"#utility.yul\":17045:17081   */\n    tag_398:\n        /* \"#utility.yul\":17141:17145   */\n      dup2\n        /* \"#utility.yul\":17189:17190   */\n      0x01\n        /* \"#utility.yul\":17184:17211   */\n      dup2\n      eq\n      tag_400\n      jumpi\n        /* \"#utility.yul\":17225:17226   */\n      0x02\n        /* \"#utility.yul\":17220:17411   */\n      dup2\n      eq\n      tag_401\n      jumpi\n        /* \"#utility.yul\":17134:17411   */\n      jump(tag_399)\n        /* \"#utility.yul\":17184:17211   */\n    tag_400:\n        /* \"#utility.yul\":17202:17203   */\n      0x01\n        /* \"#utility.yul\":17193:17203   */\n      swap2\n      pop\n        /* \"#utility.yul\":17204:17209   */\n      pop\n      jump(tag_396)\n        /* \"#utility.yul\":17220:17411   */\n    tag_401:\n        /* \"#utility.yul\":17265:17268   */\n      0xff\n        /* \"#utility.yul\":17255:17263   */\n      dup5\n        /* \"#utility.yul\":17252:17269   */\n      gt\n        /* \"#utility.yul\":17249:17292   */\n      iszero\n      tag_402\n      jumpi\n        /* \"#utility.yul\":17272:17290   */\n      tag_403\n      tag_380\n      jump\t// in\n    tag_403:\n        /* \"#utility.yul\":17249:17292   */\n    tag_402:\n        /* \"#utility.yul\":17321:17329   */\n      dup4\n        /* \"#utility.yul\":17318:17319   */\n      0x02\n        /* \"#utility.yul\":17314:17330   */\n      exp\n        /* \"#utility.yul\":17305:17330   */\n      swap2\n      pop\n        /* \"#utility.yul\":17356:17359   */\n      dup5\n        /* \"#utility.yul\":17349:17354   */\n      dup3\n        /* \"#utility.yul\":17346:17360   */\n      gt\n        /* \"#utility.yul\":17343:17383   */\n      iszero\n      tag_404\n      jumpi\n        /* \"#utility.yul\":17363:17381   */\n      tag_405\n      tag_380\n      jump\t// in\n    tag_405:\n        /* \"#utility.yul\":17343:17383   */\n    tag_404:\n        /* \"#utility.yul\":17396:17401   */\n      pop\n      jump(tag_396)\n        /* \"#utility.yul\":17134:17411   */\n    tag_399:\n      pop\n        /* \"#utility.yul\":17520:17522   */\n      0x20\n        /* \"#utility.yul\":17510:17518   */\n      dup4\n        /* \"#utility.yul\":17507:17523   */\n      lt\n        /* \"#utility.yul\":17501:17504   */\n      0x0133\n        /* \"#utility.yul\":17495:17499   */\n      dup4\n        /* \"#utility.yul\":17492:17505   */\n      lt\n        /* \"#utility.yul\":17488:17524   */\n      and\n        /* \"#utility.yul\":17470:17472   */\n      0x4e\n        /* \"#utility.yul\":17460:17468   */\n      dup5\n        /* \"#utility.yul\":17457:17473   */\n      lt\n        /* \"#utility.yul\":17452:17454   */\n      0x0b\n        /* \"#utility.yul\":17446:17450   */\n      dup5\n        /* \"#utility.yul\":17443:17455   */\n      lt\n        /* \"#utility.yul\":17439:17474   */\n      and\n        /* \"#utility.yul\":17423:17534   */\n      or\n        /* \"#utility.yul\":17420:17666   */\n      iszero\n      tag_406\n      jumpi\n        /* \"#utility.yul\":17576:17584   */\n      dup3\n        /* \"#utility.yul\":17570:17574   */\n      dup3\n        /* \"#utility.yul\":17566:17585   */\n      exp\n        /* \"#utility.yul\":17557:17585   */\n      swap1\n      pop\n        /* \"#utility.yul\":17611:17614   */\n      dup4\n        /* \"#utility.yul\":17604:17609   */\n      dup2\n        /* \"#utility.yul\":17601:17615   */\n      gt\n        /* \"#utility.yul\":17598:17638   */\n      iszero\n      tag_407\n      jumpi\n        /* \"#utility.yul\":17618:17636   */\n      tag_408\n      tag_380\n      jump\t// in\n    tag_408:\n        /* \"#utility.yul\":17598:17638   */\n    tag_407:\n        /* \"#utility.yul\":17651:17656   */\n      jump(tag_396)\n        /* \"#utility.yul\":17420:17666   */\n    tag_406:\n        /* \"#utility.yul\":17691:17733   */\n      tag_409\n        /* \"#utility.yul\":17729:17732   */\n      dup5\n        /* \"#utility.yul\":17719:17727   */\n      dup5\n        /* \"#utility.yul\":17713:17717   */\n      dup5\n        /* \"#utility.yul\":17710:17711   */\n      0x01\n        /* \"#utility.yul\":17691:17733   */\n      tag_381\n      jump\t// in\n    tag_409:\n        /* \"#utility.yul\":17676:17733   */\n      swap3\n      pop\n      swap1\n      pop\n        /* \"#utility.yul\":17765:17769   */\n      dup2\n        /* \"#utility.yul\":17760:17763   */\n      dup5\n        /* \"#utility.yul\":17756:17770   */\n      div\n        /* \"#utility.yul\":17749:17754   */\n      dup2\n        /* \"#utility.yul\":17746:17771   */\n      gt\n        /* \"#utility.yul\":17743:17794   */\n      iszero\n      tag_410\n      jumpi\n        /* \"#utility.yul\":17774:17792   */\n      tag_411\n      tag_380\n      jump\t// in\n    tag_411:\n        /* \"#utility.yul\":17743:17794   */\n    tag_410:\n        /* \"#utility.yul\":17823:17827   */\n      dup2\n        /* \"#utility.yul\":17816:17821   */\n      dup2\n        /* \"#utility.yul\":17812:17828   */\n      mul\n        /* \"#utility.yul\":17803:17828   */\n      swap1\n      pop\n        /* \"#utility.yul\":16761:17834   */\n    tag_396:\n      swap4\n      swap3\n      pop\n      pop\n      pop\n      jump\t// out\n        /* \"#utility.yul\":17840:18188   */\n    tag_100:\n        /* \"#utility.yul\":17880:17887   */\n      0x00\n        /* \"#utility.yul\":17903:17923   */\n      tag_413\n        /* \"#utility.yul\":17921:17922   */\n      dup3\n        /* \"#utility.yul\":17903:17923   */\n      tag_328\n      jump\t// in\n    tag_413:\n        /* \"#utility.yul\":17898:17923   */\n      swap2\n      pop\n        /* \"#utility.yul\":17937:17957   */\n      tag_414\n        /* \"#utility.yul\":17955:17956   */\n      dup4\n        /* \"#utility.yul\":17937:17957   */\n      tag_328\n      jump\t// in\n    tag_414:\n        /* \"#utility.yul\":17932:17957   */\n      swap3\n      pop\n        /* \"#utility.yul\":18125:18126   */\n      dup2\n        /* \"#utility.yul\":18057:18123   */\n      0xffffffffffffffffffffffffffffffffffffffffffffffffffffffffffffffff\n        /* \"#utility.yul\":18053:18127   */\n      div\n        /* \"#utility.yul\":18050:18051   */\n      dup4\n        /* \"#utility.yul\":18047:18128   */\n      gt\n        /* \"#utility.yul\":18042:18043   */\n      dup3\n        /* \"#utility.yul\":18035:18044   */\n      iszero\n        /* \"#utility.yul\":18028:18045   */\n      iszero\n        /* \"#utility.yul\":18024:18129   */\n      and\n        /* \"#utility.yul\":18021:18152   */\n      iszero\n      tag_415\n      jumpi\n        /* \"#utility.yul\":18132:18150   */\n      tag_416\n      tag_380\n      jump\t// in\n    tag_416:\n        /* \"#utility.yul\":18021:18152   */\n    tag_415:\n        /* \"#utility.yul\":18180:18181   */\n      dup3\n        /* \"#utility.yul\":18177:18178   */\n      dup3\n        /* \"#utility.yul\":18173:18182   */\n      mul\n        /* \"#utility.yul\":18162:18182   */\n      swap1\n      pop\n        /* \"#utility.yul\":17840:18188   */\n      swap3\n      swap2\n      pop\n      pop\n      jump\t// out\n        /* \"#utility.yul\":18194:18385   */\n    tag_156:\n        /* \"#utility.yul\":18234:18238   */\n      0x00\n        /* \"#utility.yul\":18254:18274   */\n      tag_418\n        /* \"#utility.yul\":18272:18273   */\n      dup3\n        /* \"#utility.yul\":18254:18274   */\n      tag_328\n      jump\t// in\n    tag_418:\n        /* \"#utility.yul\":18249:18274   */\n      swap2\n      pop\n        /* \"#utility.yul\":18288:18308   */\n      tag_419\n        /* \"#utility.yul\":18306:18307   */\n      dup4\n        /* \"#utility.yul\":18288:18308   */\n      tag_328\n      jump\t// in\n    tag_419:\n        /* \"#utility.yul\":18283:18308   */\n      swap3\n      pop\n        /* \"#utility.yul\":18327:18328   */\n      dup3\n        /* \"#utility.yul\":18324:18325   */\n      dup3\n        /* \"#utility.yul\":18321:18329   */\n      lt\n        /* \"#utility.yul\":18318:18352   */\n      iszero\n      tag_420\n      jumpi\n        /* \"#utility.yul\":18332:18350   */\n      tag_421\n      tag_380\n      jump\t// in\n    tag_421:\n        /* \"#utility.yul\":18318:18352   */\n    tag_420:\n        /* \"#utility.yul\":18377:18378   */\n      dup3\n        /* \"#utility.yul\":18374:18375   */\n      dup3\n        /* \"#utility.yul\":18370:18379   */\n      sub\n        /* \"#utility.yul\":18362:18379   */\n      swap1\n      pop\n        /* \"#utility.yul\":18194:18385   */\n      swap3\n      swap2\n      pop\n      pop\n      jump\t// out\n        /* \"#utility.yul\":18391:18487   */\n    tag_250:\n        /* \"#utility.yul\":18428:18435   */\n      0x00\n        /* \"#utility.yul\":18457:18481   */\n      tag_423\n        /* \"#utility.yul\":18475:18480   */\n      dup3\n        /* \"#utility.yul\":18457:18481   */\n      tag_424\n      jump\t// in\n    tag_423:\n        /* \"#utility.yul\":18446:18481   */\n      swap1\n      pop\n        /* \"#utility.yul\":18391:18487   */\n      swap2\n      swap1\n      pop\n      jump\t// out\n        /* \"#utility.yul\":18493:18597   */\n    tag_425:\n        /* \"#utility.yul\":18538:18545   */\n      0x00\n        /* \"#utility.yul\":18567:18591   */\n      tag_427\n        /* \"#utility.yul\":18585:18590   */\n      dup3\n        /* \"#utility.yul\":18567:18591   */\n      tag_424\n      jump\t// in\n    tag_427:\n        /* \"#utility.yul\":18556:18591   */\n      swap1\n      pop\n        /* \"#utility.yul\":18493:18597   */\n      swap2\n      swap1\n      pop\n      jump\t// out\n        /* \"#utility.yul\":18603:18693   */\n    tag_254:\n        /* \"#utility.yul\":18637:18644   */\n      0x00\n        /* \"#utility.yul\":18680:18685   */\n      dup2\n        /* \"#utility.yul\":18673:18686   */\n      iszero\n        /* \"#utility.yul\":18666:18687   */\n      iszero\n        /* \"#utility.yul\":18655:18687   */\n      swap1\n      pop\n        /* \"#utility.yul\":18603:18693   */\n      swap2\n      swap1\n      pop\n      jump\t// out\n        /* \"#utility.yul\":18699:18825   */\n    tag_424:\n        /* \"#utility.yul\":18736:18743   */\n      0x00\n        /* \"#utility.yul\":18776:18818   */\n      0xffffffffffffffffffffffffffffffffffffffff\n        /* \"#utility.yul\":18769:18774   */\n      dup3\n        /* \"#utility.yul\":18765:18819   */\n      and\n        /* \"#utility.yul\":18754:18819   */\n      swap1\n      pop\n        /* \"#utility.yul\":18699:18825   */\n      swap2\n      swap1\n      pop\n      jump\t// out\n        /* \"#utility.yul\":18831:18908   */\n    tag_328:\n        /* \"#utility.yul\":18868:18875   */\n      0x00\n        /* \"#utility.yul\":18897:18902   */\n      dup2\n        /* \"#utility.yul\":18886:18902   */\n      swap1\n      pop\n        /* \"#utility.yul\":18831:18908   */\n      swap2\n      swap1\n      pop\n      jump\t// out\n        /* \"#utility.yul\":18914:19000   */\n    tag_332:\n        /* \"#utility.yul\":18949:18956   */\n      0x00\n        /* \"#utility.yul\":18989:18993   */\n      0xff\n        /* \"#utility.yul\":18982:18987   */\n      dup3\n        /* \"#utility.yul\":18978:18994   */\n      and\n        /* \"#utility.yul\":18967:18994   */\n      swap1\n      pop\n        /* \"#utility.yul\":18914:19000   */\n      swap2\n      swap1\n      pop\n      jump\t// out\n        /* \"#utility.yul\":19006:19313   */\n    tag_262:\n        /* \"#utility.yul\":19074:19075   */\n      0x00\n        /* \"#utility.yul\":19084:19197   */\n    tag_433:\n        /* \"#utility.yul\":19098:19104   */\n      dup4\n        /* \"#utility.yul\":19095:19096   */\n      dup2\n        /* \"#utility.yul\":19092:19105   */\n      lt\n        /* \"#utility.yul\":19084:19197   */\n      iszero\n      tag_435\n      jumpi\n        /* \"#utility.yul\":19183:19184   */\n      dup1\n        /* \"#utility.yul\":19178:19181   */\n      dup3\n        /* \"#utility.yul\":19174:19185   */\n      add\n        /* \"#utility.yul\":19168:19186   */\n      mload\n        /* \"#utility.yul\":19164:19165   */\n      dup2\n        /* \"#utility.yul\":19159:19162   */\n      dup5\n        /* \"#utility.yul\":19155:19166   */\n      add\n        /* \"#utility.yul\":19148:19187   */\n      mstore\n        /* \"#utility.yul\":19120:19122   */\n      0x20\n        /* \"#utility.yul\":19117:19118   */\n      dup2\n        /* \"#utility.yul\":19113:19123   */\n      add\n        /* \"#utility.yul\":19108:19123   */\n      swap1\n      pop\n        /* \"#utility.yul\":19084:19197   */\n      jump(tag_433)\n    tag_435:\n        /* \"#utility.yul\":19215:19221   */\n      dup4\n        /* \"#utility.yul\":19212:19213   */\n      dup2\n        /* \"#utility.yul\":19209:19222   */\n      gt\n        /* \"#utility.yul\":19206:19307   */\n      iszero\n      tag_436\n      jumpi\n        /* \"#utility.yul\":19295:19296   */\n      0x00\n        /* \"#utility.yul\":19286:19292   */\n      dup5\n        /* \"#utility.yul\":19281:19284   */\n      dup5\n        /* \"#utility.yul\":19277:19293   */\n      add\n        /* \"#utility.yul\":19270:19297   */\n      mstore\n        /* \"#utility.yul\":19206:19307   */\n    tag_436:\n        /* \"#utility.yul\":19055:19313   */\n      pop\n        /* \"#utility.yul\":19006:19313   */\n      pop\n      pop\n      pop\n      jump\t// out\n        /* \"#utility.yul\":19319:19639   */\n    tag_90:\n        /* \"#utility.yul\":19363:19369   */\n      0x00\n        /* \"#utility.yul\":19400:19401   */\n      0x02\n        /* \"#utility.yul\":19394:19398   */\n      dup3\n        /* \"#utility.yul\":19390:19402   */\n      div\n        /* \"#utility.yul\":19380:19402   */\n      swap1\n      pop\n        /* \"#utility.yul\":19447:19448   */\n      0x01\n        /* \"#utility.yul\":19441:19445   */\n      dup3\n        /* \"#utility.yul\":19437:19449   */\n      and\n        /* \"#utility.yul\":19468:19486   */\n      dup1\n        /* \"#utility.yul\":19458:19539   */\n      tag_438\n      jumpi\n        /* \"#utility.yul\":19524:19528   */\n      0x7f\n        /* \"#utility.yul\":19516:19522   */\n      dup3\n        /* \"#utility.yul\":19512:19529   */\n      and\n        /* \"#utility.yul\":19502:19529   */\n      swap2\n      pop\n        /* \"#utility.yul\":19458:19539   */\n    tag_438:\n        /* \"#utility.yul\":19586:19588   */\n      0x20\n        /* \"#utility.yul\":19578:19584   */\n      dup3\n        /* \"#utility.yul\":19575:19589   */\n      lt\n        /* \"#utility.yul\":19555:19573   */\n      dup2\n        /* \"#utility.yul\":19552:19590   */\n      eq\n        /* \"#utility.yul\":19549:19633   */\n      iszero\n      tag_439\n      jumpi\n        /* \"#utility.yul\":19605:19623   */\n      tag_440\n      tag_441\n      jump\t// in\n    tag_440:\n        /* \"#utility.yul\":19549:19633   */\n    tag_439:\n        /* \"#utility.yul\":19370:19639   */\n      pop\n        /* \"#utility.yul\":19319:19639   */\n      swap2\n      swap1\n      pop\n      jump\t// out\n        /* \"#utility.yul\":19645:19825   */\n    tag_380:\n        /* \"#utility.yul\":19693:19770   */\n      0x4e487b7100000000000000000000000000000000000000000000000000000000\n        /* \"#utility.yul\":19690:19691   */\n      0x00\n        /* \"#utility.yul\":19683:19771   */\n      mstore\n        /* \"#utility.yul\":19790:19794   */\n      0x11\n        /* \"#utility.yul\":19787:19788   */\n      0x04\n        /* \"#utility.yul\":19780:19795   */\n      mstore\n        /* \"#utility.yul\":19814:19818   */\n      0x24\n        /* \"#utility.yul\":19811:19812   */\n      0x00\n        /* \"#utility.yul\":19804:19819   */\n      revert\n        /* \"#utility.yul\":19831:20011   */\n    tag_441:\n        /* \"#utility.yul\":19879:19956   */\n      0x4e487b7100000000000000000000000000000000000000000000000000000000\n        /* \"#utility.yul\":19876:19877   */\n      0x00\n        /* \"#utility.yul\":19869:19957   */\n      mstore\n        /* \"#utility.yul\":19976:19980   */\n      0x22\n        /* \"#utility.yul\":19973:19974   */\n      0x04\n        /* \"#utility.yul\":19966:19981   */\n      mstore\n        /* \"#utility.yul\":20000:20004   */\n      0x24\n        /* \"#utility.yul\":19997:19998   */\n      0x00\n        /* \"#utility.yul\":19990:20005   */\n      revert\n        /* \"#utility.yul\":20140:20257   */\n    tag_224:\n        /* \"#utility.yul\":20249:20250   */\n      0x00\n        /* \"#utility.yul\":20246:20247   */\n      dup1\n        /* \"#utility.yul\":20239:20251   */\n      revert\n        /* \"#utility.yul\":20263:20365   */\n    tag_264:\n        /* \"#utility.yul\":20304:20310   */\n      0x00\n        /* \"#utility.yul\":20355:20357   */\n      0x1f\n        /* \"#utility.yul\":20351:20358   */\n      not\n        /* \"#utility.yul\":20346:20348   */\n      0x1f\n        /* \"#utility.yul\":20339:20344   */\n      dup4\n        /* \"#utility.yul\":20335:20349   */\n      add\n        /* \"#utility.yul\":20331:20359   */\n      and\n        /* \"#utility.yul\":20321:20359   */\n      swap1\n      pop\n        /* \"#utility.yul\":20263:20365   */\n      swap2\n      swap1\n      pop\n      jump\t// out\n        /* \"#utility.yul\":20371:20473   */\n    tag_390:\n        /* \"#utility.yul\":20413:20421   */\n      0x00\n        /* \"#utility.yul\":20460:20465   */\n      dup2\n        /* \"#utility.yul\":20457:20458   */\n      0x01\n        /* \"#utility.yul\":20453:20466   */\n      shr\n        /* \"#utility.yul\":20432:20466   */\n      swap1\n      pop\n        /* \"#utility.yul\":20371:20473   */\n      swap2\n      swap1\n      pop\n      jump\t// out\n        /* \"#utility.yul\":20479:20651   */\n    tag_269:\n        /* \"#utility.yul\":20619:20643   */\n      0x416d6f756e7420657863656564732062616c616e636500000000000000000000\n        /* \"#utility.yul\":20615:20616   */\n      0x00\n        /* \"#utility.yul\":20607:20613   */\n      dup3\n        /* \"#utility.yul\":20603:20617   */\n      add\n        /* \"#utility.yul\":20596:20644   */\n      mstore\n        /* \"#utility.yul\":20479:20651   */\n      pop\n      jump\t// out\n        /* \"#utility.yul\":20657:20879   */\n    tag_274:\n        /* \"#utility.yul\":20797:20831   */\n      0x63616e6e6f74207370656e6420616c6c6f776e61636520746f20616464726573\n        /* \"#utility.yul\":20793:20794   */\n      0x00\n        /* \"#utility.yul\":20785:20791   */\n      dup3\n        /* \"#utility.yul\":20781:20795   */\n      add\n        /* \"#utility.yul\":20774:20832   */\n      mstore\n        /* \"#utility.yul\":20866:20871   */\n      0x7320300000000000000000000000000000000000000000000000000000000000\n        /* \"#utility.yul\":20861:20863   */\n      0x20\n        /* \"#utility.yul\":20853:20859   */\n      dup3\n        /* \"#utility.yul\":20849:20864   */\n      add\n        /* \"#utility.yul\":20842:20872   */\n      mstore\n        /* \"#utility.yul\":20657:20879   */\n      pop\n      jump\t// out\n        /* \"#utility.yul\":20885:21110   */\n    tag_279:\n        /* \"#utility.yul\":21025:21059   */\n      0x4f776e61626c653a206e6577206f776e657220697320746865207a65726f2061\n        /* \"#utility.yul\":21021:21022   */\n      0x00\n        /* \"#utility.yul\":21013:21019   */\n      dup3\n        /* \"#utility.yul\":21009:21023   */\n      add\n        /* \"#utility.yul\":21002:21060   */\n      mstore\n        /* \"#utility.yul\":21094:21102   */\n      0x6464726573730000000000000000000000000000000000000000000000000000\n        /* \"#utility.yul\":21089:21091   */\n      0x20\n        /* \"#utility.yul\":21081:21087   */\n      dup3\n        /* \"#utility.yul\":21077:21092   */\n      add\n        /* \"#utility.yul\":21070:21103   */\n      mstore\n        /* \"#utility.yul\":20885:21110   */\n      pop\n      jump\t// out\n        /* \"#utility.yul\":21116:21296   */\n    tag_284:\n        /* \"#utility.yul\":21256:21288   */\n      0x7472616e736665722066726f6d20746865207a65726f20616464726573730000\n        /* \"#utility.yul\":21252:21253   */\n      0x00\n        /* \"#utility.yul\":21244:21250   */\n      dup3\n        /* \"#utility.yul\":21240:21254   */\n      add\n        /* \"#utility.yul\":21233:21289   */\n      mstore\n        /* \"#utility.yul\":21116:21296   */\n      pop\n      jump\t// out\n        /* \"#utility.yul\":21302:21480   */\n    tag_289:\n        /* \"#utility.yul\":21442:21472   */\n      0x7472616e7366657220746f20746865207a65726f206164647265737300000000\n        /* \"#utility.yul\":21438:21439   */\n      0x00\n        /* \"#utility.yul\":21430:21436   */\n      dup3\n        /* \"#utility.yul\":21426:21440   */\n      add\n        /* \"#utility.yul\":21419:21473   */\n      mstore\n        /* \"#utility.yul\":21302:21480   */\n      pop\n      jump\t// out\n        /* \"#utility.yul\":21486:21663   */\n    tag_294:\n        /* \"#utility.yul\":21626:21655   */\n      0x63616e6e6f7420617070726f766520746f206164647265737320300000000000\n        /* \"#utility.yul\":21622:21623   */\n      0x00\n        /* \"#utility.yul\":21614:21620   */\n      dup3\n        /* \"#utility.yul\":21610:21624   */\n      add\n        /* \"#utility.yul\":21603:21656   */\n      mstore\n        /* \"#utility.yul\":21486:21663   */\n      pop\n      jump\t// out\n        /* \"#utility.yul\":21669:21835   */\n    tag_299:\n        /* \"#utility.yul\":21809:21827   */\n      0x6e6f7420656e6f75676820746f6b656e00000000000000000000000000000000\n        /* \"#utility.yul\":21805:21806   */\n      0x00\n        /* \"#utility.yul\":21797:21803   */\n      dup3\n        /* \"#utility.yul\":21793:21807   */\n      add\n        /* \"#utility.yul\":21786:21828   */\n      mstore\n        /* \"#utility.yul\":21669:21835   */\n      pop\n      jump\t// out\n        /* \"#utility.yul\":21841:22015   */\n    tag_304:\n        /* \"#utility.yul\":21981:22007   */\n      0x6e6f7420656e6f75676820746f6b656e20616c6c6f7765640000000000000000\n        /* \"#utility.yul\":21977:21978   */\n      0x00\n        /* \"#utility.yul\":21969:21975   */\n      dup3\n        /* \"#utility.yul\":21965:21979   */\n      add\n        /* \"#utility.yul\":21958:22008   */\n      mstore\n        /* \"#utility.yul\":21841:22015   */\n      pop\n      jump\t// out\n        /* \"#utility.yul\":22021:22245   */\n    tag_309:\n        /* \"#utility.yul\":22161:22195   */\n      0x63616e6e6f74207370656e6420616c6c6f776e6163652066726f6d2061646472\n        /* \"#utility.yul\":22157:22158   */\n      0x00\n        /* \"#utility.yul\":22149:22155   */\n      dup3\n        /* \"#utility.yul\":22145:22159   */\n      add\n        /* \"#utility.yul\":22138:22196   */\n      mstore\n        /* \"#utility.yul\":22230:22237   */\n      0x6573732030000000000000000000000000000000000000000000000000000000\n        /* \"#utility.yul\":22225:22227   */\n      0x20\n        /* \"#utility.yul\":22217:22223   */\n      dup3\n        /* \"#utility.yul\":22213:22228   */\n      add\n        /* \"#utility.yul\":22206:22238   */\n      mstore\n        /* \"#utility.yul\":22021:22245   */\n      pop\n      jump\t// out\n        /* \"#utility.yul\":22251:22433   */\n    tag_314:\n        /* \"#utility.yul\":22391:22425   */\n      0x4f776e61626c653a2063616c6c6572206973206e6f7420746865206f776e6572\n        /* \"#utility.yul\":22387:22388   */\n      0x00\n        /* \"#utility.yul\":22379:22385   */\n      dup3\n        /* \"#utility.yul\":22375:22389   */\n      add\n        /* \"#utility.yul\":22368:22426   */\n      mstore\n        /* \"#utility.yul\":22251:22433   */\n      pop\n      jump\t// out\n        /* \"#utility.yul\":22439:22660   */\n    tag_319:\n        /* \"#utility.yul\":22579:22613   */\n      0x416c6c6f77616e63652063616e6e6f74206265206c657373207468616e207a65\n        /* \"#utility.yul\":22575:22576   */\n      0x00\n        /* \"#utility.yul\":22567:22573   */\n      dup3\n        /* \"#utility.yul\":22563:22577   */\n      add\n        /* \"#utility.yul\":22556:22614   */\n      mstore\n        /* \"#utility.yul\":22648:22652   */\n      0x726f000000000000000000000000000000000000000000000000000000000000\n        /* \"#utility.yul\":22643:22645   */\n      0x20\n        /* \"#utility.yul\":22635:22641   */\n      dup3\n        /* \"#utility.yul\":22631:22646   */\n      add\n        /* \"#utility.yul\":22624:22653   */\n      mstore\n        /* \"#utility.yul\":22439:22660   */\n      pop\n      jump\t// out\n        /* \"#utility.yul\":22666:22845   */\n    tag_324:\n        /* \"#utility.yul\":22806:22837   */\n      0x63616e6e6f7420617070726f76652066726f6d20616464726573732030000000\n        /* \"#utility.yul\":22802:22803   */\n      0x00\n        /* \"#utility.yul\":22794:22800   */\n      dup3\n        /* \"#utility.yul\":22790:22804   */\n      add\n        /* \"#utility.yul\":22783:22838   */\n      mstore\n        /* \"#utility.yul\":22666:22845   */\n      pop\n      jump\t// out\n        /* \"#utility.yul\":22851:22973   */\n    tag_212:\n        /* \"#utility.yul\":22924:22948   */\n      tag_462\n        /* \"#utility.yul\":22942:22947   */\n      dup2\n        /* \"#utility.yul\":22924:22948   */\n      tag_250\n      jump\t// in\n    tag_462:\n        /* \"#utility.yul\":22917:22922   */\n      dup2\n        /* \"#utility.yul\":22914:22949   */\n      eq\n        /* \"#utility.yul\":22904:22967   */\n      tag_463\n      jumpi\n        /* \"#utility.yul\":22963:22964   */\n      0x00\n        /* \"#utility.yul\":22960:22961   */\n      dup1\n        /* \"#utility.yul\":22953:22965   */\n      revert\n        /* \"#utility.yul\":22904:22967   */\n    tag_463:\n        /* \"#utility.yul\":22851:22973   */\n      pop\n      jump\t// out\n        /* \"#utility.yul\":22979:23117   */\n    tag_216:\n        /* \"#utility.yul\":23060:23092   */\n      tag_465\n        /* \"#utility.yul\":23086:23091   */\n      dup2\n        /* \"#utility.yul\":23060:23092   */\n      tag_425\n      jump\t// in\n    tag_465:\n        /* \"#utility.yul\":23053:23058   */\n      dup2\n        /* \"#utility.yul\":23050:23093   */\n      eq\n        /* \"#utility.yul\":23040:23111   */\n      tag_466\n      jumpi\n        /* \"#utility.yul\":23107:23108   */\n      0x00\n        /* \"#utility.yul\":23104:23105   */\n      dup1\n        /* \"#utility.yul\":23097:23109   */\n      revert\n        /* \"#utility.yul\":23040:23111   */\n    tag_466:\n        /* \"#utility.yul\":22979:23117   */\n      pop\n      jump\t// out\n        /* \"#utility.yul\":23123:23245   */\n    tag_220:\n        /* \"#utility.yul\":23196:23220   */\n      tag_468\n        /* \"#utility.yul\":23214:23219   */\n      dup2\n        /* \"#utility.yul\":23196:23220   */\n      tag_328\n      jump\t// in\n    tag_468:\n        /* \"#utility.yul\":23189:23194   */\n      dup2\n        /* \"#utility.yul\":23186:23221   */\n      eq\n        /* \"#utility.yul\":23176:23239   */\n      tag_469\n      jumpi\n        /* \"#utility.yul\":23235:23236   */\n      0x00\n        /* \"#utility.yul\":23232:23233   */\n      dup1\n        /* \"#utility.yul\":23225:23237   */\n      revert\n        /* \"#utility.yul\":23176:23239   */\n    tag_469:\n        /* \"#utility.yul\":23123:23245   */\n      pop\n      jump\t// out\n\n    auxdata: 0xa264697066735822122073edc2ee075212451fc76b492c3aba29e43ef7b1d5397182e217b3fb6b09655664736f6c63430008070033\n}\n",
				"bytecode": {
					"linkReferences": {},
					"object": "60806040526040518060400160405280600481526020017f5445535400000000000000000000000000000000000000000000000000000000815250600390805190602001906200005192919062000248565b506040518060400160405280600281526020017f5454000000000000000000000000000000000000000000000000000000000000815250600490805190602001906200009f92919062000248565b506012600560006101000a81548160ff021916908360ff16021790555069021e19e0c9bab2400000600655348015620000d757600080fd5b50620000f8620000ec6200015360201b60201c565b6200015b60201b60201c565b600654600160006200010f6200021f60201b60201c565b73ffffffffffffffffffffffffffffffffffffffff1673ffffffffffffffffffffffffffffffffffffffff168152602001908152602001600020819055506200035d565b600033905090565b60008060009054906101000a900473ffffffffffffffffffffffffffffffffffffffff169050816000806101000a81548173ffffffffffffffffffffffffffffffffffffffff021916908373ffffffffffffffffffffffffffffffffffffffff1602179055508173ffffffffffffffffffffffffffffffffffffffff168173ffffffffffffffffffffffffffffffffffffffff167f8be0079c531659141344cd1fd0a4f28419497f9722a3daafe3b4186f6b6457e060405160405180910390a35050565b60008060009054906101000a900473ffffffffffffffffffffffffffffffffffffffff16905090565b8280546200025690620002f8565b90600052602060002090601f0160209004810192826200027a5760008555620002c6565b82601f106200029557805160ff1916838001178555620002c6565b82800160010185558215620002c6579182015b82811115620002c5578251825591602001919060010190620002a8565b5b509050620002d59190620002d9565b5090565b5b80821115620002f4576000816000905550600101620002da565b5090565b600060028204905060018216806200031157607f821691505b602082108114156200032857620003276200032e565b5b50919050565b7f4e487b7100000000000000000000000000000000000000000000000000000000600052602260045260246000fd5b611e02806200036d6000396000f3fe608060405234801561001057600080fd5b50600436106101005760003560e01c8063715018a611610097578063a457c2d711610066578063a457c2d7146102b5578063a9059cbb146102e5578063dd62ed3e14610315578063f2fde38b1461034557610100565b8063715018a614610251578063893d20e81461025b5780638da5cb5b1461027957806395d89b411461029757610100565b806323b872dd116100d357806323b872dd146101a3578063313ce567146101d357806339509351146101f157806370a082311461022157610100565b806306fdde0314610105578063095ea7b314610123578063120bd5011461015357806318160ddd14610185575b600080fd5b61010d610361565b60405161011a919061156d565b60405180910390f35b61013d600480360381019061013891906112a7565b6103f3565b60405161014a9190611552565b60405180910390f35b61016d600480360381019061016891906111d4565b610430565b60405161017c9392919061151b565b60405180910390f35b61018d610445565b60405161019a919061170f565b60405180910390f35b6101bd60048036038101906101b89190611254565b61044f565b6040516101ca9190611552565b60405180910390f35b6101db610540565b6040516101e8919061172a565b60405180910390f35b61020b600480360381019061020691906112a7565b610557565b6040516102189190611552565b60405180910390f35b61023b600480360381019061023691906111a7565b6105a8565b604051610248919061170f565b60405180910390f35b6102596105f1565b005b610263610679565b6040516102709190611500565b60405180910390f35b610281610688565b60405161028e9190611500565b60405180910390f35b61029f6106b1565b6040516102ac919061156d565b60405180910390f35b6102cf60048036038101906102ca91906112a7565b610743565b6040516102dc9190611552565b60405180910390f35b6102ff60048036038101906102fa91906112a7565b610806565b60405161030c9190611552565b60405180910390f35b61032f600480360381019061032a9190611214565b6108c5565b60405161033c919061170f565b60405180910390f35b61035f600480360381019061035a91906111a7565b61094c565b005b60606003805461037090611a50565b80601f016020809104026020016040519081016040528092919081815260200182805461039c90611a50565b80156103e95780601f106103be576101008083540402835291602001916103e9565b820191906000526020600020905b8154815290600101906020018083116103cc57829003601f168201915b5050505050905090565b60006104263384600560009054906101000a900460ff16600a610416919061180a565b856104219190611928565b610a44565b6001905092915050565b60008060003384869250925092509250925092565b6000600654905090565b6000600560009054906101000a900460ff16600a61046d919061180a565b826104789190611928565b600160008673ffffffffffffffffffffffffffffffffffffffff1673ffffffffffffffffffffffffffffffffffffffff1681526020019081526020016000205410156104f9576040517f08c379a00000000000000000000000000000000000000000000000000000000081526004016104f09061158f565b60405180910390fd5b610504843384610c91565b6105358484600560009054906101000a900460ff16600a610525919061180a565b856105309190611928565b610efc565b600190509392505050565b6000600560009054906101000a900460ff16905090565b600061059e3384600560009054906101000a900460ff16600a61057a919061180a565b856105859190611928565b61058f33886108c5565b6105999190611761565b610a44565b6001905092915050565b6000600160008373ffffffffffffffffffffffffffffffffffffffff1673ffffffffffffffffffffffffffffffffffffffff168152602001908152602001600020549050919050565b6105f961109c565b73ffffffffffffffffffffffffffffffffffffffff16610617610688565b73ffffffffffffffffffffffffffffffffffffffff161461066d576040517f08c379a0000000000000000000000000000000000000000000000000000000008152600401610664906116af565b60405180910390fd5b61067760006110a4565b565b6000610683610688565b905090565b60008060009054906101000a900473ffffffffffffffffffffffffffffffffffffffff16905090565b6060600480546106c090611a50565b80601f01602080910402602001604051908101604052809291908181526020018280546106ec90611a50565b80156107395780601f1061070e57610100808354040283529160200191610739565b820191906000526020600020905b81548152906001019060200180831161071c57829003601f168201915b5050505050905090565b6000600560009054906101000a900460ff16600a610761919061180a565b8261076c9190611928565b61077633856108c5565b10156107b7576040517f08c379a00000000000000000000000000000000000000000000000000000000081526004016107ae906116cf565b60405180910390fd5b6107fc3384600560009054906101000a900460ff16600a6107d8919061180a565b856107e39190611928565b6107ed33886108c5565b6107f79190611982565b610a44565b6001905092915050565b600081600160003373ffffffffffffffffffffffffffffffffffffffff1673ffffffffffffffffffffffffffffffffffffffff16815260200190815260200160002054101561088a576040517f08c379a00000000000000000000000000000000000000000000000000000000081526004016108819061158f565b60405180910390fd5b6108bb3384600560009054906101000a900460ff16600a6108ab919061180a565b856108b69190611928565b610efc565b6001905092915050565b6000600260008473ffffffffffffffffffffffffffffffffffffffff1673ffffffffffffffffffffffffffffffffffffffff16815260200190815260200160002060008373ffffffffffffffffffffffffffffffffffffffff1673ffffffffffffffffffffffffffffffffffffffff16815260200190815260200160002054905092915050565b61095461109c565b73ffffffffffffffffffffffffffffffffffffffff16610972610688565b73ffffffffffffffffffffffffffffffffffffffff16146109c8576040517f08c379a00000000000000000000000000000000000000000000000000000000081526004016109bf906116af565b60405180910390fd5b600073ffffffffffffffffffffffffffffffffffffffff168173ffffffffffffffffffffffffffffffffffffffff161415610a38576040517f08c379a0000000000000000000000000000000000000000000000000000000008152600401610a2f906115cf565b60405180910390fd5b610a41816110a4565b50565b600073ffffffffffffffffffffffffffffffffffffffff168373ffffffffffffffffffffffffffffffffffffffff161415610ab4576040517f08c379a0000000000000000000000000000000000000000000000000000000008152600401610aab906116ef565b60405180910390fd5b600073ffffffffffffffffffffffffffffffffffffffff168273ffffffffffffffffffffffffffffffffffffffff161415610b24576040517f08c379a0000000000000000000000000000000000000000000000000000000008152600401610b1b9061162f565b60405180910390fd5b80600160008573ffffffffffffffffffffffffffffffffffffffff1673ffffffffffffffffffffffffffffffffffffffff168152602001908152602001600020541015610ba6576040517f08c379a0000000000000000000000000000000000000000000000000000000008152600401610b9d9061164f565b60405180910390fd5b80600260008573ffffffffffffffffffffffffffffffffffffffff1673ffffffffffffffffffffffffffffffffffffffff16815260200190815260200160002060008473ffffffffffffffffffffffffffffffffffffffff1673ffffffffffffffffffffffffffffffffffffffff168152602001908152602001600020819055508173ffffffffffffffffffffffffffffffffffffffff168373ffffffffffffffffffffffffffffffffffffffff167f8c5be1e5ebec7d5bd14f71427d1e84f3dd0314c0f7b2291e5b200ac8c7c3b92583604051610c84919061170f565b60405180910390a3505050565b600073ffffffffffffffffffffffffffffffffffffffff168373ffffffffffffffffffffffffffffffffffffffff161415610d01576040517f08c379a0000000000000000000000000000000000000000000000000000000008152600401610cf89061168f565b60405180910390fd5b600073ffffffffffffffffffffffffffffffffffffffff168273ffffffffffffffffffffffffffffffffffffffff161415610d71576040517f08c379a0000000000000000000000000000000000000000000000000000000008152600401610d68906115af565b60405180910390fd5b600560009054906101000a900460ff16600a610d8d919061180a565b81610d989190611928565b600260008573ffffffffffffffffffffffffffffffffffffffff1673ffffffffffffffffffffffffffffffffffffffff16815260200190815260200160002060008473ffffffffffffffffffffffffffffffffffffffff1673ffffffffffffffffffffffffffffffffffffffff168152602001908152602001600020541015610e56576040517f08c379a0000000000000000000000000000000000000000000000000000000008152600401610e4d9061166f565b60405180910390fd5b600560009054906101000a900460ff1660ff16600a0a8102600260008573ffffffffffffffffffffffffffffffffffffffff1673ffffffffffffffffffffffffffffffffffffffff16815260200190815260200160002060008473ffffffffffffffffffffffffffffffffffffffff1673ffffffffffffffffffffffffffffffffffffffff16815260200190815260200160002060008282540392505081905550505050565b600073ffffffffffffffffffffffffffffffffffffffff168373ffffffffffffffffffffffffffffffffffffffff161415610f6c576040517f08c379a0000000000000000000000000000000000000000000000000000000008152600401610f63906115ef565b60405180910390fd5b600073ffffffffffffffffffffffffffffffffffffffff168273ffffffffffffffffffffffffffffffffffffffff161415610fdc576040517f08c379a0000000000000000000000000000000000000000000000000000000008152600401610fd39061160f565b60405180910390fd5b80600160008473ffffffffffffffffffffffffffffffffffffffff1673ffffffffffffffffffffffffffffffffffffffff168152602001908152602001600020600082825461102b9190611761565b925050819055508173ffffffffffffffffffffffffffffffffffffffff168373ffffffffffffffffffffffffffffffffffffffff167fddf252ad1be2c89b69c2b068fc378daa952ba7f163c4a11628f55a4df523b3ef8360405161108f919061170f565b60405180910390a3505050565b600033905090565b60008060009054906101000a900473ffffffffffffffffffffffffffffffffffffffff169050816000806101000a81548173ffffffffffffffffffffffffffffffffffffffff021916908373ffffffffffffffffffffffffffffffffffffffff1602179055508173ffffffffffffffffffffffffffffffffffffffff168173ffffffffffffffffffffffffffffffffffffffff167f8be0079c531659141344cd1fd0a4f28419497f9722a3daafe3b4186f6b6457e060405160405180910390a35050565b60008135905061117781611d87565b92915050565b60008135905061118c81611d9e565b92915050565b6000813590506111a181611db5565b92915050565b6000602082840312156111bd576111bc611ae0565b5b60006111cb84828501611168565b91505092915050565b600080604083850312156111eb576111ea611ae0565b5b60006111f98582860161117d565b925050602061120a85828601611192565b9150509250929050565b6000806040838503121561122b5761122a611ae0565b5b600061123985828601611168565b925050602061124a85828601611168565b9150509250929050565b60008060006060848603121561126d5761126c611ae0565b5b600061127b86828701611168565b935050602061128c86828701611168565b925050604061129d86828701611192565b9150509250925092565b600080604083850312156112be576112bd611ae0565b5b60006112cc85828601611168565b92505060206112dd85828601611192565b9150509250929050565b6112f0816119b6565b82525050565b6112ff816119da565b82525050565b600061131082611745565b61131a8185611750565b935061132a818560208601611a1d565b61133381611ae5565b840191505092915050565b600061134b601683611750565b915061135682611b03565b602082019050919050565b600061136e602383611750565b915061137982611b2c565b604082019050919050565b6000611391602683611750565b915061139c82611b7b565b604082019050919050565b60006113b4601e83611750565b91506113bf82611bca565b602082019050919050565b60006113d7601c83611750565b91506113e282611bf3565b602082019050919050565b60006113fa601b83611750565b915061140582611c1c565b602082019050919050565b600061141d601083611750565b915061142882611c45565b602082019050919050565b6000611440601883611750565b915061144b82611c6e565b602082019050919050565b6000611463602583611750565b915061146e82611c97565b604082019050919050565b6000611486602083611750565b915061149182611ce6565b602082019050919050565b60006114a9602283611750565b91506114b482611d0f565b604082019050919050565b60006114cc601d83611750565b91506114d782611d5e565b602082019050919050565b6114eb81611a06565b82525050565b6114fa81611a10565b82525050565b600060208201905061151560008301846112e7565b92915050565b600060608201905061153060008301866112e7565b61153d60208301856114e2565b61154a60408301846112e7565b949350505050565b600060208201905061156760008301846112f6565b92915050565b600060208201905081810360008301526115878184611305565b905092915050565b600060208201905081810360008301526115a88161133e565b9050919050565b600060208201905081810360008301526115c881611361565b9050919050565b600060208201905081810360008301526115e881611384565b9050919050565b60006020820190508181036000830152611608816113a7565b9050919050565b60006020820190508181036000830152611628816113ca565b9050919050565b60006020820190508181036000830152611648816113ed565b9050919050565b6000602082019050818103600083015261166881611410565b9050919050565b6000602082019050818103600083015261168881611433565b9050919050565b600060208201905081810360008301526116a881611456565b9050919050565b600060208201905081810360008301526116c881611479565b9050919050565b600060208201905081810360008301526116e88161149c565b9050919050565b60006020820190508181036000830152611708816114bf565b9050919050565b600060208201905061172460008301846114e2565b92915050565b600060208201905061173f60008301846114f1565b92915050565b600081519050919050565b600082825260208201905092915050565b600061176c82611a06565b915061177783611a06565b9250827fffffffffffffffffffffffffffffffffffffffffffffffffffffffffffffffff038211156117ac576117ab611a82565b5b828201905092915050565b6000808291508390505b6001851115611801578086048111156117dd576117dc611a82565b5b60018516156117ec5780820291505b80810290506117fa85611af6565b94506117c1565b94509492505050565b600061181582611a06565b915061182083611a10565b925061184d7fffffffffffffffffffffffffffffffffffffffffffffffffffffffffffffffff8484611855565b905092915050565b6000826118655760019050611921565b816118735760009050611921565b81600181146118895760028114611893576118c2565b6001915050611921565b60ff8411156118a5576118a4611a82565b5b8360020a9150848211156118bc576118bb611a82565b5b50611921565b5060208310610133831016604e8410600b84101617156118f75782820a9050838111156118f2576118f1611a82565b5b611921565b61190484848460016117b7565b9250905081840481111561191b5761191a611a82565b5b81810290505b9392505050565b600061193382611a06565b915061193e83611a06565b9250817fffffffffffffffffffffffffffffffffffffffffffffffffffffffffffffffff048311821515161561197757611976611a82565b5b828202905092915050565b600061198d82611a06565b915061199883611a06565b9250828210156119ab576119aa611a82565b5b828203905092915050565b60006119c1826119e6565b9050919050565b60006119d3826119e6565b9050919050565b60008115159050919050565b600073ffffffffffffffffffffffffffffffffffffffff82169050919050565b6000819050919050565b600060ff82169050919050565b60005b83811015611a3b578082015181840152602081019050611a20565b83811115611a4a576000848401525b50505050565b60006002820490506001821680611a6857607f821691505b60208210811415611a7c57611a7b611ab1565b5b50919050565b7f4e487b7100000000000000000000000000000000000000000000000000000000600052601160045260246000fd5b7f4e487b7100000000000000000000000000000000000000000000000000000000600052602260045260246000fd5b600080fd5b6000601f19601f8301169050919050565b60008160011c9050919050565b7f416d6f756e7420657863656564732062616c616e636500000000000000000000600082015250565b7f63616e6e6f74207370656e6420616c6c6f776e61636520746f2061646472657360008201527f7320300000000000000000000000000000000000000000000000000000000000602082015250565b7f4f776e61626c653a206e6577206f776e657220697320746865207a65726f206160008201527f6464726573730000000000000000000000000000000000000000000000000000602082015250565b7f7472616e736665722066726f6d20746865207a65726f20616464726573730000600082015250565b7f7472616e7366657220746f20746865207a65726f206164647265737300000000600082015250565b7f63616e6e6f7420617070726f766520746f206164647265737320300000000000600082015250565b7f6e6f7420656e6f75676820746f6b656e00000000000000000000000000000000600082015250565b7f6e6f7420656e6f75676820746f6b656e20616c6c6f7765640000000000000000600082015250565b7f63616e6e6f74207370656e6420616c6c6f776e6163652066726f6d206164647260008201527f6573732030000000000000000000000000000000000000000000000000000000602082015250565b7f4f776e61626c653a2063616c6c6572206973206e6f7420746865206f776e6572600082015250565b7f416c6c6f77616e63652063616e6e6f74206265206c657373207468616e207a6560008201527f726f000000000000000000000000000000000000000000000000000000000000602082015250565b7f63616e6e6f7420617070726f76652066726f6d20616464726573732030000000600082015250565b611d90816119b6565b8114611d9b57600080fd5b50565b611da7816119c8565b8114611db257600080fd5b50565b611dbe81611a06565b8114611dc957600080fd5b5056fea264697066735822122073edc2ee075212451fc76b492c3aba29e43ef7b1d5397182e217b3fb6b09655664736f6c63430008070033",
					"opcodes": "PUSH1 0x80 PUSH1 0x40 MSTORE PUSH1 0x40 MLOAD DUP1 PUSH1 0x40 ADD PUSH1 0x40 MSTORE DUP1 PUSH1 0x4 DUP2 MSTORE PUSH1 0x20 ADD PUSH32 0x5445535400000000000000000000000000000000000000000000000000000000 DUP2 MSTORE POP PUSH1 0x3 SWAP1 DUP1 MLOAD SWAP1 PUSH1 0x20 ADD SWAP1 PUSH3 0x51 SWAP3 SWAP2 SWAP1 PUSH3 0x248 JUMP JUMPDEST POP PUSH1 0x40 MLOAD DUP1 PUSH1 0x40 ADD PUSH1 0x40 MSTORE DUP1 PUSH1 0x2 DUP2 MSTORE PUSH1 0x20 ADD PUSH32 0x5454000000000000000000000000000000000000000000000000000000000000 DUP2 MSTORE POP PUSH1 0x4 SWAP1 DUP1 MLOAD SWAP1 PUSH1 0x20 ADD SWAP1 PUSH3 0x9F SWAP3 SWAP2 SWAP1 PUSH3 0x248 JUMP JUMPDEST POP PUSH1 0x12 PUSH1 0x5 PUSH1 0x0 PUSH2 0x100 EXP DUP2 SLOAD DUP2 PUSH1 0xFF MUL NOT AND SWAP1 DUP4 PUSH1 0xFF AND MUL OR SWAP1 SSTORE POP PUSH10 0x21E19E0C9BAB2400000 PUSH1 0x6 SSTORE CALLVALUE DUP1 ISZERO PUSH3 0xD7 JUMPI PUSH1 0x0 DUP1 REVERT JUMPDEST POP PUSH3 0xF8 PUSH3 0xEC PUSH3 0x153 PUSH1 0x20 SHL PUSH1 0x20 SHR JUMP JUMPDEST PUSH3 0x15B PUSH1 0x20 SHL PUSH1 0x20 SHR JUMP JUMPDEST PUSH1 0x6 SLOAD PUSH1 0x1 PUSH1 0x0 PUSH3 0x10F PUSH3 0x21F PUSH1 0x20 SHL PUSH1 0x20 SHR JUMP JUMPDEST PUSH20 0xFFFFFFFFFFFFFFFFFFFFFFFFFFFFFFFFFFFFFFFF AND PUSH20 0xFFFFFFFFFFFFFFFFFFFFFFFFFFFFFFFFFFFFFFFF AND DUP2 MSTORE PUSH1 0x20 ADD SWAP1 DUP2 MSTORE PUSH1 0x20 ADD PUSH1 0x0 KECCAK256 DUP2 SWAP1 SSTORE POP PUSH3 0x35D JUMP JUMPDEST PUSH1 0x0 CALLER SWAP1 POP SWAP1 JUMP JUMPDEST PUSH1 0x0 DUP1 PUSH1 0x0 SWAP1 SLOAD SWAP1 PUSH2 0x100 EXP SWAP1 DIV PUSH20 0xFFFFFFFFFFFFFFFFFFFFFFFFFFFFFFFFFFFFFFFF AND SWAP1 POP DUP2 PUSH1 0x0 DUP1 PUSH2 0x100 EXP DUP2 SLOAD DUP2 PUSH20 0xFFFFFFFFFFFFFFFFFFFFFFFFFFFFFFFFFFFFFFFF MUL NOT AND SWAP1 DUP4 PUSH20 0xFFFFFFFFFFFFFFFFFFFFFFFFFFFFFFFFFFFFFFFF AND MUL OR SWAP1 SSTORE POP DUP2 PUSH20 0xFFFFFFFFFFFFFFFFFFFFFFFFFFFFFFFFFFFFFFFF AND DUP2 PUSH20 0xFFFFFFFFFFFFFFFFFFFFFFFFFFFFFFFFFFFFFFFF AND PUSH32 0x8BE0079C531659141344CD1FD0A4F28419497F9722A3DAAFE3B4186F6B6457E0 PUSH1 0x40 MLOAD PUSH1 0x40 MLOAD DUP1 SWAP2 SUB SWAP1 LOG3 POP POP JUMP JUMPDEST PUSH1 0x0 DUP1 PUSH1 0x0 SWAP1 SLOAD SWAP1 PUSH2 0x100 EXP SWAP1 DIV PUSH20 0xFFFFFFFFFFFFFFFFFFFFFFFFFFFFFFFFFFFFFFFF AND SWAP1 POP SWAP1 JUMP JUMPDEST DUP3 DUP1 SLOAD PUSH3 0x256 SWAP1 PUSH3 0x2F8 JUMP JUMPDEST SWAP1 PUSH1 0x0 MSTORE PUSH1 0x20 PUSH1 0x0 KECCAK256 SWAP1 PUSH1 0x1F ADD PUSH1 0x20 SWAP1 DIV DUP2 ADD SWAP3 DUP3 PUSH3 0x27A JUMPI PUSH1 0x0 DUP6 SSTORE PUSH3 0x2C6 JUMP JUMPDEST DUP3 PUSH1 0x1F LT PUSH3 0x295 JUMPI DUP1 MLOAD PUSH1 0xFF NOT AND DUP4 DUP1 ADD OR DUP6 SSTORE PUSH3 0x2C6 JUMP JUMPDEST DUP3 DUP1 ADD PUSH1 0x1 ADD DUP6 SSTORE DUP3 ISZERO PUSH3 0x2C6 JUMPI SWAP2 DUP3 ADD JUMPDEST DUP3 DUP2 GT ISZERO PUSH3 0x2C5 JUMPI DUP3 MLOAD DUP3 SSTORE SWAP2 PUSH1 0x20 ADD SWAP2 SWAP1 PUSH1 0x1 ADD SWAP1 PUSH3 0x2A8 JUMP JUMPDEST JUMPDEST POP SWAP1 POP PUSH3 0x2D5 SWAP2 SWAP1 PUSH3 0x2D9 JUMP JUMPDEST POP SWAP1 JUMP JUMPDEST JUMPDEST DUP1 DUP3 GT ISZERO PUSH3 0x2F4 JUMPI PUSH1 0x0 DUP2 PUSH1 0x0 SWAP1 SSTORE POP PUSH1 0x1 ADD PUSH3 0x2DA JUMP JUMPDEST POP SWAP1 JUMP JUMPDEST PUSH1 0x0 PUSH1 0x2 DUP3 DIV SWAP1 POP PUSH1 0x1 DUP3 AND DUP1 PUSH3 0x311 JUMPI PUSH1 0x7F DUP3 AND SWAP2 POP JUMPDEST PUSH1 0x20 DUP3 LT DUP2 EQ ISZERO PUSH3 0x328 JUMPI PUSH3 0x327 PUSH3 0x32E JUMP JUMPDEST JUMPDEST POP SWAP2 SWAP1 POP JUMP JUMPDEST PUSH32 0x4E487B7100000000000000000000000000000000000000000000000000000000 PUSH1 0x0 MSTORE PUSH1 0x22 PUSH1 0x4 MSTORE PUSH1 0x24 PUSH1 0x0 REVERT JUMPDEST PUSH2 0x1E02 DUP1 PUSH3 0x36D PUSH1 0x0 CODECOPY PUSH1 0x0 RETURN INVALID PUSH1 0x80 PUSH1 0x40 MSTORE CALLVALUE DUP1 ISZERO PUSH2 0x10 JUMPI PUSH1 0x0 DUP1 REVERT JUMPDEST POP PUSH1 0x4 CALLDATASIZE LT PUSH2 0x100 JUMPI PUSH1 0x0 CALLDATALOAD PUSH1 0xE0 SHR DUP1 PUSH4 0x715018A6 GT PUSH2 0x97 JUMPI DUP1 PUSH4 0xA457C2D7 GT PUSH2 0x66 JUMPI DUP1 PUSH4 0xA457C2D7 EQ PUSH2 0x2B5 JUMPI DUP1 PUSH4 0xA9059CBB EQ PUSH2 0x2E5 JUMPI DUP1 PUSH4 0xDD62ED3E EQ PUSH2 0x315 JUMPI DUP1 PUSH4 0xF2FDE38B EQ PUSH2 0x345 JUMPI PUSH2 0x100 JUMP JUMPDEST DUP1 PUSH4 0x715018A6 EQ PUSH2 0x251 JUMPI DUP1 PUSH4 0x893D20E8 EQ PUSH2 0x25B JUMPI DUP1 PUSH4 0x8DA5CB5B EQ PUSH2 0x279 JUMPI DUP1 PUSH4 0x95D89B41 EQ PUSH2 0x297 JUMPI PUSH2 0x100 JUMP JUMPDEST DUP1 PUSH4 0x23B872DD GT PUSH2 0xD3 JUMPI DUP1 PUSH4 0x23B872DD EQ PUSH2 0x1A3 JUMPI DUP1 PUSH4 0x313CE567 EQ PUSH2 0x1D3 JUMPI DUP1 PUSH4 0x39509351 EQ PUSH2 0x1F1 JUMPI DUP1 PUSH4 0x70A08231 EQ PUSH2 0x221 JUMPI PUSH2 0x100 JUMP JUMPDEST DUP1 PUSH4 0x6FDDE03 EQ PUSH2 0x105 JUMPI DUP1 PUSH4 0x95EA7B3 EQ PUSH2 0x123 JUMPI DUP1 PUSH4 0x120BD501 EQ PUSH2 0x153 JUMPI DUP1 PUSH4 0x18160DDD EQ PUSH2 0x185 JUMPI JUMPDEST PUSH1 0x0 DUP1 REVERT JUMPDEST PUSH2 0x10D PUSH2 0x361 JUMP JUMPDEST PUSH1 0x40 MLOAD PUSH2 0x11A SWAP2 SWAP1 PUSH2 0x156D JUMP JUMPDEST PUSH1 0x40 MLOAD DUP1 SWAP2 SUB SWAP1 RETURN JUMPDEST PUSH2 0x13D PUSH1 0x4 DUP1 CALLDATASIZE SUB DUP2 ADD SWAP1 PUSH2 0x138 SWAP2 SWAP1 PUSH2 0x12A7 JUMP JUMPDEST PUSH2 0x3F3 JUMP JUMPDEST PUSH1 0x40 MLOAD PUSH2 0x14A SWAP2 SWAP1 PUSH2 0x1552 JUMP JUMPDEST PUSH1 0x40 MLOAD DUP1 SWAP2 SUB SWAP1 RETURN JUMPDEST PUSH2 0x16D PUSH1 0x4 DUP1 CALLDATASIZE SUB DUP2 ADD SWAP1 PUSH2 0x168 SWAP2 SWAP1 PUSH2 0x11D4 JUMP JUMPDEST PUSH2 0x430 JUMP JUMPDEST PUSH1 0x40 MLOAD PUSH2 0x17C SWAP4 SWAP3 SWAP2 SWAP1 PUSH2 0x151B JUMP JUMPDEST PUSH1 0x40 MLOAD DUP1 SWAP2 SUB SWAP1 RETURN JUMPDEST PUSH2 0x18D PUSH2 0x445 JUMP JUMPDEST PUSH1 0x40 MLOAD PUSH2 0x19A SWAP2 SWAP1 PUSH2 0x170F JUMP JUMPDEST PUSH1 0x40 MLOAD DUP1 SWAP2 SUB SWAP1 RETURN JUMPDEST PUSH2 0x1BD PUSH1 0x4 DUP1 CALLDATASIZE SUB DUP2 ADD SWAP1 PUSH2 0x1B8 SWAP2 SWAP1 PUSH2 0x1254 JUMP JUMPDEST PUSH2 0x44F JUMP JUMPDEST PUSH1 0x40 MLOAD PUSH2 0x1CA SWAP2 SWAP1 PUSH2 0x1552 JUMP JUMPDEST PUSH1 0x40 MLOAD DUP1 SWAP2 SUB SWAP1 RETURN JUMPDEST PUSH2 0x1DB PUSH2 0x540 JUMP JUMPDEST PUSH1 0x40 MLOAD PUSH2 0x1E8 SWAP2 SWAP1 PUSH2 0x172A JUMP JUMPDEST PUSH1 0x40 MLOAD DUP1 SWAP2 SUB SWAP1 RETURN JUMPDEST PUSH2 0x20B PUSH1 0x4 DUP1 CALLDATASIZE SUB DUP2 ADD SWAP1 PUSH2 0x206 SWAP2 SWAP1 PUSH2 0x12A7 JUMP JUMPDEST PUSH2 0x557 JUMP JUMPDEST PUSH1 0x40 MLOAD PUSH2 0x218 SWAP2 SWAP1 PUSH2 0x1552 JUMP JUMPDEST PUSH1 0x40 MLOAD DUP1 SWAP2 SUB SWAP1 RETURN JUMPDEST PUSH2 0x23B PUSH1 0x4 DUP1 CALLDATASIZE SUB DUP2 ADD SWAP1 PUSH2 0x236 SWAP2 SWAP1 PUSH2 0x11A7 JUMP JUMPDEST PUSH2 0x5A8 JUMP JUMPDEST PUSH1 0x40 MLOAD PUSH2 0x248 SWAP2 SWAP1 PUSH2 0x170F JUMP JUMPDEST PUSH1 0x40 MLOAD DUP1 SWAP2 SUB SWAP1 RETURN JUMPDEST PUSH2 0x259 PUSH2 0x5F1 JUMP JUMPDEST STOP JUMPDEST PUSH2 0x263 PUSH2 0x679 JUMP JUMPDEST PUSH1 0x40 MLOAD PUSH2 0x270 SWAP2 SWAP1 PUSH2 0x1500 JUMP JUMPDEST PUSH1 0x40 MLOAD DUP1 SWAP2 SUB SWAP1 RETURN JUMPDEST PUSH2 0x281 PUSH2 0x688 JUMP JUMPDEST PUSH1 0x40 MLOAD PUSH2 0x28E SWAP2 SWAP1 PUSH2 0x1500 JUMP JUMPDEST PUSH1 0x40 MLOAD DUP1 SWAP2 SUB SWAP1 RETURN JUMPDEST PUSH2 0x29F PUSH2 0x6B1 JUMP JUMPDEST PUSH1 0x40 MLOAD PUSH2 0x2AC SWAP2 SWAP1 PUSH2 0x156D JUMP JUMPDEST PUSH1 0x40 MLOAD DUP1 SWAP2 SUB SWAP1 RETURN JUMPDEST PUSH2 0x2CF PUSH1 0x4 DUP1 CALLDATASIZE SUB DUP2 ADD SWAP1 PUSH2 0x2CA SWAP2 SWAP1 PUSH2 0x12A7 JUMP JUMPDEST PUSH2 0x743 JUMP JUMPDEST PUSH1 0x40 MLOAD PUSH2 0x2DC SWAP2 SWAP1 PUSH2 0x1552 JUMP JUMPDEST PUSH1 0x40 MLOAD DUP1 SWAP2 SUB SWAP1 RETURN JUMPDEST PUSH2 0x2FF PUSH1 0x4 DUP1 CALLDATASIZE SUB DUP2 ADD SWAP1 PUSH2 0x2FA SWAP2 SWAP1 PUSH2 0x12A7 JUMP JUMPDEST PUSH2 0x806 JUMP JUMPDEST PUSH1 0x40 MLOAD PUSH2 0x30C SWAP2 SWAP1 PUSH2 0x1552 JUMP JUMPDEST PUSH1 0x40 MLOAD DUP1 SWAP2 SUB SWAP1 RETURN JUMPDEST PUSH2 0x32F PUSH1 0x4 DUP1 CALLDATASIZE SUB DUP2 ADD SWAP1 PUSH2 0x32A SWAP2 SWAP1 PUSH2 0x1214 JUMP JUMPDEST PUSH2 0x8C5 JUMP JUMPDEST PUSH1 0x40 MLOAD PUSH2 0x33C SWAP2 SWAP1 PUSH2 0x170F JUMP JUMPDEST PUSH1 0x40 MLOAD DUP1 SWAP2 SUB SWAP1 RETURN JUMPDEST PUSH2 0x35F PUSH1 0x4 DUP1 CALLDATASIZE SUB DUP2 ADD SWAP1 PUSH2 0x35A SWAP2 SWAP1 PUSH2 0x11A7 JUMP JUMPDEST PUSH2 0x94C JUMP JUMPDEST STOP JUMPDEST PUSH1 0x60 PUSH1 0x3 DUP1 SLOAD PUSH2 0x370 SWAP1 PUSH2 0x1A50 JUMP JUMPDEST DUP1 PUSH1 0x1F ADD PUSH1 0x20 DUP1 SWAP2 DIV MUL PUSH1 0x20 ADD PUSH1 0x40 MLOAD SWAP1 DUP2 ADD PUSH1 0x40 MSTORE DUP1 SWAP3 SWAP2 SWAP1 DUP2 DUP2 MSTORE PUSH1 0x20 ADD DUP3 DUP1 SLOAD PUSH2 0x39C SWAP1 PUSH2 0x1A50 JUMP JUMPDEST DUP1 ISZERO PUSH2 0x3E9 JUMPI DUP1 PUSH1 0x1F LT PUSH2 0x3BE JUMPI PUSH2 0x100 DUP1 DUP4 SLOAD DIV MUL DUP4 MSTORE SWAP2 PUSH1 0x20 ADD SWAP2 PUSH2 0x3E9 JUMP JUMPDEST DUP3 ADD SWAP2 SWAP1 PUSH1 0x0 MSTORE PUSH1 0x20 PUSH1 0x0 KECCAK256 SWAP1 JUMPDEST DUP2 SLOAD DUP2 MSTORE SWAP1 PUSH1 0x1 ADD SWAP1 PUSH1 0x20 ADD DUP1 DUP4 GT PUSH2 0x3CC JUMPI DUP3 SWAP1 SUB PUSH1 0x1F AND DUP3 ADD SWAP2 JUMPDEST POP POP POP POP POP SWAP1 POP SWAP1 JUMP JUMPDEST PUSH1 0x0 PUSH2 0x426 CALLER DUP5 PUSH1 0x5 PUSH1 0x0 SWAP1 SLOAD SWAP1 PUSH2 0x100 EXP SWAP1 DIV PUSH1 0xFF AND PUSH1 0xA PUSH2 0x416 SWAP2 SWAP1 PUSH2 0x180A JUMP JUMPDEST DUP6 PUSH2 0x421 SWAP2 SWAP1 PUSH2 0x1928 JUMP JUMPDEST PUSH2 0xA44 JUMP JUMPDEST PUSH1 0x1 SWAP1 POP SWAP3 SWAP2 POP POP JUMP JUMPDEST PUSH1 0x0 DUP1 PUSH1 0x0 CALLER DUP5 DUP7 SWAP3 POP SWAP3 POP SWAP3 POP SWAP3 POP SWAP3 POP SWAP3 JUMP JUMPDEST PUSH1 0x0 PUSH1 0x6 SLOAD SWAP1 POP SWAP1 JUMP JUMPDEST PUSH1 0x0 PUSH1 0x5 PUSH1 0x0 SWAP1 SLOAD SWAP1 PUSH2 0x100 EXP SWAP1 DIV PUSH1 0xFF AND PUSH1 0xA PUSH2 0x46D SWAP2 SWAP1 PUSH2 0x180A JUMP JUMPDEST DUP3 PUSH2 0x478 SWAP2 SWAP1 PUSH2 0x1928 JUMP JUMPDEST PUSH1 0x1 PUSH1 0x0 DUP7 PUSH20 0xFFFFFFFFFFFFFFFFFFFFFFFFFFFFFFFFFFFFFFFF AND PUSH20 0xFFFFFFFFFFFFFFFFFFFFFFFFFFFFFFFFFFFFFFFF AND DUP2 MSTORE PUSH1 0x20 ADD SWAP1 DUP2 MSTORE PUSH1 0x20 ADD PUSH1 0x0 KECCAK256 SLOAD LT ISZERO PUSH2 0x4F9 JUMPI PUSH1 0x40 MLOAD PUSH32 0x8C379A000000000000000000000000000000000000000000000000000000000 DUP2 MSTORE PUSH1 0x4 ADD PUSH2 0x4F0 SWAP1 PUSH2 0x158F JUMP JUMPDEST PUSH1 0x40 MLOAD DUP1 SWAP2 SUB SWAP1 REVERT JUMPDEST PUSH2 0x504 DUP5 CALLER DUP5 PUSH2 0xC91 JUMP JUMPDEST PUSH2 0x535 DUP5 DUP5 PUSH1 0x5 PUSH1 0x0 SWAP1 SLOAD SWAP1 PUSH2 0x100 EXP SWAP1 DIV PUSH1 0xFF AND PUSH1 0xA PUSH2 0x525 SWAP2 SWAP1 PUSH2 0x180A JUMP JUMPDEST DUP6 PUSH2 0x530 SWAP2 SWAP1 PUSH2 0x1928 JUMP JUMPDEST PUSH2 0xEFC JUMP JUMPDEST PUSH1 0x1 SWAP1 POP SWAP4 SWAP3 POP POP POP JUMP JUMPDEST PUSH1 0x0 PUSH1 0x5 PUSH1 0x0 SWAP1 SLOAD SWAP1 PUSH2 0x100 EXP SWAP1 DIV PUSH1 0xFF AND SWAP1 POP SWAP1 JUMP JUMPDEST PUSH1 0x0 PUSH2 0x59E CALLER DUP5 PUSH1 0x5 PUSH1 0x0 SWAP1 SLOAD SWAP1 PUSH2 0x100 EXP SWAP1 DIV PUSH1 0xFF AND PUSH1 0xA PUSH2 0x57A SWAP2 SWAP1 PUSH2 0x180A JUMP JUMPDEST DUP6 PUSH2 0x585 SWAP2 SWAP1 PUSH2 0x1928 JUMP JUMPDEST PUSH2 0x58F CALLER DUP9 PUSH2 0x8C5 JUMP JUMPDEST PUSH2 0x599 SWAP2 SWAP1 PUSH2 0x1761 JUMP JUMPDEST PUSH2 0xA44 JUMP JUMPDEST PUSH1 0x1 SWAP1 POP SWAP3 SWAP2 POP POP JUMP JUMPDEST PUSH1 0x0 PUSH1 0x1 PUSH1 0x0 DUP4 PUSH20 0xFFFFFFFFFFFFFFFFFFFFFFFFFFFFFFFFFFFFFFFF AND PUSH20 0xFFFFFFFFFFFFFFFFFFFFFFFFFFFFFFFFFFFFFFFF AND DUP2 MSTORE PUSH1 0x20 ADD SWAP1 DUP2 MSTORE PUSH1 0x20 ADD PUSH1 0x0 KECCAK256 SLOAD SWAP1 POP SWAP2 SWAP1 POP JUMP JUMPDEST PUSH2 0x5F9 PUSH2 0x109C JUMP JUMPDEST PUSH20 0xFFFFFFFFFFFFFFFFFFFFFFFFFFFFFFFFFFFFFFFF AND PUSH2 0x617 PUSH2 0x688 JUMP JUMPDEST PUSH20 0xFFFFFFFFFFFFFFFFFFFFFFFFFFFFFFFFFFFFFFFF AND EQ PUSH2 0x66D JUMPI PUSH1 0x40 MLOAD PUSH32 0x8C379A000000000000000000000000000000000000000000000000000000000 DUP2 MSTORE PUSH1 0x4 ADD PUSH2 0x664 SWAP1 PUSH2 0x16AF JUMP JUMPDEST PUSH1 0x40 MLOAD DUP1 SWAP2 SUB SWAP1 REVERT JUMPDEST PUSH2 0x677 PUSH1 0x0 PUSH2 0x10A4 JUMP JUMPDEST JUMP JUMPDEST PUSH1 0x0 PUSH2 0x683 PUSH2 0x688 JUMP JUMPDEST SWAP1 POP SWAP1 JUMP JUMPDEST PUSH1 0x0 DUP1 PUSH1 0x0 SWAP1 SLOAD SWAP1 PUSH2 0x100 EXP SWAP1 DIV PUSH20 0xFFFFFFFFFFFFFFFFFFFFFFFFFFFFFFFFFFFFFFFF AND SWAP1 POP SWAP1 JUMP JUMPDEST PUSH1 0x60 PUSH1 0x4 DUP1 SLOAD PUSH2 0x6C0 SWAP1 PUSH2 0x1A50 JUMP JUMPDEST DUP1 PUSH1 0x1F ADD PUSH1 0x20 DUP1 SWAP2 DIV MUL PUSH1 0x20 ADD PUSH1 0x40 MLOAD SWAP1 DUP2 ADD PUSH1 0x40 MSTORE DUP1 SWAP3 SWAP2 SWAP1 DUP2 DUP2 MSTORE PUSH1 0x20 ADD DUP3 DUP1 SLOAD PUSH2 0x6EC SWAP1 PUSH2 0x1A50 JUMP JUMPDEST DUP1 ISZERO PUSH2 0x739 JUMPI DUP1 PUSH1 0x1F LT PUSH2 0x70E JUMPI PUSH2 0x100 DUP1 DUP4 SLOAD DIV MUL DUP4 MSTORE SWAP2 PUSH1 0x20 ADD SWAP2 PUSH2 0x739 JUMP JUMPDEST DUP3 ADD SWAP2 SWAP1 PUSH1 0x0 MSTORE PUSH1 0x20 PUSH1 0x0 KECCAK256 SWAP1 JUMPDEST DUP2 SLOAD DUP2 MSTORE SWAP1 PUSH1 0x1 ADD SWAP1 PUSH1 0x20 ADD DUP1 DUP4 GT PUSH2 0x71C JUMPI DUP3 SWAP1 SUB PUSH1 0x1F AND DUP3 ADD SWAP2 JUMPDEST POP POP POP POP POP SWAP1 POP SWAP1 JUMP JUMPDEST PUSH1 0x0 PUSH1 0x5 PUSH1 0x0 SWAP1 SLOAD SWAP1 PUSH2 0x100 EXP SWAP1 DIV PUSH1 0xFF AND PUSH1 0xA PUSH2 0x761 SWAP2 SWAP1 PUSH2 0x180A JUMP JUMPDEST DUP3 PUSH2 0x76C SWAP2 SWAP1 PUSH2 0x1928 JUMP JUMPDEST PUSH2 0x776 CALLER DUP6 PUSH2 0x8C5 JUMP JUMPDEST LT ISZERO PUSH2 0x7B7 JUMPI PUSH1 0x40 MLOAD PUSH32 0x8C379A000000000000000000000000000000000000000000000000000000000 DUP2 MSTORE PUSH1 0x4 ADD PUSH2 0x7AE SWAP1 PUSH2 0x16CF JUMP JUMPDEST PUSH1 0x40 MLOAD DUP1 SWAP2 SUB SWAP1 REVERT JUMPDEST PUSH2 0x7FC CALLER DUP5 PUSH1 0x5 PUSH1 0x0 SWAP1 SLOAD SWAP1 PUSH2 0x100 EXP SWAP1 DIV PUSH1 0xFF AND PUSH1 0xA PUSH2 0x7D8 SWAP2 SWAP1 PUSH2 0x180A JUMP JUMPDEST DUP6 PUSH2 0x7E3 SWAP2 SWAP1 PUSH2 0x1928 JUMP JUMPDEST PUSH2 0x7ED CALLER DUP9 PUSH2 0x8C5 JUMP JUMPDEST PUSH2 0x7F7 SWAP2 SWAP1 PUSH2 0x1982 JUMP JUMPDEST PUSH2 0xA44 JUMP JUMPDEST PUSH1 0x1 SWAP1 POP SWAP3 SWAP2 POP POP JUMP JUMPDEST PUSH1 0x0 DUP2 PUSH1 0x1 PUSH1 0x0 CALLER PUSH20 0xFFFFFFFFFFFFFFFFFFFFFFFFFFFFFFFFFFFFFFFF AND PUSH20 0xFFFFFFFFFFFFFFFFFFFFFFFFFFFFFFFFFFFFFFFF AND DUP2 MSTORE PUSH1 0x20 ADD SWAP1 DUP2 MSTORE PUSH1 0x20 ADD PUSH1 0x0 KECCAK256 SLOAD LT ISZERO PUSH2 0x88A JUMPI PUSH1 0x40 MLOAD PUSH32 0x8C379A000000000000000000000000000000000000000000000000000000000 DUP2 MSTORE PUSH1 0x4 ADD PUSH2 0x881 SWAP1 PUSH2 0x158F JUMP JUMPDEST PUSH1 0x40 MLOAD DUP1 SWAP2 SUB SWAP1 REVERT JUMPDEST PUSH2 0x8BB CALLER DUP5 PUSH1 0x5 PUSH1 0x0 SWAP1 SLOAD SWAP1 PUSH2 0x100 EXP SWAP1 DIV PUSH1 0xFF AND PUSH1 0xA PUSH2 0x8AB SWAP2 SWAP1 PUSH2 0x180A JUMP JUMPDEST DUP6 PUSH2 0x8B6 SWAP2 SWAP1 PUSH2 0x1928 JUMP JUMPDEST PUSH2 0xEFC JUMP JUMPDEST PUSH1 0x1 SWAP1 POP SWAP3 SWAP2 POP POP JUMP JUMPDEST PUSH1 0x0 PUSH1 0x2 PUSH1 0x0 DUP5 PUSH20 0xFFFFFFFFFFFFFFFFFFFFFFFFFFFFFFFFFFFFFFFF AND PUSH20 0xFFFFFFFFFFFFFFFFFFFFFFFFFFFFFFFFFFFFFFFF AND DUP2 MSTORE PUSH1 0x20 ADD SWAP1 DUP2 MSTORE PUSH1 0x20 ADD PUSH1 0x0 KECCAK256 PUSH1 0x0 DUP4 PUSH20 0xFFFFFFFFFFFFFFFFFFFFFFFFFFFFFFFFFFFFFFFF AND PUSH20 0xFFFFFFFFFFFFFFFFFFFFFFFFFFFFFFFFFFFFFFFF AND DUP2 MSTORE PUSH1 0x20 ADD SWAP1 DUP2 MSTORE PUSH1 0x20 ADD PUSH1 0x0 KECCAK256 SLOAD SWAP1 POP SWAP3 SWAP2 POP POP JUMP JUMPDEST PUSH2 0x954 PUSH2 0x109C JUMP JUMPDEST PUSH20 0xFFFFFFFFFFFFFFFFFFFFFFFFFFFFFFFFFFFFFFFF AND PUSH2 0x972 PUSH2 0x688 JUMP JUMPDEST PUSH20 0xFFFFFFFFFFFFFFFFFFFFFFFFFFFFFFFFFFFFFFFF AND EQ PUSH2 0x9C8 JUMPI PUSH1 0x40 MLOAD PUSH32 0x8C379A000000000000000000000000000000000000000000000000000000000 DUP2 MSTORE PUSH1 0x4 ADD PUSH2 0x9BF SWAP1 PUSH2 0x16AF JUMP JUMPDEST PUSH1 0x40 MLOAD DUP1 SWAP2 SUB SWAP1 REVERT JUMPDEST PUSH1 0x0 PUSH20 0xFFFFFFFFFFFFFFFFFFFFFFFFFFFFFFFFFFFFFFFF AND DUP2 PUSH20 0xFFFFFFFFFFFFFFFFFFFFFFFFFFFFFFFFFFFFFFFF AND EQ ISZERO PUSH2 0xA38 JUMPI PUSH1 0x40 MLOAD PUSH32 0x8C379A000000000000000000000000000000000000000000000000000000000 DUP2 MSTORE PUSH1 0x4 ADD PUSH2 0xA2F SWAP1 PUSH2 0x15CF JUMP JUMPDEST PUSH1 0x40 MLOAD DUP1 SWAP2 SUB SWAP1 REVERT JUMPDEST PUSH2 0xA41 DUP2 PUSH2 0x10A4 JUMP JUMPDEST POP JUMP JUMPDEST PUSH1 0x0 PUSH20 0xFFFFFFFFFFFFFFFFFFFFFFFFFFFFFFFFFFFFFFFF AND DUP4 PUSH20 0xFFFFFFFFFFFFFFFFFFFFFFFFFFFFFFFFFFFFFFFF AND EQ ISZERO PUSH2 0xAB4 JUMPI PUSH1 0x40 MLOAD PUSH32 0x8C379A000000000000000000000000000000000000000000000000000000000 DUP2 MSTORE PUSH1 0x4 ADD PUSH2 0xAAB SWAP1 PUSH2 0x16EF JUMP JUMPDEST PUSH1 0x40 MLOAD DUP1 SWAP2 SUB SWAP1 REVERT JUMPDEST PUSH1 0x0 PUSH20 0xFFFFFFFFFFFFFFFFFFFFFFFFFFFFFFFFFFFFFFFF AND DUP3 PUSH20 0xFFFFFFFFFFFFFFFFFFFFFFFFFFFFFFFFFFFFFFFF AND EQ ISZERO PUSH2 0xB24 JUMPI PUSH1 0x40 MLOAD PUSH32 0x8C379A000000000000000000000000000000000000000000000000000000000 DUP2 MSTORE PUSH1 0x4 ADD PUSH2 0xB1B SWAP1 PUSH2 0x162F JUMP JUMPDEST PUSH1 0x40 MLOAD DUP1 SWAP2 SUB SWAP1 REVERT JUMPDEST DUP1 PUSH1 0x1 PUSH1 0x0 DUP6 PUSH20 0xFFFFFFFFFFFFFFFFFFFFFFFFFFFFFFFFFFFFFFFF AND PUSH20 0xFFFFFFFFFFFFFFFFFFFFFFFFFFFFFFFFFFFFFFFF AND DUP2 MSTORE PUSH1 0x20 ADD SWAP1 DUP2 MSTORE PUSH1 0x20 ADD PUSH1 0x0 KECCAK256 SLOAD LT ISZERO PUSH2 0xBA6 JUMPI PUSH1 0x40 MLOAD PUSH32 0x8C379A000000000000000000000000000000000000000000000000000000000 DUP2 MSTORE PUSH1 0x4 ADD PUSH2 0xB9D SWAP1 PUSH2 0x164F JUMP JUMPDEST PUSH1 0x40 MLOAD DUP1 SWAP2 SUB SWAP1 REVERT JUMPDEST DUP1 PUSH1 0x2 PUSH1 0x0 DUP6 PUSH20 0xFFFFFFFFFFFFFFFFFFFFFFFFFFFFFFFFFFFFFFFF AND PUSH20 0xFFFFFFFFFFFFFFFFFFFFFFFFFFFFFFFFFFFFFFFF AND DUP2 MSTORE PUSH1 0x20 ADD SWAP1 DUP2 MSTORE PUSH1 0x20 ADD PUSH1 0x0 KECCAK256 PUSH1 0x0 DUP5 PUSH20 0xFFFFFFFFFFFFFFFFFFFFFFFFFFFFFFFFFFFFFFFF AND PUSH20 0xFFFFFFFFFFFFFFFFFFFFFFFFFFFFFFFFFFFFFFFF AND DUP2 MSTORE PUSH1 0x20 ADD SWAP1 DUP2 MSTORE PUSH1 0x20 ADD PUSH1 0x0 KECCAK256 DUP2 SWAP1 SSTORE POP DUP2 PUSH20 0xFFFFFFFFFFFFFFFFFFFFFFFFFFFFFFFFFFFFFFFF AND DUP4 PUSH20 0xFFFFFFFFFFFFFFFFFFFFFFFFFFFFFFFFFFFFFFFF AND PUSH32 0x8C5BE1E5EBEC7D5BD14F71427D1E84F3DD0314C0F7B2291E5B200AC8C7C3B925 DUP4 PUSH1 0x40 MLOAD PUSH2 0xC84 SWAP2 SWAP1 PUSH2 0x170F JUMP JUMPDEST PUSH1 0x40 MLOAD DUP1 SWAP2 SUB SWAP1 LOG3 POP POP POP JUMP JUMPDEST PUSH1 0x0 PUSH20 0xFFFFFFFFFFFFFFFFFFFFFFFFFFFFFFFFFFFFFFFF AND DUP4 PUSH20 0xFFFFFFFFFFFFFFFFFFFFFFFFFFFFFFFFFFFFFFFF AND EQ ISZERO PUSH2 0xD01 JUMPI PUSH1 0x40 MLOAD PUSH32 0x8C379A000000000000000000000000000000000000000000000000000000000 DUP2 MSTORE PUSH1 0x4 ADD PUSH2 0xCF8 SWAP1 PUSH2 0x168F JUMP JUMPDEST PUSH1 0x40 MLOAD DUP1 SWAP2 SUB SWAP1 REVERT JUMPDEST PUSH1 0x0 PUSH20 0xFFFFFFFFFFFFFFFFFFFFFFFFFFFFFFFFFFFFFFFF AND DUP3 PUSH20 0xFFFFFFFFFFFFFFFFFFFFFFFFFFFFFFFFFFFFFFFF AND EQ ISZERO PUSH2 0xD71 JUMPI PUSH1 0x40 MLOAD PUSH32 0x8C379A000000000000000000000000000000000000000000000000000000000 DUP2 MSTORE PUSH1 0x4 ADD PUSH2 0xD68 SWAP1 PUSH2 0x15AF JUMP JUMPDEST PUSH1 0x40 MLOAD DUP1 SWAP2 SUB SWAP1 REVERT JUMPDEST PUSH1 0x5 PUSH1 0x0 SWAP1 SLOAD SWAP1 PUSH2 0x100 EXP SWAP1 DIV PUSH1 0xFF AND PUSH1 0xA PUSH2 0xD8D SWAP2 SWAP1 PUSH2 0x180A JUMP JUMPDEST DUP2 PUSH2 0xD98 SWAP2 SWAP1 PUSH2 0x1928 JUMP JUMPDEST PUSH1 0x2 PUSH1 0x0 DUP6 PUSH20 0xFFFFFFFFFFFFFFFFFFFFFFFFFFFFFFFFFFFFFFFF AND PUSH20 0xFFFFFFFFFFFFFFFFFFFFFFFFFFFFFFFFFFFFFFFF AND DUP2 MSTORE PUSH1 0x20 ADD SWAP1 DUP2 MSTORE PUSH1 0x20 ADD PUSH1 0x0 KECCAK256 PUSH1 0x0 DUP5 PUSH20 0xFFFFFFFFFFFFFFFFFFFFFFFFFFFFFFFFFFFFFFFF AND PUSH20 0xFFFFFFFFFFFFFFFFFFFFFFFFFFFFFFFFFFFFFFFF AND DUP2 MSTORE PUSH1 0x20 ADD SWAP1 DUP2 MSTORE PUSH1 0x20 ADD PUSH1 0x0 KECCAK256 SLOAD LT ISZERO PUSH2 0xE56 JUMPI PUSH1 0x40 MLOAD PUSH32 0x8C379A000000000000000000000000000000000000000000000000000000000 DUP2 MSTORE PUSH1 0x4 ADD PUSH2 0xE4D SWAP1 PUSH2 0x166F JUMP JUMPDEST PUSH1 0x40 MLOAD DUP1 SWAP2 SUB SWAP1 REVERT JUMPDEST PUSH1 0x5 PUSH1 0x0 SWAP1 SLOAD SWAP1 PUSH2 0x100 EXP SWAP1 DIV PUSH1 0xFF AND PUSH1 0xFF AND PUSH1 0xA EXP DUP2 MUL PUSH1 0x2 PUSH1 0x0 DUP6 PUSH20 0xFFFFFFFFFFFFFFFFFFFFFFFFFFFFFFFFFFFFFFFF AND PUSH20 0xFFFFFFFFFFFFFFFFFFFFFFFFFFFFFFFFFFFFFFFF AND DUP2 MSTORE PUSH1 0x20 ADD SWAP1 DUP2 MSTORE PUSH1 0x20 ADD PUSH1 0x0 KECCAK256 PUSH1 0x0 DUP5 PUSH20 0xFFFFFFFFFFFFFFFFFFFFFFFFFFFFFFFFFFFFFFFF AND PUSH20 0xFFFFFFFFFFFFFFFFFFFFFFFFFFFFFFFFFFFFFFFF AND DUP2 MSTORE PUSH1 0x20 ADD SWAP1 DUP2 MSTORE PUSH1 0x20 ADD PUSH1 0x0 KECCAK256 PUSH1 0x0 DUP3 DUP3 SLOAD SUB SWAP3 POP POP DUP2 SWAP1 SSTORE POP POP POP POP JUMP JUMPDEST PUSH1 0x0 PUSH20 0xFFFFFFFFFFFFFFFFFFFFFFFFFFFFFFFFFFFFFFFF AND DUP4 PUSH20 0xFFFFFFFFFFFFFFFFFFFFFFFFFFFFFFFFFFFFFFFF AND EQ ISZERO PUSH2 0xF6C JUMPI PUSH1 0x40 MLOAD PUSH32 0x8C379A000000000000000000000000000000000000000000000000000000000 DUP2 MSTORE PUSH1 0x4 ADD PUSH2 0xF63 SWAP1 PUSH2 0x15EF JUMP JUMPDEST PUSH1 0x40 MLOAD DUP1 SWAP2 SUB SWAP1 REVERT JUMPDEST PUSH1 0x0 PUSH20 0xFFFFFFFFFFFFFFFFFFFFFFFFFFFFFFFFFFFFFFFF AND DUP3 PUSH20 0xFFFFFFFFFFFFFFFFFFFFFFFFFFFFFFFFFFFFFFFF AND EQ ISZERO PUSH2 0xFDC JUMPI PUSH1 0x40 MLOAD PUSH32 0x8C379A000000000000000000000000000000000000000000000000000000000 DUP2 MSTORE PUSH1 0x4 ADD PUSH2 0xFD3 SWAP1 PUSH2 0x160F JUMP JUMPDEST PUSH1 0x40 MLOAD DUP1 SWAP2 SUB SWAP1 REVERT JUMPDEST DUP1 PUSH1 0x1 PUSH1 0x0 DUP5 PUSH20 0xFFFFFFFFFFFFFFFFFFFFFFFFFFFFFFFFFFFFFFFF AND PUSH20 0xFFFFFFFFFFFFFFFFFFFFFFFFFFFFFFFFFFFFFFFF AND DUP2 MSTORE PUSH1 0x20 ADD SWAP1 DUP2 MSTORE PUSH1 0x20 ADD PUSH1 0x0 KECCAK256 PUSH1 0x0 DUP3 DUP3 SLOAD PUSH2 0x102B SWAP2 SWAP1 PUSH2 0x1761 JUMP JUMPDEST SWAP3 POP POP DUP2 SWAP1 SSTORE POP DUP2 PUSH20 0xFFFFFFFFFFFFFFFFFFFFFFFFFFFFFFFFFFFFFFFF AND DUP4 PUSH20 0xFFFFFFFFFFFFFFFFFFFFFFFFFFFFFFFFFFFFFFFF AND PUSH32 0xDDF252AD1BE2C89B69C2B068FC378DAA952BA7F163C4A11628F55A4DF523B3EF DUP4 PUSH1 0x40 MLOAD PUSH2 0x108F SWAP2 SWAP1 PUSH2 0x170F JUMP JUMPDEST PUSH1 0x40 MLOAD DUP1 SWAP2 SUB SWAP1 LOG3 POP POP POP JUMP JUMPDEST PUSH1 0x0 CALLER SWAP1 POP SWAP1 JUMP JUMPDEST PUSH1 0x0 DUP1 PUSH1 0x0 SWAP1 SLOAD SWAP1 PUSH2 0x100 EXP SWAP1 DIV PUSH20 0xFFFFFFFFFFFFFFFFFFFFFFFFFFFFFFFFFFFFFFFF AND SWAP1 POP DUP2 PUSH1 0x0 DUP1 PUSH2 0x100 EXP DUP2 SLOAD DUP2 PUSH20 0xFFFFFFFFFFFFFFFFFFFFFFFFFFFFFFFFFFFFFFFF MUL NOT AND SWAP1 DUP4 PUSH20 0xFFFFFFFFFFFFFFFFFFFFFFFFFFFFFFFFFFFFFFFF AND MUL OR SWAP1 SSTORE POP DUP2 PUSH20 0xFFFFFFFFFFFFFFFFFFFFFFFFFFFFFFFFFFFFFFFF AND DUP2 PUSH20 0xFFFFFFFFFFFFFFFFFFFFFFFFFFFFFFFFFFFFFFFF AND PUSH32 0x8BE0079C531659141344CD1FD0A4F28419497F9722A3DAAFE3B4186F6B6457E0 PUSH1 0x40 MLOAD PUSH1 0x40 MLOAD DUP1 SWAP2 SUB SWAP1 LOG3 POP POP JUMP JUMPDEST PUSH1 0x0 DUP2 CALLDATALOAD SWAP1 POP PUSH2 0x1177 DUP2 PUSH2 0x1D87 JUMP JUMPDEST SWAP3 SWAP2 POP POP JUMP JUMPDEST PUSH1 0x0 DUP2 CALLDATALOAD SWAP1 POP PUSH2 0x118C DUP2 PUSH2 0x1D9E JUMP JUMPDEST SWAP3 SWAP2 POP POP JUMP JUMPDEST PUSH1 0x0 DUP2 CALLDATALOAD SWAP1 POP PUSH2 0x11A1 DUP2 PUSH2 0x1DB5 JUMP JUMPDEST SWAP3 SWAP2 POP POP JUMP JUMPDEST PUSH1 0x0 PUSH1 0x20 DUP3 DUP5 SUB SLT ISZERO PUSH2 0x11BD JUMPI PUSH2 0x11BC PUSH2 0x1AE0 JUMP JUMPDEST JUMPDEST PUSH1 0x0 PUSH2 0x11CB DUP5 DUP3 DUP6 ADD PUSH2 0x1168 JUMP JUMPDEST SWAP2 POP POP SWAP3 SWAP2 POP POP JUMP JUMPDEST PUSH1 0x0 DUP1 PUSH1 0x40 DUP4 DUP6 SUB SLT ISZERO PUSH2 0x11EB JUMPI PUSH2 0x11EA PUSH2 0x1AE0 JUMP JUMPDEST JUMPDEST PUSH1 0x0 PUSH2 0x11F9 DUP6 DUP3 DUP7 ADD PUSH2 0x117D JUMP JUMPDEST SWAP3 POP POP PUSH1 0x20 PUSH2 0x120A DUP6 DUP3 DUP7 ADD PUSH2 0x1192 JUMP JUMPDEST SWAP2 POP POP SWAP3 POP SWAP3 SWAP1 POP JUMP JUMPDEST PUSH1 0x0 DUP1 PUSH1 0x40 DUP4 DUP6 SUB SLT ISZERO PUSH2 0x122B JUMPI PUSH2 0x122A PUSH2 0x1AE0 JUMP JUMPDEST JUMPDEST PUSH1 0x0 PUSH2 0x1239 DUP6 DUP3 DUP7 ADD PUSH2 0x1168 JUMP JUMPDEST SWAP3 POP POP PUSH1 0x20 PUSH2 0x124A DUP6 DUP3 DUP7 ADD PUSH2 0x1168 JUMP JUMPDEST SWAP2 POP POP SWAP3 POP SWAP3 SWAP1 POP JUMP JUMPDEST PUSH1 0x0 DUP1 PUSH1 0x0 PUSH1 0x60 DUP5 DUP7 SUB SLT ISZERO PUSH2 0x126D JUMPI PUSH2 0x126C PUSH2 0x1AE0 JUMP JUMPDEST JUMPDEST PUSH1 0x0 PUSH2 0x127B DUP7 DUP3 DUP8 ADD PUSH2 0x1168 JUMP JUMPDEST SWAP4 POP POP PUSH1 0x20 PUSH2 0x128C DUP7 DUP3 DUP8 ADD PUSH2 0x1168 JUMP JUMPDEST SWAP3 POP POP PUSH1 0x40 PUSH2 0x129D DUP7 DUP3 DUP8 ADD PUSH2 0x1192 JUMP JUMPDEST SWAP2 POP POP SWAP3 POP SWAP3 POP SWAP3 JUMP JUMPDEST PUSH1 0x0 DUP1 PUSH1 0x40 DUP4 DUP6 SUB SLT ISZERO PUSH2 0x12BE JUMPI PUSH2 0x12BD PUSH2 0x1AE0 JUMP JUMPDEST JUMPDEST PUSH1 0x0 PUSH2 0x12CC DUP6 DUP3 DUP7 ADD PUSH2 0x1168 JUMP JUMPDEST SWAP3 POP POP PUSH1 0x20 PUSH2 0x12DD DUP6 DUP3 DUP7 ADD PUSH2 0x1192 JUMP JUMPDEST SWAP2 POP POP SWAP3 POP SWAP3 SWAP1 POP JUMP JUMPDEST PUSH2 0x12F0 DUP2 PUSH2 0x19B6 JUMP JUMPDEST DUP3 MSTORE POP POP JUMP JUMPDEST PUSH2 0x12FF DUP2 PUSH2 0x19DA JUMP JUMPDEST DUP3 MSTORE POP POP JUMP JUMPDEST PUSH1 0x0 PUSH2 0x1310 DUP3 PUSH2 0x1745 JUMP JUMPDEST PUSH2 0x131A DUP2 DUP6 PUSH2 0x1750 JUMP JUMPDEST SWAP4 POP PUSH2 0x132A DUP2 DUP6 PUSH1 0x20 DUP7 ADD PUSH2 0x1A1D JUMP JUMPDEST PUSH2 0x1333 DUP2 PUSH2 0x1AE5 JUMP JUMPDEST DUP5 ADD SWAP2 POP POP SWAP3 SWAP2 POP POP JUMP JUMPDEST PUSH1 0x0 PUSH2 0x134B PUSH1 0x16 DUP4 PUSH2 0x1750 JUMP JUMPDEST SWAP2 POP PUSH2 0x1356 DUP3 PUSH2 0x1B03 JUMP JUMPDEST PUSH1 0x20 DUP3 ADD SWAP1 POP SWAP2 SWAP1 POP JUMP JUMPDEST PUSH1 0x0 PUSH2 0x136E PUSH1 0x23 DUP4 PUSH2 0x1750 JUMP JUMPDEST SWAP2 POP PUSH2 0x1379 DUP3 PUSH2 0x1B2C JUMP JUMPDEST PUSH1 0x40 DUP3 ADD SWAP1 POP SWAP2 SWAP1 POP JUMP JUMPDEST PUSH1 0x0 PUSH2 0x1391 PUSH1 0x26 DUP4 PUSH2 0x1750 JUMP JUMPDEST SWAP2 POP PUSH2 0x139C DUP3 PUSH2 0x1B7B JUMP JUMPDEST PUSH1 0x40 DUP3 ADD SWAP1 POP SWAP2 SWAP1 POP JUMP JUMPDEST PUSH1 0x0 PUSH2 0x13B4 PUSH1 0x1E DUP4 PUSH2 0x1750 JUMP JUMPDEST SWAP2 POP PUSH2 0x13BF DUP3 PUSH2 0x1BCA JUMP JUMPDEST PUSH1 0x20 DUP3 ADD SWAP1 POP SWAP2 SWAP1 POP JUMP JUMPDEST PUSH1 0x0 PUSH2 0x13D7 PUSH1 0x1C DUP4 PUSH2 0x1750 JUMP JUMPDEST SWAP2 POP PUSH2 0x13E2 DUP3 PUSH2 0x1BF3 JUMP JUMPDEST PUSH1 0x20 DUP3 ADD SWAP1 POP SWAP2 SWAP1 POP JUMP JUMPDEST PUSH1 0x0 PUSH2 0x13FA PUSH1 0x1B DUP4 PUSH2 0x1750 JUMP JUMPDEST SWAP2 POP PUSH2 0x1405 DUP3 PUSH2 0x1C1C JUMP JUMPDEST PUSH1 0x20 DUP3 ADD SWAP1 POP SWAP2 SWAP1 POP JUMP JUMPDEST PUSH1 0x0 PUSH2 0x141D PUSH1 0x10 DUP4 PUSH2 0x1750 JUMP JUMPDEST SWAP2 POP PUSH2 0x1428 DUP3 PUSH2 0x1C45 JUMP JUMPDEST PUSH1 0x20 DUP3 ADD SWAP1 POP SWAP2 SWAP1 POP JUMP JUMPDEST PUSH1 0x0 PUSH2 0x1440 PUSH1 0x18 DUP4 PUSH2 0x1750 JUMP JUMPDEST SWAP2 POP PUSH2 0x144B DUP3 PUSH2 0x1C6E JUMP JUMPDEST PUSH1 0x20 DUP3 ADD SWAP1 POP SWAP2 SWAP1 POP JUMP JUMPDEST PUSH1 0x0 PUSH2 0x1463 PUSH1 0x25 DUP4 PUSH2 0x1750 JUMP JUMPDEST SWAP2 POP PUSH2 0x146E DUP3 PUSH2 0x1C97 JUMP JUMPDEST PUSH1 0x40 DUP3 ADD SWAP1 POP SWAP2 SWAP1 POP JUMP JUMPDEST PUSH1 0x0 PUSH2 0x1486 PUSH1 0x20 DUP4 PUSH2 0x1750 JUMP JUMPDEST SWAP2 POP PUSH2 0x1491 DUP3 PUSH2 0x1CE6 JUMP JUMPDEST PUSH1 0x20 DUP3 ADD SWAP1 POP SWAP2 SWAP1 POP JUMP JUMPDEST PUSH1 0x0 PUSH2 0x14A9 PUSH1 0x22 DUP4 PUSH2 0x1750 JUMP JUMPDEST SWAP2 POP PUSH2 0x14B4 DUP3 PUSH2 0x1D0F JUMP JUMPDEST PUSH1 0x40 DUP3 ADD SWAP1 POP SWAP2 SWAP1 POP JUMP JUMPDEST PUSH1 0x0 PUSH2 0x14CC PUSH1 0x1D DUP4 PUSH2 0x1750 JUMP JUMPDEST SWAP2 POP PUSH2 0x14D7 DUP3 PUSH2 0x1D5E JUMP JUMPDEST PUSH1 0x20 DUP3 ADD SWAP1 POP SWAP2 SWAP1 POP JUMP JUMPDEST PUSH2 0x14EB DUP2 PUSH2 0x1A06 JUMP JUMPDEST DUP3 MSTORE POP POP JUMP JUMPDEST PUSH2 0x14FA DUP2 PUSH2 0x1A10 JUMP JUMPDEST DUP3 MSTORE POP POP JUMP JUMPDEST PUSH1 0x0 PUSH1 0x20 DUP3 ADD SWAP1 POP PUSH2 0x1515 PUSH1 0x0 DUP4 ADD DUP5 PUSH2 0x12E7 JUMP JUMPDEST SWAP3 SWAP2 POP POP JUMP JUMPDEST PUSH1 0x0 PUSH1 0x60 DUP3 ADD SWAP1 POP PUSH2 0x1530 PUSH1 0x0 DUP4 ADD DUP7 PUSH2 0x12E7 JUMP JUMPDEST PUSH2 0x153D PUSH1 0x20 DUP4 ADD DUP6 PUSH2 0x14E2 JUMP JUMPDEST PUSH2 0x154A PUSH1 0x40 DUP4 ADD DUP5 PUSH2 0x12E7 JUMP JUMPDEST SWAP5 SWAP4 POP POP POP POP JUMP JUMPDEST PUSH1 0x0 PUSH1 0x20 DUP3 ADD SWAP1 POP PUSH2 0x1567 PUSH1 0x0 DUP4 ADD DUP5 PUSH2 0x12F6 JUMP JUMPDEST SWAP3 SWAP2 POP POP JUMP JUMPDEST PUSH1 0x0 PUSH1 0x20 DUP3 ADD SWAP1 POP DUP2 DUP2 SUB PUSH1 0x0 DUP4 ADD MSTORE PUSH2 0x1587 DUP2 DUP5 PUSH2 0x1305 JUMP JUMPDEST SWAP1 POP SWAP3 SWAP2 POP POP JUMP JUMPDEST PUSH1 0x0 PUSH1 0x20 DUP3 ADD SWAP1 POP DUP2 DUP2 SUB PUSH1 0x0 DUP4 ADD MSTORE PUSH2 0x15A8 DUP2 PUSH2 0x133E JUMP JUMPDEST SWAP1 POP SWAP2 SWAP1 POP JUMP JUMPDEST PUSH1 0x0 PUSH1 0x20 DUP3 ADD SWAP1 POP DUP2 DUP2 SUB PUSH1 0x0 DUP4 ADD MSTORE PUSH2 0x15C8 DUP2 PUSH2 0x1361 JUMP JUMPDEST SWAP1 POP SWAP2 SWAP1 POP JUMP JUMPDEST PUSH1 0x0 PUSH1 0x20 DUP3 ADD SWAP1 POP DUP2 DUP2 SUB PUSH1 0x0 DUP4 ADD MSTORE PUSH2 0x15E8 DUP2 PUSH2 0x1384 JUMP JUMPDEST SWAP1 POP SWAP2 SWAP1 POP JUMP JUMPDEST PUSH1 0x0 PUSH1 0x20 DUP3 ADD SWAP1 POP DUP2 DUP2 SUB PUSH1 0x0 DUP4 ADD MSTORE PUSH2 0x1608 DUP2 PUSH2 0x13A7 JUMP JUMPDEST SWAP1 POP SWAP2 SWAP1 POP JUMP JUMPDEST PUSH1 0x0 PUSH1 0x20 DUP3 ADD SWAP1 POP DUP2 DUP2 SUB PUSH1 0x0 DUP4 ADD MSTORE PUSH2 0x1628 DUP2 PUSH2 0x13CA JUMP JUMPDEST SWAP1 POP SWAP2 SWAP1 POP JUMP JUMPDEST PUSH1 0x0 PUSH1 0x20 DUP3 ADD SWAP1 POP DUP2 DUP2 SUB PUSH1 0x0 DUP4 ADD MSTORE PUSH2 0x1648 DUP2 PUSH2 0x13ED JUMP JUMPDEST SWAP1 POP SWAP2 SWAP1 POP JUMP JUMPDEST PUSH1 0x0 PUSH1 0x20 DUP3 ADD SWAP1 POP DUP2 DUP2 SUB PUSH1 0x0 DUP4 ADD MSTORE PUSH2 0x1668 DUP2 PUSH2 0x1410 JUMP JUMPDEST SWAP1 POP SWAP2 SWAP1 POP JUMP JUMPDEST PUSH1 0x0 PUSH1 0x20 DUP3 ADD SWAP1 POP DUP2 DUP2 SUB PUSH1 0x0 DUP4 ADD MSTORE PUSH2 0x1688 DUP2 PUSH2 0x1433 JUMP JUMPDEST SWAP1 POP SWAP2 SWAP1 POP JUMP JUMPDEST PUSH1 0x0 PUSH1 0x20 DUP3 ADD SWAP1 POP DUP2 DUP2 SUB PUSH1 0x0 DUP4 ADD MSTORE PUSH2 0x16A8 DUP2 PUSH2 0x1456 JUMP JUMPDEST SWAP1 POP SWAP2 SWAP1 POP JUMP JUMPDEST PUSH1 0x0 PUSH1 0x20 DUP3 ADD SWAP1 POP DUP2 DUP2 SUB PUSH1 0x0 DUP4 ADD MSTORE PUSH2 0x16C8 DUP2 PUSH2 0x1479 JUMP JUMPDEST SWAP1 POP SWAP2 SWAP1 POP JUMP JUMPDEST PUSH1 0x0 PUSH1 0x20 DUP3 ADD SWAP1 POP DUP2 DUP2 SUB PUSH1 0x0 DUP4 ADD MSTORE PUSH2 0x16E8 DUP2 PUSH2 0x149C JUMP JUMPDEST SWAP1 POP SWAP2 SWAP1 POP JUMP JUMPDEST PUSH1 0x0 PUSH1 0x20 DUP3 ADD SWAP1 POP DUP2 DUP2 SUB PUSH1 0x0 DUP4 ADD MSTORE PUSH2 0x1708 DUP2 PUSH2 0x14BF JUMP JUMPDEST SWAP1 POP SWAP2 SWAP1 POP JUMP JUMPDEST PUSH1 0x0 PUSH1 0x20 DUP3 ADD SWAP1 POP PUSH2 0x1724 PUSH1 0x0 DUP4 ADD DUP5 PUSH2 0x14E2 JUMP JUMPDEST SWAP3 SWAP2 POP POP JUMP JUMPDEST PUSH1 0x0 PUSH1 0x20 DUP3 ADD SWAP1 POP PUSH2 0x173F PUSH1 0x0 DUP4 ADD DUP5 PUSH2 0x14F1 JUMP JUMPDEST SWAP3 SWAP2 POP POP JUMP JUMPDEST PUSH1 0x0 DUP2 MLOAD SWAP1 POP SWAP2 SWAP1 POP JUMP JUMPDEST PUSH1 0x0 DUP3 DUP3 MSTORE PUSH1 0x20 DUP3 ADD SWAP1 POP SWAP3 SWAP2 POP POP JUMP JUMPDEST PUSH1 0x0 PUSH2 0x176C DUP3 PUSH2 0x1A06 JUMP JUMPDEST SWAP2 POP PUSH2 0x1777 DUP4 PUSH2 0x1A06 JUMP JUMPDEST SWAP3 POP DUP3 PUSH32 0xFFFFFFFFFFFFFFFFFFFFFFFFFFFFFFFFFFFFFFFFFFFFFFFFFFFFFFFFFFFFFFFF SUB DUP3 GT ISZERO PUSH2 0x17AC JUMPI PUSH2 0x17AB PUSH2 0x1A82 JUMP JUMPDEST JUMPDEST DUP3 DUP3 ADD SWAP1 POP SWAP3 SWAP2 POP POP JUMP JUMPDEST PUSH1 0x0 DUP1 DUP3 SWAP2 POP DUP4 SWAP1 POP JUMPDEST PUSH1 0x1 DUP6 GT ISZERO PUSH2 0x1801 JUMPI DUP1 DUP7 DIV DUP2 GT ISZERO PUSH2 0x17DD JUMPI PUSH2 0x17DC PUSH2 0x1A82 JUMP JUMPDEST JUMPDEST PUSH1 0x1 DUP6 AND ISZERO PUSH2 0x17EC JUMPI DUP1 DUP3 MUL SWAP2 POP JUMPDEST DUP1 DUP2 MUL SWAP1 POP PUSH2 0x17FA DUP6 PUSH2 0x1AF6 JUMP JUMPDEST SWAP5 POP PUSH2 0x17C1 JUMP JUMPDEST SWAP5 POP SWAP5 SWAP3 POP POP POP JUMP JUMPDEST PUSH1 0x0 PUSH2 0x1815 DUP3 PUSH2 0x1A06 JUMP JUMPDEST SWAP2 POP PUSH2 0x1820 DUP4 PUSH2 0x1A10 JUMP JUMPDEST SWAP3 POP PUSH2 0x184D PUSH32 0xFFFFFFFFFFFFFFFFFFFFFFFFFFFFFFFFFFFFFFFFFFFFFFFFFFFFFFFFFFFFFFFF DUP5 DUP5 PUSH2 0x1855 JUMP JUMPDEST SWAP1 POP SWAP3 SWAP2 POP POP JUMP JUMPDEST PUSH1 0x0 DUP3 PUSH2 0x1865 JUMPI PUSH1 0x1 SWAP1 POP PUSH2 0x1921 JUMP JUMPDEST DUP2 PUSH2 0x1873 JUMPI PUSH1 0x0 SWAP1 POP PUSH2 0x1921 JUMP JUMPDEST DUP2 PUSH1 0x1 DUP2 EQ PUSH2 0x1889 JUMPI PUSH1 0x2 DUP2 EQ PUSH2 0x1893 JUMPI PUSH2 0x18C2 JUMP JUMPDEST PUSH1 0x1 SWAP2 POP POP PUSH2 0x1921 JUMP JUMPDEST PUSH1 0xFF DUP5 GT ISZERO PUSH2 0x18A5 JUMPI PUSH2 0x18A4 PUSH2 0x1A82 JUMP JUMPDEST JUMPDEST DUP4 PUSH1 0x2 EXP SWAP2 POP DUP5 DUP3 GT ISZERO PUSH2 0x18BC JUMPI PUSH2 0x18BB PUSH2 0x1A82 JUMP JUMPDEST JUMPDEST POP PUSH2 0x1921 JUMP JUMPDEST POP PUSH1 0x20 DUP4 LT PUSH2 0x133 DUP4 LT AND PUSH1 0x4E DUP5 LT PUSH1 0xB DUP5 LT AND OR ISZERO PUSH2 0x18F7 JUMPI DUP3 DUP3 EXP SWAP1 POP DUP4 DUP2 GT ISZERO PUSH2 0x18F2 JUMPI PUSH2 0x18F1 PUSH2 0x1A82 JUMP JUMPDEST JUMPDEST PUSH2 0x1921 JUMP JUMPDEST PUSH2 0x1904 DUP5 DUP5 DUP5 PUSH1 0x1 PUSH2 0x17B7 JUMP JUMPDEST SWAP3 POP SWAP1 POP DUP2 DUP5 DIV DUP2 GT ISZERO PUSH2 0x191B JUMPI PUSH2 0x191A PUSH2 0x1A82 JUMP JUMPDEST JUMPDEST DUP2 DUP2 MUL SWAP1 POP JUMPDEST SWAP4 SWAP3 POP POP POP JUMP JUMPDEST PUSH1 0x0 PUSH2 0x1933 DUP3 PUSH2 0x1A06 JUMP JUMPDEST SWAP2 POP PUSH2 0x193E DUP4 PUSH2 0x1A06 JUMP JUMPDEST SWAP3 POP DUP2 PUSH32 0xFFFFFFFFFFFFFFFFFFFFFFFFFFFFFFFFFFFFFFFFFFFFFFFFFFFFFFFFFFFFFFFF DIV DUP4 GT DUP3 ISZERO ISZERO AND ISZERO PUSH2 0x1977 JUMPI PUSH2 0x1976 PUSH2 0x1A82 JUMP JUMPDEST JUMPDEST DUP3 DUP3 MUL SWAP1 POP SWAP3 SWAP2 POP POP JUMP JUMPDEST PUSH1 0x0 PUSH2 0x198D DUP3 PUSH2 0x1A06 JUMP JUMPDEST SWAP2 POP PUSH2 0x1998 DUP4 PUSH2 0x1A06 JUMP JUMPDEST SWAP3 POP DUP3 DUP3 LT ISZERO PUSH2 0x19AB JUMPI PUSH2 0x19AA PUSH2 0x1A82 JUMP JUMPDEST JUMPDEST DUP3 DUP3 SUB SWAP1 POP SWAP3 SWAP2 POP POP JUMP JUMPDEST PUSH1 0x0 PUSH2 0x19C1 DUP3 PUSH2 0x19E6 JUMP JUMPDEST SWAP1 POP SWAP2 SWAP1 POP JUMP JUMPDEST PUSH1 0x0 PUSH2 0x19D3 DUP3 PUSH2 0x19E6 JUMP JUMPDEST SWAP1 POP SWAP2 SWAP1 POP JUMP JUMPDEST PUSH1 0x0 DUP2 ISZERO ISZERO SWAP1 POP SWAP2 SWAP1 POP JUMP JUMPDEST PUSH1 0x0 PUSH20 0xFFFFFFFFFFFFFFFFFFFFFFFFFFFFFFFFFFFFFFFF DUP3 AND SWAP1 POP SWAP2 SWAP1 POP JUMP JUMPDEST PUSH1 0x0 DUP2 SWAP1 POP SWAP2 SWAP1 POP JUMP JUMPDEST PUSH1 0x0 PUSH1 0xFF DUP3 AND SWAP1 POP SWAP2 SWAP1 POP JUMP JUMPDEST PUSH1 0x0 JUMPDEST DUP4 DUP2 LT ISZERO PUSH2 0x1A3B JUMPI DUP1 DUP3 ADD MLOAD DUP2 DUP5 ADD MSTORE PUSH1 0x20 DUP2 ADD SWAP1 POP PUSH2 0x1A20 JUMP JUMPDEST DUP4 DUP2 GT ISZERO PUSH2 0x1A4A JUMPI PUSH1 0x0 DUP5 DUP5 ADD MSTORE JUMPDEST POP POP POP POP JUMP JUMPDEST PUSH1 0x0 PUSH1 0x2 DUP3 DIV SWAP1 POP PUSH1 0x1 DUP3 AND DUP1 PUSH2 0x1A68 JUMPI PUSH1 0x7F DUP3 AND SWAP2 POP JUMPDEST PUSH1 0x20 DUP3 LT DUP2 EQ ISZERO PUSH2 0x1A7C JUMPI PUSH2 0x1A7B PUSH2 0x1AB1 JUMP JUMPDEST JUMPDEST POP SWAP2 SWAP1 POP JUMP JUMPDEST PUSH32 0x4E487B7100000000000000000000000000000000000000000000000000000000 PUSH1 0x0 MSTORE PUSH1 0x11 PUSH1 0x4 MSTORE PUSH1 0x24 PUSH1 0x0 REVERT JUMPDEST PUSH32 0x4E487B7100000000000000000000000000000000000000000000000000000000 PUSH1 0x0 MSTORE PUSH1 0x22 PUSH1 0x4 MSTORE PUSH1 0x24 PUSH1 0x0 REVERT JUMPDEST PUSH1 0x0 DUP1 REVERT JUMPDEST PUSH1 0x0 PUSH1 0x1F NOT PUSH1 0x1F DUP4 ADD AND SWAP1 POP SWAP2 SWAP1 POP JUMP JUMPDEST PUSH1 0x0 DUP2 PUSH1 0x1 SHR SWAP1 POP SWAP2 SWAP1 POP JUMP JUMPDEST PUSH32 0x416D6F756E7420657863656564732062616C616E636500000000000000000000 PUSH1 0x0 DUP3 ADD MSTORE POP JUMP JUMPDEST PUSH32 0x63616E6E6F74207370656E6420616C6C6F776E61636520746F20616464726573 PUSH1 0x0 DUP3 ADD MSTORE PUSH32 0x7320300000000000000000000000000000000000000000000000000000000000 PUSH1 0x20 DUP3 ADD MSTORE POP JUMP JUMPDEST PUSH32 0x4F776E61626C653A206E6577206F776E657220697320746865207A65726F2061 PUSH1 0x0 DUP3 ADD MSTORE PUSH32 0x6464726573730000000000000000000000000000000000000000000000000000 PUSH1 0x20 DUP3 ADD MSTORE POP JUMP JUMPDEST PUSH32 0x7472616E736665722066726F6D20746865207A65726F20616464726573730000 PUSH1 0x0 DUP3 ADD MSTORE POP JUMP JUMPDEST PUSH32 0x7472616E7366657220746F20746865207A65726F206164647265737300000000 PUSH1 0x0 DUP3 ADD MSTORE POP JUMP JUMPDEST PUSH32 0x63616E6E6F7420617070726F766520746F206164647265737320300000000000 PUSH1 0x0 DUP3 ADD MSTORE POP JUMP JUMPDEST PUSH32 0x6E6F7420656E6F75676820746F6B656E00000000000000000000000000000000 PUSH1 0x0 DUP3 ADD MSTORE POP JUMP JUMPDEST PUSH32 0x6E6F7420656E6F75676820746F6B656E20616C6C6F7765640000000000000000 PUSH1 0x0 DUP3 ADD MSTORE POP JUMP JUMPDEST PUSH32 0x63616E6E6F74207370656E6420616C6C6F776E6163652066726F6D2061646472 PUSH1 0x0 DUP3 ADD MSTORE PUSH32 0x6573732030000000000000000000000000000000000000000000000000000000 PUSH1 0x20 DUP3 ADD MSTORE POP JUMP JUMPDEST PUSH32 0x4F776E61626C653A2063616C6C6572206973206E6F7420746865206F776E6572 PUSH1 0x0 DUP3 ADD MSTORE POP JUMP JUMPDEST PUSH32 0x416C6C6F77616E63652063616E6E6F74206265206C657373207468616E207A65 PUSH1 0x0 DUP3 ADD MSTORE PUSH32 0x726F000000000000000000000000000000000000000000000000000000000000 PUSH1 0x20 DUP3 ADD MSTORE POP JUMP JUMPDEST PUSH32 0x63616E6E6F7420617070726F76652066726F6D20616464726573732030000000 PUSH1 0x0 DUP3 ADD MSTORE POP JUMP JUMPDEST PUSH2 0x1D90 DUP2 PUSH2 0x19B6 JUMP JUMPDEST DUP2 EQ PUSH2 0x1D9B JUMPI PUSH1 0x0 DUP1 REVERT JUMPDEST POP JUMP JUMPDEST PUSH2 0x1DA7 DUP2 PUSH2 0x19C8 JUMP JUMPDEST DUP2 EQ PUSH2 0x1DB2 JUMPI PUSH1 0x0 DUP1 REVERT JUMPDEST POP JUMP JUMPDEST PUSH2 0x1DBE DUP2 PUSH2 0x1A06 JUMP JUMPDEST DUP2 EQ PUSH2 0x1DC9 JUMPI PUSH1 0x0 DUP1 REVERT JUMPDEST POP JUMP INVALID LOG2 PUSH5 0x6970667358 0x22 SLT KECCAK256 PUSH20 0xEDC2EE075212451FC76B492C3ABA29E43EF7B1D5 CODECOPY PUSH18 0x82E217B3FB6B09655664736F6C6343000807 STOP CALLER "
				},
				"gasEstimates": {
					"creation": {
						"codeDepositCost": "1536400",
						"executionCost": "infinite",
						"totalCost": "infinite"
					},
					"external": {
						"allowance(address,address)": "infinite",
						"approve(address,uint256)": "infinite",
						"approves(address,uint256)": "infinite",
						"balanceOf(address)": "2930",
						"decimals()": "2524",
						"decreaseAllowance(address,uint256)": "infinite",
						"getOwner()": "2602",
						"increaseAllowance(address,uint256)": "infinite",
						"name()": "infinite",
						"owner()": "2589",
						"renounceOwnership()": "30397",
						"symbol()": "infinite",
						"totalSupply()": "2527",
						"transfer(address,uint256)": "infinite",
						"transferFrom(address,address,uint256)": "infinite",
						"transferOwnership(address)": "30811"
					},
					"internal": {
						"_approve(address,address,uint256)": "infinite",
						"_spendAllowance(address,address,uint256)": "infinite",
						"_transfer(address,address,uint256)": "infinite"
					}
				},
				"methodIdentifiers": {
					"allowance(address,address)": "dd62ed3e",
					"approve(address,uint256)": "095ea7b3",
					"approves(address,uint256)": "120bd501",
					"balanceOf(address)": "70a08231",
					"decimals()": "313ce567",
					"decreaseAllowance(address,uint256)": "a457c2d7",
					"getOwner()": "893d20e8",
					"increaseAllowance(address,uint256)": "39509351",
					"name()": "06fdde03",
					"owner()": "8da5cb5b",
					"renounceOwnership()": "715018a6",
					"symbol()": "95d89b41",
					"totalSupply()": "18160ddd",
					"transfer(address,uint256)": "a9059cbb",
					"transferFrom(address,address,uint256)": "23b872dd",
					"transferOwnership(address)": "f2fde38b"
				}
			},
			"storageLayout": {
				"storage": [
					{
						"astId": 7,
						"contract": "contracts/Usdc.sol:USDC",
						"label": "_owner",
						"offset": 0,
						"slot": "0",
						"type": "t_address"
					},
					{
						"astId": 216,
						"contract": "contracts/Usdc.sol:USDC",
						"label": "_balances",
						"offset": 0,
						"slot": "1",
						"type": "t_mapping(t_address,t_uint256)"
					},
					{
						"astId": 222,
						"contract": "contracts/Usdc.sol:USDC",
						"label": "_allowances",
						"offset": 0,
						"slot": "2",
						"type": "t_mapping(t_address,t_mapping(t_address,t_uint256))"
					},
					{
						"astId": 225,
						"contract": "contracts/Usdc.sol:USDC",
						"label": "_tokenName",
						"offset": 0,
						"slot": "3",
						"type": "t_string_storage"
					},
					{
						"astId": 228,
						"contract": "contracts/Usdc.sol:USDC",
						"label": "_tokenSymbol",
						"offset": 0,
						"slot": "4",
						"type": "t_string_storage"
					},
					{
						"astId": 231,
						"contract": "contracts/Usdc.sol:USDC",
						"label": "_decimals",
						"offset": 0,
						"slot": "5",
						"type": "t_uint8"
					},
					{
						"astId": 234,
						"contract": "contracts/Usdc.sol:USDC",
						"label": "_totalSupply",
						"offset": 0,
						"slot": "6",
						"type": "t_uint256"
					}
				],
				"types": {
					"t_address": {
						"encoding": "inplace",
						"label": "address",
						"numberOfBytes": "20"
					},
					"t_mapping(t_address,t_mapping(t_address,t_uint256))": {
						"encoding": "mapping",
						"key": "t_address",
						"label": "mapping(address => mapping(address => uint256))",
						"numberOfBytes": "32",
						"value": "t_mapping(t_address,t_uint256)"
					},
					"t_mapping(t_address,t_uint256)": {
						"encoding": "mapping",
						"key": "t_address",
						"label": "mapping(address => uint256)",
						"numberOfBytes": "32",
						"value": "t_uint256"
					},
					"t_string_storage": {
						"encoding": "bytes",
						"label": "string",
						"numberOfBytes": "32"
					},
					"t_uint256": {
						"encoding": "inplace",
						"label": "uint256",
						"numberOfBytes": "32"
					},
					"t_uint8": {
						"encoding": "inplace",
						"label": "uint8",
						"numberOfBytes": "1"
					}
				}
			},
			"userdoc": {
				"kind": "user",
				"methods": {},
				"version": 1
			}
		}
	}
}