{
	"contracts/TokenSale.sol": {
		"TokenSale": {
			"abi": [
				{
					"inputs": [
						{
							"internalType": "address payable",
							"name": "tokenAddress_",
							"type": "address"
						},
						{
							"internalType": "uint256",
							"name": "saleStart_",
							"type": "uint256"
						},
						{
							"internalType": "uint256",
							"name": "saleEnd_",
							"type": "uint256"
						}
					],
					"stateMutability": "nonpayable",
					"type": "constructor"
				},
				{
					"anonymous": false,
					"inputs": [
						{
							"indexed": true,
							"internalType": "address",
							"name": "previousOwner",
							"type": "address"
						},
						{
							"indexed": true,
							"internalType": "address",
							"name": "newOwner",
							"type": "address"
						}
					],
					"name": "OwnershipTransferred",
					"type": "event"
				},
				{
					"inputs": [
						{
							"internalType": "address payable",
							"name": "_returnAddress",
							"type": "address"
						}
					],
					"name": "Return",
					"outputs": [
						{
							"internalType": "bool",
							"name": "",
							"type": "bool"
						}
					],
					"stateMutability": "payable",
					"type": "function"
				},
				{
					"inputs": [],
					"name": "_usdcInstance",
					"outputs": [
						{
							"internalType": "contract IERC20",
							"name": "",
							"type": "address"
						}
					],
					"stateMutability": "view",
					"type": "function"
				},
				{
					"inputs": [
						{
							"internalType": "address",
							"name": "add",
							"type": "address"
						}
					],
					"name": "bala",
					"outputs": [
						{
							"internalType": "uint256",
							"name": "",
							"type": "uint256"
						}
					],
					"stateMutability": "view",
					"type": "function"
				},
				{
					"inputs": [],
					"name": "getOwner",
					"outputs": [
						{
							"internalType": "address",
							"name": "",
							"type": "address"
						}
					],
					"stateMutability": "view",
					"type": "function"
				},
				{
					"inputs": [
						{
							"internalType": "address",
							"name": "_address",
							"type": "address"
						}
					],
					"name": "getRecord",
					"outputs": [
						{
							"internalType": "uint256",
							"name": "",
							"type": "uint256"
						}
					],
					"stateMutability": "view",
					"type": "function"
				},
				{
					"inputs": [],
					"name": "owner",
					"outputs": [
						{
							"internalType": "address",
							"name": "",
							"type": "address"
						}
					],
					"stateMutability": "view",
					"type": "function"
				},
				{
					"inputs": [
						{
							"internalType": "uint256",
							"name": "_amount",
							"type": "uint256"
						}
					],
					"name": "purchase",
					"outputs": [],
					"stateMutability": "nonpayable",
					"type": "function"
				},
				{
					"inputs": [
						{
							"internalType": "uint256",
							"name": "_amount",
							"type": "uint256"
						}
					],
					"name": "purchases",
					"outputs": [],
					"stateMutability": "nonpayable",
					"type": "function"
				},
				{
					"inputs": [],
					"name": "renounceOwnership",
					"outputs": [],
					"stateMutability": "nonpayable",
					"type": "function"
				},
				{
					"inputs": [],
					"name": "saleEnd",
					"outputs": [
						{
							"internalType": "uint256",
							"name": "",
							"type": "uint256"
						}
					],
					"stateMutability": "view",
					"type": "function"
				},
				{
					"inputs": [],
					"name": "saleStart",
					"outputs": [
						{
							"internalType": "uint256",
							"name": "",
							"type": "uint256"
						}
					],
					"stateMutability": "view",
					"type": "function"
				},
				{
					"inputs": [
						{
							"internalType": "address",
							"name": "newOwner",
							"type": "address"
						}
					],
					"name": "transferOwnership",
					"outputs": [],
					"stateMutability": "nonpayable",
					"type": "function"
				},
				{
					"inputs": [
						{
							"internalType": "uint256",
							"name": "updatedSaleEndTime",
							"type": "uint256"
						}
					],
					"name": "updateSaleEndTime",
					"outputs": [],
					"stateMutability": "nonpayable",
					"type": "function"
				},
				{
					"inputs": [
						{
							"internalType": "uint256",
							"name": "updatedSaleStartTime",
							"type": "uint256"
						}
					],
					"name": "updateSaleStartTime",
					"outputs": [],
					"stateMutability": "nonpayable",
					"type": "function"
				},
				{
					"inputs": [
						{
							"internalType": "address",
							"name": "_to",
							"type": "address"
						}
					],
					"name": "withdraw",
					"outputs": [],
					"stateMutability": "payable",
					"type": "function"
				}
			],
			"devdoc": {
				"kind": "dev",
				"methods": {
					"owner()": {
						"details": "Returns the address of the current owner."
					},
					"renounceOwnership()": {
						"details": "Leaves the contract without owner. It will not be possible to call `onlyOwner` functions anymore. Can only be called by the current owner. NOTE: Renouncing ownership will leave the contract without an owner, thereby removing any functionality that is only available to the owner."
					},
					"transferOwnership(address)": {
						"details": "Transfers ownership of the contract to a new account (`newOwner`). Can only be called by the current owner."
					}
				},
				"version": 1
			},
			"evm": {
				"assembly": "    /* \"contracts/TokenSale.sol\":241:4264  contract TokenSale is Ownable{\r... */\n  mstore(0x40, 0x80)\n    /* \"contracts/TokenSale.sol\":436:478  0x4ECdfE30998A0CE87b08DbaF218e4a99c2313978 */\n  0x4ecdfe30998a0ce87b08dbaf218e4a99c2313978\n    /* \"contracts/TokenSale.sol\":399:479  IERC20 public _usdcInstance = IERC20(0x4ECdfE30998A0CE87b08DbaF218e4a99c2313978) */\n  0x04\n  exp(0x0100, 0x00)\n  dup2\n  sload\n  dup2\n  0xffffffffffffffffffffffffffffffffffffffff\n  mul\n  not\n  and\n  swap1\n  dup4\n  0xffffffffffffffffffffffffffffffffffffffff\n  and\n  mul\n  or\n  swap1\n  sstore\n  pop\n    /* \"contracts/TokenSale.sol\":643:827  constructor(address payable tokenAddress_,uint256 saleStart_,uint256 saleEnd_){\r... */\n  callvalue\n  dup1\n  iszero\n  tag_1\n  jumpi\n  0x00\n  dup1\n  revert\ntag_1:\n  pop\n  mload(0x40)\n  sub(codesize, bytecodeSize)\n  dup1\n  bytecodeSize\n  dup4\n  codecopy\n  dup2\n  dup2\n  add\n  0x40\n  mstore\n  dup2\n  add\n  swap1\n  tag_2\n  swap2\n  swap1\n  tag_3\n  jump\t// in\ntag_2:\n    /* \"@openzeppelin/contracts/access/Ownable.sol\":921:953  _transferOwnership(_msgSender()) */\n  tag_7\n    /* \"@openzeppelin/contracts/access/Ownable.sol\":940:952  _msgSender() */\n  tag_8\n    /* \"@openzeppelin/contracts/access/Ownable.sol\":940:950  _msgSender */\n  shl(0x20, tag_9)\n    /* \"@openzeppelin/contracts/access/Ownable.sol\":940:952  _msgSender() */\n  0x20\n  shr\n  jump\t// in\ntag_8:\n    /* \"@openzeppelin/contracts/access/Ownable.sol\":921:939  _transferOwnership */\n  shl(0x20, tag_10)\n    /* \"@openzeppelin/contracts/access/Ownable.sol\":921:953  _transferOwnership(_msgSender()) */\n  0x20\n  shr\n  jump\t// in\ntag_7:\n    /* \"contracts/TokenSale.sol\":751:764  tokenAddress_ */\n  dup3\n    /* \"contracts/TokenSale.sol\":728:741  _tokenAddress */\n  0x01\n  0x00\n    /* \"contracts/TokenSale.sol\":728:765  _tokenAddress = IERC20(tokenAddress_) */\n  0x0100\n  exp\n  dup2\n  sload\n  dup2\n  0xffffffffffffffffffffffffffffffffffffffff\n  mul\n  not\n  and\n  swap1\n  dup4\n  0xffffffffffffffffffffffffffffffffffffffff\n  and\n  mul\n  or\n  swap1\n  sstore\n  pop\n    /* \"contracts/TokenSale.sol\":785:795  saleStart_ */\n  dup2\n    /* \"contracts/TokenSale.sol\":772:782  _saleStart */\n  0x02\n    /* \"contracts/TokenSale.sol\":772:795  _saleStart = saleStart_ */\n  dup2\n  swap1\n  sstore\n  pop\n    /* \"contracts/TokenSale.sol\":813:821  saleEnd_ */\n  dup1\n    /* \"contracts/TokenSale.sol\":802:810  _saleEnd */\n  0x03\n    /* \"contracts/TokenSale.sol\":802:821  _saleEnd = saleEnd_ */\n  dup2\n  swap1\n  sstore\n  pop\n    /* \"contracts/TokenSale.sol\":643:827  constructor(address payable tokenAddress_,uint256 saleStart_,uint256 saleEnd_){\r... */\n  pop\n  pop\n  pop\n    /* \"contracts/TokenSale.sol\":241:4264  contract TokenSale is Ownable{\r... */\n  jump(tag_12)\n    /* \"@openzeppelin/contracts/utils/Context.sol\":640:736  function _msgSender() internal view virtual returns (address) {... */\ntag_9:\n    /* \"@openzeppelin/contracts/utils/Context.sol\":693:700  address */\n  0x00\n    /* \"@openzeppelin/contracts/utils/Context.sol\":719:729  msg.sender */\n  caller\n    /* \"@openzeppelin/contracts/utils/Context.sol\":712:729  return msg.sender */\n  swap1\n  pop\n    /* \"@openzeppelin/contracts/utils/Context.sol\":640:736  function _msgSender() internal view virtual returns (address) {... */\n  swap1\n  jump\t// out\n    /* \"@openzeppelin/contracts/access/Ownable.sol\":2270:2457  function _transferOwnership(address newOwner) internal virtual {... */\ntag_10:\n    /* \"@openzeppelin/contracts/access/Ownable.sol\":2343:2359  address oldOwner */\n  0x00\n    /* \"@openzeppelin/contracts/access/Ownable.sol\":2362:2368  _owner */\n  dup1\n  0x00\n  swap1\n  sload\n  swap1\n  0x0100\n  exp\n  swap1\n  div\n  0xffffffffffffffffffffffffffffffffffffffff\n  and\n    /* \"@openzeppelin/contracts/access/Ownable.sol\":2343:2368  address oldOwner = _owner */\n  swap1\n  pop\n    /* \"@openzeppelin/contracts/access/Ownable.sol\":2387:2395  newOwner */\n  dup2\n    /* \"@openzeppelin/contracts/access/Ownable.sol\":2378:2384  _owner */\n  0x00\n  dup1\n    /* \"@openzeppelin/contracts/access/Ownable.sol\":2378:2395  _owner = newOwner */\n  0x0100\n  exp\n  dup2\n  sload\n  dup2\n  0xffffffffffffffffffffffffffffffffffffffff\n  mul\n  not\n  and\n  swap1\n  dup4\n  0xffffffffffffffffffffffffffffffffffffffff\n  and\n  mul\n  or\n  swap1\n  sstore\n  pop\n    /* \"@openzeppelin/contracts/access/Ownable.sol\":2441:2449  newOwner */\n  dup2\n    /* \"@openzeppelin/contracts/access/Ownable.sol\":2410:2450  OwnershipTransferred(oldOwner, newOwner) */\n  0xffffffffffffffffffffffffffffffffffffffff\n  and\n    /* \"@openzeppelin/contracts/access/Ownable.sol\":2431:2439  oldOwner */\n  dup2\n    /* \"@openzeppelin/contracts/access/Ownable.sol\":2410:2450  OwnershipTransferred(oldOwner, newOwner) */\n  0xffffffffffffffffffffffffffffffffffffffff\n  and\n  0x8be0079c531659141344cd1fd0a4f28419497f9722a3daafe3b4186f6b6457e0\n  mload(0x40)\n  mload(0x40)\n  dup1\n  swap2\n  sub\n  swap1\n  log3\n    /* \"@openzeppelin/contracts/access/Ownable.sol\":2333:2457  {... */\n  pop\n    /* \"@openzeppelin/contracts/access/Ownable.sol\":2270:2457  function _transferOwnership(address newOwner) internal virtual {... */\n  pop\n  jump\t// out\n    /* \"#utility.yul\":7:166   */\ntag_16:\n    /* \"#utility.yul\":72:77   */\n  0x00\n    /* \"#utility.yul\":103:109   */\n  dup2\n    /* \"#utility.yul\":97:110   */\n  mload\n    /* \"#utility.yul\":88:110   */\n  swap1\n  pop\n    /* \"#utility.yul\":119:160   */\n  tag_18\n    /* \"#utility.yul\":154:159   */\n  dup2\n    /* \"#utility.yul\":119:160   */\n  tag_19\n  jump\t// in\ntag_18:\n    /* \"#utility.yul\":7:166   */\n  swap3\n  swap2\n  pop\n  pop\n  jump\t// out\n    /* \"#utility.yul\":172:315   */\ntag_20:\n    /* \"#utility.yul\":229:234   */\n  0x00\n    /* \"#utility.yul\":260:266   */\n  dup2\n    /* \"#utility.yul\":254:267   */\n  mload\n    /* \"#utility.yul\":245:267   */\n  swap1\n  pop\n    /* \"#utility.yul\":276:309   */\n  tag_22\n    /* \"#utility.yul\":303:308   */\n  dup2\n    /* \"#utility.yul\":276:309   */\n  tag_23\n  jump\t// in\ntag_22:\n    /* \"#utility.yul\":172:315   */\n  swap3\n  swap2\n  pop\n  pop\n  jump\t// out\n    /* \"#utility.yul\":321:1000   */\ntag_3:\n    /* \"#utility.yul\":417:423   */\n  0x00\n    /* \"#utility.yul\":425:431   */\n  dup1\n    /* \"#utility.yul\":433:439   */\n  0x00\n    /* \"#utility.yul\":482:484   */\n  0x60\n    /* \"#utility.yul\":470:479   */\n  dup5\n    /* \"#utility.yul\":461:468   */\n  dup7\n    /* \"#utility.yul\":457:480   */\n  sub\n    /* \"#utility.yul\":453:485   */\n  slt\n    /* \"#utility.yul\":450:569   */\n  iszero\n  tag_25\n  jumpi\n    /* \"#utility.yul\":488:567   */\n  tag_26\n  tag_27\n  jump\t// in\ntag_26:\n    /* \"#utility.yul\":450:569   */\ntag_25:\n    /* \"#utility.yul\":608:609   */\n  0x00\n    /* \"#utility.yul\":633:705   */\n  tag_28\n    /* \"#utility.yul\":697:704   */\n  dup7\n    /* \"#utility.yul\":688:694   */\n  dup3\n    /* \"#utility.yul\":677:686   */\n  dup8\n    /* \"#utility.yul\":673:695   */\n  add\n    /* \"#utility.yul\":633:705   */\n  tag_16\n  jump\t// in\ntag_28:\n    /* \"#utility.yul\":623:705   */\n  swap4\n  pop\n    /* \"#utility.yul\":579:715   */\n  pop\n    /* \"#utility.yul\":754:756   */\n  0x20\n    /* \"#utility.yul\":780:844   */\n  tag_29\n    /* \"#utility.yul\":836:843   */\n  dup7\n    /* \"#utility.yul\":827:833   */\n  dup3\n    /* \"#utility.yul\":816:825   */\n  dup8\n    /* \"#utility.yul\":812:834   */\n  add\n    /* \"#utility.yul\":780:844   */\n  tag_20\n  jump\t// in\ntag_29:\n    /* \"#utility.yul\":770:844   */\n  swap3\n  pop\n    /* \"#utility.yul\":725:854   */\n  pop\n    /* \"#utility.yul\":893:895   */\n  0x40\n    /* \"#utility.yul\":919:983   */\n  tag_30\n    /* \"#utility.yul\":975:982   */\n  dup7\n    /* \"#utility.yul\":966:972   */\n  dup3\n    /* \"#utility.yul\":955:964   */\n  dup8\n    /* \"#utility.yul\":951:973   */\n  add\n    /* \"#utility.yul\":919:983   */\n  tag_20\n  jump\t// in\ntag_30:\n    /* \"#utility.yul\":909:983   */\n  swap2\n  pop\n    /* \"#utility.yul\":864:993   */\n  pop\n    /* \"#utility.yul\":321:1000   */\n  swap3\n  pop\n  swap3\n  pop\n  swap3\n  jump\t// out\n    /* \"#utility.yul\":1087:1191   */\ntag_33:\n    /* \"#utility.yul\":1132:1139   */\n  0x00\n    /* \"#utility.yul\":1161:1185   */\n  tag_35\n    /* \"#utility.yul\":1179:1184   */\n  dup3\n    /* \"#utility.yul\":1161:1185   */\n  tag_36\n  jump\t// in\ntag_35:\n    /* \"#utility.yul\":1150:1185   */\n  swap1\n  pop\n    /* \"#utility.yul\":1087:1191   */\n  swap2\n  swap1\n  pop\n  jump\t// out\n    /* \"#utility.yul\":1197:1323   */\ntag_36:\n    /* \"#utility.yul\":1234:1241   */\n  0x00\n    /* \"#utility.yul\":1274:1316   */\n  0xffffffffffffffffffffffffffffffffffffffff\n    /* \"#utility.yul\":1267:1272   */\n  dup3\n    /* \"#utility.yul\":1263:1317   */\n  and\n    /* \"#utility.yul\":1252:1317   */\n  swap1\n  pop\n    /* \"#utility.yul\":1197:1323   */\n  swap2\n  swap1\n  pop\n  jump\t// out\n    /* \"#utility.yul\":1329:1406   */\ntag_38:\n    /* \"#utility.yul\":1366:1373   */\n  0x00\n    /* \"#utility.yul\":1395:1400   */\n  dup2\n    /* \"#utility.yul\":1384:1400   */\n  swap1\n  pop\n    /* \"#utility.yul\":1329:1406   */\n  swap2\n  swap1\n  pop\n  jump\t// out\n    /* \"#utility.yul\":1535:1652   */\ntag_27:\n    /* \"#utility.yul\":1644:1645   */\n  0x00\n    /* \"#utility.yul\":1641:1642   */\n  dup1\n    /* \"#utility.yul\":1634:1646   */\n  revert\n    /* \"#utility.yul\":1658:1796   */\ntag_19:\n    /* \"#utility.yul\":1739:1771   */\n  tag_44\n    /* \"#utility.yul\":1765:1770   */\n  dup2\n    /* \"#utility.yul\":1739:1771   */\n  tag_33\n  jump\t// in\ntag_44:\n    /* \"#utility.yul\":1732:1737   */\n  dup2\n    /* \"#utility.yul\":1729:1772   */\n  eq\n    /* \"#utility.yul\":1719:1790   */\n  tag_45\n  jumpi\n    /* \"#utility.yul\":1786:1787   */\n  0x00\n    /* \"#utility.yul\":1783:1784   */\n  dup1\n    /* \"#utility.yul\":1776:1788   */\n  revert\n    /* \"#utility.yul\":1719:1790   */\ntag_45:\n    /* \"#utility.yul\":1658:1796   */\n  pop\n  jump\t// out\n    /* \"#utility.yul\":1802:1924   */\ntag_23:\n    /* \"#utility.yul\":1875:1899   */\n  tag_47\n    /* \"#utility.yul\":1893:1898   */\n  dup2\n    /* \"#utility.yul\":1875:1899   */\n  tag_38\n  jump\t// in\ntag_47:\n    /* \"#utility.yul\":1868:1873   */\n  dup2\n    /* \"#utility.yul\":1865:1900   */\n  eq\n    /* \"#utility.yul\":1855:1918   */\n  tag_48\n  jumpi\n    /* \"#utility.yul\":1914:1915   */\n  0x00\n    /* \"#utility.yul\":1911:1912   */\n  dup1\n    /* \"#utility.yul\":1904:1916   */\n  revert\n    /* \"#utility.yul\":1855:1918   */\ntag_48:\n    /* \"#utility.yul\":1802:1924   */\n  pop\n  jump\t// out\n    /* \"contracts/TokenSale.sol\":241:4264  contract TokenSale is Ownable{\r... */\ntag_12:\n  dataSize(sub_0)\n  dup1\n  dataOffset(sub_0)\n  0x00\n  codecopy\n  0x00\n  return\nstop\n\nsub_0: assembly {\n        /* \"contracts/TokenSale.sol\":241:4264  contract TokenSale is Ownable{\r... */\n      mstore(0x40, 0x80)\n      jumpi(tag_1, lt(calldatasize, 0x04))\n      shr(0xe0, calldataload(0x00))\n      dup1\n      0x8392fe31\n      gt\n      tag_17\n      jumpi\n      dup1\n      0xc10b9358\n      gt\n      tag_18\n      jumpi\n      dup1\n      0xc10b9358\n      eq\n      tag_13\n      jumpi\n      dup1\n      0xde2d583a\n      eq\n      tag_14\n      jumpi\n      dup1\n      0xefef39a1\n      eq\n      tag_15\n      jumpi\n      dup1\n      0xf2fde38b\n      eq\n      tag_16\n      jumpi\n      jump(tag_1)\n    tag_18:\n      dup1\n      0x8392fe31\n      eq\n      tag_9\n      jumpi\n      dup1\n      0x893d20e8\n      eq\n      tag_10\n      jumpi\n      dup1\n      0x8da5cb5b\n      eq\n      tag_11\n      jumpi\n      dup1\n      0xab0bcc41\n      eq\n      tag_12\n      jumpi\n      jump(tag_1)\n    tag_17:\n      dup1\n      0x61778592\n      gt\n      tag_19\n      jumpi\n      dup1\n      0x61778592\n      eq\n      tag_5\n      jumpi\n      dup1\n      0x617fba04\n      eq\n      tag_6\n      jumpi\n      dup1\n      0x6f9c6149\n      eq\n      tag_7\n      jumpi\n      dup1\n      0x715018a6\n      eq\n      tag_8\n      jumpi\n      jump(tag_1)\n    tag_19:\n      dup1\n      0x24076451\n      eq\n      tag_2\n      jumpi\n      dup1\n      0x295e4edf\n      eq\n      tag_3\n      jumpi\n      dup1\n      0x51cff8d9\n      eq\n      tag_4\n      jumpi\n    tag_1:\n      0x00\n      dup1\n      revert\n        /* \"contracts/TokenSale.sol\":1013:1125  function bala(address add) public view virtual returns (uint256){\r... */\n    tag_2:\n      callvalue\n      dup1\n      iszero\n      tag_20\n      jumpi\n      0x00\n      dup1\n      revert\n    tag_20:\n      pop\n      tag_21\n      0x04\n      dup1\n      calldatasize\n      sub\n      dup2\n      add\n      swap1\n      tag_22\n      swap2\n      swap1\n      tag_23\n      jump\t// in\n    tag_22:\n      tag_24\n      jump\t// in\n    tag_21:\n      mload(0x40)\n      tag_25\n      swap2\n      swap1\n      tag_26\n      jump\t// in\n    tag_25:\n      mload(0x40)\n      dup1\n      swap2\n      sub\n      swap1\n      return\n        /* \"contracts/TokenSale.sol\":4017:4140  function updateSaleStartTime(uint256 updatedSaleStartTime) public onlyOwner{\r... */\n    tag_3:\n      callvalue\n      dup1\n      iszero\n      tag_27\n      jumpi\n      0x00\n      dup1\n      revert\n    tag_27:\n      pop\n      tag_28\n      0x04\n      dup1\n      calldatasize\n      sub\n      dup2\n      add\n      swap1\n      tag_29\n      swap2\n      swap1\n      tag_30\n      jump\t// in\n    tag_29:\n      tag_31\n      jump\t// in\n    tag_28:\n      stop\n        /* \"contracts/TokenSale.sol\":3163:3442  function withdraw(address _to) public virtual payable onlyOwner{\r... */\n    tag_4:\n      tag_32\n      0x04\n      dup1\n      calldatasize\n      sub\n      dup2\n      add\n      swap1\n      tag_33\n      swap2\n      swap1\n      tag_23\n      jump\t// in\n    tag_33:\n      tag_34\n      jump\t// in\n    tag_32:\n      stop\n        /* \"contracts/TokenSale.sol\":399:479  IERC20 public _usdcInstance = IERC20(0x4ECdfE30998A0CE87b08DbaF218e4a99c2313978) */\n    tag_5:\n      callvalue\n      dup1\n      iszero\n      tag_35\n      jumpi\n      0x00\n      dup1\n      revert\n    tag_35:\n      pop\n      tag_36\n      tag_37\n      jump\t// in\n    tag_36:\n      mload(0x40)\n      tag_38\n      swap2\n      swap1\n      tag_39\n      jump\t// in\n    tag_38:\n      mload(0x40)\n      dup1\n      swap2\n      sub\n      swap1\n      return\n        /* \"contracts/TokenSale.sol\":1224:1341  function getRecord(address _address) public virtual view returns(uint256){\r... */\n    tag_6:\n      callvalue\n      dup1\n      iszero\n      tag_40\n      jumpi\n      0x00\n      dup1\n      revert\n    tag_40:\n      pop\n      tag_41\n      0x04\n      dup1\n      calldatasize\n      sub\n      dup2\n      add\n      swap1\n      tag_42\n      swap2\n      swap1\n      tag_23\n      jump\t// in\n    tag_42:\n      tag_43\n      jump\t// in\n    tag_41:\n      mload(0x40)\n      tag_44\n      swap2\n      swap1\n      tag_26\n      jump\t// in\n    tag_44:\n      mload(0x40)\n      dup1\n      swap2\n      sub\n      swap1\n      return\n        /* \"contracts/TokenSale.sol\":4144:4259  function updateSaleEndTime(uint256 updatedSaleEndTime) public onlyOwner{\r... */\n    tag_7:\n      callvalue\n      dup1\n      iszero\n      tag_45\n      jumpi\n      0x00\n      dup1\n      revert\n    tag_45:\n      pop\n      tag_46\n      0x04\n      dup1\n      calldatasize\n      sub\n      dup2\n      add\n      swap1\n      tag_47\n      swap2\n      swap1\n      tag_30\n      jump\t// in\n    tag_47:\n      tag_48\n      jump\t// in\n    tag_46:\n      stop\n        /* \"@openzeppelin/contracts/access/Ownable.sol\":1668:1769  function renounceOwnership() public virtual onlyOwner {... */\n    tag_8:\n      callvalue\n      dup1\n      iszero\n      tag_49\n      jumpi\n      0x00\n      dup1\n      revert\n    tag_49:\n      pop\n      tag_50\n      tag_51\n      jump\t// in\n    tag_50:\n      stop\n        /* \"contracts/TokenSale.sol\":2327:3157  function purchases(uint256 _amount) public {\r... */\n    tag_9:\n      callvalue\n      dup1\n      iszero\n      tag_52\n      jumpi\n      0x00\n      dup1\n      revert\n    tag_52:\n      pop\n      tag_53\n      0x04\n      dup1\n      calldatasize\n      sub\n      dup2\n      add\n      swap1\n      tag_54\n      swap2\n      swap1\n      tag_30\n      jump\t// in\n    tag_54:\n      tag_55\n      jump\t// in\n    tag_53:\n      stop\n        /* \"contracts/TokenSale.sol\":932:1009  function getOwner() public view returns(address){\r... */\n    tag_10:\n      callvalue\n      dup1\n      iszero\n      tag_56\n      jumpi\n      0x00\n      dup1\n      revert\n    tag_56:\n      pop\n      tag_57\n      tag_58\n      jump\t// in\n    tag_57:\n      mload(0x40)\n      tag_59\n      swap2\n      swap1\n      tag_60\n      jump\t// in\n    tag_59:\n      mload(0x40)\n      dup1\n      swap2\n      sub\n      swap1\n      return\n        /* \"@openzeppelin/contracts/access/Ownable.sol\":1036:1121  function owner() public view virtual returns (address) {... */\n    tag_11:\n      callvalue\n      dup1\n      iszero\n      tag_61\n      jumpi\n      0x00\n      dup1\n      revert\n    tag_61:\n      pop\n      tag_62\n      tag_63\n      jump\t// in\n    tag_62:\n      mload(0x40)\n      tag_64\n      swap2\n      swap1\n      tag_60\n      jump\t// in\n    tag_64:\n      mload(0x40)\n      dup1\n      swap2\n      sub\n      swap1\n      return\n        /* \"contracts/TokenSale.sol\":835:926  function saleStart() public view virtual returns (uint256) {\r... */\n    tag_12:\n      callvalue\n      dup1\n      iszero\n      tag_65\n      jumpi\n      0x00\n      dup1\n      revert\n    tag_65:\n      pop\n      tag_66\n      tag_67\n      jump\t// in\n    tag_66:\n      mload(0x40)\n      tag_68\n      swap2\n      swap1\n      tag_26\n      jump\t// in\n    tag_68:\n      mload(0x40)\n      dup1\n      swap2\n      sub\n      swap1\n      return\n        /* \"contracts/TokenSale.sol\":1131:1218  function saleEnd() public view virtual returns (uint256) {\r... */\n    tag_13:\n      callvalue\n      dup1\n      iszero\n      tag_69\n      jumpi\n      0x00\n      dup1\n      revert\n    tag_69:\n      pop\n      tag_70\n      tag_71\n      jump\t// in\n    tag_70:\n      mload(0x40)\n      tag_72\n      swap2\n      swap1\n      tag_26\n      jump\t// in\n    tag_72:\n      mload(0x40)\n      dup1\n      swap2\n      sub\n      swap1\n      return\n        /* \"contracts/TokenSale.sol\":3673:4011  function Return(address payable _returnAddress) public payable onlyOwner returns(bool){\r... */\n    tag_14:\n      tag_73\n      0x04\n      dup1\n      calldatasize\n      sub\n      dup2\n      add\n      swap1\n      tag_74\n      swap2\n      swap1\n      tag_75\n      jump\t// in\n    tag_74:\n      tag_76\n      jump\t// in\n    tag_73:\n      mload(0x40)\n      tag_77\n      swap2\n      swap1\n      tag_78\n      jump\t// in\n    tag_77:\n      mload(0x40)\n      dup1\n      swap2\n      sub\n      swap1\n      return\n        /* \"contracts/TokenSale.sol\":1347:2321  function purchase(uint256 _amount) public{\r... */\n    tag_15:\n      callvalue\n      dup1\n      iszero\n      tag_79\n      jumpi\n      0x00\n      dup1\n      revert\n    tag_79:\n      pop\n      tag_80\n      0x04\n      dup1\n      calldatasize\n      sub\n      dup2\n      add\n      swap1\n      tag_81\n      swap2\n      swap1\n      tag_30\n      jump\t// in\n    tag_81:\n      tag_82\n      jump\t// in\n    tag_80:\n      stop\n        /* \"@openzeppelin/contracts/access/Ownable.sol\":1918:2116  function transferOwnership(address newOwner) public virtual onlyOwner {... */\n    tag_16:\n      callvalue\n      dup1\n      iszero\n      tag_83\n      jumpi\n      0x00\n      dup1\n      revert\n    tag_83:\n      pop\n      tag_84\n      0x04\n      dup1\n      calldatasize\n      sub\n      dup2\n      add\n      swap1\n      tag_85\n      swap2\n      swap1\n      tag_23\n      jump\t// in\n    tag_85:\n      tag_86\n      jump\t// in\n    tag_84:\n      stop\n        /* \"contracts/TokenSale.sol\":1013:1125  function bala(address add) public view virtual returns (uint256){\r... */\n    tag_24:\n        /* \"contracts/TokenSale.sol\":1069:1076  uint256 */\n      0x00\n        /* \"contracts/TokenSale.sol\":1091:1104  _usdcInstance */\n      0x04\n      0x00\n      swap1\n      sload\n      swap1\n      0x0100\n      exp\n      swap1\n      div\n      0xffffffffffffffffffffffffffffffffffffffff\n      and\n        /* \"contracts/TokenSale.sol\":1091:1114  _usdcInstance.balanceOf */\n      0xffffffffffffffffffffffffffffffffffffffff\n      and\n      0x70a08231\n        /* \"contracts/TokenSale.sol\":1115:1118  add */\n      dup4\n        /* \"contracts/TokenSale.sol\":1091:1119  _usdcInstance.balanceOf(add) */\n      mload(0x40)\n      dup3\n      0xffffffff\n      and\n      0xe0\n      shl\n      dup2\n      mstore\n      0x04\n      add\n      tag_88\n      swap2\n      swap1\n      tag_60\n      jump\t// in\n    tag_88:\n      0x20\n      mload(0x40)\n      dup1\n      dup4\n      sub\n      dup2\n      dup7\n      dup1\n      extcodesize\n      iszero\n      dup1\n      iszero\n      tag_89\n      jumpi\n      0x00\n      dup1\n      revert\n    tag_89:\n      pop\n      gas\n      staticcall\n      iszero\n      dup1\n      iszero\n      tag_91\n      jumpi\n      returndatasize\n      0x00\n      dup1\n      returndatacopy\n      revert(0x00, returndatasize)\n    tag_91:\n      pop\n      pop\n      pop\n      pop\n      mload(0x40)\n      returndatasize\n      not(0x1f)\n      0x1f\n      dup3\n      add\n      and\n      dup3\n      add\n      dup1\n      0x40\n      mstore\n      pop\n      dup2\n      add\n      swap1\n      tag_92\n      swap2\n      swap1\n      tag_93\n      jump\t// in\n    tag_92:\n        /* \"contracts/TokenSale.sol\":1084:1119  return _usdcInstance.balanceOf(add) */\n      swap1\n      pop\n        /* \"contracts/TokenSale.sol\":1013:1125  function bala(address add) public view virtual returns (uint256){\r... */\n      swap2\n      swap1\n      pop\n      jump\t// out\n        /* \"contracts/TokenSale.sol\":4017:4140  function updateSaleStartTime(uint256 updatedSaleStartTime) public onlyOwner{\r... */\n    tag_31:\n        /* \"@openzeppelin/contracts/access/Ownable.sol\":1259:1271  _msgSender() */\n      tag_95\n        /* \"@openzeppelin/contracts/access/Ownable.sol\":1259:1269  _msgSender */\n      tag_96\n        /* \"@openzeppelin/contracts/access/Ownable.sol\":1259:1271  _msgSender() */\n      jump\t// in\n    tag_95:\n        /* \"@openzeppelin/contracts/access/Ownable.sol\":1248:1271  owner() == _msgSender() */\n      0xffffffffffffffffffffffffffffffffffffffff\n      and\n        /* \"@openzeppelin/contracts/access/Ownable.sol\":1248:1255  owner() */\n      tag_97\n        /* \"@openzeppelin/contracts/access/Ownable.sol\":1248:1253  owner */\n      tag_63\n        /* \"@openzeppelin/contracts/access/Ownable.sol\":1248:1255  owner() */\n      jump\t// in\n    tag_97:\n        /* \"@openzeppelin/contracts/access/Ownable.sol\":1248:1271  owner() == _msgSender() */\n      0xffffffffffffffffffffffffffffffffffffffff\n      and\n      eq\n        /* \"@openzeppelin/contracts/access/Ownable.sol\":1240:1308  require(owner() == _msgSender(), \"Ownable: caller is not the owner\") */\n      tag_98\n      jumpi\n      mload(0x40)\n      0x08c379a000000000000000000000000000000000000000000000000000000000\n      dup2\n      mstore\n      0x04\n      add\n      tag_99\n      swap1\n      tag_100\n      jump\t// in\n    tag_99:\n      mload(0x40)\n      dup1\n      swap2\n      sub\n      swap1\n      revert\n    tag_98:\n        /* \"contracts/TokenSale.sol\":4114:4134  updatedSaleStartTime */\n      dup1\n        /* \"contracts/TokenSale.sol\":4101:4111  _saleStart */\n      0x02\n        /* \"contracts/TokenSale.sol\":4101:4134  _saleStart = updatedSaleStartTime */\n      dup2\n      swap1\n      sstore\n      pop\n        /* \"contracts/TokenSale.sol\":4017:4140  function updateSaleStartTime(uint256 updatedSaleStartTime) public onlyOwner{\r... */\n      pop\n      jump\t// out\n        /* \"contracts/TokenSale.sol\":3163:3442  function withdraw(address _to) public virtual payable onlyOwner{\r... */\n    tag_34:\n        /* \"@openzeppelin/contracts/access/Ownable.sol\":1259:1271  _msgSender() */\n      tag_103\n        /* \"@openzeppelin/contracts/access/Ownable.sol\":1259:1269  _msgSender */\n      tag_96\n        /* \"@openzeppelin/contracts/access/Ownable.sol\":1259:1271  _msgSender() */\n      jump\t// in\n    tag_103:\n        /* \"@openzeppelin/contracts/access/Ownable.sol\":1248:1271  owner() == _msgSender() */\n      0xffffffffffffffffffffffffffffffffffffffff\n      and\n        /* \"@openzeppelin/contracts/access/Ownable.sol\":1248:1255  owner() */\n      tag_104\n        /* \"@openzeppelin/contracts/access/Ownable.sol\":1248:1253  owner */\n      tag_63\n        /* \"@openzeppelin/contracts/access/Ownable.sol\":1248:1255  owner() */\n      jump\t// in\n    tag_104:\n        /* \"@openzeppelin/contracts/access/Ownable.sol\":1248:1271  owner() == _msgSender() */\n      0xffffffffffffffffffffffffffffffffffffffff\n      and\n      eq\n        /* \"@openzeppelin/contracts/access/Ownable.sol\":1240:1308  require(owner() == _msgSender(), \"Ownable: caller is not the owner\") */\n      tag_105\n      jumpi\n      mload(0x40)\n      0x08c379a000000000000000000000000000000000000000000000000000000000\n      dup2\n      mstore\n      0x04\n      add\n      tag_106\n      swap1\n      tag_100\n      jump\t// in\n    tag_106:\n      mload(0x40)\n      dup1\n      swap2\n      sub\n      swap1\n      revert\n    tag_105:\n        /* \"contracts/TokenSale.sol\":3259:3267  _saleEnd */\n      sload(0x03)\n        /* \"contracts/TokenSale.sol\":3243:3258  block.timestamp */\n      timestamp\n        /* \"contracts/TokenSale.sol\":3243:3267  block.timestamp>_saleEnd */\n      gt\n        /* \"contracts/TokenSale.sol\":3235:3288  require(block.timestamp>_saleEnd,\"Sale hasn't ended\") */\n      tag_108\n      jumpi\n      mload(0x40)\n      0x08c379a000000000000000000000000000000000000000000000000000000000\n      dup2\n      mstore\n      0x04\n      add\n      tag_109\n      swap1\n      tag_110\n      jump\t// in\n    tag_109:\n      mload(0x40)\n      dup1\n      swap2\n      sub\n      swap1\n      revert\n    tag_108:\n        /* \"contracts/TokenSale.sol\":3297:3362  _usdcInstance.safeTransfer(_to, _usdcInstance.balanceOf(owner())) */\n      tag_111\n        /* \"contracts/TokenSale.sol\":3324:3327  _to */\n      dup2\n        /* \"contracts/TokenSale.sol\":3329:3342  _usdcInstance */\n      0x04\n      0x00\n      swap1\n      sload\n      swap1\n      0x0100\n      exp\n      swap1\n      div\n      0xffffffffffffffffffffffffffffffffffffffff\n      and\n        /* \"contracts/TokenSale.sol\":3329:3352  _usdcInstance.balanceOf */\n      0xffffffffffffffffffffffffffffffffffffffff\n      and\n      0x70a08231\n        /* \"contracts/TokenSale.sol\":3353:3360  owner() */\n      tag_112\n        /* \"contracts/TokenSale.sol\":3353:3358  owner */\n      tag_63\n        /* \"contracts/TokenSale.sol\":3353:3360  owner() */\n      jump\t// in\n    tag_112:\n        /* \"contracts/TokenSale.sol\":3329:3361  _usdcInstance.balanceOf(owner()) */\n      mload(0x40)\n      dup3\n      0xffffffff\n      and\n      0xe0\n      shl\n      dup2\n      mstore\n      0x04\n      add\n      tag_113\n      swap2\n      swap1\n      tag_60\n      jump\t// in\n    tag_113:\n      0x20\n      mload(0x40)\n      dup1\n      dup4\n      sub\n      dup2\n      dup7\n      dup1\n      extcodesize\n      iszero\n      dup1\n      iszero\n      tag_114\n      jumpi\n      0x00\n      dup1\n      revert\n    tag_114:\n      pop\n      gas\n      staticcall\n      iszero\n      dup1\n      iszero\n      tag_116\n      jumpi\n      returndatasize\n      0x00\n      dup1\n      returndatacopy\n      revert(0x00, returndatasize)\n    tag_116:\n      pop\n      pop\n      pop\n      pop\n      mload(0x40)\n      returndatasize\n      not(0x1f)\n      0x1f\n      dup3\n      add\n      and\n      dup3\n      add\n      dup1\n      0x40\n      mstore\n      pop\n      dup2\n      add\n      swap1\n      tag_117\n      swap2\n      swap1\n      tag_93\n      jump\t// in\n    tag_117:\n        /* \"contracts/TokenSale.sol\":3297:3310  _usdcInstance */\n      0x04\n      0x00\n      swap1\n      sload\n      swap1\n      0x0100\n      exp\n      swap1\n      div\n      0xffffffffffffffffffffffffffffffffffffffff\n      and\n        /* \"contracts/TokenSale.sol\":3297:3323  _usdcInstance.safeTransfer */\n      0xffffffffffffffffffffffffffffffffffffffff\n      and\n      tag_118\n      swap1\n        /* \"contracts/TokenSale.sol\":3297:3362  _usdcInstance.safeTransfer(_to, _usdcInstance.balanceOf(owner())) */\n      swap3\n      swap2\n      swap1\n      0xffffffff\n      and\n      jump\t// in\n    tag_111:\n        /* \"contracts/TokenSale.sol\":3371:3436  _usdcInstance.safeTransfer(_to, _usdcInstance.balanceOf(owner())) */\n      tag_119\n        /* \"contracts/TokenSale.sol\":3398:3401  _to */\n      dup2\n        /* \"contracts/TokenSale.sol\":3403:3416  _usdcInstance */\n      0x04\n      0x00\n      swap1\n      sload\n      swap1\n      0x0100\n      exp\n      swap1\n      div\n      0xffffffffffffffffffffffffffffffffffffffff\n      and\n        /* \"contracts/TokenSale.sol\":3403:3426  _usdcInstance.balanceOf */\n      0xffffffffffffffffffffffffffffffffffffffff\n      and\n      0x70a08231\n        /* \"contracts/TokenSale.sol\":3427:3434  owner() */\n      tag_120\n        /* \"contracts/TokenSale.sol\":3427:3432  owner */\n      tag_63\n        /* \"contracts/TokenSale.sol\":3427:3434  owner() */\n      jump\t// in\n    tag_120:\n        /* \"contracts/TokenSale.sol\":3403:3435  _usdcInstance.balanceOf(owner()) */\n      mload(0x40)\n      dup3\n      0xffffffff\n      and\n      0xe0\n      shl\n      dup2\n      mstore\n      0x04\n      add\n      tag_121\n      swap2\n      swap1\n      tag_60\n      jump\t// in\n    tag_121:\n      0x20\n      mload(0x40)\n      dup1\n      dup4\n      sub\n      dup2\n      dup7\n      dup1\n      extcodesize\n      iszero\n      dup1\n      iszero\n      tag_122\n      jumpi\n      0x00\n      dup1\n      revert\n    tag_122:\n      pop\n      gas\n      staticcall\n      iszero\n      dup1\n      iszero\n      tag_124\n      jumpi\n      returndatasize\n      0x00\n      dup1\n      returndatacopy\n      revert(0x00, returndatasize)\n    tag_124:\n      pop\n      pop\n      pop\n      pop\n      mload(0x40)\n      returndatasize\n      not(0x1f)\n      0x1f\n      dup3\n      add\n      and\n      dup3\n      add\n      dup1\n      0x40\n      mstore\n      pop\n      dup2\n      add\n      swap1\n      tag_125\n      swap2\n      swap1\n      tag_93\n      jump\t// in\n    tag_125:\n        /* \"contracts/TokenSale.sol\":3371:3384  _usdcInstance */\n      0x04\n      0x00\n      swap1\n      sload\n      swap1\n      0x0100\n      exp\n      swap1\n      div\n      0xffffffffffffffffffffffffffffffffffffffff\n      and\n        /* \"contracts/TokenSale.sol\":3371:3397  _usdcInstance.safeTransfer */\n      0xffffffffffffffffffffffffffffffffffffffff\n      and\n      tag_118\n      swap1\n        /* \"contracts/TokenSale.sol\":3371:3436  _usdcInstance.safeTransfer(_to, _usdcInstance.balanceOf(owner())) */\n      swap3\n      swap2\n      swap1\n      0xffffffff\n      and\n      jump\t// in\n    tag_119:\n        /* \"contracts/TokenSale.sol\":3163:3442  function withdraw(address _to) public virtual payable onlyOwner{\r... */\n      pop\n      jump\t// out\n        /* \"contracts/TokenSale.sol\":399:479  IERC20 public _usdcInstance = IERC20(0x4ECdfE30998A0CE87b08DbaF218e4a99c2313978) */\n    tag_37:\n      0x04\n      0x00\n      swap1\n      sload\n      swap1\n      0x0100\n      exp\n      swap1\n      div\n      0xffffffffffffffffffffffffffffffffffffffff\n      and\n      dup2\n      jump\t// out\n        /* \"contracts/TokenSale.sol\":1224:1341  function getRecord(address _address) public virtual view returns(uint256){\r... */\n    tag_43:\n        /* \"contracts/TokenSale.sol\":1289:1296  uint256 */\n      0x00\n        /* \"contracts/TokenSale.sol\":1311:1317  record */\n      0x05\n        /* \"contracts/TokenSale.sol\":1311:1327  record[_address] */\n      0x00\n        /* \"contracts/TokenSale.sol\":1318:1326  _address */\n      dup4\n        /* \"contracts/TokenSale.sol\":1311:1327  record[_address] */\n      0xffffffffffffffffffffffffffffffffffffffff\n      and\n      0xffffffffffffffffffffffffffffffffffffffff\n      and\n      dup2\n      mstore\n      0x20\n      add\n      swap1\n      dup2\n      mstore\n      0x20\n      add\n      0x00\n      keccak256\n        /* \"contracts/TokenSale.sol\":1311:1335  record[_address]._amount */\n      0x00\n      add\n      sload\n        /* \"contracts/TokenSale.sol\":1304:1335  return record[_address]._amount */\n      swap1\n      pop\n        /* \"contracts/TokenSale.sol\":1224:1341  function getRecord(address _address) public virtual view returns(uint256){\r... */\n      swap2\n      swap1\n      pop\n      jump\t// out\n        /* \"contracts/TokenSale.sol\":4144:4259  function updateSaleEndTime(uint256 updatedSaleEndTime) public onlyOwner{\r... */\n    tag_48:\n        /* \"@openzeppelin/contracts/access/Ownable.sol\":1259:1271  _msgSender() */\n      tag_128\n        /* \"@openzeppelin/contracts/access/Ownable.sol\":1259:1269  _msgSender */\n      tag_96\n        /* \"@openzeppelin/contracts/access/Ownable.sol\":1259:1271  _msgSender() */\n      jump\t// in\n    tag_128:\n        /* \"@openzeppelin/contracts/access/Ownable.sol\":1248:1271  owner() == _msgSender() */\n      0xffffffffffffffffffffffffffffffffffffffff\n      and\n        /* \"@openzeppelin/contracts/access/Ownable.sol\":1248:1255  owner() */\n      tag_129\n        /* \"@openzeppelin/contracts/access/Ownable.sol\":1248:1253  owner */\n      tag_63\n        /* \"@openzeppelin/contracts/access/Ownable.sol\":1248:1255  owner() */\n      jump\t// in\n    tag_129:\n        /* \"@openzeppelin/contracts/access/Ownable.sol\":1248:1271  owner() == _msgSender() */\n      0xffffffffffffffffffffffffffffffffffffffff\n      and\n      eq\n        /* \"@openzeppelin/contracts/access/Ownable.sol\":1240:1308  require(owner() == _msgSender(), \"Ownable: caller is not the owner\") */\n      tag_130\n      jumpi\n      mload(0x40)\n      0x08c379a000000000000000000000000000000000000000000000000000000000\n      dup2\n      mstore\n      0x04\n      add\n      tag_131\n      swap1\n      tag_100\n      jump\t// in\n    tag_131:\n      mload(0x40)\n      dup1\n      swap2\n      sub\n      swap1\n      revert\n    tag_130:\n        /* \"contracts/TokenSale.sol\":4235:4253  updatedSaleEndTime */\n      dup1\n        /* \"contracts/TokenSale.sol\":4224:4232  _saleEnd */\n      0x03\n        /* \"contracts/TokenSale.sol\":4224:4253  _saleEnd = updatedSaleEndTime */\n      dup2\n      swap1\n      sstore\n      pop\n        /* \"contracts/TokenSale.sol\":4144:4259  function updateSaleEndTime(uint256 updatedSaleEndTime) public onlyOwner{\r... */\n      pop\n      jump\t// out\n        /* \"@openzeppelin/contracts/access/Ownable.sol\":1668:1769  function renounceOwnership() public virtual onlyOwner {... */\n    tag_51:\n        /* \"@openzeppelin/contracts/access/Ownable.sol\":1259:1271  _msgSender() */\n      tag_134\n        /* \"@openzeppelin/contracts/access/Ownable.sol\":1259:1269  _msgSender */\n      tag_96\n        /* \"@openzeppelin/contracts/access/Ownable.sol\":1259:1271  _msgSender() */\n      jump\t// in\n    tag_134:\n        /* \"@openzeppelin/contracts/access/Ownable.sol\":1248:1271  owner() == _msgSender() */\n      0xffffffffffffffffffffffffffffffffffffffff\n      and\n        /* \"@openzeppelin/contracts/access/Ownable.sol\":1248:1255  owner() */\n      tag_135\n        /* \"@openzeppelin/contracts/access/Ownable.sol\":1248:1253  owner */\n      tag_63\n        /* \"@openzeppelin/contracts/access/Ownable.sol\":1248:1255  owner() */\n      jump\t// in\n    tag_135:\n        /* \"@openzeppelin/contracts/access/Ownable.sol\":1248:1271  owner() == _msgSender() */\n      0xffffffffffffffffffffffffffffffffffffffff\n      and\n      eq\n        /* \"@openzeppelin/contracts/access/Ownable.sol\":1240:1308  require(owner() == _msgSender(), \"Ownable: caller is not the owner\") */\n      tag_136\n      jumpi\n      mload(0x40)\n      0x08c379a000000000000000000000000000000000000000000000000000000000\n      dup2\n      mstore\n      0x04\n      add\n      tag_137\n      swap1\n      tag_100\n      jump\t// in\n    tag_137:\n      mload(0x40)\n      dup1\n      swap2\n      sub\n      swap1\n      revert\n    tag_136:\n        /* \"@openzeppelin/contracts/access/Ownable.sol\":1732:1762  _transferOwnership(address(0)) */\n      tag_139\n        /* \"@openzeppelin/contracts/access/Ownable.sol\":1759:1760  0 */\n      0x00\n        /* \"@openzeppelin/contracts/access/Ownable.sol\":1732:1750  _transferOwnership */\n      tag_140\n        /* \"@openzeppelin/contracts/access/Ownable.sol\":1732:1762  _transferOwnership(address(0)) */\n      jump\t// in\n    tag_139:\n        /* \"@openzeppelin/contracts/access/Ownable.sol\":1668:1769  function renounceOwnership() public virtual onlyOwner {... */\n      jump\t// out\n        /* \"contracts/TokenSale.sol\":2327:3157  function purchases(uint256 _amount) public {\r... */\n    tag_55:\n        /* \"contracts/TokenSale.sol\":2404:2414  _saleStart */\n      sload(0x02)\n        /* \"contracts/TokenSale.sol\":2387:2402  block.timestamp */\n      timestamp\n        /* \"contracts/TokenSale.sol\":2387:2414  block.timestamp>=_saleStart */\n      lt\n      iszero\n        /* \"contracts/TokenSale.sol\":2379:2441  require(block.timestamp>=_saleStart,\"Sale hasn't started yet\") */\n      tag_142\n      jumpi\n      mload(0x40)\n      0x08c379a000000000000000000000000000000000000000000000000000000000\n      dup2\n      mstore\n      0x04\n      add\n      tag_143\n      swap1\n      tag_144\n      jump\t// in\n    tag_143:\n      mload(0x40)\n      dup1\n      swap2\n      sub\n      swap1\n      revert\n    tag_142:\n        /* \"contracts/TokenSale.sol\":2475:2483  _saleEnd */\n      sload(0x03)\n        /* \"contracts/TokenSale.sol\":2458:2473  block.timestamp */\n      timestamp\n        /* \"contracts/TokenSale.sol\":2458:2483  block.timestamp<=_saleEnd */\n      gt\n      iszero\n        /* \"contracts/TokenSale.sol\":2450:2501  require(block.timestamp<=_saleEnd,\"Sale has ended\") */\n      tag_145\n      jumpi\n      mload(0x40)\n      0x08c379a000000000000000000000000000000000000000000000000000000000\n      dup2\n      mstore\n      0x04\n      add\n      tag_146\n      swap1\n      tag_147\n      jump\t// in\n    tag_146:\n      mload(0x40)\n      dup1\n      swap2\n      sub\n      swap1\n      revert\n    tag_145:\n        /* \"contracts/TokenSale.sol\":2758:2817  _usdcInstance.safeTransferFrom(msg.sender,owner(), _amount) */\n      tag_148\n        /* \"contracts/TokenSale.sol\":2789:2799  msg.sender */\n      caller\n        /* \"contracts/TokenSale.sol\":2800:2807  owner() */\n      tag_149\n        /* \"contracts/TokenSale.sol\":2800:2805  owner */\n      tag_63\n        /* \"contracts/TokenSale.sol\":2800:2807  owner() */\n      jump\t// in\n    tag_149:\n        /* \"contracts/TokenSale.sol\":2809:2816  _amount */\n      dup4\n        /* \"contracts/TokenSale.sol\":2758:2771  _usdcInstance */\n      0x04\n      0x00\n      swap1\n      sload\n      swap1\n      0x0100\n      exp\n      swap1\n      div\n      0xffffffffffffffffffffffffffffffffffffffff\n      and\n        /* \"contracts/TokenSale.sol\":2758:2788  _usdcInstance.safeTransferFrom */\n      0xffffffffffffffffffffffffffffffffffffffff\n      and\n      tag_150\n      swap1\n        /* \"contracts/TokenSale.sol\":2758:2817  _usdcInstance.safeTransferFrom(msg.sender,owner(), _amount) */\n      swap4\n      swap3\n      swap2\n      swap1\n      0xffffffff\n      and\n      jump\t// in\n    tag_148:\n        /* \"contracts/TokenSale.sol\":2327:3157  function purchases(uint256 _amount) public {\r... */\n      pop\n      jump\t// out\n        /* \"contracts/TokenSale.sol\":932:1009  function getOwner() public view returns(address){\r... */\n    tag_58:\n        /* \"contracts/TokenSale.sol\":972:979  address */\n      0x00\n        /* \"contracts/TokenSale.sol\":996:1003  owner() */\n      tag_152\n        /* \"contracts/TokenSale.sol\":996:1001  owner */\n      tag_63\n        /* \"contracts/TokenSale.sol\":996:1003  owner() */\n      jump\t// in\n    tag_152:\n        /* \"contracts/TokenSale.sol\":989:1003  return owner() */\n      swap1\n      pop\n        /* \"contracts/TokenSale.sol\":932:1009  function getOwner() public view returns(address){\r... */\n      swap1\n      jump\t// out\n        /* \"@openzeppelin/contracts/access/Ownable.sol\":1036:1121  function owner() public view virtual returns (address) {... */\n    tag_63:\n        /* \"@openzeppelin/contracts/access/Ownable.sol\":1082:1089  address */\n      0x00\n        /* \"@openzeppelin/contracts/access/Ownable.sol\":1108:1114  _owner */\n      dup1\n      0x00\n      swap1\n      sload\n      swap1\n      0x0100\n      exp\n      swap1\n      div\n      0xffffffffffffffffffffffffffffffffffffffff\n      and\n        /* \"@openzeppelin/contracts/access/Ownable.sol\":1101:1114  return _owner */\n      swap1\n      pop\n        /* \"@openzeppelin/contracts/access/Ownable.sol\":1036:1121  function owner() public view virtual returns (address) {... */\n      swap1\n      jump\t// out\n        /* \"contracts/TokenSale.sol\":835:926  function saleStart() public view virtual returns (uint256) {\r... */\n    tag_67:\n        /* \"contracts/TokenSale.sol\":885:892  uint256 */\n      0x00\n        /* \"contracts/TokenSale.sol\":910:920  _saleStart */\n      sload(0x02)\n        /* \"contracts/TokenSale.sol\":903:920  return _saleStart */\n      swap1\n      pop\n        /* \"contracts/TokenSale.sol\":835:926  function saleStart() public view virtual returns (uint256) {\r... */\n      swap1\n      jump\t// out\n        /* \"contracts/TokenSale.sol\":1131:1218  function saleEnd() public view virtual returns (uint256) {\r... */\n    tag_71:\n        /* \"contracts/TokenSale.sol\":1179:1186  uint256 */\n      0x00\n        /* \"contracts/TokenSale.sol\":1204:1212  _saleEnd */\n      sload(0x03)\n        /* \"contracts/TokenSale.sol\":1197:1212  return _saleEnd */\n      swap1\n      pop\n        /* \"contracts/TokenSale.sol\":1131:1218  function saleEnd() public view virtual returns (uint256) {\r... */\n      swap1\n      jump\t// out\n        /* \"contracts/TokenSale.sol\":3673:4011  function Return(address payable _returnAddress) public payable onlyOwner returns(bool){\r... */\n    tag_76:\n        /* \"contracts/TokenSale.sol\":3754:3758  bool */\n      0x00\n        /* \"@openzeppelin/contracts/access/Ownable.sol\":1259:1271  _msgSender() */\n      tag_157\n        /* \"@openzeppelin/contracts/access/Ownable.sol\":1259:1269  _msgSender */\n      tag_96\n        /* \"@openzeppelin/contracts/access/Ownable.sol\":1259:1271  _msgSender() */\n      jump\t// in\n    tag_157:\n        /* \"@openzeppelin/contracts/access/Ownable.sol\":1248:1271  owner() == _msgSender() */\n      0xffffffffffffffffffffffffffffffffffffffff\n      and\n        /* \"@openzeppelin/contracts/access/Ownable.sol\":1248:1255  owner() */\n      tag_158\n        /* \"@openzeppelin/contracts/access/Ownable.sol\":1248:1253  owner */\n      tag_63\n        /* \"@openzeppelin/contracts/access/Ownable.sol\":1248:1255  owner() */\n      jump\t// in\n    tag_158:\n        /* \"@openzeppelin/contracts/access/Ownable.sol\":1248:1271  owner() == _msgSender() */\n      0xffffffffffffffffffffffffffffffffffffffff\n      and\n      eq\n        /* \"@openzeppelin/contracts/access/Ownable.sol\":1240:1308  require(owner() == _msgSender(), \"Ownable: caller is not the owner\") */\n      tag_159\n      jumpi\n      mload(0x40)\n      0x08c379a000000000000000000000000000000000000000000000000000000000\n      dup2\n      mstore\n      0x04\n      add\n      tag_160\n      swap1\n      tag_100\n      jump\t// in\n    tag_160:\n      mload(0x40)\n      dup1\n      swap2\n      sub\n      swap1\n      revert\n    tag_159:\n        /* \"contracts/TokenSale.sol\":3766:3783  uint256 returnAmt */\n      0x00\n        /* \"contracts/TokenSale.sol\":3786:3792  record */\n      0x05\n        /* \"contracts/TokenSale.sol\":3786:3808  record[_returnAddress] */\n      0x00\n        /* \"contracts/TokenSale.sol\":3793:3807  _returnAddress */\n      dup5\n        /* \"contracts/TokenSale.sol\":3786:3808  record[_returnAddress] */\n      0xffffffffffffffffffffffffffffffffffffffff\n      and\n      0xffffffffffffffffffffffffffffffffffffffff\n      and\n      dup2\n      mstore\n      0x20\n      add\n      swap1\n      dup2\n      mstore\n      0x20\n      add\n      0x00\n      keccak256\n        /* \"contracts/TokenSale.sol\":3786:3816  record[_returnAddress]._amount */\n      0x00\n      add\n      sload\n        /* \"contracts/TokenSale.sol\":3766:3816  uint256 returnAmt = record[_returnAddress]._amount */\n      swap1\n      pop\n        /* \"contracts/TokenSale.sol\":3854:3863  returnAmt */\n      dup1\n        /* \"contracts/TokenSale.sol\":3831:3852  address(this).balance */\n      selfbalance\n        /* \"contracts/TokenSale.sol\":3831:3863  address(this).balance>=returnAmt */\n      lt\n      iszero\n        /* \"contracts/TokenSale.sol\":3823:3893  require(address(this).balance>=returnAmt,\"Not enough token to return\") */\n      tag_162\n      jumpi\n      mload(0x40)\n      0x08c379a000000000000000000000000000000000000000000000000000000000\n      dup2\n      mstore\n      0x04\n      add\n      tag_163\n      swap1\n      tag_164\n      jump\t// in\n    tag_163:\n      mload(0x40)\n      dup1\n      swap2\n      sub\n      swap1\n      revert\n    tag_162:\n        /* \"contracts/TokenSale.sol\":3953:3967  _returnAddress */\n      dup3\n        /* \"contracts/TokenSale.sol\":3953:3976  _returnAddress.transfer */\n      0xffffffffffffffffffffffffffffffffffffffff\n      and\n        /* \"contracts/TokenSale.sol\":3953:3987  _returnAddress.transfer(returnAmt) */\n      0x08fc\n        /* \"contracts/TokenSale.sol\":3977:3986  returnAmt */\n      dup3\n        /* \"contracts/TokenSale.sol\":3953:3987  _returnAddress.transfer(returnAmt) */\n      swap1\n      dup2\n      iszero\n      mul\n      swap1\n      mload(0x40)\n      0x00\n      mload(0x40)\n      dup1\n      dup4\n      sub\n      dup2\n      dup6\n      dup9\n      dup9\n      call\n      swap4\n      pop\n      pop\n      pop\n      pop\n      iszero\n      dup1\n      iszero\n      tag_166\n      jumpi\n      returndatasize\n      0x00\n      dup1\n      returndatacopy\n      revert(0x00, returndatasize)\n    tag_166:\n      pop\n        /* \"contracts/TokenSale.sol\":4001:4005  true */\n      0x01\n        /* \"contracts/TokenSale.sol\":3994:4005  return true */\n      swap2\n      pop\n      pop\n        /* \"contracts/TokenSale.sol\":3673:4011  function Return(address payable _returnAddress) public payable onlyOwner returns(bool){\r... */\n      swap2\n      swap1\n      pop\n      jump\t// out\n        /* \"contracts/TokenSale.sol\":1347:2321  function purchase(uint256 _amount) public{\r... */\n    tag_82:\n        /* \"contracts/TokenSale.sol\":1422:1432  _saleStart */\n      sload(0x02)\n        /* \"contracts/TokenSale.sol\":1405:1420  block.timestamp */\n      timestamp\n        /* \"contracts/TokenSale.sol\":1405:1432  block.timestamp>=_saleStart */\n      lt\n      iszero\n        /* \"contracts/TokenSale.sol\":1397:1459  require(block.timestamp>=_saleStart,\"Sale hasn't started yet\") */\n      tag_168\n      jumpi\n      mload(0x40)\n      0x08c379a000000000000000000000000000000000000000000000000000000000\n      dup2\n      mstore\n      0x04\n      add\n      tag_169\n      swap1\n      tag_144\n      jump\t// in\n    tag_169:\n      mload(0x40)\n      dup1\n      swap2\n      sub\n      swap1\n      revert\n    tag_168:\n        /* \"contracts/TokenSale.sol\":1493:1501  _saleEnd */\n      sload(0x03)\n        /* \"contracts/TokenSale.sol\":1476:1491  block.timestamp */\n      timestamp\n        /* \"contracts/TokenSale.sol\":1476:1501  block.timestamp<=_saleEnd */\n      gt\n      iszero\n        /* \"contracts/TokenSale.sol\":1468:1519  require(block.timestamp<=_saleEnd,\"Sale has ended\") */\n      tag_170\n      jumpi\n      mload(0x40)\n      0x08c379a000000000000000000000000000000000000000000000000000000000\n      dup2\n      mstore\n      0x04\n      add\n      tag_171\n      swap1\n      tag_147\n      jump\t// in\n    tag_171:\n      mload(0x40)\n      dup1\n      swap2\n      sub\n      swap1\n      revert\n    tag_170:\n        /* \"contracts/TokenSale.sol\":1528:1570  _usdcInstance.safeApprove(owner(),_amount) */\n      tag_172\n        /* \"contracts/TokenSale.sol\":1554:1561  owner() */\n      tag_173\n        /* \"contracts/TokenSale.sol\":1554:1559  owner */\n      tag_63\n        /* \"contracts/TokenSale.sol\":1554:1561  owner() */\n      jump\t// in\n    tag_173:\n        /* \"contracts/TokenSale.sol\":1562:1569  _amount */\n      dup3\n        /* \"contracts/TokenSale.sol\":1528:1541  _usdcInstance */\n      0x04\n      0x00\n      swap1\n      sload\n      swap1\n      0x0100\n      exp\n      swap1\n      div\n      0xffffffffffffffffffffffffffffffffffffffff\n      and\n        /* \"contracts/TokenSale.sol\":1528:1553  _usdcInstance.safeApprove */\n      0xffffffffffffffffffffffffffffffffffffffff\n      and\n      tag_174\n      swap1\n        /* \"contracts/TokenSale.sol\":1528:1570  _usdcInstance.safeApprove(owner(),_amount) */\n      swap3\n      swap2\n      swap1\n      0xffffffff\n      and\n      jump\t// in\n    tag_172:\n        /* \"contracts/TokenSale.sol\":1579:1638  _usdcInstance.safeTransferFrom(msg.sender,owner(), _amount) */\n      tag_175\n        /* \"contracts/TokenSale.sol\":1610:1620  msg.sender */\n      caller\n        /* \"contracts/TokenSale.sol\":1621:1628  owner() */\n      tag_176\n        /* \"contracts/TokenSale.sol\":1621:1626  owner */\n      tag_63\n        /* \"contracts/TokenSale.sol\":1621:1628  owner() */\n      jump\t// in\n    tag_176:\n        /* \"contracts/TokenSale.sol\":1630:1637  _amount */\n      dup4\n        /* \"contracts/TokenSale.sol\":1579:1592  _usdcInstance */\n      0x04\n      0x00\n      swap1\n      sload\n      swap1\n      0x0100\n      exp\n      swap1\n      div\n      0xffffffffffffffffffffffffffffffffffffffff\n      and\n        /* \"contracts/TokenSale.sol\":1579:1609  _usdcInstance.safeTransferFrom */\n      0xffffffffffffffffffffffffffffffffffffffff\n      and\n      tag_150\n      swap1\n        /* \"contracts/TokenSale.sol\":1579:1638  _usdcInstance.safeTransferFrom(msg.sender,owner(), _amount) */\n      swap4\n      swap3\n      swap2\n      swap1\n      0xffffffff\n      and\n      jump\t// in\n    tag_175:\n        /* \"contracts/TokenSale.sol\":1347:2321  function purchase(uint256 _amount) public{\r... */\n      pop\n      jump\t// out\n        /* \"@openzeppelin/contracts/access/Ownable.sol\":1918:2116  function transferOwnership(address newOwner) public virtual onlyOwner {... */\n    tag_86:\n        /* \"@openzeppelin/contracts/access/Ownable.sol\":1259:1271  _msgSender() */\n      tag_178\n        /* \"@openzeppelin/contracts/access/Ownable.sol\":1259:1269  _msgSender */\n      tag_96\n        /* \"@openzeppelin/contracts/access/Ownable.sol\":1259:1271  _msgSender() */\n      jump\t// in\n    tag_178:\n        /* \"@openzeppelin/contracts/access/Ownable.sol\":1248:1271  owner() == _msgSender() */\n      0xffffffffffffffffffffffffffffffffffffffff\n      and\n        /* \"@openzeppelin/contracts/access/Ownable.sol\":1248:1255  owner() */\n      tag_179\n        /* \"@openzeppelin/contracts/access/Ownable.sol\":1248:1253  owner */\n      tag_63\n        /* \"@openzeppelin/contracts/access/Ownable.sol\":1248:1255  owner() */\n      jump\t// in\n    tag_179:\n        /* \"@openzeppelin/contracts/access/Ownable.sol\":1248:1271  owner() == _msgSender() */\n      0xffffffffffffffffffffffffffffffffffffffff\n      and\n      eq\n        /* \"@openzeppelin/contracts/access/Ownable.sol\":1240:1308  require(owner() == _msgSender(), \"Ownable: caller is not the owner\") */\n      tag_180\n      jumpi\n      mload(0x40)\n      0x08c379a000000000000000000000000000000000000000000000000000000000\n      dup2\n      mstore\n      0x04\n      add\n      tag_181\n      swap1\n      tag_100\n      jump\t// in\n    tag_181:\n      mload(0x40)\n      dup1\n      swap2\n      sub\n      swap1\n      revert\n    tag_180:\n        /* \"@openzeppelin/contracts/access/Ownable.sol\":2026:2027  0 */\n      0x00\n        /* \"@openzeppelin/contracts/access/Ownable.sol\":2006:2028  newOwner != address(0) */\n      0xffffffffffffffffffffffffffffffffffffffff\n      and\n        /* \"@openzeppelin/contracts/access/Ownable.sol\":2006:2014  newOwner */\n      dup2\n        /* \"@openzeppelin/contracts/access/Ownable.sol\":2006:2028  newOwner != address(0) */\n      0xffffffffffffffffffffffffffffffffffffffff\n      and\n      eq\n      iszero\n        /* \"@openzeppelin/contracts/access/Ownable.sol\":1998:2071  require(newOwner != address(0), \"Ownable: new owner is the zero address\") */\n      tag_183\n      jumpi\n      mload(0x40)\n      0x08c379a000000000000000000000000000000000000000000000000000000000\n      dup2\n      mstore\n      0x04\n      add\n      tag_184\n      swap1\n      tag_185\n      jump\t// in\n    tag_184:\n      mload(0x40)\n      dup1\n      swap2\n      sub\n      swap1\n      revert\n    tag_183:\n        /* \"@openzeppelin/contracts/access/Ownable.sol\":2081:2109  _transferOwnership(newOwner) */\n      tag_186\n        /* \"@openzeppelin/contracts/access/Ownable.sol\":2100:2108  newOwner */\n      dup2\n        /* \"@openzeppelin/contracts/access/Ownable.sol\":2081:2099  _transferOwnership */\n      tag_140\n        /* \"@openzeppelin/contracts/access/Ownable.sol\":2081:2109  _transferOwnership(newOwner) */\n      jump\t// in\n    tag_186:\n        /* \"@openzeppelin/contracts/access/Ownable.sol\":1918:2116  function transferOwnership(address newOwner) public virtual onlyOwner {... */\n      pop\n      jump\t// out\n        /* \"@openzeppelin/contracts/utils/Context.sol\":640:736  function _msgSender() internal view virtual returns (address) {... */\n    tag_96:\n        /* \"@openzeppelin/contracts/utils/Context.sol\":693:700  address */\n      0x00\n        /* \"@openzeppelin/contracts/utils/Context.sol\":719:729  msg.sender */\n      caller\n        /* \"@openzeppelin/contracts/utils/Context.sol\":712:729  return msg.sender */\n      swap1\n      pop\n        /* \"@openzeppelin/contracts/utils/Context.sol\":640:736  function _msgSender() internal view virtual returns (address) {... */\n      swap1\n      jump\t// out\n        /* \"@openzeppelin/contracts/token/ERC20/utils/SafeERC20.sol\":701:906  function safeTransfer(... */\n    tag_118:\n        /* \"@openzeppelin/contracts/token/ERC20/utils/SafeERC20.sol\":813:899  _callOptionalReturn(token, abi.encodeWithSelector(token.transfer.selector, to, value)) */\n      tag_189\n        /* \"@openzeppelin/contracts/token/ERC20/utils/SafeERC20.sol\":833:838  token */\n      dup4\n        /* \"@openzeppelin/contracts/token/ERC20/utils/SafeERC20.sol\":863:886  token.transfer.selector */\n      shl(0xe0, 0xa9059cbb)\n        /* \"@openzeppelin/contracts/token/ERC20/utils/SafeERC20.sol\":888:890  to */\n      dup5\n        /* \"@openzeppelin/contracts/token/ERC20/utils/SafeERC20.sol\":892:897  value */\n      dup5\n        /* \"@openzeppelin/contracts/token/ERC20/utils/SafeERC20.sol\":840:898  abi.encodeWithSelector(token.transfer.selector, to, value) */\n      add(0x24, mload(0x40))\n      tag_190\n      swap3\n      swap2\n      swap1\n      tag_191\n      jump\t// in\n    tag_190:\n      mload(0x40)\n      0x20\n      dup2\n      dup4\n      sub\n      sub\n      dup2\n      mstore\n      swap1\n      0x40\n      mstore\n      swap1\n      not(0xffffffffffffffffffffffffffffffffffffffffffffffffffffffff)\n      and\n      0x20\n      dup3\n      add\n      dup1\n      mload\n      0xffffffffffffffffffffffffffffffffffffffffffffffffffffffff\n      dup4\n      dup2\n      dup4\n      and\n      or\n      dup4\n      mstore\n      pop\n      pop\n      pop\n      pop\n        /* \"@openzeppelin/contracts/token/ERC20/utils/SafeERC20.sol\":813:832  _callOptionalReturn */\n      tag_192\n        /* \"@openzeppelin/contracts/token/ERC20/utils/SafeERC20.sol\":813:899  _callOptionalReturn(token, abi.encodeWithSelector(token.transfer.selector, to, value)) */\n      jump\t// in\n    tag_189:\n        /* \"@openzeppelin/contracts/token/ERC20/utils/SafeERC20.sol\":701:906  function safeTransfer(... */\n      pop\n      pop\n      pop\n      jump\t// out\n        /* \"@openzeppelin/contracts/access/Ownable.sol\":2270:2457  function _transferOwnership(address newOwner) internal virtual {... */\n    tag_140:\n        /* \"@openzeppelin/contracts/access/Ownable.sol\":2343:2359  address oldOwner */\n      0x00\n        /* \"@openzeppelin/contracts/access/Ownable.sol\":2362:2368  _owner */\n      dup1\n      0x00\n      swap1\n      sload\n      swap1\n      0x0100\n      exp\n      swap1\n      div\n      0xffffffffffffffffffffffffffffffffffffffff\n      and\n        /* \"@openzeppelin/contracts/access/Ownable.sol\":2343:2368  address oldOwner = _owner */\n      swap1\n      pop\n        /* \"@openzeppelin/contracts/access/Ownable.sol\":2387:2395  newOwner */\n      dup2\n        /* \"@openzeppelin/contracts/access/Ownable.sol\":2378:2384  _owner */\n      0x00\n      dup1\n        /* \"@openzeppelin/contracts/access/Ownable.sol\":2378:2395  _owner = newOwner */\n      0x0100\n      exp\n      dup2\n      sload\n      dup2\n      0xffffffffffffffffffffffffffffffffffffffff\n      mul\n      not\n      and\n      swap1\n      dup4\n      0xffffffffffffffffffffffffffffffffffffffff\n      and\n      mul\n      or\n      swap1\n      sstore\n      pop\n        /* \"@openzeppelin/contracts/access/Ownable.sol\":2441:2449  newOwner */\n      dup2\n        /* \"@openzeppelin/contracts/access/Ownable.sol\":2410:2450  OwnershipTransferred(oldOwner, newOwner) */\n      0xffffffffffffffffffffffffffffffffffffffff\n      and\n        /* \"@openzeppelin/contracts/access/Ownable.sol\":2431:2439  oldOwner */\n      dup2\n        /* \"@openzeppelin/contracts/access/Ownable.sol\":2410:2450  OwnershipTransferred(oldOwner, newOwner) */\n      0xffffffffffffffffffffffffffffffffffffffff\n      and\n      0x8be0079c531659141344cd1fd0a4f28419497f9722a3daafe3b4186f6b6457e0\n      mload(0x40)\n      mload(0x40)\n      dup1\n      swap2\n      sub\n      swap1\n      log3\n        /* \"@openzeppelin/contracts/access/Ownable.sol\":2333:2457  {... */\n      pop\n        /* \"@openzeppelin/contracts/access/Ownable.sol\":2270:2457  function _transferOwnership(address newOwner) internal virtual {... */\n      pop\n      jump\t// out\n        /* \"@openzeppelin/contracts/token/ERC20/utils/SafeERC20.sol\":912:1153  function safeTransferFrom(... */\n    tag_150:\n        /* \"@openzeppelin/contracts/token/ERC20/utils/SafeERC20.sol\":1050:1146  _callOptionalReturn(token, abi.encodeWithSelector(token.transferFrom.selector, from, to, value)) */\n      tag_195\n        /* \"@openzeppelin/contracts/token/ERC20/utils/SafeERC20.sol\":1070:1075  token */\n      dup5\n        /* \"@openzeppelin/contracts/token/ERC20/utils/SafeERC20.sol\":1100:1127  token.transferFrom.selector */\n      shl(0xe0, 0x23b872dd)\n        /* \"@openzeppelin/contracts/token/ERC20/utils/SafeERC20.sol\":1129:1133  from */\n      dup6\n        /* \"@openzeppelin/contracts/token/ERC20/utils/SafeERC20.sol\":1135:1137  to */\n      dup6\n        /* \"@openzeppelin/contracts/token/ERC20/utils/SafeERC20.sol\":1139:1144  value */\n      dup6\n        /* \"@openzeppelin/contracts/token/ERC20/utils/SafeERC20.sol\":1077:1145  abi.encodeWithSelector(token.transferFrom.selector, from, to, value) */\n      add(0x24, mload(0x40))\n      tag_196\n      swap4\n      swap3\n      swap2\n      swap1\n      tag_197\n      jump\t// in\n    tag_196:\n      mload(0x40)\n      0x20\n      dup2\n      dup4\n      sub\n      sub\n      dup2\n      mstore\n      swap1\n      0x40\n      mstore\n      swap1\n      not(0xffffffffffffffffffffffffffffffffffffffffffffffffffffffff)\n      and\n      0x20\n      dup3\n      add\n      dup1\n      mload\n      0xffffffffffffffffffffffffffffffffffffffffffffffffffffffff\n      dup4\n      dup2\n      dup4\n      and\n      or\n      dup4\n      mstore\n      pop\n      pop\n      pop\n      pop\n        /* \"@openzeppelin/contracts/token/ERC20/utils/SafeERC20.sol\":1050:1069  _callOptionalReturn */\n      tag_192\n        /* \"@openzeppelin/contracts/token/ERC20/utils/SafeERC20.sol\":1050:1146  _callOptionalReturn(token, abi.encodeWithSelector(token.transferFrom.selector, from, to, value)) */\n      jump\t// in\n    tag_195:\n        /* \"@openzeppelin/contracts/token/ERC20/utils/SafeERC20.sol\":912:1153  function safeTransferFrom(... */\n      pop\n      pop\n      pop\n      pop\n      jump\t// out\n        /* \"@openzeppelin/contracts/token/ERC20/utils/SafeERC20.sol\":1413:2016  function safeApprove(... */\n    tag_174:\n        /* \"@openzeppelin/contracts/token/ERC20/utils/SafeERC20.sol\":1777:1778  0 */\n      0x00\n        /* \"@openzeppelin/contracts/token/ERC20/utils/SafeERC20.sol\":1768:1773  value */\n      dup2\n        /* \"@openzeppelin/contracts/token/ERC20/utils/SafeERC20.sol\":1768:1778  value == 0 */\n      eq\n        /* \"@openzeppelin/contracts/token/ERC20/utils/SafeERC20.sol\":1767:1829  (value == 0) || (token.allowance(address(this), spender) == 0) */\n      dup1\n      tag_199\n      jumpi\n      pop\n        /* \"@openzeppelin/contracts/token/ERC20/utils/SafeERC20.sol\":1827:1828  0 */\n      0x00\n        /* \"@openzeppelin/contracts/token/ERC20/utils/SafeERC20.sol\":1784:1789  token */\n      dup4\n        /* \"@openzeppelin/contracts/token/ERC20/utils/SafeERC20.sol\":1784:1799  token.allowance */\n      0xffffffffffffffffffffffffffffffffffffffff\n      and\n      0xdd62ed3e\n        /* \"@openzeppelin/contracts/token/ERC20/utils/SafeERC20.sol\":1808:1812  this */\n      address\n        /* \"@openzeppelin/contracts/token/ERC20/utils/SafeERC20.sol\":1815:1822  spender */\n      dup6\n        /* \"@openzeppelin/contracts/token/ERC20/utils/SafeERC20.sol\":1784:1823  token.allowance(address(this), spender) */\n      mload(0x40)\n      dup4\n      0xffffffff\n      and\n      0xe0\n      shl\n      dup2\n      mstore\n      0x04\n      add\n      tag_200\n      swap3\n      swap2\n      swap1\n      tag_201\n      jump\t// in\n    tag_200:\n      0x20\n      mload(0x40)\n      dup1\n      dup4\n      sub\n      dup2\n      dup7\n      dup1\n      extcodesize\n      iszero\n      dup1\n      iszero\n      tag_202\n      jumpi\n      0x00\n      dup1\n      revert\n    tag_202:\n      pop\n      gas\n      staticcall\n      iszero\n      dup1\n      iszero\n      tag_204\n      jumpi\n      returndatasize\n      0x00\n      dup1\n      returndatacopy\n      revert(0x00, returndatasize)\n    tag_204:\n      pop\n      pop\n      pop\n      pop\n      mload(0x40)\n      returndatasize\n      not(0x1f)\n      0x1f\n      dup3\n      add\n      and\n      dup3\n      add\n      dup1\n      0x40\n      mstore\n      pop\n      dup2\n      add\n      swap1\n      tag_205\n      swap2\n      swap1\n      tag_93\n      jump\t// in\n    tag_205:\n        /* \"@openzeppelin/contracts/token/ERC20/utils/SafeERC20.sol\":1784:1828  token.allowance(address(this), spender) == 0 */\n      eq\n        /* \"@openzeppelin/contracts/token/ERC20/utils/SafeERC20.sol\":1767:1829  (value == 0) || (token.allowance(address(this), spender) == 0) */\n    tag_199:\n        /* \"@openzeppelin/contracts/token/ERC20/utils/SafeERC20.sol\":1746:1909  require(... */\n      tag_206\n      jumpi\n      mload(0x40)\n      0x08c379a000000000000000000000000000000000000000000000000000000000\n      dup2\n      mstore\n      0x04\n      add\n      tag_207\n      swap1\n      tag_208\n      jump\t// in\n    tag_207:\n      mload(0x40)\n      dup1\n      swap2\n      sub\n      swap1\n      revert\n    tag_206:\n        /* \"@openzeppelin/contracts/token/ERC20/utils/SafeERC20.sol\":1919:2009  _callOptionalReturn(token, abi.encodeWithSelector(token.approve.selector, spender, value)) */\n      tag_209\n        /* \"@openzeppelin/contracts/token/ERC20/utils/SafeERC20.sol\":1939:1944  token */\n      dup4\n        /* \"@openzeppelin/contracts/token/ERC20/utils/SafeERC20.sol\":1969:1991  token.approve.selector */\n      shl(0xe0, 0x095ea7b3)\n        /* \"@openzeppelin/contracts/token/ERC20/utils/SafeERC20.sol\":1993:2000  spender */\n      dup5\n        /* \"@openzeppelin/contracts/token/ERC20/utils/SafeERC20.sol\":2002:2007  value */\n      dup5\n        /* \"@openzeppelin/contracts/token/ERC20/utils/SafeERC20.sol\":1946:2008  abi.encodeWithSelector(token.approve.selector, spender, value) */\n      add(0x24, mload(0x40))\n      tag_210\n      swap3\n      swap2\n      swap1\n      tag_191\n      jump\t// in\n    tag_210:\n      mload(0x40)\n      0x20\n      dup2\n      dup4\n      sub\n      sub\n      dup2\n      mstore\n      swap1\n      0x40\n      mstore\n      swap1\n      not(0xffffffffffffffffffffffffffffffffffffffffffffffffffffffff)\n      and\n      0x20\n      dup3\n      add\n      dup1\n      mload\n      0xffffffffffffffffffffffffffffffffffffffffffffffffffffffff\n      dup4\n      dup2\n      dup4\n      and\n      or\n      dup4\n      mstore\n      pop\n      pop\n      pop\n      pop\n        /* \"@openzeppelin/contracts/token/ERC20/utils/SafeERC20.sol\":1919:1938  _callOptionalReturn */\n      tag_192\n        /* \"@openzeppelin/contracts/token/ERC20/utils/SafeERC20.sol\":1919:2009  _callOptionalReturn(token, abi.encodeWithSelector(token.approve.selector, spender, value)) */\n      jump\t// in\n    tag_209:\n        /* \"@openzeppelin/contracts/token/ERC20/utils/SafeERC20.sol\":1413:2016  function safeApprove(... */\n      pop\n      pop\n      pop\n      jump\t// out\n        /* \"@openzeppelin/contracts/token/ERC20/utils/SafeERC20.sol\":3207:3913  function _callOptionalReturn(IERC20 token, bytes memory data) private {... */\n    tag_192:\n        /* \"@openzeppelin/contracts/token/ERC20/utils/SafeERC20.sol\":3626:3649  bytes memory returndata */\n      0x00\n        /* \"@openzeppelin/contracts/token/ERC20/utils/SafeERC20.sol\":3652:3721  address(token).functionCall(data, \"SafeERC20: low-level call failed\") */\n      tag_212\n        /* \"@openzeppelin/contracts/token/ERC20/utils/SafeERC20.sol\":3680:3684  data */\n      dup3\n        /* \"@openzeppelin/contracts/token/ERC20/utils/SafeERC20.sol\":3652:3721  address(token).functionCall(data, \"SafeERC20: low-level call failed\") */\n      mload(0x40)\n      dup1\n      0x40\n      add\n      0x40\n      mstore\n      dup1\n      0x20\n      dup2\n      mstore\n      0x20\n      add\n      0x5361666545524332303a206c6f772d6c6576656c2063616c6c206661696c6564\n      dup2\n      mstore\n      pop\n        /* \"@openzeppelin/contracts/token/ERC20/utils/SafeERC20.sol\":3660:3665  token */\n      dup6\n        /* \"@openzeppelin/contracts/token/ERC20/utils/SafeERC20.sol\":3652:3679  address(token).functionCall */\n      0xffffffffffffffffffffffffffffffffffffffff\n      and\n      tag_213\n      swap1\n        /* \"@openzeppelin/contracts/token/ERC20/utils/SafeERC20.sol\":3652:3721  address(token).functionCall(data, \"SafeERC20: low-level call failed\") */\n      swap3\n      swap2\n      swap1\n      0xffffffff\n      and\n      jump\t// in\n    tag_212:\n        /* \"@openzeppelin/contracts/token/ERC20/utils/SafeERC20.sol\":3626:3721  bytes memory returndata = address(token).functionCall(data, \"SafeERC20: low-level call failed\") */\n      swap1\n      pop\n        /* \"@openzeppelin/contracts/token/ERC20/utils/SafeERC20.sol\":3755:3756  0 */\n      0x00\n        /* \"@openzeppelin/contracts/token/ERC20/utils/SafeERC20.sol\":3735:3745  returndata */\n      dup2\n        /* \"@openzeppelin/contracts/token/ERC20/utils/SafeERC20.sol\":3735:3752  returndata.length */\n      mload\n        /* \"@openzeppelin/contracts/token/ERC20/utils/SafeERC20.sol\":3735:3756  returndata.length > 0 */\n      gt\n        /* \"@openzeppelin/contracts/token/ERC20/utils/SafeERC20.sol\":3731:3907  if (returndata.length > 0) {... */\n      iszero\n      tag_214\n      jumpi\n        /* \"@openzeppelin/contracts/token/ERC20/utils/SafeERC20.sol\":3830:3840  returndata */\n      dup1\n        /* \"@openzeppelin/contracts/token/ERC20/utils/SafeERC20.sol\":3819:3849  abi.decode(returndata, (bool)) */\n      dup1\n      0x20\n      add\n      swap1\n      mload\n      dup2\n      add\n      swap1\n      tag_215\n      swap2\n      swap1\n      tag_216\n      jump\t// in\n    tag_215:\n        /* \"@openzeppelin/contracts/token/ERC20/utils/SafeERC20.sol\":3811:3896  require(abi.decode(returndata, (bool)), \"SafeERC20: ERC20 operation did not succeed\") */\n      tag_217\n      jumpi\n      mload(0x40)\n      0x08c379a000000000000000000000000000000000000000000000000000000000\n      dup2\n      mstore\n      0x04\n      add\n      tag_218\n      swap1\n      tag_219\n      jump\t// in\n    tag_218:\n      mload(0x40)\n      dup1\n      swap2\n      sub\n      swap1\n      revert\n    tag_217:\n        /* \"@openzeppelin/contracts/token/ERC20/utils/SafeERC20.sol\":3731:3907  if (returndata.length > 0) {... */\n    tag_214:\n        /* \"@openzeppelin/contracts/token/ERC20/utils/SafeERC20.sol\":3277:3913  {... */\n      pop\n        /* \"@openzeppelin/contracts/token/ERC20/utils/SafeERC20.sol\":3207:3913  function _callOptionalReturn(IERC20 token, bytes memory data) private {... */\n      pop\n      pop\n      jump\t// out\n        /* \"@openzeppelin/contracts/utils/Address.sol\":3861:4084  function functionCall(... */\n    tag_213:\n        /* \"@openzeppelin/contracts/utils/Address.sol\":3994:4006  bytes memory */\n      0x60\n        /* \"@openzeppelin/contracts/utils/Address.sol\":4025:4077  functionCallWithValue(target, data, 0, errorMessage) */\n      tag_221\n        /* \"@openzeppelin/contracts/utils/Address.sol\":4047:4053  target */\n      dup5\n        /* \"@openzeppelin/contracts/utils/Address.sol\":4055:4059  data */\n      dup5\n        /* \"@openzeppelin/contracts/utils/Address.sol\":4061:4062  0 */\n      0x00\n        /* \"@openzeppelin/contracts/utils/Address.sol\":4064:4076  errorMessage */\n      dup6\n        /* \"@openzeppelin/contracts/utils/Address.sol\":4025:4046  functionCallWithValue */\n      tag_222\n        /* \"@openzeppelin/contracts/utils/Address.sol\":4025:4077  functionCallWithValue(target, data, 0, errorMessage) */\n      jump\t// in\n    tag_221:\n        /* \"@openzeppelin/contracts/utils/Address.sol\":4018:4077  return functionCallWithValue(target, data, 0, errorMessage) */\n      swap1\n      pop\n        /* \"@openzeppelin/contracts/utils/Address.sol\":3861:4084  function functionCall(... */\n      swap4\n      swap3\n      pop\n      pop\n      pop\n      jump\t// out\n        /* \"@openzeppelin/contracts/utils/Address.sol\":4948:5447  function functionCallWithValue(... */\n    tag_222:\n        /* \"@openzeppelin/contracts/utils/Address.sol\":5113:5125  bytes memory */\n      0x60\n        /* \"@openzeppelin/contracts/utils/Address.sol\":5170:5175  value */\n      dup3\n        /* \"@openzeppelin/contracts/utils/Address.sol\":5145:5166  address(this).balance */\n      selfbalance\n        /* \"@openzeppelin/contracts/utils/Address.sol\":5145:5175  address(this).balance >= value */\n      lt\n      iszero\n        /* \"@openzeppelin/contracts/utils/Address.sol\":5137:5218  require(address(this).balance >= value, \"Address: insufficient balance for call\") */\n      tag_224\n      jumpi\n      mload(0x40)\n      0x08c379a000000000000000000000000000000000000000000000000000000000\n      dup2\n      mstore\n      0x04\n      add\n      tag_225\n      swap1\n      tag_226\n      jump\t// in\n    tag_225:\n      mload(0x40)\n      dup1\n      swap2\n      sub\n      swap1\n      revert\n    tag_224:\n        /* \"@openzeppelin/contracts/utils/Address.sol\":5236:5254  isContract(target) */\n      tag_227\n        /* \"@openzeppelin/contracts/utils/Address.sol\":5247:5253  target */\n      dup6\n        /* \"@openzeppelin/contracts/utils/Address.sol\":5236:5246  isContract */\n      tag_228\n        /* \"@openzeppelin/contracts/utils/Address.sol\":5236:5254  isContract(target) */\n      jump\t// in\n    tag_227:\n        /* \"@openzeppelin/contracts/utils/Address.sol\":5228:5288  require(isContract(target), \"Address: call to non-contract\") */\n      tag_229\n      jumpi\n      mload(0x40)\n      0x08c379a000000000000000000000000000000000000000000000000000000000\n      dup2\n      mstore\n      0x04\n      add\n      tag_230\n      swap1\n      tag_231\n      jump\t// in\n    tag_230:\n      mload(0x40)\n      dup1\n      swap2\n      sub\n      swap1\n      revert\n    tag_229:\n        /* \"@openzeppelin/contracts/utils/Address.sol\":5300:5312  bool success */\n      0x00\n        /* \"@openzeppelin/contracts/utils/Address.sol\":5314:5337  bytes memory returndata */\n      dup1\n        /* \"@openzeppelin/contracts/utils/Address.sol\":5341:5347  target */\n      dup7\n        /* \"@openzeppelin/contracts/utils/Address.sol\":5341:5352  target.call */\n      0xffffffffffffffffffffffffffffffffffffffff\n      and\n        /* \"@openzeppelin/contracts/utils/Address.sol\":5360:5365  value */\n      dup6\n        /* \"@openzeppelin/contracts/utils/Address.sol\":5367:5371  data */\n      dup8\n        /* \"@openzeppelin/contracts/utils/Address.sol\":5341:5372  target.call{value: value}(data) */\n      mload(0x40)\n      tag_232\n      swap2\n      swap1\n      tag_233\n      jump\t// in\n    tag_232:\n      0x00\n      mload(0x40)\n      dup1\n      dup4\n      sub\n      dup2\n      dup6\n      dup8\n      gas\n      call\n      swap3\n      pop\n      pop\n      pop\n      returndatasize\n      dup1\n      0x00\n      dup2\n      eq\n      tag_236\n      jumpi\n      mload(0x40)\n      swap2\n      pop\n      and(add(returndatasize, 0x3f), not(0x1f))\n      dup3\n      add\n      0x40\n      mstore\n      returndatasize\n      dup3\n      mstore\n      returndatasize\n      0x00\n      0x20\n      dup5\n      add\n      returndatacopy\n      jump(tag_235)\n    tag_236:\n      0x60\n      swap2\n      pop\n    tag_235:\n      pop\n        /* \"@openzeppelin/contracts/utils/Address.sol\":5299:5372  (bool success, bytes memory returndata) = target.call{value: value}(data) */\n      swap2\n      pop\n      swap2\n      pop\n        /* \"@openzeppelin/contracts/utils/Address.sol\":5389:5440  verifyCallResult(success, returndata, errorMessage) */\n      tag_237\n        /* \"@openzeppelin/contracts/utils/Address.sol\":5406:5413  success */\n      dup3\n        /* \"@openzeppelin/contracts/utils/Address.sol\":5415:5425  returndata */\n      dup3\n        /* \"@openzeppelin/contracts/utils/Address.sol\":5427:5439  errorMessage */\n      dup7\n        /* \"@openzeppelin/contracts/utils/Address.sol\":5389:5405  verifyCallResult */\n      tag_238\n        /* \"@openzeppelin/contracts/utils/Address.sol\":5389:5440  verifyCallResult(success, returndata, errorMessage) */\n      jump\t// in\n    tag_237:\n        /* \"@openzeppelin/contracts/utils/Address.sol\":5382:5440  return verifyCallResult(success, returndata, errorMessage) */\n      swap3\n      pop\n      pop\n      pop\n        /* \"@openzeppelin/contracts/utils/Address.sol\":4948:5447  function functionCallWithValue(... */\n      swap5\n      swap4\n      pop\n      pop\n      pop\n      pop\n      jump\t// out\n        /* \"@openzeppelin/contracts/utils/Address.sol\":1175:1495  function isContract(address account) internal view returns (bool) {... */\n    tag_228:\n        /* \"@openzeppelin/contracts/utils/Address.sol\":1235:1239  bool */\n      0x00\n        /* \"@openzeppelin/contracts/utils/Address.sol\":1487:1488  0 */\n      dup1\n        /* \"@openzeppelin/contracts/utils/Address.sol\":1465:1472  account */\n      dup3\n        /* \"@openzeppelin/contracts/utils/Address.sol\":1465:1484  account.code.length */\n      0xffffffffffffffffffffffffffffffffffffffff\n      and\n      extcodesize\n        /* \"@openzeppelin/contracts/utils/Address.sol\":1465:1488  account.code.length > 0 */\n      gt\n        /* \"@openzeppelin/contracts/utils/Address.sol\":1458:1488  return account.code.length > 0 */\n      swap1\n      pop\n        /* \"@openzeppelin/contracts/utils/Address.sol\":1175:1495  function isContract(address account) internal view returns (bool) {... */\n      swap2\n      swap1\n      pop\n      jump\t// out\n        /* \"@openzeppelin/contracts/utils/Address.sol\":7561:8253  function verifyCallResult(... */\n    tag_238:\n        /* \"@openzeppelin/contracts/utils/Address.sol\":7707:7719  bytes memory */\n      0x60\n        /* \"@openzeppelin/contracts/utils/Address.sol\":7735:7742  success */\n      dup4\n        /* \"@openzeppelin/contracts/utils/Address.sol\":7731:8247  if (success) {... */\n      iszero\n      tag_241\n      jumpi\n        /* \"@openzeppelin/contracts/utils/Address.sol\":7765:7775  returndata */\n      dup3\n        /* \"@openzeppelin/contracts/utils/Address.sol\":7758:7775  return returndata */\n      swap1\n      pop\n      jump(tag_240)\n        /* \"@openzeppelin/contracts/utils/Address.sol\":7731:8247  if (success) {... */\n    tag_241:\n        /* \"@openzeppelin/contracts/utils/Address.sol\":7896:7897  0 */\n      0x00\n        /* \"@openzeppelin/contracts/utils/Address.sol\":7876:7886  returndata */\n      dup4\n        /* \"@openzeppelin/contracts/utils/Address.sol\":7876:7893  returndata.length */\n      mload\n        /* \"@openzeppelin/contracts/utils/Address.sol\":7876:7897  returndata.length > 0 */\n      gt\n        /* \"@openzeppelin/contracts/utils/Address.sol\":7872:8237  if (returndata.length > 0) {... */\n      iszero\n      tag_243\n      jumpi\n        /* \"@openzeppelin/contracts/utils/Address.sol\":8070:8080  returndata */\n      dup3\n        /* \"@openzeppelin/contracts/utils/Address.sol\":8064:8081  mload(returndata) */\n      mload\n        /* \"@openzeppelin/contracts/utils/Address.sol\":8130:8145  returndata_size */\n      dup1\n        /* \"@openzeppelin/contracts/utils/Address.sol\":8117:8127  returndata */\n      dup5\n        /* \"@openzeppelin/contracts/utils/Address.sol\":8113:8115  32 */\n      0x20\n        /* \"@openzeppelin/contracts/utils/Address.sol\":8109:8128  add(32, returndata) */\n      add\n        /* \"@openzeppelin/contracts/utils/Address.sol\":8102:8146  revert(add(32, returndata), returndata_size) */\n      revert\n        /* \"@openzeppelin/contracts/utils/Address.sol\":7872:8237  if (returndata.length > 0) {... */\n    tag_243:\n        /* \"@openzeppelin/contracts/utils/Address.sol\":8209:8221  errorMessage */\n      dup2\n        /* \"@openzeppelin/contracts/utils/Address.sol\":8202:8222  revert(errorMessage) */\n      mload(0x40)\n      0x08c379a000000000000000000000000000000000000000000000000000000000\n      dup2\n      mstore\n      0x04\n      add\n      tag_245\n      swap2\n      swap1\n      tag_246\n      jump\t// in\n    tag_245:\n      mload(0x40)\n      dup1\n      swap2\n      sub\n      swap1\n      revert\n        /* \"@openzeppelin/contracts/utils/Address.sol\":7561:8253  function verifyCallResult(... */\n    tag_240:\n      swap4\n      swap3\n      pop\n      pop\n      pop\n      jump\t// out\n        /* \"#utility.yul\":7:146   */\n    tag_248:\n        /* \"#utility.yul\":53:58   */\n      0x00\n        /* \"#utility.yul\":91:97   */\n      dup2\n        /* \"#utility.yul\":78:98   */\n      calldataload\n        /* \"#utility.yul\":69:98   */\n      swap1\n      pop\n        /* \"#utility.yul\":107:140   */\n      tag_250\n        /* \"#utility.yul\":134:139   */\n      dup2\n        /* \"#utility.yul\":107:140   */\n      tag_251\n      jump\t// in\n    tag_250:\n        /* \"#utility.yul\":7:146   */\n      swap3\n      swap2\n      pop\n      pop\n      jump\t// out\n        /* \"#utility.yul\":152:307   */\n    tag_252:\n        /* \"#utility.yul\":206:211   */\n      0x00\n        /* \"#utility.yul\":244:250   */\n      dup2\n        /* \"#utility.yul\":231:251   */\n      calldataload\n        /* \"#utility.yul\":222:251   */\n      swap1\n      pop\n        /* \"#utility.yul\":260:301   */\n      tag_254\n        /* \"#utility.yul\":295:300   */\n      dup2\n        /* \"#utility.yul\":260:301   */\n      tag_255\n      jump\t// in\n    tag_254:\n        /* \"#utility.yul\":152:307   */\n      swap3\n      swap2\n      pop\n      pop\n      jump\t// out\n        /* \"#utility.yul\":313:450   */\n    tag_256:\n        /* \"#utility.yul\":367:372   */\n      0x00\n        /* \"#utility.yul\":398:404   */\n      dup2\n        /* \"#utility.yul\":392:405   */\n      mload\n        /* \"#utility.yul\":383:405   */\n      swap1\n      pop\n        /* \"#utility.yul\":414:444   */\n      tag_258\n        /* \"#utility.yul\":438:443   */\n      dup2\n        /* \"#utility.yul\":414:444   */\n      tag_259\n      jump\t// in\n    tag_258:\n        /* \"#utility.yul\":313:450   */\n      swap3\n      swap2\n      pop\n      pop\n      jump\t// out\n        /* \"#utility.yul\":456:595   */\n    tag_260:\n        /* \"#utility.yul\":502:507   */\n      0x00\n        /* \"#utility.yul\":540:546   */\n      dup2\n        /* \"#utility.yul\":527:547   */\n      calldataload\n        /* \"#utility.yul\":518:547   */\n      swap1\n      pop\n        /* \"#utility.yul\":556:589   */\n      tag_262\n        /* \"#utility.yul\":583:588   */\n      dup2\n        /* \"#utility.yul\":556:589   */\n      tag_263\n      jump\t// in\n    tag_262:\n        /* \"#utility.yul\":456:595   */\n      swap3\n      swap2\n      pop\n      pop\n      jump\t// out\n        /* \"#utility.yul\":601:744   */\n    tag_264:\n        /* \"#utility.yul\":658:663   */\n      0x00\n        /* \"#utility.yul\":689:695   */\n      dup2\n        /* \"#utility.yul\":683:696   */\n      mload\n        /* \"#utility.yul\":674:696   */\n      swap1\n      pop\n        /* \"#utility.yul\":705:738   */\n      tag_266\n        /* \"#utility.yul\":732:737   */\n      dup2\n        /* \"#utility.yul\":705:738   */\n      tag_263\n      jump\t// in\n    tag_266:\n        /* \"#utility.yul\":601:744   */\n      swap3\n      swap2\n      pop\n      pop\n      jump\t// out\n        /* \"#utility.yul\":750:1079   */\n    tag_23:\n        /* \"#utility.yul\":809:815   */\n      0x00\n        /* \"#utility.yul\":858:860   */\n      0x20\n        /* \"#utility.yul\":846:855   */\n      dup3\n        /* \"#utility.yul\":837:844   */\n      dup5\n        /* \"#utility.yul\":833:856   */\n      sub\n        /* \"#utility.yul\":829:861   */\n      slt\n        /* \"#utility.yul\":826:945   */\n      iszero\n      tag_268\n      jumpi\n        /* \"#utility.yul\":864:943   */\n      tag_269\n      tag_270\n      jump\t// in\n    tag_269:\n        /* \"#utility.yul\":826:945   */\n    tag_268:\n        /* \"#utility.yul\":984:985   */\n      0x00\n        /* \"#utility.yul\":1009:1062   */\n      tag_271\n        /* \"#utility.yul\":1054:1061   */\n      dup5\n        /* \"#utility.yul\":1045:1051   */\n      dup3\n        /* \"#utility.yul\":1034:1043   */\n      dup6\n        /* \"#utility.yul\":1030:1052   */\n      add\n        /* \"#utility.yul\":1009:1062   */\n      tag_248\n      jump\t// in\n    tag_271:\n        /* \"#utility.yul\":999:1062   */\n      swap2\n      pop\n        /* \"#utility.yul\":955:1072   */\n      pop\n        /* \"#utility.yul\":750:1079   */\n      swap3\n      swap2\n      pop\n      pop\n      jump\t// out\n        /* \"#utility.yul\":1085:1430   */\n    tag_75:\n        /* \"#utility.yul\":1152:1158   */\n      0x00\n        /* \"#utility.yul\":1201:1203   */\n      0x20\n        /* \"#utility.yul\":1189:1198   */\n      dup3\n        /* \"#utility.yul\":1180:1187   */\n      dup5\n        /* \"#utility.yul\":1176:1199   */\n      sub\n        /* \"#utility.yul\":1172:1204   */\n      slt\n        /* \"#utility.yul\":1169:1288   */\n      iszero\n      tag_273\n      jumpi\n        /* \"#utility.yul\":1207:1286   */\n      tag_274\n      tag_270\n      jump\t// in\n    tag_274:\n        /* \"#utility.yul\":1169:1288   */\n    tag_273:\n        /* \"#utility.yul\":1327:1328   */\n      0x00\n        /* \"#utility.yul\":1352:1413   */\n      tag_275\n        /* \"#utility.yul\":1405:1412   */\n      dup5\n        /* \"#utility.yul\":1396:1402   */\n      dup3\n        /* \"#utility.yul\":1385:1394   */\n      dup6\n        /* \"#utility.yul\":1381:1403   */\n      add\n        /* \"#utility.yul\":1352:1413   */\n      tag_252\n      jump\t// in\n    tag_275:\n        /* \"#utility.yul\":1342:1413   */\n      swap2\n      pop\n        /* \"#utility.yul\":1298:1423   */\n      pop\n        /* \"#utility.yul\":1085:1430   */\n      swap3\n      swap2\n      pop\n      pop\n      jump\t// out\n        /* \"#utility.yul\":1436:1781   */\n    tag_216:\n        /* \"#utility.yul\":1503:1509   */\n      0x00\n        /* \"#utility.yul\":1552:1554   */\n      0x20\n        /* \"#utility.yul\":1540:1549   */\n      dup3\n        /* \"#utility.yul\":1531:1538   */\n      dup5\n        /* \"#utility.yul\":1527:1550   */\n      sub\n        /* \"#utility.yul\":1523:1555   */\n      slt\n        /* \"#utility.yul\":1520:1639   */\n      iszero\n      tag_277\n      jumpi\n        /* \"#utility.yul\":1558:1637   */\n      tag_278\n      tag_270\n      jump\t// in\n    tag_278:\n        /* \"#utility.yul\":1520:1639   */\n    tag_277:\n        /* \"#utility.yul\":1678:1679   */\n      0x00\n        /* \"#utility.yul\":1703:1764   */\n      tag_279\n        /* \"#utility.yul\":1756:1763   */\n      dup5\n        /* \"#utility.yul\":1747:1753   */\n      dup3\n        /* \"#utility.yul\":1736:1745   */\n      dup6\n        /* \"#utility.yul\":1732:1754   */\n      add\n        /* \"#utility.yul\":1703:1764   */\n      tag_256\n      jump\t// in\n    tag_279:\n        /* \"#utility.yul\":1693:1764   */\n      swap2\n      pop\n        /* \"#utility.yul\":1649:1774   */\n      pop\n        /* \"#utility.yul\":1436:1781   */\n      swap3\n      swap2\n      pop\n      pop\n      jump\t// out\n        /* \"#utility.yul\":1787:2116   */\n    tag_30:\n        /* \"#utility.yul\":1846:1852   */\n      0x00\n        /* \"#utility.yul\":1895:1897   */\n      0x20\n        /* \"#utility.yul\":1883:1892   */\n      dup3\n        /* \"#utility.yul\":1874:1881   */\n      dup5\n        /* \"#utility.yul\":1870:1893   */\n      sub\n        /* \"#utility.yul\":1866:1898   */\n      slt\n        /* \"#utility.yul\":1863:1982   */\n      iszero\n      tag_281\n      jumpi\n        /* \"#utility.yul\":1901:1980   */\n      tag_282\n      tag_270\n      jump\t// in\n    tag_282:\n        /* \"#utility.yul\":1863:1982   */\n    tag_281:\n        /* \"#utility.yul\":2021:2022   */\n      0x00\n        /* \"#utility.yul\":2046:2099   */\n      tag_283\n        /* \"#utility.yul\":2091:2098   */\n      dup5\n        /* \"#utility.yul\":2082:2088   */\n      dup3\n        /* \"#utility.yul\":2071:2080   */\n      dup6\n        /* \"#utility.yul\":2067:2089   */\n      add\n        /* \"#utility.yul\":2046:2099   */\n      tag_260\n      jump\t// in\n    tag_283:\n        /* \"#utility.yul\":2036:2099   */\n      swap2\n      pop\n        /* \"#utility.yul\":1992:2109   */\n      pop\n        /* \"#utility.yul\":1787:2116   */\n      swap3\n      swap2\n      pop\n      pop\n      jump\t// out\n        /* \"#utility.yul\":2122:2473   */\n    tag_93:\n        /* \"#utility.yul\":2192:2198   */\n      0x00\n        /* \"#utility.yul\":2241:2243   */\n      0x20\n        /* \"#utility.yul\":2229:2238   */\n      dup3\n        /* \"#utility.yul\":2220:2227   */\n      dup5\n        /* \"#utility.yul\":2216:2239   */\n      sub\n        /* \"#utility.yul\":2212:2244   */\n      slt\n        /* \"#utility.yul\":2209:2328   */\n      iszero\n      tag_285\n      jumpi\n        /* \"#utility.yul\":2247:2326   */\n      tag_286\n      tag_270\n      jump\t// in\n    tag_286:\n        /* \"#utility.yul\":2209:2328   */\n    tag_285:\n        /* \"#utility.yul\":2367:2368   */\n      0x00\n        /* \"#utility.yul\":2392:2456   */\n      tag_287\n        /* \"#utility.yul\":2448:2455   */\n      dup5\n        /* \"#utility.yul\":2439:2445   */\n      dup3\n        /* \"#utility.yul\":2428:2437   */\n      dup6\n        /* \"#utility.yul\":2424:2446   */\n      add\n        /* \"#utility.yul\":2392:2456   */\n      tag_264\n      jump\t// in\n    tag_287:\n        /* \"#utility.yul\":2382:2456   */\n      swap2\n      pop\n        /* \"#utility.yul\":2338:2466   */\n      pop\n        /* \"#utility.yul\":2122:2473   */\n      swap3\n      swap2\n      pop\n      pop\n      jump\t// out\n        /* \"#utility.yul\":2479:2597   */\n    tag_288:\n        /* \"#utility.yul\":2566:2590   */\n      tag_290\n        /* \"#utility.yul\":2584:2589   */\n      dup2\n        /* \"#utility.yul\":2566:2590   */\n      tag_291\n      jump\t// in\n    tag_290:\n        /* \"#utility.yul\":2561:2564   */\n      dup3\n        /* \"#utility.yul\":2554:2591   */\n      mstore\n        /* \"#utility.yul\":2479:2597   */\n      pop\n      pop\n      jump\t// out\n        /* \"#utility.yul\":2603:2712   */\n    tag_292:\n        /* \"#utility.yul\":2684:2705   */\n      tag_294\n        /* \"#utility.yul\":2699:2704   */\n      dup2\n        /* \"#utility.yul\":2684:2705   */\n      tag_295\n      jump\t// in\n    tag_294:\n        /* \"#utility.yul\":2679:2682   */\n      dup3\n        /* \"#utility.yul\":2672:2706   */\n      mstore\n        /* \"#utility.yul\":2603:2712   */\n      pop\n      pop\n      jump\t// out\n        /* \"#utility.yul\":2718:3091   */\n    tag_296:\n        /* \"#utility.yul\":2822:2825   */\n      0x00\n        /* \"#utility.yul\":2850:2888   */\n      tag_298\n        /* \"#utility.yul\":2882:2887   */\n      dup3\n        /* \"#utility.yul\":2850:2888   */\n      tag_299\n      jump\t// in\n    tag_298:\n        /* \"#utility.yul\":2904:2992   */\n      tag_300\n        /* \"#utility.yul\":2985:2991   */\n      dup2\n        /* \"#utility.yul\":2980:2983   */\n      dup6\n        /* \"#utility.yul\":2904:2992   */\n      tag_301\n      jump\t// in\n    tag_300:\n        /* \"#utility.yul\":2897:2992   */\n      swap4\n      pop\n        /* \"#utility.yul\":3001:3053   */\n      tag_302\n        /* \"#utility.yul\":3046:3052   */\n      dup2\n        /* \"#utility.yul\":3041:3044   */\n      dup6\n        /* \"#utility.yul\":3034:3038   */\n      0x20\n        /* \"#utility.yul\":3027:3032   */\n      dup7\n        /* \"#utility.yul\":3023:3039   */\n      add\n        /* \"#utility.yul\":3001:3053   */\n      tag_303\n      jump\t// in\n    tag_302:\n        /* \"#utility.yul\":3078:3084   */\n      dup1\n        /* \"#utility.yul\":3073:3076   */\n      dup5\n        /* \"#utility.yul\":3069:3085   */\n      add\n        /* \"#utility.yul\":3062:3085   */\n      swap2\n      pop\n        /* \"#utility.yul\":2826:3091   */\n      pop\n        /* \"#utility.yul\":2718:3091   */\n      swap3\n      swap2\n      pop\n      pop\n      jump\t// out\n        /* \"#utility.yul\":3097:3256   */\n    tag_304:\n        /* \"#utility.yul\":3198:3249   */\n      tag_306\n        /* \"#utility.yul\":3243:3248   */\n      dup2\n        /* \"#utility.yul\":3198:3249   */\n      tag_307\n      jump\t// in\n    tag_306:\n        /* \"#utility.yul\":3193:3196   */\n      dup3\n        /* \"#utility.yul\":3186:3250   */\n      mstore\n        /* \"#utility.yul\":3097:3256   */\n      pop\n      pop\n      jump\t// out\n        /* \"#utility.yul\":3262:3626   */\n    tag_308:\n        /* \"#utility.yul\":3350:3353   */\n      0x00\n        /* \"#utility.yul\":3378:3417   */\n      tag_310\n        /* \"#utility.yul\":3411:3416   */\n      dup3\n        /* \"#utility.yul\":3378:3417   */\n      tag_311\n      jump\t// in\n    tag_310:\n        /* \"#utility.yul\":3433:3504   */\n      tag_312\n        /* \"#utility.yul\":3497:3503   */\n      dup2\n        /* \"#utility.yul\":3492:3495   */\n      dup6\n        /* \"#utility.yul\":3433:3504   */\n      tag_313\n      jump\t// in\n    tag_312:\n        /* \"#utility.yul\":3426:3504   */\n      swap4\n      pop\n        /* \"#utility.yul\":3513:3565   */\n      tag_314\n        /* \"#utility.yul\":3558:3564   */\n      dup2\n        /* \"#utility.yul\":3553:3556   */\n      dup6\n        /* \"#utility.yul\":3546:3550   */\n      0x20\n        /* \"#utility.yul\":3539:3544   */\n      dup7\n        /* \"#utility.yul\":3535:3551   */\n      add\n        /* \"#utility.yul\":3513:3565   */\n      tag_303\n      jump\t// in\n    tag_314:\n        /* \"#utility.yul\":3590:3619   */\n      tag_315\n        /* \"#utility.yul\":3612:3618   */\n      dup2\n        /* \"#utility.yul\":3590:3619   */\n      tag_316\n      jump\t// in\n    tag_315:\n        /* \"#utility.yul\":3585:3588   */\n      dup5\n        /* \"#utility.yul\":3581:3620   */\n      add\n        /* \"#utility.yul\":3574:3620   */\n      swap2\n      pop\n        /* \"#utility.yul\":3354:3626   */\n      pop\n        /* \"#utility.yul\":3262:3626   */\n      swap3\n      swap2\n      pop\n      pop\n      jump\t// out\n        /* \"#utility.yul\":3632:3998   */\n    tag_317:\n        /* \"#utility.yul\":3774:3777   */\n      0x00\n        /* \"#utility.yul\":3795:3862   */\n      tag_319\n        /* \"#utility.yul\":3859:3861   */\n      0x26\n        /* \"#utility.yul\":3854:3857   */\n      dup4\n        /* \"#utility.yul\":3795:3862   */\n      tag_313\n      jump\t// in\n    tag_319:\n        /* \"#utility.yul\":3788:3862   */\n      swap2\n      pop\n        /* \"#utility.yul\":3871:3964   */\n      tag_320\n        /* \"#utility.yul\":3960:3963   */\n      dup3\n        /* \"#utility.yul\":3871:3964   */\n      tag_321\n      jump\t// in\n    tag_320:\n        /* \"#utility.yul\":3989:3991   */\n      0x40\n        /* \"#utility.yul\":3984:3987   */\n      dup3\n        /* \"#utility.yul\":3980:3992   */\n      add\n        /* \"#utility.yul\":3973:3992   */\n      swap1\n      pop\n        /* \"#utility.yul\":3632:3998   */\n      swap2\n      swap1\n      pop\n      jump\t// out\n        /* \"#utility.yul\":4004:4370   */\n    tag_322:\n        /* \"#utility.yul\":4146:4149   */\n      0x00\n        /* \"#utility.yul\":4167:4234   */\n      tag_324\n        /* \"#utility.yul\":4231:4233   */\n      0x0e\n        /* \"#utility.yul\":4226:4229   */\n      dup4\n        /* \"#utility.yul\":4167:4234   */\n      tag_313\n      jump\t// in\n    tag_324:\n        /* \"#utility.yul\":4160:4234   */\n      swap2\n      pop\n        /* \"#utility.yul\":4243:4336   */\n      tag_325\n        /* \"#utility.yul\":4332:4335   */\n      dup3\n        /* \"#utility.yul\":4243:4336   */\n      tag_326\n      jump\t// in\n    tag_325:\n        /* \"#utility.yul\":4361:4363   */\n      0x20\n        /* \"#utility.yul\":4356:4359   */\n      dup3\n        /* \"#utility.yul\":4352:4364   */\n      add\n        /* \"#utility.yul\":4345:4364   */\n      swap1\n      pop\n        /* \"#utility.yul\":4004:4370   */\n      swap2\n      swap1\n      pop\n      jump\t// out\n        /* \"#utility.yul\":4376:4742   */\n    tag_327:\n        /* \"#utility.yul\":4518:4521   */\n      0x00\n        /* \"#utility.yul\":4539:4606   */\n      tag_329\n        /* \"#utility.yul\":4603:4605   */\n      0x26\n        /* \"#utility.yul\":4598:4601   */\n      dup4\n        /* \"#utility.yul\":4539:4606   */\n      tag_313\n      jump\t// in\n    tag_329:\n        /* \"#utility.yul\":4532:4606   */\n      swap2\n      pop\n        /* \"#utility.yul\":4615:4708   */\n      tag_330\n        /* \"#utility.yul\":4704:4707   */\n      dup3\n        /* \"#utility.yul\":4615:4708   */\n      tag_331\n      jump\t// in\n    tag_330:\n        /* \"#utility.yul\":4733:4735   */\n      0x40\n        /* \"#utility.yul\":4728:4731   */\n      dup3\n        /* \"#utility.yul\":4724:4736   */\n      add\n        /* \"#utility.yul\":4717:4736   */\n      swap1\n      pop\n        /* \"#utility.yul\":4376:4742   */\n      swap2\n      swap1\n      pop\n      jump\t// out\n        /* \"#utility.yul\":4748:5114   */\n    tag_332:\n        /* \"#utility.yul\":4890:4893   */\n      0x00\n        /* \"#utility.yul\":4911:4978   */\n      tag_334\n        /* \"#utility.yul\":4975:4977   */\n      0x20\n        /* \"#utility.yul\":4970:4973   */\n      dup4\n        /* \"#utility.yul\":4911:4978   */\n      tag_313\n      jump\t// in\n    tag_334:\n        /* \"#utility.yul\":4904:4978   */\n      swap2\n      pop\n        /* \"#utility.yul\":4987:5080   */\n      tag_335\n        /* \"#utility.yul\":5076:5079   */\n      dup3\n        /* \"#utility.yul\":4987:5080   */\n      tag_336\n      jump\t// in\n    tag_335:\n        /* \"#utility.yul\":5105:5107   */\n      0x20\n        /* \"#utility.yul\":5100:5103   */\n      dup3\n        /* \"#utility.yul\":5096:5108   */\n      add\n        /* \"#utility.yul\":5089:5108   */\n      swap1\n      pop\n        /* \"#utility.yul\":4748:5114   */\n      swap2\n      swap1\n      pop\n      jump\t// out\n        /* \"#utility.yul\":5120:5486   */\n    tag_337:\n        /* \"#utility.yul\":5262:5265   */\n      0x00\n        /* \"#utility.yul\":5283:5350   */\n      tag_339\n        /* \"#utility.yul\":5347:5349   */\n      0x17\n        /* \"#utility.yul\":5342:5345   */\n      dup4\n        /* \"#utility.yul\":5283:5350   */\n      tag_313\n      jump\t// in\n    tag_339:\n        /* \"#utility.yul\":5276:5350   */\n      swap2\n      pop\n        /* \"#utility.yul\":5359:5452   */\n      tag_340\n        /* \"#utility.yul\":5448:5451   */\n      dup3\n        /* \"#utility.yul\":5359:5452   */\n      tag_341\n      jump\t// in\n    tag_340:\n        /* \"#utility.yul\":5477:5479   */\n      0x20\n        /* \"#utility.yul\":5472:5475   */\n      dup3\n        /* \"#utility.yul\":5468:5480   */\n      add\n        /* \"#utility.yul\":5461:5480   */\n      swap1\n      pop\n        /* \"#utility.yul\":5120:5486   */\n      swap2\n      swap1\n      pop\n      jump\t// out\n        /* \"#utility.yul\":5492:5858   */\n    tag_342:\n        /* \"#utility.yul\":5634:5637   */\n      0x00\n        /* \"#utility.yul\":5655:5722   */\n      tag_344\n        /* \"#utility.yul\":5719:5721   */\n      0x11\n        /* \"#utility.yul\":5714:5717   */\n      dup4\n        /* \"#utility.yul\":5655:5722   */\n      tag_313\n      jump\t// in\n    tag_344:\n        /* \"#utility.yul\":5648:5722   */\n      swap2\n      pop\n        /* \"#utility.yul\":5731:5824   */\n      tag_345\n        /* \"#utility.yul\":5820:5823   */\n      dup3\n        /* \"#utility.yul\":5731:5824   */\n      tag_346\n      jump\t// in\n    tag_345:\n        /* \"#utility.yul\":5849:5851   */\n      0x20\n        /* \"#utility.yul\":5844:5847   */\n      dup3\n        /* \"#utility.yul\":5840:5852   */\n      add\n        /* \"#utility.yul\":5833:5852   */\n      swap1\n      pop\n        /* \"#utility.yul\":5492:5858   */\n      swap2\n      swap1\n      pop\n      jump\t// out\n        /* \"#utility.yul\":5864:6230   */\n    tag_347:\n        /* \"#utility.yul\":6006:6009   */\n      0x00\n        /* \"#utility.yul\":6027:6094   */\n      tag_349\n        /* \"#utility.yul\":6091:6093   */\n      0x1d\n        /* \"#utility.yul\":6086:6089   */\n      dup4\n        /* \"#utility.yul\":6027:6094   */\n      tag_313\n      jump\t// in\n    tag_349:\n        /* \"#utility.yul\":6020:6094   */\n      swap2\n      pop\n        /* \"#utility.yul\":6103:6196   */\n      tag_350\n        /* \"#utility.yul\":6192:6195   */\n      dup3\n        /* \"#utility.yul\":6103:6196   */\n      tag_351\n      jump\t// in\n    tag_350:\n        /* \"#utility.yul\":6221:6223   */\n      0x20\n        /* \"#utility.yul\":6216:6219   */\n      dup3\n        /* \"#utility.yul\":6212:6224   */\n      add\n        /* \"#utility.yul\":6205:6224   */\n      swap1\n      pop\n        /* \"#utility.yul\":5864:6230   */\n      swap2\n      swap1\n      pop\n      jump\t// out\n        /* \"#utility.yul\":6236:6602   */\n    tag_352:\n        /* \"#utility.yul\":6378:6381   */\n      0x00\n        /* \"#utility.yul\":6399:6466   */\n      tag_354\n        /* \"#utility.yul\":6463:6465   */\n      0x1a\n        /* \"#utility.yul\":6458:6461   */\n      dup4\n        /* \"#utility.yul\":6399:6466   */\n      tag_313\n      jump\t// in\n    tag_354:\n        /* \"#utility.yul\":6392:6466   */\n      swap2\n      pop\n        /* \"#utility.yul\":6475:6568   */\n      tag_355\n        /* \"#utility.yul\":6564:6567   */\n      dup3\n        /* \"#utility.yul\":6475:6568   */\n      tag_356\n      jump\t// in\n    tag_355:\n        /* \"#utility.yul\":6593:6595   */\n      0x20\n        /* \"#utility.yul\":6588:6591   */\n      dup3\n        /* \"#utility.yul\":6584:6596   */\n      add\n        /* \"#utility.yul\":6577:6596   */\n      swap1\n      pop\n        /* \"#utility.yul\":6236:6602   */\n      swap2\n      swap1\n      pop\n      jump\t// out\n        /* \"#utility.yul\":6608:6974   */\n    tag_357:\n        /* \"#utility.yul\":6750:6753   */\n      0x00\n        /* \"#utility.yul\":6771:6838   */\n      tag_359\n        /* \"#utility.yul\":6835:6837   */\n      0x2a\n        /* \"#utility.yul\":6830:6833   */\n      dup4\n        /* \"#utility.yul\":6771:6838   */\n      tag_313\n      jump\t// in\n    tag_359:\n        /* \"#utility.yul\":6764:6838   */\n      swap2\n      pop\n        /* \"#utility.yul\":6847:6940   */\n      tag_360\n        /* \"#utility.yul\":6936:6939   */\n      dup3\n        /* \"#utility.yul\":6847:6940   */\n      tag_361\n      jump\t// in\n    tag_360:\n        /* \"#utility.yul\":6965:6967   */\n      0x40\n        /* \"#utility.yul\":6960:6963   */\n      dup3\n        /* \"#utility.yul\":6956:6968   */\n      add\n        /* \"#utility.yul\":6949:6968   */\n      swap1\n      pop\n        /* \"#utility.yul\":6608:6974   */\n      swap2\n      swap1\n      pop\n      jump\t// out\n        /* \"#utility.yul\":6980:7346   */\n    tag_362:\n        /* \"#utility.yul\":7122:7125   */\n      0x00\n        /* \"#utility.yul\":7143:7210   */\n      tag_364\n        /* \"#utility.yul\":7207:7209   */\n      0x36\n        /* \"#utility.yul\":7202:7205   */\n      dup4\n        /* \"#utility.yul\":7143:7210   */\n      tag_313\n      jump\t// in\n    tag_364:\n        /* \"#utility.yul\":7136:7210   */\n      swap2\n      pop\n        /* \"#utility.yul\":7219:7312   */\n      tag_365\n        /* \"#utility.yul\":7308:7311   */\n      dup3\n        /* \"#utility.yul\":7219:7312   */\n      tag_366\n      jump\t// in\n    tag_365:\n        /* \"#utility.yul\":7337:7339   */\n      0x40\n        /* \"#utility.yul\":7332:7335   */\n      dup3\n        /* \"#utility.yul\":7328:7340   */\n      add\n        /* \"#utility.yul\":7321:7340   */\n      swap1\n      pop\n        /* \"#utility.yul\":6980:7346   */\n      swap2\n      swap1\n      pop\n      jump\t// out\n        /* \"#utility.yul\":7352:7470   */\n    tag_367:\n        /* \"#utility.yul\":7439:7463   */\n      tag_369\n        /* \"#utility.yul\":7457:7462   */\n      dup2\n        /* \"#utility.yul\":7439:7463   */\n      tag_370\n      jump\t// in\n    tag_369:\n        /* \"#utility.yul\":7434:7437   */\n      dup3\n        /* \"#utility.yul\":7427:7464   */\n      mstore\n        /* \"#utility.yul\":7352:7470   */\n      pop\n      pop\n      jump\t// out\n        /* \"#utility.yul\":7476:7747   */\n    tag_233:\n        /* \"#utility.yul\":7606:7609   */\n      0x00\n        /* \"#utility.yul\":7628:7721   */\n      tag_372\n        /* \"#utility.yul\":7717:7720   */\n      dup3\n        /* \"#utility.yul\":7708:7714   */\n      dup5\n        /* \"#utility.yul\":7628:7721   */\n      tag_296\n      jump\t// in\n    tag_372:\n        /* \"#utility.yul\":7621:7721   */\n      swap2\n      pop\n        /* \"#utility.yul\":7738:7741   */\n      dup2\n        /* \"#utility.yul\":7731:7741   */\n      swap1\n      pop\n        /* \"#utility.yul\":7476:7747   */\n      swap3\n      swap2\n      pop\n      pop\n      jump\t// out\n        /* \"#utility.yul\":7753:7975   */\n    tag_60:\n        /* \"#utility.yul\":7846:7850   */\n      0x00\n        /* \"#utility.yul\":7884:7886   */\n      0x20\n        /* \"#utility.yul\":7873:7882   */\n      dup3\n        /* \"#utility.yul\":7869:7887   */\n      add\n        /* \"#utility.yul\":7861:7887   */\n      swap1\n      pop\n        /* \"#utility.yul\":7897:7968   */\n      tag_374\n        /* \"#utility.yul\":7965:7966   */\n      0x00\n        /* \"#utility.yul\":7954:7963   */\n      dup4\n        /* \"#utility.yul\":7950:7967   */\n      add\n        /* \"#utility.yul\":7941:7947   */\n      dup5\n        /* \"#utility.yul\":7897:7968   */\n      tag_288\n      jump\t// in\n    tag_374:\n        /* \"#utility.yul\":7753:7975   */\n      swap3\n      swap2\n      pop\n      pop\n      jump\t// out\n        /* \"#utility.yul\":7981:8313   */\n    tag_201:\n        /* \"#utility.yul\":8102:8106   */\n      0x00\n        /* \"#utility.yul\":8140:8142   */\n      0x40\n        /* \"#utility.yul\":8129:8138   */\n      dup3\n        /* \"#utility.yul\":8125:8143   */\n      add\n        /* \"#utility.yul\":8117:8143   */\n      swap1\n      pop\n        /* \"#utility.yul\":8153:8224   */\n      tag_376\n        /* \"#utility.yul\":8221:8222   */\n      0x00\n        /* \"#utility.yul\":8210:8219   */\n      dup4\n        /* \"#utility.yul\":8206:8223   */\n      add\n        /* \"#utility.yul\":8197:8203   */\n      dup6\n        /* \"#utility.yul\":8153:8224   */\n      tag_288\n      jump\t// in\n    tag_376:\n        /* \"#utility.yul\":8234:8306   */\n      tag_377\n        /* \"#utility.yul\":8302:8304   */\n      0x20\n        /* \"#utility.yul\":8291:8300   */\n      dup4\n        /* \"#utility.yul\":8287:8305   */\n      add\n        /* \"#utility.yul\":8278:8284   */\n      dup5\n        /* \"#utility.yul\":8234:8306   */\n      tag_288\n      jump\t// in\n    tag_377:\n        /* \"#utility.yul\":7981:8313   */\n      swap4\n      swap3\n      pop\n      pop\n      pop\n      jump\t// out\n        /* \"#utility.yul\":8319:8761   */\n    tag_197:\n        /* \"#utility.yul\":8468:8472   */\n      0x00\n        /* \"#utility.yul\":8506:8508   */\n      0x60\n        /* \"#utility.yul\":8495:8504   */\n      dup3\n        /* \"#utility.yul\":8491:8509   */\n      add\n        /* \"#utility.yul\":8483:8509   */\n      swap1\n      pop\n        /* \"#utility.yul\":8519:8590   */\n      tag_379\n        /* \"#utility.yul\":8587:8588   */\n      0x00\n        /* \"#utility.yul\":8576:8585   */\n      dup4\n        /* \"#utility.yul\":8572:8589   */\n      add\n        /* \"#utility.yul\":8563:8569   */\n      dup7\n        /* \"#utility.yul\":8519:8590   */\n      tag_288\n      jump\t// in\n    tag_379:\n        /* \"#utility.yul\":8600:8672   */\n      tag_380\n        /* \"#utility.yul\":8668:8670   */\n      0x20\n        /* \"#utility.yul\":8657:8666   */\n      dup4\n        /* \"#utility.yul\":8653:8671   */\n      add\n        /* \"#utility.yul\":8644:8650   */\n      dup6\n        /* \"#utility.yul\":8600:8672   */\n      tag_288\n      jump\t// in\n    tag_380:\n        /* \"#utility.yul\":8682:8754   */\n      tag_381\n        /* \"#utility.yul\":8750:8752   */\n      0x40\n        /* \"#utility.yul\":8739:8748   */\n      dup4\n        /* \"#utility.yul\":8735:8753   */\n      add\n        /* \"#utility.yul\":8726:8732   */\n      dup5\n        /* \"#utility.yul\":8682:8754   */\n      tag_367\n      jump\t// in\n    tag_381:\n        /* \"#utility.yul\":8319:8761   */\n      swap5\n      swap4\n      pop\n      pop\n      pop\n      pop\n      jump\t// out\n        /* \"#utility.yul\":8767:9099   */\n    tag_191:\n        /* \"#utility.yul\":8888:8892   */\n      0x00\n        /* \"#utility.yul\":8926:8928   */\n      0x40\n        /* \"#utility.yul\":8915:8924   */\n      dup3\n        /* \"#utility.yul\":8911:8929   */\n      add\n        /* \"#utility.yul\":8903:8929   */\n      swap1\n      pop\n        /* \"#utility.yul\":8939:9010   */\n      tag_383\n        /* \"#utility.yul\":9007:9008   */\n      0x00\n        /* \"#utility.yul\":8996:9005   */\n      dup4\n        /* \"#utility.yul\":8992:9009   */\n      add\n        /* \"#utility.yul\":8983:8989   */\n      dup6\n        /* \"#utility.yul\":8939:9010   */\n      tag_288\n      jump\t// in\n    tag_383:\n        /* \"#utility.yul\":9020:9092   */\n      tag_384\n        /* \"#utility.yul\":9088:9090   */\n      0x20\n        /* \"#utility.yul\":9077:9086   */\n      dup4\n        /* \"#utility.yul\":9073:9091   */\n      add\n        /* \"#utility.yul\":9064:9070   */\n      dup5\n        /* \"#utility.yul\":9020:9092   */\n      tag_367\n      jump\t// in\n    tag_384:\n        /* \"#utility.yul\":8767:9099   */\n      swap4\n      swap3\n      pop\n      pop\n      pop\n      jump\t// out\n        /* \"#utility.yul\":9105:9315   */\n    tag_78:\n        /* \"#utility.yul\":9192:9196   */\n      0x00\n        /* \"#utility.yul\":9230:9232   */\n      0x20\n        /* \"#utility.yul\":9219:9228   */\n      dup3\n        /* \"#utility.yul\":9215:9233   */\n      add\n        /* \"#utility.yul\":9207:9233   */\n      swap1\n      pop\n        /* \"#utility.yul\":9243:9308   */\n      tag_386\n        /* \"#utility.yul\":9305:9306   */\n      0x00\n        /* \"#utility.yul\":9294:9303   */\n      dup4\n        /* \"#utility.yul\":9290:9307   */\n      add\n        /* \"#utility.yul\":9281:9287   */\n      dup5\n        /* \"#utility.yul\":9243:9308   */\n      tag_292\n      jump\t// in\n    tag_386:\n        /* \"#utility.yul\":9105:9315   */\n      swap3\n      swap2\n      pop\n      pop\n      jump\t// out\n        /* \"#utility.yul\":9321:9571   */\n    tag_39:\n        /* \"#utility.yul\":9428:9432   */\n      0x00\n        /* \"#utility.yul\":9466:9468   */\n      0x20\n        /* \"#utility.yul\":9455:9464   */\n      dup3\n        /* \"#utility.yul\":9451:9469   */\n      add\n        /* \"#utility.yul\":9443:9469   */\n      swap1\n      pop\n        /* \"#utility.yul\":9479:9564   */\n      tag_388\n        /* \"#utility.yul\":9561:9562   */\n      0x00\n        /* \"#utility.yul\":9550:9559   */\n      dup4\n        /* \"#utility.yul\":9546:9563   */\n      add\n        /* \"#utility.yul\":9537:9543   */\n      dup5\n        /* \"#utility.yul\":9479:9564   */\n      tag_304\n      jump\t// in\n    tag_388:\n        /* \"#utility.yul\":9321:9571   */\n      swap3\n      swap2\n      pop\n      pop\n      jump\t// out\n        /* \"#utility.yul\":9577:9890   */\n    tag_246:\n        /* \"#utility.yul\":9690:9694   */\n      0x00\n        /* \"#utility.yul\":9728:9730   */\n      0x20\n        /* \"#utility.yul\":9717:9726   */\n      dup3\n        /* \"#utility.yul\":9713:9731   */\n      add\n        /* \"#utility.yul\":9705:9731   */\n      swap1\n      pop\n        /* \"#utility.yul\":9777:9786   */\n      dup2\n        /* \"#utility.yul\":9771:9775   */\n      dup2\n        /* \"#utility.yul\":9767:9787   */\n      sub\n        /* \"#utility.yul\":9763:9764   */\n      0x00\n        /* \"#utility.yul\":9752:9761   */\n      dup4\n        /* \"#utility.yul\":9748:9765   */\n      add\n        /* \"#utility.yul\":9741:9788   */\n      mstore\n        /* \"#utility.yul\":9805:9883   */\n      tag_390\n        /* \"#utility.yul\":9878:9882   */\n      dup2\n        /* \"#utility.yul\":9869:9875   */\n      dup5\n        /* \"#utility.yul\":9805:9883   */\n      tag_308\n      jump\t// in\n    tag_390:\n        /* \"#utility.yul\":9797:9883   */\n      swap1\n      pop\n        /* \"#utility.yul\":9577:9890   */\n      swap3\n      swap2\n      pop\n      pop\n      jump\t// out\n        /* \"#utility.yul\":9896:10315   */\n    tag_185:\n        /* \"#utility.yul\":10062:10066   */\n      0x00\n        /* \"#utility.yul\":10100:10102   */\n      0x20\n        /* \"#utility.yul\":10089:10098   */\n      dup3\n        /* \"#utility.yul\":10085:10103   */\n      add\n        /* \"#utility.yul\":10077:10103   */\n      swap1\n      pop\n        /* \"#utility.yul\":10149:10158   */\n      dup2\n        /* \"#utility.yul\":10143:10147   */\n      dup2\n        /* \"#utility.yul\":10139:10159   */\n      sub\n        /* \"#utility.yul\":10135:10136   */\n      0x00\n        /* \"#utility.yul\":10124:10133   */\n      dup4\n        /* \"#utility.yul\":10120:10137   */\n      add\n        /* \"#utility.yul\":10113:10160   */\n      mstore\n        /* \"#utility.yul\":10177:10308   */\n      tag_392\n        /* \"#utility.yul\":10303:10307   */\n      dup2\n        /* \"#utility.yul\":10177:10308   */\n      tag_317\n      jump\t// in\n    tag_392:\n        /* \"#utility.yul\":10169:10308   */\n      swap1\n      pop\n        /* \"#utility.yul\":9896:10315   */\n      swap2\n      swap1\n      pop\n      jump\t// out\n        /* \"#utility.yul\":10321:10740   */\n    tag_147:\n        /* \"#utility.yul\":10487:10491   */\n      0x00\n        /* \"#utility.yul\":10525:10527   */\n      0x20\n        /* \"#utility.yul\":10514:10523   */\n      dup3\n        /* \"#utility.yul\":10510:10528   */\n      add\n        /* \"#utility.yul\":10502:10528   */\n      swap1\n      pop\n        /* \"#utility.yul\":10574:10583   */\n      dup2\n        /* \"#utility.yul\":10568:10572   */\n      dup2\n        /* \"#utility.yul\":10564:10584   */\n      sub\n        /* \"#utility.yul\":10560:10561   */\n      0x00\n        /* \"#utility.yul\":10549:10558   */\n      dup4\n        /* \"#utility.yul\":10545:10562   */\n      add\n        /* \"#utility.yul\":10538:10585   */\n      mstore\n        /* \"#utility.yul\":10602:10733   */\n      tag_394\n        /* \"#utility.yul\":10728:10732   */\n      dup2\n        /* \"#utility.yul\":10602:10733   */\n      tag_322\n      jump\t// in\n    tag_394:\n        /* \"#utility.yul\":10594:10733   */\n      swap1\n      pop\n        /* \"#utility.yul\":10321:10740   */\n      swap2\n      swap1\n      pop\n      jump\t// out\n        /* \"#utility.yul\":10746:11165   */\n    tag_226:\n        /* \"#utility.yul\":10912:10916   */\n      0x00\n        /* \"#utility.yul\":10950:10952   */\n      0x20\n        /* \"#utility.yul\":10939:10948   */\n      dup3\n        /* \"#utility.yul\":10935:10953   */\n      add\n        /* \"#utility.yul\":10927:10953   */\n      swap1\n      pop\n        /* \"#utility.yul\":10999:11008   */\n      dup2\n        /* \"#utility.yul\":10993:10997   */\n      dup2\n        /* \"#utility.yul\":10989:11009   */\n      sub\n        /* \"#utility.yul\":10985:10986   */\n      0x00\n        /* \"#utility.yul\":10974:10983   */\n      dup4\n        /* \"#utility.yul\":10970:10987   */\n      add\n        /* \"#utility.yul\":10963:11010   */\n      mstore\n        /* \"#utility.yul\":11027:11158   */\n      tag_396\n        /* \"#utility.yul\":11153:11157   */\n      dup2\n        /* \"#utility.yul\":11027:11158   */\n      tag_327\n      jump\t// in\n    tag_396:\n        /* \"#utility.yul\":11019:11158   */\n      swap1\n      pop\n        /* \"#utility.yul\":10746:11165   */\n      swap2\n      swap1\n      pop\n      jump\t// out\n        /* \"#utility.yul\":11171:11590   */\n    tag_100:\n        /* \"#utility.yul\":11337:11341   */\n      0x00\n        /* \"#utility.yul\":11375:11377   */\n      0x20\n        /* \"#utility.yul\":11364:11373   */\n      dup3\n        /* \"#utility.yul\":11360:11378   */\n      add\n        /* \"#utility.yul\":11352:11378   */\n      swap1\n      pop\n        /* \"#utility.yul\":11424:11433   */\n      dup2\n        /* \"#utility.yul\":11418:11422   */\n      dup2\n        /* \"#utility.yul\":11414:11434   */\n      sub\n        /* \"#utility.yul\":11410:11411   */\n      0x00\n        /* \"#utility.yul\":11399:11408   */\n      dup4\n        /* \"#utility.yul\":11395:11412   */\n      add\n        /* \"#utility.yul\":11388:11435   */\n      mstore\n        /* \"#utility.yul\":11452:11583   */\n      tag_398\n        /* \"#utility.yul\":11578:11582   */\n      dup2\n        /* \"#utility.yul\":11452:11583   */\n      tag_332\n      jump\t// in\n    tag_398:\n        /* \"#utility.yul\":11444:11583   */\n      swap1\n      pop\n        /* \"#utility.yul\":11171:11590   */\n      swap2\n      swap1\n      pop\n      jump\t// out\n        /* \"#utility.yul\":11596:12015   */\n    tag_144:\n        /* \"#utility.yul\":11762:11766   */\n      0x00\n        /* \"#utility.yul\":11800:11802   */\n      0x20\n        /* \"#utility.yul\":11789:11798   */\n      dup3\n        /* \"#utility.yul\":11785:11803   */\n      add\n        /* \"#utility.yul\":11777:11803   */\n      swap1\n      pop\n        /* \"#utility.yul\":11849:11858   */\n      dup2\n        /* \"#utility.yul\":11843:11847   */\n      dup2\n        /* \"#utility.yul\":11839:11859   */\n      sub\n        /* \"#utility.yul\":11835:11836   */\n      0x00\n        /* \"#utility.yul\":11824:11833   */\n      dup4\n        /* \"#utility.yul\":11820:11837   */\n      add\n        /* \"#utility.yul\":11813:11860   */\n      mstore\n        /* \"#utility.yul\":11877:12008   */\n      tag_400\n        /* \"#utility.yul\":12003:12007   */\n      dup2\n        /* \"#utility.yul\":11877:12008   */\n      tag_337\n      jump\t// in\n    tag_400:\n        /* \"#utility.yul\":11869:12008   */\n      swap1\n      pop\n        /* \"#utility.yul\":11596:12015   */\n      swap2\n      swap1\n      pop\n      jump\t// out\n        /* \"#utility.yul\":12021:12440   */\n    tag_110:\n        /* \"#utility.yul\":12187:12191   */\n      0x00\n        /* \"#utility.yul\":12225:12227   */\n      0x20\n        /* \"#utility.yul\":12214:12223   */\n      dup3\n        /* \"#utility.yul\":12210:12228   */\n      add\n        /* \"#utility.yul\":12202:12228   */\n      swap1\n      pop\n        /* \"#utility.yul\":12274:12283   */\n      dup2\n        /* \"#utility.yul\":12268:12272   */\n      dup2\n        /* \"#utility.yul\":12264:12284   */\n      sub\n        /* \"#utility.yul\":12260:12261   */\n      0x00\n        /* \"#utility.yul\":12249:12258   */\n      dup4\n        /* \"#utility.yul\":12245:12262   */\n      add\n        /* \"#utility.yul\":12238:12285   */\n      mstore\n        /* \"#utility.yul\":12302:12433   */\n      tag_402\n        /* \"#utility.yul\":12428:12432   */\n      dup2\n        /* \"#utility.yul\":12302:12433   */\n      tag_342\n      jump\t// in\n    tag_402:\n        /* \"#utility.yul\":12294:12433   */\n      swap1\n      pop\n        /* \"#utility.yul\":12021:12440   */\n      swap2\n      swap1\n      pop\n      jump\t// out\n        /* \"#utility.yul\":12446:12865   */\n    tag_231:\n        /* \"#utility.yul\":12612:12616   */\n      0x00\n        /* \"#utility.yul\":12650:12652   */\n      0x20\n        /* \"#utility.yul\":12639:12648   */\n      dup3\n        /* \"#utility.yul\":12635:12653   */\n      add\n        /* \"#utility.yul\":12627:12653   */\n      swap1\n      pop\n        /* \"#utility.yul\":12699:12708   */\n      dup2\n        /* \"#utility.yul\":12693:12697   */\n      dup2\n        /* \"#utility.yul\":12689:12709   */\n      sub\n        /* \"#utility.yul\":12685:12686   */\n      0x00\n        /* \"#utility.yul\":12674:12683   */\n      dup4\n        /* \"#utility.yul\":12670:12687   */\n      add\n        /* \"#utility.yul\":12663:12710   */\n      mstore\n        /* \"#utility.yul\":12727:12858   */\n      tag_404\n        /* \"#utility.yul\":12853:12857   */\n      dup2\n        /* \"#utility.yul\":12727:12858   */\n      tag_347\n      jump\t// in\n    tag_404:\n        /* \"#utility.yul\":12719:12858   */\n      swap1\n      pop\n        /* \"#utility.yul\":12446:12865   */\n      swap2\n      swap1\n      pop\n      jump\t// out\n        /* \"#utility.yul\":12871:13290   */\n    tag_164:\n        /* \"#utility.yul\":13037:13041   */\n      0x00\n        /* \"#utility.yul\":13075:13077   */\n      0x20\n        /* \"#utility.yul\":13064:13073   */\n      dup3\n        /* \"#utility.yul\":13060:13078   */\n      add\n        /* \"#utility.yul\":13052:13078   */\n      swap1\n      pop\n        /* \"#utility.yul\":13124:13133   */\n      dup2\n        /* \"#utility.yul\":13118:13122   */\n      dup2\n        /* \"#utility.yul\":13114:13134   */\n      sub\n        /* \"#utility.yul\":13110:13111   */\n      0x00\n        /* \"#utility.yul\":13099:13108   */\n      dup4\n        /* \"#utility.yul\":13095:13112   */\n      add\n        /* \"#utility.yul\":13088:13135   */\n      mstore\n        /* \"#utility.yul\":13152:13283   */\n      tag_406\n        /* \"#utility.yul\":13278:13282   */\n      dup2\n        /* \"#utility.yul\":13152:13283   */\n      tag_352\n      jump\t// in\n    tag_406:\n        /* \"#utility.yul\":13144:13283   */\n      swap1\n      pop\n        /* \"#utility.yul\":12871:13290   */\n      swap2\n      swap1\n      pop\n      jump\t// out\n        /* \"#utility.yul\":13296:13715   */\n    tag_219:\n        /* \"#utility.yul\":13462:13466   */\n      0x00\n        /* \"#utility.yul\":13500:13502   */\n      0x20\n        /* \"#utility.yul\":13489:13498   */\n      dup3\n        /* \"#utility.yul\":13485:13503   */\n      add\n        /* \"#utility.yul\":13477:13503   */\n      swap1\n      pop\n        /* \"#utility.yul\":13549:13558   */\n      dup2\n        /* \"#utility.yul\":13543:13547   */\n      dup2\n        /* \"#utility.yul\":13539:13559   */\n      sub\n        /* \"#utility.yul\":13535:13536   */\n      0x00\n        /* \"#utility.yul\":13524:13533   */\n      dup4\n        /* \"#utility.yul\":13520:13537   */\n      add\n        /* \"#utility.yul\":13513:13560   */\n      mstore\n        /* \"#utility.yul\":13577:13708   */\n      tag_408\n        /* \"#utility.yul\":13703:13707   */\n      dup2\n        /* \"#utility.yul\":13577:13708   */\n      tag_357\n      jump\t// in\n    tag_408:\n        /* \"#utility.yul\":13569:13708   */\n      swap1\n      pop\n        /* \"#utility.yul\":13296:13715   */\n      swap2\n      swap1\n      pop\n      jump\t// out\n        /* \"#utility.yul\":13721:14140   */\n    tag_208:\n        /* \"#utility.yul\":13887:13891   */\n      0x00\n        /* \"#utility.yul\":13925:13927   */\n      0x20\n        /* \"#utility.yul\":13914:13923   */\n      dup3\n        /* \"#utility.yul\":13910:13928   */\n      add\n        /* \"#utility.yul\":13902:13928   */\n      swap1\n      pop\n        /* \"#utility.yul\":13974:13983   */\n      dup2\n        /* \"#utility.yul\":13968:13972   */\n      dup2\n        /* \"#utility.yul\":13964:13984   */\n      sub\n        /* \"#utility.yul\":13960:13961   */\n      0x00\n        /* \"#utility.yul\":13949:13958   */\n      dup4\n        /* \"#utility.yul\":13945:13962   */\n      add\n        /* \"#utility.yul\":13938:13985   */\n      mstore\n        /* \"#utility.yul\":14002:14133   */\n      tag_410\n        /* \"#utility.yul\":14128:14132   */\n      dup2\n        /* \"#utility.yul\":14002:14133   */\n      tag_362\n      jump\t// in\n    tag_410:\n        /* \"#utility.yul\":13994:14133   */\n      swap1\n      pop\n        /* \"#utility.yul\":13721:14140   */\n      swap2\n      swap1\n      pop\n      jump\t// out\n        /* \"#utility.yul\":14146:14368   */\n    tag_26:\n        /* \"#utility.yul\":14239:14243   */\n      0x00\n        /* \"#utility.yul\":14277:14279   */\n      0x20\n        /* \"#utility.yul\":14266:14275   */\n      dup3\n        /* \"#utility.yul\":14262:14280   */\n      add\n        /* \"#utility.yul\":14254:14280   */\n      swap1\n      pop\n        /* \"#utility.yul\":14290:14361   */\n      tag_412\n        /* \"#utility.yul\":14358:14359   */\n      0x00\n        /* \"#utility.yul\":14347:14356   */\n      dup4\n        /* \"#utility.yul\":14343:14360   */\n      add\n        /* \"#utility.yul\":14334:14340   */\n      dup5\n        /* \"#utility.yul\":14290:14361   */\n      tag_367\n      jump\t// in\n    tag_412:\n        /* \"#utility.yul\":14146:14368   */\n      swap3\n      swap2\n      pop\n      pop\n      jump\t// out\n        /* \"#utility.yul\":14455:14553   */\n    tag_299:\n        /* \"#utility.yul\":14506:14512   */\n      0x00\n        /* \"#utility.yul\":14540:14545   */\n      dup2\n        /* \"#utility.yul\":14534:14546   */\n      mload\n        /* \"#utility.yul\":14524:14546   */\n      swap1\n      pop\n        /* \"#utility.yul\":14455:14553   */\n      swap2\n      swap1\n      pop\n      jump\t// out\n        /* \"#utility.yul\":14559:14658   */\n    tag_311:\n        /* \"#utility.yul\":14611:14617   */\n      0x00\n        /* \"#utility.yul\":14645:14650   */\n      dup2\n        /* \"#utility.yul\":14639:14651   */\n      mload\n        /* \"#utility.yul\":14629:14651   */\n      swap1\n      pop\n        /* \"#utility.yul\":14559:14658   */\n      swap2\n      swap1\n      pop\n      jump\t// out\n        /* \"#utility.yul\":14664:14811   */\n    tag_301:\n        /* \"#utility.yul\":14765:14776   */\n      0x00\n        /* \"#utility.yul\":14802:14805   */\n      dup2\n        /* \"#utility.yul\":14787:14805   */\n      swap1\n      pop\n        /* \"#utility.yul\":14664:14811   */\n      swap3\n      swap2\n      pop\n      pop\n      jump\t// out\n        /* \"#utility.yul\":14817:14986   */\n    tag_313:\n        /* \"#utility.yul\":14901:14912   */\n      0x00\n        /* \"#utility.yul\":14935:14941   */\n      dup3\n        /* \"#utility.yul\":14930:14933   */\n      dup3\n        /* \"#utility.yul\":14923:14942   */\n      mstore\n        /* \"#utility.yul\":14975:14979   */\n      0x20\n        /* \"#utility.yul\":14970:14973   */\n      dup3\n        /* \"#utility.yul\":14966:14980   */\n      add\n        /* \"#utility.yul\":14951:14980   */\n      swap1\n      pop\n        /* \"#utility.yul\":14817:14986   */\n      swap3\n      swap2\n      pop\n      pop\n      jump\t// out\n        /* \"#utility.yul\":14992:15088   */\n    tag_291:\n        /* \"#utility.yul\":15029:15036   */\n      0x00\n        /* \"#utility.yul\":15058:15082   */\n      tag_420\n        /* \"#utility.yul\":15076:15081   */\n      dup3\n        /* \"#utility.yul\":15058:15082   */\n      tag_421\n      jump\t// in\n    tag_420:\n        /* \"#utility.yul\":15047:15082   */\n      swap1\n      pop\n        /* \"#utility.yul\":14992:15088   */\n      swap2\n      swap1\n      pop\n      jump\t// out\n        /* \"#utility.yul\":15094:15198   */\n    tag_422:\n        /* \"#utility.yul\":15139:15146   */\n      0x00\n        /* \"#utility.yul\":15168:15192   */\n      tag_424\n        /* \"#utility.yul\":15186:15191   */\n      dup3\n        /* \"#utility.yul\":15168:15192   */\n      tag_421\n      jump\t// in\n    tag_424:\n        /* \"#utility.yul\":15157:15192   */\n      swap1\n      pop\n        /* \"#utility.yul\":15094:15198   */\n      swap2\n      swap1\n      pop\n      jump\t// out\n        /* \"#utility.yul\":15204:15294   */\n    tag_295:\n        /* \"#utility.yul\":15238:15245   */\n      0x00\n        /* \"#utility.yul\":15281:15286   */\n      dup2\n        /* \"#utility.yul\":15274:15287   */\n      iszero\n        /* \"#utility.yul\":15267:15288   */\n      iszero\n        /* \"#utility.yul\":15256:15288   */\n      swap1\n      pop\n        /* \"#utility.yul\":15204:15294   */\n      swap2\n      swap1\n      pop\n      jump\t// out\n        /* \"#utility.yul\":15300:15426   */\n    tag_421:\n        /* \"#utility.yul\":15337:15344   */\n      0x00\n        /* \"#utility.yul\":15377:15419   */\n      0xffffffffffffffffffffffffffffffffffffffff\n        /* \"#utility.yul\":15370:15375   */\n      dup3\n        /* \"#utility.yul\":15366:15420   */\n      and\n        /* \"#utility.yul\":15355:15420   */\n      swap1\n      pop\n        /* \"#utility.yul\":15300:15426   */\n      swap2\n      swap1\n      pop\n      jump\t// out\n        /* \"#utility.yul\":15432:15509   */\n    tag_370:\n        /* \"#utility.yul\":15469:15476   */\n      0x00\n        /* \"#utility.yul\":15498:15503   */\n      dup2\n        /* \"#utility.yul\":15487:15503   */\n      swap1\n      pop\n        /* \"#utility.yul\":15432:15509   */\n      swap2\n      swap1\n      pop\n      jump\t// out\n        /* \"#utility.yul\":15515:15655   */\n    tag_307:\n        /* \"#utility.yul\":15579:15588   */\n      0x00\n        /* \"#utility.yul\":15612:15649   */\n      tag_429\n        /* \"#utility.yul\":15643:15648   */\n      dup3\n        /* \"#utility.yul\":15612:15649   */\n      tag_430\n      jump\t// in\n    tag_429:\n        /* \"#utility.yul\":15599:15649   */\n      swap1\n      pop\n        /* \"#utility.yul\":15515:15655   */\n      swap2\n      swap1\n      pop\n      jump\t// out\n        /* \"#utility.yul\":15661:15787   */\n    tag_430:\n        /* \"#utility.yul\":15711:15720   */\n      0x00\n        /* \"#utility.yul\":15744:15781   */\n      tag_432\n        /* \"#utility.yul\":15775:15780   */\n      dup3\n        /* \"#utility.yul\":15744:15781   */\n      tag_433\n      jump\t// in\n    tag_432:\n        /* \"#utility.yul\":15731:15781   */\n      swap1\n      pop\n        /* \"#utility.yul\":15661:15787   */\n      swap2\n      swap1\n      pop\n      jump\t// out\n        /* \"#utility.yul\":15793:15906   */\n    tag_433:\n        /* \"#utility.yul\":15843:15852   */\n      0x00\n        /* \"#utility.yul\":15876:15900   */\n      tag_435\n        /* \"#utility.yul\":15894:15899   */\n      dup3\n        /* \"#utility.yul\":15876:15900   */\n      tag_421\n      jump\t// in\n    tag_435:\n        /* \"#utility.yul\":15863:15900   */\n      swap1\n      pop\n        /* \"#utility.yul\":15793:15906   */\n      swap2\n      swap1\n      pop\n      jump\t// out\n        /* \"#utility.yul\":15912:16219   */\n    tag_303:\n        /* \"#utility.yul\":15980:15981   */\n      0x00\n        /* \"#utility.yul\":15990:16103   */\n    tag_437:\n        /* \"#utility.yul\":16004:16010   */\n      dup4\n        /* \"#utility.yul\":16001:16002   */\n      dup2\n        /* \"#utility.yul\":15998:16011   */\n      lt\n        /* \"#utility.yul\":15990:16103   */\n      iszero\n      tag_439\n      jumpi\n        /* \"#utility.yul\":16089:16090   */\n      dup1\n        /* \"#utility.yul\":16084:16087   */\n      dup3\n        /* \"#utility.yul\":16080:16091   */\n      add\n        /* \"#utility.yul\":16074:16092   */\n      mload\n        /* \"#utility.yul\":16070:16071   */\n      dup2\n        /* \"#utility.yul\":16065:16068   */\n      dup5\n        /* \"#utility.yul\":16061:16072   */\n      add\n        /* \"#utility.yul\":16054:16093   */\n      mstore\n        /* \"#utility.yul\":16026:16028   */\n      0x20\n        /* \"#utility.yul\":16023:16024   */\n      dup2\n        /* \"#utility.yul\":16019:16029   */\n      add\n        /* \"#utility.yul\":16014:16029   */\n      swap1\n      pop\n        /* \"#utility.yul\":15990:16103   */\n      jump(tag_437)\n    tag_439:\n        /* \"#utility.yul\":16121:16127   */\n      dup4\n        /* \"#utility.yul\":16118:16119   */\n      dup2\n        /* \"#utility.yul\":16115:16128   */\n      gt\n        /* \"#utility.yul\":16112:16213   */\n      iszero\n      tag_440\n      jumpi\n        /* \"#utility.yul\":16201:16202   */\n      0x00\n        /* \"#utility.yul\":16192:16198   */\n      dup5\n        /* \"#utility.yul\":16187:16190   */\n      dup5\n        /* \"#utility.yul\":16183:16199   */\n      add\n        /* \"#utility.yul\":16176:16203   */\n      mstore\n        /* \"#utility.yul\":16112:16213   */\n    tag_440:\n        /* \"#utility.yul\":15961:16219   */\n      pop\n        /* \"#utility.yul\":15912:16219   */\n      pop\n      pop\n      pop\n      jump\t// out\n        /* \"#utility.yul\":16348:16465   */\n    tag_270:\n        /* \"#utility.yul\":16457:16458   */\n      0x00\n        /* \"#utility.yul\":16454:16455   */\n      dup1\n        /* \"#utility.yul\":16447:16459   */\n      revert\n        /* \"#utility.yul\":16471:16573   */\n    tag_316:\n        /* \"#utility.yul\":16512:16518   */\n      0x00\n        /* \"#utility.yul\":16563:16565   */\n      0x1f\n        /* \"#utility.yul\":16559:16566   */\n      not\n        /* \"#utility.yul\":16554:16556   */\n      0x1f\n        /* \"#utility.yul\":16547:16552   */\n      dup4\n        /* \"#utility.yul\":16543:16557   */\n      add\n        /* \"#utility.yul\":16539:16567   */\n      and\n        /* \"#utility.yul\":16529:16567   */\n      swap1\n      pop\n        /* \"#utility.yul\":16471:16573   */\n      swap2\n      swap1\n      pop\n      jump\t// out\n        /* \"#utility.yul\":16579:16804   */\n    tag_321:\n        /* \"#utility.yul\":16719:16753   */\n      0x4f776e61626c653a206e6577206f776e657220697320746865207a65726f2061\n        /* \"#utility.yul\":16715:16716   */\n      0x00\n        /* \"#utility.yul\":16707:16713   */\n      dup3\n        /* \"#utility.yul\":16703:16717   */\n      add\n        /* \"#utility.yul\":16696:16754   */\n      mstore\n        /* \"#utility.yul\":16788:16796   */\n      0x6464726573730000000000000000000000000000000000000000000000000000\n        /* \"#utility.yul\":16783:16785   */\n      0x20\n        /* \"#utility.yul\":16775:16781   */\n      dup3\n        /* \"#utility.yul\":16771:16786   */\n      add\n        /* \"#utility.yul\":16764:16797   */\n      mstore\n        /* \"#utility.yul\":16579:16804   */\n      pop\n      jump\t// out\n        /* \"#utility.yul\":16810:16974   */\n    tag_326:\n        /* \"#utility.yul\":16950:16966   */\n      0x53616c652068617320656e646564000000000000000000000000000000000000\n        /* \"#utility.yul\":16946:16947   */\n      0x00\n        /* \"#utility.yul\":16938:16944   */\n      dup3\n        /* \"#utility.yul\":16934:16948   */\n      add\n        /* \"#utility.yul\":16927:16967   */\n      mstore\n        /* \"#utility.yul\":16810:16974   */\n      pop\n      jump\t// out\n        /* \"#utility.yul\":16980:17205   */\n    tag_331:\n        /* \"#utility.yul\":17120:17154   */\n      0x416464726573733a20696e73756666696369656e742062616c616e636520666f\n        /* \"#utility.yul\":17116:17117   */\n      0x00\n        /* \"#utility.yul\":17108:17114   */\n      dup3\n        /* \"#utility.yul\":17104:17118   */\n      add\n        /* \"#utility.yul\":17097:17155   */\n      mstore\n        /* \"#utility.yul\":17189:17197   */\n      0x722063616c6c0000000000000000000000000000000000000000000000000000\n        /* \"#utility.yul\":17184:17186   */\n      0x20\n        /* \"#utility.yul\":17176:17182   */\n      dup3\n        /* \"#utility.yul\":17172:17187   */\n      add\n        /* \"#utility.yul\":17165:17198   */\n      mstore\n        /* \"#utility.yul\":16980:17205   */\n      pop\n      jump\t// out\n        /* \"#utility.yul\":17211:17393   */\n    tag_336:\n        /* \"#utility.yul\":17351:17385   */\n      0x4f776e61626c653a2063616c6c6572206973206e6f7420746865206f776e6572\n        /* \"#utility.yul\":17347:17348   */\n      0x00\n        /* \"#utility.yul\":17339:17345   */\n      dup3\n        /* \"#utility.yul\":17335:17349   */\n      add\n        /* \"#utility.yul\":17328:17386   */\n      mstore\n        /* \"#utility.yul\":17211:17393   */\n      pop\n      jump\t// out\n        /* \"#utility.yul\":17399:17572   */\n    tag_341:\n        /* \"#utility.yul\":17539:17564   */\n      0x53616c65206861736e2774207374617274656420796574000000000000000000\n        /* \"#utility.yul\":17535:17536   */\n      0x00\n        /* \"#utility.yul\":17527:17533   */\n      dup3\n        /* \"#utility.yul\":17523:17537   */\n      add\n        /* \"#utility.yul\":17516:17565   */\n      mstore\n        /* \"#utility.yul\":17399:17572   */\n      pop\n      jump\t// out\n        /* \"#utility.yul\":17578:17745   */\n    tag_346:\n        /* \"#utility.yul\":17718:17737   */\n      0x53616c65206861736e277420656e646564000000000000000000000000000000\n        /* \"#utility.yul\":17714:17715   */\n      0x00\n        /* \"#utility.yul\":17706:17712   */\n      dup3\n        /* \"#utility.yul\":17702:17716   */\n      add\n        /* \"#utility.yul\":17695:17738   */\n      mstore\n        /* \"#utility.yul\":17578:17745   */\n      pop\n      jump\t// out\n        /* \"#utility.yul\":17751:17930   */\n    tag_351:\n        /* \"#utility.yul\":17891:17922   */\n      0x416464726573733a2063616c6c20746f206e6f6e2d636f6e7472616374000000\n        /* \"#utility.yul\":17887:17888   */\n      0x00\n        /* \"#utility.yul\":17879:17885   */\n      dup3\n        /* \"#utility.yul\":17875:17889   */\n      add\n        /* \"#utility.yul\":17868:17923   */\n      mstore\n        /* \"#utility.yul\":17751:17930   */\n      pop\n      jump\t// out\n        /* \"#utility.yul\":17936:18112   */\n    tag_356:\n        /* \"#utility.yul\":18076:18104   */\n      0x4e6f7420656e6f75676820746f6b656e20746f2072657475726e000000000000\n        /* \"#utility.yul\":18072:18073   */\n      0x00\n        /* \"#utility.yul\":18064:18070   */\n      dup3\n        /* \"#utility.yul\":18060:18074   */\n      add\n        /* \"#utility.yul\":18053:18105   */\n      mstore\n        /* \"#utility.yul\":17936:18112   */\n      pop\n      jump\t// out\n        /* \"#utility.yul\":18118:18347   */\n    tag_361:\n        /* \"#utility.yul\":18258:18292   */\n      0x5361666545524332303a204552433230206f7065726174696f6e20646964206e\n        /* \"#utility.yul\":18254:18255   */\n      0x00\n        /* \"#utility.yul\":18246:18252   */\n      dup3\n        /* \"#utility.yul\":18242:18256   */\n      add\n        /* \"#utility.yul\":18235:18293   */\n      mstore\n        /* \"#utility.yul\":18327:18339   */\n      0x6f74207375636365656400000000000000000000000000000000000000000000\n        /* \"#utility.yul\":18322:18324   */\n      0x20\n        /* \"#utility.yul\":18314:18320   */\n      dup3\n        /* \"#utility.yul\":18310:18325   */\n      add\n        /* \"#utility.yul\":18303:18340   */\n      mstore\n        /* \"#utility.yul\":18118:18347   */\n      pop\n      jump\t// out\n        /* \"#utility.yul\":18353:18594   */\n    tag_366:\n        /* \"#utility.yul\":18493:18527   */\n      0x5361666545524332303a20617070726f76652066726f6d206e6f6e2d7a65726f\n        /* \"#utility.yul\":18489:18490   */\n      0x00\n        /* \"#utility.yul\":18481:18487   */\n      dup3\n        /* \"#utility.yul\":18477:18491   */\n      add\n        /* \"#utility.yul\":18470:18528   */\n      mstore\n        /* \"#utility.yul\":18562:18586   */\n      0x20746f206e6f6e2d7a65726f20616c6c6f77616e636500000000000000000000\n        /* \"#utility.yul\":18557:18559   */\n      0x20\n        /* \"#utility.yul\":18549:18555   */\n      dup3\n        /* \"#utility.yul\":18545:18560   */\n      add\n        /* \"#utility.yul\":18538:18587   */\n      mstore\n        /* \"#utility.yul\":18353:18594   */\n      pop\n      jump\t// out\n        /* \"#utility.yul\":18600:18722   */\n    tag_251:\n        /* \"#utility.yul\":18673:18697   */\n      tag_456\n        /* \"#utility.yul\":18691:18696   */\n      dup2\n        /* \"#utility.yul\":18673:18697   */\n      tag_291\n      jump\t// in\n    tag_456:\n        /* \"#utility.yul\":18666:18671   */\n      dup2\n        /* \"#utility.yul\":18663:18698   */\n      eq\n        /* \"#utility.yul\":18653:18716   */\n      tag_457\n      jumpi\n        /* \"#utility.yul\":18712:18713   */\n      0x00\n        /* \"#utility.yul\":18709:18710   */\n      dup1\n        /* \"#utility.yul\":18702:18714   */\n      revert\n        /* \"#utility.yul\":18653:18716   */\n    tag_457:\n        /* \"#utility.yul\":18600:18722   */\n      pop\n      jump\t// out\n        /* \"#utility.yul\":18728:18866   */\n    tag_255:\n        /* \"#utility.yul\":18809:18841   */\n      tag_459\n        /* \"#utility.yul\":18835:18840   */\n      dup2\n        /* \"#utility.yul\":18809:18841   */\n      tag_422\n      jump\t// in\n    tag_459:\n        /* \"#utility.yul\":18802:18807   */\n      dup2\n        /* \"#utility.yul\":18799:18842   */\n      eq\n        /* \"#utility.yul\":18789:18860   */\n      tag_460\n      jumpi\n        /* \"#utility.yul\":18856:18857   */\n      0x00\n        /* \"#utility.yul\":18853:18854   */\n      dup1\n        /* \"#utility.yul\":18846:18858   */\n      revert\n        /* \"#utility.yul\":18789:18860   */\n    tag_460:\n        /* \"#utility.yul\":18728:18866   */\n      pop\n      jump\t// out\n        /* \"#utility.yul\":18872:18988   */\n    tag_259:\n        /* \"#utility.yul\":18942:18963   */\n      tag_462\n        /* \"#utility.yul\":18957:18962   */\n      dup2\n        /* \"#utility.yul\":18942:18963   */\n      tag_295\n      jump\t// in\n    tag_462:\n        /* \"#utility.yul\":18935:18940   */\n      dup2\n        /* \"#utility.yul\":18932:18964   */\n      eq\n        /* \"#utility.yul\":18922:18982   */\n      tag_463\n      jumpi\n        /* \"#utility.yul\":18978:18979   */\n      0x00\n        /* \"#utility.yul\":18975:18976   */\n      dup1\n        /* \"#utility.yul\":18968:18980   */\n      revert\n        /* \"#utility.yul\":18922:18982   */\n    tag_463:\n        /* \"#utility.yul\":18872:18988   */\n      pop\n      jump\t// out\n        /* \"#utility.yul\":18994:19116   */\n    tag_263:\n        /* \"#utility.yul\":19067:19091   */\n      tag_465\n        /* \"#utility.yul\":19085:19090   */\n      dup2\n        /* \"#utility.yul\":19067:19091   */\n      tag_370\n      jump\t// in\n    tag_465:\n        /* \"#utility.yul\":19060:19065   */\n      dup2\n        /* \"#utility.yul\":19057:19092   */\n      eq\n        /* \"#utility.yul\":19047:19110   */\n      tag_466\n      jumpi\n        /* \"#utility.yul\":19106:19107   */\n      0x00\n        /* \"#utility.yul\":19103:19104   */\n      dup1\n        /* \"#utility.yul\":19096:19108   */\n      revert\n        /* \"#utility.yul\":19047:19110   */\n    tag_466:\n        /* \"#utility.yul\":18994:19116   */\n      pop\n      jump\t// out\n\n    auxdata: 0xa26469706673582212206dee4e04c9770a9c0fc47e63810eb148a9beba59cd7ff8fc6bbff3bb82887bcd64736f6c63430008070033\n}\n",
				"bytecode": {
					"linkReferences": {},
					"object": "6080604052734ecdfe30998a0ce87b08dbaf218e4a99c2313978600460006101000a81548173ffffffffffffffffffffffffffffffffffffffff021916908373ffffffffffffffffffffffffffffffffffffffff1602179055503480156200006657600080fd5b5060405162001fc038038062001fc083398181016040528101906200008c9190620001fe565b620000ac620000a06200010460201b60201c565b6200010c60201b60201c565b82600160006101000a81548173ffffffffffffffffffffffffffffffffffffffff021916908373ffffffffffffffffffffffffffffffffffffffff1602179055508160028190555080600381905550505050620002d1565b600033905090565b60008060009054906101000a900473ffffffffffffffffffffffffffffffffffffffff169050816000806101000a81548173ffffffffffffffffffffffffffffffffffffffff021916908373ffffffffffffffffffffffffffffffffffffffff1602179055508173ffffffffffffffffffffffffffffffffffffffff168173ffffffffffffffffffffffffffffffffffffffff167f8be0079c531659141344cd1fd0a4f28419497f9722a3daafe3b4186f6b6457e060405160405180910390a35050565b600081519050620001e1816200029d565b92915050565b600081519050620001f881620002b7565b92915050565b6000806000606084860312156200021a576200021962000298565b5b60006200022a86828701620001d0565b93505060206200023d86828701620001e7565b92505060406200025086828701620001e7565b9150509250925092565b600062000267826200026e565b9050919050565b600073ffffffffffffffffffffffffffffffffffffffff82169050919050565b6000819050919050565b600080fd5b620002a8816200025a565b8114620002b457600080fd5b50565b620002c2816200028e565b8114620002ce57600080fd5b50565b611cdf80620002e16000396000f3fe6080604052600436106100e85760003560e01c80638392fe311161008a578063c10b935811610059578063c10b9358146102c1578063de2d583a146102ec578063efef39a11461031c578063f2fde38b14610345576100e8565b80638392fe3114610217578063893d20e8146102405780638da5cb5b1461026b578063ab0bcc4114610296576100e8565b806361778592116100c6578063617785921461016f578063617fba041461019a5780636f9c6149146101d7578063715018a614610200576100e8565b806324076451146100ed578063295e4edf1461012a57806351cff8d914610153575b600080fd5b3480156100f957600080fd5b50610114600480360381019061010f91906113bd565b61036e565b60405161012191906118f5565b60405180910390f35b34801561013657600080fd5b50610151600480360381019061014c9190611444565b610422565b005b61016d600480360381019061016891906113bd565b6104a8565b005b34801561017b57600080fd5b50610184610767565b6040516101919190611778565b60405180910390f35b3480156101a657600080fd5b506101c160048036038101906101bc91906113bd565b61078d565b6040516101ce91906118f5565b60405180910390f35b3480156101e357600080fd5b506101fe60048036038101906101f99190611444565b6107d9565b005b34801561020c57600080fd5b5061021561085f565b005b34801561022357600080fd5b5061023e60048036038101906102399190611444565b6108e7565b005b34801561024c57600080fd5b506102556109ca565b60405161026291906116b9565b60405180910390f35b34801561027757600080fd5b506102806109d9565b60405161028d91906116b9565b60405180910390f35b3480156102a257600080fd5b506102ab610a02565b6040516102b891906118f5565b60405180910390f35b3480156102cd57600080fd5b506102d6610a0c565b6040516102e391906118f5565b60405180910390f35b610306600480360381019061030191906113ea565b610a16565b604051610313919061175d565b60405180910390f35b34801561032857600080fd5b50610343600480360381019061033e9190611444565b610b6f565b005b34801561035157600080fd5b5061036c600480360381019061036791906113bd565b610ca6565b005b6000600460009054906101000a900473ffffffffffffffffffffffffffffffffffffffff1673ffffffffffffffffffffffffffffffffffffffff166370a08231836040518263ffffffff1660e01b81526004016103cb91906116b9565b60206040518083038186803b1580156103e357600080fd5b505afa1580156103f7573d6000803e3d6000fd5b505050506040513d601f19601f8201168201806040525081019061041b9190611471565b9050919050565b61042a610d9e565b73ffffffffffffffffffffffffffffffffffffffff166104486109d9565b73ffffffffffffffffffffffffffffffffffffffff161461049e576040517f08c379a000000000000000000000000000000000000000000000000000000000815260040161049590611815565b60405180910390fd5b8060028190555050565b6104b0610d9e565b73ffffffffffffffffffffffffffffffffffffffff166104ce6109d9565b73ffffffffffffffffffffffffffffffffffffffff1614610524576040517f08c379a000000000000000000000000000000000000000000000000000000000815260040161051b90611815565b60405180910390fd5b6003544211610568576040517f08c379a000000000000000000000000000000000000000000000000000000000815260040161055f90611855565b60405180910390fd5b61066681600460009054906101000a900473ffffffffffffffffffffffffffffffffffffffff1673ffffffffffffffffffffffffffffffffffffffff166370a082316105b26109d9565b6040518263ffffffff1660e01b81526004016105ce91906116b9565b60206040518083038186803b1580156105e657600080fd5b505afa1580156105fa573d6000803e3d6000fd5b505050506040513d601f19601f8201168201806040525081019061061e9190611471565b600460009054906101000a900473ffffffffffffffffffffffffffffffffffffffff1673ffffffffffffffffffffffffffffffffffffffff16610da69092919063ffffffff16565b61076481600460009054906101000a900473ffffffffffffffffffffffffffffffffffffffff1673ffffffffffffffffffffffffffffffffffffffff166370a082316106b06109d9565b6040518263ffffffff1660e01b81526004016106cc91906116b9565b60206040518083038186803b1580156106e457600080fd5b505afa1580156106f8573d6000803e3d6000fd5b505050506040513d601f19601f8201168201806040525081019061071c9190611471565b600460009054906101000a900473ffffffffffffffffffffffffffffffffffffffff1673ffffffffffffffffffffffffffffffffffffffff16610da69092919063ffffffff16565b50565b600460009054906101000a900473ffffffffffffffffffffffffffffffffffffffff1681565b6000600560008373ffffffffffffffffffffffffffffffffffffffff1673ffffffffffffffffffffffffffffffffffffffff168152602001908152602001600020600001549050919050565b6107e1610d9e565b73ffffffffffffffffffffffffffffffffffffffff166107ff6109d9565b73ffffffffffffffffffffffffffffffffffffffff1614610855576040517f08c379a000000000000000000000000000000000000000000000000000000000815260040161084c90611815565b60405180910390fd5b8060038190555050565b610867610d9e565b73ffffffffffffffffffffffffffffffffffffffff166108856109d9565b73ffffffffffffffffffffffffffffffffffffffff16146108db576040517f08c379a00000000000000000000000000000000000000000000000000000000081526004016108d290611815565b60405180910390fd5b6108e56000610e2c565b565b60025442101561092c576040517f08c379a000000000000000000000000000000000000000000000000000000000815260040161092390611835565b60405180910390fd5b600354421115610971576040517f08c379a0000000000000000000000000000000000000000000000000000000008152600401610968906117d5565b60405180910390fd5b6109c73361097d6109d9565b83600460009054906101000a900473ffffffffffffffffffffffffffffffffffffffff1673ffffffffffffffffffffffffffffffffffffffff16610ef0909392919063ffffffff16565b50565b60006109d46109d9565b905090565b60008060009054906101000a900473ffffffffffffffffffffffffffffffffffffffff16905090565b6000600254905090565b6000600354905090565b6000610a20610d9e565b73ffffffffffffffffffffffffffffffffffffffff16610a3e6109d9565b73ffffffffffffffffffffffffffffffffffffffff1614610a94576040517f08c379a0000000000000000000000000000000000000000000000000000000008152600401610a8b90611815565b60405180910390fd5b6000600560008473ffffffffffffffffffffffffffffffffffffffff1673ffffffffffffffffffffffffffffffffffffffff16815260200190815260200160002060000154905080471015610b1e576040517f08c379a0000000000000000000000000000000000000000000000000000000008152600401610b1590611895565b60405180910390fd5b8273ffffffffffffffffffffffffffffffffffffffff166108fc829081150290604051600060405180830381858888f19350505050158015610b64573d6000803e3d6000fd5b506001915050919050565b600254421015610bb4576040517f08c379a0000000000000000000000000000000000000000000000000000000008152600401610bab90611835565b60405180910390fd5b600354421115610bf9576040517f08c379a0000000000000000000000000000000000000000000000000000000008152600401610bf0906117d5565b60405180910390fd5b610c4d610c046109d9565b82600460009054906101000a900473ffffffffffffffffffffffffffffffffffffffff1673ffffffffffffffffffffffffffffffffffffffff16610f799092919063ffffffff16565b610ca333610c596109d9565b83600460009054906101000a900473ffffffffffffffffffffffffffffffffffffffff1673ffffffffffffffffffffffffffffffffffffffff16610ef0909392919063ffffffff16565b50565b610cae610d9e565b73ffffffffffffffffffffffffffffffffffffffff16610ccc6109d9565b73ffffffffffffffffffffffffffffffffffffffff1614610d22576040517f08c379a0000000000000000000000000000000000000000000000000000000008152600401610d1990611815565b60405180910390fd5b600073ffffffffffffffffffffffffffffffffffffffff168173ffffffffffffffffffffffffffffffffffffffff161415610d92576040517f08c379a0000000000000000000000000000000000000000000000000000000008152600401610d89906117b5565b60405180910390fd5b610d9b81610e2c565b50565b600033905090565b610e278363a9059cbb60e01b8484604051602401610dc5929190611734565b604051602081830303815290604052907bffffffffffffffffffffffffffffffffffffffffffffffffffffffff19166020820180517bffffffffffffffffffffffffffffffffffffffffffffffffffffffff83818316178352505050506110d7565b505050565b60008060009054906101000a900473ffffffffffffffffffffffffffffffffffffffff169050816000806101000a81548173ffffffffffffffffffffffffffffffffffffffff021916908373ffffffffffffffffffffffffffffffffffffffff1602179055508173ffffffffffffffffffffffffffffffffffffffff168173ffffffffffffffffffffffffffffffffffffffff167f8be0079c531659141344cd1fd0a4f28419497f9722a3daafe3b4186f6b6457e060405160405180910390a35050565b610f73846323b872dd60e01b858585604051602401610f11939291906116fd565b604051602081830303815290604052907bffffffffffffffffffffffffffffffffffffffffffffffffffffffff19166020820180517bffffffffffffffffffffffffffffffffffffffffffffffffffffffff83818316178352505050506110d7565b50505050565b6000811480611012575060008373ffffffffffffffffffffffffffffffffffffffff1663dd62ed3e30856040518363ffffffff1660e01b8152600401610fc09291906116d4565b60206040518083038186803b158015610fd857600080fd5b505afa158015610fec573d6000803e3d6000fd5b505050506040513d601f19601f820116820180604052508101906110109190611471565b145b611051576040517f08c379a0000000000000000000000000000000000000000000000000000000008152600401611048906118d5565b60405180910390fd5b6110d28363095ea7b360e01b8484604051602401611070929190611734565b604051602081830303815290604052907bffffffffffffffffffffffffffffffffffffffffffffffffffffffff19166020820180517bffffffffffffffffffffffffffffffffffffffffffffffffffffffff83818316178352505050506110d7565b505050565b6000611139826040518060400160405280602081526020017f5361666545524332303a206c6f772d6c6576656c2063616c6c206661696c65648152508573ffffffffffffffffffffffffffffffffffffffff1661119e9092919063ffffffff16565b905060008151111561119957808060200190518101906111599190611417565b611198576040517f08c379a000000000000000000000000000000000000000000000000000000000815260040161118f906118b5565b60405180910390fd5b5b505050565b60606111ad84846000856111b6565b90509392505050565b6060824710156111fb576040517f08c379a00000000000000000000000000000000000000000000000000000000081526004016111f2906117f5565b60405180910390fd5b611204856112ca565b611243576040517f08c379a000000000000000000000000000000000000000000000000000000000815260040161123a90611875565b60405180910390fd5b6000808673ffffffffffffffffffffffffffffffffffffffff16858760405161126c91906116a2565b60006040518083038185875af1925050503d80600081146112a9576040519150601f19603f3d011682016040523d82523d6000602084013e6112ae565b606091505b50915091506112be8282866112ed565b92505050949350505050565b6000808273ffffffffffffffffffffffffffffffffffffffff163b119050919050565b606083156112fd5782905061134d565b6000835111156113105782518084602001fd5b816040517f08c379a00000000000000000000000000000000000000000000000000000000081526004016113449190611793565b60405180910390fd5b9392505050565b60008135905061136381611c4d565b92915050565b60008135905061137881611c64565b92915050565b60008151905061138d81611c7b565b92915050565b6000813590506113a281611c92565b92915050565b6000815190506113b781611c92565b92915050565b6000602082840312156113d3576113d2611a05565b5b60006113e184828501611354565b91505092915050565b600060208284031215611400576113ff611a05565b5b600061140e84828501611369565b91505092915050565b60006020828403121561142d5761142c611a05565b5b600061143b8482850161137e565b91505092915050565b60006020828403121561145a57611459611a05565b5b600061146884828501611393565b91505092915050565b60006020828403121561148757611486611a05565b5b6000611495848285016113a8565b91505092915050565b6114a781611942565b82525050565b6114b681611966565b82525050565b60006114c782611910565b6114d18185611926565b93506114e18185602086016119d2565b80840191505092915050565b6114f68161199c565b82525050565b60006115078261191b565b6115118185611931565b93506115218185602086016119d2565b61152a81611a0a565b840191505092915050565b6000611542602683611931565b915061154d82611a1b565b604082019050919050565b6000611565600e83611931565b915061157082611a6a565b602082019050919050565b6000611588602683611931565b915061159382611a93565b604082019050919050565b60006115ab602083611931565b91506115b682611ae2565b602082019050919050565b60006115ce601783611931565b91506115d982611b0b565b602082019050919050565b60006115f1601183611931565b91506115fc82611b34565b602082019050919050565b6000611614601d83611931565b915061161f82611b5d565b602082019050919050565b6000611637601a83611931565b915061164282611b86565b602082019050919050565b600061165a602a83611931565b915061166582611baf565b604082019050919050565b600061167d603683611931565b915061168882611bfe565b604082019050919050565b61169c81611992565b82525050565b60006116ae82846114bc565b915081905092915050565b60006020820190506116ce600083018461149e565b92915050565b60006040820190506116e9600083018561149e565b6116f6602083018461149e565b9392505050565b6000606082019050611712600083018661149e565b61171f602083018561149e565b61172c6040830184611693565b949350505050565b6000604082019050611749600083018561149e565b6117566020830184611693565b9392505050565b600060208201905061177260008301846114ad565b92915050565b600060208201905061178d60008301846114ed565b92915050565b600060208201905081810360008301526117ad81846114fc565b905092915050565b600060208201905081810360008301526117ce81611535565b9050919050565b600060208201905081810360008301526117ee81611558565b9050919050565b6000602082019050818103600083015261180e8161157b565b9050919050565b6000602082019050818103600083015261182e8161159e565b9050919050565b6000602082019050818103600083015261184e816115c1565b9050919050565b6000602082019050818103600083015261186e816115e4565b9050919050565b6000602082019050818103600083015261188e81611607565b9050919050565b600060208201905081810360008301526118ae8161162a565b9050919050565b600060208201905081810360008301526118ce8161164d565b9050919050565b600060208201905081810360008301526118ee81611670565b9050919050565b600060208201905061190a6000830184611693565b92915050565b600081519050919050565b600081519050919050565b600081905092915050565b600082825260208201905092915050565b600061194d82611972565b9050919050565b600061195f82611972565b9050919050565b60008115159050919050565b600073ffffffffffffffffffffffffffffffffffffffff82169050919050565b6000819050919050565b60006119a7826119ae565b9050919050565b60006119b9826119c0565b9050919050565b60006119cb82611972565b9050919050565b60005b838110156119f05780820151818401526020810190506119d5565b838111156119ff576000848401525b50505050565b600080fd5b6000601f19601f8301169050919050565b7f4f776e61626c653a206e6577206f776e657220697320746865207a65726f206160008201527f6464726573730000000000000000000000000000000000000000000000000000602082015250565b7f53616c652068617320656e646564000000000000000000000000000000000000600082015250565b7f416464726573733a20696e73756666696369656e742062616c616e636520666f60008201527f722063616c6c0000000000000000000000000000000000000000000000000000602082015250565b7f4f776e61626c653a2063616c6c6572206973206e6f7420746865206f776e6572600082015250565b7f53616c65206861736e2774207374617274656420796574000000000000000000600082015250565b7f53616c65206861736e277420656e646564000000000000000000000000000000600082015250565b7f416464726573733a2063616c6c20746f206e6f6e2d636f6e7472616374000000600082015250565b7f4e6f7420656e6f75676820746f6b656e20746f2072657475726e000000000000600082015250565b7f5361666545524332303a204552433230206f7065726174696f6e20646964206e60008201527f6f74207375636365656400000000000000000000000000000000000000000000602082015250565b7f5361666545524332303a20617070726f76652066726f6d206e6f6e2d7a65726f60008201527f20746f206e6f6e2d7a65726f20616c6c6f77616e636500000000000000000000602082015250565b611c5681611942565b8114611c6157600080fd5b50565b611c6d81611954565b8114611c7857600080fd5b50565b611c8481611966565b8114611c8f57600080fd5b50565b611c9b81611992565b8114611ca657600080fd5b5056fea26469706673582212206dee4e04c9770a9c0fc47e63810eb148a9beba59cd7ff8fc6bbff3bb82887bcd64736f6c63430008070033",
					"opcodes": "PUSH1 0x80 PUSH1 0x40 MSTORE PUSH20 0x4ECDFE30998A0CE87B08DBAF218E4A99C2313978 PUSH1 0x4 PUSH1 0x0 PUSH2 0x100 EXP DUP2 SLOAD DUP2 PUSH20 0xFFFFFFFFFFFFFFFFFFFFFFFFFFFFFFFFFFFFFFFF MUL NOT AND SWAP1 DUP4 PUSH20 0xFFFFFFFFFFFFFFFFFFFFFFFFFFFFFFFFFFFFFFFF AND MUL OR SWAP1 SSTORE POP CALLVALUE DUP1 ISZERO PUSH3 0x66 JUMPI PUSH1 0x0 DUP1 REVERT JUMPDEST POP PUSH1 0x40 MLOAD PUSH3 0x1FC0 CODESIZE SUB DUP1 PUSH3 0x1FC0 DUP4 CODECOPY DUP2 DUP2 ADD PUSH1 0x40 MSTORE DUP2 ADD SWAP1 PUSH3 0x8C SWAP2 SWAP1 PUSH3 0x1FE JUMP JUMPDEST PUSH3 0xAC PUSH3 0xA0 PUSH3 0x104 PUSH1 0x20 SHL PUSH1 0x20 SHR JUMP JUMPDEST PUSH3 0x10C PUSH1 0x20 SHL PUSH1 0x20 SHR JUMP JUMPDEST DUP3 PUSH1 0x1 PUSH1 0x0 PUSH2 0x100 EXP DUP2 SLOAD DUP2 PUSH20 0xFFFFFFFFFFFFFFFFFFFFFFFFFFFFFFFFFFFFFFFF MUL NOT AND SWAP1 DUP4 PUSH20 0xFFFFFFFFFFFFFFFFFFFFFFFFFFFFFFFFFFFFFFFF AND MUL OR SWAP1 SSTORE POP DUP2 PUSH1 0x2 DUP2 SWAP1 SSTORE POP DUP1 PUSH1 0x3 DUP2 SWAP1 SSTORE POP POP POP POP PUSH3 0x2D1 JUMP JUMPDEST PUSH1 0x0 CALLER SWAP1 POP SWAP1 JUMP JUMPDEST PUSH1 0x0 DUP1 PUSH1 0x0 SWAP1 SLOAD SWAP1 PUSH2 0x100 EXP SWAP1 DIV PUSH20 0xFFFFFFFFFFFFFFFFFFFFFFFFFFFFFFFFFFFFFFFF AND SWAP1 POP DUP2 PUSH1 0x0 DUP1 PUSH2 0x100 EXP DUP2 SLOAD DUP2 PUSH20 0xFFFFFFFFFFFFFFFFFFFFFFFFFFFFFFFFFFFFFFFF MUL NOT AND SWAP1 DUP4 PUSH20 0xFFFFFFFFFFFFFFFFFFFFFFFFFFFFFFFFFFFFFFFF AND MUL OR SWAP1 SSTORE POP DUP2 PUSH20 0xFFFFFFFFFFFFFFFFFFFFFFFFFFFFFFFFFFFFFFFF AND DUP2 PUSH20 0xFFFFFFFFFFFFFFFFFFFFFFFFFFFFFFFFFFFFFFFF AND PUSH32 0x8BE0079C531659141344CD1FD0A4F28419497F9722A3DAAFE3B4186F6B6457E0 PUSH1 0x40 MLOAD PUSH1 0x40 MLOAD DUP1 SWAP2 SUB SWAP1 LOG3 POP POP JUMP JUMPDEST PUSH1 0x0 DUP2 MLOAD SWAP1 POP PUSH3 0x1E1 DUP2 PUSH3 0x29D JUMP JUMPDEST SWAP3 SWAP2 POP POP JUMP JUMPDEST PUSH1 0x0 DUP2 MLOAD SWAP1 POP PUSH3 0x1F8 DUP2 PUSH3 0x2B7 JUMP JUMPDEST SWAP3 SWAP2 POP POP JUMP JUMPDEST PUSH1 0x0 DUP1 PUSH1 0x0 PUSH1 0x60 DUP5 DUP7 SUB SLT ISZERO PUSH3 0x21A JUMPI PUSH3 0x219 PUSH3 0x298 JUMP JUMPDEST JUMPDEST PUSH1 0x0 PUSH3 0x22A DUP7 DUP3 DUP8 ADD PUSH3 0x1D0 JUMP JUMPDEST SWAP4 POP POP PUSH1 0x20 PUSH3 0x23D DUP7 DUP3 DUP8 ADD PUSH3 0x1E7 JUMP JUMPDEST SWAP3 POP POP PUSH1 0x40 PUSH3 0x250 DUP7 DUP3 DUP8 ADD PUSH3 0x1E7 JUMP JUMPDEST SWAP2 POP POP SWAP3 POP SWAP3 POP SWAP3 JUMP JUMPDEST PUSH1 0x0 PUSH3 0x267 DUP3 PUSH3 0x26E JUMP JUMPDEST SWAP1 POP SWAP2 SWAP1 POP JUMP JUMPDEST PUSH1 0x0 PUSH20 0xFFFFFFFFFFFFFFFFFFFFFFFFFFFFFFFFFFFFFFFF DUP3 AND SWAP1 POP SWAP2 SWAP1 POP JUMP JUMPDEST PUSH1 0x0 DUP2 SWAP1 POP SWAP2 SWAP1 POP JUMP JUMPDEST PUSH1 0x0 DUP1 REVERT JUMPDEST PUSH3 0x2A8 DUP2 PUSH3 0x25A JUMP JUMPDEST DUP2 EQ PUSH3 0x2B4 JUMPI PUSH1 0x0 DUP1 REVERT JUMPDEST POP JUMP JUMPDEST PUSH3 0x2C2 DUP2 PUSH3 0x28E JUMP JUMPDEST DUP2 EQ PUSH3 0x2CE JUMPI PUSH1 0x0 DUP1 REVERT JUMPDEST POP JUMP JUMPDEST PUSH2 0x1CDF DUP1 PUSH3 0x2E1 PUSH1 0x0 CODECOPY PUSH1 0x0 RETURN INVALID PUSH1 0x80 PUSH1 0x40 MSTORE PUSH1 0x4 CALLDATASIZE LT PUSH2 0xE8 JUMPI PUSH1 0x0 CALLDATALOAD PUSH1 0xE0 SHR DUP1 PUSH4 0x8392FE31 GT PUSH2 0x8A JUMPI DUP1 PUSH4 0xC10B9358 GT PUSH2 0x59 JUMPI DUP1 PUSH4 0xC10B9358 EQ PUSH2 0x2C1 JUMPI DUP1 PUSH4 0xDE2D583A EQ PUSH2 0x2EC JUMPI DUP1 PUSH4 0xEFEF39A1 EQ PUSH2 0x31C JUMPI DUP1 PUSH4 0xF2FDE38B EQ PUSH2 0x345 JUMPI PUSH2 0xE8 JUMP JUMPDEST DUP1 PUSH4 0x8392FE31 EQ PUSH2 0x217 JUMPI DUP1 PUSH4 0x893D20E8 EQ PUSH2 0x240 JUMPI DUP1 PUSH4 0x8DA5CB5B EQ PUSH2 0x26B JUMPI DUP1 PUSH4 0xAB0BCC41 EQ PUSH2 0x296 JUMPI PUSH2 0xE8 JUMP JUMPDEST DUP1 PUSH4 0x61778592 GT PUSH2 0xC6 JUMPI DUP1 PUSH4 0x61778592 EQ PUSH2 0x16F JUMPI DUP1 PUSH4 0x617FBA04 EQ PUSH2 0x19A JUMPI DUP1 PUSH4 0x6F9C6149 EQ PUSH2 0x1D7 JUMPI DUP1 PUSH4 0x715018A6 EQ PUSH2 0x200 JUMPI PUSH2 0xE8 JUMP JUMPDEST DUP1 PUSH4 0x24076451 EQ PUSH2 0xED JUMPI DUP1 PUSH4 0x295E4EDF EQ PUSH2 0x12A JUMPI DUP1 PUSH4 0x51CFF8D9 EQ PUSH2 0x153 JUMPI JUMPDEST PUSH1 0x0 DUP1 REVERT JUMPDEST CALLVALUE DUP1 ISZERO PUSH2 0xF9 JUMPI PUSH1 0x0 DUP1 REVERT JUMPDEST POP PUSH2 0x114 PUSH1 0x4 DUP1 CALLDATASIZE SUB DUP2 ADD SWAP1 PUSH2 0x10F SWAP2 SWAP1 PUSH2 0x13BD JUMP JUMPDEST PUSH2 0x36E JUMP JUMPDEST PUSH1 0x40 MLOAD PUSH2 0x121 SWAP2 SWAP1 PUSH2 0x18F5 JUMP JUMPDEST PUSH1 0x40 MLOAD DUP1 SWAP2 SUB SWAP1 RETURN JUMPDEST CALLVALUE DUP1 ISZERO PUSH2 0x136 JUMPI PUSH1 0x0 DUP1 REVERT JUMPDEST POP PUSH2 0x151 PUSH1 0x4 DUP1 CALLDATASIZE SUB DUP2 ADD SWAP1 PUSH2 0x14C SWAP2 SWAP1 PUSH2 0x1444 JUMP JUMPDEST PUSH2 0x422 JUMP JUMPDEST STOP JUMPDEST PUSH2 0x16D PUSH1 0x4 DUP1 CALLDATASIZE SUB DUP2 ADD SWAP1 PUSH2 0x168 SWAP2 SWAP1 PUSH2 0x13BD JUMP JUMPDEST PUSH2 0x4A8 JUMP JUMPDEST STOP JUMPDEST CALLVALUE DUP1 ISZERO PUSH2 0x17B JUMPI PUSH1 0x0 DUP1 REVERT JUMPDEST POP PUSH2 0x184 PUSH2 0x767 JUMP JUMPDEST PUSH1 0x40 MLOAD PUSH2 0x191 SWAP2 SWAP1 PUSH2 0x1778 JUMP JUMPDEST PUSH1 0x40 MLOAD DUP1 SWAP2 SUB SWAP1 RETURN JUMPDEST CALLVALUE DUP1 ISZERO PUSH2 0x1A6 JUMPI PUSH1 0x0 DUP1 REVERT JUMPDEST POP PUSH2 0x1C1 PUSH1 0x4 DUP1 CALLDATASIZE SUB DUP2 ADD SWAP1 PUSH2 0x1BC SWAP2 SWAP1 PUSH2 0x13BD JUMP JUMPDEST PUSH2 0x78D JUMP JUMPDEST PUSH1 0x40 MLOAD PUSH2 0x1CE SWAP2 SWAP1 PUSH2 0x18F5 JUMP JUMPDEST PUSH1 0x40 MLOAD DUP1 SWAP2 SUB SWAP1 RETURN JUMPDEST CALLVALUE DUP1 ISZERO PUSH2 0x1E3 JUMPI PUSH1 0x0 DUP1 REVERT JUMPDEST POP PUSH2 0x1FE PUSH1 0x4 DUP1 CALLDATASIZE SUB DUP2 ADD SWAP1 PUSH2 0x1F9 SWAP2 SWAP1 PUSH2 0x1444 JUMP JUMPDEST PUSH2 0x7D9 JUMP JUMPDEST STOP JUMPDEST CALLVALUE DUP1 ISZERO PUSH2 0x20C JUMPI PUSH1 0x0 DUP1 REVERT JUMPDEST POP PUSH2 0x215 PUSH2 0x85F JUMP JUMPDEST STOP JUMPDEST CALLVALUE DUP1 ISZERO PUSH2 0x223 JUMPI PUSH1 0x0 DUP1 REVERT JUMPDEST POP PUSH2 0x23E PUSH1 0x4 DUP1 CALLDATASIZE SUB DUP2 ADD SWAP1 PUSH2 0x239 SWAP2 SWAP1 PUSH2 0x1444 JUMP JUMPDEST PUSH2 0x8E7 JUMP JUMPDEST STOP JUMPDEST CALLVALUE DUP1 ISZERO PUSH2 0x24C JUMPI PUSH1 0x0 DUP1 REVERT JUMPDEST POP PUSH2 0x255 PUSH2 0x9CA JUMP JUMPDEST PUSH1 0x40 MLOAD PUSH2 0x262 SWAP2 SWAP1 PUSH2 0x16B9 JUMP JUMPDEST PUSH1 0x40 MLOAD DUP1 SWAP2 SUB SWAP1 RETURN JUMPDEST CALLVALUE DUP1 ISZERO PUSH2 0x277 JUMPI PUSH1 0x0 DUP1 REVERT JUMPDEST POP PUSH2 0x280 PUSH2 0x9D9 JUMP JUMPDEST PUSH1 0x40 MLOAD PUSH2 0x28D SWAP2 SWAP1 PUSH2 0x16B9 JUMP JUMPDEST PUSH1 0x40 MLOAD DUP1 SWAP2 SUB SWAP1 RETURN JUMPDEST CALLVALUE DUP1 ISZERO PUSH2 0x2A2 JUMPI PUSH1 0x0 DUP1 REVERT JUMPDEST POP PUSH2 0x2AB PUSH2 0xA02 JUMP JUMPDEST PUSH1 0x40 MLOAD PUSH2 0x2B8 SWAP2 SWAP1 PUSH2 0x18F5 JUMP JUMPDEST PUSH1 0x40 MLOAD DUP1 SWAP2 SUB SWAP1 RETURN JUMPDEST CALLVALUE DUP1 ISZERO PUSH2 0x2CD JUMPI PUSH1 0x0 DUP1 REVERT JUMPDEST POP PUSH2 0x2D6 PUSH2 0xA0C JUMP JUMPDEST PUSH1 0x40 MLOAD PUSH2 0x2E3 SWAP2 SWAP1 PUSH2 0x18F5 JUMP JUMPDEST PUSH1 0x40 MLOAD DUP1 SWAP2 SUB SWAP1 RETURN JUMPDEST PUSH2 0x306 PUSH1 0x4 DUP1 CALLDATASIZE SUB DUP2 ADD SWAP1 PUSH2 0x301 SWAP2 SWAP1 PUSH2 0x13EA JUMP JUMPDEST PUSH2 0xA16 JUMP JUMPDEST PUSH1 0x40 MLOAD PUSH2 0x313 SWAP2 SWAP1 PUSH2 0x175D JUMP JUMPDEST PUSH1 0x40 MLOAD DUP1 SWAP2 SUB SWAP1 RETURN JUMPDEST CALLVALUE DUP1 ISZERO PUSH2 0x328 JUMPI PUSH1 0x0 DUP1 REVERT JUMPDEST POP PUSH2 0x343 PUSH1 0x4 DUP1 CALLDATASIZE SUB DUP2 ADD SWAP1 PUSH2 0x33E SWAP2 SWAP1 PUSH2 0x1444 JUMP JUMPDEST PUSH2 0xB6F JUMP JUMPDEST STOP JUMPDEST CALLVALUE DUP1 ISZERO PUSH2 0x351 JUMPI PUSH1 0x0 DUP1 REVERT JUMPDEST POP PUSH2 0x36C PUSH1 0x4 DUP1 CALLDATASIZE SUB DUP2 ADD SWAP1 PUSH2 0x367 SWAP2 SWAP1 PUSH2 0x13BD JUMP JUMPDEST PUSH2 0xCA6 JUMP JUMPDEST STOP JUMPDEST PUSH1 0x0 PUSH1 0x4 PUSH1 0x0 SWAP1 SLOAD SWAP1 PUSH2 0x100 EXP SWAP1 DIV PUSH20 0xFFFFFFFFFFFFFFFFFFFFFFFFFFFFFFFFFFFFFFFF AND PUSH20 0xFFFFFFFFFFFFFFFFFFFFFFFFFFFFFFFFFFFFFFFF AND PUSH4 0x70A08231 DUP4 PUSH1 0x40 MLOAD DUP3 PUSH4 0xFFFFFFFF AND PUSH1 0xE0 SHL DUP2 MSTORE PUSH1 0x4 ADD PUSH2 0x3CB SWAP2 SWAP1 PUSH2 0x16B9 JUMP JUMPDEST PUSH1 0x20 PUSH1 0x40 MLOAD DUP1 DUP4 SUB DUP2 DUP7 DUP1 EXTCODESIZE ISZERO DUP1 ISZERO PUSH2 0x3E3 JUMPI PUSH1 0x0 DUP1 REVERT JUMPDEST POP GAS STATICCALL ISZERO DUP1 ISZERO PUSH2 0x3F7 JUMPI RETURNDATASIZE PUSH1 0x0 DUP1 RETURNDATACOPY RETURNDATASIZE PUSH1 0x0 REVERT JUMPDEST POP POP POP POP PUSH1 0x40 MLOAD RETURNDATASIZE PUSH1 0x1F NOT PUSH1 0x1F DUP3 ADD AND DUP3 ADD DUP1 PUSH1 0x40 MSTORE POP DUP2 ADD SWAP1 PUSH2 0x41B SWAP2 SWAP1 PUSH2 0x1471 JUMP JUMPDEST SWAP1 POP SWAP2 SWAP1 POP JUMP JUMPDEST PUSH2 0x42A PUSH2 0xD9E JUMP JUMPDEST PUSH20 0xFFFFFFFFFFFFFFFFFFFFFFFFFFFFFFFFFFFFFFFF AND PUSH2 0x448 PUSH2 0x9D9 JUMP JUMPDEST PUSH20 0xFFFFFFFFFFFFFFFFFFFFFFFFFFFFFFFFFFFFFFFF AND EQ PUSH2 0x49E JUMPI PUSH1 0x40 MLOAD PUSH32 0x8C379A000000000000000000000000000000000000000000000000000000000 DUP2 MSTORE PUSH1 0x4 ADD PUSH2 0x495 SWAP1 PUSH2 0x1815 JUMP JUMPDEST PUSH1 0x40 MLOAD DUP1 SWAP2 SUB SWAP1 REVERT JUMPDEST DUP1 PUSH1 0x2 DUP2 SWAP1 SSTORE POP POP JUMP JUMPDEST PUSH2 0x4B0 PUSH2 0xD9E JUMP JUMPDEST PUSH20 0xFFFFFFFFFFFFFFFFFFFFFFFFFFFFFFFFFFFFFFFF AND PUSH2 0x4CE PUSH2 0x9D9 JUMP JUMPDEST PUSH20 0xFFFFFFFFFFFFFFFFFFFFFFFFFFFFFFFFFFFFFFFF AND EQ PUSH2 0x524 JUMPI PUSH1 0x40 MLOAD PUSH32 0x8C379A000000000000000000000000000000000000000000000000000000000 DUP2 MSTORE PUSH1 0x4 ADD PUSH2 0x51B SWAP1 PUSH2 0x1815 JUMP JUMPDEST PUSH1 0x40 MLOAD DUP1 SWAP2 SUB SWAP1 REVERT JUMPDEST PUSH1 0x3 SLOAD TIMESTAMP GT PUSH2 0x568 JUMPI PUSH1 0x40 MLOAD PUSH32 0x8C379A000000000000000000000000000000000000000000000000000000000 DUP2 MSTORE PUSH1 0x4 ADD PUSH2 0x55F SWAP1 PUSH2 0x1855 JUMP JUMPDEST PUSH1 0x40 MLOAD DUP1 SWAP2 SUB SWAP1 REVERT JUMPDEST PUSH2 0x666 DUP2 PUSH1 0x4 PUSH1 0x0 SWAP1 SLOAD SWAP1 PUSH2 0x100 EXP SWAP1 DIV PUSH20 0xFFFFFFFFFFFFFFFFFFFFFFFFFFFFFFFFFFFFFFFF AND PUSH20 0xFFFFFFFFFFFFFFFFFFFFFFFFFFFFFFFFFFFFFFFF AND PUSH4 0x70A08231 PUSH2 0x5B2 PUSH2 0x9D9 JUMP JUMPDEST PUSH1 0x40 MLOAD DUP3 PUSH4 0xFFFFFFFF AND PUSH1 0xE0 SHL DUP2 MSTORE PUSH1 0x4 ADD PUSH2 0x5CE SWAP2 SWAP1 PUSH2 0x16B9 JUMP JUMPDEST PUSH1 0x20 PUSH1 0x40 MLOAD DUP1 DUP4 SUB DUP2 DUP7 DUP1 EXTCODESIZE ISZERO DUP1 ISZERO PUSH2 0x5E6 JUMPI PUSH1 0x0 DUP1 REVERT JUMPDEST POP GAS STATICCALL ISZERO DUP1 ISZERO PUSH2 0x5FA JUMPI RETURNDATASIZE PUSH1 0x0 DUP1 RETURNDATACOPY RETURNDATASIZE PUSH1 0x0 REVERT JUMPDEST POP POP POP POP PUSH1 0x40 MLOAD RETURNDATASIZE PUSH1 0x1F NOT PUSH1 0x1F DUP3 ADD AND DUP3 ADD DUP1 PUSH1 0x40 MSTORE POP DUP2 ADD SWAP1 PUSH2 0x61E SWAP2 SWAP1 PUSH2 0x1471 JUMP JUMPDEST PUSH1 0x4 PUSH1 0x0 SWAP1 SLOAD SWAP1 PUSH2 0x100 EXP SWAP1 DIV PUSH20 0xFFFFFFFFFFFFFFFFFFFFFFFFFFFFFFFFFFFFFFFF AND PUSH20 0xFFFFFFFFFFFFFFFFFFFFFFFFFFFFFFFFFFFFFFFF AND PUSH2 0xDA6 SWAP1 SWAP3 SWAP2 SWAP1 PUSH4 0xFFFFFFFF AND JUMP JUMPDEST PUSH2 0x764 DUP2 PUSH1 0x4 PUSH1 0x0 SWAP1 SLOAD SWAP1 PUSH2 0x100 EXP SWAP1 DIV PUSH20 0xFFFFFFFFFFFFFFFFFFFFFFFFFFFFFFFFFFFFFFFF AND PUSH20 0xFFFFFFFFFFFFFFFFFFFFFFFFFFFFFFFFFFFFFFFF AND PUSH4 0x70A08231 PUSH2 0x6B0 PUSH2 0x9D9 JUMP JUMPDEST PUSH1 0x40 MLOAD DUP3 PUSH4 0xFFFFFFFF AND PUSH1 0xE0 SHL DUP2 MSTORE PUSH1 0x4 ADD PUSH2 0x6CC SWAP2 SWAP1 PUSH2 0x16B9 JUMP JUMPDEST PUSH1 0x20 PUSH1 0x40 MLOAD DUP1 DUP4 SUB DUP2 DUP7 DUP1 EXTCODESIZE ISZERO DUP1 ISZERO PUSH2 0x6E4 JUMPI PUSH1 0x0 DUP1 REVERT JUMPDEST POP GAS STATICCALL ISZERO DUP1 ISZERO PUSH2 0x6F8 JUMPI RETURNDATASIZE PUSH1 0x0 DUP1 RETURNDATACOPY RETURNDATASIZE PUSH1 0x0 REVERT JUMPDEST POP POP POP POP PUSH1 0x40 MLOAD RETURNDATASIZE PUSH1 0x1F NOT PUSH1 0x1F DUP3 ADD AND DUP3 ADD DUP1 PUSH1 0x40 MSTORE POP DUP2 ADD SWAP1 PUSH2 0x71C SWAP2 SWAP1 PUSH2 0x1471 JUMP JUMPDEST PUSH1 0x4 PUSH1 0x0 SWAP1 SLOAD SWAP1 PUSH2 0x100 EXP SWAP1 DIV PUSH20 0xFFFFFFFFFFFFFFFFFFFFFFFFFFFFFFFFFFFFFFFF AND PUSH20 0xFFFFFFFFFFFFFFFFFFFFFFFFFFFFFFFFFFFFFFFF AND PUSH2 0xDA6 SWAP1 SWAP3 SWAP2 SWAP1 PUSH4 0xFFFFFFFF AND JUMP JUMPDEST POP JUMP JUMPDEST PUSH1 0x4 PUSH1 0x0 SWAP1 SLOAD SWAP1 PUSH2 0x100 EXP SWAP1 DIV PUSH20 0xFFFFFFFFFFFFFFFFFFFFFFFFFFFFFFFFFFFFFFFF AND DUP2 JUMP JUMPDEST PUSH1 0x0 PUSH1 0x5 PUSH1 0x0 DUP4 PUSH20 0xFFFFFFFFFFFFFFFFFFFFFFFFFFFFFFFFFFFFFFFF AND PUSH20 0xFFFFFFFFFFFFFFFFFFFFFFFFFFFFFFFFFFFFFFFF AND DUP2 MSTORE PUSH1 0x20 ADD SWAP1 DUP2 MSTORE PUSH1 0x20 ADD PUSH1 0x0 KECCAK256 PUSH1 0x0 ADD SLOAD SWAP1 POP SWAP2 SWAP1 POP JUMP JUMPDEST PUSH2 0x7E1 PUSH2 0xD9E JUMP JUMPDEST PUSH20 0xFFFFFFFFFFFFFFFFFFFFFFFFFFFFFFFFFFFFFFFF AND PUSH2 0x7FF PUSH2 0x9D9 JUMP JUMPDEST PUSH20 0xFFFFFFFFFFFFFFFFFFFFFFFFFFFFFFFFFFFFFFFF AND EQ PUSH2 0x855 JUMPI PUSH1 0x40 MLOAD PUSH32 0x8C379A000000000000000000000000000000000000000000000000000000000 DUP2 MSTORE PUSH1 0x4 ADD PUSH2 0x84C SWAP1 PUSH2 0x1815 JUMP JUMPDEST PUSH1 0x40 MLOAD DUP1 SWAP2 SUB SWAP1 REVERT JUMPDEST DUP1 PUSH1 0x3 DUP2 SWAP1 SSTORE POP POP JUMP JUMPDEST PUSH2 0x867 PUSH2 0xD9E JUMP JUMPDEST PUSH20 0xFFFFFFFFFFFFFFFFFFFFFFFFFFFFFFFFFFFFFFFF AND PUSH2 0x885 PUSH2 0x9D9 JUMP JUMPDEST PUSH20 0xFFFFFFFFFFFFFFFFFFFFFFFFFFFFFFFFFFFFFFFF AND EQ PUSH2 0x8DB JUMPI PUSH1 0x40 MLOAD PUSH32 0x8C379A000000000000000000000000000000000000000000000000000000000 DUP2 MSTORE PUSH1 0x4 ADD PUSH2 0x8D2 SWAP1 PUSH2 0x1815 JUMP JUMPDEST PUSH1 0x40 MLOAD DUP1 SWAP2 SUB SWAP1 REVERT JUMPDEST PUSH2 0x8E5 PUSH1 0x0 PUSH2 0xE2C JUMP JUMPDEST JUMP JUMPDEST PUSH1 0x2 SLOAD TIMESTAMP LT ISZERO PUSH2 0x92C JUMPI PUSH1 0x40 MLOAD PUSH32 0x8C379A000000000000000000000000000000000000000000000000000000000 DUP2 MSTORE PUSH1 0x4 ADD PUSH2 0x923 SWAP1 PUSH2 0x1835 JUMP JUMPDEST PUSH1 0x40 MLOAD DUP1 SWAP2 SUB SWAP1 REVERT JUMPDEST PUSH1 0x3 SLOAD TIMESTAMP GT ISZERO PUSH2 0x971 JUMPI PUSH1 0x40 MLOAD PUSH32 0x8C379A000000000000000000000000000000000000000000000000000000000 DUP2 MSTORE PUSH1 0x4 ADD PUSH2 0x968 SWAP1 PUSH2 0x17D5 JUMP JUMPDEST PUSH1 0x40 MLOAD DUP1 SWAP2 SUB SWAP1 REVERT JUMPDEST PUSH2 0x9C7 CALLER PUSH2 0x97D PUSH2 0x9D9 JUMP JUMPDEST DUP4 PUSH1 0x4 PUSH1 0x0 SWAP1 SLOAD SWAP1 PUSH2 0x100 EXP SWAP1 DIV PUSH20 0xFFFFFFFFFFFFFFFFFFFFFFFFFFFFFFFFFFFFFFFF AND PUSH20 0xFFFFFFFFFFFFFFFFFFFFFFFFFFFFFFFFFFFFFFFF AND PUSH2 0xEF0 SWAP1 SWAP4 SWAP3 SWAP2 SWAP1 PUSH4 0xFFFFFFFF AND JUMP JUMPDEST POP JUMP JUMPDEST PUSH1 0x0 PUSH2 0x9D4 PUSH2 0x9D9 JUMP JUMPDEST SWAP1 POP SWAP1 JUMP JUMPDEST PUSH1 0x0 DUP1 PUSH1 0x0 SWAP1 SLOAD SWAP1 PUSH2 0x100 EXP SWAP1 DIV PUSH20 0xFFFFFFFFFFFFFFFFFFFFFFFFFFFFFFFFFFFFFFFF AND SWAP1 POP SWAP1 JUMP JUMPDEST PUSH1 0x0 PUSH1 0x2 SLOAD SWAP1 POP SWAP1 JUMP JUMPDEST PUSH1 0x0 PUSH1 0x3 SLOAD SWAP1 POP SWAP1 JUMP JUMPDEST PUSH1 0x0 PUSH2 0xA20 PUSH2 0xD9E JUMP JUMPDEST PUSH20 0xFFFFFFFFFFFFFFFFFFFFFFFFFFFFFFFFFFFFFFFF AND PUSH2 0xA3E PUSH2 0x9D9 JUMP JUMPDEST PUSH20 0xFFFFFFFFFFFFFFFFFFFFFFFFFFFFFFFFFFFFFFFF AND EQ PUSH2 0xA94 JUMPI PUSH1 0x40 MLOAD PUSH32 0x8C379A000000000000000000000000000000000000000000000000000000000 DUP2 MSTORE PUSH1 0x4 ADD PUSH2 0xA8B SWAP1 PUSH2 0x1815 JUMP JUMPDEST PUSH1 0x40 MLOAD DUP1 SWAP2 SUB SWAP1 REVERT JUMPDEST PUSH1 0x0 PUSH1 0x5 PUSH1 0x0 DUP5 PUSH20 0xFFFFFFFFFFFFFFFFFFFFFFFFFFFFFFFFFFFFFFFF AND PUSH20 0xFFFFFFFFFFFFFFFFFFFFFFFFFFFFFFFFFFFFFFFF AND DUP2 MSTORE PUSH1 0x20 ADD SWAP1 DUP2 MSTORE PUSH1 0x20 ADD PUSH1 0x0 KECCAK256 PUSH1 0x0 ADD SLOAD SWAP1 POP DUP1 SELFBALANCE LT ISZERO PUSH2 0xB1E JUMPI PUSH1 0x40 MLOAD PUSH32 0x8C379A000000000000000000000000000000000000000000000000000000000 DUP2 MSTORE PUSH1 0x4 ADD PUSH2 0xB15 SWAP1 PUSH2 0x1895 JUMP JUMPDEST PUSH1 0x40 MLOAD DUP1 SWAP2 SUB SWAP1 REVERT JUMPDEST DUP3 PUSH20 0xFFFFFFFFFFFFFFFFFFFFFFFFFFFFFFFFFFFFFFFF AND PUSH2 0x8FC DUP3 SWAP1 DUP2 ISZERO MUL SWAP1 PUSH1 0x40 MLOAD PUSH1 0x0 PUSH1 0x40 MLOAD DUP1 DUP4 SUB DUP2 DUP6 DUP9 DUP9 CALL SWAP4 POP POP POP POP ISZERO DUP1 ISZERO PUSH2 0xB64 JUMPI RETURNDATASIZE PUSH1 0x0 DUP1 RETURNDATACOPY RETURNDATASIZE PUSH1 0x0 REVERT JUMPDEST POP PUSH1 0x1 SWAP2 POP POP SWAP2 SWAP1 POP JUMP JUMPDEST PUSH1 0x2 SLOAD TIMESTAMP LT ISZERO PUSH2 0xBB4 JUMPI PUSH1 0x40 MLOAD PUSH32 0x8C379A000000000000000000000000000000000000000000000000000000000 DUP2 MSTORE PUSH1 0x4 ADD PUSH2 0xBAB SWAP1 PUSH2 0x1835 JUMP JUMPDEST PUSH1 0x40 MLOAD DUP1 SWAP2 SUB SWAP1 REVERT JUMPDEST PUSH1 0x3 SLOAD TIMESTAMP GT ISZERO PUSH2 0xBF9 JUMPI PUSH1 0x40 MLOAD PUSH32 0x8C379A000000000000000000000000000000000000000000000000000000000 DUP2 MSTORE PUSH1 0x4 ADD PUSH2 0xBF0 SWAP1 PUSH2 0x17D5 JUMP JUMPDEST PUSH1 0x40 MLOAD DUP1 SWAP2 SUB SWAP1 REVERT JUMPDEST PUSH2 0xC4D PUSH2 0xC04 PUSH2 0x9D9 JUMP JUMPDEST DUP3 PUSH1 0x4 PUSH1 0x0 SWAP1 SLOAD SWAP1 PUSH2 0x100 EXP SWAP1 DIV PUSH20 0xFFFFFFFFFFFFFFFFFFFFFFFFFFFFFFFFFFFFFFFF AND PUSH20 0xFFFFFFFFFFFFFFFFFFFFFFFFFFFFFFFFFFFFFFFF AND PUSH2 0xF79 SWAP1 SWAP3 SWAP2 SWAP1 PUSH4 0xFFFFFFFF AND JUMP JUMPDEST PUSH2 0xCA3 CALLER PUSH2 0xC59 PUSH2 0x9D9 JUMP JUMPDEST DUP4 PUSH1 0x4 PUSH1 0x0 SWAP1 SLOAD SWAP1 PUSH2 0x100 EXP SWAP1 DIV PUSH20 0xFFFFFFFFFFFFFFFFFFFFFFFFFFFFFFFFFFFFFFFF AND PUSH20 0xFFFFFFFFFFFFFFFFFFFFFFFFFFFFFFFFFFFFFFFF AND PUSH2 0xEF0 SWAP1 SWAP4 SWAP3 SWAP2 SWAP1 PUSH4 0xFFFFFFFF AND JUMP JUMPDEST POP JUMP JUMPDEST PUSH2 0xCAE PUSH2 0xD9E JUMP JUMPDEST PUSH20 0xFFFFFFFFFFFFFFFFFFFFFFFFFFFFFFFFFFFFFFFF AND PUSH2 0xCCC PUSH2 0x9D9 JUMP JUMPDEST PUSH20 0xFFFFFFFFFFFFFFFFFFFFFFFFFFFFFFFFFFFFFFFF AND EQ PUSH2 0xD22 JUMPI PUSH1 0x40 MLOAD PUSH32 0x8C379A000000000000000000000000000000000000000000000000000000000 DUP2 MSTORE PUSH1 0x4 ADD PUSH2 0xD19 SWAP1 PUSH2 0x1815 JUMP JUMPDEST PUSH1 0x40 MLOAD DUP1 SWAP2 SUB SWAP1 REVERT JUMPDEST PUSH1 0x0 PUSH20 0xFFFFFFFFFFFFFFFFFFFFFFFFFFFFFFFFFFFFFFFF AND DUP2 PUSH20 0xFFFFFFFFFFFFFFFFFFFFFFFFFFFFFFFFFFFFFFFF AND EQ ISZERO PUSH2 0xD92 JUMPI PUSH1 0x40 MLOAD PUSH32 0x8C379A000000000000000000000000000000000000000000000000000000000 DUP2 MSTORE PUSH1 0x4 ADD PUSH2 0xD89 SWAP1 PUSH2 0x17B5 JUMP JUMPDEST PUSH1 0x40 MLOAD DUP1 SWAP2 SUB SWAP1 REVERT JUMPDEST PUSH2 0xD9B DUP2 PUSH2 0xE2C JUMP JUMPDEST POP JUMP JUMPDEST PUSH1 0x0 CALLER SWAP1 POP SWAP1 JUMP JUMPDEST PUSH2 0xE27 DUP4 PUSH4 0xA9059CBB PUSH1 0xE0 SHL DUP5 DUP5 PUSH1 0x40 MLOAD PUSH1 0x24 ADD PUSH2 0xDC5 SWAP3 SWAP2 SWAP1 PUSH2 0x1734 JUMP JUMPDEST PUSH1 0x40 MLOAD PUSH1 0x20 DUP2 DUP4 SUB SUB DUP2 MSTORE SWAP1 PUSH1 0x40 MSTORE SWAP1 PUSH28 0xFFFFFFFFFFFFFFFFFFFFFFFFFFFFFFFFFFFFFFFFFFFFFFFFFFFFFFFF NOT AND PUSH1 0x20 DUP3 ADD DUP1 MLOAD PUSH28 0xFFFFFFFFFFFFFFFFFFFFFFFFFFFFFFFFFFFFFFFFFFFFFFFFFFFFFFFF DUP4 DUP2 DUP4 AND OR DUP4 MSTORE POP POP POP POP PUSH2 0x10D7 JUMP JUMPDEST POP POP POP JUMP JUMPDEST PUSH1 0x0 DUP1 PUSH1 0x0 SWAP1 SLOAD SWAP1 PUSH2 0x100 EXP SWAP1 DIV PUSH20 0xFFFFFFFFFFFFFFFFFFFFFFFFFFFFFFFFFFFFFFFF AND SWAP1 POP DUP2 PUSH1 0x0 DUP1 PUSH2 0x100 EXP DUP2 SLOAD DUP2 PUSH20 0xFFFFFFFFFFFFFFFFFFFFFFFFFFFFFFFFFFFFFFFF MUL NOT AND SWAP1 DUP4 PUSH20 0xFFFFFFFFFFFFFFFFFFFFFFFFFFFFFFFFFFFFFFFF AND MUL OR SWAP1 SSTORE POP DUP2 PUSH20 0xFFFFFFFFFFFFFFFFFFFFFFFFFFFFFFFFFFFFFFFF AND DUP2 PUSH20 0xFFFFFFFFFFFFFFFFFFFFFFFFFFFFFFFFFFFFFFFF AND PUSH32 0x8BE0079C531659141344CD1FD0A4F28419497F9722A3DAAFE3B4186F6B6457E0 PUSH1 0x40 MLOAD PUSH1 0x40 MLOAD DUP1 SWAP2 SUB SWAP1 LOG3 POP POP JUMP JUMPDEST PUSH2 0xF73 DUP5 PUSH4 0x23B872DD PUSH1 0xE0 SHL DUP6 DUP6 DUP6 PUSH1 0x40 MLOAD PUSH1 0x24 ADD PUSH2 0xF11 SWAP4 SWAP3 SWAP2 SWAP1 PUSH2 0x16FD JUMP JUMPDEST PUSH1 0x40 MLOAD PUSH1 0x20 DUP2 DUP4 SUB SUB DUP2 MSTORE SWAP1 PUSH1 0x40 MSTORE SWAP1 PUSH28 0xFFFFFFFFFFFFFFFFFFFFFFFFFFFFFFFFFFFFFFFFFFFFFFFFFFFFFFFF NOT AND PUSH1 0x20 DUP3 ADD DUP1 MLOAD PUSH28 0xFFFFFFFFFFFFFFFFFFFFFFFFFFFFFFFFFFFFFFFFFFFFFFFFFFFFFFFF DUP4 DUP2 DUP4 AND OR DUP4 MSTORE POP POP POP POP PUSH2 0x10D7 JUMP JUMPDEST POP POP POP POP JUMP JUMPDEST PUSH1 0x0 DUP2 EQ DUP1 PUSH2 0x1012 JUMPI POP PUSH1 0x0 DUP4 PUSH20 0xFFFFFFFFFFFFFFFFFFFFFFFFFFFFFFFFFFFFFFFF AND PUSH4 0xDD62ED3E ADDRESS DUP6 PUSH1 0x40 MLOAD DUP4 PUSH4 0xFFFFFFFF AND PUSH1 0xE0 SHL DUP2 MSTORE PUSH1 0x4 ADD PUSH2 0xFC0 SWAP3 SWAP2 SWAP1 PUSH2 0x16D4 JUMP JUMPDEST PUSH1 0x20 PUSH1 0x40 MLOAD DUP1 DUP4 SUB DUP2 DUP7 DUP1 EXTCODESIZE ISZERO DUP1 ISZERO PUSH2 0xFD8 JUMPI PUSH1 0x0 DUP1 REVERT JUMPDEST POP GAS STATICCALL ISZERO DUP1 ISZERO PUSH2 0xFEC JUMPI RETURNDATASIZE PUSH1 0x0 DUP1 RETURNDATACOPY RETURNDATASIZE PUSH1 0x0 REVERT JUMPDEST POP POP POP POP PUSH1 0x40 MLOAD RETURNDATASIZE PUSH1 0x1F NOT PUSH1 0x1F DUP3 ADD AND DUP3 ADD DUP1 PUSH1 0x40 MSTORE POP DUP2 ADD SWAP1 PUSH2 0x1010 SWAP2 SWAP1 PUSH2 0x1471 JUMP JUMPDEST EQ JUMPDEST PUSH2 0x1051 JUMPI PUSH1 0x40 MLOAD PUSH32 0x8C379A000000000000000000000000000000000000000000000000000000000 DUP2 MSTORE PUSH1 0x4 ADD PUSH2 0x1048 SWAP1 PUSH2 0x18D5 JUMP JUMPDEST PUSH1 0x40 MLOAD DUP1 SWAP2 SUB SWAP1 REVERT JUMPDEST PUSH2 0x10D2 DUP4 PUSH4 0x95EA7B3 PUSH1 0xE0 SHL DUP5 DUP5 PUSH1 0x40 MLOAD PUSH1 0x24 ADD PUSH2 0x1070 SWAP3 SWAP2 SWAP1 PUSH2 0x1734 JUMP JUMPDEST PUSH1 0x40 MLOAD PUSH1 0x20 DUP2 DUP4 SUB SUB DUP2 MSTORE SWAP1 PUSH1 0x40 MSTORE SWAP1 PUSH28 0xFFFFFFFFFFFFFFFFFFFFFFFFFFFFFFFFFFFFFFFFFFFFFFFFFFFFFFFF NOT AND PUSH1 0x20 DUP3 ADD DUP1 MLOAD PUSH28 0xFFFFFFFFFFFFFFFFFFFFFFFFFFFFFFFFFFFFFFFFFFFFFFFFFFFFFFFF DUP4 DUP2 DUP4 AND OR DUP4 MSTORE POP POP POP POP PUSH2 0x10D7 JUMP JUMPDEST POP POP POP JUMP JUMPDEST PUSH1 0x0 PUSH2 0x1139 DUP3 PUSH1 0x40 MLOAD DUP1 PUSH1 0x40 ADD PUSH1 0x40 MSTORE DUP1 PUSH1 0x20 DUP2 MSTORE PUSH1 0x20 ADD PUSH32 0x5361666545524332303A206C6F772D6C6576656C2063616C6C206661696C6564 DUP2 MSTORE POP DUP6 PUSH20 0xFFFFFFFFFFFFFFFFFFFFFFFFFFFFFFFFFFFFFFFF AND PUSH2 0x119E SWAP1 SWAP3 SWAP2 SWAP1 PUSH4 0xFFFFFFFF AND JUMP JUMPDEST SWAP1 POP PUSH1 0x0 DUP2 MLOAD GT ISZERO PUSH2 0x1199 JUMPI DUP1 DUP1 PUSH1 0x20 ADD SWAP1 MLOAD DUP2 ADD SWAP1 PUSH2 0x1159 SWAP2 SWAP1 PUSH2 0x1417 JUMP JUMPDEST PUSH2 0x1198 JUMPI PUSH1 0x40 MLOAD PUSH32 0x8C379A000000000000000000000000000000000000000000000000000000000 DUP2 MSTORE PUSH1 0x4 ADD PUSH2 0x118F SWAP1 PUSH2 0x18B5 JUMP JUMPDEST PUSH1 0x40 MLOAD DUP1 SWAP2 SUB SWAP1 REVERT JUMPDEST JUMPDEST POP POP POP JUMP JUMPDEST PUSH1 0x60 PUSH2 0x11AD DUP5 DUP5 PUSH1 0x0 DUP6 PUSH2 0x11B6 JUMP JUMPDEST SWAP1 POP SWAP4 SWAP3 POP POP POP JUMP JUMPDEST PUSH1 0x60 DUP3 SELFBALANCE LT ISZERO PUSH2 0x11FB JUMPI PUSH1 0x40 MLOAD PUSH32 0x8C379A000000000000000000000000000000000000000000000000000000000 DUP2 MSTORE PUSH1 0x4 ADD PUSH2 0x11F2 SWAP1 PUSH2 0x17F5 JUMP JUMPDEST PUSH1 0x40 MLOAD DUP1 SWAP2 SUB SWAP1 REVERT JUMPDEST PUSH2 0x1204 DUP6 PUSH2 0x12CA JUMP JUMPDEST PUSH2 0x1243 JUMPI PUSH1 0x40 MLOAD PUSH32 0x8C379A000000000000000000000000000000000000000000000000000000000 DUP2 MSTORE PUSH1 0x4 ADD PUSH2 0x123A SWAP1 PUSH2 0x1875 JUMP JUMPDEST PUSH1 0x40 MLOAD DUP1 SWAP2 SUB SWAP1 REVERT JUMPDEST PUSH1 0x0 DUP1 DUP7 PUSH20 0xFFFFFFFFFFFFFFFFFFFFFFFFFFFFFFFFFFFFFFFF AND DUP6 DUP8 PUSH1 0x40 MLOAD PUSH2 0x126C SWAP2 SWAP1 PUSH2 0x16A2 JUMP JUMPDEST PUSH1 0x0 PUSH1 0x40 MLOAD DUP1 DUP4 SUB DUP2 DUP6 DUP8 GAS CALL SWAP3 POP POP POP RETURNDATASIZE DUP1 PUSH1 0x0 DUP2 EQ PUSH2 0x12A9 JUMPI PUSH1 0x40 MLOAD SWAP2 POP PUSH1 0x1F NOT PUSH1 0x3F RETURNDATASIZE ADD AND DUP3 ADD PUSH1 0x40 MSTORE RETURNDATASIZE DUP3 MSTORE RETURNDATASIZE PUSH1 0x0 PUSH1 0x20 DUP5 ADD RETURNDATACOPY PUSH2 0x12AE JUMP JUMPDEST PUSH1 0x60 SWAP2 POP JUMPDEST POP SWAP2 POP SWAP2 POP PUSH2 0x12BE DUP3 DUP3 DUP7 PUSH2 0x12ED JUMP JUMPDEST SWAP3 POP POP POP SWAP5 SWAP4 POP POP POP POP JUMP JUMPDEST PUSH1 0x0 DUP1 DUP3 PUSH20 0xFFFFFFFFFFFFFFFFFFFFFFFFFFFFFFFFFFFFFFFF AND EXTCODESIZE GT SWAP1 POP SWAP2 SWAP1 POP JUMP JUMPDEST PUSH1 0x60 DUP4 ISZERO PUSH2 0x12FD JUMPI DUP3 SWAP1 POP PUSH2 0x134D JUMP JUMPDEST PUSH1 0x0 DUP4 MLOAD GT ISZERO PUSH2 0x1310 JUMPI DUP3 MLOAD DUP1 DUP5 PUSH1 0x20 ADD REVERT JUMPDEST DUP2 PUSH1 0x40 MLOAD PUSH32 0x8C379A000000000000000000000000000000000000000000000000000000000 DUP2 MSTORE PUSH1 0x4 ADD PUSH2 0x1344 SWAP2 SWAP1 PUSH2 0x1793 JUMP JUMPDEST PUSH1 0x40 MLOAD DUP1 SWAP2 SUB SWAP1 REVERT JUMPDEST SWAP4 SWAP3 POP POP POP JUMP JUMPDEST PUSH1 0x0 DUP2 CALLDATALOAD SWAP1 POP PUSH2 0x1363 DUP2 PUSH2 0x1C4D JUMP JUMPDEST SWAP3 SWAP2 POP POP JUMP JUMPDEST PUSH1 0x0 DUP2 CALLDATALOAD SWAP1 POP PUSH2 0x1378 DUP2 PUSH2 0x1C64 JUMP JUMPDEST SWAP3 SWAP2 POP POP JUMP JUMPDEST PUSH1 0x0 DUP2 MLOAD SWAP1 POP PUSH2 0x138D DUP2 PUSH2 0x1C7B JUMP JUMPDEST SWAP3 SWAP2 POP POP JUMP JUMPDEST PUSH1 0x0 DUP2 CALLDATALOAD SWAP1 POP PUSH2 0x13A2 DUP2 PUSH2 0x1C92 JUMP JUMPDEST SWAP3 SWAP2 POP POP JUMP JUMPDEST PUSH1 0x0 DUP2 MLOAD SWAP1 POP PUSH2 0x13B7 DUP2 PUSH2 0x1C92 JUMP JUMPDEST SWAP3 SWAP2 POP POP JUMP JUMPDEST PUSH1 0x0 PUSH1 0x20 DUP3 DUP5 SUB SLT ISZERO PUSH2 0x13D3 JUMPI PUSH2 0x13D2 PUSH2 0x1A05 JUMP JUMPDEST JUMPDEST PUSH1 0x0 PUSH2 0x13E1 DUP5 DUP3 DUP6 ADD PUSH2 0x1354 JUMP JUMPDEST SWAP2 POP POP SWAP3 SWAP2 POP POP JUMP JUMPDEST PUSH1 0x0 PUSH1 0x20 DUP3 DUP5 SUB SLT ISZERO PUSH2 0x1400 JUMPI PUSH2 0x13FF PUSH2 0x1A05 JUMP JUMPDEST JUMPDEST PUSH1 0x0 PUSH2 0x140E DUP5 DUP3 DUP6 ADD PUSH2 0x1369 JUMP JUMPDEST SWAP2 POP POP SWAP3 SWAP2 POP POP JUMP JUMPDEST PUSH1 0x0 PUSH1 0x20 DUP3 DUP5 SUB SLT ISZERO PUSH2 0x142D JUMPI PUSH2 0x142C PUSH2 0x1A05 JUMP JUMPDEST JUMPDEST PUSH1 0x0 PUSH2 0x143B DUP5 DUP3 DUP6 ADD PUSH2 0x137E JUMP JUMPDEST SWAP2 POP POP SWAP3 SWAP2 POP POP JUMP JUMPDEST PUSH1 0x0 PUSH1 0x20 DUP3 DUP5 SUB SLT ISZERO PUSH2 0x145A JUMPI PUSH2 0x1459 PUSH2 0x1A05 JUMP JUMPDEST JUMPDEST PUSH1 0x0 PUSH2 0x1468 DUP5 DUP3 DUP6 ADD PUSH2 0x1393 JUMP JUMPDEST SWAP2 POP POP SWAP3 SWAP2 POP POP JUMP JUMPDEST PUSH1 0x0 PUSH1 0x20 DUP3 DUP5 SUB SLT ISZERO PUSH2 0x1487 JUMPI PUSH2 0x1486 PUSH2 0x1A05 JUMP JUMPDEST JUMPDEST PUSH1 0x0 PUSH2 0x1495 DUP5 DUP3 DUP6 ADD PUSH2 0x13A8 JUMP JUMPDEST SWAP2 POP POP SWAP3 SWAP2 POP POP JUMP JUMPDEST PUSH2 0x14A7 DUP2 PUSH2 0x1942 JUMP JUMPDEST DUP3 MSTORE POP POP JUMP JUMPDEST PUSH2 0x14B6 DUP2 PUSH2 0x1966 JUMP JUMPDEST DUP3 MSTORE POP POP JUMP JUMPDEST PUSH1 0x0 PUSH2 0x14C7 DUP3 PUSH2 0x1910 JUMP JUMPDEST PUSH2 0x14D1 DUP2 DUP6 PUSH2 0x1926 JUMP JUMPDEST SWAP4 POP PUSH2 0x14E1 DUP2 DUP6 PUSH1 0x20 DUP7 ADD PUSH2 0x19D2 JUMP JUMPDEST DUP1 DUP5 ADD SWAP2 POP POP SWAP3 SWAP2 POP POP JUMP JUMPDEST PUSH2 0x14F6 DUP2 PUSH2 0x199C JUMP JUMPDEST DUP3 MSTORE POP POP JUMP JUMPDEST PUSH1 0x0 PUSH2 0x1507 DUP3 PUSH2 0x191B JUMP JUMPDEST PUSH2 0x1511 DUP2 DUP6 PUSH2 0x1931 JUMP JUMPDEST SWAP4 POP PUSH2 0x1521 DUP2 DUP6 PUSH1 0x20 DUP7 ADD PUSH2 0x19D2 JUMP JUMPDEST PUSH2 0x152A DUP2 PUSH2 0x1A0A JUMP JUMPDEST DUP5 ADD SWAP2 POP POP SWAP3 SWAP2 POP POP JUMP JUMPDEST PUSH1 0x0 PUSH2 0x1542 PUSH1 0x26 DUP4 PUSH2 0x1931 JUMP JUMPDEST SWAP2 POP PUSH2 0x154D DUP3 PUSH2 0x1A1B JUMP JUMPDEST PUSH1 0x40 DUP3 ADD SWAP1 POP SWAP2 SWAP1 POP JUMP JUMPDEST PUSH1 0x0 PUSH2 0x1565 PUSH1 0xE DUP4 PUSH2 0x1931 JUMP JUMPDEST SWAP2 POP PUSH2 0x1570 DUP3 PUSH2 0x1A6A JUMP JUMPDEST PUSH1 0x20 DUP3 ADD SWAP1 POP SWAP2 SWAP1 POP JUMP JUMPDEST PUSH1 0x0 PUSH2 0x1588 PUSH1 0x26 DUP4 PUSH2 0x1931 JUMP JUMPDEST SWAP2 POP PUSH2 0x1593 DUP3 PUSH2 0x1A93 JUMP JUMPDEST PUSH1 0x40 DUP3 ADD SWAP1 POP SWAP2 SWAP1 POP JUMP JUMPDEST PUSH1 0x0 PUSH2 0x15AB PUSH1 0x20 DUP4 PUSH2 0x1931 JUMP JUMPDEST SWAP2 POP PUSH2 0x15B6 DUP3 PUSH2 0x1AE2 JUMP JUMPDEST PUSH1 0x20 DUP3 ADD SWAP1 POP SWAP2 SWAP1 POP JUMP JUMPDEST PUSH1 0x0 PUSH2 0x15CE PUSH1 0x17 DUP4 PUSH2 0x1931 JUMP JUMPDEST SWAP2 POP PUSH2 0x15D9 DUP3 PUSH2 0x1B0B JUMP JUMPDEST PUSH1 0x20 DUP3 ADD SWAP1 POP SWAP2 SWAP1 POP JUMP JUMPDEST PUSH1 0x0 PUSH2 0x15F1 PUSH1 0x11 DUP4 PUSH2 0x1931 JUMP JUMPDEST SWAP2 POP PUSH2 0x15FC DUP3 PUSH2 0x1B34 JUMP JUMPDEST PUSH1 0x20 DUP3 ADD SWAP1 POP SWAP2 SWAP1 POP JUMP JUMPDEST PUSH1 0x0 PUSH2 0x1614 PUSH1 0x1D DUP4 PUSH2 0x1931 JUMP JUMPDEST SWAP2 POP PUSH2 0x161F DUP3 PUSH2 0x1B5D JUMP JUMPDEST PUSH1 0x20 DUP3 ADD SWAP1 POP SWAP2 SWAP1 POP JUMP JUMPDEST PUSH1 0x0 PUSH2 0x1637 PUSH1 0x1A DUP4 PUSH2 0x1931 JUMP JUMPDEST SWAP2 POP PUSH2 0x1642 DUP3 PUSH2 0x1B86 JUMP JUMPDEST PUSH1 0x20 DUP3 ADD SWAP1 POP SWAP2 SWAP1 POP JUMP JUMPDEST PUSH1 0x0 PUSH2 0x165A PUSH1 0x2A DUP4 PUSH2 0x1931 JUMP JUMPDEST SWAP2 POP PUSH2 0x1665 DUP3 PUSH2 0x1BAF JUMP JUMPDEST PUSH1 0x40 DUP3 ADD SWAP1 POP SWAP2 SWAP1 POP JUMP JUMPDEST PUSH1 0x0 PUSH2 0x167D PUSH1 0x36 DUP4 PUSH2 0x1931 JUMP JUMPDEST SWAP2 POP PUSH2 0x1688 DUP3 PUSH2 0x1BFE JUMP JUMPDEST PUSH1 0x40 DUP3 ADD SWAP1 POP SWAP2 SWAP1 POP JUMP JUMPDEST PUSH2 0x169C DUP2 PUSH2 0x1992 JUMP JUMPDEST DUP3 MSTORE POP POP JUMP JUMPDEST PUSH1 0x0 PUSH2 0x16AE DUP3 DUP5 PUSH2 0x14BC JUMP JUMPDEST SWAP2 POP DUP2 SWAP1 POP SWAP3 SWAP2 POP POP JUMP JUMPDEST PUSH1 0x0 PUSH1 0x20 DUP3 ADD SWAP1 POP PUSH2 0x16CE PUSH1 0x0 DUP4 ADD DUP5 PUSH2 0x149E JUMP JUMPDEST SWAP3 SWAP2 POP POP JUMP JUMPDEST PUSH1 0x0 PUSH1 0x40 DUP3 ADD SWAP1 POP PUSH2 0x16E9 PUSH1 0x0 DUP4 ADD DUP6 PUSH2 0x149E JUMP JUMPDEST PUSH2 0x16F6 PUSH1 0x20 DUP4 ADD DUP5 PUSH2 0x149E JUMP JUMPDEST SWAP4 SWAP3 POP POP POP JUMP JUMPDEST PUSH1 0x0 PUSH1 0x60 DUP3 ADD SWAP1 POP PUSH2 0x1712 PUSH1 0x0 DUP4 ADD DUP7 PUSH2 0x149E JUMP JUMPDEST PUSH2 0x171F PUSH1 0x20 DUP4 ADD DUP6 PUSH2 0x149E JUMP JUMPDEST PUSH2 0x172C PUSH1 0x40 DUP4 ADD DUP5 PUSH2 0x1693 JUMP JUMPDEST SWAP5 SWAP4 POP POP POP POP JUMP JUMPDEST PUSH1 0x0 PUSH1 0x40 DUP3 ADD SWAP1 POP PUSH2 0x1749 PUSH1 0x0 DUP4 ADD DUP6 PUSH2 0x149E JUMP JUMPDEST PUSH2 0x1756 PUSH1 0x20 DUP4 ADD DUP5 PUSH2 0x1693 JUMP JUMPDEST SWAP4 SWAP3 POP POP POP JUMP JUMPDEST PUSH1 0x0 PUSH1 0x20 DUP3 ADD SWAP1 POP PUSH2 0x1772 PUSH1 0x0 DUP4 ADD DUP5 PUSH2 0x14AD JUMP JUMPDEST SWAP3 SWAP2 POP POP JUMP JUMPDEST PUSH1 0x0 PUSH1 0x20 DUP3 ADD SWAP1 POP PUSH2 0x178D PUSH1 0x0 DUP4 ADD DUP5 PUSH2 0x14ED JUMP JUMPDEST SWAP3 SWAP2 POP POP JUMP JUMPDEST PUSH1 0x0 PUSH1 0x20 DUP3 ADD SWAP1 POP DUP2 DUP2 SUB PUSH1 0x0 DUP4 ADD MSTORE PUSH2 0x17AD DUP2 DUP5 PUSH2 0x14FC JUMP JUMPDEST SWAP1 POP SWAP3 SWAP2 POP POP JUMP JUMPDEST PUSH1 0x0 PUSH1 0x20 DUP3 ADD SWAP1 POP DUP2 DUP2 SUB PUSH1 0x0 DUP4 ADD MSTORE PUSH2 0x17CE DUP2 PUSH2 0x1535 JUMP JUMPDEST SWAP1 POP SWAP2 SWAP1 POP JUMP JUMPDEST PUSH1 0x0 PUSH1 0x20 DUP3 ADD SWAP1 POP DUP2 DUP2 SUB PUSH1 0x0 DUP4 ADD MSTORE PUSH2 0x17EE DUP2 PUSH2 0x1558 JUMP JUMPDEST SWAP1 POP SWAP2 SWAP1 POP JUMP JUMPDEST PUSH1 0x0 PUSH1 0x20 DUP3 ADD SWAP1 POP DUP2 DUP2 SUB PUSH1 0x0 DUP4 ADD MSTORE PUSH2 0x180E DUP2 PUSH2 0x157B JUMP JUMPDEST SWAP1 POP SWAP2 SWAP1 POP JUMP JUMPDEST PUSH1 0x0 PUSH1 0x20 DUP3 ADD SWAP1 POP DUP2 DUP2 SUB PUSH1 0x0 DUP4 ADD MSTORE PUSH2 0x182E DUP2 PUSH2 0x159E JUMP JUMPDEST SWAP1 POP SWAP2 SWAP1 POP JUMP JUMPDEST PUSH1 0x0 PUSH1 0x20 DUP3 ADD SWAP1 POP DUP2 DUP2 SUB PUSH1 0x0 DUP4 ADD MSTORE PUSH2 0x184E DUP2 PUSH2 0x15C1 JUMP JUMPDEST SWAP1 POP SWAP2 SWAP1 POP JUMP JUMPDEST PUSH1 0x0 PUSH1 0x20 DUP3 ADD SWAP1 POP DUP2 DUP2 SUB PUSH1 0x0 DUP4 ADD MSTORE PUSH2 0x186E DUP2 PUSH2 0x15E4 JUMP JUMPDEST SWAP1 POP SWAP2 SWAP1 POP JUMP JUMPDEST PUSH1 0x0 PUSH1 0x20 DUP3 ADD SWAP1 POP DUP2 DUP2 SUB PUSH1 0x0 DUP4 ADD MSTORE PUSH2 0x188E DUP2 PUSH2 0x1607 JUMP JUMPDEST SWAP1 POP SWAP2 SWAP1 POP JUMP JUMPDEST PUSH1 0x0 PUSH1 0x20 DUP3 ADD SWAP1 POP DUP2 DUP2 SUB PUSH1 0x0 DUP4 ADD MSTORE PUSH2 0x18AE DUP2 PUSH2 0x162A JUMP JUMPDEST SWAP1 POP SWAP2 SWAP1 POP JUMP JUMPDEST PUSH1 0x0 PUSH1 0x20 DUP3 ADD SWAP1 POP DUP2 DUP2 SUB PUSH1 0x0 DUP4 ADD MSTORE PUSH2 0x18CE DUP2 PUSH2 0x164D JUMP JUMPDEST SWAP1 POP SWAP2 SWAP1 POP JUMP JUMPDEST PUSH1 0x0 PUSH1 0x20 DUP3 ADD SWAP1 POP DUP2 DUP2 SUB PUSH1 0x0 DUP4 ADD MSTORE PUSH2 0x18EE DUP2 PUSH2 0x1670 JUMP JUMPDEST SWAP1 POP SWAP2 SWAP1 POP JUMP JUMPDEST PUSH1 0x0 PUSH1 0x20 DUP3 ADD SWAP1 POP PUSH2 0x190A PUSH1 0x0 DUP4 ADD DUP5 PUSH2 0x1693 JUMP JUMPDEST SWAP3 SWAP2 POP POP JUMP JUMPDEST PUSH1 0x0 DUP2 MLOAD SWAP1 POP SWAP2 SWAP1 POP JUMP JUMPDEST PUSH1 0x0 DUP2 MLOAD SWAP1 POP SWAP2 SWAP1 POP JUMP JUMPDEST PUSH1 0x0 DUP2 SWAP1 POP SWAP3 SWAP2 POP POP JUMP JUMPDEST PUSH1 0x0 DUP3 DUP3 MSTORE PUSH1 0x20 DUP3 ADD SWAP1 POP SWAP3 SWAP2 POP POP JUMP JUMPDEST PUSH1 0x0 PUSH2 0x194D DUP3 PUSH2 0x1972 JUMP JUMPDEST SWAP1 POP SWAP2 SWAP1 POP JUMP JUMPDEST PUSH1 0x0 PUSH2 0x195F DUP3 PUSH2 0x1972 JUMP JUMPDEST SWAP1 POP SWAP2 SWAP1 POP JUMP JUMPDEST PUSH1 0x0 DUP2 ISZERO ISZERO SWAP1 POP SWAP2 SWAP1 POP JUMP JUMPDEST PUSH1 0x0 PUSH20 0xFFFFFFFFFFFFFFFFFFFFFFFFFFFFFFFFFFFFFFFF DUP3 AND SWAP1 POP SWAP2 SWAP1 POP JUMP JUMPDEST PUSH1 0x0 DUP2 SWAP1 POP SWAP2 SWAP1 POP JUMP JUMPDEST PUSH1 0x0 PUSH2 0x19A7 DUP3 PUSH2 0x19AE JUMP JUMPDEST SWAP1 POP SWAP2 SWAP1 POP JUMP JUMPDEST PUSH1 0x0 PUSH2 0x19B9 DUP3 PUSH2 0x19C0 JUMP JUMPDEST SWAP1 POP SWAP2 SWAP1 POP JUMP JUMPDEST PUSH1 0x0 PUSH2 0x19CB DUP3 PUSH2 0x1972 JUMP JUMPDEST SWAP1 POP SWAP2 SWAP1 POP JUMP JUMPDEST PUSH1 0x0 JUMPDEST DUP4 DUP2 LT ISZERO PUSH2 0x19F0 JUMPI DUP1 DUP3 ADD MLOAD DUP2 DUP5 ADD MSTORE PUSH1 0x20 DUP2 ADD SWAP1 POP PUSH2 0x19D5 JUMP JUMPDEST DUP4 DUP2 GT ISZERO PUSH2 0x19FF JUMPI PUSH1 0x0 DUP5 DUP5 ADD MSTORE JUMPDEST POP POP POP POP JUMP JUMPDEST PUSH1 0x0 DUP1 REVERT JUMPDEST PUSH1 0x0 PUSH1 0x1F NOT PUSH1 0x1F DUP4 ADD AND SWAP1 POP SWAP2 SWAP1 POP JUMP JUMPDEST PUSH32 0x4F776E61626C653A206E6577206F776E657220697320746865207A65726F2061 PUSH1 0x0 DUP3 ADD MSTORE PUSH32 0x6464726573730000000000000000000000000000000000000000000000000000 PUSH1 0x20 DUP3 ADD MSTORE POP JUMP JUMPDEST PUSH32 0x53616C652068617320656E646564000000000000000000000000000000000000 PUSH1 0x0 DUP3 ADD MSTORE POP JUMP JUMPDEST PUSH32 0x416464726573733A20696E73756666696369656E742062616C616E636520666F PUSH1 0x0 DUP3 ADD MSTORE PUSH32 0x722063616C6C0000000000000000000000000000000000000000000000000000 PUSH1 0x20 DUP3 ADD MSTORE POP JUMP JUMPDEST PUSH32 0x4F776E61626C653A2063616C6C6572206973206E6F7420746865206F776E6572 PUSH1 0x0 DUP3 ADD MSTORE POP JUMP JUMPDEST PUSH32 0x53616C65206861736E2774207374617274656420796574000000000000000000 PUSH1 0x0 DUP3 ADD MSTORE POP JUMP JUMPDEST PUSH32 0x53616C65206861736E277420656E646564000000000000000000000000000000 PUSH1 0x0 DUP3 ADD MSTORE POP JUMP JUMPDEST PUSH32 0x416464726573733A2063616C6C20746F206E6F6E2D636F6E7472616374000000 PUSH1 0x0 DUP3 ADD MSTORE POP JUMP JUMPDEST PUSH32 0x4E6F7420656E6F75676820746F6B656E20746F2072657475726E000000000000 PUSH1 0x0 DUP3 ADD MSTORE POP JUMP JUMPDEST PUSH32 0x5361666545524332303A204552433230206F7065726174696F6E20646964206E PUSH1 0x0 DUP3 ADD MSTORE PUSH32 0x6F74207375636365656400000000000000000000000000000000000000000000 PUSH1 0x20 DUP3 ADD MSTORE POP JUMP JUMPDEST PUSH32 0x5361666545524332303A20617070726F76652066726F6D206E6F6E2D7A65726F PUSH1 0x0 DUP3 ADD MSTORE PUSH32 0x20746F206E6F6E2D7A65726F20616C6C6F77616E636500000000000000000000 PUSH1 0x20 DUP3 ADD MSTORE POP JUMP JUMPDEST PUSH2 0x1C56 DUP2 PUSH2 0x1942 JUMP JUMPDEST DUP2 EQ PUSH2 0x1C61 JUMPI PUSH1 0x0 DUP1 REVERT JUMPDEST POP JUMP JUMPDEST PUSH2 0x1C6D DUP2 PUSH2 0x1954 JUMP JUMPDEST DUP2 EQ PUSH2 0x1C78 JUMPI PUSH1 0x0 DUP1 REVERT JUMPDEST POP JUMP JUMPDEST PUSH2 0x1C84 DUP2 PUSH2 0x1966 JUMP JUMPDEST DUP2 EQ PUSH2 0x1C8F JUMPI PUSH1 0x0 DUP1 REVERT JUMPDEST POP JUMP JUMPDEST PUSH2 0x1C9B DUP2 PUSH2 0x1992 JUMP JUMPDEST DUP2 EQ PUSH2 0x1CA6 JUMPI PUSH1 0x0 DUP1 REVERT JUMPDEST POP JUMP INVALID LOG2 PUSH5 0x6970667358 0x22 SLT KECCAK256 PUSH14 0xEE4E04C9770A9C0FC47E63810EB1 BASEFEE 0xA9 0xBE 0xBA MSIZE 0xCD PUSH32 0xF8FC6BBFF3BB82887BCD64736F6C634300080700330000000000000000000000 "
				},
				"gasEstimates": {
					"creation": {
						"codeDepositCost": "1478200",
						"executionCost": "infinite",
						"totalCost": "infinite"
					},
					"external": {
						"Return(address)": "infinite",
						"_usdcInstance()": "2623",
						"bala(address)": "infinite",
						"getOwner()": "2602",
						"getRecord(address)": "2892",
						"owner()": "2589",
						"purchase(uint256)": "infinite",
						"purchases(uint256)": "infinite",
						"renounceOwnership()": "30463",
						"saleEnd()": "2459",
						"saleStart()": "2526",
						"transferOwnership(address)": "30811",
						"updateSaleEndTime(uint256)": "24827",
						"updateSaleStartTime(uint256)": "24806",
						"withdraw(address)": "infinite"
					}
				},
				"methodIdentifiers": {
					"Return(address)": "de2d583a",
					"_usdcInstance()": "61778592",
					"bala(address)": "24076451",
					"getOwner()": "893d20e8",
					"getRecord(address)": "617fba04",
					"owner()": "8da5cb5b",
					"purchase(uint256)": "efef39a1",
					"purchases(uint256)": "8392fe31",
					"renounceOwnership()": "715018a6",
					"saleEnd()": "c10b9358",
					"saleStart()": "ab0bcc41",
					"transferOwnership(address)": "f2fde38b",
					"updateSaleEndTime(uint256)": "6f9c6149",
					"updateSaleStartTime(uint256)": "295e4edf",
					"withdraw(address)": "51cff8d9"
				}
			},
			"storageLayout": {
				"storage": [
					{
						"astId": 7,
						"contract": "contracts/TokenSale.sol:TokenSale",
						"label": "_owner",
						"offset": 0,
						"slot": "0",
						"type": "t_address"
					},
					{
						"astId": 737,
						"contract": "contracts/TokenSale.sol:TokenSale",
						"label": "_tokenAddress",
						"offset": 0,
						"slot": "1",
						"type": "t_contract(IERC20)182"
					},
					{
						"astId": 739,
						"contract": "contracts/TokenSale.sol:TokenSale",
						"label": "_saleStart",
						"offset": 0,
						"slot": "2",
						"type": "t_uint256"
					},
					{
						"astId": 741,
						"contract": "contracts/TokenSale.sol:TokenSale",
						"label": "_saleEnd",
						"offset": 0,
						"slot": "3",
						"type": "t_uint256"
					},
					{
						"astId": 747,
						"contract": "contracts/TokenSale.sol:TokenSale",
						"label": "_usdcInstance",
						"offset": 0,
						"slot": "4",
						"type": "t_contract(IERC20)182"
					},
					{
						"astId": 759,
						"contract": "contracts/TokenSale.sol:TokenSale",
						"label": "record",
						"offset": 0,
						"slot": "5",
						"type": "t_mapping(t_address,t_struct(TokenRecord)754_storage)"
					}
				],
				"types": {
					"t_address": {
						"encoding": "inplace",
						"label": "address",
						"numberOfBytes": "20"
					},
					"t_contract(IERC20)182": {
						"encoding": "inplace",
						"label": "contract IERC20",
						"numberOfBytes": "20"
					},
					"t_mapping(t_address,t_struct(TokenRecord)754_storage)": {
						"encoding": "mapping",
						"key": "t_address",
						"label": "mapping(address => struct TokenSale.TokenRecord)",
						"numberOfBytes": "32",
						"value": "t_struct(TokenRecord)754_storage"
					},
					"t_string_storage": {
						"encoding": "bytes",
						"label": "string",
						"numberOfBytes": "32"
					},
					"t_struct(TokenRecord)754_storage": {
						"encoding": "inplace",
						"label": "struct TokenSale.TokenRecord",
						"members": [
							{
								"astId": 749,
								"contract": "contracts/TokenSale.sol:TokenSale",
								"label": "_amount",
								"offset": 0,
								"slot": "0",
								"type": "t_uint256"
							},
							{
								"astId": 751,
								"contract": "contracts/TokenSale.sol:TokenSale",
								"label": "_buyerAddress",
								"offset": 0,
								"slot": "1",
								"type": "t_address"
							},
							{
								"astId": 753,
								"contract": "contracts/TokenSale.sol:TokenSale",
								"label": "_tokenSymbol",
								"offset": 0,
								"slot": "2",
								"type": "t_string_storage"
							}
						],
						"numberOfBytes": "96"
					},
					"t_uint256": {
						"encoding": "inplace",
						"label": "uint256",
						"numberOfBytes": "32"
					}
				}
			},
			"userdoc": {
				"kind": "user",
				"methods": {},
				"version": 1
			}
		}
	}
}