{
  "contractName": "RealEstateToken",
  "abi": [
    {
      "inputs": [
        {
          "internalType": "string",
          "name": "tokenName_",
          "type": "string"
        },
        {
          "internalType": "string",
          "name": "tokenSymbol_",
          "type": "string"
        },
        {
          "internalType": "uint256",
          "name": "maxSupply_",
          "type": "uint256"
        },
        {
          "internalType": "uint256",
          "name": "initialPrice_",
          "type": "uint256"
        },
        {
          "internalType": "uint256",
          "name": "saleStart_",
          "type": "uint256"
        },
        {
          "internalType": "uint256",
          "name": "saleEnd_",
          "type": "uint256"
        },
        {
          "internalType": "string",
          "name": "nftName_",
          "type": "string"
        },
        {
          "internalType": "string",
          "name": "nftSymbol_",
          "type": "string"
        },
        {
          "internalType": "address",
          "name": "_owner",
          "type": "address"
        }
      ],
      "stateMutability": "nonpayable",
      "type": "constructor"
    },
    {
      "anonymous": false,
      "inputs": [
        {
          "indexed": true,
          "internalType": "address",
          "name": "owner",
          "type": "address"
        },
        {
          "indexed": true,
          "internalType": "address",
          "name": "spender",
          "type": "address"
        },
        {
          "indexed": false,
          "internalType": "uint256",
          "name": "value",
          "type": "uint256"
        }
      ],
      "name": "Approval",
      "type": "event"
    },
    {
      "anonymous": false,
      "inputs": [
        {
          "indexed": true,
          "internalType": "address",
          "name": "previousOwner",
          "type": "address"
        },
        {
          "indexed": true,
          "internalType": "address",
          "name": "newOwner",
          "type": "address"
        }
      ],
      "name": "OwnershipTransferred",
      "type": "event"
    },
    {
      "anonymous": false,
      "inputs": [
        {
          "indexed": false,
          "internalType": "address",
          "name": "",
          "type": "address"
        },
        {
          "indexed": false,
          "internalType": "uint256",
          "name": "",
          "type": "uint256"
        }
      ],
      "name": "Received",
      "type": "event"
    },
    {
      "anonymous": false,
      "inputs": [
        {
          "indexed": true,
          "internalType": "address",
          "name": "from",
          "type": "address"
        },
        {
          "indexed": true,
          "internalType": "address",
          "name": "to",
          "type": "address"
        },
        {
          "indexed": false,
          "internalType": "uint256",
          "name": "value",
          "type": "uint256"
        }
      ],
      "name": "Transfer",
      "type": "event"
    },
    {
      "inputs": [],
      "name": "owner",
      "outputs": [
        {
          "internalType": "address",
          "name": "",
          "type": "address"
        }
      ],
      "stateMutability": "view",
      "type": "function"
    },
    {
      "inputs": [],
      "name": "renounceOwnership",
      "outputs": [],
      "stateMutability": "nonpayable",
      "type": "function"
    },
    {
      "inputs": [
        {
          "internalType": "address",
          "name": "newOwner",
          "type": "address"
        }
      ],
      "name": "transferOwnership",
      "outputs": [],
      "stateMutability": "nonpayable",
      "type": "function"
    },
    {
      "inputs": [],
      "name": "totalSupply",
      "outputs": [
        {
          "internalType": "uint256",
          "name": "",
          "type": "uint256"
        }
      ],
      "stateMutability": "view",
      "type": "function"
    },
    {
      "inputs": [],
      "name": "maxSupply",
      "outputs": [
        {
          "internalType": "uint256",
          "name": "",
          "type": "uint256"
        }
      ],
      "stateMutability": "view",
      "type": "function"
    },
    {
      "inputs": [],
      "name": "getOwner",
      "outputs": [
        {
          "internalType": "address",
          "name": "",
          "type": "address"
        }
      ],
      "stateMutability": "view",
      "type": "function"
    },
    {
      "inputs": [],
      "name": "name",
      "outputs": [
        {
          "internalType": "string",
          "name": "",
          "type": "string"
        }
      ],
      "stateMutability": "view",
      "type": "function"
    },
    {
      "inputs": [],
      "name": "decimals",
      "outputs": [
        {
          "internalType": "uint8",
          "name": "",
          "type": "uint8"
        }
      ],
      "stateMutability": "view",
      "type": "function"
    },
    {
      "inputs": [],
      "name": "symbol",
      "outputs": [
        {
          "internalType": "string",
          "name": "",
          "type": "string"
        }
      ],
      "stateMutability": "view",
      "type": "function"
    },
    {
      "inputs": [],
      "name": "nftName",
      "outputs": [
        {
          "internalType": "string",
          "name": "",
          "type": "string"
        }
      ],
      "stateMutability": "view",
      "type": "function"
    },
    {
      "inputs": [],
      "name": "nftSymbol",
      "outputs": [
        {
          "internalType": "string",
          "name": "",
          "type": "string"
        }
      ],
      "stateMutability": "view",
      "type": "function"
    },
    {
      "inputs": [],
      "name": "initialPrice",
      "outputs": [
        {
          "internalType": "uint256",
          "name": "",
          "type": "uint256"
        }
      ],
      "stateMutability": "view",
      "type": "function"
    },
    {
      "inputs": [],
      "name": "saleAddress",
      "outputs": [
        {
          "internalType": "address",
          "name": "",
          "type": "address"
        }
      ],
      "stateMutability": "view",
      "type": "function"
    },
    {
      "inputs": [
        {
          "internalType": "address",
          "name": "tokenOwner",
          "type": "address"
        }
      ],
      "name": "balanceOf",
      "outputs": [
        {
          "internalType": "uint256",
          "name": "balance",
          "type": "uint256"
        }
      ],
      "stateMutability": "view",
      "type": "function"
    },
    {
      "inputs": [
        {
          "internalType": "address",
          "name": "tokenOwner",
          "type": "address"
        },
        {
          "internalType": "address",
          "name": "spender",
          "type": "address"
        }
      ],
      "name": "allowance",
      "outputs": [
        {
          "internalType": "uint256",
          "name": "remaining",
          "type": "uint256"
        }
      ],
      "stateMutability": "view",
      "type": "function"
    },
    {
      "inputs": [
        {
          "internalType": "address",
          "name": "_to",
          "type": "address"
        },
        {
          "internalType": "uint256",
          "name": "_amount",
          "type": "uint256"
        }
      ],
      "name": "transfer",
      "outputs": [
        {
          "internalType": "bool",
          "name": "success",
          "type": "bool"
        }
      ],
      "stateMutability": "nonpayable",
      "type": "function"
    },
    {
      "inputs": [
        {
          "internalType": "address",
          "name": "_spender",
          "type": "address"
        },
        {
          "internalType": "uint256",
          "name": "_amount",
          "type": "uint256"
        }
      ],
      "name": "approve",
      "outputs": [
        {
          "internalType": "bool",
          "name": "success",
          "type": "bool"
        }
      ],
      "stateMutability": "nonpayable",
      "type": "function"
    },
    {
      "inputs": [
        {
          "internalType": "address",
          "name": "_from",
          "type": "address"
        },
        {
          "internalType": "address",
          "name": "_to",
          "type": "address"
        },
        {
          "internalType": "uint256",
          "name": "_amount",
          "type": "uint256"
        }
      ],
      "name": "transferFrom",
      "outputs": [
        {
          "internalType": "bool",
          "name": "success",
          "type": "bool"
        }
      ],
      "stateMutability": "nonpayable",
      "type": "function"
    },
    {
      "inputs": [
        {
          "internalType": "address",
          "name": "_address",
          "type": "address"
        },
        {
          "internalType": "uint256",
          "name": "_amount",
          "type": "uint256"
        }
      ],
      "name": "mint",
      "outputs": [
        {
          "internalType": "bool",
          "name": "",
          "type": "bool"
        }
      ],
      "stateMutability": "nonpayable",
      "type": "function"
    },
    {
      "inputs": [
        {
          "internalType": "address",
          "name": "_spender",
          "type": "address"
        },
        {
          "internalType": "uint256",
          "name": "_amount",
          "type": "uint256"
        }
      ],
      "name": "increaseAllowance",
      "outputs": [
        {
          "internalType": "bool",
          "name": "",
          "type": "bool"
        }
      ],
      "stateMutability": "nonpayable",
      "type": "function"
    },
    {
      "inputs": [
        {
          "internalType": "address",
          "name": "_spender",
          "type": "address"
        },
        {
          "internalType": "uint256",
          "name": "_amount",
          "type": "uint256"
        }
      ],
      "name": "decreaseAllowance",
      "outputs": [
        {
          "internalType": "bool",
          "name": "",
          "type": "bool"
        }
      ],
      "stateMutability": "nonpayable",
      "type": "function"
    }
  ],
  "bytecode": "0x60806040523480156200001157600080fd5b5060405162004a9e38038062004a9e833981810160405281019062000037919062000599565b620000576200004b620001d260201b60201c565b620001da60201b60201c565b6200006881620001da60201b60201c565b8860039080519060200190620000809291906200029e565b506012600560006101000a81548160ff021916908360ff1602179055508760049080519060200190620000b59291906200029e565b50600560009054906101000a900460ff16600a620000d4919062000884565b87620000e19190620008d5565b600681905550856008819055508260099080519060200190620001069291906200029e565b5081600a90805190602001906200011f9291906200029e565b506000600781905550600081308787739d83e140330758a8ffd07f8bd73e86ebca8a569260405162000151906200032f565b6200016195949392919062000958565b604051809103906000f0801580156200017e573d6000803e3d6000fd5b50905080600b60006101000a81548173ffffffffffffffffffffffffffffffffffffffff021916908373ffffffffffffffffffffffffffffffffffffffff1602179055505050505050505050505062000a19565b600033905090565b60008060009054906101000a900473ffffffffffffffffffffffffffffffffffffffff169050816000806101000a81548173ffffffffffffffffffffffffffffffffffffffff021916908373ffffffffffffffffffffffffffffffffffffffff1602179055508173ffffffffffffffffffffffffffffffffffffffff168173ffffffffffffffffffffffffffffffffffffffff167f8be0079c531659141344cd1fd0a4f28419497f9722a3daafe3b4186f6b6457e060405160405180910390a35050565b828054620002ac90620009e4565b90600052602060002090601f016020900481019282620002d057600085556200031c565b82601f10620002eb57805160ff19168380011785556200031c565b828001600101855582156200031c579182015b828111156200031b578251825591602001919060010190620002fe565b5b5090506200032b91906200033d565b5090565b611ec68062002bd883390190565b5b80821115620003585760008160009055506001016200033e565b5090565b6000604051905090565b600080fd5b600080fd5b600080fd5b600080fd5b6000601f19601f8301169050919050565b7f4e487b7100000000000000000000000000000000000000000000000000000000600052604160045260246000fd5b620003c5826200037a565b810181811067ffffffffffffffff82111715620003e757620003e66200038b565b5b80604052505050565b6000620003fc6200035c565b90506200040a8282620003ba565b919050565b600067ffffffffffffffff8211156200042d576200042c6200038b565b5b62000438826200037a565b9050602081019050919050565b60005b838110156200046557808201518184015260208101905062000448565b8381111562000475576000848401525b50505050565b6000620004926200048c846200040f565b620003f0565b905082815260208101848484011115620004b157620004b062000375565b5b620004be84828562000445565b509392505050565b600082601f830112620004de57620004dd62000370565b5b8151620004f08482602086016200047b565b91505092915050565b6000819050919050565b6200050e81620004f9565b81146200051a57600080fd5b50565b6000815190506200052e8162000503565b92915050565b600073ffffffffffffffffffffffffffffffffffffffff82169050919050565b6000620005618262000534565b9050919050565b620005738162000554565b81146200057f57600080fd5b50565b600081519050620005938162000568565b92915050565b60008060008060008060008060006101208a8c031215620005bf57620005be62000366565b5b60008a015167ffffffffffffffff811115620005e057620005df6200036b565b5b620005ee8c828d01620004c6565b99505060208a015167ffffffffffffffff8111156200061257620006116200036b565b5b620006208c828d01620004c6565b9850506040620006338c828d016200051d565b9750506060620006468c828d016200051d565b9650506080620006598c828d016200051d565b95505060a06200066c8c828d016200051d565b94505060c08a015167ffffffffffffffff81111562000690576200068f6200036b565b5b6200069e8c828d01620004c6565b93505060e08a015167ffffffffffffffff811115620006c257620006c16200036b565b5b620006d08c828d01620004c6565b925050610100620006e48c828d0162000582565b9150509295985092959850929598565b7f4e487b7100000000000000000000000000000000000000000000000000000000600052601160045260246000fd5b60008160011c9050919050565b6000808291508390505b600185111562000782578086048111156200075a5762000759620006f4565b5b60018516156200076a5780820291505b80810290506200077a8562000723565b94506200073a565b94509492505050565b6000826200079d576001905062000870565b81620007ad576000905062000870565b8160018114620007c65760028114620007d15762000807565b600191505062000870565b60ff841115620007e657620007e5620006f4565b5b8360020a9150848211156200080057620007ff620006f4565b5b5062000870565b5060208310610133831016604e8410600b8410161715620008415782820a9050838111156200083b576200083a620006f4565b5b62000870565b62000850848484600162000730565b925090508184048111156200086a5762000869620006f4565b5b81810290505b9392505050565b600060ff82169050919050565b60006200089182620004f9565b91506200089e8362000877565b9250620008cd7fffffffffffffffffffffffffffffffffffffffffffffffffffffffffffffffff84846200078b565b905092915050565b6000620008e282620004f9565b9150620008ef83620004f9565b9250817fffffffffffffffffffffffffffffffffffffffffffffffffffffffffffffffff04831182151516156200092b576200092a620006f4565b5b828202905092915050565b620009418162000554565b82525050565b6200095281620004f9565b82525050565b600060a0820190506200096f600083018862000936565b6200097e602083018762000936565b6200098d604083018662000947565b6200099c606083018562000947565b620009ab608083018462000936565b9695505050505050565b7f4e487b7100000000000000000000000000000000000000000000000000000000600052602260045260246000fd5b60006002820490506001821680620009fd57607f821691505b60208210810362000a135762000a12620009b5565b5b50919050565b6121af8062000a296000396000f3fe608060405234801561001057600080fd5b50600436106101365760003560e01c806370a08231116100b8578063a457c2d71161007c578063a457c2d714610343578063a9059cbb14610373578063d5abeb01146103a3578063dd62ed3e146103c1578063f2fde38b146103f1578063fffe088d1461040d57610136565b806370a08231146102af578063715018a6146102df578063893d20e8146102e95780638da5cb5b1461030757806395d89b411461032557610136565b80631d0806ae116100ff5780631d0806ae146101e357806323b872dd14610201578063313ce56714610231578063395093511461024f57806340c10f191461027f57610136565b80628bfb001461013b57806306fdde0314610159578063095ea7b31461017757806312c0f3d3146101a757806318160ddd146101c5575b600080fd5b61014361042b565b604051610150919061158c565b60405180910390f35b6101616104bd565b60405161016e919061158c565b60405180910390f35b610191600480360381019061018c9190611647565b61054f565b60405161019e91906116a2565b60405180910390f35b6101af61058c565b6040516101bc919061158c565b60405180910390f35b6101cd61061e565b6040516101da91906116cc565b60405180910390f35b6101eb610628565b6040516101f891906116cc565b60405180910390f35b61021b600480360381019061021691906116e7565b610632565b60405161022891906116a2565b60405180910390f35b6102396106fd565b6040516102469190611756565b60405180910390f35b61026960048036038101906102649190611647565b610714565b60405161027691906116a2565b60405180910390f35b61029960048036038101906102949190611647565b610765565b6040516102a691906116a2565b60405180910390f35b6102c960048036038101906102c49190611771565b610906565b6040516102d691906116cc565b60405180910390f35b6102e761094f565b005b6102f16109d7565b6040516102fe91906117ad565b60405180910390f35b61030f6109e6565b60405161031c91906117ad565b60405180910390f35b61032d610a0f565b60405161033a919061158c565b60405180910390f35b61035d60048036038101906103589190611647565b610aa1565b60405161036a91906116a2565b60405180910390f35b61038d60048036038101906103889190611647565b610b64565b60405161039a91906116a2565b60405180910390f35b6103ab610c23565b6040516103b891906116cc565b60405180910390f35b6103db60048036038101906103d691906117c8565b610c2d565b6040516103e891906116cc565b60405180910390f35b61040b60048036038101906104069190611771565b610cb4565b005b610415610dab565b60405161042291906117ad565b60405180910390f35b60606009805461043a90611837565b80601f016020809104026020016040519081016040528092919081815260200182805461046690611837565b80156104b35780601f10610488576101008083540402835291602001916104b3565b820191906000526020600020905b81548152906001019060200180831161049657829003601f168201915b5050505050905090565b6060600380546104cc90611837565b80601f01602080910402602001604051908101604052809291908181526020018280546104f890611837565b80156105455780601f1061051a57610100808354040283529160200191610545565b820191906000526020600020905b81548152906001019060200180831161052857829003601f168201915b5050505050905090565b60006105823384600560009054906101000a900460ff16600a61057291906119ca565b8561057d9190611a15565b610dd5565b6001905092915050565b6060600a805461059b90611837565b80601f01602080910402602001604051908101604052809291908181526020018280546105c790611837565b80156106145780601f106105e957610100808354040283529160200191610614565b820191906000526020600020905b8154815290600101906020018083116105f757829003601f168201915b5050505050905090565b6000600754905090565b6000600854905090565b600081600160008673ffffffffffffffffffffffffffffffffffffffff1673ffffffffffffffffffffffffffffffffffffffff1681526020019081526020016000205410156106b6576040517f08c379a00000000000000000000000000000000000000000000000000000000081526004016106ad90611abb565b60405180910390fd5b6106c1843384611020565b6106f28484600560009054906101000a900460ff16600a6106e291906119ca565b856106ed9190611a15565b611289565b600190509392505050565b6000600560009054906101000a900460ff16905090565b600061075b3384600560009054906101000a900460ff16600a61073791906119ca565b856107429190611a15565b61074c3388610c2d565b6107569190611adb565b610dd5565b6001905092915050565b60008073ffffffffffffffffffffffffffffffffffffffff168373ffffffffffffffffffffffffffffffffffffffff16036107d5576040517f08c379a00000000000000000000000000000000000000000000000000000000081526004016107cc90611b7d565b60405180910390fd5b816007546107e39190611adb565b6006541015610827576040517f08c379a000000000000000000000000000000000000000000000000000000000815260040161081e90611be9565b60405180910390fd5b81600760008282546108399190611adb565b9250508190555081600160008573ffffffffffffffffffffffffffffffffffffffff1673ffffffffffffffffffffffffffffffffffffffff168152602001908152602001600020600082825461088f9190611adb565b925050819055508273ffffffffffffffffffffffffffffffffffffffff16600073ffffffffffffffffffffffffffffffffffffffff167fddf252ad1be2c89b69c2b068fc378daa952ba7f163c4a11628f55a4df523b3ef846040516108f491906116cc565b60405180910390a36001905092915050565b6000600160008373ffffffffffffffffffffffffffffffffffffffff1673ffffffffffffffffffffffffffffffffffffffff168152602001908152602001600020549050919050565b610957611427565b73ffffffffffffffffffffffffffffffffffffffff166109756109e6565b73ffffffffffffffffffffffffffffffffffffffff16146109cb576040517f08c379a00000000000000000000000000000000000000000000000000000000081526004016109c290611c55565b60405180910390fd5b6109d5600061142f565b565b60006109e16109e6565b905090565b60008060009054906101000a900473ffffffffffffffffffffffffffffffffffffffff16905090565b606060048054610a1e90611837565b80601f0160208091040260200160405190810160405280929190818152602001828054610a4a90611837565b8015610a975780601f10610a6c57610100808354040283529160200191610a97565b820191906000526020600020905b815481529060010190602001808311610a7a57829003601f168201915b5050505050905090565b6000600560009054906101000a900460ff16600a610abf91906119ca565b82610aca9190611a15565b610ad43385610c2d565b1015610b15576040517f08c379a0000000000000000000000000000000000000000000000000000000008152600401610b0c90611ce7565b60405180910390fd5b610b5a3384600560009054906101000a900460ff16600a610b3691906119ca565b85610b419190611a15565b610b4b3388610c2d565b610b559190611d07565b610dd5565b6001905092915050565b600081600160003373ffffffffffffffffffffffffffffffffffffffff1673ffffffffffffffffffffffffffffffffffffffff168152602001908152602001600020541015610be8576040517f08c379a0000000000000000000000000000000000000000000000000000000008152600401610bdf90611abb565b60405180910390fd5b610c193384600560009054906101000a900460ff16600a610c0991906119ca565b85610c149190611a15565b611289565b6001905092915050565b6000600654905090565b6000600260008473ffffffffffffffffffffffffffffffffffffffff1673ffffffffffffffffffffffffffffffffffffffff16815260200190815260200160002060008373ffffffffffffffffffffffffffffffffffffffff1673ffffffffffffffffffffffffffffffffffffffff16815260200190815260200160002054905092915050565b610cbc611427565b73ffffffffffffffffffffffffffffffffffffffff16610cda6109e6565b73ffffffffffffffffffffffffffffffffffffffff1614610d30576040517f08c379a0000000000000000000000000000000000000000000000000000000008152600401610d2790611c55565b60405180910390fd5b600073ffffffffffffffffffffffffffffffffffffffff168173ffffffffffffffffffffffffffffffffffffffff1603610d9f576040517f08c379a0000000000000000000000000000000000000000000000000000000008152600401610d9690611dad565b60405180910390fd5b610da88161142f565b50565b6000600b60009054906101000a900473ffffffffffffffffffffffffffffffffffffffff16905090565b600073ffffffffffffffffffffffffffffffffffffffff168373ffffffffffffffffffffffffffffffffffffffff1603610e44576040517f08c379a0000000000000000000000000000000000000000000000000000000008152600401610e3b90611e19565b60405180910390fd5b600073ffffffffffffffffffffffffffffffffffffffff168273ffffffffffffffffffffffffffffffffffffffff1603610eb3576040517f08c379a0000000000000000000000000000000000000000000000000000000008152600401610eaa90611e85565b60405180910390fd5b80600160008573ffffffffffffffffffffffffffffffffffffffff1673ffffffffffffffffffffffffffffffffffffffff168152602001908152602001600020541015610f35576040517f08c379a0000000000000000000000000000000000000000000000000000000008152600401610f2c90611ef1565b60405180910390fd5b80600260008573ffffffffffffffffffffffffffffffffffffffff1673ffffffffffffffffffffffffffffffffffffffff16815260200190815260200160002060008473ffffffffffffffffffffffffffffffffffffffff1673ffffffffffffffffffffffffffffffffffffffff168152602001908152602001600020819055508173ffffffffffffffffffffffffffffffffffffffff168373ffffffffffffffffffffffffffffffffffffffff167f8c5be1e5ebec7d5bd14f71427d1e84f3dd0314c0f7b2291e5b200ac8c7c3b9258360405161101391906116cc565b60405180910390a3505050565b600073ffffffffffffffffffffffffffffffffffffffff168373ffffffffffffffffffffffffffffffffffffffff160361108f576040517f08c379a000000000000000000000000000000000000000000000000000000000815260040161108690611f83565b60405180910390fd5b600073ffffffffffffffffffffffffffffffffffffffff168273ffffffffffffffffffffffffffffffffffffffff16036110fe576040517f08c379a00000000000000000000000000000000000000000000000000000000081526004016110f590612015565b60405180910390fd5b600560009054906101000a900460ff16600a61111a91906119ca565b816111259190611a15565b600260008573ffffffffffffffffffffffffffffffffffffffff1673ffffffffffffffffffffffffffffffffffffffff16815260200190815260200160002060008473ffffffffffffffffffffffffffffffffffffffff1673ffffffffffffffffffffffffffffffffffffffff1681526020019081526020016000205410156111e3576040517f08c379a00000000000000000000000000000000000000000000000000000000081526004016111da90612081565b60405180910390fd5b600560009054906101000a900460ff1660ff16600a0a8102600260008573ffffffffffffffffffffffffffffffffffffffff1673ffffffffffffffffffffffffffffffffffffffff16815260200190815260200160002060008473ffffffffffffffffffffffffffffffffffffffff1673ffffffffffffffffffffffffffffffffffffffff16815260200190815260200160002060008282540392505081905550505050565b600073ffffffffffffffffffffffffffffffffffffffff168373ffffffffffffffffffffffffffffffffffffffff16036112f8576040517f08c379a00000000000000000000000000000000000000000000000000000000081526004016112ef906120ed565b60405180910390fd5b600073ffffffffffffffffffffffffffffffffffffffff168273ffffffffffffffffffffffffffffffffffffffff1603611367576040517f08c379a000000000000000000000000000000000000000000000000000000000815260040161135e90612159565b60405180910390fd5b80600160008473ffffffffffffffffffffffffffffffffffffffff1673ffffffffffffffffffffffffffffffffffffffff16815260200190815260200160002060008282546113b69190611adb565b925050819055508173ffffffffffffffffffffffffffffffffffffffff168373ffffffffffffffffffffffffffffffffffffffff167fddf252ad1be2c89b69c2b068fc378daa952ba7f163c4a11628f55a4df523b3ef8360405161141a91906116cc565b60405180910390a3505050565b600033905090565b60008060009054906101000a900473ffffffffffffffffffffffffffffffffffffffff169050816000806101000a81548173ffffffffffffffffffffffffffffffffffffffff021916908373ffffffffffffffffffffffffffffffffffffffff1602179055508173ffffffffffffffffffffffffffffffffffffffff168173ffffffffffffffffffffffffffffffffffffffff167f8be0079c531659141344cd1fd0a4f28419497f9722a3daafe3b4186f6b6457e060405160405180910390a35050565b600081519050919050565b600082825260208201905092915050565b60005b8381101561152d578082015181840152602081019050611512565b8381111561153c576000848401525b50505050565b6000601f19601f8301169050919050565b600061155e826114f3565b61156881856114fe565b935061157881856020860161150f565b61158181611542565b840191505092915050565b600060208201905081810360008301526115a68184611553565b905092915050565b600080fd5b600073ffffffffffffffffffffffffffffffffffffffff82169050919050565b60006115de826115b3565b9050919050565b6115ee816115d3565b81146115f957600080fd5b50565b60008135905061160b816115e5565b92915050565b6000819050919050565b61162481611611565b811461162f57600080fd5b50565b6000813590506116418161161b565b92915050565b6000806040838503121561165e5761165d6115ae565b5b600061166c858286016115fc565b925050602061167d85828601611632565b9150509250929050565b60008115159050919050565b61169c81611687565b82525050565b60006020820190506116b76000830184611693565b92915050565b6116c681611611565b82525050565b60006020820190506116e160008301846116bd565b92915050565b600080600060608486031215611700576116ff6115ae565b5b600061170e868287016115fc565b935050602061171f868287016115fc565b925050604061173086828701611632565b9150509250925092565b600060ff82169050919050565b6117508161173a565b82525050565b600060208201905061176b6000830184611747565b92915050565b600060208284031215611787576117866115ae565b5b6000611795848285016115fc565b91505092915050565b6117a7816115d3565b82525050565b60006020820190506117c2600083018461179e565b92915050565b600080604083850312156117df576117de6115ae565b5b60006117ed858286016115fc565b92505060206117fe858286016115fc565b9150509250929050565b7f4e487b7100000000000000000000000000000000000000000000000000000000600052602260045260246000fd5b6000600282049050600182168061184f57607f821691505b60208210810361186257611861611808565b5b50919050565b7f4e487b7100000000000000000000000000000000000000000000000000000000600052601160045260246000fd5b60008160011c9050919050565b6000808291508390505b60018511156118ee578086048111156118ca576118c9611868565b5b60018516156118d95780820291505b80810290506118e785611897565b94506118ae565b94509492505050565b60008261190757600190506119c3565b8161191557600090506119c3565b816001811461192b576002811461193557611964565b60019150506119c3565b60ff84111561194757611946611868565b5b8360020a91508482111561195e5761195d611868565b5b506119c3565b5060208310610133831016604e8410600b84101617156119995782820a90508381111561199457611993611868565b5b6119c3565b6119a684848460016118a4565b925090508184048111156119bd576119bc611868565b5b81810290505b9392505050565b60006119d582611611565b91506119e08361173a565b9250611a0d7fffffffffffffffffffffffffffffffffffffffffffffffffffffffffffffffff84846118f7565b905092915050565b6000611a2082611611565b9150611a2b83611611565b9250817fffffffffffffffffffffffffffffffffffffffffffffffffffffffffffffffff0483118215151615611a6457611a63611868565b5b828202905092915050565b7f416d6f756e7420657863656564732062616c616e636500000000000000000000600082015250565b6000611aa56016836114fe565b9150611ab082611a6f565b602082019050919050565b60006020820190508181036000830152611ad481611a98565b9050919050565b6000611ae682611611565b9150611af183611611565b9250827fffffffffffffffffffffffffffffffffffffffffffffffffffffffffffffffff03821115611b2657611b25611868565b5b828201905092915050565b7f43616e6e6f74206d696e7420746f206164647265737320300000000000000000600082015250565b6000611b676018836114fe565b9150611b7282611b31565b602082019050919050565b60006020820190508181036000830152611b9681611b5a565b9050919050565b7f4d617820737570706c7920657863656564656400000000000000000000000000600082015250565b6000611bd36013836114fe565b9150611bde82611b9d565b602082019050919050565b60006020820190508181036000830152611c0281611bc6565b9050919050565b7f4f776e61626c653a2063616c6c6572206973206e6f7420746865206f776e6572600082015250565b6000611c3f6020836114fe565b9150611c4a82611c09565b602082019050919050565b60006020820190508181036000830152611c6e81611c32565b9050919050565b7f416c6c6f77616e63652063616e6e6f74206265206c657373207468616e207a6560008201527f726f000000000000000000000000000000000000000000000000000000000000602082015250565b6000611cd16022836114fe565b9150611cdc82611c75565b604082019050919050565b60006020820190508181036000830152611d0081611cc4565b9050919050565b6000611d1282611611565b9150611d1d83611611565b925082821015611d3057611d2f611868565b5b828203905092915050565b7f4f776e61626c653a206e6577206f776e657220697320746865207a65726f206160008201527f6464726573730000000000000000000000000000000000000000000000000000602082015250565b6000611d976026836114fe565b9150611da282611d3b565b604082019050919050565b60006020820190508181036000830152611dc681611d8a565b9050919050565b7f63616e6e6f7420617070726f76652066726f6d20616464726573732030000000600082015250565b6000611e03601d836114fe565b9150611e0e82611dcd565b602082019050919050565b60006020820190508181036000830152611e3281611df6565b9050919050565b7f63616e6e6f7420617070726f766520746f206164647265737320300000000000600082015250565b6000611e6f601b836114fe565b9150611e7a82611e39565b602082019050919050565b60006020820190508181036000830152611e9e81611e62565b9050919050565b7f6e6f7420656e6f75676820746f6b656e00000000000000000000000000000000600082015250565b6000611edb6010836114fe565b9150611ee682611ea5565b602082019050919050565b60006020820190508181036000830152611f0a81611ece565b9050919050565b7f63616e6e6f74207370656e6420616c6c6f776e6163652066726f6d206164647260008201527f6573732030000000000000000000000000000000000000000000000000000000602082015250565b6000611f6d6025836114fe565b9150611f7882611f11565b604082019050919050565b60006020820190508181036000830152611f9c81611f60565b9050919050565b7f63616e6e6f74207370656e6420616c6c6f776e61636520746f2061646472657360008201527f7320300000000000000000000000000000000000000000000000000000000000602082015250565b6000611fff6023836114fe565b915061200a82611fa3565b604082019050919050565b6000602082019050818103600083015261202e81611ff2565b9050919050565b7f6e6f7420656e6f75676820746f6b656e20616c6c6f7765640000000000000000600082015250565b600061206b6018836114fe565b915061207682612035565b602082019050919050565b6000602082019050818103600083015261209a8161205e565b9050919050565b7f7472616e736665722066726f6d20746865207a65726f20616464726573730000600082015250565b60006120d7601e836114fe565b91506120e2826120a1565b602082019050919050565b60006020820190508181036000830152612106816120ca565b9050919050565b7f7472616e7366657220746f20746865207a65726f206164647265737300000000600082015250565b6000612143601c836114fe565b915061214e8261210d565b602082019050919050565b6000602082019050818103600083015261217281612136565b905091905056fea264697066735822122063058cf0f637fa4a3c34503693ee5ef41835524dd74f07461f8e9de269500bb764736f6c634300080e003360806040523480156200001157600080fd5b5060405162001ec638038062001ec6833981810160405281019062000037919062000274565b620000576200004b6200010360201b60201c565b6200010b60201b60201c565b62000068856200010b60201b60201c565b80600460006101000a81548173ffffffffffffffffffffffffffffffffffffffff021916908373ffffffffffffffffffffffffffffffffffffffff16021790555083600160006101000a81548173ffffffffffffffffffffffffffffffffffffffff021916908373ffffffffffffffffffffffffffffffffffffffff16021790555082600281905550816003819055505050505050620002fc565b600033905090565b60008060009054906101000a900473ffffffffffffffffffffffffffffffffffffffff169050816000806101000a81548173ffffffffffffffffffffffffffffffffffffffff021916908373ffffffffffffffffffffffffffffffffffffffff1602179055508173ffffffffffffffffffffffffffffffffffffffff168173ffffffffffffffffffffffffffffffffffffffff167f8be0079c531659141344cd1fd0a4f28419497f9722a3daafe3b4186f6b6457e060405160405180910390a35050565b600080fd5b600073ffffffffffffffffffffffffffffffffffffffff82169050919050565b60006200020182620001d4565b9050919050565b6200021381620001f4565b81146200021f57600080fd5b50565b600081519050620002338162000208565b92915050565b6000819050919050565b6200024e8162000239565b81146200025a57600080fd5b50565b6000815190506200026e8162000243565b92915050565b600080600080600060a08688031215620002935762000292620001cf565b5b6000620002a38882890162000222565b9550506020620002b68882890162000222565b9450506040620002c9888289016200025d565b9350506060620002dc888289016200025d565b9250506080620002ef8882890162000222565b9150509295509295909350565b611bba806200030c6000396000f3fe608060405234801561001057600080fd5b50600436106101005760003560e01c8063715018a611610097578063ab0bcc4111610066578063ab0bcc4114610275578063c10b935814610293578063efef39a1146102b1578063f2fde38b146102cd57610100565b8063715018a614610211578063893d20e81461021b5780638da5cb5b146102395780639d76ea581461025757610100565b806351cff8d9116100d357806351cff8d91461018b57806361778592146101a7578063617fba04146101c55780636f9c6149146101f557610100565b80632407645114610105578063295e4edf14610135578063336bea1c146101515780634e71d92d14610181575b600080fd5b61011f600480360381019061011a9190611273565b6102e9565b60405161012c91906112b9565b60405180910390f35b61014f600480360381019061014a9190611300565b61038e565b005b61016b60048036038101906101669190611300565b610414565b6040516101789190611348565b60405180910390f35b61018961066e565b005b6101a560048036038101906101a09190611273565b6107d8565b005b6101af610989565b6040516101bc9190611372565b60405180910390f35b6101df60048036038101906101da9190611273565b6109af565b6040516101ec91906112b9565b60405180910390f35b61020f600480360381019061020a9190611300565b6109f8565b005b610219610a7e565b005b610223610b06565b6040516102309190611372565b60405180910390f35b610241610b15565b60405161024e9190611372565b60405180910390f35b61025f610b3e565b60405161026c9190611372565b60405180910390f35b61027d610b68565b60405161028a91906112b9565b60405180910390f35b61029b610b72565b6040516102a891906112b9565b60405180910390f35b6102cb60048036038101906102c69190611300565b610b7c565b005b6102e760048036038101906102e29190611273565b610cc1565b005b6000600460009054906101000a900473ffffffffffffffffffffffffffffffffffffffff1673ffffffffffffffffffffffffffffffffffffffff166370a08231836040518263ffffffff1660e01b81526004016103469190611372565b602060405180830381865afa158015610363573d6000803e3d6000fd5b505050506040513d601f19601f8201168201806040525081019061038791906113a2565b9050919050565b610396610db8565b73ffffffffffffffffffffffffffffffffffffffff166103b4610b15565b73ffffffffffffffffffffffffffffffffffffffff161461040a576040517f08c379a00000000000000000000000000000000000000000000000000000000081526004016104019061142c565b60405180910390fd5b8060028190555050565b6000670de0b6b3a76400008261042a919061147b565b600460009054906101000a900473ffffffffffffffffffffffffffffffffffffffff1673ffffffffffffffffffffffffffffffffffffffff166370a08231306040518263ffffffff1660e01b81526004016104859190611372565b602060405180830381865afa1580156104a2573d6000803e3d6000fd5b505050506040513d601f19601f820116820180604052508101906104c691906113a2565b1015610507576040517f08c379a00000000000000000000000000000000000000000000000000000000081526004016104fe90611521565b60405180910390fd5b670de0b6b3a76400008261051b919061147b565b600560003373ffffffffffffffffffffffffffffffffffffffff1673ffffffffffffffffffffffffffffffffffffffff16815260200190815260200160002054101561059c576040517f08c379a0000000000000000000000000000000000000000000000000000000008152600401610593906115b3565b60405180910390fd5b6105fc33670de0b6b3a7640000846105b4919061147b565b600460009054906101000a900473ffffffffffffffffffffffffffffffffffffffff1673ffffffffffffffffffffffffffffffffffffffff16610dc09092919063ffffffff16565b670de0b6b3a764000082610610919061147b565b600560003373ffffffffffffffffffffffffffffffffffffffff1673ffffffffffffffffffffffffffffffffffffffff168152602001908152602001600020600082825461065e91906115d3565b9250508190555060019050919050565b6003544210156106b3576040517f08c379a00000000000000000000000000000000000000000000000000000000081526004016106aa90611653565b60405180910390fd5b600160009054906101000a900473ffffffffffffffffffffffffffffffffffffffff1673ffffffffffffffffffffffffffffffffffffffff166340c10f1933600560003373ffffffffffffffffffffffffffffffffffffffff1673ffffffffffffffffffffffffffffffffffffffff168152602001908152602001600020546040518363ffffffff1660e01b815260040161074f929190611673565b6020604051808303816000875af115801561076e573d6000803e3d6000fd5b505050506040513d601f19601f8201168201806040525081019061079291906116c8565b50600560003373ffffffffffffffffffffffffffffffffffffffff1673ffffffffffffffffffffffffffffffffffffffff16815260200190815260200160002060009055565b6107e0610db8565b73ffffffffffffffffffffffffffffffffffffffff166107fe610b15565b73ffffffffffffffffffffffffffffffffffffffff1614610854576040517f08c379a000000000000000000000000000000000000000000000000000000000815260040161084b9061142c565b60405180910390fd5b6003544211610898576040517f08c379a000000000000000000000000000000000000000000000000000000000815260040161088f90611653565b60405180910390fd5b6000600460009054906101000a900473ffffffffffffffffffffffffffffffffffffffff1673ffffffffffffffffffffffffffffffffffffffff166370a08231306040518263ffffffff1660e01b81526004016108f59190611372565b602060405180830381865afa158015610912573d6000803e3d6000fd5b505050506040513d601f19601f8201168201806040525081019061093691906113a2565b90506109858282600460009054906101000a900473ffffffffffffffffffffffffffffffffffffffff1673ffffffffffffffffffffffffffffffffffffffff16610dc09092919063ffffffff16565b5050565b600460009054906101000a900473ffffffffffffffffffffffffffffffffffffffff1681565b6000600560008373ffffffffffffffffffffffffffffffffffffffff1673ffffffffffffffffffffffffffffffffffffffff168152602001908152602001600020549050919050565b610a00610db8565b73ffffffffffffffffffffffffffffffffffffffff16610a1e610b15565b73ffffffffffffffffffffffffffffffffffffffff1614610a74576040517f08c379a0000000000000000000000000000000000000000000000000000000008152600401610a6b9061142c565b60405180910390fd5b8060038190555050565b610a86610db8565b73ffffffffffffffffffffffffffffffffffffffff16610aa4610b15565b73ffffffffffffffffffffffffffffffffffffffff1614610afa576040517f08c379a0000000000000000000000000000000000000000000000000000000008152600401610af19061142c565b60405180910390fd5b610b046000610e46565b565b6000610b10610b15565b905090565b60008060009054906101000a900473ffffffffffffffffffffffffffffffffffffffff16905090565b6000600160009054906101000a900473ffffffffffffffffffffffffffffffffffffffff16905090565b6000600254905090565b6000600354905090565b600254421015610bc1576040517f08c379a0000000000000000000000000000000000000000000000000000000008152600401610bb890611741565b60405180910390fd5b600354421115610c06576040517f08c379a0000000000000000000000000000000000000000000000000000000008152600401610bfd906117ad565b60405180910390fd5b610c55333083600460009054906101000a900473ffffffffffffffffffffffffffffffffffffffff1673ffffffffffffffffffffffffffffffffffffffff16610f0a909392919063ffffffff16565b670de0b6b3a764000081610c69919061147b565b600560003373ffffffffffffffffffffffffffffffffffffffff1673ffffffffffffffffffffffffffffffffffffffff1681526020019081526020016000206000828254610cb791906117cd565b9250508190555050565b610cc9610db8565b73ffffffffffffffffffffffffffffffffffffffff16610ce7610b15565b73ffffffffffffffffffffffffffffffffffffffff1614610d3d576040517f08c379a0000000000000000000000000000000000000000000000000000000008152600401610d349061142c565b60405180910390fd5b600073ffffffffffffffffffffffffffffffffffffffff168173ffffffffffffffffffffffffffffffffffffffff1603610dac576040517f08c379a0000000000000000000000000000000000000000000000000000000008152600401610da390611895565b60405180910390fd5b610db581610e46565b50565b600033905090565b610e418363a9059cbb60e01b8484604051602401610ddf929190611673565b604051602081830303815290604052907bffffffffffffffffffffffffffffffffffffffffffffffffffffffff19166020820180517bffffffffffffffffffffffffffffffffffffffffffffffffffffffff8381831617835250505050610f93565b505050565b60008060009054906101000a900473ffffffffffffffffffffffffffffffffffffffff169050816000806101000a81548173ffffffffffffffffffffffffffffffffffffffff021916908373ffffffffffffffffffffffffffffffffffffffff1602179055508173ffffffffffffffffffffffffffffffffffffffff168173ffffffffffffffffffffffffffffffffffffffff167f8be0079c531659141344cd1fd0a4f28419497f9722a3daafe3b4186f6b6457e060405160405180910390a35050565b610f8d846323b872dd60e01b858585604051602401610f2b939291906118b5565b604051602081830303815290604052907bffffffffffffffffffffffffffffffffffffffffffffffffffffffff19166020820180517bffffffffffffffffffffffffffffffffffffffffffffffffffffffff8381831617835250505050610f93565b50505050565b6000610ff5826040518060400160405280602081526020017f5361666545524332303a206c6f772d6c6576656c2063616c6c206661696c65648152508573ffffffffffffffffffffffffffffffffffffffff1661105a9092919063ffffffff16565b9050600081511115611055578080602001905181019061101591906116c8565b611054576040517f08c379a000000000000000000000000000000000000000000000000000000000815260040161104b9061195e565b60405180910390fd5b5b505050565b60606110698484600085611072565b90509392505050565b6060824710156110b7576040517f08c379a00000000000000000000000000000000000000000000000000000000081526004016110ae906119f0565b60405180910390fd5b6110c085611186565b6110ff576040517f08c379a00000000000000000000000000000000000000000000000000000000081526004016110f690611a5c565b60405180910390fd5b6000808673ffffffffffffffffffffffffffffffffffffffff1685876040516111289190611af6565b60006040518083038185875af1925050503d8060008114611165576040519150601f19603f3d011682016040523d82523d6000602084013e61116a565b606091505b509150915061117a8282866111a9565b92505050949350505050565b6000808273ffffffffffffffffffffffffffffffffffffffff163b119050919050565b606083156111b957829050611209565b6000835111156111cc5782518084602001fd5b816040517f08c379a00000000000000000000000000000000000000000000000000000000081526004016112009190611b62565b60405180910390fd5b9392505050565b600080fd5b600073ffffffffffffffffffffffffffffffffffffffff82169050919050565b600061124082611215565b9050919050565b61125081611235565b811461125b57600080fd5b50565b60008135905061126d81611247565b92915050565b60006020828403121561128957611288611210565b5b60006112978482850161125e565b91505092915050565b6000819050919050565b6112b3816112a0565b82525050565b60006020820190506112ce60008301846112aa565b92915050565b6112dd816112a0565b81146112e857600080fd5b50565b6000813590506112fa816112d4565b92915050565b60006020828403121561131657611315611210565b5b6000611324848285016112eb565b91505092915050565b60008115159050919050565b6113428161132d565b82525050565b600060208201905061135d6000830184611339565b92915050565b61136c81611235565b82525050565b60006020820190506113876000830184611363565b92915050565b60008151905061139c816112d4565b92915050565b6000602082840312156113b8576113b7611210565b5b60006113c68482850161138d565b91505092915050565b600082825260208201905092915050565b7f4f776e61626c653a2063616c6c6572206973206e6f7420746865206f776e6572600082015250565b60006114166020836113cf565b9150611421826113e0565b602082019050919050565b6000602082019050818103600083015261144581611409565b9050919050565b7f4e487b7100000000000000000000000000000000000000000000000000000000600052601160045260246000fd5b6000611486826112a0565b9150611491836112a0565b9250817fffffffffffffffffffffffffffffffffffffffffffffffffffffffffffffffff04831182151516156114ca576114c961144c565b5b828202905092915050565b7f4e6f7420656e6f75676820746f6b656e20746f2072657475726e000000000000600082015250565b600061150b601a836113cf565b9150611516826114d5565b602082019050919050565b6000602082019050818103600083015261153a816114fe565b9050919050565b7f596f7520646f6e74206861766520656e6f7567687420746f6b656e20746f207260008201527f657475726e000000000000000000000000000000000000000000000000000000602082015250565b600061159d6025836113cf565b91506115a882611541565b604082019050919050565b600060208201905081810360008301526115cc81611590565b9050919050565b60006115de826112a0565b91506115e9836112a0565b9250828210156115fc576115fb61144c565b5b828203905092915050565b7f53616c65206861736e277420656e646564000000000000000000000000000000600082015250565b600061163d6011836113cf565b915061164882611607565b602082019050919050565b6000602082019050818103600083015261166c81611630565b9050919050565b60006040820190506116886000830185611363565b61169560208301846112aa565b9392505050565b6116a58161132d565b81146116b057600080fd5b50565b6000815190506116c28161169c565b92915050565b6000602082840312156116de576116dd611210565b5b60006116ec848285016116b3565b91505092915050565b7f53616c65206861736e2774207374617274656420796574000000000000000000600082015250565b600061172b6017836113cf565b9150611736826116f5565b602082019050919050565b6000602082019050818103600083015261175a8161171e565b9050919050565b7f53616c652068617320656e646564000000000000000000000000000000000000600082015250565b6000611797600e836113cf565b91506117a282611761565b602082019050919050565b600060208201905081810360008301526117c68161178a565b9050919050565b60006117d8826112a0565b91506117e3836112a0565b9250827fffffffffffffffffffffffffffffffffffffffffffffffffffffffffffffffff038211156118185761181761144c565b5b828201905092915050565b7f4f776e61626c653a206e6577206f776e657220697320746865207a65726f206160008201527f6464726573730000000000000000000000000000000000000000000000000000602082015250565b600061187f6026836113cf565b915061188a82611823565b604082019050919050565b600060208201905081810360008301526118ae81611872565b9050919050565b60006060820190506118ca6000830186611363565b6118d76020830185611363565b6118e460408301846112aa565b949350505050565b7f5361666545524332303a204552433230206f7065726174696f6e20646964206e60008201527f6f74207375636365656400000000000000000000000000000000000000000000602082015250565b6000611948602a836113cf565b9150611953826118ec565b604082019050919050565b600060208201905081810360008301526119778161193b565b9050919050565b7f416464726573733a20696e73756666696369656e742062616c616e636520666f60008201527f722063616c6c0000000000000000000000000000000000000000000000000000602082015250565b60006119da6026836113cf565b91506119e58261197e565b604082019050919050565b60006020820190508181036000830152611a09816119cd565b9050919050565b7f416464726573733a2063616c6c20746f206e6f6e2d636f6e7472616374000000600082015250565b6000611a46601d836113cf565b9150611a5182611a10565b602082019050919050565b60006020820190508181036000830152611a7581611a39565b9050919050565b600081519050919050565b600081905092915050565b60005b83811015611ab0578082015181840152602081019050611a95565b83811115611abf576000848401525b50505050565b6000611ad082611a7c565b611ada8185611a87565b9350611aea818560208601611a92565b80840191505092915050565b6000611b028284611ac5565b915081905092915050565b600081519050919050565b6000601f19601f8301169050919050565b6000611b3482611b0d565b611b3e81856113cf565b9350611b4e818560208601611a92565b611b5781611b18565b840191505092915050565b60006020820190508181036000830152611b7c8184611b29565b90509291505056fea2646970667358221220098caea907981dc9c6545939a51ffe66f954a33976316028ddf04bc45d4cf09464736f6c634300080e0033",
  "immutableReferences": {},
  "source": "// SPDX-License-Identifier: MIT\npragma solidity ^0.8.0;\n\nimport \"./TokenSale.sol\";\nimport \"./RealEstateTokenInterface.sol\";\n\ncontract RealEstateToken is RealEstateTokenInterface , Ownable  {\n\n  mapping(address => uint256) _balances;\n  mapping(address =>mapping(address=>uint256)) _allowances;\n\n  string private _tokenName;\n  string private _tokenSymbol;\n  uint8 private _decimals;\n  uint256 private _maxSupply;\n  uint256 private _totalSupply;\n  uint256 private _initialPrice;\n  string private _nftName;\n  string private _nftSymbol;\n  address private _saleAddress;\n\n  event Received(address, uint);\n\n  constructor(string memory tokenName_,string memory tokenSymbol_,uint256 maxSupply_,uint256 initialPrice_,uint256 saleStart_,uint256 saleEnd_,string memory nftName_,string memory nftSymbol_,address _owner) {\n    _transferOwnership(_owner);\n    _tokenName = tokenName_;\n    _decimals = 18;\n    _tokenSymbol = tokenSymbol_;\n    _maxSupply = maxSupply_ * 10**_decimals;\n    _initialPrice = initialPrice_;\n    _nftName = nftName_;\n    _nftSymbol = nftSymbol_;\n    _totalSupply = 0;\n    TokenSale ts = new TokenSale(_owner,address(this),saleStart_,saleEnd_,address(0x9d83e140330758a8fFD07F8Bd73e86ebcA8a5692\n));\n    _saleAddress = address(ts);\n  }\n\n\n  function totalSupply() public view virtual override returns (uint256){\n    return _totalSupply;\n  }\n\n  function maxSupply() public view returns (uint256){\n    return _maxSupply;\n  }\n  \n  function getOwner() public view returns(address){\n      return owner();\n  }\n\n  function name() public view virtual returns (string memory){\n    return _tokenName;\n  }\n\n  function decimals() public view virtual returns (uint8){\n    return _decimals;\n  }\n\n  function symbol() public view virtual returns (string memory){\n    return _tokenSymbol;\n  }\n\n  function nftName() public view virtual returns(string memory){\n    return _nftName;\n  }\n\n  function nftSymbol() public view virtual returns(string memory){\n    return _nftSymbol;\n  }\n\n  function initialPrice() public view virtual returns (uint256) {\n      return _initialPrice;\n  }\n\n  function saleAddress() public view virtual returns(address){\n    return _saleAddress;\n  }\n\n  function balanceOf(address tokenOwner)\n      public\n      view\n      virtual\n      override\n      returns (uint256 balance){\n        return _balances[tokenOwner];\n      }\n\n  function allowance(address tokenOwner, address spender)\n      public\n      view\n      virtual\n      override\n      returns (uint256 remaining){\n        return _allowances[tokenOwner][spender];\n      }\n      \n\n  function transfer(address _to, uint256 _amount)\n      public\n      virtual\n      override\n      returns (bool success){        \n      require(_balances[msg.sender]>=_amount,\"Amount exceeds balance\");\n        _transfer(msg.sender, _to, _amount*10**_decimals);\n        return true;\n      }\n\n  function approve(address _spender, uint256 _amount)\n      public\n      virtual\n      override\n      returns (bool success){\n        _approve(msg.sender, _spender, _amount* 10**_decimals);\n        return true;\n      }\n\n  function transferFrom(\n      address _from,\n      address _to,\n      uint256 _amount\n  ) public virtual override returns (bool success){\n    \n    require(_balances[_from]>=_amount,\"Amount exceeds balance\");\n    _spendAllowance(_from, msg.sender, _amount);\n    _transfer(_from, _to, _amount *10**_decimals);\n    return true;\n  }  \n\n  function mint(address _address,uint256 _amount) public virtual override returns(bool){\n    require(_address != address(0),\"Cannot mint to address 0\");\n    require(_maxSupply>=_totalSupply+_amount,\"Max supply exceeded\");\n\n    _totalSupply += _amount;\n    _balances[_address] += _amount;\n\n    emit Transfer(address(0),_address,_amount);\n\n    return true;\n  }\n\n  function increaseAllowance(address _spender,uint256 _amount) public virtual returns(bool){\n    _approve(msg.sender, _spender, allowance(msg.sender,_spender)+_amount * 10**_decimals);\n    return true;\n  }\n\n  function decreaseAllowance(address _spender,uint256 _amount) public virtual returns(bool){\n    require(allowance(msg.sender, _spender)>=_amount* 10**_decimals,\"Allowance cannot be less than zero\");\n    _approve(msg.sender, _spender, allowance(msg.sender,_spender)-_amount * 10**_decimals);\n    return true;\n  }\n\n  function _transfer(address _from,address _to,uint256 _amount) internal virtual{\n    require(_from != address(0),\"transfer from the zero address\");\n    require(_to != address(0),\"transfer to the zero address\");\n\n    _balances[_to] += _amount;\n\n    emit Transfer(_from, _to, _amount);\n\n  }\n  function _approve(address _owner,address _spender,uint256 _amount) internal virtual{\n    require(_owner != address(0),\"cannot approve from address 0\");\n    require(_spender != address(0),\"cannot approve to address 0\");\n    require(_balances[_owner]>=_amount,\"not enough token\");\n\n    _allowances[_owner][_spender] = _amount;\n\n    emit Approval(_owner, _spender, _amount);\n  }\n\n  function _spendAllowance(address _owner,address _spender,uint256 _amount) internal virtual{\n    require(_owner != address(0),\"cannot spend allownace from address 0\");\n    require(_spender != address(0),\"cannot spend allownace to address 0\");\n    require(_allowances[_owner][_spender]>=_amount* 10**_decimals,\"not enough token allowed\");\n    unchecked {\n      _allowances[_owner][_spender] -= _amount* 10**_decimals;      \n    }\n  }\n\n}\n",
  "sourcePath": "C:\\Users\\pemba\\Documents\\BlockChain\\real_estate\\contracts\\RealEstateToken.sol",
  "compiler": {
    "name": "solc",
    "version": "0.8.14+commit.80d49f37.Emscripten.clang"
  },
  "schemaVersion": "3.4.3",
  "updatedAt": "2022-05-19T09:13:16.068Z",
  "devdoc": {
    "kind": "dev",
    "methods": {
      "owner()": {
        "details": "Returns the address of the current owner."
      },
      "renounceOwnership()": {
        "details": "Leaves the contract without owner. It will not be possible to call `onlyOwner` functions anymore. Can only be called by the current owner. NOTE: Renouncing ownership will leave the contract without an owner, thereby removing any functionality that is only available to the owner."
      },
      "totalSupply()": {
        "details": "Returns the amount of tokens in existence."
      },
      "transferOwnership(address)": {
        "details": "Transfers ownership of the contract to a new account (`newOwner`). Can only be called by the current owner."
      }
    },
    "version": 1
  },
  "userdoc": {
    "kind": "user",
    "methods": {},
    "version": 1
  }
}