{
  "contractName": "USDC",
  "abi": [
    {
      "inputs": [],
      "stateMutability": "nonpayable",
      "type": "constructor"
    },
    {
      "anonymous": false,
      "inputs": [
        {
          "indexed": true,
          "internalType": "address",
          "name": "owner",
          "type": "address"
        },
        {
          "indexed": true,
          "internalType": "address",
          "name": "spender",
          "type": "address"
        },
        {
          "indexed": false,
          "internalType": "uint256",
          "name": "value",
          "type": "uint256"
        }
      ],
      "name": "Approval",
      "type": "event"
    },
    {
      "anonymous": false,
      "inputs": [
        {
          "indexed": true,
          "internalType": "address",
          "name": "previousOwner",
          "type": "address"
        },
        {
          "indexed": true,
          "internalType": "address",
          "name": "newOwner",
          "type": "address"
        }
      ],
      "name": "OwnershipTransferred",
      "type": "event"
    },
    {
      "anonymous": false,
      "inputs": [
        {
          "indexed": true,
          "internalType": "address",
          "name": "from",
          "type": "address"
        },
        {
          "indexed": true,
          "internalType": "address",
          "name": "to",
          "type": "address"
        },
        {
          "indexed": false,
          "internalType": "uint256",
          "name": "value",
          "type": "uint256"
        }
      ],
      "name": "Transfer",
      "type": "event"
    },
    {
      "inputs": [],
      "name": "owner",
      "outputs": [
        {
          "internalType": "address",
          "name": "",
          "type": "address"
        }
      ],
      "stateMutability": "view",
      "type": "function",
      "constant": true
    },
    {
      "inputs": [],
      "name": "renounceOwnership",
      "outputs": [],
      "stateMutability": "nonpayable",
      "type": "function"
    },
    {
      "inputs": [
        {
          "internalType": "address",
          "name": "newOwner",
          "type": "address"
        }
      ],
      "name": "transferOwnership",
      "outputs": [],
      "stateMutability": "nonpayable",
      "type": "function"
    },
    {
      "inputs": [],
      "name": "totalSupply",
      "outputs": [
        {
          "internalType": "uint256",
          "name": "",
          "type": "uint256"
        }
      ],
      "stateMutability": "view",
      "type": "function",
      "constant": true
    },
    {
      "inputs": [],
      "name": "getOwner",
      "outputs": [
        {
          "internalType": "address",
          "name": "",
          "type": "address"
        }
      ],
      "stateMutability": "view",
      "type": "function",
      "constant": true
    },
    {
      "inputs": [],
      "name": "name",
      "outputs": [
        {
          "internalType": "string",
          "name": "",
          "type": "string"
        }
      ],
      "stateMutability": "view",
      "type": "function",
      "constant": true
    },
    {
      "inputs": [],
      "name": "decimals",
      "outputs": [
        {
          "internalType": "uint8",
          "name": "",
          "type": "uint8"
        }
      ],
      "stateMutability": "view",
      "type": "function",
      "constant": true
    },
    {
      "inputs": [],
      "name": "symbol",
      "outputs": [
        {
          "internalType": "string",
          "name": "",
          "type": "string"
        }
      ],
      "stateMutability": "view",
      "type": "function",
      "constant": true
    },
    {
      "inputs": [
        {
          "internalType": "address",
          "name": "tokenOwner",
          "type": "address"
        }
      ],
      "name": "balanceOf",
      "outputs": [
        {
          "internalType": "uint256",
          "name": "balance",
          "type": "uint256"
        }
      ],
      "stateMutability": "view",
      "type": "function",
      "constant": true
    },
    {
      "inputs": [
        {
          "internalType": "address",
          "name": "tokenOwner",
          "type": "address"
        },
        {
          "internalType": "address",
          "name": "spender",
          "type": "address"
        }
      ],
      "name": "allowance",
      "outputs": [
        {
          "internalType": "uint256",
          "name": "remaining",
          "type": "uint256"
        }
      ],
      "stateMutability": "view",
      "type": "function",
      "constant": true
    },
    {
      "inputs": [
        {
          "internalType": "address",
          "name": "_to",
          "type": "address"
        },
        {
          "internalType": "uint256",
          "name": "_amount",
          "type": "uint256"
        }
      ],
      "name": "transfer",
      "outputs": [
        {
          "internalType": "bool",
          "name": "success",
          "type": "bool"
        }
      ],
      "stateMutability": "nonpayable",
      "type": "function"
    },
    {
      "inputs": [
        {
          "internalType": "address",
          "name": "_spender",
          "type": "address"
        },
        {
          "internalType": "uint256",
          "name": "_amount",
          "type": "uint256"
        }
      ],
      "name": "approve",
      "outputs": [
        {
          "internalType": "bool",
          "name": "",
          "type": "bool"
        }
      ],
      "stateMutability": "nonpayable",
      "type": "function"
    },
    {
      "inputs": [
        {
          "internalType": "address",
          "name": "_from",
          "type": "address"
        },
        {
          "internalType": "address",
          "name": "_to",
          "type": "address"
        },
        {
          "internalType": "uint256",
          "name": "_amount",
          "type": "uint256"
        }
      ],
      "name": "transferFrom",
      "outputs": [
        {
          "internalType": "bool",
          "name": "success",
          "type": "bool"
        }
      ],
      "stateMutability": "nonpayable",
      "type": "function"
    },
    {
      "inputs": [
        {
          "internalType": "address",
          "name": "_spender",
          "type": "address"
        },
        {
          "internalType": "uint256",
          "name": "_amount",
          "type": "uint256"
        }
      ],
      "name": "increaseAllowance",
      "outputs": [
        {
          "internalType": "bool",
          "name": "",
          "type": "bool"
        }
      ],
      "stateMutability": "nonpayable",
      "type": "function"
    },
    {
      "inputs": [
        {
          "internalType": "address",
          "name": "_spender",
          "type": "address"
        },
        {
          "internalType": "uint256",
          "name": "_amount",
          "type": "uint256"
        }
      ],
      "name": "decreaseAllowance",
      "outputs": [
        {
          "internalType": "bool",
          "name": "",
          "type": "bool"
        }
      ],
      "stateMutability": "nonpayable",
      "type": "function"
    }
  ],
  "bytecode": "0x60806040526040518060400160405280600481526020017f5445535400000000000000000000000000000000000000000000000000000000815250600390805190602001906200005192919062000248565b506040518060400160405280600281526020017f5454000000000000000000000000000000000000000000000000000000000000815250600490805190602001906200009f92919062000248565b506012600560006101000a81548160ff021916908360ff16021790555069021e19e0c9bab2400000600655348015620000d757600080fd5b50620000f8620000ec6200015360201b60201c565b6200015b60201b60201c565b600654600160006200010f6200021f60201b60201c565b73ffffffffffffffffffffffffffffffffffffffff1673ffffffffffffffffffffffffffffffffffffffff168152602001908152602001600020819055506200035c565b600033905090565b60008060009054906101000a900473ffffffffffffffffffffffffffffffffffffffff169050816000806101000a81548173ffffffffffffffffffffffffffffffffffffffff021916908373ffffffffffffffffffffffffffffffffffffffff1602179055508173ffffffffffffffffffffffffffffffffffffffff168173ffffffffffffffffffffffffffffffffffffffff167f8be0079c531659141344cd1fd0a4f28419497f9722a3daafe3b4186f6b6457e060405160405180910390a35050565b60008060009054906101000a900473ffffffffffffffffffffffffffffffffffffffff16905090565b828054620002569062000327565b90600052602060002090601f0160209004810192826200027a5760008555620002c6565b82601f106200029557805160ff1916838001178555620002c6565b82800160010185558215620002c6579182015b82811115620002c5578251825591602001919060010190620002a8565b5b509050620002d59190620002d9565b5090565b5b80821115620002f4576000816000905550600101620002da565b5090565b7f4e487b7100000000000000000000000000000000000000000000000000000000600052602260045260246000fd5b600060028204905060018216806200034057607f821691505b602082108103620003565762000355620002f8565b5b50919050565b611cb0806200036c6000396000f3fe608060405234801561001057600080fd5b50600436106100f55760003560e01c8063715018a611610097578063a457c2d711610066578063a457c2d714610278578063a9059cbb146102a8578063dd62ed3e146102d8578063f2fde38b14610308576100f5565b8063715018a614610214578063893d20e81461021e5780638da5cb5b1461023c57806395d89b411461025a576100f5565b806323b872dd116100d357806323b872dd14610166578063313ce5671461019657806339509351146101b457806370a08231146101e4576100f5565b806306fdde03146100fa578063095ea7b31461011857806318160ddd14610148575b600080fd5b610102610324565b60405161010f9190611165565b60405180910390f35b610132600480360381019061012d9190611220565b6103b6565b60405161013f919061127b565b60405180910390f35b6101506103f3565b60405161015d91906112a5565b60405180910390f35b610180600480360381019061017b91906112c0565b6103fd565b60405161018d919061127b565b60405180910390f35b61019e6104ee565b6040516101ab919061132f565b60405180910390f35b6101ce60048036038101906101c99190611220565b610505565b6040516101db919061127b565b60405180910390f35b6101fe60048036038101906101f9919061134a565b610556565b60405161020b91906112a5565b60405180910390f35b61021c61059f565b005b610226610627565b6040516102339190611386565b60405180910390f35b610244610636565b6040516102519190611386565b60405180910390f35b61026261065f565b60405161026f9190611165565b60405180910390f35b610292600480360381019061028d9190611220565b6106f1565b60405161029f919061127b565b60405180910390f35b6102c260048036038101906102bd9190611220565b6107b4565b6040516102cf919061127b565b60405180910390f35b6102f260048036038101906102ed91906113a1565b61084d565b6040516102ff91906112a5565b60405180910390f35b610322600480360381019061031d919061134a565b6108d4565b005b60606003805461033390611410565b80601f016020809104026020016040519081016040528092919081815260200182805461035f90611410565b80156103ac5780601f10610381576101008083540402835291602001916103ac565b820191906000526020600020905b81548152906001019060200180831161038f57829003601f168201915b5050505050905090565b60006103e93384600560009054906101000a900460ff16600a6103d991906115a3565b856103e491906115ee565b6109cb565b6001905092915050565b6000600654905090565b6000600560009054906101000a900460ff16600a61041b91906115a3565b8261042691906115ee565b600160008673ffffffffffffffffffffffffffffffffffffffff1673ffffffffffffffffffffffffffffffffffffffff1681526020019081526020016000205410156104a7576040517f08c379a000000000000000000000000000000000000000000000000000000000815260040161049e90611694565b60405180910390fd5b6104b2843384610c16565b6104e38484600560009054906101000a900460ff16600a6104d391906115a3565b856104de91906115ee565b610e0c565b600190509392505050565b6000600560009054906101000a900460ff16905090565b600061054c3384600560009054906101000a900460ff16600a61052891906115a3565b8561053391906115ee565b61053d338861084d565b61054791906116b4565b6109cb565b6001905092915050565b6000600160008373ffffffffffffffffffffffffffffffffffffffff1673ffffffffffffffffffffffffffffffffffffffff168152602001908152602001600020549050919050565b6105a7611000565b73ffffffffffffffffffffffffffffffffffffffff166105c5610636565b73ffffffffffffffffffffffffffffffffffffffff161461061b576040517f08c379a000000000000000000000000000000000000000000000000000000000815260040161061290611756565b60405180910390fd5b6106256000611008565b565b6000610631610636565b905090565b60008060009054906101000a900473ffffffffffffffffffffffffffffffffffffffff16905090565b60606004805461066e90611410565b80601f016020809104026020016040519081016040528092919081815260200182805461069a90611410565b80156106e75780601f106106bc576101008083540402835291602001916106e7565b820191906000526020600020905b8154815290600101906020018083116106ca57829003601f168201915b5050505050905090565b6000600560009054906101000a900460ff16600a61070f91906115a3565b8261071a91906115ee565b610724338561084d565b1015610765576040517f08c379a000000000000000000000000000000000000000000000000000000000815260040161075c906117e8565b60405180910390fd5b6107aa3384600560009054906101000a900460ff16600a61078691906115a3565b8561079191906115ee565b61079b338861084d565b6107a59190611808565b6109cb565b6001905092915050565b600081600160003373ffffffffffffffffffffffffffffffffffffffff1673ffffffffffffffffffffffffffffffffffffffff168152602001908152602001600020541015610838576040517f08c379a000000000000000000000000000000000000000000000000000000000815260040161082f90611694565b60405180910390fd5b610843338484610e0c565b6001905092915050565b6000600260008473ffffffffffffffffffffffffffffffffffffffff1673ffffffffffffffffffffffffffffffffffffffff16815260200190815260200160002060008373ffffffffffffffffffffffffffffffffffffffff1673ffffffffffffffffffffffffffffffffffffffff16815260200190815260200160002054905092915050565b6108dc611000565b73ffffffffffffffffffffffffffffffffffffffff166108fa610636565b73ffffffffffffffffffffffffffffffffffffffff1614610950576040517f08c379a000000000000000000000000000000000000000000000000000000000815260040161094790611756565b60405180910390fd5b600073ffffffffffffffffffffffffffffffffffffffff168173ffffffffffffffffffffffffffffffffffffffff16036109bf576040517f08c379a00000000000000000000000000000000000000000000000000000000081526004016109b6906118ae565b60405180910390fd5b6109c881611008565b50565b600073ffffffffffffffffffffffffffffffffffffffff168373ffffffffffffffffffffffffffffffffffffffff1603610a3a576040517f08c379a0000000000000000000000000000000000000000000000000000000008152600401610a319061191a565b60405180910390fd5b600073ffffffffffffffffffffffffffffffffffffffff168273ffffffffffffffffffffffffffffffffffffffff1603610aa9576040517f08c379a0000000000000000000000000000000000000000000000000000000008152600401610aa090611986565b60405180910390fd5b80600160008573ffffffffffffffffffffffffffffffffffffffff1673ffffffffffffffffffffffffffffffffffffffff168152602001908152602001600020541015610b2b576040517f08c379a0000000000000000000000000000000000000000000000000000000008152600401610b22906119f2565b60405180910390fd5b80600260008573ffffffffffffffffffffffffffffffffffffffff1673ffffffffffffffffffffffffffffffffffffffff16815260200190815260200160002060008473ffffffffffffffffffffffffffffffffffffffff1673ffffffffffffffffffffffffffffffffffffffff168152602001908152602001600020819055508173ffffffffffffffffffffffffffffffffffffffff168373ffffffffffffffffffffffffffffffffffffffff167f8c5be1e5ebec7d5bd14f71427d1e84f3dd0314c0f7b2291e5b200ac8c7c3b92583604051610c0991906112a5565b60405180910390a3505050565b600073ffffffffffffffffffffffffffffffffffffffff168373ffffffffffffffffffffffffffffffffffffffff1603610c85576040517f08c379a0000000000000000000000000000000000000000000000000000000008152600401610c7c90611a84565b60405180910390fd5b600073ffffffffffffffffffffffffffffffffffffffff168273ffffffffffffffffffffffffffffffffffffffff1603610cf4576040517f08c379a0000000000000000000000000000000000000000000000000000000008152600401610ceb90611b16565b60405180910390fd5b600560009054906101000a900460ff16600a610d1091906115a3565b81610d1b91906115ee565b610d25848461084d565b1015610d66576040517f08c379a0000000000000000000000000000000000000000000000000000000008152600401610d5d90611b82565b60405180910390fd5b600560009054906101000a900460ff1660ff16600a0a8102600260008573ffffffffffffffffffffffffffffffffffffffff1673ffffffffffffffffffffffffffffffffffffffff16815260200190815260200160002060008473ffffffffffffffffffffffffffffffffffffffff1673ffffffffffffffffffffffffffffffffffffffff16815260200190815260200160002060008282540392505081905550505050565b600073ffffffffffffffffffffffffffffffffffffffff168373ffffffffffffffffffffffffffffffffffffffff1603610e7b576040517f08c379a0000000000000000000000000000000000000000000000000000000008152600401610e7290611bee565b60405180910390fd5b600073ffffffffffffffffffffffffffffffffffffffff168273ffffffffffffffffffffffffffffffffffffffff1603610eea576040517f08c379a0000000000000000000000000000000000000000000000000000000008152600401610ee190611c5a565b60405180910390fd5b80600160008573ffffffffffffffffffffffffffffffffffffffff1673ffffffffffffffffffffffffffffffffffffffff1681526020019081526020016000206000828254610f399190611808565b9250508190555080600160008473ffffffffffffffffffffffffffffffffffffffff1673ffffffffffffffffffffffffffffffffffffffff1681526020019081526020016000206000828254610f8f91906116b4565b925050819055508173ffffffffffffffffffffffffffffffffffffffff168373ffffffffffffffffffffffffffffffffffffffff167fddf252ad1be2c89b69c2b068fc378daa952ba7f163c4a11628f55a4df523b3ef83604051610ff391906112a5565b60405180910390a3505050565b600033905090565b60008060009054906101000a900473ffffffffffffffffffffffffffffffffffffffff169050816000806101000a81548173ffffffffffffffffffffffffffffffffffffffff021916908373ffffffffffffffffffffffffffffffffffffffff1602179055508173ffffffffffffffffffffffffffffffffffffffff168173ffffffffffffffffffffffffffffffffffffffff167f8be0079c531659141344cd1fd0a4f28419497f9722a3daafe3b4186f6b6457e060405160405180910390a35050565b600081519050919050565b600082825260208201905092915050565b60005b838110156111065780820151818401526020810190506110eb565b83811115611115576000848401525b50505050565b6000601f19601f8301169050919050565b6000611137826110cc565b61114181856110d7565b93506111518185602086016110e8565b61115a8161111b565b840191505092915050565b6000602082019050818103600083015261117f818461112c565b905092915050565b600080fd5b600073ffffffffffffffffffffffffffffffffffffffff82169050919050565b60006111b78261118c565b9050919050565b6111c7816111ac565b81146111d257600080fd5b50565b6000813590506111e4816111be565b92915050565b6000819050919050565b6111fd816111ea565b811461120857600080fd5b50565b60008135905061121a816111f4565b92915050565b6000806040838503121561123757611236611187565b5b6000611245858286016111d5565b92505060206112568582860161120b565b9150509250929050565b60008115159050919050565b61127581611260565b82525050565b6000602082019050611290600083018461126c565b92915050565b61129f816111ea565b82525050565b60006020820190506112ba6000830184611296565b92915050565b6000806000606084860312156112d9576112d8611187565b5b60006112e7868287016111d5565b93505060206112f8868287016111d5565b92505060406113098682870161120b565b9150509250925092565b600060ff82169050919050565b61132981611313565b82525050565b60006020820190506113446000830184611320565b92915050565b6000602082840312156113605761135f611187565b5b600061136e848285016111d5565b91505092915050565b611380816111ac565b82525050565b600060208201905061139b6000830184611377565b92915050565b600080604083850312156113b8576113b7611187565b5b60006113c6858286016111d5565b92505060206113d7858286016111d5565b9150509250929050565b7f4e487b7100000000000000000000000000000000000000000000000000000000600052602260045260246000fd5b6000600282049050600182168061142857607f821691505b60208210810361143b5761143a6113e1565b5b50919050565b7f4e487b7100000000000000000000000000000000000000000000000000000000600052601160045260246000fd5b60008160011c9050919050565b6000808291508390505b60018511156114c7578086048111156114a3576114a2611441565b5b60018516156114b25780820291505b80810290506114c085611470565b9450611487565b94509492505050565b6000826114e0576001905061159c565b816114ee576000905061159c565b8160018114611504576002811461150e5761153d565b600191505061159c565b60ff8411156115205761151f611441565b5b8360020a91508482111561153757611536611441565b5b5061159c565b5060208310610133831016604e8410600b84101617156115725782820a90508381111561156d5761156c611441565b5b61159c565b61157f848484600161147d565b9250905081840481111561159657611595611441565b5b81810290505b9392505050565b60006115ae826111ea565b91506115b983611313565b92506115e67fffffffffffffffffffffffffffffffffffffffffffffffffffffffffffffffff84846114d0565b905092915050565b60006115f9826111ea565b9150611604836111ea565b9250817fffffffffffffffffffffffffffffffffffffffffffffffffffffffffffffffff048311821515161561163d5761163c611441565b5b828202905092915050565b7f416d6f756e7420657863656564732062616c616e636500000000000000000000600082015250565b600061167e6016836110d7565b915061168982611648565b602082019050919050565b600060208201905081810360008301526116ad81611671565b9050919050565b60006116bf826111ea565b91506116ca836111ea565b9250827fffffffffffffffffffffffffffffffffffffffffffffffffffffffffffffffff038211156116ff576116fe611441565b5b828201905092915050565b7f4f776e61626c653a2063616c6c6572206973206e6f7420746865206f776e6572600082015250565b60006117406020836110d7565b915061174b8261170a565b602082019050919050565b6000602082019050818103600083015261176f81611733565b9050919050565b7f416c6c6f77616e63652063616e6e6f74206265206c657373207468616e207a6560008201527f726f000000000000000000000000000000000000000000000000000000000000602082015250565b60006117d26022836110d7565b91506117dd82611776565b604082019050919050565b60006020820190508181036000830152611801816117c5565b9050919050565b6000611813826111ea565b915061181e836111ea565b92508282101561183157611830611441565b5b828203905092915050565b7f4f776e61626c653a206e6577206f776e657220697320746865207a65726f206160008201527f6464726573730000000000000000000000000000000000000000000000000000602082015250565b60006118986026836110d7565b91506118a38261183c565b604082019050919050565b600060208201905081810360008301526118c78161188b565b9050919050565b7f63616e6e6f7420617070726f76652066726f6d20616464726573732030000000600082015250565b6000611904601d836110d7565b915061190f826118ce565b602082019050919050565b60006020820190508181036000830152611933816118f7565b9050919050565b7f63616e6e6f7420617070726f766520746f206164647265737320300000000000600082015250565b6000611970601b836110d7565b915061197b8261193a565b602082019050919050565b6000602082019050818103600083015261199f81611963565b9050919050565b7f6e6f7420656e6f75676820746f6b656e00000000000000000000000000000000600082015250565b60006119dc6010836110d7565b91506119e7826119a6565b602082019050919050565b60006020820190508181036000830152611a0b816119cf565b9050919050565b7f63616e6e6f74207370656e6420616c6c6f776e6163652066726f6d206164647260008201527f6573732030000000000000000000000000000000000000000000000000000000602082015250565b6000611a6e6025836110d7565b9150611a7982611a12565b604082019050919050565b60006020820190508181036000830152611a9d81611a61565b9050919050565b7f63616e6e6f74207370656e6420616c6c6f776e61636520746f2061646472657360008201527f7320300000000000000000000000000000000000000000000000000000000000602082015250565b6000611b006023836110d7565b9150611b0b82611aa4565b604082019050919050565b60006020820190508181036000830152611b2f81611af3565b9050919050565b7f6e6f7420656e6f75676820746f6b656e20616c6c6f7765640000000000000000600082015250565b6000611b6c6018836110d7565b9150611b7782611b36565b602082019050919050565b60006020820190508181036000830152611b9b81611b5f565b9050919050565b7f7472616e736665722066726f6d20746865207a65726f20616464726573730000600082015250565b6000611bd8601e836110d7565b9150611be382611ba2565b602082019050919050565b60006020820190508181036000830152611c0781611bcb565b9050919050565b7f7472616e7366657220746f20746865207a65726f206164647265737300000000600082015250565b6000611c44601c836110d7565b9150611c4f82611c0e565b602082019050919050565b60006020820190508181036000830152611c7381611c37565b905091905056fea2646970667358221220f1db771fe006ce9ffc861510c4d27ca85c83bd0f5c6e8580c7fe2c2962349f2f64736f6c634300080e0033",
  "immutableReferences": {},
  "source": "// SPDX-License-Identifier: MIT\r\npragma solidity ^0.8.0;\r\n\r\nimport \"@openzeppelin/contracts/token/ERC20/IERC20.sol\";\r\nimport \"@openzeppelin/contracts/access/Ownable.sol\";\r\n\r\ncontract USDC is IERC20 , Ownable  {\r\n\r\n  mapping(address => uint256) _balances;\r\n  mapping(address =>mapping(address=>uint256)) _allowances;\r\n\r\n  string private _tokenName=\"TEST\";\r\n  string private _tokenSymbol=\"TT\";\r\n  uint8 private _decimals=18;\r\n  uint256 private _totalSupply=10000000000000000000000;\r\n\r\n  constructor(){\r\n      _balances[owner()]= _totalSupply;\r\n  }\r\n\r\n\r\n  function totalSupply() public view virtual override returns (uint256){\r\n    return _totalSupply;\r\n  }\r\n  \r\n  function getOwner() public view returns(address){\r\n      return owner();\r\n  }\r\n\r\n  function name() public view virtual returns (string memory){\r\n    return _tokenName;\r\n  }\r\n\r\n  function decimals() public view virtual returns (uint8){\r\n    return _decimals;\r\n  }\r\n\r\n  function symbol() public view virtual returns (string memory){\r\n    return _tokenSymbol;\r\n  }\r\n\r\n  function balanceOf(address tokenOwner)\r\n      public\r\n      view\r\n      virtual\r\n      override\r\n      returns (uint256 balance){\r\n        return _balances[tokenOwner];\r\n      }\r\n\r\n\r\n  function allowance(address tokenOwner, address spender)\r\n      public\r\n      view\r\n      virtual\r\n      override\r\n      returns (uint256 remaining){\r\n        return _allowances[tokenOwner][spender];\r\n      }\r\n\r\n  function transfer(address _to, uint256 _amount)\r\n      public\r\n      virtual\r\n      override\r\n      returns (bool success){        \r\n      require(_balances[msg.sender]>=_amount,\"Amount exceeds balance\");\r\n        _transfer(msg.sender, _to, _amount);\r\n        return true;\r\n      }\r\n\r\n  function approve(address _spender, uint256 _amount)\r\n      public\r\n      virtual\r\n      override\r\n      returns (bool){\r\n        _approve(msg.sender, _spender, _amount* 10**_decimals);\r\n        return true;\r\n      }\r\n\r\n  function transferFrom(\r\n      address _from,\r\n      address _to,\r\n      uint256 _amount\r\n  ) public virtual override returns (bool success){\r\n    \r\n    require(_balances[_from]>=_amount*10**_decimals,\"Amount exceeds balance\");\r\n    // uint adsd = _amount*10**_decimals;\r\n    _spendAllowance(_from, msg.sender, _amount);\r\n    _transfer(_from, _to, _amount *10**_decimals);\r\n    return true;\r\n  }\r\n\r\n  function increaseAllowance(address _spender,uint256 _amount) public virtual returns(bool){\r\n    _approve(msg.sender, _spender, allowance(msg.sender,_spender)+_amount * 10**_decimals);\r\n    return true;\r\n  }\r\n\r\n  function decreaseAllowance(address _spender,uint256 _amount) public virtual returns(bool){\r\n    require(allowance(msg.sender, _spender)>=_amount* 10**_decimals,\"Allowance cannot be less than zero\");\r\n    _approve(msg.sender, _spender, allowance(msg.sender,_spender)-_amount * 10**_decimals);\r\n    return true;\r\n  }\r\n\r\n  function _transfer(address _from,address _to,uint256 _amount) internal virtual{\r\n    require(_from != address(0),\"transfer from the zero address\");\r\n    require(_to != address(0),\"transfer to the zero address\");\r\n\r\n    _balances[_from] -= _amount;\r\n    _balances[_to] += _amount;\r\n\r\n    emit Transfer(_from, _to, _amount);\r\n\r\n  }\r\n  function _approve(address _owner,address _spender,uint256 _amount) internal virtual{\r\n    require(_owner != address(0),\"cannot approve from address 0\");\r\n    require(_spender != address(0),\"cannot approve to address 0\");\r\n    require(_balances[_owner]>=_amount,\"not enough token\");\r\n\r\n    _allowances[_owner][_spender] = _amount;\r\n\r\n    emit Approval(_owner, _spender, _amount);\r\n  }\r\n\r\n  function _spendAllowance(address _owner,address _spender,uint256 _amount) internal virtual{\r\n    require(_owner != address(0),\"cannot spend allownace from address 0\");\r\n    require(_spender != address(0),\"cannot spend allownace to address 0\");\r\n    require(allowance(_owner,_spender)>=_amount* 10**_decimals,\"not enough token allowed\");\r\n    unchecked {\r\n      _allowances[_owner][_spender] -= _amount* 10**_decimals;      \r\n    }\r\n  }\r\n\r\n\r\n}\r\n",
  "sourcePath": "C:\\Users\\pemba\\Documents\\BlockChain\\real_estate\\contracts\\Usdc.sol",
  "compiler": {
    "name": "solc",
    "version": "0.8.14+commit.80d49f37.Emscripten.clang"
  },
  "schemaVersion": "3.4.3",
  "updatedAt": "2022-05-19T09:13:27.494Z",
  "networkType": "ethereum",
  "devdoc": {
    "kind": "dev",
    "methods": {
      "owner()": {
        "details": "Returns the address of the current owner."
      },
      "renounceOwnership()": {
        "details": "Leaves the contract without owner. It will not be possible to call `onlyOwner` functions anymore. Can only be called by the current owner. NOTE: Renouncing ownership will leave the contract without an owner, thereby removing any functionality that is only available to the owner."
      },
      "totalSupply()": {
        "details": "Returns the amount of tokens in existence."
      },
      "transferOwnership(address)": {
        "details": "Transfers ownership of the contract to a new account (`newOwner`). Can only be called by the current owner."
      }
    },
    "version": 1
  },
  "userdoc": {
    "kind": "user",
    "methods": {},
    "version": 1
  }
}